{
	"contracts/Ballot/MyBallot.sol": {
		"MyBallot": {
			"abi": [
				{
					"inputs": [],
					"name": "owner",
					"outputs": [
						{
							"internalType": "address",
							"name": "",
							"type": "address"
						}
					],
					"stateMutability": "view",
					"type": "function"
				},
				{
					"inputs": [
						{
							"internalType": "address",
							"name": "",
							"type": "address"
						}
					],
					"name": "voters",
					"outputs": [
						{
							"internalType": "bool",
							"name": "canVote",
							"type": "bool"
						},
						{
							"internalType": "bool",
							"name": "hasVoted",
							"type": "bool"
						}
					],
					"stateMutability": "view",
					"type": "function"
				}
			],
			"devdoc": {
				"kind": "dev",
				"methods": {},
				"version": 1
			},
			"evm": {
				"assembly": "    /* \"contracts/Ballot/MyBallot.sol\":62:347  contract MyBallot {\r... */\n  mstore(0x40, 0x80)\n  callvalue\n  dup1\n  iszero\n  tag_1\n  jumpi\n  0x00\n  dup1\n  revert\ntag_1:\n  pop\n  dataSize(sub_0)\n  dup1\n  dataOffset(sub_0)\n  0x00\n  codecopy\n  0x00\n  return\nstop\n\nsub_0: assembly {\n        /* \"contracts/Ballot/MyBallot.sol\":62:347  contract MyBallot {\r... */\n      mstore(0x40, 0x80)\n      callvalue\n      dup1\n      iszero\n      tag_1\n      jumpi\n      0x00\n      dup1\n      revert\n    tag_1:\n      pop\n      jumpi(tag_2, lt(calldatasize, 0x04))\n      shr(0xe0, calldataload(0x00))\n      dup1\n      0x8da5cb5b\n      eq\n      tag_3\n      jumpi\n      dup1\n      0xa3ec138d\n      eq\n      tag_4\n      jumpi\n    tag_2:\n      0x00\n      dup1\n      revert\n        /* \"contracts/Ballot/MyBallot.sol\":269:289  address public owner */\n    tag_3:\n      tag_5\n      tag_6\n      jump\t// in\n    tag_5:\n      mload(0x40)\n      tag_7\n      swap2\n      swap1\n      tag_8\n      jump\t// in\n    tag_7:\n      mload(0x40)\n      dup1\n      swap2\n      sub\n      swap1\n      return\n        /* \"contracts/Ballot/MyBallot.sol\":302:341  mapping(address => Voter) public voters */\n    tag_4:\n      tag_9\n      0x04\n      dup1\n      calldatasize\n      sub\n      dup2\n      add\n      swap1\n      tag_10\n      swap2\n      swap1\n      tag_11\n      jump\t// in\n    tag_10:\n      tag_12\n      jump\t// in\n    tag_9:\n      mload(0x40)\n      tag_13\n      swap3\n      swap2\n      swap1\n      tag_14\n      jump\t// in\n    tag_13:\n      mload(0x40)\n      dup1\n      swap2\n      sub\n      swap1\n      return\n        /* \"contracts/Ballot/MyBallot.sol\":269:289  address public owner */\n    tag_6:\n      0x00\n      dup1\n      sload\n      swap1\n      0x0100\n      exp\n      swap1\n      div\n      0xffffffffffffffffffffffffffffffffffffffff\n      and\n      dup2\n      jump\t// out\n        /* \"contracts/Ballot/MyBallot.sol\":302:341  mapping(address => Voter) public voters */\n    tag_12:\n      mstore(0x20, 0x01)\n      dup1\n      0x00\n      mstore\n      keccak256(0x00, 0x40)\n      0x00\n      swap2\n      pop\n      swap1\n      pop\n      dup1\n      0x00\n      add\n      0x00\n      swap1\n      sload\n      swap1\n      0x0100\n      exp\n      swap1\n      div\n      0xff\n      and\n      swap1\n      dup1\n      0x00\n      add\n      0x01\n      swap1\n      sload\n      swap1\n      0x0100\n      exp\n      swap1\n      div\n      0xff\n      and\n      swap1\n      pop\n      dup3\n      jump\t// out\n        /* \"#utility.yul\":7:146   */\n    tag_16:\n        /* \"#utility.yul\":53:58   */\n      0x00\n        /* \"#utility.yul\":91:97   */\n      dup2\n        /* \"#utility.yul\":78:98   */\n      calldataload\n        /* \"#utility.yul\":69:98   */\n      swap1\n      pop\n        /* \"#utility.yul\":107:140   */\n      tag_18\n        /* \"#utility.yul\":134:139   */\n      dup2\n        /* \"#utility.yul\":107:140   */\n      tag_19\n      jump\t// in\n    tag_18:\n        /* \"#utility.yul\":7:146   */\n      swap3\n      swap2\n      pop\n      pop\n      jump\t// out\n        /* \"#utility.yul\":152:481   */\n    tag_11:\n        /* \"#utility.yul\":211:217   */\n      0x00\n        /* \"#utility.yul\":260:262   */\n      0x20\n        /* \"#utility.yul\":248:257   */\n      dup3\n        /* \"#utility.yul\":239:246   */\n      dup5\n        /* \"#utility.yul\":235:258   */\n      sub\n        /* \"#utility.yul\":231:263   */\n      slt\n        /* \"#utility.yul\":228:347   */\n      iszero\n      tag_21\n      jumpi\n        /* \"#utility.yul\":266:345   */\n      tag_22\n      tag_23\n      jump\t// in\n    tag_22:\n        /* \"#utility.yul\":228:347   */\n    tag_21:\n        /* \"#utility.yul\":386:387   */\n      0x00\n        /* \"#utility.yul\":411:464   */\n      tag_24\n        /* \"#utility.yul\":456:463   */\n      dup5\n        /* \"#utility.yul\":447:453   */\n      dup3\n        /* \"#utility.yul\":436:445   */\n      dup6\n        /* \"#utility.yul\":432:454   */\n      add\n        /* \"#utility.yul\":411:464   */\n      tag_16\n      jump\t// in\n    tag_24:\n        /* \"#utility.yul\":401:464   */\n      swap2\n      pop\n        /* \"#utility.yul\":357:474   */\n      pop\n        /* \"#utility.yul\":152:481   */\n      swap3\n      swap2\n      pop\n      pop\n      jump\t// out\n        /* \"#utility.yul\":487:605   */\n    tag_25:\n        /* \"#utility.yul\":574:598   */\n      tag_27\n        /* \"#utility.yul\":592:597   */\n      dup2\n        /* \"#utility.yul\":574:598   */\n      tag_28\n      jump\t// in\n    tag_27:\n        /* \"#utility.yul\":569:572   */\n      dup3\n        /* \"#utility.yul\":562:599   */\n      mstore\n        /* \"#utility.yul\":487:605   */\n      pop\n      pop\n      jump\t// out\n        /* \"#utility.yul\":611:720   */\n    tag_29:\n        /* \"#utility.yul\":692:713   */\n      tag_31\n        /* \"#utility.yul\":707:712   */\n      dup2\n        /* \"#utility.yul\":692:713   */\n      tag_32\n      jump\t// in\n    tag_31:\n        /* \"#utility.yul\":687:690   */\n      dup3\n        /* \"#utility.yul\":680:714   */\n      mstore\n        /* \"#utility.yul\":611:720   */\n      pop\n      pop\n      jump\t// out\n        /* \"#utility.yul\":726:948   */\n    tag_8:\n        /* \"#utility.yul\":819:823   */\n      0x00\n        /* \"#utility.yul\":857:859   */\n      0x20\n        /* \"#utility.yul\":846:855   */\n      dup3\n        /* \"#utility.yul\":842:860   */\n      add\n        /* \"#utility.yul\":834:860   */\n      swap1\n      pop\n        /* \"#utility.yul\":870:941   */\n      tag_34\n        /* \"#utility.yul\":938:939   */\n      0x00\n        /* \"#utility.yul\":927:936   */\n      dup4\n        /* \"#utility.yul\":923:940   */\n      add\n        /* \"#utility.yul\":914:920   */\n      dup5\n        /* \"#utility.yul\":870:941   */\n      tag_25\n      jump\t// in\n    tag_34:\n        /* \"#utility.yul\":726:948   */\n      swap3\n      swap2\n      pop\n      pop\n      jump\t// out\n        /* \"#utility.yul\":954:1262   */\n    tag_14:\n        /* \"#utility.yul\":1063:1067   */\n      0x00\n        /* \"#utility.yul\":1101:1103   */\n      0x40\n        /* \"#utility.yul\":1090:1099   */\n      dup3\n        /* \"#utility.yul\":1086:1104   */\n      add\n        /* \"#utility.yul\":1078:1104   */\n      swap1\n      pop\n        /* \"#utility.yul\":1114:1179   */\n      tag_36\n        /* \"#utility.yul\":1176:1177   */\n      0x00\n        /* \"#utility.yul\":1165:1174   */\n      dup4\n        /* \"#utility.yul\":1161:1178   */\n      add\n        /* \"#utility.yul\":1152:1158   */\n      dup6\n        /* \"#utility.yul\":1114:1179   */\n      tag_29\n      jump\t// in\n    tag_36:\n        /* \"#utility.yul\":1189:1255   */\n      tag_37\n        /* \"#utility.yul\":1251:1253   */\n      0x20\n        /* \"#utility.yul\":1240:1249   */\n      dup4\n        /* \"#utility.yul\":1236:1254   */\n      add\n        /* \"#utility.yul\":1227:1233   */\n      dup5\n        /* \"#utility.yul\":1189:1255   */\n      tag_29\n      jump\t// in\n    tag_37:\n        /* \"#utility.yul\":954:1262   */\n      swap4\n      swap3\n      pop\n      pop\n      pop\n      jump\t// out\n        /* \"#utility.yul\":1349:1445   */\n    tag_28:\n        /* \"#utility.yul\":1386:1393   */\n      0x00\n        /* \"#utility.yul\":1415:1439   */\n      tag_41\n        /* \"#utility.yul\":1433:1438   */\n      dup3\n        /* \"#utility.yul\":1415:1439   */\n      tag_42\n      jump\t// in\n    tag_41:\n        /* \"#utility.yul\":1404:1439   */\n      swap1\n      pop\n        /* \"#utility.yul\":1349:1445   */\n      swap2\n      swap1\n      pop\n      jump\t// out\n        /* \"#utility.yul\":1451:1541   */\n    tag_32:\n        /* \"#utility.yul\":1485:1492   */\n      0x00\n        /* \"#utility.yul\":1528:1533   */\n      dup2\n        /* \"#utility.yul\":1521:1534   */\n      iszero\n        /* \"#utility.yul\":1514:1535   */\n      iszero\n        /* \"#utility.yul\":1503:1535   */\n      swap1\n      pop\n        /* \"#utility.yul\":1451:1541   */\n      swap2\n      swap1\n      pop\n      jump\t// out\n        /* \"#utility.yul\":1547:1673   */\n    tag_42:\n        /* \"#utility.yul\":1584:1591   */\n      0x00\n        /* \"#utility.yul\":1624:1666   */\n      0xffffffffffffffffffffffffffffffffffffffff\n        /* \"#utility.yul\":1617:1622   */\n      dup3\n        /* \"#utility.yul\":1613:1667   */\n      and\n        /* \"#utility.yul\":1602:1667   */\n      swap1\n      pop\n        /* \"#utility.yul\":1547:1673   */\n      swap2\n      swap1\n      pop\n      jump\t// out\n        /* \"#utility.yul\":1802:1919   */\n    tag_23:\n        /* \"#utility.yul\":1911:1912   */\n      0x00\n        /* \"#utility.yul\":1908:1909   */\n      dup1\n        /* \"#utility.yul\":1901:1913   */\n      revert\n        /* \"#utility.yul\":1925:2047   */\n    tag_19:\n        /* \"#utility.yul\":1998:2022   */\n      tag_49\n        /* \"#utility.yul\":2016:2021   */\n      dup2\n        /* \"#utility.yul\":1998:2022   */\n      tag_28\n      jump\t// in\n    tag_49:\n        /* \"#utility.yul\":1991:1996   */\n      dup2\n        /* \"#utility.yul\":1988:2023   */\n      eq\n        /* \"#utility.yul\":1978:2041   */\n      tag_50\n      jumpi\n        /* \"#utility.yul\":2037:2038   */\n      0x00\n        /* \"#utility.yul\":2034:2035   */\n      dup1\n        /* \"#utility.yul\":2027:2039   */\n      revert\n        /* \"#utility.yul\":1978:2041   */\n    tag_50:\n        /* \"#utility.yul\":1925:2047   */\n      pop\n      jump\t// out\n\n    auxdata: 0xa2646970667358221220635b70a8726b1034b9b5b4ffde191a40fb053a1482cc8c3d21a1ccc06358976764736f6c63430008070033\n}\n",
				"bytecode": {
					"linkReferences": {},
					"object": "608060405234801561001057600080fd5b50610220806100206000396000f3fe608060405234801561001057600080fd5b50600436106100365760003560e01c80638da5cb5b1461003b578063a3ec138d14610059575b600080fd5b61004361008a565b604051610050919061014c565b60405180910390f35b610073600480360381019061006e9190610101565b6100ae565b604051610081929190610167565b60405180910390f35b60008054906101000a900473ffffffffffffffffffffffffffffffffffffffff1681565b60016020528060005260406000206000915090508060000160009054906101000a900460ff16908060000160019054906101000a900460ff16905082565b6000813590506100fb816101d3565b92915050565b600060208284031215610117576101166101ce565b5b6000610125848285016100ec565b91505092915050565b61013781610190565b82525050565b610146816101a2565b82525050565b6000602082019050610161600083018461012e565b92915050565b600060408201905061017c600083018561013d565b610189602083018461013d565b9392505050565b600061019b826101ae565b9050919050565b60008115159050919050565b600073ffffffffffffffffffffffffffffffffffffffff82169050919050565b600080fd5b6101dc81610190565b81146101e757600080fd5b5056fea2646970667358221220635b70a8726b1034b9b5b4ffde191a40fb053a1482cc8c3d21a1ccc06358976764736f6c63430008070033",
					"opcodes": "PUSH1 0x80 PUSH1 0x40 MSTORE CALLVALUE DUP1 ISZERO PUSH2 0x10 JUMPI PUSH1 0x0 DUP1 REVERT JUMPDEST POP PUSH2 0x220 DUP1 PUSH2 0x20 PUSH1 0x0 CODECOPY PUSH1 0x0 RETURN INVALID PUSH1 0x80 PUSH1 0x40 MSTORE CALLVALUE DUP1 ISZERO PUSH2 0x10 JUMPI PUSH1 0x0 DUP1 REVERT JUMPDEST POP PUSH1 0x4 CALLDATASIZE LT PUSH2 0x36 JUMPI PUSH1 0x0 CALLDATALOAD PUSH1 0xE0 SHR DUP1 PUSH4 0x8DA5CB5B EQ PUSH2 0x3B JUMPI DUP1 PUSH4 0xA3EC138D EQ PUSH2 0x59 JUMPI JUMPDEST PUSH1 0x0 DUP1 REVERT JUMPDEST PUSH2 0x43 PUSH2 0x8A JUMP JUMPDEST PUSH1 0x40 MLOAD PUSH2 0x50 SWAP2 SWAP1 PUSH2 0x14C JUMP JUMPDEST PUSH1 0x40 MLOAD DUP1 SWAP2 SUB SWAP1 RETURN JUMPDEST PUSH2 0x73 PUSH1 0x4 DUP1 CALLDATASIZE SUB DUP2 ADD SWAP1 PUSH2 0x6E SWAP2 SWAP1 PUSH2 0x101 JUMP JUMPDEST PUSH2 0xAE JUMP JUMPDEST PUSH1 0x40 MLOAD PUSH2 0x81 SWAP3 SWAP2 SWAP1 PUSH2 0x167 JUMP JUMPDEST PUSH1 0x40 MLOAD DUP1 SWAP2 SUB SWAP1 RETURN JUMPDEST PUSH1 0x0 DUP1 SLOAD SWAP1 PUSH2 0x100 EXP SWAP1 DIV PUSH20 0xFFFFFFFFFFFFFFFFFFFFFFFFFFFFFFFFFFFFFFFF AND DUP2 JUMP JUMPDEST PUSH1 0x1 PUSH1 0x20 MSTORE DUP1 PUSH1 0x0 MSTORE PUSH1 0x40 PUSH1 0x0 KECCAK256 PUSH1 0x0 SWAP2 POP SWAP1 POP DUP1 PUSH1 0x0 ADD PUSH1 0x0 SWAP1 SLOAD SWAP1 PUSH2 0x100 EXP SWAP1 DIV PUSH1 0xFF AND SWAP1 DUP1 PUSH1 0x0 ADD PUSH1 0x1 SWAP1 SLOAD SWAP1 PUSH2 0x100 EXP SWAP1 DIV PUSH1 0xFF AND SWAP1 POP DUP3 JUMP JUMPDEST PUSH1 0x0 DUP2 CALLDATALOAD SWAP1 POP PUSH2 0xFB DUP2 PUSH2 0x1D3 JUMP JUMPDEST SWAP3 SWAP2 POP POP JUMP JUMPDEST PUSH1 0x0 PUSH1 0x20 DUP3 DUP5 SUB SLT ISZERO PUSH2 0x117 JUMPI PUSH2 0x116 PUSH2 0x1CE JUMP JUMPDEST JUMPDEST PUSH1 0x0 PUSH2 0x125 DUP5 DUP3 DUP6 ADD PUSH2 0xEC JUMP JUMPDEST SWAP2 POP POP SWAP3 SWAP2 POP POP JUMP JUMPDEST PUSH2 0x137 DUP2 PUSH2 0x190 JUMP JUMPDEST DUP3 MSTORE POP POP JUMP JUMPDEST PUSH2 0x146 DUP2 PUSH2 0x1A2 JUMP JUMPDEST DUP3 MSTORE POP POP JUMP JUMPDEST PUSH1 0x0 PUSH1 0x20 DUP3 ADD SWAP1 POP PUSH2 0x161 PUSH1 0x0 DUP4 ADD DUP5 PUSH2 0x12E JUMP JUMPDEST SWAP3 SWAP2 POP POP JUMP JUMPDEST PUSH1 0x0 PUSH1 0x40 DUP3 ADD SWAP1 POP PUSH2 0x17C PUSH1 0x0 DUP4 ADD DUP6 PUSH2 0x13D JUMP JUMPDEST PUSH2 0x189 PUSH1 0x20 DUP4 ADD DUP5 PUSH2 0x13D JUMP JUMPDEST SWAP4 SWAP3 POP POP POP JUMP JUMPDEST PUSH1 0x0 PUSH2 0x19B DUP3 PUSH2 0x1AE JUMP JUMPDEST SWAP1 POP SWAP2 SWAP1 POP JUMP JUMPDEST PUSH1 0x0 DUP2 ISZERO ISZERO SWAP1 POP SWAP2 SWAP1 POP JUMP JUMPDEST PUSH1 0x0 PUSH20 0xFFFFFFFFFFFFFFFFFFFFFFFFFFFFFFFFFFFFFFFF DUP3 AND SWAP1 POP SWAP2 SWAP1 POP JUMP JUMPDEST PUSH1 0x0 DUP1 REVERT JUMPDEST PUSH2 0x1DC DUP2 PUSH2 0x190 JUMP JUMPDEST DUP2 EQ PUSH2 0x1E7 JUMPI PUSH1 0x0 DUP1 REVERT JUMPDEST POP JUMP INVALID LOG2 PUSH5 0x6970667358 0x22 SLT KECCAK256 PUSH4 0x5B70A872 PUSH12 0x1034B9B5B4FFDE191A40FB05 GASPRICE EQ DUP3 0xCC DUP13 RETURNDATASIZE 0x21 LOG1 0xCC 0xC0 PUSH4 0x58976764 PUSH20 0x6F6C634300080700330000000000000000000000 "
				},
				"gasEstimates": {
					"creation": {
						"codeDepositCost": "108800",
						"executionCost": "153",
						"totalCost": "108953"
					},
					"external": {
						"owner()": "2489",
						"voters(address)": "infinite"
					}
				},
				"methodIdentifiers": {
					"owner()": "8da5cb5b",
					"voters(address)": "a3ec138d"
				}
			},
			"storageLayout": {
				"storage": [
					{
						"astId": 15,
						"contract": "contracts/Ballot/MyBallot.sol:MyBallot",
						"label": "owner",
						"offset": 0,
						"slot": "0",
						"type": "t_address"
					},
					{
						"astId": 20,
						"contract": "contracts/Ballot/MyBallot.sol:MyBallot",
						"label": "voters",
						"offset": 0,
						"slot": "1",
						"type": "t_mapping(t_address,t_struct(Voter)6_storage)"
					}
				],
				"types": {
					"t_address": {
						"encoding": "inplace",
						"label": "address",
						"numberOfBytes": "20"
					},
					"t_bool": {
						"encoding": "inplace",
						"label": "bool",
						"numberOfBytes": "1"
					},
					"t_mapping(t_address,t_struct(Voter)6_storage)": {
						"encoding": "mapping",
						"key": "t_address",
						"label": "mapping(address => struct MyBallot.Voter)",
						"numberOfBytes": "32",
						"value": "t_struct(Voter)6_storage"
					},
					"t_struct(Voter)6_storage": {
						"encoding": "inplace",
						"label": "struct MyBallot.Voter",
						"members": [
							{
								"astId": 3,
								"contract": "contracts/Ballot/MyBallot.sol:MyBallot",
								"label": "canVote",
								"offset": 0,
								"slot": "0",
								"type": "t_bool"
							},
							{
								"astId": 5,
								"contract": "contracts/Ballot/MyBallot.sol:MyBallot",
								"label": "hasVoted",
								"offset": 1,
								"slot": "0",
								"type": "t_bool"
							}
						],
						"numberOfBytes": "32"
					}
				}
			},
			"userdoc": {
				"kind": "user",
				"methods": {},
				"version": 1
			}
		}
	}
}