{
	"contracts/Ballot/MyBallot.sol": {
		"MyBallot": {
			"abi": [
				{
					"inputs": [
						{
							"components": [
								{
									"internalType": "string",
									"name": "name",
									"type": "string"
								},
								{
									"internalType": "string",
									"name": "party",
									"type": "string"
								},
								{
									"internalType": "uint256",
									"name": "votesCount",
									"type": "uint256"
								}
							],
							"internalType": "struct MyBallot.Candidate[]",
							"name": "_candidates",
							"type": "tuple[]"
						}
					],
					"stateMutability": "nonpayable",
					"type": "constructor"
				},
				{
					"inputs": [
						{
							"components": [
								{
									"internalType": "string",
									"name": "name",
									"type": "string"
								},
								{
									"internalType": "string",
									"name": "party",
									"type": "string"
								},
								{
									"internalType": "uint256",
									"name": "votesCount",
									"type": "uint256"
								}
							],
							"internalType": "struct MyBallot.Candidate",
							"name": "newCandidate",
							"type": "tuple"
						}
					],
					"name": "addCandidateAsStruct",
					"outputs": [],
					"stateMutability": "nonpayable",
					"type": "function"
				},
				{
					"inputs": [
						{
							"internalType": "string",
							"name": "name",
							"type": "string"
						},
						{
							"internalType": "string",
							"name": "party",
							"type": "string"
						}
					],
					"name": "addCandidateWithSpreadParameters",
					"outputs": [],
					"stateMutability": "nonpayable",
					"type": "function"
				},
				{
					"inputs": [],
					"name": "areYouContractOwner",
					"outputs": [
						{
							"internalType": "bool",
							"name": "",
							"type": "bool"
						}
					],
					"stateMutability": "view",
					"type": "function"
				},
				{
					"inputs": [],
					"name": "areYouHaveRigthToVote",
					"outputs": [
						{
							"internalType": "bool",
							"name": "",
							"type": "bool"
						}
					],
					"stateMutability": "view",
					"type": "function"
				},
				{
					"inputs": [],
					"name": "areYouVoted",
					"outputs": [
						{
							"internalType": "bool",
							"name": "",
							"type": "bool"
						}
					],
					"stateMutability": "view",
					"type": "function"
				},
				{
					"inputs": [],
					"name": "calculateAmountOfTotalVotes",
					"outputs": [
						{
							"internalType": "uint256",
							"name": "total",
							"type": "uint256"
						}
					],
					"stateMutability": "view",
					"type": "function"
				},
				{
					"inputs": [
						{
							"internalType": "uint256",
							"name": "",
							"type": "uint256"
						}
					],
					"name": "candidates",
					"outputs": [
						{
							"internalType": "string",
							"name": "name",
							"type": "string"
						},
						{
							"internalType": "string",
							"name": "party",
							"type": "string"
						},
						{
							"internalType": "uint256",
							"name": "votesCount",
							"type": "uint256"
						}
					],
					"stateMutability": "view",
					"type": "function"
				},
				{
					"inputs": [],
					"name": "contractOwner",
					"outputs": [
						{
							"internalType": "address",
							"name": "",
							"type": "address"
						}
					],
					"stateMutability": "view",
					"type": "function"
				},
				{
					"inputs": [],
					"name": "getCandidatesList",
					"outputs": [
						{
							"components": [
								{
									"internalType": "string",
									"name": "name",
									"type": "string"
								},
								{
									"internalType": "string",
									"name": "party",
									"type": "string"
								},
								{
									"internalType": "uint256",
									"name": "votesCount",
									"type": "uint256"
								}
							],
							"internalType": "struct MyBallot.Candidate[]",
							"name": "",
							"type": "tuple[]"
						}
					],
					"stateMutability": "view",
					"type": "function"
				},
				{
					"inputs": [],
					"name": "getContractAddress",
					"outputs": [
						{
							"internalType": "address",
							"name": "",
							"type": "address"
						}
					],
					"stateMutability": "view",
					"type": "function"
				},
				{
					"inputs": [],
					"name": "getWinnerName",
					"outputs": [
						{
							"internalType": "string",
							"name": "winnerName",
							"type": "string"
						}
					],
					"stateMutability": "view",
					"type": "function"
				},
				{
					"inputs": [],
					"name": "getWinningCandidate",
					"outputs": [
						{
							"internalType": "uint256",
							"name": "winningProposal",
							"type": "uint256"
						}
					],
					"stateMutability": "view",
					"type": "function"
				},
				{
					"inputs": [
						{
							"internalType": "address",
							"name": "voterAddress",
							"type": "address"
						}
					],
					"name": "giveRightToVote",
					"outputs": [],
					"stateMutability": "nonpayable",
					"type": "function"
				},
				{
					"inputs": [
						{
							"internalType": "address",
							"name": "voterAddress",
							"type": "address"
						}
					],
					"name": "isAnyoneHaveRigthToVote",
					"outputs": [
						{
							"internalType": "bool",
							"name": "",
							"type": "bool"
						}
					],
					"stateMutability": "view",
					"type": "function"
				},
				{
					"inputs": [
						{
							"internalType": "address",
							"name": "voterAddress",
							"type": "address"
						}
					],
					"name": "isVoterVoted",
					"outputs": [
						{
							"internalType": "bool",
							"name": "",
							"type": "bool"
						}
					],
					"stateMutability": "view",
					"type": "function"
				},
				{
					"inputs": [],
					"name": "totalVotes",
					"outputs": [
						{
							"internalType": "uint256",
							"name": "",
							"type": "uint256"
						}
					],
					"stateMutability": "view",
					"type": "function"
				},
				{
					"inputs": [
						{
							"internalType": "string",
							"name": "name",
							"type": "string"
						}
					],
					"name": "vote",
					"outputs": [],
					"stateMutability": "nonpayable",
					"type": "function"
				},
				{
					"inputs": [
						{
							"internalType": "address",
							"name": "",
							"type": "address"
						}
					],
					"name": "voters",
					"outputs": [
						{
							"internalType": "bool",
							"name": "canVote",
							"type": "bool"
						},
						{
							"internalType": "bool",
							"name": "hasVoted",
							"type": "bool"
						}
					],
					"stateMutability": "view",
					"type": "function"
				}
			],
			"devdoc": {
				"kind": "dev",
				"methods": {},
				"version": 1
			},
			"evm": {
				"assembly": "    /* \"contracts/Ballot/MyBallot.sol\":129:5794  contract MyBallot {\r... */\n  mstore(0x40, 0x80)\n    /* \"contracts/Ballot/MyBallot.sol\":595:964  constructor(Candidate[] memory _candidates) {\r... */\n  callvalue\n  dup1\n  iszero\n  tag_1\n  jumpi\n  0x00\n  dup1\n  revert\ntag_1:\n  pop\n  mload(0x40)\n  sub(codesize, bytecodeSize)\n  dup1\n  bytecodeSize\n  dup4\n  codecopy\n  dup2\n  dup2\n  add\n  0x40\n  mstore\n  dup2\n  add\n  swap1\n  tag_2\n  swap2\n  swap1\n  tag_3\n  jump\t// in\ntag_2:\n    /* \"contracts/Ballot/MyBallot.sol\":676:686  msg.sender */\n  caller\n    /* \"contracts/Ballot/MyBallot.sol\":660:673  contractOwner */\n  0x00\n  dup1\n    /* \"contracts/Ballot/MyBallot.sol\":660:686  contractOwner = msg.sender */\n  0x0100\n  exp\n  dup2\n  sload\n  dup2\n  0xffffffffffffffffffffffffffffffffffffffff\n  mul\n  not\n  and\n  swap1\n  dup4\n  0xffffffffffffffffffffffffffffffffffffffff\n  and\n  mul\n  or\n  swap1\n  sstore\n  pop\n    /* \"contracts/Ballot/MyBallot.sol\":704:714  uint index */\n  0x00\n    /* \"contracts/Ballot/MyBallot.sol\":699:957  for (uint index = 0; index < _candidates.length; index++) {\r... */\ntag_6:\n    /* \"contracts/Ballot/MyBallot.sol\":728:739  _candidates */\n  dup2\n    /* \"contracts/Ballot/MyBallot.sol\":728:746  _candidates.length */\n  mload\n    /* \"contracts/Ballot/MyBallot.sol\":720:725  index */\n  dup2\n    /* \"contracts/Ballot/MyBallot.sol\":720:746  index < _candidates.length */\n  lt\n    /* \"contracts/Ballot/MyBallot.sol\":699:957  for (uint index = 0; index < _candidates.length; index++) {\r... */\n  iszero\n  tag_7\n  jumpi\n    /* \"contracts/Ballot/MyBallot.sol\":772:782  candidates */\n  0x02\n    /* \"contracts/Ballot/MyBallot.sol\":788:944  Candidate({\r... */\n  mload(0x40)\n  dup1\n  0x60\n  add\n  0x40\n  mstore\n  dup1\n    /* \"contracts/Ballot/MyBallot.sol\":823:834  _candidates */\n  dup5\n    /* \"contracts/Ballot/MyBallot.sol\":835:840  index */\n  dup5\n    /* \"contracts/Ballot/MyBallot.sol\":823:841  _candidates[index] */\n  dup2\n  mload\n  dup2\n  lt\n  tag_9\n  jumpi\n  tag_10\n  tag_11\n  jump\t// in\ntag_10:\ntag_9:\n  0x20\n  mul\n  0x20\n  add\n  add\n  mload\n    /* \"contracts/Ballot/MyBallot.sol\":823:846  _candidates[index].name */\n  0x00\n  add\n  mload\n    /* \"contracts/Ballot/MyBallot.sol\":788:944  Candidate({\r... */\n  dup2\n  mstore\n  0x20\n  add\n    /* \"contracts/Ballot/MyBallot.sol\":872:883  _candidates */\n  dup5\n    /* \"contracts/Ballot/MyBallot.sol\":884:889  index */\n  dup5\n    /* \"contracts/Ballot/MyBallot.sol\":872:890  _candidates[index] */\n  dup2\n  mload\n  dup2\n  lt\n  tag_12\n  jumpi\n  tag_13\n  tag_11\n  jump\t// in\ntag_13:\ntag_12:\n  0x20\n  mul\n  0x20\n  add\n  add\n  mload\n    /* \"contracts/Ballot/MyBallot.sol\":872:896  _candidates[index].party */\n  0x20\n  add\n  mload\n    /* \"contracts/Ballot/MyBallot.sol\":788:944  Candidate({\r... */\n  dup2\n  mstore\n  0x20\n  add\n    /* \"contracts/Ballot/MyBallot.sol\":927:928  0 */\n  0x00\n    /* \"contracts/Ballot/MyBallot.sol\":788:944  Candidate({\r... */\n  dup2\n  mstore\n  pop\n    /* \"contracts/Ballot/MyBallot.sol\":772:945  candidates.push(Candidate({\r... */\n  swap1\n  dup1\n  0x01\n  dup2\n  sload\n  add\n  dup1\n  dup3\n  sstore\n  dup1\n  swap2\n  pop\n  pop\n  0x01\n  swap1\n  sub\n  swap1\n  0x00\n  mstore\n  keccak256(0x00, 0x20)\n  swap1\n  0x03\n  mul\n  add\n  0x00\n  swap1\n  swap2\n  swap1\n  swap2\n  swap1\n  swap2\n  pop\n  0x00\n  dup3\n  add\n  mload\n  dup2\n  0x00\n  add\n  swap1\n  dup1\n  mload\n  swap1\n  0x20\n  add\n  swap1\n  tag_15\n  swap3\n  swap2\n  swap1\n  tag_16\n  jump\t// in\ntag_15:\n  pop\n  0x20\n  dup3\n  add\n  mload\n  dup2\n  0x01\n  add\n  swap1\n  dup1\n  mload\n  swap1\n  0x20\n  add\n  swap1\n  tag_17\n  swap3\n  swap2\n  swap1\n  tag_16\n  jump\t// in\ntag_17:\n  pop\n  0x40\n  dup3\n  add\n  mload\n  dup2\n  0x02\n  add\n  sstore\n  pop\n  pop\n    /* \"contracts/Ballot/MyBallot.sol\":748:755  index++ */\n  dup1\n  dup1\n  tag_18\n  swap1\n  tag_19\n  jump\t// in\ntag_18:\n  swap2\n  pop\n  pop\n    /* \"contracts/Ballot/MyBallot.sol\":699:957  for (uint index = 0; index < _candidates.length; index++) {\r... */\n  jump(tag_6)\ntag_7:\n  pop\n    /* \"contracts/Ballot/MyBallot.sol\":595:964  constructor(Candidate[] memory _candidates) {\r... */\n  pop\n    /* \"contracts/Ballot/MyBallot.sol\":129:5794  contract MyBallot {\r... */\n  jump(tag_20)\ntag_16:\n  dup3\n  dup1\n  sload\n  tag_21\n  swap1\n  tag_22\n  jump\t// in\ntag_21:\n  swap1\n  0x00\n  mstore\n  keccak256(0x00, 0x20)\n  swap1\n  0x1f\n  add\n  0x20\n  swap1\n  div\n  dup2\n  add\n  swap3\n  dup3\n  tag_24\n  jumpi\n  0x00\n  dup6\n  sstore\n  jump(tag_23)\ntag_24:\n  dup3\n  0x1f\n  lt\n  tag_25\n  jumpi\n  dup1\n  mload\n  not(0xff)\n  and\n  dup4\n  dup1\n  add\n  or\n  dup6\n  sstore\n  jump(tag_23)\ntag_25:\n  dup3\n  dup1\n  add\n  0x01\n  add\n  dup6\n  sstore\n  dup3\n  iszero\n  tag_23\n  jumpi\n  swap2\n  dup3\n  add\ntag_26:\n  dup3\n  dup2\n  gt\n  iszero\n  tag_27\n  jumpi\n  dup3\n  mload\n  dup3\n  sstore\n  swap2\n  0x20\n  add\n  swap2\n  swap1\n  0x01\n  add\n  swap1\n  jump(tag_26)\ntag_27:\ntag_23:\n  pop\n  swap1\n  pop\n  tag_28\n  swap2\n  swap1\n  tag_29\n  jump\t// in\ntag_28:\n  pop\n  swap1\n  jump\t// out\ntag_29:\ntag_30:\n  dup1\n  dup3\n  gt\n  iszero\n  tag_31\n  jumpi\n  0x00\n  dup2\n  0x00\n  swap1\n  sstore\n  pop\n  0x01\n  add\n  jump(tag_30)\ntag_31:\n  pop\n  swap1\n  jump\t// out\n    /* \"#utility.yul\":42:1059   */\ntag_33:\n    /* \"#utility.yul\":174:179   */\n  0x00\n    /* \"#utility.yul\":199:305   */\n  tag_35\n    /* \"#utility.yul\":215:304   */\n  tag_36\n    /* \"#utility.yul\":297:303   */\n  dup5\n    /* \"#utility.yul\":215:304   */\n  tag_37\n  jump\t// in\ntag_36:\n    /* \"#utility.yul\":199:305   */\n  tag_38\n  jump\t// in\ntag_35:\n    /* \"#utility.yul\":190:305   */\n  swap1\n  pop\n    /* \"#utility.yul\":325:330   */\n  dup1\n    /* \"#utility.yul\":354:360   */\n  dup4\n    /* \"#utility.yul\":347:352   */\n  dup3\n    /* \"#utility.yul\":340:361   */\n  mstore\n    /* \"#utility.yul\":388:392   */\n  0x20\n    /* \"#utility.yul\":381:386   */\n  dup3\n    /* \"#utility.yul\":377:393   */\n  add\n    /* \"#utility.yul\":370:393   */\n  swap1\n  pop\n    /* \"#utility.yul\":414:420   */\n  dup3\n    /* \"#utility.yul\":464:467   */\n  dup6\n    /* \"#utility.yul\":456:460   */\n  0x20\n    /* \"#utility.yul\":448:454   */\n  dup7\n    /* \"#utility.yul\":444:461   */\n  mul\n    /* \"#utility.yul\":439:442   */\n  dup3\n    /* \"#utility.yul\":435:462   */\n  add\n    /* \"#utility.yul\":432:468   */\n  gt\n    /* \"#utility.yul\":429:572   */\n  iszero\n  tag_39\n  jumpi\n    /* \"#utility.yul\":483:562   */\n  tag_40\n  tag_41\n  jump\t// in\ntag_40:\n    /* \"#utility.yul\":429:572   */\ntag_39:\n    /* \"#utility.yul\":596:597   */\n  0x00\n    /* \"#utility.yul\":581:1053   */\ntag_42:\n    /* \"#utility.yul\":606:612   */\n  dup6\n    /* \"#utility.yul\":603:604   */\n  dup2\n    /* \"#utility.yul\":600:613   */\n  lt\n    /* \"#utility.yul\":581:1053   */\n  iszero\n  tag_44\n  jumpi\n    /* \"#utility.yul\":681:684   */\n  dup2\n    /* \"#utility.yul\":675:685   */\n  mload\n    /* \"#utility.yul\":717:735   */\n  0xffffffffffffffff\n    /* \"#utility.yul\":704:715   */\n  dup2\n    /* \"#utility.yul\":701:736   */\n  gt\n    /* \"#utility.yul\":698:820   */\n  iszero\n  tag_45\n  jumpi\n    /* \"#utility.yul\":739:818   */\n  tag_46\n  tag_47\n  jump\t// in\ntag_46:\n    /* \"#utility.yul\":698:820   */\ntag_45:\n    /* \"#utility.yul\":863:874   */\n  dup1\n    /* \"#utility.yul\":855:861   */\n  dup7\n    /* \"#utility.yul\":851:875   */\n  add\n    /* \"#utility.yul\":901:974   */\n  tag_48\n    /* \"#utility.yul\":970:973   */\n  dup10\n    /* \"#utility.yul\":958:968   */\n  dup3\n    /* \"#utility.yul\":901:974   */\n  tag_49\n  jump\t// in\ntag_48:\n    /* \"#utility.yul\":896:899   */\n  dup6\n    /* \"#utility.yul\":889:975   */\n  mstore\n    /* \"#utility.yul\":1004:1008   */\n  0x20\n    /* \"#utility.yul\":999:1002   */\n  dup6\n    /* \"#utility.yul\":995:1009   */\n  add\n    /* \"#utility.yul\":988:1009   */\n  swap5\n  pop\n    /* \"#utility.yul\":1038:1042   */\n  0x20\n    /* \"#utility.yul\":1033:1036   */\n  dup5\n    /* \"#utility.yul\":1029:1043   */\n  add\n    /* \"#utility.yul\":1022:1043   */\n  swap4\n  pop\n    /* \"#utility.yul\":641:1053   */\n  pop\n  pop\n    /* \"#utility.yul\":628:629   */\n  0x01\n    /* \"#utility.yul\":625:626   */\n  dup2\n    /* \"#utility.yul\":621:630   */\n  add\n    /* \"#utility.yul\":616:630   */\n  swap1\n  pop\n    /* \"#utility.yul\":581:1053   */\n  jump(tag_42)\ntag_44:\n    /* \"#utility.yul\":585:599   */\n  pop\n    /* \"#utility.yul\":180:1059   */\n  pop\n  pop\n    /* \"#utility.yul\":42:1059   */\n  swap4\n  swap3\n  pop\n  pop\n  pop\n  jump\t// out\n    /* \"#utility.yul\":1065:1486   */\ntag_50:\n    /* \"#utility.yul\":1154:1159   */\n  0x00\n    /* \"#utility.yul\":1179:1245   */\n  tag_52\n    /* \"#utility.yul\":1195:1244   */\n  tag_53\n    /* \"#utility.yul\":1237:1243   */\n  dup5\n    /* \"#utility.yul\":1195:1244   */\n  tag_54\n  jump\t// in\ntag_53:\n    /* \"#utility.yul\":1179:1245   */\n  tag_38\n  jump\t// in\ntag_52:\n    /* \"#utility.yul\":1170:1245   */\n  swap1\n  pop\n    /* \"#utility.yul\":1268:1274   */\n  dup3\n    /* \"#utility.yul\":1261:1266   */\n  dup2\n    /* \"#utility.yul\":1254:1275   */\n  mstore\n    /* \"#utility.yul\":1306:1310   */\n  0x20\n    /* \"#utility.yul\":1299:1304   */\n  dup2\n    /* \"#utility.yul\":1295:1311   */\n  add\n    /* \"#utility.yul\":1344:1347   */\n  dup5\n    /* \"#utility.yul\":1335:1341   */\n  dup5\n    /* \"#utility.yul\":1330:1333   */\n  dup5\n    /* \"#utility.yul\":1326:1342   */\n  add\n    /* \"#utility.yul\":1323:1348   */\n  gt\n    /* \"#utility.yul\":1320:1432   */\n  iszero\n  tag_55\n  jumpi\n    /* \"#utility.yul\":1351:1430   */\n  tag_56\n  tag_57\n  jump\t// in\ntag_56:\n    /* \"#utility.yul\":1320:1432   */\ntag_55:\n    /* \"#utility.yul\":1441:1480   */\n  tag_58\n    /* \"#utility.yul\":1473:1479   */\n  dup5\n    /* \"#utility.yul\":1468:1471   */\n  dup3\n    /* \"#utility.yul\":1463:1466   */\n  dup6\n    /* \"#utility.yul\":1441:1480   */\n  tag_59\n  jump\t// in\ntag_58:\n    /* \"#utility.yul\":1160:1486   */\n  pop\n    /* \"#utility.yul\":1065:1486   */\n  swap4\n  swap3\n  pop\n  pop\n  pop\n  jump\t// out\n    /* \"#utility.yul\":1527:1962   */\ntag_60:\n    /* \"#utility.yul\":1634:1639   */\n  0x00\n    /* \"#utility.yul\":1683:1686   */\n  dup3\n    /* \"#utility.yul\":1676:1680   */\n  0x1f\n    /* \"#utility.yul\":1668:1674   */\n  dup4\n    /* \"#utility.yul\":1664:1681   */\n  add\n    /* \"#utility.yul\":1660:1687   */\n  slt\n    /* \"#utility.yul\":1650:1772   */\n  tag_62\n  jumpi\n    /* \"#utility.yul\":1691:1770   */\n  tag_63\n  tag_47\n  jump\t// in\ntag_63:\n    /* \"#utility.yul\":1650:1772   */\ntag_62:\n    /* \"#utility.yul\":1801:1807   */\n  dup2\n    /* \"#utility.yul\":1795:1808   */\n  mload\n    /* \"#utility.yul\":1826:1956   */\n  tag_64\n    /* \"#utility.yul\":1952:1955   */\n  dup5\n    /* \"#utility.yul\":1944:1950   */\n  dup3\n    /* \"#utility.yul\":1937:1941   */\n  0x20\n    /* \"#utility.yul\":1929:1935   */\n  dup7\n    /* \"#utility.yul\":1925:1942   */\n  add\n    /* \"#utility.yul\":1826:1956   */\n  tag_33\n  jump\t// in\ntag_64:\n    /* \"#utility.yul\":1817:1956   */\n  swap2\n  pop\n    /* \"#utility.yul\":1640:1962   */\n  pop\n    /* \"#utility.yul\":1527:1962   */\n  swap3\n  swap2\n  pop\n  pop\n  jump\t// out\n    /* \"#utility.yul\":1982:2337   */\ntag_65:\n    /* \"#utility.yul\":2049:2054   */\n  0x00\n    /* \"#utility.yul\":2098:2101   */\n  dup3\n    /* \"#utility.yul\":2091:2095   */\n  0x1f\n    /* \"#utility.yul\":2083:2089   */\n  dup4\n    /* \"#utility.yul\":2079:2096   */\n  add\n    /* \"#utility.yul\":2075:2102   */\n  slt\n    /* \"#utility.yul\":2065:2187   */\n  tag_67\n  jumpi\n    /* \"#utility.yul\":2106:2185   */\n  tag_68\n  tag_47\n  jump\t// in\ntag_68:\n    /* \"#utility.yul\":2065:2187   */\ntag_67:\n    /* \"#utility.yul\":2216:2222   */\n  dup2\n    /* \"#utility.yul\":2210:2223   */\n  mload\n    /* \"#utility.yul\":2241:2331   */\n  tag_69\n    /* \"#utility.yul\":2327:2330   */\n  dup5\n    /* \"#utility.yul\":2319:2325   */\n  dup3\n    /* \"#utility.yul\":2312:2316   */\n  0x20\n    /* \"#utility.yul\":2304:2310   */\n  dup7\n    /* \"#utility.yul\":2300:2317   */\n  add\n    /* \"#utility.yul\":2241:2331   */\n  tag_50\n  jump\t// in\ntag_69:\n    /* \"#utility.yul\":2232:2331   */\n  swap2\n  pop\n    /* \"#utility.yul\":2055:2337   */\n  pop\n    /* \"#utility.yul\":1982:2337   */\n  swap3\n  swap2\n  pop\n  pop\n  jump\t// out\n    /* \"#utility.yul\":2376:3488   */\ntag_49:\n    /* \"#utility.yul\":2461:2466   */\n  0x00\n    /* \"#utility.yul\":2505:2509   */\n  0x60\n    /* \"#utility.yul\":2493:2502   */\n  dup3\n    /* \"#utility.yul\":2488:2491   */\n  dup5\n    /* \"#utility.yul\":2484:2503   */\n  sub\n    /* \"#utility.yul\":2480:2510   */\n  slt\n    /* \"#utility.yul\":2477:2594   */\n  iszero\n  tag_71\n  jumpi\n    /* \"#utility.yul\":2513:2592   */\n  tag_72\n  tag_73\n  jump\t// in\ntag_72:\n    /* \"#utility.yul\":2477:2594   */\ntag_71:\n    /* \"#utility.yul\":2612:2633   */\n  tag_74\n    /* \"#utility.yul\":2628:2632   */\n  0x60\n    /* \"#utility.yul\":2612:2633   */\n  tag_38\n  jump\t// in\ntag_74:\n    /* \"#utility.yul\":2603:2633   */\n  swap1\n  pop\n    /* \"#utility.yul\":2713:2714   */\n  0x00\n    /* \"#utility.yul\":2702:2711   */\n  dup3\n    /* \"#utility.yul\":2698:2715   */\n  add\n    /* \"#utility.yul\":2692:2716   */\n  mload\n    /* \"#utility.yul\":2743:2761   */\n  0xffffffffffffffff\n    /* \"#utility.yul\":2735:2741   */\n  dup2\n    /* \"#utility.yul\":2732:2762   */\n  gt\n    /* \"#utility.yul\":2729:2846   */\n  iszero\n  tag_75\n  jumpi\n    /* \"#utility.yul\":2765:2844   */\n  tag_76\n  tag_77\n  jump\t// in\ntag_76:\n    /* \"#utility.yul\":2729:2846   */\ntag_75:\n    /* \"#utility.yul\":2885:2955   */\n  tag_78\n    /* \"#utility.yul\":2951:2954   */\n  dup5\n    /* \"#utility.yul\":2942:2948   */\n  dup3\n    /* \"#utility.yul\":2931:2940   */\n  dup6\n    /* \"#utility.yul\":2927:2949   */\n  add\n    /* \"#utility.yul\":2885:2955   */\n  tag_65\n  jump\t// in\ntag_78:\n    /* \"#utility.yul\":2878:2882   */\n  0x00\n    /* \"#utility.yul\":2871:2876   */\n  dup4\n    /* \"#utility.yul\":2867:2883   */\n  add\n    /* \"#utility.yul\":2860:2956   */\n  mstore\n    /* \"#utility.yul\":2643:2967   */\n  pop\n    /* \"#utility.yul\":3048:3050   */\n  0x20\n    /* \"#utility.yul\":3037:3046   */\n  dup3\n    /* \"#utility.yul\":3033:3051   */\n  add\n    /* \"#utility.yul\":3027:3052   */\n  mload\n    /* \"#utility.yul\":3079:3097   */\n  0xffffffffffffffff\n    /* \"#utility.yul\":3071:3077   */\n  dup2\n    /* \"#utility.yul\":3068:3098   */\n  gt\n    /* \"#utility.yul\":3065:3182   */\n  iszero\n  tag_79\n  jumpi\n    /* \"#utility.yul\":3101:3180   */\n  tag_80\n  tag_77\n  jump\t// in\ntag_80:\n    /* \"#utility.yul\":3065:3182   */\ntag_79:\n    /* \"#utility.yul\":3221:3291   */\n  tag_81\n    /* \"#utility.yul\":3287:3290   */\n  dup5\n    /* \"#utility.yul\":3278:3284   */\n  dup3\n    /* \"#utility.yul\":3267:3276   */\n  dup6\n    /* \"#utility.yul\":3263:3285   */\n  add\n    /* \"#utility.yul\":3221:3291   */\n  tag_65\n  jump\t// in\ntag_81:\n    /* \"#utility.yul\":3214:3218   */\n  0x20\n    /* \"#utility.yul\":3207:3212   */\n  dup4\n    /* \"#utility.yul\":3203:3219   */\n  add\n    /* \"#utility.yul\":3196:3292   */\n  mstore\n    /* \"#utility.yul\":2977:3303   */\n  pop\n    /* \"#utility.yul\":3368:3370   */\n  0x40\n    /* \"#utility.yul\":3409:3469   */\n  tag_82\n    /* \"#utility.yul\":3465:3468   */\n  dup5\n    /* \"#utility.yul\":3456:3462   */\n  dup3\n    /* \"#utility.yul\":3445:3454   */\n  dup6\n    /* \"#utility.yul\":3441:3463   */\n  add\n    /* \"#utility.yul\":3409:3469   */\n  tag_83\n  jump\t// in\ntag_82:\n    /* \"#utility.yul\":3402:3406   */\n  0x40\n    /* \"#utility.yul\":3395:3400   */\n  dup4\n    /* \"#utility.yul\":3391:3407   */\n  add\n    /* \"#utility.yul\":3384:3470   */\n  mstore\n    /* \"#utility.yul\":3313:3481   */\n  pop\n    /* \"#utility.yul\":2376:3488   */\n  swap3\n  swap2\n  pop\n  pop\n  jump\t// out\n    /* \"#utility.yul\":3494:3637   */\ntag_83:\n    /* \"#utility.yul\":3551:3556   */\n  0x00\n    /* \"#utility.yul\":3582:3588   */\n  dup2\n    /* \"#utility.yul\":3576:3589   */\n  mload\n    /* \"#utility.yul\":3567:3589   */\n  swap1\n  pop\n    /* \"#utility.yul\":3598:3631   */\n  tag_85\n    /* \"#utility.yul\":3625:3630   */\n  dup2\n    /* \"#utility.yul\":3598:3631   */\n  tag_86\n  jump\t// in\ntag_85:\n    /* \"#utility.yul\":3494:3637   */\n  swap3\n  swap2\n  pop\n  pop\n  jump\t// out\n    /* \"#utility.yul\":3643:4247   */\ntag_3:\n    /* \"#utility.yul\":3763:3769   */\n  0x00\n    /* \"#utility.yul\":3812:3814   */\n  0x20\n    /* \"#utility.yul\":3800:3809   */\n  dup3\n    /* \"#utility.yul\":3791:3798   */\n  dup5\n    /* \"#utility.yul\":3787:3810   */\n  sub\n    /* \"#utility.yul\":3783:3815   */\n  slt\n    /* \"#utility.yul\":3780:3899   */\n  iszero\n  tag_88\n  jumpi\n    /* \"#utility.yul\":3818:3897   */\n  tag_89\n  tag_90\n  jump\t// in\ntag_89:\n    /* \"#utility.yul\":3780:3899   */\ntag_88:\n    /* \"#utility.yul\":3959:3960   */\n  0x00\n    /* \"#utility.yul\":3948:3957   */\n  dup3\n    /* \"#utility.yul\":3944:3961   */\n  add\n    /* \"#utility.yul\":3938:3962   */\n  mload\n    /* \"#utility.yul\":3989:4007   */\n  0xffffffffffffffff\n    /* \"#utility.yul\":3981:3987   */\n  dup2\n    /* \"#utility.yul\":3978:4008   */\n  gt\n    /* \"#utility.yul\":3975:4092   */\n  iszero\n  tag_91\n  jumpi\n    /* \"#utility.yul\":4011:4090   */\n  tag_92\n  tag_93\n  jump\t// in\ntag_92:\n    /* \"#utility.yul\":3975:4092   */\ntag_91:\n    /* \"#utility.yul\":4116:4230   */\n  tag_94\n    /* \"#utility.yul\":4222:4229   */\n  dup5\n    /* \"#utility.yul\":4213:4219   */\n  dup3\n    /* \"#utility.yul\":4202:4211   */\n  dup6\n    /* \"#utility.yul\":4198:4220   */\n  add\n    /* \"#utility.yul\":4116:4230   */\n  tag_60\n  jump\t// in\ntag_94:\n    /* \"#utility.yul\":4106:4230   */\n  swap2\n  pop\n    /* \"#utility.yul\":3909:4240   */\n  pop\n    /* \"#utility.yul\":3643:4247   */\n  swap3\n  swap2\n  pop\n  pop\n  jump\t// out\n    /* \"#utility.yul\":4253:4382   */\ntag_38:\n    /* \"#utility.yul\":4287:4293   */\n  0x00\n    /* \"#utility.yul\":4314:4334   */\n  tag_96\n  tag_97\n  jump\t// in\ntag_96:\n    /* \"#utility.yul\":4304:4334   */\n  swap1\n  pop\n    /* \"#utility.yul\":4343:4376   */\n  tag_98\n    /* \"#utility.yul\":4371:4375   */\n  dup3\n    /* \"#utility.yul\":4363:4369   */\n  dup3\n    /* \"#utility.yul\":4343:4376   */\n  tag_99\n  jump\t// in\ntag_98:\n    /* \"#utility.yul\":4253:4382   */\n  swap2\n  swap1\n  pop\n  jump\t// out\n    /* \"#utility.yul\":4388:4463   */\ntag_97:\n    /* \"#utility.yul\":4421:4427   */\n  0x00\n    /* \"#utility.yul\":4454:4456   */\n  0x40\n    /* \"#utility.yul\":4448:4457   */\n  mload\n    /* \"#utility.yul\":4438:4457   */\n  swap1\n  pop\n    /* \"#utility.yul\":4388:4463   */\n  swap1\n  jump\t// out\n    /* \"#utility.yul\":4469:4805   */\ntag_37:\n    /* \"#utility.yul\":4571:4575   */\n  0x00\n    /* \"#utility.yul\":4661:4679   */\n  0xffffffffffffffff\n    /* \"#utility.yul\":4653:4659   */\n  dup3\n    /* \"#utility.yul\":4650:4680   */\n  gt\n    /* \"#utility.yul\":4647:4703   */\n  iszero\n  tag_102\n  jumpi\n    /* \"#utility.yul\":4683:4701   */\n  tag_103\n  tag_104\n  jump\t// in\ntag_103:\n    /* \"#utility.yul\":4647:4703   */\ntag_102:\n    /* \"#utility.yul\":4733:4737   */\n  0x20\n    /* \"#utility.yul\":4725:4731   */\n  dup3\n    /* \"#utility.yul\":4721:4738   */\n  mul\n    /* \"#utility.yul\":4713:4738   */\n  swap1\n  pop\n    /* \"#utility.yul\":4793:4797   */\n  0x20\n    /* \"#utility.yul\":4787:4791   */\n  dup2\n    /* \"#utility.yul\":4783:4798   */\n  add\n    /* \"#utility.yul\":4775:4798   */\n  swap1\n  pop\n    /* \"#utility.yul\":4469:4805   */\n  swap2\n  swap1\n  pop\n  jump\t// out\n    /* \"#utility.yul\":4811:5119   */\ntag_54:\n    /* \"#utility.yul\":4873:4877   */\n  0x00\n    /* \"#utility.yul\":4963:4981   */\n  0xffffffffffffffff\n    /* \"#utility.yul\":4955:4961   */\n  dup3\n    /* \"#utility.yul\":4952:4982   */\n  gt\n    /* \"#utility.yul\":4949:5005   */\n  iszero\n  tag_106\n  jumpi\n    /* \"#utility.yul\":4985:5003   */\n  tag_107\n  tag_104\n  jump\t// in\ntag_107:\n    /* \"#utility.yul\":4949:5005   */\ntag_106:\n    /* \"#utility.yul\":5023:5052   */\n  tag_108\n    /* \"#utility.yul\":5045:5051   */\n  dup3\n    /* \"#utility.yul\":5023:5052   */\n  tag_109\n  jump\t// in\ntag_108:\n    /* \"#utility.yul\":5015:5052   */\n  swap1\n  pop\n    /* \"#utility.yul\":5107:5111   */\n  0x20\n    /* \"#utility.yul\":5101:5105   */\n  dup2\n    /* \"#utility.yul\":5097:5112   */\n  add\n    /* \"#utility.yul\":5089:5112   */\n  swap1\n  pop\n    /* \"#utility.yul\":4811:5119   */\n  swap2\n  swap1\n  pop\n  jump\t// out\n    /* \"#utility.yul\":5125:5202   */\ntag_110:\n    /* \"#utility.yul\":5162:5169   */\n  0x00\n    /* \"#utility.yul\":5191:5196   */\n  dup2\n    /* \"#utility.yul\":5180:5196   */\n  swap1\n  pop\n    /* \"#utility.yul\":5125:5202   */\n  swap2\n  swap1\n  pop\n  jump\t// out\n    /* \"#utility.yul\":5208:5515   */\ntag_59:\n    /* \"#utility.yul\":5276:5277   */\n  0x00\n    /* \"#utility.yul\":5286:5399   */\ntag_113:\n    /* \"#utility.yul\":5300:5306   */\n  dup4\n    /* \"#utility.yul\":5297:5298   */\n  dup2\n    /* \"#utility.yul\":5294:5307   */\n  lt\n    /* \"#utility.yul\":5286:5399   */\n  iszero\n  tag_115\n  jumpi\n    /* \"#utility.yul\":5385:5386   */\n  dup1\n    /* \"#utility.yul\":5380:5383   */\n  dup3\n    /* \"#utility.yul\":5376:5387   */\n  add\n    /* \"#utility.yul\":5370:5388   */\n  mload\n    /* \"#utility.yul\":5366:5367   */\n  dup2\n    /* \"#utility.yul\":5361:5364   */\n  dup5\n    /* \"#utility.yul\":5357:5368   */\n  add\n    /* \"#utility.yul\":5350:5389   */\n  mstore\n    /* \"#utility.yul\":5322:5324   */\n  0x20\n    /* \"#utility.yul\":5319:5320   */\n  dup2\n    /* \"#utility.yul\":5315:5325   */\n  add\n    /* \"#utility.yul\":5310:5325   */\n  swap1\n  pop\n    /* \"#utility.yul\":5286:5399   */\n  jump(tag_113)\ntag_115:\n    /* \"#utility.yul\":5417:5423   */\n  dup4\n    /* \"#utility.yul\":5414:5415   */\n  dup2\n    /* \"#utility.yul\":5411:5424   */\n  gt\n    /* \"#utility.yul\":5408:5509   */\n  iszero\n  tag_116\n  jumpi\n    /* \"#utility.yul\":5497:5498   */\n  0x00\n    /* \"#utility.yul\":5488:5494   */\n  dup5\n    /* \"#utility.yul\":5483:5486   */\n  dup5\n    /* \"#utility.yul\":5479:5495   */\n  add\n    /* \"#utility.yul\":5472:5499   */\n  mstore\n    /* \"#utility.yul\":5408:5509   */\ntag_116:\n    /* \"#utility.yul\":5257:5515   */\n  pop\n    /* \"#utility.yul\":5208:5515   */\n  pop\n  pop\n  pop\n  jump\t// out\n    /* \"#utility.yul\":5521:5841   */\ntag_22:\n    /* \"#utility.yul\":5565:5571   */\n  0x00\n    /* \"#utility.yul\":5602:5603   */\n  0x02\n    /* \"#utility.yul\":5596:5600   */\n  dup3\n    /* \"#utility.yul\":5592:5604   */\n  div\n    /* \"#utility.yul\":5582:5604   */\n  swap1\n  pop\n    /* \"#utility.yul\":5649:5650   */\n  0x01\n    /* \"#utility.yul\":5643:5647   */\n  dup3\n    /* \"#utility.yul\":5639:5651   */\n  and\n    /* \"#utility.yul\":5670:5688   */\n  dup1\n    /* \"#utility.yul\":5660:5741   */\n  tag_118\n  jumpi\n    /* \"#utility.yul\":5726:5730   */\n  0x7f\n    /* \"#utility.yul\":5718:5724   */\n  dup3\n    /* \"#utility.yul\":5714:5731   */\n  and\n    /* \"#utility.yul\":5704:5731   */\n  swap2\n  pop\n    /* \"#utility.yul\":5660:5741   */\ntag_118:\n    /* \"#utility.yul\":5788:5790   */\n  0x20\n    /* \"#utility.yul\":5780:5786   */\n  dup3\n    /* \"#utility.yul\":5777:5791   */\n  lt\n    /* \"#utility.yul\":5757:5775   */\n  dup2\n    /* \"#utility.yul\":5754:5792   */\n  eq\n    /* \"#utility.yul\":5751:5835   */\n  iszero\n  tag_119\n  jumpi\n    /* \"#utility.yul\":5807:5825   */\n  tag_120\n  tag_121\n  jump\t// in\ntag_120:\n    /* \"#utility.yul\":5751:5835   */\ntag_119:\n    /* \"#utility.yul\":5572:5841   */\n  pop\n    /* \"#utility.yul\":5521:5841   */\n  swap2\n  swap1\n  pop\n  jump\t// out\n    /* \"#utility.yul\":5847:6128   */\ntag_99:\n    /* \"#utility.yul\":5930:5957   */\n  tag_123\n    /* \"#utility.yul\":5952:5956   */\n  dup3\n    /* \"#utility.yul\":5930:5957   */\n  tag_109\n  jump\t// in\ntag_123:\n    /* \"#utility.yul\":5922:5928   */\n  dup2\n    /* \"#utility.yul\":5918:5958   */\n  add\n    /* \"#utility.yul\":6060:6066   */\n  dup2\n    /* \"#utility.yul\":6048:6058   */\n  dup2\n    /* \"#utility.yul\":6045:6067   */\n  lt\n    /* \"#utility.yul\":6024:6042   */\n  0xffffffffffffffff\n    /* \"#utility.yul\":6012:6022   */\n  dup3\n    /* \"#utility.yul\":6009:6043   */\n  gt\n    /* \"#utility.yul\":6006:6068   */\n  or\n    /* \"#utility.yul\":6003:6091   */\n  iszero\n  tag_124\n  jumpi\n    /* \"#utility.yul\":6071:6089   */\n  tag_125\n  tag_104\n  jump\t// in\ntag_125:\n    /* \"#utility.yul\":6003:6091   */\ntag_124:\n    /* \"#utility.yul\":6111:6121   */\n  dup1\n    /* \"#utility.yul\":6107:6109   */\n  0x40\n    /* \"#utility.yul\":6100:6122   */\n  mstore\n    /* \"#utility.yul\":5890:6128   */\n  pop\n    /* \"#utility.yul\":5847:6128   */\n  pop\n  pop\n  jump\t// out\n    /* \"#utility.yul\":6134:6367   */\ntag_19:\n    /* \"#utility.yul\":6173:6176   */\n  0x00\n    /* \"#utility.yul\":6196:6220   */\n  tag_127\n    /* \"#utility.yul\":6214:6219   */\n  dup3\n    /* \"#utility.yul\":6196:6220   */\n  tag_110\n  jump\t// in\ntag_127:\n    /* \"#utility.yul\":6187:6220   */\n  swap2\n  pop\n    /* \"#utility.yul\":6242:6308   */\n  0xffffffffffffffffffffffffffffffffffffffffffffffffffffffffffffffff\n    /* \"#utility.yul\":6235:6240   */\n  dup3\n    /* \"#utility.yul\":6232:6309   */\n  eq\n    /* \"#utility.yul\":6229:6332   */\n  iszero\n  tag_128\n  jumpi\n    /* \"#utility.yul\":6312:6330   */\n  tag_129\n  tag_130\n  jump\t// in\ntag_129:\n    /* \"#utility.yul\":6229:6332   */\ntag_128:\n    /* \"#utility.yul\":6359:6360   */\n  0x01\n    /* \"#utility.yul\":6352:6357   */\n  dup3\n    /* \"#utility.yul\":6348:6361   */\n  add\n    /* \"#utility.yul\":6341:6361   */\n  swap1\n  pop\n    /* \"#utility.yul\":6134:6367   */\n  swap2\n  swap1\n  pop\n  jump\t// out\n    /* \"#utility.yul\":6373:6553   */\ntag_130:\n    /* \"#utility.yul\":6421:6498   */\n  0x4e487b7100000000000000000000000000000000000000000000000000000000\n    /* \"#utility.yul\":6418:6419   */\n  0x00\n    /* \"#utility.yul\":6411:6499   */\n  mstore\n    /* \"#utility.yul\":6518:6522   */\n  0x11\n    /* \"#utility.yul\":6515:6516   */\n  0x04\n    /* \"#utility.yul\":6508:6523   */\n  mstore\n    /* \"#utility.yul\":6542:6546   */\n  0x24\n    /* \"#utility.yul\":6539:6540   */\n  0x00\n    /* \"#utility.yul\":6532:6547   */\n  revert\n    /* \"#utility.yul\":6559:6739   */\ntag_121:\n    /* \"#utility.yul\":6607:6684   */\n  0x4e487b7100000000000000000000000000000000000000000000000000000000\n    /* \"#utility.yul\":6604:6605   */\n  0x00\n    /* \"#utility.yul\":6597:6685   */\n  mstore\n    /* \"#utility.yul\":6704:6708   */\n  0x22\n    /* \"#utility.yul\":6701:6702   */\n  0x04\n    /* \"#utility.yul\":6694:6709   */\n  mstore\n    /* \"#utility.yul\":6728:6732   */\n  0x24\n    /* \"#utility.yul\":6725:6726   */\n  0x00\n    /* \"#utility.yul\":6718:6733   */\n  revert\n    /* \"#utility.yul\":6745:6925   */\ntag_11:\n    /* \"#utility.yul\":6793:6870   */\n  0x4e487b7100000000000000000000000000000000000000000000000000000000\n    /* \"#utility.yul\":6790:6791   */\n  0x00\n    /* \"#utility.yul\":6783:6871   */\n  mstore\n    /* \"#utility.yul\":6890:6894   */\n  0x32\n    /* \"#utility.yul\":6887:6888   */\n  0x04\n    /* \"#utility.yul\":6880:6895   */\n  mstore\n    /* \"#utility.yul\":6914:6918   */\n  0x24\n    /* \"#utility.yul\":6911:6912   */\n  0x00\n    /* \"#utility.yul\":6904:6919   */\n  revert\n    /* \"#utility.yul\":6931:7111   */\ntag_104:\n    /* \"#utility.yul\":6979:7056   */\n  0x4e487b7100000000000000000000000000000000000000000000000000000000\n    /* \"#utility.yul\":6976:6977   */\n  0x00\n    /* \"#utility.yul\":6969:7057   */\n  mstore\n    /* \"#utility.yul\":7076:7080   */\n  0x41\n    /* \"#utility.yul\":7073:7074   */\n  0x04\n    /* \"#utility.yul\":7066:7081   */\n  mstore\n    /* \"#utility.yul\":7100:7104   */\n  0x24\n    /* \"#utility.yul\":7097:7098   */\n  0x00\n    /* \"#utility.yul\":7090:7105   */\n  revert\n    /* \"#utility.yul\":7117:7234   */\ntag_47:\n    /* \"#utility.yul\":7226:7227   */\n  0x00\n    /* \"#utility.yul\":7223:7224   */\n  dup1\n    /* \"#utility.yul\":7216:7228   */\n  revert\n    /* \"#utility.yul\":7240:7357   */\ntag_73:\n    /* \"#utility.yul\":7349:7350   */\n  0x00\n    /* \"#utility.yul\":7346:7347   */\n  dup1\n    /* \"#utility.yul\":7339:7351   */\n  revert\n    /* \"#utility.yul\":7363:7480   */\ntag_77:\n    /* \"#utility.yul\":7472:7473   */\n  0x00\n    /* \"#utility.yul\":7469:7470   */\n  dup1\n    /* \"#utility.yul\":7462:7474   */\n  revert\n    /* \"#utility.yul\":7486:7603   */\ntag_41:\n    /* \"#utility.yul\":7595:7596   */\n  0x00\n    /* \"#utility.yul\":7592:7593   */\n  dup1\n    /* \"#utility.yul\":7585:7597   */\n  revert\n    /* \"#utility.yul\":7609:7726   */\ntag_57:\n    /* \"#utility.yul\":7718:7719   */\n  0x00\n    /* \"#utility.yul\":7715:7716   */\n  dup1\n    /* \"#utility.yul\":7708:7720   */\n  revert\n    /* \"#utility.yul\":7732:7849   */\ntag_93:\n    /* \"#utility.yul\":7841:7842   */\n  0x00\n    /* \"#utility.yul\":7838:7839   */\n  dup1\n    /* \"#utility.yul\":7831:7843   */\n  revert\n    /* \"#utility.yul\":7855:7972   */\ntag_90:\n    /* \"#utility.yul\":7964:7965   */\n  0x00\n    /* \"#utility.yul\":7961:7962   */\n  dup1\n    /* \"#utility.yul\":7954:7966   */\n  revert\n    /* \"#utility.yul\":7978:8080   */\ntag_109:\n    /* \"#utility.yul\":8019:8025   */\n  0x00\n    /* \"#utility.yul\":8070:8072   */\n  0x1f\n    /* \"#utility.yul\":8066:8073   */\n  not\n    /* \"#utility.yul\":8061:8063   */\n  0x1f\n    /* \"#utility.yul\":8054:8059   */\n  dup4\n    /* \"#utility.yul\":8050:8064   */\n  add\n    /* \"#utility.yul\":8046:8074   */\n  and\n    /* \"#utility.yul\":8036:8074   */\n  swap1\n  pop\n    /* \"#utility.yul\":7978:8080   */\n  swap2\n  swap1\n  pop\n  jump\t// out\n    /* \"#utility.yul\":8086:8208   */\ntag_86:\n    /* \"#utility.yul\":8159:8183   */\n  tag_144\n    /* \"#utility.yul\":8177:8182   */\n  dup2\n    /* \"#utility.yul\":8159:8183   */\n  tag_110\n  jump\t// in\ntag_144:\n    /* \"#utility.yul\":8152:8157   */\n  dup2\n    /* \"#utility.yul\":8149:8184   */\n  eq\n    /* \"#utility.yul\":8139:8202   */\n  tag_145\n  jumpi\n    /* \"#utility.yul\":8198:8199   */\n  0x00\n    /* \"#utility.yul\":8195:8196   */\n  dup1\n    /* \"#utility.yul\":8188:8200   */\n  revert\n    /* \"#utility.yul\":8139:8202   */\ntag_145:\n    /* \"#utility.yul\":8086:8208   */\n  pop\n  jump\t// out\n    /* \"contracts/Ballot/MyBallot.sol\":129:5794  contract MyBallot {\r... */\ntag_20:\n  dataSize(sub_0)\n  dup1\n  dataOffset(sub_0)\n  0x00\n  codecopy\n  0x00\n  return\nstop\n\nsub_0: assembly {\n        /* \"contracts/Ballot/MyBallot.sol\":129:5794  contract MyBallot {\r... */\n      mstore(0x40, 0x80)\n      callvalue\n      dup1\n      iszero\n      tag_1\n      jumpi\n      0x00\n      dup1\n      revert\n    tag_1:\n      pop\n      jumpi(tag_2, lt(calldatasize, 0x04))\n      shr(0xe0, calldataload(0x00))\n      dup1\n      0x954115f2\n      gt\n      tag_21\n      jumpi\n      dup1\n      0xda265430\n      gt\n      tag_22\n      jumpi\n      dup1\n      0xda265430\n      eq\n      tag_16\n      jumpi\n      dup1\n      0xdf703622\n      eq\n      tag_17\n      jumpi\n      dup1\n      0xeacc4e3f\n      eq\n      tag_18\n      jumpi\n      dup1\n      0xf927cc29\n      eq\n      tag_19\n      jumpi\n      dup1\n      0xfc36e15b\n      eq\n      tag_20\n      jumpi\n      jump(tag_2)\n    tag_22:\n      dup1\n      0x954115f2\n      eq\n      tag_12\n      jumpi\n      dup1\n      0x9e7b8d61\n      eq\n      tag_13\n      jumpi\n      dup1\n      0xa3ec138d\n      eq\n      tag_14\n      jumpi\n      dup1\n      0xce606ee0\n      eq\n      tag_15\n      jumpi\n      jump(tag_2)\n    tag_21:\n      dup1\n      0x32a2c5d0\n      gt\n      tag_23\n      jumpi\n      dup1\n      0x32a2c5d0\n      eq\n      tag_7\n      jumpi\n      dup1\n      0x3477ee2e\n      eq\n      tag_8\n      jumpi\n      dup1\n      0x3ddf3822\n      eq\n      tag_9\n      jumpi\n      dup1\n      0x4aba5f34\n      eq\n      tag_10\n      jumpi\n      dup1\n      0x743f7666\n      eq\n      tag_11\n      jumpi\n      jump(tag_2)\n    tag_23:\n      dup1\n      0x01c5556a\n      eq\n      tag_3\n      jumpi\n      dup1\n      0x0d15fd77\n      eq\n      tag_4\n      jumpi\n      dup1\n      0x10508439\n      eq\n      tag_5\n      jumpi\n      dup1\n      0x2bfda515\n      eq\n      tag_6\n      jumpi\n    tag_2:\n      0x00\n      dup1\n      revert\n        /* \"contracts/Ballot/MyBallot.sol\":4393:4622  function calculateAmountOfTotalVotes() public view returns (uint total) {\r... */\n    tag_3:\n      tag_24\n      tag_25\n      jump\t// in\n    tag_24:\n      mload(0x40)\n      tag_26\n      swap2\n      swap1\n      tag_27\n      jump\t// in\n    tag_26:\n      mload(0x40)\n      dup1\n      swap2\n      sub\n      swap1\n      return\n        /* \"contracts/Ballot/MyBallot.sol\":495:517  uint public totalVotes */\n    tag_4:\n      tag_28\n      tag_29\n      jump\t// in\n    tag_28:\n      mload(0x40)\n      tag_30\n      swap2\n      swap1\n      tag_27\n      jump\t// in\n    tag_30:\n      mload(0x40)\n      dup1\n      swap2\n      sub\n      swap1\n      return\n        /* \"contracts/Ballot/MyBallot.sol\":2294:2552  function addCandidateWithSpreadParameters(string memory name, string memory party) public isContractOwnerAddCandidate() {\r... */\n    tag_5:\n      tag_31\n      0x04\n      dup1\n      calldatasize\n      sub\n      dup2\n      add\n      swap1\n      tag_32\n      swap2\n      swap1\n      tag_33\n      jump\t// in\n    tag_32:\n      tag_34\n      jump\t// in\n    tag_31:\n      stop\n        /* \"contracts/Ballot/MyBallot.sol\":3574:3716  function getWinnerName() public view returns (string memory winnerName) {\r... */\n    tag_6:\n      tag_35\n      tag_36\n      jump\t// in\n    tag_35:\n      mload(0x40)\n      tag_37\n      swap2\n      swap1\n      tag_38\n      jump\t// in\n    tag_37:\n      mload(0x40)\n      dup1\n      swap2\n      sub\n      swap1\n      return\n        /* \"contracts/Ballot/MyBallot.sol\":4286:4385  function getContractAddress() public view returns (address) {\r... */\n    tag_7:\n      tag_39\n      tag_40\n      jump\t// in\n    tag_39:\n      mload(0x40)\n      tag_41\n      swap2\n      swap1\n      tag_42\n      jump\t// in\n    tag_41:\n      mload(0x40)\n      dup1\n      swap2\n      sub\n      swap1\n      return\n        /* \"contracts/Ballot/MyBallot.sol\":457:486  Candidate[] public candidates */\n    tag_8:\n      tag_43\n      0x04\n      dup1\n      calldatasize\n      sub\n      dup2\n      add\n      swap1\n      tag_44\n      swap2\n      swap1\n      tag_45\n      jump\t// in\n    tag_44:\n      tag_46\n      jump\t// in\n    tag_43:\n      mload(0x40)\n      tag_47\n      swap4\n      swap3\n      swap2\n      swap1\n      tag_48\n      jump\t// in\n    tag_47:\n      mload(0x40)\n      dup1\n      swap2\n      sub\n      swap1\n      return\n        /* \"contracts/Ballot/MyBallot.sol\":4630:4741  function areYouContractOwner() public view returns (bool) {\r... */\n    tag_9:\n      tag_49\n      tag_50\n      jump\t// in\n    tag_49:\n      mload(0x40)\n      tag_51\n      swap2\n      swap1\n      tag_52\n      jump\t// in\n    tag_51:\n      mload(0x40)\n      dup1\n      swap2\n      sub\n      swap1\n      return\n        /* \"contracts/Ballot/MyBallot.sol\":4172:4278  function getCandidatesList() public view returns (Candidate[] memory) {\r... */\n    tag_10:\n      tag_53\n      tag_54\n      jump\t// in\n    tag_53:\n      mload(0x40)\n      tag_55\n      swap2\n      swap1\n      tag_56\n      jump\t// in\n    tag_55:\n      mload(0x40)\n      dup1\n      swap2\n      sub\n      swap1\n      return\n        /* \"contracts/Ballot/MyBallot.sol\":5130:5256  function isVoterVoted(address voterAddress) public view returns (bool) {\r... */\n    tag_11:\n      tag_57\n      0x04\n      dup1\n      calldatasize\n      sub\n      dup2\n      add\n      swap1\n      tag_58\n      swap2\n      swap1\n      tag_59\n      jump\t// in\n    tag_58:\n      tag_60\n      jump\t// in\n    tag_57:\n      mload(0x40)\n      tag_61\n      swap2\n      swap1\n      tag_52\n      jump\t// in\n    tag_61:\n      mload(0x40)\n      dup1\n      swap2\n      sub\n      swap1\n      return\n        /* \"contracts/Ballot/MyBallot.sol\":2726:2872  function addCandidateAsStruct(Candidate memory newCandidate) public isContractOwnerAddCandidate() {\r... */\n    tag_12:\n      tag_62\n      0x04\n      dup1\n      calldatasize\n      sub\n      dup2\n      add\n      swap1\n      tag_63\n      swap2\n      swap1\n      tag_64\n      jump\t// in\n    tag_63:\n      tag_65\n      jump\t// in\n    tag_62:\n      stop\n        /* \"contracts/Ballot/MyBallot.sol\":2884:3047  function giveRightToVote(address voterAddress) public isContractOwnerRightToVote() isVoterVote(voterAddress) {\r... */\n    tag_13:\n      tag_66\n      0x04\n      dup1\n      calldatasize\n      sub\n      dup2\n      add\n      swap1\n      tag_67\n      swap2\n      swap1\n      tag_59\n      jump\t// in\n    tag_67:\n      tag_68\n      jump\t// in\n    tag_66:\n      stop\n        /* \"contracts/Ballot/MyBallot.sol\":409:448  mapping(address => Voter) public voters */\n    tag_14:\n      tag_69\n      0x04\n      dup1\n      calldatasize\n      sub\n      dup2\n      add\n      swap1\n      tag_70\n      swap2\n      swap1\n      tag_59\n      jump\t// in\n    tag_70:\n      tag_71\n      jump\t// in\n    tag_69:\n      mload(0x40)\n      tag_72\n      swap3\n      swap2\n      swap1\n      tag_73\n      jump\t// in\n    tag_72:\n      mload(0x40)\n      dup1\n      swap2\n      sub\n      swap1\n      return\n        /* \"contracts/Ballot/MyBallot.sol\":372:400  address public contractOwner */\n    tag_15:\n      tag_74\n      tag_75\n      jump\t// in\n    tag_74:\n      mload(0x40)\n      tag_76\n      swap2\n      swap1\n      tag_42\n      jump\t// in\n    tag_76:\n      mload(0x40)\n      dup1\n      swap2\n      sub\n      swap1\n      return\n        /* \"contracts/Ballot/MyBallot.sol\":5022:5122  function areYouVoted() public view returns (bool) {\r... */\n    tag_16:\n      tag_77\n      tag_78\n      jump\t// in\n    tag_77:\n      mload(0x40)\n      tag_79\n      swap2\n      swap1\n      tag_52\n      jump\t// in\n    tag_79:\n      mload(0x40)\n      dup1\n      swap2\n      sub\n      swap1\n      return\n        /* \"contracts/Ballot/MyBallot.sol\":4749:4870  function areYouHaveRigthToVote() public view returns (bool) {\r... */\n    tag_17:\n      tag_80\n      tag_81\n      jump\t// in\n    tag_80:\n      mload(0x40)\n      tag_82\n      swap2\n      swap1\n      tag_52\n      jump\t// in\n    tag_82:\n      mload(0x40)\n      dup1\n      swap2\n      sub\n      swap1\n      return\n        /* \"contracts/Ballot/MyBallot.sol\":4878:5014  function isAnyoneHaveRigthToVote(address voterAddress) public view returns (bool) {\r... */\n    tag_18:\n      tag_83\n      0x04\n      dup1\n      calldatasize\n      sub\n      dup2\n      add\n      swap1\n      tag_84\n      swap2\n      swap1\n      tag_59\n      jump\t// in\n    tag_84:\n      tag_85\n      jump\t// in\n    tag_83:\n      mload(0x40)\n      tag_86\n      swap2\n      swap1\n      tag_52\n      jump\t// in\n    tag_86:\n      mload(0x40)\n      dup1\n      swap2\n      sub\n      swap1\n      return\n        /* \"contracts/Ballot/MyBallot.sol\":3724:4164  function getWinningCandidate() public view returns (uint winningProposal) {\r... */\n    tag_19:\n      tag_87\n      tag_88\n      jump\t// in\n    tag_87:\n      mload(0x40)\n      tag_89\n      swap2\n      swap1\n      tag_27\n      jump\t// in\n    tag_89:\n      mload(0x40)\n      dup1\n      swap2\n      sub\n      swap1\n      return\n        /* \"contracts/Ballot/MyBallot.sol\":3055:3566  function vote(string memory name) public isVoterVote(msg.sender) hasRightToVote() {\r... */\n    tag_20:\n      tag_90\n      0x04\n      dup1\n      calldatasize\n      sub\n      dup2\n      add\n      swap1\n      tag_91\n      swap2\n      swap1\n      tag_92\n      jump\t// in\n    tag_91:\n      tag_93\n      jump\t// in\n    tag_90:\n      stop\n        /* \"contracts/Ballot/MyBallot.sol\":4393:4622  function calculateAmountOfTotalVotes() public view returns (uint total) {\r... */\n    tag_25:\n        /* \"contracts/Ballot/MyBallot.sol\":4453:4463  uint total */\n      0x00\n        /* \"contracts/Ballot/MyBallot.sol\":4499:4509  uint index */\n      dup1\n        /* \"contracts/Ballot/MyBallot.sol\":4512:4513  0 */\n      0x00\n        /* \"contracts/Ballot/MyBallot.sol\":4499:4513  uint index = 0 */\n      swap1\n      pop\n        /* \"contracts/Ballot/MyBallot.sol\":4494:4615  for (uint index = 0; index < candidates.length; index++) {\r... */\n    tag_95:\n        /* \"contracts/Ballot/MyBallot.sol\":4523:4533  candidates */\n      0x02\n        /* \"contracts/Ballot/MyBallot.sol\":4523:4540  candidates.length */\n      dup1\n      sload\n      swap1\n      pop\n        /* \"contracts/Ballot/MyBallot.sol\":4515:4520  index */\n      dup2\n        /* \"contracts/Ballot/MyBallot.sol\":4515:4540  index < candidates.length */\n      lt\n        /* \"contracts/Ballot/MyBallot.sol\":4494:4615  for (uint index = 0; index < candidates.length; index++) {\r... */\n      iszero\n      tag_96\n      jumpi\n        /* \"contracts/Ballot/MyBallot.sol\":4575:4585  candidates */\n      0x02\n        /* \"contracts/Ballot/MyBallot.sol\":4586:4591  index */\n      dup2\n        /* \"contracts/Ballot/MyBallot.sol\":4575:4592  candidates[index] */\n      dup2\n      sload\n      dup2\n      lt\n      tag_98\n      jumpi\n      tag_99\n      tag_100\n      jump\t// in\n    tag_99:\n    tag_98:\n      swap1\n      0x00\n      mstore\n      keccak256(0x00, 0x20)\n      swap1\n      0x03\n      mul\n      add\n        /* \"contracts/Ballot/MyBallot.sol\":4575:4603  candidates[index].votesCount */\n      0x02\n      add\n      sload\n        /* \"contracts/Ballot/MyBallot.sol\":4566:4603  total += candidates[index].votesCount */\n      dup3\n      tag_102\n      swap2\n      swap1\n      tag_103\n      jump\t// in\n    tag_102:\n      swap2\n      pop\n        /* \"contracts/Ballot/MyBallot.sol\":4542:4549  index++ */\n      dup1\n      dup1\n      tag_104\n      swap1\n      tag_105\n      jump\t// in\n    tag_104:\n      swap2\n      pop\n      pop\n        /* \"contracts/Ballot/MyBallot.sol\":4494:4615  for (uint index = 0; index < candidates.length; index++) {\r... */\n      jump(tag_95)\n    tag_96:\n      pop\n        /* \"contracts/Ballot/MyBallot.sol\":4393:4622  function calculateAmountOfTotalVotes() public view returns (uint total) {\r... */\n      swap1\n      jump\t// out\n        /* \"contracts/Ballot/MyBallot.sol\":495:517  uint public totalVotes */\n    tag_29:\n      sload(0x03)\n      dup2\n      jump\t// out\n        /* \"contracts/Ballot/MyBallot.sol\":2294:2552  function addCandidateWithSpreadParameters(string memory name, string memory party) public isContractOwnerAddCandidate() {\r... */\n    tag_34:\n        /* \"contracts/Ballot/MyBallot.sol\":1808:1829  areYouContractOwner() */\n      tag_107\n        /* \"contracts/Ballot/MyBallot.sol\":1808:1827  areYouContractOwner */\n      tag_50\n        /* \"contracts/Ballot/MyBallot.sol\":1808:1829  areYouContractOwner() */\n      jump\t// in\n    tag_107:\n        /* \"contracts/Ballot/MyBallot.sol\":1786:1900  require(\r... */\n      tag_108\n      jumpi\n      mload(0x40)\n      0x08c379a000000000000000000000000000000000000000000000000000000000\n      dup2\n      mstore\n      0x04\n      add\n      tag_109\n      swap1\n      tag_110\n      jump\t// in\n    tag_109:\n      mload(0x40)\n      dup1\n      swap2\n      sub\n      swap1\n      revert\n    tag_108:\n        /* \"contracts/Ballot/MyBallot.sol\":2425:2435  candidates */\n      0x02\n        /* \"contracts/Ballot/MyBallot.sol\":2441:2543  Candidate({\r... */\n      mload(0x40)\n      dup1\n      0x60\n      add\n      0x40\n      mstore\n      dup1\n        /* \"contracts/Ballot/MyBallot.sol\":2472:2476  name */\n      dup5\n        /* \"contracts/Ballot/MyBallot.sol\":2441:2543  Candidate({\r... */\n      dup2\n      mstore\n      0x20\n      add\n        /* \"contracts/Ballot/MyBallot.sol\":2498:2503  party */\n      dup4\n        /* \"contracts/Ballot/MyBallot.sol\":2441:2543  Candidate({\r... */\n      dup2\n      mstore\n      0x20\n      add\n        /* \"contracts/Ballot/MyBallot.sol\":2530:2531  0 */\n      0x00\n        /* \"contracts/Ballot/MyBallot.sol\":2441:2543  Candidate({\r... */\n      dup2\n      mstore\n      pop\n        /* \"contracts/Ballot/MyBallot.sol\":2425:2544  candidates.push(Candidate({\r... */\n      swap1\n      dup1\n      0x01\n      dup2\n      sload\n      add\n      dup1\n      dup3\n      sstore\n      dup1\n      swap2\n      pop\n      pop\n      0x01\n      swap1\n      sub\n      swap1\n      0x00\n      mstore\n      keccak256(0x00, 0x20)\n      swap1\n      0x03\n      mul\n      add\n      0x00\n      swap1\n      swap2\n      swap1\n      swap2\n      swap1\n      swap2\n      pop\n      0x00\n      dup3\n      add\n      mload\n      dup2\n      0x00\n      add\n      swap1\n      dup1\n      mload\n      swap1\n      0x20\n      add\n      swap1\n      tag_113\n      swap3\n      swap2\n      swap1\n      tag_114\n      jump\t// in\n    tag_113:\n      pop\n      0x20\n      dup3\n      add\n      mload\n      dup2\n      0x01\n      add\n      swap1\n      dup1\n      mload\n      swap1\n      0x20\n      add\n      swap1\n      tag_115\n      swap3\n      swap2\n      swap1\n      tag_114\n      jump\t// in\n    tag_115:\n      pop\n      0x40\n      dup3\n      add\n      mload\n      dup2\n      0x02\n      add\n      sstore\n      pop\n      pop\n        /* \"contracts/Ballot/MyBallot.sol\":2294:2552  function addCandidateWithSpreadParameters(string memory name, string memory party) public isContractOwnerAddCandidate() {\r... */\n      pop\n      pop\n      jump\t// out\n        /* \"contracts/Ballot/MyBallot.sol\":3574:3716  function getWinnerName() public view returns (string memory winnerName) {\r... */\n    tag_36:\n        /* \"contracts/Ballot/MyBallot.sol\":3620:3644  string memory winnerName */\n      0x60\n        /* \"contracts/Ballot/MyBallot.sol\":3670:3680  candidates */\n      0x02\n        /* \"contracts/Ballot/MyBallot.sol\":3681:3702  getWinningCandidate() */\n      tag_117\n        /* \"contracts/Ballot/MyBallot.sol\":3681:3700  getWinningCandidate */\n      tag_88\n        /* \"contracts/Ballot/MyBallot.sol\":3681:3702  getWinningCandidate() */\n      jump\t// in\n    tag_117:\n        /* \"contracts/Ballot/MyBallot.sol\":3670:3703  candidates[getWinningCandidate()] */\n      dup2\n      sload\n      dup2\n      lt\n      tag_118\n      jumpi\n      tag_119\n      tag_100\n      jump\t// in\n    tag_119:\n    tag_118:\n      swap1\n      0x00\n      mstore\n      keccak256(0x00, 0x20)\n      swap1\n      0x03\n      mul\n      add\n        /* \"contracts/Ballot/MyBallot.sol\":3670:3708  candidates[getWinningCandidate()].name */\n      0x00\n      add\n        /* \"contracts/Ballot/MyBallot.sol\":3657:3708  winnerName = candidates[getWinningCandidate()].name */\n      dup1\n      sload\n      tag_121\n      swap1\n      tag_122\n      jump\t// in\n    tag_121:\n      dup1\n      0x1f\n      add\n      0x20\n      dup1\n      swap2\n      div\n      mul\n      0x20\n      add\n      mload(0x40)\n      swap1\n      dup2\n      add\n      0x40\n      mstore\n      dup1\n      swap3\n      swap2\n      swap1\n      dup2\n      dup2\n      mstore\n      0x20\n      add\n      dup3\n      dup1\n      sload\n      tag_123\n      swap1\n      tag_122\n      jump\t// in\n    tag_123:\n      dup1\n      iszero\n      tag_124\n      jumpi\n      dup1\n      0x1f\n      lt\n      tag_125\n      jumpi\n      0x0100\n      dup1\n      dup4\n      sload\n      div\n      mul\n      dup4\n      mstore\n      swap2\n      0x20\n      add\n      swap2\n      jump(tag_124)\n    tag_125:\n      dup3\n      add\n      swap2\n      swap1\n      0x00\n      mstore\n      keccak256(0x00, 0x20)\n      swap1\n    tag_126:\n      dup2\n      sload\n      dup2\n      mstore\n      swap1\n      0x01\n      add\n      swap1\n      0x20\n      add\n      dup1\n      dup4\n      gt\n      tag_126\n      jumpi\n      dup3\n      swap1\n      sub\n      0x1f\n      and\n      dup3\n      add\n      swap2\n    tag_124:\n      pop\n      pop\n      pop\n      pop\n      pop\n      swap1\n      pop\n        /* \"contracts/Ballot/MyBallot.sol\":3574:3716  function getWinnerName() public view returns (string memory winnerName) {\r... */\n      swap1\n      jump\t// out\n        /* \"contracts/Ballot/MyBallot.sol\":4286:4385  function getContractAddress() public view returns (address) {\r... */\n    tag_40:\n        /* \"contracts/Ballot/MyBallot.sol\":4337:4344  address */\n      0x00\n        /* \"contracts/Ballot/MyBallot.sol\":4372:4376  this */\n      address\n        /* \"contracts/Ballot/MyBallot.sol\":4357:4377  return address(this) */\n      swap1\n      pop\n        /* \"contracts/Ballot/MyBallot.sol\":4286:4385  function getContractAddress() public view returns (address) {\r... */\n      swap1\n      jump\t// out\n        /* \"contracts/Ballot/MyBallot.sol\":457:486  Candidate[] public candidates */\n    tag_46:\n      0x02\n      dup2\n      dup2\n      sload\n      dup2\n      lt\n      tag_128\n      jumpi\n      0x00\n      dup1\n      revert\n    tag_128:\n      swap1\n      0x00\n      mstore\n      keccak256(0x00, 0x20)\n      swap1\n      0x03\n      mul\n      add\n      0x00\n      swap2\n      pop\n      swap1\n      pop\n      dup1\n      0x00\n      add\n      dup1\n      sload\n      tag_130\n      swap1\n      tag_122\n      jump\t// in\n    tag_130:\n      dup1\n      0x1f\n      add\n      0x20\n      dup1\n      swap2\n      div\n      mul\n      0x20\n      add\n      mload(0x40)\n      swap1\n      dup2\n      add\n      0x40\n      mstore\n      dup1\n      swap3\n      swap2\n      swap1\n      dup2\n      dup2\n      mstore\n      0x20\n      add\n      dup3\n      dup1\n      sload\n      tag_131\n      swap1\n      tag_122\n      jump\t// in\n    tag_131:\n      dup1\n      iszero\n      tag_132\n      jumpi\n      dup1\n      0x1f\n      lt\n      tag_133\n      jumpi\n      0x0100\n      dup1\n      dup4\n      sload\n      div\n      mul\n      dup4\n      mstore\n      swap2\n      0x20\n      add\n      swap2\n      jump(tag_132)\n    tag_133:\n      dup3\n      add\n      swap2\n      swap1\n      0x00\n      mstore\n      keccak256(0x00, 0x20)\n      swap1\n    tag_134:\n      dup2\n      sload\n      dup2\n      mstore\n      swap1\n      0x01\n      add\n      swap1\n      0x20\n      add\n      dup1\n      dup4\n      gt\n      tag_134\n      jumpi\n      dup3\n      swap1\n      sub\n      0x1f\n      and\n      dup3\n      add\n      swap2\n    tag_132:\n      pop\n      pop\n      pop\n      pop\n      pop\n      swap1\n      dup1\n      0x01\n      add\n      dup1\n      sload\n      tag_135\n      swap1\n      tag_122\n      jump\t// in\n    tag_135:\n      dup1\n      0x1f\n      add\n      0x20\n      dup1\n      swap2\n      div\n      mul\n      0x20\n      add\n      mload(0x40)\n      swap1\n      dup2\n      add\n      0x40\n      mstore\n      dup1\n      swap3\n      swap2\n      swap1\n      dup2\n      dup2\n      mstore\n      0x20\n      add\n      dup3\n      dup1\n      sload\n      tag_136\n      swap1\n      tag_122\n      jump\t// in\n    tag_136:\n      dup1\n      iszero\n      tag_137\n      jumpi\n      dup1\n      0x1f\n      lt\n      tag_138\n      jumpi\n      0x0100\n      dup1\n      dup4\n      sload\n      div\n      mul\n      dup4\n      mstore\n      swap2\n      0x20\n      add\n      swap2\n      jump(tag_137)\n    tag_138:\n      dup3\n      add\n      swap2\n      swap1\n      0x00\n      mstore\n      keccak256(0x00, 0x20)\n      swap1\n    tag_139:\n      dup2\n      sload\n      dup2\n      mstore\n      swap1\n      0x01\n      add\n      swap1\n      0x20\n      add\n      dup1\n      dup4\n      gt\n      tag_139\n      jumpi\n      dup3\n      swap1\n      sub\n      0x1f\n      and\n      dup3\n      add\n      swap2\n    tag_137:\n      pop\n      pop\n      pop\n      pop\n      pop\n      swap1\n      dup1\n      0x02\n      add\n      sload\n      swap1\n      pop\n      dup4\n      jump\t// out\n        /* \"contracts/Ballot/MyBallot.sol\":4630:4741  function areYouContractOwner() public view returns (bool) {\r... */\n    tag_50:\n        /* \"contracts/Ballot/MyBallot.sol\":4682:4686  bool */\n      0x00\n        /* \"contracts/Ballot/MyBallot.sol\":4720:4733  contractOwner */\n      dup1\n      0x00\n      swap1\n      sload\n      swap1\n      0x0100\n      exp\n      swap1\n      div\n      0xffffffffffffffffffffffffffffffffffffffff\n      and\n        /* \"contracts/Ballot/MyBallot.sol\":4706:4733  msg.sender == contractOwner */\n      0xffffffffffffffffffffffffffffffffffffffff\n      and\n        /* \"contracts/Ballot/MyBallot.sol\":4706:4716  msg.sender */\n      caller\n        /* \"contracts/Ballot/MyBallot.sol\":4706:4733  msg.sender == contractOwner */\n      0xffffffffffffffffffffffffffffffffffffffff\n      and\n      eq\n        /* \"contracts/Ballot/MyBallot.sol\":4699:4733  return msg.sender == contractOwner */\n      swap1\n      pop\n        /* \"contracts/Ballot/MyBallot.sol\":4630:4741  function areYouContractOwner() public view returns (bool) {\r... */\n      swap1\n      jump\t// out\n        /* \"contracts/Ballot/MyBallot.sol\":4172:4278  function getCandidatesList() public view returns (Candidate[] memory) {\r... */\n    tag_54:\n        /* \"contracts/Ballot/MyBallot.sol\":4222:4240  Candidate[] memory */\n      0x60\n        /* \"contracts/Ballot/MyBallot.sol\":4260:4270  candidates */\n      0x02\n        /* \"contracts/Ballot/MyBallot.sol\":4253:4270  return candidates */\n      dup1\n      sload\n      dup1\n      0x20\n      mul\n      0x20\n      add\n      mload(0x40)\n      swap1\n      dup2\n      add\n      0x40\n      mstore\n      dup1\n      swap3\n      swap2\n      swap1\n      dup2\n      dup2\n      mstore\n      0x20\n      add\n      0x00\n      swap1\n    tag_142:\n      dup3\n      dup3\n      lt\n      iszero\n      tag_143\n      jumpi\n      dup4\n      dup3\n      swap1\n      0x00\n      mstore\n      keccak256(0x00, 0x20)\n      swap1\n      0x03\n      mul\n      add\n      mload(0x40)\n      dup1\n      0x60\n      add\n      0x40\n      mstore\n      swap1\n      dup2\n      0x00\n      dup3\n      add\n      dup1\n      sload\n      tag_145\n      swap1\n      tag_122\n      jump\t// in\n    tag_145:\n      dup1\n      0x1f\n      add\n      0x20\n      dup1\n      swap2\n      div\n      mul\n      0x20\n      add\n      mload(0x40)\n      swap1\n      dup2\n      add\n      0x40\n      mstore\n      dup1\n      swap3\n      swap2\n      swap1\n      dup2\n      dup2\n      mstore\n      0x20\n      add\n      dup3\n      dup1\n      sload\n      tag_146\n      swap1\n      tag_122\n      jump\t// in\n    tag_146:\n      dup1\n      iszero\n      tag_147\n      jumpi\n      dup1\n      0x1f\n      lt\n      tag_148\n      jumpi\n      0x0100\n      dup1\n      dup4\n      sload\n      div\n      mul\n      dup4\n      mstore\n      swap2\n      0x20\n      add\n      swap2\n      jump(tag_147)\n    tag_148:\n      dup3\n      add\n      swap2\n      swap1\n      0x00\n      mstore\n      keccak256(0x00, 0x20)\n      swap1\n    tag_149:\n      dup2\n      sload\n      dup2\n      mstore\n      swap1\n      0x01\n      add\n      swap1\n      0x20\n      add\n      dup1\n      dup4\n      gt\n      tag_149\n      jumpi\n      dup3\n      swap1\n      sub\n      0x1f\n      and\n      dup3\n      add\n      swap2\n    tag_147:\n      pop\n      pop\n      pop\n      pop\n      pop\n      dup2\n      mstore\n      0x20\n      add\n      0x01\n      dup3\n      add\n      dup1\n      sload\n      tag_150\n      swap1\n      tag_122\n      jump\t// in\n    tag_150:\n      dup1\n      0x1f\n      add\n      0x20\n      dup1\n      swap2\n      div\n      mul\n      0x20\n      add\n      mload(0x40)\n      swap1\n      dup2\n      add\n      0x40\n      mstore\n      dup1\n      swap3\n      swap2\n      swap1\n      dup2\n      dup2\n      mstore\n      0x20\n      add\n      dup3\n      dup1\n      sload\n      tag_151\n      swap1\n      tag_122\n      jump\t// in\n    tag_151:\n      dup1\n      iszero\n      tag_152\n      jumpi\n      dup1\n      0x1f\n      lt\n      tag_153\n      jumpi\n      0x0100\n      dup1\n      dup4\n      sload\n      div\n      mul\n      dup4\n      mstore\n      swap2\n      0x20\n      add\n      swap2\n      jump(tag_152)\n    tag_153:\n      dup3\n      add\n      swap2\n      swap1\n      0x00\n      mstore\n      keccak256(0x00, 0x20)\n      swap1\n    tag_154:\n      dup2\n      sload\n      dup2\n      mstore\n      swap1\n      0x01\n      add\n      swap1\n      0x20\n      add\n      dup1\n      dup4\n      gt\n      tag_154\n      jumpi\n      dup3\n      swap1\n      sub\n      0x1f\n      and\n      dup3\n      add\n      swap2\n    tag_152:\n      pop\n      pop\n      pop\n      pop\n      pop\n      dup2\n      mstore\n      0x20\n      add\n      0x02\n      dup3\n      add\n      sload\n      dup2\n      mstore\n      pop\n      pop\n      dup2\n      mstore\n      0x20\n      add\n      swap1\n      0x01\n      add\n      swap1\n      jump(tag_142)\n    tag_143:\n      pop\n      pop\n      pop\n      pop\n      swap1\n      pop\n        /* \"contracts/Ballot/MyBallot.sol\":4172:4278  function getCandidatesList() public view returns (Candidate[] memory) {\r... */\n      swap1\n      jump\t// out\n        /* \"contracts/Ballot/MyBallot.sol\":5130:5256  function isVoterVoted(address voterAddress) public view returns (bool) {\r... */\n    tag_60:\n        /* \"contracts/Ballot/MyBallot.sol\":5195:5199  bool */\n      0x00\n        /* \"contracts/Ballot/MyBallot.sol\":5219:5225  voters */\n      0x01\n        /* \"contracts/Ballot/MyBallot.sol\":5219:5239  voters[voterAddress] */\n      0x00\n        /* \"contracts/Ballot/MyBallot.sol\":5226:5238  voterAddress */\n      dup4\n        /* \"contracts/Ballot/MyBallot.sol\":5219:5239  voters[voterAddress] */\n      0xffffffffffffffffffffffffffffffffffffffff\n      and\n      0xffffffffffffffffffffffffffffffffffffffff\n      and\n      dup2\n      mstore\n      0x20\n      add\n      swap1\n      dup2\n      mstore\n      0x20\n      add\n      0x00\n      keccak256\n        /* \"contracts/Ballot/MyBallot.sol\":5219:5248  voters[voterAddress].hasVoted */\n      0x00\n      add\n      0x01\n      swap1\n      sload\n      swap1\n      0x0100\n      exp\n      swap1\n      div\n      0xff\n      and\n        /* \"contracts/Ballot/MyBallot.sol\":5212:5248  return voters[voterAddress].hasVoted */\n      swap1\n      pop\n        /* \"contracts/Ballot/MyBallot.sol\":5130:5256  function isVoterVoted(address voterAddress) public view returns (bool) {\r... */\n      swap2\n      swap1\n      pop\n      jump\t// out\n        /* \"contracts/Ballot/MyBallot.sol\":2726:2872  function addCandidateAsStruct(Candidate memory newCandidate) public isContractOwnerAddCandidate() {\r... */\n    tag_65:\n        /* \"contracts/Ballot/MyBallot.sol\":1808:1829  areYouContractOwner() */\n      tag_157\n        /* \"contracts/Ballot/MyBallot.sol\":1808:1827  areYouContractOwner */\n      tag_50\n        /* \"contracts/Ballot/MyBallot.sol\":1808:1829  areYouContractOwner() */\n      jump\t// in\n    tag_157:\n        /* \"contracts/Ballot/MyBallot.sol\":1786:1900  require(\r... */\n      tag_158\n      jumpi\n      mload(0x40)\n      0x08c379a000000000000000000000000000000000000000000000000000000000\n      dup2\n      mstore\n      0x04\n      add\n      tag_159\n      swap1\n      tag_110\n      jump\t// in\n    tag_159:\n      mload(0x40)\n      dup1\n      swap2\n      sub\n      swap1\n      revert\n    tag_158:\n        /* \"contracts/Ballot/MyBallot.sol\":2835:2845  candidates */\n      0x02\n        /* \"contracts/Ballot/MyBallot.sol\":2851:2863  newCandidate */\n      dup2\n        /* \"contracts/Ballot/MyBallot.sol\":2835:2864  candidates.push(newCandidate) */\n      swap1\n      dup1\n      0x01\n      dup2\n      sload\n      add\n      dup1\n      dup3\n      sstore\n      dup1\n      swap2\n      pop\n      pop\n      0x01\n      swap1\n      sub\n      swap1\n      0x00\n      mstore\n      keccak256(0x00, 0x20)\n      swap1\n      0x03\n      mul\n      add\n      0x00\n      swap1\n      swap2\n      swap1\n      swap2\n      swap1\n      swap2\n      pop\n      0x00\n      dup3\n      add\n      mload\n      dup2\n      0x00\n      add\n      swap1\n      dup1\n      mload\n      swap1\n      0x20\n      add\n      swap1\n      tag_162\n      swap3\n      swap2\n      swap1\n      tag_114\n      jump\t// in\n    tag_162:\n      pop\n      0x20\n      dup3\n      add\n      mload\n      dup2\n      0x01\n      add\n      swap1\n      dup1\n      mload\n      swap1\n      0x20\n      add\n      swap1\n      tag_163\n      swap3\n      swap2\n      swap1\n      tag_114\n      jump\t// in\n    tag_163:\n      pop\n      0x40\n      dup3\n      add\n      mload\n      dup2\n      0x02\n      add\n      sstore\n      pop\n      pop\n        /* \"contracts/Ballot/MyBallot.sol\":2726:2872  function addCandidateAsStruct(Candidate memory newCandidate) public isContractOwnerAddCandidate() {\r... */\n      pop\n      jump\t// out\n        /* \"contracts/Ballot/MyBallot.sol\":2884:3047  function giveRightToVote(address voterAddress) public isContractOwnerRightToVote() isVoterVote(voterAddress) {\r... */\n    tag_68:\n        /* \"contracts/Ballot/MyBallot.sol\":1612:1633  areYouContractOwner() */\n      tag_165\n        /* \"contracts/Ballot/MyBallot.sol\":1612:1631  areYouContractOwner */\n      tag_50\n        /* \"contracts/Ballot/MyBallot.sol\":1612:1633  areYouContractOwner() */\n      jump\t// in\n    tag_165:\n        /* \"contracts/Ballot/MyBallot.sol\":1590:1708  require(\r... */\n      tag_166\n      jumpi\n      mload(0x40)\n      0x08c379a000000000000000000000000000000000000000000000000000000000\n      dup2\n      mstore\n      0x04\n      add\n      tag_167\n      swap1\n      tag_168\n      jump\t// in\n    tag_167:\n      mload(0x40)\n      dup1\n      swap2\n      sub\n      swap1\n      revert\n    tag_166:\n        /* \"contracts/Ballot/MyBallot.sol\":2979:2991  voterAddress */\n      dup1\n        /* \"contracts/Ballot/MyBallot.sol\":2005:2031  isVoterVoted(voterAddress) */\n      tag_170\n        /* \"contracts/Ballot/MyBallot.sol\":2018:2030  voterAddress */\n      dup2\n        /* \"contracts/Ballot/MyBallot.sol\":2005:2017  isVoterVoted */\n      tag_60\n        /* \"contracts/Ballot/MyBallot.sol\":2005:2031  isVoterVoted(voterAddress) */\n      jump\t// in\n    tag_170:\n        /* \"contracts/Ballot/MyBallot.sol\":2004:2031  !isVoterVoted(voterAddress) */\n      iszero\n        /* \"contracts/Ballot/MyBallot.sol\":1982:2079  require(\r... */\n      tag_171\n      jumpi\n      mload(0x40)\n      0x08c379a000000000000000000000000000000000000000000000000000000000\n      dup2\n      mstore\n      0x04\n      add\n      tag_172\n      swap1\n      tag_173\n      jump\t// in\n    tag_172:\n      mload(0x40)\n      dup1\n      swap2\n      sub\n      swap1\n      revert\n    tag_171:\n        /* \"contracts/Ballot/MyBallot.sol\":3035:3039  true */\n      0x01\n        /* \"contracts/Ballot/MyBallot.sol\":3004:3010  voters */\n      dup1\n        /* \"contracts/Ballot/MyBallot.sol\":3004:3024  voters[voterAddress] */\n      0x00\n        /* \"contracts/Ballot/MyBallot.sol\":3011:3023  voterAddress */\n      dup5\n        /* \"contracts/Ballot/MyBallot.sol\":3004:3024  voters[voterAddress] */\n      0xffffffffffffffffffffffffffffffffffffffff\n      and\n      0xffffffffffffffffffffffffffffffffffffffff\n      and\n      dup2\n      mstore\n      0x20\n      add\n      swap1\n      dup2\n      mstore\n      0x20\n      add\n      0x00\n      keccak256\n        /* \"contracts/Ballot/MyBallot.sol\":3004:3032  voters[voterAddress].canVote */\n      0x00\n      add\n      0x00\n        /* \"contracts/Ballot/MyBallot.sol\":3004:3039  voters[voterAddress].canVote = true */\n      0x0100\n      exp\n      dup2\n      sload\n      dup2\n      0xff\n      mul\n      not\n      and\n      swap1\n      dup4\n      iszero\n      iszero\n      mul\n      or\n      swap1\n      sstore\n      pop\n        /* \"contracts/Ballot/MyBallot.sol\":1719:1720  _ */\n      pop\n        /* \"contracts/Ballot/MyBallot.sol\":2884:3047  function giveRightToVote(address voterAddress) public isContractOwnerRightToVote() isVoterVote(voterAddress) {\r... */\n      pop\n      jump\t// out\n        /* \"contracts/Ballot/MyBallot.sol\":409:448  mapping(address => Voter) public voters */\n    tag_71:\n      mstore(0x20, 0x01)\n      dup1\n      0x00\n      mstore\n      keccak256(0x00, 0x40)\n      0x00\n      swap2\n      pop\n      swap1\n      pop\n      dup1\n      0x00\n      add\n      0x00\n      swap1\n      sload\n      swap1\n      0x0100\n      exp\n      swap1\n      div\n      0xff\n      and\n      swap1\n      dup1\n      0x00\n      add\n      0x01\n      swap1\n      sload\n      swap1\n      0x0100\n      exp\n      swap1\n      div\n      0xff\n      and\n      swap1\n      pop\n      dup3\n      jump\t// out\n        /* \"contracts/Ballot/MyBallot.sol\":372:400  address public contractOwner */\n    tag_75:\n      0x00\n      dup1\n      sload\n      swap1\n      0x0100\n      exp\n      swap1\n      div\n      0xffffffffffffffffffffffffffffffffffffffff\n      and\n      dup2\n      jump\t// out\n        /* \"contracts/Ballot/MyBallot.sol\":5022:5122  function areYouVoted() public view returns (bool) {\r... */\n    tag_78:\n        /* \"contracts/Ballot/MyBallot.sol\":5066:5070  bool */\n      0x00\n        /* \"contracts/Ballot/MyBallot.sol\":5090:5114  isVoterVoted(msg.sender) */\n      tag_176\n        /* \"contracts/Ballot/MyBallot.sol\":5103:5113  msg.sender */\n      caller\n        /* \"contracts/Ballot/MyBallot.sol\":5090:5102  isVoterVoted */\n      tag_60\n        /* \"contracts/Ballot/MyBallot.sol\":5090:5114  isVoterVoted(msg.sender) */\n      jump\t// in\n    tag_176:\n        /* \"contracts/Ballot/MyBallot.sol\":5083:5114  return isVoterVoted(msg.sender) */\n      swap1\n      pop\n        /* \"contracts/Ballot/MyBallot.sol\":5022:5122  function areYouVoted() public view returns (bool) {\r... */\n      swap1\n      jump\t// out\n        /* \"contracts/Ballot/MyBallot.sol\":4749:4870  function areYouHaveRigthToVote() public view returns (bool) {\r... */\n    tag_81:\n        /* \"contracts/Ballot/MyBallot.sol\":4803:4807  bool */\n      0x00\n        /* \"contracts/Ballot/MyBallot.sol\":4827:4862  isAnyoneHaveRigthToVote(msg.sender) */\n      tag_178\n        /* \"contracts/Ballot/MyBallot.sol\":4851:4861  msg.sender */\n      caller\n        /* \"contracts/Ballot/MyBallot.sol\":4827:4850  isAnyoneHaveRigthToVote */\n      tag_85\n        /* \"contracts/Ballot/MyBallot.sol\":4827:4862  isAnyoneHaveRigthToVote(msg.sender) */\n      jump\t// in\n    tag_178:\n        /* \"contracts/Ballot/MyBallot.sol\":4820:4862  return isAnyoneHaveRigthToVote(msg.sender) */\n      swap1\n      pop\n        /* \"contracts/Ballot/MyBallot.sol\":4749:4870  function areYouHaveRigthToVote() public view returns (bool) {\r... */\n      swap1\n      jump\t// out\n        /* \"contracts/Ballot/MyBallot.sol\":4878:5014  function isAnyoneHaveRigthToVote(address voterAddress) public view returns (bool) {\r... */\n    tag_85:\n        /* \"contracts/Ballot/MyBallot.sol\":4954:4958  bool */\n      0x00\n        /* \"contracts/Ballot/MyBallot.sol\":4978:4984  voters */\n      0x01\n        /* \"contracts/Ballot/MyBallot.sol\":4978:4998  voters[voterAddress] */\n      0x00\n        /* \"contracts/Ballot/MyBallot.sol\":4985:4997  voterAddress */\n      dup4\n        /* \"contracts/Ballot/MyBallot.sol\":4978:4998  voters[voterAddress] */\n      0xffffffffffffffffffffffffffffffffffffffff\n      and\n      0xffffffffffffffffffffffffffffffffffffffff\n      and\n      dup2\n      mstore\n      0x20\n      add\n      swap1\n      dup2\n      mstore\n      0x20\n      add\n      0x00\n      keccak256\n        /* \"contracts/Ballot/MyBallot.sol\":4978:5006  voters[voterAddress].canVote */\n      0x00\n      add\n      0x00\n      swap1\n      sload\n      swap1\n      0x0100\n      exp\n      swap1\n      div\n      0xff\n      and\n        /* \"contracts/Ballot/MyBallot.sol\":4971:5006  return voters[voterAddress].canVote */\n      swap1\n      pop\n        /* \"contracts/Ballot/MyBallot.sol\":4878:5014  function isAnyoneHaveRigthToVote(address voterAddress) public view returns (bool) {\r... */\n      swap2\n      swap1\n      pop\n      jump\t// out\n        /* \"contracts/Ballot/MyBallot.sol\":3724:4164  function getWinningCandidate() public view returns (uint winningProposal) {\r... */\n    tag_88:\n        /* \"contracts/Ballot/MyBallot.sol\":3776:3796  uint winningProposal */\n      0x00\n        /* \"contracts/Ballot/MyBallot.sol\":3809:3830  uint winningVoteCount */\n      dup1\n        /* \"contracts/Ballot/MyBallot.sol\":3848:3867  uint indexCandidate */\n      0x00\n        /* \"contracts/Ballot/MyBallot.sol\":3843:4157  for (uint indexCandidate = 0; indexCandidate < candidates.length; indexCandidate++) {\r... */\n    tag_181:\n        /* \"contracts/Ballot/MyBallot.sol\":3890:3900  candidates */\n      0x02\n        /* \"contracts/Ballot/MyBallot.sol\":3890:3907  candidates.length */\n      dup1\n      sload\n      swap1\n      pop\n        /* \"contracts/Ballot/MyBallot.sol\":3873:3887  indexCandidate */\n      dup2\n        /* \"contracts/Ballot/MyBallot.sol\":3873:3907  indexCandidate < candidates.length */\n      lt\n        /* \"contracts/Ballot/MyBallot.sol\":3843:4157  for (uint indexCandidate = 0; indexCandidate < candidates.length; indexCandidate++) {\r... */\n      iszero\n      tag_182\n      jumpi\n        /* \"contracts/Ballot/MyBallot.sol\":3986:4002  winningVoteCount */\n      dup2\n        /* \"contracts/Ballot/MyBallot.sol\":3946:3956  candidates */\n      0x02\n        /* \"contracts/Ballot/MyBallot.sol\":3957:3971  indexCandidate */\n      dup3\n        /* \"contracts/Ballot/MyBallot.sol\":3946:3972  candidates[indexCandidate] */\n      dup2\n      sload\n      dup2\n      lt\n      tag_184\n      jumpi\n      tag_185\n      tag_100\n      jump\t// in\n    tag_185:\n    tag_184:\n      swap1\n      0x00\n      mstore\n      keccak256(0x00, 0x20)\n      swap1\n      0x03\n      mul\n      add\n        /* \"contracts/Ballot/MyBallot.sol\":3946:3983  candidates[indexCandidate].votesCount */\n      0x02\n      add\n      sload\n        /* \"contracts/Ballot/MyBallot.sol\":3946:4002  candidates[indexCandidate].votesCount > winningVoteCount */\n      gt\n        /* \"contracts/Ballot/MyBallot.sol\":3942:4146  if (candidates[indexCandidate].votesCount > winningVoteCount) {\r... */\n      iszero\n      tag_187\n      jumpi\n        /* \"contracts/Ballot/MyBallot.sol\":4042:4052  candidates */\n      0x02\n        /* \"contracts/Ballot/MyBallot.sol\":4053:4067  indexCandidate */\n      dup2\n        /* \"contracts/Ballot/MyBallot.sol\":4042:4068  candidates[indexCandidate] */\n      dup2\n      sload\n      dup2\n      lt\n      tag_188\n      jumpi\n      tag_189\n      tag_100\n      jump\t// in\n    tag_189:\n    tag_188:\n      swap1\n      0x00\n      mstore\n      keccak256(0x00, 0x20)\n      swap1\n      0x03\n      mul\n      add\n        /* \"contracts/Ballot/MyBallot.sol\":4042:4079  candidates[indexCandidate].votesCount */\n      0x02\n      add\n      sload\n        /* \"contracts/Ballot/MyBallot.sol\":4023:4079  winningVoteCount = candidates[indexCandidate].votesCount */\n      swap2\n      pop\n        /* \"contracts/Ballot/MyBallot.sol\":4116:4130  indexCandidate */\n      dup1\n        /* \"contracts/Ballot/MyBallot.sol\":4098:4130  winningProposal = indexCandidate */\n      swap3\n      pop\n        /* \"contracts/Ballot/MyBallot.sol\":3942:4146  if (candidates[indexCandidate].votesCount > winningVoteCount) {\r... */\n    tag_187:\n        /* \"contracts/Ballot/MyBallot.sol\":3909:3925  indexCandidate++ */\n      dup1\n      dup1\n      tag_191\n      swap1\n      tag_105\n      jump\t// in\n    tag_191:\n      swap2\n      pop\n      pop\n        /* \"contracts/Ballot/MyBallot.sol\":3843:4157  for (uint indexCandidate = 0; indexCandidate < candidates.length; indexCandidate++) {\r... */\n      jump(tag_181)\n    tag_182:\n      pop\n        /* \"contracts/Ballot/MyBallot.sol\":3798:4164  {\r... */\n      pop\n        /* \"contracts/Ballot/MyBallot.sol\":3724:4164  function getWinningCandidate() public view returns (uint winningProposal) {\r... */\n      swap1\n      jump\t// out\n        /* \"contracts/Ballot/MyBallot.sol\":3055:3566  function vote(string memory name) public isVoterVote(msg.sender) hasRightToVote() {\r... */\n    tag_93:\n        /* \"contracts/Ballot/MyBallot.sol\":3108:3118  msg.sender */\n      caller\n        /* \"contracts/Ballot/MyBallot.sol\":2005:2031  isVoterVoted(voterAddress) */\n      tag_193\n        /* \"contracts/Ballot/MyBallot.sol\":2018:2030  voterAddress */\n      dup2\n        /* \"contracts/Ballot/MyBallot.sol\":2005:2017  isVoterVoted */\n      tag_60\n        /* \"contracts/Ballot/MyBallot.sol\":2005:2031  isVoterVoted(voterAddress) */\n      jump\t// in\n    tag_193:\n        /* \"contracts/Ballot/MyBallot.sol\":2004:2031  !isVoterVoted(voterAddress) */\n      iszero\n        /* \"contracts/Ballot/MyBallot.sol\":1982:2079  require(\r... */\n      tag_194\n      jumpi\n      mload(0x40)\n      0x08c379a000000000000000000000000000000000000000000000000000000000\n      dup2\n      mstore\n      0x04\n      add\n      tag_195\n      swap1\n      tag_173\n      jump\t// in\n    tag_195:\n      mload(0x40)\n      dup1\n      swap2\n      sub\n      swap1\n      revert\n    tag_194:\n        /* \"contracts/Ballot/MyBallot.sol\":2166:2189  areYouHaveRigthToVote() */\n      tag_197\n        /* \"contracts/Ballot/MyBallot.sol\":2166:2187  areYouHaveRigthToVote */\n      tag_81\n        /* \"contracts/Ballot/MyBallot.sol\":2166:2189  areYouHaveRigthToVote() */\n      jump\t// in\n    tag_197:\n        /* \"contracts/Ballot/MyBallot.sol\":2144:2244  require(\r... */\n      tag_198\n      jumpi\n      mload(0x40)\n      0x08c379a000000000000000000000000000000000000000000000000000000000\n      dup2\n      mstore\n      0x04\n      add\n      tag_199\n      swap1\n      tag_200\n      jump\t// in\n    tag_199:\n      mload(0x40)\n      dup1\n      swap2\n      sub\n      swap1\n      revert\n    tag_198:\n        /* \"contracts/Ballot/MyBallot.sol\":3148:3168  Voter storage sender */\n      0x00\n        /* \"contracts/Ballot/MyBallot.sol\":3171:3177  voters */\n      0x01\n        /* \"contracts/Ballot/MyBallot.sol\":3171:3189  voters[msg.sender] */\n      0x00\n        /* \"contracts/Ballot/MyBallot.sol\":3178:3188  msg.sender */\n      caller\n        /* \"contracts/Ballot/MyBallot.sol\":3171:3189  voters[msg.sender] */\n      0xffffffffffffffffffffffffffffffffffffffff\n      and\n      0xffffffffffffffffffffffffffffffffffffffff\n      and\n      dup2\n      mstore\n      0x20\n      add\n      swap1\n      dup2\n      mstore\n      0x20\n      add\n      0x00\n      keccak256\n        /* \"contracts/Ballot/MyBallot.sol\":3148:3189  Voter storage sender = voters[msg.sender] */\n      swap1\n      pop\n        /* \"contracts/Ballot/MyBallot.sol\":3306:3316  uint index */\n      0x00\n        /* \"contracts/Ballot/MyBallot.sol\":3301:3559  for (uint index = 0; index < candidates.length; index++) {\r... */\n    tag_202:\n        /* \"contracts/Ballot/MyBallot.sol\":3330:3340  candidates */\n      0x02\n        /* \"contracts/Ballot/MyBallot.sol\":3330:3347  candidates.length */\n      dup1\n      sload\n      swap1\n      pop\n        /* \"contracts/Ballot/MyBallot.sol\":3322:3327  index */\n      dup2\n        /* \"contracts/Ballot/MyBallot.sol\":3322:3347  index < candidates.length */\n      lt\n        /* \"contracts/Ballot/MyBallot.sol\":3301:3559  for (uint index = 0; index < candidates.length; index++) {\r... */\n      iszero\n      tag_203\n      jumpi\n        /* \"contracts/Ballot/MyBallot.sol\":3377:3426  StringUtil.equialsTo(candidates[index].name,name) */\n      tag_205\n        /* \"contracts/Ballot/MyBallot.sol\":3398:3408  candidates */\n      0x02\n        /* \"contracts/Ballot/MyBallot.sol\":3409:3414  index */\n      dup3\n        /* \"contracts/Ballot/MyBallot.sol\":3398:3415  candidates[index] */\n      dup2\n      sload\n      dup2\n      lt\n      tag_206\n      jumpi\n      tag_207\n      tag_100\n      jump\t// in\n    tag_207:\n    tag_206:\n      swap1\n      0x00\n      mstore\n      keccak256(0x00, 0x20)\n      swap1\n      0x03\n      mul\n      add\n        /* \"contracts/Ballot/MyBallot.sol\":3398:3420  candidates[index].name */\n      0x00\n      add\n        /* \"contracts/Ballot/MyBallot.sol\":3377:3426  StringUtil.equialsTo(candidates[index].name,name) */\n      dup1\n      sload\n      tag_209\n      swap1\n      tag_122\n      jump\t// in\n    tag_209:\n      dup1\n      0x1f\n      add\n      0x20\n      dup1\n      swap2\n      div\n      mul\n      0x20\n      add\n      mload(0x40)\n      swap1\n      dup2\n      add\n      0x40\n      mstore\n      dup1\n      swap3\n      swap2\n      swap1\n      dup2\n      dup2\n      mstore\n      0x20\n      add\n      dup3\n      dup1\n      sload\n      tag_210\n      swap1\n      tag_122\n      jump\t// in\n    tag_210:\n      dup1\n      iszero\n      tag_211\n      jumpi\n      dup1\n      0x1f\n      lt\n      tag_212\n      jumpi\n      0x0100\n      dup1\n      dup4\n      sload\n      div\n      mul\n      dup4\n      mstore\n      swap2\n      0x20\n      add\n      swap2\n      jump(tag_211)\n    tag_212:\n      dup3\n      add\n      swap2\n      swap1\n      0x00\n      mstore\n      keccak256(0x00, 0x20)\n      swap1\n    tag_213:\n      dup2\n      sload\n      dup2\n      mstore\n      swap1\n      0x01\n      add\n      swap1\n      0x20\n      add\n      dup1\n      dup4\n      gt\n      tag_213\n      jumpi\n      dup3\n      swap1\n      sub\n      0x1f\n      and\n      dup3\n      add\n      swap2\n    tag_211:\n      pop\n      pop\n      pop\n      pop\n      pop\n        /* \"contracts/Ballot/MyBallot.sol\":3421:3425  name */\n      dup6\n        /* \"contracts/Ballot/MyBallot.sol\":3377:3397  StringUtil.equialsTo */\n      tag_214\n        /* \"contracts/Ballot/MyBallot.sol\":3377:3426  StringUtil.equialsTo(candidates[index].name,name) */\n      jump\t// in\n    tag_205:\n        /* \"contracts/Ballot/MyBallot.sol\":3373:3475  if (StringUtil.equialsTo(candidates[index].name,name))\r... */\n      iszero\n      tag_215\n      jumpi\n        /* \"contracts/Ballot/MyBallot.sol\":3445:3455  candidates */\n      0x02\n        /* \"contracts/Ballot/MyBallot.sol\":3456:3461  index */\n      dup2\n        /* \"contracts/Ballot/MyBallot.sol\":3445:3462  candidates[index] */\n      dup2\n      sload\n      dup2\n      lt\n      tag_216\n      jumpi\n      tag_217\n      tag_100\n      jump\t// in\n    tag_217:\n    tag_216:\n      swap1\n      0x00\n      mstore\n      keccak256(0x00, 0x20)\n      swap1\n      0x03\n      mul\n      add\n        /* \"contracts/Ballot/MyBallot.sol\":3445:3473  candidates[index].votesCount */\n      0x02\n      add\n      0x00\n        /* \"contracts/Ballot/MyBallot.sol\":3445:3475  candidates[index].votesCount++ */\n      dup2\n      sload\n      dup1\n      swap3\n      swap2\n      swap1\n      tag_219\n      swap1\n      tag_105\n      jump\t// in\n    tag_219:\n      swap2\n      swap1\n      pop\n      sstore\n      pop\n        /* \"contracts/Ballot/MyBallot.sol\":3373:3475  if (StringUtil.equialsTo(candidates[index].name,name))\r... */\n    tag_215:\n        /* \"contracts/Ballot/MyBallot.sol\":3512:3516  true */\n      0x01\n        /* \"contracts/Ballot/MyBallot.sol\":3494:3500  sender */\n      dup3\n        /* \"contracts/Ballot/MyBallot.sol\":3494:3509  sender.hasVoted */\n      0x00\n      add\n      0x01\n        /* \"contracts/Ballot/MyBallot.sol\":3494:3516  sender.hasVoted = true */\n      0x0100\n      exp\n      dup2\n      sload\n      dup2\n      0xff\n      mul\n      not\n      and\n      swap1\n      dup4\n      iszero\n      iszero\n      mul\n      or\n      swap1\n      sstore\n      pop\n        /* \"contracts/Ballot/MyBallot.sol\":3535:3545  totalVotes */\n      0x03\n      0x00\n        /* \"contracts/Ballot/MyBallot.sol\":3535:3547  totalVotes++ */\n      dup2\n      sload\n      dup1\n      swap3\n      swap2\n      swap1\n      tag_220\n      swap1\n      tag_105\n      jump\t// in\n    tag_220:\n      swap2\n      swap1\n      pop\n      sstore\n      pop\n        /* \"contracts/Ballot/MyBallot.sol\":3349:3356  index++ */\n      dup1\n      dup1\n      tag_221\n      swap1\n      tag_105\n      jump\t// in\n    tag_221:\n      swap2\n      pop\n      pop\n        /* \"contracts/Ballot/MyBallot.sol\":3301:3559  for (uint index = 0; index < candidates.length; index++) {\r... */\n      jump(tag_202)\n    tag_203:\n      pop\n        /* \"contracts/Ballot/MyBallot.sol\":3137:3566  {\r... */\n      pop\n        /* \"contracts/Ballot/MyBallot.sol\":3055:3566  function vote(string memory name) public isVoterVote(msg.sender) hasRightToVote() {\r... */\n      pop\n      pop\n      jump\t// out\n        /* \"solidity-string-util/contracts/StringUtil.sol\":287:423  function equialsTo(string memory _s1, string memory _s2) internal pure returns (bool) {... */\n    tag_214:\n        /* \"solidity-string-util/contracts/StringUtil.sol\":367:371  bool */\n      0x00\n        /* \"solidity-string-util/contracts/StringUtil.sol\":405:416  toHash(_s2) */\n      tag_223\n        /* \"solidity-string-util/contracts/StringUtil.sol\":412:415  _s2 */\n      dup3\n        /* \"solidity-string-util/contracts/StringUtil.sol\":405:411  toHash */\n      tag_224\n        /* \"solidity-string-util/contracts/StringUtil.sol\":405:416  toHash(_s2) */\n      jump\t// in\n    tag_223:\n        /* \"solidity-string-util/contracts/StringUtil.sol\":390:401  toHash(_s1) */\n      tag_225\n        /* \"solidity-string-util/contracts/StringUtil.sol\":397:400  _s1 */\n      dup5\n        /* \"solidity-string-util/contracts/StringUtil.sol\":390:396  toHash */\n      tag_224\n        /* \"solidity-string-util/contracts/StringUtil.sol\":390:401  toHash(_s1) */\n      jump\t// in\n    tag_225:\n        /* \"solidity-string-util/contracts/StringUtil.sol\":390:416  toHash(_s1) == toHash(_s2) */\n      eq\n        /* \"solidity-string-util/contracts/StringUtil.sol\":383:416  return toHash(_s1) == toHash(_s2) */\n      swap1\n      pop\n        /* \"solidity-string-util/contracts/StringUtil.sol\":287:423  function equialsTo(string memory _s1, string memory _s2) internal pure returns (bool) {... */\n      swap3\n      swap2\n      pop\n      pop\n      jump\t// out\n        /* \"solidity-string-util/contracts/StringUtil.sol\":51:166  function toHash(string memory _s) internal pure returns (bytes32) {... */\n    tag_224:\n        /* \"solidity-string-util/contracts/StringUtil.sol\":108:115  bytes32 */\n      0x00\n        /* \"solidity-string-util/contracts/StringUtil.sol\":155:157  _s */\n      dup2\n        /* \"solidity-string-util/contracts/StringUtil.sol\":144:158  abi.encode(_s) */\n      add(0x20, mload(0x40))\n      tag_227\n      swap2\n      swap1\n      tag_38\n      jump\t// in\n    tag_227:\n      mload(0x40)\n      0x20\n      dup2\n      dup4\n      sub\n      sub\n      dup2\n      mstore\n      swap1\n      0x40\n      mstore\n        /* \"solidity-string-util/contracts/StringUtil.sol\":134:159  keccak256(abi.encode(_s)) */\n      dup1\n      mload\n      swap1\n      0x20\n      add\n      keccak256\n        /* \"solidity-string-util/contracts/StringUtil.sol\":127:159  return keccak256(abi.encode(_s)) */\n      swap1\n      pop\n        /* \"solidity-string-util/contracts/StringUtil.sol\":51:166  function toHash(string memory _s) internal pure returns (bytes32) {... */\n      swap2\n      swap1\n      pop\n      jump\t// out\n    tag_114:\n      dup3\n      dup1\n      sload\n      tag_228\n      swap1\n      tag_122\n      jump\t// in\n    tag_228:\n      swap1\n      0x00\n      mstore\n      keccak256(0x00, 0x20)\n      swap1\n      0x1f\n      add\n      0x20\n      swap1\n      div\n      dup2\n      add\n      swap3\n      dup3\n      tag_230\n      jumpi\n      0x00\n      dup6\n      sstore\n      jump(tag_229)\n    tag_230:\n      dup3\n      0x1f\n      lt\n      tag_231\n      jumpi\n      dup1\n      mload\n      not(0xff)\n      and\n      dup4\n      dup1\n      add\n      or\n      dup6\n      sstore\n      jump(tag_229)\n    tag_231:\n      dup3\n      dup1\n      add\n      0x01\n      add\n      dup6\n      sstore\n      dup3\n      iszero\n      tag_229\n      jumpi\n      swap2\n      dup3\n      add\n    tag_232:\n      dup3\n      dup2\n      gt\n      iszero\n      tag_233\n      jumpi\n      dup3\n      mload\n      dup3\n      sstore\n      swap2\n      0x20\n      add\n      swap2\n      swap1\n      0x01\n      add\n      swap1\n      jump(tag_232)\n    tag_233:\n    tag_229:\n      pop\n      swap1\n      pop\n      tag_234\n      swap2\n      swap1\n      tag_235\n      jump\t// in\n    tag_234:\n      pop\n      swap1\n      jump\t// out\n    tag_235:\n    tag_236:\n      dup1\n      dup3\n      gt\n      iszero\n      tag_237\n      jumpi\n      0x00\n      dup2\n      0x00\n      swap1\n      sstore\n      pop\n      0x01\n      add\n      jump(tag_236)\n    tag_237:\n      pop\n      swap1\n      jump\t// out\n        /* \"#utility.yul\":7:419   */\n    tag_239:\n        /* \"#utility.yul\":85:90   */\n      0x00\n        /* \"#utility.yul\":110:176   */\n      tag_241\n        /* \"#utility.yul\":126:175   */\n      tag_242\n        /* \"#utility.yul\":168:174   */\n      dup5\n        /* \"#utility.yul\":126:175   */\n      tag_243\n      jump\t// in\n    tag_242:\n        /* \"#utility.yul\":110:176   */\n      tag_244\n      jump\t// in\n    tag_241:\n        /* \"#utility.yul\":101:176   */\n      swap1\n      pop\n        /* \"#utility.yul\":199:205   */\n      dup3\n        /* \"#utility.yul\":192:197   */\n      dup2\n        /* \"#utility.yul\":185:206   */\n      mstore\n        /* \"#utility.yul\":237:241   */\n      0x20\n        /* \"#utility.yul\":230:235   */\n      dup2\n        /* \"#utility.yul\":226:242   */\n      add\n        /* \"#utility.yul\":275:278   */\n      dup5\n        /* \"#utility.yul\":266:272   */\n      dup5\n        /* \"#utility.yul\":261:264   */\n      dup5\n        /* \"#utility.yul\":257:273   */\n      add\n        /* \"#utility.yul\":254:279   */\n      gt\n        /* \"#utility.yul\":251:363   */\n      iszero\n      tag_245\n      jumpi\n        /* \"#utility.yul\":282:361   */\n      tag_246\n      tag_247\n      jump\t// in\n    tag_246:\n        /* \"#utility.yul\":251:363   */\n    tag_245:\n        /* \"#utility.yul\":372:413   */\n      tag_248\n        /* \"#utility.yul\":406:412   */\n      dup5\n        /* \"#utility.yul\":401:404   */\n      dup3\n        /* \"#utility.yul\":396:399   */\n      dup6\n        /* \"#utility.yul\":372:413   */\n      tag_249\n      jump\t// in\n    tag_248:\n        /* \"#utility.yul\":91:419   */\n      pop\n        /* \"#utility.yul\":7:419   */\n      swap4\n      swap3\n      pop\n      pop\n      pop\n      jump\t// out\n        /* \"#utility.yul\":425:564   */\n    tag_250:\n        /* \"#utility.yul\":471:476   */\n      0x00\n        /* \"#utility.yul\":509:515   */\n      dup2\n        /* \"#utility.yul\":496:516   */\n      calldataload\n        /* \"#utility.yul\":487:516   */\n      swap1\n      pop\n        /* \"#utility.yul\":525:558   */\n      tag_252\n        /* \"#utility.yul\":552:557   */\n      dup2\n        /* \"#utility.yul\":525:558   */\n      tag_253\n      jump\t// in\n    tag_252:\n        /* \"#utility.yul\":425:564   */\n      swap3\n      swap2\n      pop\n      pop\n      jump\t// out\n        /* \"#utility.yul\":584:924   */\n    tag_254:\n        /* \"#utility.yul\":640:645   */\n      0x00\n        /* \"#utility.yul\":689:692   */\n      dup3\n        /* \"#utility.yul\":682:686   */\n      0x1f\n        /* \"#utility.yul\":674:680   */\n      dup4\n        /* \"#utility.yul\":670:687   */\n      add\n        /* \"#utility.yul\":666:693   */\n      slt\n        /* \"#utility.yul\":656:778   */\n      tag_256\n      jumpi\n        /* \"#utility.yul\":697:776   */\n      tag_257\n      tag_258\n      jump\t// in\n    tag_257:\n        /* \"#utility.yul\":656:778   */\n    tag_256:\n        /* \"#utility.yul\":814:820   */\n      dup2\n        /* \"#utility.yul\":801:821   */\n      calldataload\n        /* \"#utility.yul\":839:918   */\n      tag_259\n        /* \"#utility.yul\":914:917   */\n      dup5\n        /* \"#utility.yul\":906:912   */\n      dup3\n        /* \"#utility.yul\":899:903   */\n      0x20\n        /* \"#utility.yul\":891:897   */\n      dup7\n        /* \"#utility.yul\":887:904   */\n      add\n        /* \"#utility.yul\":839:918   */\n      tag_239\n      jump\t// in\n    tag_259:\n        /* \"#utility.yul\":830:918   */\n      swap2\n      pop\n        /* \"#utility.yul\":646:924   */\n      pop\n        /* \"#utility.yul\":584:924   */\n      swap3\n      swap2\n      pop\n      pop\n      jump\t// out\n        /* \"#utility.yul\":963:2045   */\n    tag_260:\n        /* \"#utility.yul\":1037:1042   */\n      0x00\n        /* \"#utility.yul\":1081:1085   */\n      0x60\n        /* \"#utility.yul\":1069:1078   */\n      dup3\n        /* \"#utility.yul\":1064:1067   */\n      dup5\n        /* \"#utility.yul\":1060:1079   */\n      sub\n        /* \"#utility.yul\":1056:1086   */\n      slt\n        /* \"#utility.yul\":1053:1170   */\n      iszero\n      tag_262\n      jumpi\n        /* \"#utility.yul\":1089:1168   */\n      tag_263\n      tag_264\n      jump\t// in\n    tag_263:\n        /* \"#utility.yul\":1053:1170   */\n    tag_262:\n        /* \"#utility.yul\":1188:1209   */\n      tag_265\n        /* \"#utility.yul\":1204:1208   */\n      0x60\n        /* \"#utility.yul\":1188:1209   */\n      tag_244\n      jump\t// in\n    tag_265:\n        /* \"#utility.yul\":1179:1209   */\n      swap1\n      pop\n        /* \"#utility.yul\":1296:1297   */\n      0x00\n        /* \"#utility.yul\":1285:1294   */\n      dup3\n        /* \"#utility.yul\":1281:1298   */\n      add\n        /* \"#utility.yul\":1268:1299   */\n      calldataload\n        /* \"#utility.yul\":1326:1344   */\n      0xffffffffffffffff\n        /* \"#utility.yul\":1318:1324   */\n      dup2\n        /* \"#utility.yul\":1315:1345   */\n      gt\n        /* \"#utility.yul\":1312:1429   */\n      iszero\n      tag_266\n      jumpi\n        /* \"#utility.yul\":1348:1427   */\n      tag_267\n      tag_268\n      jump\t// in\n    tag_267:\n        /* \"#utility.yul\":1312:1429   */\n    tag_266:\n        /* \"#utility.yul\":1468:1527   */\n      tag_269\n        /* \"#utility.yul\":1523:1526   */\n      dup5\n        /* \"#utility.yul\":1514:1520   */\n      dup3\n        /* \"#utility.yul\":1503:1512   */\n      dup6\n        /* \"#utility.yul\":1499:1521   */\n      add\n        /* \"#utility.yul\":1468:1527   */\n      tag_254\n      jump\t// in\n    tag_269:\n        /* \"#utility.yul\":1461:1465   */\n      0x00\n        /* \"#utility.yul\":1454:1459   */\n      dup4\n        /* \"#utility.yul\":1450:1466   */\n      add\n        /* \"#utility.yul\":1443:1528   */\n      mstore\n        /* \"#utility.yul\":1219:1539   */\n      pop\n        /* \"#utility.yul\":1627:1629   */\n      0x20\n        /* \"#utility.yul\":1616:1625   */\n      dup3\n        /* \"#utility.yul\":1612:1630   */\n      add\n        /* \"#utility.yul\":1599:1631   */\n      calldataload\n        /* \"#utility.yul\":1658:1676   */\n      0xffffffffffffffff\n        /* \"#utility.yul\":1650:1656   */\n      dup2\n        /* \"#utility.yul\":1647:1677   */\n      gt\n        /* \"#utility.yul\":1644:1761   */\n      iszero\n      tag_270\n      jumpi\n        /* \"#utility.yul\":1680:1759   */\n      tag_271\n      tag_268\n      jump\t// in\n    tag_271:\n        /* \"#utility.yul\":1644:1761   */\n    tag_270:\n        /* \"#utility.yul\":1800:1859   */\n      tag_272\n        /* \"#utility.yul\":1855:1858   */\n      dup5\n        /* \"#utility.yul\":1846:1852   */\n      dup3\n        /* \"#utility.yul\":1835:1844   */\n      dup6\n        /* \"#utility.yul\":1831:1853   */\n      add\n        /* \"#utility.yul\":1800:1859   */\n      tag_254\n      jump\t// in\n    tag_272:\n        /* \"#utility.yul\":1793:1797   */\n      0x20\n        /* \"#utility.yul\":1786:1791   */\n      dup4\n        /* \"#utility.yul\":1782:1798   */\n      add\n        /* \"#utility.yul\":1775:1860   */\n      mstore\n        /* \"#utility.yul\":1549:1871   */\n      pop\n        /* \"#utility.yul\":1936:1938   */\n      0x40\n        /* \"#utility.yul\":1977:2026   */\n      tag_273\n        /* \"#utility.yul\":2022:2025   */\n      dup5\n        /* \"#utility.yul\":2013:2019   */\n      dup3\n        /* \"#utility.yul\":2002:2011   */\n      dup6\n        /* \"#utility.yul\":1998:2020   */\n      add\n        /* \"#utility.yul\":1977:2026   */\n      tag_274\n      jump\t// in\n    tag_273:\n        /* \"#utility.yul\":1970:1974   */\n      0x40\n        /* \"#utility.yul\":1963:1968   */\n      dup4\n        /* \"#utility.yul\":1959:1975   */\n      add\n        /* \"#utility.yul\":1952:2027   */\n      mstore\n        /* \"#utility.yul\":1881:2038   */\n      pop\n        /* \"#utility.yul\":963:2045   */\n      swap3\n      swap2\n      pop\n      pop\n      jump\t// out\n        /* \"#utility.yul\":2051:2190   */\n    tag_274:\n        /* \"#utility.yul\":2097:2102   */\n      0x00\n        /* \"#utility.yul\":2135:2141   */\n      dup2\n        /* \"#utility.yul\":2122:2142   */\n      calldataload\n        /* \"#utility.yul\":2113:2142   */\n      swap1\n      pop\n        /* \"#utility.yul\":2151:2184   */\n      tag_276\n        /* \"#utility.yul\":2178:2183   */\n      dup2\n        /* \"#utility.yul\":2151:2184   */\n      tag_277\n      jump\t// in\n    tag_276:\n        /* \"#utility.yul\":2051:2190   */\n      swap3\n      swap2\n      pop\n      pop\n      jump\t// out\n        /* \"#utility.yul\":2196:2525   */\n    tag_59:\n        /* \"#utility.yul\":2255:2261   */\n      0x00\n        /* \"#utility.yul\":2304:2306   */\n      0x20\n        /* \"#utility.yul\":2292:2301   */\n      dup3\n        /* \"#utility.yul\":2283:2290   */\n      dup5\n        /* \"#utility.yul\":2279:2302   */\n      sub\n        /* \"#utility.yul\":2275:2307   */\n      slt\n        /* \"#utility.yul\":2272:2391   */\n      iszero\n      tag_279\n      jumpi\n        /* \"#utility.yul\":2310:2389   */\n      tag_280\n      tag_281\n      jump\t// in\n    tag_280:\n        /* \"#utility.yul\":2272:2391   */\n    tag_279:\n        /* \"#utility.yul\":2430:2431   */\n      0x00\n        /* \"#utility.yul\":2455:2508   */\n      tag_282\n        /* \"#utility.yul\":2500:2507   */\n      dup5\n        /* \"#utility.yul\":2491:2497   */\n      dup3\n        /* \"#utility.yul\":2480:2489   */\n      dup6\n        /* \"#utility.yul\":2476:2498   */\n      add\n        /* \"#utility.yul\":2455:2508   */\n      tag_250\n      jump\t// in\n    tag_282:\n        /* \"#utility.yul\":2445:2508   */\n      swap2\n      pop\n        /* \"#utility.yul\":2401:2518   */\n      pop\n        /* \"#utility.yul\":2196:2525   */\n      swap3\n      swap2\n      pop\n      pop\n      jump\t// out\n        /* \"#utility.yul\":2531:3040   */\n    tag_92:\n        /* \"#utility.yul\":2600:2606   */\n      0x00\n        /* \"#utility.yul\":2649:2651   */\n      0x20\n        /* \"#utility.yul\":2637:2646   */\n      dup3\n        /* \"#utility.yul\":2628:2635   */\n      dup5\n        /* \"#utility.yul\":2624:2647   */\n      sub\n        /* \"#utility.yul\":2620:2652   */\n      slt\n        /* \"#utility.yul\":2617:2736   */\n      iszero\n      tag_284\n      jumpi\n        /* \"#utility.yul\":2655:2734   */\n      tag_285\n      tag_281\n      jump\t// in\n    tag_285:\n        /* \"#utility.yul\":2617:2736   */\n    tag_284:\n        /* \"#utility.yul\":2803:2804   */\n      0x00\n        /* \"#utility.yul\":2792:2801   */\n      dup3\n        /* \"#utility.yul\":2788:2805   */\n      add\n        /* \"#utility.yul\":2775:2806   */\n      calldataload\n        /* \"#utility.yul\":2833:2851   */\n      0xffffffffffffffff\n        /* \"#utility.yul\":2825:2831   */\n      dup2\n        /* \"#utility.yul\":2822:2852   */\n      gt\n        /* \"#utility.yul\":2819:2936   */\n      iszero\n      tag_286\n      jumpi\n        /* \"#utility.yul\":2855:2934   */\n      tag_287\n      tag_288\n      jump\t// in\n    tag_287:\n        /* \"#utility.yul\":2819:2936   */\n    tag_286:\n        /* \"#utility.yul\":2960:3023   */\n      tag_289\n        /* \"#utility.yul\":3015:3022   */\n      dup5\n        /* \"#utility.yul\":3006:3012   */\n      dup3\n        /* \"#utility.yul\":2995:3004   */\n      dup6\n        /* \"#utility.yul\":2991:3013   */\n      add\n        /* \"#utility.yul\":2960:3023   */\n      tag_254\n      jump\t// in\n    tag_289:\n        /* \"#utility.yul\":2950:3023   */\n      swap2\n      pop\n        /* \"#utility.yul\":2746:3033   */\n      pop\n        /* \"#utility.yul\":2531:3040   */\n      swap3\n      swap2\n      pop\n      pop\n      jump\t// out\n        /* \"#utility.yul\":3046:3880   */\n    tag_33:\n        /* \"#utility.yul\":3134:3140   */\n      0x00\n        /* \"#utility.yul\":3142:3148   */\n      dup1\n        /* \"#utility.yul\":3191:3193   */\n      0x40\n        /* \"#utility.yul\":3179:3188   */\n      dup4\n        /* \"#utility.yul\":3170:3177   */\n      dup6\n        /* \"#utility.yul\":3166:3189   */\n      sub\n        /* \"#utility.yul\":3162:3194   */\n      slt\n        /* \"#utility.yul\":3159:3278   */\n      iszero\n      tag_291\n      jumpi\n        /* \"#utility.yul\":3197:3276   */\n      tag_292\n      tag_281\n      jump\t// in\n    tag_292:\n        /* \"#utility.yul\":3159:3278   */\n    tag_291:\n        /* \"#utility.yul\":3345:3346   */\n      0x00\n        /* \"#utility.yul\":3334:3343   */\n      dup4\n        /* \"#utility.yul\":3330:3347   */\n      add\n        /* \"#utility.yul\":3317:3348   */\n      calldataload\n        /* \"#utility.yul\":3375:3393   */\n      0xffffffffffffffff\n        /* \"#utility.yul\":3367:3373   */\n      dup2\n        /* \"#utility.yul\":3364:3394   */\n      gt\n        /* \"#utility.yul\":3361:3478   */\n      iszero\n      tag_293\n      jumpi\n        /* \"#utility.yul\":3397:3476   */\n      tag_294\n      tag_288\n      jump\t// in\n    tag_294:\n        /* \"#utility.yul\":3361:3478   */\n    tag_293:\n        /* \"#utility.yul\":3502:3565   */\n      tag_295\n        /* \"#utility.yul\":3557:3564   */\n      dup6\n        /* \"#utility.yul\":3548:3554   */\n      dup3\n        /* \"#utility.yul\":3537:3546   */\n      dup7\n        /* \"#utility.yul\":3533:3555   */\n      add\n        /* \"#utility.yul\":3502:3565   */\n      tag_254\n      jump\t// in\n    tag_295:\n        /* \"#utility.yul\":3492:3565   */\n      swap3\n      pop\n        /* \"#utility.yul\":3288:3575   */\n      pop\n        /* \"#utility.yul\":3642:3644   */\n      0x20\n        /* \"#utility.yul\":3631:3640   */\n      dup4\n        /* \"#utility.yul\":3627:3645   */\n      add\n        /* \"#utility.yul\":3614:3646   */\n      calldataload\n        /* \"#utility.yul\":3673:3691   */\n      0xffffffffffffffff\n        /* \"#utility.yul\":3665:3671   */\n      dup2\n        /* \"#utility.yul\":3662:3692   */\n      gt\n        /* \"#utility.yul\":3659:3776   */\n      iszero\n      tag_296\n      jumpi\n        /* \"#utility.yul\":3695:3774   */\n      tag_297\n      tag_288\n      jump\t// in\n    tag_297:\n        /* \"#utility.yul\":3659:3776   */\n    tag_296:\n        /* \"#utility.yul\":3800:3863   */\n      tag_298\n        /* \"#utility.yul\":3855:3862   */\n      dup6\n        /* \"#utility.yul\":3846:3852   */\n      dup3\n        /* \"#utility.yul\":3835:3844   */\n      dup7\n        /* \"#utility.yul\":3831:3853   */\n      add\n        /* \"#utility.yul\":3800:3863   */\n      tag_254\n      jump\t// in\n    tag_298:\n        /* \"#utility.yul\":3790:3863   */\n      swap2\n      pop\n        /* \"#utility.yul\":3585:3873   */\n      pop\n        /* \"#utility.yul\":3046:3880   */\n      swap3\n      pop\n      swap3\n      swap1\n      pop\n      jump\t// out\n        /* \"#utility.yul\":3886:4425   */\n    tag_64:\n        /* \"#utility.yul\":3970:3976   */\n      0x00\n        /* \"#utility.yul\":4019:4021   */\n      0x20\n        /* \"#utility.yul\":4007:4016   */\n      dup3\n        /* \"#utility.yul\":3998:4005   */\n      dup5\n        /* \"#utility.yul\":3994:4017   */\n      sub\n        /* \"#utility.yul\":3990:4022   */\n      slt\n        /* \"#utility.yul\":3987:4106   */\n      iszero\n      tag_300\n      jumpi\n        /* \"#utility.yul\":4025:4104   */\n      tag_301\n      tag_281\n      jump\t// in\n    tag_301:\n        /* \"#utility.yul\":3987:4106   */\n    tag_300:\n        /* \"#utility.yul\":4173:4174   */\n      0x00\n        /* \"#utility.yul\":4162:4171   */\n      dup3\n        /* \"#utility.yul\":4158:4175   */\n      add\n        /* \"#utility.yul\":4145:4176   */\n      calldataload\n        /* \"#utility.yul\":4203:4221   */\n      0xffffffffffffffff\n        /* \"#utility.yul\":4195:4201   */\n      dup2\n        /* \"#utility.yul\":4192:4222   */\n      gt\n        /* \"#utility.yul\":4189:4306   */\n      iszero\n      tag_302\n      jumpi\n        /* \"#utility.yul\":4225:4304   */\n      tag_303\n      tag_288\n      jump\t// in\n    tag_303:\n        /* \"#utility.yul\":4189:4306   */\n    tag_302:\n        /* \"#utility.yul\":4330:4408   */\n      tag_304\n        /* \"#utility.yul\":4400:4407   */\n      dup5\n        /* \"#utility.yul\":4391:4397   */\n      dup3\n        /* \"#utility.yul\":4380:4389   */\n      dup6\n        /* \"#utility.yul\":4376:4398   */\n      add\n        /* \"#utility.yul\":4330:4408   */\n      tag_260\n      jump\t// in\n    tag_304:\n        /* \"#utility.yul\":4320:4408   */\n      swap2\n      pop\n        /* \"#utility.yul\":4116:4418   */\n      pop\n        /* \"#utility.yul\":3886:4425   */\n      swap3\n      swap2\n      pop\n      pop\n      jump\t// out\n        /* \"#utility.yul\":4431:4760   */\n    tag_45:\n        /* \"#utility.yul\":4490:4496   */\n      0x00\n        /* \"#utility.yul\":4539:4541   */\n      0x20\n        /* \"#utility.yul\":4527:4536   */\n      dup3\n        /* \"#utility.yul\":4518:4525   */\n      dup5\n        /* \"#utility.yul\":4514:4537   */\n      sub\n        /* \"#utility.yul\":4510:4542   */\n      slt\n        /* \"#utility.yul\":4507:4626   */\n      iszero\n      tag_306\n      jumpi\n        /* \"#utility.yul\":4545:4624   */\n      tag_307\n      tag_281\n      jump\t// in\n    tag_307:\n        /* \"#utility.yul\":4507:4626   */\n    tag_306:\n        /* \"#utility.yul\":4665:4666   */\n      0x00\n        /* \"#utility.yul\":4690:4743   */\n      tag_308\n        /* \"#utility.yul\":4735:4742   */\n      dup5\n        /* \"#utility.yul\":4726:4732   */\n      dup3\n        /* \"#utility.yul\":4715:4724   */\n      dup6\n        /* \"#utility.yul\":4711:4733   */\n      add\n        /* \"#utility.yul\":4690:4743   */\n      tag_274\n      jump\t// in\n    tag_308:\n        /* \"#utility.yul\":4680:4743   */\n      swap2\n      pop\n        /* \"#utility.yul\":4636:4753   */\n      pop\n        /* \"#utility.yul\":4431:4760   */\n      swap3\n      swap2\n      pop\n      pop\n      jump\t// out\n        /* \"#utility.yul\":4766:5022   */\n    tag_309:\n        /* \"#utility.yul\":4885:4895   */\n      0x00\n        /* \"#utility.yul\":4920:5016   */\n      tag_311\n        /* \"#utility.yul\":5012:5015   */\n      dup4\n        /* \"#utility.yul\":5004:5010   */\n      dup4\n        /* \"#utility.yul\":4920:5016   */\n      tag_312\n      jump\t// in\n    tag_311:\n        /* \"#utility.yul\":4906:5016   */\n      swap1\n      pop\n        /* \"#utility.yul\":4766:5022   */\n      swap3\n      swap2\n      pop\n      pop\n      jump\t// out\n        /* \"#utility.yul\":5028:5146   */\n    tag_313:\n        /* \"#utility.yul\":5115:5139   */\n      tag_315\n        /* \"#utility.yul\":5133:5138   */\n      dup2\n        /* \"#utility.yul\":5115:5139   */\n      tag_316\n      jump\t// in\n    tag_315:\n        /* \"#utility.yul\":5110:5113   */\n      dup3\n        /* \"#utility.yul\":5103:5140   */\n      mstore\n        /* \"#utility.yul\":5028:5146   */\n      pop\n      pop\n      jump\t// out\n        /* \"#utility.yul\":5218:6329   */\n    tag_317:\n        /* \"#utility.yul\":5387:5390   */\n      0x00\n        /* \"#utility.yul\":5416:5495   */\n      tag_319\n        /* \"#utility.yul\":5489:5494   */\n      dup3\n        /* \"#utility.yul\":5416:5495   */\n      tag_320\n      jump\t// in\n    tag_319:\n        /* \"#utility.yul\":5511:5622   */\n      tag_321\n        /* \"#utility.yul\":5615:5621   */\n      dup2\n        /* \"#utility.yul\":5610:5613   */\n      dup6\n        /* \"#utility.yul\":5511:5622   */\n      tag_322\n      jump\t// in\n    tag_321:\n        /* \"#utility.yul\":5504:5622   */\n      swap4\n      pop\n        /* \"#utility.yul\":5648:5651   */\n      dup4\n        /* \"#utility.yul\":5693:5697   */\n      0x20\n        /* \"#utility.yul\":5685:5691   */\n      dup3\n        /* \"#utility.yul\":5681:5698   */\n      mul\n        /* \"#utility.yul\":5676:5679   */\n      dup6\n        /* \"#utility.yul\":5672:5699   */\n      add\n        /* \"#utility.yul\":5723:5804   */\n      tag_323\n        /* \"#utility.yul\":5798:5803   */\n      dup6\n        /* \"#utility.yul\":5723:5804   */\n      tag_324\n      jump\t// in\n    tag_323:\n        /* \"#utility.yul\":5827:5834   */\n      dup1\n        /* \"#utility.yul\":5858:5859   */\n      0x00\n        /* \"#utility.yul\":5843:6284   */\n    tag_325:\n        /* \"#utility.yul\":5868:5874   */\n      dup6\n        /* \"#utility.yul\":5865:5866   */\n      dup2\n        /* \"#utility.yul\":5862:5875   */\n      lt\n        /* \"#utility.yul\":5843:6284   */\n      iszero\n      tag_327\n      jumpi\n        /* \"#utility.yul\":5939:5948   */\n      dup5\n        /* \"#utility.yul\":5933:5937   */\n      dup5\n        /* \"#utility.yul\":5929:5949   */\n      sub\n        /* \"#utility.yul\":5924:5927   */\n      dup10\n        /* \"#utility.yul\":5917:5950   */\n      mstore\n        /* \"#utility.yul\":5990:5996   */\n      dup2\n        /* \"#utility.yul\":5984:5997   */\n      mload\n        /* \"#utility.yul\":6018:6132   */\n      tag_328\n        /* \"#utility.yul\":6127:6131   */\n      dup6\n        /* \"#utility.yul\":6112:6125   */\n      dup3\n        /* \"#utility.yul\":6018:6132   */\n      tag_309\n      jump\t// in\n    tag_328:\n        /* \"#utility.yul\":6010:6132   */\n      swap5\n      pop\n        /* \"#utility.yul\":6155:6240   */\n      tag_329\n        /* \"#utility.yul\":6233:6239   */\n      dup4\n        /* \"#utility.yul\":6155:6240   */\n      tag_330\n      jump\t// in\n    tag_329:\n        /* \"#utility.yul\":6145:6240   */\n      swap3\n      pop\n        /* \"#utility.yul\":6269:6273   */\n      0x20\n        /* \"#utility.yul\":6264:6267   */\n      dup11\n        /* \"#utility.yul\":6260:6274   */\n      add\n        /* \"#utility.yul\":6253:6274   */\n      swap10\n      pop\n        /* \"#utility.yul\":5903:6284   */\n      pop\n        /* \"#utility.yul\":5890:5891   */\n      0x01\n        /* \"#utility.yul\":5887:5888   */\n      dup2\n        /* \"#utility.yul\":5883:5892   */\n      add\n        /* \"#utility.yul\":5878:5892   */\n      swap1\n      pop\n        /* \"#utility.yul\":5843:6284   */\n      jump(tag_325)\n    tag_327:\n        /* \"#utility.yul\":5847:5861   */\n      pop\n        /* \"#utility.yul\":6300:6304   */\n      dup3\n        /* \"#utility.yul\":6293:6304   */\n      swap8\n      pop\n        /* \"#utility.yul\":6320:6323   */\n      dup8\n        /* \"#utility.yul\":6313:6323   */\n      swap6\n      pop\n        /* \"#utility.yul\":5392:6329   */\n      pop\n      pop\n      pop\n      pop\n      pop\n        /* \"#utility.yul\":5218:6329   */\n      swap3\n      swap2\n      pop\n      pop\n      jump\t// out\n        /* \"#utility.yul\":6335:6444   */\n    tag_331:\n        /* \"#utility.yul\":6416:6437   */\n      tag_333\n        /* \"#utility.yul\":6431:6436   */\n      dup2\n        /* \"#utility.yul\":6416:6437   */\n      tag_334\n      jump\t// in\n    tag_333:\n        /* \"#utility.yul\":6411:6414   */\n      dup3\n        /* \"#utility.yul\":6404:6438   */\n      mstore\n        /* \"#utility.yul\":6335:6444   */\n      pop\n      pop\n      jump\t// out\n        /* \"#utility.yul\":6450:6794   */\n    tag_335:\n        /* \"#utility.yul\":6528:6531   */\n      0x00\n        /* \"#utility.yul\":6556:6595   */\n      tag_337\n        /* \"#utility.yul\":6589:6594   */\n      dup3\n        /* \"#utility.yul\":6556:6595   */\n      tag_338\n      jump\t// in\n    tag_337:\n        /* \"#utility.yul\":6611:6672   */\n      tag_339\n        /* \"#utility.yul\":6665:6671   */\n      dup2\n        /* \"#utility.yul\":6660:6663   */\n      dup6\n        /* \"#utility.yul\":6611:6672   */\n      tag_340\n      jump\t// in\n    tag_339:\n        /* \"#utility.yul\":6604:6672   */\n      swap4\n      pop\n        /* \"#utility.yul\":6681:6733   */\n      tag_341\n        /* \"#utility.yul\":6726:6732   */\n      dup2\n        /* \"#utility.yul\":6721:6724   */\n      dup6\n        /* \"#utility.yul\":6714:6718   */\n      0x20\n        /* \"#utility.yul\":6707:6712   */\n      dup7\n        /* \"#utility.yul\":6703:6719   */\n      add\n        /* \"#utility.yul\":6681:6733   */\n      tag_342\n      jump\t// in\n    tag_341:\n        /* \"#utility.yul\":6758:6787   */\n      tag_343\n        /* \"#utility.yul\":6780:6786   */\n      dup2\n        /* \"#utility.yul\":6758:6787   */\n      tag_344\n      jump\t// in\n    tag_343:\n        /* \"#utility.yul\":6753:6756   */\n      dup5\n        /* \"#utility.yul\":6749:6788   */\n      add\n        /* \"#utility.yul\":6742:6788   */\n      swap2\n      pop\n        /* \"#utility.yul\":6532:6794   */\n      pop\n        /* \"#utility.yul\":6450:6794   */\n      swap3\n      swap2\n      pop\n      pop\n      jump\t// out\n        /* \"#utility.yul\":6800:7164   */\n    tag_345:\n        /* \"#utility.yul\":6888:6891   */\n      0x00\n        /* \"#utility.yul\":6916:6955   */\n      tag_347\n        /* \"#utility.yul\":6949:6954   */\n      dup3\n        /* \"#utility.yul\":6916:6955   */\n      tag_338\n      jump\t// in\n    tag_347:\n        /* \"#utility.yul\":6971:7042   */\n      tag_348\n        /* \"#utility.yul\":7035:7041   */\n      dup2\n        /* \"#utility.yul\":7030:7033   */\n      dup6\n        /* \"#utility.yul\":6971:7042   */\n      tag_349\n      jump\t// in\n    tag_348:\n        /* \"#utility.yul\":6964:7042   */\n      swap4\n      pop\n        /* \"#utility.yul\":7051:7103   */\n      tag_350\n        /* \"#utility.yul\":7096:7102   */\n      dup2\n        /* \"#utility.yul\":7091:7094   */\n      dup6\n        /* \"#utility.yul\":7084:7088   */\n      0x20\n        /* \"#utility.yul\":7077:7082   */\n      dup7\n        /* \"#utility.yul\":7073:7089   */\n      add\n        /* \"#utility.yul\":7051:7103   */\n      tag_342\n      jump\t// in\n    tag_350:\n        /* \"#utility.yul\":7128:7157   */\n      tag_351\n        /* \"#utility.yul\":7150:7156   */\n      dup2\n        /* \"#utility.yul\":7128:7157   */\n      tag_344\n      jump\t// in\n    tag_351:\n        /* \"#utility.yul\":7123:7126   */\n      dup5\n        /* \"#utility.yul\":7119:7158   */\n      add\n        /* \"#utility.yul\":7112:7158   */\n      swap2\n      pop\n        /* \"#utility.yul\":6892:7164   */\n      pop\n        /* \"#utility.yul\":6800:7164   */\n      swap3\n      swap2\n      pop\n      pop\n      jump\t// out\n        /* \"#utility.yul\":7170:7536   */\n    tag_352:\n        /* \"#utility.yul\":7312:7315   */\n      0x00\n        /* \"#utility.yul\":7333:7400   */\n      tag_354\n        /* \"#utility.yul\":7397:7399   */\n      0x2f\n        /* \"#utility.yul\":7392:7395   */\n      dup4\n        /* \"#utility.yul\":7333:7400   */\n      tag_349\n      jump\t// in\n    tag_354:\n        /* \"#utility.yul\":7326:7400   */\n      swap2\n      pop\n        /* \"#utility.yul\":7409:7502   */\n      tag_355\n        /* \"#utility.yul\":7498:7501   */\n      dup3\n        /* \"#utility.yul\":7409:7502   */\n      tag_356\n      jump\t// in\n    tag_355:\n        /* \"#utility.yul\":7527:7529   */\n      0x40\n        /* \"#utility.yul\":7522:7525   */\n      dup3\n        /* \"#utility.yul\":7518:7530   */\n      add\n        /* \"#utility.yul\":7511:7530   */\n      swap1\n      pop\n        /* \"#utility.yul\":7170:7536   */\n      swap2\n      swap1\n      pop\n      jump\t// out\n        /* \"#utility.yul\":7542:7908   */\n    tag_357:\n        /* \"#utility.yul\":7684:7687   */\n      0x00\n        /* \"#utility.yul\":7705:7772   */\n      tag_359\n        /* \"#utility.yul\":7769:7771   */\n      0x14\n        /* \"#utility.yul\":7764:7767   */\n      dup4\n        /* \"#utility.yul\":7705:7772   */\n      tag_349\n      jump\t// in\n    tag_359:\n        /* \"#utility.yul\":7698:7772   */\n      swap2\n      pop\n        /* \"#utility.yul\":7781:7874   */\n      tag_360\n        /* \"#utility.yul\":7870:7873   */\n      dup3\n        /* \"#utility.yul\":7781:7874   */\n      tag_361\n      jump\t// in\n    tag_360:\n        /* \"#utility.yul\":7899:7901   */\n      0x20\n        /* \"#utility.yul\":7894:7897   */\n      dup3\n        /* \"#utility.yul\":7890:7902   */\n      add\n        /* \"#utility.yul\":7883:7902   */\n      swap1\n      pop\n        /* \"#utility.yul\":7542:7908   */\n      swap2\n      swap1\n      pop\n      jump\t// out\n        /* \"#utility.yul\":7914:8280   */\n    tag_362:\n        /* \"#utility.yul\":8056:8059   */\n      0x00\n        /* \"#utility.yul\":8077:8144   */\n      tag_364\n        /* \"#utility.yul\":8141:8143   */\n      0x2b\n        /* \"#utility.yul\":8136:8139   */\n      dup4\n        /* \"#utility.yul\":8077:8144   */\n      tag_349\n      jump\t// in\n    tag_364:\n        /* \"#utility.yul\":8070:8144   */\n      swap2\n      pop\n        /* \"#utility.yul\":8153:8246   */\n      tag_365\n        /* \"#utility.yul\":8242:8245   */\n      dup3\n        /* \"#utility.yul\":8153:8246   */\n      tag_366\n      jump\t// in\n    tag_365:\n        /* \"#utility.yul\":8271:8273   */\n      0x40\n        /* \"#utility.yul\":8266:8269   */\n      dup3\n        /* \"#utility.yul\":8262:8274   */\n      add\n        /* \"#utility.yul\":8255:8274   */\n      swap1\n      pop\n        /* \"#utility.yul\":7914:8280   */\n      swap2\n      swap1\n      pop\n      jump\t// out\n        /* \"#utility.yul\":8286:8652   */\n    tag_367:\n        /* \"#utility.yul\":8428:8431   */\n      0x00\n        /* \"#utility.yul\":8449:8516   */\n      tag_369\n        /* \"#utility.yul\":8513:8515   */\n      0x1a\n        /* \"#utility.yul\":8508:8511   */\n      dup4\n        /* \"#utility.yul\":8449:8516   */\n      tag_349\n      jump\t// in\n    tag_369:\n        /* \"#utility.yul\":8442:8516   */\n      swap2\n      pop\n        /* \"#utility.yul\":8525:8618   */\n      tag_370\n        /* \"#utility.yul\":8614:8617   */\n      dup3\n        /* \"#utility.yul\":8525:8618   */\n      tag_371\n      jump\t// in\n    tag_370:\n        /* \"#utility.yul\":8643:8645   */\n      0x20\n        /* \"#utility.yul\":8638:8641   */\n      dup3\n        /* \"#utility.yul\":8634:8646   */\n      add\n        /* \"#utility.yul\":8627:8646   */\n      swap1\n      pop\n        /* \"#utility.yul\":8286:8652   */\n      swap2\n      swap1\n      pop\n      jump\t// out\n        /* \"#utility.yul\":8720:9568   */\n    tag_312:\n        /* \"#utility.yul\":8829:8832   */\n      0x00\n        /* \"#utility.yul\":8865:8869   */\n      0x60\n        /* \"#utility.yul\":8860:8863   */\n      dup4\n        /* \"#utility.yul\":8856:8870   */\n      add\n        /* \"#utility.yul\":8952:8956   */\n      0x00\n        /* \"#utility.yul\":8945:8950   */\n      dup4\n        /* \"#utility.yul\":8941:8957   */\n      add\n        /* \"#utility.yul\":8935:8958   */\n      mload\n        /* \"#utility.yul\":9005:9008   */\n      dup5\n        /* \"#utility.yul\":8999:9003   */\n      dup3\n        /* \"#utility.yul\":8995:9009   */\n      sub\n        /* \"#utility.yul\":8988:8992   */\n      0x00\n        /* \"#utility.yul\":8983:8986   */\n      dup7\n        /* \"#utility.yul\":8979:8993   */\n      add\n        /* \"#utility.yul\":8972:9010   */\n      mstore\n        /* \"#utility.yul\":9031:9104   */\n      tag_373\n        /* \"#utility.yul\":9099:9103   */\n      dup3\n        /* \"#utility.yul\":9085:9097   */\n      dup3\n        /* \"#utility.yul\":9031:9104   */\n      tag_335\n      jump\t// in\n    tag_373:\n        /* \"#utility.yul\":9023:9104   */\n      swap2\n      pop\n        /* \"#utility.yul\":8880:9115   */\n      pop\n        /* \"#utility.yul\":9198:9202   */\n      0x20\n        /* \"#utility.yul\":9191:9196   */\n      dup4\n        /* \"#utility.yul\":9187:9203   */\n      add\n        /* \"#utility.yul\":9181:9204   */\n      mload\n        /* \"#utility.yul\":9251:9254   */\n      dup5\n        /* \"#utility.yul\":9245:9249   */\n      dup3\n        /* \"#utility.yul\":9241:9255   */\n      sub\n        /* \"#utility.yul\":9234:9238   */\n      0x20\n        /* \"#utility.yul\":9229:9232   */\n      dup7\n        /* \"#utility.yul\":9225:9239   */\n      add\n        /* \"#utility.yul\":9218:9256   */\n      mstore\n        /* \"#utility.yul\":9277:9350   */\n      tag_374\n        /* \"#utility.yul\":9345:9349   */\n      dup3\n        /* \"#utility.yul\":9331:9343   */\n      dup3\n        /* \"#utility.yul\":9277:9350   */\n      tag_335\n      jump\t// in\n    tag_374:\n        /* \"#utility.yul\":9269:9350   */\n      swap2\n      pop\n        /* \"#utility.yul\":9125:9361   */\n      pop\n        /* \"#utility.yul\":9449:9453   */\n      0x40\n        /* \"#utility.yul\":9442:9447   */\n      dup4\n        /* \"#utility.yul\":9438:9454   */\n      add\n        /* \"#utility.yul\":9432:9455   */\n      mload\n        /* \"#utility.yul\":9468:9531   */\n      tag_375\n        /* \"#utility.yul\":9525:9529   */\n      0x40\n        /* \"#utility.yul\":9520:9523   */\n      dup7\n        /* \"#utility.yul\":9516:9530   */\n      add\n        /* \"#utility.yul\":9502:9514   */\n      dup3\n        /* \"#utility.yul\":9468:9531   */\n      tag_376\n      jump\t// in\n    tag_375:\n        /* \"#utility.yul\":9371:9541   */\n      pop\n        /* \"#utility.yul\":9558:9562   */\n      dup1\n        /* \"#utility.yul\":9551:9562   */\n      swap2\n      pop\n        /* \"#utility.yul\":8834:9568   */\n      pop\n        /* \"#utility.yul\":8720:9568   */\n      swap3\n      swap2\n      pop\n      pop\n      jump\t// out\n        /* \"#utility.yul\":9574:9682   */\n    tag_376:\n        /* \"#utility.yul\":9651:9675   */\n      tag_378\n        /* \"#utility.yul\":9669:9674   */\n      dup2\n        /* \"#utility.yul\":9651:9675   */\n      tag_379\n      jump\t// in\n    tag_378:\n        /* \"#utility.yul\":9646:9649   */\n      dup3\n        /* \"#utility.yul\":9639:9676   */\n      mstore\n        /* \"#utility.yul\":9574:9682   */\n      pop\n      pop\n      jump\t// out\n        /* \"#utility.yul\":9688:9806   */\n    tag_380:\n        /* \"#utility.yul\":9775:9799   */\n      tag_382\n        /* \"#utility.yul\":9793:9798   */\n      dup2\n        /* \"#utility.yul\":9775:9799   */\n      tag_379\n      jump\t// in\n    tag_382:\n        /* \"#utility.yul\":9770:9773   */\n      dup3\n        /* \"#utility.yul\":9763:9800   */\n      mstore\n        /* \"#utility.yul\":9688:9806   */\n      pop\n      pop\n      jump\t// out\n        /* \"#utility.yul\":9812:10034   */\n    tag_42:\n        /* \"#utility.yul\":9905:9909   */\n      0x00\n        /* \"#utility.yul\":9943:9945   */\n      0x20\n        /* \"#utility.yul\":9932:9941   */\n      dup3\n        /* \"#utility.yul\":9928:9946   */\n      add\n        /* \"#utility.yul\":9920:9946   */\n      swap1\n      pop\n        /* \"#utility.yul\":9956:10027   */\n      tag_384\n        /* \"#utility.yul\":10024:10025   */\n      0x00\n        /* \"#utility.yul\":10013:10022   */\n      dup4\n        /* \"#utility.yul\":10009:10026   */\n      add\n        /* \"#utility.yul\":10000:10006   */\n      dup5\n        /* \"#utility.yul\":9956:10027   */\n      tag_313\n      jump\t// in\n    tag_384:\n        /* \"#utility.yul\":9812:10034   */\n      swap3\n      swap2\n      pop\n      pop\n      jump\t// out\n        /* \"#utility.yul\":10040:10513   */\n    tag_56:\n        /* \"#utility.yul\":10233:10237   */\n      0x00\n        /* \"#utility.yul\":10271:10273   */\n      0x20\n        /* \"#utility.yul\":10260:10269   */\n      dup3\n        /* \"#utility.yul\":10256:10274   */\n      add\n        /* \"#utility.yul\":10248:10274   */\n      swap1\n      pop\n        /* \"#utility.yul\":10320:10329   */\n      dup2\n        /* \"#utility.yul\":10314:10318   */\n      dup2\n        /* \"#utility.yul\":10310:10330   */\n      sub\n        /* \"#utility.yul\":10306:10307   */\n      0x00\n        /* \"#utility.yul\":10295:10304   */\n      dup4\n        /* \"#utility.yul\":10291:10308   */\n      add\n        /* \"#utility.yul\":10284:10331   */\n      mstore\n        /* \"#utility.yul\":10348:10506   */\n      tag_386\n        /* \"#utility.yul\":10501:10505   */\n      dup2\n        /* \"#utility.yul\":10492:10498   */\n      dup5\n        /* \"#utility.yul\":10348:10506   */\n      tag_317\n      jump\t// in\n    tag_386:\n        /* \"#utility.yul\":10340:10506   */\n      swap1\n      pop\n        /* \"#utility.yul\":10040:10513   */\n      swap3\n      swap2\n      pop\n      pop\n      jump\t// out\n        /* \"#utility.yul\":10519:10729   */\n    tag_52:\n        /* \"#utility.yul\":10606:10610   */\n      0x00\n        /* \"#utility.yul\":10644:10646   */\n      0x20\n        /* \"#utility.yul\":10633:10642   */\n      dup3\n        /* \"#utility.yul\":10629:10647   */\n      add\n        /* \"#utility.yul\":10621:10647   */\n      swap1\n      pop\n        /* \"#utility.yul\":10657:10722   */\n      tag_388\n        /* \"#utility.yul\":10719:10720   */\n      0x00\n        /* \"#utility.yul\":10708:10717   */\n      dup4\n        /* \"#utility.yul\":10704:10721   */\n      add\n        /* \"#utility.yul\":10695:10701   */\n      dup5\n        /* \"#utility.yul\":10657:10722   */\n      tag_331\n      jump\t// in\n    tag_388:\n        /* \"#utility.yul\":10519:10729   */\n      swap3\n      swap2\n      pop\n      pop\n      jump\t// out\n        /* \"#utility.yul\":10735:11043   */\n    tag_73:\n        /* \"#utility.yul\":10844:10848   */\n      0x00\n        /* \"#utility.yul\":10882:10884   */\n      0x40\n        /* \"#utility.yul\":10871:10880   */\n      dup3\n        /* \"#utility.yul\":10867:10885   */\n      add\n        /* \"#utility.yul\":10859:10885   */\n      swap1\n      pop\n        /* \"#utility.yul\":10895:10960   */\n      tag_390\n        /* \"#utility.yul\":10957:10958   */\n      0x00\n        /* \"#utility.yul\":10946:10955   */\n      dup4\n        /* \"#utility.yul\":10942:10959   */\n      add\n        /* \"#utility.yul\":10933:10939   */\n      dup6\n        /* \"#utility.yul\":10895:10960   */\n      tag_331\n      jump\t// in\n    tag_390:\n        /* \"#utility.yul\":10970:11036   */\n      tag_391\n        /* \"#utility.yul\":11032:11034   */\n      0x20\n        /* \"#utility.yul\":11021:11030   */\n      dup4\n        /* \"#utility.yul\":11017:11035   */\n      add\n        /* \"#utility.yul\":11008:11014   */\n      dup5\n        /* \"#utility.yul\":10970:11036   */\n      tag_331\n      jump\t// in\n    tag_391:\n        /* \"#utility.yul\":10735:11043   */\n      swap4\n      swap3\n      pop\n      pop\n      pop\n      jump\t// out\n        /* \"#utility.yul\":11049:11362   */\n    tag_38:\n        /* \"#utility.yul\":11162:11166   */\n      0x00\n        /* \"#utility.yul\":11200:11202   */\n      0x20\n        /* \"#utility.yul\":11189:11198   */\n      dup3\n        /* \"#utility.yul\":11185:11203   */\n      add\n        /* \"#utility.yul\":11177:11203   */\n      swap1\n      pop\n        /* \"#utility.yul\":11249:11258   */\n      dup2\n        /* \"#utility.yul\":11243:11247   */\n      dup2\n        /* \"#utility.yul\":11239:11259   */\n      sub\n        /* \"#utility.yul\":11235:11236   */\n      0x00\n        /* \"#utility.yul\":11224:11233   */\n      dup4\n        /* \"#utility.yul\":11220:11237   */\n      add\n        /* \"#utility.yul\":11213:11260   */\n      mstore\n        /* \"#utility.yul\":11277:11355   */\n      tag_393\n        /* \"#utility.yul\":11350:11354   */\n      dup2\n        /* \"#utility.yul\":11341:11347   */\n      dup5\n        /* \"#utility.yul\":11277:11355   */\n      tag_345\n      jump\t// in\n    tag_393:\n        /* \"#utility.yul\":11269:11355   */\n      swap1\n      pop\n        /* \"#utility.yul\":11049:11362   */\n      swap3\n      swap2\n      pop\n      pop\n      jump\t// out\n        /* \"#utility.yul\":11368:11992   */\n    tag_48:\n        /* \"#utility.yul\":11557:11561   */\n      0x00\n        /* \"#utility.yul\":11595:11597   */\n      0x60\n        /* \"#utility.yul\":11584:11593   */\n      dup3\n        /* \"#utility.yul\":11580:11598   */\n      add\n        /* \"#utility.yul\":11572:11598   */\n      swap1\n      pop\n        /* \"#utility.yul\":11644:11653   */\n      dup2\n        /* \"#utility.yul\":11638:11642   */\n      dup2\n        /* \"#utility.yul\":11634:11654   */\n      sub\n        /* \"#utility.yul\":11630:11631   */\n      0x00\n        /* \"#utility.yul\":11619:11628   */\n      dup4\n        /* \"#utility.yul\":11615:11632   */\n      add\n        /* \"#utility.yul\":11608:11655   */\n      mstore\n        /* \"#utility.yul\":11672:11750   */\n      tag_395\n        /* \"#utility.yul\":11745:11749   */\n      dup2\n        /* \"#utility.yul\":11736:11742   */\n      dup7\n        /* \"#utility.yul\":11672:11750   */\n      tag_345\n      jump\t// in\n    tag_395:\n        /* \"#utility.yul\":11664:11750   */\n      swap1\n      pop\n        /* \"#utility.yul\":11797:11806   */\n      dup2\n        /* \"#utility.yul\":11791:11795   */\n      dup2\n        /* \"#utility.yul\":11787:11807   */\n      sub\n        /* \"#utility.yul\":11782:11784   */\n      0x20\n        /* \"#utility.yul\":11771:11780   */\n      dup4\n        /* \"#utility.yul\":11767:11785   */\n      add\n        /* \"#utility.yul\":11760:11808   */\n      mstore\n        /* \"#utility.yul\":11825:11903   */\n      tag_396\n        /* \"#utility.yul\":11898:11902   */\n      dup2\n        /* \"#utility.yul\":11889:11895   */\n      dup6\n        /* \"#utility.yul\":11825:11903   */\n      tag_345\n      jump\t// in\n    tag_396:\n        /* \"#utility.yul\":11817:11903   */\n      swap1\n      pop\n        /* \"#utility.yul\":11913:11985   */\n      tag_397\n        /* \"#utility.yul\":11981:11983   */\n      0x40\n        /* \"#utility.yul\":11970:11979   */\n      dup4\n        /* \"#utility.yul\":11966:11984   */\n      add\n        /* \"#utility.yul\":11957:11963   */\n      dup5\n        /* \"#utility.yul\":11913:11985   */\n      tag_380\n      jump\t// in\n    tag_397:\n        /* \"#utility.yul\":11368:11992   */\n      swap5\n      swap4\n      pop\n      pop\n      pop\n      pop\n      jump\t// out\n        /* \"#utility.yul\":11998:12417   */\n    tag_168:\n        /* \"#utility.yul\":12164:12168   */\n      0x00\n        /* \"#utility.yul\":12202:12204   */\n      0x20\n        /* \"#utility.yul\":12191:12200   */\n      dup3\n        /* \"#utility.yul\":12187:12205   */\n      add\n        /* \"#utility.yul\":12179:12205   */\n      swap1\n      pop\n        /* \"#utility.yul\":12251:12260   */\n      dup2\n        /* \"#utility.yul\":12245:12249   */\n      dup2\n        /* \"#utility.yul\":12241:12261   */\n      sub\n        /* \"#utility.yul\":12237:12238   */\n      0x00\n        /* \"#utility.yul\":12226:12235   */\n      dup4\n        /* \"#utility.yul\":12222:12239   */\n      add\n        /* \"#utility.yul\":12215:12262   */\n      mstore\n        /* \"#utility.yul\":12279:12410   */\n      tag_399\n        /* \"#utility.yul\":12405:12409   */\n      dup2\n        /* \"#utility.yul\":12279:12410   */\n      tag_352\n      jump\t// in\n    tag_399:\n        /* \"#utility.yul\":12271:12410   */\n      swap1\n      pop\n        /* \"#utility.yul\":11998:12417   */\n      swap2\n      swap1\n      pop\n      jump\t// out\n        /* \"#utility.yul\":12423:12842   */\n    tag_173:\n        /* \"#utility.yul\":12589:12593   */\n      0x00\n        /* \"#utility.yul\":12627:12629   */\n      0x20\n        /* \"#utility.yul\":12616:12625   */\n      dup3\n        /* \"#utility.yul\":12612:12630   */\n      add\n        /* \"#utility.yul\":12604:12630   */\n      swap1\n      pop\n        /* \"#utility.yul\":12676:12685   */\n      dup2\n        /* \"#utility.yul\":12670:12674   */\n      dup2\n        /* \"#utility.yul\":12666:12686   */\n      sub\n        /* \"#utility.yul\":12662:12663   */\n      0x00\n        /* \"#utility.yul\":12651:12660   */\n      dup4\n        /* \"#utility.yul\":12647:12664   */\n      add\n        /* \"#utility.yul\":12640:12687   */\n      mstore\n        /* \"#utility.yul\":12704:12835   */\n      tag_401\n        /* \"#utility.yul\":12830:12834   */\n      dup2\n        /* \"#utility.yul\":12704:12835   */\n      tag_357\n      jump\t// in\n    tag_401:\n        /* \"#utility.yul\":12696:12835   */\n      swap1\n      pop\n        /* \"#utility.yul\":12423:12842   */\n      swap2\n      swap1\n      pop\n      jump\t// out\n        /* \"#utility.yul\":12848:13267   */\n    tag_110:\n        /* \"#utility.yul\":13014:13018   */\n      0x00\n        /* \"#utility.yul\":13052:13054   */\n      0x20\n        /* \"#utility.yul\":13041:13050   */\n      dup3\n        /* \"#utility.yul\":13037:13055   */\n      add\n        /* \"#utility.yul\":13029:13055   */\n      swap1\n      pop\n        /* \"#utility.yul\":13101:13110   */\n      dup2\n        /* \"#utility.yul\":13095:13099   */\n      dup2\n        /* \"#utility.yul\":13091:13111   */\n      sub\n        /* \"#utility.yul\":13087:13088   */\n      0x00\n        /* \"#utility.yul\":13076:13085   */\n      dup4\n        /* \"#utility.yul\":13072:13089   */\n      add\n        /* \"#utility.yul\":13065:13112   */\n      mstore\n        /* \"#utility.yul\":13129:13260   */\n      tag_403\n        /* \"#utility.yul\":13255:13259   */\n      dup2\n        /* \"#utility.yul\":13129:13260   */\n      tag_362\n      jump\t// in\n    tag_403:\n        /* \"#utility.yul\":13121:13260   */\n      swap1\n      pop\n        /* \"#utility.yul\":12848:13267   */\n      swap2\n      swap1\n      pop\n      jump\t// out\n        /* \"#utility.yul\":13273:13692   */\n    tag_200:\n        /* \"#utility.yul\":13439:13443   */\n      0x00\n        /* \"#utility.yul\":13477:13479   */\n      0x20\n        /* \"#utility.yul\":13466:13475   */\n      dup3\n        /* \"#utility.yul\":13462:13480   */\n      add\n        /* \"#utility.yul\":13454:13480   */\n      swap1\n      pop\n        /* \"#utility.yul\":13526:13535   */\n      dup2\n        /* \"#utility.yul\":13520:13524   */\n      dup2\n        /* \"#utility.yul\":13516:13536   */\n      sub\n        /* \"#utility.yul\":13512:13513   */\n      0x00\n        /* \"#utility.yul\":13501:13510   */\n      dup4\n        /* \"#utility.yul\":13497:13514   */\n      add\n        /* \"#utility.yul\":13490:13537   */\n      mstore\n        /* \"#utility.yul\":13554:13685   */\n      tag_405\n        /* \"#utility.yul\":13680:13684   */\n      dup2\n        /* \"#utility.yul\":13554:13685   */\n      tag_367\n      jump\t// in\n    tag_405:\n        /* \"#utility.yul\":13546:13685   */\n      swap1\n      pop\n        /* \"#utility.yul\":13273:13692   */\n      swap2\n      swap1\n      pop\n      jump\t// out\n        /* \"#utility.yul\":13698:13920   */\n    tag_27:\n        /* \"#utility.yul\":13791:13795   */\n      0x00\n        /* \"#utility.yul\":13829:13831   */\n      0x20\n        /* \"#utility.yul\":13818:13827   */\n      dup3\n        /* \"#utility.yul\":13814:13832   */\n      add\n        /* \"#utility.yul\":13806:13832   */\n      swap1\n      pop\n        /* \"#utility.yul\":13842:13913   */\n      tag_407\n        /* \"#utility.yul\":13910:13911   */\n      0x00\n        /* \"#utility.yul\":13899:13908   */\n      dup4\n        /* \"#utility.yul\":13895:13912   */\n      add\n        /* \"#utility.yul\":13886:13892   */\n      dup5\n        /* \"#utility.yul\":13842:13913   */\n      tag_380\n      jump\t// in\n    tag_407:\n        /* \"#utility.yul\":13698:13920   */\n      swap3\n      swap2\n      pop\n      pop\n      jump\t// out\n        /* \"#utility.yul\":13926:14055   */\n    tag_244:\n        /* \"#utility.yul\":13960:13966   */\n      0x00\n        /* \"#utility.yul\":13987:14007   */\n      tag_409\n      tag_410\n      jump\t// in\n    tag_409:\n        /* \"#utility.yul\":13977:14007   */\n      swap1\n      pop\n        /* \"#utility.yul\":14016:14049   */\n      tag_411\n        /* \"#utility.yul\":14044:14048   */\n      dup3\n        /* \"#utility.yul\":14036:14042   */\n      dup3\n        /* \"#utility.yul\":14016:14049   */\n      tag_412\n      jump\t// in\n    tag_411:\n        /* \"#utility.yul\":13926:14055   */\n      swap2\n      swap1\n      pop\n      jump\t// out\n        /* \"#utility.yul\":14061:14136   */\n    tag_410:\n        /* \"#utility.yul\":14094:14100   */\n      0x00\n        /* \"#utility.yul\":14127:14129   */\n      0x40\n        /* \"#utility.yul\":14121:14130   */\n      mload\n        /* \"#utility.yul\":14111:14130   */\n      swap1\n      pop\n        /* \"#utility.yul\":14061:14136   */\n      swap1\n      jump\t// out\n        /* \"#utility.yul\":14142:14450   */\n    tag_243:\n        /* \"#utility.yul\":14204:14208   */\n      0x00\n        /* \"#utility.yul\":14294:14312   */\n      0xffffffffffffffff\n        /* \"#utility.yul\":14286:14292   */\n      dup3\n        /* \"#utility.yul\":14283:14313   */\n      gt\n        /* \"#utility.yul\":14280:14336   */\n      iszero\n      tag_415\n      jumpi\n        /* \"#utility.yul\":14316:14334   */\n      tag_416\n      tag_417\n      jump\t// in\n    tag_416:\n        /* \"#utility.yul\":14280:14336   */\n    tag_415:\n        /* \"#utility.yul\":14354:14383   */\n      tag_418\n        /* \"#utility.yul\":14376:14382   */\n      dup3\n        /* \"#utility.yul\":14354:14383   */\n      tag_344\n      jump\t// in\n    tag_418:\n        /* \"#utility.yul\":14346:14383   */\n      swap1\n      pop\n        /* \"#utility.yul\":14438:14442   */\n      0x20\n        /* \"#utility.yul\":14432:14436   */\n      dup2\n        /* \"#utility.yul\":14428:14443   */\n      add\n        /* \"#utility.yul\":14420:14443   */\n      swap1\n      pop\n        /* \"#utility.yul\":14142:14450   */\n      swap2\n      swap1\n      pop\n      jump\t// out\n        /* \"#utility.yul\":14456:14613   */\n    tag_324:\n        /* \"#utility.yul\":14548:14552   */\n      0x00\n        /* \"#utility.yul\":14571:14574   */\n      dup2\n        /* \"#utility.yul\":14563:14574   */\n      swap1\n      pop\n        /* \"#utility.yul\":14601:14605   */\n      0x20\n        /* \"#utility.yul\":14596:14599   */\n      dup3\n        /* \"#utility.yul\":14592:14606   */\n      add\n        /* \"#utility.yul\":14584:14606   */\n      swap1\n      pop\n        /* \"#utility.yul\":14456:14613   */\n      swap2\n      swap1\n      pop\n      jump\t// out\n        /* \"#utility.yul\":14619:14758   */\n    tag_320:\n        /* \"#utility.yul\":14711:14717   */\n      0x00\n        /* \"#utility.yul\":14745:14750   */\n      dup2\n        /* \"#utility.yul\":14739:14751   */\n      mload\n        /* \"#utility.yul\":14729:14751   */\n      swap1\n      pop\n        /* \"#utility.yul\":14619:14758   */\n      swap2\n      swap1\n      pop\n      jump\t// out\n        /* \"#utility.yul\":14764:14863   */\n    tag_338:\n        /* \"#utility.yul\":14816:14822   */\n      0x00\n        /* \"#utility.yul\":14850:14855   */\n      dup2\n        /* \"#utility.yul\":14844:14856   */\n      mload\n        /* \"#utility.yul\":14834:14856   */\n      swap1\n      pop\n        /* \"#utility.yul\":14764:14863   */\n      swap2\n      swap1\n      pop\n      jump\t// out\n        /* \"#utility.yul\":14869:15007   */\n    tag_330:\n        /* \"#utility.yul\":14964:14968   */\n      0x00\n        /* \"#utility.yul\":14996:15000   */\n      0x20\n        /* \"#utility.yul\":14991:14994   */\n      dup3\n        /* \"#utility.yul\":14987:15001   */\n      add\n        /* \"#utility.yul\":14979:15001   */\n      swap1\n      pop\n        /* \"#utility.yul\":14869:15007   */\n      swap2\n      swap1\n      pop\n      jump\t// out\n        /* \"#utility.yul\":15013:15222   */\n    tag_322:\n        /* \"#utility.yul\":15137:15148   */\n      0x00\n        /* \"#utility.yul\":15171:15177   */\n      dup3\n        /* \"#utility.yul\":15166:15169   */\n      dup3\n        /* \"#utility.yul\":15159:15178   */\n      mstore\n        /* \"#utility.yul\":15211:15215   */\n      0x20\n        /* \"#utility.yul\":15206:15209   */\n      dup3\n        /* \"#utility.yul\":15202:15216   */\n      add\n        /* \"#utility.yul\":15187:15216   */\n      swap1\n      pop\n        /* \"#utility.yul\":15013:15222   */\n      swap3\n      swap2\n      pop\n      pop\n      jump\t// out\n        /* \"#utility.yul\":15228:15387   */\n    tag_340:\n        /* \"#utility.yul\":15302:15313   */\n      0x00\n        /* \"#utility.yul\":15336:15342   */\n      dup3\n        /* \"#utility.yul\":15331:15334   */\n      dup3\n        /* \"#utility.yul\":15324:15343   */\n      mstore\n        /* \"#utility.yul\":15376:15380   */\n      0x20\n        /* \"#utility.yul\":15371:15374   */\n      dup3\n        /* \"#utility.yul\":15367:15381   */\n      add\n        /* \"#utility.yul\":15352:15381   */\n      swap1\n      pop\n        /* \"#utility.yul\":15228:15387   */\n      swap3\n      swap2\n      pop\n      pop\n      jump\t// out\n        /* \"#utility.yul\":15393:15562   */\n    tag_349:\n        /* \"#utility.yul\":15477:15488   */\n      0x00\n        /* \"#utility.yul\":15511:15517   */\n      dup3\n        /* \"#utility.yul\":15506:15509   */\n      dup3\n        /* \"#utility.yul\":15499:15518   */\n      mstore\n        /* \"#utility.yul\":15551:15555   */\n      0x20\n        /* \"#utility.yul\":15546:15549   */\n      dup3\n        /* \"#utility.yul\":15542:15556   */\n      add\n        /* \"#utility.yul\":15527:15556   */\n      swap1\n      pop\n        /* \"#utility.yul\":15393:15562   */\n      swap3\n      swap2\n      pop\n      pop\n      jump\t// out\n        /* \"#utility.yul\":15568:15873   */\n    tag_103:\n        /* \"#utility.yul\":15608:15611   */\n      0x00\n        /* \"#utility.yul\":15627:15647   */\n      tag_427\n        /* \"#utility.yul\":15645:15646   */\n      dup3\n        /* \"#utility.yul\":15627:15647   */\n      tag_379\n      jump\t// in\n    tag_427:\n        /* \"#utility.yul\":15622:15647   */\n      swap2\n      pop\n        /* \"#utility.yul\":15661:15681   */\n      tag_428\n        /* \"#utility.yul\":15679:15680   */\n      dup4\n        /* \"#utility.yul\":15661:15681   */\n      tag_379\n      jump\t// in\n    tag_428:\n        /* \"#utility.yul\":15656:15681   */\n      swap3\n      pop\n        /* \"#utility.yul\":15815:15816   */\n      dup3\n        /* \"#utility.yul\":15747:15813   */\n      0xffffffffffffffffffffffffffffffffffffffffffffffffffffffffffffffff\n        /* \"#utility.yul\":15743:15817   */\n      sub\n        /* \"#utility.yul\":15740:15741   */\n      dup3\n        /* \"#utility.yul\":15737:15818   */\n      gt\n        /* \"#utility.yul\":15734:15841   */\n      iszero\n      tag_429\n      jumpi\n        /* \"#utility.yul\":15821:15839   */\n      tag_430\n      tag_431\n      jump\t// in\n    tag_430:\n        /* \"#utility.yul\":15734:15841   */\n    tag_429:\n        /* \"#utility.yul\":15865:15866   */\n      dup3\n        /* \"#utility.yul\":15862:15863   */\n      dup3\n        /* \"#utility.yul\":15858:15867   */\n      add\n        /* \"#utility.yul\":15851:15867   */\n      swap1\n      pop\n        /* \"#utility.yul\":15568:15873   */\n      swap3\n      swap2\n      pop\n      pop\n      jump\t// out\n        /* \"#utility.yul\":15879:15975   */\n    tag_316:\n        /* \"#utility.yul\":15916:15923   */\n      0x00\n        /* \"#utility.yul\":15945:15969   */\n      tag_433\n        /* \"#utility.yul\":15963:15968   */\n      dup3\n        /* \"#utility.yul\":15945:15969   */\n      tag_434\n      jump\t// in\n    tag_433:\n        /* \"#utility.yul\":15934:15969   */\n      swap1\n      pop\n        /* \"#utility.yul\":15879:15975   */\n      swap2\n      swap1\n      pop\n      jump\t// out\n        /* \"#utility.yul\":15981:16071   */\n    tag_334:\n        /* \"#utility.yul\":16015:16022   */\n      0x00\n        /* \"#utility.yul\":16058:16063   */\n      dup2\n        /* \"#utility.yul\":16051:16064   */\n      iszero\n        /* \"#utility.yul\":16044:16065   */\n      iszero\n        /* \"#utility.yul\":16033:16065   */\n      swap1\n      pop\n        /* \"#utility.yul\":15981:16071   */\n      swap2\n      swap1\n      pop\n      jump\t// out\n        /* \"#utility.yul\":16077:16203   */\n    tag_434:\n        /* \"#utility.yul\":16114:16121   */\n      0x00\n        /* \"#utility.yul\":16154:16196   */\n      0xffffffffffffffffffffffffffffffffffffffff\n        /* \"#utility.yul\":16147:16152   */\n      dup3\n        /* \"#utility.yul\":16143:16197   */\n      and\n        /* \"#utility.yul\":16132:16197   */\n      swap1\n      pop\n        /* \"#utility.yul\":16077:16203   */\n      swap2\n      swap1\n      pop\n      jump\t// out\n        /* \"#utility.yul\":16209:16286   */\n    tag_379:\n        /* \"#utility.yul\":16246:16253   */\n      0x00\n        /* \"#utility.yul\":16275:16280   */\n      dup2\n        /* \"#utility.yul\":16264:16280   */\n      swap1\n      pop\n        /* \"#utility.yul\":16209:16286   */\n      swap2\n      swap1\n      pop\n      jump\t// out\n        /* \"#utility.yul\":16292:16446   */\n    tag_249:\n        /* \"#utility.yul\":16376:16382   */\n      dup3\n        /* \"#utility.yul\":16371:16374   */\n      dup2\n        /* \"#utility.yul\":16366:16369   */\n      dup4\n        /* \"#utility.yul\":16353:16383   */\n      calldatacopy\n        /* \"#utility.yul\":16438:16439   */\n      0x00\n        /* \"#utility.yul\":16429:16435   */\n      dup4\n        /* \"#utility.yul\":16424:16427   */\n      dup4\n        /* \"#utility.yul\":16420:16436   */\n      add\n        /* \"#utility.yul\":16413:16440   */\n      mstore\n        /* \"#utility.yul\":16292:16446   */\n      pop\n      pop\n      pop\n      jump\t// out\n        /* \"#utility.yul\":16452:16759   */\n    tag_342:\n        /* \"#utility.yul\":16520:16521   */\n      0x00\n        /* \"#utility.yul\":16530:16643   */\n    tag_440:\n        /* \"#utility.yul\":16544:16550   */\n      dup4\n        /* \"#utility.yul\":16541:16542   */\n      dup2\n        /* \"#utility.yul\":16538:16551   */\n      lt\n        /* \"#utility.yul\":16530:16643   */\n      iszero\n      tag_442\n      jumpi\n        /* \"#utility.yul\":16629:16630   */\n      dup1\n        /* \"#utility.yul\":16624:16627   */\n      dup3\n        /* \"#utility.yul\":16620:16631   */\n      add\n        /* \"#utility.yul\":16614:16632   */\n      mload\n        /* \"#utility.yul\":16610:16611   */\n      dup2\n        /* \"#utility.yul\":16605:16608   */\n      dup5\n        /* \"#utility.yul\":16601:16612   */\n      add\n        /* \"#utility.yul\":16594:16633   */\n      mstore\n        /* \"#utility.yul\":16566:16568   */\n      0x20\n        /* \"#utility.yul\":16563:16564   */\n      dup2\n        /* \"#utility.yul\":16559:16569   */\n      add\n        /* \"#utility.yul\":16554:16569   */\n      swap1\n      pop\n        /* \"#utility.yul\":16530:16643   */\n      jump(tag_440)\n    tag_442:\n        /* \"#utility.yul\":16661:16667   */\n      dup4\n        /* \"#utility.yul\":16658:16659   */\n      dup2\n        /* \"#utility.yul\":16655:16668   */\n      gt\n        /* \"#utility.yul\":16652:16753   */\n      iszero\n      tag_443\n      jumpi\n        /* \"#utility.yul\":16741:16742   */\n      0x00\n        /* \"#utility.yul\":16732:16738   */\n      dup5\n        /* \"#utility.yul\":16727:16730   */\n      dup5\n        /* \"#utility.yul\":16723:16739   */\n      add\n        /* \"#utility.yul\":16716:16743   */\n      mstore\n        /* \"#utility.yul\":16652:16753   */\n    tag_443:\n        /* \"#utility.yul\":16501:16759   */\n      pop\n        /* \"#utility.yul\":16452:16759   */\n      pop\n      pop\n      pop\n      jump\t// out\n        /* \"#utility.yul\":16765:17085   */\n    tag_122:\n        /* \"#utility.yul\":16809:16815   */\n      0x00\n        /* \"#utility.yul\":16846:16847   */\n      0x02\n        /* \"#utility.yul\":16840:16844   */\n      dup3\n        /* \"#utility.yul\":16836:16848   */\n      div\n        /* \"#utility.yul\":16826:16848   */\n      swap1\n      pop\n        /* \"#utility.yul\":16893:16894   */\n      0x01\n        /* \"#utility.yul\":16887:16891   */\n      dup3\n        /* \"#utility.yul\":16883:16895   */\n      and\n        /* \"#utility.yul\":16914:16932   */\n      dup1\n        /* \"#utility.yul\":16904:16985   */\n      tag_445\n      jumpi\n        /* \"#utility.yul\":16970:16974   */\n      0x7f\n        /* \"#utility.yul\":16962:16968   */\n      dup3\n        /* \"#utility.yul\":16958:16975   */\n      and\n        /* \"#utility.yul\":16948:16975   */\n      swap2\n      pop\n        /* \"#utility.yul\":16904:16985   */\n    tag_445:\n        /* \"#utility.yul\":17032:17034   */\n      0x20\n        /* \"#utility.yul\":17024:17030   */\n      dup3\n        /* \"#utility.yul\":17021:17035   */\n      lt\n        /* \"#utility.yul\":17001:17019   */\n      dup2\n        /* \"#utility.yul\":16998:17036   */\n      eq\n        /* \"#utility.yul\":16995:17079   */\n      iszero\n      tag_446\n      jumpi\n        /* \"#utility.yul\":17051:17069   */\n      tag_447\n      tag_448\n      jump\t// in\n    tag_447:\n        /* \"#utility.yul\":16995:17079   */\n    tag_446:\n        /* \"#utility.yul\":16816:17085   */\n      pop\n        /* \"#utility.yul\":16765:17085   */\n      swap2\n      swap1\n      pop\n      jump\t// out\n        /* \"#utility.yul\":17091:17372   */\n    tag_412:\n        /* \"#utility.yul\":17174:17201   */\n      tag_450\n        /* \"#utility.yul\":17196:17200   */\n      dup3\n        /* \"#utility.yul\":17174:17201   */\n      tag_344\n      jump\t// in\n    tag_450:\n        /* \"#utility.yul\":17166:17172   */\n      dup2\n        /* \"#utility.yul\":17162:17202   */\n      add\n        /* \"#utility.yul\":17304:17310   */\n      dup2\n        /* \"#utility.yul\":17292:17302   */\n      dup2\n        /* \"#utility.yul\":17289:17311   */\n      lt\n        /* \"#utility.yul\":17268:17286   */\n      0xffffffffffffffff\n        /* \"#utility.yul\":17256:17266   */\n      dup3\n        /* \"#utility.yul\":17253:17287   */\n      gt\n        /* \"#utility.yul\":17250:17312   */\n      or\n        /* \"#utility.yul\":17247:17335   */\n      iszero\n      tag_451\n      jumpi\n        /* \"#utility.yul\":17315:17333   */\n      tag_452\n      tag_417\n      jump\t// in\n    tag_452:\n        /* \"#utility.yul\":17247:17335   */\n    tag_451:\n        /* \"#utility.yul\":17355:17365   */\n      dup1\n        /* \"#utility.yul\":17351:17353   */\n      0x40\n        /* \"#utility.yul\":17344:17366   */\n      mstore\n        /* \"#utility.yul\":17134:17372   */\n      pop\n        /* \"#utility.yul\":17091:17372   */\n      pop\n      pop\n      jump\t// out\n        /* \"#utility.yul\":17378:17611   */\n    tag_105:\n        /* \"#utility.yul\":17417:17420   */\n      0x00\n        /* \"#utility.yul\":17440:17464   */\n      tag_454\n        /* \"#utility.yul\":17458:17463   */\n      dup3\n        /* \"#utility.yul\":17440:17464   */\n      tag_379\n      jump\t// in\n    tag_454:\n        /* \"#utility.yul\":17431:17464   */\n      swap2\n      pop\n        /* \"#utility.yul\":17486:17552   */\n      0xffffffffffffffffffffffffffffffffffffffffffffffffffffffffffffffff\n        /* \"#utility.yul\":17479:17484   */\n      dup3\n        /* \"#utility.yul\":17476:17553   */\n      eq\n        /* \"#utility.yul\":17473:17576   */\n      iszero\n      tag_455\n      jumpi\n        /* \"#utility.yul\":17556:17574   */\n      tag_456\n      tag_431\n      jump\t// in\n    tag_456:\n        /* \"#utility.yul\":17473:17576   */\n    tag_455:\n        /* \"#utility.yul\":17603:17604   */\n      0x01\n        /* \"#utility.yul\":17596:17601   */\n      dup3\n        /* \"#utility.yul\":17592:17605   */\n      add\n        /* \"#utility.yul\":17585:17605   */\n      swap1\n      pop\n        /* \"#utility.yul\":17378:17611   */\n      swap2\n      swap1\n      pop\n      jump\t// out\n        /* \"#utility.yul\":17617:17797   */\n    tag_431:\n        /* \"#utility.yul\":17665:17742   */\n      0x4e487b7100000000000000000000000000000000000000000000000000000000\n        /* \"#utility.yul\":17662:17663   */\n      0x00\n        /* \"#utility.yul\":17655:17743   */\n      mstore\n        /* \"#utility.yul\":17762:17766   */\n      0x11\n        /* \"#utility.yul\":17759:17760   */\n      0x04\n        /* \"#utility.yul\":17752:17767   */\n      mstore\n        /* \"#utility.yul\":17786:17790   */\n      0x24\n        /* \"#utility.yul\":17783:17784   */\n      0x00\n        /* \"#utility.yul\":17776:17791   */\n      revert\n        /* \"#utility.yul\":17803:17983   */\n    tag_448:\n        /* \"#utility.yul\":17851:17928   */\n      0x4e487b7100000000000000000000000000000000000000000000000000000000\n        /* \"#utility.yul\":17848:17849   */\n      0x00\n        /* \"#utility.yul\":17841:17929   */\n      mstore\n        /* \"#utility.yul\":17948:17952   */\n      0x22\n        /* \"#utility.yul\":17945:17946   */\n      0x04\n        /* \"#utility.yul\":17938:17953   */\n      mstore\n        /* \"#utility.yul\":17972:17976   */\n      0x24\n        /* \"#utility.yul\":17969:17970   */\n      0x00\n        /* \"#utility.yul\":17962:17977   */\n      revert\n        /* \"#utility.yul\":17989:18169   */\n    tag_100:\n        /* \"#utility.yul\":18037:18114   */\n      0x4e487b7100000000000000000000000000000000000000000000000000000000\n        /* \"#utility.yul\":18034:18035   */\n      0x00\n        /* \"#utility.yul\":18027:18115   */\n      mstore\n        /* \"#utility.yul\":18134:18138   */\n      0x32\n        /* \"#utility.yul\":18131:18132   */\n      0x04\n        /* \"#utility.yul\":18124:18139   */\n      mstore\n        /* \"#utility.yul\":18158:18162   */\n      0x24\n        /* \"#utility.yul\":18155:18156   */\n      0x00\n        /* \"#utility.yul\":18148:18163   */\n      revert\n        /* \"#utility.yul\":18175:18355   */\n    tag_417:\n        /* \"#utility.yul\":18223:18300   */\n      0x4e487b7100000000000000000000000000000000000000000000000000000000\n        /* \"#utility.yul\":18220:18221   */\n      0x00\n        /* \"#utility.yul\":18213:18301   */\n      mstore\n        /* \"#utility.yul\":18320:18324   */\n      0x41\n        /* \"#utility.yul\":18317:18318   */\n      0x04\n        /* \"#utility.yul\":18310:18325   */\n      mstore\n        /* \"#utility.yul\":18344:18348   */\n      0x24\n        /* \"#utility.yul\":18341:18342   */\n      0x00\n        /* \"#utility.yul\":18334:18349   */\n      revert\n        /* \"#utility.yul\":18361:18478   */\n    tag_258:\n        /* \"#utility.yul\":18470:18471   */\n      0x00\n        /* \"#utility.yul\":18467:18468   */\n      dup1\n        /* \"#utility.yul\":18460:18472   */\n      revert\n        /* \"#utility.yul\":18484:18601   */\n    tag_264:\n        /* \"#utility.yul\":18593:18594   */\n      0x00\n        /* \"#utility.yul\":18590:18591   */\n      dup1\n        /* \"#utility.yul\":18583:18595   */\n      revert\n        /* \"#utility.yul\":18607:18724   */\n    tag_268:\n        /* \"#utility.yul\":18716:18717   */\n      0x00\n        /* \"#utility.yul\":18713:18714   */\n      dup1\n        /* \"#utility.yul\":18706:18718   */\n      revert\n        /* \"#utility.yul\":18730:18847   */\n    tag_247:\n        /* \"#utility.yul\":18839:18840   */\n      0x00\n        /* \"#utility.yul\":18836:18837   */\n      dup1\n        /* \"#utility.yul\":18829:18841   */\n      revert\n        /* \"#utility.yul\":18853:18970   */\n    tag_288:\n        /* \"#utility.yul\":18962:18963   */\n      0x00\n        /* \"#utility.yul\":18959:18960   */\n      dup1\n        /* \"#utility.yul\":18952:18964   */\n      revert\n        /* \"#utility.yul\":18976:19093   */\n    tag_281:\n        /* \"#utility.yul\":19085:19086   */\n      0x00\n        /* \"#utility.yul\":19082:19083   */\n      dup1\n        /* \"#utility.yul\":19075:19087   */\n      revert\n        /* \"#utility.yul\":19099:19201   */\n    tag_344:\n        /* \"#utility.yul\":19140:19146   */\n      0x00\n        /* \"#utility.yul\":19191:19193   */\n      0x1f\n        /* \"#utility.yul\":19187:19194   */\n      not\n        /* \"#utility.yul\":19182:19184   */\n      0x1f\n        /* \"#utility.yul\":19175:19180   */\n      dup4\n        /* \"#utility.yul\":19171:19185   */\n      add\n        /* \"#utility.yul\":19167:19195   */\n      and\n        /* \"#utility.yul\":19157:19195   */\n      swap1\n      pop\n        /* \"#utility.yul\":19099:19201   */\n      swap2\n      swap1\n      pop\n      jump\t// out\n        /* \"#utility.yul\":19207:19441   */\n    tag_356:\n        /* \"#utility.yul\":19347:19381   */\n      0x4f6e6c792074686520636f6e7472616374206f776e65722063616e2067697665\n        /* \"#utility.yul\":19343:19344   */\n      0x00\n        /* \"#utility.yul\":19335:19341   */\n      dup3\n        /* \"#utility.yul\":19331:19345   */\n      add\n        /* \"#utility.yul\":19324:19382   */\n      mstore\n        /* \"#utility.yul\":19416:19433   */\n      0x20726967687420746f20766f74652e0000000000000000000000000000000000\n        /* \"#utility.yul\":19411:19413   */\n      0x20\n        /* \"#utility.yul\":19403:19409   */\n      dup3\n        /* \"#utility.yul\":19399:19414   */\n      add\n        /* \"#utility.yul\":19392:19434   */\n      mstore\n        /* \"#utility.yul\":19207:19441   */\n      pop\n      jump\t// out\n        /* \"#utility.yul\":19447:19617   */\n    tag_361:\n        /* \"#utility.yul\":19587:19609   */\n      0x566f74657220616c726561647920766f7465642e000000000000000000000000\n        /* \"#utility.yul\":19583:19584   */\n      0x00\n        /* \"#utility.yul\":19575:19581   */\n      dup3\n        /* \"#utility.yul\":19571:19585   */\n      add\n        /* \"#utility.yul\":19564:19610   */\n      mstore\n        /* \"#utility.yul\":19447:19617   */\n      pop\n      jump\t// out\n        /* \"#utility.yul\":19623:19853   */\n    tag_366:\n        /* \"#utility.yul\":19763:19797   */\n      0x4f6e6c792074686520636f6e7472616374206f776e65722063616e2061646420\n        /* \"#utility.yul\":19759:19760   */\n      0x00\n        /* \"#utility.yul\":19751:19757   */\n      dup3\n        /* \"#utility.yul\":19747:19761   */\n      add\n        /* \"#utility.yul\":19740:19798   */\n      mstore\n        /* \"#utility.yul\":19832:19845   */\n      0x63616e646964617465732e000000000000000000000000000000000000000000\n        /* \"#utility.yul\":19827:19829   */\n      0x20\n        /* \"#utility.yul\":19819:19825   */\n      dup3\n        /* \"#utility.yul\":19815:19830   */\n      add\n        /* \"#utility.yul\":19808:19846   */\n      mstore\n        /* \"#utility.yul\":19623:19853   */\n      pop\n      jump\t// out\n        /* \"#utility.yul\":19859:20035   */\n    tag_371:\n        /* \"#utility.yul\":19999:20027   */\n      0x596f752068617665206e6f7420726967687420746f20766f7465000000000000\n        /* \"#utility.yul\":19995:19996   */\n      0x00\n        /* \"#utility.yul\":19987:19993   */\n      dup3\n        /* \"#utility.yul\":19983:19997   */\n      add\n        /* \"#utility.yul\":19976:20028   */\n      mstore\n        /* \"#utility.yul\":19859:20035   */\n      pop\n      jump\t// out\n        /* \"#utility.yul\":20041:20163   */\n    tag_253:\n        /* \"#utility.yul\":20114:20138   */\n      tag_473\n        /* \"#utility.yul\":20132:20137   */\n      dup2\n        /* \"#utility.yul\":20114:20138   */\n      tag_316\n      jump\t// in\n    tag_473:\n        /* \"#utility.yul\":20107:20112   */\n      dup2\n        /* \"#utility.yul\":20104:20139   */\n      eq\n        /* \"#utility.yul\":20094:20157   */\n      tag_474\n      jumpi\n        /* \"#utility.yul\":20153:20154   */\n      0x00\n        /* \"#utility.yul\":20150:20151   */\n      dup1\n        /* \"#utility.yul\":20143:20155   */\n      revert\n        /* \"#utility.yul\":20094:20157   */\n    tag_474:\n        /* \"#utility.yul\":20041:20163   */\n      pop\n      jump\t// out\n        /* \"#utility.yul\":20169:20291   */\n    tag_277:\n        /* \"#utility.yul\":20242:20266   */\n      tag_476\n        /* \"#utility.yul\":20260:20265   */\n      dup2\n        /* \"#utility.yul\":20242:20266   */\n      tag_379\n      jump\t// in\n    tag_476:\n        /* \"#utility.yul\":20235:20240   */\n      dup2\n        /* \"#utility.yul\":20232:20267   */\n      eq\n        /* \"#utility.yul\":20222:20285   */\n      tag_477\n      jumpi\n        /* \"#utility.yul\":20281:20282   */\n      0x00\n        /* \"#utility.yul\":20278:20279   */\n      dup1\n        /* \"#utility.yul\":20271:20283   */\n      revert\n        /* \"#utility.yul\":20222:20285   */\n    tag_477:\n        /* \"#utility.yul\":20169:20291   */\n      pop\n      jump\t// out\n\n    auxdata: 0xa2646970667358221220a59661c4e9fe3fca25a184d0ea69c416f753099f0dfaafd4e97f4da84d4c619b64736f6c63430008070033\n}\n",
				"bytecode": {
					"linkReferences": {},
					"object": "60806040523480156200001157600080fd5b506040516200210d3803806200210d833981810160405281019062000037919062000436565b336000806101000a81548173ffffffffffffffffffffffffffffffffffffffff021916908373ffffffffffffffffffffffffffffffffffffffff16021790555060005b81518110156200016d5760026040518060600160405280848481518110620000a757620000a66200066d565b5b6020026020010151600001518152602001848481518110620000ce57620000cd6200066d565b5b60200260200101516020015181526020016000815250908060018154018082558091505060019003906000526020600020906003020160009091909190915060008201518160000190805190602001906200012b92919062000175565b5060208201518160010190805190602001906200014a92919062000175565b5060408201518160020155505080806200016490620005c1565b9150506200007a565b505062000719565b828054620001839062000555565b90600052602060002090601f016020900481019282620001a75760008555620001f3565b82601f10620001c257805160ff1916838001178555620001f3565b82800160010185558215620001f3579182015b82811115620001f2578251825591602001919060010190620001d5565b5b50905062000202919062000206565b5090565b5b808211156200022157600081600090555060010162000207565b5090565b60006200023c6200023684620004b0565b62000487565b90508083825260208201905082856020860282011115620002625762000261620006da565b5b60005b85811015620002b757815167ffffffffffffffff8111156200028c576200028b620006cb565b5b8086016200029b898262000372565b8552602085019450602084019350505060018101905062000265565b5050509392505050565b6000620002d8620002d284620004df565b62000487565b905082815260208101848484011115620002f757620002f6620006df565b5b620003048482856200051f565b509392505050565b600082601f830112620003245762000323620006cb565b5b81516200033684826020860162000225565b91505092915050565b600082601f830112620003575762000356620006cb565b5b815162000369848260208601620002c1565b91505092915050565b6000606082840312156200038b576200038a620006d0565b5b62000397606062000487565b9050600082015167ffffffffffffffff811115620003ba57620003b9620006d5565b5b620003c8848285016200033f565b600083015250602082015167ffffffffffffffff811115620003ef57620003ee620006d5565b5b620003fd848285016200033f565b602083015250604062000413848285016200041f565b60408301525092915050565b6000815190506200043081620006ff565b92915050565b6000602082840312156200044f576200044e620006e9565b5b600082015167ffffffffffffffff81111562000470576200046f620006e4565b5b6200047e848285016200030c565b91505092915050565b600062000493620004a6565b9050620004a182826200058b565b919050565b6000604051905090565b600067ffffffffffffffff821115620004ce57620004cd6200069c565b5b602082029050602081019050919050565b600067ffffffffffffffff821115620004fd57620004fc6200069c565b5b6200050882620006ee565b9050602081019050919050565b6000819050919050565b60005b838110156200053f57808201518184015260208101905062000522565b838111156200054f576000848401525b50505050565b600060028204905060018216806200056e57607f821691505b602082108114156200058557620005846200063e565b5b50919050565b6200059682620006ee565b810181811067ffffffffffffffff82111715620005b857620005b76200069c565b5b80604052505050565b6000620005ce8262000515565b91507fffffffffffffffffffffffffffffffffffffffffffffffffffffffffffffffff8214156200060457620006036200060f565b5b600182019050919050565b7f4e487b7100000000000000000000000000000000000000000000000000000000600052601160045260246000fd5b7f4e487b7100000000000000000000000000000000000000000000000000000000600052602260045260246000fd5b7f4e487b7100000000000000000000000000000000000000000000000000000000600052603260045260246000fd5b7f4e487b7100000000000000000000000000000000000000000000000000000000600052604160045260246000fd5b600080fd5b600080fd5b600080fd5b600080fd5b600080fd5b600080fd5b600080fd5b6000601f19601f8301169050919050565b6200070a8162000515565b81146200071657600080fd5b50565b6119e480620007296000396000f3fe608060405234801561001057600080fd5b50600436106101165760003560e01c8063954115f2116100a2578063da26543011610071578063da265430146102d4578063df703622146102f2578063eacc4e3f14610310578063f927cc2914610340578063fc36e15b1461035e57610116565b8063954115f21461024d5780639e7b8d6114610269578063a3ec138d14610285578063ce606ee0146102b657610116565b806332a2c5d0116100e957806332a2c5d0146101915780633477ee2e146101af5780633ddf3822146101e15780634aba5f34146101ff578063743f76661461021d57610116565b806301c5556a1461011b5780630d15fd771461013957806310508439146101575780632bfda51514610173575b600080fd5b61012361037a565b6040516101309190611542565b60405180910390f35b6101416103d9565b60405161014e9190611542565b60405180910390f35b610171600480360381019061016c91906110d2565b6103df565b005b61017b6104b7565b604051610188919061145b565b60405180910390f35b610199610573565b6040516101a691906113da565b60405180910390f35b6101c960048036038101906101c49190611193565b61057b565b6040516101d89392919061147d565b60405180910390f35b6101e96106c5565b6040516101f69190611417565b60405180910390f35b61020761071c565b60405161021491906113f5565b60405180910390f35b6102376004803603810190610232919061105c565b6108a9565b6040516102449190611417565b60405180910390f35b6102676004803603810190610262919061114a565b610902565b005b610283600480360381019061027e919061105c565b6109be565b005b61029f600480360381019061029a919061105c565b610aad565b6040516102ad929190611432565b60405180910390f35b6102be610aeb565b6040516102cb91906113da565b60405180910390f35b6102dc610b0f565b6040516102e99190611417565b60405180910390f35b6102fa610b1f565b6040516103079190611417565b60405180910390f35b61032a6004803603810190610325919061105c565b610b2f565b6040516103379190611417565b60405180910390f35b610348610b88565b6040516103559190611542565b60405180910390f35b61037860048036038101906103739190611089565b610c0c565b005b600080600090505b6002805490508110156103d557600281815481106103a3576103a2611803565b5b906000526020600020906003020160020154826103c09190611619565b915080806103cd9061175c565b915050610382565b5090565b60035481565b6103e76106c5565b610426576040517f08c379a000000000000000000000000000000000000000000000000000000000815260040161041d90611502565b60405180910390fd5b60026040518060600160405280848152602001838152602001600081525090806001815401808255809150506001900390600052602060002090600302016000909190919091506000820151816000019080519060200190610489929190610e83565b5060208201518160010190805190602001906104a6929190610e83565b506040820151816002015550505050565b606060026104c3610b88565b815481106104d4576104d3611803565b5b906000526020600020906003020160000180546104f0906116f9565b80601f016020809104026020016040519081016040528092919081815260200182805461051c906116f9565b80156105695780601f1061053e57610100808354040283529160200191610569565b820191906000526020600020905b81548152906001019060200180831161054c57829003601f168201915b5050505050905090565b600030905090565b6002818154811061058b57600080fd5b90600052602060002090600302016000915090508060000180546105ae906116f9565b80601f01602080910402602001604051908101604052809291908181526020018280546105da906116f9565b80156106275780601f106105fc57610100808354040283529160200191610627565b820191906000526020600020905b81548152906001019060200180831161060a57829003601f168201915b50505050509080600101805461063c906116f9565b80601f0160208091040260200160405190810160405280929190818152602001828054610668906116f9565b80156106b55780601f1061068a576101008083540402835291602001916106b5565b820191906000526020600020905b81548152906001019060200180831161069857829003601f168201915b5050505050908060020154905083565b60008060009054906101000a900473ffffffffffffffffffffffffffffffffffffffff1673ffffffffffffffffffffffffffffffffffffffff163373ffffffffffffffffffffffffffffffffffffffff1614905090565b60606002805480602002602001604051908101604052809291908181526020016000905b828210156108a05783829060005260206000209060030201604051806060016040529081600082018054610773906116f9565b80601f016020809104026020016040519081016040528092919081815260200182805461079f906116f9565b80156107ec5780601f106107c1576101008083540402835291602001916107ec565b820191906000526020600020905b8154815290600101906020018083116107cf57829003601f168201915b50505050508152602001600182018054610805906116f9565b80601f0160208091040260200160405190810160405280929190818152602001828054610831906116f9565b801561087e5780601f106108535761010080835404028352916020019161087e565b820191906000526020600020905b81548152906001019060200180831161086157829003601f168201915b5050505050815260200160028201548152505081526020019060010190610740565b50505050905090565b6000600160008373ffffffffffffffffffffffffffffffffffffffff1673ffffffffffffffffffffffffffffffffffffffff16815260200190815260200160002060000160019054906101000a900460ff169050919050565b61090a6106c5565b610949576040517f08c379a000000000000000000000000000000000000000000000000000000000815260040161094090611502565b60405180910390fd5b60028190806001815401808255809150506001900390600052602060002090600302016000909190919091506000820151816000019080519060200190610991929190610e83565b5060208201518160010190805190602001906109ae929190610e83565b5060408201518160020155505050565b6109c66106c5565b610a05576040517f08c379a00000000000000000000000000000000000000000000000000000000081526004016109fc906114c2565b60405180910390fd5b80610a0f816108a9565b15610a4f576040517f08c379a0000000000000000000000000000000000000000000000000000000008152600401610a46906114e2565b60405180910390fd5b60018060008473ffffffffffffffffffffffffffffffffffffffff1673ffffffffffffffffffffffffffffffffffffffff16815260200190815260200160002060000160006101000a81548160ff0219169083151502179055505050565b60016020528060005260406000206000915090508060000160009054906101000a900460ff16908060000160019054906101000a900460ff16905082565b60008054906101000a900473ffffffffffffffffffffffffffffffffffffffff1681565b6000610b1a336108a9565b905090565b6000610b2a33610b2f565b905090565b6000600160008373ffffffffffffffffffffffffffffffffffffffff1673ffffffffffffffffffffffffffffffffffffffff16815260200190815260200160002060000160009054906101000a900460ff169050919050565b60008060005b600280549050811015610c07578160028281548110610bb057610baf611803565b5b9060005260206000209060030201600201541115610bf45760028181548110610bdc57610bdb611803565b5b90600052602060002090600302016002015491508092505b8080610bff9061175c565b915050610b8e565b505090565b33610c16816108a9565b15610c56576040517f08c379a0000000000000000000000000000000000000000000000000000000008152600401610c4d906114e2565b60405180910390fd5b610c5e610b1f565b610c9d576040517f08c379a0000000000000000000000000000000000000000000000000000000008152600401610c9490611522565b60405180910390fd5b6000600160003373ffffffffffffffffffffffffffffffffffffffff1673ffffffffffffffffffffffffffffffffffffffff168152602001908152602001600020905060005b600280549050811015610e3057610da760028281548110610d0757610d06611803565b5b90600052602060002090600302016000018054610d23906116f9565b80601f0160208091040260200160405190810160405280929190818152602001828054610d4f906116f9565b8015610d9c5780601f10610d7157610100808354040283529160200191610d9c565b820191906000526020600020905b815481529060010190602001808311610d7f57829003601f168201915b505050505085610e36565b15610de85760028181548110610dc057610dbf611803565b5b90600052602060002090600302016002016000815480929190610de29061175c565b91905055505b60018260000160016101000a81548160ff02191690831515021790555060036000815480929190610e189061175c565b91905055508080610e289061175c565b915050610ce3565b50505050565b6000610e4182610e53565b610e4a84610e53565b14905092915050565b600081604051602001610e66919061145b565b604051602081830303815290604052805190602001209050919050565b828054610e8f906116f9565b90600052602060002090601f016020900481019282610eb15760008555610ef8565b82601f10610eca57805160ff1916838001178555610ef8565b82800160010185558215610ef8579182015b82811115610ef7578251825591602001919060010190610edc565b5b509050610f059190610f09565b5090565b5b80821115610f22576000816000905550600101610f0a565b5090565b6000610f39610f3484611582565b61155d565b905082815260208101848484011115610f5557610f54611870565b5b610f608482856116b7565b509392505050565b600081359050610f7781611980565b92915050565b600082601f830112610f9257610f91611861565b5b8135610fa2848260208601610f26565b91505092915050565b600060608284031215610fc157610fc0611866565b5b610fcb606061155d565b9050600082013567ffffffffffffffff811115610feb57610fea61186b565b5b610ff784828501610f7d565b600083015250602082013567ffffffffffffffff81111561101b5761101a61186b565b5b61102784828501610f7d565b602083015250604061103b84828501611047565b60408301525092915050565b60008135905061105681611997565b92915050565b6000602082840312156110725761107161187a565b5b600061108084828501610f68565b91505092915050565b60006020828403121561109f5761109e61187a565b5b600082013567ffffffffffffffff8111156110bd576110bc611875565b5b6110c984828501610f7d565b91505092915050565b600080604083850312156110e9576110e861187a565b5b600083013567ffffffffffffffff81111561110757611106611875565b5b61111385828601610f7d565b925050602083013567ffffffffffffffff81111561113457611133611875565b5b61114085828601610f7d565b9150509250929050565b6000602082840312156111605761115f61187a565b5b600082013567ffffffffffffffff81111561117e5761117d611875565b5b61118a84828501610fab565b91505092915050565b6000602082840312156111a9576111a861187a565b5b60006111b784828501611047565b91505092915050565b60006111cc8383611365565b905092915050565b6111dd8161166f565b82525050565b60006111ee826115c3565b6111f881856115e6565b93508360208202850161120a856115b3565b8060005b85811015611246578484038952815161122785826111c0565b9450611232836115d9565b925060208a0199505060018101905061120e565b50829750879550505050505092915050565b61126181611681565b82525050565b6000611272826115ce565b61127c81856115f7565b935061128c8185602086016116c6565b6112958161187f565b840191505092915050565b60006112ab826115ce565b6112b58185611608565b93506112c58185602086016116c6565b6112ce8161187f565b840191505092915050565b60006112e6602f83611608565b91506112f182611890565b604082019050919050565b6000611309601483611608565b9150611314826118df565b602082019050919050565b600061132c602b83611608565b915061133782611908565b604082019050919050565b600061134f601a83611608565b915061135a82611957565b602082019050919050565b600060608301600083015184820360008601526113828282611267565b9150506020830151848203602086015261139c8282611267565b91505060408301516113b160408601826113bc565b508091505092915050565b6113c5816116ad565b82525050565b6113d4816116ad565b82525050565b60006020820190506113ef60008301846111d4565b92915050565b6000602082019050818103600083015261140f81846111e3565b905092915050565b600060208201905061142c6000830184611258565b92915050565b60006040820190506114476000830185611258565b6114546020830184611258565b9392505050565b6000602082019050818103600083015261147581846112a0565b905092915050565b6000606082019050818103600083015261149781866112a0565b905081810360208301526114ab81856112a0565b90506114ba60408301846113cb565b949350505050565b600060208201905081810360008301526114db816112d9565b9050919050565b600060208201905081810360008301526114fb816112fc565b9050919050565b6000602082019050818103600083015261151b8161131f565b9050919050565b6000602082019050818103600083015261153b81611342565b9050919050565b600060208201905061155760008301846113cb565b92915050565b6000611567611578565b9050611573828261172b565b919050565b6000604051905090565b600067ffffffffffffffff82111561159d5761159c611832565b5b6115a68261187f565b9050602081019050919050565b6000819050602082019050919050565b600081519050919050565b600081519050919050565b6000602082019050919050565b600082825260208201905092915050565b600082825260208201905092915050565b600082825260208201905092915050565b6000611624826116ad565b915061162f836116ad565b9250827fffffffffffffffffffffffffffffffffffffffffffffffffffffffffffffffff03821115611664576116636117a5565b5b828201905092915050565b600061167a8261168d565b9050919050565b60008115159050919050565b600073ffffffffffffffffffffffffffffffffffffffff82169050919050565b6000819050919050565b82818337600083830152505050565b60005b838110156116e45780820151818401526020810190506116c9565b838111156116f3576000848401525b50505050565b6000600282049050600182168061171157607f821691505b60208210811415611725576117246117d4565b5b50919050565b6117348261187f565b810181811067ffffffffffffffff8211171561175357611752611832565b5b80604052505050565b6000611767826116ad565b91507fffffffffffffffffffffffffffffffffffffffffffffffffffffffffffffffff82141561179a576117996117a5565b5b600182019050919050565b7f4e487b7100000000000000000000000000000000000000000000000000000000600052601160045260246000fd5b7f4e487b7100000000000000000000000000000000000000000000000000000000600052602260045260246000fd5b7f4e487b7100000000000000000000000000000000000000000000000000000000600052603260045260246000fd5b7f4e487b7100000000000000000000000000000000000000000000000000000000600052604160045260246000fd5b600080fd5b600080fd5b600080fd5b600080fd5b600080fd5b600080fd5b6000601f19601f8301169050919050565b7f4f6e6c792074686520636f6e7472616374206f776e65722063616e206769766560008201527f20726967687420746f20766f74652e0000000000000000000000000000000000602082015250565b7f566f74657220616c726561647920766f7465642e000000000000000000000000600082015250565b7f4f6e6c792074686520636f6e7472616374206f776e65722063616e206164642060008201527f63616e646964617465732e000000000000000000000000000000000000000000602082015250565b7f596f752068617665206e6f7420726967687420746f20766f7465000000000000600082015250565b6119898161166f565b811461199457600080fd5b50565b6119a0816116ad565b81146119ab57600080fd5b5056fea2646970667358221220a59661c4e9fe3fca25a184d0ea69c416f753099f0dfaafd4e97f4da84d4c619b64736f6c63430008070033",
					"opcodes": "PUSH1 0x80 PUSH1 0x40 MSTORE CALLVALUE DUP1 ISZERO PUSH3 0x11 JUMPI PUSH1 0x0 DUP1 REVERT JUMPDEST POP PUSH1 0x40 MLOAD PUSH3 0x210D CODESIZE SUB DUP1 PUSH3 0x210D DUP4 CODECOPY DUP2 DUP2 ADD PUSH1 0x40 MSTORE DUP2 ADD SWAP1 PUSH3 0x37 SWAP2 SWAP1 PUSH3 0x436 JUMP JUMPDEST CALLER PUSH1 0x0 DUP1 PUSH2 0x100 EXP DUP2 SLOAD DUP2 PUSH20 0xFFFFFFFFFFFFFFFFFFFFFFFFFFFFFFFFFFFFFFFF MUL NOT AND SWAP1 DUP4 PUSH20 0xFFFFFFFFFFFFFFFFFFFFFFFFFFFFFFFFFFFFFFFF AND MUL OR SWAP1 SSTORE POP PUSH1 0x0 JUMPDEST DUP2 MLOAD DUP2 LT ISZERO PUSH3 0x16D JUMPI PUSH1 0x2 PUSH1 0x40 MLOAD DUP1 PUSH1 0x60 ADD PUSH1 0x40 MSTORE DUP1 DUP5 DUP5 DUP2 MLOAD DUP2 LT PUSH3 0xA7 JUMPI PUSH3 0xA6 PUSH3 0x66D JUMP JUMPDEST JUMPDEST PUSH1 0x20 MUL PUSH1 0x20 ADD ADD MLOAD PUSH1 0x0 ADD MLOAD DUP2 MSTORE PUSH1 0x20 ADD DUP5 DUP5 DUP2 MLOAD DUP2 LT PUSH3 0xCE JUMPI PUSH3 0xCD PUSH3 0x66D JUMP JUMPDEST JUMPDEST PUSH1 0x20 MUL PUSH1 0x20 ADD ADD MLOAD PUSH1 0x20 ADD MLOAD DUP2 MSTORE PUSH1 0x20 ADD PUSH1 0x0 DUP2 MSTORE POP SWAP1 DUP1 PUSH1 0x1 DUP2 SLOAD ADD DUP1 DUP3 SSTORE DUP1 SWAP2 POP POP PUSH1 0x1 SWAP1 SUB SWAP1 PUSH1 0x0 MSTORE PUSH1 0x20 PUSH1 0x0 KECCAK256 SWAP1 PUSH1 0x3 MUL ADD PUSH1 0x0 SWAP1 SWAP2 SWAP1 SWAP2 SWAP1 SWAP2 POP PUSH1 0x0 DUP3 ADD MLOAD DUP2 PUSH1 0x0 ADD SWAP1 DUP1 MLOAD SWAP1 PUSH1 0x20 ADD SWAP1 PUSH3 0x12B SWAP3 SWAP2 SWAP1 PUSH3 0x175 JUMP JUMPDEST POP PUSH1 0x20 DUP3 ADD MLOAD DUP2 PUSH1 0x1 ADD SWAP1 DUP1 MLOAD SWAP1 PUSH1 0x20 ADD SWAP1 PUSH3 0x14A SWAP3 SWAP2 SWAP1 PUSH3 0x175 JUMP JUMPDEST POP PUSH1 0x40 DUP3 ADD MLOAD DUP2 PUSH1 0x2 ADD SSTORE POP POP DUP1 DUP1 PUSH3 0x164 SWAP1 PUSH3 0x5C1 JUMP JUMPDEST SWAP2 POP POP PUSH3 0x7A JUMP JUMPDEST POP POP PUSH3 0x719 JUMP JUMPDEST DUP3 DUP1 SLOAD PUSH3 0x183 SWAP1 PUSH3 0x555 JUMP JUMPDEST SWAP1 PUSH1 0x0 MSTORE PUSH1 0x20 PUSH1 0x0 KECCAK256 SWAP1 PUSH1 0x1F ADD PUSH1 0x20 SWAP1 DIV DUP2 ADD SWAP3 DUP3 PUSH3 0x1A7 JUMPI PUSH1 0x0 DUP6 SSTORE PUSH3 0x1F3 JUMP JUMPDEST DUP3 PUSH1 0x1F LT PUSH3 0x1C2 JUMPI DUP1 MLOAD PUSH1 0xFF NOT AND DUP4 DUP1 ADD OR DUP6 SSTORE PUSH3 0x1F3 JUMP JUMPDEST DUP3 DUP1 ADD PUSH1 0x1 ADD DUP6 SSTORE DUP3 ISZERO PUSH3 0x1F3 JUMPI SWAP2 DUP3 ADD JUMPDEST DUP3 DUP2 GT ISZERO PUSH3 0x1F2 JUMPI DUP3 MLOAD DUP3 SSTORE SWAP2 PUSH1 0x20 ADD SWAP2 SWAP1 PUSH1 0x1 ADD SWAP1 PUSH3 0x1D5 JUMP JUMPDEST JUMPDEST POP SWAP1 POP PUSH3 0x202 SWAP2 SWAP1 PUSH3 0x206 JUMP JUMPDEST POP SWAP1 JUMP JUMPDEST JUMPDEST DUP1 DUP3 GT ISZERO PUSH3 0x221 JUMPI PUSH1 0x0 DUP2 PUSH1 0x0 SWAP1 SSTORE POP PUSH1 0x1 ADD PUSH3 0x207 JUMP JUMPDEST POP SWAP1 JUMP JUMPDEST PUSH1 0x0 PUSH3 0x23C PUSH3 0x236 DUP5 PUSH3 0x4B0 JUMP JUMPDEST PUSH3 0x487 JUMP JUMPDEST SWAP1 POP DUP1 DUP4 DUP3 MSTORE PUSH1 0x20 DUP3 ADD SWAP1 POP DUP3 DUP6 PUSH1 0x20 DUP7 MUL DUP3 ADD GT ISZERO PUSH3 0x262 JUMPI PUSH3 0x261 PUSH3 0x6DA JUMP JUMPDEST JUMPDEST PUSH1 0x0 JUMPDEST DUP6 DUP2 LT ISZERO PUSH3 0x2B7 JUMPI DUP2 MLOAD PUSH8 0xFFFFFFFFFFFFFFFF DUP2 GT ISZERO PUSH3 0x28C JUMPI PUSH3 0x28B PUSH3 0x6CB JUMP JUMPDEST JUMPDEST DUP1 DUP7 ADD PUSH3 0x29B DUP10 DUP3 PUSH3 0x372 JUMP JUMPDEST DUP6 MSTORE PUSH1 0x20 DUP6 ADD SWAP5 POP PUSH1 0x20 DUP5 ADD SWAP4 POP POP POP PUSH1 0x1 DUP2 ADD SWAP1 POP PUSH3 0x265 JUMP JUMPDEST POP POP POP SWAP4 SWAP3 POP POP POP JUMP JUMPDEST PUSH1 0x0 PUSH3 0x2D8 PUSH3 0x2D2 DUP5 PUSH3 0x4DF JUMP JUMPDEST PUSH3 0x487 JUMP JUMPDEST SWAP1 POP DUP3 DUP2 MSTORE PUSH1 0x20 DUP2 ADD DUP5 DUP5 DUP5 ADD GT ISZERO PUSH3 0x2F7 JUMPI PUSH3 0x2F6 PUSH3 0x6DF JUMP JUMPDEST JUMPDEST PUSH3 0x304 DUP5 DUP3 DUP6 PUSH3 0x51F JUMP JUMPDEST POP SWAP4 SWAP3 POP POP POP JUMP JUMPDEST PUSH1 0x0 DUP3 PUSH1 0x1F DUP4 ADD SLT PUSH3 0x324 JUMPI PUSH3 0x323 PUSH3 0x6CB JUMP JUMPDEST JUMPDEST DUP2 MLOAD PUSH3 0x336 DUP5 DUP3 PUSH1 0x20 DUP7 ADD PUSH3 0x225 JUMP JUMPDEST SWAP2 POP POP SWAP3 SWAP2 POP POP JUMP JUMPDEST PUSH1 0x0 DUP3 PUSH1 0x1F DUP4 ADD SLT PUSH3 0x357 JUMPI PUSH3 0x356 PUSH3 0x6CB JUMP JUMPDEST JUMPDEST DUP2 MLOAD PUSH3 0x369 DUP5 DUP3 PUSH1 0x20 DUP7 ADD PUSH3 0x2C1 JUMP JUMPDEST SWAP2 POP POP SWAP3 SWAP2 POP POP JUMP JUMPDEST PUSH1 0x0 PUSH1 0x60 DUP3 DUP5 SUB SLT ISZERO PUSH3 0x38B JUMPI PUSH3 0x38A PUSH3 0x6D0 JUMP JUMPDEST JUMPDEST PUSH3 0x397 PUSH1 0x60 PUSH3 0x487 JUMP JUMPDEST SWAP1 POP PUSH1 0x0 DUP3 ADD MLOAD PUSH8 0xFFFFFFFFFFFFFFFF DUP2 GT ISZERO PUSH3 0x3BA JUMPI PUSH3 0x3B9 PUSH3 0x6D5 JUMP JUMPDEST JUMPDEST PUSH3 0x3C8 DUP5 DUP3 DUP6 ADD PUSH3 0x33F JUMP JUMPDEST PUSH1 0x0 DUP4 ADD MSTORE POP PUSH1 0x20 DUP3 ADD MLOAD PUSH8 0xFFFFFFFFFFFFFFFF DUP2 GT ISZERO PUSH3 0x3EF JUMPI PUSH3 0x3EE PUSH3 0x6D5 JUMP JUMPDEST JUMPDEST PUSH3 0x3FD DUP5 DUP3 DUP6 ADD PUSH3 0x33F JUMP JUMPDEST PUSH1 0x20 DUP4 ADD MSTORE POP PUSH1 0x40 PUSH3 0x413 DUP5 DUP3 DUP6 ADD PUSH3 0x41F JUMP JUMPDEST PUSH1 0x40 DUP4 ADD MSTORE POP SWAP3 SWAP2 POP POP JUMP JUMPDEST PUSH1 0x0 DUP2 MLOAD SWAP1 POP PUSH3 0x430 DUP2 PUSH3 0x6FF JUMP JUMPDEST SWAP3 SWAP2 POP POP JUMP JUMPDEST PUSH1 0x0 PUSH1 0x20 DUP3 DUP5 SUB SLT ISZERO PUSH3 0x44F JUMPI PUSH3 0x44E PUSH3 0x6E9 JUMP JUMPDEST JUMPDEST PUSH1 0x0 DUP3 ADD MLOAD PUSH8 0xFFFFFFFFFFFFFFFF DUP2 GT ISZERO PUSH3 0x470 JUMPI PUSH3 0x46F PUSH3 0x6E4 JUMP JUMPDEST JUMPDEST PUSH3 0x47E DUP5 DUP3 DUP6 ADD PUSH3 0x30C JUMP JUMPDEST SWAP2 POP POP SWAP3 SWAP2 POP POP JUMP JUMPDEST PUSH1 0x0 PUSH3 0x493 PUSH3 0x4A6 JUMP JUMPDEST SWAP1 POP PUSH3 0x4A1 DUP3 DUP3 PUSH3 0x58B JUMP JUMPDEST SWAP2 SWAP1 POP JUMP JUMPDEST PUSH1 0x0 PUSH1 0x40 MLOAD SWAP1 POP SWAP1 JUMP JUMPDEST PUSH1 0x0 PUSH8 0xFFFFFFFFFFFFFFFF DUP3 GT ISZERO PUSH3 0x4CE JUMPI PUSH3 0x4CD PUSH3 0x69C JUMP JUMPDEST JUMPDEST PUSH1 0x20 DUP3 MUL SWAP1 POP PUSH1 0x20 DUP2 ADD SWAP1 POP SWAP2 SWAP1 POP JUMP JUMPDEST PUSH1 0x0 PUSH8 0xFFFFFFFFFFFFFFFF DUP3 GT ISZERO PUSH3 0x4FD JUMPI PUSH3 0x4FC PUSH3 0x69C JUMP JUMPDEST JUMPDEST PUSH3 0x508 DUP3 PUSH3 0x6EE JUMP JUMPDEST SWAP1 POP PUSH1 0x20 DUP2 ADD SWAP1 POP SWAP2 SWAP1 POP JUMP JUMPDEST PUSH1 0x0 DUP2 SWAP1 POP SWAP2 SWAP1 POP JUMP JUMPDEST PUSH1 0x0 JUMPDEST DUP4 DUP2 LT ISZERO PUSH3 0x53F JUMPI DUP1 DUP3 ADD MLOAD DUP2 DUP5 ADD MSTORE PUSH1 0x20 DUP2 ADD SWAP1 POP PUSH3 0x522 JUMP JUMPDEST DUP4 DUP2 GT ISZERO PUSH3 0x54F JUMPI PUSH1 0x0 DUP5 DUP5 ADD MSTORE JUMPDEST POP POP POP POP JUMP JUMPDEST PUSH1 0x0 PUSH1 0x2 DUP3 DIV SWAP1 POP PUSH1 0x1 DUP3 AND DUP1 PUSH3 0x56E JUMPI PUSH1 0x7F DUP3 AND SWAP2 POP JUMPDEST PUSH1 0x20 DUP3 LT DUP2 EQ ISZERO PUSH3 0x585 JUMPI PUSH3 0x584 PUSH3 0x63E JUMP JUMPDEST JUMPDEST POP SWAP2 SWAP1 POP JUMP JUMPDEST PUSH3 0x596 DUP3 PUSH3 0x6EE JUMP JUMPDEST DUP2 ADD DUP2 DUP2 LT PUSH8 0xFFFFFFFFFFFFFFFF DUP3 GT OR ISZERO PUSH3 0x5B8 JUMPI PUSH3 0x5B7 PUSH3 0x69C JUMP JUMPDEST JUMPDEST DUP1 PUSH1 0x40 MSTORE POP POP POP JUMP JUMPDEST PUSH1 0x0 PUSH3 0x5CE DUP3 PUSH3 0x515 JUMP JUMPDEST SWAP2 POP PUSH32 0xFFFFFFFFFFFFFFFFFFFFFFFFFFFFFFFFFFFFFFFFFFFFFFFFFFFFFFFFFFFFFFFF DUP3 EQ ISZERO PUSH3 0x604 JUMPI PUSH3 0x603 PUSH3 0x60F JUMP JUMPDEST JUMPDEST PUSH1 0x1 DUP3 ADD SWAP1 POP SWAP2 SWAP1 POP JUMP JUMPDEST PUSH32 0x4E487B7100000000000000000000000000000000000000000000000000000000 PUSH1 0x0 MSTORE PUSH1 0x11 PUSH1 0x4 MSTORE PUSH1 0x24 PUSH1 0x0 REVERT JUMPDEST PUSH32 0x4E487B7100000000000000000000000000000000000000000000000000000000 PUSH1 0x0 MSTORE PUSH1 0x22 PUSH1 0x4 MSTORE PUSH1 0x24 PUSH1 0x0 REVERT JUMPDEST PUSH32 0x4E487B7100000000000000000000000000000000000000000000000000000000 PUSH1 0x0 MSTORE PUSH1 0x32 PUSH1 0x4 MSTORE PUSH1 0x24 PUSH1 0x0 REVERT JUMPDEST PUSH32 0x4E487B7100000000000000000000000000000000000000000000000000000000 PUSH1 0x0 MSTORE PUSH1 0x41 PUSH1 0x4 MSTORE PUSH1 0x24 PUSH1 0x0 REVERT JUMPDEST PUSH1 0x0 DUP1 REVERT JUMPDEST PUSH1 0x0 DUP1 REVERT JUMPDEST PUSH1 0x0 DUP1 REVERT JUMPDEST PUSH1 0x0 DUP1 REVERT JUMPDEST PUSH1 0x0 DUP1 REVERT JUMPDEST PUSH1 0x0 DUP1 REVERT JUMPDEST PUSH1 0x0 DUP1 REVERT JUMPDEST PUSH1 0x0 PUSH1 0x1F NOT PUSH1 0x1F DUP4 ADD AND SWAP1 POP SWAP2 SWAP1 POP JUMP JUMPDEST PUSH3 0x70A DUP2 PUSH3 0x515 JUMP JUMPDEST DUP2 EQ PUSH3 0x716 JUMPI PUSH1 0x0 DUP1 REVERT JUMPDEST POP JUMP JUMPDEST PUSH2 0x19E4 DUP1 PUSH3 0x729 PUSH1 0x0 CODECOPY PUSH1 0x0 RETURN INVALID PUSH1 0x80 PUSH1 0x40 MSTORE CALLVALUE DUP1 ISZERO PUSH2 0x10 JUMPI PUSH1 0x0 DUP1 REVERT JUMPDEST POP PUSH1 0x4 CALLDATASIZE LT PUSH2 0x116 JUMPI PUSH1 0x0 CALLDATALOAD PUSH1 0xE0 SHR DUP1 PUSH4 0x954115F2 GT PUSH2 0xA2 JUMPI DUP1 PUSH4 0xDA265430 GT PUSH2 0x71 JUMPI DUP1 PUSH4 0xDA265430 EQ PUSH2 0x2D4 JUMPI DUP1 PUSH4 0xDF703622 EQ PUSH2 0x2F2 JUMPI DUP1 PUSH4 0xEACC4E3F EQ PUSH2 0x310 JUMPI DUP1 PUSH4 0xF927CC29 EQ PUSH2 0x340 JUMPI DUP1 PUSH4 0xFC36E15B EQ PUSH2 0x35E JUMPI PUSH2 0x116 JUMP JUMPDEST DUP1 PUSH4 0x954115F2 EQ PUSH2 0x24D JUMPI DUP1 PUSH4 0x9E7B8D61 EQ PUSH2 0x269 JUMPI DUP1 PUSH4 0xA3EC138D EQ PUSH2 0x285 JUMPI DUP1 PUSH4 0xCE606EE0 EQ PUSH2 0x2B6 JUMPI PUSH2 0x116 JUMP JUMPDEST DUP1 PUSH4 0x32A2C5D0 GT PUSH2 0xE9 JUMPI DUP1 PUSH4 0x32A2C5D0 EQ PUSH2 0x191 JUMPI DUP1 PUSH4 0x3477EE2E EQ PUSH2 0x1AF JUMPI DUP1 PUSH4 0x3DDF3822 EQ PUSH2 0x1E1 JUMPI DUP1 PUSH4 0x4ABA5F34 EQ PUSH2 0x1FF JUMPI DUP1 PUSH4 0x743F7666 EQ PUSH2 0x21D JUMPI PUSH2 0x116 JUMP JUMPDEST DUP1 PUSH4 0x1C5556A EQ PUSH2 0x11B JUMPI DUP1 PUSH4 0xD15FD77 EQ PUSH2 0x139 JUMPI DUP1 PUSH4 0x10508439 EQ PUSH2 0x157 JUMPI DUP1 PUSH4 0x2BFDA515 EQ PUSH2 0x173 JUMPI JUMPDEST PUSH1 0x0 DUP1 REVERT JUMPDEST PUSH2 0x123 PUSH2 0x37A JUMP JUMPDEST PUSH1 0x40 MLOAD PUSH2 0x130 SWAP2 SWAP1 PUSH2 0x1542 JUMP JUMPDEST PUSH1 0x40 MLOAD DUP1 SWAP2 SUB SWAP1 RETURN JUMPDEST PUSH2 0x141 PUSH2 0x3D9 JUMP JUMPDEST PUSH1 0x40 MLOAD PUSH2 0x14E SWAP2 SWAP1 PUSH2 0x1542 JUMP JUMPDEST PUSH1 0x40 MLOAD DUP1 SWAP2 SUB SWAP1 RETURN JUMPDEST PUSH2 0x171 PUSH1 0x4 DUP1 CALLDATASIZE SUB DUP2 ADD SWAP1 PUSH2 0x16C SWAP2 SWAP1 PUSH2 0x10D2 JUMP JUMPDEST PUSH2 0x3DF JUMP JUMPDEST STOP JUMPDEST PUSH2 0x17B PUSH2 0x4B7 JUMP JUMPDEST PUSH1 0x40 MLOAD PUSH2 0x188 SWAP2 SWAP1 PUSH2 0x145B JUMP JUMPDEST PUSH1 0x40 MLOAD DUP1 SWAP2 SUB SWAP1 RETURN JUMPDEST PUSH2 0x199 PUSH2 0x573 JUMP JUMPDEST PUSH1 0x40 MLOAD PUSH2 0x1A6 SWAP2 SWAP1 PUSH2 0x13DA JUMP JUMPDEST PUSH1 0x40 MLOAD DUP1 SWAP2 SUB SWAP1 RETURN JUMPDEST PUSH2 0x1C9 PUSH1 0x4 DUP1 CALLDATASIZE SUB DUP2 ADD SWAP1 PUSH2 0x1C4 SWAP2 SWAP1 PUSH2 0x1193 JUMP JUMPDEST PUSH2 0x57B JUMP JUMPDEST PUSH1 0x40 MLOAD PUSH2 0x1D8 SWAP4 SWAP3 SWAP2 SWAP1 PUSH2 0x147D JUMP JUMPDEST PUSH1 0x40 MLOAD DUP1 SWAP2 SUB SWAP1 RETURN JUMPDEST PUSH2 0x1E9 PUSH2 0x6C5 JUMP JUMPDEST PUSH1 0x40 MLOAD PUSH2 0x1F6 SWAP2 SWAP1 PUSH2 0x1417 JUMP JUMPDEST PUSH1 0x40 MLOAD DUP1 SWAP2 SUB SWAP1 RETURN JUMPDEST PUSH2 0x207 PUSH2 0x71C JUMP JUMPDEST PUSH1 0x40 MLOAD PUSH2 0x214 SWAP2 SWAP1 PUSH2 0x13F5 JUMP JUMPDEST PUSH1 0x40 MLOAD DUP1 SWAP2 SUB SWAP1 RETURN JUMPDEST PUSH2 0x237 PUSH1 0x4 DUP1 CALLDATASIZE SUB DUP2 ADD SWAP1 PUSH2 0x232 SWAP2 SWAP1 PUSH2 0x105C JUMP JUMPDEST PUSH2 0x8A9 JUMP JUMPDEST PUSH1 0x40 MLOAD PUSH2 0x244 SWAP2 SWAP1 PUSH2 0x1417 JUMP JUMPDEST PUSH1 0x40 MLOAD DUP1 SWAP2 SUB SWAP1 RETURN JUMPDEST PUSH2 0x267 PUSH1 0x4 DUP1 CALLDATASIZE SUB DUP2 ADD SWAP1 PUSH2 0x262 SWAP2 SWAP1 PUSH2 0x114A JUMP JUMPDEST PUSH2 0x902 JUMP JUMPDEST STOP JUMPDEST PUSH2 0x283 PUSH1 0x4 DUP1 CALLDATASIZE SUB DUP2 ADD SWAP1 PUSH2 0x27E SWAP2 SWAP1 PUSH2 0x105C JUMP JUMPDEST PUSH2 0x9BE JUMP JUMPDEST STOP JUMPDEST PUSH2 0x29F PUSH1 0x4 DUP1 CALLDATASIZE SUB DUP2 ADD SWAP1 PUSH2 0x29A SWAP2 SWAP1 PUSH2 0x105C JUMP JUMPDEST PUSH2 0xAAD JUMP JUMPDEST PUSH1 0x40 MLOAD PUSH2 0x2AD SWAP3 SWAP2 SWAP1 PUSH2 0x1432 JUMP JUMPDEST PUSH1 0x40 MLOAD DUP1 SWAP2 SUB SWAP1 RETURN JUMPDEST PUSH2 0x2BE PUSH2 0xAEB JUMP JUMPDEST PUSH1 0x40 MLOAD PUSH2 0x2CB SWAP2 SWAP1 PUSH2 0x13DA JUMP JUMPDEST PUSH1 0x40 MLOAD DUP1 SWAP2 SUB SWAP1 RETURN JUMPDEST PUSH2 0x2DC PUSH2 0xB0F JUMP JUMPDEST PUSH1 0x40 MLOAD PUSH2 0x2E9 SWAP2 SWAP1 PUSH2 0x1417 JUMP JUMPDEST PUSH1 0x40 MLOAD DUP1 SWAP2 SUB SWAP1 RETURN JUMPDEST PUSH2 0x2FA PUSH2 0xB1F JUMP JUMPDEST PUSH1 0x40 MLOAD PUSH2 0x307 SWAP2 SWAP1 PUSH2 0x1417 JUMP JUMPDEST PUSH1 0x40 MLOAD DUP1 SWAP2 SUB SWAP1 RETURN JUMPDEST PUSH2 0x32A PUSH1 0x4 DUP1 CALLDATASIZE SUB DUP2 ADD SWAP1 PUSH2 0x325 SWAP2 SWAP1 PUSH2 0x105C JUMP JUMPDEST PUSH2 0xB2F JUMP JUMPDEST PUSH1 0x40 MLOAD PUSH2 0x337 SWAP2 SWAP1 PUSH2 0x1417 JUMP JUMPDEST PUSH1 0x40 MLOAD DUP1 SWAP2 SUB SWAP1 RETURN JUMPDEST PUSH2 0x348 PUSH2 0xB88 JUMP JUMPDEST PUSH1 0x40 MLOAD PUSH2 0x355 SWAP2 SWAP1 PUSH2 0x1542 JUMP JUMPDEST PUSH1 0x40 MLOAD DUP1 SWAP2 SUB SWAP1 RETURN JUMPDEST PUSH2 0x378 PUSH1 0x4 DUP1 CALLDATASIZE SUB DUP2 ADD SWAP1 PUSH2 0x373 SWAP2 SWAP1 PUSH2 0x1089 JUMP JUMPDEST PUSH2 0xC0C JUMP JUMPDEST STOP JUMPDEST PUSH1 0x0 DUP1 PUSH1 0x0 SWAP1 POP JUMPDEST PUSH1 0x2 DUP1 SLOAD SWAP1 POP DUP2 LT ISZERO PUSH2 0x3D5 JUMPI PUSH1 0x2 DUP2 DUP2 SLOAD DUP2 LT PUSH2 0x3A3 JUMPI PUSH2 0x3A2 PUSH2 0x1803 JUMP JUMPDEST JUMPDEST SWAP1 PUSH1 0x0 MSTORE PUSH1 0x20 PUSH1 0x0 KECCAK256 SWAP1 PUSH1 0x3 MUL ADD PUSH1 0x2 ADD SLOAD DUP3 PUSH2 0x3C0 SWAP2 SWAP1 PUSH2 0x1619 JUMP JUMPDEST SWAP2 POP DUP1 DUP1 PUSH2 0x3CD SWAP1 PUSH2 0x175C JUMP JUMPDEST SWAP2 POP POP PUSH2 0x382 JUMP JUMPDEST POP SWAP1 JUMP JUMPDEST PUSH1 0x3 SLOAD DUP2 JUMP JUMPDEST PUSH2 0x3E7 PUSH2 0x6C5 JUMP JUMPDEST PUSH2 0x426 JUMPI PUSH1 0x40 MLOAD PUSH32 0x8C379A000000000000000000000000000000000000000000000000000000000 DUP2 MSTORE PUSH1 0x4 ADD PUSH2 0x41D SWAP1 PUSH2 0x1502 JUMP JUMPDEST PUSH1 0x40 MLOAD DUP1 SWAP2 SUB SWAP1 REVERT JUMPDEST PUSH1 0x2 PUSH1 0x40 MLOAD DUP1 PUSH1 0x60 ADD PUSH1 0x40 MSTORE DUP1 DUP5 DUP2 MSTORE PUSH1 0x20 ADD DUP4 DUP2 MSTORE PUSH1 0x20 ADD PUSH1 0x0 DUP2 MSTORE POP SWAP1 DUP1 PUSH1 0x1 DUP2 SLOAD ADD DUP1 DUP3 SSTORE DUP1 SWAP2 POP POP PUSH1 0x1 SWAP1 SUB SWAP1 PUSH1 0x0 MSTORE PUSH1 0x20 PUSH1 0x0 KECCAK256 SWAP1 PUSH1 0x3 MUL ADD PUSH1 0x0 SWAP1 SWAP2 SWAP1 SWAP2 SWAP1 SWAP2 POP PUSH1 0x0 DUP3 ADD MLOAD DUP2 PUSH1 0x0 ADD SWAP1 DUP1 MLOAD SWAP1 PUSH1 0x20 ADD SWAP1 PUSH2 0x489 SWAP3 SWAP2 SWAP1 PUSH2 0xE83 JUMP JUMPDEST POP PUSH1 0x20 DUP3 ADD MLOAD DUP2 PUSH1 0x1 ADD SWAP1 DUP1 MLOAD SWAP1 PUSH1 0x20 ADD SWAP1 PUSH2 0x4A6 SWAP3 SWAP2 SWAP1 PUSH2 0xE83 JUMP JUMPDEST POP PUSH1 0x40 DUP3 ADD MLOAD DUP2 PUSH1 0x2 ADD SSTORE POP POP POP POP JUMP JUMPDEST PUSH1 0x60 PUSH1 0x2 PUSH2 0x4C3 PUSH2 0xB88 JUMP JUMPDEST DUP2 SLOAD DUP2 LT PUSH2 0x4D4 JUMPI PUSH2 0x4D3 PUSH2 0x1803 JUMP JUMPDEST JUMPDEST SWAP1 PUSH1 0x0 MSTORE PUSH1 0x20 PUSH1 0x0 KECCAK256 SWAP1 PUSH1 0x3 MUL ADD PUSH1 0x0 ADD DUP1 SLOAD PUSH2 0x4F0 SWAP1 PUSH2 0x16F9 JUMP JUMPDEST DUP1 PUSH1 0x1F ADD PUSH1 0x20 DUP1 SWAP2 DIV MUL PUSH1 0x20 ADD PUSH1 0x40 MLOAD SWAP1 DUP2 ADD PUSH1 0x40 MSTORE DUP1 SWAP3 SWAP2 SWAP1 DUP2 DUP2 MSTORE PUSH1 0x20 ADD DUP3 DUP1 SLOAD PUSH2 0x51C SWAP1 PUSH2 0x16F9 JUMP JUMPDEST DUP1 ISZERO PUSH2 0x569 JUMPI DUP1 PUSH1 0x1F LT PUSH2 0x53E JUMPI PUSH2 0x100 DUP1 DUP4 SLOAD DIV MUL DUP4 MSTORE SWAP2 PUSH1 0x20 ADD SWAP2 PUSH2 0x569 JUMP JUMPDEST DUP3 ADD SWAP2 SWAP1 PUSH1 0x0 MSTORE PUSH1 0x20 PUSH1 0x0 KECCAK256 SWAP1 JUMPDEST DUP2 SLOAD DUP2 MSTORE SWAP1 PUSH1 0x1 ADD SWAP1 PUSH1 0x20 ADD DUP1 DUP4 GT PUSH2 0x54C JUMPI DUP3 SWAP1 SUB PUSH1 0x1F AND DUP3 ADD SWAP2 JUMPDEST POP POP POP POP POP SWAP1 POP SWAP1 JUMP JUMPDEST PUSH1 0x0 ADDRESS SWAP1 POP SWAP1 JUMP JUMPDEST PUSH1 0x2 DUP2 DUP2 SLOAD DUP2 LT PUSH2 0x58B JUMPI PUSH1 0x0 DUP1 REVERT JUMPDEST SWAP1 PUSH1 0x0 MSTORE PUSH1 0x20 PUSH1 0x0 KECCAK256 SWAP1 PUSH1 0x3 MUL ADD PUSH1 0x0 SWAP2 POP SWAP1 POP DUP1 PUSH1 0x0 ADD DUP1 SLOAD PUSH2 0x5AE SWAP1 PUSH2 0x16F9 JUMP JUMPDEST DUP1 PUSH1 0x1F ADD PUSH1 0x20 DUP1 SWAP2 DIV MUL PUSH1 0x20 ADD PUSH1 0x40 MLOAD SWAP1 DUP2 ADD PUSH1 0x40 MSTORE DUP1 SWAP3 SWAP2 SWAP1 DUP2 DUP2 MSTORE PUSH1 0x20 ADD DUP3 DUP1 SLOAD PUSH2 0x5DA SWAP1 PUSH2 0x16F9 JUMP JUMPDEST DUP1 ISZERO PUSH2 0x627 JUMPI DUP1 PUSH1 0x1F LT PUSH2 0x5FC JUMPI PUSH2 0x100 DUP1 DUP4 SLOAD DIV MUL DUP4 MSTORE SWAP2 PUSH1 0x20 ADD SWAP2 PUSH2 0x627 JUMP JUMPDEST DUP3 ADD SWAP2 SWAP1 PUSH1 0x0 MSTORE PUSH1 0x20 PUSH1 0x0 KECCAK256 SWAP1 JUMPDEST DUP2 SLOAD DUP2 MSTORE SWAP1 PUSH1 0x1 ADD SWAP1 PUSH1 0x20 ADD DUP1 DUP4 GT PUSH2 0x60A JUMPI DUP3 SWAP1 SUB PUSH1 0x1F AND DUP3 ADD SWAP2 JUMPDEST POP POP POP POP POP SWAP1 DUP1 PUSH1 0x1 ADD DUP1 SLOAD PUSH2 0x63C SWAP1 PUSH2 0x16F9 JUMP JUMPDEST DUP1 PUSH1 0x1F ADD PUSH1 0x20 DUP1 SWAP2 DIV MUL PUSH1 0x20 ADD PUSH1 0x40 MLOAD SWAP1 DUP2 ADD PUSH1 0x40 MSTORE DUP1 SWAP3 SWAP2 SWAP1 DUP2 DUP2 MSTORE PUSH1 0x20 ADD DUP3 DUP1 SLOAD PUSH2 0x668 SWAP1 PUSH2 0x16F9 JUMP JUMPDEST DUP1 ISZERO PUSH2 0x6B5 JUMPI DUP1 PUSH1 0x1F LT PUSH2 0x68A JUMPI PUSH2 0x100 DUP1 DUP4 SLOAD DIV MUL DUP4 MSTORE SWAP2 PUSH1 0x20 ADD SWAP2 PUSH2 0x6B5 JUMP JUMPDEST DUP3 ADD SWAP2 SWAP1 PUSH1 0x0 MSTORE PUSH1 0x20 PUSH1 0x0 KECCAK256 SWAP1 JUMPDEST DUP2 SLOAD DUP2 MSTORE SWAP1 PUSH1 0x1 ADD SWAP1 PUSH1 0x20 ADD DUP1 DUP4 GT PUSH2 0x698 JUMPI DUP3 SWAP1 SUB PUSH1 0x1F AND DUP3 ADD SWAP2 JUMPDEST POP POP POP POP POP SWAP1 DUP1 PUSH1 0x2 ADD SLOAD SWAP1 POP DUP4 JUMP JUMPDEST PUSH1 0x0 DUP1 PUSH1 0x0 SWAP1 SLOAD SWAP1 PUSH2 0x100 EXP SWAP1 DIV PUSH20 0xFFFFFFFFFFFFFFFFFFFFFFFFFFFFFFFFFFFFFFFF AND PUSH20 0xFFFFFFFFFFFFFFFFFFFFFFFFFFFFFFFFFFFFFFFF AND CALLER PUSH20 0xFFFFFFFFFFFFFFFFFFFFFFFFFFFFFFFFFFFFFFFF AND EQ SWAP1 POP SWAP1 JUMP JUMPDEST PUSH1 0x60 PUSH1 0x2 DUP1 SLOAD DUP1 PUSH1 0x20 MUL PUSH1 0x20 ADD PUSH1 0x40 MLOAD SWAP1 DUP2 ADD PUSH1 0x40 MSTORE DUP1 SWAP3 SWAP2 SWAP1 DUP2 DUP2 MSTORE PUSH1 0x20 ADD PUSH1 0x0 SWAP1 JUMPDEST DUP3 DUP3 LT ISZERO PUSH2 0x8A0 JUMPI DUP4 DUP3 SWAP1 PUSH1 0x0 MSTORE PUSH1 0x20 PUSH1 0x0 KECCAK256 SWAP1 PUSH1 0x3 MUL ADD PUSH1 0x40 MLOAD DUP1 PUSH1 0x60 ADD PUSH1 0x40 MSTORE SWAP1 DUP2 PUSH1 0x0 DUP3 ADD DUP1 SLOAD PUSH2 0x773 SWAP1 PUSH2 0x16F9 JUMP JUMPDEST DUP1 PUSH1 0x1F ADD PUSH1 0x20 DUP1 SWAP2 DIV MUL PUSH1 0x20 ADD PUSH1 0x40 MLOAD SWAP1 DUP2 ADD PUSH1 0x40 MSTORE DUP1 SWAP3 SWAP2 SWAP1 DUP2 DUP2 MSTORE PUSH1 0x20 ADD DUP3 DUP1 SLOAD PUSH2 0x79F SWAP1 PUSH2 0x16F9 JUMP JUMPDEST DUP1 ISZERO PUSH2 0x7EC JUMPI DUP1 PUSH1 0x1F LT PUSH2 0x7C1 JUMPI PUSH2 0x100 DUP1 DUP4 SLOAD DIV MUL DUP4 MSTORE SWAP2 PUSH1 0x20 ADD SWAP2 PUSH2 0x7EC JUMP JUMPDEST DUP3 ADD SWAP2 SWAP1 PUSH1 0x0 MSTORE PUSH1 0x20 PUSH1 0x0 KECCAK256 SWAP1 JUMPDEST DUP2 SLOAD DUP2 MSTORE SWAP1 PUSH1 0x1 ADD SWAP1 PUSH1 0x20 ADD DUP1 DUP4 GT PUSH2 0x7CF JUMPI DUP3 SWAP1 SUB PUSH1 0x1F AND DUP3 ADD SWAP2 JUMPDEST POP POP POP POP POP DUP2 MSTORE PUSH1 0x20 ADD PUSH1 0x1 DUP3 ADD DUP1 SLOAD PUSH2 0x805 SWAP1 PUSH2 0x16F9 JUMP JUMPDEST DUP1 PUSH1 0x1F ADD PUSH1 0x20 DUP1 SWAP2 DIV MUL PUSH1 0x20 ADD PUSH1 0x40 MLOAD SWAP1 DUP2 ADD PUSH1 0x40 MSTORE DUP1 SWAP3 SWAP2 SWAP1 DUP2 DUP2 MSTORE PUSH1 0x20 ADD DUP3 DUP1 SLOAD PUSH2 0x831 SWAP1 PUSH2 0x16F9 JUMP JUMPDEST DUP1 ISZERO PUSH2 0x87E JUMPI DUP1 PUSH1 0x1F LT PUSH2 0x853 JUMPI PUSH2 0x100 DUP1 DUP4 SLOAD DIV MUL DUP4 MSTORE SWAP2 PUSH1 0x20 ADD SWAP2 PUSH2 0x87E JUMP JUMPDEST DUP3 ADD SWAP2 SWAP1 PUSH1 0x0 MSTORE PUSH1 0x20 PUSH1 0x0 KECCAK256 SWAP1 JUMPDEST DUP2 SLOAD DUP2 MSTORE SWAP1 PUSH1 0x1 ADD SWAP1 PUSH1 0x20 ADD DUP1 DUP4 GT PUSH2 0x861 JUMPI DUP3 SWAP1 SUB PUSH1 0x1F AND DUP3 ADD SWAP2 JUMPDEST POP POP POP POP POP DUP2 MSTORE PUSH1 0x20 ADD PUSH1 0x2 DUP3 ADD SLOAD DUP2 MSTORE POP POP DUP2 MSTORE PUSH1 0x20 ADD SWAP1 PUSH1 0x1 ADD SWAP1 PUSH2 0x740 JUMP JUMPDEST POP POP POP POP SWAP1 POP SWAP1 JUMP JUMPDEST PUSH1 0x0 PUSH1 0x1 PUSH1 0x0 DUP4 PUSH20 0xFFFFFFFFFFFFFFFFFFFFFFFFFFFFFFFFFFFFFFFF AND PUSH20 0xFFFFFFFFFFFFFFFFFFFFFFFFFFFFFFFFFFFFFFFF AND DUP2 MSTORE PUSH1 0x20 ADD SWAP1 DUP2 MSTORE PUSH1 0x20 ADD PUSH1 0x0 KECCAK256 PUSH1 0x0 ADD PUSH1 0x1 SWAP1 SLOAD SWAP1 PUSH2 0x100 EXP SWAP1 DIV PUSH1 0xFF AND SWAP1 POP SWAP2 SWAP1 POP JUMP JUMPDEST PUSH2 0x90A PUSH2 0x6C5 JUMP JUMPDEST PUSH2 0x949 JUMPI PUSH1 0x40 MLOAD PUSH32 0x8C379A000000000000000000000000000000000000000000000000000000000 DUP2 MSTORE PUSH1 0x4 ADD PUSH2 0x940 SWAP1 PUSH2 0x1502 JUMP JUMPDEST PUSH1 0x40 MLOAD DUP1 SWAP2 SUB SWAP1 REVERT JUMPDEST PUSH1 0x2 DUP2 SWAP1 DUP1 PUSH1 0x1 DUP2 SLOAD ADD DUP1 DUP3 SSTORE DUP1 SWAP2 POP POP PUSH1 0x1 SWAP1 SUB SWAP1 PUSH1 0x0 MSTORE PUSH1 0x20 PUSH1 0x0 KECCAK256 SWAP1 PUSH1 0x3 MUL ADD PUSH1 0x0 SWAP1 SWAP2 SWAP1 SWAP2 SWAP1 SWAP2 POP PUSH1 0x0 DUP3 ADD MLOAD DUP2 PUSH1 0x0 ADD SWAP1 DUP1 MLOAD SWAP1 PUSH1 0x20 ADD SWAP1 PUSH2 0x991 SWAP3 SWAP2 SWAP1 PUSH2 0xE83 JUMP JUMPDEST POP PUSH1 0x20 DUP3 ADD MLOAD DUP2 PUSH1 0x1 ADD SWAP1 DUP1 MLOAD SWAP1 PUSH1 0x20 ADD SWAP1 PUSH2 0x9AE SWAP3 SWAP2 SWAP1 PUSH2 0xE83 JUMP JUMPDEST POP PUSH1 0x40 DUP3 ADD MLOAD DUP2 PUSH1 0x2 ADD SSTORE POP POP POP JUMP JUMPDEST PUSH2 0x9C6 PUSH2 0x6C5 JUMP JUMPDEST PUSH2 0xA05 JUMPI PUSH1 0x40 MLOAD PUSH32 0x8C379A000000000000000000000000000000000000000000000000000000000 DUP2 MSTORE PUSH1 0x4 ADD PUSH2 0x9FC SWAP1 PUSH2 0x14C2 JUMP JUMPDEST PUSH1 0x40 MLOAD DUP1 SWAP2 SUB SWAP1 REVERT JUMPDEST DUP1 PUSH2 0xA0F DUP2 PUSH2 0x8A9 JUMP JUMPDEST ISZERO PUSH2 0xA4F JUMPI PUSH1 0x40 MLOAD PUSH32 0x8C379A000000000000000000000000000000000000000000000000000000000 DUP2 MSTORE PUSH1 0x4 ADD PUSH2 0xA46 SWAP1 PUSH2 0x14E2 JUMP JUMPDEST PUSH1 0x40 MLOAD DUP1 SWAP2 SUB SWAP1 REVERT JUMPDEST PUSH1 0x1 DUP1 PUSH1 0x0 DUP5 PUSH20 0xFFFFFFFFFFFFFFFFFFFFFFFFFFFFFFFFFFFFFFFF AND PUSH20 0xFFFFFFFFFFFFFFFFFFFFFFFFFFFFFFFFFFFFFFFF AND DUP2 MSTORE PUSH1 0x20 ADD SWAP1 DUP2 MSTORE PUSH1 0x20 ADD PUSH1 0x0 KECCAK256 PUSH1 0x0 ADD PUSH1 0x0 PUSH2 0x100 EXP DUP2 SLOAD DUP2 PUSH1 0xFF MUL NOT AND SWAP1 DUP4 ISZERO ISZERO MUL OR SWAP1 SSTORE POP POP POP JUMP JUMPDEST PUSH1 0x1 PUSH1 0x20 MSTORE DUP1 PUSH1 0x0 MSTORE PUSH1 0x40 PUSH1 0x0 KECCAK256 PUSH1 0x0 SWAP2 POP SWAP1 POP DUP1 PUSH1 0x0 ADD PUSH1 0x0 SWAP1 SLOAD SWAP1 PUSH2 0x100 EXP SWAP1 DIV PUSH1 0xFF AND SWAP1 DUP1 PUSH1 0x0 ADD PUSH1 0x1 SWAP1 SLOAD SWAP1 PUSH2 0x100 EXP SWAP1 DIV PUSH1 0xFF AND SWAP1 POP DUP3 JUMP JUMPDEST PUSH1 0x0 DUP1 SLOAD SWAP1 PUSH2 0x100 EXP SWAP1 DIV PUSH20 0xFFFFFFFFFFFFFFFFFFFFFFFFFFFFFFFFFFFFFFFF AND DUP2 JUMP JUMPDEST PUSH1 0x0 PUSH2 0xB1A CALLER PUSH2 0x8A9 JUMP JUMPDEST SWAP1 POP SWAP1 JUMP JUMPDEST PUSH1 0x0 PUSH2 0xB2A CALLER PUSH2 0xB2F JUMP JUMPDEST SWAP1 POP SWAP1 JUMP JUMPDEST PUSH1 0x0 PUSH1 0x1 PUSH1 0x0 DUP4 PUSH20 0xFFFFFFFFFFFFFFFFFFFFFFFFFFFFFFFFFFFFFFFF AND PUSH20 0xFFFFFFFFFFFFFFFFFFFFFFFFFFFFFFFFFFFFFFFF AND DUP2 MSTORE PUSH1 0x20 ADD SWAP1 DUP2 MSTORE PUSH1 0x20 ADD PUSH1 0x0 KECCAK256 PUSH1 0x0 ADD PUSH1 0x0 SWAP1 SLOAD SWAP1 PUSH2 0x100 EXP SWAP1 DIV PUSH1 0xFF AND SWAP1 POP SWAP2 SWAP1 POP JUMP JUMPDEST PUSH1 0x0 DUP1 PUSH1 0x0 JUMPDEST PUSH1 0x2 DUP1 SLOAD SWAP1 POP DUP2 LT ISZERO PUSH2 0xC07 JUMPI DUP2 PUSH1 0x2 DUP3 DUP2 SLOAD DUP2 LT PUSH2 0xBB0 JUMPI PUSH2 0xBAF PUSH2 0x1803 JUMP JUMPDEST JUMPDEST SWAP1 PUSH1 0x0 MSTORE PUSH1 0x20 PUSH1 0x0 KECCAK256 SWAP1 PUSH1 0x3 MUL ADD PUSH1 0x2 ADD SLOAD GT ISZERO PUSH2 0xBF4 JUMPI PUSH1 0x2 DUP2 DUP2 SLOAD DUP2 LT PUSH2 0xBDC JUMPI PUSH2 0xBDB PUSH2 0x1803 JUMP JUMPDEST JUMPDEST SWAP1 PUSH1 0x0 MSTORE PUSH1 0x20 PUSH1 0x0 KECCAK256 SWAP1 PUSH1 0x3 MUL ADD PUSH1 0x2 ADD SLOAD SWAP2 POP DUP1 SWAP3 POP JUMPDEST DUP1 DUP1 PUSH2 0xBFF SWAP1 PUSH2 0x175C JUMP JUMPDEST SWAP2 POP POP PUSH2 0xB8E JUMP JUMPDEST POP POP SWAP1 JUMP JUMPDEST CALLER PUSH2 0xC16 DUP2 PUSH2 0x8A9 JUMP JUMPDEST ISZERO PUSH2 0xC56 JUMPI PUSH1 0x40 MLOAD PUSH32 0x8C379A000000000000000000000000000000000000000000000000000000000 DUP2 MSTORE PUSH1 0x4 ADD PUSH2 0xC4D SWAP1 PUSH2 0x14E2 JUMP JUMPDEST PUSH1 0x40 MLOAD DUP1 SWAP2 SUB SWAP1 REVERT JUMPDEST PUSH2 0xC5E PUSH2 0xB1F JUMP JUMPDEST PUSH2 0xC9D JUMPI PUSH1 0x40 MLOAD PUSH32 0x8C379A000000000000000000000000000000000000000000000000000000000 DUP2 MSTORE PUSH1 0x4 ADD PUSH2 0xC94 SWAP1 PUSH2 0x1522 JUMP JUMPDEST PUSH1 0x40 MLOAD DUP1 SWAP2 SUB SWAP1 REVERT JUMPDEST PUSH1 0x0 PUSH1 0x1 PUSH1 0x0 CALLER PUSH20 0xFFFFFFFFFFFFFFFFFFFFFFFFFFFFFFFFFFFFFFFF AND PUSH20 0xFFFFFFFFFFFFFFFFFFFFFFFFFFFFFFFFFFFFFFFF AND DUP2 MSTORE PUSH1 0x20 ADD SWAP1 DUP2 MSTORE PUSH1 0x20 ADD PUSH1 0x0 KECCAK256 SWAP1 POP PUSH1 0x0 JUMPDEST PUSH1 0x2 DUP1 SLOAD SWAP1 POP DUP2 LT ISZERO PUSH2 0xE30 JUMPI PUSH2 0xDA7 PUSH1 0x2 DUP3 DUP2 SLOAD DUP2 LT PUSH2 0xD07 JUMPI PUSH2 0xD06 PUSH2 0x1803 JUMP JUMPDEST JUMPDEST SWAP1 PUSH1 0x0 MSTORE PUSH1 0x20 PUSH1 0x0 KECCAK256 SWAP1 PUSH1 0x3 MUL ADD PUSH1 0x0 ADD DUP1 SLOAD PUSH2 0xD23 SWAP1 PUSH2 0x16F9 JUMP JUMPDEST DUP1 PUSH1 0x1F ADD PUSH1 0x20 DUP1 SWAP2 DIV MUL PUSH1 0x20 ADD PUSH1 0x40 MLOAD SWAP1 DUP2 ADD PUSH1 0x40 MSTORE DUP1 SWAP3 SWAP2 SWAP1 DUP2 DUP2 MSTORE PUSH1 0x20 ADD DUP3 DUP1 SLOAD PUSH2 0xD4F SWAP1 PUSH2 0x16F9 JUMP JUMPDEST DUP1 ISZERO PUSH2 0xD9C JUMPI DUP1 PUSH1 0x1F LT PUSH2 0xD71 JUMPI PUSH2 0x100 DUP1 DUP4 SLOAD DIV MUL DUP4 MSTORE SWAP2 PUSH1 0x20 ADD SWAP2 PUSH2 0xD9C JUMP JUMPDEST DUP3 ADD SWAP2 SWAP1 PUSH1 0x0 MSTORE PUSH1 0x20 PUSH1 0x0 KECCAK256 SWAP1 JUMPDEST DUP2 SLOAD DUP2 MSTORE SWAP1 PUSH1 0x1 ADD SWAP1 PUSH1 0x20 ADD DUP1 DUP4 GT PUSH2 0xD7F JUMPI DUP3 SWAP1 SUB PUSH1 0x1F AND DUP3 ADD SWAP2 JUMPDEST POP POP POP POP POP DUP6 PUSH2 0xE36 JUMP JUMPDEST ISZERO PUSH2 0xDE8 JUMPI PUSH1 0x2 DUP2 DUP2 SLOAD DUP2 LT PUSH2 0xDC0 JUMPI PUSH2 0xDBF PUSH2 0x1803 JUMP JUMPDEST JUMPDEST SWAP1 PUSH1 0x0 MSTORE PUSH1 0x20 PUSH1 0x0 KECCAK256 SWAP1 PUSH1 0x3 MUL ADD PUSH1 0x2 ADD PUSH1 0x0 DUP2 SLOAD DUP1 SWAP3 SWAP2 SWAP1 PUSH2 0xDE2 SWAP1 PUSH2 0x175C JUMP JUMPDEST SWAP2 SWAP1 POP SSTORE POP JUMPDEST PUSH1 0x1 DUP3 PUSH1 0x0 ADD PUSH1 0x1 PUSH2 0x100 EXP DUP2 SLOAD DUP2 PUSH1 0xFF MUL NOT AND SWAP1 DUP4 ISZERO ISZERO MUL OR SWAP1 SSTORE POP PUSH1 0x3 PUSH1 0x0 DUP2 SLOAD DUP1 SWAP3 SWAP2 SWAP1 PUSH2 0xE18 SWAP1 PUSH2 0x175C JUMP JUMPDEST SWAP2 SWAP1 POP SSTORE POP DUP1 DUP1 PUSH2 0xE28 SWAP1 PUSH2 0x175C JUMP JUMPDEST SWAP2 POP POP PUSH2 0xCE3 JUMP JUMPDEST POP POP POP POP JUMP JUMPDEST PUSH1 0x0 PUSH2 0xE41 DUP3 PUSH2 0xE53 JUMP JUMPDEST PUSH2 0xE4A DUP5 PUSH2 0xE53 JUMP JUMPDEST EQ SWAP1 POP SWAP3 SWAP2 POP POP JUMP JUMPDEST PUSH1 0x0 DUP2 PUSH1 0x40 MLOAD PUSH1 0x20 ADD PUSH2 0xE66 SWAP2 SWAP1 PUSH2 0x145B JUMP JUMPDEST PUSH1 0x40 MLOAD PUSH1 0x20 DUP2 DUP4 SUB SUB DUP2 MSTORE SWAP1 PUSH1 0x40 MSTORE DUP1 MLOAD SWAP1 PUSH1 0x20 ADD KECCAK256 SWAP1 POP SWAP2 SWAP1 POP JUMP JUMPDEST DUP3 DUP1 SLOAD PUSH2 0xE8F SWAP1 PUSH2 0x16F9 JUMP JUMPDEST SWAP1 PUSH1 0x0 MSTORE PUSH1 0x20 PUSH1 0x0 KECCAK256 SWAP1 PUSH1 0x1F ADD PUSH1 0x20 SWAP1 DIV DUP2 ADD SWAP3 DUP3 PUSH2 0xEB1 JUMPI PUSH1 0x0 DUP6 SSTORE PUSH2 0xEF8 JUMP JUMPDEST DUP3 PUSH1 0x1F LT PUSH2 0xECA JUMPI DUP1 MLOAD PUSH1 0xFF NOT AND DUP4 DUP1 ADD OR DUP6 SSTORE PUSH2 0xEF8 JUMP JUMPDEST DUP3 DUP1 ADD PUSH1 0x1 ADD DUP6 SSTORE DUP3 ISZERO PUSH2 0xEF8 JUMPI SWAP2 DUP3 ADD JUMPDEST DUP3 DUP2 GT ISZERO PUSH2 0xEF7 JUMPI DUP3 MLOAD DUP3 SSTORE SWAP2 PUSH1 0x20 ADD SWAP2 SWAP1 PUSH1 0x1 ADD SWAP1 PUSH2 0xEDC JUMP JUMPDEST JUMPDEST POP SWAP1 POP PUSH2 0xF05 SWAP2 SWAP1 PUSH2 0xF09 JUMP JUMPDEST POP SWAP1 JUMP JUMPDEST JUMPDEST DUP1 DUP3 GT ISZERO PUSH2 0xF22 JUMPI PUSH1 0x0 DUP2 PUSH1 0x0 SWAP1 SSTORE POP PUSH1 0x1 ADD PUSH2 0xF0A JUMP JUMPDEST POP SWAP1 JUMP JUMPDEST PUSH1 0x0 PUSH2 0xF39 PUSH2 0xF34 DUP5 PUSH2 0x1582 JUMP JUMPDEST PUSH2 0x155D JUMP JUMPDEST SWAP1 POP DUP3 DUP2 MSTORE PUSH1 0x20 DUP2 ADD DUP5 DUP5 DUP5 ADD GT ISZERO PUSH2 0xF55 JUMPI PUSH2 0xF54 PUSH2 0x1870 JUMP JUMPDEST JUMPDEST PUSH2 0xF60 DUP5 DUP3 DUP6 PUSH2 0x16B7 JUMP JUMPDEST POP SWAP4 SWAP3 POP POP POP JUMP JUMPDEST PUSH1 0x0 DUP2 CALLDATALOAD SWAP1 POP PUSH2 0xF77 DUP2 PUSH2 0x1980 JUMP JUMPDEST SWAP3 SWAP2 POP POP JUMP JUMPDEST PUSH1 0x0 DUP3 PUSH1 0x1F DUP4 ADD SLT PUSH2 0xF92 JUMPI PUSH2 0xF91 PUSH2 0x1861 JUMP JUMPDEST JUMPDEST DUP2 CALLDATALOAD PUSH2 0xFA2 DUP5 DUP3 PUSH1 0x20 DUP7 ADD PUSH2 0xF26 JUMP JUMPDEST SWAP2 POP POP SWAP3 SWAP2 POP POP JUMP JUMPDEST PUSH1 0x0 PUSH1 0x60 DUP3 DUP5 SUB SLT ISZERO PUSH2 0xFC1 JUMPI PUSH2 0xFC0 PUSH2 0x1866 JUMP JUMPDEST JUMPDEST PUSH2 0xFCB PUSH1 0x60 PUSH2 0x155D JUMP JUMPDEST SWAP1 POP PUSH1 0x0 DUP3 ADD CALLDATALOAD PUSH8 0xFFFFFFFFFFFFFFFF DUP2 GT ISZERO PUSH2 0xFEB JUMPI PUSH2 0xFEA PUSH2 0x186B JUMP JUMPDEST JUMPDEST PUSH2 0xFF7 DUP5 DUP3 DUP6 ADD PUSH2 0xF7D JUMP JUMPDEST PUSH1 0x0 DUP4 ADD MSTORE POP PUSH1 0x20 DUP3 ADD CALLDATALOAD PUSH8 0xFFFFFFFFFFFFFFFF DUP2 GT ISZERO PUSH2 0x101B JUMPI PUSH2 0x101A PUSH2 0x186B JUMP JUMPDEST JUMPDEST PUSH2 0x1027 DUP5 DUP3 DUP6 ADD PUSH2 0xF7D JUMP JUMPDEST PUSH1 0x20 DUP4 ADD MSTORE POP PUSH1 0x40 PUSH2 0x103B DUP5 DUP3 DUP6 ADD PUSH2 0x1047 JUMP JUMPDEST PUSH1 0x40 DUP4 ADD MSTORE POP SWAP3 SWAP2 POP POP JUMP JUMPDEST PUSH1 0x0 DUP2 CALLDATALOAD SWAP1 POP PUSH2 0x1056 DUP2 PUSH2 0x1997 JUMP JUMPDEST SWAP3 SWAP2 POP POP JUMP JUMPDEST PUSH1 0x0 PUSH1 0x20 DUP3 DUP5 SUB SLT ISZERO PUSH2 0x1072 JUMPI PUSH2 0x1071 PUSH2 0x187A JUMP JUMPDEST JUMPDEST PUSH1 0x0 PUSH2 0x1080 DUP5 DUP3 DUP6 ADD PUSH2 0xF68 JUMP JUMPDEST SWAP2 POP POP SWAP3 SWAP2 POP POP JUMP JUMPDEST PUSH1 0x0 PUSH1 0x20 DUP3 DUP5 SUB SLT ISZERO PUSH2 0x109F JUMPI PUSH2 0x109E PUSH2 0x187A JUMP JUMPDEST JUMPDEST PUSH1 0x0 DUP3 ADD CALLDATALOAD PUSH8 0xFFFFFFFFFFFFFFFF DUP2 GT ISZERO PUSH2 0x10BD JUMPI PUSH2 0x10BC PUSH2 0x1875 JUMP JUMPDEST JUMPDEST PUSH2 0x10C9 DUP5 DUP3 DUP6 ADD PUSH2 0xF7D JUMP JUMPDEST SWAP2 POP POP SWAP3 SWAP2 POP POP JUMP JUMPDEST PUSH1 0x0 DUP1 PUSH1 0x40 DUP4 DUP6 SUB SLT ISZERO PUSH2 0x10E9 JUMPI PUSH2 0x10E8 PUSH2 0x187A JUMP JUMPDEST JUMPDEST PUSH1 0x0 DUP4 ADD CALLDATALOAD PUSH8 0xFFFFFFFFFFFFFFFF DUP2 GT ISZERO PUSH2 0x1107 JUMPI PUSH2 0x1106 PUSH2 0x1875 JUMP JUMPDEST JUMPDEST PUSH2 0x1113 DUP6 DUP3 DUP7 ADD PUSH2 0xF7D JUMP JUMPDEST SWAP3 POP POP PUSH1 0x20 DUP4 ADD CALLDATALOAD PUSH8 0xFFFFFFFFFFFFFFFF DUP2 GT ISZERO PUSH2 0x1134 JUMPI PUSH2 0x1133 PUSH2 0x1875 JUMP JUMPDEST JUMPDEST PUSH2 0x1140 DUP6 DUP3 DUP7 ADD PUSH2 0xF7D JUMP JUMPDEST SWAP2 POP POP SWAP3 POP SWAP3 SWAP1 POP JUMP JUMPDEST PUSH1 0x0 PUSH1 0x20 DUP3 DUP5 SUB SLT ISZERO PUSH2 0x1160 JUMPI PUSH2 0x115F PUSH2 0x187A JUMP JUMPDEST JUMPDEST PUSH1 0x0 DUP3 ADD CALLDATALOAD PUSH8 0xFFFFFFFFFFFFFFFF DUP2 GT ISZERO PUSH2 0x117E JUMPI PUSH2 0x117D PUSH2 0x1875 JUMP JUMPDEST JUMPDEST PUSH2 0x118A DUP5 DUP3 DUP6 ADD PUSH2 0xFAB JUMP JUMPDEST SWAP2 POP POP SWAP3 SWAP2 POP POP JUMP JUMPDEST PUSH1 0x0 PUSH1 0x20 DUP3 DUP5 SUB SLT ISZERO PUSH2 0x11A9 JUMPI PUSH2 0x11A8 PUSH2 0x187A JUMP JUMPDEST JUMPDEST PUSH1 0x0 PUSH2 0x11B7 DUP5 DUP3 DUP6 ADD PUSH2 0x1047 JUMP JUMPDEST SWAP2 POP POP SWAP3 SWAP2 POP POP JUMP JUMPDEST PUSH1 0x0 PUSH2 0x11CC DUP4 DUP4 PUSH2 0x1365 JUMP JUMPDEST SWAP1 POP SWAP3 SWAP2 POP POP JUMP JUMPDEST PUSH2 0x11DD DUP2 PUSH2 0x166F JUMP JUMPDEST DUP3 MSTORE POP POP JUMP JUMPDEST PUSH1 0x0 PUSH2 0x11EE DUP3 PUSH2 0x15C3 JUMP JUMPDEST PUSH2 0x11F8 DUP2 DUP6 PUSH2 0x15E6 JUMP JUMPDEST SWAP4 POP DUP4 PUSH1 0x20 DUP3 MUL DUP6 ADD PUSH2 0x120A DUP6 PUSH2 0x15B3 JUMP JUMPDEST DUP1 PUSH1 0x0 JUMPDEST DUP6 DUP2 LT ISZERO PUSH2 0x1246 JUMPI DUP5 DUP5 SUB DUP10 MSTORE DUP2 MLOAD PUSH2 0x1227 DUP6 DUP3 PUSH2 0x11C0 JUMP JUMPDEST SWAP5 POP PUSH2 0x1232 DUP4 PUSH2 0x15D9 JUMP JUMPDEST SWAP3 POP PUSH1 0x20 DUP11 ADD SWAP10 POP POP PUSH1 0x1 DUP2 ADD SWAP1 POP PUSH2 0x120E JUMP JUMPDEST POP DUP3 SWAP8 POP DUP8 SWAP6 POP POP POP POP POP POP SWAP3 SWAP2 POP POP JUMP JUMPDEST PUSH2 0x1261 DUP2 PUSH2 0x1681 JUMP JUMPDEST DUP3 MSTORE POP POP JUMP JUMPDEST PUSH1 0x0 PUSH2 0x1272 DUP3 PUSH2 0x15CE JUMP JUMPDEST PUSH2 0x127C DUP2 DUP6 PUSH2 0x15F7 JUMP JUMPDEST SWAP4 POP PUSH2 0x128C DUP2 DUP6 PUSH1 0x20 DUP7 ADD PUSH2 0x16C6 JUMP JUMPDEST PUSH2 0x1295 DUP2 PUSH2 0x187F JUMP JUMPDEST DUP5 ADD SWAP2 POP POP SWAP3 SWAP2 POP POP JUMP JUMPDEST PUSH1 0x0 PUSH2 0x12AB DUP3 PUSH2 0x15CE JUMP JUMPDEST PUSH2 0x12B5 DUP2 DUP6 PUSH2 0x1608 JUMP JUMPDEST SWAP4 POP PUSH2 0x12C5 DUP2 DUP6 PUSH1 0x20 DUP7 ADD PUSH2 0x16C6 JUMP JUMPDEST PUSH2 0x12CE DUP2 PUSH2 0x187F JUMP JUMPDEST DUP5 ADD SWAP2 POP POP SWAP3 SWAP2 POP POP JUMP JUMPDEST PUSH1 0x0 PUSH2 0x12E6 PUSH1 0x2F DUP4 PUSH2 0x1608 JUMP JUMPDEST SWAP2 POP PUSH2 0x12F1 DUP3 PUSH2 0x1890 JUMP JUMPDEST PUSH1 0x40 DUP3 ADD SWAP1 POP SWAP2 SWAP1 POP JUMP JUMPDEST PUSH1 0x0 PUSH2 0x1309 PUSH1 0x14 DUP4 PUSH2 0x1608 JUMP JUMPDEST SWAP2 POP PUSH2 0x1314 DUP3 PUSH2 0x18DF JUMP JUMPDEST PUSH1 0x20 DUP3 ADD SWAP1 POP SWAP2 SWAP1 POP JUMP JUMPDEST PUSH1 0x0 PUSH2 0x132C PUSH1 0x2B DUP4 PUSH2 0x1608 JUMP JUMPDEST SWAP2 POP PUSH2 0x1337 DUP3 PUSH2 0x1908 JUMP JUMPDEST PUSH1 0x40 DUP3 ADD SWAP1 POP SWAP2 SWAP1 POP JUMP JUMPDEST PUSH1 0x0 PUSH2 0x134F PUSH1 0x1A DUP4 PUSH2 0x1608 JUMP JUMPDEST SWAP2 POP PUSH2 0x135A DUP3 PUSH2 0x1957 JUMP JUMPDEST PUSH1 0x20 DUP3 ADD SWAP1 POP SWAP2 SWAP1 POP JUMP JUMPDEST PUSH1 0x0 PUSH1 0x60 DUP4 ADD PUSH1 0x0 DUP4 ADD MLOAD DUP5 DUP3 SUB PUSH1 0x0 DUP7 ADD MSTORE PUSH2 0x1382 DUP3 DUP3 PUSH2 0x1267 JUMP JUMPDEST SWAP2 POP POP PUSH1 0x20 DUP4 ADD MLOAD DUP5 DUP3 SUB PUSH1 0x20 DUP7 ADD MSTORE PUSH2 0x139C DUP3 DUP3 PUSH2 0x1267 JUMP JUMPDEST SWAP2 POP POP PUSH1 0x40 DUP4 ADD MLOAD PUSH2 0x13B1 PUSH1 0x40 DUP7 ADD DUP3 PUSH2 0x13BC JUMP JUMPDEST POP DUP1 SWAP2 POP POP SWAP3 SWAP2 POP POP JUMP JUMPDEST PUSH2 0x13C5 DUP2 PUSH2 0x16AD JUMP JUMPDEST DUP3 MSTORE POP POP JUMP JUMPDEST PUSH2 0x13D4 DUP2 PUSH2 0x16AD JUMP JUMPDEST DUP3 MSTORE POP POP JUMP JUMPDEST PUSH1 0x0 PUSH1 0x20 DUP3 ADD SWAP1 POP PUSH2 0x13EF PUSH1 0x0 DUP4 ADD DUP5 PUSH2 0x11D4 JUMP JUMPDEST SWAP3 SWAP2 POP POP JUMP JUMPDEST PUSH1 0x0 PUSH1 0x20 DUP3 ADD SWAP1 POP DUP2 DUP2 SUB PUSH1 0x0 DUP4 ADD MSTORE PUSH2 0x140F DUP2 DUP5 PUSH2 0x11E3 JUMP JUMPDEST SWAP1 POP SWAP3 SWAP2 POP POP JUMP JUMPDEST PUSH1 0x0 PUSH1 0x20 DUP3 ADD SWAP1 POP PUSH2 0x142C PUSH1 0x0 DUP4 ADD DUP5 PUSH2 0x1258 JUMP JUMPDEST SWAP3 SWAP2 POP POP JUMP JUMPDEST PUSH1 0x0 PUSH1 0x40 DUP3 ADD SWAP1 POP PUSH2 0x1447 PUSH1 0x0 DUP4 ADD DUP6 PUSH2 0x1258 JUMP JUMPDEST PUSH2 0x1454 PUSH1 0x20 DUP4 ADD DUP5 PUSH2 0x1258 JUMP JUMPDEST SWAP4 SWAP3 POP POP POP JUMP JUMPDEST PUSH1 0x0 PUSH1 0x20 DUP3 ADD SWAP1 POP DUP2 DUP2 SUB PUSH1 0x0 DUP4 ADD MSTORE PUSH2 0x1475 DUP2 DUP5 PUSH2 0x12A0 JUMP JUMPDEST SWAP1 POP SWAP3 SWAP2 POP POP JUMP JUMPDEST PUSH1 0x0 PUSH1 0x60 DUP3 ADD SWAP1 POP DUP2 DUP2 SUB PUSH1 0x0 DUP4 ADD MSTORE PUSH2 0x1497 DUP2 DUP7 PUSH2 0x12A0 JUMP JUMPDEST SWAP1 POP DUP2 DUP2 SUB PUSH1 0x20 DUP4 ADD MSTORE PUSH2 0x14AB DUP2 DUP6 PUSH2 0x12A0 JUMP JUMPDEST SWAP1 POP PUSH2 0x14BA PUSH1 0x40 DUP4 ADD DUP5 PUSH2 0x13CB JUMP JUMPDEST SWAP5 SWAP4 POP POP POP POP JUMP JUMPDEST PUSH1 0x0 PUSH1 0x20 DUP3 ADD SWAP1 POP DUP2 DUP2 SUB PUSH1 0x0 DUP4 ADD MSTORE PUSH2 0x14DB DUP2 PUSH2 0x12D9 JUMP JUMPDEST SWAP1 POP SWAP2 SWAP1 POP JUMP JUMPDEST PUSH1 0x0 PUSH1 0x20 DUP3 ADD SWAP1 POP DUP2 DUP2 SUB PUSH1 0x0 DUP4 ADD MSTORE PUSH2 0x14FB DUP2 PUSH2 0x12FC JUMP JUMPDEST SWAP1 POP SWAP2 SWAP1 POP JUMP JUMPDEST PUSH1 0x0 PUSH1 0x20 DUP3 ADD SWAP1 POP DUP2 DUP2 SUB PUSH1 0x0 DUP4 ADD MSTORE PUSH2 0x151B DUP2 PUSH2 0x131F JUMP JUMPDEST SWAP1 POP SWAP2 SWAP1 POP JUMP JUMPDEST PUSH1 0x0 PUSH1 0x20 DUP3 ADD SWAP1 POP DUP2 DUP2 SUB PUSH1 0x0 DUP4 ADD MSTORE PUSH2 0x153B DUP2 PUSH2 0x1342 JUMP JUMPDEST SWAP1 POP SWAP2 SWAP1 POP JUMP JUMPDEST PUSH1 0x0 PUSH1 0x20 DUP3 ADD SWAP1 POP PUSH2 0x1557 PUSH1 0x0 DUP4 ADD DUP5 PUSH2 0x13CB JUMP JUMPDEST SWAP3 SWAP2 POP POP JUMP JUMPDEST PUSH1 0x0 PUSH2 0x1567 PUSH2 0x1578 JUMP JUMPDEST SWAP1 POP PUSH2 0x1573 DUP3 DUP3 PUSH2 0x172B JUMP JUMPDEST SWAP2 SWAP1 POP JUMP JUMPDEST PUSH1 0x0 PUSH1 0x40 MLOAD SWAP1 POP SWAP1 JUMP JUMPDEST PUSH1 0x0 PUSH8 0xFFFFFFFFFFFFFFFF DUP3 GT ISZERO PUSH2 0x159D JUMPI PUSH2 0x159C PUSH2 0x1832 JUMP JUMPDEST JUMPDEST PUSH2 0x15A6 DUP3 PUSH2 0x187F JUMP JUMPDEST SWAP1 POP PUSH1 0x20 DUP2 ADD SWAP1 POP SWAP2 SWAP1 POP JUMP JUMPDEST PUSH1 0x0 DUP2 SWAP1 POP PUSH1 0x20 DUP3 ADD SWAP1 POP SWAP2 SWAP1 POP JUMP JUMPDEST PUSH1 0x0 DUP2 MLOAD SWAP1 POP SWAP2 SWAP1 POP JUMP JUMPDEST PUSH1 0x0 DUP2 MLOAD SWAP1 POP SWAP2 SWAP1 POP JUMP JUMPDEST PUSH1 0x0 PUSH1 0x20 DUP3 ADD SWAP1 POP SWAP2 SWAP1 POP JUMP JUMPDEST PUSH1 0x0 DUP3 DUP3 MSTORE PUSH1 0x20 DUP3 ADD SWAP1 POP SWAP3 SWAP2 POP POP JUMP JUMPDEST PUSH1 0x0 DUP3 DUP3 MSTORE PUSH1 0x20 DUP3 ADD SWAP1 POP SWAP3 SWAP2 POP POP JUMP JUMPDEST PUSH1 0x0 DUP3 DUP3 MSTORE PUSH1 0x20 DUP3 ADD SWAP1 POP SWAP3 SWAP2 POP POP JUMP JUMPDEST PUSH1 0x0 PUSH2 0x1624 DUP3 PUSH2 0x16AD JUMP JUMPDEST SWAP2 POP PUSH2 0x162F DUP4 PUSH2 0x16AD JUMP JUMPDEST SWAP3 POP DUP3 PUSH32 0xFFFFFFFFFFFFFFFFFFFFFFFFFFFFFFFFFFFFFFFFFFFFFFFFFFFFFFFFFFFFFFFF SUB DUP3 GT ISZERO PUSH2 0x1664 JUMPI PUSH2 0x1663 PUSH2 0x17A5 JUMP JUMPDEST JUMPDEST DUP3 DUP3 ADD SWAP1 POP SWAP3 SWAP2 POP POP JUMP JUMPDEST PUSH1 0x0 PUSH2 0x167A DUP3 PUSH2 0x168D JUMP JUMPDEST SWAP1 POP SWAP2 SWAP1 POP JUMP JUMPDEST PUSH1 0x0 DUP2 ISZERO ISZERO SWAP1 POP SWAP2 SWAP1 POP JUMP JUMPDEST PUSH1 0x0 PUSH20 0xFFFFFFFFFFFFFFFFFFFFFFFFFFFFFFFFFFFFFFFF DUP3 AND SWAP1 POP SWAP2 SWAP1 POP JUMP JUMPDEST PUSH1 0x0 DUP2 SWAP1 POP SWAP2 SWAP1 POP JUMP JUMPDEST DUP3 DUP2 DUP4 CALLDATACOPY PUSH1 0x0 DUP4 DUP4 ADD MSTORE POP POP POP JUMP JUMPDEST PUSH1 0x0 JUMPDEST DUP4 DUP2 LT ISZERO PUSH2 0x16E4 JUMPI DUP1 DUP3 ADD MLOAD DUP2 DUP5 ADD MSTORE PUSH1 0x20 DUP2 ADD SWAP1 POP PUSH2 0x16C9 JUMP JUMPDEST DUP4 DUP2 GT ISZERO PUSH2 0x16F3 JUMPI PUSH1 0x0 DUP5 DUP5 ADD MSTORE JUMPDEST POP POP POP POP JUMP JUMPDEST PUSH1 0x0 PUSH1 0x2 DUP3 DIV SWAP1 POP PUSH1 0x1 DUP3 AND DUP1 PUSH2 0x1711 JUMPI PUSH1 0x7F DUP3 AND SWAP2 POP JUMPDEST PUSH1 0x20 DUP3 LT DUP2 EQ ISZERO PUSH2 0x1725 JUMPI PUSH2 0x1724 PUSH2 0x17D4 JUMP JUMPDEST JUMPDEST POP SWAP2 SWAP1 POP JUMP JUMPDEST PUSH2 0x1734 DUP3 PUSH2 0x187F JUMP JUMPDEST DUP2 ADD DUP2 DUP2 LT PUSH8 0xFFFFFFFFFFFFFFFF DUP3 GT OR ISZERO PUSH2 0x1753 JUMPI PUSH2 0x1752 PUSH2 0x1832 JUMP JUMPDEST JUMPDEST DUP1 PUSH1 0x40 MSTORE POP POP POP JUMP JUMPDEST PUSH1 0x0 PUSH2 0x1767 DUP3 PUSH2 0x16AD JUMP JUMPDEST SWAP2 POP PUSH32 0xFFFFFFFFFFFFFFFFFFFFFFFFFFFFFFFFFFFFFFFFFFFFFFFFFFFFFFFFFFFFFFFF DUP3 EQ ISZERO PUSH2 0x179A JUMPI PUSH2 0x1799 PUSH2 0x17A5 JUMP JUMPDEST JUMPDEST PUSH1 0x1 DUP3 ADD SWAP1 POP SWAP2 SWAP1 POP JUMP JUMPDEST PUSH32 0x4E487B7100000000000000000000000000000000000000000000000000000000 PUSH1 0x0 MSTORE PUSH1 0x11 PUSH1 0x4 MSTORE PUSH1 0x24 PUSH1 0x0 REVERT JUMPDEST PUSH32 0x4E487B7100000000000000000000000000000000000000000000000000000000 PUSH1 0x0 MSTORE PUSH1 0x22 PUSH1 0x4 MSTORE PUSH1 0x24 PUSH1 0x0 REVERT JUMPDEST PUSH32 0x4E487B7100000000000000000000000000000000000000000000000000000000 PUSH1 0x0 MSTORE PUSH1 0x32 PUSH1 0x4 MSTORE PUSH1 0x24 PUSH1 0x0 REVERT JUMPDEST PUSH32 0x4E487B7100000000000000000000000000000000000000000000000000000000 PUSH1 0x0 MSTORE PUSH1 0x41 PUSH1 0x4 MSTORE PUSH1 0x24 PUSH1 0x0 REVERT JUMPDEST PUSH1 0x0 DUP1 REVERT JUMPDEST PUSH1 0x0 DUP1 REVERT JUMPDEST PUSH1 0x0 DUP1 REVERT JUMPDEST PUSH1 0x0 DUP1 REVERT JUMPDEST PUSH1 0x0 DUP1 REVERT JUMPDEST PUSH1 0x0 DUP1 REVERT JUMPDEST PUSH1 0x0 PUSH1 0x1F NOT PUSH1 0x1F DUP4 ADD AND SWAP1 POP SWAP2 SWAP1 POP JUMP JUMPDEST PUSH32 0x4F6E6C792074686520636F6E7472616374206F776E65722063616E2067697665 PUSH1 0x0 DUP3 ADD MSTORE PUSH32 0x20726967687420746F20766F74652E0000000000000000000000000000000000 PUSH1 0x20 DUP3 ADD MSTORE POP JUMP JUMPDEST PUSH32 0x566F74657220616C726561647920766F7465642E000000000000000000000000 PUSH1 0x0 DUP3 ADD MSTORE POP JUMP JUMPDEST PUSH32 0x4F6E6C792074686520636F6E7472616374206F776E65722063616E2061646420 PUSH1 0x0 DUP3 ADD MSTORE PUSH32 0x63616E646964617465732E000000000000000000000000000000000000000000 PUSH1 0x20 DUP3 ADD MSTORE POP JUMP JUMPDEST PUSH32 0x596F752068617665206E6F7420726967687420746F20766F7465000000000000 PUSH1 0x0 DUP3 ADD MSTORE POP JUMP JUMPDEST PUSH2 0x1989 DUP2 PUSH2 0x166F JUMP JUMPDEST DUP2 EQ PUSH2 0x1994 JUMPI PUSH1 0x0 DUP1 REVERT JUMPDEST POP JUMP JUMPDEST PUSH2 0x19A0 DUP2 PUSH2 0x16AD JUMP JUMPDEST DUP2 EQ PUSH2 0x19AB JUMPI PUSH1 0x0 DUP1 REVERT JUMPDEST POP JUMP INVALID LOG2 PUSH5 0x6970667358 0x22 SLT KECCAK256 0xA5 SWAP7 PUSH2 0xC4E9 INVALID EXTCODEHASH 0xCA 0x25 LOG1 DUP5 0xD0 0xEA PUSH10 0xC416F753099F0DFAAFD4 0xE9 PUSH32 0x4DA84D4C619B64736F6C63430008070033000000000000000000000000000000 "
				},
				"gasEstimates": {
					"creation": {
						"codeDepositCost": "1325600",
						"executionCost": "infinite",
						"totalCost": "infinite"
					},
					"external": {
						"addCandidateAsStruct((string,string,uint256))": "infinite",
						"addCandidateWithSpreadParameters(string,string)": "infinite",
						"areYouContractOwner()": "2563",
						"areYouHaveRigthToVote()": "2661",
						"areYouVoted()": "2689",
						"calculateAmountOfTotalVotes()": "infinite",
						"candidates(uint256)": "infinite",
						"contractOwner()": "2600",
						"getCandidatesList()": "infinite",
						"getContractAddress()": "408",
						"getWinnerName()": "infinite",
						"getWinningCandidate()": "infinite",
						"giveRightToVote(address)": "29418",
						"isAnyoneHaveRigthToVote(address)": "2955",
						"isVoterVoted(address)": "3050",
						"totalVotes()": "2475",
						"vote(string)": "infinite",
						"voters(address)": "infinite"
					},
					"internal": {
						"isSameString(string memory,string memory)": "infinite"
					}
				},
				"methodIdentifiers": {
					"addCandidateAsStruct((string,string,uint256))": "954115f2",
					"addCandidateWithSpreadParameters(string,string)": "10508439",
					"areYouContractOwner()": "3ddf3822",
					"areYouHaveRigthToVote()": "df703622",
					"areYouVoted()": "da265430",
					"calculateAmountOfTotalVotes()": "01c5556a",
					"candidates(uint256)": "3477ee2e",
					"contractOwner()": "ce606ee0",
					"getCandidatesList()": "4aba5f34",
					"getContractAddress()": "32a2c5d0",
					"getWinnerName()": "2bfda515",
					"getWinningCandidate()": "f927cc29",
					"giveRightToVote(address)": "9e7b8d61",
					"isAnyoneHaveRigthToVote(address)": "eacc4e3f",
					"isVoterVoted(address)": "743f7666",
					"totalVotes()": "0d15fd77",
					"vote(string)": "fc36e15b",
					"voters(address)": "a3ec138d"
				}
			},
			"storageLayout": {
				"storage": [
					{
						"astId": 19,
						"contract": "contracts/Ballot/MyBallot.sol:MyBallot",
						"label": "contractOwner",
						"offset": 0,
						"slot": "0",
						"type": "t_address"
					},
					{
						"astId": 24,
						"contract": "contracts/Ballot/MyBallot.sol:MyBallot",
						"label": "voters",
						"offset": 0,
						"slot": "1",
						"type": "t_mapping(t_address,t_struct(Voter)10_storage)"
					},
					{
						"astId": 28,
						"contract": "contracts/Ballot/MyBallot.sol:MyBallot",
						"label": "candidates",
						"offset": 0,
						"slot": "2",
						"type": "t_array(t_struct(Candidate)17_storage)dyn_storage"
					},
					{
						"astId": 30,
						"contract": "contracts/Ballot/MyBallot.sol:MyBallot",
						"label": "totalVotes",
						"offset": 0,
						"slot": "3",
						"type": "t_uint256"
					}
				],
				"types": {
					"t_address": {
						"encoding": "inplace",
						"label": "address",
						"numberOfBytes": "20"
					},
					"t_array(t_struct(Candidate)17_storage)dyn_storage": {
						"base": "t_struct(Candidate)17_storage",
						"encoding": "dynamic_array",
						"label": "struct MyBallot.Candidate[]",
						"numberOfBytes": "32"
					},
					"t_bool": {
						"encoding": "inplace",
						"label": "bool",
						"numberOfBytes": "1"
					},
					"t_mapping(t_address,t_struct(Voter)10_storage)": {
						"encoding": "mapping",
						"key": "t_address",
						"label": "mapping(address => struct MyBallot.Voter)",
						"numberOfBytes": "32",
						"value": "t_struct(Voter)10_storage"
					},
					"t_string_storage": {
						"encoding": "bytes",
						"label": "string",
						"numberOfBytes": "32"
					},
					"t_struct(Candidate)17_storage": {
						"encoding": "inplace",
						"label": "struct MyBallot.Candidate",
						"members": [
							{
								"astId": 12,
								"contract": "contracts/Ballot/MyBallot.sol:MyBallot",
								"label": "name",
								"offset": 0,
								"slot": "0",
								"type": "t_string_storage"
							},
							{
								"astId": 14,
								"contract": "contracts/Ballot/MyBallot.sol:MyBallot",
								"label": "party",
								"offset": 0,
								"slot": "1",
								"type": "t_string_storage"
							},
							{
								"astId": 16,
								"contract": "contracts/Ballot/MyBallot.sol:MyBallot",
								"label": "votesCount",
								"offset": 0,
								"slot": "2",
								"type": "t_uint256"
							}
						],
						"numberOfBytes": "96"
					},
					"t_struct(Voter)10_storage": {
						"encoding": "inplace",
						"label": "struct MyBallot.Voter",
						"members": [
							{
								"astId": 7,
								"contract": "contracts/Ballot/MyBallot.sol:MyBallot",
								"label": "canVote",
								"offset": 0,
								"slot": "0",
								"type": "t_bool"
							},
							{
								"astId": 9,
								"contract": "contracts/Ballot/MyBallot.sol:MyBallot",
								"label": "hasVoted",
								"offset": 1,
								"slot": "0",
								"type": "t_bool"
							}
						],
						"numberOfBytes": "32"
					},
					"t_uint256": {
						"encoding": "inplace",
						"label": "uint256",
						"numberOfBytes": "32"
					}
				}
			},
			"userdoc": {
				"kind": "user",
				"methods": {},
				"version": 1
			}
		}
	}
}