{
	"contracts/Ballot/MyBallot.sol": {
		"MyBallot": {
			"abi": [
				{
					"inputs": [
						{
							"internalType": "string[]",
							"name": "proposalCandidatesName",
							"type": "string[]"
						},
						{
							"internalType": "string[]",
							"name": "proposalCandidatesParty",
							"type": "string[]"
						}
					],
					"stateMutability": "nonpayable",
					"type": "constructor"
				},
				{
					"inputs": [],
					"name": "calculateAmountOfTotalVotes",
					"outputs": [
						{
							"internalType": "uint256",
							"name": "total",
							"type": "uint256"
						}
					],
					"stateMutability": "view",
					"type": "function"
				},
				{
					"inputs": [
						{
							"internalType": "uint256",
							"name": "",
							"type": "uint256"
						}
					],
					"name": "candidates",
					"outputs": [
						{
							"internalType": "string",
							"name": "name",
							"type": "string"
						},
						{
							"internalType": "string",
							"name": "party",
							"type": "string"
						},
						{
							"internalType": "uint256",
							"name": "votesCount",
							"type": "uint256"
						}
					],
					"stateMutability": "view",
					"type": "function"
				},
				{
					"inputs": [],
					"name": "contractOwner",
					"outputs": [
						{
							"internalType": "address",
							"name": "",
							"type": "address"
						}
					],
					"stateMutability": "view",
					"type": "function"
				},
				{
					"inputs": [],
					"name": "getCandidatesList",
					"outputs": [
						{
							"components": [
								{
									"internalType": "string",
									"name": "name",
									"type": "string"
								},
								{
									"internalType": "string",
									"name": "party",
									"type": "string"
								},
								{
									"internalType": "uint256",
									"name": "votesCount",
									"type": "uint256"
								}
							],
							"internalType": "struct MyBallot.Candidate[]",
							"name": "",
							"type": "tuple[]"
						}
					],
					"stateMutability": "view",
					"type": "function"
				},
				{
					"inputs": [],
					"name": "getContractAddress",
					"outputs": [
						{
							"internalType": "address",
							"name": "",
							"type": "address"
						}
					],
					"stateMutability": "view",
					"type": "function"
				},
				{
					"inputs": [],
					"name": "getWinnerName",
					"outputs": [
						{
							"internalType": "string",
							"name": "winnerName",
							"type": "string"
						}
					],
					"stateMutability": "view",
					"type": "function"
				},
				{
					"inputs": [],
					"name": "getWinningProposal",
					"outputs": [
						{
							"internalType": "uint256",
							"name": "winningProposal",
							"type": "uint256"
						}
					],
					"stateMutability": "view",
					"type": "function"
				},
				{
					"inputs": [
						{
							"internalType": "address",
							"name": "voter",
							"type": "address"
						}
					],
					"name": "giveRightToVote",
					"outputs": [],
					"stateMutability": "nonpayable",
					"type": "function"
				},
				{
					"inputs": [
						{
							"internalType": "string",
							"name": "name",
							"type": "string"
						}
					],
					"name": "vote",
					"outputs": [],
					"stateMutability": "nonpayable",
					"type": "function"
				},
				{
					"inputs": [
						{
							"internalType": "address",
							"name": "",
							"type": "address"
						}
					],
					"name": "voters",
					"outputs": [
						{
							"internalType": "bool",
							"name": "canVote",
							"type": "bool"
						},
						{
							"internalType": "bool",
							"name": "hasVoted",
							"type": "bool"
						}
					],
					"stateMutability": "view",
					"type": "function"
				}
			],
			"devdoc": {
				"kind": "dev",
				"methods": {},
				"version": 1
			},
			"evm": {
				"assembly": "    /* \"contracts/Ballot/MyBallot.sol\":132:2911  contract MyBallot {\r... */\n  mstore(0x40, 0x80)\n    /* \"contracts/Ballot/MyBallot.sol\":501:942  constructor(string[] memory proposalCandidatesName, string[] memory proposalCandidatesParty) {\r... */\n  callvalue\n  dup1\n  iszero\n  tag_1\n  jumpi\n  0x00\n  dup1\n  revert\ntag_1:\n  pop\n  mload(0x40)\n  sub(codesize, bytecodeSize)\n  dup1\n  bytecodeSize\n  dup4\n  codecopy\n  dup2\n  dup2\n  add\n  0x40\n  mstore\n  dup2\n  add\n  swap1\n  tag_2\n  swap2\n  swap1\n  tag_3\n  jump\t// in\ntag_2:\n    /* \"contracts/Ballot/MyBallot.sol\":631:641  msg.sender */\n  caller\n    /* \"contracts/Ballot/MyBallot.sol\":615:628  contractOwner */\n  0x00\n  dup1\n    /* \"contracts/Ballot/MyBallot.sol\":615:641  contractOwner = msg.sender */\n  0x0100\n  exp\n  dup2\n  sload\n  dup2\n  0xffffffffffffffffffffffffffffffffffffffff\n  mul\n  not\n  and\n  swap1\n  dup4\n  0xffffffffffffffffffffffffffffffffffffffff\n  and\n  mul\n  or\n  swap1\n  sstore\n  pop\n    /* \"contracts/Ballot/MyBallot.sol\":659:669  uint index */\n  0x00\n    /* \"contracts/Ballot/MyBallot.sol\":654:935  for (uint index = 0; index < proposalCandidatesName.length; index++) {\r... */\ntag_6:\n    /* \"contracts/Ballot/MyBallot.sol\":683:705  proposalCandidatesName */\n  dup3\n    /* \"contracts/Ballot/MyBallot.sol\":683:712  proposalCandidatesName.length */\n  mload\n    /* \"contracts/Ballot/MyBallot.sol\":675:680  index */\n  dup2\n    /* \"contracts/Ballot/MyBallot.sol\":675:712  index < proposalCandidatesName.length */\n  lt\n    /* \"contracts/Ballot/MyBallot.sol\":654:935  for (uint index = 0; index < proposalCandidatesName.length; index++) {\r... */\n  iszero\n  tag_7\n  jumpi\n    /* \"contracts/Ballot/MyBallot.sol\":738:748  candidates */\n  0x02\n    /* \"contracts/Ballot/MyBallot.sol\":754:922  Candidate({\r... */\n  mload(0x40)\n  dup1\n  0x60\n  add\n  0x40\n  mstore\n  dup1\n    /* \"contracts/Ballot/MyBallot.sol\":789:811  proposalCandidatesName */\n  dup6\n    /* \"contracts/Ballot/MyBallot.sol\":812:817  index */\n  dup5\n    /* \"contracts/Ballot/MyBallot.sol\":789:818  proposalCandidatesName[index] */\n  dup2\n  mload\n  dup2\n  lt\n  tag_9\n  jumpi\n  tag_10\n  tag_11\n  jump\t// in\ntag_10:\ntag_9:\n  0x20\n  mul\n  0x20\n  add\n  add\n  mload\n    /* \"contracts/Ballot/MyBallot.sol\":754:922  Candidate({\r... */\n  dup2\n  mstore\n  0x20\n  add\n    /* \"contracts/Ballot/MyBallot.sol\":844:867  proposalCandidatesParty */\n  dup5\n    /* \"contracts/Ballot/MyBallot.sol\":868:873  index */\n  dup5\n    /* \"contracts/Ballot/MyBallot.sol\":844:874  proposalCandidatesParty[index] */\n  dup2\n  mload\n  dup2\n  lt\n  tag_12\n  jumpi\n  tag_13\n  tag_11\n  jump\t// in\ntag_13:\ntag_12:\n  0x20\n  mul\n  0x20\n  add\n  add\n  mload\n    /* \"contracts/Ballot/MyBallot.sol\":754:922  Candidate({\r... */\n  dup2\n  mstore\n  0x20\n  add\n    /* \"contracts/Ballot/MyBallot.sol\":905:906  0 */\n  0x00\n    /* \"contracts/Ballot/MyBallot.sol\":754:922  Candidate({\r... */\n  dup2\n  mstore\n  pop\n    /* \"contracts/Ballot/MyBallot.sol\":738:923  candidates.push(Candidate({\r... */\n  swap1\n  dup1\n  0x01\n  dup2\n  sload\n  add\n  dup1\n  dup3\n  sstore\n  dup1\n  swap2\n  pop\n  pop\n  0x01\n  swap1\n  sub\n  swap1\n  0x00\n  mstore\n  keccak256(0x00, 0x20)\n  swap1\n  0x03\n  mul\n  add\n  0x00\n  swap1\n  swap2\n  swap1\n  swap2\n  swap1\n  swap2\n  pop\n  0x00\n  dup3\n  add\n  mload\n  dup2\n  0x00\n  add\n  swap1\n  dup1\n  mload\n  swap1\n  0x20\n  add\n  swap1\n  tag_15\n  swap3\n  swap2\n  swap1\n  tag_16\n  jump\t// in\ntag_15:\n  pop\n  0x20\n  dup3\n  add\n  mload\n  dup2\n  0x01\n  add\n  swap1\n  dup1\n  mload\n  swap1\n  0x20\n  add\n  swap1\n  tag_17\n  swap3\n  swap2\n  swap1\n  tag_16\n  jump\t// in\ntag_17:\n  pop\n  0x40\n  dup3\n  add\n  mload\n  dup2\n  0x02\n  add\n  sstore\n  pop\n  pop\n    /* \"contracts/Ballot/MyBallot.sol\":714:721  index++ */\n  dup1\n  dup1\n  tag_18\n  swap1\n  tag_19\n  jump\t// in\ntag_18:\n  swap2\n  pop\n  pop\n    /* \"contracts/Ballot/MyBallot.sol\":654:935  for (uint index = 0; index < proposalCandidatesName.length; index++) {\r... */\n  jump(tag_6)\ntag_7:\n  pop\n    /* \"contracts/Ballot/MyBallot.sol\":501:942  constructor(string[] memory proposalCandidatesName, string[] memory proposalCandidatesParty) {\r... */\n  pop\n  pop\n    /* \"contracts/Ballot/MyBallot.sol\":132:2911  contract MyBallot {\r... */\n  jump(tag_20)\ntag_16:\n  dup3\n  dup1\n  sload\n  tag_21\n  swap1\n  tag_22\n  jump\t// in\ntag_21:\n  swap1\n  0x00\n  mstore\n  keccak256(0x00, 0x20)\n  swap1\n  0x1f\n  add\n  0x20\n  swap1\n  div\n  dup2\n  add\n  swap3\n  dup3\n  tag_24\n  jumpi\n  0x00\n  dup6\n  sstore\n  jump(tag_23)\ntag_24:\n  dup3\n  0x1f\n  lt\n  tag_25\n  jumpi\n  dup1\n  mload\n  not(0xff)\n  and\n  dup4\n  dup1\n  add\n  or\n  dup6\n  sstore\n  jump(tag_23)\ntag_25:\n  dup3\n  dup1\n  add\n  0x01\n  add\n  dup6\n  sstore\n  dup3\n  iszero\n  tag_23\n  jumpi\n  swap2\n  dup3\n  add\ntag_26:\n  dup3\n  dup2\n  gt\n  iszero\n  tag_27\n  jumpi\n  dup3\n  mload\n  dup3\n  sstore\n  swap2\n  0x20\n  add\n  swap2\n  swap1\n  0x01\n  add\n  swap1\n  jump(tag_26)\ntag_27:\ntag_23:\n  pop\n  swap1\n  pop\n  tag_28\n  swap2\n  swap1\n  tag_29\n  jump\t// in\ntag_28:\n  pop\n  swap1\n  jump\t// out\ntag_29:\ntag_30:\n  dup1\n  dup3\n  gt\n  iszero\n  tag_31\n  jumpi\n  0x00\n  dup2\n  0x00\n  swap1\n  sstore\n  pop\n  0x01\n  add\n  jump(tag_30)\ntag_31:\n  pop\n  swap1\n  jump\t// out\n    /* \"#utility.yul\":23:995   */\ntag_33:\n    /* \"#utility.yul\":140:145   */\n  0x00\n    /* \"#utility.yul\":165:256   */\n  tag_35\n    /* \"#utility.yul\":181:255   */\n  tag_36\n    /* \"#utility.yul\":248:254   */\n  dup5\n    /* \"#utility.yul\":181:255   */\n  tag_37\n  jump\t// in\ntag_36:\n    /* \"#utility.yul\":165:256   */\n  tag_38\n  jump\t// in\ntag_35:\n    /* \"#utility.yul\":156:256   */\n  swap1\n  pop\n    /* \"#utility.yul\":276:281   */\n  dup1\n    /* \"#utility.yul\":305:311   */\n  dup4\n    /* \"#utility.yul\":298:303   */\n  dup3\n    /* \"#utility.yul\":291:312   */\n  mstore\n    /* \"#utility.yul\":339:343   */\n  0x20\n    /* \"#utility.yul\":332:337   */\n  dup3\n    /* \"#utility.yul\":328:344   */\n  add\n    /* \"#utility.yul\":321:344   */\n  swap1\n  pop\n    /* \"#utility.yul\":365:371   */\n  dup3\n    /* \"#utility.yul\":415:418   */\n  dup6\n    /* \"#utility.yul\":407:411   */\n  0x20\n    /* \"#utility.yul\":399:405   */\n  dup7\n    /* \"#utility.yul\":395:412   */\n  mul\n    /* \"#utility.yul\":390:393   */\n  dup3\n    /* \"#utility.yul\":386:413   */\n  add\n    /* \"#utility.yul\":383:419   */\n  gt\n    /* \"#utility.yul\":380:523   */\n  iszero\n  tag_39\n  jumpi\n    /* \"#utility.yul\":434:513   */\n  tag_40\n  tag_41\n  jump\t// in\ntag_40:\n    /* \"#utility.yul\":380:523   */\ntag_39:\n    /* \"#utility.yul\":547:548   */\n  0x00\n    /* \"#utility.yul\":532:989   */\ntag_42:\n    /* \"#utility.yul\":557:563   */\n  dup6\n    /* \"#utility.yul\":554:555   */\n  dup2\n    /* \"#utility.yul\":551:564   */\n  lt\n    /* \"#utility.yul\":532:989   */\n  iszero\n  tag_44\n  jumpi\n    /* \"#utility.yul\":632:635   */\n  dup2\n    /* \"#utility.yul\":626:636   */\n  mload\n    /* \"#utility.yul\":668:686   */\n  0xffffffffffffffff\n    /* \"#utility.yul\":655:666   */\n  dup2\n    /* \"#utility.yul\":652:687   */\n  gt\n    /* \"#utility.yul\":649:771   */\n  iszero\n  tag_45\n  jumpi\n    /* \"#utility.yul\":690:769   */\n  tag_46\n  tag_47\n  jump\t// in\ntag_46:\n    /* \"#utility.yul\":649:771   */\ntag_45:\n    /* \"#utility.yul\":814:825   */\n  dup1\n    /* \"#utility.yul\":806:812   */\n  dup7\n    /* \"#utility.yul\":802:826   */\n  add\n    /* \"#utility.yul\":852:910   */\n  tag_48\n    /* \"#utility.yul\":906:909   */\n  dup10\n    /* \"#utility.yul\":894:904   */\n  dup3\n    /* \"#utility.yul\":852:910   */\n  tag_49\n  jump\t// in\ntag_48:\n    /* \"#utility.yul\":847:850   */\n  dup6\n    /* \"#utility.yul\":840:911   */\n  mstore\n    /* \"#utility.yul\":940:944   */\n  0x20\n    /* \"#utility.yul\":935:938   */\n  dup6\n    /* \"#utility.yul\":931:945   */\n  add\n    /* \"#utility.yul\":924:945   */\n  swap5\n  pop\n    /* \"#utility.yul\":974:978   */\n  0x20\n    /* \"#utility.yul\":969:972   */\n  dup5\n    /* \"#utility.yul\":965:979   */\n  add\n    /* \"#utility.yul\":958:979   */\n  swap4\n  pop\n    /* \"#utility.yul\":592:989   */\n  pop\n  pop\n    /* \"#utility.yul\":579:580   */\n  0x01\n    /* \"#utility.yul\":576:577   */\n  dup2\n    /* \"#utility.yul\":572:581   */\n  add\n    /* \"#utility.yul\":567:581   */\n  swap1\n  pop\n    /* \"#utility.yul\":532:989   */\n  jump(tag_42)\ntag_44:\n    /* \"#utility.yul\":536:550   */\n  pop\n    /* \"#utility.yul\":146:995   */\n  pop\n  pop\n    /* \"#utility.yul\":23:995   */\n  swap4\n  swap3\n  pop\n  pop\n  pop\n  jump\t// out\n    /* \"#utility.yul\":1001:1422   */\ntag_50:\n    /* \"#utility.yul\":1090:1095   */\n  0x00\n    /* \"#utility.yul\":1115:1181   */\n  tag_52\n    /* \"#utility.yul\":1131:1180   */\n  tag_53\n    /* \"#utility.yul\":1173:1179   */\n  dup5\n    /* \"#utility.yul\":1131:1180   */\n  tag_54\n  jump\t// in\ntag_53:\n    /* \"#utility.yul\":1115:1181   */\n  tag_38\n  jump\t// in\ntag_52:\n    /* \"#utility.yul\":1106:1181   */\n  swap1\n  pop\n    /* \"#utility.yul\":1204:1210   */\n  dup3\n    /* \"#utility.yul\":1197:1202   */\n  dup2\n    /* \"#utility.yul\":1190:1211   */\n  mstore\n    /* \"#utility.yul\":1242:1246   */\n  0x20\n    /* \"#utility.yul\":1235:1240   */\n  dup2\n    /* \"#utility.yul\":1231:1247   */\n  add\n    /* \"#utility.yul\":1280:1283   */\n  dup5\n    /* \"#utility.yul\":1271:1277   */\n  dup5\n    /* \"#utility.yul\":1266:1269   */\n  dup5\n    /* \"#utility.yul\":1262:1278   */\n  add\n    /* \"#utility.yul\":1259:1284   */\n  gt\n    /* \"#utility.yul\":1256:1368   */\n  iszero\n  tag_55\n  jumpi\n    /* \"#utility.yul\":1287:1366   */\n  tag_56\n  tag_57\n  jump\t// in\ntag_56:\n    /* \"#utility.yul\":1256:1368   */\ntag_55:\n    /* \"#utility.yul\":1377:1416   */\n  tag_58\n    /* \"#utility.yul\":1409:1415   */\n  dup5\n    /* \"#utility.yul\":1404:1407   */\n  dup3\n    /* \"#utility.yul\":1399:1402   */\n  dup6\n    /* \"#utility.yul\":1377:1416   */\n  tag_59\n  jump\t// in\ntag_58:\n    /* \"#utility.yul\":1096:1422   */\n  pop\n    /* \"#utility.yul\":1001:1422   */\n  swap4\n  swap3\n  pop\n  pop\n  pop\n  jump\t// out\n    /* \"#utility.yul\":1444:1849   */\ntag_60:\n    /* \"#utility.yul\":1536:1541   */\n  0x00\n    /* \"#utility.yul\":1585:1588   */\n  dup3\n    /* \"#utility.yul\":1578:1582   */\n  0x1f\n    /* \"#utility.yul\":1570:1576   */\n  dup4\n    /* \"#utility.yul\":1566:1583   */\n  add\n    /* \"#utility.yul\":1562:1589   */\n  slt\n    /* \"#utility.yul\":1552:1674   */\n  tag_62\n  jumpi\n    /* \"#utility.yul\":1593:1672   */\n  tag_63\n  tag_47\n  jump\t// in\ntag_63:\n    /* \"#utility.yul\":1552:1674   */\ntag_62:\n    /* \"#utility.yul\":1703:1709   */\n  dup2\n    /* \"#utility.yul\":1697:1710   */\n  mload\n    /* \"#utility.yul\":1728:1843   */\n  tag_64\n    /* \"#utility.yul\":1839:1842   */\n  dup5\n    /* \"#utility.yul\":1831:1837   */\n  dup3\n    /* \"#utility.yul\":1824:1828   */\n  0x20\n    /* \"#utility.yul\":1816:1822   */\n  dup7\n    /* \"#utility.yul\":1812:1829   */\n  add\n    /* \"#utility.yul\":1728:1843   */\n  tag_33\n  jump\t// in\ntag_64:\n    /* \"#utility.yul\":1719:1843   */\n  swap2\n  pop\n    /* \"#utility.yul\":1542:1849   */\n  pop\n    /* \"#utility.yul\":1444:1849   */\n  swap3\n  swap2\n  pop\n  pop\n  jump\t// out\n    /* \"#utility.yul\":1869:2224   */\ntag_49:\n    /* \"#utility.yul\":1936:1941   */\n  0x00\n    /* \"#utility.yul\":1985:1988   */\n  dup3\n    /* \"#utility.yul\":1978:1982   */\n  0x1f\n    /* \"#utility.yul\":1970:1976   */\n  dup4\n    /* \"#utility.yul\":1966:1983   */\n  add\n    /* \"#utility.yul\":1962:1989   */\n  slt\n    /* \"#utility.yul\":1952:2074   */\n  tag_66\n  jumpi\n    /* \"#utility.yul\":1993:2072   */\n  tag_67\n  tag_47\n  jump\t// in\ntag_67:\n    /* \"#utility.yul\":1952:2074   */\ntag_66:\n    /* \"#utility.yul\":2103:2109   */\n  dup2\n    /* \"#utility.yul\":2097:2110   */\n  mload\n    /* \"#utility.yul\":2128:2218   */\n  tag_68\n    /* \"#utility.yul\":2214:2217   */\n  dup5\n    /* \"#utility.yul\":2206:2212   */\n  dup3\n    /* \"#utility.yul\":2199:2203   */\n  0x20\n    /* \"#utility.yul\":2191:2197   */\n  dup7\n    /* \"#utility.yul\":2187:2204   */\n  add\n    /* \"#utility.yul\":2128:2218   */\n  tag_50\n  jump\t// in\ntag_68:\n    /* \"#utility.yul\":2119:2218   */\n  swap2\n  pop\n    /* \"#utility.yul\":1942:2224   */\n  pop\n    /* \"#utility.yul\":1869:2224   */\n  swap3\n  swap2\n  pop\n  pop\n  jump\t// out\n    /* \"#utility.yul\":2230:3183   */\ntag_3:\n    /* \"#utility.yul\":2379:2385   */\n  0x00\n    /* \"#utility.yul\":2387:2393   */\n  dup1\n    /* \"#utility.yul\":2436:2438   */\n  0x40\n    /* \"#utility.yul\":2424:2433   */\n  dup4\n    /* \"#utility.yul\":2415:2422   */\n  dup6\n    /* \"#utility.yul\":2411:2434   */\n  sub\n    /* \"#utility.yul\":2407:2439   */\n  slt\n    /* \"#utility.yul\":2404:2523   */\n  iszero\n  tag_70\n  jumpi\n    /* \"#utility.yul\":2442:2521   */\n  tag_71\n  tag_72\n  jump\t// in\ntag_71:\n    /* \"#utility.yul\":2404:2523   */\ntag_70:\n    /* \"#utility.yul\":2583:2584   */\n  0x00\n    /* \"#utility.yul\":2572:2581   */\n  dup4\n    /* \"#utility.yul\":2568:2585   */\n  add\n    /* \"#utility.yul\":2562:2586   */\n  mload\n    /* \"#utility.yul\":2613:2631   */\n  0xffffffffffffffff\n    /* \"#utility.yul\":2605:2611   */\n  dup2\n    /* \"#utility.yul\":2602:2632   */\n  gt\n    /* \"#utility.yul\":2599:2716   */\n  iszero\n  tag_73\n  jumpi\n    /* \"#utility.yul\":2635:2714   */\n  tag_74\n  tag_75\n  jump\t// in\ntag_74:\n    /* \"#utility.yul\":2599:2716   */\ntag_73:\n    /* \"#utility.yul\":2740:2839   */\n  tag_76\n    /* \"#utility.yul\":2831:2838   */\n  dup6\n    /* \"#utility.yul\":2822:2828   */\n  dup3\n    /* \"#utility.yul\":2811:2820   */\n  dup7\n    /* \"#utility.yul\":2807:2829   */\n  add\n    /* \"#utility.yul\":2740:2839   */\n  tag_60\n  jump\t// in\ntag_76:\n    /* \"#utility.yul\":2730:2839   */\n  swap3\n  pop\n    /* \"#utility.yul\":2533:2849   */\n  pop\n    /* \"#utility.yul\":2909:2911   */\n  0x20\n    /* \"#utility.yul\":2898:2907   */\n  dup4\n    /* \"#utility.yul\":2894:2912   */\n  add\n    /* \"#utility.yul\":2888:2913   */\n  mload\n    /* \"#utility.yul\":2940:2958   */\n  0xffffffffffffffff\n    /* \"#utility.yul\":2932:2938   */\n  dup2\n    /* \"#utility.yul\":2929:2959   */\n  gt\n    /* \"#utility.yul\":2926:3043   */\n  iszero\n  tag_77\n  jumpi\n    /* \"#utility.yul\":2962:3041   */\n  tag_78\n  tag_75\n  jump\t// in\ntag_78:\n    /* \"#utility.yul\":2926:3043   */\ntag_77:\n    /* \"#utility.yul\":3067:3166   */\n  tag_79\n    /* \"#utility.yul\":3158:3165   */\n  dup6\n    /* \"#utility.yul\":3149:3155   */\n  dup3\n    /* \"#utility.yul\":3138:3147   */\n  dup7\n    /* \"#utility.yul\":3134:3156   */\n  add\n    /* \"#utility.yul\":3067:3166   */\n  tag_60\n  jump\t// in\ntag_79:\n    /* \"#utility.yul\":3057:3166   */\n  swap2\n  pop\n    /* \"#utility.yul\":2859:3176   */\n  pop\n    /* \"#utility.yul\":2230:3183   */\n  swap3\n  pop\n  swap3\n  swap1\n  pop\n  jump\t// out\n    /* \"#utility.yul\":3189:3318   */\ntag_38:\n    /* \"#utility.yul\":3223:3229   */\n  0x00\n    /* \"#utility.yul\":3250:3270   */\n  tag_81\n  tag_82\n  jump\t// in\ntag_81:\n    /* \"#utility.yul\":3240:3270   */\n  swap1\n  pop\n    /* \"#utility.yul\":3279:3312   */\n  tag_83\n    /* \"#utility.yul\":3307:3311   */\n  dup3\n    /* \"#utility.yul\":3299:3305   */\n  dup3\n    /* \"#utility.yul\":3279:3312   */\n  tag_84\n  jump\t// in\ntag_83:\n    /* \"#utility.yul\":3189:3318   */\n  swap2\n  swap1\n  pop\n  jump\t// out\n    /* \"#utility.yul\":3324:3399   */\ntag_82:\n    /* \"#utility.yul\":3357:3363   */\n  0x00\n    /* \"#utility.yul\":3390:3392   */\n  0x40\n    /* \"#utility.yul\":3384:3393   */\n  mload\n    /* \"#utility.yul\":3374:3393   */\n  swap1\n  pop\n    /* \"#utility.yul\":3324:3399   */\n  swap1\n  jump\t// out\n    /* \"#utility.yul\":3405:3726   */\ntag_37:\n    /* \"#utility.yul\":3492:3496   */\n  0x00\n    /* \"#utility.yul\":3582:3600   */\n  0xffffffffffffffff\n    /* \"#utility.yul\":3574:3580   */\n  dup3\n    /* \"#utility.yul\":3571:3601   */\n  gt\n    /* \"#utility.yul\":3568:3624   */\n  iszero\n  tag_87\n  jumpi\n    /* \"#utility.yul\":3604:3622   */\n  tag_88\n  tag_89\n  jump\t// in\ntag_88:\n    /* \"#utility.yul\":3568:3624   */\ntag_87:\n    /* \"#utility.yul\":3654:3658   */\n  0x20\n    /* \"#utility.yul\":3646:3652   */\n  dup3\n    /* \"#utility.yul\":3642:3659   */\n  mul\n    /* \"#utility.yul\":3634:3659   */\n  swap1\n  pop\n    /* \"#utility.yul\":3714:3718   */\n  0x20\n    /* \"#utility.yul\":3708:3712   */\n  dup2\n    /* \"#utility.yul\":3704:3719   */\n  add\n    /* \"#utility.yul\":3696:3719   */\n  swap1\n  pop\n    /* \"#utility.yul\":3405:3726   */\n  swap2\n  swap1\n  pop\n  jump\t// out\n    /* \"#utility.yul\":3732:4040   */\ntag_54:\n    /* \"#utility.yul\":3794:3798   */\n  0x00\n    /* \"#utility.yul\":3884:3902   */\n  0xffffffffffffffff\n    /* \"#utility.yul\":3876:3882   */\n  dup3\n    /* \"#utility.yul\":3873:3903   */\n  gt\n    /* \"#utility.yul\":3870:3926   */\n  iszero\n  tag_91\n  jumpi\n    /* \"#utility.yul\":3906:3924   */\n  tag_92\n  tag_89\n  jump\t// in\ntag_92:\n    /* \"#utility.yul\":3870:3926   */\ntag_91:\n    /* \"#utility.yul\":3944:3973   */\n  tag_93\n    /* \"#utility.yul\":3966:3972   */\n  dup3\n    /* \"#utility.yul\":3944:3973   */\n  tag_94\n  jump\t// in\ntag_93:\n    /* \"#utility.yul\":3936:3973   */\n  swap1\n  pop\n    /* \"#utility.yul\":4028:4032   */\n  0x20\n    /* \"#utility.yul\":4022:4026   */\n  dup2\n    /* \"#utility.yul\":4018:4033   */\n  add\n    /* \"#utility.yul\":4010:4033   */\n  swap1\n  pop\n    /* \"#utility.yul\":3732:4040   */\n  swap2\n  swap1\n  pop\n  jump\t// out\n    /* \"#utility.yul\":4046:4123   */\ntag_95:\n    /* \"#utility.yul\":4083:4090   */\n  0x00\n    /* \"#utility.yul\":4112:4117   */\n  dup2\n    /* \"#utility.yul\":4101:4117   */\n  swap1\n  pop\n    /* \"#utility.yul\":4046:4123   */\n  swap2\n  swap1\n  pop\n  jump\t// out\n    /* \"#utility.yul\":4129:4436   */\ntag_59:\n    /* \"#utility.yul\":4197:4198   */\n  0x00\n    /* \"#utility.yul\":4207:4320   */\ntag_98:\n    /* \"#utility.yul\":4221:4227   */\n  dup4\n    /* \"#utility.yul\":4218:4219   */\n  dup2\n    /* \"#utility.yul\":4215:4228   */\n  lt\n    /* \"#utility.yul\":4207:4320   */\n  iszero\n  tag_100\n  jumpi\n    /* \"#utility.yul\":4306:4307   */\n  dup1\n    /* \"#utility.yul\":4301:4304   */\n  dup3\n    /* \"#utility.yul\":4297:4308   */\n  add\n    /* \"#utility.yul\":4291:4309   */\n  mload\n    /* \"#utility.yul\":4287:4288   */\n  dup2\n    /* \"#utility.yul\":4282:4285   */\n  dup5\n    /* \"#utility.yul\":4278:4289   */\n  add\n    /* \"#utility.yul\":4271:4310   */\n  mstore\n    /* \"#utility.yul\":4243:4245   */\n  0x20\n    /* \"#utility.yul\":4240:4241   */\n  dup2\n    /* \"#utility.yul\":4236:4246   */\n  add\n    /* \"#utility.yul\":4231:4246   */\n  swap1\n  pop\n    /* \"#utility.yul\":4207:4320   */\n  jump(tag_98)\ntag_100:\n    /* \"#utility.yul\":4338:4344   */\n  dup4\n    /* \"#utility.yul\":4335:4336   */\n  dup2\n    /* \"#utility.yul\":4332:4345   */\n  gt\n    /* \"#utility.yul\":4329:4430   */\n  iszero\n  tag_101\n  jumpi\n    /* \"#utility.yul\":4418:4419   */\n  0x00\n    /* \"#utility.yul\":4409:4415   */\n  dup5\n    /* \"#utility.yul\":4404:4407   */\n  dup5\n    /* \"#utility.yul\":4400:4416   */\n  add\n    /* \"#utility.yul\":4393:4420   */\n  mstore\n    /* \"#utility.yul\":4329:4430   */\ntag_101:\n    /* \"#utility.yul\":4178:4436   */\n  pop\n    /* \"#utility.yul\":4129:4436   */\n  pop\n  pop\n  pop\n  jump\t// out\n    /* \"#utility.yul\":4442:4762   */\ntag_22:\n    /* \"#utility.yul\":4486:4492   */\n  0x00\n    /* \"#utility.yul\":4523:4524   */\n  0x02\n    /* \"#utility.yul\":4517:4521   */\n  dup3\n    /* \"#utility.yul\":4513:4525   */\n  div\n    /* \"#utility.yul\":4503:4525   */\n  swap1\n  pop\n    /* \"#utility.yul\":4570:4571   */\n  0x01\n    /* \"#utility.yul\":4564:4568   */\n  dup3\n    /* \"#utility.yul\":4560:4572   */\n  and\n    /* \"#utility.yul\":4591:4609   */\n  dup1\n    /* \"#utility.yul\":4581:4662   */\n  tag_103\n  jumpi\n    /* \"#utility.yul\":4647:4651   */\n  0x7f\n    /* \"#utility.yul\":4639:4645   */\n  dup3\n    /* \"#utility.yul\":4635:4652   */\n  and\n    /* \"#utility.yul\":4625:4652   */\n  swap2\n  pop\n    /* \"#utility.yul\":4581:4662   */\ntag_103:\n    /* \"#utility.yul\":4709:4711   */\n  0x20\n    /* \"#utility.yul\":4701:4707   */\n  dup3\n    /* \"#utility.yul\":4698:4712   */\n  lt\n    /* \"#utility.yul\":4678:4696   */\n  dup2\n    /* \"#utility.yul\":4675:4713   */\n  eq\n    /* \"#utility.yul\":4672:4756   */\n  iszero\n  tag_104\n  jumpi\n    /* \"#utility.yul\":4728:4746   */\n  tag_105\n  tag_106\n  jump\t// in\ntag_105:\n    /* \"#utility.yul\":4672:4756   */\ntag_104:\n    /* \"#utility.yul\":4493:4762   */\n  pop\n    /* \"#utility.yul\":4442:4762   */\n  swap2\n  swap1\n  pop\n  jump\t// out\n    /* \"#utility.yul\":4768:5049   */\ntag_84:\n    /* \"#utility.yul\":4851:4878   */\n  tag_108\n    /* \"#utility.yul\":4873:4877   */\n  dup3\n    /* \"#utility.yul\":4851:4878   */\n  tag_94\n  jump\t// in\ntag_108:\n    /* \"#utility.yul\":4843:4849   */\n  dup2\n    /* \"#utility.yul\":4839:4879   */\n  add\n    /* \"#utility.yul\":4981:4987   */\n  dup2\n    /* \"#utility.yul\":4969:4979   */\n  dup2\n    /* \"#utility.yul\":4966:4988   */\n  lt\n    /* \"#utility.yul\":4945:4963   */\n  0xffffffffffffffff\n    /* \"#utility.yul\":4933:4943   */\n  dup3\n    /* \"#utility.yul\":4930:4964   */\n  gt\n    /* \"#utility.yul\":4927:4989   */\n  or\n    /* \"#utility.yul\":4924:5012   */\n  iszero\n  tag_109\n  jumpi\n    /* \"#utility.yul\":4992:5010   */\n  tag_110\n  tag_89\n  jump\t// in\ntag_110:\n    /* \"#utility.yul\":4924:5012   */\ntag_109:\n    /* \"#utility.yul\":5032:5042   */\n  dup1\n    /* \"#utility.yul\":5028:5030   */\n  0x40\n    /* \"#utility.yul\":5021:5043   */\n  mstore\n    /* \"#utility.yul\":4811:5049   */\n  pop\n    /* \"#utility.yul\":4768:5049   */\n  pop\n  pop\n  jump\t// out\n    /* \"#utility.yul\":5055:5288   */\ntag_19:\n    /* \"#utility.yul\":5094:5097   */\n  0x00\n    /* \"#utility.yul\":5117:5141   */\n  tag_112\n    /* \"#utility.yul\":5135:5140   */\n  dup3\n    /* \"#utility.yul\":5117:5141   */\n  tag_95\n  jump\t// in\ntag_112:\n    /* \"#utility.yul\":5108:5141   */\n  swap2\n  pop\n    /* \"#utility.yul\":5163:5229   */\n  0xffffffffffffffffffffffffffffffffffffffffffffffffffffffffffffffff\n    /* \"#utility.yul\":5156:5161   */\n  dup3\n    /* \"#utility.yul\":5153:5230   */\n  eq\n    /* \"#utility.yul\":5150:5253   */\n  iszero\n  tag_113\n  jumpi\n    /* \"#utility.yul\":5233:5251   */\n  tag_114\n  tag_115\n  jump\t// in\ntag_114:\n    /* \"#utility.yul\":5150:5253   */\ntag_113:\n    /* \"#utility.yul\":5280:5281   */\n  0x01\n    /* \"#utility.yul\":5273:5278   */\n  dup3\n    /* \"#utility.yul\":5269:5282   */\n  add\n    /* \"#utility.yul\":5262:5282   */\n  swap1\n  pop\n    /* \"#utility.yul\":5055:5288   */\n  swap2\n  swap1\n  pop\n  jump\t// out\n    /* \"#utility.yul\":5294:5474   */\ntag_115:\n    /* \"#utility.yul\":5342:5419   */\n  0x4e487b7100000000000000000000000000000000000000000000000000000000\n    /* \"#utility.yul\":5339:5340   */\n  0x00\n    /* \"#utility.yul\":5332:5420   */\n  mstore\n    /* \"#utility.yul\":5439:5443   */\n  0x11\n    /* \"#utility.yul\":5436:5437   */\n  0x04\n    /* \"#utility.yul\":5429:5444   */\n  mstore\n    /* \"#utility.yul\":5463:5467   */\n  0x24\n    /* \"#utility.yul\":5460:5461   */\n  0x00\n    /* \"#utility.yul\":5453:5468   */\n  revert\n    /* \"#utility.yul\":5480:5660   */\ntag_106:\n    /* \"#utility.yul\":5528:5605   */\n  0x4e487b7100000000000000000000000000000000000000000000000000000000\n    /* \"#utility.yul\":5525:5526   */\n  0x00\n    /* \"#utility.yul\":5518:5606   */\n  mstore\n    /* \"#utility.yul\":5625:5629   */\n  0x22\n    /* \"#utility.yul\":5622:5623   */\n  0x04\n    /* \"#utility.yul\":5615:5630   */\n  mstore\n    /* \"#utility.yul\":5649:5653   */\n  0x24\n    /* \"#utility.yul\":5646:5647   */\n  0x00\n    /* \"#utility.yul\":5639:5654   */\n  revert\n    /* \"#utility.yul\":5666:5846   */\ntag_11:\n    /* \"#utility.yul\":5714:5791   */\n  0x4e487b7100000000000000000000000000000000000000000000000000000000\n    /* \"#utility.yul\":5711:5712   */\n  0x00\n    /* \"#utility.yul\":5704:5792   */\n  mstore\n    /* \"#utility.yul\":5811:5815   */\n  0x32\n    /* \"#utility.yul\":5808:5809   */\n  0x04\n    /* \"#utility.yul\":5801:5816   */\n  mstore\n    /* \"#utility.yul\":5835:5839   */\n  0x24\n    /* \"#utility.yul\":5832:5833   */\n  0x00\n    /* \"#utility.yul\":5825:5840   */\n  revert\n    /* \"#utility.yul\":5852:6032   */\ntag_89:\n    /* \"#utility.yul\":5900:5977   */\n  0x4e487b7100000000000000000000000000000000000000000000000000000000\n    /* \"#utility.yul\":5897:5898   */\n  0x00\n    /* \"#utility.yul\":5890:5978   */\n  mstore\n    /* \"#utility.yul\":5997:6001   */\n  0x41\n    /* \"#utility.yul\":5994:5995   */\n  0x04\n    /* \"#utility.yul\":5987:6002   */\n  mstore\n    /* \"#utility.yul\":6021:6025   */\n  0x24\n    /* \"#utility.yul\":6018:6019   */\n  0x00\n    /* \"#utility.yul\":6011:6026   */\n  revert\n    /* \"#utility.yul\":6038:6155   */\ntag_47:\n    /* \"#utility.yul\":6147:6148   */\n  0x00\n    /* \"#utility.yul\":6144:6145   */\n  dup1\n    /* \"#utility.yul\":6137:6149   */\n  revert\n    /* \"#utility.yul\":6161:6278   */\ntag_41:\n    /* \"#utility.yul\":6270:6271   */\n  0x00\n    /* \"#utility.yul\":6267:6268   */\n  dup1\n    /* \"#utility.yul\":6260:6272   */\n  revert\n    /* \"#utility.yul\":6284:6401   */\ntag_57:\n    /* \"#utility.yul\":6393:6394   */\n  0x00\n    /* \"#utility.yul\":6390:6391   */\n  dup1\n    /* \"#utility.yul\":6383:6395   */\n  revert\n    /* \"#utility.yul\":6407:6524   */\ntag_75:\n    /* \"#utility.yul\":6516:6517   */\n  0x00\n    /* \"#utility.yul\":6513:6514   */\n  dup1\n    /* \"#utility.yul\":6506:6518   */\n  revert\n    /* \"#utility.yul\":6530:6647   */\ntag_72:\n    /* \"#utility.yul\":6639:6640   */\n  0x00\n    /* \"#utility.yul\":6636:6637   */\n  dup1\n    /* \"#utility.yul\":6629:6641   */\n  revert\n    /* \"#utility.yul\":6653:6755   */\ntag_94:\n    /* \"#utility.yul\":6694:6700   */\n  0x00\n    /* \"#utility.yul\":6745:6747   */\n  0x1f\n    /* \"#utility.yul\":6741:6748   */\n  not\n    /* \"#utility.yul\":6736:6738   */\n  0x1f\n    /* \"#utility.yul\":6729:6734   */\n  dup4\n    /* \"#utility.yul\":6725:6739   */\n  add\n    /* \"#utility.yul\":6721:6749   */\n  and\n    /* \"#utility.yul\":6711:6749   */\n  swap1\n  pop\n    /* \"#utility.yul\":6653:6755   */\n  swap2\n  swap1\n  pop\n  jump\t// out\n    /* \"contracts/Ballot/MyBallot.sol\":132:2911  contract MyBallot {\r... */\ntag_20:\n  dataSize(sub_0)\n  dup1\n  dataOffset(sub_0)\n  0x00\n  codecopy\n  0x00\n  return\nstop\n\nsub_0: assembly {\n        /* \"contracts/Ballot/MyBallot.sol\":132:2911  contract MyBallot {\r... */\n      mstore(0x40, 0x80)\n      callvalue\n      dup1\n      iszero\n      tag_1\n      jumpi\n      0x00\n      dup1\n      revert\n    tag_1:\n      pop\n      jumpi(tag_2, lt(calldatasize, 0x04))\n      shr(0xe0, calldataload(0x00))\n      dup1\n      0x9e7b8d61\n      gt\n      tag_13\n      jumpi\n      dup1\n      0x9e7b8d61\n      eq\n      tag_8\n      jumpi\n      dup1\n      0xa3ec138d\n      eq\n      tag_9\n      jumpi\n      dup1\n      0xa5134620\n      eq\n      tag_10\n      jumpi\n      dup1\n      0xce606ee0\n      eq\n      tag_11\n      jumpi\n      dup1\n      0xfc36e15b\n      eq\n      tag_12\n      jumpi\n      jump(tag_2)\n    tag_13:\n      dup1\n      0x01c5556a\n      eq\n      tag_3\n      jumpi\n      dup1\n      0x2bfda515\n      eq\n      tag_4\n      jumpi\n      dup1\n      0x32a2c5d0\n      eq\n      tag_5\n      jumpi\n      dup1\n      0x3477ee2e\n      eq\n      tag_6\n      jumpi\n      dup1\n      0x4aba5f34\n      eq\n      tag_7\n      jumpi\n    tag_2:\n      0x00\n      dup1\n      revert\n        /* \"contracts/Ballot/MyBallot.sol\":2701:2908  function calculateAmountOfTotalVotes() public view returns (uint total) {\r... */\n    tag_3:\n      tag_14\n      tag_15\n      jump\t// in\n    tag_14:\n      mload(0x40)\n      tag_16\n      swap2\n      swap1\n      tag_17\n      jump\t// in\n    tag_16:\n      mload(0x40)\n      dup1\n      swap2\n      sub\n      swap1\n      return\n        /* \"contracts/Ballot/MyBallot.sol\":2326:2472  function getWinnerName() public view returns (string memory winnerName)\r... */\n    tag_4:\n      tag_18\n      tag_19\n      jump\t// in\n    tag_18:\n      mload(0x40)\n      tag_20\n      swap2\n      swap1\n      tag_21\n      jump\t// in\n    tag_20:\n      mload(0x40)\n      dup1\n      swap2\n      sub\n      swap1\n      return\n        /* \"contracts/Ballot/MyBallot.sol\":2594:2693  function getContractAddress() public view returns (address) {\r... */\n    tag_5:\n      tag_22\n      tag_23\n      jump\t// in\n    tag_22:\n      mload(0x40)\n      tag_24\n      swap2\n      swap1\n      tag_25\n      jump\t// in\n    tag_24:\n      mload(0x40)\n      dup1\n      swap2\n      sub\n      swap1\n      return\n        /* \"contracts/Ballot/MyBallot.sol\":463:492  Candidate[] public candidates */\n    tag_6:\n      tag_26\n      0x04\n      dup1\n      calldatasize\n      sub\n      dup2\n      add\n      swap1\n      tag_27\n      swap2\n      swap1\n      tag_28\n      jump\t// in\n    tag_27:\n      tag_29\n      jump\t// in\n    tag_26:\n      mload(0x40)\n      tag_30\n      swap4\n      swap3\n      swap2\n      swap1\n      tag_31\n      jump\t// in\n    tag_30:\n      mload(0x40)\n      dup1\n      swap2\n      sub\n      swap1\n      return\n        /* \"contracts/Ballot/MyBallot.sol\":2480:2586  function getCandidatesList() public view returns (Candidate[] memory) {\r... */\n    tag_7:\n      tag_32\n      tag_33\n      jump\t// in\n    tag_32:\n      mload(0x40)\n      tag_34\n      swap2\n      swap1\n      tag_35\n      jump\t// in\n    tag_34:\n      mload(0x40)\n      dup1\n      swap2\n      sub\n      swap1\n      return\n        /* \"contracts/Ballot/MyBallot.sol\":950:1287  function giveRightToVote(address voter) public {\r... */\n    tag_8:\n      tag_36\n      0x04\n      dup1\n      calldatasize\n      sub\n      dup2\n      add\n      swap1\n      tag_37\n      swap2\n      swap1\n      tag_38\n      jump\t// in\n    tag_37:\n      tag_39\n      jump\t// in\n    tag_36:\n      stop\n        /* \"contracts/Ballot/MyBallot.sol\":415:454  mapping(address => Voter) public voters */\n    tag_9:\n      tag_40\n      0x04\n      dup1\n      calldatasize\n      sub\n      dup2\n      add\n      swap1\n      tag_41\n      swap2\n      swap1\n      tag_38\n      jump\t// in\n    tag_41:\n      tag_42\n      jump\t// in\n    tag_40:\n      mload(0x40)\n      tag_43\n      swap3\n      swap2\n      swap1\n      tag_44\n      jump\t// in\n    tag_43:\n      mload(0x40)\n      dup1\n      swap2\n      sub\n      swap1\n      return\n        /* \"contracts/Ballot/MyBallot.sol\":1874:2318  function getWinningProposal() public view returns (uint winningProposal)\r... */\n    tag_10:\n      tag_45\n      tag_46\n      jump\t// in\n    tag_45:\n      mload(0x40)\n      tag_47\n      swap2\n      swap1\n      tag_17\n      jump\t// in\n    tag_47:\n      mload(0x40)\n      dup1\n      swap2\n      sub\n      swap1\n      return\n        /* \"contracts/Ballot/MyBallot.sol\":378:406  address public contractOwner */\n    tag_11:\n      tag_48\n      tag_49\n      jump\t// in\n    tag_48:\n      mload(0x40)\n      tag_50\n      swap2\n      swap1\n      tag_25\n      jump\t// in\n    tag_50:\n      mload(0x40)\n      dup1\n      swap2\n      sub\n      swap1\n      return\n        /* \"contracts/Ballot/MyBallot.sol\":1295:1866  function vote(string memory name) public {\r... */\n    tag_12:\n      tag_51\n      0x04\n      dup1\n      calldatasize\n      sub\n      dup2\n      add\n      swap1\n      tag_52\n      swap2\n      swap1\n      tag_53\n      jump\t// in\n    tag_52:\n      tag_54\n      jump\t// in\n    tag_51:\n      stop\n        /* \"contracts/Ballot/MyBallot.sol\":2701:2908  function calculateAmountOfTotalVotes() public view returns (uint total) {\r... */\n    tag_15:\n        /* \"contracts/Ballot/MyBallot.sol\":2761:2771  uint total */\n      0x00\n        /* \"contracts/Ballot/MyBallot.sol\":2784:2805  uint winningVoteCount */\n      dup1\n        /* \"contracts/Ballot/MyBallot.sol\":2823:2833  uint index */\n      0x00\n        /* \"contracts/Ballot/MyBallot.sol\":2818:2901  for (uint index = 0; index < candidates.length; index++) {\r... */\n    tag_56:\n        /* \"contracts/Ballot/MyBallot.sol\":2847:2857  candidates */\n      0x02\n        /* \"contracts/Ballot/MyBallot.sol\":2847:2864  candidates.length */\n      dup1\n      sload\n      swap1\n      pop\n        /* \"contracts/Ballot/MyBallot.sol\":2839:2844  index */\n      dup2\n        /* \"contracts/Ballot/MyBallot.sol\":2839:2864  index < candidates.length */\n      lt\n        /* \"contracts/Ballot/MyBallot.sol\":2818:2901  for (uint index = 0; index < candidates.length; index++) {\r... */\n      iszero\n      tag_57\n      jumpi\n        /* \"contracts/Ballot/MyBallot.sol\":2866:2873  index++ */\n      dup1\n      dup1\n      tag_59\n      swap1\n      tag_60\n      jump\t// in\n    tag_59:\n      swap2\n      pop\n      pop\n        /* \"contracts/Ballot/MyBallot.sol\":2818:2901  for (uint index = 0; index < candidates.length; index++) {\r... */\n      jump(tag_56)\n    tag_57:\n      pop\n        /* \"contracts/Ballot/MyBallot.sol\":2773:2908  {\r... */\n      pop\n        /* \"contracts/Ballot/MyBallot.sol\":2701:2908  function calculateAmountOfTotalVotes() public view returns (uint total) {\r... */\n      swap1\n      jump\t// out\n        /* \"contracts/Ballot/MyBallot.sol\":2326:2472  function getWinnerName() public view returns (string memory winnerName)\r... */\n    tag_19:\n        /* \"contracts/Ballot/MyBallot.sol\":2372:2396  string memory winnerName */\n      0x60\n        /* \"contracts/Ballot/MyBallot.sol\":2427:2437  candidates */\n      0x02\n        /* \"contracts/Ballot/MyBallot.sol\":2438:2458  getWinningProposal() */\n      tag_62\n        /* \"contracts/Ballot/MyBallot.sol\":2438:2456  getWinningProposal */\n      tag_46\n        /* \"contracts/Ballot/MyBallot.sol\":2438:2458  getWinningProposal() */\n      jump\t// in\n    tag_62:\n        /* \"contracts/Ballot/MyBallot.sol\":2427:2459  candidates[getWinningProposal()] */\n      dup2\n      sload\n      dup2\n      lt\n      tag_63\n      jumpi\n      tag_64\n      tag_65\n      jump\t// in\n    tag_64:\n    tag_63:\n      swap1\n      0x00\n      mstore\n      keccak256(0x00, 0x20)\n      swap1\n      0x03\n      mul\n      add\n        /* \"contracts/Ballot/MyBallot.sol\":2427:2464  candidates[getWinningProposal()].name */\n      0x00\n      add\n        /* \"contracts/Ballot/MyBallot.sol\":2414:2464  winnerName = candidates[getWinningProposal()].name */\n      dup1\n      sload\n      tag_67\n      swap1\n      tag_68\n      jump\t// in\n    tag_67:\n      dup1\n      0x1f\n      add\n      0x20\n      dup1\n      swap2\n      div\n      mul\n      0x20\n      add\n      mload(0x40)\n      swap1\n      dup2\n      add\n      0x40\n      mstore\n      dup1\n      swap3\n      swap2\n      swap1\n      dup2\n      dup2\n      mstore\n      0x20\n      add\n      dup3\n      dup1\n      sload\n      tag_69\n      swap1\n      tag_68\n      jump\t// in\n    tag_69:\n      dup1\n      iszero\n      tag_70\n      jumpi\n      dup1\n      0x1f\n      lt\n      tag_71\n      jumpi\n      0x0100\n      dup1\n      dup4\n      sload\n      div\n      mul\n      dup4\n      mstore\n      swap2\n      0x20\n      add\n      swap2\n      jump(tag_70)\n    tag_71:\n      dup3\n      add\n      swap2\n      swap1\n      0x00\n      mstore\n      keccak256(0x00, 0x20)\n      swap1\n    tag_72:\n      dup2\n      sload\n      dup2\n      mstore\n      swap1\n      0x01\n      add\n      swap1\n      0x20\n      add\n      dup1\n      dup4\n      gt\n      tag_72\n      jumpi\n      dup3\n      swap1\n      sub\n      0x1f\n      and\n      dup3\n      add\n      swap2\n    tag_70:\n      pop\n      pop\n      pop\n      pop\n      pop\n      swap1\n      pop\n        /* \"contracts/Ballot/MyBallot.sol\":2326:2472  function getWinnerName() public view returns (string memory winnerName)\r... */\n      swap1\n      jump\t// out\n        /* \"contracts/Ballot/MyBallot.sol\":2594:2693  function getContractAddress() public view returns (address) {\r... */\n    tag_23:\n        /* \"contracts/Ballot/MyBallot.sol\":2645:2652  address */\n      0x00\n        /* \"contracts/Ballot/MyBallot.sol\":2680:2684  this */\n      address\n        /* \"contracts/Ballot/MyBallot.sol\":2665:2685  return address(this) */\n      swap1\n      pop\n        /* \"contracts/Ballot/MyBallot.sol\":2594:2693  function getContractAddress() public view returns (address) {\r... */\n      swap1\n      jump\t// out\n        /* \"contracts/Ballot/MyBallot.sol\":463:492  Candidate[] public candidates */\n    tag_29:\n      0x02\n      dup2\n      dup2\n      sload\n      dup2\n      lt\n      tag_74\n      jumpi\n      0x00\n      dup1\n      revert\n    tag_74:\n      swap1\n      0x00\n      mstore\n      keccak256(0x00, 0x20)\n      swap1\n      0x03\n      mul\n      add\n      0x00\n      swap2\n      pop\n      swap1\n      pop\n      dup1\n      0x00\n      add\n      dup1\n      sload\n      tag_76\n      swap1\n      tag_68\n      jump\t// in\n    tag_76:\n      dup1\n      0x1f\n      add\n      0x20\n      dup1\n      swap2\n      div\n      mul\n      0x20\n      add\n      mload(0x40)\n      swap1\n      dup2\n      add\n      0x40\n      mstore\n      dup1\n      swap3\n      swap2\n      swap1\n      dup2\n      dup2\n      mstore\n      0x20\n      add\n      dup3\n      dup1\n      sload\n      tag_77\n      swap1\n      tag_68\n      jump\t// in\n    tag_77:\n      dup1\n      iszero\n      tag_78\n      jumpi\n      dup1\n      0x1f\n      lt\n      tag_79\n      jumpi\n      0x0100\n      dup1\n      dup4\n      sload\n      div\n      mul\n      dup4\n      mstore\n      swap2\n      0x20\n      add\n      swap2\n      jump(tag_78)\n    tag_79:\n      dup3\n      add\n      swap2\n      swap1\n      0x00\n      mstore\n      keccak256(0x00, 0x20)\n      swap1\n    tag_80:\n      dup2\n      sload\n      dup2\n      mstore\n      swap1\n      0x01\n      add\n      swap1\n      0x20\n      add\n      dup1\n      dup4\n      gt\n      tag_80\n      jumpi\n      dup3\n      swap1\n      sub\n      0x1f\n      and\n      dup3\n      add\n      swap2\n    tag_78:\n      pop\n      pop\n      pop\n      pop\n      pop\n      swap1\n      dup1\n      0x01\n      add\n      dup1\n      sload\n      tag_81\n      swap1\n      tag_68\n      jump\t// in\n    tag_81:\n      dup1\n      0x1f\n      add\n      0x20\n      dup1\n      swap2\n      div\n      mul\n      0x20\n      add\n      mload(0x40)\n      swap1\n      dup2\n      add\n      0x40\n      mstore\n      dup1\n      swap3\n      swap2\n      swap1\n      dup2\n      dup2\n      mstore\n      0x20\n      add\n      dup3\n      dup1\n      sload\n      tag_82\n      swap1\n      tag_68\n      jump\t// in\n    tag_82:\n      dup1\n      iszero\n      tag_83\n      jumpi\n      dup1\n      0x1f\n      lt\n      tag_84\n      jumpi\n      0x0100\n      dup1\n      dup4\n      sload\n      div\n      mul\n      dup4\n      mstore\n      swap2\n      0x20\n      add\n      swap2\n      jump(tag_83)\n    tag_84:\n      dup3\n      add\n      swap2\n      swap1\n      0x00\n      mstore\n      keccak256(0x00, 0x20)\n      swap1\n    tag_85:\n      dup2\n      sload\n      dup2\n      mstore\n      swap1\n      0x01\n      add\n      swap1\n      0x20\n      add\n      dup1\n      dup4\n      gt\n      tag_85\n      jumpi\n      dup3\n      swap1\n      sub\n      0x1f\n      and\n      dup3\n      add\n      swap2\n    tag_83:\n      pop\n      pop\n      pop\n      pop\n      pop\n      swap1\n      dup1\n      0x02\n      add\n      sload\n      swap1\n      pop\n      dup4\n      jump\t// out\n        /* \"contracts/Ballot/MyBallot.sol\":2480:2586  function getCandidatesList() public view returns (Candidate[] memory) {\r... */\n    tag_33:\n        /* \"contracts/Ballot/MyBallot.sol\":2530:2548  Candidate[] memory */\n      0x60\n        /* \"contracts/Ballot/MyBallot.sol\":2568:2578  candidates */\n      0x02\n        /* \"contracts/Ballot/MyBallot.sol\":2561:2578  return candidates */\n      dup1\n      sload\n      dup1\n      0x20\n      mul\n      0x20\n      add\n      mload(0x40)\n      swap1\n      dup2\n      add\n      0x40\n      mstore\n      dup1\n      swap3\n      swap2\n      swap1\n      dup2\n      dup2\n      mstore\n      0x20\n      add\n      0x00\n      swap1\n    tag_87:\n      dup3\n      dup3\n      lt\n      iszero\n      tag_88\n      jumpi\n      dup4\n      dup3\n      swap1\n      0x00\n      mstore\n      keccak256(0x00, 0x20)\n      swap1\n      0x03\n      mul\n      add\n      mload(0x40)\n      dup1\n      0x60\n      add\n      0x40\n      mstore\n      swap1\n      dup2\n      0x00\n      dup3\n      add\n      dup1\n      sload\n      tag_90\n      swap1\n      tag_68\n      jump\t// in\n    tag_90:\n      dup1\n      0x1f\n      add\n      0x20\n      dup1\n      swap2\n      div\n      mul\n      0x20\n      add\n      mload(0x40)\n      swap1\n      dup2\n      add\n      0x40\n      mstore\n      dup1\n      swap3\n      swap2\n      swap1\n      dup2\n      dup2\n      mstore\n      0x20\n      add\n      dup3\n      dup1\n      sload\n      tag_91\n      swap1\n      tag_68\n      jump\t// in\n    tag_91:\n      dup1\n      iszero\n      tag_92\n      jumpi\n      dup1\n      0x1f\n      lt\n      tag_93\n      jumpi\n      0x0100\n      dup1\n      dup4\n      sload\n      div\n      mul\n      dup4\n      mstore\n      swap2\n      0x20\n      add\n      swap2\n      jump(tag_92)\n    tag_93:\n      dup3\n      add\n      swap2\n      swap1\n      0x00\n      mstore\n      keccak256(0x00, 0x20)\n      swap1\n    tag_94:\n      dup2\n      sload\n      dup2\n      mstore\n      swap1\n      0x01\n      add\n      swap1\n      0x20\n      add\n      dup1\n      dup4\n      gt\n      tag_94\n      jumpi\n      dup3\n      swap1\n      sub\n      0x1f\n      and\n      dup3\n      add\n      swap2\n    tag_92:\n      pop\n      pop\n      pop\n      pop\n      pop\n      dup2\n      mstore\n      0x20\n      add\n      0x01\n      dup3\n      add\n      dup1\n      sload\n      tag_95\n      swap1\n      tag_68\n      jump\t// in\n    tag_95:\n      dup1\n      0x1f\n      add\n      0x20\n      dup1\n      swap2\n      div\n      mul\n      0x20\n      add\n      mload(0x40)\n      swap1\n      dup2\n      add\n      0x40\n      mstore\n      dup1\n      swap3\n      swap2\n      swap1\n      dup2\n      dup2\n      mstore\n      0x20\n      add\n      dup3\n      dup1\n      sload\n      tag_96\n      swap1\n      tag_68\n      jump\t// in\n    tag_96:\n      dup1\n      iszero\n      tag_97\n      jumpi\n      dup1\n      0x1f\n      lt\n      tag_98\n      jumpi\n      0x0100\n      dup1\n      dup4\n      sload\n      div\n      mul\n      dup4\n      mstore\n      swap2\n      0x20\n      add\n      swap2\n      jump(tag_97)\n    tag_98:\n      dup3\n      add\n      swap2\n      swap1\n      0x00\n      mstore\n      keccak256(0x00, 0x20)\n      swap1\n    tag_99:\n      dup2\n      sload\n      dup2\n      mstore\n      swap1\n      0x01\n      add\n      swap1\n      0x20\n      add\n      dup1\n      dup4\n      gt\n      tag_99\n      jumpi\n      dup3\n      swap1\n      sub\n      0x1f\n      and\n      dup3\n      add\n      swap2\n    tag_97:\n      pop\n      pop\n      pop\n      pop\n      pop\n      dup2\n      mstore\n      0x20\n      add\n      0x02\n      dup3\n      add\n      sload\n      dup2\n      mstore\n      pop\n      pop\n      dup2\n      mstore\n      0x20\n      add\n      swap1\n      0x01\n      add\n      swap1\n      jump(tag_87)\n    tag_88:\n      pop\n      pop\n      pop\n      pop\n      swap1\n      pop\n        /* \"contracts/Ballot/MyBallot.sol\":2480:2586  function getCandidatesList() public view returns (Candidate[] memory) {\r... */\n      swap1\n      jump\t// out\n        /* \"contracts/Ballot/MyBallot.sol\":950:1287  function giveRightToVote(address voter) public {\r... */\n    tag_39:\n        /* \"contracts/Ballot/MyBallot.sol\":1044:1057  contractOwner */\n      0x00\n      dup1\n      sload\n      swap1\n      0x0100\n      exp\n      swap1\n      div\n      0xffffffffffffffffffffffffffffffffffffffff\n      and\n        /* \"contracts/Ballot/MyBallot.sol\":1030:1057  msg.sender == contractOwner */\n      0xffffffffffffffffffffffffffffffffffffffff\n      and\n        /* \"contracts/Ballot/MyBallot.sol\":1030:1040  msg.sender */\n      caller\n        /* \"contracts/Ballot/MyBallot.sol\":1030:1057  msg.sender == contractOwner */\n      0xffffffffffffffffffffffffffffffffffffffff\n      and\n      eq\n        /* \"contracts/Ballot/MyBallot.sol\":1008:1132  require(\r... */\n      tag_101\n      jumpi\n      mload(0x40)\n      0x08c379a000000000000000000000000000000000000000000000000000000000\n      dup2\n      mstore\n      0x04\n      add\n      tag_102\n      swap1\n      tag_103\n      jump\t// in\n    tag_102:\n      mload(0x40)\n      dup1\n      swap2\n      sub\n      swap1\n      revert\n    tag_101:\n        /* \"contracts/Ballot/MyBallot.sol\":1166:1172  voters */\n      0x01\n        /* \"contracts/Ballot/MyBallot.sol\":1166:1179  voters[voter] */\n      0x00\n        /* \"contracts/Ballot/MyBallot.sol\":1173:1178  voter */\n      dup3\n        /* \"contracts/Ballot/MyBallot.sol\":1166:1179  voters[voter] */\n      0xffffffffffffffffffffffffffffffffffffffff\n      and\n      0xffffffffffffffffffffffffffffffffffffffff\n      and\n      dup2\n      mstore\n      0x20\n      add\n      swap1\n      dup2\n      mstore\n      0x20\n      add\n      0x00\n      keccak256\n        /* \"contracts/Ballot/MyBallot.sol\":1166:1188  voters[voter].hasVoted */\n      0x00\n      add\n      0x01\n      swap1\n      sload\n      swap1\n      0x0100\n      exp\n      swap1\n      div\n      0xff\n      and\n        /* \"contracts/Ballot/MyBallot.sol\":1165:1188  !voters[voter].hasVoted */\n      iszero\n        /* \"contracts/Ballot/MyBallot.sol\":1143:1240  require(\r... */\n      tag_104\n      jumpi\n      mload(0x40)\n      0x08c379a000000000000000000000000000000000000000000000000000000000\n      dup2\n      mstore\n      0x04\n      add\n      tag_105\n      swap1\n      tag_106\n      jump\t// in\n    tag_105:\n      mload(0x40)\n      dup1\n      swap2\n      sub\n      swap1\n      revert\n    tag_104:\n        /* \"contracts/Ballot/MyBallot.sol\":1275:1279  true */\n      0x01\n        /* \"contracts/Ballot/MyBallot.sol\":1251:1257  voters */\n      dup1\n        /* \"contracts/Ballot/MyBallot.sol\":1251:1264  voters[voter] */\n      0x00\n        /* \"contracts/Ballot/MyBallot.sol\":1258:1263  voter */\n      dup4\n        /* \"contracts/Ballot/MyBallot.sol\":1251:1264  voters[voter] */\n      0xffffffffffffffffffffffffffffffffffffffff\n      and\n      0xffffffffffffffffffffffffffffffffffffffff\n      and\n      dup2\n      mstore\n      0x20\n      add\n      swap1\n      dup2\n      mstore\n      0x20\n      add\n      0x00\n      keccak256\n        /* \"contracts/Ballot/MyBallot.sol\":1251:1272  voters[voter].canVote */\n      0x00\n      add\n      0x00\n        /* \"contracts/Ballot/MyBallot.sol\":1251:1279  voters[voter].canVote = true */\n      0x0100\n      exp\n      dup2\n      sload\n      dup2\n      0xff\n      mul\n      not\n      and\n      swap1\n      dup4\n      iszero\n      iszero\n      mul\n      or\n      swap1\n      sstore\n      pop\n        /* \"contracts/Ballot/MyBallot.sol\":950:1287  function giveRightToVote(address voter) public {\r... */\n      pop\n      jump\t// out\n        /* \"contracts/Ballot/MyBallot.sol\":415:454  mapping(address => Voter) public voters */\n    tag_42:\n      mstore(0x20, 0x01)\n      dup1\n      0x00\n      mstore\n      keccak256(0x00, 0x40)\n      0x00\n      swap2\n      pop\n      swap1\n      pop\n      dup1\n      0x00\n      add\n      0x00\n      swap1\n      sload\n      swap1\n      0x0100\n      exp\n      swap1\n      div\n      0xff\n      and\n      swap1\n      dup1\n      0x00\n      add\n      0x01\n      swap1\n      sload\n      swap1\n      0x0100\n      exp\n      swap1\n      div\n      0xff\n      and\n      swap1\n      pop\n      dup3\n      jump\t// out\n        /* \"contracts/Ballot/MyBallot.sol\":1874:2318  function getWinningProposal() public view returns (uint winningProposal)\r... */\n    tag_46:\n        /* \"contracts/Ballot/MyBallot.sol\":1925:1945  uint winningProposal */\n      0x00\n        /* \"contracts/Ballot/MyBallot.sol\":1963:1984  uint winningVoteCount */\n      dup1\n        /* \"contracts/Ballot/MyBallot.sol\":2002:2021  uint indexCandidate */\n      0x00\n        /* \"contracts/Ballot/MyBallot.sol\":1997:2311  for (uint indexCandidate = 0; indexCandidate < candidates.length; indexCandidate++) {\r... */\n    tag_108:\n        /* \"contracts/Ballot/MyBallot.sol\":2044:2054  candidates */\n      0x02\n        /* \"contracts/Ballot/MyBallot.sol\":2044:2061  candidates.length */\n      dup1\n      sload\n      swap1\n      pop\n        /* \"contracts/Ballot/MyBallot.sol\":2027:2041  indexCandidate */\n      dup2\n        /* \"contracts/Ballot/MyBallot.sol\":2027:2061  indexCandidate < candidates.length */\n      lt\n        /* \"contracts/Ballot/MyBallot.sol\":1997:2311  for (uint indexCandidate = 0; indexCandidate < candidates.length; indexCandidate++) {\r... */\n      iszero\n      tag_109\n      jumpi\n        /* \"contracts/Ballot/MyBallot.sol\":2140:2156  winningVoteCount */\n      dup2\n        /* \"contracts/Ballot/MyBallot.sol\":2100:2110  candidates */\n      0x02\n        /* \"contracts/Ballot/MyBallot.sol\":2111:2125  indexCandidate */\n      dup3\n        /* \"contracts/Ballot/MyBallot.sol\":2100:2126  candidates[indexCandidate] */\n      dup2\n      sload\n      dup2\n      lt\n      tag_111\n      jumpi\n      tag_112\n      tag_65\n      jump\t// in\n    tag_112:\n    tag_111:\n      swap1\n      0x00\n      mstore\n      keccak256(0x00, 0x20)\n      swap1\n      0x03\n      mul\n      add\n        /* \"contracts/Ballot/MyBallot.sol\":2100:2137  candidates[indexCandidate].votesCount */\n      0x02\n      add\n      sload\n        /* \"contracts/Ballot/MyBallot.sol\":2100:2156  candidates[indexCandidate].votesCount > winningVoteCount */\n      gt\n        /* \"contracts/Ballot/MyBallot.sol\":2096:2300  if (candidates[indexCandidate].votesCount > winningVoteCount) {\r... */\n      iszero\n      tag_114\n      jumpi\n        /* \"contracts/Ballot/MyBallot.sol\":2196:2206  candidates */\n      0x02\n        /* \"contracts/Ballot/MyBallot.sol\":2207:2221  indexCandidate */\n      dup2\n        /* \"contracts/Ballot/MyBallot.sol\":2196:2222  candidates[indexCandidate] */\n      dup2\n      sload\n      dup2\n      lt\n      tag_115\n      jumpi\n      tag_116\n      tag_65\n      jump\t// in\n    tag_116:\n    tag_115:\n      swap1\n      0x00\n      mstore\n      keccak256(0x00, 0x20)\n      swap1\n      0x03\n      mul\n      add\n        /* \"contracts/Ballot/MyBallot.sol\":2196:2233  candidates[indexCandidate].votesCount */\n      0x02\n      add\n      sload\n        /* \"contracts/Ballot/MyBallot.sol\":2177:2233  winningVoteCount = candidates[indexCandidate].votesCount */\n      swap2\n      pop\n        /* \"contracts/Ballot/MyBallot.sol\":2270:2284  indexCandidate */\n      dup1\n        /* \"contracts/Ballot/MyBallot.sol\":2252:2284  winningProposal = indexCandidate */\n      swap3\n      pop\n        /* \"contracts/Ballot/MyBallot.sol\":2096:2300  if (candidates[indexCandidate].votesCount > winningVoteCount) {\r... */\n    tag_114:\n        /* \"contracts/Ballot/MyBallot.sol\":2063:2079  indexCandidate++ */\n      dup1\n      dup1\n      tag_118\n      swap1\n      tag_60\n      jump\t// in\n    tag_118:\n      swap2\n      pop\n      pop\n        /* \"contracts/Ballot/MyBallot.sol\":1997:2311  for (uint indexCandidate = 0; indexCandidate < candidates.length; indexCandidate++) {\r... */\n      jump(tag_108)\n    tag_109:\n      pop\n        /* \"contracts/Ballot/MyBallot.sol\":1952:2318  {\r... */\n      pop\n        /* \"contracts/Ballot/MyBallot.sol\":1874:2318  function getWinningProposal() public view returns (uint winningProposal)\r... */\n      swap1\n      jump\t// out\n        /* \"contracts/Ballot/MyBallot.sol\":378:406  address public contractOwner */\n    tag_49:\n      0x00\n      dup1\n      sload\n      swap1\n      0x0100\n      exp\n      swap1\n      div\n      0xffffffffffffffffffffffffffffffffffffffff\n      and\n      dup2\n      jump\t// out\n        /* \"contracts/Ballot/MyBallot.sol\":1295:1866  function vote(string memory name) public {\r... */\n    tag_54:\n        /* \"contracts/Ballot/MyBallot.sol\":1347:1367  Voter storage sender */\n      0x00\n        /* \"contracts/Ballot/MyBallot.sol\":1370:1376  voters */\n      0x01\n        /* \"contracts/Ballot/MyBallot.sol\":1370:1388  voters[msg.sender] */\n      0x00\n        /* \"contracts/Ballot/MyBallot.sol\":1377:1387  msg.sender */\n      caller\n        /* \"contracts/Ballot/MyBallot.sol\":1370:1388  voters[msg.sender] */\n      0xffffffffffffffffffffffffffffffffffffffff\n      and\n      0xffffffffffffffffffffffffffffffffffffffff\n      and\n      dup2\n      mstore\n      0x20\n      add\n      swap1\n      dup2\n      mstore\n      0x20\n      add\n      0x00\n      keccak256\n        /* \"contracts/Ballot/MyBallot.sol\":1347:1388  Voter storage sender = voters[msg.sender] */\n      swap1\n      pop\n        /* \"contracts/Ballot/MyBallot.sol\":1417:1423  sender */\n      dup1\n        /* \"contracts/Ballot/MyBallot.sol\":1417:1431  sender.canVote */\n      0x00\n      add\n      0x00\n      swap1\n      sload\n      swap1\n      0x0100\n      exp\n      swap1\n      div\n      0xff\n      and\n        /* \"contracts/Ballot/MyBallot.sol\":1409:1456  require(sender.canVote, \"Has no right to vote\") */\n      tag_120\n      jumpi\n      mload(0x40)\n      0x08c379a000000000000000000000000000000000000000000000000000000000\n      dup2\n      mstore\n      0x04\n      add\n      tag_121\n      swap1\n      tag_122\n      jump\t// in\n    tag_121:\n      mload(0x40)\n      dup1\n      swap2\n      sub\n      swap1\n      revert\n    tag_120:\n        /* \"contracts/Ballot/MyBallot.sol\":1476:1482  sender */\n      dup1\n        /* \"contracts/Ballot/MyBallot.sol\":1476:1491  sender.hasVoted */\n      0x00\n      add\n      0x01\n      swap1\n      sload\n      swap1\n      0x0100\n      exp\n      swap1\n      div\n      0xff\n      and\n        /* \"contracts/Ballot/MyBallot.sol\":1475:1491  !sender.hasVoted */\n      iszero\n        /* \"contracts/Ballot/MyBallot.sol\":1467:1510  require(!sender.hasVoted, \"Already voted.\") */\n      tag_123\n      jumpi\n      mload(0x40)\n      0x08c379a000000000000000000000000000000000000000000000000000000000\n      dup2\n      mstore\n      0x04\n      add\n      tag_124\n      swap1\n      tag_125\n      jump\t// in\n    tag_124:\n      mload(0x40)\n      dup1\n      swap2\n      sub\n      swap1\n      revert\n    tag_123:\n        /* \"contracts/Ballot/MyBallot.sol\":1523:1542  uint indexCandidate */\n      0x00\n        /* \"contracts/Ballot/MyBallot.sol\":1560:1570  uint index */\n      dup1\n        /* \"contracts/Ballot/MyBallot.sol\":1573:1574  0 */\n      0x00\n        /* \"contracts/Ballot/MyBallot.sol\":1560:1574  uint index = 0 */\n      swap1\n      pop\n        /* \"contracts/Ballot/MyBallot.sol\":1555:1859  for (uint index = 0; index < candidates.length; index++) {\r... */\n    tag_126:\n        /* \"contracts/Ballot/MyBallot.sol\":1584:1594  candidates */\n      0x02\n        /* \"contracts/Ballot/MyBallot.sol\":1584:1601  candidates.length */\n      dup1\n      sload\n      swap1\n      pop\n        /* \"contracts/Ballot/MyBallot.sol\":1576:1581  index */\n      dup2\n        /* \"contracts/Ballot/MyBallot.sol\":1576:1601  index < candidates.length */\n      lt\n        /* \"contracts/Ballot/MyBallot.sol\":1555:1859  for (uint index = 0; index < candidates.length; index++) {\r... */\n      iszero\n      tag_127\n      jumpi\n        /* \"contracts/Ballot/MyBallot.sol\":1700:1704  name */\n      dup4\n        /* \"contracts/Ballot/MyBallot.sol\":1689:1705  abi.encode(name) */\n      add(0x20, mload(0x40))\n      tag_129\n      swap2\n      swap1\n      tag_21\n      jump\t// in\n    tag_129:\n      mload(0x40)\n      0x20\n      dup2\n      dup4\n      sub\n      sub\n      dup2\n      mstore\n      swap1\n      0x40\n      mstore\n        /* \"contracts/Ballot/MyBallot.sol\":1679:1706  keccak256(abi.encode(name)) */\n      dup1\n      mload\n      swap1\n      0x20\n      add\n      keccak256\n        /* \"contracts/Ballot/MyBallot.sol\":1651:1661  candidates */\n      0x02\n        /* \"contracts/Ballot/MyBallot.sol\":1662:1667  index */\n      dup3\n        /* \"contracts/Ballot/MyBallot.sol\":1651:1668  candidates[index] */\n      dup2\n      sload\n      dup2\n      lt\n      tag_130\n      jumpi\n      tag_131\n      tag_65\n      jump\t// in\n    tag_131:\n    tag_130:\n      swap1\n      0x00\n      mstore\n      keccak256(0x00, 0x20)\n      swap1\n      0x03\n      mul\n      add\n        /* \"contracts/Ballot/MyBallot.sol\":1651:1673  candidates[index].name */\n      0x00\n      add\n        /* \"contracts/Ballot/MyBallot.sol\":1640:1674  abi.encode(candidates[index].name) */\n      add(0x20, mload(0x40))\n      tag_133\n      swap2\n      swap1\n      tag_134\n      jump\t// in\n    tag_133:\n      mload(0x40)\n      0x20\n      dup2\n      dup4\n      sub\n      sub\n      dup2\n      mstore\n      swap1\n      0x40\n      mstore\n        /* \"contracts/Ballot/MyBallot.sol\":1630:1675  keccak256(abi.encode(candidates[index].name)) */\n      dup1\n      mload\n      swap1\n      0x20\n      add\n      keccak256\n        /* \"contracts/Ballot/MyBallot.sol\":1630:1706  keccak256(abi.encode(candidates[index].name)) == keccak256(abi.encode(name)) */\n      eq\n        /* \"contracts/Ballot/MyBallot.sol\":1627:1747  if(keccak256(abi.encode(candidates[index].name)) == keccak256(abi.encode(name)))\r... */\n      iszero\n      tag_135\n      jumpi\n        /* \"contracts/Ballot/MyBallot.sol\":1742:1747  index */\n      dup1\n        /* \"contracts/Ballot/MyBallot.sol\":1725:1747  indexCandidate = index */\n      swap2\n      pop\n        /* \"contracts/Ballot/MyBallot.sol\":1627:1747  if(keccak256(abi.encode(candidates[index].name)) == keccak256(abi.encode(name)))\r... */\n    tag_135:\n        /* \"contracts/Ballot/MyBallot.sol\":1766:1776  candidates */\n      0x02\n        /* \"contracts/Ballot/MyBallot.sol\":1777:1791  indexCandidate */\n      dup3\n        /* \"contracts/Ballot/MyBallot.sol\":1766:1792  candidates[indexCandidate] */\n      dup2\n      sload\n      dup2\n      lt\n      tag_136\n      jumpi\n      tag_137\n      tag_65\n      jump\t// in\n    tag_137:\n    tag_136:\n      swap1\n      0x00\n      mstore\n      keccak256(0x00, 0x20)\n      swap1\n      0x03\n      mul\n      add\n        /* \"contracts/Ballot/MyBallot.sol\":1766:1803  candidates[indexCandidate].votesCount */\n      0x02\n      add\n      0x00\n        /* \"contracts/Ballot/MyBallot.sol\":1766:1806  candidates[indexCandidate].votesCount ++ */\n      dup2\n      sload\n      dup1\n      swap3\n      swap2\n      swap1\n      tag_139\n      swap1\n      tag_60\n      jump\t// in\n    tag_139:\n      swap2\n      swap1\n      pop\n      sstore\n      pop\n        /* \"contracts/Ballot/MyBallot.sol\":1843:1847  true */\n      0x01\n        /* \"contracts/Ballot/MyBallot.sol\":1825:1831  sender */\n      dup4\n        /* \"contracts/Ballot/MyBallot.sol\":1825:1840  sender.hasVoted */\n      0x00\n      add\n      0x01\n        /* \"contracts/Ballot/MyBallot.sol\":1825:1847  sender.hasVoted = true */\n      0x0100\n      exp\n      dup2\n      sload\n      dup2\n      0xff\n      mul\n      not\n      and\n      swap1\n      dup4\n      iszero\n      iszero\n      mul\n      or\n      swap1\n      sstore\n      pop\n        /* \"contracts/Ballot/MyBallot.sol\":1603:1610  index++ */\n      dup1\n      dup1\n      tag_140\n      swap1\n      tag_60\n      jump\t// in\n    tag_140:\n      swap2\n      pop\n      pop\n        /* \"contracts/Ballot/MyBallot.sol\":1555:1859  for (uint index = 0; index < candidates.length; index++) {\r... */\n      jump(tag_126)\n    tag_127:\n      pop\n        /* \"contracts/Ballot/MyBallot.sol\":1336:1866  {\r... */\n      pop\n      pop\n        /* \"contracts/Ballot/MyBallot.sol\":1295:1866  function vote(string memory name) public {\r... */\n      pop\n      jump\t// out\n        /* \"#utility.yul\":7:419   */\n    tag_142:\n        /* \"#utility.yul\":85:90   */\n      0x00\n        /* \"#utility.yul\":110:176   */\n      tag_144\n        /* \"#utility.yul\":126:175   */\n      tag_145\n        /* \"#utility.yul\":168:174   */\n      dup5\n        /* \"#utility.yul\":126:175   */\n      tag_146\n      jump\t// in\n    tag_145:\n        /* \"#utility.yul\":110:176   */\n      tag_147\n      jump\t// in\n    tag_144:\n        /* \"#utility.yul\":101:176   */\n      swap1\n      pop\n        /* \"#utility.yul\":199:205   */\n      dup3\n        /* \"#utility.yul\":192:197   */\n      dup2\n        /* \"#utility.yul\":185:206   */\n      mstore\n        /* \"#utility.yul\":237:241   */\n      0x20\n        /* \"#utility.yul\":230:235   */\n      dup2\n        /* \"#utility.yul\":226:242   */\n      add\n        /* \"#utility.yul\":275:278   */\n      dup5\n        /* \"#utility.yul\":266:272   */\n      dup5\n        /* \"#utility.yul\":261:264   */\n      dup5\n        /* \"#utility.yul\":257:273   */\n      add\n        /* \"#utility.yul\":254:279   */\n      gt\n        /* \"#utility.yul\":251:363   */\n      iszero\n      tag_148\n      jumpi\n        /* \"#utility.yul\":282:361   */\n      tag_149\n      tag_150\n      jump\t// in\n    tag_149:\n        /* \"#utility.yul\":251:363   */\n    tag_148:\n        /* \"#utility.yul\":372:413   */\n      tag_151\n        /* \"#utility.yul\":406:412   */\n      dup5\n        /* \"#utility.yul\":401:404   */\n      dup3\n        /* \"#utility.yul\":396:399   */\n      dup6\n        /* \"#utility.yul\":372:413   */\n      tag_152\n      jump\t// in\n    tag_151:\n        /* \"#utility.yul\":91:419   */\n      pop\n        /* \"#utility.yul\":7:419   */\n      swap4\n      swap3\n      pop\n      pop\n      pop\n      jump\t// out\n        /* \"#utility.yul\":425:564   */\n    tag_153:\n        /* \"#utility.yul\":471:476   */\n      0x00\n        /* \"#utility.yul\":509:515   */\n      dup2\n        /* \"#utility.yul\":496:516   */\n      calldataload\n        /* \"#utility.yul\":487:516   */\n      swap1\n      pop\n        /* \"#utility.yul\":525:558   */\n      tag_155\n        /* \"#utility.yul\":552:557   */\n      dup2\n        /* \"#utility.yul\":525:558   */\n      tag_156\n      jump\t// in\n    tag_155:\n        /* \"#utility.yul\":425:564   */\n      swap3\n      swap2\n      pop\n      pop\n      jump\t// out\n        /* \"#utility.yul\":584:924   */\n    tag_157:\n        /* \"#utility.yul\":640:645   */\n      0x00\n        /* \"#utility.yul\":689:692   */\n      dup3\n        /* \"#utility.yul\":682:686   */\n      0x1f\n        /* \"#utility.yul\":674:680   */\n      dup4\n        /* \"#utility.yul\":670:687   */\n      add\n        /* \"#utility.yul\":666:693   */\n      slt\n        /* \"#utility.yul\":656:778   */\n      tag_159\n      jumpi\n        /* \"#utility.yul\":697:776   */\n      tag_160\n      tag_161\n      jump\t// in\n    tag_160:\n        /* \"#utility.yul\":656:778   */\n    tag_159:\n        /* \"#utility.yul\":814:820   */\n      dup2\n        /* \"#utility.yul\":801:821   */\n      calldataload\n        /* \"#utility.yul\":839:918   */\n      tag_162\n        /* \"#utility.yul\":914:917   */\n      dup5\n        /* \"#utility.yul\":906:912   */\n      dup3\n        /* \"#utility.yul\":899:903   */\n      0x20\n        /* \"#utility.yul\":891:897   */\n      dup7\n        /* \"#utility.yul\":887:904   */\n      add\n        /* \"#utility.yul\":839:918   */\n      tag_142\n      jump\t// in\n    tag_162:\n        /* \"#utility.yul\":830:918   */\n      swap2\n      pop\n        /* \"#utility.yul\":646:924   */\n      pop\n        /* \"#utility.yul\":584:924   */\n      swap3\n      swap2\n      pop\n      pop\n      jump\t// out\n        /* \"#utility.yul\":930:1069   */\n    tag_163:\n        /* \"#utility.yul\":976:981   */\n      0x00\n        /* \"#utility.yul\":1014:1020   */\n      dup2\n        /* \"#utility.yul\":1001:1021   */\n      calldataload\n        /* \"#utility.yul\":992:1021   */\n      swap1\n      pop\n        /* \"#utility.yul\":1030:1063   */\n      tag_165\n        /* \"#utility.yul\":1057:1062   */\n      dup2\n        /* \"#utility.yul\":1030:1063   */\n      tag_166\n      jump\t// in\n    tag_165:\n        /* \"#utility.yul\":930:1069   */\n      swap3\n      swap2\n      pop\n      pop\n      jump\t// out\n        /* \"#utility.yul\":1075:1404   */\n    tag_38:\n        /* \"#utility.yul\":1134:1140   */\n      0x00\n        /* \"#utility.yul\":1183:1185   */\n      0x20\n        /* \"#utility.yul\":1171:1180   */\n      dup3\n        /* \"#utility.yul\":1162:1169   */\n      dup5\n        /* \"#utility.yul\":1158:1181   */\n      sub\n        /* \"#utility.yul\":1154:1186   */\n      slt\n        /* \"#utility.yul\":1151:1270   */\n      iszero\n      tag_168\n      jumpi\n        /* \"#utility.yul\":1189:1268   */\n      tag_169\n      tag_170\n      jump\t// in\n    tag_169:\n        /* \"#utility.yul\":1151:1270   */\n    tag_168:\n        /* \"#utility.yul\":1309:1310   */\n      0x00\n        /* \"#utility.yul\":1334:1387   */\n      tag_171\n        /* \"#utility.yul\":1379:1386   */\n      dup5\n        /* \"#utility.yul\":1370:1376   */\n      dup3\n        /* \"#utility.yul\":1359:1368   */\n      dup6\n        /* \"#utility.yul\":1355:1377   */\n      add\n        /* \"#utility.yul\":1334:1387   */\n      tag_153\n      jump\t// in\n    tag_171:\n        /* \"#utility.yul\":1324:1387   */\n      swap2\n      pop\n        /* \"#utility.yul\":1280:1397   */\n      pop\n        /* \"#utility.yul\":1075:1404   */\n      swap3\n      swap2\n      pop\n      pop\n      jump\t// out\n        /* \"#utility.yul\":1410:1919   */\n    tag_53:\n        /* \"#utility.yul\":1479:1485   */\n      0x00\n        /* \"#utility.yul\":1528:1530   */\n      0x20\n        /* \"#utility.yul\":1516:1525   */\n      dup3\n        /* \"#utility.yul\":1507:1514   */\n      dup5\n        /* \"#utility.yul\":1503:1526   */\n      sub\n        /* \"#utility.yul\":1499:1531   */\n      slt\n        /* \"#utility.yul\":1496:1615   */\n      iszero\n      tag_173\n      jumpi\n        /* \"#utility.yul\":1534:1613   */\n      tag_174\n      tag_170\n      jump\t// in\n    tag_174:\n        /* \"#utility.yul\":1496:1615   */\n    tag_173:\n        /* \"#utility.yul\":1682:1683   */\n      0x00\n        /* \"#utility.yul\":1671:1680   */\n      dup3\n        /* \"#utility.yul\":1667:1684   */\n      add\n        /* \"#utility.yul\":1654:1685   */\n      calldataload\n        /* \"#utility.yul\":1712:1730   */\n      0xffffffffffffffff\n        /* \"#utility.yul\":1704:1710   */\n      dup2\n        /* \"#utility.yul\":1701:1731   */\n      gt\n        /* \"#utility.yul\":1698:1815   */\n      iszero\n      tag_175\n      jumpi\n        /* \"#utility.yul\":1734:1813   */\n      tag_176\n      tag_177\n      jump\t// in\n    tag_176:\n        /* \"#utility.yul\":1698:1815   */\n    tag_175:\n        /* \"#utility.yul\":1839:1902   */\n      tag_178\n        /* \"#utility.yul\":1894:1901   */\n      dup5\n        /* \"#utility.yul\":1885:1891   */\n      dup3\n        /* \"#utility.yul\":1874:1883   */\n      dup6\n        /* \"#utility.yul\":1870:1892   */\n      add\n        /* \"#utility.yul\":1839:1902   */\n      tag_157\n      jump\t// in\n    tag_178:\n        /* \"#utility.yul\":1829:1902   */\n      swap2\n      pop\n        /* \"#utility.yul\":1625:1912   */\n      pop\n        /* \"#utility.yul\":1410:1919   */\n      swap3\n      swap2\n      pop\n      pop\n      jump\t// out\n        /* \"#utility.yul\":1925:2254   */\n    tag_28:\n        /* \"#utility.yul\":1984:1990   */\n      0x00\n        /* \"#utility.yul\":2033:2035   */\n      0x20\n        /* \"#utility.yul\":2021:2030   */\n      dup3\n        /* \"#utility.yul\":2012:2019   */\n      dup5\n        /* \"#utility.yul\":2008:2031   */\n      sub\n        /* \"#utility.yul\":2004:2036   */\n      slt\n        /* \"#utility.yul\":2001:2120   */\n      iszero\n      tag_180\n      jumpi\n        /* \"#utility.yul\":2039:2118   */\n      tag_181\n      tag_170\n      jump\t// in\n    tag_181:\n        /* \"#utility.yul\":2001:2120   */\n    tag_180:\n        /* \"#utility.yul\":2159:2160   */\n      0x00\n        /* \"#utility.yul\":2184:2237   */\n      tag_182\n        /* \"#utility.yul\":2229:2236   */\n      dup5\n        /* \"#utility.yul\":2220:2226   */\n      dup3\n        /* \"#utility.yul\":2209:2218   */\n      dup6\n        /* \"#utility.yul\":2205:2227   */\n      add\n        /* \"#utility.yul\":2184:2237   */\n      tag_163\n      jump\t// in\n    tag_182:\n        /* \"#utility.yul\":2174:2237   */\n      swap2\n      pop\n        /* \"#utility.yul\":2130:2247   */\n      pop\n        /* \"#utility.yul\":1925:2254   */\n      swap3\n      swap2\n      pop\n      pop\n      jump\t// out\n        /* \"#utility.yul\":2260:2516   */\n    tag_183:\n        /* \"#utility.yul\":2379:2389   */\n      0x00\n        /* \"#utility.yul\":2414:2510   */\n      tag_185\n        /* \"#utility.yul\":2506:2509   */\n      dup4\n        /* \"#utility.yul\":2498:2504   */\n      dup4\n        /* \"#utility.yul\":2414:2510   */\n      tag_186\n      jump\t// in\n    tag_185:\n        /* \"#utility.yul\":2400:2510   */\n      swap1\n      pop\n        /* \"#utility.yul\":2260:2516   */\n      swap3\n      swap2\n      pop\n      pop\n      jump\t// out\n        /* \"#utility.yul\":2522:2640   */\n    tag_187:\n        /* \"#utility.yul\":2609:2633   */\n      tag_189\n        /* \"#utility.yul\":2627:2632   */\n      dup2\n        /* \"#utility.yul\":2609:2633   */\n      tag_190\n      jump\t// in\n    tag_189:\n        /* \"#utility.yul\":2604:2607   */\n      dup3\n        /* \"#utility.yul\":2597:2634   */\n      mstore\n        /* \"#utility.yul\":2522:2640   */\n      pop\n      pop\n      jump\t// out\n        /* \"#utility.yul\":2712:3823   */\n    tag_191:\n        /* \"#utility.yul\":2881:2884   */\n      0x00\n        /* \"#utility.yul\":2910:2989   */\n      tag_193\n        /* \"#utility.yul\":2983:2988   */\n      dup3\n        /* \"#utility.yul\":2910:2989   */\n      tag_194\n      jump\t// in\n    tag_193:\n        /* \"#utility.yul\":3005:3116   */\n      tag_195\n        /* \"#utility.yul\":3109:3115   */\n      dup2\n        /* \"#utility.yul\":3104:3107   */\n      dup6\n        /* \"#utility.yul\":3005:3116   */\n      tag_196\n      jump\t// in\n    tag_195:\n        /* \"#utility.yul\":2998:3116   */\n      swap4\n      pop\n        /* \"#utility.yul\":3142:3145   */\n      dup4\n        /* \"#utility.yul\":3187:3191   */\n      0x20\n        /* \"#utility.yul\":3179:3185   */\n      dup3\n        /* \"#utility.yul\":3175:3192   */\n      mul\n        /* \"#utility.yul\":3170:3173   */\n      dup6\n        /* \"#utility.yul\":3166:3193   */\n      add\n        /* \"#utility.yul\":3217:3298   */\n      tag_197\n        /* \"#utility.yul\":3292:3297   */\n      dup6\n        /* \"#utility.yul\":3217:3298   */\n      tag_198\n      jump\t// in\n    tag_197:\n        /* \"#utility.yul\":3321:3328   */\n      dup1\n        /* \"#utility.yul\":3352:3353   */\n      0x00\n        /* \"#utility.yul\":3337:3778   */\n    tag_199:\n        /* \"#utility.yul\":3362:3368   */\n      dup6\n        /* \"#utility.yul\":3359:3360   */\n      dup2\n        /* \"#utility.yul\":3356:3369   */\n      lt\n        /* \"#utility.yul\":3337:3778   */\n      iszero\n      tag_201\n      jumpi\n        /* \"#utility.yul\":3433:3442   */\n      dup5\n        /* \"#utility.yul\":3427:3431   */\n      dup5\n        /* \"#utility.yul\":3423:3443   */\n      sub\n        /* \"#utility.yul\":3418:3421   */\n      dup10\n        /* \"#utility.yul\":3411:3444   */\n      mstore\n        /* \"#utility.yul\":3484:3490   */\n      dup2\n        /* \"#utility.yul\":3478:3491   */\n      mload\n        /* \"#utility.yul\":3512:3626   */\n      tag_202\n        /* \"#utility.yul\":3621:3625   */\n      dup6\n        /* \"#utility.yul\":3606:3619   */\n      dup3\n        /* \"#utility.yul\":3512:3626   */\n      tag_183\n      jump\t// in\n    tag_202:\n        /* \"#utility.yul\":3504:3626   */\n      swap5\n      pop\n        /* \"#utility.yul\":3649:3734   */\n      tag_203\n        /* \"#utility.yul\":3727:3733   */\n      dup4\n        /* \"#utility.yul\":3649:3734   */\n      tag_204\n      jump\t// in\n    tag_203:\n        /* \"#utility.yul\":3639:3734   */\n      swap3\n      pop\n        /* \"#utility.yul\":3763:3767   */\n      0x20\n        /* \"#utility.yul\":3758:3761   */\n      dup11\n        /* \"#utility.yul\":3754:3768   */\n      add\n        /* \"#utility.yul\":3747:3768   */\n      swap10\n      pop\n        /* \"#utility.yul\":3397:3778   */\n      pop\n        /* \"#utility.yul\":3384:3385   */\n      0x01\n        /* \"#utility.yul\":3381:3382   */\n      dup2\n        /* \"#utility.yul\":3377:3386   */\n      add\n        /* \"#utility.yul\":3372:3386   */\n      swap1\n      pop\n        /* \"#utility.yul\":3337:3778   */\n      jump(tag_199)\n    tag_201:\n        /* \"#utility.yul\":3341:3355   */\n      pop\n        /* \"#utility.yul\":3794:3798   */\n      dup3\n        /* \"#utility.yul\":3787:3798   */\n      swap8\n      pop\n        /* \"#utility.yul\":3814:3817   */\n      dup8\n        /* \"#utility.yul\":3807:3817   */\n      swap6\n      pop\n        /* \"#utility.yul\":2886:3823   */\n      pop\n      pop\n      pop\n      pop\n      pop\n        /* \"#utility.yul\":2712:3823   */\n      swap3\n      swap2\n      pop\n      pop\n      jump\t// out\n        /* \"#utility.yul\":3829:3938   */\n    tag_205:\n        /* \"#utility.yul\":3910:3931   */\n      tag_207\n        /* \"#utility.yul\":3925:3930   */\n      dup2\n        /* \"#utility.yul\":3910:3931   */\n      tag_208\n      jump\t// in\n    tag_207:\n        /* \"#utility.yul\":3905:3908   */\n      dup3\n        /* \"#utility.yul\":3898:3932   */\n      mstore\n        /* \"#utility.yul\":3829:3938   */\n      pop\n      pop\n      jump\t// out\n        /* \"#utility.yul\":3944:4288   */\n    tag_209:\n        /* \"#utility.yul\":4022:4025   */\n      0x00\n        /* \"#utility.yul\":4050:4089   */\n      tag_211\n        /* \"#utility.yul\":4083:4088   */\n      dup3\n        /* \"#utility.yul\":4050:4089   */\n      tag_212\n      jump\t// in\n    tag_211:\n        /* \"#utility.yul\":4105:4166   */\n      tag_213\n        /* \"#utility.yul\":4159:4165   */\n      dup2\n        /* \"#utility.yul\":4154:4157   */\n      dup6\n        /* \"#utility.yul\":4105:4166   */\n      tag_214\n      jump\t// in\n    tag_213:\n        /* \"#utility.yul\":4098:4166   */\n      swap4\n      pop\n        /* \"#utility.yul\":4175:4227   */\n      tag_215\n        /* \"#utility.yul\":4220:4226   */\n      dup2\n        /* \"#utility.yul\":4215:4218   */\n      dup6\n        /* \"#utility.yul\":4208:4212   */\n      0x20\n        /* \"#utility.yul\":4201:4206   */\n      dup7\n        /* \"#utility.yul\":4197:4213   */\n      add\n        /* \"#utility.yul\":4175:4227   */\n      tag_216\n      jump\t// in\n    tag_215:\n        /* \"#utility.yul\":4252:4281   */\n      tag_217\n        /* \"#utility.yul\":4274:4280   */\n      dup2\n        /* \"#utility.yul\":4252:4281   */\n      tag_218\n      jump\t// in\n    tag_217:\n        /* \"#utility.yul\":4247:4250   */\n      dup5\n        /* \"#utility.yul\":4243:4282   */\n      add\n        /* \"#utility.yul\":4236:4282   */\n      swap2\n      pop\n        /* \"#utility.yul\":4026:4288   */\n      pop\n        /* \"#utility.yul\":3944:4288   */\n      swap3\n      swap2\n      pop\n      pop\n      jump\t// out\n        /* \"#utility.yul\":4294:4658   */\n    tag_219:\n        /* \"#utility.yul\":4382:4385   */\n      0x00\n        /* \"#utility.yul\":4410:4449   */\n      tag_221\n        /* \"#utility.yul\":4443:4448   */\n      dup3\n        /* \"#utility.yul\":4410:4449   */\n      tag_212\n      jump\t// in\n    tag_221:\n        /* \"#utility.yul\":4465:4536   */\n      tag_222\n        /* \"#utility.yul\":4529:4535   */\n      dup2\n        /* \"#utility.yul\":4524:4527   */\n      dup6\n        /* \"#utility.yul\":4465:4536   */\n      tag_223\n      jump\t// in\n    tag_222:\n        /* \"#utility.yul\":4458:4536   */\n      swap4\n      pop\n        /* \"#utility.yul\":4545:4597   */\n      tag_224\n        /* \"#utility.yul\":4590:4596   */\n      dup2\n        /* \"#utility.yul\":4585:4588   */\n      dup6\n        /* \"#utility.yul\":4578:4582   */\n      0x20\n        /* \"#utility.yul\":4571:4576   */\n      dup7\n        /* \"#utility.yul\":4567:4583   */\n      add\n        /* \"#utility.yul\":4545:4597   */\n      tag_216\n      jump\t// in\n    tag_224:\n        /* \"#utility.yul\":4622:4651   */\n      tag_225\n        /* \"#utility.yul\":4644:4650   */\n      dup2\n        /* \"#utility.yul\":4622:4651   */\n      tag_218\n      jump\t// in\n    tag_225:\n        /* \"#utility.yul\":4617:4620   */\n      dup5\n        /* \"#utility.yul\":4613:4652   */\n      add\n        /* \"#utility.yul\":4606:4652   */\n      swap2\n      pop\n        /* \"#utility.yul\":4386:4658   */\n      pop\n        /* \"#utility.yul\":4294:4658   */\n      swap3\n      swap2\n      pop\n      pop\n      jump\t// out\n        /* \"#utility.yul\":4688:5490   */\n    tag_226:\n        /* \"#utility.yul\":4773:4776   */\n      0x00\n        /* \"#utility.yul\":4810:4815   */\n      dup2\n        /* \"#utility.yul\":4804:4816   */\n      sload\n        /* \"#utility.yul\":4839:4875   */\n      tag_228\n        /* \"#utility.yul\":4865:4874   */\n      dup2\n        /* \"#utility.yul\":4839:4875   */\n      tag_68\n      jump\t// in\n    tag_228:\n        /* \"#utility.yul\":4891:4962   */\n      tag_229\n        /* \"#utility.yul\":4955:4961   */\n      dup2\n        /* \"#utility.yul\":4950:4953   */\n      dup7\n        /* \"#utility.yul\":4891:4962   */\n      tag_223\n      jump\t// in\n    tag_229:\n        /* \"#utility.yul\":4884:4962   */\n      swap5\n      pop\n        /* \"#utility.yul\":4993:4994   */\n      0x01\n        /* \"#utility.yul\":4982:4991   */\n      dup3\n        /* \"#utility.yul\":4978:4995   */\n      and\n        /* \"#utility.yul\":5009:5010   */\n      0x00\n        /* \"#utility.yul\":5004:5139   */\n      dup2\n      eq\n      tag_231\n      jumpi\n        /* \"#utility.yul\":5153:5154   */\n      0x01\n        /* \"#utility.yul\":5148:5484   */\n      dup2\n      eq\n      tag_232\n      jumpi\n        /* \"#utility.yul\":4971:5484   */\n      jump(tag_230)\n        /* \"#utility.yul\":5004:5139   */\n    tag_231:\n        /* \"#utility.yul\":5088:5092   */\n      0xff\n        /* \"#utility.yul\":5084:5093   */\n      not\n        /* \"#utility.yul\":5073:5082   */\n      dup4\n        /* \"#utility.yul\":5069:5094   */\n      and\n        /* \"#utility.yul\":5064:5067   */\n      dup7\n        /* \"#utility.yul\":5057:5095   */\n      mstore\n        /* \"#utility.yul\":5124:5128   */\n      0x20\n        /* \"#utility.yul\":5119:5122   */\n      dup7\n        /* \"#utility.yul\":5115:5129   */\n      add\n        /* \"#utility.yul\":5108:5129   */\n      swap4\n      pop\n        /* \"#utility.yul\":5004:5139   */\n      jump(tag_230)\n        /* \"#utility.yul\":5148:5484   */\n    tag_232:\n        /* \"#utility.yul\":5215:5253   */\n      tag_233\n        /* \"#utility.yul\":5247:5252   */\n      dup6\n        /* \"#utility.yul\":5215:5253   */\n      tag_234\n      jump\t// in\n    tag_233:\n        /* \"#utility.yul\":5275:5276   */\n      0x00\n        /* \"#utility.yul\":5289:5443   */\n    tag_235:\n        /* \"#utility.yul\":5303:5309   */\n      dup4\n        /* \"#utility.yul\":5300:5301   */\n      dup2\n        /* \"#utility.yul\":5297:5310   */\n      lt\n        /* \"#utility.yul\":5289:5443   */\n      iszero\n      tag_237\n      jumpi\n        /* \"#utility.yul\":5377:5384   */\n      dup2\n        /* \"#utility.yul\":5371:5385   */\n      sload\n        /* \"#utility.yul\":5367:5368   */\n      dup2\n        /* \"#utility.yul\":5362:5365   */\n      dup10\n        /* \"#utility.yul\":5358:5369   */\n      add\n        /* \"#utility.yul\":5351:5386   */\n      mstore\n        /* \"#utility.yul\":5427:5428   */\n      0x01\n        /* \"#utility.yul\":5418:5425   */\n      dup3\n        /* \"#utility.yul\":5414:5429   */\n      add\n        /* \"#utility.yul\":5403:5429   */\n      swap2\n      pop\n        /* \"#utility.yul\":5325:5329   */\n      0x20\n        /* \"#utility.yul\":5322:5323   */\n      dup2\n        /* \"#utility.yul\":5318:5330   */\n      add\n        /* \"#utility.yul\":5313:5330   */\n      swap1\n      pop\n        /* \"#utility.yul\":5289:5443   */\n      jump(tag_235)\n    tag_237:\n        /* \"#utility.yul\":5472:5473   */\n      dup1\n        /* \"#utility.yul\":5467:5470   */\n      dup9\n        /* \"#utility.yul\":5463:5474   */\n      add\n        /* \"#utility.yul\":5456:5474   */\n      swap6\n      pop\n        /* \"#utility.yul\":5155:5484   */\n      pop\n      pop\n        /* \"#utility.yul\":4971:5484   */\n    tag_230:\n      pop\n        /* \"#utility.yul\":4777:5490   */\n      pop\n      pop\n        /* \"#utility.yul\":4688:5490   */\n      swap3\n      swap2\n      pop\n      pop\n      jump\t// out\n        /* \"#utility.yul\":5496:5862   */\n    tag_238:\n        /* \"#utility.yul\":5638:5641   */\n      0x00\n        /* \"#utility.yul\":5659:5726   */\n      tag_240\n        /* \"#utility.yul\":5723:5725   */\n      0x14\n        /* \"#utility.yul\":5718:5721   */\n      dup4\n        /* \"#utility.yul\":5659:5726   */\n      tag_223\n      jump\t// in\n    tag_240:\n        /* \"#utility.yul\":5652:5726   */\n      swap2\n      pop\n        /* \"#utility.yul\":5735:5828   */\n      tag_241\n        /* \"#utility.yul\":5824:5827   */\n      dup3\n        /* \"#utility.yul\":5735:5828   */\n      tag_242\n      jump\t// in\n    tag_241:\n        /* \"#utility.yul\":5853:5855   */\n      0x20\n        /* \"#utility.yul\":5848:5851   */\n      dup3\n        /* \"#utility.yul\":5844:5856   */\n      add\n        /* \"#utility.yul\":5837:5856   */\n      swap1\n      pop\n        /* \"#utility.yul\":5496:5862   */\n      swap2\n      swap1\n      pop\n      jump\t// out\n        /* \"#utility.yul\":5868:6234   */\n    tag_243:\n        /* \"#utility.yul\":6010:6013   */\n      0x00\n        /* \"#utility.yul\":6031:6098   */\n      tag_245\n        /* \"#utility.yul\":6095:6097   */\n      0x2f\n        /* \"#utility.yul\":6090:6093   */\n      dup4\n        /* \"#utility.yul\":6031:6098   */\n      tag_223\n      jump\t// in\n    tag_245:\n        /* \"#utility.yul\":6024:6098   */\n      swap2\n      pop\n        /* \"#utility.yul\":6107:6200   */\n      tag_246\n        /* \"#utility.yul\":6196:6199   */\n      dup3\n        /* \"#utility.yul\":6107:6200   */\n      tag_247\n      jump\t// in\n    tag_246:\n        /* \"#utility.yul\":6225:6227   */\n      0x40\n        /* \"#utility.yul\":6220:6223   */\n      dup3\n        /* \"#utility.yul\":6216:6228   */\n      add\n        /* \"#utility.yul\":6209:6228   */\n      swap1\n      pop\n        /* \"#utility.yul\":5868:6234   */\n      swap2\n      swap1\n      pop\n      jump\t// out\n        /* \"#utility.yul\":6240:6606   */\n    tag_248:\n        /* \"#utility.yul\":6382:6385   */\n      0x00\n        /* \"#utility.yul\":6403:6470   */\n      tag_250\n        /* \"#utility.yul\":6467:6469   */\n      0x0e\n        /* \"#utility.yul\":6462:6465   */\n      dup4\n        /* \"#utility.yul\":6403:6470   */\n      tag_223\n      jump\t// in\n    tag_250:\n        /* \"#utility.yul\":6396:6470   */\n      swap2\n      pop\n        /* \"#utility.yul\":6479:6572   */\n      tag_251\n        /* \"#utility.yul\":6568:6571   */\n      dup3\n        /* \"#utility.yul\":6479:6572   */\n      tag_252\n      jump\t// in\n    tag_251:\n        /* \"#utility.yul\":6597:6599   */\n      0x20\n        /* \"#utility.yul\":6592:6595   */\n      dup3\n        /* \"#utility.yul\":6588:6600   */\n      add\n        /* \"#utility.yul\":6581:6600   */\n      swap1\n      pop\n        /* \"#utility.yul\":6240:6606   */\n      swap2\n      swap1\n      pop\n      jump\t// out\n        /* \"#utility.yul\":6612:6978   */\n    tag_253:\n        /* \"#utility.yul\":6754:6757   */\n      0x00\n        /* \"#utility.yul\":6775:6842   */\n      tag_255\n        /* \"#utility.yul\":6839:6841   */\n      0x18\n        /* \"#utility.yul\":6834:6837   */\n      dup4\n        /* \"#utility.yul\":6775:6842   */\n      tag_223\n      jump\t// in\n    tag_255:\n        /* \"#utility.yul\":6768:6842   */\n      swap2\n      pop\n        /* \"#utility.yul\":6851:6944   */\n      tag_256\n        /* \"#utility.yul\":6940:6943   */\n      dup3\n        /* \"#utility.yul\":6851:6944   */\n      tag_257\n      jump\t// in\n    tag_256:\n        /* \"#utility.yul\":6969:6971   */\n      0x20\n        /* \"#utility.yul\":6964:6967   */\n      dup3\n        /* \"#utility.yul\":6960:6972   */\n      add\n        /* \"#utility.yul\":6953:6972   */\n      swap1\n      pop\n        /* \"#utility.yul\":6612:6978   */\n      swap2\n      swap1\n      pop\n      jump\t// out\n        /* \"#utility.yul\":7046:7894   */\n    tag_186:\n        /* \"#utility.yul\":7155:7158   */\n      0x00\n        /* \"#utility.yul\":7191:7195   */\n      0x60\n        /* \"#utility.yul\":7186:7189   */\n      dup4\n        /* \"#utility.yul\":7182:7196   */\n      add\n        /* \"#utility.yul\":7278:7282   */\n      0x00\n        /* \"#utility.yul\":7271:7276   */\n      dup4\n        /* \"#utility.yul\":7267:7283   */\n      add\n        /* \"#utility.yul\":7261:7284   */\n      mload\n        /* \"#utility.yul\":7331:7334   */\n      dup5\n        /* \"#utility.yul\":7325:7329   */\n      dup3\n        /* \"#utility.yul\":7321:7335   */\n      sub\n        /* \"#utility.yul\":7314:7318   */\n      0x00\n        /* \"#utility.yul\":7309:7312   */\n      dup7\n        /* \"#utility.yul\":7305:7319   */\n      add\n        /* \"#utility.yul\":7298:7336   */\n      mstore\n        /* \"#utility.yul\":7357:7430   */\n      tag_259\n        /* \"#utility.yul\":7425:7429   */\n      dup3\n        /* \"#utility.yul\":7411:7423   */\n      dup3\n        /* \"#utility.yul\":7357:7430   */\n      tag_209\n      jump\t// in\n    tag_259:\n        /* \"#utility.yul\":7349:7430   */\n      swap2\n      pop\n        /* \"#utility.yul\":7206:7441   */\n      pop\n        /* \"#utility.yul\":7524:7528   */\n      0x20\n        /* \"#utility.yul\":7517:7522   */\n      dup4\n        /* \"#utility.yul\":7513:7529   */\n      add\n        /* \"#utility.yul\":7507:7530   */\n      mload\n        /* \"#utility.yul\":7577:7580   */\n      dup5\n        /* \"#utility.yul\":7571:7575   */\n      dup3\n        /* \"#utility.yul\":7567:7581   */\n      sub\n        /* \"#utility.yul\":7560:7564   */\n      0x20\n        /* \"#utility.yul\":7555:7558   */\n      dup7\n        /* \"#utility.yul\":7551:7565   */\n      add\n        /* \"#utility.yul\":7544:7582   */\n      mstore\n        /* \"#utility.yul\":7603:7676   */\n      tag_260\n        /* \"#utility.yul\":7671:7675   */\n      dup3\n        /* \"#utility.yul\":7657:7669   */\n      dup3\n        /* \"#utility.yul\":7603:7676   */\n      tag_209\n      jump\t// in\n    tag_260:\n        /* \"#utility.yul\":7595:7676   */\n      swap2\n      pop\n        /* \"#utility.yul\":7451:7687   */\n      pop\n        /* \"#utility.yul\":7775:7779   */\n      0x40\n        /* \"#utility.yul\":7768:7773   */\n      dup4\n        /* \"#utility.yul\":7764:7780   */\n      add\n        /* \"#utility.yul\":7758:7781   */\n      mload\n        /* \"#utility.yul\":7794:7857   */\n      tag_261\n        /* \"#utility.yul\":7851:7855   */\n      0x40\n        /* \"#utility.yul\":7846:7849   */\n      dup7\n        /* \"#utility.yul\":7842:7856   */\n      add\n        /* \"#utility.yul\":7828:7840   */\n      dup3\n        /* \"#utility.yul\":7794:7857   */\n      tag_262\n      jump\t// in\n    tag_261:\n        /* \"#utility.yul\":7697:7867   */\n      pop\n        /* \"#utility.yul\":7884:7888   */\n      dup1\n        /* \"#utility.yul\":7877:7888   */\n      swap2\n      pop\n        /* \"#utility.yul\":7160:7894   */\n      pop\n        /* \"#utility.yul\":7046:7894   */\n      swap3\n      swap2\n      pop\n      pop\n      jump\t// out\n        /* \"#utility.yul\":7900:8008   */\n    tag_262:\n        /* \"#utility.yul\":7977:8001   */\n      tag_264\n        /* \"#utility.yul\":7995:8000   */\n      dup2\n        /* \"#utility.yul\":7977:8001   */\n      tag_265\n      jump\t// in\n    tag_264:\n        /* \"#utility.yul\":7972:7975   */\n      dup3\n        /* \"#utility.yul\":7965:8002   */\n      mstore\n        /* \"#utility.yul\":7900:8008   */\n      pop\n      pop\n      jump\t// out\n        /* \"#utility.yul\":8014:8132   */\n    tag_266:\n        /* \"#utility.yul\":8101:8125   */\n      tag_268\n        /* \"#utility.yul\":8119:8124   */\n      dup2\n        /* \"#utility.yul\":8101:8125   */\n      tag_265\n      jump\t// in\n    tag_268:\n        /* \"#utility.yul\":8096:8099   */\n      dup3\n        /* \"#utility.yul\":8089:8126   */\n      mstore\n        /* \"#utility.yul\":8014:8132   */\n      pop\n      pop\n      jump\t// out\n        /* \"#utility.yul\":8138:8360   */\n    tag_25:\n        /* \"#utility.yul\":8231:8235   */\n      0x00\n        /* \"#utility.yul\":8269:8271   */\n      0x20\n        /* \"#utility.yul\":8258:8267   */\n      dup3\n        /* \"#utility.yul\":8254:8272   */\n      add\n        /* \"#utility.yul\":8246:8272   */\n      swap1\n      pop\n        /* \"#utility.yul\":8282:8353   */\n      tag_270\n        /* \"#utility.yul\":8350:8351   */\n      0x00\n        /* \"#utility.yul\":8339:8348   */\n      dup4\n        /* \"#utility.yul\":8335:8352   */\n      add\n        /* \"#utility.yul\":8326:8332   */\n      dup5\n        /* \"#utility.yul\":8282:8353   */\n      tag_187\n      jump\t// in\n    tag_270:\n        /* \"#utility.yul\":8138:8360   */\n      swap3\n      swap2\n      pop\n      pop\n      jump\t// out\n        /* \"#utility.yul\":8366:8839   */\n    tag_35:\n        /* \"#utility.yul\":8559:8563   */\n      0x00\n        /* \"#utility.yul\":8597:8599   */\n      0x20\n        /* \"#utility.yul\":8586:8595   */\n      dup3\n        /* \"#utility.yul\":8582:8600   */\n      add\n        /* \"#utility.yul\":8574:8600   */\n      swap1\n      pop\n        /* \"#utility.yul\":8646:8655   */\n      dup2\n        /* \"#utility.yul\":8640:8644   */\n      dup2\n        /* \"#utility.yul\":8636:8656   */\n      sub\n        /* \"#utility.yul\":8632:8633   */\n      0x00\n        /* \"#utility.yul\":8621:8630   */\n      dup4\n        /* \"#utility.yul\":8617:8634   */\n      add\n        /* \"#utility.yul\":8610:8657   */\n      mstore\n        /* \"#utility.yul\":8674:8832   */\n      tag_272\n        /* \"#utility.yul\":8827:8831   */\n      dup2\n        /* \"#utility.yul\":8818:8824   */\n      dup5\n        /* \"#utility.yul\":8674:8832   */\n      tag_191\n      jump\t// in\n    tag_272:\n        /* \"#utility.yul\":8666:8832   */\n      swap1\n      pop\n        /* \"#utility.yul\":8366:8839   */\n      swap3\n      swap2\n      pop\n      pop\n      jump\t// out\n        /* \"#utility.yul\":8845:9153   */\n    tag_44:\n        /* \"#utility.yul\":8954:8958   */\n      0x00\n        /* \"#utility.yul\":8992:8994   */\n      0x40\n        /* \"#utility.yul\":8981:8990   */\n      dup3\n        /* \"#utility.yul\":8977:8995   */\n      add\n        /* \"#utility.yul\":8969:8995   */\n      swap1\n      pop\n        /* \"#utility.yul\":9005:9070   */\n      tag_274\n        /* \"#utility.yul\":9067:9068   */\n      0x00\n        /* \"#utility.yul\":9056:9065   */\n      dup4\n        /* \"#utility.yul\":9052:9069   */\n      add\n        /* \"#utility.yul\":9043:9049   */\n      dup6\n        /* \"#utility.yul\":9005:9070   */\n      tag_205\n      jump\t// in\n    tag_274:\n        /* \"#utility.yul\":9080:9146   */\n      tag_275\n        /* \"#utility.yul\":9142:9144   */\n      0x20\n        /* \"#utility.yul\":9131:9140   */\n      dup4\n        /* \"#utility.yul\":9127:9145   */\n      add\n        /* \"#utility.yul\":9118:9124   */\n      dup5\n        /* \"#utility.yul\":9080:9146   */\n      tag_205\n      jump\t// in\n    tag_275:\n        /* \"#utility.yul\":8845:9153   */\n      swap4\n      swap3\n      pop\n      pop\n      pop\n      jump\t// out\n        /* \"#utility.yul\":9159:9472   */\n    tag_21:\n        /* \"#utility.yul\":9272:9276   */\n      0x00\n        /* \"#utility.yul\":9310:9312   */\n      0x20\n        /* \"#utility.yul\":9299:9308   */\n      dup3\n        /* \"#utility.yul\":9295:9313   */\n      add\n        /* \"#utility.yul\":9287:9313   */\n      swap1\n      pop\n        /* \"#utility.yul\":9359:9368   */\n      dup2\n        /* \"#utility.yul\":9353:9357   */\n      dup2\n        /* \"#utility.yul\":9349:9369   */\n      sub\n        /* \"#utility.yul\":9345:9346   */\n      0x00\n        /* \"#utility.yul\":9334:9343   */\n      dup4\n        /* \"#utility.yul\":9330:9347   */\n      add\n        /* \"#utility.yul\":9323:9370   */\n      mstore\n        /* \"#utility.yul\":9387:9465   */\n      tag_277\n        /* \"#utility.yul\":9460:9464   */\n      dup2\n        /* \"#utility.yul\":9451:9457   */\n      dup5\n        /* \"#utility.yul\":9387:9465   */\n      tag_219\n      jump\t// in\n    tag_277:\n        /* \"#utility.yul\":9379:9465   */\n      swap1\n      pop\n        /* \"#utility.yul\":9159:9472   */\n      swap3\n      swap2\n      pop\n      pop\n      jump\t// out\n        /* \"#utility.yul\":9478:10102   */\n    tag_31:\n        /* \"#utility.yul\":9667:9671   */\n      0x00\n        /* \"#utility.yul\":9705:9707   */\n      0x60\n        /* \"#utility.yul\":9694:9703   */\n      dup3\n        /* \"#utility.yul\":9690:9708   */\n      add\n        /* \"#utility.yul\":9682:9708   */\n      swap1\n      pop\n        /* \"#utility.yul\":9754:9763   */\n      dup2\n        /* \"#utility.yul\":9748:9752   */\n      dup2\n        /* \"#utility.yul\":9744:9764   */\n      sub\n        /* \"#utility.yul\":9740:9741   */\n      0x00\n        /* \"#utility.yul\":9729:9738   */\n      dup4\n        /* \"#utility.yul\":9725:9742   */\n      add\n        /* \"#utility.yul\":9718:9765   */\n      mstore\n        /* \"#utility.yul\":9782:9860   */\n      tag_279\n        /* \"#utility.yul\":9855:9859   */\n      dup2\n        /* \"#utility.yul\":9846:9852   */\n      dup7\n        /* \"#utility.yul\":9782:9860   */\n      tag_219\n      jump\t// in\n    tag_279:\n        /* \"#utility.yul\":9774:9860   */\n      swap1\n      pop\n        /* \"#utility.yul\":9907:9916   */\n      dup2\n        /* \"#utility.yul\":9901:9905   */\n      dup2\n        /* \"#utility.yul\":9897:9917   */\n      sub\n        /* \"#utility.yul\":9892:9894   */\n      0x20\n        /* \"#utility.yul\":9881:9890   */\n      dup4\n        /* \"#utility.yul\":9877:9895   */\n      add\n        /* \"#utility.yul\":9870:9918   */\n      mstore\n        /* \"#utility.yul\":9935:10013   */\n      tag_280\n        /* \"#utility.yul\":10008:10012   */\n      dup2\n        /* \"#utility.yul\":9999:10005   */\n      dup6\n        /* \"#utility.yul\":9935:10013   */\n      tag_219\n      jump\t// in\n    tag_280:\n        /* \"#utility.yul\":9927:10013   */\n      swap1\n      pop\n        /* \"#utility.yul\":10023:10095   */\n      tag_281\n        /* \"#utility.yul\":10091:10093   */\n      0x40\n        /* \"#utility.yul\":10080:10089   */\n      dup4\n        /* \"#utility.yul\":10076:10094   */\n      add\n        /* \"#utility.yul\":10067:10073   */\n      dup5\n        /* \"#utility.yul\":10023:10095   */\n      tag_266\n      jump\t// in\n    tag_281:\n        /* \"#utility.yul\":9478:10102   */\n      swap5\n      swap4\n      pop\n      pop\n      pop\n      pop\n      jump\t// out\n        /* \"#utility.yul\":10108:10415   */\n    tag_134:\n        /* \"#utility.yul\":10218:10222   */\n      0x00\n        /* \"#utility.yul\":10256:10258   */\n      0x20\n        /* \"#utility.yul\":10245:10254   */\n      dup3\n        /* \"#utility.yul\":10241:10259   */\n      add\n        /* \"#utility.yul\":10233:10259   */\n      swap1\n      pop\n        /* \"#utility.yul\":10305:10314   */\n      dup2\n        /* \"#utility.yul\":10299:10303   */\n      dup2\n        /* \"#utility.yul\":10295:10315   */\n      sub\n        /* \"#utility.yul\":10291:10292   */\n      0x00\n        /* \"#utility.yul\":10280:10289   */\n      dup4\n        /* \"#utility.yul\":10276:10293   */\n      add\n        /* \"#utility.yul\":10269:10316   */\n      mstore\n        /* \"#utility.yul\":10333:10408   */\n      tag_283\n        /* \"#utility.yul\":10403:10407   */\n      dup2\n        /* \"#utility.yul\":10394:10400   */\n      dup5\n        /* \"#utility.yul\":10333:10408   */\n      tag_226\n      jump\t// in\n    tag_283:\n        /* \"#utility.yul\":10325:10408   */\n      swap1\n      pop\n        /* \"#utility.yul\":10108:10415   */\n      swap3\n      swap2\n      pop\n      pop\n      jump\t// out\n        /* \"#utility.yul\":10421:10840   */\n    tag_122:\n        /* \"#utility.yul\":10587:10591   */\n      0x00\n        /* \"#utility.yul\":10625:10627   */\n      0x20\n        /* \"#utility.yul\":10614:10623   */\n      dup3\n        /* \"#utility.yul\":10610:10628   */\n      add\n        /* \"#utility.yul\":10602:10628   */\n      swap1\n      pop\n        /* \"#utility.yul\":10674:10683   */\n      dup2\n        /* \"#utility.yul\":10668:10672   */\n      dup2\n        /* \"#utility.yul\":10664:10684   */\n      sub\n        /* \"#utility.yul\":10660:10661   */\n      0x00\n        /* \"#utility.yul\":10649:10658   */\n      dup4\n        /* \"#utility.yul\":10645:10662   */\n      add\n        /* \"#utility.yul\":10638:10685   */\n      mstore\n        /* \"#utility.yul\":10702:10833   */\n      tag_285\n        /* \"#utility.yul\":10828:10832   */\n      dup2\n        /* \"#utility.yul\":10702:10833   */\n      tag_238\n      jump\t// in\n    tag_285:\n        /* \"#utility.yul\":10694:10833   */\n      swap1\n      pop\n        /* \"#utility.yul\":10421:10840   */\n      swap2\n      swap1\n      pop\n      jump\t// out\n        /* \"#utility.yul\":10846:11265   */\n    tag_103:\n        /* \"#utility.yul\":11012:11016   */\n      0x00\n        /* \"#utility.yul\":11050:11052   */\n      0x20\n        /* \"#utility.yul\":11039:11048   */\n      dup3\n        /* \"#utility.yul\":11035:11053   */\n      add\n        /* \"#utility.yul\":11027:11053   */\n      swap1\n      pop\n        /* \"#utility.yul\":11099:11108   */\n      dup2\n        /* \"#utility.yul\":11093:11097   */\n      dup2\n        /* \"#utility.yul\":11089:11109   */\n      sub\n        /* \"#utility.yul\":11085:11086   */\n      0x00\n        /* \"#utility.yul\":11074:11083   */\n      dup4\n        /* \"#utility.yul\":11070:11087   */\n      add\n        /* \"#utility.yul\":11063:11110   */\n      mstore\n        /* \"#utility.yul\":11127:11258   */\n      tag_287\n        /* \"#utility.yul\":11253:11257   */\n      dup2\n        /* \"#utility.yul\":11127:11258   */\n      tag_243\n      jump\t// in\n    tag_287:\n        /* \"#utility.yul\":11119:11258   */\n      swap1\n      pop\n        /* \"#utility.yul\":10846:11265   */\n      swap2\n      swap1\n      pop\n      jump\t// out\n        /* \"#utility.yul\":11271:11690   */\n    tag_125:\n        /* \"#utility.yul\":11437:11441   */\n      0x00\n        /* \"#utility.yul\":11475:11477   */\n      0x20\n        /* \"#utility.yul\":11464:11473   */\n      dup3\n        /* \"#utility.yul\":11460:11478   */\n      add\n        /* \"#utility.yul\":11452:11478   */\n      swap1\n      pop\n        /* \"#utility.yul\":11524:11533   */\n      dup2\n        /* \"#utility.yul\":11518:11522   */\n      dup2\n        /* \"#utility.yul\":11514:11534   */\n      sub\n        /* \"#utility.yul\":11510:11511   */\n      0x00\n        /* \"#utility.yul\":11499:11508   */\n      dup4\n        /* \"#utility.yul\":11495:11512   */\n      add\n        /* \"#utility.yul\":11488:11535   */\n      mstore\n        /* \"#utility.yul\":11552:11683   */\n      tag_289\n        /* \"#utility.yul\":11678:11682   */\n      dup2\n        /* \"#utility.yul\":11552:11683   */\n      tag_248\n      jump\t// in\n    tag_289:\n        /* \"#utility.yul\":11544:11683   */\n      swap1\n      pop\n        /* \"#utility.yul\":11271:11690   */\n      swap2\n      swap1\n      pop\n      jump\t// out\n        /* \"#utility.yul\":11696:12115   */\n    tag_106:\n        /* \"#utility.yul\":11862:11866   */\n      0x00\n        /* \"#utility.yul\":11900:11902   */\n      0x20\n        /* \"#utility.yul\":11889:11898   */\n      dup3\n        /* \"#utility.yul\":11885:11903   */\n      add\n        /* \"#utility.yul\":11877:11903   */\n      swap1\n      pop\n        /* \"#utility.yul\":11949:11958   */\n      dup2\n        /* \"#utility.yul\":11943:11947   */\n      dup2\n        /* \"#utility.yul\":11939:11959   */\n      sub\n        /* \"#utility.yul\":11935:11936   */\n      0x00\n        /* \"#utility.yul\":11924:11933   */\n      dup4\n        /* \"#utility.yul\":11920:11937   */\n      add\n        /* \"#utility.yul\":11913:11960   */\n      mstore\n        /* \"#utility.yul\":11977:12108   */\n      tag_291\n        /* \"#utility.yul\":12103:12107   */\n      dup2\n        /* \"#utility.yul\":11977:12108   */\n      tag_253\n      jump\t// in\n    tag_291:\n        /* \"#utility.yul\":11969:12108   */\n      swap1\n      pop\n        /* \"#utility.yul\":11696:12115   */\n      swap2\n      swap1\n      pop\n      jump\t// out\n        /* \"#utility.yul\":12121:12343   */\n    tag_17:\n        /* \"#utility.yul\":12214:12218   */\n      0x00\n        /* \"#utility.yul\":12252:12254   */\n      0x20\n        /* \"#utility.yul\":12241:12250   */\n      dup3\n        /* \"#utility.yul\":12237:12255   */\n      add\n        /* \"#utility.yul\":12229:12255   */\n      swap1\n      pop\n        /* \"#utility.yul\":12265:12336   */\n      tag_293\n        /* \"#utility.yul\":12333:12334   */\n      0x00\n        /* \"#utility.yul\":12322:12331   */\n      dup4\n        /* \"#utility.yul\":12318:12335   */\n      add\n        /* \"#utility.yul\":12309:12315   */\n      dup5\n        /* \"#utility.yul\":12265:12336   */\n      tag_266\n      jump\t// in\n    tag_293:\n        /* \"#utility.yul\":12121:12343   */\n      swap3\n      swap2\n      pop\n      pop\n      jump\t// out\n        /* \"#utility.yul\":12349:12478   */\n    tag_147:\n        /* \"#utility.yul\":12383:12389   */\n      0x00\n        /* \"#utility.yul\":12410:12430   */\n      tag_295\n      tag_296\n      jump\t// in\n    tag_295:\n        /* \"#utility.yul\":12400:12430   */\n      swap1\n      pop\n        /* \"#utility.yul\":12439:12472   */\n      tag_297\n        /* \"#utility.yul\":12467:12471   */\n      dup3\n        /* \"#utility.yul\":12459:12465   */\n      dup3\n        /* \"#utility.yul\":12439:12472   */\n      tag_298\n      jump\t// in\n    tag_297:\n        /* \"#utility.yul\":12349:12478   */\n      swap2\n      swap1\n      pop\n      jump\t// out\n        /* \"#utility.yul\":12484:12559   */\n    tag_296:\n        /* \"#utility.yul\":12517:12523   */\n      0x00\n        /* \"#utility.yul\":12550:12552   */\n      0x40\n        /* \"#utility.yul\":12544:12553   */\n      mload\n        /* \"#utility.yul\":12534:12553   */\n      swap1\n      pop\n        /* \"#utility.yul\":12484:12559   */\n      swap1\n      jump\t// out\n        /* \"#utility.yul\":12565:12873   */\n    tag_146:\n        /* \"#utility.yul\":12627:12631   */\n      0x00\n        /* \"#utility.yul\":12717:12735   */\n      0xffffffffffffffff\n        /* \"#utility.yul\":12709:12715   */\n      dup3\n        /* \"#utility.yul\":12706:12736   */\n      gt\n        /* \"#utility.yul\":12703:12759   */\n      iszero\n      tag_301\n      jumpi\n        /* \"#utility.yul\":12739:12757   */\n      tag_302\n      tag_303\n      jump\t// in\n    tag_302:\n        /* \"#utility.yul\":12703:12759   */\n    tag_301:\n        /* \"#utility.yul\":12777:12806   */\n      tag_304\n        /* \"#utility.yul\":12799:12805   */\n      dup3\n        /* \"#utility.yul\":12777:12806   */\n      tag_218\n      jump\t// in\n    tag_304:\n        /* \"#utility.yul\":12769:12806   */\n      swap1\n      pop\n        /* \"#utility.yul\":12861:12865   */\n      0x20\n        /* \"#utility.yul\":12855:12859   */\n      dup2\n        /* \"#utility.yul\":12851:12866   */\n      add\n        /* \"#utility.yul\":12843:12866   */\n      swap1\n      pop\n        /* \"#utility.yul\":12565:12873   */\n      swap2\n      swap1\n      pop\n      jump\t// out\n        /* \"#utility.yul\":12879:13036   */\n    tag_198:\n        /* \"#utility.yul\":12971:12975   */\n      0x00\n        /* \"#utility.yul\":12994:12997   */\n      dup2\n        /* \"#utility.yul\":12986:12997   */\n      swap1\n      pop\n        /* \"#utility.yul\":13024:13028   */\n      0x20\n        /* \"#utility.yul\":13019:13022   */\n      dup3\n        /* \"#utility.yul\":13015:13029   */\n      add\n        /* \"#utility.yul\":13007:13029   */\n      swap1\n      pop\n        /* \"#utility.yul\":12879:13036   */\n      swap2\n      swap1\n      pop\n      jump\t// out\n        /* \"#utility.yul\":13042:13183   */\n    tag_234:\n        /* \"#utility.yul\":13091:13095   */\n      0x00\n        /* \"#utility.yul\":13114:13117   */\n      dup2\n        /* \"#utility.yul\":13106:13117   */\n      swap1\n      pop\n        /* \"#utility.yul\":13137:13140   */\n      dup2\n        /* \"#utility.yul\":13134:13135   */\n      0x00\n        /* \"#utility.yul\":13127:13141   */\n      mstore\n        /* \"#utility.yul\":13171:13175   */\n      0x20\n        /* \"#utility.yul\":13168:13169   */\n      0x00\n        /* \"#utility.yul\":13158:13176   */\n      keccak256\n        /* \"#utility.yul\":13150:13176   */\n      swap1\n      pop\n        /* \"#utility.yul\":13042:13183   */\n      swap2\n      swap1\n      pop\n      jump\t// out\n        /* \"#utility.yul\":13189:13328   */\n    tag_194:\n        /* \"#utility.yul\":13281:13287   */\n      0x00\n        /* \"#utility.yul\":13315:13320   */\n      dup2\n        /* \"#utility.yul\":13309:13321   */\n      mload\n        /* \"#utility.yul\":13299:13321   */\n      swap1\n      pop\n        /* \"#utility.yul\":13189:13328   */\n      swap2\n      swap1\n      pop\n      jump\t// out\n        /* \"#utility.yul\":13334:13433   */\n    tag_212:\n        /* \"#utility.yul\":13386:13392   */\n      0x00\n        /* \"#utility.yul\":13420:13425   */\n      dup2\n        /* \"#utility.yul\":13414:13426   */\n      mload\n        /* \"#utility.yul\":13404:13426   */\n      swap1\n      pop\n        /* \"#utility.yul\":13334:13433   */\n      swap2\n      swap1\n      pop\n      jump\t// out\n        /* \"#utility.yul\":13439:13577   */\n    tag_204:\n        /* \"#utility.yul\":13534:13538   */\n      0x00\n        /* \"#utility.yul\":13566:13570   */\n      0x20\n        /* \"#utility.yul\":13561:13564   */\n      dup3\n        /* \"#utility.yul\":13557:13571   */\n      add\n        /* \"#utility.yul\":13549:13571   */\n      swap1\n      pop\n        /* \"#utility.yul\":13439:13577   */\n      swap2\n      swap1\n      pop\n      jump\t// out\n        /* \"#utility.yul\":13583:13792   */\n    tag_196:\n        /* \"#utility.yul\":13707:13718   */\n      0x00\n        /* \"#utility.yul\":13741:13747   */\n      dup3\n        /* \"#utility.yul\":13736:13739   */\n      dup3\n        /* \"#utility.yul\":13729:13748   */\n      mstore\n        /* \"#utility.yul\":13781:13785   */\n      0x20\n        /* \"#utility.yul\":13776:13779   */\n      dup3\n        /* \"#utility.yul\":13772:13786   */\n      add\n        /* \"#utility.yul\":13757:13786   */\n      swap1\n      pop\n        /* \"#utility.yul\":13583:13792   */\n      swap3\n      swap2\n      pop\n      pop\n      jump\t// out\n        /* \"#utility.yul\":13798:13957   */\n    tag_214:\n        /* \"#utility.yul\":13872:13883   */\n      0x00\n        /* \"#utility.yul\":13906:13912   */\n      dup3\n        /* \"#utility.yul\":13901:13904   */\n      dup3\n        /* \"#utility.yul\":13894:13913   */\n      mstore\n        /* \"#utility.yul\":13946:13950   */\n      0x20\n        /* \"#utility.yul\":13941:13944   */\n      dup3\n        /* \"#utility.yul\":13937:13951   */\n      add\n        /* \"#utility.yul\":13922:13951   */\n      swap1\n      pop\n        /* \"#utility.yul\":13798:13957   */\n      swap3\n      swap2\n      pop\n      pop\n      jump\t// out\n        /* \"#utility.yul\":13963:14132   */\n    tag_223:\n        /* \"#utility.yul\":14047:14058   */\n      0x00\n        /* \"#utility.yul\":14081:14087   */\n      dup3\n        /* \"#utility.yul\":14076:14079   */\n      dup3\n        /* \"#utility.yul\":14069:14088   */\n      mstore\n        /* \"#utility.yul\":14121:14125   */\n      0x20\n        /* \"#utility.yul\":14116:14119   */\n      dup3\n        /* \"#utility.yul\":14112:14126   */\n      add\n        /* \"#utility.yul\":14097:14126   */\n      swap1\n      pop\n        /* \"#utility.yul\":13963:14132   */\n      swap3\n      swap2\n      pop\n      pop\n      jump\t// out\n        /* \"#utility.yul\":14138:14234   */\n    tag_190:\n        /* \"#utility.yul\":14175:14182   */\n      0x00\n        /* \"#utility.yul\":14204:14228   */\n      tag_314\n        /* \"#utility.yul\":14222:14227   */\n      dup3\n        /* \"#utility.yul\":14204:14228   */\n      tag_315\n      jump\t// in\n    tag_314:\n        /* \"#utility.yul\":14193:14228   */\n      swap1\n      pop\n        /* \"#utility.yul\":14138:14234   */\n      swap2\n      swap1\n      pop\n      jump\t// out\n        /* \"#utility.yul\":14240:14330   */\n    tag_208:\n        /* \"#utility.yul\":14274:14281   */\n      0x00\n        /* \"#utility.yul\":14317:14322   */\n      dup2\n        /* \"#utility.yul\":14310:14323   */\n      iszero\n        /* \"#utility.yul\":14303:14324   */\n      iszero\n        /* \"#utility.yul\":14292:14324   */\n      swap1\n      pop\n        /* \"#utility.yul\":14240:14330   */\n      swap2\n      swap1\n      pop\n      jump\t// out\n        /* \"#utility.yul\":14336:14462   */\n    tag_315:\n        /* \"#utility.yul\":14373:14380   */\n      0x00\n        /* \"#utility.yul\":14413:14455   */\n      0xffffffffffffffffffffffffffffffffffffffff\n        /* \"#utility.yul\":14406:14411   */\n      dup3\n        /* \"#utility.yul\":14402:14456   */\n      and\n        /* \"#utility.yul\":14391:14456   */\n      swap1\n      pop\n        /* \"#utility.yul\":14336:14462   */\n      swap2\n      swap1\n      pop\n      jump\t// out\n        /* \"#utility.yul\":14468:14545   */\n    tag_265:\n        /* \"#utility.yul\":14505:14512   */\n      0x00\n        /* \"#utility.yul\":14534:14539   */\n      dup2\n        /* \"#utility.yul\":14523:14539   */\n      swap1\n      pop\n        /* \"#utility.yul\":14468:14545   */\n      swap2\n      swap1\n      pop\n      jump\t// out\n        /* \"#utility.yul\":14551:14705   */\n    tag_152:\n        /* \"#utility.yul\":14635:14641   */\n      dup3\n        /* \"#utility.yul\":14630:14633   */\n      dup2\n        /* \"#utility.yul\":14625:14628   */\n      dup4\n        /* \"#utility.yul\":14612:14642   */\n      calldatacopy\n        /* \"#utility.yul\":14697:14698   */\n      0x00\n        /* \"#utility.yul\":14688:14694   */\n      dup4\n        /* \"#utility.yul\":14683:14686   */\n      dup4\n        /* \"#utility.yul\":14679:14695   */\n      add\n        /* \"#utility.yul\":14672:14699   */\n      mstore\n        /* \"#utility.yul\":14551:14705   */\n      pop\n      pop\n      pop\n      jump\t// out\n        /* \"#utility.yul\":14711:15018   */\n    tag_216:\n        /* \"#utility.yul\":14779:14780   */\n      0x00\n        /* \"#utility.yul\":14789:14902   */\n    tag_321:\n        /* \"#utility.yul\":14803:14809   */\n      dup4\n        /* \"#utility.yul\":14800:14801   */\n      dup2\n        /* \"#utility.yul\":14797:14810   */\n      lt\n        /* \"#utility.yul\":14789:14902   */\n      iszero\n      tag_323\n      jumpi\n        /* \"#utility.yul\":14888:14889   */\n      dup1\n        /* \"#utility.yul\":14883:14886   */\n      dup3\n        /* \"#utility.yul\":14879:14890   */\n      add\n        /* \"#utility.yul\":14873:14891   */\n      mload\n        /* \"#utility.yul\":14869:14870   */\n      dup2\n        /* \"#utility.yul\":14864:14867   */\n      dup5\n        /* \"#utility.yul\":14860:14871   */\n      add\n        /* \"#utility.yul\":14853:14892   */\n      mstore\n        /* \"#utility.yul\":14825:14827   */\n      0x20\n        /* \"#utility.yul\":14822:14823   */\n      dup2\n        /* \"#utility.yul\":14818:14828   */\n      add\n        /* \"#utility.yul\":14813:14828   */\n      swap1\n      pop\n        /* \"#utility.yul\":14789:14902   */\n      jump(tag_321)\n    tag_323:\n        /* \"#utility.yul\":14920:14926   */\n      dup4\n        /* \"#utility.yul\":14917:14918   */\n      dup2\n        /* \"#utility.yul\":14914:14927   */\n      gt\n        /* \"#utility.yul\":14911:15012   */\n      iszero\n      tag_324\n      jumpi\n        /* \"#utility.yul\":15000:15001   */\n      0x00\n        /* \"#utility.yul\":14991:14997   */\n      dup5\n        /* \"#utility.yul\":14986:14989   */\n      dup5\n        /* \"#utility.yul\":14982:14998   */\n      add\n        /* \"#utility.yul\":14975:15002   */\n      mstore\n        /* \"#utility.yul\":14911:15012   */\n    tag_324:\n        /* \"#utility.yul\":14760:15018   */\n      pop\n        /* \"#utility.yul\":14711:15018   */\n      pop\n      pop\n      pop\n      jump\t// out\n        /* \"#utility.yul\":15024:15344   */\n    tag_68:\n        /* \"#utility.yul\":15068:15074   */\n      0x00\n        /* \"#utility.yul\":15105:15106   */\n      0x02\n        /* \"#utility.yul\":15099:15103   */\n      dup3\n        /* \"#utility.yul\":15095:15107   */\n      div\n        /* \"#utility.yul\":15085:15107   */\n      swap1\n      pop\n        /* \"#utility.yul\":15152:15153   */\n      0x01\n        /* \"#utility.yul\":15146:15150   */\n      dup3\n        /* \"#utility.yul\":15142:15154   */\n      and\n        /* \"#utility.yul\":15173:15191   */\n      dup1\n        /* \"#utility.yul\":15163:15244   */\n      tag_326\n      jumpi\n        /* \"#utility.yul\":15229:15233   */\n      0x7f\n        /* \"#utility.yul\":15221:15227   */\n      dup3\n        /* \"#utility.yul\":15217:15234   */\n      and\n        /* \"#utility.yul\":15207:15234   */\n      swap2\n      pop\n        /* \"#utility.yul\":15163:15244   */\n    tag_326:\n        /* \"#utility.yul\":15291:15293   */\n      0x20\n        /* \"#utility.yul\":15283:15289   */\n      dup3\n        /* \"#utility.yul\":15280:15294   */\n      lt\n        /* \"#utility.yul\":15260:15278   */\n      dup2\n        /* \"#utility.yul\":15257:15295   */\n      eq\n        /* \"#utility.yul\":15254:15338   */\n      iszero\n      tag_327\n      jumpi\n        /* \"#utility.yul\":15310:15328   */\n      tag_328\n      tag_329\n      jump\t// in\n    tag_328:\n        /* \"#utility.yul\":15254:15338   */\n    tag_327:\n        /* \"#utility.yul\":15075:15344   */\n      pop\n        /* \"#utility.yul\":15024:15344   */\n      swap2\n      swap1\n      pop\n      jump\t// out\n        /* \"#utility.yul\":15350:15631   */\n    tag_298:\n        /* \"#utility.yul\":15433:15460   */\n      tag_331\n        /* \"#utility.yul\":15455:15459   */\n      dup3\n        /* \"#utility.yul\":15433:15460   */\n      tag_218\n      jump\t// in\n    tag_331:\n        /* \"#utility.yul\":15425:15431   */\n      dup2\n        /* \"#utility.yul\":15421:15461   */\n      add\n        /* \"#utility.yul\":15563:15569   */\n      dup2\n        /* \"#utility.yul\":15551:15561   */\n      dup2\n        /* \"#utility.yul\":15548:15570   */\n      lt\n        /* \"#utility.yul\":15527:15545   */\n      0xffffffffffffffff\n        /* \"#utility.yul\":15515:15525   */\n      dup3\n        /* \"#utility.yul\":15512:15546   */\n      gt\n        /* \"#utility.yul\":15509:15571   */\n      or\n        /* \"#utility.yul\":15506:15594   */\n      iszero\n      tag_332\n      jumpi\n        /* \"#utility.yul\":15574:15592   */\n      tag_333\n      tag_303\n      jump\t// in\n    tag_333:\n        /* \"#utility.yul\":15506:15594   */\n    tag_332:\n        /* \"#utility.yul\":15614:15624   */\n      dup1\n        /* \"#utility.yul\":15610:15612   */\n      0x40\n        /* \"#utility.yul\":15603:15625   */\n      mstore\n        /* \"#utility.yul\":15393:15631   */\n      pop\n        /* \"#utility.yul\":15350:15631   */\n      pop\n      pop\n      jump\t// out\n        /* \"#utility.yul\":15637:15870   */\n    tag_60:\n        /* \"#utility.yul\":15676:15679   */\n      0x00\n        /* \"#utility.yul\":15699:15723   */\n      tag_335\n        /* \"#utility.yul\":15717:15722   */\n      dup3\n        /* \"#utility.yul\":15699:15723   */\n      tag_265\n      jump\t// in\n    tag_335:\n        /* \"#utility.yul\":15690:15723   */\n      swap2\n      pop\n        /* \"#utility.yul\":15745:15811   */\n      0xffffffffffffffffffffffffffffffffffffffffffffffffffffffffffffffff\n        /* \"#utility.yul\":15738:15743   */\n      dup3\n        /* \"#utility.yul\":15735:15812   */\n      eq\n        /* \"#utility.yul\":15732:15835   */\n      iszero\n      tag_336\n      jumpi\n        /* \"#utility.yul\":15815:15833   */\n      tag_337\n      tag_338\n      jump\t// in\n    tag_337:\n        /* \"#utility.yul\":15732:15835   */\n    tag_336:\n        /* \"#utility.yul\":15862:15863   */\n      0x01\n        /* \"#utility.yul\":15855:15860   */\n      dup3\n        /* \"#utility.yul\":15851:15864   */\n      add\n        /* \"#utility.yul\":15844:15864   */\n      swap1\n      pop\n        /* \"#utility.yul\":15637:15870   */\n      swap2\n      swap1\n      pop\n      jump\t// out\n        /* \"#utility.yul\":15876:16056   */\n    tag_338:\n        /* \"#utility.yul\":15924:16001   */\n      0x4e487b7100000000000000000000000000000000000000000000000000000000\n        /* \"#utility.yul\":15921:15922   */\n      0x00\n        /* \"#utility.yul\":15914:16002   */\n      mstore\n        /* \"#utility.yul\":16021:16025   */\n      0x11\n        /* \"#utility.yul\":16018:16019   */\n      0x04\n        /* \"#utility.yul\":16011:16026   */\n      mstore\n        /* \"#utility.yul\":16045:16049   */\n      0x24\n        /* \"#utility.yul\":16042:16043   */\n      0x00\n        /* \"#utility.yul\":16035:16050   */\n      revert\n        /* \"#utility.yul\":16062:16242   */\n    tag_329:\n        /* \"#utility.yul\":16110:16187   */\n      0x4e487b7100000000000000000000000000000000000000000000000000000000\n        /* \"#utility.yul\":16107:16108   */\n      0x00\n        /* \"#utility.yul\":16100:16188   */\n      mstore\n        /* \"#utility.yul\":16207:16211   */\n      0x22\n        /* \"#utility.yul\":16204:16205   */\n      0x04\n        /* \"#utility.yul\":16197:16212   */\n      mstore\n        /* \"#utility.yul\":16231:16235   */\n      0x24\n        /* \"#utility.yul\":16228:16229   */\n      0x00\n        /* \"#utility.yul\":16221:16236   */\n      revert\n        /* \"#utility.yul\":16248:16428   */\n    tag_65:\n        /* \"#utility.yul\":16296:16373   */\n      0x4e487b7100000000000000000000000000000000000000000000000000000000\n        /* \"#utility.yul\":16293:16294   */\n      0x00\n        /* \"#utility.yul\":16286:16374   */\n      mstore\n        /* \"#utility.yul\":16393:16397   */\n      0x32\n        /* \"#utility.yul\":16390:16391   */\n      0x04\n        /* \"#utility.yul\":16383:16398   */\n      mstore\n        /* \"#utility.yul\":16417:16421   */\n      0x24\n        /* \"#utility.yul\":16414:16415   */\n      0x00\n        /* \"#utility.yul\":16407:16422   */\n      revert\n        /* \"#utility.yul\":16434:16614   */\n    tag_303:\n        /* \"#utility.yul\":16482:16559   */\n      0x4e487b7100000000000000000000000000000000000000000000000000000000\n        /* \"#utility.yul\":16479:16480   */\n      0x00\n        /* \"#utility.yul\":16472:16560   */\n      mstore\n        /* \"#utility.yul\":16579:16583   */\n      0x41\n        /* \"#utility.yul\":16576:16577   */\n      0x04\n        /* \"#utility.yul\":16569:16584   */\n      mstore\n        /* \"#utility.yul\":16603:16607   */\n      0x24\n        /* \"#utility.yul\":16600:16601   */\n      0x00\n        /* \"#utility.yul\":16593:16608   */\n      revert\n        /* \"#utility.yul\":16620:16737   */\n    tag_161:\n        /* \"#utility.yul\":16729:16730   */\n      0x00\n        /* \"#utility.yul\":16726:16727   */\n      dup1\n        /* \"#utility.yul\":16719:16731   */\n      revert\n        /* \"#utility.yul\":16743:16860   */\n    tag_150:\n        /* \"#utility.yul\":16852:16853   */\n      0x00\n        /* \"#utility.yul\":16849:16850   */\n      dup1\n        /* \"#utility.yul\":16842:16854   */\n      revert\n        /* \"#utility.yul\":16866:16983   */\n    tag_177:\n        /* \"#utility.yul\":16975:16976   */\n      0x00\n        /* \"#utility.yul\":16972:16973   */\n      dup1\n        /* \"#utility.yul\":16965:16977   */\n      revert\n        /* \"#utility.yul\":16989:17106   */\n    tag_170:\n        /* \"#utility.yul\":17098:17099   */\n      0x00\n        /* \"#utility.yul\":17095:17096   */\n      dup1\n        /* \"#utility.yul\":17088:17100   */\n      revert\n        /* \"#utility.yul\":17112:17214   */\n    tag_218:\n        /* \"#utility.yul\":17153:17159   */\n      0x00\n        /* \"#utility.yul\":17204:17206   */\n      0x1f\n        /* \"#utility.yul\":17200:17207   */\n      not\n        /* \"#utility.yul\":17195:17197   */\n      0x1f\n        /* \"#utility.yul\":17188:17193   */\n      dup4\n        /* \"#utility.yul\":17184:17198   */\n      add\n        /* \"#utility.yul\":17180:17208   */\n      and\n        /* \"#utility.yul\":17170:17208   */\n      swap1\n      pop\n        /* \"#utility.yul\":17112:17214   */\n      swap2\n      swap1\n      pop\n      jump\t// out\n        /* \"#utility.yul\":17220:17390   */\n    tag_242:\n        /* \"#utility.yul\":17360:17382   */\n      0x486173206e6f20726967687420746f20766f7465000000000000000000000000\n        /* \"#utility.yul\":17356:17357   */\n      0x00\n        /* \"#utility.yul\":17348:17354   */\n      dup3\n        /* \"#utility.yul\":17344:17358   */\n      add\n        /* \"#utility.yul\":17337:17383   */\n      mstore\n        /* \"#utility.yul\":17220:17390   */\n      pop\n      jump\t// out\n        /* \"#utility.yul\":17396:17630   */\n    tag_247:\n        /* \"#utility.yul\":17536:17570   */\n      0x4f6e6c792074686520636f6e7472616374206f776e65722063616e2067697665\n        /* \"#utility.yul\":17532:17533   */\n      0x00\n        /* \"#utility.yul\":17524:17530   */\n      dup3\n        /* \"#utility.yul\":17520:17534   */\n      add\n        /* \"#utility.yul\":17513:17571   */\n      mstore\n        /* \"#utility.yul\":17605:17622   */\n      0x20726967687420746f20766f74652e0000000000000000000000000000000000\n        /* \"#utility.yul\":17600:17602   */\n      0x20\n        /* \"#utility.yul\":17592:17598   */\n      dup3\n        /* \"#utility.yul\":17588:17603   */\n      add\n        /* \"#utility.yul\":17581:17623   */\n      mstore\n        /* \"#utility.yul\":17396:17630   */\n      pop\n      jump\t// out\n        /* \"#utility.yul\":17636:17800   */\n    tag_252:\n        /* \"#utility.yul\":17776:17792   */\n      0x416c726561647920766f7465642e000000000000000000000000000000000000\n        /* \"#utility.yul\":17772:17773   */\n      0x00\n        /* \"#utility.yul\":17764:17770   */\n      dup3\n        /* \"#utility.yul\":17760:17774   */\n      add\n        /* \"#utility.yul\":17753:17793   */\n      mstore\n        /* \"#utility.yul\":17636:17800   */\n      pop\n      jump\t// out\n        /* \"#utility.yul\":17806:17980   */\n    tag_257:\n        /* \"#utility.yul\":17946:17972   */\n      0x54686520766f74657220616c726561647920766f7465642e0000000000000000\n        /* \"#utility.yul\":17942:17943   */\n      0x00\n        /* \"#utility.yul\":17934:17940   */\n      dup3\n        /* \"#utility.yul\":17930:17944   */\n      add\n        /* \"#utility.yul\":17923:17973   */\n      mstore\n        /* \"#utility.yul\":17806:17980   */\n      pop\n      jump\t// out\n        /* \"#utility.yul\":17986:18108   */\n    tag_156:\n        /* \"#utility.yul\":18059:18083   */\n      tag_353\n        /* \"#utility.yul\":18077:18082   */\n      dup2\n        /* \"#utility.yul\":18059:18083   */\n      tag_190\n      jump\t// in\n    tag_353:\n        /* \"#utility.yul\":18052:18057   */\n      dup2\n        /* \"#utility.yul\":18049:18084   */\n      eq\n        /* \"#utility.yul\":18039:18102   */\n      tag_354\n      jumpi\n        /* \"#utility.yul\":18098:18099   */\n      0x00\n        /* \"#utility.yul\":18095:18096   */\n      dup1\n        /* \"#utility.yul\":18088:18100   */\n      revert\n        /* \"#utility.yul\":18039:18102   */\n    tag_354:\n        /* \"#utility.yul\":17986:18108   */\n      pop\n      jump\t// out\n        /* \"#utility.yul\":18114:18236   */\n    tag_166:\n        /* \"#utility.yul\":18187:18211   */\n      tag_356\n        /* \"#utility.yul\":18205:18210   */\n      dup2\n        /* \"#utility.yul\":18187:18211   */\n      tag_265\n      jump\t// in\n    tag_356:\n        /* \"#utility.yul\":18180:18185   */\n      dup2\n        /* \"#utility.yul\":18177:18212   */\n      eq\n        /* \"#utility.yul\":18167:18230   */\n      tag_357\n      jumpi\n        /* \"#utility.yul\":18226:18227   */\n      0x00\n        /* \"#utility.yul\":18223:18224   */\n      dup1\n        /* \"#utility.yul\":18216:18228   */\n      revert\n        /* \"#utility.yul\":18167:18230   */\n    tag_357:\n        /* \"#utility.yul\":18114:18236   */\n      pop\n      jump\t// out\n\n    auxdata: 0xa264697066735822122087cfd372600c9ca1c1d01059b47b8ef7104c68512f12f23f7f48c0fc619b528864736f6c63430008070033\n}\n",
				"bytecode": {
					"linkReferences": {},
					"object": "60806040523480156200001157600080fd5b50604051620019e6380380620019e683398181016040528101906200003791906200036b565b336000806101000a81548173ffffffffffffffffffffffffffffffffffffffff021916908373ffffffffffffffffffffffffffffffffffffffff16021790555060005b8251811015620001655760026040518060600160405280858481518110620000a757620000a6620005d6565b5b60200260200101518152602001848481518110620000ca57620000c9620005d6565b5b60200260200101518152602001600081525090806001815401808255809150506001900390600052602060002090600302016000909190919091506000820151816000019080519060200190620001239291906200016e565b506020820151816001019080519060200190620001429291906200016e565b5060408201518160020155505080806200015c906200052a565b9150506200007a565b5050506200065e565b8280546200017c90620004be565b90600052602060002090601f016020900481019282620001a05760008555620001ec565b82601f10620001bb57805160ff1916838001178555620001ec565b82800160010185558215620001ec579182015b82811115620001eb578251825591602001919060010190620001ce565b5b509050620001fb9190620001ff565b5090565b5b808211156200021a57600081600090555060010162000200565b5090565b6000620002356200022f8462000419565b620003f0565b905080838252602082019050828560208602820111156200025b576200025a62000639565b5b60005b85811015620002b057815167ffffffffffffffff81111562000285576200028462000634565b5b80860162000294898262000338565b855260208501945060208401935050506001810190506200025e565b5050509392505050565b6000620002d1620002cb8462000448565b620003f0565b905082815260208101848484011115620002f057620002ef6200063e565b5b620002fd84828562000488565b509392505050565b600082601f8301126200031d576200031c62000634565b5b81516200032f8482602086016200021e565b91505092915050565b600082601f83011262000350576200034f62000634565b5b815162000362848260208601620002ba565b91505092915050565b6000806040838503121562000385576200038462000648565b5b600083015167ffffffffffffffff811115620003a657620003a562000643565b5b620003b48582860162000305565b925050602083015167ffffffffffffffff811115620003d857620003d762000643565b5b620003e68582860162000305565b9150509250929050565b6000620003fc6200040f565b90506200040a8282620004f4565b919050565b6000604051905090565b600067ffffffffffffffff82111562000437576200043662000605565b5b602082029050602081019050919050565b600067ffffffffffffffff82111562000466576200046562000605565b5b62000471826200064d565b9050602081019050919050565b6000819050919050565b60005b83811015620004a85780820151818401526020810190506200048b565b83811115620004b8576000848401525b50505050565b60006002820490506001821680620004d757607f821691505b60208210811415620004ee57620004ed620005a7565b5b50919050565b620004ff826200064d565b810181811067ffffffffffffffff8211171562000521576200052062000605565b5b80604052505050565b600062000537826200047e565b91507fffffffffffffffffffffffffffffffffffffffffffffffffffffffffffffffff8214156200056d576200056c62000578565b5b600182019050919050565b7f4e487b7100000000000000000000000000000000000000000000000000000000600052601160045260246000fd5b7f4e487b7100000000000000000000000000000000000000000000000000000000600052602260045260246000fd5b7f4e487b7100000000000000000000000000000000000000000000000000000000600052603260045260246000fd5b7f4e487b7100000000000000000000000000000000000000000000000000000000600052604160045260246000fd5b600080fd5b600080fd5b600080fd5b600080fd5b600080fd5b6000601f19601f8301169050919050565b611378806200066e6000396000f3fe608060405234801561001057600080fd5b506004361061009e5760003560e01c80639e7b8d61116100665780639e7b8d611461014d578063a3ec138d14610169578063a51346201461019a578063ce606ee0146101b8578063fc36e15b146101d65761009e565b806301c5556a146100a35780632bfda515146100c157806332a2c5d0146100df5780633477ee2e146100fd5780634aba5f341461012f575b600080fd5b6100ab6101f2565b6040516100b89190610f47565b60405180910390f35b6100c961021d565b6040516100d69190610e3e565b60405180910390f35b6100e76102d9565b6040516100f49190610dd8565b60405180910390f35b61011760048036038101906101129190610b11565b6102e1565b60405161012693929190610e60565b60405180910390f35b61013761042b565b6040516101449190610df3565b60405180910390f35b61016760048036038101906101629190610a9b565b6105b8565b005b610183600480360381019061017e9190610a9b565b610733565b604051610191929190610e15565b60405180910390f35b6101a2610771565b6040516101af9190610f47565b60405180910390f35b6101c06107f5565b6040516101cd9190610dd8565b60405180910390f35b6101f060048036038101906101eb9190610ac8565b610819565b005b60008060005b60028054905081101561021857808061021090611120565b9150506101f8565b505090565b60606002610229610771565b8154811061023a576102396111c7565b5b90600052602060002090600302016000018054610256906110bd565b80601f0160208091040260200160405190810160405280929190818152602001828054610282906110bd565b80156102cf5780601f106102a4576101008083540402835291602001916102cf565b820191906000526020600020905b8154815290600101906020018083116102b257829003601f168201915b5050505050905090565b600030905090565b600281815481106102f157600080fd5b9060005260206000209060030201600091509050806000018054610314906110bd565b80601f0160208091040260200160405190810160405280929190818152602001828054610340906110bd565b801561038d5780601f106103625761010080835404028352916020019161038d565b820191906000526020600020905b81548152906001019060200180831161037057829003601f168201915b5050505050908060010180546103a2906110bd565b80601f01602080910402602001604051908101604052809291908181526020018280546103ce906110bd565b801561041b5780601f106103f05761010080835404028352916020019161041b565b820191906000526020600020905b8154815290600101906020018083116103fe57829003601f168201915b5050505050908060020154905083565b60606002805480602002602001604051908101604052809291908181526020016000905b828210156105af5783829060005260206000209060030201604051806060016040529081600082018054610482906110bd565b80601f01602080910402602001604051908101604052809291908181526020018280546104ae906110bd565b80156104fb5780601f106104d0576101008083540402835291602001916104fb565b820191906000526020600020905b8154815290600101906020018083116104de57829003601f168201915b50505050508152602001600182018054610514906110bd565b80601f0160208091040260200160405190810160405280929190818152602001828054610540906110bd565b801561058d5780601f106105625761010080835404028352916020019161058d565b820191906000526020600020905b81548152906001019060200180831161057057829003601f168201915b505050505081526020016002820154815250508152602001906001019061044f565b50505050905090565b60008054906101000a900473ffffffffffffffffffffffffffffffffffffffff1673ffffffffffffffffffffffffffffffffffffffff163373ffffffffffffffffffffffffffffffffffffffff1614610646576040517f08c379a000000000000000000000000000000000000000000000000000000000815260040161063d90610ee7565b60405180910390fd5b600160008273ffffffffffffffffffffffffffffffffffffffff1673ffffffffffffffffffffffffffffffffffffffff16815260200190815260200160002060000160019054906101000a900460ff16156106d6576040517f08c379a00000000000000000000000000000000000000000000000000000000081526004016106cd90610f27565b60405180910390fd5b60018060008373ffffffffffffffffffffffffffffffffffffffff1673ffffffffffffffffffffffffffffffffffffffff16815260200190815260200160002060000160006101000a81548160ff02191690831515021790555050565b60016020528060005260406000206000915090508060000160009054906101000a900460ff16908060000160019054906101000a900460ff16905082565b60008060005b6002805490508110156107f0578160028281548110610799576107986111c7565b5b90600052602060002090600302016002015411156107dd57600281815481106107c5576107c46111c7565b5b90600052602060002090600302016002015491508092505b80806107e890611120565b915050610777565b505090565b60008054906101000a900473ffffffffffffffffffffffffffffffffffffffff1681565b6000600160003373ffffffffffffffffffffffffffffffffffffffff1673ffffffffffffffffffffffffffffffffffffffff16815260200190815260200160002090508060000160009054906101000a900460ff166108ad576040517f08c379a00000000000000000000000000000000000000000000000000000000081526004016108a490610ec7565b60405180910390fd5b8060000160019054906101000a900460ff16156108ff576040517f08c379a00000000000000000000000000000000000000000000000000000000081526004016108f690610f07565b60405180910390fd5b600080600090505b6002805490508110156109fb57836040516020016109259190610e3e565b604051602081830303815290604052805190602001206002828154811061094f5761094e6111c7565b5b90600052602060002090600302016000016040516020016109709190610ea5565b604051602081830303815290604052805190602001201415610990578091505b600282815481106109a4576109a36111c7565b5b906000526020600020906003020160020160008154809291906109c690611120565b919050555060018360000160016101000a81548160ff02191690831515021790555080806109f390611120565b915050610907565b50505050565b6000610a14610a0f84610f87565b610f62565b905082815260208101848484011115610a3057610a2f61122a565b5b610a3b84828561107b565b509392505050565b600081359050610a5281611314565b92915050565b600082601f830112610a6d57610a6c611225565b5b8135610a7d848260208601610a01565b91505092915050565b600081359050610a958161132b565b92915050565b600060208284031215610ab157610ab0611234565b5b6000610abf84828501610a43565b91505092915050565b600060208284031215610ade57610add611234565b5b600082013567ffffffffffffffff811115610afc57610afb61122f565b5b610b0884828501610a58565b91505092915050565b600060208284031215610b2757610b26611234565b5b6000610b3584828501610a86565b91505092915050565b6000610b4a8383610d63565b905092915050565b610b5b81611033565b82525050565b6000610b6c82610fdd565b610b768185611000565b935083602082028501610b8885610fb8565b8060005b85811015610bc45784840389528151610ba58582610b3e565b9450610bb083610ff3565b925060208a01995050600181019050610b8c565b50829750879550505050505092915050565b610bdf81611045565b82525050565b6000610bf082610fe8565b610bfa8185611011565b9350610c0a81856020860161108a565b610c1381611239565b840191505092915050565b6000610c2982610fe8565b610c338185611022565b9350610c4381856020860161108a565b610c4c81611239565b840191505092915050565b60008154610c64816110bd565b610c6e8186611022565b94506001821660008114610c895760018114610c9b57610cce565b60ff1983168652602086019350610cce565b610ca485610fc8565b60005b83811015610cc657815481890152600182019150602081019050610ca7565b808801955050505b50505092915050565b6000610ce4601483611022565b9150610cef8261124a565b602082019050919050565b6000610d07602f83611022565b9150610d1282611273565b604082019050919050565b6000610d2a600e83611022565b9150610d35826112c2565b602082019050919050565b6000610d4d601883611022565b9150610d58826112eb565b602082019050919050565b60006060830160008301518482036000860152610d808282610be5565b91505060208301518482036020860152610d9a8282610be5565b9150506040830151610daf6040860182610dba565b508091505092915050565b610dc381611071565b82525050565b610dd281611071565b82525050565b6000602082019050610ded6000830184610b52565b92915050565b60006020820190508181036000830152610e0d8184610b61565b905092915050565b6000604082019050610e2a6000830185610bd6565b610e376020830184610bd6565b9392505050565b60006020820190508181036000830152610e588184610c1e565b905092915050565b60006060820190508181036000830152610e7a8186610c1e565b90508181036020830152610e8e8185610c1e565b9050610e9d6040830184610dc9565b949350505050565b60006020820190508181036000830152610ebf8184610c57565b905092915050565b60006020820190508181036000830152610ee081610cd7565b9050919050565b60006020820190508181036000830152610f0081610cfa565b9050919050565b60006020820190508181036000830152610f2081610d1d565b9050919050565b60006020820190508181036000830152610f4081610d40565b9050919050565b6000602082019050610f5c6000830184610dc9565b92915050565b6000610f6c610f7d565b9050610f7882826110ef565b919050565b6000604051905090565b600067ffffffffffffffff821115610fa257610fa16111f6565b5b610fab82611239565b9050602081019050919050565b6000819050602082019050919050565b60008190508160005260206000209050919050565b600081519050919050565b600081519050919050565b6000602082019050919050565b600082825260208201905092915050565b600082825260208201905092915050565b600082825260208201905092915050565b600061103e82611051565b9050919050565b60008115159050919050565b600073ffffffffffffffffffffffffffffffffffffffff82169050919050565b6000819050919050565b82818337600083830152505050565b60005b838110156110a857808201518184015260208101905061108d565b838111156110b7576000848401525b50505050565b600060028204905060018216806110d557607f821691505b602082108114156110e9576110e8611198565b5b50919050565b6110f882611239565b810181811067ffffffffffffffff82111715611117576111166111f6565b5b80604052505050565b600061112b82611071565b91507fffffffffffffffffffffffffffffffffffffffffffffffffffffffffffffffff82141561115e5761115d611169565b5b600182019050919050565b7f4e487b7100000000000000000000000000000000000000000000000000000000600052601160045260246000fd5b7f4e487b7100000000000000000000000000000000000000000000000000000000600052602260045260246000fd5b7f4e487b7100000000000000000000000000000000000000000000000000000000600052603260045260246000fd5b7f4e487b7100000000000000000000000000000000000000000000000000000000600052604160045260246000fd5b600080fd5b600080fd5b600080fd5b600080fd5b6000601f19601f8301169050919050565b7f486173206e6f20726967687420746f20766f7465000000000000000000000000600082015250565b7f4f6e6c792074686520636f6e7472616374206f776e65722063616e206769766560008201527f20726967687420746f20766f74652e0000000000000000000000000000000000602082015250565b7f416c726561647920766f7465642e000000000000000000000000000000000000600082015250565b7f54686520766f74657220616c726561647920766f7465642e0000000000000000600082015250565b61131d81611033565b811461132857600080fd5b50565b61133481611071565b811461133f57600080fd5b5056fea264697066735822122087cfd372600c9ca1c1d01059b47b8ef7104c68512f12f23f7f48c0fc619b528864736f6c63430008070033",
					"opcodes": "PUSH1 0x80 PUSH1 0x40 MSTORE CALLVALUE DUP1 ISZERO PUSH3 0x11 JUMPI PUSH1 0x0 DUP1 REVERT JUMPDEST POP PUSH1 0x40 MLOAD PUSH3 0x19E6 CODESIZE SUB DUP1 PUSH3 0x19E6 DUP4 CODECOPY DUP2 DUP2 ADD PUSH1 0x40 MSTORE DUP2 ADD SWAP1 PUSH3 0x37 SWAP2 SWAP1 PUSH3 0x36B JUMP JUMPDEST CALLER PUSH1 0x0 DUP1 PUSH2 0x100 EXP DUP2 SLOAD DUP2 PUSH20 0xFFFFFFFFFFFFFFFFFFFFFFFFFFFFFFFFFFFFFFFF MUL NOT AND SWAP1 DUP4 PUSH20 0xFFFFFFFFFFFFFFFFFFFFFFFFFFFFFFFFFFFFFFFF AND MUL OR SWAP1 SSTORE POP PUSH1 0x0 JUMPDEST DUP3 MLOAD DUP2 LT ISZERO PUSH3 0x165 JUMPI PUSH1 0x2 PUSH1 0x40 MLOAD DUP1 PUSH1 0x60 ADD PUSH1 0x40 MSTORE DUP1 DUP6 DUP5 DUP2 MLOAD DUP2 LT PUSH3 0xA7 JUMPI PUSH3 0xA6 PUSH3 0x5D6 JUMP JUMPDEST JUMPDEST PUSH1 0x20 MUL PUSH1 0x20 ADD ADD MLOAD DUP2 MSTORE PUSH1 0x20 ADD DUP5 DUP5 DUP2 MLOAD DUP2 LT PUSH3 0xCA JUMPI PUSH3 0xC9 PUSH3 0x5D6 JUMP JUMPDEST JUMPDEST PUSH1 0x20 MUL PUSH1 0x20 ADD ADD MLOAD DUP2 MSTORE PUSH1 0x20 ADD PUSH1 0x0 DUP2 MSTORE POP SWAP1 DUP1 PUSH1 0x1 DUP2 SLOAD ADD DUP1 DUP3 SSTORE DUP1 SWAP2 POP POP PUSH1 0x1 SWAP1 SUB SWAP1 PUSH1 0x0 MSTORE PUSH1 0x20 PUSH1 0x0 KECCAK256 SWAP1 PUSH1 0x3 MUL ADD PUSH1 0x0 SWAP1 SWAP2 SWAP1 SWAP2 SWAP1 SWAP2 POP PUSH1 0x0 DUP3 ADD MLOAD DUP2 PUSH1 0x0 ADD SWAP1 DUP1 MLOAD SWAP1 PUSH1 0x20 ADD SWAP1 PUSH3 0x123 SWAP3 SWAP2 SWAP1 PUSH3 0x16E JUMP JUMPDEST POP PUSH1 0x20 DUP3 ADD MLOAD DUP2 PUSH1 0x1 ADD SWAP1 DUP1 MLOAD SWAP1 PUSH1 0x20 ADD SWAP1 PUSH3 0x142 SWAP3 SWAP2 SWAP1 PUSH3 0x16E JUMP JUMPDEST POP PUSH1 0x40 DUP3 ADD MLOAD DUP2 PUSH1 0x2 ADD SSTORE POP POP DUP1 DUP1 PUSH3 0x15C SWAP1 PUSH3 0x52A JUMP JUMPDEST SWAP2 POP POP PUSH3 0x7A JUMP JUMPDEST POP POP POP PUSH3 0x65E JUMP JUMPDEST DUP3 DUP1 SLOAD PUSH3 0x17C SWAP1 PUSH3 0x4BE JUMP JUMPDEST SWAP1 PUSH1 0x0 MSTORE PUSH1 0x20 PUSH1 0x0 KECCAK256 SWAP1 PUSH1 0x1F ADD PUSH1 0x20 SWAP1 DIV DUP2 ADD SWAP3 DUP3 PUSH3 0x1A0 JUMPI PUSH1 0x0 DUP6 SSTORE PUSH3 0x1EC JUMP JUMPDEST DUP3 PUSH1 0x1F LT PUSH3 0x1BB JUMPI DUP1 MLOAD PUSH1 0xFF NOT AND DUP4 DUP1 ADD OR DUP6 SSTORE PUSH3 0x1EC JUMP JUMPDEST DUP3 DUP1 ADD PUSH1 0x1 ADD DUP6 SSTORE DUP3 ISZERO PUSH3 0x1EC JUMPI SWAP2 DUP3 ADD JUMPDEST DUP3 DUP2 GT ISZERO PUSH3 0x1EB JUMPI DUP3 MLOAD DUP3 SSTORE SWAP2 PUSH1 0x20 ADD SWAP2 SWAP1 PUSH1 0x1 ADD SWAP1 PUSH3 0x1CE JUMP JUMPDEST JUMPDEST POP SWAP1 POP PUSH3 0x1FB SWAP2 SWAP1 PUSH3 0x1FF JUMP JUMPDEST POP SWAP1 JUMP JUMPDEST JUMPDEST DUP1 DUP3 GT ISZERO PUSH3 0x21A JUMPI PUSH1 0x0 DUP2 PUSH1 0x0 SWAP1 SSTORE POP PUSH1 0x1 ADD PUSH3 0x200 JUMP JUMPDEST POP SWAP1 JUMP JUMPDEST PUSH1 0x0 PUSH3 0x235 PUSH3 0x22F DUP5 PUSH3 0x419 JUMP JUMPDEST PUSH3 0x3F0 JUMP JUMPDEST SWAP1 POP DUP1 DUP4 DUP3 MSTORE PUSH1 0x20 DUP3 ADD SWAP1 POP DUP3 DUP6 PUSH1 0x20 DUP7 MUL DUP3 ADD GT ISZERO PUSH3 0x25B JUMPI PUSH3 0x25A PUSH3 0x639 JUMP JUMPDEST JUMPDEST PUSH1 0x0 JUMPDEST DUP6 DUP2 LT ISZERO PUSH3 0x2B0 JUMPI DUP2 MLOAD PUSH8 0xFFFFFFFFFFFFFFFF DUP2 GT ISZERO PUSH3 0x285 JUMPI PUSH3 0x284 PUSH3 0x634 JUMP JUMPDEST JUMPDEST DUP1 DUP7 ADD PUSH3 0x294 DUP10 DUP3 PUSH3 0x338 JUMP JUMPDEST DUP6 MSTORE PUSH1 0x20 DUP6 ADD SWAP5 POP PUSH1 0x20 DUP5 ADD SWAP4 POP POP POP PUSH1 0x1 DUP2 ADD SWAP1 POP PUSH3 0x25E JUMP JUMPDEST POP POP POP SWAP4 SWAP3 POP POP POP JUMP JUMPDEST PUSH1 0x0 PUSH3 0x2D1 PUSH3 0x2CB DUP5 PUSH3 0x448 JUMP JUMPDEST PUSH3 0x3F0 JUMP JUMPDEST SWAP1 POP DUP3 DUP2 MSTORE PUSH1 0x20 DUP2 ADD DUP5 DUP5 DUP5 ADD GT ISZERO PUSH3 0x2F0 JUMPI PUSH3 0x2EF PUSH3 0x63E JUMP JUMPDEST JUMPDEST PUSH3 0x2FD DUP5 DUP3 DUP6 PUSH3 0x488 JUMP JUMPDEST POP SWAP4 SWAP3 POP POP POP JUMP JUMPDEST PUSH1 0x0 DUP3 PUSH1 0x1F DUP4 ADD SLT PUSH3 0x31D JUMPI PUSH3 0x31C PUSH3 0x634 JUMP JUMPDEST JUMPDEST DUP2 MLOAD PUSH3 0x32F DUP5 DUP3 PUSH1 0x20 DUP7 ADD PUSH3 0x21E JUMP JUMPDEST SWAP2 POP POP SWAP3 SWAP2 POP POP JUMP JUMPDEST PUSH1 0x0 DUP3 PUSH1 0x1F DUP4 ADD SLT PUSH3 0x350 JUMPI PUSH3 0x34F PUSH3 0x634 JUMP JUMPDEST JUMPDEST DUP2 MLOAD PUSH3 0x362 DUP5 DUP3 PUSH1 0x20 DUP7 ADD PUSH3 0x2BA JUMP JUMPDEST SWAP2 POP POP SWAP3 SWAP2 POP POP JUMP JUMPDEST PUSH1 0x0 DUP1 PUSH1 0x40 DUP4 DUP6 SUB SLT ISZERO PUSH3 0x385 JUMPI PUSH3 0x384 PUSH3 0x648 JUMP JUMPDEST JUMPDEST PUSH1 0x0 DUP4 ADD MLOAD PUSH8 0xFFFFFFFFFFFFFFFF DUP2 GT ISZERO PUSH3 0x3A6 JUMPI PUSH3 0x3A5 PUSH3 0x643 JUMP JUMPDEST JUMPDEST PUSH3 0x3B4 DUP6 DUP3 DUP7 ADD PUSH3 0x305 JUMP JUMPDEST SWAP3 POP POP PUSH1 0x20 DUP4 ADD MLOAD PUSH8 0xFFFFFFFFFFFFFFFF DUP2 GT ISZERO PUSH3 0x3D8 JUMPI PUSH3 0x3D7 PUSH3 0x643 JUMP JUMPDEST JUMPDEST PUSH3 0x3E6 DUP6 DUP3 DUP7 ADD PUSH3 0x305 JUMP JUMPDEST SWAP2 POP POP SWAP3 POP SWAP3 SWAP1 POP JUMP JUMPDEST PUSH1 0x0 PUSH3 0x3FC PUSH3 0x40F JUMP JUMPDEST SWAP1 POP PUSH3 0x40A DUP3 DUP3 PUSH3 0x4F4 JUMP JUMPDEST SWAP2 SWAP1 POP JUMP JUMPDEST PUSH1 0x0 PUSH1 0x40 MLOAD SWAP1 POP SWAP1 JUMP JUMPDEST PUSH1 0x0 PUSH8 0xFFFFFFFFFFFFFFFF DUP3 GT ISZERO PUSH3 0x437 JUMPI PUSH3 0x436 PUSH3 0x605 JUMP JUMPDEST JUMPDEST PUSH1 0x20 DUP3 MUL SWAP1 POP PUSH1 0x20 DUP2 ADD SWAP1 POP SWAP2 SWAP1 POP JUMP JUMPDEST PUSH1 0x0 PUSH8 0xFFFFFFFFFFFFFFFF DUP3 GT ISZERO PUSH3 0x466 JUMPI PUSH3 0x465 PUSH3 0x605 JUMP JUMPDEST JUMPDEST PUSH3 0x471 DUP3 PUSH3 0x64D JUMP JUMPDEST SWAP1 POP PUSH1 0x20 DUP2 ADD SWAP1 POP SWAP2 SWAP1 POP JUMP JUMPDEST PUSH1 0x0 DUP2 SWAP1 POP SWAP2 SWAP1 POP JUMP JUMPDEST PUSH1 0x0 JUMPDEST DUP4 DUP2 LT ISZERO PUSH3 0x4A8 JUMPI DUP1 DUP3 ADD MLOAD DUP2 DUP5 ADD MSTORE PUSH1 0x20 DUP2 ADD SWAP1 POP PUSH3 0x48B JUMP JUMPDEST DUP4 DUP2 GT ISZERO PUSH3 0x4B8 JUMPI PUSH1 0x0 DUP5 DUP5 ADD MSTORE JUMPDEST POP POP POP POP JUMP JUMPDEST PUSH1 0x0 PUSH1 0x2 DUP3 DIV SWAP1 POP PUSH1 0x1 DUP3 AND DUP1 PUSH3 0x4D7 JUMPI PUSH1 0x7F DUP3 AND SWAP2 POP JUMPDEST PUSH1 0x20 DUP3 LT DUP2 EQ ISZERO PUSH3 0x4EE JUMPI PUSH3 0x4ED PUSH3 0x5A7 JUMP JUMPDEST JUMPDEST POP SWAP2 SWAP1 POP JUMP JUMPDEST PUSH3 0x4FF DUP3 PUSH3 0x64D JUMP JUMPDEST DUP2 ADD DUP2 DUP2 LT PUSH8 0xFFFFFFFFFFFFFFFF DUP3 GT OR ISZERO PUSH3 0x521 JUMPI PUSH3 0x520 PUSH3 0x605 JUMP JUMPDEST JUMPDEST DUP1 PUSH1 0x40 MSTORE POP POP POP JUMP JUMPDEST PUSH1 0x0 PUSH3 0x537 DUP3 PUSH3 0x47E JUMP JUMPDEST SWAP2 POP PUSH32 0xFFFFFFFFFFFFFFFFFFFFFFFFFFFFFFFFFFFFFFFFFFFFFFFFFFFFFFFFFFFFFFFF DUP3 EQ ISZERO PUSH3 0x56D JUMPI PUSH3 0x56C PUSH3 0x578 JUMP JUMPDEST JUMPDEST PUSH1 0x1 DUP3 ADD SWAP1 POP SWAP2 SWAP1 POP JUMP JUMPDEST PUSH32 0x4E487B7100000000000000000000000000000000000000000000000000000000 PUSH1 0x0 MSTORE PUSH1 0x11 PUSH1 0x4 MSTORE PUSH1 0x24 PUSH1 0x0 REVERT JUMPDEST PUSH32 0x4E487B7100000000000000000000000000000000000000000000000000000000 PUSH1 0x0 MSTORE PUSH1 0x22 PUSH1 0x4 MSTORE PUSH1 0x24 PUSH1 0x0 REVERT JUMPDEST PUSH32 0x4E487B7100000000000000000000000000000000000000000000000000000000 PUSH1 0x0 MSTORE PUSH1 0x32 PUSH1 0x4 MSTORE PUSH1 0x24 PUSH1 0x0 REVERT JUMPDEST PUSH32 0x4E487B7100000000000000000000000000000000000000000000000000000000 PUSH1 0x0 MSTORE PUSH1 0x41 PUSH1 0x4 MSTORE PUSH1 0x24 PUSH1 0x0 REVERT JUMPDEST PUSH1 0x0 DUP1 REVERT JUMPDEST PUSH1 0x0 DUP1 REVERT JUMPDEST PUSH1 0x0 DUP1 REVERT JUMPDEST PUSH1 0x0 DUP1 REVERT JUMPDEST PUSH1 0x0 DUP1 REVERT JUMPDEST PUSH1 0x0 PUSH1 0x1F NOT PUSH1 0x1F DUP4 ADD AND SWAP1 POP SWAP2 SWAP1 POP JUMP JUMPDEST PUSH2 0x1378 DUP1 PUSH3 0x66E PUSH1 0x0 CODECOPY PUSH1 0x0 RETURN INVALID PUSH1 0x80 PUSH1 0x40 MSTORE CALLVALUE DUP1 ISZERO PUSH2 0x10 JUMPI PUSH1 0x0 DUP1 REVERT JUMPDEST POP PUSH1 0x4 CALLDATASIZE LT PUSH2 0x9E JUMPI PUSH1 0x0 CALLDATALOAD PUSH1 0xE0 SHR DUP1 PUSH4 0x9E7B8D61 GT PUSH2 0x66 JUMPI DUP1 PUSH4 0x9E7B8D61 EQ PUSH2 0x14D JUMPI DUP1 PUSH4 0xA3EC138D EQ PUSH2 0x169 JUMPI DUP1 PUSH4 0xA5134620 EQ PUSH2 0x19A JUMPI DUP1 PUSH4 0xCE606EE0 EQ PUSH2 0x1B8 JUMPI DUP1 PUSH4 0xFC36E15B EQ PUSH2 0x1D6 JUMPI PUSH2 0x9E JUMP JUMPDEST DUP1 PUSH4 0x1C5556A EQ PUSH2 0xA3 JUMPI DUP1 PUSH4 0x2BFDA515 EQ PUSH2 0xC1 JUMPI DUP1 PUSH4 0x32A2C5D0 EQ PUSH2 0xDF JUMPI DUP1 PUSH4 0x3477EE2E EQ PUSH2 0xFD JUMPI DUP1 PUSH4 0x4ABA5F34 EQ PUSH2 0x12F JUMPI JUMPDEST PUSH1 0x0 DUP1 REVERT JUMPDEST PUSH2 0xAB PUSH2 0x1F2 JUMP JUMPDEST PUSH1 0x40 MLOAD PUSH2 0xB8 SWAP2 SWAP1 PUSH2 0xF47 JUMP JUMPDEST PUSH1 0x40 MLOAD DUP1 SWAP2 SUB SWAP1 RETURN JUMPDEST PUSH2 0xC9 PUSH2 0x21D JUMP JUMPDEST PUSH1 0x40 MLOAD PUSH2 0xD6 SWAP2 SWAP1 PUSH2 0xE3E JUMP JUMPDEST PUSH1 0x40 MLOAD DUP1 SWAP2 SUB SWAP1 RETURN JUMPDEST PUSH2 0xE7 PUSH2 0x2D9 JUMP JUMPDEST PUSH1 0x40 MLOAD PUSH2 0xF4 SWAP2 SWAP1 PUSH2 0xDD8 JUMP JUMPDEST PUSH1 0x40 MLOAD DUP1 SWAP2 SUB SWAP1 RETURN JUMPDEST PUSH2 0x117 PUSH1 0x4 DUP1 CALLDATASIZE SUB DUP2 ADD SWAP1 PUSH2 0x112 SWAP2 SWAP1 PUSH2 0xB11 JUMP JUMPDEST PUSH2 0x2E1 JUMP JUMPDEST PUSH1 0x40 MLOAD PUSH2 0x126 SWAP4 SWAP3 SWAP2 SWAP1 PUSH2 0xE60 JUMP JUMPDEST PUSH1 0x40 MLOAD DUP1 SWAP2 SUB SWAP1 RETURN JUMPDEST PUSH2 0x137 PUSH2 0x42B JUMP JUMPDEST PUSH1 0x40 MLOAD PUSH2 0x144 SWAP2 SWAP1 PUSH2 0xDF3 JUMP JUMPDEST PUSH1 0x40 MLOAD DUP1 SWAP2 SUB SWAP1 RETURN JUMPDEST PUSH2 0x167 PUSH1 0x4 DUP1 CALLDATASIZE SUB DUP2 ADD SWAP1 PUSH2 0x162 SWAP2 SWAP1 PUSH2 0xA9B JUMP JUMPDEST PUSH2 0x5B8 JUMP JUMPDEST STOP JUMPDEST PUSH2 0x183 PUSH1 0x4 DUP1 CALLDATASIZE SUB DUP2 ADD SWAP1 PUSH2 0x17E SWAP2 SWAP1 PUSH2 0xA9B JUMP JUMPDEST PUSH2 0x733 JUMP JUMPDEST PUSH1 0x40 MLOAD PUSH2 0x191 SWAP3 SWAP2 SWAP1 PUSH2 0xE15 JUMP JUMPDEST PUSH1 0x40 MLOAD DUP1 SWAP2 SUB SWAP1 RETURN JUMPDEST PUSH2 0x1A2 PUSH2 0x771 JUMP JUMPDEST PUSH1 0x40 MLOAD PUSH2 0x1AF SWAP2 SWAP1 PUSH2 0xF47 JUMP JUMPDEST PUSH1 0x40 MLOAD DUP1 SWAP2 SUB SWAP1 RETURN JUMPDEST PUSH2 0x1C0 PUSH2 0x7F5 JUMP JUMPDEST PUSH1 0x40 MLOAD PUSH2 0x1CD SWAP2 SWAP1 PUSH2 0xDD8 JUMP JUMPDEST PUSH1 0x40 MLOAD DUP1 SWAP2 SUB SWAP1 RETURN JUMPDEST PUSH2 0x1F0 PUSH1 0x4 DUP1 CALLDATASIZE SUB DUP2 ADD SWAP1 PUSH2 0x1EB SWAP2 SWAP1 PUSH2 0xAC8 JUMP JUMPDEST PUSH2 0x819 JUMP JUMPDEST STOP JUMPDEST PUSH1 0x0 DUP1 PUSH1 0x0 JUMPDEST PUSH1 0x2 DUP1 SLOAD SWAP1 POP DUP2 LT ISZERO PUSH2 0x218 JUMPI DUP1 DUP1 PUSH2 0x210 SWAP1 PUSH2 0x1120 JUMP JUMPDEST SWAP2 POP POP PUSH2 0x1F8 JUMP JUMPDEST POP POP SWAP1 JUMP JUMPDEST PUSH1 0x60 PUSH1 0x2 PUSH2 0x229 PUSH2 0x771 JUMP JUMPDEST DUP2 SLOAD DUP2 LT PUSH2 0x23A JUMPI PUSH2 0x239 PUSH2 0x11C7 JUMP JUMPDEST JUMPDEST SWAP1 PUSH1 0x0 MSTORE PUSH1 0x20 PUSH1 0x0 KECCAK256 SWAP1 PUSH1 0x3 MUL ADD PUSH1 0x0 ADD DUP1 SLOAD PUSH2 0x256 SWAP1 PUSH2 0x10BD JUMP JUMPDEST DUP1 PUSH1 0x1F ADD PUSH1 0x20 DUP1 SWAP2 DIV MUL PUSH1 0x20 ADD PUSH1 0x40 MLOAD SWAP1 DUP2 ADD PUSH1 0x40 MSTORE DUP1 SWAP3 SWAP2 SWAP1 DUP2 DUP2 MSTORE PUSH1 0x20 ADD DUP3 DUP1 SLOAD PUSH2 0x282 SWAP1 PUSH2 0x10BD JUMP JUMPDEST DUP1 ISZERO PUSH2 0x2CF JUMPI DUP1 PUSH1 0x1F LT PUSH2 0x2A4 JUMPI PUSH2 0x100 DUP1 DUP4 SLOAD DIV MUL DUP4 MSTORE SWAP2 PUSH1 0x20 ADD SWAP2 PUSH2 0x2CF JUMP JUMPDEST DUP3 ADD SWAP2 SWAP1 PUSH1 0x0 MSTORE PUSH1 0x20 PUSH1 0x0 KECCAK256 SWAP1 JUMPDEST DUP2 SLOAD DUP2 MSTORE SWAP1 PUSH1 0x1 ADD SWAP1 PUSH1 0x20 ADD DUP1 DUP4 GT PUSH2 0x2B2 JUMPI DUP3 SWAP1 SUB PUSH1 0x1F AND DUP3 ADD SWAP2 JUMPDEST POP POP POP POP POP SWAP1 POP SWAP1 JUMP JUMPDEST PUSH1 0x0 ADDRESS SWAP1 POP SWAP1 JUMP JUMPDEST PUSH1 0x2 DUP2 DUP2 SLOAD DUP2 LT PUSH2 0x2F1 JUMPI PUSH1 0x0 DUP1 REVERT JUMPDEST SWAP1 PUSH1 0x0 MSTORE PUSH1 0x20 PUSH1 0x0 KECCAK256 SWAP1 PUSH1 0x3 MUL ADD PUSH1 0x0 SWAP2 POP SWAP1 POP DUP1 PUSH1 0x0 ADD DUP1 SLOAD PUSH2 0x314 SWAP1 PUSH2 0x10BD JUMP JUMPDEST DUP1 PUSH1 0x1F ADD PUSH1 0x20 DUP1 SWAP2 DIV MUL PUSH1 0x20 ADD PUSH1 0x40 MLOAD SWAP1 DUP2 ADD PUSH1 0x40 MSTORE DUP1 SWAP3 SWAP2 SWAP1 DUP2 DUP2 MSTORE PUSH1 0x20 ADD DUP3 DUP1 SLOAD PUSH2 0x340 SWAP1 PUSH2 0x10BD JUMP JUMPDEST DUP1 ISZERO PUSH2 0x38D JUMPI DUP1 PUSH1 0x1F LT PUSH2 0x362 JUMPI PUSH2 0x100 DUP1 DUP4 SLOAD DIV MUL DUP4 MSTORE SWAP2 PUSH1 0x20 ADD SWAP2 PUSH2 0x38D JUMP JUMPDEST DUP3 ADD SWAP2 SWAP1 PUSH1 0x0 MSTORE PUSH1 0x20 PUSH1 0x0 KECCAK256 SWAP1 JUMPDEST DUP2 SLOAD DUP2 MSTORE SWAP1 PUSH1 0x1 ADD SWAP1 PUSH1 0x20 ADD DUP1 DUP4 GT PUSH2 0x370 JUMPI DUP3 SWAP1 SUB PUSH1 0x1F AND DUP3 ADD SWAP2 JUMPDEST POP POP POP POP POP SWAP1 DUP1 PUSH1 0x1 ADD DUP1 SLOAD PUSH2 0x3A2 SWAP1 PUSH2 0x10BD JUMP JUMPDEST DUP1 PUSH1 0x1F ADD PUSH1 0x20 DUP1 SWAP2 DIV MUL PUSH1 0x20 ADD PUSH1 0x40 MLOAD SWAP1 DUP2 ADD PUSH1 0x40 MSTORE DUP1 SWAP3 SWAP2 SWAP1 DUP2 DUP2 MSTORE PUSH1 0x20 ADD DUP3 DUP1 SLOAD PUSH2 0x3CE SWAP1 PUSH2 0x10BD JUMP JUMPDEST DUP1 ISZERO PUSH2 0x41B JUMPI DUP1 PUSH1 0x1F LT PUSH2 0x3F0 JUMPI PUSH2 0x100 DUP1 DUP4 SLOAD DIV MUL DUP4 MSTORE SWAP2 PUSH1 0x20 ADD SWAP2 PUSH2 0x41B JUMP JUMPDEST DUP3 ADD SWAP2 SWAP1 PUSH1 0x0 MSTORE PUSH1 0x20 PUSH1 0x0 KECCAK256 SWAP1 JUMPDEST DUP2 SLOAD DUP2 MSTORE SWAP1 PUSH1 0x1 ADD SWAP1 PUSH1 0x20 ADD DUP1 DUP4 GT PUSH2 0x3FE JUMPI DUP3 SWAP1 SUB PUSH1 0x1F AND DUP3 ADD SWAP2 JUMPDEST POP POP POP POP POP SWAP1 DUP1 PUSH1 0x2 ADD SLOAD SWAP1 POP DUP4 JUMP JUMPDEST PUSH1 0x60 PUSH1 0x2 DUP1 SLOAD DUP1 PUSH1 0x20 MUL PUSH1 0x20 ADD PUSH1 0x40 MLOAD SWAP1 DUP2 ADD PUSH1 0x40 MSTORE DUP1 SWAP3 SWAP2 SWAP1 DUP2 DUP2 MSTORE PUSH1 0x20 ADD PUSH1 0x0 SWAP1 JUMPDEST DUP3 DUP3 LT ISZERO PUSH2 0x5AF JUMPI DUP4 DUP3 SWAP1 PUSH1 0x0 MSTORE PUSH1 0x20 PUSH1 0x0 KECCAK256 SWAP1 PUSH1 0x3 MUL ADD PUSH1 0x40 MLOAD DUP1 PUSH1 0x60 ADD PUSH1 0x40 MSTORE SWAP1 DUP2 PUSH1 0x0 DUP3 ADD DUP1 SLOAD PUSH2 0x482 SWAP1 PUSH2 0x10BD JUMP JUMPDEST DUP1 PUSH1 0x1F ADD PUSH1 0x20 DUP1 SWAP2 DIV MUL PUSH1 0x20 ADD PUSH1 0x40 MLOAD SWAP1 DUP2 ADD PUSH1 0x40 MSTORE DUP1 SWAP3 SWAP2 SWAP1 DUP2 DUP2 MSTORE PUSH1 0x20 ADD DUP3 DUP1 SLOAD PUSH2 0x4AE SWAP1 PUSH2 0x10BD JUMP JUMPDEST DUP1 ISZERO PUSH2 0x4FB JUMPI DUP1 PUSH1 0x1F LT PUSH2 0x4D0 JUMPI PUSH2 0x100 DUP1 DUP4 SLOAD DIV MUL DUP4 MSTORE SWAP2 PUSH1 0x20 ADD SWAP2 PUSH2 0x4FB JUMP JUMPDEST DUP3 ADD SWAP2 SWAP1 PUSH1 0x0 MSTORE PUSH1 0x20 PUSH1 0x0 KECCAK256 SWAP1 JUMPDEST DUP2 SLOAD DUP2 MSTORE SWAP1 PUSH1 0x1 ADD SWAP1 PUSH1 0x20 ADD DUP1 DUP4 GT PUSH2 0x4DE JUMPI DUP3 SWAP1 SUB PUSH1 0x1F AND DUP3 ADD SWAP2 JUMPDEST POP POP POP POP POP DUP2 MSTORE PUSH1 0x20 ADD PUSH1 0x1 DUP3 ADD DUP1 SLOAD PUSH2 0x514 SWAP1 PUSH2 0x10BD JUMP JUMPDEST DUP1 PUSH1 0x1F ADD PUSH1 0x20 DUP1 SWAP2 DIV MUL PUSH1 0x20 ADD PUSH1 0x40 MLOAD SWAP1 DUP2 ADD PUSH1 0x40 MSTORE DUP1 SWAP3 SWAP2 SWAP1 DUP2 DUP2 MSTORE PUSH1 0x20 ADD DUP3 DUP1 SLOAD PUSH2 0x540 SWAP1 PUSH2 0x10BD JUMP JUMPDEST DUP1 ISZERO PUSH2 0x58D JUMPI DUP1 PUSH1 0x1F LT PUSH2 0x562 JUMPI PUSH2 0x100 DUP1 DUP4 SLOAD DIV MUL DUP4 MSTORE SWAP2 PUSH1 0x20 ADD SWAP2 PUSH2 0x58D JUMP JUMPDEST DUP3 ADD SWAP2 SWAP1 PUSH1 0x0 MSTORE PUSH1 0x20 PUSH1 0x0 KECCAK256 SWAP1 JUMPDEST DUP2 SLOAD DUP2 MSTORE SWAP1 PUSH1 0x1 ADD SWAP1 PUSH1 0x20 ADD DUP1 DUP4 GT PUSH2 0x570 JUMPI DUP3 SWAP1 SUB PUSH1 0x1F AND DUP3 ADD SWAP2 JUMPDEST POP POP POP POP POP DUP2 MSTORE PUSH1 0x20 ADD PUSH1 0x2 DUP3 ADD SLOAD DUP2 MSTORE POP POP DUP2 MSTORE PUSH1 0x20 ADD SWAP1 PUSH1 0x1 ADD SWAP1 PUSH2 0x44F JUMP JUMPDEST POP POP POP POP SWAP1 POP SWAP1 JUMP JUMPDEST PUSH1 0x0 DUP1 SLOAD SWAP1 PUSH2 0x100 EXP SWAP1 DIV PUSH20 0xFFFFFFFFFFFFFFFFFFFFFFFFFFFFFFFFFFFFFFFF AND PUSH20 0xFFFFFFFFFFFFFFFFFFFFFFFFFFFFFFFFFFFFFFFF AND CALLER PUSH20 0xFFFFFFFFFFFFFFFFFFFFFFFFFFFFFFFFFFFFFFFF AND EQ PUSH2 0x646 JUMPI PUSH1 0x40 MLOAD PUSH32 0x8C379A000000000000000000000000000000000000000000000000000000000 DUP2 MSTORE PUSH1 0x4 ADD PUSH2 0x63D SWAP1 PUSH2 0xEE7 JUMP JUMPDEST PUSH1 0x40 MLOAD DUP1 SWAP2 SUB SWAP1 REVERT JUMPDEST PUSH1 0x1 PUSH1 0x0 DUP3 PUSH20 0xFFFFFFFFFFFFFFFFFFFFFFFFFFFFFFFFFFFFFFFF AND PUSH20 0xFFFFFFFFFFFFFFFFFFFFFFFFFFFFFFFFFFFFFFFF AND DUP2 MSTORE PUSH1 0x20 ADD SWAP1 DUP2 MSTORE PUSH1 0x20 ADD PUSH1 0x0 KECCAK256 PUSH1 0x0 ADD PUSH1 0x1 SWAP1 SLOAD SWAP1 PUSH2 0x100 EXP SWAP1 DIV PUSH1 0xFF AND ISZERO PUSH2 0x6D6 JUMPI PUSH1 0x40 MLOAD PUSH32 0x8C379A000000000000000000000000000000000000000000000000000000000 DUP2 MSTORE PUSH1 0x4 ADD PUSH2 0x6CD SWAP1 PUSH2 0xF27 JUMP JUMPDEST PUSH1 0x40 MLOAD DUP1 SWAP2 SUB SWAP1 REVERT JUMPDEST PUSH1 0x1 DUP1 PUSH1 0x0 DUP4 PUSH20 0xFFFFFFFFFFFFFFFFFFFFFFFFFFFFFFFFFFFFFFFF AND PUSH20 0xFFFFFFFFFFFFFFFFFFFFFFFFFFFFFFFFFFFFFFFF AND DUP2 MSTORE PUSH1 0x20 ADD SWAP1 DUP2 MSTORE PUSH1 0x20 ADD PUSH1 0x0 KECCAK256 PUSH1 0x0 ADD PUSH1 0x0 PUSH2 0x100 EXP DUP2 SLOAD DUP2 PUSH1 0xFF MUL NOT AND SWAP1 DUP4 ISZERO ISZERO MUL OR SWAP1 SSTORE POP POP JUMP JUMPDEST PUSH1 0x1 PUSH1 0x20 MSTORE DUP1 PUSH1 0x0 MSTORE PUSH1 0x40 PUSH1 0x0 KECCAK256 PUSH1 0x0 SWAP2 POP SWAP1 POP DUP1 PUSH1 0x0 ADD PUSH1 0x0 SWAP1 SLOAD SWAP1 PUSH2 0x100 EXP SWAP1 DIV PUSH1 0xFF AND SWAP1 DUP1 PUSH1 0x0 ADD PUSH1 0x1 SWAP1 SLOAD SWAP1 PUSH2 0x100 EXP SWAP1 DIV PUSH1 0xFF AND SWAP1 POP DUP3 JUMP JUMPDEST PUSH1 0x0 DUP1 PUSH1 0x0 JUMPDEST PUSH1 0x2 DUP1 SLOAD SWAP1 POP DUP2 LT ISZERO PUSH2 0x7F0 JUMPI DUP2 PUSH1 0x2 DUP3 DUP2 SLOAD DUP2 LT PUSH2 0x799 JUMPI PUSH2 0x798 PUSH2 0x11C7 JUMP JUMPDEST JUMPDEST SWAP1 PUSH1 0x0 MSTORE PUSH1 0x20 PUSH1 0x0 KECCAK256 SWAP1 PUSH1 0x3 MUL ADD PUSH1 0x2 ADD SLOAD GT ISZERO PUSH2 0x7DD JUMPI PUSH1 0x2 DUP2 DUP2 SLOAD DUP2 LT PUSH2 0x7C5 JUMPI PUSH2 0x7C4 PUSH2 0x11C7 JUMP JUMPDEST JUMPDEST SWAP1 PUSH1 0x0 MSTORE PUSH1 0x20 PUSH1 0x0 KECCAK256 SWAP1 PUSH1 0x3 MUL ADD PUSH1 0x2 ADD SLOAD SWAP2 POP DUP1 SWAP3 POP JUMPDEST DUP1 DUP1 PUSH2 0x7E8 SWAP1 PUSH2 0x1120 JUMP JUMPDEST SWAP2 POP POP PUSH2 0x777 JUMP JUMPDEST POP POP SWAP1 JUMP JUMPDEST PUSH1 0x0 DUP1 SLOAD SWAP1 PUSH2 0x100 EXP SWAP1 DIV PUSH20 0xFFFFFFFFFFFFFFFFFFFFFFFFFFFFFFFFFFFFFFFF AND DUP2 JUMP JUMPDEST PUSH1 0x0 PUSH1 0x1 PUSH1 0x0 CALLER PUSH20 0xFFFFFFFFFFFFFFFFFFFFFFFFFFFFFFFFFFFFFFFF AND PUSH20 0xFFFFFFFFFFFFFFFFFFFFFFFFFFFFFFFFFFFFFFFF AND DUP2 MSTORE PUSH1 0x20 ADD SWAP1 DUP2 MSTORE PUSH1 0x20 ADD PUSH1 0x0 KECCAK256 SWAP1 POP DUP1 PUSH1 0x0 ADD PUSH1 0x0 SWAP1 SLOAD SWAP1 PUSH2 0x100 EXP SWAP1 DIV PUSH1 0xFF AND PUSH2 0x8AD JUMPI PUSH1 0x40 MLOAD PUSH32 0x8C379A000000000000000000000000000000000000000000000000000000000 DUP2 MSTORE PUSH1 0x4 ADD PUSH2 0x8A4 SWAP1 PUSH2 0xEC7 JUMP JUMPDEST PUSH1 0x40 MLOAD DUP1 SWAP2 SUB SWAP1 REVERT JUMPDEST DUP1 PUSH1 0x0 ADD PUSH1 0x1 SWAP1 SLOAD SWAP1 PUSH2 0x100 EXP SWAP1 DIV PUSH1 0xFF AND ISZERO PUSH2 0x8FF JUMPI PUSH1 0x40 MLOAD PUSH32 0x8C379A000000000000000000000000000000000000000000000000000000000 DUP2 MSTORE PUSH1 0x4 ADD PUSH2 0x8F6 SWAP1 PUSH2 0xF07 JUMP JUMPDEST PUSH1 0x40 MLOAD DUP1 SWAP2 SUB SWAP1 REVERT JUMPDEST PUSH1 0x0 DUP1 PUSH1 0x0 SWAP1 POP JUMPDEST PUSH1 0x2 DUP1 SLOAD SWAP1 POP DUP2 LT ISZERO PUSH2 0x9FB JUMPI DUP4 PUSH1 0x40 MLOAD PUSH1 0x20 ADD PUSH2 0x925 SWAP2 SWAP1 PUSH2 0xE3E JUMP JUMPDEST PUSH1 0x40 MLOAD PUSH1 0x20 DUP2 DUP4 SUB SUB DUP2 MSTORE SWAP1 PUSH1 0x40 MSTORE DUP1 MLOAD SWAP1 PUSH1 0x20 ADD KECCAK256 PUSH1 0x2 DUP3 DUP2 SLOAD DUP2 LT PUSH2 0x94F JUMPI PUSH2 0x94E PUSH2 0x11C7 JUMP JUMPDEST JUMPDEST SWAP1 PUSH1 0x0 MSTORE PUSH1 0x20 PUSH1 0x0 KECCAK256 SWAP1 PUSH1 0x3 MUL ADD PUSH1 0x0 ADD PUSH1 0x40 MLOAD PUSH1 0x20 ADD PUSH2 0x970 SWAP2 SWAP1 PUSH2 0xEA5 JUMP JUMPDEST PUSH1 0x40 MLOAD PUSH1 0x20 DUP2 DUP4 SUB SUB DUP2 MSTORE SWAP1 PUSH1 0x40 MSTORE DUP1 MLOAD SWAP1 PUSH1 0x20 ADD KECCAK256 EQ ISZERO PUSH2 0x990 JUMPI DUP1 SWAP2 POP JUMPDEST PUSH1 0x2 DUP3 DUP2 SLOAD DUP2 LT PUSH2 0x9A4 JUMPI PUSH2 0x9A3 PUSH2 0x11C7 JUMP JUMPDEST JUMPDEST SWAP1 PUSH1 0x0 MSTORE PUSH1 0x20 PUSH1 0x0 KECCAK256 SWAP1 PUSH1 0x3 MUL ADD PUSH1 0x2 ADD PUSH1 0x0 DUP2 SLOAD DUP1 SWAP3 SWAP2 SWAP1 PUSH2 0x9C6 SWAP1 PUSH2 0x1120 JUMP JUMPDEST SWAP2 SWAP1 POP SSTORE POP PUSH1 0x1 DUP4 PUSH1 0x0 ADD PUSH1 0x1 PUSH2 0x100 EXP DUP2 SLOAD DUP2 PUSH1 0xFF MUL NOT AND SWAP1 DUP4 ISZERO ISZERO MUL OR SWAP1 SSTORE POP DUP1 DUP1 PUSH2 0x9F3 SWAP1 PUSH2 0x1120 JUMP JUMPDEST SWAP2 POP POP PUSH2 0x907 JUMP JUMPDEST POP POP POP POP JUMP JUMPDEST PUSH1 0x0 PUSH2 0xA14 PUSH2 0xA0F DUP5 PUSH2 0xF87 JUMP JUMPDEST PUSH2 0xF62 JUMP JUMPDEST SWAP1 POP DUP3 DUP2 MSTORE PUSH1 0x20 DUP2 ADD DUP5 DUP5 DUP5 ADD GT ISZERO PUSH2 0xA30 JUMPI PUSH2 0xA2F PUSH2 0x122A JUMP JUMPDEST JUMPDEST PUSH2 0xA3B DUP5 DUP3 DUP6 PUSH2 0x107B JUMP JUMPDEST POP SWAP4 SWAP3 POP POP POP JUMP JUMPDEST PUSH1 0x0 DUP2 CALLDATALOAD SWAP1 POP PUSH2 0xA52 DUP2 PUSH2 0x1314 JUMP JUMPDEST SWAP3 SWAP2 POP POP JUMP JUMPDEST PUSH1 0x0 DUP3 PUSH1 0x1F DUP4 ADD SLT PUSH2 0xA6D JUMPI PUSH2 0xA6C PUSH2 0x1225 JUMP JUMPDEST JUMPDEST DUP2 CALLDATALOAD PUSH2 0xA7D DUP5 DUP3 PUSH1 0x20 DUP7 ADD PUSH2 0xA01 JUMP JUMPDEST SWAP2 POP POP SWAP3 SWAP2 POP POP JUMP JUMPDEST PUSH1 0x0 DUP2 CALLDATALOAD SWAP1 POP PUSH2 0xA95 DUP2 PUSH2 0x132B JUMP JUMPDEST SWAP3 SWAP2 POP POP JUMP JUMPDEST PUSH1 0x0 PUSH1 0x20 DUP3 DUP5 SUB SLT ISZERO PUSH2 0xAB1 JUMPI PUSH2 0xAB0 PUSH2 0x1234 JUMP JUMPDEST JUMPDEST PUSH1 0x0 PUSH2 0xABF DUP5 DUP3 DUP6 ADD PUSH2 0xA43 JUMP JUMPDEST SWAP2 POP POP SWAP3 SWAP2 POP POP JUMP JUMPDEST PUSH1 0x0 PUSH1 0x20 DUP3 DUP5 SUB SLT ISZERO PUSH2 0xADE JUMPI PUSH2 0xADD PUSH2 0x1234 JUMP JUMPDEST JUMPDEST PUSH1 0x0 DUP3 ADD CALLDATALOAD PUSH8 0xFFFFFFFFFFFFFFFF DUP2 GT ISZERO PUSH2 0xAFC JUMPI PUSH2 0xAFB PUSH2 0x122F JUMP JUMPDEST JUMPDEST PUSH2 0xB08 DUP5 DUP3 DUP6 ADD PUSH2 0xA58 JUMP JUMPDEST SWAP2 POP POP SWAP3 SWAP2 POP POP JUMP JUMPDEST PUSH1 0x0 PUSH1 0x20 DUP3 DUP5 SUB SLT ISZERO PUSH2 0xB27 JUMPI PUSH2 0xB26 PUSH2 0x1234 JUMP JUMPDEST JUMPDEST PUSH1 0x0 PUSH2 0xB35 DUP5 DUP3 DUP6 ADD PUSH2 0xA86 JUMP JUMPDEST SWAP2 POP POP SWAP3 SWAP2 POP POP JUMP JUMPDEST PUSH1 0x0 PUSH2 0xB4A DUP4 DUP4 PUSH2 0xD63 JUMP JUMPDEST SWAP1 POP SWAP3 SWAP2 POP POP JUMP JUMPDEST PUSH2 0xB5B DUP2 PUSH2 0x1033 JUMP JUMPDEST DUP3 MSTORE POP POP JUMP JUMPDEST PUSH1 0x0 PUSH2 0xB6C DUP3 PUSH2 0xFDD JUMP JUMPDEST PUSH2 0xB76 DUP2 DUP6 PUSH2 0x1000 JUMP JUMPDEST SWAP4 POP DUP4 PUSH1 0x20 DUP3 MUL DUP6 ADD PUSH2 0xB88 DUP6 PUSH2 0xFB8 JUMP JUMPDEST DUP1 PUSH1 0x0 JUMPDEST DUP6 DUP2 LT ISZERO PUSH2 0xBC4 JUMPI DUP5 DUP5 SUB DUP10 MSTORE DUP2 MLOAD PUSH2 0xBA5 DUP6 DUP3 PUSH2 0xB3E JUMP JUMPDEST SWAP5 POP PUSH2 0xBB0 DUP4 PUSH2 0xFF3 JUMP JUMPDEST SWAP3 POP PUSH1 0x20 DUP11 ADD SWAP10 POP POP PUSH1 0x1 DUP2 ADD SWAP1 POP PUSH2 0xB8C JUMP JUMPDEST POP DUP3 SWAP8 POP DUP8 SWAP6 POP POP POP POP POP POP SWAP3 SWAP2 POP POP JUMP JUMPDEST PUSH2 0xBDF DUP2 PUSH2 0x1045 JUMP JUMPDEST DUP3 MSTORE POP POP JUMP JUMPDEST PUSH1 0x0 PUSH2 0xBF0 DUP3 PUSH2 0xFE8 JUMP JUMPDEST PUSH2 0xBFA DUP2 DUP6 PUSH2 0x1011 JUMP JUMPDEST SWAP4 POP PUSH2 0xC0A DUP2 DUP6 PUSH1 0x20 DUP7 ADD PUSH2 0x108A JUMP JUMPDEST PUSH2 0xC13 DUP2 PUSH2 0x1239 JUMP JUMPDEST DUP5 ADD SWAP2 POP POP SWAP3 SWAP2 POP POP JUMP JUMPDEST PUSH1 0x0 PUSH2 0xC29 DUP3 PUSH2 0xFE8 JUMP JUMPDEST PUSH2 0xC33 DUP2 DUP6 PUSH2 0x1022 JUMP JUMPDEST SWAP4 POP PUSH2 0xC43 DUP2 DUP6 PUSH1 0x20 DUP7 ADD PUSH2 0x108A JUMP JUMPDEST PUSH2 0xC4C DUP2 PUSH2 0x1239 JUMP JUMPDEST DUP5 ADD SWAP2 POP POP SWAP3 SWAP2 POP POP JUMP JUMPDEST PUSH1 0x0 DUP2 SLOAD PUSH2 0xC64 DUP2 PUSH2 0x10BD JUMP JUMPDEST PUSH2 0xC6E DUP2 DUP7 PUSH2 0x1022 JUMP JUMPDEST SWAP5 POP PUSH1 0x1 DUP3 AND PUSH1 0x0 DUP2 EQ PUSH2 0xC89 JUMPI PUSH1 0x1 DUP2 EQ PUSH2 0xC9B JUMPI PUSH2 0xCCE JUMP JUMPDEST PUSH1 0xFF NOT DUP4 AND DUP7 MSTORE PUSH1 0x20 DUP7 ADD SWAP4 POP PUSH2 0xCCE JUMP JUMPDEST PUSH2 0xCA4 DUP6 PUSH2 0xFC8 JUMP JUMPDEST PUSH1 0x0 JUMPDEST DUP4 DUP2 LT ISZERO PUSH2 0xCC6 JUMPI DUP2 SLOAD DUP2 DUP10 ADD MSTORE PUSH1 0x1 DUP3 ADD SWAP2 POP PUSH1 0x20 DUP2 ADD SWAP1 POP PUSH2 0xCA7 JUMP JUMPDEST DUP1 DUP9 ADD SWAP6 POP POP POP JUMPDEST POP POP POP SWAP3 SWAP2 POP POP JUMP JUMPDEST PUSH1 0x0 PUSH2 0xCE4 PUSH1 0x14 DUP4 PUSH2 0x1022 JUMP JUMPDEST SWAP2 POP PUSH2 0xCEF DUP3 PUSH2 0x124A JUMP JUMPDEST PUSH1 0x20 DUP3 ADD SWAP1 POP SWAP2 SWAP1 POP JUMP JUMPDEST PUSH1 0x0 PUSH2 0xD07 PUSH1 0x2F DUP4 PUSH2 0x1022 JUMP JUMPDEST SWAP2 POP PUSH2 0xD12 DUP3 PUSH2 0x1273 JUMP JUMPDEST PUSH1 0x40 DUP3 ADD SWAP1 POP SWAP2 SWAP1 POP JUMP JUMPDEST PUSH1 0x0 PUSH2 0xD2A PUSH1 0xE DUP4 PUSH2 0x1022 JUMP JUMPDEST SWAP2 POP PUSH2 0xD35 DUP3 PUSH2 0x12C2 JUMP JUMPDEST PUSH1 0x20 DUP3 ADD SWAP1 POP SWAP2 SWAP1 POP JUMP JUMPDEST PUSH1 0x0 PUSH2 0xD4D PUSH1 0x18 DUP4 PUSH2 0x1022 JUMP JUMPDEST SWAP2 POP PUSH2 0xD58 DUP3 PUSH2 0x12EB JUMP JUMPDEST PUSH1 0x20 DUP3 ADD SWAP1 POP SWAP2 SWAP1 POP JUMP JUMPDEST PUSH1 0x0 PUSH1 0x60 DUP4 ADD PUSH1 0x0 DUP4 ADD MLOAD DUP5 DUP3 SUB PUSH1 0x0 DUP7 ADD MSTORE PUSH2 0xD80 DUP3 DUP3 PUSH2 0xBE5 JUMP JUMPDEST SWAP2 POP POP PUSH1 0x20 DUP4 ADD MLOAD DUP5 DUP3 SUB PUSH1 0x20 DUP7 ADD MSTORE PUSH2 0xD9A DUP3 DUP3 PUSH2 0xBE5 JUMP JUMPDEST SWAP2 POP POP PUSH1 0x40 DUP4 ADD MLOAD PUSH2 0xDAF PUSH1 0x40 DUP7 ADD DUP3 PUSH2 0xDBA JUMP JUMPDEST POP DUP1 SWAP2 POP POP SWAP3 SWAP2 POP POP JUMP JUMPDEST PUSH2 0xDC3 DUP2 PUSH2 0x1071 JUMP JUMPDEST DUP3 MSTORE POP POP JUMP JUMPDEST PUSH2 0xDD2 DUP2 PUSH2 0x1071 JUMP JUMPDEST DUP3 MSTORE POP POP JUMP JUMPDEST PUSH1 0x0 PUSH1 0x20 DUP3 ADD SWAP1 POP PUSH2 0xDED PUSH1 0x0 DUP4 ADD DUP5 PUSH2 0xB52 JUMP JUMPDEST SWAP3 SWAP2 POP POP JUMP JUMPDEST PUSH1 0x0 PUSH1 0x20 DUP3 ADD SWAP1 POP DUP2 DUP2 SUB PUSH1 0x0 DUP4 ADD MSTORE PUSH2 0xE0D DUP2 DUP5 PUSH2 0xB61 JUMP JUMPDEST SWAP1 POP SWAP3 SWAP2 POP POP JUMP JUMPDEST PUSH1 0x0 PUSH1 0x40 DUP3 ADD SWAP1 POP PUSH2 0xE2A PUSH1 0x0 DUP4 ADD DUP6 PUSH2 0xBD6 JUMP JUMPDEST PUSH2 0xE37 PUSH1 0x20 DUP4 ADD DUP5 PUSH2 0xBD6 JUMP JUMPDEST SWAP4 SWAP3 POP POP POP JUMP JUMPDEST PUSH1 0x0 PUSH1 0x20 DUP3 ADD SWAP1 POP DUP2 DUP2 SUB PUSH1 0x0 DUP4 ADD MSTORE PUSH2 0xE58 DUP2 DUP5 PUSH2 0xC1E JUMP JUMPDEST SWAP1 POP SWAP3 SWAP2 POP POP JUMP JUMPDEST PUSH1 0x0 PUSH1 0x60 DUP3 ADD SWAP1 POP DUP2 DUP2 SUB PUSH1 0x0 DUP4 ADD MSTORE PUSH2 0xE7A DUP2 DUP7 PUSH2 0xC1E JUMP JUMPDEST SWAP1 POP DUP2 DUP2 SUB PUSH1 0x20 DUP4 ADD MSTORE PUSH2 0xE8E DUP2 DUP6 PUSH2 0xC1E JUMP JUMPDEST SWAP1 POP PUSH2 0xE9D PUSH1 0x40 DUP4 ADD DUP5 PUSH2 0xDC9 JUMP JUMPDEST SWAP5 SWAP4 POP POP POP POP JUMP JUMPDEST PUSH1 0x0 PUSH1 0x20 DUP3 ADD SWAP1 POP DUP2 DUP2 SUB PUSH1 0x0 DUP4 ADD MSTORE PUSH2 0xEBF DUP2 DUP5 PUSH2 0xC57 JUMP JUMPDEST SWAP1 POP SWAP3 SWAP2 POP POP JUMP JUMPDEST PUSH1 0x0 PUSH1 0x20 DUP3 ADD SWAP1 POP DUP2 DUP2 SUB PUSH1 0x0 DUP4 ADD MSTORE PUSH2 0xEE0 DUP2 PUSH2 0xCD7 JUMP JUMPDEST SWAP1 POP SWAP2 SWAP1 POP JUMP JUMPDEST PUSH1 0x0 PUSH1 0x20 DUP3 ADD SWAP1 POP DUP2 DUP2 SUB PUSH1 0x0 DUP4 ADD MSTORE PUSH2 0xF00 DUP2 PUSH2 0xCFA JUMP JUMPDEST SWAP1 POP SWAP2 SWAP1 POP JUMP JUMPDEST PUSH1 0x0 PUSH1 0x20 DUP3 ADD SWAP1 POP DUP2 DUP2 SUB PUSH1 0x0 DUP4 ADD MSTORE PUSH2 0xF20 DUP2 PUSH2 0xD1D JUMP JUMPDEST SWAP1 POP SWAP2 SWAP1 POP JUMP JUMPDEST PUSH1 0x0 PUSH1 0x20 DUP3 ADD SWAP1 POP DUP2 DUP2 SUB PUSH1 0x0 DUP4 ADD MSTORE PUSH2 0xF40 DUP2 PUSH2 0xD40 JUMP JUMPDEST SWAP1 POP SWAP2 SWAP1 POP JUMP JUMPDEST PUSH1 0x0 PUSH1 0x20 DUP3 ADD SWAP1 POP PUSH2 0xF5C PUSH1 0x0 DUP4 ADD DUP5 PUSH2 0xDC9 JUMP JUMPDEST SWAP3 SWAP2 POP POP JUMP JUMPDEST PUSH1 0x0 PUSH2 0xF6C PUSH2 0xF7D JUMP JUMPDEST SWAP1 POP PUSH2 0xF78 DUP3 DUP3 PUSH2 0x10EF JUMP JUMPDEST SWAP2 SWAP1 POP JUMP JUMPDEST PUSH1 0x0 PUSH1 0x40 MLOAD SWAP1 POP SWAP1 JUMP JUMPDEST PUSH1 0x0 PUSH8 0xFFFFFFFFFFFFFFFF DUP3 GT ISZERO PUSH2 0xFA2 JUMPI PUSH2 0xFA1 PUSH2 0x11F6 JUMP JUMPDEST JUMPDEST PUSH2 0xFAB DUP3 PUSH2 0x1239 JUMP JUMPDEST SWAP1 POP PUSH1 0x20 DUP2 ADD SWAP1 POP SWAP2 SWAP1 POP JUMP JUMPDEST PUSH1 0x0 DUP2 SWAP1 POP PUSH1 0x20 DUP3 ADD SWAP1 POP SWAP2 SWAP1 POP JUMP JUMPDEST PUSH1 0x0 DUP2 SWAP1 POP DUP2 PUSH1 0x0 MSTORE PUSH1 0x20 PUSH1 0x0 KECCAK256 SWAP1 POP SWAP2 SWAP1 POP JUMP JUMPDEST PUSH1 0x0 DUP2 MLOAD SWAP1 POP SWAP2 SWAP1 POP JUMP JUMPDEST PUSH1 0x0 DUP2 MLOAD SWAP1 POP SWAP2 SWAP1 POP JUMP JUMPDEST PUSH1 0x0 PUSH1 0x20 DUP3 ADD SWAP1 POP SWAP2 SWAP1 POP JUMP JUMPDEST PUSH1 0x0 DUP3 DUP3 MSTORE PUSH1 0x20 DUP3 ADD SWAP1 POP SWAP3 SWAP2 POP POP JUMP JUMPDEST PUSH1 0x0 DUP3 DUP3 MSTORE PUSH1 0x20 DUP3 ADD SWAP1 POP SWAP3 SWAP2 POP POP JUMP JUMPDEST PUSH1 0x0 DUP3 DUP3 MSTORE PUSH1 0x20 DUP3 ADD SWAP1 POP SWAP3 SWAP2 POP POP JUMP JUMPDEST PUSH1 0x0 PUSH2 0x103E DUP3 PUSH2 0x1051 JUMP JUMPDEST SWAP1 POP SWAP2 SWAP1 POP JUMP JUMPDEST PUSH1 0x0 DUP2 ISZERO ISZERO SWAP1 POP SWAP2 SWAP1 POP JUMP JUMPDEST PUSH1 0x0 PUSH20 0xFFFFFFFFFFFFFFFFFFFFFFFFFFFFFFFFFFFFFFFF DUP3 AND SWAP1 POP SWAP2 SWAP1 POP JUMP JUMPDEST PUSH1 0x0 DUP2 SWAP1 POP SWAP2 SWAP1 POP JUMP JUMPDEST DUP3 DUP2 DUP4 CALLDATACOPY PUSH1 0x0 DUP4 DUP4 ADD MSTORE POP POP POP JUMP JUMPDEST PUSH1 0x0 JUMPDEST DUP4 DUP2 LT ISZERO PUSH2 0x10A8 JUMPI DUP1 DUP3 ADD MLOAD DUP2 DUP5 ADD MSTORE PUSH1 0x20 DUP2 ADD SWAP1 POP PUSH2 0x108D JUMP JUMPDEST DUP4 DUP2 GT ISZERO PUSH2 0x10B7 JUMPI PUSH1 0x0 DUP5 DUP5 ADD MSTORE JUMPDEST POP POP POP POP JUMP JUMPDEST PUSH1 0x0 PUSH1 0x2 DUP3 DIV SWAP1 POP PUSH1 0x1 DUP3 AND DUP1 PUSH2 0x10D5 JUMPI PUSH1 0x7F DUP3 AND SWAP2 POP JUMPDEST PUSH1 0x20 DUP3 LT DUP2 EQ ISZERO PUSH2 0x10E9 JUMPI PUSH2 0x10E8 PUSH2 0x1198 JUMP JUMPDEST JUMPDEST POP SWAP2 SWAP1 POP JUMP JUMPDEST PUSH2 0x10F8 DUP3 PUSH2 0x1239 JUMP JUMPDEST DUP2 ADD DUP2 DUP2 LT PUSH8 0xFFFFFFFFFFFFFFFF DUP3 GT OR ISZERO PUSH2 0x1117 JUMPI PUSH2 0x1116 PUSH2 0x11F6 JUMP JUMPDEST JUMPDEST DUP1 PUSH1 0x40 MSTORE POP POP POP JUMP JUMPDEST PUSH1 0x0 PUSH2 0x112B DUP3 PUSH2 0x1071 JUMP JUMPDEST SWAP2 POP PUSH32 0xFFFFFFFFFFFFFFFFFFFFFFFFFFFFFFFFFFFFFFFFFFFFFFFFFFFFFFFFFFFFFFFF DUP3 EQ ISZERO PUSH2 0x115E JUMPI PUSH2 0x115D PUSH2 0x1169 JUMP JUMPDEST JUMPDEST PUSH1 0x1 DUP3 ADD SWAP1 POP SWAP2 SWAP1 POP JUMP JUMPDEST PUSH32 0x4E487B7100000000000000000000000000000000000000000000000000000000 PUSH1 0x0 MSTORE PUSH1 0x11 PUSH1 0x4 MSTORE PUSH1 0x24 PUSH1 0x0 REVERT JUMPDEST PUSH32 0x4E487B7100000000000000000000000000000000000000000000000000000000 PUSH1 0x0 MSTORE PUSH1 0x22 PUSH1 0x4 MSTORE PUSH1 0x24 PUSH1 0x0 REVERT JUMPDEST PUSH32 0x4E487B7100000000000000000000000000000000000000000000000000000000 PUSH1 0x0 MSTORE PUSH1 0x32 PUSH1 0x4 MSTORE PUSH1 0x24 PUSH1 0x0 REVERT JUMPDEST PUSH32 0x4E487B7100000000000000000000000000000000000000000000000000000000 PUSH1 0x0 MSTORE PUSH1 0x41 PUSH1 0x4 MSTORE PUSH1 0x24 PUSH1 0x0 REVERT JUMPDEST PUSH1 0x0 DUP1 REVERT JUMPDEST PUSH1 0x0 DUP1 REVERT JUMPDEST PUSH1 0x0 DUP1 REVERT JUMPDEST PUSH1 0x0 DUP1 REVERT JUMPDEST PUSH1 0x0 PUSH1 0x1F NOT PUSH1 0x1F DUP4 ADD AND SWAP1 POP SWAP2 SWAP1 POP JUMP JUMPDEST PUSH32 0x486173206E6F20726967687420746F20766F7465000000000000000000000000 PUSH1 0x0 DUP3 ADD MSTORE POP JUMP JUMPDEST PUSH32 0x4F6E6C792074686520636F6E7472616374206F776E65722063616E2067697665 PUSH1 0x0 DUP3 ADD MSTORE PUSH32 0x20726967687420746F20766F74652E0000000000000000000000000000000000 PUSH1 0x20 DUP3 ADD MSTORE POP JUMP JUMPDEST PUSH32 0x416C726561647920766F7465642E000000000000000000000000000000000000 PUSH1 0x0 DUP3 ADD MSTORE POP JUMP JUMPDEST PUSH32 0x54686520766F74657220616C726561647920766F7465642E0000000000000000 PUSH1 0x0 DUP3 ADD MSTORE POP JUMP JUMPDEST PUSH2 0x131D DUP2 PUSH2 0x1033 JUMP JUMPDEST DUP2 EQ PUSH2 0x1328 JUMPI PUSH1 0x0 DUP1 REVERT JUMPDEST POP JUMP JUMPDEST PUSH2 0x1334 DUP2 PUSH2 0x1071 JUMP JUMPDEST DUP2 EQ PUSH2 0x133F JUMPI PUSH1 0x0 DUP1 REVERT JUMPDEST POP JUMP INVALID LOG2 PUSH5 0x6970667358 0x22 SLT KECCAK256 DUP8 0xCF 0xD3 PUSH19 0x600C9CA1C1D01059B47B8EF7104C68512F12F2 EXTCODEHASH PUSH32 0x48C0FC619B528864736F6C634300080700330000000000000000000000000000 "
				},
				"gasEstimates": {
					"creation": {
						"codeDepositCost": "996800",
						"executionCost": "infinite",
						"totalCost": "infinite"
					},
					"external": {
						"calculateAmountOfTotalVotes()": "infinite",
						"candidates(uint256)": "infinite",
						"contractOwner()": "2577",
						"getCandidatesList()": "infinite",
						"getContractAddress()": "430",
						"getWinnerName()": "infinite",
						"getWinningProposal()": "infinite",
						"giveRightToVote(address)": "29287",
						"vote(string)": "infinite",
						"voters(address)": "infinite"
					}
				},
				"methodIdentifiers": {
					"calculateAmountOfTotalVotes()": "01c5556a",
					"candidates(uint256)": "3477ee2e",
					"contractOwner()": "ce606ee0",
					"getCandidatesList()": "4aba5f34",
					"getContractAddress()": "32a2c5d0",
					"getWinnerName()": "2bfda515",
					"getWinningProposal()": "a5134620",
					"giveRightToVote(address)": "9e7b8d61",
					"vote(string)": "fc36e15b",
					"voters(address)": "a3ec138d"
				}
			},
			"storageLayout": {
				"storage": [
					{
						"astId": 15,
						"contract": "contracts/Ballot/MyBallot.sol:MyBallot",
						"label": "contractOwner",
						"offset": 0,
						"slot": "0",
						"type": "t_address"
					},
					{
						"astId": 20,
						"contract": "contracts/Ballot/MyBallot.sol:MyBallot",
						"label": "voters",
						"offset": 0,
						"slot": "1",
						"type": "t_mapping(t_address,t_struct(Voter)6_storage)"
					},
					{
						"astId": 24,
						"contract": "contracts/Ballot/MyBallot.sol:MyBallot",
						"label": "candidates",
						"offset": 0,
						"slot": "2",
						"type": "t_array(t_struct(Candidate)13_storage)dyn_storage"
					}
				],
				"types": {
					"t_address": {
						"encoding": "inplace",
						"label": "address",
						"numberOfBytes": "20"
					},
					"t_array(t_struct(Candidate)13_storage)dyn_storage": {
						"base": "t_struct(Candidate)13_storage",
						"encoding": "dynamic_array",
						"label": "struct MyBallot.Candidate[]",
						"numberOfBytes": "32"
					},
					"t_bool": {
						"encoding": "inplace",
						"label": "bool",
						"numberOfBytes": "1"
					},
					"t_mapping(t_address,t_struct(Voter)6_storage)": {
						"encoding": "mapping",
						"key": "t_address",
						"label": "mapping(address => struct MyBallot.Voter)",
						"numberOfBytes": "32",
						"value": "t_struct(Voter)6_storage"
					},
					"t_string_storage": {
						"encoding": "bytes",
						"label": "string",
						"numberOfBytes": "32"
					},
					"t_struct(Candidate)13_storage": {
						"encoding": "inplace",
						"label": "struct MyBallot.Candidate",
						"members": [
							{
								"astId": 8,
								"contract": "contracts/Ballot/MyBallot.sol:MyBallot",
								"label": "name",
								"offset": 0,
								"slot": "0",
								"type": "t_string_storage"
							},
							{
								"astId": 10,
								"contract": "contracts/Ballot/MyBallot.sol:MyBallot",
								"label": "party",
								"offset": 0,
								"slot": "1",
								"type": "t_string_storage"
							},
							{
								"astId": 12,
								"contract": "contracts/Ballot/MyBallot.sol:MyBallot",
								"label": "votesCount",
								"offset": 0,
								"slot": "2",
								"type": "t_uint256"
							}
						],
						"numberOfBytes": "96"
					},
					"t_struct(Voter)6_storage": {
						"encoding": "inplace",
						"label": "struct MyBallot.Voter",
						"members": [
							{
								"astId": 3,
								"contract": "contracts/Ballot/MyBallot.sol:MyBallot",
								"label": "canVote",
								"offset": 0,
								"slot": "0",
								"type": "t_bool"
							},
							{
								"astId": 5,
								"contract": "contracts/Ballot/MyBallot.sol:MyBallot",
								"label": "hasVoted",
								"offset": 1,
								"slot": "0",
								"type": "t_bool"
							}
						],
						"numberOfBytes": "32"
					},
					"t_uint256": {
						"encoding": "inplace",
						"label": "uint256",
						"numberOfBytes": "32"
					}
				}
			},
			"userdoc": {
				"kind": "user",
				"methods": {},
				"version": 1
			}
		}
	}
}