{
	"contracts/Ballot/MyBallot.sol": {
		"MyBallot": {
			"abi": [
				{
					"inputs": [
						{
							"internalType": "string[]",
							"name": "proposalCandidatesName",
							"type": "string[]"
						},
						{
							"internalType": "string[]",
							"name": "proposalCandidatesParty",
							"type": "string[]"
						}
					],
					"stateMutability": "nonpayable",
					"type": "constructor"
				},
				{
					"inputs": [
						{
							"internalType": "uint256",
							"name": "",
							"type": "uint256"
						}
					],
					"name": "candidates",
					"outputs": [
						{
							"internalType": "string",
							"name": "name",
							"type": "string"
						},
						{
							"internalType": "string",
							"name": "party",
							"type": "string"
						},
						{
							"internalType": "uint256",
							"name": "votesCount",
							"type": "uint256"
						}
					],
					"stateMutability": "view",
					"type": "function"
				},
				{
					"inputs": [],
					"name": "contractOwner",
					"outputs": [
						{
							"internalType": "address",
							"name": "",
							"type": "address"
						}
					],
					"stateMutability": "view",
					"type": "function"
				},
				{
					"inputs": [],
					"name": "getCandidatesList",
					"outputs": [
						{
							"components": [
								{
									"internalType": "string",
									"name": "name",
									"type": "string"
								},
								{
									"internalType": "string",
									"name": "party",
									"type": "string"
								},
								{
									"internalType": "uint256",
									"name": "votesCount",
									"type": "uint256"
								}
							],
							"internalType": "struct MyBallot.Candidate[]",
							"name": "",
							"type": "tuple[]"
						}
					],
					"stateMutability": "view",
					"type": "function"
				},
				{
					"inputs": [],
					"name": "getContractAddress",
					"outputs": [
						{
							"internalType": "address",
							"name": "",
							"type": "address"
						}
					],
					"stateMutability": "view",
					"type": "function"
				},
				{
					"inputs": [],
					"name": "getWinnerName",
					"outputs": [
						{
							"internalType": "string",
							"name": "winnerName",
							"type": "string"
						}
					],
					"stateMutability": "view",
					"type": "function"
				},
				{
					"inputs": [],
					"name": "getWinningProposal",
					"outputs": [
						{
							"internalType": "uint256",
							"name": "winningProposal",
							"type": "uint256"
						}
					],
					"stateMutability": "view",
					"type": "function"
				},
				{
					"inputs": [
						{
							"internalType": "address",
							"name": "voter",
							"type": "address"
						}
					],
					"name": "giveRightToVote",
					"outputs": [],
					"stateMutability": "nonpayable",
					"type": "function"
				},
				{
					"inputs": [
						{
							"internalType": "address",
							"name": "",
							"type": "address"
						}
					],
					"name": "voters",
					"outputs": [
						{
							"internalType": "bool",
							"name": "canVote",
							"type": "bool"
						},
						{
							"internalType": "bool",
							"name": "hasVoted",
							"type": "bool"
						}
					],
					"stateMutability": "view",
					"type": "function"
				}
			],
			"devdoc": {
				"kind": "dev",
				"methods": {},
				"version": 1
			},
			"evm": {
				"assembly": "    /* \"contracts/Ballot/MyBallot.sol\":127:2669  contract MyBallot {... */\n  mstore(0x40, 0x80)\n    /* \"contracts/Ballot/MyBallot.sol\":493:934  constructor(string[] memory proposalCandidatesName, string[] memory proposalCandidatesParty) {... */\n  callvalue\n  dup1\n  iszero\n  tag_1\n  jumpi\n  0x00\n  dup1\n  revert\ntag_1:\n  pop\n  mload(0x40)\n  sub(codesize, bytecodeSize)\n  dup1\n  bytecodeSize\n  dup4\n  codecopy\n  dup2\n  dup2\n  add\n  0x40\n  mstore\n  dup2\n  add\n  swap1\n  tag_2\n  swap2\n  swap1\n  tag_3\n  jump\t// in\ntag_2:\n    /* \"contracts/Ballot/MyBallot.sol\":623:633  msg.sender */\n  caller\n    /* \"contracts/Ballot/MyBallot.sol\":607:620  contractOwner */\n  0x00\n  dup1\n    /* \"contracts/Ballot/MyBallot.sol\":607:633  contractOwner = msg.sender */\n  0x0100\n  exp\n  dup2\n  sload\n  dup2\n  0xffffffffffffffffffffffffffffffffffffffff\n  mul\n  not\n  and\n  swap1\n  dup4\n  0xffffffffffffffffffffffffffffffffffffffff\n  and\n  mul\n  or\n  swap1\n  sstore\n  pop\n    /* \"contracts/Ballot/MyBallot.sol\":651:661  uint index */\n  0x00\n    /* \"contracts/Ballot/MyBallot.sol\":646:927  for (uint index = 0; index < proposalCandidatesName.length; index++) {... */\ntag_6:\n    /* \"contracts/Ballot/MyBallot.sol\":675:697  proposalCandidatesName */\n  dup3\n    /* \"contracts/Ballot/MyBallot.sol\":675:704  proposalCandidatesName.length */\n  mload\n    /* \"contracts/Ballot/MyBallot.sol\":667:672  index */\n  dup2\n    /* \"contracts/Ballot/MyBallot.sol\":667:704  index < proposalCandidatesName.length */\n  lt\n    /* \"contracts/Ballot/MyBallot.sol\":646:927  for (uint index = 0; index < proposalCandidatesName.length; index++) {... */\n  iszero\n  tag_7\n  jumpi\n    /* \"contracts/Ballot/MyBallot.sol\":730:740  candidates */\n  0x02\n    /* \"contracts/Ballot/MyBallot.sol\":746:914  Candidate({... */\n  mload(0x40)\n  dup1\n  0x60\n  add\n  0x40\n  mstore\n  dup1\n    /* \"contracts/Ballot/MyBallot.sol\":781:803  proposalCandidatesName */\n  dup6\n    /* \"contracts/Ballot/MyBallot.sol\":804:809  index */\n  dup5\n    /* \"contracts/Ballot/MyBallot.sol\":781:810  proposalCandidatesName[index] */\n  dup2\n  mload\n  dup2\n  lt\n  tag_9\n  jumpi\n  tag_10\n  tag_11\n  jump\t// in\ntag_10:\ntag_9:\n  0x20\n  mul\n  0x20\n  add\n  add\n  mload\n    /* \"contracts/Ballot/MyBallot.sol\":746:914  Candidate({... */\n  dup2\n  mstore\n  0x20\n  add\n    /* \"contracts/Ballot/MyBallot.sol\":836:859  proposalCandidatesParty */\n  dup5\n    /* \"contracts/Ballot/MyBallot.sol\":860:865  index */\n  dup5\n    /* \"contracts/Ballot/MyBallot.sol\":836:866  proposalCandidatesParty[index] */\n  dup2\n  mload\n  dup2\n  lt\n  tag_12\n  jumpi\n  tag_13\n  tag_11\n  jump\t// in\ntag_13:\ntag_12:\n  0x20\n  mul\n  0x20\n  add\n  add\n  mload\n    /* \"contracts/Ballot/MyBallot.sol\":746:914  Candidate({... */\n  dup2\n  mstore\n  0x20\n  add\n    /* \"contracts/Ballot/MyBallot.sol\":897:898  0 */\n  0x00\n    /* \"contracts/Ballot/MyBallot.sol\":746:914  Candidate({... */\n  dup2\n  mstore\n  pop\n    /* \"contracts/Ballot/MyBallot.sol\":730:915  candidates.push(Candidate({... */\n  swap1\n  dup1\n  0x01\n  dup2\n  sload\n  add\n  dup1\n  dup3\n  sstore\n  dup1\n  swap2\n  pop\n  pop\n  0x01\n  swap1\n  sub\n  swap1\n  0x00\n  mstore\n  keccak256(0x00, 0x20)\n  swap1\n  0x03\n  mul\n  add\n  0x00\n  swap1\n  swap2\n  swap1\n  swap2\n  swap1\n  swap2\n  pop\n  0x00\n  dup3\n  add\n  mload\n  dup2\n  0x00\n  add\n  swap1\n  dup2\n  tag_15\n  swap2\n  swap1\n  tag_16\n  jump\t// in\ntag_15:\n  pop\n  0x20\n  dup3\n  add\n  mload\n  dup2\n  0x01\n  add\n  swap1\n  dup2\n  tag_17\n  swap2\n  swap1\n  tag_16\n  jump\t// in\ntag_17:\n  pop\n  0x40\n  dup3\n  add\n  mload\n  dup2\n  0x02\n  add\n  sstore\n  pop\n  pop\n    /* \"contracts/Ballot/MyBallot.sol\":706:713  index++ */\n  dup1\n  dup1\n  tag_18\n  swap1\n  tag_19\n  jump\t// in\ntag_18:\n  swap2\n  pop\n  pop\n    /* \"contracts/Ballot/MyBallot.sol\":646:927  for (uint index = 0; index < proposalCandidatesName.length; index++) {... */\n  jump(tag_6)\ntag_7:\n  pop\n    /* \"contracts/Ballot/MyBallot.sol\":493:934  constructor(string[] memory proposalCandidatesName, string[] memory proposalCandidatesParty) {... */\n  pop\n  pop\n    /* \"contracts/Ballot/MyBallot.sol\":127:2669  contract MyBallot {... */\n  jump(tag_20)\n    /* \"#utility.yul\":7:82   */\ntag_21:\n    /* \"#utility.yul\":40:46   */\n  0x00\n    /* \"#utility.yul\":73:75   */\n  0x40\n    /* \"#utility.yul\":67:76   */\n  mload\n    /* \"#utility.yul\":57:76   */\n  swap1\n  pop\n    /* \"#utility.yul\":7:82   */\n  swap1\n  jump\t// out\n    /* \"#utility.yul\":88:205   */\ntag_22:\n    /* \"#utility.yul\":197:198   */\n  0x00\n    /* \"#utility.yul\":194:195   */\n  dup1\n    /* \"#utility.yul\":187:199   */\n  revert\n    /* \"#utility.yul\":211:328   */\ntag_23:\n    /* \"#utility.yul\":320:321   */\n  0x00\n    /* \"#utility.yul\":317:318   */\n  dup1\n    /* \"#utility.yul\":310:322   */\n  revert\n    /* \"#utility.yul\":334:451   */\ntag_24:\n    /* \"#utility.yul\":443:444   */\n  0x00\n    /* \"#utility.yul\":440:441   */\n  dup1\n    /* \"#utility.yul\":433:445   */\n  revert\n    /* \"#utility.yul\":457:559   */\ntag_25:\n    /* \"#utility.yul\":498:504   */\n  0x00\n    /* \"#utility.yul\":549:551   */\n  0x1f\n    /* \"#utility.yul\":545:552   */\n  not\n    /* \"#utility.yul\":540:542   */\n  0x1f\n    /* \"#utility.yul\":533:538   */\n  dup4\n    /* \"#utility.yul\":529:543   */\n  add\n    /* \"#utility.yul\":525:553   */\n  and\n    /* \"#utility.yul\":515:553   */\n  swap1\n  pop\n    /* \"#utility.yul\":457:559   */\n  swap2\n  swap1\n  pop\n  jump\t// out\n    /* \"#utility.yul\":565:745   */\ntag_26:\n    /* \"#utility.yul\":613:690   */\n  0x4e487b7100000000000000000000000000000000000000000000000000000000\n    /* \"#utility.yul\":610:611   */\n  0x00\n    /* \"#utility.yul\":603:691   */\n  mstore\n    /* \"#utility.yul\":710:714   */\n  0x41\n    /* \"#utility.yul\":707:708   */\n  0x04\n    /* \"#utility.yul\":700:715   */\n  mstore\n    /* \"#utility.yul\":734:738   */\n  0x24\n    /* \"#utility.yul\":731:732   */\n  0x00\n    /* \"#utility.yul\":724:739   */\n  revert\n    /* \"#utility.yul\":751:1032   */\ntag_27:\n    /* \"#utility.yul\":834:861   */\n  tag_66\n    /* \"#utility.yul\":856:860   */\n  dup3\n    /* \"#utility.yul\":834:861   */\n  tag_25\n  jump\t// in\ntag_66:\n    /* \"#utility.yul\":826:832   */\n  dup2\n    /* \"#utility.yul\":822:862   */\n  add\n    /* \"#utility.yul\":964:970   */\n  dup2\n    /* \"#utility.yul\":952:962   */\n  dup2\n    /* \"#utility.yul\":949:971   */\n  lt\n    /* \"#utility.yul\":928:946   */\n  0xffffffffffffffff\n    /* \"#utility.yul\":916:926   */\n  dup3\n    /* \"#utility.yul\":913:947   */\n  gt\n    /* \"#utility.yul\":910:972   */\n  or\n    /* \"#utility.yul\":907:995   */\n  iszero\n  tag_67\n  jumpi\n    /* \"#utility.yul\":975:993   */\n  tag_68\n  tag_26\n  jump\t// in\ntag_68:\n    /* \"#utility.yul\":907:995   */\ntag_67:\n    /* \"#utility.yul\":1015:1025   */\n  dup1\n    /* \"#utility.yul\":1011:1013   */\n  0x40\n    /* \"#utility.yul\":1004:1026   */\n  mstore\n    /* \"#utility.yul\":794:1032   */\n  pop\n    /* \"#utility.yul\":751:1032   */\n  pop\n  pop\n  jump\t// out\n    /* \"#utility.yul\":1038:1167   */\ntag_28:\n    /* \"#utility.yul\":1072:1078   */\n  0x00\n    /* \"#utility.yul\":1099:1119   */\n  tag_70\n  tag_21\n  jump\t// in\ntag_70:\n    /* \"#utility.yul\":1089:1119   */\n  swap1\n  pop\n    /* \"#utility.yul\":1128:1161   */\n  tag_71\n    /* \"#utility.yul\":1156:1160   */\n  dup3\n    /* \"#utility.yul\":1148:1154   */\n  dup3\n    /* \"#utility.yul\":1128:1161   */\n  tag_27\n  jump\t// in\ntag_71:\n    /* \"#utility.yul\":1038:1167   */\n  swap2\n  swap1\n  pop\n  jump\t// out\n    /* \"#utility.yul\":1173:1494   */\ntag_29:\n    /* \"#utility.yul\":1260:1264   */\n  0x00\n    /* \"#utility.yul\":1350:1368   */\n  0xffffffffffffffff\n    /* \"#utility.yul\":1342:1348   */\n  dup3\n    /* \"#utility.yul\":1339:1369   */\n  gt\n    /* \"#utility.yul\":1336:1392   */\n  iszero\n  tag_73\n  jumpi\n    /* \"#utility.yul\":1372:1390   */\n  tag_74\n  tag_26\n  jump\t// in\ntag_74:\n    /* \"#utility.yul\":1336:1392   */\ntag_73:\n    /* \"#utility.yul\":1422:1426   */\n  0x20\n    /* \"#utility.yul\":1414:1420   */\n  dup3\n    /* \"#utility.yul\":1410:1427   */\n  mul\n    /* \"#utility.yul\":1402:1427   */\n  swap1\n  pop\n    /* \"#utility.yul\":1482:1486   */\n  0x20\n    /* \"#utility.yul\":1476:1480   */\n  dup2\n    /* \"#utility.yul\":1472:1487   */\n  add\n    /* \"#utility.yul\":1464:1487   */\n  swap1\n  pop\n    /* \"#utility.yul\":1173:1494   */\n  swap2\n  swap1\n  pop\n  jump\t// out\n    /* \"#utility.yul\":1500:1617   */\ntag_30:\n    /* \"#utility.yul\":1609:1610   */\n  0x00\n    /* \"#utility.yul\":1606:1607   */\n  dup1\n    /* \"#utility.yul\":1599:1611   */\n  revert\n    /* \"#utility.yul\":1623:1740   */\ntag_31:\n    /* \"#utility.yul\":1732:1733   */\n  0x00\n    /* \"#utility.yul\":1729:1730   */\n  dup1\n    /* \"#utility.yul\":1722:1734   */\n  revert\n    /* \"#utility.yul\":1746:2054   */\ntag_32:\n    /* \"#utility.yul\":1808:1812   */\n  0x00\n    /* \"#utility.yul\":1898:1916   */\n  0xffffffffffffffff\n    /* \"#utility.yul\":1890:1896   */\n  dup3\n    /* \"#utility.yul\":1887:1917   */\n  gt\n    /* \"#utility.yul\":1884:1940   */\n  iszero\n  tag_78\n  jumpi\n    /* \"#utility.yul\":1920:1938   */\n  tag_79\n  tag_26\n  jump\t// in\ntag_79:\n    /* \"#utility.yul\":1884:1940   */\ntag_78:\n    /* \"#utility.yul\":1958:1987   */\n  tag_80\n    /* \"#utility.yul\":1980:1986   */\n  dup3\n    /* \"#utility.yul\":1958:1987   */\n  tag_25\n  jump\t// in\ntag_80:\n    /* \"#utility.yul\":1950:1987   */\n  swap1\n  pop\n    /* \"#utility.yul\":2042:2046   */\n  0x20\n    /* \"#utility.yul\":2036:2040   */\n  dup2\n    /* \"#utility.yul\":2032:2047   */\n  add\n    /* \"#utility.yul\":2024:2047   */\n  swap1\n  pop\n    /* \"#utility.yul\":1746:2054   */\n  swap2\n  swap1\n  pop\n  jump\t// out\n    /* \"#utility.yul\":2060:2306   */\ntag_33:\n    /* \"#utility.yul\":2141:2142   */\n  0x00\n    /* \"#utility.yul\":2151:2264   */\ntag_82:\n    /* \"#utility.yul\":2165:2171   */\n  dup4\n    /* \"#utility.yul\":2162:2163   */\n  dup2\n    /* \"#utility.yul\":2159:2172   */\n  lt\n    /* \"#utility.yul\":2151:2264   */\n  iszero\n  tag_84\n  jumpi\n    /* \"#utility.yul\":2250:2251   */\n  dup1\n    /* \"#utility.yul\":2245:2248   */\n  dup3\n    /* \"#utility.yul\":2241:2252   */\n  add\n    /* \"#utility.yul\":2235:2253   */\n  mload\n    /* \"#utility.yul\":2231:2232   */\n  dup2\n    /* \"#utility.yul\":2226:2229   */\n  dup5\n    /* \"#utility.yul\":2222:2233   */\n  add\n    /* \"#utility.yul\":2215:2254   */\n  mstore\n    /* \"#utility.yul\":2187:2189   */\n  0x20\n    /* \"#utility.yul\":2184:2185   */\n  dup2\n    /* \"#utility.yul\":2180:2190   */\n  add\n    /* \"#utility.yul\":2175:2190   */\n  swap1\n  pop\n    /* \"#utility.yul\":2151:2264   */\n  jump(tag_82)\ntag_84:\n    /* \"#utility.yul\":2298:2299   */\n  0x00\n    /* \"#utility.yul\":2289:2295   */\n  dup5\n    /* \"#utility.yul\":2284:2287   */\n  dup5\n    /* \"#utility.yul\":2280:2296   */\n  add\n    /* \"#utility.yul\":2273:2300   */\n  mstore\n    /* \"#utility.yul\":2122:2306   */\n  pop\n    /* \"#utility.yul\":2060:2306   */\n  pop\n  pop\n  pop\n  jump\t// out\n    /* \"#utility.yul\":2312:2746   */\ntag_34:\n    /* \"#utility.yul\":2401:2406   */\n  0x00\n    /* \"#utility.yul\":2426:2492   */\n  tag_86\n    /* \"#utility.yul\":2442:2491   */\n  tag_87\n    /* \"#utility.yul\":2484:2490   */\n  dup5\n    /* \"#utility.yul\":2442:2491   */\n  tag_32\n  jump\t// in\ntag_87:\n    /* \"#utility.yul\":2426:2492   */\n  tag_28\n  jump\t// in\ntag_86:\n    /* \"#utility.yul\":2417:2492   */\n  swap1\n  pop\n    /* \"#utility.yul\":2515:2521   */\n  dup3\n    /* \"#utility.yul\":2508:2513   */\n  dup2\n    /* \"#utility.yul\":2501:2522   */\n  mstore\n    /* \"#utility.yul\":2553:2557   */\n  0x20\n    /* \"#utility.yul\":2546:2551   */\n  dup2\n    /* \"#utility.yul\":2542:2558   */\n  add\n    /* \"#utility.yul\":2591:2594   */\n  dup5\n    /* \"#utility.yul\":2582:2588   */\n  dup5\n    /* \"#utility.yul\":2577:2580   */\n  dup5\n    /* \"#utility.yul\":2573:2589   */\n  add\n    /* \"#utility.yul\":2570:2595   */\n  gt\n    /* \"#utility.yul\":2567:2679   */\n  iszero\n  tag_88\n  jumpi\n    /* \"#utility.yul\":2598:2677   */\n  tag_89\n  tag_31\n  jump\t// in\ntag_89:\n    /* \"#utility.yul\":2567:2679   */\ntag_88:\n    /* \"#utility.yul\":2688:2740   */\n  tag_90\n    /* \"#utility.yul\":2733:2739   */\n  dup5\n    /* \"#utility.yul\":2728:2731   */\n  dup3\n    /* \"#utility.yul\":2723:2726   */\n  dup6\n    /* \"#utility.yul\":2688:2740   */\n  tag_33\n  jump\t// in\ntag_90:\n    /* \"#utility.yul\":2407:2746   */\n  pop\n    /* \"#utility.yul\":2312:2746   */\n  swap4\n  swap3\n  pop\n  pop\n  pop\n  jump\t// out\n    /* \"#utility.yul\":2766:3121   */\ntag_35:\n    /* \"#utility.yul\":2833:2838   */\n  0x00\n    /* \"#utility.yul\":2882:2885   */\n  dup3\n    /* \"#utility.yul\":2875:2879   */\n  0x1f\n    /* \"#utility.yul\":2867:2873   */\n  dup4\n    /* \"#utility.yul\":2863:2880   */\n  add\n    /* \"#utility.yul\":2859:2886   */\n  slt\n    /* \"#utility.yul\":2849:2971   */\n  tag_92\n  jumpi\n    /* \"#utility.yul\":2890:2969   */\n  tag_93\n  tag_24\n  jump\t// in\ntag_93:\n    /* \"#utility.yul\":2849:2971   */\ntag_92:\n    /* \"#utility.yul\":3000:3006   */\n  dup2\n    /* \"#utility.yul\":2994:3007   */\n  mload\n    /* \"#utility.yul\":3025:3115   */\n  tag_94\n    /* \"#utility.yul\":3111:3114   */\n  dup5\n    /* \"#utility.yul\":3103:3109   */\n  dup3\n    /* \"#utility.yul\":3096:3100   */\n  0x20\n    /* \"#utility.yul\":3088:3094   */\n  dup7\n    /* \"#utility.yul\":3084:3101   */\n  add\n    /* \"#utility.yul\":3025:3115   */\n  tag_34\n  jump\t// in\ntag_94:\n    /* \"#utility.yul\":3016:3115   */\n  swap2\n  pop\n    /* \"#utility.yul\":2839:3121   */\n  pop\n    /* \"#utility.yul\":2766:3121   */\n  swap3\n  swap2\n  pop\n  pop\n  jump\t// out\n    /* \"#utility.yul\":3143:4103   */\ntag_36:\n    /* \"#utility.yul\":3260:3265   */\n  0x00\n    /* \"#utility.yul\":3285:3376   */\n  tag_96\n    /* \"#utility.yul\":3301:3375   */\n  tag_97\n    /* \"#utility.yul\":3368:3374   */\n  dup5\n    /* \"#utility.yul\":3301:3375   */\n  tag_29\n  jump\t// in\ntag_97:\n    /* \"#utility.yul\":3285:3376   */\n  tag_28\n  jump\t// in\ntag_96:\n    /* \"#utility.yul\":3276:3376   */\n  swap1\n  pop\n    /* \"#utility.yul\":3396:3401   */\n  dup1\n    /* \"#utility.yul\":3425:3431   */\n  dup4\n    /* \"#utility.yul\":3418:3423   */\n  dup3\n    /* \"#utility.yul\":3411:3432   */\n  mstore\n    /* \"#utility.yul\":3459:3463   */\n  0x20\n    /* \"#utility.yul\":3452:3457   */\n  dup3\n    /* \"#utility.yul\":3448:3464   */\n  add\n    /* \"#utility.yul\":3441:3464   */\n  swap1\n  pop\n    /* \"#utility.yul\":3512:3516   */\n  0x20\n    /* \"#utility.yul\":3504:3510   */\n  dup5\n    /* \"#utility.yul\":3500:3517   */\n  mul\n    /* \"#utility.yul\":3492:3498   */\n  dup4\n    /* \"#utility.yul\":3488:3518   */\n  add\n    /* \"#utility.yul\":3541:3544   */\n  dup6\n    /* \"#utility.yul\":3533:3539   */\n  dup2\n    /* \"#utility.yul\":3530:3545   */\n  gt\n    /* \"#utility.yul\":3527:3649   */\n  iszero\n  tag_98\n  jumpi\n    /* \"#utility.yul\":3560:3639   */\n  tag_99\n  tag_30\n  jump\t// in\ntag_99:\n    /* \"#utility.yul\":3527:3649   */\ntag_98:\n    /* \"#utility.yul\":3675:3681   */\n  dup4\n    /* \"#utility.yul\":3658:4097   */\ntag_100:\n    /* \"#utility.yul\":3692:3698   */\n  dup2\n    /* \"#utility.yul\":3687:3690   */\n  dup2\n    /* \"#utility.yul\":3684:3699   */\n  lt\n    /* \"#utility.yul\":3658:4097   */\n  iszero\n  tag_102\n  jumpi\n    /* \"#utility.yul\":3774:3777   */\n  dup1\n    /* \"#utility.yul\":3768:3778   */\n  mload\n    /* \"#utility.yul\":3810:3828   */\n  0xffffffffffffffff\n    /* \"#utility.yul\":3797:3808   */\n  dup2\n    /* \"#utility.yul\":3794:3829   */\n  gt\n    /* \"#utility.yul\":3791:3913   */\n  iszero\n  tag_103\n  jumpi\n    /* \"#utility.yul\":3832:3911   */\n  tag_104\n  tag_24\n  jump\t// in\ntag_104:\n    /* \"#utility.yul\":3791:3913   */\ntag_103:\n    /* \"#utility.yul\":3956:3967   */\n  dup1\n    /* \"#utility.yul\":3948:3954   */\n  dup7\n    /* \"#utility.yul\":3944:3968   */\n  add\n    /* \"#utility.yul\":3994:4052   */\n  tag_105\n    /* \"#utility.yul\":4048:4051   */\n  dup10\n    /* \"#utility.yul\":4036:4046   */\n  dup3\n    /* \"#utility.yul\":3994:4052   */\n  tag_35\n  jump\t// in\ntag_105:\n    /* \"#utility.yul\":3989:3992   */\n  dup6\n    /* \"#utility.yul\":3982:4053   */\n  mstore\n    /* \"#utility.yul\":4082:4086   */\n  0x20\n    /* \"#utility.yul\":4077:4080   */\n  dup6\n    /* \"#utility.yul\":4073:4087   */\n  add\n    /* \"#utility.yul\":4066:4087   */\n  swap5\n  pop\n    /* \"#utility.yul\":3734:4097   */\n  pop\n  pop\n    /* \"#utility.yul\":3718:3722   */\n  0x20\n    /* \"#utility.yul\":3713:3716   */\n  dup2\n    /* \"#utility.yul\":3709:3723   */\n  add\n    /* \"#utility.yul\":3702:3723   */\n  swap1\n  pop\n    /* \"#utility.yul\":3658:4097   */\n  jump(tag_100)\ntag_102:\n    /* \"#utility.yul\":3662:3683   */\n  pop\n    /* \"#utility.yul\":3266:4103   */\n  pop\n  pop\n    /* \"#utility.yul\":3143:4103   */\n  swap4\n  swap3\n  pop\n  pop\n  pop\n  jump\t// out\n    /* \"#utility.yul\":4125:4530   */\ntag_37:\n    /* \"#utility.yul\":4217:4222   */\n  0x00\n    /* \"#utility.yul\":4266:4269   */\n  dup3\n    /* \"#utility.yul\":4259:4263   */\n  0x1f\n    /* \"#utility.yul\":4251:4257   */\n  dup4\n    /* \"#utility.yul\":4247:4264   */\n  add\n    /* \"#utility.yul\":4243:4270   */\n  slt\n    /* \"#utility.yul\":4233:4355   */\n  tag_107\n  jumpi\n    /* \"#utility.yul\":4274:4353   */\n  tag_108\n  tag_24\n  jump\t// in\ntag_108:\n    /* \"#utility.yul\":4233:4355   */\ntag_107:\n    /* \"#utility.yul\":4384:4390   */\n  dup2\n    /* \"#utility.yul\":4378:4391   */\n  mload\n    /* \"#utility.yul\":4409:4524   */\n  tag_109\n    /* \"#utility.yul\":4520:4523   */\n  dup5\n    /* \"#utility.yul\":4512:4518   */\n  dup3\n    /* \"#utility.yul\":4505:4509   */\n  0x20\n    /* \"#utility.yul\":4497:4503   */\n  dup7\n    /* \"#utility.yul\":4493:4510   */\n  add\n    /* \"#utility.yul\":4409:4524   */\n  tag_36\n  jump\t// in\ntag_109:\n    /* \"#utility.yul\":4400:4524   */\n  swap2\n  pop\n    /* \"#utility.yul\":4223:4530   */\n  pop\n    /* \"#utility.yul\":4125:4530   */\n  swap3\n  swap2\n  pop\n  pop\n  jump\t// out\n    /* \"#utility.yul\":4536:5489   */\ntag_3:\n    /* \"#utility.yul\":4685:4691   */\n  0x00\n    /* \"#utility.yul\":4693:4699   */\n  dup1\n    /* \"#utility.yul\":4742:4744   */\n  0x40\n    /* \"#utility.yul\":4730:4739   */\n  dup4\n    /* \"#utility.yul\":4721:4728   */\n  dup6\n    /* \"#utility.yul\":4717:4740   */\n  sub\n    /* \"#utility.yul\":4713:4745   */\n  slt\n    /* \"#utility.yul\":4710:4829   */\n  iszero\n  tag_111\n  jumpi\n    /* \"#utility.yul\":4748:4827   */\n  tag_112\n  tag_22\n  jump\t// in\ntag_112:\n    /* \"#utility.yul\":4710:4829   */\ntag_111:\n    /* \"#utility.yul\":4889:4890   */\n  0x00\n    /* \"#utility.yul\":4878:4887   */\n  dup4\n    /* \"#utility.yul\":4874:4891   */\n  add\n    /* \"#utility.yul\":4868:4892   */\n  mload\n    /* \"#utility.yul\":4919:4937   */\n  0xffffffffffffffff\n    /* \"#utility.yul\":4911:4917   */\n  dup2\n    /* \"#utility.yul\":4908:4938   */\n  gt\n    /* \"#utility.yul\":4905:5022   */\n  iszero\n  tag_113\n  jumpi\n    /* \"#utility.yul\":4941:5020   */\n  tag_114\n  tag_23\n  jump\t// in\ntag_114:\n    /* \"#utility.yul\":4905:5022   */\ntag_113:\n    /* \"#utility.yul\":5046:5145   */\n  tag_115\n    /* \"#utility.yul\":5137:5144   */\n  dup6\n    /* \"#utility.yul\":5128:5134   */\n  dup3\n    /* \"#utility.yul\":5117:5126   */\n  dup7\n    /* \"#utility.yul\":5113:5135   */\n  add\n    /* \"#utility.yul\":5046:5145   */\n  tag_37\n  jump\t// in\ntag_115:\n    /* \"#utility.yul\":5036:5145   */\n  swap3\n  pop\n    /* \"#utility.yul\":4839:5155   */\n  pop\n    /* \"#utility.yul\":5215:5217   */\n  0x20\n    /* \"#utility.yul\":5204:5213   */\n  dup4\n    /* \"#utility.yul\":5200:5218   */\n  add\n    /* \"#utility.yul\":5194:5219   */\n  mload\n    /* \"#utility.yul\":5246:5264   */\n  0xffffffffffffffff\n    /* \"#utility.yul\":5238:5244   */\n  dup2\n    /* \"#utility.yul\":5235:5265   */\n  gt\n    /* \"#utility.yul\":5232:5349   */\n  iszero\n  tag_116\n  jumpi\n    /* \"#utility.yul\":5268:5347   */\n  tag_117\n  tag_23\n  jump\t// in\ntag_117:\n    /* \"#utility.yul\":5232:5349   */\ntag_116:\n    /* \"#utility.yul\":5373:5472   */\n  tag_118\n    /* \"#utility.yul\":5464:5471   */\n  dup6\n    /* \"#utility.yul\":5455:5461   */\n  dup3\n    /* \"#utility.yul\":5444:5453   */\n  dup7\n    /* \"#utility.yul\":5440:5462   */\n  add\n    /* \"#utility.yul\":5373:5472   */\n  tag_37\n  jump\t// in\ntag_118:\n    /* \"#utility.yul\":5363:5472   */\n  swap2\n  pop\n    /* \"#utility.yul\":5165:5482   */\n  pop\n    /* \"#utility.yul\":4536:5489   */\n  swap3\n  pop\n  swap3\n  swap1\n  pop\n  jump\t// out\n    /* \"#utility.yul\":5495:5675   */\ntag_11:\n    /* \"#utility.yul\":5543:5620   */\n  0x4e487b7100000000000000000000000000000000000000000000000000000000\n    /* \"#utility.yul\":5540:5541   */\n  0x00\n    /* \"#utility.yul\":5533:5621   */\n  mstore\n    /* \"#utility.yul\":5640:5644   */\n  0x32\n    /* \"#utility.yul\":5637:5638   */\n  0x04\n    /* \"#utility.yul\":5630:5645   */\n  mstore\n    /* \"#utility.yul\":5664:5668   */\n  0x24\n    /* \"#utility.yul\":5661:5662   */\n  0x00\n    /* \"#utility.yul\":5654:5669   */\n  revert\n    /* \"#utility.yul\":5681:5780   */\ntag_38:\n    /* \"#utility.yul\":5733:5739   */\n  0x00\n    /* \"#utility.yul\":5767:5772   */\n  dup2\n    /* \"#utility.yul\":5761:5773   */\n  mload\n    /* \"#utility.yul\":5751:5773   */\n  swap1\n  pop\n    /* \"#utility.yul\":5681:5780   */\n  swap2\n  swap1\n  pop\n  jump\t// out\n    /* \"#utility.yul\":5786:5966   */\ntag_39:\n    /* \"#utility.yul\":5834:5911   */\n  0x4e487b7100000000000000000000000000000000000000000000000000000000\n    /* \"#utility.yul\":5831:5832   */\n  0x00\n    /* \"#utility.yul\":5824:5912   */\n  mstore\n    /* \"#utility.yul\":5931:5935   */\n  0x22\n    /* \"#utility.yul\":5928:5929   */\n  0x04\n    /* \"#utility.yul\":5921:5936   */\n  mstore\n    /* \"#utility.yul\":5955:5959   */\n  0x24\n    /* \"#utility.yul\":5952:5953   */\n  0x00\n    /* \"#utility.yul\":5945:5960   */\n  revert\n    /* \"#utility.yul\":5972:6292   */\ntag_40:\n    /* \"#utility.yul\":6016:6022   */\n  0x00\n    /* \"#utility.yul\":6053:6054   */\n  0x02\n    /* \"#utility.yul\":6047:6051   */\n  dup3\n    /* \"#utility.yul\":6043:6055   */\n  div\n    /* \"#utility.yul\":6033:6055   */\n  swap1\n  pop\n    /* \"#utility.yul\":6100:6101   */\n  0x01\n    /* \"#utility.yul\":6094:6098   */\n  dup3\n    /* \"#utility.yul\":6090:6102   */\n  and\n    /* \"#utility.yul\":6121:6139   */\n  dup1\n    /* \"#utility.yul\":6111:6192   */\n  tag_123\n  jumpi\n    /* \"#utility.yul\":6177:6181   */\n  0x7f\n    /* \"#utility.yul\":6169:6175   */\n  dup3\n    /* \"#utility.yul\":6165:6182   */\n  and\n    /* \"#utility.yul\":6155:6182   */\n  swap2\n  pop\n    /* \"#utility.yul\":6111:6192   */\ntag_123:\n    /* \"#utility.yul\":6239:6241   */\n  0x20\n    /* \"#utility.yul\":6231:6237   */\n  dup3\n    /* \"#utility.yul\":6228:6242   */\n  lt\n    /* \"#utility.yul\":6208:6226   */\n  dup2\n    /* \"#utility.yul\":6205:6243   */\n  sub\n    /* \"#utility.yul\":6202:6286   */\n  tag_124\n  jumpi\n    /* \"#utility.yul\":6258:6276   */\n  tag_125\n  tag_39\n  jump\t// in\ntag_125:\n    /* \"#utility.yul\":6202:6286   */\ntag_124:\n    /* \"#utility.yul\":6023:6292   */\n  pop\n    /* \"#utility.yul\":5972:6292   */\n  swap2\n  swap1\n  pop\n  jump\t// out\n    /* \"#utility.yul\":6298:6439   */\ntag_41:\n    /* \"#utility.yul\":6347:6351   */\n  0x00\n    /* \"#utility.yul\":6370:6373   */\n  dup2\n    /* \"#utility.yul\":6362:6373   */\n  swap1\n  pop\n    /* \"#utility.yul\":6393:6396   */\n  dup2\n    /* \"#utility.yul\":6390:6391   */\n  0x00\n    /* \"#utility.yul\":6383:6397   */\n  mstore\n    /* \"#utility.yul\":6427:6431   */\n  0x20\n    /* \"#utility.yul\":6424:6425   */\n  0x00\n    /* \"#utility.yul\":6414:6432   */\n  keccak256\n    /* \"#utility.yul\":6406:6432   */\n  swap1\n  pop\n    /* \"#utility.yul\":6298:6439   */\n  swap2\n  swap1\n  pop\n  jump\t// out\n    /* \"#utility.yul\":6445:6538   */\ntag_42:\n    /* \"#utility.yul\":6482:6488   */\n  0x00\n    /* \"#utility.yul\":6529:6531   */\n  0x20\n    /* \"#utility.yul\":6524:6526   */\n  0x1f\n    /* \"#utility.yul\":6517:6522   */\n  dup4\n    /* \"#utility.yul\":6513:6527   */\n  add\n    /* \"#utility.yul\":6509:6532   */\n  div\n    /* \"#utility.yul\":6499:6532   */\n  swap1\n  pop\n    /* \"#utility.yul\":6445:6538   */\n  swap2\n  swap1\n  pop\n  jump\t// out\n    /* \"#utility.yul\":6544:6651   */\ntag_43:\n    /* \"#utility.yul\":6588:6596   */\n  0x00\n    /* \"#utility.yul\":6638:6643   */\n  dup3\n    /* \"#utility.yul\":6632:6636   */\n  dup3\n    /* \"#utility.yul\":6628:6644   */\n  shl\n    /* \"#utility.yul\":6607:6644   */\n  swap1\n  pop\n    /* \"#utility.yul\":6544:6651   */\n  swap3\n  swap2\n  pop\n  pop\n  jump\t// out\n    /* \"#utility.yul\":6657:7050   */\ntag_44:\n    /* \"#utility.yul\":6726:6732   */\n  0x00\n    /* \"#utility.yul\":6776:6777   */\n  0x08\n    /* \"#utility.yul\":6764:6774   */\n  dup4\n    /* \"#utility.yul\":6760:6778   */\n  mul\n    /* \"#utility.yul\":6799:6896   */\n  tag_130\n    /* \"#utility.yul\":6829:6895   */\n  0xffffffffffffffffffffffffffffffffffffffffffffffffffffffffffffffff\n    /* \"#utility.yul\":6818:6827   */\n  dup3\n    /* \"#utility.yul\":6799:6896   */\n  tag_43\n  jump\t// in\ntag_130:\n    /* \"#utility.yul\":6917:6956   */\n  tag_131\n    /* \"#utility.yul\":6947:6955   */\n  dup7\n    /* \"#utility.yul\":6936:6945   */\n  dup4\n    /* \"#utility.yul\":6917:6956   */\n  tag_43\n  jump\t// in\ntag_131:\n    /* \"#utility.yul\":6905:6956   */\n  swap6\n  pop\n    /* \"#utility.yul\":6989:6993   */\n  dup1\n    /* \"#utility.yul\":6985:6994   */\n  not\n    /* \"#utility.yul\":6978:6983   */\n  dup5\n    /* \"#utility.yul\":6974:6995   */\n  and\n    /* \"#utility.yul\":6965:6995   */\n  swap4\n  pop\n    /* \"#utility.yul\":7038:7042   */\n  dup1\n    /* \"#utility.yul\":7028:7036   */\n  dup7\n    /* \"#utility.yul\":7024:7043   */\n  and\n    /* \"#utility.yul\":7017:7022   */\n  dup5\n    /* \"#utility.yul\":7014:7044   */\n  or\n    /* \"#utility.yul\":7004:7044   */\n  swap3\n  pop\n    /* \"#utility.yul\":6733:7050   */\n  pop\n  pop\n    /* \"#utility.yul\":6657:7050   */\n  swap4\n  swap3\n  pop\n  pop\n  pop\n  jump\t// out\n    /* \"#utility.yul\":7056:7133   */\ntag_45:\n    /* \"#utility.yul\":7093:7100   */\n  0x00\n    /* \"#utility.yul\":7122:7127   */\n  dup2\n    /* \"#utility.yul\":7111:7127   */\n  swap1\n  pop\n    /* \"#utility.yul\":7056:7133   */\n  swap2\n  swap1\n  pop\n  jump\t// out\n    /* \"#utility.yul\":7139:7199   */\ntag_46:\n    /* \"#utility.yul\":7167:7170   */\n  0x00\n    /* \"#utility.yul\":7188:7193   */\n  dup2\n    /* \"#utility.yul\":7181:7193   */\n  swap1\n  pop\n    /* \"#utility.yul\":7139:7199   */\n  swap2\n  swap1\n  pop\n  jump\t// out\n    /* \"#utility.yul\":7205:7347   */\ntag_47:\n    /* \"#utility.yul\":7255:7264   */\n  0x00\n    /* \"#utility.yul\":7288:7341   */\n  tag_135\n    /* \"#utility.yul\":7306:7340   */\n  tag_136\n    /* \"#utility.yul\":7315:7339   */\n  tag_137\n    /* \"#utility.yul\":7333:7338   */\n  dup5\n    /* \"#utility.yul\":7315:7339   */\n  tag_45\n  jump\t// in\ntag_137:\n    /* \"#utility.yul\":7306:7340   */\n  tag_46\n  jump\t// in\ntag_136:\n    /* \"#utility.yul\":7288:7341   */\n  tag_45\n  jump\t// in\ntag_135:\n    /* \"#utility.yul\":7275:7341   */\n  swap1\n  pop\n    /* \"#utility.yul\":7205:7347   */\n  swap2\n  swap1\n  pop\n  jump\t// out\n    /* \"#utility.yul\":7353:7428   */\ntag_48:\n    /* \"#utility.yul\":7396:7399   */\n  0x00\n    /* \"#utility.yul\":7417:7422   */\n  dup2\n    /* \"#utility.yul\":7410:7422   */\n  swap1\n  pop\n    /* \"#utility.yul\":7353:7428   */\n  swap2\n  swap1\n  pop\n  jump\t// out\n    /* \"#utility.yul\":7434:7703   */\ntag_49:\n    /* \"#utility.yul\":7544:7583   */\n  tag_140\n    /* \"#utility.yul\":7575:7582   */\n  dup4\n    /* \"#utility.yul\":7544:7583   */\n  tag_47\n  jump\t// in\ntag_140:\n    /* \"#utility.yul\":7605:7696   */\n  tag_141\n    /* \"#utility.yul\":7654:7695   */\n  tag_142\n    /* \"#utility.yul\":7678:7694   */\n  dup3\n    /* \"#utility.yul\":7654:7695   */\n  tag_48\n  jump\t// in\ntag_142:\n    /* \"#utility.yul\":7646:7652   */\n  dup5\n    /* \"#utility.yul\":7639:7643   */\n  dup5\n    /* \"#utility.yul\":7633:7644   */\n  sload\n    /* \"#utility.yul\":7605:7696   */\n  tag_44\n  jump\t// in\ntag_141:\n    /* \"#utility.yul\":7599:7603   */\n  dup3\n    /* \"#utility.yul\":7592:7697   */\n  sstore\n    /* \"#utility.yul\":7510:7703   */\n  pop\n    /* \"#utility.yul\":7434:7703   */\n  pop\n  pop\n  pop\n  jump\t// out\n    /* \"#utility.yul\":7709:7782   */\ntag_50:\n    /* \"#utility.yul\":7754:7757   */\n  0x00\n    /* \"#utility.yul\":7709:7782   */\n  swap1\n  jump\t// out\n    /* \"#utility.yul\":7788:7977   */\ntag_51:\n    /* \"#utility.yul\":7865:7897   */\n  tag_145\n  tag_50\n  jump\t// in\ntag_145:\n    /* \"#utility.yul\":7906:7971   */\n  tag_146\n    /* \"#utility.yul\":7964:7970   */\n  dup2\n    /* \"#utility.yul\":7956:7962   */\n  dup5\n    /* \"#utility.yul\":7950:7954   */\n  dup5\n    /* \"#utility.yul\":7906:7971   */\n  tag_49\n  jump\t// in\ntag_146:\n    /* \"#utility.yul\":7841:7977   */\n  pop\n    /* \"#utility.yul\":7788:7977   */\n  pop\n  pop\n  jump\t// out\n    /* \"#utility.yul\":7983:8169   */\ntag_52:\n    /* \"#utility.yul\":8043:8163   */\ntag_148:\n    /* \"#utility.yul\":8060:8063   */\n  dup2\n    /* \"#utility.yul\":8053:8058   */\n  dup2\n    /* \"#utility.yul\":8050:8064   */\n  lt\n    /* \"#utility.yul\":8043:8163   */\n  iszero\n  tag_150\n  jumpi\n    /* \"#utility.yul\":8114:8153   */\n  tag_151\n    /* \"#utility.yul\":8151:8152   */\n  0x00\n    /* \"#utility.yul\":8144:8149   */\n  dup3\n    /* \"#utility.yul\":8114:8153   */\n  tag_51\n  jump\t// in\ntag_151:\n    /* \"#utility.yul\":8087:8088   */\n  0x01\n    /* \"#utility.yul\":8080:8085   */\n  dup2\n    /* \"#utility.yul\":8076:8089   */\n  add\n    /* \"#utility.yul\":8067:8089   */\n  swap1\n  pop\n    /* \"#utility.yul\":8043:8163   */\n  jump(tag_148)\ntag_150:\n    /* \"#utility.yul\":7983:8169   */\n  pop\n  pop\n  jump\t// out\n    /* \"#utility.yul\":8175:8718   */\ntag_53:\n    /* \"#utility.yul\":8276:8278   */\n  0x1f\n    /* \"#utility.yul\":8271:8274   */\n  dup3\n    /* \"#utility.yul\":8268:8279   */\n  gt\n    /* \"#utility.yul\":8265:8711   */\n  iszero\n  tag_153\n  jumpi\n    /* \"#utility.yul\":8310:8348   */\n  tag_154\n    /* \"#utility.yul\":8342:8347   */\n  dup2\n    /* \"#utility.yul\":8310:8348   */\n  tag_41\n  jump\t// in\ntag_154:\n    /* \"#utility.yul\":8394:8423   */\n  tag_155\n    /* \"#utility.yul\":8412:8422   */\n  dup5\n    /* \"#utility.yul\":8394:8423   */\n  tag_42\n  jump\t// in\ntag_155:\n    /* \"#utility.yul\":8384:8392   */\n  dup2\n    /* \"#utility.yul\":8380:8424   */\n  add\n    /* \"#utility.yul\":8577:8579   */\n  0x20\n    /* \"#utility.yul\":8565:8575   */\n  dup6\n    /* \"#utility.yul\":8562:8580   */\n  lt\n    /* \"#utility.yul\":8559:8608   */\n  iszero\n  tag_156\n  jumpi\n    /* \"#utility.yul\":8598:8606   */\n  dup2\n    /* \"#utility.yul\":8583:8606   */\n  swap1\n  pop\n    /* \"#utility.yul\":8559:8608   */\ntag_156:\n    /* \"#utility.yul\":8621:8701   */\n  tag_157\n    /* \"#utility.yul\":8677:8699   */\n  tag_158\n    /* \"#utility.yul\":8695:8698   */\n  dup6\n    /* \"#utility.yul\":8677:8699   */\n  tag_42\n  jump\t// in\ntag_158:\n    /* \"#utility.yul\":8667:8675   */\n  dup4\n    /* \"#utility.yul\":8663:8700   */\n  add\n    /* \"#utility.yul\":8650:8661   */\n  dup3\n    /* \"#utility.yul\":8621:8701   */\n  tag_52\n  jump\t// in\ntag_157:\n    /* \"#utility.yul\":8280:8711   */\n  pop\n  pop\n    /* \"#utility.yul\":8265:8711   */\ntag_153:\n    /* \"#utility.yul\":8175:8718   */\n  pop\n  pop\n  pop\n  jump\t// out\n    /* \"#utility.yul\":8724:8841   */\ntag_54:\n    /* \"#utility.yul\":8778:8786   */\n  0x00\n    /* \"#utility.yul\":8828:8833   */\n  dup3\n    /* \"#utility.yul\":8822:8826   */\n  dup3\n    /* \"#utility.yul\":8818:8834   */\n  shr\n    /* \"#utility.yul\":8797:8834   */\n  swap1\n  pop\n    /* \"#utility.yul\":8724:8841   */\n  swap3\n  swap2\n  pop\n  pop\n  jump\t// out\n    /* \"#utility.yul\":8847:9016   */\ntag_55:\n    /* \"#utility.yul\":8891:8897   */\n  0x00\n    /* \"#utility.yul\":8924:8975   */\n  tag_161\n    /* \"#utility.yul\":8972:8973   */\n  0x00\n    /* \"#utility.yul\":8968:8974   */\n  not\n    /* \"#utility.yul\":8960:8965   */\n  dup5\n    /* \"#utility.yul\":8957:8958   */\n  0x08\n    /* \"#utility.yul\":8953:8966   */\n  mul\n    /* \"#utility.yul\":8924:8975   */\n  tag_54\n  jump\t// in\ntag_161:\n    /* \"#utility.yul\":8920:8976   */\n  not\n    /* \"#utility.yul\":9005:9009   */\n  dup1\n    /* \"#utility.yul\":8999:9003   */\n  dup4\n    /* \"#utility.yul\":8995:9010   */\n  and\n    /* \"#utility.yul\":8985:9010   */\n  swap2\n  pop\n    /* \"#utility.yul\":8898:9016   */\n  pop\n    /* \"#utility.yul\":8847:9016   */\n  swap3\n  swap2\n  pop\n  pop\n  jump\t// out\n    /* \"#utility.yul\":9021:9316   */\ntag_56:\n    /* \"#utility.yul\":9097:9101   */\n  0x00\n    /* \"#utility.yul\":9243:9272   */\n  tag_163\n    /* \"#utility.yul\":9268:9271   */\n  dup4\n    /* \"#utility.yul\":9262:9266   */\n  dup4\n    /* \"#utility.yul\":9243:9272   */\n  tag_55\n  jump\t// in\ntag_163:\n    /* \"#utility.yul\":9235:9272   */\n  swap2\n  pop\n    /* \"#utility.yul\":9305:9308   */\n  dup3\n    /* \"#utility.yul\":9302:9303   */\n  0x02\n    /* \"#utility.yul\":9298:9309   */\n  mul\n    /* \"#utility.yul\":9292:9296   */\n  dup3\n    /* \"#utility.yul\":9289:9310   */\n  or\n    /* \"#utility.yul\":9281:9310   */\n  swap1\n  pop\n    /* \"#utility.yul\":9021:9316   */\n  swap3\n  swap2\n  pop\n  pop\n  jump\t// out\n    /* \"#utility.yul\":9321:10716   */\ntag_16:\n    /* \"#utility.yul\":9438:9475   */\n  tag_165\n    /* \"#utility.yul\":9471:9474   */\n  dup3\n    /* \"#utility.yul\":9438:9475   */\n  tag_38\n  jump\t// in\ntag_165:\n    /* \"#utility.yul\":9540:9558   */\n  0xffffffffffffffff\n    /* \"#utility.yul\":9532:9538   */\n  dup2\n    /* \"#utility.yul\":9529:9559   */\n  gt\n    /* \"#utility.yul\":9526:9582   */\n  iszero\n  tag_166\n  jumpi\n    /* \"#utility.yul\":9562:9580   */\n  tag_167\n  tag_26\n  jump\t// in\ntag_167:\n    /* \"#utility.yul\":9526:9582   */\ntag_166:\n    /* \"#utility.yul\":9606:9644   */\n  tag_168\n    /* \"#utility.yul\":9638:9642   */\n  dup3\n    /* \"#utility.yul\":9632:9643   */\n  sload\n    /* \"#utility.yul\":9606:9644   */\n  tag_40\n  jump\t// in\ntag_168:\n    /* \"#utility.yul\":9691:9758   */\n  tag_169\n    /* \"#utility.yul\":9751:9757   */\n  dup3\n    /* \"#utility.yul\":9743:9749   */\n  dup3\n    /* \"#utility.yul\":9737:9741   */\n  dup6\n    /* \"#utility.yul\":9691:9758   */\n  tag_53\n  jump\t// in\ntag_169:\n    /* \"#utility.yul\":9785:9786   */\n  0x00\n    /* \"#utility.yul\":9809:9813   */\n  0x20\n    /* \"#utility.yul\":9796:9813   */\n  swap1\n  pop\n    /* \"#utility.yul\":9841:9843   */\n  0x1f\n    /* \"#utility.yul\":9833:9839   */\n  dup4\n    /* \"#utility.yul\":9830:9844   */\n  gt\n    /* \"#utility.yul\":9858:9859   */\n  0x01\n    /* \"#utility.yul\":9853:10471   */\n  dup2\n  eq\n  tag_171\n  jumpi\n    /* \"#utility.yul\":10515:10516   */\n  0x00\n    /* \"#utility.yul\":10532:10538   */\n  dup5\n    /* \"#utility.yul\":10529:10606   */\n  iszero\n  tag_172\n  jumpi\n    /* \"#utility.yul\":10581:10590   */\n  dup3\n    /* \"#utility.yul\":10576:10579   */\n  dup8\n    /* \"#utility.yul\":10572:10591   */\n  add\n    /* \"#utility.yul\":10566:10592   */\n  mload\n    /* \"#utility.yul\":10557:10592   */\n  swap1\n  pop\n    /* \"#utility.yul\":10529:10606   */\ntag_172:\n    /* \"#utility.yul\":10632:10699   */\n  tag_173\n    /* \"#utility.yul\":10692:10698   */\n  dup6\n    /* \"#utility.yul\":10685:10690   */\n  dup3\n    /* \"#utility.yul\":10632:10699   */\n  tag_56\n  jump\t// in\ntag_173:\n    /* \"#utility.yul\":10626:10630   */\n  dup7\n    /* \"#utility.yul\":10619:10700   */\n  sstore\n    /* \"#utility.yul\":10488:10710   */\n  pop\n    /* \"#utility.yul\":9823:10710   */\n  jump(tag_170)\n    /* \"#utility.yul\":9853:10471   */\ntag_171:\n    /* \"#utility.yul\":9905:9909   */\n  0x1f\n    /* \"#utility.yul\":9901:9910   */\n  not\n    /* \"#utility.yul\":9893:9899   */\n  dup5\n    /* \"#utility.yul\":9889:9911   */\n  and\n    /* \"#utility.yul\":9939:9976   */\n  tag_174\n    /* \"#utility.yul\":9971:9975   */\n  dup7\n    /* \"#utility.yul\":9939:9976   */\n  tag_41\n  jump\t// in\ntag_174:\n    /* \"#utility.yul\":9998:9999   */\n  0x00\n    /* \"#utility.yul\":10012:10220   */\ntag_175:\n    /* \"#utility.yul\":10026:10033   */\n  dup3\n    /* \"#utility.yul\":10023:10024   */\n  dup2\n    /* \"#utility.yul\":10020:10034   */\n  lt\n    /* \"#utility.yul\":10012:10220   */\n  iszero\n  tag_177\n  jumpi\n    /* \"#utility.yul\":10105:10114   */\n  dup5\n    /* \"#utility.yul\":10100:10103   */\n  dup10\n    /* \"#utility.yul\":10096:10115   */\n  add\n    /* \"#utility.yul\":10090:10116   */\n  mload\n    /* \"#utility.yul\":10082:10088   */\n  dup3\n    /* \"#utility.yul\":10075:10117   */\n  sstore\n    /* \"#utility.yul\":10156:10157   */\n  0x01\n    /* \"#utility.yul\":10148:10154   */\n  dup3\n    /* \"#utility.yul\":10144:10158   */\n  add\n    /* \"#utility.yul\":10134:10158   */\n  swap2\n  pop\n    /* \"#utility.yul\":10203:10205   */\n  0x20\n    /* \"#utility.yul\":10192:10201   */\n  dup6\n    /* \"#utility.yul\":10188:10206   */\n  add\n    /* \"#utility.yul\":10175:10206   */\n  swap5\n  pop\n    /* \"#utility.yul\":10049:10053   */\n  0x20\n    /* \"#utility.yul\":10046:10047   */\n  dup2\n    /* \"#utility.yul\":10042:10054   */\n  add\n    /* \"#utility.yul\":10037:10054   */\n  swap1\n  pop\n    /* \"#utility.yul\":10012:10220   */\n  jump(tag_175)\ntag_177:\n    /* \"#utility.yul\":10248:10254   */\n  dup7\n    /* \"#utility.yul\":10239:10246   */\n  dup4\n    /* \"#utility.yul\":10236:10255   */\n  lt\n    /* \"#utility.yul\":10233:10412   */\n  iszero\n  tag_178\n  jumpi\n    /* \"#utility.yul\":10306:10315   */\n  dup5\n    /* \"#utility.yul\":10301:10304   */\n  dup10\n    /* \"#utility.yul\":10297:10316   */\n  add\n    /* \"#utility.yul\":10291:10317   */\n  mload\n    /* \"#utility.yul\":10349:10397   */\n  tag_179\n    /* \"#utility.yul\":10391:10395   */\n  0x1f\n    /* \"#utility.yul\":10383:10389   */\n  dup10\n    /* \"#utility.yul\":10379:10396   */\n  and\n    /* \"#utility.yul\":10368:10377   */\n  dup3\n    /* \"#utility.yul\":10349:10397   */\n  tag_55\n  jump\t// in\ntag_179:\n    /* \"#utility.yul\":10341:10347   */\n  dup4\n    /* \"#utility.yul\":10334:10398   */\n  sstore\n    /* \"#utility.yul\":10256:10412   */\n  pop\n    /* \"#utility.yul\":10233:10412   */\ntag_178:\n    /* \"#utility.yul\":10458:10459   */\n  0x01\n    /* \"#utility.yul\":10454:10455   */\n  0x02\n    /* \"#utility.yul\":10446:10452   */\n  dup9\n    /* \"#utility.yul\":10442:10456   */\n  mul\n    /* \"#utility.yul\":10438:10460   */\n  add\n    /* \"#utility.yul\":10432:10436   */\n  dup9\n    /* \"#utility.yul\":10425:10461   */\n  sstore\n    /* \"#utility.yul\":9860:10471   */\n  pop\n  pop\n  pop\n    /* \"#utility.yul\":9823:10710   */\ntag_170:\n  pop\n    /* \"#utility.yul\":9413:10716   */\n  pop\n  pop\n  pop\n    /* \"#utility.yul\":9321:10716   */\n  pop\n  pop\n  jump\t// out\n    /* \"#utility.yul\":10722:10902   */\ntag_57:\n    /* \"#utility.yul\":10770:10847   */\n  0x4e487b7100000000000000000000000000000000000000000000000000000000\n    /* \"#utility.yul\":10767:10768   */\n  0x00\n    /* \"#utility.yul\":10760:10848   */\n  mstore\n    /* \"#utility.yul\":10867:10871   */\n  0x11\n    /* \"#utility.yul\":10864:10865   */\n  0x04\n    /* \"#utility.yul\":10857:10872   */\n  mstore\n    /* \"#utility.yul\":10891:10895   */\n  0x24\n    /* \"#utility.yul\":10888:10889   */\n  0x00\n    /* \"#utility.yul\":10881:10896   */\n  revert\n    /* \"#utility.yul\":10908:11141   */\ntag_19:\n    /* \"#utility.yul\":10947:10950   */\n  0x00\n    /* \"#utility.yul\":10970:10994   */\n  tag_182\n    /* \"#utility.yul\":10988:10993   */\n  dup3\n    /* \"#utility.yul\":10970:10994   */\n  tag_45\n  jump\t// in\ntag_182:\n    /* \"#utility.yul\":10961:10994   */\n  swap2\n  pop\n    /* \"#utility.yul\":11016:11082   */\n  0xffffffffffffffffffffffffffffffffffffffffffffffffffffffffffffffff\n    /* \"#utility.yul\":11009:11014   */\n  dup3\n    /* \"#utility.yul\":11006:11083   */\n  sub\n    /* \"#utility.yul\":11003:11106   */\n  tag_183\n  jumpi\n    /* \"#utility.yul\":11086:11104   */\n  tag_184\n  tag_57\n  jump\t// in\ntag_184:\n    /* \"#utility.yul\":11003:11106   */\ntag_183:\n    /* \"#utility.yul\":11133:11134   */\n  0x01\n    /* \"#utility.yul\":11126:11131   */\n  dup3\n    /* \"#utility.yul\":11122:11135   */\n  add\n    /* \"#utility.yul\":11115:11135   */\n  swap1\n  pop\n    /* \"#utility.yul\":10908:11141   */\n  swap2\n  swap1\n  pop\n  jump\t// out\n    /* \"contracts/Ballot/MyBallot.sol\":127:2669  contract MyBallot {... */\ntag_20:\n  dataSize(sub_0)\n  dup1\n  dataOffset(sub_0)\n  0x00\n  codecopy\n  0x00\n  return\nstop\n\nsub_0: assembly {\n        /* \"contracts/Ballot/MyBallot.sol\":127:2669  contract MyBallot {... */\n      mstore(0x40, 0x80)\n      callvalue\n      dup1\n      iszero\n      tag_1\n      jumpi\n      0x00\n      dup1\n      revert\n    tag_1:\n      pop\n      jumpi(tag_2, lt(calldatasize, 0x04))\n      shr(0xe0, calldataload(0x00))\n      dup1\n      0x9e7b8d61\n      gt\n      tag_11\n      jumpi\n      dup1\n      0x9e7b8d61\n      eq\n      tag_7\n      jumpi\n      dup1\n      0xa3ec138d\n      eq\n      tag_8\n      jumpi\n      dup1\n      0xa5134620\n      eq\n      tag_9\n      jumpi\n      dup1\n      0xce606ee0\n      eq\n      tag_10\n      jumpi\n      jump(tag_2)\n    tag_11:\n      dup1\n      0x2bfda515\n      eq\n      tag_3\n      jumpi\n      dup1\n      0x32a2c5d0\n      eq\n      tag_4\n      jumpi\n      dup1\n      0x3477ee2e\n      eq\n      tag_5\n      jumpi\n      dup1\n      0x4aba5f34\n      eq\n      tag_6\n      jumpi\n    tag_2:\n      0x00\n      dup1\n      revert\n        /* \"contracts/Ballot/MyBallot.sol\":2299:2445  function getWinnerName() public view returns (string memory winnerName)... */\n    tag_3:\n      tag_12\n      tag_13\n      jump\t// in\n    tag_12:\n      mload(0x40)\n      tag_14\n      swap2\n      swap1\n      tag_15\n      jump\t// in\n    tag_14:\n      mload(0x40)\n      dup1\n      swap2\n      sub\n      swap1\n      return\n        /* \"contracts/Ballot/MyBallot.sol\":2567:2666  function getContractAddress() public view returns (address) {... */\n    tag_4:\n      tag_16\n      tag_17\n      jump\t// in\n    tag_16:\n      mload(0x40)\n      tag_18\n      swap2\n      swap1\n      tag_19\n      jump\t// in\n    tag_18:\n      mload(0x40)\n      dup1\n      swap2\n      sub\n      swap1\n      return\n        /* \"contracts/Ballot/MyBallot.sol\":455:484  Candidate[] public candidates */\n    tag_5:\n      tag_20\n      0x04\n      dup1\n      calldatasize\n      sub\n      dup2\n      add\n      swap1\n      tag_21\n      swap2\n      swap1\n      tag_22\n      jump\t// in\n    tag_21:\n      tag_23\n      jump\t// in\n    tag_20:\n      mload(0x40)\n      tag_24\n      swap4\n      swap3\n      swap2\n      swap1\n      tag_25\n      jump\t// in\n    tag_24:\n      mload(0x40)\n      dup1\n      swap2\n      sub\n      swap1\n      return\n        /* \"contracts/Ballot/MyBallot.sol\":2453:2559  function getCandidatesList() public view returns (Candidate[] memory) {... */\n    tag_6:\n      tag_26\n      tag_27\n      jump\t// in\n    tag_26:\n      mload(0x40)\n      tag_28\n      swap2\n      swap1\n      tag_29\n      jump\t// in\n    tag_28:\n      mload(0x40)\n      dup1\n      swap2\n      sub\n      swap1\n      return\n        /* \"contracts/Ballot/MyBallot.sol\":942:1280  function giveRightToVote(address voter) public {... */\n    tag_7:\n      tag_30\n      0x04\n      dup1\n      calldatasize\n      sub\n      dup2\n      add\n      swap1\n      tag_31\n      swap2\n      swap1\n      tag_32\n      jump\t// in\n    tag_31:\n      tag_33\n      jump\t// in\n    tag_30:\n      stop\n        /* \"contracts/Ballot/MyBallot.sol\":407:446  mapping(address => Voter) public voters */\n    tag_8:\n      tag_34\n      0x04\n      dup1\n      calldatasize\n      sub\n      dup2\n      add\n      swap1\n      tag_35\n      swap2\n      swap1\n      tag_32\n      jump\t// in\n    tag_35:\n      tag_36\n      jump\t// in\n    tag_34:\n      mload(0x40)\n      tag_37\n      swap3\n      swap2\n      swap1\n      tag_38\n      jump\t// in\n    tag_37:\n      mload(0x40)\n      dup1\n      swap2\n      sub\n      swap1\n      return\n        /* \"contracts/Ballot/MyBallot.sol\":1843:2291  function getWinningProposal() public view returns (uint winningProposal)... */\n    tag_9:\n      tag_39\n      tag_40\n      jump\t// in\n    tag_39:\n      mload(0x40)\n      tag_41\n      swap2\n      swap1\n      tag_42\n      jump\t// in\n    tag_41:\n      mload(0x40)\n      dup1\n      swap2\n      sub\n      swap1\n      return\n        /* \"contracts/Ballot/MyBallot.sol\":370:398  address public contractOwner */\n    tag_10:\n      tag_43\n      tag_44\n      jump\t// in\n    tag_43:\n      mload(0x40)\n      tag_45\n      swap2\n      swap1\n      tag_19\n      jump\t// in\n    tag_45:\n      mload(0x40)\n      dup1\n      swap2\n      sub\n      swap1\n      return\n        /* \"contracts/Ballot/MyBallot.sol\":2299:2445  function getWinnerName() public view returns (string memory winnerName)... */\n    tag_13:\n        /* \"contracts/Ballot/MyBallot.sol\":2345:2369  string memory winnerName */\n      0x60\n        /* \"contracts/Ballot/MyBallot.sol\":2400:2410  candidates */\n      0x02\n        /* \"contracts/Ballot/MyBallot.sol\":2411:2431  getWinningProposal() */\n      tag_47\n        /* \"contracts/Ballot/MyBallot.sol\":2411:2429  getWinningProposal */\n      tag_40\n        /* \"contracts/Ballot/MyBallot.sol\":2411:2431  getWinningProposal() */\n      jump\t// in\n    tag_47:\n        /* \"contracts/Ballot/MyBallot.sol\":2400:2432  candidates[getWinningProposal()] */\n      dup2\n      sload\n      dup2\n      lt\n      tag_48\n      jumpi\n      tag_49\n      tag_50\n      jump\t// in\n    tag_49:\n    tag_48:\n      swap1\n      0x00\n      mstore\n      keccak256(0x00, 0x20)\n      swap1\n      0x03\n      mul\n      add\n        /* \"contracts/Ballot/MyBallot.sol\":2400:2437  candidates[getWinningProposal()].name */\n      0x00\n      add\n        /* \"contracts/Ballot/MyBallot.sol\":2387:2437  winnerName = candidates[getWinningProposal()].name */\n      dup1\n      sload\n      tag_52\n      swap1\n      tag_53\n      jump\t// in\n    tag_52:\n      dup1\n      0x1f\n      add\n      0x20\n      dup1\n      swap2\n      div\n      mul\n      0x20\n      add\n      mload(0x40)\n      swap1\n      dup2\n      add\n      0x40\n      mstore\n      dup1\n      swap3\n      swap2\n      swap1\n      dup2\n      dup2\n      mstore\n      0x20\n      add\n      dup3\n      dup1\n      sload\n      tag_54\n      swap1\n      tag_53\n      jump\t// in\n    tag_54:\n      dup1\n      iszero\n      tag_55\n      jumpi\n      dup1\n      0x1f\n      lt\n      tag_56\n      jumpi\n      0x0100\n      dup1\n      dup4\n      sload\n      div\n      mul\n      dup4\n      mstore\n      swap2\n      0x20\n      add\n      swap2\n      jump(tag_55)\n    tag_56:\n      dup3\n      add\n      swap2\n      swap1\n      0x00\n      mstore\n      keccak256(0x00, 0x20)\n      swap1\n    tag_57:\n      dup2\n      sload\n      dup2\n      mstore\n      swap1\n      0x01\n      add\n      swap1\n      0x20\n      add\n      dup1\n      dup4\n      gt\n      tag_57\n      jumpi\n      dup3\n      swap1\n      sub\n      0x1f\n      and\n      dup3\n      add\n      swap2\n    tag_55:\n      pop\n      pop\n      pop\n      pop\n      pop\n      swap1\n      pop\n        /* \"contracts/Ballot/MyBallot.sol\":2299:2445  function getWinnerName() public view returns (string memory winnerName)... */\n      swap1\n      jump\t// out\n        /* \"contracts/Ballot/MyBallot.sol\":2567:2666  function getContractAddress() public view returns (address) {... */\n    tag_17:\n        /* \"contracts/Ballot/MyBallot.sol\":2618:2625  address */\n      0x00\n        /* \"contracts/Ballot/MyBallot.sol\":2653:2657  this */\n      address\n        /* \"contracts/Ballot/MyBallot.sol\":2638:2658  return address(this) */\n      swap1\n      pop\n        /* \"contracts/Ballot/MyBallot.sol\":2567:2666  function getContractAddress() public view returns (address) {... */\n      swap1\n      jump\t// out\n        /* \"contracts/Ballot/MyBallot.sol\":455:484  Candidate[] public candidates */\n    tag_23:\n      0x02\n      dup2\n      dup2\n      sload\n      dup2\n      lt\n      tag_59\n      jumpi\n      0x00\n      dup1\n      revert\n    tag_59:\n      swap1\n      0x00\n      mstore\n      keccak256(0x00, 0x20)\n      swap1\n      0x03\n      mul\n      add\n      0x00\n      swap2\n      pop\n      swap1\n      pop\n      dup1\n      0x00\n      add\n      dup1\n      sload\n      tag_61\n      swap1\n      tag_53\n      jump\t// in\n    tag_61:\n      dup1\n      0x1f\n      add\n      0x20\n      dup1\n      swap2\n      div\n      mul\n      0x20\n      add\n      mload(0x40)\n      swap1\n      dup2\n      add\n      0x40\n      mstore\n      dup1\n      swap3\n      swap2\n      swap1\n      dup2\n      dup2\n      mstore\n      0x20\n      add\n      dup3\n      dup1\n      sload\n      tag_62\n      swap1\n      tag_53\n      jump\t// in\n    tag_62:\n      dup1\n      iszero\n      tag_63\n      jumpi\n      dup1\n      0x1f\n      lt\n      tag_64\n      jumpi\n      0x0100\n      dup1\n      dup4\n      sload\n      div\n      mul\n      dup4\n      mstore\n      swap2\n      0x20\n      add\n      swap2\n      jump(tag_63)\n    tag_64:\n      dup3\n      add\n      swap2\n      swap1\n      0x00\n      mstore\n      keccak256(0x00, 0x20)\n      swap1\n    tag_65:\n      dup2\n      sload\n      dup2\n      mstore\n      swap1\n      0x01\n      add\n      swap1\n      0x20\n      add\n      dup1\n      dup4\n      gt\n      tag_65\n      jumpi\n      dup3\n      swap1\n      sub\n      0x1f\n      and\n      dup3\n      add\n      swap2\n    tag_63:\n      pop\n      pop\n      pop\n      pop\n      pop\n      swap1\n      dup1\n      0x01\n      add\n      dup1\n      sload\n      tag_66\n      swap1\n      tag_53\n      jump\t// in\n    tag_66:\n      dup1\n      0x1f\n      add\n      0x20\n      dup1\n      swap2\n      div\n      mul\n      0x20\n      add\n      mload(0x40)\n      swap1\n      dup2\n      add\n      0x40\n      mstore\n      dup1\n      swap3\n      swap2\n      swap1\n      dup2\n      dup2\n      mstore\n      0x20\n      add\n      dup3\n      dup1\n      sload\n      tag_67\n      swap1\n      tag_53\n      jump\t// in\n    tag_67:\n      dup1\n      iszero\n      tag_68\n      jumpi\n      dup1\n      0x1f\n      lt\n      tag_69\n      jumpi\n      0x0100\n      dup1\n      dup4\n      sload\n      div\n      mul\n      dup4\n      mstore\n      swap2\n      0x20\n      add\n      swap2\n      jump(tag_68)\n    tag_69:\n      dup3\n      add\n      swap2\n      swap1\n      0x00\n      mstore\n      keccak256(0x00, 0x20)\n      swap1\n    tag_70:\n      dup2\n      sload\n      dup2\n      mstore\n      swap1\n      0x01\n      add\n      swap1\n      0x20\n      add\n      dup1\n      dup4\n      gt\n      tag_70\n      jumpi\n      dup3\n      swap1\n      sub\n      0x1f\n      and\n      dup3\n      add\n      swap2\n    tag_68:\n      pop\n      pop\n      pop\n      pop\n      pop\n      swap1\n      dup1\n      0x02\n      add\n      sload\n      swap1\n      pop\n      dup4\n      jump\t// out\n        /* \"contracts/Ballot/MyBallot.sol\":2453:2559  function getCandidatesList() public view returns (Candidate[] memory) {... */\n    tag_27:\n        /* \"contracts/Ballot/MyBallot.sol\":2503:2521  Candidate[] memory */\n      0x60\n        /* \"contracts/Ballot/MyBallot.sol\":2541:2551  candidates */\n      0x02\n        /* \"contracts/Ballot/MyBallot.sol\":2534:2551  return candidates */\n      dup1\n      sload\n      dup1\n      0x20\n      mul\n      0x20\n      add\n      mload(0x40)\n      swap1\n      dup2\n      add\n      0x40\n      mstore\n      dup1\n      swap3\n      swap2\n      swap1\n      dup2\n      dup2\n      mstore\n      0x20\n      add\n      0x00\n      swap1\n    tag_72:\n      dup3\n      dup3\n      lt\n      iszero\n      tag_73\n      jumpi\n      dup4\n      dup3\n      swap1\n      0x00\n      mstore\n      keccak256(0x00, 0x20)\n      swap1\n      0x03\n      mul\n      add\n      mload(0x40)\n      dup1\n      0x60\n      add\n      0x40\n      mstore\n      swap1\n      dup2\n      0x00\n      dup3\n      add\n      dup1\n      sload\n      tag_75\n      swap1\n      tag_53\n      jump\t// in\n    tag_75:\n      dup1\n      0x1f\n      add\n      0x20\n      dup1\n      swap2\n      div\n      mul\n      0x20\n      add\n      mload(0x40)\n      swap1\n      dup2\n      add\n      0x40\n      mstore\n      dup1\n      swap3\n      swap2\n      swap1\n      dup2\n      dup2\n      mstore\n      0x20\n      add\n      dup3\n      dup1\n      sload\n      tag_76\n      swap1\n      tag_53\n      jump\t// in\n    tag_76:\n      dup1\n      iszero\n      tag_77\n      jumpi\n      dup1\n      0x1f\n      lt\n      tag_78\n      jumpi\n      0x0100\n      dup1\n      dup4\n      sload\n      div\n      mul\n      dup4\n      mstore\n      swap2\n      0x20\n      add\n      swap2\n      jump(tag_77)\n    tag_78:\n      dup3\n      add\n      swap2\n      swap1\n      0x00\n      mstore\n      keccak256(0x00, 0x20)\n      swap1\n    tag_79:\n      dup2\n      sload\n      dup2\n      mstore\n      swap1\n      0x01\n      add\n      swap1\n      0x20\n      add\n      dup1\n      dup4\n      gt\n      tag_79\n      jumpi\n      dup3\n      swap1\n      sub\n      0x1f\n      and\n      dup3\n      add\n      swap2\n    tag_77:\n      pop\n      pop\n      pop\n      pop\n      pop\n      dup2\n      mstore\n      0x20\n      add\n      0x01\n      dup3\n      add\n      dup1\n      sload\n      tag_80\n      swap1\n      tag_53\n      jump\t// in\n    tag_80:\n      dup1\n      0x1f\n      add\n      0x20\n      dup1\n      swap2\n      div\n      mul\n      0x20\n      add\n      mload(0x40)\n      swap1\n      dup2\n      add\n      0x40\n      mstore\n      dup1\n      swap3\n      swap2\n      swap1\n      dup2\n      dup2\n      mstore\n      0x20\n      add\n      dup3\n      dup1\n      sload\n      tag_81\n      swap1\n      tag_53\n      jump\t// in\n    tag_81:\n      dup1\n      iszero\n      tag_82\n      jumpi\n      dup1\n      0x1f\n      lt\n      tag_83\n      jumpi\n      0x0100\n      dup1\n      dup4\n      sload\n      div\n      mul\n      dup4\n      mstore\n      swap2\n      0x20\n      add\n      swap2\n      jump(tag_82)\n    tag_83:\n      dup3\n      add\n      swap2\n      swap1\n      0x00\n      mstore\n      keccak256(0x00, 0x20)\n      swap1\n    tag_84:\n      dup2\n      sload\n      dup2\n      mstore\n      swap1\n      0x01\n      add\n      swap1\n      0x20\n      add\n      dup1\n      dup4\n      gt\n      tag_84\n      jumpi\n      dup3\n      swap1\n      sub\n      0x1f\n      and\n      dup3\n      add\n      swap2\n    tag_82:\n      pop\n      pop\n      pop\n      pop\n      pop\n      dup2\n      mstore\n      0x20\n      add\n      0x02\n      dup3\n      add\n      sload\n      dup2\n      mstore\n      pop\n      pop\n      dup2\n      mstore\n      0x20\n      add\n      swap1\n      0x01\n      add\n      swap1\n      jump(tag_72)\n    tag_73:\n      pop\n      pop\n      pop\n      pop\n      swap1\n      pop\n        /* \"contracts/Ballot/MyBallot.sol\":2453:2559  function getCandidatesList() public view returns (Candidate[] memory) {... */\n      swap1\n      jump\t// out\n        /* \"contracts/Ballot/MyBallot.sol\":942:1280  function giveRightToVote(address voter) public {... */\n    tag_33:\n        /* \"contracts/Ballot/MyBallot.sol\":1036:1049  contractOwner */\n      0x00\n      dup1\n      sload\n      swap1\n      0x0100\n      exp\n      swap1\n      div\n      0xffffffffffffffffffffffffffffffffffffffff\n      and\n        /* \"contracts/Ballot/MyBallot.sol\":1022:1049  msg.sender == contractOwner */\n      0xffffffffffffffffffffffffffffffffffffffff\n      and\n        /* \"contracts/Ballot/MyBallot.sol\":1022:1032  msg.sender */\n      caller\n        /* \"contracts/Ballot/MyBallot.sol\":1022:1049  msg.sender == contractOwner */\n      0xffffffffffffffffffffffffffffffffffffffff\n      and\n      eq\n        /* \"contracts/Ballot/MyBallot.sol\":1000:1124  require(... */\n      tag_86\n      jumpi\n      mload(0x40)\n      0x08c379a000000000000000000000000000000000000000000000000000000000\n      dup2\n      mstore\n      0x04\n      add\n      tag_87\n      swap1\n      tag_88\n      jump\t// in\n    tag_87:\n      mload(0x40)\n      dup1\n      swap2\n      sub\n      swap1\n      revert\n    tag_86:\n        /* \"contracts/Ballot/MyBallot.sol\":1158:1164  voters */\n      0x01\n        /* \"contracts/Ballot/MyBallot.sol\":1158:1171  voters[voter] */\n      0x00\n        /* \"contracts/Ballot/MyBallot.sol\":1165:1170  voter */\n      dup3\n        /* \"contracts/Ballot/MyBallot.sol\":1158:1171  voters[voter] */\n      0xffffffffffffffffffffffffffffffffffffffff\n      and\n      0xffffffffffffffffffffffffffffffffffffffff\n      and\n      dup2\n      mstore\n      0x20\n      add\n      swap1\n      dup2\n      mstore\n      0x20\n      add\n      0x00\n      keccak256\n        /* \"contracts/Ballot/MyBallot.sol\":1158:1180  voters[voter].hasVoted */\n      0x00\n      add\n      0x01\n      swap1\n      sload\n      swap1\n      0x0100\n      exp\n      swap1\n      div\n      0xff\n      and\n        /* \"contracts/Ballot/MyBallot.sol\":1157:1180  !voters[voter].hasVoted */\n      iszero\n        /* \"contracts/Ballot/MyBallot.sol\":1135:1232  require(... */\n      tag_89\n      jumpi\n      mload(0x40)\n      0x08c379a000000000000000000000000000000000000000000000000000000000\n      dup2\n      mstore\n      0x04\n      add\n      tag_90\n      swap1\n      tag_91\n      jump\t// in\n    tag_90:\n      mload(0x40)\n      dup1\n      swap2\n      sub\n      swap1\n      revert\n    tag_89:\n        /* \"contracts/Ballot/MyBallot.sol\":1267:1272  false */\n      0x00\n        /* \"contracts/Ballot/MyBallot.sol\":1243:1249  voters */\n      0x01\n        /* \"contracts/Ballot/MyBallot.sol\":1243:1256  voters[voter] */\n      0x00\n        /* \"contracts/Ballot/MyBallot.sol\":1250:1255  voter */\n      dup4\n        /* \"contracts/Ballot/MyBallot.sol\":1243:1256  voters[voter] */\n      0xffffffffffffffffffffffffffffffffffffffff\n      and\n      0xffffffffffffffffffffffffffffffffffffffff\n      and\n      dup2\n      mstore\n      0x20\n      add\n      swap1\n      dup2\n      mstore\n      0x20\n      add\n      0x00\n      keccak256\n        /* \"contracts/Ballot/MyBallot.sol\":1243:1264  voters[voter].canVote */\n      0x00\n      add\n      0x00\n        /* \"contracts/Ballot/MyBallot.sol\":1243:1272  voters[voter].canVote = false */\n      0x0100\n      exp\n      dup2\n      sload\n      dup2\n      0xff\n      mul\n      not\n      and\n      swap1\n      dup4\n      iszero\n      iszero\n      mul\n      or\n      swap1\n      sstore\n      pop\n        /* \"contracts/Ballot/MyBallot.sol\":942:1280  function giveRightToVote(address voter) public {... */\n      pop\n      jump\t// out\n        /* \"contracts/Ballot/MyBallot.sol\":407:446  mapping(address => Voter) public voters */\n    tag_36:\n      mstore(0x20, 0x01)\n      dup1\n      0x00\n      mstore\n      keccak256(0x00, 0x40)\n      0x00\n      swap2\n      pop\n      swap1\n      pop\n      dup1\n      0x00\n      add\n      0x00\n      swap1\n      sload\n      swap1\n      0x0100\n      exp\n      swap1\n      div\n      0xff\n      and\n      swap1\n      dup1\n      0x00\n      add\n      0x01\n      swap1\n      sload\n      swap1\n      0x0100\n      exp\n      swap1\n      div\n      0xff\n      and\n      swap1\n      pop\n      dup3\n      jump\t// out\n        /* \"contracts/Ballot/MyBallot.sol\":1843:2291  function getWinningProposal() public view returns (uint winningProposal)... */\n    tag_40:\n        /* \"contracts/Ballot/MyBallot.sol\":1894:1914  uint winningProposal */\n      0x00\n        /* \"contracts/Ballot/MyBallot.sol\":1932:1953  uint winningVoteCount */\n      dup1\n        /* \"contracts/Ballot/MyBallot.sol\":1956:1957  0 */\n      0x00\n        /* \"contracts/Ballot/MyBallot.sol\":1932:1957  uint winningVoteCount = 0 */\n      swap1\n      pop\n        /* \"contracts/Ballot/MyBallot.sol\":1975:1994  uint indexCandidate */\n      0x00\n        /* \"contracts/Ballot/MyBallot.sol\":1970:2284  for (uint indexCandidate = 0; indexCandidate < candidates.length; indexCandidate++) {... */\n    tag_93:\n        /* \"contracts/Ballot/MyBallot.sol\":2017:2027  candidates */\n      0x02\n        /* \"contracts/Ballot/MyBallot.sol\":2017:2034  candidates.length */\n      dup1\n      sload\n      swap1\n      pop\n        /* \"contracts/Ballot/MyBallot.sol\":2000:2014  indexCandidate */\n      dup2\n        /* \"contracts/Ballot/MyBallot.sol\":2000:2034  indexCandidate < candidates.length */\n      lt\n        /* \"contracts/Ballot/MyBallot.sol\":1970:2284  for (uint indexCandidate = 0; indexCandidate < candidates.length; indexCandidate++) {... */\n      iszero\n      tag_94\n      jumpi\n        /* \"contracts/Ballot/MyBallot.sol\":2113:2129  winningVoteCount */\n      dup2\n        /* \"contracts/Ballot/MyBallot.sol\":2073:2083  candidates */\n      0x02\n        /* \"contracts/Ballot/MyBallot.sol\":2084:2098  indexCandidate */\n      dup3\n        /* \"contracts/Ballot/MyBallot.sol\":2073:2099  candidates[indexCandidate] */\n      dup2\n      sload\n      dup2\n      lt\n      tag_96\n      jumpi\n      tag_97\n      tag_50\n      jump\t// in\n    tag_97:\n    tag_96:\n      swap1\n      0x00\n      mstore\n      keccak256(0x00, 0x20)\n      swap1\n      0x03\n      mul\n      add\n        /* \"contracts/Ballot/MyBallot.sol\":2073:2110  candidates[indexCandidate].votesCount */\n      0x02\n      add\n      sload\n        /* \"contracts/Ballot/MyBallot.sol\":2073:2129  candidates[indexCandidate].votesCount > winningVoteCount */\n      gt\n        /* \"contracts/Ballot/MyBallot.sol\":2069:2273  if (candidates[indexCandidate].votesCount > winningVoteCount) {... */\n      iszero\n      tag_99\n      jumpi\n        /* \"contracts/Ballot/MyBallot.sol\":2169:2179  candidates */\n      0x02\n        /* \"contracts/Ballot/MyBallot.sol\":2180:2194  indexCandidate */\n      dup2\n        /* \"contracts/Ballot/MyBallot.sol\":2169:2195  candidates[indexCandidate] */\n      dup2\n      sload\n      dup2\n      lt\n      tag_100\n      jumpi\n      tag_101\n      tag_50\n      jump\t// in\n    tag_101:\n    tag_100:\n      swap1\n      0x00\n      mstore\n      keccak256(0x00, 0x20)\n      swap1\n      0x03\n      mul\n      add\n        /* \"contracts/Ballot/MyBallot.sol\":2169:2206  candidates[indexCandidate].votesCount */\n      0x02\n      add\n      sload\n        /* \"contracts/Ballot/MyBallot.sol\":2150:2206  winningVoteCount = candidates[indexCandidate].votesCount */\n      swap2\n      pop\n        /* \"contracts/Ballot/MyBallot.sol\":2243:2257  indexCandidate */\n      dup1\n        /* \"contracts/Ballot/MyBallot.sol\":2225:2257  winningProposal = indexCandidate */\n      swap3\n      pop\n        /* \"contracts/Ballot/MyBallot.sol\":2069:2273  if (candidates[indexCandidate].votesCount > winningVoteCount) {... */\n    tag_99:\n        /* \"contracts/Ballot/MyBallot.sol\":2036:2052  indexCandidate++ */\n      dup1\n      dup1\n      tag_103\n      swap1\n      tag_104\n      jump\t// in\n    tag_103:\n      swap2\n      pop\n      pop\n        /* \"contracts/Ballot/MyBallot.sol\":1970:2284  for (uint indexCandidate = 0; indexCandidate < candidates.length; indexCandidate++) {... */\n      jump(tag_93)\n    tag_94:\n      pop\n        /* \"contracts/Ballot/MyBallot.sol\":1921:2291  {... */\n      pop\n        /* \"contracts/Ballot/MyBallot.sol\":1843:2291  function getWinningProposal() public view returns (uint winningProposal)... */\n      swap1\n      jump\t// out\n        /* \"contracts/Ballot/MyBallot.sol\":370:398  address public contractOwner */\n    tag_44:\n      0x00\n      dup1\n      sload\n      swap1\n      0x0100\n      exp\n      swap1\n      div\n      0xffffffffffffffffffffffffffffffffffffffff\n      and\n      dup2\n      jump\t// out\n        /* \"#utility.yul\":7:106   */\n    tag_105:\n        /* \"#utility.yul\":59:65   */\n      0x00\n        /* \"#utility.yul\":93:98   */\n      dup2\n        /* \"#utility.yul\":87:99   */\n      mload\n        /* \"#utility.yul\":77:99   */\n      swap1\n      pop\n        /* \"#utility.yul\":7:106   */\n      swap2\n      swap1\n      pop\n      jump\t// out\n        /* \"#utility.yul\":112:281   */\n    tag_106:\n        /* \"#utility.yul\":196:207   */\n      0x00\n        /* \"#utility.yul\":230:236   */\n      dup3\n        /* \"#utility.yul\":225:228   */\n      dup3\n        /* \"#utility.yul\":218:237   */\n      mstore\n        /* \"#utility.yul\":270:274   */\n      0x20\n        /* \"#utility.yul\":265:268   */\n      dup3\n        /* \"#utility.yul\":261:275   */\n      add\n        /* \"#utility.yul\":246:275   */\n      swap1\n      pop\n        /* \"#utility.yul\":112:281   */\n      swap3\n      swap2\n      pop\n      pop\n      jump\t// out\n        /* \"#utility.yul\":287:533   */\n    tag_107:\n        /* \"#utility.yul\":368:369   */\n      0x00\n        /* \"#utility.yul\":378:491   */\n    tag_144:\n        /* \"#utility.yul\":392:398   */\n      dup4\n        /* \"#utility.yul\":389:390   */\n      dup2\n        /* \"#utility.yul\":386:399   */\n      lt\n        /* \"#utility.yul\":378:491   */\n      iszero\n      tag_146\n      jumpi\n        /* \"#utility.yul\":477:478   */\n      dup1\n        /* \"#utility.yul\":472:475   */\n      dup3\n        /* \"#utility.yul\":468:479   */\n      add\n        /* \"#utility.yul\":462:480   */\n      mload\n        /* \"#utility.yul\":458:459   */\n      dup2\n        /* \"#utility.yul\":453:456   */\n      dup5\n        /* \"#utility.yul\":449:460   */\n      add\n        /* \"#utility.yul\":442:481   */\n      mstore\n        /* \"#utility.yul\":414:416   */\n      0x20\n        /* \"#utility.yul\":411:412   */\n      dup2\n        /* \"#utility.yul\":407:417   */\n      add\n        /* \"#utility.yul\":402:417   */\n      swap1\n      pop\n        /* \"#utility.yul\":378:491   */\n      jump(tag_144)\n    tag_146:\n        /* \"#utility.yul\":525:526   */\n      0x00\n        /* \"#utility.yul\":516:522   */\n      dup5\n        /* \"#utility.yul\":511:514   */\n      dup5\n        /* \"#utility.yul\":507:523   */\n      add\n        /* \"#utility.yul\":500:527   */\n      mstore\n        /* \"#utility.yul\":349:533   */\n      pop\n        /* \"#utility.yul\":287:533   */\n      pop\n      pop\n      pop\n      jump\t// out\n        /* \"#utility.yul\":539:641   */\n    tag_108:\n        /* \"#utility.yul\":580:586   */\n      0x00\n        /* \"#utility.yul\":631:633   */\n      0x1f\n        /* \"#utility.yul\":627:634   */\n      not\n        /* \"#utility.yul\":622:624   */\n      0x1f\n        /* \"#utility.yul\":615:620   */\n      dup4\n        /* \"#utility.yul\":611:625   */\n      add\n        /* \"#utility.yul\":607:635   */\n      and\n        /* \"#utility.yul\":597:635   */\n      swap1\n      pop\n        /* \"#utility.yul\":539:641   */\n      swap2\n      swap1\n      pop\n      jump\t// out\n        /* \"#utility.yul\":647:1024   */\n    tag_109:\n        /* \"#utility.yul\":735:738   */\n      0x00\n        /* \"#utility.yul\":763:802   */\n      tag_149\n        /* \"#utility.yul\":796:801   */\n      dup3\n        /* \"#utility.yul\":763:802   */\n      tag_105\n      jump\t// in\n    tag_149:\n        /* \"#utility.yul\":818:889   */\n      tag_150\n        /* \"#utility.yul\":882:888   */\n      dup2\n        /* \"#utility.yul\":877:880   */\n      dup6\n        /* \"#utility.yul\":818:889   */\n      tag_106\n      jump\t// in\n    tag_150:\n        /* \"#utility.yul\":811:889   */\n      swap4\n      pop\n        /* \"#utility.yul\":898:963   */\n      tag_151\n        /* \"#utility.yul\":956:962   */\n      dup2\n        /* \"#utility.yul\":951:954   */\n      dup6\n        /* \"#utility.yul\":944:948   */\n      0x20\n        /* \"#utility.yul\":937:942   */\n      dup7\n        /* \"#utility.yul\":933:949   */\n      add\n        /* \"#utility.yul\":898:963   */\n      tag_107\n      jump\t// in\n    tag_151:\n        /* \"#utility.yul\":988:1017   */\n      tag_152\n        /* \"#utility.yul\":1010:1016   */\n      dup2\n        /* \"#utility.yul\":988:1017   */\n      tag_108\n      jump\t// in\n    tag_152:\n        /* \"#utility.yul\":983:986   */\n      dup5\n        /* \"#utility.yul\":979:1018   */\n      add\n        /* \"#utility.yul\":972:1018   */\n      swap2\n      pop\n        /* \"#utility.yul\":739:1024   */\n      pop\n        /* \"#utility.yul\":647:1024   */\n      swap3\n      swap2\n      pop\n      pop\n      jump\t// out\n        /* \"#utility.yul\":1030:1343   */\n    tag_15:\n        /* \"#utility.yul\":1143:1147   */\n      0x00\n        /* \"#utility.yul\":1181:1183   */\n      0x20\n        /* \"#utility.yul\":1170:1179   */\n      dup3\n        /* \"#utility.yul\":1166:1184   */\n      add\n        /* \"#utility.yul\":1158:1184   */\n      swap1\n      pop\n        /* \"#utility.yul\":1230:1239   */\n      dup2\n        /* \"#utility.yul\":1224:1228   */\n      dup2\n        /* \"#utility.yul\":1220:1240   */\n      sub\n        /* \"#utility.yul\":1216:1217   */\n      0x00\n        /* \"#utility.yul\":1205:1214   */\n      dup4\n        /* \"#utility.yul\":1201:1218   */\n      add\n        /* \"#utility.yul\":1194:1241   */\n      mstore\n        /* \"#utility.yul\":1258:1336   */\n      tag_154\n        /* \"#utility.yul\":1331:1335   */\n      dup2\n        /* \"#utility.yul\":1322:1328   */\n      dup5\n        /* \"#utility.yul\":1258:1336   */\n      tag_109\n      jump\t// in\n    tag_154:\n        /* \"#utility.yul\":1250:1336   */\n      swap1\n      pop\n        /* \"#utility.yul\":1030:1343   */\n      swap3\n      swap2\n      pop\n      pop\n      jump\t// out\n        /* \"#utility.yul\":1349:1475   */\n    tag_110:\n        /* \"#utility.yul\":1386:1393   */\n      0x00\n        /* \"#utility.yul\":1426:1468   */\n      0xffffffffffffffffffffffffffffffffffffffff\n        /* \"#utility.yul\":1419:1424   */\n      dup3\n        /* \"#utility.yul\":1415:1469   */\n      and\n        /* \"#utility.yul\":1404:1469   */\n      swap1\n      pop\n        /* \"#utility.yul\":1349:1475   */\n      swap2\n      swap1\n      pop\n      jump\t// out\n        /* \"#utility.yul\":1481:1577   */\n    tag_111:\n        /* \"#utility.yul\":1518:1525   */\n      0x00\n        /* \"#utility.yul\":1547:1571   */\n      tag_157\n        /* \"#utility.yul\":1565:1570   */\n      dup3\n        /* \"#utility.yul\":1547:1571   */\n      tag_110\n      jump\t// in\n    tag_157:\n        /* \"#utility.yul\":1536:1571   */\n      swap1\n      pop\n        /* \"#utility.yul\":1481:1577   */\n      swap2\n      swap1\n      pop\n      jump\t// out\n        /* \"#utility.yul\":1583:1701   */\n    tag_112:\n        /* \"#utility.yul\":1670:1694   */\n      tag_159\n        /* \"#utility.yul\":1688:1693   */\n      dup2\n        /* \"#utility.yul\":1670:1694   */\n      tag_111\n      jump\t// in\n    tag_159:\n        /* \"#utility.yul\":1665:1668   */\n      dup3\n        /* \"#utility.yul\":1658:1695   */\n      mstore\n        /* \"#utility.yul\":1583:1701   */\n      pop\n      pop\n      jump\t// out\n        /* \"#utility.yul\":1707:1929   */\n    tag_19:\n        /* \"#utility.yul\":1800:1804   */\n      0x00\n        /* \"#utility.yul\":1838:1840   */\n      0x20\n        /* \"#utility.yul\":1827:1836   */\n      dup3\n        /* \"#utility.yul\":1823:1841   */\n      add\n        /* \"#utility.yul\":1815:1841   */\n      swap1\n      pop\n        /* \"#utility.yul\":1851:1922   */\n      tag_161\n        /* \"#utility.yul\":1919:1920   */\n      0x00\n        /* \"#utility.yul\":1908:1917   */\n      dup4\n        /* \"#utility.yul\":1904:1921   */\n      add\n        /* \"#utility.yul\":1895:1901   */\n      dup5\n        /* \"#utility.yul\":1851:1922   */\n      tag_112\n      jump\t// in\n    tag_161:\n        /* \"#utility.yul\":1707:1929   */\n      swap3\n      swap2\n      pop\n      pop\n      jump\t// out\n        /* \"#utility.yul\":2016:2133   */\n    tag_114:\n        /* \"#utility.yul\":2125:2126   */\n      0x00\n        /* \"#utility.yul\":2122:2123   */\n      dup1\n        /* \"#utility.yul\":2115:2127   */\n      revert\n        /* \"#utility.yul\":2262:2339   */\n    tag_116:\n        /* \"#utility.yul\":2299:2306   */\n      0x00\n        /* \"#utility.yul\":2328:2333   */\n      dup2\n        /* \"#utility.yul\":2317:2333   */\n      swap1\n      pop\n        /* \"#utility.yul\":2262:2339   */\n      swap2\n      swap1\n      pop\n      jump\t// out\n        /* \"#utility.yul\":2345:2467   */\n    tag_117:\n        /* \"#utility.yul\":2418:2442   */\n      tag_167\n        /* \"#utility.yul\":2436:2441   */\n      dup2\n        /* \"#utility.yul\":2418:2442   */\n      tag_116\n      jump\t// in\n    tag_167:\n        /* \"#utility.yul\":2411:2416   */\n      dup2\n        /* \"#utility.yul\":2408:2443   */\n      eq\n        /* \"#utility.yul\":2398:2461   */\n      tag_168\n      jumpi\n        /* \"#utility.yul\":2457:2458   */\n      0x00\n        /* \"#utility.yul\":2454:2455   */\n      dup1\n        /* \"#utility.yul\":2447:2459   */\n      revert\n        /* \"#utility.yul\":2398:2461   */\n    tag_168:\n        /* \"#utility.yul\":2345:2467   */\n      pop\n      jump\t// out\n        /* \"#utility.yul\":2473:2612   */\n    tag_118:\n        /* \"#utility.yul\":2519:2524   */\n      0x00\n        /* \"#utility.yul\":2557:2563   */\n      dup2\n        /* \"#utility.yul\":2544:2564   */\n      calldataload\n        /* \"#utility.yul\":2535:2564   */\n      swap1\n      pop\n        /* \"#utility.yul\":2573:2606   */\n      tag_170\n        /* \"#utility.yul\":2600:2605   */\n      dup2\n        /* \"#utility.yul\":2573:2606   */\n      tag_117\n      jump\t// in\n    tag_170:\n        /* \"#utility.yul\":2473:2612   */\n      swap3\n      swap2\n      pop\n      pop\n      jump\t// out\n        /* \"#utility.yul\":2618:2947   */\n    tag_22:\n        /* \"#utility.yul\":2677:2683   */\n      0x00\n        /* \"#utility.yul\":2726:2728   */\n      0x20\n        /* \"#utility.yul\":2714:2723   */\n      dup3\n        /* \"#utility.yul\":2705:2712   */\n      dup5\n        /* \"#utility.yul\":2701:2724   */\n      sub\n        /* \"#utility.yul\":2697:2729   */\n      slt\n        /* \"#utility.yul\":2694:2813   */\n      iszero\n      tag_172\n      jumpi\n        /* \"#utility.yul\":2732:2811   */\n      tag_173\n      tag_114\n      jump\t// in\n    tag_173:\n        /* \"#utility.yul\":2694:2813   */\n    tag_172:\n        /* \"#utility.yul\":2852:2853   */\n      0x00\n        /* \"#utility.yul\":2877:2930   */\n      tag_174\n        /* \"#utility.yul\":2922:2929   */\n      dup5\n        /* \"#utility.yul\":2913:2919   */\n      dup3\n        /* \"#utility.yul\":2902:2911   */\n      dup6\n        /* \"#utility.yul\":2898:2920   */\n      add\n        /* \"#utility.yul\":2877:2930   */\n      tag_118\n      jump\t// in\n    tag_174:\n        /* \"#utility.yul\":2867:2930   */\n      swap2\n      pop\n        /* \"#utility.yul\":2823:2940   */\n      pop\n        /* \"#utility.yul\":2618:2947   */\n      swap3\n      swap2\n      pop\n      pop\n      jump\t// out\n        /* \"#utility.yul\":2953:3071   */\n    tag_119:\n        /* \"#utility.yul\":3040:3064   */\n      tag_176\n        /* \"#utility.yul\":3058:3063   */\n      dup2\n        /* \"#utility.yul\":3040:3064   */\n      tag_116\n      jump\t// in\n    tag_176:\n        /* \"#utility.yul\":3035:3038   */\n      dup3\n        /* \"#utility.yul\":3028:3065   */\n      mstore\n        /* \"#utility.yul\":2953:3071   */\n      pop\n      pop\n      jump\t// out\n        /* \"#utility.yul\":3077:3701   */\n    tag_25:\n        /* \"#utility.yul\":3266:3270   */\n      0x00\n        /* \"#utility.yul\":3304:3306   */\n      0x60\n        /* \"#utility.yul\":3293:3302   */\n      dup3\n        /* \"#utility.yul\":3289:3307   */\n      add\n        /* \"#utility.yul\":3281:3307   */\n      swap1\n      pop\n        /* \"#utility.yul\":3353:3362   */\n      dup2\n        /* \"#utility.yul\":3347:3351   */\n      dup2\n        /* \"#utility.yul\":3343:3363   */\n      sub\n        /* \"#utility.yul\":3339:3340   */\n      0x00\n        /* \"#utility.yul\":3328:3337   */\n      dup4\n        /* \"#utility.yul\":3324:3341   */\n      add\n        /* \"#utility.yul\":3317:3364   */\n      mstore\n        /* \"#utility.yul\":3381:3459   */\n      tag_178\n        /* \"#utility.yul\":3454:3458   */\n      dup2\n        /* \"#utility.yul\":3445:3451   */\n      dup7\n        /* \"#utility.yul\":3381:3459   */\n      tag_109\n      jump\t// in\n    tag_178:\n        /* \"#utility.yul\":3373:3459   */\n      swap1\n      pop\n        /* \"#utility.yul\":3506:3515   */\n      dup2\n        /* \"#utility.yul\":3500:3504   */\n      dup2\n        /* \"#utility.yul\":3496:3516   */\n      sub\n        /* \"#utility.yul\":3491:3493   */\n      0x20\n        /* \"#utility.yul\":3480:3489   */\n      dup4\n        /* \"#utility.yul\":3476:3494   */\n      add\n        /* \"#utility.yul\":3469:3517   */\n      mstore\n        /* \"#utility.yul\":3534:3612   */\n      tag_179\n        /* \"#utility.yul\":3607:3611   */\n      dup2\n        /* \"#utility.yul\":3598:3604   */\n      dup6\n        /* \"#utility.yul\":3534:3612   */\n      tag_109\n      jump\t// in\n    tag_179:\n        /* \"#utility.yul\":3526:3612   */\n      swap1\n      pop\n        /* \"#utility.yul\":3622:3694   */\n      tag_180\n        /* \"#utility.yul\":3690:3692   */\n      0x40\n        /* \"#utility.yul\":3679:3688   */\n      dup4\n        /* \"#utility.yul\":3675:3693   */\n      add\n        /* \"#utility.yul\":3666:3672   */\n      dup5\n        /* \"#utility.yul\":3622:3694   */\n      tag_119\n      jump\t// in\n    tag_180:\n        /* \"#utility.yul\":3077:3701   */\n      swap5\n      swap4\n      pop\n      pop\n      pop\n      pop\n      jump\t// out\n        /* \"#utility.yul\":3707:3846   */\n    tag_120:\n        /* \"#utility.yul\":3799:3805   */\n      0x00\n        /* \"#utility.yul\":3833:3838   */\n      dup2\n        /* \"#utility.yul\":3827:3839   */\n      mload\n        /* \"#utility.yul\":3817:3839   */\n      swap1\n      pop\n        /* \"#utility.yul\":3707:3846   */\n      swap2\n      swap1\n      pop\n      jump\t// out\n        /* \"#utility.yul\":3852:4061   */\n    tag_121:\n        /* \"#utility.yul\":3976:3987   */\n      0x00\n        /* \"#utility.yul\":4010:4016   */\n      dup3\n        /* \"#utility.yul\":4005:4008   */\n      dup3\n        /* \"#utility.yul\":3998:4017   */\n      mstore\n        /* \"#utility.yul\":4050:4054   */\n      0x20\n        /* \"#utility.yul\":4045:4048   */\n      dup3\n        /* \"#utility.yul\":4041:4055   */\n      add\n        /* \"#utility.yul\":4026:4055   */\n      swap1\n      pop\n        /* \"#utility.yul\":3852:4061   */\n      swap3\n      swap2\n      pop\n      pop\n      jump\t// out\n        /* \"#utility.yul\":4067:4224   */\n    tag_122:\n        /* \"#utility.yul\":4159:4163   */\n      0x00\n        /* \"#utility.yul\":4182:4185   */\n      dup2\n        /* \"#utility.yul\":4174:4185   */\n      swap1\n      pop\n        /* \"#utility.yul\":4212:4216   */\n      0x20\n        /* \"#utility.yul\":4207:4210   */\n      dup3\n        /* \"#utility.yul\":4203:4217   */\n      add\n        /* \"#utility.yul\":4195:4217   */\n      swap1\n      pop\n        /* \"#utility.yul\":4067:4224   */\n      swap2\n      swap1\n      pop\n      jump\t// out\n        /* \"#utility.yul\":4230:4389   */\n    tag_123:\n        /* \"#utility.yul\":4304:4315   */\n      0x00\n        /* \"#utility.yul\":4338:4344   */\n      dup3\n        /* \"#utility.yul\":4333:4336   */\n      dup3\n        /* \"#utility.yul\":4326:4345   */\n      mstore\n        /* \"#utility.yul\":4378:4382   */\n      0x20\n        /* \"#utility.yul\":4373:4376   */\n      dup3\n        /* \"#utility.yul\":4369:4383   */\n      add\n        /* \"#utility.yul\":4354:4383   */\n      swap1\n      pop\n        /* \"#utility.yul\":4230:4389   */\n      swap3\n      swap2\n      pop\n      pop\n      jump\t// out\n        /* \"#utility.yul\":4395:4752   */\n    tag_124:\n        /* \"#utility.yul\":4473:4476   */\n      0x00\n        /* \"#utility.yul\":4501:4540   */\n      tag_186\n        /* \"#utility.yul\":4534:4539   */\n      dup3\n        /* \"#utility.yul\":4501:4540   */\n      tag_105\n      jump\t// in\n    tag_186:\n        /* \"#utility.yul\":4556:4617   */\n      tag_187\n        /* \"#utility.yul\":4610:4616   */\n      dup2\n        /* \"#utility.yul\":4605:4608   */\n      dup6\n        /* \"#utility.yul\":4556:4617   */\n      tag_123\n      jump\t// in\n    tag_187:\n        /* \"#utility.yul\":4549:4617   */\n      swap4\n      pop\n        /* \"#utility.yul\":4626:4691   */\n      tag_188\n        /* \"#utility.yul\":4684:4690   */\n      dup2\n        /* \"#utility.yul\":4679:4682   */\n      dup6\n        /* \"#utility.yul\":4672:4676   */\n      0x20\n        /* \"#utility.yul\":4665:4670   */\n      dup7\n        /* \"#utility.yul\":4661:4677   */\n      add\n        /* \"#utility.yul\":4626:4691   */\n      tag_107\n      jump\t// in\n    tag_188:\n        /* \"#utility.yul\":4716:4745   */\n      tag_189\n        /* \"#utility.yul\":4738:4744   */\n      dup2\n        /* \"#utility.yul\":4716:4745   */\n      tag_108\n      jump\t// in\n    tag_189:\n        /* \"#utility.yul\":4711:4714   */\n      dup5\n        /* \"#utility.yul\":4707:4746   */\n      add\n        /* \"#utility.yul\":4700:4746   */\n      swap2\n      pop\n        /* \"#utility.yul\":4477:4752   */\n      pop\n        /* \"#utility.yul\":4395:4752   */\n      swap3\n      swap2\n      pop\n      pop\n      jump\t// out\n        /* \"#utility.yul\":4758:4866   */\n    tag_125:\n        /* \"#utility.yul\":4835:4859   */\n      tag_191\n        /* \"#utility.yul\":4853:4858   */\n      dup2\n        /* \"#utility.yul\":4835:4859   */\n      tag_116\n      jump\t// in\n    tag_191:\n        /* \"#utility.yul\":4830:4833   */\n      dup3\n        /* \"#utility.yul\":4823:4860   */\n      mstore\n        /* \"#utility.yul\":4758:4866   */\n      pop\n      pop\n      jump\t// out\n        /* \"#utility.yul\":4934:5782   */\n    tag_126:\n        /* \"#utility.yul\":5043:5046   */\n      0x00\n        /* \"#utility.yul\":5079:5083   */\n      0x60\n        /* \"#utility.yul\":5074:5077   */\n      dup4\n        /* \"#utility.yul\":5070:5084   */\n      add\n        /* \"#utility.yul\":5166:5170   */\n      0x00\n        /* \"#utility.yul\":5159:5164   */\n      dup4\n        /* \"#utility.yul\":5155:5171   */\n      add\n        /* \"#utility.yul\":5149:5172   */\n      mload\n        /* \"#utility.yul\":5219:5222   */\n      dup5\n        /* \"#utility.yul\":5213:5217   */\n      dup3\n        /* \"#utility.yul\":5209:5223   */\n      sub\n        /* \"#utility.yul\":5202:5206   */\n      0x00\n        /* \"#utility.yul\":5197:5200   */\n      dup7\n        /* \"#utility.yul\":5193:5207   */\n      add\n        /* \"#utility.yul\":5186:5224   */\n      mstore\n        /* \"#utility.yul\":5245:5318   */\n      tag_193\n        /* \"#utility.yul\":5313:5317   */\n      dup3\n        /* \"#utility.yul\":5299:5311   */\n      dup3\n        /* \"#utility.yul\":5245:5318   */\n      tag_124\n      jump\t// in\n    tag_193:\n        /* \"#utility.yul\":5237:5318   */\n      swap2\n      pop\n        /* \"#utility.yul\":5094:5329   */\n      pop\n        /* \"#utility.yul\":5412:5416   */\n      0x20\n        /* \"#utility.yul\":5405:5410   */\n      dup4\n        /* \"#utility.yul\":5401:5417   */\n      add\n        /* \"#utility.yul\":5395:5418   */\n      mload\n        /* \"#utility.yul\":5465:5468   */\n      dup5\n        /* \"#utility.yul\":5459:5463   */\n      dup3\n        /* \"#utility.yul\":5455:5469   */\n      sub\n        /* \"#utility.yul\":5448:5452   */\n      0x20\n        /* \"#utility.yul\":5443:5446   */\n      dup7\n        /* \"#utility.yul\":5439:5453   */\n      add\n        /* \"#utility.yul\":5432:5470   */\n      mstore\n        /* \"#utility.yul\":5491:5564   */\n      tag_194\n        /* \"#utility.yul\":5559:5563   */\n      dup3\n        /* \"#utility.yul\":5545:5557   */\n      dup3\n        /* \"#utility.yul\":5491:5564   */\n      tag_124\n      jump\t// in\n    tag_194:\n        /* \"#utility.yul\":5483:5564   */\n      swap2\n      pop\n        /* \"#utility.yul\":5339:5575   */\n      pop\n        /* \"#utility.yul\":5663:5667   */\n      0x40\n        /* \"#utility.yul\":5656:5661   */\n      dup4\n        /* \"#utility.yul\":5652:5668   */\n      add\n        /* \"#utility.yul\":5646:5669   */\n      mload\n        /* \"#utility.yul\":5682:5745   */\n      tag_195\n        /* \"#utility.yul\":5739:5743   */\n      0x40\n        /* \"#utility.yul\":5734:5737   */\n      dup7\n        /* \"#utility.yul\":5730:5744   */\n      add\n        /* \"#utility.yul\":5716:5728   */\n      dup3\n        /* \"#utility.yul\":5682:5745   */\n      tag_125\n      jump\t// in\n    tag_195:\n        /* \"#utility.yul\":5585:5755   */\n      pop\n        /* \"#utility.yul\":5772:5776   */\n      dup1\n        /* \"#utility.yul\":5765:5776   */\n      swap2\n      pop\n        /* \"#utility.yul\":5048:5782   */\n      pop\n        /* \"#utility.yul\":4934:5782   */\n      swap3\n      swap2\n      pop\n      pop\n      jump\t// out\n        /* \"#utility.yul\":5788:6044   */\n    tag_127:\n        /* \"#utility.yul\":5907:5917   */\n      0x00\n        /* \"#utility.yul\":5942:6038   */\n      tag_197\n        /* \"#utility.yul\":6034:6037   */\n      dup4\n        /* \"#utility.yul\":6026:6032   */\n      dup4\n        /* \"#utility.yul\":5942:6038   */\n      tag_126\n      jump\t// in\n    tag_197:\n        /* \"#utility.yul\":5928:6038   */\n      swap1\n      pop\n        /* \"#utility.yul\":5788:6044   */\n      swap3\n      swap2\n      pop\n      pop\n      jump\t// out\n        /* \"#utility.yul\":6050:6188   */\n    tag_128:\n        /* \"#utility.yul\":6145:6149   */\n      0x00\n        /* \"#utility.yul\":6177:6181   */\n      0x20\n        /* \"#utility.yul\":6172:6175   */\n      dup3\n        /* \"#utility.yul\":6168:6182   */\n      add\n        /* \"#utility.yul\":6160:6182   */\n      swap1\n      pop\n        /* \"#utility.yul\":6050:6188   */\n      swap2\n      swap1\n      pop\n      jump\t// out\n        /* \"#utility.yul\":6260:7371   */\n    tag_129:\n        /* \"#utility.yul\":6429:6432   */\n      0x00\n        /* \"#utility.yul\":6458:6537   */\n      tag_200\n        /* \"#utility.yul\":6531:6536   */\n      dup3\n        /* \"#utility.yul\":6458:6537   */\n      tag_120\n      jump\t// in\n    tag_200:\n        /* \"#utility.yul\":6553:6664   */\n      tag_201\n        /* \"#utility.yul\":6657:6663   */\n      dup2\n        /* \"#utility.yul\":6652:6655   */\n      dup6\n        /* \"#utility.yul\":6553:6664   */\n      tag_121\n      jump\t// in\n    tag_201:\n        /* \"#utility.yul\":6546:6664   */\n      swap4\n      pop\n        /* \"#utility.yul\":6690:6693   */\n      dup4\n        /* \"#utility.yul\":6735:6739   */\n      0x20\n        /* \"#utility.yul\":6727:6733   */\n      dup3\n        /* \"#utility.yul\":6723:6740   */\n      mul\n        /* \"#utility.yul\":6718:6721   */\n      dup6\n        /* \"#utility.yul\":6714:6741   */\n      add\n        /* \"#utility.yul\":6765:6846   */\n      tag_202\n        /* \"#utility.yul\":6840:6845   */\n      dup6\n        /* \"#utility.yul\":6765:6846   */\n      tag_122\n      jump\t// in\n    tag_202:\n        /* \"#utility.yul\":6869:6876   */\n      dup1\n        /* \"#utility.yul\":6900:6901   */\n      0x00\n        /* \"#utility.yul\":6885:7326   */\n    tag_203:\n        /* \"#utility.yul\":6910:6916   */\n      dup6\n        /* \"#utility.yul\":6907:6908   */\n      dup2\n        /* \"#utility.yul\":6904:6917   */\n      lt\n        /* \"#utility.yul\":6885:7326   */\n      iszero\n      tag_205\n      jumpi\n        /* \"#utility.yul\":6981:6990   */\n      dup5\n        /* \"#utility.yul\":6975:6979   */\n      dup5\n        /* \"#utility.yul\":6971:6991   */\n      sub\n        /* \"#utility.yul\":6966:6969   */\n      dup10\n        /* \"#utility.yul\":6959:6992   */\n      mstore\n        /* \"#utility.yul\":7032:7038   */\n      dup2\n        /* \"#utility.yul\":7026:7039   */\n      mload\n        /* \"#utility.yul\":7060:7174   */\n      tag_206\n        /* \"#utility.yul\":7169:7173   */\n      dup6\n        /* \"#utility.yul\":7154:7167   */\n      dup3\n        /* \"#utility.yul\":7060:7174   */\n      tag_127\n      jump\t// in\n    tag_206:\n        /* \"#utility.yul\":7052:7174   */\n      swap5\n      pop\n        /* \"#utility.yul\":7197:7282   */\n      tag_207\n        /* \"#utility.yul\":7275:7281   */\n      dup4\n        /* \"#utility.yul\":7197:7282   */\n      tag_128\n      jump\t// in\n    tag_207:\n        /* \"#utility.yul\":7187:7282   */\n      swap3\n      pop\n        /* \"#utility.yul\":7311:7315   */\n      0x20\n        /* \"#utility.yul\":7306:7309   */\n      dup11\n        /* \"#utility.yul\":7302:7316   */\n      add\n        /* \"#utility.yul\":7295:7316   */\n      swap10\n      pop\n        /* \"#utility.yul\":6945:7326   */\n      pop\n        /* \"#utility.yul\":6932:6933   */\n      0x01\n        /* \"#utility.yul\":6929:6930   */\n      dup2\n        /* \"#utility.yul\":6925:6934   */\n      add\n        /* \"#utility.yul\":6920:6934   */\n      swap1\n      pop\n        /* \"#utility.yul\":6885:7326   */\n      jump(tag_203)\n    tag_205:\n        /* \"#utility.yul\":6889:6903   */\n      pop\n        /* \"#utility.yul\":7342:7346   */\n      dup3\n        /* \"#utility.yul\":7335:7346   */\n      swap8\n      pop\n        /* \"#utility.yul\":7362:7365   */\n      dup8\n        /* \"#utility.yul\":7355:7365   */\n      swap6\n      pop\n        /* \"#utility.yul\":6434:7371   */\n      pop\n      pop\n      pop\n      pop\n      pop\n        /* \"#utility.yul\":6260:7371   */\n      swap3\n      swap2\n      pop\n      pop\n      jump\t// out\n        /* \"#utility.yul\":7377:7850   */\n    tag_29:\n        /* \"#utility.yul\":7570:7574   */\n      0x00\n        /* \"#utility.yul\":7608:7610   */\n      0x20\n        /* \"#utility.yul\":7597:7606   */\n      dup3\n        /* \"#utility.yul\":7593:7611   */\n      add\n        /* \"#utility.yul\":7585:7611   */\n      swap1\n      pop\n        /* \"#utility.yul\":7657:7666   */\n      dup2\n        /* \"#utility.yul\":7651:7655   */\n      dup2\n        /* \"#utility.yul\":7647:7667   */\n      sub\n        /* \"#utility.yul\":7643:7644   */\n      0x00\n        /* \"#utility.yul\":7632:7641   */\n      dup4\n        /* \"#utility.yul\":7628:7645   */\n      add\n        /* \"#utility.yul\":7621:7668   */\n      mstore\n        /* \"#utility.yul\":7685:7843   */\n      tag_209\n        /* \"#utility.yul\":7838:7842   */\n      dup2\n        /* \"#utility.yul\":7829:7835   */\n      dup5\n        /* \"#utility.yul\":7685:7843   */\n      tag_129\n      jump\t// in\n    tag_209:\n        /* \"#utility.yul\":7677:7843   */\n      swap1\n      pop\n        /* \"#utility.yul\":7377:7850   */\n      swap3\n      swap2\n      pop\n      pop\n      jump\t// out\n        /* \"#utility.yul\":7856:7978   */\n    tag_130:\n        /* \"#utility.yul\":7929:7953   */\n      tag_211\n        /* \"#utility.yul\":7947:7952   */\n      dup2\n        /* \"#utility.yul\":7929:7953   */\n      tag_111\n      jump\t// in\n    tag_211:\n        /* \"#utility.yul\":7922:7927   */\n      dup2\n        /* \"#utility.yul\":7919:7954   */\n      eq\n        /* \"#utility.yul\":7909:7972   */\n      tag_212\n      jumpi\n        /* \"#utility.yul\":7968:7969   */\n      0x00\n        /* \"#utility.yul\":7965:7966   */\n      dup1\n        /* \"#utility.yul\":7958:7970   */\n      revert\n        /* \"#utility.yul\":7909:7972   */\n    tag_212:\n        /* \"#utility.yul\":7856:7978   */\n      pop\n      jump\t// out\n        /* \"#utility.yul\":7984:8123   */\n    tag_131:\n        /* \"#utility.yul\":8030:8035   */\n      0x00\n        /* \"#utility.yul\":8068:8074   */\n      dup2\n        /* \"#utility.yul\":8055:8075   */\n      calldataload\n        /* \"#utility.yul\":8046:8075   */\n      swap1\n      pop\n        /* \"#utility.yul\":8084:8117   */\n      tag_214\n        /* \"#utility.yul\":8111:8116   */\n      dup2\n        /* \"#utility.yul\":8084:8117   */\n      tag_130\n      jump\t// in\n    tag_214:\n        /* \"#utility.yul\":7984:8123   */\n      swap3\n      swap2\n      pop\n      pop\n      jump\t// out\n        /* \"#utility.yul\":8129:8458   */\n    tag_32:\n        /* \"#utility.yul\":8188:8194   */\n      0x00\n        /* \"#utility.yul\":8237:8239   */\n      0x20\n        /* \"#utility.yul\":8225:8234   */\n      dup3\n        /* \"#utility.yul\":8216:8223   */\n      dup5\n        /* \"#utility.yul\":8212:8235   */\n      sub\n        /* \"#utility.yul\":8208:8240   */\n      slt\n        /* \"#utility.yul\":8205:8324   */\n      iszero\n      tag_216\n      jumpi\n        /* \"#utility.yul\":8243:8322   */\n      tag_217\n      tag_114\n      jump\t// in\n    tag_217:\n        /* \"#utility.yul\":8205:8324   */\n    tag_216:\n        /* \"#utility.yul\":8363:8364   */\n      0x00\n        /* \"#utility.yul\":8388:8441   */\n      tag_218\n        /* \"#utility.yul\":8433:8440   */\n      dup5\n        /* \"#utility.yul\":8424:8430   */\n      dup3\n        /* \"#utility.yul\":8413:8422   */\n      dup6\n        /* \"#utility.yul\":8409:8431   */\n      add\n        /* \"#utility.yul\":8388:8441   */\n      tag_131\n      jump\t// in\n    tag_218:\n        /* \"#utility.yul\":8378:8441   */\n      swap2\n      pop\n        /* \"#utility.yul\":8334:8451   */\n      pop\n        /* \"#utility.yul\":8129:8458   */\n      swap3\n      swap2\n      pop\n      pop\n      jump\t// out\n        /* \"#utility.yul\":8464:8554   */\n    tag_132:\n        /* \"#utility.yul\":8498:8505   */\n      0x00\n        /* \"#utility.yul\":8541:8546   */\n      dup2\n        /* \"#utility.yul\":8534:8547   */\n      iszero\n        /* \"#utility.yul\":8527:8548   */\n      iszero\n        /* \"#utility.yul\":8516:8548   */\n      swap1\n      pop\n        /* \"#utility.yul\":8464:8554   */\n      swap2\n      swap1\n      pop\n      jump\t// out\n        /* \"#utility.yul\":8560:8669   */\n    tag_133:\n        /* \"#utility.yul\":8641:8662   */\n      tag_221\n        /* \"#utility.yul\":8656:8661   */\n      dup2\n        /* \"#utility.yul\":8641:8662   */\n      tag_132\n      jump\t// in\n    tag_221:\n        /* \"#utility.yul\":8636:8639   */\n      dup3\n        /* \"#utility.yul\":8629:8663   */\n      mstore\n        /* \"#utility.yul\":8560:8669   */\n      pop\n      pop\n      jump\t// out\n        /* \"#utility.yul\":8675:8983   */\n    tag_38:\n        /* \"#utility.yul\":8784:8788   */\n      0x00\n        /* \"#utility.yul\":8822:8824   */\n      0x40\n        /* \"#utility.yul\":8811:8820   */\n      dup3\n        /* \"#utility.yul\":8807:8825   */\n      add\n        /* \"#utility.yul\":8799:8825   */\n      swap1\n      pop\n        /* \"#utility.yul\":8835:8900   */\n      tag_223\n        /* \"#utility.yul\":8897:8898   */\n      0x00\n        /* \"#utility.yul\":8886:8895   */\n      dup4\n        /* \"#utility.yul\":8882:8899   */\n      add\n        /* \"#utility.yul\":8873:8879   */\n      dup6\n        /* \"#utility.yul\":8835:8900   */\n      tag_133\n      jump\t// in\n    tag_223:\n        /* \"#utility.yul\":8910:8976   */\n      tag_224\n        /* \"#utility.yul\":8972:8974   */\n      0x20\n        /* \"#utility.yul\":8961:8970   */\n      dup4\n        /* \"#utility.yul\":8957:8975   */\n      add\n        /* \"#utility.yul\":8948:8954   */\n      dup5\n        /* \"#utility.yul\":8910:8976   */\n      tag_133\n      jump\t// in\n    tag_224:\n        /* \"#utility.yul\":8675:8983   */\n      swap4\n      swap3\n      pop\n      pop\n      pop\n      jump\t// out\n        /* \"#utility.yul\":8989:9211   */\n    tag_42:\n        /* \"#utility.yul\":9082:9086   */\n      0x00\n        /* \"#utility.yul\":9120:9122   */\n      0x20\n        /* \"#utility.yul\":9109:9118   */\n      dup3\n        /* \"#utility.yul\":9105:9123   */\n      add\n        /* \"#utility.yul\":9097:9123   */\n      swap1\n      pop\n        /* \"#utility.yul\":9133:9204   */\n      tag_226\n        /* \"#utility.yul\":9201:9202   */\n      0x00\n        /* \"#utility.yul\":9190:9199   */\n      dup4\n        /* \"#utility.yul\":9186:9203   */\n      add\n        /* \"#utility.yul\":9177:9183   */\n      dup5\n        /* \"#utility.yul\":9133:9204   */\n      tag_119\n      jump\t// in\n    tag_226:\n        /* \"#utility.yul\":8989:9211   */\n      swap3\n      swap2\n      pop\n      pop\n      jump\t// out\n        /* \"#utility.yul\":9217:9397   */\n    tag_50:\n        /* \"#utility.yul\":9265:9342   */\n      0x4e487b7100000000000000000000000000000000000000000000000000000000\n        /* \"#utility.yul\":9262:9263   */\n      0x00\n        /* \"#utility.yul\":9255:9343   */\n      mstore\n        /* \"#utility.yul\":9362:9366   */\n      0x32\n        /* \"#utility.yul\":9359:9360   */\n      0x04\n        /* \"#utility.yul\":9352:9367   */\n      mstore\n        /* \"#utility.yul\":9386:9390   */\n      0x24\n        /* \"#utility.yul\":9383:9384   */\n      0x00\n        /* \"#utility.yul\":9376:9391   */\n      revert\n        /* \"#utility.yul\":9403:9583   */\n    tag_134:\n        /* \"#utility.yul\":9451:9528   */\n      0x4e487b7100000000000000000000000000000000000000000000000000000000\n        /* \"#utility.yul\":9448:9449   */\n      0x00\n        /* \"#utility.yul\":9441:9529   */\n      mstore\n        /* \"#utility.yul\":9548:9552   */\n      0x22\n        /* \"#utility.yul\":9545:9546   */\n      0x04\n        /* \"#utility.yul\":9538:9553   */\n      mstore\n        /* \"#utility.yul\":9572:9576   */\n      0x24\n        /* \"#utility.yul\":9569:9570   */\n      0x00\n        /* \"#utility.yul\":9562:9577   */\n      revert\n        /* \"#utility.yul\":9589:9909   */\n    tag_53:\n        /* \"#utility.yul\":9633:9639   */\n      0x00\n        /* \"#utility.yul\":9670:9671   */\n      0x02\n        /* \"#utility.yul\":9664:9668   */\n      dup3\n        /* \"#utility.yul\":9660:9672   */\n      div\n        /* \"#utility.yul\":9650:9672   */\n      swap1\n      pop\n        /* \"#utility.yul\":9717:9718   */\n      0x01\n        /* \"#utility.yul\":9711:9715   */\n      dup3\n        /* \"#utility.yul\":9707:9719   */\n      and\n        /* \"#utility.yul\":9738:9756   */\n      dup1\n        /* \"#utility.yul\":9728:9809   */\n      tag_230\n      jumpi\n        /* \"#utility.yul\":9794:9798   */\n      0x7f\n        /* \"#utility.yul\":9786:9792   */\n      dup3\n        /* \"#utility.yul\":9782:9799   */\n      and\n        /* \"#utility.yul\":9772:9799   */\n      swap2\n      pop\n        /* \"#utility.yul\":9728:9809   */\n    tag_230:\n        /* \"#utility.yul\":9856:9858   */\n      0x20\n        /* \"#utility.yul\":9848:9854   */\n      dup3\n        /* \"#utility.yul\":9845:9859   */\n      lt\n        /* \"#utility.yul\":9825:9843   */\n      dup2\n        /* \"#utility.yul\":9822:9860   */\n      sub\n        /* \"#utility.yul\":9819:9903   */\n      tag_231\n      jumpi\n        /* \"#utility.yul\":9875:9893   */\n      tag_232\n      tag_134\n      jump\t// in\n    tag_232:\n        /* \"#utility.yul\":9819:9903   */\n    tag_231:\n        /* \"#utility.yul\":9640:9909   */\n      pop\n        /* \"#utility.yul\":9589:9909   */\n      swap2\n      swap1\n      pop\n      jump\t// out\n        /* \"#utility.yul\":9915:10149   */\n    tag_135:\n        /* \"#utility.yul\":10055:10089   */\n      0x4f6e6c792074686520636f6e7472616374206f776e65722063616e2067697665\n        /* \"#utility.yul\":10051:10052   */\n      0x00\n        /* \"#utility.yul\":10043:10049   */\n      dup3\n        /* \"#utility.yul\":10039:10053   */\n      add\n        /* \"#utility.yul\":10032:10090   */\n      mstore\n        /* \"#utility.yul\":10124:10141   */\n      0x20726967687420746f20766f74652e0000000000000000000000000000000000\n        /* \"#utility.yul\":10119:10121   */\n      0x20\n        /* \"#utility.yul\":10111:10117   */\n      dup3\n        /* \"#utility.yul\":10107:10122   */\n      add\n        /* \"#utility.yul\":10100:10142   */\n      mstore\n        /* \"#utility.yul\":9915:10149   */\n      pop\n      jump\t// out\n        /* \"#utility.yul\":10155:10521   */\n    tag_136:\n        /* \"#utility.yul\":10297:10300   */\n      0x00\n        /* \"#utility.yul\":10318:10385   */\n      tag_235\n        /* \"#utility.yul\":10382:10384   */\n      0x2f\n        /* \"#utility.yul\":10377:10380   */\n      dup4\n        /* \"#utility.yul\":10318:10385   */\n      tag_106\n      jump\t// in\n    tag_235:\n        /* \"#utility.yul\":10311:10385   */\n      swap2\n      pop\n        /* \"#utility.yul\":10394:10487   */\n      tag_236\n        /* \"#utility.yul\":10483:10486   */\n      dup3\n        /* \"#utility.yul\":10394:10487   */\n      tag_135\n      jump\t// in\n    tag_236:\n        /* \"#utility.yul\":10512:10514   */\n      0x40\n        /* \"#utility.yul\":10507:10510   */\n      dup3\n        /* \"#utility.yul\":10503:10515   */\n      add\n        /* \"#utility.yul\":10496:10515   */\n      swap1\n      pop\n        /* \"#utility.yul\":10155:10521   */\n      swap2\n      swap1\n      pop\n      jump\t// out\n        /* \"#utility.yul\":10527:10946   */\n    tag_88:\n        /* \"#utility.yul\":10693:10697   */\n      0x00\n        /* \"#utility.yul\":10731:10733   */\n      0x20\n        /* \"#utility.yul\":10720:10729   */\n      dup3\n        /* \"#utility.yul\":10716:10734   */\n      add\n        /* \"#utility.yul\":10708:10734   */\n      swap1\n      pop\n        /* \"#utility.yul\":10780:10789   */\n      dup2\n        /* \"#utility.yul\":10774:10778   */\n      dup2\n        /* \"#utility.yul\":10770:10790   */\n      sub\n        /* \"#utility.yul\":10766:10767   */\n      0x00\n        /* \"#utility.yul\":10755:10764   */\n      dup4\n        /* \"#utility.yul\":10751:10768   */\n      add\n        /* \"#utility.yul\":10744:10791   */\n      mstore\n        /* \"#utility.yul\":10808:10939   */\n      tag_238\n        /* \"#utility.yul\":10934:10938   */\n      dup2\n        /* \"#utility.yul\":10808:10939   */\n      tag_136\n      jump\t// in\n    tag_238:\n        /* \"#utility.yul\":10800:10939   */\n      swap1\n      pop\n        /* \"#utility.yul\":10527:10946   */\n      swap2\n      swap1\n      pop\n      jump\t// out\n        /* \"#utility.yul\":10952:11126   */\n    tag_137:\n        /* \"#utility.yul\":11092:11118   */\n      0x54686520766f74657220616c726561647920766f7465642e0000000000000000\n        /* \"#utility.yul\":11088:11089   */\n      0x00\n        /* \"#utility.yul\":11080:11086   */\n      dup3\n        /* \"#utility.yul\":11076:11090   */\n      add\n        /* \"#utility.yul\":11069:11119   */\n      mstore\n        /* \"#utility.yul\":10952:11126   */\n      pop\n      jump\t// out\n        /* \"#utility.yul\":11132:11498   */\n    tag_138:\n        /* \"#utility.yul\":11274:11277   */\n      0x00\n        /* \"#utility.yul\":11295:11362   */\n      tag_241\n        /* \"#utility.yul\":11359:11361   */\n      0x18\n        /* \"#utility.yul\":11354:11357   */\n      dup4\n        /* \"#utility.yul\":11295:11362   */\n      tag_106\n      jump\t// in\n    tag_241:\n        /* \"#utility.yul\":11288:11362   */\n      swap2\n      pop\n        /* \"#utility.yul\":11371:11464   */\n      tag_242\n        /* \"#utility.yul\":11460:11463   */\n      dup3\n        /* \"#utility.yul\":11371:11464   */\n      tag_137\n      jump\t// in\n    tag_242:\n        /* \"#utility.yul\":11489:11491   */\n      0x20\n        /* \"#utility.yul\":11484:11487   */\n      dup3\n        /* \"#utility.yul\":11480:11492   */\n      add\n        /* \"#utility.yul\":11473:11492   */\n      swap1\n      pop\n        /* \"#utility.yul\":11132:11498   */\n      swap2\n      swap1\n      pop\n      jump\t// out\n        /* \"#utility.yul\":11504:11923   */\n    tag_91:\n        /* \"#utility.yul\":11670:11674   */\n      0x00\n        /* \"#utility.yul\":11708:11710   */\n      0x20\n        /* \"#utility.yul\":11697:11706   */\n      dup3\n        /* \"#utility.yul\":11693:11711   */\n      add\n        /* \"#utility.yul\":11685:11711   */\n      swap1\n      pop\n        /* \"#utility.yul\":11757:11766   */\n      dup2\n        /* \"#utility.yul\":11751:11755   */\n      dup2\n        /* \"#utility.yul\":11747:11767   */\n      sub\n        /* \"#utility.yul\":11743:11744   */\n      0x00\n        /* \"#utility.yul\":11732:11741   */\n      dup4\n        /* \"#utility.yul\":11728:11745   */\n      add\n        /* \"#utility.yul\":11721:11768   */\n      mstore\n        /* \"#utility.yul\":11785:11916   */\n      tag_244\n        /* \"#utility.yul\":11911:11915   */\n      dup2\n        /* \"#utility.yul\":11785:11916   */\n      tag_138\n      jump\t// in\n    tag_244:\n        /* \"#utility.yul\":11777:11916   */\n      swap1\n      pop\n        /* \"#utility.yul\":11504:11923   */\n      swap2\n      swap1\n      pop\n      jump\t// out\n        /* \"#utility.yul\":11929:12109   */\n    tag_139:\n        /* \"#utility.yul\":11977:12054   */\n      0x4e487b7100000000000000000000000000000000000000000000000000000000\n        /* \"#utility.yul\":11974:11975   */\n      0x00\n        /* \"#utility.yul\":11967:12055   */\n      mstore\n        /* \"#utility.yul\":12074:12078   */\n      0x11\n        /* \"#utility.yul\":12071:12072   */\n      0x04\n        /* \"#utility.yul\":12064:12079   */\n      mstore\n        /* \"#utility.yul\":12098:12102   */\n      0x24\n        /* \"#utility.yul\":12095:12096   */\n      0x00\n        /* \"#utility.yul\":12088:12103   */\n      revert\n        /* \"#utility.yul\":12115:12348   */\n    tag_104:\n        /* \"#utility.yul\":12154:12157   */\n      0x00\n        /* \"#utility.yul\":12177:12201   */\n      tag_247\n        /* \"#utility.yul\":12195:12200   */\n      dup3\n        /* \"#utility.yul\":12177:12201   */\n      tag_116\n      jump\t// in\n    tag_247:\n        /* \"#utility.yul\":12168:12201   */\n      swap2\n      pop\n        /* \"#utility.yul\":12223:12289   */\n      0xffffffffffffffffffffffffffffffffffffffffffffffffffffffffffffffff\n        /* \"#utility.yul\":12216:12221   */\n      dup3\n        /* \"#utility.yul\":12213:12290   */\n      sub\n        /* \"#utility.yul\":12210:12313   */\n      tag_248\n      jumpi\n        /* \"#utility.yul\":12293:12311   */\n      tag_249\n      tag_139\n      jump\t// in\n    tag_249:\n        /* \"#utility.yul\":12210:12313   */\n    tag_248:\n        /* \"#utility.yul\":12340:12341   */\n      0x01\n        /* \"#utility.yul\":12333:12338   */\n      dup3\n        /* \"#utility.yul\":12329:12342   */\n      add\n        /* \"#utility.yul\":12322:12342   */\n      swap1\n      pop\n        /* \"#utility.yul\":12115:12348   */\n      swap2\n      swap1\n      pop\n      jump\t// out\n\n    auxdata: 0xa2646970667358221220a4fd0e2fa8c15d331514c8830229a0a2c993fe38c048c2308f0b1cb8f0e982c664736f6c63430008110033\n}\n",
				"bytecode": {
					"linkReferences": {},
					"object": "60806040523480156200001157600080fd5b5060405162001654380380620016548339818101604052810190620000379190620003ef565b336000806101000a81548173ffffffffffffffffffffffffffffffffffffffff021916908373ffffffffffffffffffffffffffffffffffffffff16021790555060005b8251811015620001575760026040518060600160405280858481518110620000a757620000a662000474565b5b60200260200101518152602001848481518110620000ca57620000c962000474565b5b602002602001015181526020016000815250908060018154018082558091505060019003906000526020600020906003020160009091909190915060008201518160000190816200011c9190620006ee565b506020820151816001019081620001349190620006ee565b5060408201518160020155505080806200014e9062000804565b9150506200007a565b50505062000851565b6000604051905090565b600080fd5b600080fd5b600080fd5b6000601f19601f8301169050919050565b7f4e487b7100000000000000000000000000000000000000000000000000000000600052604160045260246000fd5b620001c48262000179565b810181811067ffffffffffffffff82111715620001e657620001e56200018a565b5b80604052505050565b6000620001fb62000160565b9050620002098282620001b9565b919050565b600067ffffffffffffffff8211156200022c576200022b6200018a565b5b602082029050602081019050919050565b600080fd5b600080fd5b600067ffffffffffffffff8211156200026557620002646200018a565b5b620002708262000179565b9050602081019050919050565b60005b838110156200029d57808201518184015260208101905062000280565b60008484015250505050565b6000620002c0620002ba8462000247565b620001ef565b905082815260208101848484011115620002df57620002de62000242565b5b620002ec8482856200027d565b509392505050565b600082601f8301126200030c576200030b62000174565b5b81516200031e848260208601620002a9565b91505092915050565b60006200033e62000338846200020e565b620001ef565b905080838252602082019050602084028301858111156200036457620003636200023d565b5b835b81811015620003b257805167ffffffffffffffff8111156200038d576200038c62000174565b5b8086016200039c8982620002f4565b8552602085019450505060208101905062000366565b5050509392505050565b600082601f830112620003d457620003d362000174565b5b8151620003e684826020860162000327565b91505092915050565b600080604083850312156200040957620004086200016a565b5b600083015167ffffffffffffffff8111156200042a57620004296200016f565b5b6200043885828601620003bc565b925050602083015167ffffffffffffffff8111156200045c576200045b6200016f565b5b6200046a85828601620003bc565b9150509250929050565b7f4e487b7100000000000000000000000000000000000000000000000000000000600052603260045260246000fd5b600081519050919050565b7f4e487b7100000000000000000000000000000000000000000000000000000000600052602260045260246000fd5b60006002820490506001821680620004f657607f821691505b6020821081036200050c576200050b620004ae565b5b50919050565b60008190508160005260206000209050919050565b60006020601f8301049050919050565b600082821b905092915050565b600060088302620005767fffffffffffffffffffffffffffffffffffffffffffffffffffffffffffffffff8262000537565b62000582868362000537565b95508019841693508086168417925050509392505050565b6000819050919050565b6000819050919050565b6000620005cf620005c9620005c3846200059a565b620005a4565b6200059a565b9050919050565b6000819050919050565b620005eb83620005ae565b62000603620005fa82620005d6565b84845462000544565b825550505050565b600090565b6200061a6200060b565b62000627818484620005e0565b505050565b5b818110156200064f576200064360008262000610565b6001810190506200062d565b5050565b601f8211156200069e57620006688162000512565b620006738462000527565b8101602085101562000683578190505b6200069b620006928562000527565b8301826200062c565b50505b505050565b600082821c905092915050565b6000620006c360001984600802620006a3565b1980831691505092915050565b6000620006de8383620006b0565b9150826002028217905092915050565b620006f982620004a3565b67ffffffffffffffff8111156200071557620007146200018a565b5b620007218254620004dd565b6200072e82828562000653565b600060209050601f83116001811462000766576000841562000751578287015190505b6200075d8582620006d0565b865550620007cd565b601f198416620007768662000512565b60005b82811015620007a05784890151825560018201915060208501945060208101905062000779565b86831015620007c05784890151620007bc601f891682620006b0565b8355505b6001600288020188555050505b505050505050565b7f4e487b7100000000000000000000000000000000000000000000000000000000600052601160045260246000fd5b600062000811826200059a565b91507fffffffffffffffffffffffffffffffffffffffffffffffffffffffffffffffff8203620008465762000845620007d5565b5b600182019050919050565b610df380620008616000396000f3fe608060405234801561001057600080fd5b50600436106100885760003560e01c80639e7b8d611161005b5780639e7b8d6114610119578063a3ec138d14610135578063a513462014610166578063ce606ee01461018457610088565b80632bfda5151461008d57806332a2c5d0146100ab5780633477ee2e146100c95780634aba5f34146100fb575b600080fd5b6100956101a2565b6040516100a29190610833565b60405180910390f35b6100b361025e565b6040516100c09190610896565b60405180910390f35b6100e360048036038101906100de91906108ec565b610266565b6040516100f293929190610928565b60405180910390f35b6101036103b0565b6040516101109190610adf565b60405180910390f35b610133600480360381019061012e9190610b2d565b61053d565b005b61014f600480360381019061014a9190610b2d565b6106b9565b60405161015d929190610b75565b60405180910390f35b61016e6106f7565b60405161017b9190610b9e565b60405180910390f35b61018c61077f565b6040516101999190610896565b60405180910390f35b606060026101ae6106f7565b815481106101bf576101be610bb9565b5b906000526020600020906003020160000180546101db90610c17565b80601f016020809104026020016040519081016040528092919081815260200182805461020790610c17565b80156102545780601f1061022957610100808354040283529160200191610254565b820191906000526020600020905b81548152906001019060200180831161023757829003601f168201915b5050505050905090565b600030905090565b6002818154811061027657600080fd5b906000526020600020906003020160009150905080600001805461029990610c17565b80601f01602080910402602001604051908101604052809291908181526020018280546102c590610c17565b80156103125780601f106102e757610100808354040283529160200191610312565b820191906000526020600020905b8154815290600101906020018083116102f557829003601f168201915b50505050509080600101805461032790610c17565b80601f016020809104026020016040519081016040528092919081815260200182805461035390610c17565b80156103a05780601f10610375576101008083540402835291602001916103a0565b820191906000526020600020905b81548152906001019060200180831161038357829003601f168201915b5050505050908060020154905083565b60606002805480602002602001604051908101604052809291908181526020016000905b82821015610534578382906000526020600020906003020160405180606001604052908160008201805461040790610c17565b80601f016020809104026020016040519081016040528092919081815260200182805461043390610c17565b80156104805780601f1061045557610100808354040283529160200191610480565b820191906000526020600020905b81548152906001019060200180831161046357829003601f168201915b5050505050815260200160018201805461049990610c17565b80601f01602080910402602001604051908101604052809291908181526020018280546104c590610c17565b80156105125780601f106104e757610100808354040283529160200191610512565b820191906000526020600020905b8154815290600101906020018083116104f557829003601f168201915b50505050508152602001600282015481525050815260200190600101906103d4565b50505050905090565b60008054906101000a900473ffffffffffffffffffffffffffffffffffffffff1673ffffffffffffffffffffffffffffffffffffffff163373ffffffffffffffffffffffffffffffffffffffff16146105cb576040517f08c379a00000000000000000000000000000000000000000000000000000000081526004016105c290610cba565b60405180910390fd5b600160008273ffffffffffffffffffffffffffffffffffffffff1673ffffffffffffffffffffffffffffffffffffffff16815260200190815260200160002060000160019054906101000a900460ff161561065b576040517f08c379a000000000000000000000000000000000000000000000000000000000815260040161065290610d26565b60405180910390fd5b6000600160008373ffffffffffffffffffffffffffffffffffffffff1673ffffffffffffffffffffffffffffffffffffffff16815260200190815260200160002060000160006101000a81548160ff02191690831515021790555050565b60016020528060005260406000206000915090508060000160009054906101000a900460ff16908060000160019054906101000a900460ff16905082565b6000806000905060005b60028054905081101561077a57816002828154811061072357610722610bb9565b5b9060005260206000209060030201600201541115610767576002818154811061074f5761074e610bb9565b5b90600052602060002090600302016002015491508092505b808061077290610d75565b915050610701565b505090565b60008054906101000a900473ffffffffffffffffffffffffffffffffffffffff1681565b600081519050919050565b600082825260208201905092915050565b60005b838110156107dd5780820151818401526020810190506107c2565b60008484015250505050565b6000601f19601f8301169050919050565b6000610805826107a3565b61080f81856107ae565b935061081f8185602086016107bf565b610828816107e9565b840191505092915050565b6000602082019050818103600083015261084d81846107fa565b905092915050565b600073ffffffffffffffffffffffffffffffffffffffff82169050919050565b600061088082610855565b9050919050565b61089081610875565b82525050565b60006020820190506108ab6000830184610887565b92915050565b600080fd5b6000819050919050565b6108c9816108b6565b81146108d457600080fd5b50565b6000813590506108e6816108c0565b92915050565b600060208284031215610902576109016108b1565b5b6000610910848285016108d7565b91505092915050565b610922816108b6565b82525050565b6000606082019050818103600083015261094281866107fa565b9050818103602083015261095681856107fa565b90506109656040830184610919565b949350505050565b600081519050919050565b600082825260208201905092915050565b6000819050602082019050919050565b600082825260208201905092915050565b60006109b5826107a3565b6109bf8185610999565b93506109cf8185602086016107bf565b6109d8816107e9565b840191505092915050565b6109ec816108b6565b82525050565b60006060830160008301518482036000860152610a0f82826109aa565b91505060208301518482036020860152610a2982826109aa565b9150506040830151610a3e60408601826109e3565b508091505092915050565b6000610a5583836109f2565b905092915050565b6000602082019050919050565b6000610a758261096d565b610a7f8185610978565b935083602082028501610a9185610989565b8060005b85811015610acd5784840389528151610aae8582610a49565b9450610ab983610a5d565b925060208a01995050600181019050610a95565b50829750879550505050505092915050565b60006020820190508181036000830152610af98184610a6a565b905092915050565b610b0a81610875565b8114610b1557600080fd5b50565b600081359050610b2781610b01565b92915050565b600060208284031215610b4357610b426108b1565b5b6000610b5184828501610b18565b91505092915050565b60008115159050919050565b610b6f81610b5a565b82525050565b6000604082019050610b8a6000830185610b66565b610b976020830184610b66565b9392505050565b6000602082019050610bb36000830184610919565b92915050565b7f4e487b7100000000000000000000000000000000000000000000000000000000600052603260045260246000fd5b7f4e487b7100000000000000000000000000000000000000000000000000000000600052602260045260246000fd5b60006002820490506001821680610c2f57607f821691505b602082108103610c4257610c41610be8565b5b50919050565b7f4f6e6c792074686520636f6e7472616374206f776e65722063616e206769766560008201527f20726967687420746f20766f74652e0000000000000000000000000000000000602082015250565b6000610ca4602f836107ae565b9150610caf82610c48565b604082019050919050565b60006020820190508181036000830152610cd381610c97565b9050919050565b7f54686520766f74657220616c726561647920766f7465642e0000000000000000600082015250565b6000610d106018836107ae565b9150610d1b82610cda565b602082019050919050565b60006020820190508181036000830152610d3f81610d03565b9050919050565b7f4e487b7100000000000000000000000000000000000000000000000000000000600052601160045260246000fd5b6000610d80826108b6565b91507fffffffffffffffffffffffffffffffffffffffffffffffffffffffffffffffff8203610db257610db1610d46565b5b60018201905091905056fea2646970667358221220a4fd0e2fa8c15d331514c8830229a0a2c993fe38c048c2308f0b1cb8f0e982c664736f6c63430008110033",
					"opcodes": "PUSH1 0x80 PUSH1 0x40 MSTORE CALLVALUE DUP1 ISZERO PUSH3 0x11 JUMPI PUSH1 0x0 DUP1 REVERT JUMPDEST POP PUSH1 0x40 MLOAD PUSH3 0x1654 CODESIZE SUB DUP1 PUSH3 0x1654 DUP4 CODECOPY DUP2 DUP2 ADD PUSH1 0x40 MSTORE DUP2 ADD SWAP1 PUSH3 0x37 SWAP2 SWAP1 PUSH3 0x3EF JUMP JUMPDEST CALLER PUSH1 0x0 DUP1 PUSH2 0x100 EXP DUP2 SLOAD DUP2 PUSH20 0xFFFFFFFFFFFFFFFFFFFFFFFFFFFFFFFFFFFFFFFF MUL NOT AND SWAP1 DUP4 PUSH20 0xFFFFFFFFFFFFFFFFFFFFFFFFFFFFFFFFFFFFFFFF AND MUL OR SWAP1 SSTORE POP PUSH1 0x0 JUMPDEST DUP3 MLOAD DUP2 LT ISZERO PUSH3 0x157 JUMPI PUSH1 0x2 PUSH1 0x40 MLOAD DUP1 PUSH1 0x60 ADD PUSH1 0x40 MSTORE DUP1 DUP6 DUP5 DUP2 MLOAD DUP2 LT PUSH3 0xA7 JUMPI PUSH3 0xA6 PUSH3 0x474 JUMP JUMPDEST JUMPDEST PUSH1 0x20 MUL PUSH1 0x20 ADD ADD MLOAD DUP2 MSTORE PUSH1 0x20 ADD DUP5 DUP5 DUP2 MLOAD DUP2 LT PUSH3 0xCA JUMPI PUSH3 0xC9 PUSH3 0x474 JUMP JUMPDEST JUMPDEST PUSH1 0x20 MUL PUSH1 0x20 ADD ADD MLOAD DUP2 MSTORE PUSH1 0x20 ADD PUSH1 0x0 DUP2 MSTORE POP SWAP1 DUP1 PUSH1 0x1 DUP2 SLOAD ADD DUP1 DUP3 SSTORE DUP1 SWAP2 POP POP PUSH1 0x1 SWAP1 SUB SWAP1 PUSH1 0x0 MSTORE PUSH1 0x20 PUSH1 0x0 KECCAK256 SWAP1 PUSH1 0x3 MUL ADD PUSH1 0x0 SWAP1 SWAP2 SWAP1 SWAP2 SWAP1 SWAP2 POP PUSH1 0x0 DUP3 ADD MLOAD DUP2 PUSH1 0x0 ADD SWAP1 DUP2 PUSH3 0x11C SWAP2 SWAP1 PUSH3 0x6EE JUMP JUMPDEST POP PUSH1 0x20 DUP3 ADD MLOAD DUP2 PUSH1 0x1 ADD SWAP1 DUP2 PUSH3 0x134 SWAP2 SWAP1 PUSH3 0x6EE JUMP JUMPDEST POP PUSH1 0x40 DUP3 ADD MLOAD DUP2 PUSH1 0x2 ADD SSTORE POP POP DUP1 DUP1 PUSH3 0x14E SWAP1 PUSH3 0x804 JUMP JUMPDEST SWAP2 POP POP PUSH3 0x7A JUMP JUMPDEST POP POP POP PUSH3 0x851 JUMP JUMPDEST PUSH1 0x0 PUSH1 0x40 MLOAD SWAP1 POP SWAP1 JUMP JUMPDEST PUSH1 0x0 DUP1 REVERT JUMPDEST PUSH1 0x0 DUP1 REVERT JUMPDEST PUSH1 0x0 DUP1 REVERT JUMPDEST PUSH1 0x0 PUSH1 0x1F NOT PUSH1 0x1F DUP4 ADD AND SWAP1 POP SWAP2 SWAP1 POP JUMP JUMPDEST PUSH32 0x4E487B7100000000000000000000000000000000000000000000000000000000 PUSH1 0x0 MSTORE PUSH1 0x41 PUSH1 0x4 MSTORE PUSH1 0x24 PUSH1 0x0 REVERT JUMPDEST PUSH3 0x1C4 DUP3 PUSH3 0x179 JUMP JUMPDEST DUP2 ADD DUP2 DUP2 LT PUSH8 0xFFFFFFFFFFFFFFFF DUP3 GT OR ISZERO PUSH3 0x1E6 JUMPI PUSH3 0x1E5 PUSH3 0x18A JUMP JUMPDEST JUMPDEST DUP1 PUSH1 0x40 MSTORE POP POP POP JUMP JUMPDEST PUSH1 0x0 PUSH3 0x1FB PUSH3 0x160 JUMP JUMPDEST SWAP1 POP PUSH3 0x209 DUP3 DUP3 PUSH3 0x1B9 JUMP JUMPDEST SWAP2 SWAP1 POP JUMP JUMPDEST PUSH1 0x0 PUSH8 0xFFFFFFFFFFFFFFFF DUP3 GT ISZERO PUSH3 0x22C JUMPI PUSH3 0x22B PUSH3 0x18A JUMP JUMPDEST JUMPDEST PUSH1 0x20 DUP3 MUL SWAP1 POP PUSH1 0x20 DUP2 ADD SWAP1 POP SWAP2 SWAP1 POP JUMP JUMPDEST PUSH1 0x0 DUP1 REVERT JUMPDEST PUSH1 0x0 DUP1 REVERT JUMPDEST PUSH1 0x0 PUSH8 0xFFFFFFFFFFFFFFFF DUP3 GT ISZERO PUSH3 0x265 JUMPI PUSH3 0x264 PUSH3 0x18A JUMP JUMPDEST JUMPDEST PUSH3 0x270 DUP3 PUSH3 0x179 JUMP JUMPDEST SWAP1 POP PUSH1 0x20 DUP2 ADD SWAP1 POP SWAP2 SWAP1 POP JUMP JUMPDEST PUSH1 0x0 JUMPDEST DUP4 DUP2 LT ISZERO PUSH3 0x29D JUMPI DUP1 DUP3 ADD MLOAD DUP2 DUP5 ADD MSTORE PUSH1 0x20 DUP2 ADD SWAP1 POP PUSH3 0x280 JUMP JUMPDEST PUSH1 0x0 DUP5 DUP5 ADD MSTORE POP POP POP POP JUMP JUMPDEST PUSH1 0x0 PUSH3 0x2C0 PUSH3 0x2BA DUP5 PUSH3 0x247 JUMP JUMPDEST PUSH3 0x1EF JUMP JUMPDEST SWAP1 POP DUP3 DUP2 MSTORE PUSH1 0x20 DUP2 ADD DUP5 DUP5 DUP5 ADD GT ISZERO PUSH3 0x2DF JUMPI PUSH3 0x2DE PUSH3 0x242 JUMP JUMPDEST JUMPDEST PUSH3 0x2EC DUP5 DUP3 DUP6 PUSH3 0x27D JUMP JUMPDEST POP SWAP4 SWAP3 POP POP POP JUMP JUMPDEST PUSH1 0x0 DUP3 PUSH1 0x1F DUP4 ADD SLT PUSH3 0x30C JUMPI PUSH3 0x30B PUSH3 0x174 JUMP JUMPDEST JUMPDEST DUP2 MLOAD PUSH3 0x31E DUP5 DUP3 PUSH1 0x20 DUP7 ADD PUSH3 0x2A9 JUMP JUMPDEST SWAP2 POP POP SWAP3 SWAP2 POP POP JUMP JUMPDEST PUSH1 0x0 PUSH3 0x33E PUSH3 0x338 DUP5 PUSH3 0x20E JUMP JUMPDEST PUSH3 0x1EF JUMP JUMPDEST SWAP1 POP DUP1 DUP4 DUP3 MSTORE PUSH1 0x20 DUP3 ADD SWAP1 POP PUSH1 0x20 DUP5 MUL DUP4 ADD DUP6 DUP2 GT ISZERO PUSH3 0x364 JUMPI PUSH3 0x363 PUSH3 0x23D JUMP JUMPDEST JUMPDEST DUP4 JUMPDEST DUP2 DUP2 LT ISZERO PUSH3 0x3B2 JUMPI DUP1 MLOAD PUSH8 0xFFFFFFFFFFFFFFFF DUP2 GT ISZERO PUSH3 0x38D JUMPI PUSH3 0x38C PUSH3 0x174 JUMP JUMPDEST JUMPDEST DUP1 DUP7 ADD PUSH3 0x39C DUP10 DUP3 PUSH3 0x2F4 JUMP JUMPDEST DUP6 MSTORE PUSH1 0x20 DUP6 ADD SWAP5 POP POP POP PUSH1 0x20 DUP2 ADD SWAP1 POP PUSH3 0x366 JUMP JUMPDEST POP POP POP SWAP4 SWAP3 POP POP POP JUMP JUMPDEST PUSH1 0x0 DUP3 PUSH1 0x1F DUP4 ADD SLT PUSH3 0x3D4 JUMPI PUSH3 0x3D3 PUSH3 0x174 JUMP JUMPDEST JUMPDEST DUP2 MLOAD PUSH3 0x3E6 DUP5 DUP3 PUSH1 0x20 DUP7 ADD PUSH3 0x327 JUMP JUMPDEST SWAP2 POP POP SWAP3 SWAP2 POP POP JUMP JUMPDEST PUSH1 0x0 DUP1 PUSH1 0x40 DUP4 DUP6 SUB SLT ISZERO PUSH3 0x409 JUMPI PUSH3 0x408 PUSH3 0x16A JUMP JUMPDEST JUMPDEST PUSH1 0x0 DUP4 ADD MLOAD PUSH8 0xFFFFFFFFFFFFFFFF DUP2 GT ISZERO PUSH3 0x42A JUMPI PUSH3 0x429 PUSH3 0x16F JUMP JUMPDEST JUMPDEST PUSH3 0x438 DUP6 DUP3 DUP7 ADD PUSH3 0x3BC JUMP JUMPDEST SWAP3 POP POP PUSH1 0x20 DUP4 ADD MLOAD PUSH8 0xFFFFFFFFFFFFFFFF DUP2 GT ISZERO PUSH3 0x45C JUMPI PUSH3 0x45B PUSH3 0x16F JUMP JUMPDEST JUMPDEST PUSH3 0x46A DUP6 DUP3 DUP7 ADD PUSH3 0x3BC JUMP JUMPDEST SWAP2 POP POP SWAP3 POP SWAP3 SWAP1 POP JUMP JUMPDEST PUSH32 0x4E487B7100000000000000000000000000000000000000000000000000000000 PUSH1 0x0 MSTORE PUSH1 0x32 PUSH1 0x4 MSTORE PUSH1 0x24 PUSH1 0x0 REVERT JUMPDEST PUSH1 0x0 DUP2 MLOAD SWAP1 POP SWAP2 SWAP1 POP JUMP JUMPDEST PUSH32 0x4E487B7100000000000000000000000000000000000000000000000000000000 PUSH1 0x0 MSTORE PUSH1 0x22 PUSH1 0x4 MSTORE PUSH1 0x24 PUSH1 0x0 REVERT JUMPDEST PUSH1 0x0 PUSH1 0x2 DUP3 DIV SWAP1 POP PUSH1 0x1 DUP3 AND DUP1 PUSH3 0x4F6 JUMPI PUSH1 0x7F DUP3 AND SWAP2 POP JUMPDEST PUSH1 0x20 DUP3 LT DUP2 SUB PUSH3 0x50C JUMPI PUSH3 0x50B PUSH3 0x4AE JUMP JUMPDEST JUMPDEST POP SWAP2 SWAP1 POP JUMP JUMPDEST PUSH1 0x0 DUP2 SWAP1 POP DUP2 PUSH1 0x0 MSTORE PUSH1 0x20 PUSH1 0x0 KECCAK256 SWAP1 POP SWAP2 SWAP1 POP JUMP JUMPDEST PUSH1 0x0 PUSH1 0x20 PUSH1 0x1F DUP4 ADD DIV SWAP1 POP SWAP2 SWAP1 POP JUMP JUMPDEST PUSH1 0x0 DUP3 DUP3 SHL SWAP1 POP SWAP3 SWAP2 POP POP JUMP JUMPDEST PUSH1 0x0 PUSH1 0x8 DUP4 MUL PUSH3 0x576 PUSH32 0xFFFFFFFFFFFFFFFFFFFFFFFFFFFFFFFFFFFFFFFFFFFFFFFFFFFFFFFFFFFFFFFF DUP3 PUSH3 0x537 JUMP JUMPDEST PUSH3 0x582 DUP7 DUP4 PUSH3 0x537 JUMP JUMPDEST SWAP6 POP DUP1 NOT DUP5 AND SWAP4 POP DUP1 DUP7 AND DUP5 OR SWAP3 POP POP POP SWAP4 SWAP3 POP POP POP JUMP JUMPDEST PUSH1 0x0 DUP2 SWAP1 POP SWAP2 SWAP1 POP JUMP JUMPDEST PUSH1 0x0 DUP2 SWAP1 POP SWAP2 SWAP1 POP JUMP JUMPDEST PUSH1 0x0 PUSH3 0x5CF PUSH3 0x5C9 PUSH3 0x5C3 DUP5 PUSH3 0x59A JUMP JUMPDEST PUSH3 0x5A4 JUMP JUMPDEST PUSH3 0x59A JUMP JUMPDEST SWAP1 POP SWAP2 SWAP1 POP JUMP JUMPDEST PUSH1 0x0 DUP2 SWAP1 POP SWAP2 SWAP1 POP JUMP JUMPDEST PUSH3 0x5EB DUP4 PUSH3 0x5AE JUMP JUMPDEST PUSH3 0x603 PUSH3 0x5FA DUP3 PUSH3 0x5D6 JUMP JUMPDEST DUP5 DUP5 SLOAD PUSH3 0x544 JUMP JUMPDEST DUP3 SSTORE POP POP POP POP JUMP JUMPDEST PUSH1 0x0 SWAP1 JUMP JUMPDEST PUSH3 0x61A PUSH3 0x60B JUMP JUMPDEST PUSH3 0x627 DUP2 DUP5 DUP5 PUSH3 0x5E0 JUMP JUMPDEST POP POP POP JUMP JUMPDEST JUMPDEST DUP2 DUP2 LT ISZERO PUSH3 0x64F JUMPI PUSH3 0x643 PUSH1 0x0 DUP3 PUSH3 0x610 JUMP JUMPDEST PUSH1 0x1 DUP2 ADD SWAP1 POP PUSH3 0x62D JUMP JUMPDEST POP POP JUMP JUMPDEST PUSH1 0x1F DUP3 GT ISZERO PUSH3 0x69E JUMPI PUSH3 0x668 DUP2 PUSH3 0x512 JUMP JUMPDEST PUSH3 0x673 DUP5 PUSH3 0x527 JUMP JUMPDEST DUP2 ADD PUSH1 0x20 DUP6 LT ISZERO PUSH3 0x683 JUMPI DUP2 SWAP1 POP JUMPDEST PUSH3 0x69B PUSH3 0x692 DUP6 PUSH3 0x527 JUMP JUMPDEST DUP4 ADD DUP3 PUSH3 0x62C JUMP JUMPDEST POP POP JUMPDEST POP POP POP JUMP JUMPDEST PUSH1 0x0 DUP3 DUP3 SHR SWAP1 POP SWAP3 SWAP2 POP POP JUMP JUMPDEST PUSH1 0x0 PUSH3 0x6C3 PUSH1 0x0 NOT DUP5 PUSH1 0x8 MUL PUSH3 0x6A3 JUMP JUMPDEST NOT DUP1 DUP4 AND SWAP2 POP POP SWAP3 SWAP2 POP POP JUMP JUMPDEST PUSH1 0x0 PUSH3 0x6DE DUP4 DUP4 PUSH3 0x6B0 JUMP JUMPDEST SWAP2 POP DUP3 PUSH1 0x2 MUL DUP3 OR SWAP1 POP SWAP3 SWAP2 POP POP JUMP JUMPDEST PUSH3 0x6F9 DUP3 PUSH3 0x4A3 JUMP JUMPDEST PUSH8 0xFFFFFFFFFFFFFFFF DUP2 GT ISZERO PUSH3 0x715 JUMPI PUSH3 0x714 PUSH3 0x18A JUMP JUMPDEST JUMPDEST PUSH3 0x721 DUP3 SLOAD PUSH3 0x4DD JUMP JUMPDEST PUSH3 0x72E DUP3 DUP3 DUP6 PUSH3 0x653 JUMP JUMPDEST PUSH1 0x0 PUSH1 0x20 SWAP1 POP PUSH1 0x1F DUP4 GT PUSH1 0x1 DUP2 EQ PUSH3 0x766 JUMPI PUSH1 0x0 DUP5 ISZERO PUSH3 0x751 JUMPI DUP3 DUP8 ADD MLOAD SWAP1 POP JUMPDEST PUSH3 0x75D DUP6 DUP3 PUSH3 0x6D0 JUMP JUMPDEST DUP7 SSTORE POP PUSH3 0x7CD JUMP JUMPDEST PUSH1 0x1F NOT DUP5 AND PUSH3 0x776 DUP7 PUSH3 0x512 JUMP JUMPDEST PUSH1 0x0 JUMPDEST DUP3 DUP2 LT ISZERO PUSH3 0x7A0 JUMPI DUP5 DUP10 ADD MLOAD DUP3 SSTORE PUSH1 0x1 DUP3 ADD SWAP2 POP PUSH1 0x20 DUP6 ADD SWAP5 POP PUSH1 0x20 DUP2 ADD SWAP1 POP PUSH3 0x779 JUMP JUMPDEST DUP7 DUP4 LT ISZERO PUSH3 0x7C0 JUMPI DUP5 DUP10 ADD MLOAD PUSH3 0x7BC PUSH1 0x1F DUP10 AND DUP3 PUSH3 0x6B0 JUMP JUMPDEST DUP4 SSTORE POP JUMPDEST PUSH1 0x1 PUSH1 0x2 DUP9 MUL ADD DUP9 SSTORE POP POP POP JUMPDEST POP POP POP POP POP POP JUMP JUMPDEST PUSH32 0x4E487B7100000000000000000000000000000000000000000000000000000000 PUSH1 0x0 MSTORE PUSH1 0x11 PUSH1 0x4 MSTORE PUSH1 0x24 PUSH1 0x0 REVERT JUMPDEST PUSH1 0x0 PUSH3 0x811 DUP3 PUSH3 0x59A JUMP JUMPDEST SWAP2 POP PUSH32 0xFFFFFFFFFFFFFFFFFFFFFFFFFFFFFFFFFFFFFFFFFFFFFFFFFFFFFFFFFFFFFFFF DUP3 SUB PUSH3 0x846 JUMPI PUSH3 0x845 PUSH3 0x7D5 JUMP JUMPDEST JUMPDEST PUSH1 0x1 DUP3 ADD SWAP1 POP SWAP2 SWAP1 POP JUMP JUMPDEST PUSH2 0xDF3 DUP1 PUSH3 0x861 PUSH1 0x0 CODECOPY PUSH1 0x0 RETURN INVALID PUSH1 0x80 PUSH1 0x40 MSTORE CALLVALUE DUP1 ISZERO PUSH2 0x10 JUMPI PUSH1 0x0 DUP1 REVERT JUMPDEST POP PUSH1 0x4 CALLDATASIZE LT PUSH2 0x88 JUMPI PUSH1 0x0 CALLDATALOAD PUSH1 0xE0 SHR DUP1 PUSH4 0x9E7B8D61 GT PUSH2 0x5B JUMPI DUP1 PUSH4 0x9E7B8D61 EQ PUSH2 0x119 JUMPI DUP1 PUSH4 0xA3EC138D EQ PUSH2 0x135 JUMPI DUP1 PUSH4 0xA5134620 EQ PUSH2 0x166 JUMPI DUP1 PUSH4 0xCE606EE0 EQ PUSH2 0x184 JUMPI PUSH2 0x88 JUMP JUMPDEST DUP1 PUSH4 0x2BFDA515 EQ PUSH2 0x8D JUMPI DUP1 PUSH4 0x32A2C5D0 EQ PUSH2 0xAB JUMPI DUP1 PUSH4 0x3477EE2E EQ PUSH2 0xC9 JUMPI DUP1 PUSH4 0x4ABA5F34 EQ PUSH2 0xFB JUMPI JUMPDEST PUSH1 0x0 DUP1 REVERT JUMPDEST PUSH2 0x95 PUSH2 0x1A2 JUMP JUMPDEST PUSH1 0x40 MLOAD PUSH2 0xA2 SWAP2 SWAP1 PUSH2 0x833 JUMP JUMPDEST PUSH1 0x40 MLOAD DUP1 SWAP2 SUB SWAP1 RETURN JUMPDEST PUSH2 0xB3 PUSH2 0x25E JUMP JUMPDEST PUSH1 0x40 MLOAD PUSH2 0xC0 SWAP2 SWAP1 PUSH2 0x896 JUMP JUMPDEST PUSH1 0x40 MLOAD DUP1 SWAP2 SUB SWAP1 RETURN JUMPDEST PUSH2 0xE3 PUSH1 0x4 DUP1 CALLDATASIZE SUB DUP2 ADD SWAP1 PUSH2 0xDE SWAP2 SWAP1 PUSH2 0x8EC JUMP JUMPDEST PUSH2 0x266 JUMP JUMPDEST PUSH1 0x40 MLOAD PUSH2 0xF2 SWAP4 SWAP3 SWAP2 SWAP1 PUSH2 0x928 JUMP JUMPDEST PUSH1 0x40 MLOAD DUP1 SWAP2 SUB SWAP1 RETURN JUMPDEST PUSH2 0x103 PUSH2 0x3B0 JUMP JUMPDEST PUSH1 0x40 MLOAD PUSH2 0x110 SWAP2 SWAP1 PUSH2 0xADF JUMP JUMPDEST PUSH1 0x40 MLOAD DUP1 SWAP2 SUB SWAP1 RETURN JUMPDEST PUSH2 0x133 PUSH1 0x4 DUP1 CALLDATASIZE SUB DUP2 ADD SWAP1 PUSH2 0x12E SWAP2 SWAP1 PUSH2 0xB2D JUMP JUMPDEST PUSH2 0x53D JUMP JUMPDEST STOP JUMPDEST PUSH2 0x14F PUSH1 0x4 DUP1 CALLDATASIZE SUB DUP2 ADD SWAP1 PUSH2 0x14A SWAP2 SWAP1 PUSH2 0xB2D JUMP JUMPDEST PUSH2 0x6B9 JUMP JUMPDEST PUSH1 0x40 MLOAD PUSH2 0x15D SWAP3 SWAP2 SWAP1 PUSH2 0xB75 JUMP JUMPDEST PUSH1 0x40 MLOAD DUP1 SWAP2 SUB SWAP1 RETURN JUMPDEST PUSH2 0x16E PUSH2 0x6F7 JUMP JUMPDEST PUSH1 0x40 MLOAD PUSH2 0x17B SWAP2 SWAP1 PUSH2 0xB9E JUMP JUMPDEST PUSH1 0x40 MLOAD DUP1 SWAP2 SUB SWAP1 RETURN JUMPDEST PUSH2 0x18C PUSH2 0x77F JUMP JUMPDEST PUSH1 0x40 MLOAD PUSH2 0x199 SWAP2 SWAP1 PUSH2 0x896 JUMP JUMPDEST PUSH1 0x40 MLOAD DUP1 SWAP2 SUB SWAP1 RETURN JUMPDEST PUSH1 0x60 PUSH1 0x2 PUSH2 0x1AE PUSH2 0x6F7 JUMP JUMPDEST DUP2 SLOAD DUP2 LT PUSH2 0x1BF JUMPI PUSH2 0x1BE PUSH2 0xBB9 JUMP JUMPDEST JUMPDEST SWAP1 PUSH1 0x0 MSTORE PUSH1 0x20 PUSH1 0x0 KECCAK256 SWAP1 PUSH1 0x3 MUL ADD PUSH1 0x0 ADD DUP1 SLOAD PUSH2 0x1DB SWAP1 PUSH2 0xC17 JUMP JUMPDEST DUP1 PUSH1 0x1F ADD PUSH1 0x20 DUP1 SWAP2 DIV MUL PUSH1 0x20 ADD PUSH1 0x40 MLOAD SWAP1 DUP2 ADD PUSH1 0x40 MSTORE DUP1 SWAP3 SWAP2 SWAP1 DUP2 DUP2 MSTORE PUSH1 0x20 ADD DUP3 DUP1 SLOAD PUSH2 0x207 SWAP1 PUSH2 0xC17 JUMP JUMPDEST DUP1 ISZERO PUSH2 0x254 JUMPI DUP1 PUSH1 0x1F LT PUSH2 0x229 JUMPI PUSH2 0x100 DUP1 DUP4 SLOAD DIV MUL DUP4 MSTORE SWAP2 PUSH1 0x20 ADD SWAP2 PUSH2 0x254 JUMP JUMPDEST DUP3 ADD SWAP2 SWAP1 PUSH1 0x0 MSTORE PUSH1 0x20 PUSH1 0x0 KECCAK256 SWAP1 JUMPDEST DUP2 SLOAD DUP2 MSTORE SWAP1 PUSH1 0x1 ADD SWAP1 PUSH1 0x20 ADD DUP1 DUP4 GT PUSH2 0x237 JUMPI DUP3 SWAP1 SUB PUSH1 0x1F AND DUP3 ADD SWAP2 JUMPDEST POP POP POP POP POP SWAP1 POP SWAP1 JUMP JUMPDEST PUSH1 0x0 ADDRESS SWAP1 POP SWAP1 JUMP JUMPDEST PUSH1 0x2 DUP2 DUP2 SLOAD DUP2 LT PUSH2 0x276 JUMPI PUSH1 0x0 DUP1 REVERT JUMPDEST SWAP1 PUSH1 0x0 MSTORE PUSH1 0x20 PUSH1 0x0 KECCAK256 SWAP1 PUSH1 0x3 MUL ADD PUSH1 0x0 SWAP2 POP SWAP1 POP DUP1 PUSH1 0x0 ADD DUP1 SLOAD PUSH2 0x299 SWAP1 PUSH2 0xC17 JUMP JUMPDEST DUP1 PUSH1 0x1F ADD PUSH1 0x20 DUP1 SWAP2 DIV MUL PUSH1 0x20 ADD PUSH1 0x40 MLOAD SWAP1 DUP2 ADD PUSH1 0x40 MSTORE DUP1 SWAP3 SWAP2 SWAP1 DUP2 DUP2 MSTORE PUSH1 0x20 ADD DUP3 DUP1 SLOAD PUSH2 0x2C5 SWAP1 PUSH2 0xC17 JUMP JUMPDEST DUP1 ISZERO PUSH2 0x312 JUMPI DUP1 PUSH1 0x1F LT PUSH2 0x2E7 JUMPI PUSH2 0x100 DUP1 DUP4 SLOAD DIV MUL DUP4 MSTORE SWAP2 PUSH1 0x20 ADD SWAP2 PUSH2 0x312 JUMP JUMPDEST DUP3 ADD SWAP2 SWAP1 PUSH1 0x0 MSTORE PUSH1 0x20 PUSH1 0x0 KECCAK256 SWAP1 JUMPDEST DUP2 SLOAD DUP2 MSTORE SWAP1 PUSH1 0x1 ADD SWAP1 PUSH1 0x20 ADD DUP1 DUP4 GT PUSH2 0x2F5 JUMPI DUP3 SWAP1 SUB PUSH1 0x1F AND DUP3 ADD SWAP2 JUMPDEST POP POP POP POP POP SWAP1 DUP1 PUSH1 0x1 ADD DUP1 SLOAD PUSH2 0x327 SWAP1 PUSH2 0xC17 JUMP JUMPDEST DUP1 PUSH1 0x1F ADD PUSH1 0x20 DUP1 SWAP2 DIV MUL PUSH1 0x20 ADD PUSH1 0x40 MLOAD SWAP1 DUP2 ADD PUSH1 0x40 MSTORE DUP1 SWAP3 SWAP2 SWAP1 DUP2 DUP2 MSTORE PUSH1 0x20 ADD DUP3 DUP1 SLOAD PUSH2 0x353 SWAP1 PUSH2 0xC17 JUMP JUMPDEST DUP1 ISZERO PUSH2 0x3A0 JUMPI DUP1 PUSH1 0x1F LT PUSH2 0x375 JUMPI PUSH2 0x100 DUP1 DUP4 SLOAD DIV MUL DUP4 MSTORE SWAP2 PUSH1 0x20 ADD SWAP2 PUSH2 0x3A0 JUMP JUMPDEST DUP3 ADD SWAP2 SWAP1 PUSH1 0x0 MSTORE PUSH1 0x20 PUSH1 0x0 KECCAK256 SWAP1 JUMPDEST DUP2 SLOAD DUP2 MSTORE SWAP1 PUSH1 0x1 ADD SWAP1 PUSH1 0x20 ADD DUP1 DUP4 GT PUSH2 0x383 JUMPI DUP3 SWAP1 SUB PUSH1 0x1F AND DUP3 ADD SWAP2 JUMPDEST POP POP POP POP POP SWAP1 DUP1 PUSH1 0x2 ADD SLOAD SWAP1 POP DUP4 JUMP JUMPDEST PUSH1 0x60 PUSH1 0x2 DUP1 SLOAD DUP1 PUSH1 0x20 MUL PUSH1 0x20 ADD PUSH1 0x40 MLOAD SWAP1 DUP2 ADD PUSH1 0x40 MSTORE DUP1 SWAP3 SWAP2 SWAP1 DUP2 DUP2 MSTORE PUSH1 0x20 ADD PUSH1 0x0 SWAP1 JUMPDEST DUP3 DUP3 LT ISZERO PUSH2 0x534 JUMPI DUP4 DUP3 SWAP1 PUSH1 0x0 MSTORE PUSH1 0x20 PUSH1 0x0 KECCAK256 SWAP1 PUSH1 0x3 MUL ADD PUSH1 0x40 MLOAD DUP1 PUSH1 0x60 ADD PUSH1 0x40 MSTORE SWAP1 DUP2 PUSH1 0x0 DUP3 ADD DUP1 SLOAD PUSH2 0x407 SWAP1 PUSH2 0xC17 JUMP JUMPDEST DUP1 PUSH1 0x1F ADD PUSH1 0x20 DUP1 SWAP2 DIV MUL PUSH1 0x20 ADD PUSH1 0x40 MLOAD SWAP1 DUP2 ADD PUSH1 0x40 MSTORE DUP1 SWAP3 SWAP2 SWAP1 DUP2 DUP2 MSTORE PUSH1 0x20 ADD DUP3 DUP1 SLOAD PUSH2 0x433 SWAP1 PUSH2 0xC17 JUMP JUMPDEST DUP1 ISZERO PUSH2 0x480 JUMPI DUP1 PUSH1 0x1F LT PUSH2 0x455 JUMPI PUSH2 0x100 DUP1 DUP4 SLOAD DIV MUL DUP4 MSTORE SWAP2 PUSH1 0x20 ADD SWAP2 PUSH2 0x480 JUMP JUMPDEST DUP3 ADD SWAP2 SWAP1 PUSH1 0x0 MSTORE PUSH1 0x20 PUSH1 0x0 KECCAK256 SWAP1 JUMPDEST DUP2 SLOAD DUP2 MSTORE SWAP1 PUSH1 0x1 ADD SWAP1 PUSH1 0x20 ADD DUP1 DUP4 GT PUSH2 0x463 JUMPI DUP3 SWAP1 SUB PUSH1 0x1F AND DUP3 ADD SWAP2 JUMPDEST POP POP POP POP POP DUP2 MSTORE PUSH1 0x20 ADD PUSH1 0x1 DUP3 ADD DUP1 SLOAD PUSH2 0x499 SWAP1 PUSH2 0xC17 JUMP JUMPDEST DUP1 PUSH1 0x1F ADD PUSH1 0x20 DUP1 SWAP2 DIV MUL PUSH1 0x20 ADD PUSH1 0x40 MLOAD SWAP1 DUP2 ADD PUSH1 0x40 MSTORE DUP1 SWAP3 SWAP2 SWAP1 DUP2 DUP2 MSTORE PUSH1 0x20 ADD DUP3 DUP1 SLOAD PUSH2 0x4C5 SWAP1 PUSH2 0xC17 JUMP JUMPDEST DUP1 ISZERO PUSH2 0x512 JUMPI DUP1 PUSH1 0x1F LT PUSH2 0x4E7 JUMPI PUSH2 0x100 DUP1 DUP4 SLOAD DIV MUL DUP4 MSTORE SWAP2 PUSH1 0x20 ADD SWAP2 PUSH2 0x512 JUMP JUMPDEST DUP3 ADD SWAP2 SWAP1 PUSH1 0x0 MSTORE PUSH1 0x20 PUSH1 0x0 KECCAK256 SWAP1 JUMPDEST DUP2 SLOAD DUP2 MSTORE SWAP1 PUSH1 0x1 ADD SWAP1 PUSH1 0x20 ADD DUP1 DUP4 GT PUSH2 0x4F5 JUMPI DUP3 SWAP1 SUB PUSH1 0x1F AND DUP3 ADD SWAP2 JUMPDEST POP POP POP POP POP DUP2 MSTORE PUSH1 0x20 ADD PUSH1 0x2 DUP3 ADD SLOAD DUP2 MSTORE POP POP DUP2 MSTORE PUSH1 0x20 ADD SWAP1 PUSH1 0x1 ADD SWAP1 PUSH2 0x3D4 JUMP JUMPDEST POP POP POP POP SWAP1 POP SWAP1 JUMP JUMPDEST PUSH1 0x0 DUP1 SLOAD SWAP1 PUSH2 0x100 EXP SWAP1 DIV PUSH20 0xFFFFFFFFFFFFFFFFFFFFFFFFFFFFFFFFFFFFFFFF AND PUSH20 0xFFFFFFFFFFFFFFFFFFFFFFFFFFFFFFFFFFFFFFFF AND CALLER PUSH20 0xFFFFFFFFFFFFFFFFFFFFFFFFFFFFFFFFFFFFFFFF AND EQ PUSH2 0x5CB JUMPI PUSH1 0x40 MLOAD PUSH32 0x8C379A000000000000000000000000000000000000000000000000000000000 DUP2 MSTORE PUSH1 0x4 ADD PUSH2 0x5C2 SWAP1 PUSH2 0xCBA JUMP JUMPDEST PUSH1 0x40 MLOAD DUP1 SWAP2 SUB SWAP1 REVERT JUMPDEST PUSH1 0x1 PUSH1 0x0 DUP3 PUSH20 0xFFFFFFFFFFFFFFFFFFFFFFFFFFFFFFFFFFFFFFFF AND PUSH20 0xFFFFFFFFFFFFFFFFFFFFFFFFFFFFFFFFFFFFFFFF AND DUP2 MSTORE PUSH1 0x20 ADD SWAP1 DUP2 MSTORE PUSH1 0x20 ADD PUSH1 0x0 KECCAK256 PUSH1 0x0 ADD PUSH1 0x1 SWAP1 SLOAD SWAP1 PUSH2 0x100 EXP SWAP1 DIV PUSH1 0xFF AND ISZERO PUSH2 0x65B JUMPI PUSH1 0x40 MLOAD PUSH32 0x8C379A000000000000000000000000000000000000000000000000000000000 DUP2 MSTORE PUSH1 0x4 ADD PUSH2 0x652 SWAP1 PUSH2 0xD26 JUMP JUMPDEST PUSH1 0x40 MLOAD DUP1 SWAP2 SUB SWAP1 REVERT JUMPDEST PUSH1 0x0 PUSH1 0x1 PUSH1 0x0 DUP4 PUSH20 0xFFFFFFFFFFFFFFFFFFFFFFFFFFFFFFFFFFFFFFFF AND PUSH20 0xFFFFFFFFFFFFFFFFFFFFFFFFFFFFFFFFFFFFFFFF AND DUP2 MSTORE PUSH1 0x20 ADD SWAP1 DUP2 MSTORE PUSH1 0x20 ADD PUSH1 0x0 KECCAK256 PUSH1 0x0 ADD PUSH1 0x0 PUSH2 0x100 EXP DUP2 SLOAD DUP2 PUSH1 0xFF MUL NOT AND SWAP1 DUP4 ISZERO ISZERO MUL OR SWAP1 SSTORE POP POP JUMP JUMPDEST PUSH1 0x1 PUSH1 0x20 MSTORE DUP1 PUSH1 0x0 MSTORE PUSH1 0x40 PUSH1 0x0 KECCAK256 PUSH1 0x0 SWAP2 POP SWAP1 POP DUP1 PUSH1 0x0 ADD PUSH1 0x0 SWAP1 SLOAD SWAP1 PUSH2 0x100 EXP SWAP1 DIV PUSH1 0xFF AND SWAP1 DUP1 PUSH1 0x0 ADD PUSH1 0x1 SWAP1 SLOAD SWAP1 PUSH2 0x100 EXP SWAP1 DIV PUSH1 0xFF AND SWAP1 POP DUP3 JUMP JUMPDEST PUSH1 0x0 DUP1 PUSH1 0x0 SWAP1 POP PUSH1 0x0 JUMPDEST PUSH1 0x2 DUP1 SLOAD SWAP1 POP DUP2 LT ISZERO PUSH2 0x77A JUMPI DUP2 PUSH1 0x2 DUP3 DUP2 SLOAD DUP2 LT PUSH2 0x723 JUMPI PUSH2 0x722 PUSH2 0xBB9 JUMP JUMPDEST JUMPDEST SWAP1 PUSH1 0x0 MSTORE PUSH1 0x20 PUSH1 0x0 KECCAK256 SWAP1 PUSH1 0x3 MUL ADD PUSH1 0x2 ADD SLOAD GT ISZERO PUSH2 0x767 JUMPI PUSH1 0x2 DUP2 DUP2 SLOAD DUP2 LT PUSH2 0x74F JUMPI PUSH2 0x74E PUSH2 0xBB9 JUMP JUMPDEST JUMPDEST SWAP1 PUSH1 0x0 MSTORE PUSH1 0x20 PUSH1 0x0 KECCAK256 SWAP1 PUSH1 0x3 MUL ADD PUSH1 0x2 ADD SLOAD SWAP2 POP DUP1 SWAP3 POP JUMPDEST DUP1 DUP1 PUSH2 0x772 SWAP1 PUSH2 0xD75 JUMP JUMPDEST SWAP2 POP POP PUSH2 0x701 JUMP JUMPDEST POP POP SWAP1 JUMP JUMPDEST PUSH1 0x0 DUP1 SLOAD SWAP1 PUSH2 0x100 EXP SWAP1 DIV PUSH20 0xFFFFFFFFFFFFFFFFFFFFFFFFFFFFFFFFFFFFFFFF AND DUP2 JUMP JUMPDEST PUSH1 0x0 DUP2 MLOAD SWAP1 POP SWAP2 SWAP1 POP JUMP JUMPDEST PUSH1 0x0 DUP3 DUP3 MSTORE PUSH1 0x20 DUP3 ADD SWAP1 POP SWAP3 SWAP2 POP POP JUMP JUMPDEST PUSH1 0x0 JUMPDEST DUP4 DUP2 LT ISZERO PUSH2 0x7DD JUMPI DUP1 DUP3 ADD MLOAD DUP2 DUP5 ADD MSTORE PUSH1 0x20 DUP2 ADD SWAP1 POP PUSH2 0x7C2 JUMP JUMPDEST PUSH1 0x0 DUP5 DUP5 ADD MSTORE POP POP POP POP JUMP JUMPDEST PUSH1 0x0 PUSH1 0x1F NOT PUSH1 0x1F DUP4 ADD AND SWAP1 POP SWAP2 SWAP1 POP JUMP JUMPDEST PUSH1 0x0 PUSH2 0x805 DUP3 PUSH2 0x7A3 JUMP JUMPDEST PUSH2 0x80F DUP2 DUP6 PUSH2 0x7AE JUMP JUMPDEST SWAP4 POP PUSH2 0x81F DUP2 DUP6 PUSH1 0x20 DUP7 ADD PUSH2 0x7BF JUMP JUMPDEST PUSH2 0x828 DUP2 PUSH2 0x7E9 JUMP JUMPDEST DUP5 ADD SWAP2 POP POP SWAP3 SWAP2 POP POP JUMP JUMPDEST PUSH1 0x0 PUSH1 0x20 DUP3 ADD SWAP1 POP DUP2 DUP2 SUB PUSH1 0x0 DUP4 ADD MSTORE PUSH2 0x84D DUP2 DUP5 PUSH2 0x7FA JUMP JUMPDEST SWAP1 POP SWAP3 SWAP2 POP POP JUMP JUMPDEST PUSH1 0x0 PUSH20 0xFFFFFFFFFFFFFFFFFFFFFFFFFFFFFFFFFFFFFFFF DUP3 AND SWAP1 POP SWAP2 SWAP1 POP JUMP JUMPDEST PUSH1 0x0 PUSH2 0x880 DUP3 PUSH2 0x855 JUMP JUMPDEST SWAP1 POP SWAP2 SWAP1 POP JUMP JUMPDEST PUSH2 0x890 DUP2 PUSH2 0x875 JUMP JUMPDEST DUP3 MSTORE POP POP JUMP JUMPDEST PUSH1 0x0 PUSH1 0x20 DUP3 ADD SWAP1 POP PUSH2 0x8AB PUSH1 0x0 DUP4 ADD DUP5 PUSH2 0x887 JUMP JUMPDEST SWAP3 SWAP2 POP POP JUMP JUMPDEST PUSH1 0x0 DUP1 REVERT JUMPDEST PUSH1 0x0 DUP2 SWAP1 POP SWAP2 SWAP1 POP JUMP JUMPDEST PUSH2 0x8C9 DUP2 PUSH2 0x8B6 JUMP JUMPDEST DUP2 EQ PUSH2 0x8D4 JUMPI PUSH1 0x0 DUP1 REVERT JUMPDEST POP JUMP JUMPDEST PUSH1 0x0 DUP2 CALLDATALOAD SWAP1 POP PUSH2 0x8E6 DUP2 PUSH2 0x8C0 JUMP JUMPDEST SWAP3 SWAP2 POP POP JUMP JUMPDEST PUSH1 0x0 PUSH1 0x20 DUP3 DUP5 SUB SLT ISZERO PUSH2 0x902 JUMPI PUSH2 0x901 PUSH2 0x8B1 JUMP JUMPDEST JUMPDEST PUSH1 0x0 PUSH2 0x910 DUP5 DUP3 DUP6 ADD PUSH2 0x8D7 JUMP JUMPDEST SWAP2 POP POP SWAP3 SWAP2 POP POP JUMP JUMPDEST PUSH2 0x922 DUP2 PUSH2 0x8B6 JUMP JUMPDEST DUP3 MSTORE POP POP JUMP JUMPDEST PUSH1 0x0 PUSH1 0x60 DUP3 ADD SWAP1 POP DUP2 DUP2 SUB PUSH1 0x0 DUP4 ADD MSTORE PUSH2 0x942 DUP2 DUP7 PUSH2 0x7FA JUMP JUMPDEST SWAP1 POP DUP2 DUP2 SUB PUSH1 0x20 DUP4 ADD MSTORE PUSH2 0x956 DUP2 DUP6 PUSH2 0x7FA JUMP JUMPDEST SWAP1 POP PUSH2 0x965 PUSH1 0x40 DUP4 ADD DUP5 PUSH2 0x919 JUMP JUMPDEST SWAP5 SWAP4 POP POP POP POP JUMP JUMPDEST PUSH1 0x0 DUP2 MLOAD SWAP1 POP SWAP2 SWAP1 POP JUMP JUMPDEST PUSH1 0x0 DUP3 DUP3 MSTORE PUSH1 0x20 DUP3 ADD SWAP1 POP SWAP3 SWAP2 POP POP JUMP JUMPDEST PUSH1 0x0 DUP2 SWAP1 POP PUSH1 0x20 DUP3 ADD SWAP1 POP SWAP2 SWAP1 POP JUMP JUMPDEST PUSH1 0x0 DUP3 DUP3 MSTORE PUSH1 0x20 DUP3 ADD SWAP1 POP SWAP3 SWAP2 POP POP JUMP JUMPDEST PUSH1 0x0 PUSH2 0x9B5 DUP3 PUSH2 0x7A3 JUMP JUMPDEST PUSH2 0x9BF DUP2 DUP6 PUSH2 0x999 JUMP JUMPDEST SWAP4 POP PUSH2 0x9CF DUP2 DUP6 PUSH1 0x20 DUP7 ADD PUSH2 0x7BF JUMP JUMPDEST PUSH2 0x9D8 DUP2 PUSH2 0x7E9 JUMP JUMPDEST DUP5 ADD SWAP2 POP POP SWAP3 SWAP2 POP POP JUMP JUMPDEST PUSH2 0x9EC DUP2 PUSH2 0x8B6 JUMP JUMPDEST DUP3 MSTORE POP POP JUMP JUMPDEST PUSH1 0x0 PUSH1 0x60 DUP4 ADD PUSH1 0x0 DUP4 ADD MLOAD DUP5 DUP3 SUB PUSH1 0x0 DUP7 ADD MSTORE PUSH2 0xA0F DUP3 DUP3 PUSH2 0x9AA JUMP JUMPDEST SWAP2 POP POP PUSH1 0x20 DUP4 ADD MLOAD DUP5 DUP3 SUB PUSH1 0x20 DUP7 ADD MSTORE PUSH2 0xA29 DUP3 DUP3 PUSH2 0x9AA JUMP JUMPDEST SWAP2 POP POP PUSH1 0x40 DUP4 ADD MLOAD PUSH2 0xA3E PUSH1 0x40 DUP7 ADD DUP3 PUSH2 0x9E3 JUMP JUMPDEST POP DUP1 SWAP2 POP POP SWAP3 SWAP2 POP POP JUMP JUMPDEST PUSH1 0x0 PUSH2 0xA55 DUP4 DUP4 PUSH2 0x9F2 JUMP JUMPDEST SWAP1 POP SWAP3 SWAP2 POP POP JUMP JUMPDEST PUSH1 0x0 PUSH1 0x20 DUP3 ADD SWAP1 POP SWAP2 SWAP1 POP JUMP JUMPDEST PUSH1 0x0 PUSH2 0xA75 DUP3 PUSH2 0x96D JUMP JUMPDEST PUSH2 0xA7F DUP2 DUP6 PUSH2 0x978 JUMP JUMPDEST SWAP4 POP DUP4 PUSH1 0x20 DUP3 MUL DUP6 ADD PUSH2 0xA91 DUP6 PUSH2 0x989 JUMP JUMPDEST DUP1 PUSH1 0x0 JUMPDEST DUP6 DUP2 LT ISZERO PUSH2 0xACD JUMPI DUP5 DUP5 SUB DUP10 MSTORE DUP2 MLOAD PUSH2 0xAAE DUP6 DUP3 PUSH2 0xA49 JUMP JUMPDEST SWAP5 POP PUSH2 0xAB9 DUP4 PUSH2 0xA5D JUMP JUMPDEST SWAP3 POP PUSH1 0x20 DUP11 ADD SWAP10 POP POP PUSH1 0x1 DUP2 ADD SWAP1 POP PUSH2 0xA95 JUMP JUMPDEST POP DUP3 SWAP8 POP DUP8 SWAP6 POP POP POP POP POP POP SWAP3 SWAP2 POP POP JUMP JUMPDEST PUSH1 0x0 PUSH1 0x20 DUP3 ADD SWAP1 POP DUP2 DUP2 SUB PUSH1 0x0 DUP4 ADD MSTORE PUSH2 0xAF9 DUP2 DUP5 PUSH2 0xA6A JUMP JUMPDEST SWAP1 POP SWAP3 SWAP2 POP POP JUMP JUMPDEST PUSH2 0xB0A DUP2 PUSH2 0x875 JUMP JUMPDEST DUP2 EQ PUSH2 0xB15 JUMPI PUSH1 0x0 DUP1 REVERT JUMPDEST POP JUMP JUMPDEST PUSH1 0x0 DUP2 CALLDATALOAD SWAP1 POP PUSH2 0xB27 DUP2 PUSH2 0xB01 JUMP JUMPDEST SWAP3 SWAP2 POP POP JUMP JUMPDEST PUSH1 0x0 PUSH1 0x20 DUP3 DUP5 SUB SLT ISZERO PUSH2 0xB43 JUMPI PUSH2 0xB42 PUSH2 0x8B1 JUMP JUMPDEST JUMPDEST PUSH1 0x0 PUSH2 0xB51 DUP5 DUP3 DUP6 ADD PUSH2 0xB18 JUMP JUMPDEST SWAP2 POP POP SWAP3 SWAP2 POP POP JUMP JUMPDEST PUSH1 0x0 DUP2 ISZERO ISZERO SWAP1 POP SWAP2 SWAP1 POP JUMP JUMPDEST PUSH2 0xB6F DUP2 PUSH2 0xB5A JUMP JUMPDEST DUP3 MSTORE POP POP JUMP JUMPDEST PUSH1 0x0 PUSH1 0x40 DUP3 ADD SWAP1 POP PUSH2 0xB8A PUSH1 0x0 DUP4 ADD DUP6 PUSH2 0xB66 JUMP JUMPDEST PUSH2 0xB97 PUSH1 0x20 DUP4 ADD DUP5 PUSH2 0xB66 JUMP JUMPDEST SWAP4 SWAP3 POP POP POP JUMP JUMPDEST PUSH1 0x0 PUSH1 0x20 DUP3 ADD SWAP1 POP PUSH2 0xBB3 PUSH1 0x0 DUP4 ADD DUP5 PUSH2 0x919 JUMP JUMPDEST SWAP3 SWAP2 POP POP JUMP JUMPDEST PUSH32 0x4E487B7100000000000000000000000000000000000000000000000000000000 PUSH1 0x0 MSTORE PUSH1 0x32 PUSH1 0x4 MSTORE PUSH1 0x24 PUSH1 0x0 REVERT JUMPDEST PUSH32 0x4E487B7100000000000000000000000000000000000000000000000000000000 PUSH1 0x0 MSTORE PUSH1 0x22 PUSH1 0x4 MSTORE PUSH1 0x24 PUSH1 0x0 REVERT JUMPDEST PUSH1 0x0 PUSH1 0x2 DUP3 DIV SWAP1 POP PUSH1 0x1 DUP3 AND DUP1 PUSH2 0xC2F JUMPI PUSH1 0x7F DUP3 AND SWAP2 POP JUMPDEST PUSH1 0x20 DUP3 LT DUP2 SUB PUSH2 0xC42 JUMPI PUSH2 0xC41 PUSH2 0xBE8 JUMP JUMPDEST JUMPDEST POP SWAP2 SWAP1 POP JUMP JUMPDEST PUSH32 0x4F6E6C792074686520636F6E7472616374206F776E65722063616E2067697665 PUSH1 0x0 DUP3 ADD MSTORE PUSH32 0x20726967687420746F20766F74652E0000000000000000000000000000000000 PUSH1 0x20 DUP3 ADD MSTORE POP JUMP JUMPDEST PUSH1 0x0 PUSH2 0xCA4 PUSH1 0x2F DUP4 PUSH2 0x7AE JUMP JUMPDEST SWAP2 POP PUSH2 0xCAF DUP3 PUSH2 0xC48 JUMP JUMPDEST PUSH1 0x40 DUP3 ADD SWAP1 POP SWAP2 SWAP1 POP JUMP JUMPDEST PUSH1 0x0 PUSH1 0x20 DUP3 ADD SWAP1 POP DUP2 DUP2 SUB PUSH1 0x0 DUP4 ADD MSTORE PUSH2 0xCD3 DUP2 PUSH2 0xC97 JUMP JUMPDEST SWAP1 POP SWAP2 SWAP1 POP JUMP JUMPDEST PUSH32 0x54686520766F74657220616C726561647920766F7465642E0000000000000000 PUSH1 0x0 DUP3 ADD MSTORE POP JUMP JUMPDEST PUSH1 0x0 PUSH2 0xD10 PUSH1 0x18 DUP4 PUSH2 0x7AE JUMP JUMPDEST SWAP2 POP PUSH2 0xD1B DUP3 PUSH2 0xCDA JUMP JUMPDEST PUSH1 0x20 DUP3 ADD SWAP1 POP SWAP2 SWAP1 POP JUMP JUMPDEST PUSH1 0x0 PUSH1 0x20 DUP3 ADD SWAP1 POP DUP2 DUP2 SUB PUSH1 0x0 DUP4 ADD MSTORE PUSH2 0xD3F DUP2 PUSH2 0xD03 JUMP JUMPDEST SWAP1 POP SWAP2 SWAP1 POP JUMP JUMPDEST PUSH32 0x4E487B7100000000000000000000000000000000000000000000000000000000 PUSH1 0x0 MSTORE PUSH1 0x11 PUSH1 0x4 MSTORE PUSH1 0x24 PUSH1 0x0 REVERT JUMPDEST PUSH1 0x0 PUSH2 0xD80 DUP3 PUSH2 0x8B6 JUMP JUMPDEST SWAP2 POP PUSH32 0xFFFFFFFFFFFFFFFFFFFFFFFFFFFFFFFFFFFFFFFFFFFFFFFFFFFFFFFFFFFFFFFF DUP3 SUB PUSH2 0xDB2 JUMPI PUSH2 0xDB1 PUSH2 0xD46 JUMP JUMPDEST JUMPDEST PUSH1 0x1 DUP3 ADD SWAP1 POP SWAP2 SWAP1 POP JUMP INVALID LOG2 PUSH5 0x6970667358 0x22 SLT KECCAK256 LOG4 REVERT 0xE 0x2F 0xA8 0xC1 0x5D CALLER ISZERO EQ 0xC8 DUP4 MUL 0x29 LOG0 LOG2 0xC9 SWAP4 INVALID CODESIZE 0xC0 BASEFEE 0xC2 ADDRESS DUP16 SIGNEXTEND SHR 0xB8 CREATE 0xE9 DUP3 0xC6 PUSH5 0x736F6C6343 STOP ADDMOD GT STOP CALLER "
				},
				"gasEstimates": {
					"creation": {
						"codeDepositCost": "714200",
						"executionCost": "infinite",
						"totalCost": "infinite"
					},
					"external": {
						"candidates(uint256)": "infinite",
						"contractOwner()": "2577",
						"getCandidatesList()": "infinite",
						"getContractAddress()": "408",
						"getWinnerName()": "infinite",
						"getWinningProposal()": "infinite",
						"giveRightToVote(address)": "29287",
						"voters(address)": "infinite"
					}
				},
				"methodIdentifiers": {
					"candidates(uint256)": "3477ee2e",
					"contractOwner()": "ce606ee0",
					"getCandidatesList()": "4aba5f34",
					"getContractAddress()": "32a2c5d0",
					"getWinnerName()": "2bfda515",
					"getWinningProposal()": "a5134620",
					"giveRightToVote(address)": "9e7b8d61",
					"voters(address)": "a3ec138d"
				}
			},
			"storageLayout": {
				"storage": [
					{
						"astId": 19,
						"contract": "contracts/Ballot/MyBallot.sol:MyBallot",
						"label": "contractOwner",
						"offset": 0,
						"slot": "0",
						"type": "t_address"
					},
					{
						"astId": 24,
						"contract": "contracts/Ballot/MyBallot.sol:MyBallot",
						"label": "voters",
						"offset": 0,
						"slot": "1",
						"type": "t_mapping(t_address,t_struct(Voter)10_storage)"
					},
					{
						"astId": 28,
						"contract": "contracts/Ballot/MyBallot.sol:MyBallot",
						"label": "candidates",
						"offset": 0,
						"slot": "2",
						"type": "t_array(t_struct(Candidate)17_storage)dyn_storage"
					}
				],
				"types": {
					"t_address": {
						"encoding": "inplace",
						"label": "address",
						"numberOfBytes": "20"
					},
					"t_array(t_struct(Candidate)17_storage)dyn_storage": {
						"base": "t_struct(Candidate)17_storage",
						"encoding": "dynamic_array",
						"label": "struct MyBallot.Candidate[]",
						"numberOfBytes": "32"
					},
					"t_bool": {
						"encoding": "inplace",
						"label": "bool",
						"numberOfBytes": "1"
					},
					"t_mapping(t_address,t_struct(Voter)10_storage)": {
						"encoding": "mapping",
						"key": "t_address",
						"label": "mapping(address => struct MyBallot.Voter)",
						"numberOfBytes": "32",
						"value": "t_struct(Voter)10_storage"
					},
					"t_string_storage": {
						"encoding": "bytes",
						"label": "string",
						"numberOfBytes": "32"
					},
					"t_struct(Candidate)17_storage": {
						"encoding": "inplace",
						"label": "struct MyBallot.Candidate",
						"members": [
							{
								"astId": 12,
								"contract": "contracts/Ballot/MyBallot.sol:MyBallot",
								"label": "name",
								"offset": 0,
								"slot": "0",
								"type": "t_string_storage"
							},
							{
								"astId": 14,
								"contract": "contracts/Ballot/MyBallot.sol:MyBallot",
								"label": "party",
								"offset": 0,
								"slot": "1",
								"type": "t_string_storage"
							},
							{
								"astId": 16,
								"contract": "contracts/Ballot/MyBallot.sol:MyBallot",
								"label": "votesCount",
								"offset": 0,
								"slot": "2",
								"type": "t_uint256"
							}
						],
						"numberOfBytes": "96"
					},
					"t_struct(Voter)10_storage": {
						"encoding": "inplace",
						"label": "struct MyBallot.Voter",
						"members": [
							{
								"astId": 7,
								"contract": "contracts/Ballot/MyBallot.sol:MyBallot",
								"label": "canVote",
								"offset": 0,
								"slot": "0",
								"type": "t_bool"
							},
							{
								"astId": 9,
								"contract": "contracts/Ballot/MyBallot.sol:MyBallot",
								"label": "hasVoted",
								"offset": 1,
								"slot": "0",
								"type": "t_bool"
							}
						],
						"numberOfBytes": "32"
					},
					"t_uint256": {
						"encoding": "inplace",
						"label": "uint256",
						"numberOfBytes": "32"
					}
				}
			},
			"userdoc": {
				"kind": "user",
				"methods": {},
				"version": 1
			}
		}
	}
}