{
	"contracts/Ballot/MyBallot.sol": {
		"MyBallot": {
			"abi": [
				{
					"inputs": [
						{
							"internalType": "string[]",
							"name": "proposalCandidatesName",
							"type": "string[]"
						},
						{
							"internalType": "string[]",
							"name": "proposalCandidatesParty",
							"type": "string[]"
						}
					],
					"stateMutability": "nonpayable",
					"type": "constructor"
				},
				{
					"inputs": [
						{
							"internalType": "uint256",
							"name": "",
							"type": "uint256"
						}
					],
					"name": "candidates",
					"outputs": [
						{
							"internalType": "string",
							"name": "name",
							"type": "string"
						},
						{
							"internalType": "string",
							"name": "party",
							"type": "string"
						},
						{
							"internalType": "uint256",
							"name": "votesCount",
							"type": "uint256"
						}
					],
					"stateMutability": "view",
					"type": "function"
				},
				{
					"inputs": [],
					"name": "contractOwner",
					"outputs": [
						{
							"internalType": "address",
							"name": "",
							"type": "address"
						}
					],
					"stateMutability": "view",
					"type": "function"
				},
				{
					"inputs": [],
					"name": "getCandidatesList",
					"outputs": [
						{
							"components": [
								{
									"internalType": "string",
									"name": "name",
									"type": "string"
								},
								{
									"internalType": "string",
									"name": "party",
									"type": "string"
								},
								{
									"internalType": "uint256",
									"name": "votesCount",
									"type": "uint256"
								}
							],
							"internalType": "struct MyBallot.Candidate[]",
							"name": "",
							"type": "tuple[]"
						}
					],
					"stateMutability": "view",
					"type": "function"
				},
				{
					"inputs": [],
					"name": "getContractAddress",
					"outputs": [
						{
							"internalType": "address",
							"name": "",
							"type": "address"
						}
					],
					"stateMutability": "view",
					"type": "function"
				},
				{
					"inputs": [
						{
							"internalType": "address",
							"name": "voter",
							"type": "address"
						}
					],
					"name": "giveRightToVote",
					"outputs": [],
					"stateMutability": "nonpayable",
					"type": "function"
				},
				{
					"inputs": [
						{
							"internalType": "address",
							"name": "",
							"type": "address"
						}
					],
					"name": "voters",
					"outputs": [
						{
							"internalType": "bool",
							"name": "canVote",
							"type": "bool"
						},
						{
							"internalType": "bool",
							"name": "hasVoted",
							"type": "bool"
						}
					],
					"stateMutability": "view",
					"type": "function"
				}
			],
			"devdoc": {
				"kind": "dev",
				"methods": {},
				"version": 1
			},
			"evm": {
				"assembly": "    /* \"contracts/Ballot/MyBallot.sol\":130:2710  contract MyBallot {... */\n  mstore(0x40, 0x80)\n    /* \"contracts/Ballot/MyBallot.sol\":499:940  constructor(string[] memory proposalCandidatesName, string[] memory proposalCandidatesParty) {... */\n  callvalue\n  dup1\n  iszero\n  tag_1\n  jumpi\n  0x00\n  dup1\n  revert\ntag_1:\n  pop\n  mload(0x40)\n  sub(codesize, bytecodeSize)\n  dup1\n  bytecodeSize\n  dup4\n  codecopy\n  dup2\n  dup2\n  add\n  0x40\n  mstore\n  dup2\n  add\n  swap1\n  tag_2\n  swap2\n  swap1\n  tag_3\n  jump\t// in\ntag_2:\n    /* \"contracts/Ballot/MyBallot.sol\":629:639  msg.sender */\n  caller\n    /* \"contracts/Ballot/MyBallot.sol\":613:626  contractOwner */\n  0x00\n  dup1\n    /* \"contracts/Ballot/MyBallot.sol\":613:639  contractOwner = msg.sender */\n  0x0100\n  exp\n  dup2\n  sload\n  dup2\n  0xffffffffffffffffffffffffffffffffffffffff\n  mul\n  not\n  and\n  swap1\n  dup4\n  0xffffffffffffffffffffffffffffffffffffffff\n  and\n  mul\n  or\n  swap1\n  sstore\n  pop\n    /* \"contracts/Ballot/MyBallot.sol\":657:667  uint index */\n  0x00\n    /* \"contracts/Ballot/MyBallot.sol\":652:933  for (uint index = 0; index < proposalCandidatesName.length; index++) {... */\ntag_6:\n    /* \"contracts/Ballot/MyBallot.sol\":681:703  proposalCandidatesName */\n  dup3\n    /* \"contracts/Ballot/MyBallot.sol\":681:710  proposalCandidatesName.length */\n  mload\n    /* \"contracts/Ballot/MyBallot.sol\":673:678  index */\n  dup2\n    /* \"contracts/Ballot/MyBallot.sol\":673:710  index < proposalCandidatesName.length */\n  lt\n    /* \"contracts/Ballot/MyBallot.sol\":652:933  for (uint index = 0; index < proposalCandidatesName.length; index++) {... */\n  iszero\n  tag_7\n  jumpi\n    /* \"contracts/Ballot/MyBallot.sol\":736:746  candidates */\n  0x02\n    /* \"contracts/Ballot/MyBallot.sol\":752:920  Candidate({... */\n  mload(0x40)\n  dup1\n  0x60\n  add\n  0x40\n  mstore\n  dup1\n    /* \"contracts/Ballot/MyBallot.sol\":787:809  proposalCandidatesName */\n  dup6\n    /* \"contracts/Ballot/MyBallot.sol\":810:815  index */\n  dup5\n    /* \"contracts/Ballot/MyBallot.sol\":787:816  proposalCandidatesName[index] */\n  dup2\n  mload\n  dup2\n  lt\n  tag_9\n  jumpi\n  tag_10\n  tag_11\n  jump\t// in\ntag_10:\ntag_9:\n  0x20\n  mul\n  0x20\n  add\n  add\n  mload\n    /* \"contracts/Ballot/MyBallot.sol\":752:920  Candidate({... */\n  dup2\n  mstore\n  0x20\n  add\n    /* \"contracts/Ballot/MyBallot.sol\":842:865  proposalCandidatesParty */\n  dup5\n    /* \"contracts/Ballot/MyBallot.sol\":866:871  index */\n  dup5\n    /* \"contracts/Ballot/MyBallot.sol\":842:872  proposalCandidatesParty[index] */\n  dup2\n  mload\n  dup2\n  lt\n  tag_12\n  jumpi\n  tag_13\n  tag_11\n  jump\t// in\ntag_13:\ntag_12:\n  0x20\n  mul\n  0x20\n  add\n  add\n  mload\n    /* \"contracts/Ballot/MyBallot.sol\":752:920  Candidate({... */\n  dup2\n  mstore\n  0x20\n  add\n    /* \"contracts/Ballot/MyBallot.sol\":903:904  0 */\n  0x00\n    /* \"contracts/Ballot/MyBallot.sol\":752:920  Candidate({... */\n  dup2\n  mstore\n  pop\n    /* \"contracts/Ballot/MyBallot.sol\":736:921  candidates.push(Candidate({... */\n  swap1\n  dup1\n  0x01\n  dup2\n  sload\n  add\n  dup1\n  dup3\n  sstore\n  dup1\n  swap2\n  pop\n  pop\n  0x01\n  swap1\n  sub\n  swap1\n  0x00\n  mstore\n  keccak256(0x00, 0x20)\n  swap1\n  0x03\n  mul\n  add\n  0x00\n  swap1\n  swap2\n  swap1\n  swap2\n  swap1\n  swap2\n  pop\n  0x00\n  dup3\n  add\n  mload\n  dup2\n  0x00\n  add\n  swap1\n  dup2\n  tag_15\n  swap2\n  swap1\n  tag_16\n  jump\t// in\ntag_15:\n  pop\n  0x20\n  dup3\n  add\n  mload\n  dup2\n  0x01\n  add\n  swap1\n  dup2\n  tag_17\n  swap2\n  swap1\n  tag_16\n  jump\t// in\ntag_17:\n  pop\n  0x40\n  dup3\n  add\n  mload\n  dup2\n  0x02\n  add\n  sstore\n  pop\n  pop\n    /* \"contracts/Ballot/MyBallot.sol\":712:719  index++ */\n  dup1\n  dup1\n  tag_18\n  swap1\n  tag_19\n  jump\t// in\ntag_18:\n  swap2\n  pop\n  pop\n    /* \"contracts/Ballot/MyBallot.sol\":652:933  for (uint index = 0; index < proposalCandidatesName.length; index++) {... */\n  jump(tag_6)\ntag_7:\n  pop\n    /* \"contracts/Ballot/MyBallot.sol\":499:940  constructor(string[] memory proposalCandidatesName, string[] memory proposalCandidatesParty) {... */\n  pop\n  pop\n    /* \"contracts/Ballot/MyBallot.sol\":130:2710  contract MyBallot {... */\n  jump(tag_20)\n    /* \"#utility.yul\":7:82   */\ntag_21:\n    /* \"#utility.yul\":40:46   */\n  0x00\n    /* \"#utility.yul\":73:75   */\n  0x40\n    /* \"#utility.yul\":67:76   */\n  mload\n    /* \"#utility.yul\":57:76   */\n  swap1\n  pop\n    /* \"#utility.yul\":7:82   */\n  swap1\n  jump\t// out\n    /* \"#utility.yul\":88:205   */\ntag_22:\n    /* \"#utility.yul\":197:198   */\n  0x00\n    /* \"#utility.yul\":194:195   */\n  dup1\n    /* \"#utility.yul\":187:199   */\n  revert\n    /* \"#utility.yul\":211:328   */\ntag_23:\n    /* \"#utility.yul\":320:321   */\n  0x00\n    /* \"#utility.yul\":317:318   */\n  dup1\n    /* \"#utility.yul\":310:322   */\n  revert\n    /* \"#utility.yul\":334:451   */\ntag_24:\n    /* \"#utility.yul\":443:444   */\n  0x00\n    /* \"#utility.yul\":440:441   */\n  dup1\n    /* \"#utility.yul\":433:445   */\n  revert\n    /* \"#utility.yul\":457:559   */\ntag_25:\n    /* \"#utility.yul\":498:504   */\n  0x00\n    /* \"#utility.yul\":549:551   */\n  0x1f\n    /* \"#utility.yul\":545:552   */\n  not\n    /* \"#utility.yul\":540:542   */\n  0x1f\n    /* \"#utility.yul\":533:538   */\n  dup4\n    /* \"#utility.yul\":529:543   */\n  add\n    /* \"#utility.yul\":525:553   */\n  and\n    /* \"#utility.yul\":515:553   */\n  swap1\n  pop\n    /* \"#utility.yul\":457:559   */\n  swap2\n  swap1\n  pop\n  jump\t// out\n    /* \"#utility.yul\":565:745   */\ntag_26:\n    /* \"#utility.yul\":613:690   */\n  0x4e487b7100000000000000000000000000000000000000000000000000000000\n    /* \"#utility.yul\":610:611   */\n  0x00\n    /* \"#utility.yul\":603:691   */\n  mstore\n    /* \"#utility.yul\":710:714   */\n  0x41\n    /* \"#utility.yul\":707:708   */\n  0x04\n    /* \"#utility.yul\":700:715   */\n  mstore\n    /* \"#utility.yul\":734:738   */\n  0x24\n    /* \"#utility.yul\":731:732   */\n  0x00\n    /* \"#utility.yul\":724:739   */\n  revert\n    /* \"#utility.yul\":751:1032   */\ntag_27:\n    /* \"#utility.yul\":834:861   */\n  tag_66\n    /* \"#utility.yul\":856:860   */\n  dup3\n    /* \"#utility.yul\":834:861   */\n  tag_25\n  jump\t// in\ntag_66:\n    /* \"#utility.yul\":826:832   */\n  dup2\n    /* \"#utility.yul\":822:862   */\n  add\n    /* \"#utility.yul\":964:970   */\n  dup2\n    /* \"#utility.yul\":952:962   */\n  dup2\n    /* \"#utility.yul\":949:971   */\n  lt\n    /* \"#utility.yul\":928:946   */\n  0xffffffffffffffff\n    /* \"#utility.yul\":916:926   */\n  dup3\n    /* \"#utility.yul\":913:947   */\n  gt\n    /* \"#utility.yul\":910:972   */\n  or\n    /* \"#utility.yul\":907:995   */\n  iszero\n  tag_67\n  jumpi\n    /* \"#utility.yul\":975:993   */\n  tag_68\n  tag_26\n  jump\t// in\ntag_68:\n    /* \"#utility.yul\":907:995   */\ntag_67:\n    /* \"#utility.yul\":1015:1025   */\n  dup1\n    /* \"#utility.yul\":1011:1013   */\n  0x40\n    /* \"#utility.yul\":1004:1026   */\n  mstore\n    /* \"#utility.yul\":794:1032   */\n  pop\n    /* \"#utility.yul\":751:1032   */\n  pop\n  pop\n  jump\t// out\n    /* \"#utility.yul\":1038:1167   */\ntag_28:\n    /* \"#utility.yul\":1072:1078   */\n  0x00\n    /* \"#utility.yul\":1099:1119   */\n  tag_70\n  tag_21\n  jump\t// in\ntag_70:\n    /* \"#utility.yul\":1089:1119   */\n  swap1\n  pop\n    /* \"#utility.yul\":1128:1161   */\n  tag_71\n    /* \"#utility.yul\":1156:1160   */\n  dup3\n    /* \"#utility.yul\":1148:1154   */\n  dup3\n    /* \"#utility.yul\":1128:1161   */\n  tag_27\n  jump\t// in\ntag_71:\n    /* \"#utility.yul\":1038:1167   */\n  swap2\n  swap1\n  pop\n  jump\t// out\n    /* \"#utility.yul\":1173:1494   */\ntag_29:\n    /* \"#utility.yul\":1260:1264   */\n  0x00\n    /* \"#utility.yul\":1350:1368   */\n  0xffffffffffffffff\n    /* \"#utility.yul\":1342:1348   */\n  dup3\n    /* \"#utility.yul\":1339:1369   */\n  gt\n    /* \"#utility.yul\":1336:1392   */\n  iszero\n  tag_73\n  jumpi\n    /* \"#utility.yul\":1372:1390   */\n  tag_74\n  tag_26\n  jump\t// in\ntag_74:\n    /* \"#utility.yul\":1336:1392   */\ntag_73:\n    /* \"#utility.yul\":1422:1426   */\n  0x20\n    /* \"#utility.yul\":1414:1420   */\n  dup3\n    /* \"#utility.yul\":1410:1427   */\n  mul\n    /* \"#utility.yul\":1402:1427   */\n  swap1\n  pop\n    /* \"#utility.yul\":1482:1486   */\n  0x20\n    /* \"#utility.yul\":1476:1480   */\n  dup2\n    /* \"#utility.yul\":1472:1487   */\n  add\n    /* \"#utility.yul\":1464:1487   */\n  swap1\n  pop\n    /* \"#utility.yul\":1173:1494   */\n  swap2\n  swap1\n  pop\n  jump\t// out\n    /* \"#utility.yul\":1500:1617   */\ntag_30:\n    /* \"#utility.yul\":1609:1610   */\n  0x00\n    /* \"#utility.yul\":1606:1607   */\n  dup1\n    /* \"#utility.yul\":1599:1611   */\n  revert\n    /* \"#utility.yul\":1623:1740   */\ntag_31:\n    /* \"#utility.yul\":1732:1733   */\n  0x00\n    /* \"#utility.yul\":1729:1730   */\n  dup1\n    /* \"#utility.yul\":1722:1734   */\n  revert\n    /* \"#utility.yul\":1746:2054   */\ntag_32:\n    /* \"#utility.yul\":1808:1812   */\n  0x00\n    /* \"#utility.yul\":1898:1916   */\n  0xffffffffffffffff\n    /* \"#utility.yul\":1890:1896   */\n  dup3\n    /* \"#utility.yul\":1887:1917   */\n  gt\n    /* \"#utility.yul\":1884:1940   */\n  iszero\n  tag_78\n  jumpi\n    /* \"#utility.yul\":1920:1938   */\n  tag_79\n  tag_26\n  jump\t// in\ntag_79:\n    /* \"#utility.yul\":1884:1940   */\ntag_78:\n    /* \"#utility.yul\":1958:1987   */\n  tag_80\n    /* \"#utility.yul\":1980:1986   */\n  dup3\n    /* \"#utility.yul\":1958:1987   */\n  tag_25\n  jump\t// in\ntag_80:\n    /* \"#utility.yul\":1950:1987   */\n  swap1\n  pop\n    /* \"#utility.yul\":2042:2046   */\n  0x20\n    /* \"#utility.yul\":2036:2040   */\n  dup2\n    /* \"#utility.yul\":2032:2047   */\n  add\n    /* \"#utility.yul\":2024:2047   */\n  swap1\n  pop\n    /* \"#utility.yul\":1746:2054   */\n  swap2\n  swap1\n  pop\n  jump\t// out\n    /* \"#utility.yul\":2060:2306   */\ntag_33:\n    /* \"#utility.yul\":2141:2142   */\n  0x00\n    /* \"#utility.yul\":2151:2264   */\ntag_82:\n    /* \"#utility.yul\":2165:2171   */\n  dup4\n    /* \"#utility.yul\":2162:2163   */\n  dup2\n    /* \"#utility.yul\":2159:2172   */\n  lt\n    /* \"#utility.yul\":2151:2264   */\n  iszero\n  tag_84\n  jumpi\n    /* \"#utility.yul\":2250:2251   */\n  dup1\n    /* \"#utility.yul\":2245:2248   */\n  dup3\n    /* \"#utility.yul\":2241:2252   */\n  add\n    /* \"#utility.yul\":2235:2253   */\n  mload\n    /* \"#utility.yul\":2231:2232   */\n  dup2\n    /* \"#utility.yul\":2226:2229   */\n  dup5\n    /* \"#utility.yul\":2222:2233   */\n  add\n    /* \"#utility.yul\":2215:2254   */\n  mstore\n    /* \"#utility.yul\":2187:2189   */\n  0x20\n    /* \"#utility.yul\":2184:2185   */\n  dup2\n    /* \"#utility.yul\":2180:2190   */\n  add\n    /* \"#utility.yul\":2175:2190   */\n  swap1\n  pop\n    /* \"#utility.yul\":2151:2264   */\n  jump(tag_82)\ntag_84:\n    /* \"#utility.yul\":2298:2299   */\n  0x00\n    /* \"#utility.yul\":2289:2295   */\n  dup5\n    /* \"#utility.yul\":2284:2287   */\n  dup5\n    /* \"#utility.yul\":2280:2296   */\n  add\n    /* \"#utility.yul\":2273:2300   */\n  mstore\n    /* \"#utility.yul\":2122:2306   */\n  pop\n    /* \"#utility.yul\":2060:2306   */\n  pop\n  pop\n  pop\n  jump\t// out\n    /* \"#utility.yul\":2312:2746   */\ntag_34:\n    /* \"#utility.yul\":2401:2406   */\n  0x00\n    /* \"#utility.yul\":2426:2492   */\n  tag_86\n    /* \"#utility.yul\":2442:2491   */\n  tag_87\n    /* \"#utility.yul\":2484:2490   */\n  dup5\n    /* \"#utility.yul\":2442:2491   */\n  tag_32\n  jump\t// in\ntag_87:\n    /* \"#utility.yul\":2426:2492   */\n  tag_28\n  jump\t// in\ntag_86:\n    /* \"#utility.yul\":2417:2492   */\n  swap1\n  pop\n    /* \"#utility.yul\":2515:2521   */\n  dup3\n    /* \"#utility.yul\":2508:2513   */\n  dup2\n    /* \"#utility.yul\":2501:2522   */\n  mstore\n    /* \"#utility.yul\":2553:2557   */\n  0x20\n    /* \"#utility.yul\":2546:2551   */\n  dup2\n    /* \"#utility.yul\":2542:2558   */\n  add\n    /* \"#utility.yul\":2591:2594   */\n  dup5\n    /* \"#utility.yul\":2582:2588   */\n  dup5\n    /* \"#utility.yul\":2577:2580   */\n  dup5\n    /* \"#utility.yul\":2573:2589   */\n  add\n    /* \"#utility.yul\":2570:2595   */\n  gt\n    /* \"#utility.yul\":2567:2679   */\n  iszero\n  tag_88\n  jumpi\n    /* \"#utility.yul\":2598:2677   */\n  tag_89\n  tag_31\n  jump\t// in\ntag_89:\n    /* \"#utility.yul\":2567:2679   */\ntag_88:\n    /* \"#utility.yul\":2688:2740   */\n  tag_90\n    /* \"#utility.yul\":2733:2739   */\n  dup5\n    /* \"#utility.yul\":2728:2731   */\n  dup3\n    /* \"#utility.yul\":2723:2726   */\n  dup6\n    /* \"#utility.yul\":2688:2740   */\n  tag_33\n  jump\t// in\ntag_90:\n    /* \"#utility.yul\":2407:2746   */\n  pop\n    /* \"#utility.yul\":2312:2746   */\n  swap4\n  swap3\n  pop\n  pop\n  pop\n  jump\t// out\n    /* \"#utility.yul\":2766:3121   */\ntag_35:\n    /* \"#utility.yul\":2833:2838   */\n  0x00\n    /* \"#utility.yul\":2882:2885   */\n  dup3\n    /* \"#utility.yul\":2875:2879   */\n  0x1f\n    /* \"#utility.yul\":2867:2873   */\n  dup4\n    /* \"#utility.yul\":2863:2880   */\n  add\n    /* \"#utility.yul\":2859:2886   */\n  slt\n    /* \"#utility.yul\":2849:2971   */\n  tag_92\n  jumpi\n    /* \"#utility.yul\":2890:2969   */\n  tag_93\n  tag_24\n  jump\t// in\ntag_93:\n    /* \"#utility.yul\":2849:2971   */\ntag_92:\n    /* \"#utility.yul\":3000:3006   */\n  dup2\n    /* \"#utility.yul\":2994:3007   */\n  mload\n    /* \"#utility.yul\":3025:3115   */\n  tag_94\n    /* \"#utility.yul\":3111:3114   */\n  dup5\n    /* \"#utility.yul\":3103:3109   */\n  dup3\n    /* \"#utility.yul\":3096:3100   */\n  0x20\n    /* \"#utility.yul\":3088:3094   */\n  dup7\n    /* \"#utility.yul\":3084:3101   */\n  add\n    /* \"#utility.yul\":3025:3115   */\n  tag_34\n  jump\t// in\ntag_94:\n    /* \"#utility.yul\":3016:3115   */\n  swap2\n  pop\n    /* \"#utility.yul\":2839:3121   */\n  pop\n    /* \"#utility.yul\":2766:3121   */\n  swap3\n  swap2\n  pop\n  pop\n  jump\t// out\n    /* \"#utility.yul\":3143:4103   */\ntag_36:\n    /* \"#utility.yul\":3260:3265   */\n  0x00\n    /* \"#utility.yul\":3285:3376   */\n  tag_96\n    /* \"#utility.yul\":3301:3375   */\n  tag_97\n    /* \"#utility.yul\":3368:3374   */\n  dup5\n    /* \"#utility.yul\":3301:3375   */\n  tag_29\n  jump\t// in\ntag_97:\n    /* \"#utility.yul\":3285:3376   */\n  tag_28\n  jump\t// in\ntag_96:\n    /* \"#utility.yul\":3276:3376   */\n  swap1\n  pop\n    /* \"#utility.yul\":3396:3401   */\n  dup1\n    /* \"#utility.yul\":3425:3431   */\n  dup4\n    /* \"#utility.yul\":3418:3423   */\n  dup3\n    /* \"#utility.yul\":3411:3432   */\n  mstore\n    /* \"#utility.yul\":3459:3463   */\n  0x20\n    /* \"#utility.yul\":3452:3457   */\n  dup3\n    /* \"#utility.yul\":3448:3464   */\n  add\n    /* \"#utility.yul\":3441:3464   */\n  swap1\n  pop\n    /* \"#utility.yul\":3512:3516   */\n  0x20\n    /* \"#utility.yul\":3504:3510   */\n  dup5\n    /* \"#utility.yul\":3500:3517   */\n  mul\n    /* \"#utility.yul\":3492:3498   */\n  dup4\n    /* \"#utility.yul\":3488:3518   */\n  add\n    /* \"#utility.yul\":3541:3544   */\n  dup6\n    /* \"#utility.yul\":3533:3539   */\n  dup2\n    /* \"#utility.yul\":3530:3545   */\n  gt\n    /* \"#utility.yul\":3527:3649   */\n  iszero\n  tag_98\n  jumpi\n    /* \"#utility.yul\":3560:3639   */\n  tag_99\n  tag_30\n  jump\t// in\ntag_99:\n    /* \"#utility.yul\":3527:3649   */\ntag_98:\n    /* \"#utility.yul\":3675:3681   */\n  dup4\n    /* \"#utility.yul\":3658:4097   */\ntag_100:\n    /* \"#utility.yul\":3692:3698   */\n  dup2\n    /* \"#utility.yul\":3687:3690   */\n  dup2\n    /* \"#utility.yul\":3684:3699   */\n  lt\n    /* \"#utility.yul\":3658:4097   */\n  iszero\n  tag_102\n  jumpi\n    /* \"#utility.yul\":3774:3777   */\n  dup1\n    /* \"#utility.yul\":3768:3778   */\n  mload\n    /* \"#utility.yul\":3810:3828   */\n  0xffffffffffffffff\n    /* \"#utility.yul\":3797:3808   */\n  dup2\n    /* \"#utility.yul\":3794:3829   */\n  gt\n    /* \"#utility.yul\":3791:3913   */\n  iszero\n  tag_103\n  jumpi\n    /* \"#utility.yul\":3832:3911   */\n  tag_104\n  tag_24\n  jump\t// in\ntag_104:\n    /* \"#utility.yul\":3791:3913   */\ntag_103:\n    /* \"#utility.yul\":3956:3967   */\n  dup1\n    /* \"#utility.yul\":3948:3954   */\n  dup7\n    /* \"#utility.yul\":3944:3968   */\n  add\n    /* \"#utility.yul\":3994:4052   */\n  tag_105\n    /* \"#utility.yul\":4048:4051   */\n  dup10\n    /* \"#utility.yul\":4036:4046   */\n  dup3\n    /* \"#utility.yul\":3994:4052   */\n  tag_35\n  jump\t// in\ntag_105:\n    /* \"#utility.yul\":3989:3992   */\n  dup6\n    /* \"#utility.yul\":3982:4053   */\n  mstore\n    /* \"#utility.yul\":4082:4086   */\n  0x20\n    /* \"#utility.yul\":4077:4080   */\n  dup6\n    /* \"#utility.yul\":4073:4087   */\n  add\n    /* \"#utility.yul\":4066:4087   */\n  swap5\n  pop\n    /* \"#utility.yul\":3734:4097   */\n  pop\n  pop\n    /* \"#utility.yul\":3718:3722   */\n  0x20\n    /* \"#utility.yul\":3713:3716   */\n  dup2\n    /* \"#utility.yul\":3709:3723   */\n  add\n    /* \"#utility.yul\":3702:3723   */\n  swap1\n  pop\n    /* \"#utility.yul\":3658:4097   */\n  jump(tag_100)\ntag_102:\n    /* \"#utility.yul\":3662:3683   */\n  pop\n    /* \"#utility.yul\":3266:4103   */\n  pop\n  pop\n    /* \"#utility.yul\":3143:4103   */\n  swap4\n  swap3\n  pop\n  pop\n  pop\n  jump\t// out\n    /* \"#utility.yul\":4125:4530   */\ntag_37:\n    /* \"#utility.yul\":4217:4222   */\n  0x00\n    /* \"#utility.yul\":4266:4269   */\n  dup3\n    /* \"#utility.yul\":4259:4263   */\n  0x1f\n    /* \"#utility.yul\":4251:4257   */\n  dup4\n    /* \"#utility.yul\":4247:4264   */\n  add\n    /* \"#utility.yul\":4243:4270   */\n  slt\n    /* \"#utility.yul\":4233:4355   */\n  tag_107\n  jumpi\n    /* \"#utility.yul\":4274:4353   */\n  tag_108\n  tag_24\n  jump\t// in\ntag_108:\n    /* \"#utility.yul\":4233:4355   */\ntag_107:\n    /* \"#utility.yul\":4384:4390   */\n  dup2\n    /* \"#utility.yul\":4378:4391   */\n  mload\n    /* \"#utility.yul\":4409:4524   */\n  tag_109\n    /* \"#utility.yul\":4520:4523   */\n  dup5\n    /* \"#utility.yul\":4512:4518   */\n  dup3\n    /* \"#utility.yul\":4505:4509   */\n  0x20\n    /* \"#utility.yul\":4497:4503   */\n  dup7\n    /* \"#utility.yul\":4493:4510   */\n  add\n    /* \"#utility.yul\":4409:4524   */\n  tag_36\n  jump\t// in\ntag_109:\n    /* \"#utility.yul\":4400:4524   */\n  swap2\n  pop\n    /* \"#utility.yul\":4223:4530   */\n  pop\n    /* \"#utility.yul\":4125:4530   */\n  swap3\n  swap2\n  pop\n  pop\n  jump\t// out\n    /* \"#utility.yul\":4536:5489   */\ntag_3:\n    /* \"#utility.yul\":4685:4691   */\n  0x00\n    /* \"#utility.yul\":4693:4699   */\n  dup1\n    /* \"#utility.yul\":4742:4744   */\n  0x40\n    /* \"#utility.yul\":4730:4739   */\n  dup4\n    /* \"#utility.yul\":4721:4728   */\n  dup6\n    /* \"#utility.yul\":4717:4740   */\n  sub\n    /* \"#utility.yul\":4713:4745   */\n  slt\n    /* \"#utility.yul\":4710:4829   */\n  iszero\n  tag_111\n  jumpi\n    /* \"#utility.yul\":4748:4827   */\n  tag_112\n  tag_22\n  jump\t// in\ntag_112:\n    /* \"#utility.yul\":4710:4829   */\ntag_111:\n    /* \"#utility.yul\":4889:4890   */\n  0x00\n    /* \"#utility.yul\":4878:4887   */\n  dup4\n    /* \"#utility.yul\":4874:4891   */\n  add\n    /* \"#utility.yul\":4868:4892   */\n  mload\n    /* \"#utility.yul\":4919:4937   */\n  0xffffffffffffffff\n    /* \"#utility.yul\":4911:4917   */\n  dup2\n    /* \"#utility.yul\":4908:4938   */\n  gt\n    /* \"#utility.yul\":4905:5022   */\n  iszero\n  tag_113\n  jumpi\n    /* \"#utility.yul\":4941:5020   */\n  tag_114\n  tag_23\n  jump\t// in\ntag_114:\n    /* \"#utility.yul\":4905:5022   */\ntag_113:\n    /* \"#utility.yul\":5046:5145   */\n  tag_115\n    /* \"#utility.yul\":5137:5144   */\n  dup6\n    /* \"#utility.yul\":5128:5134   */\n  dup3\n    /* \"#utility.yul\":5117:5126   */\n  dup7\n    /* \"#utility.yul\":5113:5135   */\n  add\n    /* \"#utility.yul\":5046:5145   */\n  tag_37\n  jump\t// in\ntag_115:\n    /* \"#utility.yul\":5036:5145   */\n  swap3\n  pop\n    /* \"#utility.yul\":4839:5155   */\n  pop\n    /* \"#utility.yul\":5215:5217   */\n  0x20\n    /* \"#utility.yul\":5204:5213   */\n  dup4\n    /* \"#utility.yul\":5200:5218   */\n  add\n    /* \"#utility.yul\":5194:5219   */\n  mload\n    /* \"#utility.yul\":5246:5264   */\n  0xffffffffffffffff\n    /* \"#utility.yul\":5238:5244   */\n  dup2\n    /* \"#utility.yul\":5235:5265   */\n  gt\n    /* \"#utility.yul\":5232:5349   */\n  iszero\n  tag_116\n  jumpi\n    /* \"#utility.yul\":5268:5347   */\n  tag_117\n  tag_23\n  jump\t// in\ntag_117:\n    /* \"#utility.yul\":5232:5349   */\ntag_116:\n    /* \"#utility.yul\":5373:5472   */\n  tag_118\n    /* \"#utility.yul\":5464:5471   */\n  dup6\n    /* \"#utility.yul\":5455:5461   */\n  dup3\n    /* \"#utility.yul\":5444:5453   */\n  dup7\n    /* \"#utility.yul\":5440:5462   */\n  add\n    /* \"#utility.yul\":5373:5472   */\n  tag_37\n  jump\t// in\ntag_118:\n    /* \"#utility.yul\":5363:5472   */\n  swap2\n  pop\n    /* \"#utility.yul\":5165:5482   */\n  pop\n    /* \"#utility.yul\":4536:5489   */\n  swap3\n  pop\n  swap3\n  swap1\n  pop\n  jump\t// out\n    /* \"#utility.yul\":5495:5675   */\ntag_11:\n    /* \"#utility.yul\":5543:5620   */\n  0x4e487b7100000000000000000000000000000000000000000000000000000000\n    /* \"#utility.yul\":5540:5541   */\n  0x00\n    /* \"#utility.yul\":5533:5621   */\n  mstore\n    /* \"#utility.yul\":5640:5644   */\n  0x32\n    /* \"#utility.yul\":5637:5638   */\n  0x04\n    /* \"#utility.yul\":5630:5645   */\n  mstore\n    /* \"#utility.yul\":5664:5668   */\n  0x24\n    /* \"#utility.yul\":5661:5662   */\n  0x00\n    /* \"#utility.yul\":5654:5669   */\n  revert\n    /* \"#utility.yul\":5681:5780   */\ntag_38:\n    /* \"#utility.yul\":5733:5739   */\n  0x00\n    /* \"#utility.yul\":5767:5772   */\n  dup2\n    /* \"#utility.yul\":5761:5773   */\n  mload\n    /* \"#utility.yul\":5751:5773   */\n  swap1\n  pop\n    /* \"#utility.yul\":5681:5780   */\n  swap2\n  swap1\n  pop\n  jump\t// out\n    /* \"#utility.yul\":5786:5966   */\ntag_39:\n    /* \"#utility.yul\":5834:5911   */\n  0x4e487b7100000000000000000000000000000000000000000000000000000000\n    /* \"#utility.yul\":5831:5832   */\n  0x00\n    /* \"#utility.yul\":5824:5912   */\n  mstore\n    /* \"#utility.yul\":5931:5935   */\n  0x22\n    /* \"#utility.yul\":5928:5929   */\n  0x04\n    /* \"#utility.yul\":5921:5936   */\n  mstore\n    /* \"#utility.yul\":5955:5959   */\n  0x24\n    /* \"#utility.yul\":5952:5953   */\n  0x00\n    /* \"#utility.yul\":5945:5960   */\n  revert\n    /* \"#utility.yul\":5972:6292   */\ntag_40:\n    /* \"#utility.yul\":6016:6022   */\n  0x00\n    /* \"#utility.yul\":6053:6054   */\n  0x02\n    /* \"#utility.yul\":6047:6051   */\n  dup3\n    /* \"#utility.yul\":6043:6055   */\n  div\n    /* \"#utility.yul\":6033:6055   */\n  swap1\n  pop\n    /* \"#utility.yul\":6100:6101   */\n  0x01\n    /* \"#utility.yul\":6094:6098   */\n  dup3\n    /* \"#utility.yul\":6090:6102   */\n  and\n    /* \"#utility.yul\":6121:6139   */\n  dup1\n    /* \"#utility.yul\":6111:6192   */\n  tag_123\n  jumpi\n    /* \"#utility.yul\":6177:6181   */\n  0x7f\n    /* \"#utility.yul\":6169:6175   */\n  dup3\n    /* \"#utility.yul\":6165:6182   */\n  and\n    /* \"#utility.yul\":6155:6182   */\n  swap2\n  pop\n    /* \"#utility.yul\":6111:6192   */\ntag_123:\n    /* \"#utility.yul\":6239:6241   */\n  0x20\n    /* \"#utility.yul\":6231:6237   */\n  dup3\n    /* \"#utility.yul\":6228:6242   */\n  lt\n    /* \"#utility.yul\":6208:6226   */\n  dup2\n    /* \"#utility.yul\":6205:6243   */\n  sub\n    /* \"#utility.yul\":6202:6286   */\n  tag_124\n  jumpi\n    /* \"#utility.yul\":6258:6276   */\n  tag_125\n  tag_39\n  jump\t// in\ntag_125:\n    /* \"#utility.yul\":6202:6286   */\ntag_124:\n    /* \"#utility.yul\":6023:6292   */\n  pop\n    /* \"#utility.yul\":5972:6292   */\n  swap2\n  swap1\n  pop\n  jump\t// out\n    /* \"#utility.yul\":6298:6439   */\ntag_41:\n    /* \"#utility.yul\":6347:6351   */\n  0x00\n    /* \"#utility.yul\":6370:6373   */\n  dup2\n    /* \"#utility.yul\":6362:6373   */\n  swap1\n  pop\n    /* \"#utility.yul\":6393:6396   */\n  dup2\n    /* \"#utility.yul\":6390:6391   */\n  0x00\n    /* \"#utility.yul\":6383:6397   */\n  mstore\n    /* \"#utility.yul\":6427:6431   */\n  0x20\n    /* \"#utility.yul\":6424:6425   */\n  0x00\n    /* \"#utility.yul\":6414:6432   */\n  keccak256\n    /* \"#utility.yul\":6406:6432   */\n  swap1\n  pop\n    /* \"#utility.yul\":6298:6439   */\n  swap2\n  swap1\n  pop\n  jump\t// out\n    /* \"#utility.yul\":6445:6538   */\ntag_42:\n    /* \"#utility.yul\":6482:6488   */\n  0x00\n    /* \"#utility.yul\":6529:6531   */\n  0x20\n    /* \"#utility.yul\":6524:6526   */\n  0x1f\n    /* \"#utility.yul\":6517:6522   */\n  dup4\n    /* \"#utility.yul\":6513:6527   */\n  add\n    /* \"#utility.yul\":6509:6532   */\n  div\n    /* \"#utility.yul\":6499:6532   */\n  swap1\n  pop\n    /* \"#utility.yul\":6445:6538   */\n  swap2\n  swap1\n  pop\n  jump\t// out\n    /* \"#utility.yul\":6544:6651   */\ntag_43:\n    /* \"#utility.yul\":6588:6596   */\n  0x00\n    /* \"#utility.yul\":6638:6643   */\n  dup3\n    /* \"#utility.yul\":6632:6636   */\n  dup3\n    /* \"#utility.yul\":6628:6644   */\n  shl\n    /* \"#utility.yul\":6607:6644   */\n  swap1\n  pop\n    /* \"#utility.yul\":6544:6651   */\n  swap3\n  swap2\n  pop\n  pop\n  jump\t// out\n    /* \"#utility.yul\":6657:7050   */\ntag_44:\n    /* \"#utility.yul\":6726:6732   */\n  0x00\n    /* \"#utility.yul\":6776:6777   */\n  0x08\n    /* \"#utility.yul\":6764:6774   */\n  dup4\n    /* \"#utility.yul\":6760:6778   */\n  mul\n    /* \"#utility.yul\":6799:6896   */\n  tag_130\n    /* \"#utility.yul\":6829:6895   */\n  0xffffffffffffffffffffffffffffffffffffffffffffffffffffffffffffffff\n    /* \"#utility.yul\":6818:6827   */\n  dup3\n    /* \"#utility.yul\":6799:6896   */\n  tag_43\n  jump\t// in\ntag_130:\n    /* \"#utility.yul\":6917:6956   */\n  tag_131\n    /* \"#utility.yul\":6947:6955   */\n  dup7\n    /* \"#utility.yul\":6936:6945   */\n  dup4\n    /* \"#utility.yul\":6917:6956   */\n  tag_43\n  jump\t// in\ntag_131:\n    /* \"#utility.yul\":6905:6956   */\n  swap6\n  pop\n    /* \"#utility.yul\":6989:6993   */\n  dup1\n    /* \"#utility.yul\":6985:6994   */\n  not\n    /* \"#utility.yul\":6978:6983   */\n  dup5\n    /* \"#utility.yul\":6974:6995   */\n  and\n    /* \"#utility.yul\":6965:6995   */\n  swap4\n  pop\n    /* \"#utility.yul\":7038:7042   */\n  dup1\n    /* \"#utility.yul\":7028:7036   */\n  dup7\n    /* \"#utility.yul\":7024:7043   */\n  and\n    /* \"#utility.yul\":7017:7022   */\n  dup5\n    /* \"#utility.yul\":7014:7044   */\n  or\n    /* \"#utility.yul\":7004:7044   */\n  swap3\n  pop\n    /* \"#utility.yul\":6733:7050   */\n  pop\n  pop\n    /* \"#utility.yul\":6657:7050   */\n  swap4\n  swap3\n  pop\n  pop\n  pop\n  jump\t// out\n    /* \"#utility.yul\":7056:7133   */\ntag_45:\n    /* \"#utility.yul\":7093:7100   */\n  0x00\n    /* \"#utility.yul\":7122:7127   */\n  dup2\n    /* \"#utility.yul\":7111:7127   */\n  swap1\n  pop\n    /* \"#utility.yul\":7056:7133   */\n  swap2\n  swap1\n  pop\n  jump\t// out\n    /* \"#utility.yul\":7139:7199   */\ntag_46:\n    /* \"#utility.yul\":7167:7170   */\n  0x00\n    /* \"#utility.yul\":7188:7193   */\n  dup2\n    /* \"#utility.yul\":7181:7193   */\n  swap1\n  pop\n    /* \"#utility.yul\":7139:7199   */\n  swap2\n  swap1\n  pop\n  jump\t// out\n    /* \"#utility.yul\":7205:7347   */\ntag_47:\n    /* \"#utility.yul\":7255:7264   */\n  0x00\n    /* \"#utility.yul\":7288:7341   */\n  tag_135\n    /* \"#utility.yul\":7306:7340   */\n  tag_136\n    /* \"#utility.yul\":7315:7339   */\n  tag_137\n    /* \"#utility.yul\":7333:7338   */\n  dup5\n    /* \"#utility.yul\":7315:7339   */\n  tag_45\n  jump\t// in\ntag_137:\n    /* \"#utility.yul\":7306:7340   */\n  tag_46\n  jump\t// in\ntag_136:\n    /* \"#utility.yul\":7288:7341   */\n  tag_45\n  jump\t// in\ntag_135:\n    /* \"#utility.yul\":7275:7341   */\n  swap1\n  pop\n    /* \"#utility.yul\":7205:7347   */\n  swap2\n  swap1\n  pop\n  jump\t// out\n    /* \"#utility.yul\":7353:7428   */\ntag_48:\n    /* \"#utility.yul\":7396:7399   */\n  0x00\n    /* \"#utility.yul\":7417:7422   */\n  dup2\n    /* \"#utility.yul\":7410:7422   */\n  swap1\n  pop\n    /* \"#utility.yul\":7353:7428   */\n  swap2\n  swap1\n  pop\n  jump\t// out\n    /* \"#utility.yul\":7434:7703   */\ntag_49:\n    /* \"#utility.yul\":7544:7583   */\n  tag_140\n    /* \"#utility.yul\":7575:7582   */\n  dup4\n    /* \"#utility.yul\":7544:7583   */\n  tag_47\n  jump\t// in\ntag_140:\n    /* \"#utility.yul\":7605:7696   */\n  tag_141\n    /* \"#utility.yul\":7654:7695   */\n  tag_142\n    /* \"#utility.yul\":7678:7694   */\n  dup3\n    /* \"#utility.yul\":7654:7695   */\n  tag_48\n  jump\t// in\ntag_142:\n    /* \"#utility.yul\":7646:7652   */\n  dup5\n    /* \"#utility.yul\":7639:7643   */\n  dup5\n    /* \"#utility.yul\":7633:7644   */\n  sload\n    /* \"#utility.yul\":7605:7696   */\n  tag_44\n  jump\t// in\ntag_141:\n    /* \"#utility.yul\":7599:7603   */\n  dup3\n    /* \"#utility.yul\":7592:7697   */\n  sstore\n    /* \"#utility.yul\":7510:7703   */\n  pop\n    /* \"#utility.yul\":7434:7703   */\n  pop\n  pop\n  pop\n  jump\t// out\n    /* \"#utility.yul\":7709:7782   */\ntag_50:\n    /* \"#utility.yul\":7754:7757   */\n  0x00\n    /* \"#utility.yul\":7709:7782   */\n  swap1\n  jump\t// out\n    /* \"#utility.yul\":7788:7977   */\ntag_51:\n    /* \"#utility.yul\":7865:7897   */\n  tag_145\n  tag_50\n  jump\t// in\ntag_145:\n    /* \"#utility.yul\":7906:7971   */\n  tag_146\n    /* \"#utility.yul\":7964:7970   */\n  dup2\n    /* \"#utility.yul\":7956:7962   */\n  dup5\n    /* \"#utility.yul\":7950:7954   */\n  dup5\n    /* \"#utility.yul\":7906:7971   */\n  tag_49\n  jump\t// in\ntag_146:\n    /* \"#utility.yul\":7841:7977   */\n  pop\n    /* \"#utility.yul\":7788:7977   */\n  pop\n  pop\n  jump\t// out\n    /* \"#utility.yul\":7983:8169   */\ntag_52:\n    /* \"#utility.yul\":8043:8163   */\ntag_148:\n    /* \"#utility.yul\":8060:8063   */\n  dup2\n    /* \"#utility.yul\":8053:8058   */\n  dup2\n    /* \"#utility.yul\":8050:8064   */\n  lt\n    /* \"#utility.yul\":8043:8163   */\n  iszero\n  tag_150\n  jumpi\n    /* \"#utility.yul\":8114:8153   */\n  tag_151\n    /* \"#utility.yul\":8151:8152   */\n  0x00\n    /* \"#utility.yul\":8144:8149   */\n  dup3\n    /* \"#utility.yul\":8114:8153   */\n  tag_51\n  jump\t// in\ntag_151:\n    /* \"#utility.yul\":8087:8088   */\n  0x01\n    /* \"#utility.yul\":8080:8085   */\n  dup2\n    /* \"#utility.yul\":8076:8089   */\n  add\n    /* \"#utility.yul\":8067:8089   */\n  swap1\n  pop\n    /* \"#utility.yul\":8043:8163   */\n  jump(tag_148)\ntag_150:\n    /* \"#utility.yul\":7983:8169   */\n  pop\n  pop\n  jump\t// out\n    /* \"#utility.yul\":8175:8718   */\ntag_53:\n    /* \"#utility.yul\":8276:8278   */\n  0x1f\n    /* \"#utility.yul\":8271:8274   */\n  dup3\n    /* \"#utility.yul\":8268:8279   */\n  gt\n    /* \"#utility.yul\":8265:8711   */\n  iszero\n  tag_153\n  jumpi\n    /* \"#utility.yul\":8310:8348   */\n  tag_154\n    /* \"#utility.yul\":8342:8347   */\n  dup2\n    /* \"#utility.yul\":8310:8348   */\n  tag_41\n  jump\t// in\ntag_154:\n    /* \"#utility.yul\":8394:8423   */\n  tag_155\n    /* \"#utility.yul\":8412:8422   */\n  dup5\n    /* \"#utility.yul\":8394:8423   */\n  tag_42\n  jump\t// in\ntag_155:\n    /* \"#utility.yul\":8384:8392   */\n  dup2\n    /* \"#utility.yul\":8380:8424   */\n  add\n    /* \"#utility.yul\":8577:8579   */\n  0x20\n    /* \"#utility.yul\":8565:8575   */\n  dup6\n    /* \"#utility.yul\":8562:8580   */\n  lt\n    /* \"#utility.yul\":8559:8608   */\n  iszero\n  tag_156\n  jumpi\n    /* \"#utility.yul\":8598:8606   */\n  dup2\n    /* \"#utility.yul\":8583:8606   */\n  swap1\n  pop\n    /* \"#utility.yul\":8559:8608   */\ntag_156:\n    /* \"#utility.yul\":8621:8701   */\n  tag_157\n    /* \"#utility.yul\":8677:8699   */\n  tag_158\n    /* \"#utility.yul\":8695:8698   */\n  dup6\n    /* \"#utility.yul\":8677:8699   */\n  tag_42\n  jump\t// in\ntag_158:\n    /* \"#utility.yul\":8667:8675   */\n  dup4\n    /* \"#utility.yul\":8663:8700   */\n  add\n    /* \"#utility.yul\":8650:8661   */\n  dup3\n    /* \"#utility.yul\":8621:8701   */\n  tag_52\n  jump\t// in\ntag_157:\n    /* \"#utility.yul\":8280:8711   */\n  pop\n  pop\n    /* \"#utility.yul\":8265:8711   */\ntag_153:\n    /* \"#utility.yul\":8175:8718   */\n  pop\n  pop\n  pop\n  jump\t// out\n    /* \"#utility.yul\":8724:8841   */\ntag_54:\n    /* \"#utility.yul\":8778:8786   */\n  0x00\n    /* \"#utility.yul\":8828:8833   */\n  dup3\n    /* \"#utility.yul\":8822:8826   */\n  dup3\n    /* \"#utility.yul\":8818:8834   */\n  shr\n    /* \"#utility.yul\":8797:8834   */\n  swap1\n  pop\n    /* \"#utility.yul\":8724:8841   */\n  swap3\n  swap2\n  pop\n  pop\n  jump\t// out\n    /* \"#utility.yul\":8847:9016   */\ntag_55:\n    /* \"#utility.yul\":8891:8897   */\n  0x00\n    /* \"#utility.yul\":8924:8975   */\n  tag_161\n    /* \"#utility.yul\":8972:8973   */\n  0x00\n    /* \"#utility.yul\":8968:8974   */\n  not\n    /* \"#utility.yul\":8960:8965   */\n  dup5\n    /* \"#utility.yul\":8957:8958   */\n  0x08\n    /* \"#utility.yul\":8953:8966   */\n  mul\n    /* \"#utility.yul\":8924:8975   */\n  tag_54\n  jump\t// in\ntag_161:\n    /* \"#utility.yul\":8920:8976   */\n  not\n    /* \"#utility.yul\":9005:9009   */\n  dup1\n    /* \"#utility.yul\":8999:9003   */\n  dup4\n    /* \"#utility.yul\":8995:9010   */\n  and\n    /* \"#utility.yul\":8985:9010   */\n  swap2\n  pop\n    /* \"#utility.yul\":8898:9016   */\n  pop\n    /* \"#utility.yul\":8847:9016   */\n  swap3\n  swap2\n  pop\n  pop\n  jump\t// out\n    /* \"#utility.yul\":9021:9316   */\ntag_56:\n    /* \"#utility.yul\":9097:9101   */\n  0x00\n    /* \"#utility.yul\":9243:9272   */\n  tag_163\n    /* \"#utility.yul\":9268:9271   */\n  dup4\n    /* \"#utility.yul\":9262:9266   */\n  dup4\n    /* \"#utility.yul\":9243:9272   */\n  tag_55\n  jump\t// in\ntag_163:\n    /* \"#utility.yul\":9235:9272   */\n  swap2\n  pop\n    /* \"#utility.yul\":9305:9308   */\n  dup3\n    /* \"#utility.yul\":9302:9303   */\n  0x02\n    /* \"#utility.yul\":9298:9309   */\n  mul\n    /* \"#utility.yul\":9292:9296   */\n  dup3\n    /* \"#utility.yul\":9289:9310   */\n  or\n    /* \"#utility.yul\":9281:9310   */\n  swap1\n  pop\n    /* \"#utility.yul\":9021:9316   */\n  swap3\n  swap2\n  pop\n  pop\n  jump\t// out\n    /* \"#utility.yul\":9321:10716   */\ntag_16:\n    /* \"#utility.yul\":9438:9475   */\n  tag_165\n    /* \"#utility.yul\":9471:9474   */\n  dup3\n    /* \"#utility.yul\":9438:9475   */\n  tag_38\n  jump\t// in\ntag_165:\n    /* \"#utility.yul\":9540:9558   */\n  0xffffffffffffffff\n    /* \"#utility.yul\":9532:9538   */\n  dup2\n    /* \"#utility.yul\":9529:9559   */\n  gt\n    /* \"#utility.yul\":9526:9582   */\n  iszero\n  tag_166\n  jumpi\n    /* \"#utility.yul\":9562:9580   */\n  tag_167\n  tag_26\n  jump\t// in\ntag_167:\n    /* \"#utility.yul\":9526:9582   */\ntag_166:\n    /* \"#utility.yul\":9606:9644   */\n  tag_168\n    /* \"#utility.yul\":9638:9642   */\n  dup3\n    /* \"#utility.yul\":9632:9643   */\n  sload\n    /* \"#utility.yul\":9606:9644   */\n  tag_40\n  jump\t// in\ntag_168:\n    /* \"#utility.yul\":9691:9758   */\n  tag_169\n    /* \"#utility.yul\":9751:9757   */\n  dup3\n    /* \"#utility.yul\":9743:9749   */\n  dup3\n    /* \"#utility.yul\":9737:9741   */\n  dup6\n    /* \"#utility.yul\":9691:9758   */\n  tag_53\n  jump\t// in\ntag_169:\n    /* \"#utility.yul\":9785:9786   */\n  0x00\n    /* \"#utility.yul\":9809:9813   */\n  0x20\n    /* \"#utility.yul\":9796:9813   */\n  swap1\n  pop\n    /* \"#utility.yul\":9841:9843   */\n  0x1f\n    /* \"#utility.yul\":9833:9839   */\n  dup4\n    /* \"#utility.yul\":9830:9844   */\n  gt\n    /* \"#utility.yul\":9858:9859   */\n  0x01\n    /* \"#utility.yul\":9853:10471   */\n  dup2\n  eq\n  tag_171\n  jumpi\n    /* \"#utility.yul\":10515:10516   */\n  0x00\n    /* \"#utility.yul\":10532:10538   */\n  dup5\n    /* \"#utility.yul\":10529:10606   */\n  iszero\n  tag_172\n  jumpi\n    /* \"#utility.yul\":10581:10590   */\n  dup3\n    /* \"#utility.yul\":10576:10579   */\n  dup8\n    /* \"#utility.yul\":10572:10591   */\n  add\n    /* \"#utility.yul\":10566:10592   */\n  mload\n    /* \"#utility.yul\":10557:10592   */\n  swap1\n  pop\n    /* \"#utility.yul\":10529:10606   */\ntag_172:\n    /* \"#utility.yul\":10632:10699   */\n  tag_173\n    /* \"#utility.yul\":10692:10698   */\n  dup6\n    /* \"#utility.yul\":10685:10690   */\n  dup3\n    /* \"#utility.yul\":10632:10699   */\n  tag_56\n  jump\t// in\ntag_173:\n    /* \"#utility.yul\":10626:10630   */\n  dup7\n    /* \"#utility.yul\":10619:10700   */\n  sstore\n    /* \"#utility.yul\":10488:10710   */\n  pop\n    /* \"#utility.yul\":9823:10710   */\n  jump(tag_170)\n    /* \"#utility.yul\":9853:10471   */\ntag_171:\n    /* \"#utility.yul\":9905:9909   */\n  0x1f\n    /* \"#utility.yul\":9901:9910   */\n  not\n    /* \"#utility.yul\":9893:9899   */\n  dup5\n    /* \"#utility.yul\":9889:9911   */\n  and\n    /* \"#utility.yul\":9939:9976   */\n  tag_174\n    /* \"#utility.yul\":9971:9975   */\n  dup7\n    /* \"#utility.yul\":9939:9976   */\n  tag_41\n  jump\t// in\ntag_174:\n    /* \"#utility.yul\":9998:9999   */\n  0x00\n    /* \"#utility.yul\":10012:10220   */\ntag_175:\n    /* \"#utility.yul\":10026:10033   */\n  dup3\n    /* \"#utility.yul\":10023:10024   */\n  dup2\n    /* \"#utility.yul\":10020:10034   */\n  lt\n    /* \"#utility.yul\":10012:10220   */\n  iszero\n  tag_177\n  jumpi\n    /* \"#utility.yul\":10105:10114   */\n  dup5\n    /* \"#utility.yul\":10100:10103   */\n  dup10\n    /* \"#utility.yul\":10096:10115   */\n  add\n    /* \"#utility.yul\":10090:10116   */\n  mload\n    /* \"#utility.yul\":10082:10088   */\n  dup3\n    /* \"#utility.yul\":10075:10117   */\n  sstore\n    /* \"#utility.yul\":10156:10157   */\n  0x01\n    /* \"#utility.yul\":10148:10154   */\n  dup3\n    /* \"#utility.yul\":10144:10158   */\n  add\n    /* \"#utility.yul\":10134:10158   */\n  swap2\n  pop\n    /* \"#utility.yul\":10203:10205   */\n  0x20\n    /* \"#utility.yul\":10192:10201   */\n  dup6\n    /* \"#utility.yul\":10188:10206   */\n  add\n    /* \"#utility.yul\":10175:10206   */\n  swap5\n  pop\n    /* \"#utility.yul\":10049:10053   */\n  0x20\n    /* \"#utility.yul\":10046:10047   */\n  dup2\n    /* \"#utility.yul\":10042:10054   */\n  add\n    /* \"#utility.yul\":10037:10054   */\n  swap1\n  pop\n    /* \"#utility.yul\":10012:10220   */\n  jump(tag_175)\ntag_177:\n    /* \"#utility.yul\":10248:10254   */\n  dup7\n    /* \"#utility.yul\":10239:10246   */\n  dup4\n    /* \"#utility.yul\":10236:10255   */\n  lt\n    /* \"#utility.yul\":10233:10412   */\n  iszero\n  tag_178\n  jumpi\n    /* \"#utility.yul\":10306:10315   */\n  dup5\n    /* \"#utility.yul\":10301:10304   */\n  dup10\n    /* \"#utility.yul\":10297:10316   */\n  add\n    /* \"#utility.yul\":10291:10317   */\n  mload\n    /* \"#utility.yul\":10349:10397   */\n  tag_179\n    /* \"#utility.yul\":10391:10395   */\n  0x1f\n    /* \"#utility.yul\":10383:10389   */\n  dup10\n    /* \"#utility.yul\":10379:10396   */\n  and\n    /* \"#utility.yul\":10368:10377   */\n  dup3\n    /* \"#utility.yul\":10349:10397   */\n  tag_55\n  jump\t// in\ntag_179:\n    /* \"#utility.yul\":10341:10347   */\n  dup4\n    /* \"#utility.yul\":10334:10398   */\n  sstore\n    /* \"#utility.yul\":10256:10412   */\n  pop\n    /* \"#utility.yul\":10233:10412   */\ntag_178:\n    /* \"#utility.yul\":10458:10459   */\n  0x01\n    /* \"#utility.yul\":10454:10455   */\n  0x02\n    /* \"#utility.yul\":10446:10452   */\n  dup9\n    /* \"#utility.yul\":10442:10456   */\n  mul\n    /* \"#utility.yul\":10438:10460   */\n  add\n    /* \"#utility.yul\":10432:10436   */\n  dup9\n    /* \"#utility.yul\":10425:10461   */\n  sstore\n    /* \"#utility.yul\":9860:10471   */\n  pop\n  pop\n  pop\n    /* \"#utility.yul\":9823:10710   */\ntag_170:\n  pop\n    /* \"#utility.yul\":9413:10716   */\n  pop\n  pop\n  pop\n    /* \"#utility.yul\":9321:10716   */\n  pop\n  pop\n  jump\t// out\n    /* \"#utility.yul\":10722:10902   */\ntag_57:\n    /* \"#utility.yul\":10770:10847   */\n  0x4e487b7100000000000000000000000000000000000000000000000000000000\n    /* \"#utility.yul\":10767:10768   */\n  0x00\n    /* \"#utility.yul\":10760:10848   */\n  mstore\n    /* \"#utility.yul\":10867:10871   */\n  0x11\n    /* \"#utility.yul\":10864:10865   */\n  0x04\n    /* \"#utility.yul\":10857:10872   */\n  mstore\n    /* \"#utility.yul\":10891:10895   */\n  0x24\n    /* \"#utility.yul\":10888:10889   */\n  0x00\n    /* \"#utility.yul\":10881:10896   */\n  revert\n    /* \"#utility.yul\":10908:11141   */\ntag_19:\n    /* \"#utility.yul\":10947:10950   */\n  0x00\n    /* \"#utility.yul\":10970:10994   */\n  tag_182\n    /* \"#utility.yul\":10988:10993   */\n  dup3\n    /* \"#utility.yul\":10970:10994   */\n  tag_45\n  jump\t// in\ntag_182:\n    /* \"#utility.yul\":10961:10994   */\n  swap2\n  pop\n    /* \"#utility.yul\":11016:11082   */\n  0xffffffffffffffffffffffffffffffffffffffffffffffffffffffffffffffff\n    /* \"#utility.yul\":11009:11014   */\n  dup3\n    /* \"#utility.yul\":11006:11083   */\n  sub\n    /* \"#utility.yul\":11003:11106   */\n  tag_183\n  jumpi\n    /* \"#utility.yul\":11086:11104   */\n  tag_184\n  tag_57\n  jump\t// in\ntag_184:\n    /* \"#utility.yul\":11003:11106   */\ntag_183:\n    /* \"#utility.yul\":11133:11134   */\n  0x01\n    /* \"#utility.yul\":11126:11131   */\n  dup3\n    /* \"#utility.yul\":11122:11135   */\n  add\n    /* \"#utility.yul\":11115:11135   */\n  swap1\n  pop\n    /* \"#utility.yul\":10908:11141   */\n  swap2\n  swap1\n  pop\n  jump\t// out\n    /* \"contracts/Ballot/MyBallot.sol\":130:2710  contract MyBallot {... */\ntag_20:\n  dataSize(sub_0)\n  dup1\n  dataOffset(sub_0)\n  0x00\n  codecopy\n  0x00\n  return\nstop\n\nsub_0: assembly {\n        /* \"contracts/Ballot/MyBallot.sol\":130:2710  contract MyBallot {... */\n      mstore(0x40, 0x80)\n      callvalue\n      dup1\n      iszero\n      tag_1\n      jumpi\n      0x00\n      dup1\n      revert\n    tag_1:\n      pop\n      jumpi(tag_2, lt(calldatasize, 0x04))\n      shr(0xe0, calldataload(0x00))\n      dup1\n      0x32a2c5d0\n      eq\n      tag_3\n      jumpi\n      dup1\n      0x3477ee2e\n      eq\n      tag_4\n      jumpi\n      dup1\n      0x4aba5f34\n      eq\n      tag_5\n      jumpi\n      dup1\n      0x9e7b8d61\n      eq\n      tag_6\n      jumpi\n      dup1\n      0xa3ec138d\n      eq\n      tag_7\n      jumpi\n      dup1\n      0xce606ee0\n      eq\n      tag_8\n      jumpi\n    tag_2:\n      0x00\n      dup1\n      revert\n        /* \"contracts/Ballot/MyBallot.sol\":2608:2707  function getContractAddress() public view returns (address) {... */\n    tag_3:\n      tag_9\n      tag_10\n      jump\t// in\n    tag_9:\n      mload(0x40)\n      tag_11\n      swap2\n      swap1\n      tag_12\n      jump\t// in\n    tag_11:\n      mload(0x40)\n      dup1\n      swap2\n      sub\n      swap1\n      return\n        /* \"contracts/Ballot/MyBallot.sol\":461:490  Candidate[] public candidates */\n    tag_4:\n      tag_13\n      0x04\n      dup1\n      calldatasize\n      sub\n      dup2\n      add\n      swap1\n      tag_14\n      swap2\n      swap1\n      tag_15\n      jump\t// in\n    tag_14:\n      tag_16\n      jump\t// in\n    tag_13:\n      mload(0x40)\n      tag_17\n      swap4\n      swap3\n      swap2\n      swap1\n      tag_18\n      jump\t// in\n    tag_17:\n      mload(0x40)\n      dup1\n      swap2\n      sub\n      swap1\n      return\n        /* \"contracts/Ballot/MyBallot.sol\":2494:2600  function getCandidatesList() public view returns (Candidate[] memory) {... */\n    tag_5:\n      tag_19\n      tag_20\n      jump\t// in\n    tag_19:\n      mload(0x40)\n      tag_21\n      swap2\n      swap1\n      tag_22\n      jump\t// in\n    tag_21:\n      mload(0x40)\n      dup1\n      swap2\n      sub\n      swap1\n      return\n        /* \"contracts/Ballot/MyBallot.sol\":948:1286  function giveRightToVote(address voter) public {... */\n    tag_6:\n      tag_23\n      0x04\n      dup1\n      calldatasize\n      sub\n      dup2\n      add\n      swap1\n      tag_24\n      swap2\n      swap1\n      tag_25\n      jump\t// in\n    tag_24:\n      tag_26\n      jump\t// in\n    tag_23:\n      stop\n        /* \"contracts/Ballot/MyBallot.sol\":413:452  mapping(address => Voter) public voters */\n    tag_7:\n      tag_27\n      0x04\n      dup1\n      calldatasize\n      sub\n      dup2\n      add\n      swap1\n      tag_28\n      swap2\n      swap1\n      tag_25\n      jump\t// in\n    tag_28:\n      tag_29\n      jump\t// in\n    tag_27:\n      mload(0x40)\n      tag_30\n      swap3\n      swap2\n      swap1\n      tag_31\n      jump\t// in\n    tag_30:\n      mload(0x40)\n      dup1\n      swap2\n      sub\n      swap1\n      return\n        /* \"contracts/Ballot/MyBallot.sol\":376:404  address public contractOwner */\n    tag_8:\n      tag_32\n      tag_33\n      jump\t// in\n    tag_32:\n      mload(0x40)\n      tag_34\n      swap2\n      swap1\n      tag_12\n      jump\t// in\n    tag_34:\n      mload(0x40)\n      dup1\n      swap2\n      sub\n      swap1\n      return\n        /* \"contracts/Ballot/MyBallot.sol\":2608:2707  function getContractAddress() public view returns (address) {... */\n    tag_10:\n        /* \"contracts/Ballot/MyBallot.sol\":2659:2666  address */\n      0x00\n        /* \"contracts/Ballot/MyBallot.sol\":2694:2698  this */\n      address\n        /* \"contracts/Ballot/MyBallot.sol\":2679:2699  return address(this) */\n      swap1\n      pop\n        /* \"contracts/Ballot/MyBallot.sol\":2608:2707  function getContractAddress() public view returns (address) {... */\n      swap1\n      jump\t// out\n        /* \"contracts/Ballot/MyBallot.sol\":461:490  Candidate[] public candidates */\n    tag_16:\n      0x02\n      dup2\n      dup2\n      sload\n      dup2\n      lt\n      tag_36\n      jumpi\n      0x00\n      dup1\n      revert\n    tag_36:\n      swap1\n      0x00\n      mstore\n      keccak256(0x00, 0x20)\n      swap1\n      0x03\n      mul\n      add\n      0x00\n      swap2\n      pop\n      swap1\n      pop\n      dup1\n      0x00\n      add\n      dup1\n      sload\n      tag_38\n      swap1\n      tag_39\n      jump\t// in\n    tag_38:\n      dup1\n      0x1f\n      add\n      0x20\n      dup1\n      swap2\n      div\n      mul\n      0x20\n      add\n      mload(0x40)\n      swap1\n      dup2\n      add\n      0x40\n      mstore\n      dup1\n      swap3\n      swap2\n      swap1\n      dup2\n      dup2\n      mstore\n      0x20\n      add\n      dup3\n      dup1\n      sload\n      tag_40\n      swap1\n      tag_39\n      jump\t// in\n    tag_40:\n      dup1\n      iszero\n      tag_41\n      jumpi\n      dup1\n      0x1f\n      lt\n      tag_42\n      jumpi\n      0x0100\n      dup1\n      dup4\n      sload\n      div\n      mul\n      dup4\n      mstore\n      swap2\n      0x20\n      add\n      swap2\n      jump(tag_41)\n    tag_42:\n      dup3\n      add\n      swap2\n      swap1\n      0x00\n      mstore\n      keccak256(0x00, 0x20)\n      swap1\n    tag_43:\n      dup2\n      sload\n      dup2\n      mstore\n      swap1\n      0x01\n      add\n      swap1\n      0x20\n      add\n      dup1\n      dup4\n      gt\n      tag_43\n      jumpi\n      dup3\n      swap1\n      sub\n      0x1f\n      and\n      dup3\n      add\n      swap2\n    tag_41:\n      pop\n      pop\n      pop\n      pop\n      pop\n      swap1\n      dup1\n      0x01\n      add\n      dup1\n      sload\n      tag_44\n      swap1\n      tag_39\n      jump\t// in\n    tag_44:\n      dup1\n      0x1f\n      add\n      0x20\n      dup1\n      swap2\n      div\n      mul\n      0x20\n      add\n      mload(0x40)\n      swap1\n      dup2\n      add\n      0x40\n      mstore\n      dup1\n      swap3\n      swap2\n      swap1\n      dup2\n      dup2\n      mstore\n      0x20\n      add\n      dup3\n      dup1\n      sload\n      tag_45\n      swap1\n      tag_39\n      jump\t// in\n    tag_45:\n      dup1\n      iszero\n      tag_46\n      jumpi\n      dup1\n      0x1f\n      lt\n      tag_47\n      jumpi\n      0x0100\n      dup1\n      dup4\n      sload\n      div\n      mul\n      dup4\n      mstore\n      swap2\n      0x20\n      add\n      swap2\n      jump(tag_46)\n    tag_47:\n      dup3\n      add\n      swap2\n      swap1\n      0x00\n      mstore\n      keccak256(0x00, 0x20)\n      swap1\n    tag_48:\n      dup2\n      sload\n      dup2\n      mstore\n      swap1\n      0x01\n      add\n      swap1\n      0x20\n      add\n      dup1\n      dup4\n      gt\n      tag_48\n      jumpi\n      dup3\n      swap1\n      sub\n      0x1f\n      and\n      dup3\n      add\n      swap2\n    tag_46:\n      pop\n      pop\n      pop\n      pop\n      pop\n      swap1\n      dup1\n      0x02\n      add\n      sload\n      swap1\n      pop\n      dup4\n      jump\t// out\n        /* \"contracts/Ballot/MyBallot.sol\":2494:2600  function getCandidatesList() public view returns (Candidate[] memory) {... */\n    tag_20:\n        /* \"contracts/Ballot/MyBallot.sol\":2544:2562  Candidate[] memory */\n      0x60\n        /* \"contracts/Ballot/MyBallot.sol\":2582:2592  candidates */\n      0x02\n        /* \"contracts/Ballot/MyBallot.sol\":2575:2592  return candidates */\n      dup1\n      sload\n      dup1\n      0x20\n      mul\n      0x20\n      add\n      mload(0x40)\n      swap1\n      dup2\n      add\n      0x40\n      mstore\n      dup1\n      swap3\n      swap2\n      swap1\n      dup2\n      dup2\n      mstore\n      0x20\n      add\n      0x00\n      swap1\n    tag_50:\n      dup3\n      dup3\n      lt\n      iszero\n      tag_51\n      jumpi\n      dup4\n      dup3\n      swap1\n      0x00\n      mstore\n      keccak256(0x00, 0x20)\n      swap1\n      0x03\n      mul\n      add\n      mload(0x40)\n      dup1\n      0x60\n      add\n      0x40\n      mstore\n      swap1\n      dup2\n      0x00\n      dup3\n      add\n      dup1\n      sload\n      tag_53\n      swap1\n      tag_39\n      jump\t// in\n    tag_53:\n      dup1\n      0x1f\n      add\n      0x20\n      dup1\n      swap2\n      div\n      mul\n      0x20\n      add\n      mload(0x40)\n      swap1\n      dup2\n      add\n      0x40\n      mstore\n      dup1\n      swap3\n      swap2\n      swap1\n      dup2\n      dup2\n      mstore\n      0x20\n      add\n      dup3\n      dup1\n      sload\n      tag_54\n      swap1\n      tag_39\n      jump\t// in\n    tag_54:\n      dup1\n      iszero\n      tag_55\n      jumpi\n      dup1\n      0x1f\n      lt\n      tag_56\n      jumpi\n      0x0100\n      dup1\n      dup4\n      sload\n      div\n      mul\n      dup4\n      mstore\n      swap2\n      0x20\n      add\n      swap2\n      jump(tag_55)\n    tag_56:\n      dup3\n      add\n      swap2\n      swap1\n      0x00\n      mstore\n      keccak256(0x00, 0x20)\n      swap1\n    tag_57:\n      dup2\n      sload\n      dup2\n      mstore\n      swap1\n      0x01\n      add\n      swap1\n      0x20\n      add\n      dup1\n      dup4\n      gt\n      tag_57\n      jumpi\n      dup3\n      swap1\n      sub\n      0x1f\n      and\n      dup3\n      add\n      swap2\n    tag_55:\n      pop\n      pop\n      pop\n      pop\n      pop\n      dup2\n      mstore\n      0x20\n      add\n      0x01\n      dup3\n      add\n      dup1\n      sload\n      tag_58\n      swap1\n      tag_39\n      jump\t// in\n    tag_58:\n      dup1\n      0x1f\n      add\n      0x20\n      dup1\n      swap2\n      div\n      mul\n      0x20\n      add\n      mload(0x40)\n      swap1\n      dup2\n      add\n      0x40\n      mstore\n      dup1\n      swap3\n      swap2\n      swap1\n      dup2\n      dup2\n      mstore\n      0x20\n      add\n      dup3\n      dup1\n      sload\n      tag_59\n      swap1\n      tag_39\n      jump\t// in\n    tag_59:\n      dup1\n      iszero\n      tag_60\n      jumpi\n      dup1\n      0x1f\n      lt\n      tag_61\n      jumpi\n      0x0100\n      dup1\n      dup4\n      sload\n      div\n      mul\n      dup4\n      mstore\n      swap2\n      0x20\n      add\n      swap2\n      jump(tag_60)\n    tag_61:\n      dup3\n      add\n      swap2\n      swap1\n      0x00\n      mstore\n      keccak256(0x00, 0x20)\n      swap1\n    tag_62:\n      dup2\n      sload\n      dup2\n      mstore\n      swap1\n      0x01\n      add\n      swap1\n      0x20\n      add\n      dup1\n      dup4\n      gt\n      tag_62\n      jumpi\n      dup3\n      swap1\n      sub\n      0x1f\n      and\n      dup3\n      add\n      swap2\n    tag_60:\n      pop\n      pop\n      pop\n      pop\n      pop\n      dup2\n      mstore\n      0x20\n      add\n      0x02\n      dup3\n      add\n      sload\n      dup2\n      mstore\n      pop\n      pop\n      dup2\n      mstore\n      0x20\n      add\n      swap1\n      0x01\n      add\n      swap1\n      jump(tag_50)\n    tag_51:\n      pop\n      pop\n      pop\n      pop\n      swap1\n      pop\n        /* \"contracts/Ballot/MyBallot.sol\":2494:2600  function getCandidatesList() public view returns (Candidate[] memory) {... */\n      swap1\n      jump\t// out\n        /* \"contracts/Ballot/MyBallot.sol\":948:1286  function giveRightToVote(address voter) public {... */\n    tag_26:\n        /* \"contracts/Ballot/MyBallot.sol\":1042:1055  contractOwner */\n      0x00\n      dup1\n      sload\n      swap1\n      0x0100\n      exp\n      swap1\n      div\n      0xffffffffffffffffffffffffffffffffffffffff\n      and\n        /* \"contracts/Ballot/MyBallot.sol\":1028:1055  msg.sender == contractOwner */\n      0xffffffffffffffffffffffffffffffffffffffff\n      and\n        /* \"contracts/Ballot/MyBallot.sol\":1028:1038  msg.sender */\n      caller\n        /* \"contracts/Ballot/MyBallot.sol\":1028:1055  msg.sender == contractOwner */\n      0xffffffffffffffffffffffffffffffffffffffff\n      and\n      eq\n        /* \"contracts/Ballot/MyBallot.sol\":1006:1130  require(... */\n      tag_64\n      jumpi\n      mload(0x40)\n      0x08c379a000000000000000000000000000000000000000000000000000000000\n      dup2\n      mstore\n      0x04\n      add\n      tag_65\n      swap1\n      tag_66\n      jump\t// in\n    tag_65:\n      mload(0x40)\n      dup1\n      swap2\n      sub\n      swap1\n      revert\n    tag_64:\n        /* \"contracts/Ballot/MyBallot.sol\":1164:1170  voters */\n      0x01\n        /* \"contracts/Ballot/MyBallot.sol\":1164:1177  voters[voter] */\n      0x00\n        /* \"contracts/Ballot/MyBallot.sol\":1171:1176  voter */\n      dup3\n        /* \"contracts/Ballot/MyBallot.sol\":1164:1177  voters[voter] */\n      0xffffffffffffffffffffffffffffffffffffffff\n      and\n      0xffffffffffffffffffffffffffffffffffffffff\n      and\n      dup2\n      mstore\n      0x20\n      add\n      swap1\n      dup2\n      mstore\n      0x20\n      add\n      0x00\n      keccak256\n        /* \"contracts/Ballot/MyBallot.sol\":1164:1186  voters[voter].hasVoted */\n      0x00\n      add\n      0x01\n      swap1\n      sload\n      swap1\n      0x0100\n      exp\n      swap1\n      div\n      0xff\n      and\n        /* \"contracts/Ballot/MyBallot.sol\":1163:1186  !voters[voter].hasVoted */\n      iszero\n        /* \"contracts/Ballot/MyBallot.sol\":1141:1238  require(... */\n      tag_67\n      jumpi\n      mload(0x40)\n      0x08c379a000000000000000000000000000000000000000000000000000000000\n      dup2\n      mstore\n      0x04\n      add\n      tag_68\n      swap1\n      tag_69\n      jump\t// in\n    tag_68:\n      mload(0x40)\n      dup1\n      swap2\n      sub\n      swap1\n      revert\n    tag_67:\n        /* \"contracts/Ballot/MyBallot.sol\":1273:1278  false */\n      0x00\n        /* \"contracts/Ballot/MyBallot.sol\":1249:1255  voters */\n      0x01\n        /* \"contracts/Ballot/MyBallot.sol\":1249:1262  voters[voter] */\n      0x00\n        /* \"contracts/Ballot/MyBallot.sol\":1256:1261  voter */\n      dup4\n        /* \"contracts/Ballot/MyBallot.sol\":1249:1262  voters[voter] */\n      0xffffffffffffffffffffffffffffffffffffffff\n      and\n      0xffffffffffffffffffffffffffffffffffffffff\n      and\n      dup2\n      mstore\n      0x20\n      add\n      swap1\n      dup2\n      mstore\n      0x20\n      add\n      0x00\n      keccak256\n        /* \"contracts/Ballot/MyBallot.sol\":1249:1270  voters[voter].canVote */\n      0x00\n      add\n      0x00\n        /* \"contracts/Ballot/MyBallot.sol\":1249:1278  voters[voter].canVote = false */\n      0x0100\n      exp\n      dup2\n      sload\n      dup2\n      0xff\n      mul\n      not\n      and\n      swap1\n      dup4\n      iszero\n      iszero\n      mul\n      or\n      swap1\n      sstore\n      pop\n        /* \"contracts/Ballot/MyBallot.sol\":948:1286  function giveRightToVote(address voter) public {... */\n      pop\n      jump\t// out\n        /* \"contracts/Ballot/MyBallot.sol\":413:452  mapping(address => Voter) public voters */\n    tag_29:\n      mstore(0x20, 0x01)\n      dup1\n      0x00\n      mstore\n      keccak256(0x00, 0x40)\n      0x00\n      swap2\n      pop\n      swap1\n      pop\n      dup1\n      0x00\n      add\n      0x00\n      swap1\n      sload\n      swap1\n      0x0100\n      exp\n      swap1\n      div\n      0xff\n      and\n      swap1\n      dup1\n      0x00\n      add\n      0x01\n      swap1\n      sload\n      swap1\n      0x0100\n      exp\n      swap1\n      div\n      0xff\n      and\n      swap1\n      pop\n      dup3\n      jump\t// out\n        /* \"contracts/Ballot/MyBallot.sol\":376:404  address public contractOwner */\n    tag_33:\n      0x00\n      dup1\n      sload\n      swap1\n      0x0100\n      exp\n      swap1\n      div\n      0xffffffffffffffffffffffffffffffffffffffff\n      and\n      dup2\n      jump\t// out\n        /* \"#utility.yul\":7:133   */\n    tag_70:\n        /* \"#utility.yul\":44:51   */\n      0x00\n        /* \"#utility.yul\":84:126   */\n      0xffffffffffffffffffffffffffffffffffffffff\n        /* \"#utility.yul\":77:82   */\n      dup3\n        /* \"#utility.yul\":73:127   */\n      and\n        /* \"#utility.yul\":62:127   */\n      swap1\n      pop\n        /* \"#utility.yul\":7:133   */\n      swap2\n      swap1\n      pop\n      jump\t// out\n        /* \"#utility.yul\":139:235   */\n    tag_71:\n        /* \"#utility.yul\":176:183   */\n      0x00\n        /* \"#utility.yul\":205:229   */\n      tag_107\n        /* \"#utility.yul\":223:228   */\n      dup3\n        /* \"#utility.yul\":205:229   */\n      tag_70\n      jump\t// in\n    tag_107:\n        /* \"#utility.yul\":194:229   */\n      swap1\n      pop\n        /* \"#utility.yul\":139:235   */\n      swap2\n      swap1\n      pop\n      jump\t// out\n        /* \"#utility.yul\":241:359   */\n    tag_72:\n        /* \"#utility.yul\":328:352   */\n      tag_109\n        /* \"#utility.yul\":346:351   */\n      dup2\n        /* \"#utility.yul\":328:352   */\n      tag_71\n      jump\t// in\n    tag_109:\n        /* \"#utility.yul\":323:326   */\n      dup3\n        /* \"#utility.yul\":316:353   */\n      mstore\n        /* \"#utility.yul\":241:359   */\n      pop\n      pop\n      jump\t// out\n        /* \"#utility.yul\":365:587   */\n    tag_12:\n        /* \"#utility.yul\":458:462   */\n      0x00\n        /* \"#utility.yul\":496:498   */\n      0x20\n        /* \"#utility.yul\":485:494   */\n      dup3\n        /* \"#utility.yul\":481:499   */\n      add\n        /* \"#utility.yul\":473:499   */\n      swap1\n      pop\n        /* \"#utility.yul\":509:580   */\n      tag_111\n        /* \"#utility.yul\":577:578   */\n      0x00\n        /* \"#utility.yul\":566:575   */\n      dup4\n        /* \"#utility.yul\":562:579   */\n      add\n        /* \"#utility.yul\":553:559   */\n      dup5\n        /* \"#utility.yul\":509:580   */\n      tag_72\n      jump\t// in\n    tag_111:\n        /* \"#utility.yul\":365:587   */\n      swap3\n      swap2\n      pop\n      pop\n      jump\t// out\n        /* \"#utility.yul\":674:791   */\n    tag_74:\n        /* \"#utility.yul\":783:784   */\n      0x00\n        /* \"#utility.yul\":780:781   */\n      dup1\n        /* \"#utility.yul\":773:785   */\n      revert\n        /* \"#utility.yul\":920:997   */\n    tag_76:\n        /* \"#utility.yul\":957:964   */\n      0x00\n        /* \"#utility.yul\":986:991   */\n      dup2\n        /* \"#utility.yul\":975:991   */\n      swap1\n      pop\n        /* \"#utility.yul\":920:997   */\n      swap2\n      swap1\n      pop\n      jump\t// out\n        /* \"#utility.yul\":1003:1125   */\n    tag_77:\n        /* \"#utility.yul\":1076:1100   */\n      tag_117\n        /* \"#utility.yul\":1094:1099   */\n      dup2\n        /* \"#utility.yul\":1076:1100   */\n      tag_76\n      jump\t// in\n    tag_117:\n        /* \"#utility.yul\":1069:1074   */\n      dup2\n        /* \"#utility.yul\":1066:1101   */\n      eq\n        /* \"#utility.yul\":1056:1119   */\n      tag_118\n      jumpi\n        /* \"#utility.yul\":1115:1116   */\n      0x00\n        /* \"#utility.yul\":1112:1113   */\n      dup1\n        /* \"#utility.yul\":1105:1117   */\n      revert\n        /* \"#utility.yul\":1056:1119   */\n    tag_118:\n        /* \"#utility.yul\":1003:1125   */\n      pop\n      jump\t// out\n        /* \"#utility.yul\":1131:1270   */\n    tag_78:\n        /* \"#utility.yul\":1177:1182   */\n      0x00\n        /* \"#utility.yul\":1215:1221   */\n      dup2\n        /* \"#utility.yul\":1202:1222   */\n      calldataload\n        /* \"#utility.yul\":1193:1222   */\n      swap1\n      pop\n        /* \"#utility.yul\":1231:1264   */\n      tag_120\n        /* \"#utility.yul\":1258:1263   */\n      dup2\n        /* \"#utility.yul\":1231:1264   */\n      tag_77\n      jump\t// in\n    tag_120:\n        /* \"#utility.yul\":1131:1270   */\n      swap3\n      swap2\n      pop\n      pop\n      jump\t// out\n        /* \"#utility.yul\":1276:1605   */\n    tag_15:\n        /* \"#utility.yul\":1335:1341   */\n      0x00\n        /* \"#utility.yul\":1384:1386   */\n      0x20\n        /* \"#utility.yul\":1372:1381   */\n      dup3\n        /* \"#utility.yul\":1363:1370   */\n      dup5\n        /* \"#utility.yul\":1359:1382   */\n      sub\n        /* \"#utility.yul\":1355:1387   */\n      slt\n        /* \"#utility.yul\":1352:1471   */\n      iszero\n      tag_122\n      jumpi\n        /* \"#utility.yul\":1390:1469   */\n      tag_123\n      tag_74\n      jump\t// in\n    tag_123:\n        /* \"#utility.yul\":1352:1471   */\n    tag_122:\n        /* \"#utility.yul\":1510:1511   */\n      0x00\n        /* \"#utility.yul\":1535:1588   */\n      tag_124\n        /* \"#utility.yul\":1580:1587   */\n      dup5\n        /* \"#utility.yul\":1571:1577   */\n      dup3\n        /* \"#utility.yul\":1560:1569   */\n      dup6\n        /* \"#utility.yul\":1556:1578   */\n      add\n        /* \"#utility.yul\":1535:1588   */\n      tag_78\n      jump\t// in\n    tag_124:\n        /* \"#utility.yul\":1525:1588   */\n      swap2\n      pop\n        /* \"#utility.yul\":1481:1598   */\n      pop\n        /* \"#utility.yul\":1276:1605   */\n      swap3\n      swap2\n      pop\n      pop\n      jump\t// out\n        /* \"#utility.yul\":1611:1710   */\n    tag_79:\n        /* \"#utility.yul\":1663:1669   */\n      0x00\n        /* \"#utility.yul\":1697:1702   */\n      dup2\n        /* \"#utility.yul\":1691:1703   */\n      mload\n        /* \"#utility.yul\":1681:1703   */\n      swap1\n      pop\n        /* \"#utility.yul\":1611:1710   */\n      swap2\n      swap1\n      pop\n      jump\t// out\n        /* \"#utility.yul\":1716:1885   */\n    tag_80:\n        /* \"#utility.yul\":1800:1811   */\n      0x00\n        /* \"#utility.yul\":1834:1840   */\n      dup3\n        /* \"#utility.yul\":1829:1832   */\n      dup3\n        /* \"#utility.yul\":1822:1841   */\n      mstore\n        /* \"#utility.yul\":1874:1878   */\n      0x20\n        /* \"#utility.yul\":1869:1872   */\n      dup3\n        /* \"#utility.yul\":1865:1879   */\n      add\n        /* \"#utility.yul\":1850:1879   */\n      swap1\n      pop\n        /* \"#utility.yul\":1716:1885   */\n      swap3\n      swap2\n      pop\n      pop\n      jump\t// out\n        /* \"#utility.yul\":1891:2137   */\n    tag_81:\n        /* \"#utility.yul\":1972:1973   */\n      0x00\n        /* \"#utility.yul\":1982:2095   */\n    tag_128:\n        /* \"#utility.yul\":1996:2002   */\n      dup4\n        /* \"#utility.yul\":1993:1994   */\n      dup2\n        /* \"#utility.yul\":1990:2003   */\n      lt\n        /* \"#utility.yul\":1982:2095   */\n      iszero\n      tag_130\n      jumpi\n        /* \"#utility.yul\":2081:2082   */\n      dup1\n        /* \"#utility.yul\":2076:2079   */\n      dup3\n        /* \"#utility.yul\":2072:2083   */\n      add\n        /* \"#utility.yul\":2066:2084   */\n      mload\n        /* \"#utility.yul\":2062:2063   */\n      dup2\n        /* \"#utility.yul\":2057:2060   */\n      dup5\n        /* \"#utility.yul\":2053:2064   */\n      add\n        /* \"#utility.yul\":2046:2085   */\n      mstore\n        /* \"#utility.yul\":2018:2020   */\n      0x20\n        /* \"#utility.yul\":2015:2016   */\n      dup2\n        /* \"#utility.yul\":2011:2021   */\n      add\n        /* \"#utility.yul\":2006:2021   */\n      swap1\n      pop\n        /* \"#utility.yul\":1982:2095   */\n      jump(tag_128)\n    tag_130:\n        /* \"#utility.yul\":2129:2130   */\n      0x00\n        /* \"#utility.yul\":2120:2126   */\n      dup5\n        /* \"#utility.yul\":2115:2118   */\n      dup5\n        /* \"#utility.yul\":2111:2127   */\n      add\n        /* \"#utility.yul\":2104:2131   */\n      mstore\n        /* \"#utility.yul\":1953:2137   */\n      pop\n        /* \"#utility.yul\":1891:2137   */\n      pop\n      pop\n      pop\n      jump\t// out\n        /* \"#utility.yul\":2143:2245   */\n    tag_82:\n        /* \"#utility.yul\":2184:2190   */\n      0x00\n        /* \"#utility.yul\":2235:2237   */\n      0x1f\n        /* \"#utility.yul\":2231:2238   */\n      not\n        /* \"#utility.yul\":2226:2228   */\n      0x1f\n        /* \"#utility.yul\":2219:2224   */\n      dup4\n        /* \"#utility.yul\":2215:2229   */\n      add\n        /* \"#utility.yul\":2211:2239   */\n      and\n        /* \"#utility.yul\":2201:2239   */\n      swap1\n      pop\n        /* \"#utility.yul\":2143:2245   */\n      swap2\n      swap1\n      pop\n      jump\t// out\n        /* \"#utility.yul\":2251:2628   */\n    tag_83:\n        /* \"#utility.yul\":2339:2342   */\n      0x00\n        /* \"#utility.yul\":2367:2406   */\n      tag_133\n        /* \"#utility.yul\":2400:2405   */\n      dup3\n        /* \"#utility.yul\":2367:2406   */\n      tag_79\n      jump\t// in\n    tag_133:\n        /* \"#utility.yul\":2422:2493   */\n      tag_134\n        /* \"#utility.yul\":2486:2492   */\n      dup2\n        /* \"#utility.yul\":2481:2484   */\n      dup6\n        /* \"#utility.yul\":2422:2493   */\n      tag_80\n      jump\t// in\n    tag_134:\n        /* \"#utility.yul\":2415:2493   */\n      swap4\n      pop\n        /* \"#utility.yul\":2502:2567   */\n      tag_135\n        /* \"#utility.yul\":2560:2566   */\n      dup2\n        /* \"#utility.yul\":2555:2558   */\n      dup6\n        /* \"#utility.yul\":2548:2552   */\n      0x20\n        /* \"#utility.yul\":2541:2546   */\n      dup7\n        /* \"#utility.yul\":2537:2553   */\n      add\n        /* \"#utility.yul\":2502:2567   */\n      tag_81\n      jump\t// in\n    tag_135:\n        /* \"#utility.yul\":2592:2621   */\n      tag_136\n        /* \"#utility.yul\":2614:2620   */\n      dup2\n        /* \"#utility.yul\":2592:2621   */\n      tag_82\n      jump\t// in\n    tag_136:\n        /* \"#utility.yul\":2587:2590   */\n      dup5\n        /* \"#utility.yul\":2583:2622   */\n      add\n        /* \"#utility.yul\":2576:2622   */\n      swap2\n      pop\n        /* \"#utility.yul\":2343:2628   */\n      pop\n        /* \"#utility.yul\":2251:2628   */\n      swap3\n      swap2\n      pop\n      pop\n      jump\t// out\n        /* \"#utility.yul\":2634:2752   */\n    tag_84:\n        /* \"#utility.yul\":2721:2745   */\n      tag_138\n        /* \"#utility.yul\":2739:2744   */\n      dup2\n        /* \"#utility.yul\":2721:2745   */\n      tag_76\n      jump\t// in\n    tag_138:\n        /* \"#utility.yul\":2716:2719   */\n      dup3\n        /* \"#utility.yul\":2709:2746   */\n      mstore\n        /* \"#utility.yul\":2634:2752   */\n      pop\n      pop\n      jump\t// out\n        /* \"#utility.yul\":2758:3382   */\n    tag_18:\n        /* \"#utility.yul\":2947:2951   */\n      0x00\n        /* \"#utility.yul\":2985:2987   */\n      0x60\n        /* \"#utility.yul\":2974:2983   */\n      dup3\n        /* \"#utility.yul\":2970:2988   */\n      add\n        /* \"#utility.yul\":2962:2988   */\n      swap1\n      pop\n        /* \"#utility.yul\":3034:3043   */\n      dup2\n        /* \"#utility.yul\":3028:3032   */\n      dup2\n        /* \"#utility.yul\":3024:3044   */\n      sub\n        /* \"#utility.yul\":3020:3021   */\n      0x00\n        /* \"#utility.yul\":3009:3018   */\n      dup4\n        /* \"#utility.yul\":3005:3022   */\n      add\n        /* \"#utility.yul\":2998:3045   */\n      mstore\n        /* \"#utility.yul\":3062:3140   */\n      tag_140\n        /* \"#utility.yul\":3135:3139   */\n      dup2\n        /* \"#utility.yul\":3126:3132   */\n      dup7\n        /* \"#utility.yul\":3062:3140   */\n      tag_83\n      jump\t// in\n    tag_140:\n        /* \"#utility.yul\":3054:3140   */\n      swap1\n      pop\n        /* \"#utility.yul\":3187:3196   */\n      dup2\n        /* \"#utility.yul\":3181:3185   */\n      dup2\n        /* \"#utility.yul\":3177:3197   */\n      sub\n        /* \"#utility.yul\":3172:3174   */\n      0x20\n        /* \"#utility.yul\":3161:3170   */\n      dup4\n        /* \"#utility.yul\":3157:3175   */\n      add\n        /* \"#utility.yul\":3150:3198   */\n      mstore\n        /* \"#utility.yul\":3215:3293   */\n      tag_141\n        /* \"#utility.yul\":3288:3292   */\n      dup2\n        /* \"#utility.yul\":3279:3285   */\n      dup6\n        /* \"#utility.yul\":3215:3293   */\n      tag_83\n      jump\t// in\n    tag_141:\n        /* \"#utility.yul\":3207:3293   */\n      swap1\n      pop\n        /* \"#utility.yul\":3303:3375   */\n      tag_142\n        /* \"#utility.yul\":3371:3373   */\n      0x40\n        /* \"#utility.yul\":3360:3369   */\n      dup4\n        /* \"#utility.yul\":3356:3374   */\n      add\n        /* \"#utility.yul\":3347:3353   */\n      dup5\n        /* \"#utility.yul\":3303:3375   */\n      tag_84\n      jump\t// in\n    tag_142:\n        /* \"#utility.yul\":2758:3382   */\n      swap5\n      swap4\n      pop\n      pop\n      pop\n      pop\n      jump\t// out\n        /* \"#utility.yul\":3388:3527   */\n    tag_85:\n        /* \"#utility.yul\":3480:3486   */\n      0x00\n        /* \"#utility.yul\":3514:3519   */\n      dup2\n        /* \"#utility.yul\":3508:3520   */\n      mload\n        /* \"#utility.yul\":3498:3520   */\n      swap1\n      pop\n        /* \"#utility.yul\":3388:3527   */\n      swap2\n      swap1\n      pop\n      jump\t// out\n        /* \"#utility.yul\":3533:3742   */\n    tag_86:\n        /* \"#utility.yul\":3657:3668   */\n      0x00\n        /* \"#utility.yul\":3691:3697   */\n      dup3\n        /* \"#utility.yul\":3686:3689   */\n      dup3\n        /* \"#utility.yul\":3679:3698   */\n      mstore\n        /* \"#utility.yul\":3731:3735   */\n      0x20\n        /* \"#utility.yul\":3726:3729   */\n      dup3\n        /* \"#utility.yul\":3722:3736   */\n      add\n        /* \"#utility.yul\":3707:3736   */\n      swap1\n      pop\n        /* \"#utility.yul\":3533:3742   */\n      swap3\n      swap2\n      pop\n      pop\n      jump\t// out\n        /* \"#utility.yul\":3748:3905   */\n    tag_87:\n        /* \"#utility.yul\":3840:3844   */\n      0x00\n        /* \"#utility.yul\":3863:3866   */\n      dup2\n        /* \"#utility.yul\":3855:3866   */\n      swap1\n      pop\n        /* \"#utility.yul\":3893:3897   */\n      0x20\n        /* \"#utility.yul\":3888:3891   */\n      dup3\n        /* \"#utility.yul\":3884:3898   */\n      add\n        /* \"#utility.yul\":3876:3898   */\n      swap1\n      pop\n        /* \"#utility.yul\":3748:3905   */\n      swap2\n      swap1\n      pop\n      jump\t// out\n        /* \"#utility.yul\":3911:4070   */\n    tag_88:\n        /* \"#utility.yul\":3985:3996   */\n      0x00\n        /* \"#utility.yul\":4019:4025   */\n      dup3\n        /* \"#utility.yul\":4014:4017   */\n      dup3\n        /* \"#utility.yul\":4007:4026   */\n      mstore\n        /* \"#utility.yul\":4059:4063   */\n      0x20\n        /* \"#utility.yul\":4054:4057   */\n      dup3\n        /* \"#utility.yul\":4050:4064   */\n      add\n        /* \"#utility.yul\":4035:4064   */\n      swap1\n      pop\n        /* \"#utility.yul\":3911:4070   */\n      swap3\n      swap2\n      pop\n      pop\n      jump\t// out\n        /* \"#utility.yul\":4076:4433   */\n    tag_89:\n        /* \"#utility.yul\":4154:4157   */\n      0x00\n        /* \"#utility.yul\":4182:4221   */\n      tag_148\n        /* \"#utility.yul\":4215:4220   */\n      dup3\n        /* \"#utility.yul\":4182:4221   */\n      tag_79\n      jump\t// in\n    tag_148:\n        /* \"#utility.yul\":4237:4298   */\n      tag_149\n        /* \"#utility.yul\":4291:4297   */\n      dup2\n        /* \"#utility.yul\":4286:4289   */\n      dup6\n        /* \"#utility.yul\":4237:4298   */\n      tag_88\n      jump\t// in\n    tag_149:\n        /* \"#utility.yul\":4230:4298   */\n      swap4\n      pop\n        /* \"#utility.yul\":4307:4372   */\n      tag_150\n        /* \"#utility.yul\":4365:4371   */\n      dup2\n        /* \"#utility.yul\":4360:4363   */\n      dup6\n        /* \"#utility.yul\":4353:4357   */\n      0x20\n        /* \"#utility.yul\":4346:4351   */\n      dup7\n        /* \"#utility.yul\":4342:4358   */\n      add\n        /* \"#utility.yul\":4307:4372   */\n      tag_81\n      jump\t// in\n    tag_150:\n        /* \"#utility.yul\":4397:4426   */\n      tag_151\n        /* \"#utility.yul\":4419:4425   */\n      dup2\n        /* \"#utility.yul\":4397:4426   */\n      tag_82\n      jump\t// in\n    tag_151:\n        /* \"#utility.yul\":4392:4395   */\n      dup5\n        /* \"#utility.yul\":4388:4427   */\n      add\n        /* \"#utility.yul\":4381:4427   */\n      swap2\n      pop\n        /* \"#utility.yul\":4158:4433   */\n      pop\n        /* \"#utility.yul\":4076:4433   */\n      swap3\n      swap2\n      pop\n      pop\n      jump\t// out\n        /* \"#utility.yul\":4439:4547   */\n    tag_90:\n        /* \"#utility.yul\":4516:4540   */\n      tag_153\n        /* \"#utility.yul\":4534:4539   */\n      dup2\n        /* \"#utility.yul\":4516:4540   */\n      tag_76\n      jump\t// in\n    tag_153:\n        /* \"#utility.yul\":4511:4514   */\n      dup3\n        /* \"#utility.yul\":4504:4541   */\n      mstore\n        /* \"#utility.yul\":4439:4547   */\n      pop\n      pop\n      jump\t// out\n        /* \"#utility.yul\":4615:5463   */\n    tag_91:\n        /* \"#utility.yul\":4724:4727   */\n      0x00\n        /* \"#utility.yul\":4760:4764   */\n      0x60\n        /* \"#utility.yul\":4755:4758   */\n      dup4\n        /* \"#utility.yul\":4751:4765   */\n      add\n        /* \"#utility.yul\":4847:4851   */\n      0x00\n        /* \"#utility.yul\":4840:4845   */\n      dup4\n        /* \"#utility.yul\":4836:4852   */\n      add\n        /* \"#utility.yul\":4830:4853   */\n      mload\n        /* \"#utility.yul\":4900:4903   */\n      dup5\n        /* \"#utility.yul\":4894:4898   */\n      dup3\n        /* \"#utility.yul\":4890:4904   */\n      sub\n        /* \"#utility.yul\":4883:4887   */\n      0x00\n        /* \"#utility.yul\":4878:4881   */\n      dup7\n        /* \"#utility.yul\":4874:4888   */\n      add\n        /* \"#utility.yul\":4867:4905   */\n      mstore\n        /* \"#utility.yul\":4926:4999   */\n      tag_155\n        /* \"#utility.yul\":4994:4998   */\n      dup3\n        /* \"#utility.yul\":4980:4992   */\n      dup3\n        /* \"#utility.yul\":4926:4999   */\n      tag_89\n      jump\t// in\n    tag_155:\n        /* \"#utility.yul\":4918:4999   */\n      swap2\n      pop\n        /* \"#utility.yul\":4775:5010   */\n      pop\n        /* \"#utility.yul\":5093:5097   */\n      0x20\n        /* \"#utility.yul\":5086:5091   */\n      dup4\n        /* \"#utility.yul\":5082:5098   */\n      add\n        /* \"#utility.yul\":5076:5099   */\n      mload\n        /* \"#utility.yul\":5146:5149   */\n      dup5\n        /* \"#utility.yul\":5140:5144   */\n      dup3\n        /* \"#utility.yul\":5136:5150   */\n      sub\n        /* \"#utility.yul\":5129:5133   */\n      0x20\n        /* \"#utility.yul\":5124:5127   */\n      dup7\n        /* \"#utility.yul\":5120:5134   */\n      add\n        /* \"#utility.yul\":5113:5151   */\n      mstore\n        /* \"#utility.yul\":5172:5245   */\n      tag_156\n        /* \"#utility.yul\":5240:5244   */\n      dup3\n        /* \"#utility.yul\":5226:5238   */\n      dup3\n        /* \"#utility.yul\":5172:5245   */\n      tag_89\n      jump\t// in\n    tag_156:\n        /* \"#utility.yul\":5164:5245   */\n      swap2\n      pop\n        /* \"#utility.yul\":5020:5256   */\n      pop\n        /* \"#utility.yul\":5344:5348   */\n      0x40\n        /* \"#utility.yul\":5337:5342   */\n      dup4\n        /* \"#utility.yul\":5333:5349   */\n      add\n        /* \"#utility.yul\":5327:5350   */\n      mload\n        /* \"#utility.yul\":5363:5426   */\n      tag_157\n        /* \"#utility.yul\":5420:5424   */\n      0x40\n        /* \"#utility.yul\":5415:5418   */\n      dup7\n        /* \"#utility.yul\":5411:5425   */\n      add\n        /* \"#utility.yul\":5397:5409   */\n      dup3\n        /* \"#utility.yul\":5363:5426   */\n      tag_90\n      jump\t// in\n    tag_157:\n        /* \"#utility.yul\":5266:5436   */\n      pop\n        /* \"#utility.yul\":5453:5457   */\n      dup1\n        /* \"#utility.yul\":5446:5457   */\n      swap2\n      pop\n        /* \"#utility.yul\":4729:5463   */\n      pop\n        /* \"#utility.yul\":4615:5463   */\n      swap3\n      swap2\n      pop\n      pop\n      jump\t// out\n        /* \"#utility.yul\":5469:5725   */\n    tag_92:\n        /* \"#utility.yul\":5588:5598   */\n      0x00\n        /* \"#utility.yul\":5623:5719   */\n      tag_159\n        /* \"#utility.yul\":5715:5718   */\n      dup4\n        /* \"#utility.yul\":5707:5713   */\n      dup4\n        /* \"#utility.yul\":5623:5719   */\n      tag_91\n      jump\t// in\n    tag_159:\n        /* \"#utility.yul\":5609:5719   */\n      swap1\n      pop\n        /* \"#utility.yul\":5469:5725   */\n      swap3\n      swap2\n      pop\n      pop\n      jump\t// out\n        /* \"#utility.yul\":5731:5869   */\n    tag_93:\n        /* \"#utility.yul\":5826:5830   */\n      0x00\n        /* \"#utility.yul\":5858:5862   */\n      0x20\n        /* \"#utility.yul\":5853:5856   */\n      dup3\n        /* \"#utility.yul\":5849:5863   */\n      add\n        /* \"#utility.yul\":5841:5863   */\n      swap1\n      pop\n        /* \"#utility.yul\":5731:5869   */\n      swap2\n      swap1\n      pop\n      jump\t// out\n        /* \"#utility.yul\":5941:7052   */\n    tag_94:\n        /* \"#utility.yul\":6110:6113   */\n      0x00\n        /* \"#utility.yul\":6139:6218   */\n      tag_162\n        /* \"#utility.yul\":6212:6217   */\n      dup3\n        /* \"#utility.yul\":6139:6218   */\n      tag_85\n      jump\t// in\n    tag_162:\n        /* \"#utility.yul\":6234:6345   */\n      tag_163\n        /* \"#utility.yul\":6338:6344   */\n      dup2\n        /* \"#utility.yul\":6333:6336   */\n      dup6\n        /* \"#utility.yul\":6234:6345   */\n      tag_86\n      jump\t// in\n    tag_163:\n        /* \"#utility.yul\":6227:6345   */\n      swap4\n      pop\n        /* \"#utility.yul\":6371:6374   */\n      dup4\n        /* \"#utility.yul\":6416:6420   */\n      0x20\n        /* \"#utility.yul\":6408:6414   */\n      dup3\n        /* \"#utility.yul\":6404:6421   */\n      mul\n        /* \"#utility.yul\":6399:6402   */\n      dup6\n        /* \"#utility.yul\":6395:6422   */\n      add\n        /* \"#utility.yul\":6446:6527   */\n      tag_164\n        /* \"#utility.yul\":6521:6526   */\n      dup6\n        /* \"#utility.yul\":6446:6527   */\n      tag_87\n      jump\t// in\n    tag_164:\n        /* \"#utility.yul\":6550:6557   */\n      dup1\n        /* \"#utility.yul\":6581:6582   */\n      0x00\n        /* \"#utility.yul\":6566:7007   */\n    tag_165:\n        /* \"#utility.yul\":6591:6597   */\n      dup6\n        /* \"#utility.yul\":6588:6589   */\n      dup2\n        /* \"#utility.yul\":6585:6598   */\n      lt\n        /* \"#utility.yul\":6566:7007   */\n      iszero\n      tag_167\n      jumpi\n        /* \"#utility.yul\":6662:6671   */\n      dup5\n        /* \"#utility.yul\":6656:6660   */\n      dup5\n        /* \"#utility.yul\":6652:6672   */\n      sub\n        /* \"#utility.yul\":6647:6650   */\n      dup10\n        /* \"#utility.yul\":6640:6673   */\n      mstore\n        /* \"#utility.yul\":6713:6719   */\n      dup2\n        /* \"#utility.yul\":6707:6720   */\n      mload\n        /* \"#utility.yul\":6741:6855   */\n      tag_168\n        /* \"#utility.yul\":6850:6854   */\n      dup6\n        /* \"#utility.yul\":6835:6848   */\n      dup3\n        /* \"#utility.yul\":6741:6855   */\n      tag_92\n      jump\t// in\n    tag_168:\n        /* \"#utility.yul\":6733:6855   */\n      swap5\n      pop\n        /* \"#utility.yul\":6878:6963   */\n      tag_169\n        /* \"#utility.yul\":6956:6962   */\n      dup4\n        /* \"#utility.yul\":6878:6963   */\n      tag_93\n      jump\t// in\n    tag_169:\n        /* \"#utility.yul\":6868:6963   */\n      swap3\n      pop\n        /* \"#utility.yul\":6992:6996   */\n      0x20\n        /* \"#utility.yul\":6987:6990   */\n      dup11\n        /* \"#utility.yul\":6983:6997   */\n      add\n        /* \"#utility.yul\":6976:6997   */\n      swap10\n      pop\n        /* \"#utility.yul\":6626:7007   */\n      pop\n        /* \"#utility.yul\":6613:6614   */\n      0x01\n        /* \"#utility.yul\":6610:6611   */\n      dup2\n        /* \"#utility.yul\":6606:6615   */\n      add\n        /* \"#utility.yul\":6601:6615   */\n      swap1\n      pop\n        /* \"#utility.yul\":6566:7007   */\n      jump(tag_165)\n    tag_167:\n        /* \"#utility.yul\":6570:6584   */\n      pop\n        /* \"#utility.yul\":7023:7027   */\n      dup3\n        /* \"#utility.yul\":7016:7027   */\n      swap8\n      pop\n        /* \"#utility.yul\":7043:7046   */\n      dup8\n        /* \"#utility.yul\":7036:7046   */\n      swap6\n      pop\n        /* \"#utility.yul\":6115:7052   */\n      pop\n      pop\n      pop\n      pop\n      pop\n        /* \"#utility.yul\":5941:7052   */\n      swap3\n      swap2\n      pop\n      pop\n      jump\t// out\n        /* \"#utility.yul\":7058:7531   */\n    tag_22:\n        /* \"#utility.yul\":7251:7255   */\n      0x00\n        /* \"#utility.yul\":7289:7291   */\n      0x20\n        /* \"#utility.yul\":7278:7287   */\n      dup3\n        /* \"#utility.yul\":7274:7292   */\n      add\n        /* \"#utility.yul\":7266:7292   */\n      swap1\n      pop\n        /* \"#utility.yul\":7338:7347   */\n      dup2\n        /* \"#utility.yul\":7332:7336   */\n      dup2\n        /* \"#utility.yul\":7328:7348   */\n      sub\n        /* \"#utility.yul\":7324:7325   */\n      0x00\n        /* \"#utility.yul\":7313:7322   */\n      dup4\n        /* \"#utility.yul\":7309:7326   */\n      add\n        /* \"#utility.yul\":7302:7349   */\n      mstore\n        /* \"#utility.yul\":7366:7524   */\n      tag_171\n        /* \"#utility.yul\":7519:7523   */\n      dup2\n        /* \"#utility.yul\":7510:7516   */\n      dup5\n        /* \"#utility.yul\":7366:7524   */\n      tag_94\n      jump\t// in\n    tag_171:\n        /* \"#utility.yul\":7358:7524   */\n      swap1\n      pop\n        /* \"#utility.yul\":7058:7531   */\n      swap3\n      swap2\n      pop\n      pop\n      jump\t// out\n        /* \"#utility.yul\":7537:7659   */\n    tag_95:\n        /* \"#utility.yul\":7610:7634   */\n      tag_173\n        /* \"#utility.yul\":7628:7633   */\n      dup2\n        /* \"#utility.yul\":7610:7634   */\n      tag_71\n      jump\t// in\n    tag_173:\n        /* \"#utility.yul\":7603:7608   */\n      dup2\n        /* \"#utility.yul\":7600:7635   */\n      eq\n        /* \"#utility.yul\":7590:7653   */\n      tag_174\n      jumpi\n        /* \"#utility.yul\":7649:7650   */\n      0x00\n        /* \"#utility.yul\":7646:7647   */\n      dup1\n        /* \"#utility.yul\":7639:7651   */\n      revert\n        /* \"#utility.yul\":7590:7653   */\n    tag_174:\n        /* \"#utility.yul\":7537:7659   */\n      pop\n      jump\t// out\n        /* \"#utility.yul\":7665:7804   */\n    tag_96:\n        /* \"#utility.yul\":7711:7716   */\n      0x00\n        /* \"#utility.yul\":7749:7755   */\n      dup2\n        /* \"#utility.yul\":7736:7756   */\n      calldataload\n        /* \"#utility.yul\":7727:7756   */\n      swap1\n      pop\n        /* \"#utility.yul\":7765:7798   */\n      tag_176\n        /* \"#utility.yul\":7792:7797   */\n      dup2\n        /* \"#utility.yul\":7765:7798   */\n      tag_95\n      jump\t// in\n    tag_176:\n        /* \"#utility.yul\":7665:7804   */\n      swap3\n      swap2\n      pop\n      pop\n      jump\t// out\n        /* \"#utility.yul\":7810:8139   */\n    tag_25:\n        /* \"#utility.yul\":7869:7875   */\n      0x00\n        /* \"#utility.yul\":7918:7920   */\n      0x20\n        /* \"#utility.yul\":7906:7915   */\n      dup3\n        /* \"#utility.yul\":7897:7904   */\n      dup5\n        /* \"#utility.yul\":7893:7916   */\n      sub\n        /* \"#utility.yul\":7889:7921   */\n      slt\n        /* \"#utility.yul\":7886:8005   */\n      iszero\n      tag_178\n      jumpi\n        /* \"#utility.yul\":7924:8003   */\n      tag_179\n      tag_74\n      jump\t// in\n    tag_179:\n        /* \"#utility.yul\":7886:8005   */\n    tag_178:\n        /* \"#utility.yul\":8044:8045   */\n      0x00\n        /* \"#utility.yul\":8069:8122   */\n      tag_180\n        /* \"#utility.yul\":8114:8121   */\n      dup5\n        /* \"#utility.yul\":8105:8111   */\n      dup3\n        /* \"#utility.yul\":8094:8103   */\n      dup6\n        /* \"#utility.yul\":8090:8112   */\n      add\n        /* \"#utility.yul\":8069:8122   */\n      tag_96\n      jump\t// in\n    tag_180:\n        /* \"#utility.yul\":8059:8122   */\n      swap2\n      pop\n        /* \"#utility.yul\":8015:8132   */\n      pop\n        /* \"#utility.yul\":7810:8139   */\n      swap3\n      swap2\n      pop\n      pop\n      jump\t// out\n        /* \"#utility.yul\":8145:8235   */\n    tag_97:\n        /* \"#utility.yul\":8179:8186   */\n      0x00\n        /* \"#utility.yul\":8222:8227   */\n      dup2\n        /* \"#utility.yul\":8215:8228   */\n      iszero\n        /* \"#utility.yul\":8208:8229   */\n      iszero\n        /* \"#utility.yul\":8197:8229   */\n      swap1\n      pop\n        /* \"#utility.yul\":8145:8235   */\n      swap2\n      swap1\n      pop\n      jump\t// out\n        /* \"#utility.yul\":8241:8350   */\n    tag_98:\n        /* \"#utility.yul\":8322:8343   */\n      tag_183\n        /* \"#utility.yul\":8337:8342   */\n      dup2\n        /* \"#utility.yul\":8322:8343   */\n      tag_97\n      jump\t// in\n    tag_183:\n        /* \"#utility.yul\":8317:8320   */\n      dup3\n        /* \"#utility.yul\":8310:8344   */\n      mstore\n        /* \"#utility.yul\":8241:8350   */\n      pop\n      pop\n      jump\t// out\n        /* \"#utility.yul\":8356:8664   */\n    tag_31:\n        /* \"#utility.yul\":8465:8469   */\n      0x00\n        /* \"#utility.yul\":8503:8505   */\n      0x40\n        /* \"#utility.yul\":8492:8501   */\n      dup3\n        /* \"#utility.yul\":8488:8506   */\n      add\n        /* \"#utility.yul\":8480:8506   */\n      swap1\n      pop\n        /* \"#utility.yul\":8516:8581   */\n      tag_185\n        /* \"#utility.yul\":8578:8579   */\n      0x00\n        /* \"#utility.yul\":8567:8576   */\n      dup4\n        /* \"#utility.yul\":8563:8580   */\n      add\n        /* \"#utility.yul\":8554:8560   */\n      dup6\n        /* \"#utility.yul\":8516:8581   */\n      tag_98\n      jump\t// in\n    tag_185:\n        /* \"#utility.yul\":8591:8657   */\n      tag_186\n        /* \"#utility.yul\":8653:8655   */\n      0x20\n        /* \"#utility.yul\":8642:8651   */\n      dup4\n        /* \"#utility.yul\":8638:8656   */\n      add\n        /* \"#utility.yul\":8629:8635   */\n      dup5\n        /* \"#utility.yul\":8591:8657   */\n      tag_98\n      jump\t// in\n    tag_186:\n        /* \"#utility.yul\":8356:8664   */\n      swap4\n      swap3\n      pop\n      pop\n      pop\n      jump\t// out\n        /* \"#utility.yul\":8670:8850   */\n    tag_99:\n        /* \"#utility.yul\":8718:8795   */\n      0x4e487b7100000000000000000000000000000000000000000000000000000000\n        /* \"#utility.yul\":8715:8716   */\n      0x00\n        /* \"#utility.yul\":8708:8796   */\n      mstore\n        /* \"#utility.yul\":8815:8819   */\n      0x22\n        /* \"#utility.yul\":8812:8813   */\n      0x04\n        /* \"#utility.yul\":8805:8820   */\n      mstore\n        /* \"#utility.yul\":8839:8843   */\n      0x24\n        /* \"#utility.yul\":8836:8837   */\n      0x00\n        /* \"#utility.yul\":8829:8844   */\n      revert\n        /* \"#utility.yul\":8856:9176   */\n    tag_39:\n        /* \"#utility.yul\":8900:8906   */\n      0x00\n        /* \"#utility.yul\":8937:8938   */\n      0x02\n        /* \"#utility.yul\":8931:8935   */\n      dup3\n        /* \"#utility.yul\":8927:8939   */\n      div\n        /* \"#utility.yul\":8917:8939   */\n      swap1\n      pop\n        /* \"#utility.yul\":8984:8985   */\n      0x01\n        /* \"#utility.yul\":8978:8982   */\n      dup3\n        /* \"#utility.yul\":8974:8986   */\n      and\n        /* \"#utility.yul\":9005:9023   */\n      dup1\n        /* \"#utility.yul\":8995:9076   */\n      tag_189\n      jumpi\n        /* \"#utility.yul\":9061:9065   */\n      0x7f\n        /* \"#utility.yul\":9053:9059   */\n      dup3\n        /* \"#utility.yul\":9049:9066   */\n      and\n        /* \"#utility.yul\":9039:9066   */\n      swap2\n      pop\n        /* \"#utility.yul\":8995:9076   */\n    tag_189:\n        /* \"#utility.yul\":9123:9125   */\n      0x20\n        /* \"#utility.yul\":9115:9121   */\n      dup3\n        /* \"#utility.yul\":9112:9126   */\n      lt\n        /* \"#utility.yul\":9092:9110   */\n      dup2\n        /* \"#utility.yul\":9089:9127   */\n      sub\n        /* \"#utility.yul\":9086:9170   */\n      tag_190\n      jumpi\n        /* \"#utility.yul\":9142:9160   */\n      tag_191\n      tag_99\n      jump\t// in\n    tag_191:\n        /* \"#utility.yul\":9086:9170   */\n    tag_190:\n        /* \"#utility.yul\":8907:9176   */\n      pop\n        /* \"#utility.yul\":8856:9176   */\n      swap2\n      swap1\n      pop\n      jump\t// out\n        /* \"#utility.yul\":9182:9416   */\n    tag_100:\n        /* \"#utility.yul\":9322:9356   */\n      0x4f6e6c792074686520636f6e7472616374206f776e65722063616e2067697665\n        /* \"#utility.yul\":9318:9319   */\n      0x00\n        /* \"#utility.yul\":9310:9316   */\n      dup3\n        /* \"#utility.yul\":9306:9320   */\n      add\n        /* \"#utility.yul\":9299:9357   */\n      mstore\n        /* \"#utility.yul\":9391:9408   */\n      0x20726967687420746f20766f74652e0000000000000000000000000000000000\n        /* \"#utility.yul\":9386:9388   */\n      0x20\n        /* \"#utility.yul\":9378:9384   */\n      dup3\n        /* \"#utility.yul\":9374:9389   */\n      add\n        /* \"#utility.yul\":9367:9409   */\n      mstore\n        /* \"#utility.yul\":9182:9416   */\n      pop\n      jump\t// out\n        /* \"#utility.yul\":9422:9788   */\n    tag_101:\n        /* \"#utility.yul\":9564:9567   */\n      0x00\n        /* \"#utility.yul\":9585:9652   */\n      tag_194\n        /* \"#utility.yul\":9649:9651   */\n      0x2f\n        /* \"#utility.yul\":9644:9647   */\n      dup4\n        /* \"#utility.yul\":9585:9652   */\n      tag_80\n      jump\t// in\n    tag_194:\n        /* \"#utility.yul\":9578:9652   */\n      swap2\n      pop\n        /* \"#utility.yul\":9661:9754   */\n      tag_195\n        /* \"#utility.yul\":9750:9753   */\n      dup3\n        /* \"#utility.yul\":9661:9754   */\n      tag_100\n      jump\t// in\n    tag_195:\n        /* \"#utility.yul\":9779:9781   */\n      0x40\n        /* \"#utility.yul\":9774:9777   */\n      dup3\n        /* \"#utility.yul\":9770:9782   */\n      add\n        /* \"#utility.yul\":9763:9782   */\n      swap1\n      pop\n        /* \"#utility.yul\":9422:9788   */\n      swap2\n      swap1\n      pop\n      jump\t// out\n        /* \"#utility.yul\":9794:10213   */\n    tag_66:\n        /* \"#utility.yul\":9960:9964   */\n      0x00\n        /* \"#utility.yul\":9998:10000   */\n      0x20\n        /* \"#utility.yul\":9987:9996   */\n      dup3\n        /* \"#utility.yul\":9983:10001   */\n      add\n        /* \"#utility.yul\":9975:10001   */\n      swap1\n      pop\n        /* \"#utility.yul\":10047:10056   */\n      dup2\n        /* \"#utility.yul\":10041:10045   */\n      dup2\n        /* \"#utility.yul\":10037:10057   */\n      sub\n        /* \"#utility.yul\":10033:10034   */\n      0x00\n        /* \"#utility.yul\":10022:10031   */\n      dup4\n        /* \"#utility.yul\":10018:10035   */\n      add\n        /* \"#utility.yul\":10011:10058   */\n      mstore\n        /* \"#utility.yul\":10075:10206   */\n      tag_197\n        /* \"#utility.yul\":10201:10205   */\n      dup2\n        /* \"#utility.yul\":10075:10206   */\n      tag_101\n      jump\t// in\n    tag_197:\n        /* \"#utility.yul\":10067:10206   */\n      swap1\n      pop\n        /* \"#utility.yul\":9794:10213   */\n      swap2\n      swap1\n      pop\n      jump\t// out\n        /* \"#utility.yul\":10219:10393   */\n    tag_102:\n        /* \"#utility.yul\":10359:10385   */\n      0x54686520766f74657220616c726561647920766f7465642e0000000000000000\n        /* \"#utility.yul\":10355:10356   */\n      0x00\n        /* \"#utility.yul\":10347:10353   */\n      dup3\n        /* \"#utility.yul\":10343:10357   */\n      add\n        /* \"#utility.yul\":10336:10386   */\n      mstore\n        /* \"#utility.yul\":10219:10393   */\n      pop\n      jump\t// out\n        /* \"#utility.yul\":10399:10765   */\n    tag_103:\n        /* \"#utility.yul\":10541:10544   */\n      0x00\n        /* \"#utility.yul\":10562:10629   */\n      tag_200\n        /* \"#utility.yul\":10626:10628   */\n      0x18\n        /* \"#utility.yul\":10621:10624   */\n      dup4\n        /* \"#utility.yul\":10562:10629   */\n      tag_80\n      jump\t// in\n    tag_200:\n        /* \"#utility.yul\":10555:10629   */\n      swap2\n      pop\n        /* \"#utility.yul\":10638:10731   */\n      tag_201\n        /* \"#utility.yul\":10727:10730   */\n      dup3\n        /* \"#utility.yul\":10638:10731   */\n      tag_102\n      jump\t// in\n    tag_201:\n        /* \"#utility.yul\":10756:10758   */\n      0x20\n        /* \"#utility.yul\":10751:10754   */\n      dup3\n        /* \"#utility.yul\":10747:10759   */\n      add\n        /* \"#utility.yul\":10740:10759   */\n      swap1\n      pop\n        /* \"#utility.yul\":10399:10765   */\n      swap2\n      swap1\n      pop\n      jump\t// out\n        /* \"#utility.yul\":10771:11190   */\n    tag_69:\n        /* \"#utility.yul\":10937:10941   */\n      0x00\n        /* \"#utility.yul\":10975:10977   */\n      0x20\n        /* \"#utility.yul\":10964:10973   */\n      dup3\n        /* \"#utility.yul\":10960:10978   */\n      add\n        /* \"#utility.yul\":10952:10978   */\n      swap1\n      pop\n        /* \"#utility.yul\":11024:11033   */\n      dup2\n        /* \"#utility.yul\":11018:11022   */\n      dup2\n        /* \"#utility.yul\":11014:11034   */\n      sub\n        /* \"#utility.yul\":11010:11011   */\n      0x00\n        /* \"#utility.yul\":10999:11008   */\n      dup4\n        /* \"#utility.yul\":10995:11012   */\n      add\n        /* \"#utility.yul\":10988:11035   */\n      mstore\n        /* \"#utility.yul\":11052:11183   */\n      tag_203\n        /* \"#utility.yul\":11178:11182   */\n      dup2\n        /* \"#utility.yul\":11052:11183   */\n      tag_103\n      jump\t// in\n    tag_203:\n        /* \"#utility.yul\":11044:11183   */\n      swap1\n      pop\n        /* \"#utility.yul\":10771:11190   */\n      swap2\n      swap1\n      pop\n      jump\t// out\n\n    auxdata: 0xa264697066735822122028fc0672494e8404118c44e196861c2ec2ba6d826cb4a5a42c82e029a1843cfa64736f6c63430008110033\n}\n",
				"bytecode": {
					"linkReferences": {},
					"object": "60806040523480156200001157600080fd5b50604051620013cb380380620013cb8339818101604052810190620000379190620003ef565b336000806101000a81548173ffffffffffffffffffffffffffffffffffffffff021916908373ffffffffffffffffffffffffffffffffffffffff16021790555060005b8251811015620001575760026040518060600160405280858481518110620000a757620000a662000474565b5b60200260200101518152602001848481518110620000ca57620000c962000474565b5b602002602001015181526020016000815250908060018154018082558091505060019003906000526020600020906003020160009091909190915060008201518160000190816200011c9190620006ee565b506020820151816001019081620001349190620006ee565b5060408201518160020155505080806200014e9062000804565b9150506200007a565b50505062000851565b6000604051905090565b600080fd5b600080fd5b600080fd5b6000601f19601f8301169050919050565b7f4e487b7100000000000000000000000000000000000000000000000000000000600052604160045260246000fd5b620001c48262000179565b810181811067ffffffffffffffff82111715620001e657620001e56200018a565b5b80604052505050565b6000620001fb62000160565b9050620002098282620001b9565b919050565b600067ffffffffffffffff8211156200022c576200022b6200018a565b5b602082029050602081019050919050565b600080fd5b600080fd5b600067ffffffffffffffff8211156200026557620002646200018a565b5b620002708262000179565b9050602081019050919050565b60005b838110156200029d57808201518184015260208101905062000280565b60008484015250505050565b6000620002c0620002ba8462000247565b620001ef565b905082815260208101848484011115620002df57620002de62000242565b5b620002ec8482856200027d565b509392505050565b600082601f8301126200030c576200030b62000174565b5b81516200031e848260208601620002a9565b91505092915050565b60006200033e62000338846200020e565b620001ef565b905080838252602082019050602084028301858111156200036457620003636200023d565b5b835b81811015620003b257805167ffffffffffffffff8111156200038d576200038c62000174565b5b8086016200039c8982620002f4565b8552602085019450505060208101905062000366565b5050509392505050565b600082601f830112620003d457620003d362000174565b5b8151620003e684826020860162000327565b91505092915050565b600080604083850312156200040957620004086200016a565b5b600083015167ffffffffffffffff8111156200042a57620004296200016f565b5b6200043885828601620003bc565b925050602083015167ffffffffffffffff8111156200045c576200045b6200016f565b5b6200046a85828601620003bc565b9150509250929050565b7f4e487b7100000000000000000000000000000000000000000000000000000000600052603260045260246000fd5b600081519050919050565b7f4e487b7100000000000000000000000000000000000000000000000000000000600052602260045260246000fd5b60006002820490506001821680620004f657607f821691505b6020821081036200050c576200050b620004ae565b5b50919050565b60008190508160005260206000209050919050565b60006020601f8301049050919050565b600082821b905092915050565b600060088302620005767fffffffffffffffffffffffffffffffffffffffffffffffffffffffffffffffff8262000537565b62000582868362000537565b95508019841693508086168417925050509392505050565b6000819050919050565b6000819050919050565b6000620005cf620005c9620005c3846200059a565b620005a4565b6200059a565b9050919050565b6000819050919050565b620005eb83620005ae565b62000603620005fa82620005d6565b84845462000544565b825550505050565b600090565b6200061a6200060b565b62000627818484620005e0565b505050565b5b818110156200064f576200064360008262000610565b6001810190506200062d565b5050565b601f8211156200069e57620006688162000512565b620006738462000527565b8101602085101562000683578190505b6200069b620006928562000527565b8301826200062c565b50505b505050565b600082821c905092915050565b6000620006c360001984600802620006a3565b1980831691505092915050565b6000620006de8383620006b0565b9150826002028217905092915050565b620006f982620004a3565b67ffffffffffffffff8111156200071557620007146200018a565b5b620007218254620004dd565b6200072e82828562000653565b600060209050601f83116001811462000766576000841562000751578287015190505b6200075d8582620006d0565b865550620007cd565b601f198416620007768662000512565b60005b82811015620007a05784890151825560018201915060208501945060208101905062000779565b86831015620007c05784890151620007bc601f891682620006b0565b8355505b6001600288020188555050505b505050505050565b7f4e487b7100000000000000000000000000000000000000000000000000000000600052601160045260246000fd5b600062000811826200059a565b91507fffffffffffffffffffffffffffffffffffffffffffffffffffffffffffffffff8203620008465762000845620007d5565b5b600182019050919050565b610b6a80620008616000396000f3fe608060405234801561001057600080fd5b50600436106100625760003560e01c806332a2c5d0146100675780633477ee2e146100855780634aba5f34146100b75780639e7b8d61146100d5578063a3ec138d146100f1578063ce606ee014610122575b600080fd5b61006f610140565b60405161007c919061063e565b60405180910390f35b61009f600480360381019061009a9190610694565b610148565b6040516100ae93929190610760565b60405180910390f35b6100bf610292565b6040516100cc9190610917565b60405180910390f35b6100ef60048036038101906100ea9190610965565b61041f565b005b61010b60048036038101906101069190610965565b61059b565b6040516101199291906109ad565b60405180910390f35b61012a6105d9565b604051610137919061063e565b60405180910390f35b600030905090565b6002818154811061015857600080fd5b906000526020600020906003020160009150905080600001805461017b90610a05565b80601f01602080910402602001604051908101604052809291908181526020018280546101a790610a05565b80156101f45780601f106101c9576101008083540402835291602001916101f4565b820191906000526020600020905b8154815290600101906020018083116101d757829003601f168201915b50505050509080600101805461020990610a05565b80601f016020809104026020016040519081016040528092919081815260200182805461023590610a05565b80156102825780601f1061025757610100808354040283529160200191610282565b820191906000526020600020905b81548152906001019060200180831161026557829003601f168201915b5050505050908060020154905083565b60606002805480602002602001604051908101604052809291908181526020016000905b8282101561041657838290600052602060002090600302016040518060600160405290816000820180546102e990610a05565b80601f016020809104026020016040519081016040528092919081815260200182805461031590610a05565b80156103625780601f1061033757610100808354040283529160200191610362565b820191906000526020600020905b81548152906001019060200180831161034557829003601f168201915b5050505050815260200160018201805461037b90610a05565b80601f01602080910402602001604051908101604052809291908181526020018280546103a790610a05565b80156103f45780601f106103c9576101008083540402835291602001916103f4565b820191906000526020600020905b8154815290600101906020018083116103d757829003601f168201915b50505050508152602001600282015481525050815260200190600101906102b6565b50505050905090565b60008054906101000a900473ffffffffffffffffffffffffffffffffffffffff1673ffffffffffffffffffffffffffffffffffffffff163373ffffffffffffffffffffffffffffffffffffffff16146104ad576040517f08c379a00000000000000000000000000000000000000000000000000000000081526004016104a490610aa8565b60405180910390fd5b600160008273ffffffffffffffffffffffffffffffffffffffff1673ffffffffffffffffffffffffffffffffffffffff16815260200190815260200160002060000160019054906101000a900460ff161561053d576040517f08c379a000000000000000000000000000000000000000000000000000000000815260040161053490610b14565b60405180910390fd5b6000600160008373ffffffffffffffffffffffffffffffffffffffff1673ffffffffffffffffffffffffffffffffffffffff16815260200190815260200160002060000160006101000a81548160ff02191690831515021790555050565b60016020528060005260406000206000915090508060000160009054906101000a900460ff16908060000160019054906101000a900460ff16905082565b60008054906101000a900473ffffffffffffffffffffffffffffffffffffffff1681565b600073ffffffffffffffffffffffffffffffffffffffff82169050919050565b6000610628826105fd565b9050919050565b6106388161061d565b82525050565b6000602082019050610653600083018461062f565b92915050565b600080fd5b6000819050919050565b6106718161065e565b811461067c57600080fd5b50565b60008135905061068e81610668565b92915050565b6000602082840312156106aa576106a9610659565b5b60006106b88482850161067f565b91505092915050565b600081519050919050565b600082825260208201905092915050565b60005b838110156106fb5780820151818401526020810190506106e0565b60008484015250505050565b6000601f19601f8301169050919050565b6000610723826106c1565b61072d81856106cc565b935061073d8185602086016106dd565b61074681610707565b840191505092915050565b61075a8161065e565b82525050565b6000606082019050818103600083015261077a8186610718565b9050818103602083015261078e8185610718565b905061079d6040830184610751565b949350505050565b600081519050919050565b600082825260208201905092915050565b6000819050602082019050919050565b600082825260208201905092915050565b60006107ed826106c1565b6107f781856107d1565b93506108078185602086016106dd565b61081081610707565b840191505092915050565b6108248161065e565b82525050565b6000606083016000830151848203600086015261084782826107e2565b9150506020830151848203602086015261086182826107e2565b9150506040830151610876604086018261081b565b508091505092915050565b600061088d838361082a565b905092915050565b6000602082019050919050565b60006108ad826107a5565b6108b781856107b0565b9350836020820285016108c9856107c1565b8060005b8581101561090557848403895281516108e68582610881565b94506108f183610895565b925060208a019950506001810190506108cd565b50829750879550505050505092915050565b6000602082019050818103600083015261093181846108a2565b905092915050565b6109428161061d565b811461094d57600080fd5b50565b60008135905061095f81610939565b92915050565b60006020828403121561097b5761097a610659565b5b600061098984828501610950565b91505092915050565b60008115159050919050565b6109a781610992565b82525050565b60006040820190506109c2600083018561099e565b6109cf602083018461099e565b9392505050565b7f4e487b7100000000000000000000000000000000000000000000000000000000600052602260045260246000fd5b60006002820490506001821680610a1d57607f821691505b602082108103610a3057610a2f6109d6565b5b50919050565b7f4f6e6c792074686520636f6e7472616374206f776e65722063616e206769766560008201527f20726967687420746f20766f74652e0000000000000000000000000000000000602082015250565b6000610a92602f836106cc565b9150610a9d82610a36565b604082019050919050565b60006020820190508181036000830152610ac181610a85565b9050919050565b7f54686520766f74657220616c726561647920766f7465642e0000000000000000600082015250565b6000610afe6018836106cc565b9150610b0982610ac8565b602082019050919050565b60006020820190508181036000830152610b2d81610af1565b905091905056fea264697066735822122028fc0672494e8404118c44e196861c2ec2ba6d826cb4a5a42c82e029a1843cfa64736f6c63430008110033",
					"opcodes": "PUSH1 0x80 PUSH1 0x40 MSTORE CALLVALUE DUP1 ISZERO PUSH3 0x11 JUMPI PUSH1 0x0 DUP1 REVERT JUMPDEST POP PUSH1 0x40 MLOAD PUSH3 0x13CB CODESIZE SUB DUP1 PUSH3 0x13CB DUP4 CODECOPY DUP2 DUP2 ADD PUSH1 0x40 MSTORE DUP2 ADD SWAP1 PUSH3 0x37 SWAP2 SWAP1 PUSH3 0x3EF JUMP JUMPDEST CALLER PUSH1 0x0 DUP1 PUSH2 0x100 EXP DUP2 SLOAD DUP2 PUSH20 0xFFFFFFFFFFFFFFFFFFFFFFFFFFFFFFFFFFFFFFFF MUL NOT AND SWAP1 DUP4 PUSH20 0xFFFFFFFFFFFFFFFFFFFFFFFFFFFFFFFFFFFFFFFF AND MUL OR SWAP1 SSTORE POP PUSH1 0x0 JUMPDEST DUP3 MLOAD DUP2 LT ISZERO PUSH3 0x157 JUMPI PUSH1 0x2 PUSH1 0x40 MLOAD DUP1 PUSH1 0x60 ADD PUSH1 0x40 MSTORE DUP1 DUP6 DUP5 DUP2 MLOAD DUP2 LT PUSH3 0xA7 JUMPI PUSH3 0xA6 PUSH3 0x474 JUMP JUMPDEST JUMPDEST PUSH1 0x20 MUL PUSH1 0x20 ADD ADD MLOAD DUP2 MSTORE PUSH1 0x20 ADD DUP5 DUP5 DUP2 MLOAD DUP2 LT PUSH3 0xCA JUMPI PUSH3 0xC9 PUSH3 0x474 JUMP JUMPDEST JUMPDEST PUSH1 0x20 MUL PUSH1 0x20 ADD ADD MLOAD DUP2 MSTORE PUSH1 0x20 ADD PUSH1 0x0 DUP2 MSTORE POP SWAP1 DUP1 PUSH1 0x1 DUP2 SLOAD ADD DUP1 DUP3 SSTORE DUP1 SWAP2 POP POP PUSH1 0x1 SWAP1 SUB SWAP1 PUSH1 0x0 MSTORE PUSH1 0x20 PUSH1 0x0 KECCAK256 SWAP1 PUSH1 0x3 MUL ADD PUSH1 0x0 SWAP1 SWAP2 SWAP1 SWAP2 SWAP1 SWAP2 POP PUSH1 0x0 DUP3 ADD MLOAD DUP2 PUSH1 0x0 ADD SWAP1 DUP2 PUSH3 0x11C SWAP2 SWAP1 PUSH3 0x6EE JUMP JUMPDEST POP PUSH1 0x20 DUP3 ADD MLOAD DUP2 PUSH1 0x1 ADD SWAP1 DUP2 PUSH3 0x134 SWAP2 SWAP1 PUSH3 0x6EE JUMP JUMPDEST POP PUSH1 0x40 DUP3 ADD MLOAD DUP2 PUSH1 0x2 ADD SSTORE POP POP DUP1 DUP1 PUSH3 0x14E SWAP1 PUSH3 0x804 JUMP JUMPDEST SWAP2 POP POP PUSH3 0x7A JUMP JUMPDEST POP POP POP PUSH3 0x851 JUMP JUMPDEST PUSH1 0x0 PUSH1 0x40 MLOAD SWAP1 POP SWAP1 JUMP JUMPDEST PUSH1 0x0 DUP1 REVERT JUMPDEST PUSH1 0x0 DUP1 REVERT JUMPDEST PUSH1 0x0 DUP1 REVERT JUMPDEST PUSH1 0x0 PUSH1 0x1F NOT PUSH1 0x1F DUP4 ADD AND SWAP1 POP SWAP2 SWAP1 POP JUMP JUMPDEST PUSH32 0x4E487B7100000000000000000000000000000000000000000000000000000000 PUSH1 0x0 MSTORE PUSH1 0x41 PUSH1 0x4 MSTORE PUSH1 0x24 PUSH1 0x0 REVERT JUMPDEST PUSH3 0x1C4 DUP3 PUSH3 0x179 JUMP JUMPDEST DUP2 ADD DUP2 DUP2 LT PUSH8 0xFFFFFFFFFFFFFFFF DUP3 GT OR ISZERO PUSH3 0x1E6 JUMPI PUSH3 0x1E5 PUSH3 0x18A JUMP JUMPDEST JUMPDEST DUP1 PUSH1 0x40 MSTORE POP POP POP JUMP JUMPDEST PUSH1 0x0 PUSH3 0x1FB PUSH3 0x160 JUMP JUMPDEST SWAP1 POP PUSH3 0x209 DUP3 DUP3 PUSH3 0x1B9 JUMP JUMPDEST SWAP2 SWAP1 POP JUMP JUMPDEST PUSH1 0x0 PUSH8 0xFFFFFFFFFFFFFFFF DUP3 GT ISZERO PUSH3 0x22C JUMPI PUSH3 0x22B PUSH3 0x18A JUMP JUMPDEST JUMPDEST PUSH1 0x20 DUP3 MUL SWAP1 POP PUSH1 0x20 DUP2 ADD SWAP1 POP SWAP2 SWAP1 POP JUMP JUMPDEST PUSH1 0x0 DUP1 REVERT JUMPDEST PUSH1 0x0 DUP1 REVERT JUMPDEST PUSH1 0x0 PUSH8 0xFFFFFFFFFFFFFFFF DUP3 GT ISZERO PUSH3 0x265 JUMPI PUSH3 0x264 PUSH3 0x18A JUMP JUMPDEST JUMPDEST PUSH3 0x270 DUP3 PUSH3 0x179 JUMP JUMPDEST SWAP1 POP PUSH1 0x20 DUP2 ADD SWAP1 POP SWAP2 SWAP1 POP JUMP JUMPDEST PUSH1 0x0 JUMPDEST DUP4 DUP2 LT ISZERO PUSH3 0x29D JUMPI DUP1 DUP3 ADD MLOAD DUP2 DUP5 ADD MSTORE PUSH1 0x20 DUP2 ADD SWAP1 POP PUSH3 0x280 JUMP JUMPDEST PUSH1 0x0 DUP5 DUP5 ADD MSTORE POP POP POP POP JUMP JUMPDEST PUSH1 0x0 PUSH3 0x2C0 PUSH3 0x2BA DUP5 PUSH3 0x247 JUMP JUMPDEST PUSH3 0x1EF JUMP JUMPDEST SWAP1 POP DUP3 DUP2 MSTORE PUSH1 0x20 DUP2 ADD DUP5 DUP5 DUP5 ADD GT ISZERO PUSH3 0x2DF JUMPI PUSH3 0x2DE PUSH3 0x242 JUMP JUMPDEST JUMPDEST PUSH3 0x2EC DUP5 DUP3 DUP6 PUSH3 0x27D JUMP JUMPDEST POP SWAP4 SWAP3 POP POP POP JUMP JUMPDEST PUSH1 0x0 DUP3 PUSH1 0x1F DUP4 ADD SLT PUSH3 0x30C JUMPI PUSH3 0x30B PUSH3 0x174 JUMP JUMPDEST JUMPDEST DUP2 MLOAD PUSH3 0x31E DUP5 DUP3 PUSH1 0x20 DUP7 ADD PUSH3 0x2A9 JUMP JUMPDEST SWAP2 POP POP SWAP3 SWAP2 POP POP JUMP JUMPDEST PUSH1 0x0 PUSH3 0x33E PUSH3 0x338 DUP5 PUSH3 0x20E JUMP JUMPDEST PUSH3 0x1EF JUMP JUMPDEST SWAP1 POP DUP1 DUP4 DUP3 MSTORE PUSH1 0x20 DUP3 ADD SWAP1 POP PUSH1 0x20 DUP5 MUL DUP4 ADD DUP6 DUP2 GT ISZERO PUSH3 0x364 JUMPI PUSH3 0x363 PUSH3 0x23D JUMP JUMPDEST JUMPDEST DUP4 JUMPDEST DUP2 DUP2 LT ISZERO PUSH3 0x3B2 JUMPI DUP1 MLOAD PUSH8 0xFFFFFFFFFFFFFFFF DUP2 GT ISZERO PUSH3 0x38D JUMPI PUSH3 0x38C PUSH3 0x174 JUMP JUMPDEST JUMPDEST DUP1 DUP7 ADD PUSH3 0x39C DUP10 DUP3 PUSH3 0x2F4 JUMP JUMPDEST DUP6 MSTORE PUSH1 0x20 DUP6 ADD SWAP5 POP POP POP PUSH1 0x20 DUP2 ADD SWAP1 POP PUSH3 0x366 JUMP JUMPDEST POP POP POP SWAP4 SWAP3 POP POP POP JUMP JUMPDEST PUSH1 0x0 DUP3 PUSH1 0x1F DUP4 ADD SLT PUSH3 0x3D4 JUMPI PUSH3 0x3D3 PUSH3 0x174 JUMP JUMPDEST JUMPDEST DUP2 MLOAD PUSH3 0x3E6 DUP5 DUP3 PUSH1 0x20 DUP7 ADD PUSH3 0x327 JUMP JUMPDEST SWAP2 POP POP SWAP3 SWAP2 POP POP JUMP JUMPDEST PUSH1 0x0 DUP1 PUSH1 0x40 DUP4 DUP6 SUB SLT ISZERO PUSH3 0x409 JUMPI PUSH3 0x408 PUSH3 0x16A JUMP JUMPDEST JUMPDEST PUSH1 0x0 DUP4 ADD MLOAD PUSH8 0xFFFFFFFFFFFFFFFF DUP2 GT ISZERO PUSH3 0x42A JUMPI PUSH3 0x429 PUSH3 0x16F JUMP JUMPDEST JUMPDEST PUSH3 0x438 DUP6 DUP3 DUP7 ADD PUSH3 0x3BC JUMP JUMPDEST SWAP3 POP POP PUSH1 0x20 DUP4 ADD MLOAD PUSH8 0xFFFFFFFFFFFFFFFF DUP2 GT ISZERO PUSH3 0x45C JUMPI PUSH3 0x45B PUSH3 0x16F JUMP JUMPDEST JUMPDEST PUSH3 0x46A DUP6 DUP3 DUP7 ADD PUSH3 0x3BC JUMP JUMPDEST SWAP2 POP POP SWAP3 POP SWAP3 SWAP1 POP JUMP JUMPDEST PUSH32 0x4E487B7100000000000000000000000000000000000000000000000000000000 PUSH1 0x0 MSTORE PUSH1 0x32 PUSH1 0x4 MSTORE PUSH1 0x24 PUSH1 0x0 REVERT JUMPDEST PUSH1 0x0 DUP2 MLOAD SWAP1 POP SWAP2 SWAP1 POP JUMP JUMPDEST PUSH32 0x4E487B7100000000000000000000000000000000000000000000000000000000 PUSH1 0x0 MSTORE PUSH1 0x22 PUSH1 0x4 MSTORE PUSH1 0x24 PUSH1 0x0 REVERT JUMPDEST PUSH1 0x0 PUSH1 0x2 DUP3 DIV SWAP1 POP PUSH1 0x1 DUP3 AND DUP1 PUSH3 0x4F6 JUMPI PUSH1 0x7F DUP3 AND SWAP2 POP JUMPDEST PUSH1 0x20 DUP3 LT DUP2 SUB PUSH3 0x50C JUMPI PUSH3 0x50B PUSH3 0x4AE JUMP JUMPDEST JUMPDEST POP SWAP2 SWAP1 POP JUMP JUMPDEST PUSH1 0x0 DUP2 SWAP1 POP DUP2 PUSH1 0x0 MSTORE PUSH1 0x20 PUSH1 0x0 KECCAK256 SWAP1 POP SWAP2 SWAP1 POP JUMP JUMPDEST PUSH1 0x0 PUSH1 0x20 PUSH1 0x1F DUP4 ADD DIV SWAP1 POP SWAP2 SWAP1 POP JUMP JUMPDEST PUSH1 0x0 DUP3 DUP3 SHL SWAP1 POP SWAP3 SWAP2 POP POP JUMP JUMPDEST PUSH1 0x0 PUSH1 0x8 DUP4 MUL PUSH3 0x576 PUSH32 0xFFFFFFFFFFFFFFFFFFFFFFFFFFFFFFFFFFFFFFFFFFFFFFFFFFFFFFFFFFFFFFFF DUP3 PUSH3 0x537 JUMP JUMPDEST PUSH3 0x582 DUP7 DUP4 PUSH3 0x537 JUMP JUMPDEST SWAP6 POP DUP1 NOT DUP5 AND SWAP4 POP DUP1 DUP7 AND DUP5 OR SWAP3 POP POP POP SWAP4 SWAP3 POP POP POP JUMP JUMPDEST PUSH1 0x0 DUP2 SWAP1 POP SWAP2 SWAP1 POP JUMP JUMPDEST PUSH1 0x0 DUP2 SWAP1 POP SWAP2 SWAP1 POP JUMP JUMPDEST PUSH1 0x0 PUSH3 0x5CF PUSH3 0x5C9 PUSH3 0x5C3 DUP5 PUSH3 0x59A JUMP JUMPDEST PUSH3 0x5A4 JUMP JUMPDEST PUSH3 0x59A JUMP JUMPDEST SWAP1 POP SWAP2 SWAP1 POP JUMP JUMPDEST PUSH1 0x0 DUP2 SWAP1 POP SWAP2 SWAP1 POP JUMP JUMPDEST PUSH3 0x5EB DUP4 PUSH3 0x5AE JUMP JUMPDEST PUSH3 0x603 PUSH3 0x5FA DUP3 PUSH3 0x5D6 JUMP JUMPDEST DUP5 DUP5 SLOAD PUSH3 0x544 JUMP JUMPDEST DUP3 SSTORE POP POP POP POP JUMP JUMPDEST PUSH1 0x0 SWAP1 JUMP JUMPDEST PUSH3 0x61A PUSH3 0x60B JUMP JUMPDEST PUSH3 0x627 DUP2 DUP5 DUP5 PUSH3 0x5E0 JUMP JUMPDEST POP POP POP JUMP JUMPDEST JUMPDEST DUP2 DUP2 LT ISZERO PUSH3 0x64F JUMPI PUSH3 0x643 PUSH1 0x0 DUP3 PUSH3 0x610 JUMP JUMPDEST PUSH1 0x1 DUP2 ADD SWAP1 POP PUSH3 0x62D JUMP JUMPDEST POP POP JUMP JUMPDEST PUSH1 0x1F DUP3 GT ISZERO PUSH3 0x69E JUMPI PUSH3 0x668 DUP2 PUSH3 0x512 JUMP JUMPDEST PUSH3 0x673 DUP5 PUSH3 0x527 JUMP JUMPDEST DUP2 ADD PUSH1 0x20 DUP6 LT ISZERO PUSH3 0x683 JUMPI DUP2 SWAP1 POP JUMPDEST PUSH3 0x69B PUSH3 0x692 DUP6 PUSH3 0x527 JUMP JUMPDEST DUP4 ADD DUP3 PUSH3 0x62C JUMP JUMPDEST POP POP JUMPDEST POP POP POP JUMP JUMPDEST PUSH1 0x0 DUP3 DUP3 SHR SWAP1 POP SWAP3 SWAP2 POP POP JUMP JUMPDEST PUSH1 0x0 PUSH3 0x6C3 PUSH1 0x0 NOT DUP5 PUSH1 0x8 MUL PUSH3 0x6A3 JUMP JUMPDEST NOT DUP1 DUP4 AND SWAP2 POP POP SWAP3 SWAP2 POP POP JUMP JUMPDEST PUSH1 0x0 PUSH3 0x6DE DUP4 DUP4 PUSH3 0x6B0 JUMP JUMPDEST SWAP2 POP DUP3 PUSH1 0x2 MUL DUP3 OR SWAP1 POP SWAP3 SWAP2 POP POP JUMP JUMPDEST PUSH3 0x6F9 DUP3 PUSH3 0x4A3 JUMP JUMPDEST PUSH8 0xFFFFFFFFFFFFFFFF DUP2 GT ISZERO PUSH3 0x715 JUMPI PUSH3 0x714 PUSH3 0x18A JUMP JUMPDEST JUMPDEST PUSH3 0x721 DUP3 SLOAD PUSH3 0x4DD JUMP JUMPDEST PUSH3 0x72E DUP3 DUP3 DUP6 PUSH3 0x653 JUMP JUMPDEST PUSH1 0x0 PUSH1 0x20 SWAP1 POP PUSH1 0x1F DUP4 GT PUSH1 0x1 DUP2 EQ PUSH3 0x766 JUMPI PUSH1 0x0 DUP5 ISZERO PUSH3 0x751 JUMPI DUP3 DUP8 ADD MLOAD SWAP1 POP JUMPDEST PUSH3 0x75D DUP6 DUP3 PUSH3 0x6D0 JUMP JUMPDEST DUP7 SSTORE POP PUSH3 0x7CD JUMP JUMPDEST PUSH1 0x1F NOT DUP5 AND PUSH3 0x776 DUP7 PUSH3 0x512 JUMP JUMPDEST PUSH1 0x0 JUMPDEST DUP3 DUP2 LT ISZERO PUSH3 0x7A0 JUMPI DUP5 DUP10 ADD MLOAD DUP3 SSTORE PUSH1 0x1 DUP3 ADD SWAP2 POP PUSH1 0x20 DUP6 ADD SWAP5 POP PUSH1 0x20 DUP2 ADD SWAP1 POP PUSH3 0x779 JUMP JUMPDEST DUP7 DUP4 LT ISZERO PUSH3 0x7C0 JUMPI DUP5 DUP10 ADD MLOAD PUSH3 0x7BC PUSH1 0x1F DUP10 AND DUP3 PUSH3 0x6B0 JUMP JUMPDEST DUP4 SSTORE POP JUMPDEST PUSH1 0x1 PUSH1 0x2 DUP9 MUL ADD DUP9 SSTORE POP POP POP JUMPDEST POP POP POP POP POP POP JUMP JUMPDEST PUSH32 0x4E487B7100000000000000000000000000000000000000000000000000000000 PUSH1 0x0 MSTORE PUSH1 0x11 PUSH1 0x4 MSTORE PUSH1 0x24 PUSH1 0x0 REVERT JUMPDEST PUSH1 0x0 PUSH3 0x811 DUP3 PUSH3 0x59A JUMP JUMPDEST SWAP2 POP PUSH32 0xFFFFFFFFFFFFFFFFFFFFFFFFFFFFFFFFFFFFFFFFFFFFFFFFFFFFFFFFFFFFFFFF DUP3 SUB PUSH3 0x846 JUMPI PUSH3 0x845 PUSH3 0x7D5 JUMP JUMPDEST JUMPDEST PUSH1 0x1 DUP3 ADD SWAP1 POP SWAP2 SWAP1 POP JUMP JUMPDEST PUSH2 0xB6A DUP1 PUSH3 0x861 PUSH1 0x0 CODECOPY PUSH1 0x0 RETURN INVALID PUSH1 0x80 PUSH1 0x40 MSTORE CALLVALUE DUP1 ISZERO PUSH2 0x10 JUMPI PUSH1 0x0 DUP1 REVERT JUMPDEST POP PUSH1 0x4 CALLDATASIZE LT PUSH2 0x62 JUMPI PUSH1 0x0 CALLDATALOAD PUSH1 0xE0 SHR DUP1 PUSH4 0x32A2C5D0 EQ PUSH2 0x67 JUMPI DUP1 PUSH4 0x3477EE2E EQ PUSH2 0x85 JUMPI DUP1 PUSH4 0x4ABA5F34 EQ PUSH2 0xB7 JUMPI DUP1 PUSH4 0x9E7B8D61 EQ PUSH2 0xD5 JUMPI DUP1 PUSH4 0xA3EC138D EQ PUSH2 0xF1 JUMPI DUP1 PUSH4 0xCE606EE0 EQ PUSH2 0x122 JUMPI JUMPDEST PUSH1 0x0 DUP1 REVERT JUMPDEST PUSH2 0x6F PUSH2 0x140 JUMP JUMPDEST PUSH1 0x40 MLOAD PUSH2 0x7C SWAP2 SWAP1 PUSH2 0x63E JUMP JUMPDEST PUSH1 0x40 MLOAD DUP1 SWAP2 SUB SWAP1 RETURN JUMPDEST PUSH2 0x9F PUSH1 0x4 DUP1 CALLDATASIZE SUB DUP2 ADD SWAP1 PUSH2 0x9A SWAP2 SWAP1 PUSH2 0x694 JUMP JUMPDEST PUSH2 0x148 JUMP JUMPDEST PUSH1 0x40 MLOAD PUSH2 0xAE SWAP4 SWAP3 SWAP2 SWAP1 PUSH2 0x760 JUMP JUMPDEST PUSH1 0x40 MLOAD DUP1 SWAP2 SUB SWAP1 RETURN JUMPDEST PUSH2 0xBF PUSH2 0x292 JUMP JUMPDEST PUSH1 0x40 MLOAD PUSH2 0xCC SWAP2 SWAP1 PUSH2 0x917 JUMP JUMPDEST PUSH1 0x40 MLOAD DUP1 SWAP2 SUB SWAP1 RETURN JUMPDEST PUSH2 0xEF PUSH1 0x4 DUP1 CALLDATASIZE SUB DUP2 ADD SWAP1 PUSH2 0xEA SWAP2 SWAP1 PUSH2 0x965 JUMP JUMPDEST PUSH2 0x41F JUMP JUMPDEST STOP JUMPDEST PUSH2 0x10B PUSH1 0x4 DUP1 CALLDATASIZE SUB DUP2 ADD SWAP1 PUSH2 0x106 SWAP2 SWAP1 PUSH2 0x965 JUMP JUMPDEST PUSH2 0x59B JUMP JUMPDEST PUSH1 0x40 MLOAD PUSH2 0x119 SWAP3 SWAP2 SWAP1 PUSH2 0x9AD JUMP JUMPDEST PUSH1 0x40 MLOAD DUP1 SWAP2 SUB SWAP1 RETURN JUMPDEST PUSH2 0x12A PUSH2 0x5D9 JUMP JUMPDEST PUSH1 0x40 MLOAD PUSH2 0x137 SWAP2 SWAP1 PUSH2 0x63E JUMP JUMPDEST PUSH1 0x40 MLOAD DUP1 SWAP2 SUB SWAP1 RETURN JUMPDEST PUSH1 0x0 ADDRESS SWAP1 POP SWAP1 JUMP JUMPDEST PUSH1 0x2 DUP2 DUP2 SLOAD DUP2 LT PUSH2 0x158 JUMPI PUSH1 0x0 DUP1 REVERT JUMPDEST SWAP1 PUSH1 0x0 MSTORE PUSH1 0x20 PUSH1 0x0 KECCAK256 SWAP1 PUSH1 0x3 MUL ADD PUSH1 0x0 SWAP2 POP SWAP1 POP DUP1 PUSH1 0x0 ADD DUP1 SLOAD PUSH2 0x17B SWAP1 PUSH2 0xA05 JUMP JUMPDEST DUP1 PUSH1 0x1F ADD PUSH1 0x20 DUP1 SWAP2 DIV MUL PUSH1 0x20 ADD PUSH1 0x40 MLOAD SWAP1 DUP2 ADD PUSH1 0x40 MSTORE DUP1 SWAP3 SWAP2 SWAP1 DUP2 DUP2 MSTORE PUSH1 0x20 ADD DUP3 DUP1 SLOAD PUSH2 0x1A7 SWAP1 PUSH2 0xA05 JUMP JUMPDEST DUP1 ISZERO PUSH2 0x1F4 JUMPI DUP1 PUSH1 0x1F LT PUSH2 0x1C9 JUMPI PUSH2 0x100 DUP1 DUP4 SLOAD DIV MUL DUP4 MSTORE SWAP2 PUSH1 0x20 ADD SWAP2 PUSH2 0x1F4 JUMP JUMPDEST DUP3 ADD SWAP2 SWAP1 PUSH1 0x0 MSTORE PUSH1 0x20 PUSH1 0x0 KECCAK256 SWAP1 JUMPDEST DUP2 SLOAD DUP2 MSTORE SWAP1 PUSH1 0x1 ADD SWAP1 PUSH1 0x20 ADD DUP1 DUP4 GT PUSH2 0x1D7 JUMPI DUP3 SWAP1 SUB PUSH1 0x1F AND DUP3 ADD SWAP2 JUMPDEST POP POP POP POP POP SWAP1 DUP1 PUSH1 0x1 ADD DUP1 SLOAD PUSH2 0x209 SWAP1 PUSH2 0xA05 JUMP JUMPDEST DUP1 PUSH1 0x1F ADD PUSH1 0x20 DUP1 SWAP2 DIV MUL PUSH1 0x20 ADD PUSH1 0x40 MLOAD SWAP1 DUP2 ADD PUSH1 0x40 MSTORE DUP1 SWAP3 SWAP2 SWAP1 DUP2 DUP2 MSTORE PUSH1 0x20 ADD DUP3 DUP1 SLOAD PUSH2 0x235 SWAP1 PUSH2 0xA05 JUMP JUMPDEST DUP1 ISZERO PUSH2 0x282 JUMPI DUP1 PUSH1 0x1F LT PUSH2 0x257 JUMPI PUSH2 0x100 DUP1 DUP4 SLOAD DIV MUL DUP4 MSTORE SWAP2 PUSH1 0x20 ADD SWAP2 PUSH2 0x282 JUMP JUMPDEST DUP3 ADD SWAP2 SWAP1 PUSH1 0x0 MSTORE PUSH1 0x20 PUSH1 0x0 KECCAK256 SWAP1 JUMPDEST DUP2 SLOAD DUP2 MSTORE SWAP1 PUSH1 0x1 ADD SWAP1 PUSH1 0x20 ADD DUP1 DUP4 GT PUSH2 0x265 JUMPI DUP3 SWAP1 SUB PUSH1 0x1F AND DUP3 ADD SWAP2 JUMPDEST POP POP POP POP POP SWAP1 DUP1 PUSH1 0x2 ADD SLOAD SWAP1 POP DUP4 JUMP JUMPDEST PUSH1 0x60 PUSH1 0x2 DUP1 SLOAD DUP1 PUSH1 0x20 MUL PUSH1 0x20 ADD PUSH1 0x40 MLOAD SWAP1 DUP2 ADD PUSH1 0x40 MSTORE DUP1 SWAP3 SWAP2 SWAP1 DUP2 DUP2 MSTORE PUSH1 0x20 ADD PUSH1 0x0 SWAP1 JUMPDEST DUP3 DUP3 LT ISZERO PUSH2 0x416 JUMPI DUP4 DUP3 SWAP1 PUSH1 0x0 MSTORE PUSH1 0x20 PUSH1 0x0 KECCAK256 SWAP1 PUSH1 0x3 MUL ADD PUSH1 0x40 MLOAD DUP1 PUSH1 0x60 ADD PUSH1 0x40 MSTORE SWAP1 DUP2 PUSH1 0x0 DUP3 ADD DUP1 SLOAD PUSH2 0x2E9 SWAP1 PUSH2 0xA05 JUMP JUMPDEST DUP1 PUSH1 0x1F ADD PUSH1 0x20 DUP1 SWAP2 DIV MUL PUSH1 0x20 ADD PUSH1 0x40 MLOAD SWAP1 DUP2 ADD PUSH1 0x40 MSTORE DUP1 SWAP3 SWAP2 SWAP1 DUP2 DUP2 MSTORE PUSH1 0x20 ADD DUP3 DUP1 SLOAD PUSH2 0x315 SWAP1 PUSH2 0xA05 JUMP JUMPDEST DUP1 ISZERO PUSH2 0x362 JUMPI DUP1 PUSH1 0x1F LT PUSH2 0x337 JUMPI PUSH2 0x100 DUP1 DUP4 SLOAD DIV MUL DUP4 MSTORE SWAP2 PUSH1 0x20 ADD SWAP2 PUSH2 0x362 JUMP JUMPDEST DUP3 ADD SWAP2 SWAP1 PUSH1 0x0 MSTORE PUSH1 0x20 PUSH1 0x0 KECCAK256 SWAP1 JUMPDEST DUP2 SLOAD DUP2 MSTORE SWAP1 PUSH1 0x1 ADD SWAP1 PUSH1 0x20 ADD DUP1 DUP4 GT PUSH2 0x345 JUMPI DUP3 SWAP1 SUB PUSH1 0x1F AND DUP3 ADD SWAP2 JUMPDEST POP POP POP POP POP DUP2 MSTORE PUSH1 0x20 ADD PUSH1 0x1 DUP3 ADD DUP1 SLOAD PUSH2 0x37B SWAP1 PUSH2 0xA05 JUMP JUMPDEST DUP1 PUSH1 0x1F ADD PUSH1 0x20 DUP1 SWAP2 DIV MUL PUSH1 0x20 ADD PUSH1 0x40 MLOAD SWAP1 DUP2 ADD PUSH1 0x40 MSTORE DUP1 SWAP3 SWAP2 SWAP1 DUP2 DUP2 MSTORE PUSH1 0x20 ADD DUP3 DUP1 SLOAD PUSH2 0x3A7 SWAP1 PUSH2 0xA05 JUMP JUMPDEST DUP1 ISZERO PUSH2 0x3F4 JUMPI DUP1 PUSH1 0x1F LT PUSH2 0x3C9 JUMPI PUSH2 0x100 DUP1 DUP4 SLOAD DIV MUL DUP4 MSTORE SWAP2 PUSH1 0x20 ADD SWAP2 PUSH2 0x3F4 JUMP JUMPDEST DUP3 ADD SWAP2 SWAP1 PUSH1 0x0 MSTORE PUSH1 0x20 PUSH1 0x0 KECCAK256 SWAP1 JUMPDEST DUP2 SLOAD DUP2 MSTORE SWAP1 PUSH1 0x1 ADD SWAP1 PUSH1 0x20 ADD DUP1 DUP4 GT PUSH2 0x3D7 JUMPI DUP3 SWAP1 SUB PUSH1 0x1F AND DUP3 ADD SWAP2 JUMPDEST POP POP POP POP POP DUP2 MSTORE PUSH1 0x20 ADD PUSH1 0x2 DUP3 ADD SLOAD DUP2 MSTORE POP POP DUP2 MSTORE PUSH1 0x20 ADD SWAP1 PUSH1 0x1 ADD SWAP1 PUSH2 0x2B6 JUMP JUMPDEST POP POP POP POP SWAP1 POP SWAP1 JUMP JUMPDEST PUSH1 0x0 DUP1 SLOAD SWAP1 PUSH2 0x100 EXP SWAP1 DIV PUSH20 0xFFFFFFFFFFFFFFFFFFFFFFFFFFFFFFFFFFFFFFFF AND PUSH20 0xFFFFFFFFFFFFFFFFFFFFFFFFFFFFFFFFFFFFFFFF AND CALLER PUSH20 0xFFFFFFFFFFFFFFFFFFFFFFFFFFFFFFFFFFFFFFFF AND EQ PUSH2 0x4AD JUMPI PUSH1 0x40 MLOAD PUSH32 0x8C379A000000000000000000000000000000000000000000000000000000000 DUP2 MSTORE PUSH1 0x4 ADD PUSH2 0x4A4 SWAP1 PUSH2 0xAA8 JUMP JUMPDEST PUSH1 0x40 MLOAD DUP1 SWAP2 SUB SWAP1 REVERT JUMPDEST PUSH1 0x1 PUSH1 0x0 DUP3 PUSH20 0xFFFFFFFFFFFFFFFFFFFFFFFFFFFFFFFFFFFFFFFF AND PUSH20 0xFFFFFFFFFFFFFFFFFFFFFFFFFFFFFFFFFFFFFFFF AND DUP2 MSTORE PUSH1 0x20 ADD SWAP1 DUP2 MSTORE PUSH1 0x20 ADD PUSH1 0x0 KECCAK256 PUSH1 0x0 ADD PUSH1 0x1 SWAP1 SLOAD SWAP1 PUSH2 0x100 EXP SWAP1 DIV PUSH1 0xFF AND ISZERO PUSH2 0x53D JUMPI PUSH1 0x40 MLOAD PUSH32 0x8C379A000000000000000000000000000000000000000000000000000000000 DUP2 MSTORE PUSH1 0x4 ADD PUSH2 0x534 SWAP1 PUSH2 0xB14 JUMP JUMPDEST PUSH1 0x40 MLOAD DUP1 SWAP2 SUB SWAP1 REVERT JUMPDEST PUSH1 0x0 PUSH1 0x1 PUSH1 0x0 DUP4 PUSH20 0xFFFFFFFFFFFFFFFFFFFFFFFFFFFFFFFFFFFFFFFF AND PUSH20 0xFFFFFFFFFFFFFFFFFFFFFFFFFFFFFFFFFFFFFFFF AND DUP2 MSTORE PUSH1 0x20 ADD SWAP1 DUP2 MSTORE PUSH1 0x20 ADD PUSH1 0x0 KECCAK256 PUSH1 0x0 ADD PUSH1 0x0 PUSH2 0x100 EXP DUP2 SLOAD DUP2 PUSH1 0xFF MUL NOT AND SWAP1 DUP4 ISZERO ISZERO MUL OR SWAP1 SSTORE POP POP JUMP JUMPDEST PUSH1 0x1 PUSH1 0x20 MSTORE DUP1 PUSH1 0x0 MSTORE PUSH1 0x40 PUSH1 0x0 KECCAK256 PUSH1 0x0 SWAP2 POP SWAP1 POP DUP1 PUSH1 0x0 ADD PUSH1 0x0 SWAP1 SLOAD SWAP1 PUSH2 0x100 EXP SWAP1 DIV PUSH1 0xFF AND SWAP1 DUP1 PUSH1 0x0 ADD PUSH1 0x1 SWAP1 SLOAD SWAP1 PUSH2 0x100 EXP SWAP1 DIV PUSH1 0xFF AND SWAP1 POP DUP3 JUMP JUMPDEST PUSH1 0x0 DUP1 SLOAD SWAP1 PUSH2 0x100 EXP SWAP1 DIV PUSH20 0xFFFFFFFFFFFFFFFFFFFFFFFFFFFFFFFFFFFFFFFF AND DUP2 JUMP JUMPDEST PUSH1 0x0 PUSH20 0xFFFFFFFFFFFFFFFFFFFFFFFFFFFFFFFFFFFFFFFF DUP3 AND SWAP1 POP SWAP2 SWAP1 POP JUMP JUMPDEST PUSH1 0x0 PUSH2 0x628 DUP3 PUSH2 0x5FD JUMP JUMPDEST SWAP1 POP SWAP2 SWAP1 POP JUMP JUMPDEST PUSH2 0x638 DUP2 PUSH2 0x61D JUMP JUMPDEST DUP3 MSTORE POP POP JUMP JUMPDEST PUSH1 0x0 PUSH1 0x20 DUP3 ADD SWAP1 POP PUSH2 0x653 PUSH1 0x0 DUP4 ADD DUP5 PUSH2 0x62F JUMP JUMPDEST SWAP3 SWAP2 POP POP JUMP JUMPDEST PUSH1 0x0 DUP1 REVERT JUMPDEST PUSH1 0x0 DUP2 SWAP1 POP SWAP2 SWAP1 POP JUMP JUMPDEST PUSH2 0x671 DUP2 PUSH2 0x65E JUMP JUMPDEST DUP2 EQ PUSH2 0x67C JUMPI PUSH1 0x0 DUP1 REVERT JUMPDEST POP JUMP JUMPDEST PUSH1 0x0 DUP2 CALLDATALOAD SWAP1 POP PUSH2 0x68E DUP2 PUSH2 0x668 JUMP JUMPDEST SWAP3 SWAP2 POP POP JUMP JUMPDEST PUSH1 0x0 PUSH1 0x20 DUP3 DUP5 SUB SLT ISZERO PUSH2 0x6AA JUMPI PUSH2 0x6A9 PUSH2 0x659 JUMP JUMPDEST JUMPDEST PUSH1 0x0 PUSH2 0x6B8 DUP5 DUP3 DUP6 ADD PUSH2 0x67F JUMP JUMPDEST SWAP2 POP POP SWAP3 SWAP2 POP POP JUMP JUMPDEST PUSH1 0x0 DUP2 MLOAD SWAP1 POP SWAP2 SWAP1 POP JUMP JUMPDEST PUSH1 0x0 DUP3 DUP3 MSTORE PUSH1 0x20 DUP3 ADD SWAP1 POP SWAP3 SWAP2 POP POP JUMP JUMPDEST PUSH1 0x0 JUMPDEST DUP4 DUP2 LT ISZERO PUSH2 0x6FB JUMPI DUP1 DUP3 ADD MLOAD DUP2 DUP5 ADD MSTORE PUSH1 0x20 DUP2 ADD SWAP1 POP PUSH2 0x6E0 JUMP JUMPDEST PUSH1 0x0 DUP5 DUP5 ADD MSTORE POP POP POP POP JUMP JUMPDEST PUSH1 0x0 PUSH1 0x1F NOT PUSH1 0x1F DUP4 ADD AND SWAP1 POP SWAP2 SWAP1 POP JUMP JUMPDEST PUSH1 0x0 PUSH2 0x723 DUP3 PUSH2 0x6C1 JUMP JUMPDEST PUSH2 0x72D DUP2 DUP6 PUSH2 0x6CC JUMP JUMPDEST SWAP4 POP PUSH2 0x73D DUP2 DUP6 PUSH1 0x20 DUP7 ADD PUSH2 0x6DD JUMP JUMPDEST PUSH2 0x746 DUP2 PUSH2 0x707 JUMP JUMPDEST DUP5 ADD SWAP2 POP POP SWAP3 SWAP2 POP POP JUMP JUMPDEST PUSH2 0x75A DUP2 PUSH2 0x65E JUMP JUMPDEST DUP3 MSTORE POP POP JUMP JUMPDEST PUSH1 0x0 PUSH1 0x60 DUP3 ADD SWAP1 POP DUP2 DUP2 SUB PUSH1 0x0 DUP4 ADD MSTORE PUSH2 0x77A DUP2 DUP7 PUSH2 0x718 JUMP JUMPDEST SWAP1 POP DUP2 DUP2 SUB PUSH1 0x20 DUP4 ADD MSTORE PUSH2 0x78E DUP2 DUP6 PUSH2 0x718 JUMP JUMPDEST SWAP1 POP PUSH2 0x79D PUSH1 0x40 DUP4 ADD DUP5 PUSH2 0x751 JUMP JUMPDEST SWAP5 SWAP4 POP POP POP POP JUMP JUMPDEST PUSH1 0x0 DUP2 MLOAD SWAP1 POP SWAP2 SWAP1 POP JUMP JUMPDEST PUSH1 0x0 DUP3 DUP3 MSTORE PUSH1 0x20 DUP3 ADD SWAP1 POP SWAP3 SWAP2 POP POP JUMP JUMPDEST PUSH1 0x0 DUP2 SWAP1 POP PUSH1 0x20 DUP3 ADD SWAP1 POP SWAP2 SWAP1 POP JUMP JUMPDEST PUSH1 0x0 DUP3 DUP3 MSTORE PUSH1 0x20 DUP3 ADD SWAP1 POP SWAP3 SWAP2 POP POP JUMP JUMPDEST PUSH1 0x0 PUSH2 0x7ED DUP3 PUSH2 0x6C1 JUMP JUMPDEST PUSH2 0x7F7 DUP2 DUP6 PUSH2 0x7D1 JUMP JUMPDEST SWAP4 POP PUSH2 0x807 DUP2 DUP6 PUSH1 0x20 DUP7 ADD PUSH2 0x6DD JUMP JUMPDEST PUSH2 0x810 DUP2 PUSH2 0x707 JUMP JUMPDEST DUP5 ADD SWAP2 POP POP SWAP3 SWAP2 POP POP JUMP JUMPDEST PUSH2 0x824 DUP2 PUSH2 0x65E JUMP JUMPDEST DUP3 MSTORE POP POP JUMP JUMPDEST PUSH1 0x0 PUSH1 0x60 DUP4 ADD PUSH1 0x0 DUP4 ADD MLOAD DUP5 DUP3 SUB PUSH1 0x0 DUP7 ADD MSTORE PUSH2 0x847 DUP3 DUP3 PUSH2 0x7E2 JUMP JUMPDEST SWAP2 POP POP PUSH1 0x20 DUP4 ADD MLOAD DUP5 DUP3 SUB PUSH1 0x20 DUP7 ADD MSTORE PUSH2 0x861 DUP3 DUP3 PUSH2 0x7E2 JUMP JUMPDEST SWAP2 POP POP PUSH1 0x40 DUP4 ADD MLOAD PUSH2 0x876 PUSH1 0x40 DUP7 ADD DUP3 PUSH2 0x81B JUMP JUMPDEST POP DUP1 SWAP2 POP POP SWAP3 SWAP2 POP POP JUMP JUMPDEST PUSH1 0x0 PUSH2 0x88D DUP4 DUP4 PUSH2 0x82A JUMP JUMPDEST SWAP1 POP SWAP3 SWAP2 POP POP JUMP JUMPDEST PUSH1 0x0 PUSH1 0x20 DUP3 ADD SWAP1 POP SWAP2 SWAP1 POP JUMP JUMPDEST PUSH1 0x0 PUSH2 0x8AD DUP3 PUSH2 0x7A5 JUMP JUMPDEST PUSH2 0x8B7 DUP2 DUP6 PUSH2 0x7B0 JUMP JUMPDEST SWAP4 POP DUP4 PUSH1 0x20 DUP3 MUL DUP6 ADD PUSH2 0x8C9 DUP6 PUSH2 0x7C1 JUMP JUMPDEST DUP1 PUSH1 0x0 JUMPDEST DUP6 DUP2 LT ISZERO PUSH2 0x905 JUMPI DUP5 DUP5 SUB DUP10 MSTORE DUP2 MLOAD PUSH2 0x8E6 DUP6 DUP3 PUSH2 0x881 JUMP JUMPDEST SWAP5 POP PUSH2 0x8F1 DUP4 PUSH2 0x895 JUMP JUMPDEST SWAP3 POP PUSH1 0x20 DUP11 ADD SWAP10 POP POP PUSH1 0x1 DUP2 ADD SWAP1 POP PUSH2 0x8CD JUMP JUMPDEST POP DUP3 SWAP8 POP DUP8 SWAP6 POP POP POP POP POP POP SWAP3 SWAP2 POP POP JUMP JUMPDEST PUSH1 0x0 PUSH1 0x20 DUP3 ADD SWAP1 POP DUP2 DUP2 SUB PUSH1 0x0 DUP4 ADD MSTORE PUSH2 0x931 DUP2 DUP5 PUSH2 0x8A2 JUMP JUMPDEST SWAP1 POP SWAP3 SWAP2 POP POP JUMP JUMPDEST PUSH2 0x942 DUP2 PUSH2 0x61D JUMP JUMPDEST DUP2 EQ PUSH2 0x94D JUMPI PUSH1 0x0 DUP1 REVERT JUMPDEST POP JUMP JUMPDEST PUSH1 0x0 DUP2 CALLDATALOAD SWAP1 POP PUSH2 0x95F DUP2 PUSH2 0x939 JUMP JUMPDEST SWAP3 SWAP2 POP POP JUMP JUMPDEST PUSH1 0x0 PUSH1 0x20 DUP3 DUP5 SUB SLT ISZERO PUSH2 0x97B JUMPI PUSH2 0x97A PUSH2 0x659 JUMP JUMPDEST JUMPDEST PUSH1 0x0 PUSH2 0x989 DUP5 DUP3 DUP6 ADD PUSH2 0x950 JUMP JUMPDEST SWAP2 POP POP SWAP3 SWAP2 POP POP JUMP JUMPDEST PUSH1 0x0 DUP2 ISZERO ISZERO SWAP1 POP SWAP2 SWAP1 POP JUMP JUMPDEST PUSH2 0x9A7 DUP2 PUSH2 0x992 JUMP JUMPDEST DUP3 MSTORE POP POP JUMP JUMPDEST PUSH1 0x0 PUSH1 0x40 DUP3 ADD SWAP1 POP PUSH2 0x9C2 PUSH1 0x0 DUP4 ADD DUP6 PUSH2 0x99E JUMP JUMPDEST PUSH2 0x9CF PUSH1 0x20 DUP4 ADD DUP5 PUSH2 0x99E JUMP JUMPDEST SWAP4 SWAP3 POP POP POP JUMP JUMPDEST PUSH32 0x4E487B7100000000000000000000000000000000000000000000000000000000 PUSH1 0x0 MSTORE PUSH1 0x22 PUSH1 0x4 MSTORE PUSH1 0x24 PUSH1 0x0 REVERT JUMPDEST PUSH1 0x0 PUSH1 0x2 DUP3 DIV SWAP1 POP PUSH1 0x1 DUP3 AND DUP1 PUSH2 0xA1D JUMPI PUSH1 0x7F DUP3 AND SWAP2 POP JUMPDEST PUSH1 0x20 DUP3 LT DUP2 SUB PUSH2 0xA30 JUMPI PUSH2 0xA2F PUSH2 0x9D6 JUMP JUMPDEST JUMPDEST POP SWAP2 SWAP1 POP JUMP JUMPDEST PUSH32 0x4F6E6C792074686520636F6E7472616374206F776E65722063616E2067697665 PUSH1 0x0 DUP3 ADD MSTORE PUSH32 0x20726967687420746F20766F74652E0000000000000000000000000000000000 PUSH1 0x20 DUP3 ADD MSTORE POP JUMP JUMPDEST PUSH1 0x0 PUSH2 0xA92 PUSH1 0x2F DUP4 PUSH2 0x6CC JUMP JUMPDEST SWAP2 POP PUSH2 0xA9D DUP3 PUSH2 0xA36 JUMP JUMPDEST PUSH1 0x40 DUP3 ADD SWAP1 POP SWAP2 SWAP1 POP JUMP JUMPDEST PUSH1 0x0 PUSH1 0x20 DUP3 ADD SWAP1 POP DUP2 DUP2 SUB PUSH1 0x0 DUP4 ADD MSTORE PUSH2 0xAC1 DUP2 PUSH2 0xA85 JUMP JUMPDEST SWAP1 POP SWAP2 SWAP1 POP JUMP JUMPDEST PUSH32 0x54686520766F74657220616C726561647920766F7465642E0000000000000000 PUSH1 0x0 DUP3 ADD MSTORE POP JUMP JUMPDEST PUSH1 0x0 PUSH2 0xAFE PUSH1 0x18 DUP4 PUSH2 0x6CC JUMP JUMPDEST SWAP2 POP PUSH2 0xB09 DUP3 PUSH2 0xAC8 JUMP JUMPDEST PUSH1 0x20 DUP3 ADD SWAP1 POP SWAP2 SWAP1 POP JUMP JUMPDEST PUSH1 0x0 PUSH1 0x20 DUP3 ADD SWAP1 POP DUP2 DUP2 SUB PUSH1 0x0 DUP4 ADD MSTORE PUSH2 0xB2D DUP2 PUSH2 0xAF1 JUMP JUMPDEST SWAP1 POP SWAP2 SWAP1 POP JUMP INVALID LOG2 PUSH5 0x6970667358 0x22 SLT KECCAK256 0x28 0xFC MOD PUSH19 0x494E8404118C44E196861C2EC2BA6D826CB4A5 LOG4 0x2C DUP3 0xE0 0x29 LOG1 DUP5 EXTCODECOPY STATICCALL PUSH5 0x736F6C6343 STOP ADDMOD GT STOP CALLER "
				},
				"gasEstimates": {
					"creation": {
						"codeDepositCost": "584400",
						"executionCost": "infinite",
						"totalCost": "infinite"
					},
					"external": {
						"candidates(uint256)": "infinite",
						"contractOwner()": "2599",
						"getCandidatesList()": "infinite",
						"getContractAddress()": "363",
						"giveRightToVote(address)": "29331",
						"voters(address)": "infinite"
					}
				},
				"methodIdentifiers": {
					"candidates(uint256)": "3477ee2e",
					"contractOwner()": "ce606ee0",
					"getCandidatesList()": "4aba5f34",
					"getContractAddress()": "32a2c5d0",
					"giveRightToVote(address)": "9e7b8d61",
					"voters(address)": "a3ec138d"
				}
			},
			"storageLayout": {
				"storage": [
					{
						"astId": 15,
						"contract": "contracts/Ballot/MyBallot.sol:MyBallot",
						"label": "contractOwner",
						"offset": 0,
						"slot": "0",
						"type": "t_address"
					},
					{
						"astId": 20,
						"contract": "contracts/Ballot/MyBallot.sol:MyBallot",
						"label": "voters",
						"offset": 0,
						"slot": "1",
						"type": "t_mapping(t_address,t_struct(Voter)6_storage)"
					},
					{
						"astId": 24,
						"contract": "contracts/Ballot/MyBallot.sol:MyBallot",
						"label": "candidates",
						"offset": 0,
						"slot": "2",
						"type": "t_array(t_struct(Candidate)13_storage)dyn_storage"
					}
				],
				"types": {
					"t_address": {
						"encoding": "inplace",
						"label": "address",
						"numberOfBytes": "20"
					},
					"t_array(t_struct(Candidate)13_storage)dyn_storage": {
						"base": "t_struct(Candidate)13_storage",
						"encoding": "dynamic_array",
						"label": "struct MyBallot.Candidate[]",
						"numberOfBytes": "32"
					},
					"t_bool": {
						"encoding": "inplace",
						"label": "bool",
						"numberOfBytes": "1"
					},
					"t_mapping(t_address,t_struct(Voter)6_storage)": {
						"encoding": "mapping",
						"key": "t_address",
						"label": "mapping(address => struct MyBallot.Voter)",
						"numberOfBytes": "32",
						"value": "t_struct(Voter)6_storage"
					},
					"t_string_storage": {
						"encoding": "bytes",
						"label": "string",
						"numberOfBytes": "32"
					},
					"t_struct(Candidate)13_storage": {
						"encoding": "inplace",
						"label": "struct MyBallot.Candidate",
						"members": [
							{
								"astId": 8,
								"contract": "contracts/Ballot/MyBallot.sol:MyBallot",
								"label": "name",
								"offset": 0,
								"slot": "0",
								"type": "t_string_storage"
							},
							{
								"astId": 10,
								"contract": "contracts/Ballot/MyBallot.sol:MyBallot",
								"label": "party",
								"offset": 0,
								"slot": "1",
								"type": "t_string_storage"
							},
							{
								"astId": 12,
								"contract": "contracts/Ballot/MyBallot.sol:MyBallot",
								"label": "votesCount",
								"offset": 0,
								"slot": "2",
								"type": "t_uint256"
							}
						],
						"numberOfBytes": "96"
					},
					"t_struct(Voter)6_storage": {
						"encoding": "inplace",
						"label": "struct MyBallot.Voter",
						"members": [
							{
								"astId": 3,
								"contract": "contracts/Ballot/MyBallot.sol:MyBallot",
								"label": "canVote",
								"offset": 0,
								"slot": "0",
								"type": "t_bool"
							},
							{
								"astId": 5,
								"contract": "contracts/Ballot/MyBallot.sol:MyBallot",
								"label": "hasVoted",
								"offset": 1,
								"slot": "0",
								"type": "t_bool"
							}
						],
						"numberOfBytes": "32"
					},
					"t_uint256": {
						"encoding": "inplace",
						"label": "uint256",
						"numberOfBytes": "32"
					}
				}
			},
			"userdoc": {
				"kind": "user",
				"methods": {},
				"version": 1
			}
		}
	}
}