{
	"contracts/Ballot/MyBallot.sol": {
		"MyBallot": {
			"abi": [
				{
					"inputs": [
						{
							"internalType": "string[]",
							"name": "proposalCandidatesName",
							"type": "string[]"
						},
						{
							"internalType": "string[]",
							"name": "proposalCandidatesParty",
							"type": "string[]"
						}
					],
					"stateMutability": "nonpayable",
					"type": "constructor"
				},
				{
					"inputs": [],
					"name": "calculateAmountOfTotalVotes",
					"outputs": [
						{
							"internalType": "uint256",
							"name": "total",
							"type": "uint256"
						}
					],
					"stateMutability": "view",
					"type": "function"
				},
				{
					"inputs": [
						{
							"internalType": "uint256",
							"name": "",
							"type": "uint256"
						}
					],
					"name": "candidates",
					"outputs": [
						{
							"internalType": "string",
							"name": "name",
							"type": "string"
						},
						{
							"internalType": "string",
							"name": "party",
							"type": "string"
						},
						{
							"internalType": "uint256",
							"name": "votesCount",
							"type": "uint256"
						}
					],
					"stateMutability": "view",
					"type": "function"
				},
				{
					"inputs": [],
					"name": "contractOwner",
					"outputs": [
						{
							"internalType": "address",
							"name": "",
							"type": "address"
						}
					],
					"stateMutability": "view",
					"type": "function"
				},
				{
					"inputs": [],
					"name": "getCandidatesList",
					"outputs": [
						{
							"components": [
								{
									"internalType": "string",
									"name": "name",
									"type": "string"
								},
								{
									"internalType": "string",
									"name": "party",
									"type": "string"
								},
								{
									"internalType": "uint256",
									"name": "votesCount",
									"type": "uint256"
								}
							],
							"internalType": "struct MyBallot.Candidate[]",
							"name": "",
							"type": "tuple[]"
						}
					],
					"stateMutability": "view",
					"type": "function"
				},
				{
					"inputs": [],
					"name": "getContractAddress",
					"outputs": [
						{
							"internalType": "address",
							"name": "",
							"type": "address"
						}
					],
					"stateMutability": "view",
					"type": "function"
				},
				{
					"inputs": [],
					"name": "getWinnerName",
					"outputs": [
						{
							"internalType": "string",
							"name": "winnerName",
							"type": "string"
						}
					],
					"stateMutability": "view",
					"type": "function"
				},
				{
					"inputs": [],
					"name": "getWinningCandidate",
					"outputs": [
						{
							"internalType": "uint256",
							"name": "winningProposal",
							"type": "uint256"
						}
					],
					"stateMutability": "view",
					"type": "function"
				},
				{
					"inputs": [
						{
							"internalType": "address",
							"name": "voter",
							"type": "address"
						}
					],
					"name": "giveRightToVote",
					"outputs": [],
					"stateMutability": "nonpayable",
					"type": "function"
				},
				{
					"inputs": [
						{
							"internalType": "string",
							"name": "name",
							"type": "string"
						}
					],
					"name": "vote",
					"outputs": [],
					"stateMutability": "nonpayable",
					"type": "function"
				},
				{
					"inputs": [
						{
							"internalType": "address",
							"name": "",
							"type": "address"
						}
					],
					"name": "voters",
					"outputs": [
						{
							"internalType": "bool",
							"name": "canVote",
							"type": "bool"
						},
						{
							"internalType": "bool",
							"name": "hasVoted",
							"type": "bool"
						}
					],
					"stateMutability": "view",
					"type": "function"
				}
			],
			"devdoc": {
				"kind": "dev",
				"methods": {},
				"version": 1
			},
			"evm": {
				"assembly": "    /* \"contracts/Ballot/MyBallot.sol\":132:2851  contract MyBallot {\r... */\n  mstore(0x40, 0x80)\n    /* \"contracts/Ballot/MyBallot.sol\":509:950  constructor(string[] memory proposalCandidatesName, string[] memory proposalCandidatesParty) {\r... */\n  callvalue\n  dup1\n  iszero\n  tag_1\n  jumpi\n  0x00\n  dup1\n  revert\ntag_1:\n  pop\n  mload(0x40)\n  sub(codesize, bytecodeSize)\n  dup1\n  bytecodeSize\n  dup4\n  codecopy\n  dup2\n  dup2\n  add\n  0x40\n  mstore\n  dup2\n  add\n  swap1\n  tag_2\n  swap2\n  swap1\n  tag_3\n  jump\t// in\ntag_2:\n    /* \"contracts/Ballot/MyBallot.sol\":639:649  msg.sender */\n  caller\n    /* \"contracts/Ballot/MyBallot.sol\":623:636  contractOwner */\n  0x00\n  dup1\n    /* \"contracts/Ballot/MyBallot.sol\":623:649  contractOwner = msg.sender */\n  0x0100\n  exp\n  dup2\n  sload\n  dup2\n  0xffffffffffffffffffffffffffffffffffffffff\n  mul\n  not\n  and\n  swap1\n  dup4\n  0xffffffffffffffffffffffffffffffffffffffff\n  and\n  mul\n  or\n  swap1\n  sstore\n  pop\n    /* \"contracts/Ballot/MyBallot.sol\":667:677  uint index */\n  0x00\n    /* \"contracts/Ballot/MyBallot.sol\":662:943  for (uint index = 0; index < proposalCandidatesName.length; index++) {\r... */\ntag_6:\n    /* \"contracts/Ballot/MyBallot.sol\":691:713  proposalCandidatesName */\n  dup3\n    /* \"contracts/Ballot/MyBallot.sol\":691:720  proposalCandidatesName.length */\n  mload\n    /* \"contracts/Ballot/MyBallot.sol\":683:688  index */\n  dup2\n    /* \"contracts/Ballot/MyBallot.sol\":683:720  index < proposalCandidatesName.length */\n  lt\n    /* \"contracts/Ballot/MyBallot.sol\":662:943  for (uint index = 0; index < proposalCandidatesName.length; index++) {\r... */\n  iszero\n  tag_7\n  jumpi\n    /* \"contracts/Ballot/MyBallot.sol\":746:756  candidates */\n  0x02\n    /* \"contracts/Ballot/MyBallot.sol\":762:930  Candidate({\r... */\n  mload(0x40)\n  dup1\n  0x60\n  add\n  0x40\n  mstore\n  dup1\n    /* \"contracts/Ballot/MyBallot.sol\":797:819  proposalCandidatesName */\n  dup6\n    /* \"contracts/Ballot/MyBallot.sol\":820:825  index */\n  dup5\n    /* \"contracts/Ballot/MyBallot.sol\":797:826  proposalCandidatesName[index] */\n  dup2\n  mload\n  dup2\n  lt\n  tag_9\n  jumpi\n  tag_10\n  tag_11\n  jump\t// in\ntag_10:\ntag_9:\n  0x20\n  mul\n  0x20\n  add\n  add\n  mload\n    /* \"contracts/Ballot/MyBallot.sol\":762:930  Candidate({\r... */\n  dup2\n  mstore\n  0x20\n  add\n    /* \"contracts/Ballot/MyBallot.sol\":852:875  proposalCandidatesParty */\n  dup5\n    /* \"contracts/Ballot/MyBallot.sol\":876:881  index */\n  dup5\n    /* \"contracts/Ballot/MyBallot.sol\":852:882  proposalCandidatesParty[index] */\n  dup2\n  mload\n  dup2\n  lt\n  tag_12\n  jumpi\n  tag_13\n  tag_11\n  jump\t// in\ntag_13:\ntag_12:\n  0x20\n  mul\n  0x20\n  add\n  add\n  mload\n    /* \"contracts/Ballot/MyBallot.sol\":762:930  Candidate({\r... */\n  dup2\n  mstore\n  0x20\n  add\n    /* \"contracts/Ballot/MyBallot.sol\":913:914  0 */\n  0x00\n    /* \"contracts/Ballot/MyBallot.sol\":762:930  Candidate({\r... */\n  dup2\n  mstore\n  pop\n    /* \"contracts/Ballot/MyBallot.sol\":746:931  candidates.push(Candidate({\r... */\n  swap1\n  dup1\n  0x01\n  dup2\n  sload\n  add\n  dup1\n  dup3\n  sstore\n  dup1\n  swap2\n  pop\n  pop\n  0x01\n  swap1\n  sub\n  swap1\n  0x00\n  mstore\n  keccak256(0x00, 0x20)\n  swap1\n  0x03\n  mul\n  add\n  0x00\n  swap1\n  swap2\n  swap1\n  swap2\n  swap1\n  swap2\n  pop\n  0x00\n  dup3\n  add\n  mload\n  dup2\n  0x00\n  add\n  swap1\n  dup1\n  mload\n  swap1\n  0x20\n  add\n  swap1\n  tag_15\n  swap3\n  swap2\n  swap1\n  tag_16\n  jump\t// in\ntag_15:\n  pop\n  0x20\n  dup3\n  add\n  mload\n  dup2\n  0x01\n  add\n  swap1\n  dup1\n  mload\n  swap1\n  0x20\n  add\n  swap1\n  tag_17\n  swap3\n  swap2\n  swap1\n  tag_16\n  jump\t// in\ntag_17:\n  pop\n  0x40\n  dup3\n  add\n  mload\n  dup2\n  0x02\n  add\n  sstore\n  pop\n  pop\n    /* \"contracts/Ballot/MyBallot.sol\":722:729  index++ */\n  dup1\n  dup1\n  tag_18\n  swap1\n  tag_19\n  jump\t// in\ntag_18:\n  swap2\n  pop\n  pop\n    /* \"contracts/Ballot/MyBallot.sol\":662:943  for (uint index = 0; index < proposalCandidatesName.length; index++) {\r... */\n  jump(tag_6)\ntag_7:\n  pop\n    /* \"contracts/Ballot/MyBallot.sol\":509:950  constructor(string[] memory proposalCandidatesName, string[] memory proposalCandidatesParty) {\r... */\n  pop\n  pop\n    /* \"contracts/Ballot/MyBallot.sol\":132:2851  contract MyBallot {\r... */\n  jump(tag_20)\ntag_16:\n  dup3\n  dup1\n  sload\n  tag_21\n  swap1\n  tag_22\n  jump\t// in\ntag_21:\n  swap1\n  0x00\n  mstore\n  keccak256(0x00, 0x20)\n  swap1\n  0x1f\n  add\n  0x20\n  swap1\n  div\n  dup2\n  add\n  swap3\n  dup3\n  tag_24\n  jumpi\n  0x00\n  dup6\n  sstore\n  jump(tag_23)\ntag_24:\n  dup3\n  0x1f\n  lt\n  tag_25\n  jumpi\n  dup1\n  mload\n  not(0xff)\n  and\n  dup4\n  dup1\n  add\n  or\n  dup6\n  sstore\n  jump(tag_23)\ntag_25:\n  dup3\n  dup1\n  add\n  0x01\n  add\n  dup6\n  sstore\n  dup3\n  iszero\n  tag_23\n  jumpi\n  swap2\n  dup3\n  add\ntag_26:\n  dup3\n  dup2\n  gt\n  iszero\n  tag_27\n  jumpi\n  dup3\n  mload\n  dup3\n  sstore\n  swap2\n  0x20\n  add\n  swap2\n  swap1\n  0x01\n  add\n  swap1\n  jump(tag_26)\ntag_27:\ntag_23:\n  pop\n  swap1\n  pop\n  tag_28\n  swap2\n  swap1\n  tag_29\n  jump\t// in\ntag_28:\n  pop\n  swap1\n  jump\t// out\ntag_29:\ntag_30:\n  dup1\n  dup3\n  gt\n  iszero\n  tag_31\n  jumpi\n  0x00\n  dup2\n  0x00\n  swap1\n  sstore\n  pop\n  0x01\n  add\n  jump(tag_30)\ntag_31:\n  pop\n  swap1\n  jump\t// out\n    /* \"#utility.yul\":23:995   */\ntag_33:\n    /* \"#utility.yul\":140:145   */\n  0x00\n    /* \"#utility.yul\":165:256   */\n  tag_35\n    /* \"#utility.yul\":181:255   */\n  tag_36\n    /* \"#utility.yul\":248:254   */\n  dup5\n    /* \"#utility.yul\":181:255   */\n  tag_37\n  jump\t// in\ntag_36:\n    /* \"#utility.yul\":165:256   */\n  tag_38\n  jump\t// in\ntag_35:\n    /* \"#utility.yul\":156:256   */\n  swap1\n  pop\n    /* \"#utility.yul\":276:281   */\n  dup1\n    /* \"#utility.yul\":305:311   */\n  dup4\n    /* \"#utility.yul\":298:303   */\n  dup3\n    /* \"#utility.yul\":291:312   */\n  mstore\n    /* \"#utility.yul\":339:343   */\n  0x20\n    /* \"#utility.yul\":332:337   */\n  dup3\n    /* \"#utility.yul\":328:344   */\n  add\n    /* \"#utility.yul\":321:344   */\n  swap1\n  pop\n    /* \"#utility.yul\":365:371   */\n  dup3\n    /* \"#utility.yul\":415:418   */\n  dup6\n    /* \"#utility.yul\":407:411   */\n  0x20\n    /* \"#utility.yul\":399:405   */\n  dup7\n    /* \"#utility.yul\":395:412   */\n  mul\n    /* \"#utility.yul\":390:393   */\n  dup3\n    /* \"#utility.yul\":386:413   */\n  add\n    /* \"#utility.yul\":383:419   */\n  gt\n    /* \"#utility.yul\":380:523   */\n  iszero\n  tag_39\n  jumpi\n    /* \"#utility.yul\":434:513   */\n  tag_40\n  tag_41\n  jump\t// in\ntag_40:\n    /* \"#utility.yul\":380:523   */\ntag_39:\n    /* \"#utility.yul\":547:548   */\n  0x00\n    /* \"#utility.yul\":532:989   */\ntag_42:\n    /* \"#utility.yul\":557:563   */\n  dup6\n    /* \"#utility.yul\":554:555   */\n  dup2\n    /* \"#utility.yul\":551:564   */\n  lt\n    /* \"#utility.yul\":532:989   */\n  iszero\n  tag_44\n  jumpi\n    /* \"#utility.yul\":632:635   */\n  dup2\n    /* \"#utility.yul\":626:636   */\n  mload\n    /* \"#utility.yul\":668:686   */\n  0xffffffffffffffff\n    /* \"#utility.yul\":655:666   */\n  dup2\n    /* \"#utility.yul\":652:687   */\n  gt\n    /* \"#utility.yul\":649:771   */\n  iszero\n  tag_45\n  jumpi\n    /* \"#utility.yul\":690:769   */\n  tag_46\n  tag_47\n  jump\t// in\ntag_46:\n    /* \"#utility.yul\":649:771   */\ntag_45:\n    /* \"#utility.yul\":814:825   */\n  dup1\n    /* \"#utility.yul\":806:812   */\n  dup7\n    /* \"#utility.yul\":802:826   */\n  add\n    /* \"#utility.yul\":852:910   */\n  tag_48\n    /* \"#utility.yul\":906:909   */\n  dup10\n    /* \"#utility.yul\":894:904   */\n  dup3\n    /* \"#utility.yul\":852:910   */\n  tag_49\n  jump\t// in\ntag_48:\n    /* \"#utility.yul\":847:850   */\n  dup6\n    /* \"#utility.yul\":840:911   */\n  mstore\n    /* \"#utility.yul\":940:944   */\n  0x20\n    /* \"#utility.yul\":935:938   */\n  dup6\n    /* \"#utility.yul\":931:945   */\n  add\n    /* \"#utility.yul\":924:945   */\n  swap5\n  pop\n    /* \"#utility.yul\":974:978   */\n  0x20\n    /* \"#utility.yul\":969:972   */\n  dup5\n    /* \"#utility.yul\":965:979   */\n  add\n    /* \"#utility.yul\":958:979   */\n  swap4\n  pop\n    /* \"#utility.yul\":592:989   */\n  pop\n  pop\n    /* \"#utility.yul\":579:580   */\n  0x01\n    /* \"#utility.yul\":576:577   */\n  dup2\n    /* \"#utility.yul\":572:581   */\n  add\n    /* \"#utility.yul\":567:581   */\n  swap1\n  pop\n    /* \"#utility.yul\":532:989   */\n  jump(tag_42)\ntag_44:\n    /* \"#utility.yul\":536:550   */\n  pop\n    /* \"#utility.yul\":146:995   */\n  pop\n  pop\n    /* \"#utility.yul\":23:995   */\n  swap4\n  swap3\n  pop\n  pop\n  pop\n  jump\t// out\n    /* \"#utility.yul\":1001:1422   */\ntag_50:\n    /* \"#utility.yul\":1090:1095   */\n  0x00\n    /* \"#utility.yul\":1115:1181   */\n  tag_52\n    /* \"#utility.yul\":1131:1180   */\n  tag_53\n    /* \"#utility.yul\":1173:1179   */\n  dup5\n    /* \"#utility.yul\":1131:1180   */\n  tag_54\n  jump\t// in\ntag_53:\n    /* \"#utility.yul\":1115:1181   */\n  tag_38\n  jump\t// in\ntag_52:\n    /* \"#utility.yul\":1106:1181   */\n  swap1\n  pop\n    /* \"#utility.yul\":1204:1210   */\n  dup3\n    /* \"#utility.yul\":1197:1202   */\n  dup2\n    /* \"#utility.yul\":1190:1211   */\n  mstore\n    /* \"#utility.yul\":1242:1246   */\n  0x20\n    /* \"#utility.yul\":1235:1240   */\n  dup2\n    /* \"#utility.yul\":1231:1247   */\n  add\n    /* \"#utility.yul\":1280:1283   */\n  dup5\n    /* \"#utility.yul\":1271:1277   */\n  dup5\n    /* \"#utility.yul\":1266:1269   */\n  dup5\n    /* \"#utility.yul\":1262:1278   */\n  add\n    /* \"#utility.yul\":1259:1284   */\n  gt\n    /* \"#utility.yul\":1256:1368   */\n  iszero\n  tag_55\n  jumpi\n    /* \"#utility.yul\":1287:1366   */\n  tag_56\n  tag_57\n  jump\t// in\ntag_56:\n    /* \"#utility.yul\":1256:1368   */\ntag_55:\n    /* \"#utility.yul\":1377:1416   */\n  tag_58\n    /* \"#utility.yul\":1409:1415   */\n  dup5\n    /* \"#utility.yul\":1404:1407   */\n  dup3\n    /* \"#utility.yul\":1399:1402   */\n  dup6\n    /* \"#utility.yul\":1377:1416   */\n  tag_59\n  jump\t// in\ntag_58:\n    /* \"#utility.yul\":1096:1422   */\n  pop\n    /* \"#utility.yul\":1001:1422   */\n  swap4\n  swap3\n  pop\n  pop\n  pop\n  jump\t// out\n    /* \"#utility.yul\":1444:1849   */\ntag_60:\n    /* \"#utility.yul\":1536:1541   */\n  0x00\n    /* \"#utility.yul\":1585:1588   */\n  dup3\n    /* \"#utility.yul\":1578:1582   */\n  0x1f\n    /* \"#utility.yul\":1570:1576   */\n  dup4\n    /* \"#utility.yul\":1566:1583   */\n  add\n    /* \"#utility.yul\":1562:1589   */\n  slt\n    /* \"#utility.yul\":1552:1674   */\n  tag_62\n  jumpi\n    /* \"#utility.yul\":1593:1672   */\n  tag_63\n  tag_47\n  jump\t// in\ntag_63:\n    /* \"#utility.yul\":1552:1674   */\ntag_62:\n    /* \"#utility.yul\":1703:1709   */\n  dup2\n    /* \"#utility.yul\":1697:1710   */\n  mload\n    /* \"#utility.yul\":1728:1843   */\n  tag_64\n    /* \"#utility.yul\":1839:1842   */\n  dup5\n    /* \"#utility.yul\":1831:1837   */\n  dup3\n    /* \"#utility.yul\":1824:1828   */\n  0x20\n    /* \"#utility.yul\":1816:1822   */\n  dup7\n    /* \"#utility.yul\":1812:1829   */\n  add\n    /* \"#utility.yul\":1728:1843   */\n  tag_33\n  jump\t// in\ntag_64:\n    /* \"#utility.yul\":1719:1843   */\n  swap2\n  pop\n    /* \"#utility.yul\":1542:1849   */\n  pop\n    /* \"#utility.yul\":1444:1849   */\n  swap3\n  swap2\n  pop\n  pop\n  jump\t// out\n    /* \"#utility.yul\":1869:2224   */\ntag_49:\n    /* \"#utility.yul\":1936:1941   */\n  0x00\n    /* \"#utility.yul\":1985:1988   */\n  dup3\n    /* \"#utility.yul\":1978:1982   */\n  0x1f\n    /* \"#utility.yul\":1970:1976   */\n  dup4\n    /* \"#utility.yul\":1966:1983   */\n  add\n    /* \"#utility.yul\":1962:1989   */\n  slt\n    /* \"#utility.yul\":1952:2074   */\n  tag_66\n  jumpi\n    /* \"#utility.yul\":1993:2072   */\n  tag_67\n  tag_47\n  jump\t// in\ntag_67:\n    /* \"#utility.yul\":1952:2074   */\ntag_66:\n    /* \"#utility.yul\":2103:2109   */\n  dup2\n    /* \"#utility.yul\":2097:2110   */\n  mload\n    /* \"#utility.yul\":2128:2218   */\n  tag_68\n    /* \"#utility.yul\":2214:2217   */\n  dup5\n    /* \"#utility.yul\":2206:2212   */\n  dup3\n    /* \"#utility.yul\":2199:2203   */\n  0x20\n    /* \"#utility.yul\":2191:2197   */\n  dup7\n    /* \"#utility.yul\":2187:2204   */\n  add\n    /* \"#utility.yul\":2128:2218   */\n  tag_50\n  jump\t// in\ntag_68:\n    /* \"#utility.yul\":2119:2218   */\n  swap2\n  pop\n    /* \"#utility.yul\":1942:2224   */\n  pop\n    /* \"#utility.yul\":1869:2224   */\n  swap3\n  swap2\n  pop\n  pop\n  jump\t// out\n    /* \"#utility.yul\":2230:3183   */\ntag_3:\n    /* \"#utility.yul\":2379:2385   */\n  0x00\n    /* \"#utility.yul\":2387:2393   */\n  dup1\n    /* \"#utility.yul\":2436:2438   */\n  0x40\n    /* \"#utility.yul\":2424:2433   */\n  dup4\n    /* \"#utility.yul\":2415:2422   */\n  dup6\n    /* \"#utility.yul\":2411:2434   */\n  sub\n    /* \"#utility.yul\":2407:2439   */\n  slt\n    /* \"#utility.yul\":2404:2523   */\n  iszero\n  tag_70\n  jumpi\n    /* \"#utility.yul\":2442:2521   */\n  tag_71\n  tag_72\n  jump\t// in\ntag_71:\n    /* \"#utility.yul\":2404:2523   */\ntag_70:\n    /* \"#utility.yul\":2583:2584   */\n  0x00\n    /* \"#utility.yul\":2572:2581   */\n  dup4\n    /* \"#utility.yul\":2568:2585   */\n  add\n    /* \"#utility.yul\":2562:2586   */\n  mload\n    /* \"#utility.yul\":2613:2631   */\n  0xffffffffffffffff\n    /* \"#utility.yul\":2605:2611   */\n  dup2\n    /* \"#utility.yul\":2602:2632   */\n  gt\n    /* \"#utility.yul\":2599:2716   */\n  iszero\n  tag_73\n  jumpi\n    /* \"#utility.yul\":2635:2714   */\n  tag_74\n  tag_75\n  jump\t// in\ntag_74:\n    /* \"#utility.yul\":2599:2716   */\ntag_73:\n    /* \"#utility.yul\":2740:2839   */\n  tag_76\n    /* \"#utility.yul\":2831:2838   */\n  dup6\n    /* \"#utility.yul\":2822:2828   */\n  dup3\n    /* \"#utility.yul\":2811:2820   */\n  dup7\n    /* \"#utility.yul\":2807:2829   */\n  add\n    /* \"#utility.yul\":2740:2839   */\n  tag_60\n  jump\t// in\ntag_76:\n    /* \"#utility.yul\":2730:2839   */\n  swap3\n  pop\n    /* \"#utility.yul\":2533:2849   */\n  pop\n    /* \"#utility.yul\":2909:2911   */\n  0x20\n    /* \"#utility.yul\":2898:2907   */\n  dup4\n    /* \"#utility.yul\":2894:2912   */\n  add\n    /* \"#utility.yul\":2888:2913   */\n  mload\n    /* \"#utility.yul\":2940:2958   */\n  0xffffffffffffffff\n    /* \"#utility.yul\":2932:2938   */\n  dup2\n    /* \"#utility.yul\":2929:2959   */\n  gt\n    /* \"#utility.yul\":2926:3043   */\n  iszero\n  tag_77\n  jumpi\n    /* \"#utility.yul\":2962:3041   */\n  tag_78\n  tag_75\n  jump\t// in\ntag_78:\n    /* \"#utility.yul\":2926:3043   */\ntag_77:\n    /* \"#utility.yul\":3067:3166   */\n  tag_79\n    /* \"#utility.yul\":3158:3165   */\n  dup6\n    /* \"#utility.yul\":3149:3155   */\n  dup3\n    /* \"#utility.yul\":3138:3147   */\n  dup7\n    /* \"#utility.yul\":3134:3156   */\n  add\n    /* \"#utility.yul\":3067:3166   */\n  tag_60\n  jump\t// in\ntag_79:\n    /* \"#utility.yul\":3057:3166   */\n  swap2\n  pop\n    /* \"#utility.yul\":2859:3176   */\n  pop\n    /* \"#utility.yul\":2230:3183   */\n  swap3\n  pop\n  swap3\n  swap1\n  pop\n  jump\t// out\n    /* \"#utility.yul\":3189:3318   */\ntag_38:\n    /* \"#utility.yul\":3223:3229   */\n  0x00\n    /* \"#utility.yul\":3250:3270   */\n  tag_81\n  tag_82\n  jump\t// in\ntag_81:\n    /* \"#utility.yul\":3240:3270   */\n  swap1\n  pop\n    /* \"#utility.yul\":3279:3312   */\n  tag_83\n    /* \"#utility.yul\":3307:3311   */\n  dup3\n    /* \"#utility.yul\":3299:3305   */\n  dup3\n    /* \"#utility.yul\":3279:3312   */\n  tag_84\n  jump\t// in\ntag_83:\n    /* \"#utility.yul\":3189:3318   */\n  swap2\n  swap1\n  pop\n  jump\t// out\n    /* \"#utility.yul\":3324:3399   */\ntag_82:\n    /* \"#utility.yul\":3357:3363   */\n  0x00\n    /* \"#utility.yul\":3390:3392   */\n  0x40\n    /* \"#utility.yul\":3384:3393   */\n  mload\n    /* \"#utility.yul\":3374:3393   */\n  swap1\n  pop\n    /* \"#utility.yul\":3324:3399   */\n  swap1\n  jump\t// out\n    /* \"#utility.yul\":3405:3726   */\ntag_37:\n    /* \"#utility.yul\":3492:3496   */\n  0x00\n    /* \"#utility.yul\":3582:3600   */\n  0xffffffffffffffff\n    /* \"#utility.yul\":3574:3580   */\n  dup3\n    /* \"#utility.yul\":3571:3601   */\n  gt\n    /* \"#utility.yul\":3568:3624   */\n  iszero\n  tag_87\n  jumpi\n    /* \"#utility.yul\":3604:3622   */\n  tag_88\n  tag_89\n  jump\t// in\ntag_88:\n    /* \"#utility.yul\":3568:3624   */\ntag_87:\n    /* \"#utility.yul\":3654:3658   */\n  0x20\n    /* \"#utility.yul\":3646:3652   */\n  dup3\n    /* \"#utility.yul\":3642:3659   */\n  mul\n    /* \"#utility.yul\":3634:3659   */\n  swap1\n  pop\n    /* \"#utility.yul\":3714:3718   */\n  0x20\n    /* \"#utility.yul\":3708:3712   */\n  dup2\n    /* \"#utility.yul\":3704:3719   */\n  add\n    /* \"#utility.yul\":3696:3719   */\n  swap1\n  pop\n    /* \"#utility.yul\":3405:3726   */\n  swap2\n  swap1\n  pop\n  jump\t// out\n    /* \"#utility.yul\":3732:4040   */\ntag_54:\n    /* \"#utility.yul\":3794:3798   */\n  0x00\n    /* \"#utility.yul\":3884:3902   */\n  0xffffffffffffffff\n    /* \"#utility.yul\":3876:3882   */\n  dup3\n    /* \"#utility.yul\":3873:3903   */\n  gt\n    /* \"#utility.yul\":3870:3926   */\n  iszero\n  tag_91\n  jumpi\n    /* \"#utility.yul\":3906:3924   */\n  tag_92\n  tag_89\n  jump\t// in\ntag_92:\n    /* \"#utility.yul\":3870:3926   */\ntag_91:\n    /* \"#utility.yul\":3944:3973   */\n  tag_93\n    /* \"#utility.yul\":3966:3972   */\n  dup3\n    /* \"#utility.yul\":3944:3973   */\n  tag_94\n  jump\t// in\ntag_93:\n    /* \"#utility.yul\":3936:3973   */\n  swap1\n  pop\n    /* \"#utility.yul\":4028:4032   */\n  0x20\n    /* \"#utility.yul\":4022:4026   */\n  dup2\n    /* \"#utility.yul\":4018:4033   */\n  add\n    /* \"#utility.yul\":4010:4033   */\n  swap1\n  pop\n    /* \"#utility.yul\":3732:4040   */\n  swap2\n  swap1\n  pop\n  jump\t// out\n    /* \"#utility.yul\":4046:4123   */\ntag_95:\n    /* \"#utility.yul\":4083:4090   */\n  0x00\n    /* \"#utility.yul\":4112:4117   */\n  dup2\n    /* \"#utility.yul\":4101:4117   */\n  swap1\n  pop\n    /* \"#utility.yul\":4046:4123   */\n  swap2\n  swap1\n  pop\n  jump\t// out\n    /* \"#utility.yul\":4129:4436   */\ntag_59:\n    /* \"#utility.yul\":4197:4198   */\n  0x00\n    /* \"#utility.yul\":4207:4320   */\ntag_98:\n    /* \"#utility.yul\":4221:4227   */\n  dup4\n    /* \"#utility.yul\":4218:4219   */\n  dup2\n    /* \"#utility.yul\":4215:4228   */\n  lt\n    /* \"#utility.yul\":4207:4320   */\n  iszero\n  tag_100\n  jumpi\n    /* \"#utility.yul\":4306:4307   */\n  dup1\n    /* \"#utility.yul\":4301:4304   */\n  dup3\n    /* \"#utility.yul\":4297:4308   */\n  add\n    /* \"#utility.yul\":4291:4309   */\n  mload\n    /* \"#utility.yul\":4287:4288   */\n  dup2\n    /* \"#utility.yul\":4282:4285   */\n  dup5\n    /* \"#utility.yul\":4278:4289   */\n  add\n    /* \"#utility.yul\":4271:4310   */\n  mstore\n    /* \"#utility.yul\":4243:4245   */\n  0x20\n    /* \"#utility.yul\":4240:4241   */\n  dup2\n    /* \"#utility.yul\":4236:4246   */\n  add\n    /* \"#utility.yul\":4231:4246   */\n  swap1\n  pop\n    /* \"#utility.yul\":4207:4320   */\n  jump(tag_98)\ntag_100:\n    /* \"#utility.yul\":4338:4344   */\n  dup4\n    /* \"#utility.yul\":4335:4336   */\n  dup2\n    /* \"#utility.yul\":4332:4345   */\n  gt\n    /* \"#utility.yul\":4329:4430   */\n  iszero\n  tag_101\n  jumpi\n    /* \"#utility.yul\":4418:4419   */\n  0x00\n    /* \"#utility.yul\":4409:4415   */\n  dup5\n    /* \"#utility.yul\":4404:4407   */\n  dup5\n    /* \"#utility.yul\":4400:4416   */\n  add\n    /* \"#utility.yul\":4393:4420   */\n  mstore\n    /* \"#utility.yul\":4329:4430   */\ntag_101:\n    /* \"#utility.yul\":4178:4436   */\n  pop\n    /* \"#utility.yul\":4129:4436   */\n  pop\n  pop\n  pop\n  jump\t// out\n    /* \"#utility.yul\":4442:4762   */\ntag_22:\n    /* \"#utility.yul\":4486:4492   */\n  0x00\n    /* \"#utility.yul\":4523:4524   */\n  0x02\n    /* \"#utility.yul\":4517:4521   */\n  dup3\n    /* \"#utility.yul\":4513:4525   */\n  div\n    /* \"#utility.yul\":4503:4525   */\n  swap1\n  pop\n    /* \"#utility.yul\":4570:4571   */\n  0x01\n    /* \"#utility.yul\":4564:4568   */\n  dup3\n    /* \"#utility.yul\":4560:4572   */\n  and\n    /* \"#utility.yul\":4591:4609   */\n  dup1\n    /* \"#utility.yul\":4581:4662   */\n  tag_103\n  jumpi\n    /* \"#utility.yul\":4647:4651   */\n  0x7f\n    /* \"#utility.yul\":4639:4645   */\n  dup3\n    /* \"#utility.yul\":4635:4652   */\n  and\n    /* \"#utility.yul\":4625:4652   */\n  swap2\n  pop\n    /* \"#utility.yul\":4581:4662   */\ntag_103:\n    /* \"#utility.yul\":4709:4711   */\n  0x20\n    /* \"#utility.yul\":4701:4707   */\n  dup3\n    /* \"#utility.yul\":4698:4712   */\n  lt\n    /* \"#utility.yul\":4678:4696   */\n  dup2\n    /* \"#utility.yul\":4675:4713   */\n  eq\n    /* \"#utility.yul\":4672:4756   */\n  iszero\n  tag_104\n  jumpi\n    /* \"#utility.yul\":4728:4746   */\n  tag_105\n  tag_106\n  jump\t// in\ntag_105:\n    /* \"#utility.yul\":4672:4756   */\ntag_104:\n    /* \"#utility.yul\":4493:4762   */\n  pop\n    /* \"#utility.yul\":4442:4762   */\n  swap2\n  swap1\n  pop\n  jump\t// out\n    /* \"#utility.yul\":4768:5049   */\ntag_84:\n    /* \"#utility.yul\":4851:4878   */\n  tag_108\n    /* \"#utility.yul\":4873:4877   */\n  dup3\n    /* \"#utility.yul\":4851:4878   */\n  tag_94\n  jump\t// in\ntag_108:\n    /* \"#utility.yul\":4843:4849   */\n  dup2\n    /* \"#utility.yul\":4839:4879   */\n  add\n    /* \"#utility.yul\":4981:4987   */\n  dup2\n    /* \"#utility.yul\":4969:4979   */\n  dup2\n    /* \"#utility.yul\":4966:4988   */\n  lt\n    /* \"#utility.yul\":4945:4963   */\n  0xffffffffffffffff\n    /* \"#utility.yul\":4933:4943   */\n  dup3\n    /* \"#utility.yul\":4930:4964   */\n  gt\n    /* \"#utility.yul\":4927:4989   */\n  or\n    /* \"#utility.yul\":4924:5012   */\n  iszero\n  tag_109\n  jumpi\n    /* \"#utility.yul\":4992:5010   */\n  tag_110\n  tag_89\n  jump\t// in\ntag_110:\n    /* \"#utility.yul\":4924:5012   */\ntag_109:\n    /* \"#utility.yul\":5032:5042   */\n  dup1\n    /* \"#utility.yul\":5028:5030   */\n  0x40\n    /* \"#utility.yul\":5021:5043   */\n  mstore\n    /* \"#utility.yul\":4811:5049   */\n  pop\n    /* \"#utility.yul\":4768:5049   */\n  pop\n  pop\n  jump\t// out\n    /* \"#utility.yul\":5055:5288   */\ntag_19:\n    /* \"#utility.yul\":5094:5097   */\n  0x00\n    /* \"#utility.yul\":5117:5141   */\n  tag_112\n    /* \"#utility.yul\":5135:5140   */\n  dup3\n    /* \"#utility.yul\":5117:5141   */\n  tag_95\n  jump\t// in\ntag_112:\n    /* \"#utility.yul\":5108:5141   */\n  swap2\n  pop\n    /* \"#utility.yul\":5163:5229   */\n  0xffffffffffffffffffffffffffffffffffffffffffffffffffffffffffffffff\n    /* \"#utility.yul\":5156:5161   */\n  dup3\n    /* \"#utility.yul\":5153:5230   */\n  eq\n    /* \"#utility.yul\":5150:5253   */\n  iszero\n  tag_113\n  jumpi\n    /* \"#utility.yul\":5233:5251   */\n  tag_114\n  tag_115\n  jump\t// in\ntag_114:\n    /* \"#utility.yul\":5150:5253   */\ntag_113:\n    /* \"#utility.yul\":5280:5281   */\n  0x01\n    /* \"#utility.yul\":5273:5278   */\n  dup3\n    /* \"#utility.yul\":5269:5282   */\n  add\n    /* \"#utility.yul\":5262:5282   */\n  swap1\n  pop\n    /* \"#utility.yul\":5055:5288   */\n  swap2\n  swap1\n  pop\n  jump\t// out\n    /* \"#utility.yul\":5294:5474   */\ntag_115:\n    /* \"#utility.yul\":5342:5419   */\n  0x4e487b7100000000000000000000000000000000000000000000000000000000\n    /* \"#utility.yul\":5339:5340   */\n  0x00\n    /* \"#utility.yul\":5332:5420   */\n  mstore\n    /* \"#utility.yul\":5439:5443   */\n  0x11\n    /* \"#utility.yul\":5436:5437   */\n  0x04\n    /* \"#utility.yul\":5429:5444   */\n  mstore\n    /* \"#utility.yul\":5463:5467   */\n  0x24\n    /* \"#utility.yul\":5460:5461   */\n  0x00\n    /* \"#utility.yul\":5453:5468   */\n  revert\n    /* \"#utility.yul\":5480:5660   */\ntag_106:\n    /* \"#utility.yul\":5528:5605   */\n  0x4e487b7100000000000000000000000000000000000000000000000000000000\n    /* \"#utility.yul\":5525:5526   */\n  0x00\n    /* \"#utility.yul\":5518:5606   */\n  mstore\n    /* \"#utility.yul\":5625:5629   */\n  0x22\n    /* \"#utility.yul\":5622:5623   */\n  0x04\n    /* \"#utility.yul\":5615:5630   */\n  mstore\n    /* \"#utility.yul\":5649:5653   */\n  0x24\n    /* \"#utility.yul\":5646:5647   */\n  0x00\n    /* \"#utility.yul\":5639:5654   */\n  revert\n    /* \"#utility.yul\":5666:5846   */\ntag_11:\n    /* \"#utility.yul\":5714:5791   */\n  0x4e487b7100000000000000000000000000000000000000000000000000000000\n    /* \"#utility.yul\":5711:5712   */\n  0x00\n    /* \"#utility.yul\":5704:5792   */\n  mstore\n    /* \"#utility.yul\":5811:5815   */\n  0x32\n    /* \"#utility.yul\":5808:5809   */\n  0x04\n    /* \"#utility.yul\":5801:5816   */\n  mstore\n    /* \"#utility.yul\":5835:5839   */\n  0x24\n    /* \"#utility.yul\":5832:5833   */\n  0x00\n    /* \"#utility.yul\":5825:5840   */\n  revert\n    /* \"#utility.yul\":5852:6032   */\ntag_89:\n    /* \"#utility.yul\":5900:5977   */\n  0x4e487b7100000000000000000000000000000000000000000000000000000000\n    /* \"#utility.yul\":5897:5898   */\n  0x00\n    /* \"#utility.yul\":5890:5978   */\n  mstore\n    /* \"#utility.yul\":5997:6001   */\n  0x41\n    /* \"#utility.yul\":5994:5995   */\n  0x04\n    /* \"#utility.yul\":5987:6002   */\n  mstore\n    /* \"#utility.yul\":6021:6025   */\n  0x24\n    /* \"#utility.yul\":6018:6019   */\n  0x00\n    /* \"#utility.yul\":6011:6026   */\n  revert\n    /* \"#utility.yul\":6038:6155   */\ntag_47:\n    /* \"#utility.yul\":6147:6148   */\n  0x00\n    /* \"#utility.yul\":6144:6145   */\n  dup1\n    /* \"#utility.yul\":6137:6149   */\n  revert\n    /* \"#utility.yul\":6161:6278   */\ntag_41:\n    /* \"#utility.yul\":6270:6271   */\n  0x00\n    /* \"#utility.yul\":6267:6268   */\n  dup1\n    /* \"#utility.yul\":6260:6272   */\n  revert\n    /* \"#utility.yul\":6284:6401   */\ntag_57:\n    /* \"#utility.yul\":6393:6394   */\n  0x00\n    /* \"#utility.yul\":6390:6391   */\n  dup1\n    /* \"#utility.yul\":6383:6395   */\n  revert\n    /* \"#utility.yul\":6407:6524   */\ntag_75:\n    /* \"#utility.yul\":6516:6517   */\n  0x00\n    /* \"#utility.yul\":6513:6514   */\n  dup1\n    /* \"#utility.yul\":6506:6518   */\n  revert\n    /* \"#utility.yul\":6530:6647   */\ntag_72:\n    /* \"#utility.yul\":6639:6640   */\n  0x00\n    /* \"#utility.yul\":6636:6637   */\n  dup1\n    /* \"#utility.yul\":6629:6641   */\n  revert\n    /* \"#utility.yul\":6653:6755   */\ntag_94:\n    /* \"#utility.yul\":6694:6700   */\n  0x00\n    /* \"#utility.yul\":6745:6747   */\n  0x1f\n    /* \"#utility.yul\":6741:6748   */\n  not\n    /* \"#utility.yul\":6736:6738   */\n  0x1f\n    /* \"#utility.yul\":6729:6734   */\n  dup4\n    /* \"#utility.yul\":6725:6739   */\n  add\n    /* \"#utility.yul\":6721:6749   */\n  and\n    /* \"#utility.yul\":6711:6749   */\n  swap1\n  pop\n    /* \"#utility.yul\":6653:6755   */\n  swap2\n  swap1\n  pop\n  jump\t// out\n    /* \"contracts/Ballot/MyBallot.sol\":132:2851  contract MyBallot {\r... */\ntag_20:\n  dataSize(sub_0)\n  dup1\n  dataOffset(sub_0)\n  0x00\n  codecopy\n  0x00\n  return\nstop\n\nsub_0: assembly {\n        /* \"contracts/Ballot/MyBallot.sol\":132:2851  contract MyBallot {\r... */\n      mstore(0x40, 0x80)\n      callvalue\n      dup1\n      iszero\n      tag_1\n      jumpi\n      0x00\n      dup1\n      revert\n    tag_1:\n      pop\n      jumpi(tag_2, lt(calldatasize, 0x04))\n      shr(0xe0, calldataload(0x00))\n      dup1\n      0x9e7b8d61\n      gt\n      tag_13\n      jumpi\n      dup1\n      0x9e7b8d61\n      eq\n      tag_8\n      jumpi\n      dup1\n      0xa3ec138d\n      eq\n      tag_9\n      jumpi\n      dup1\n      0xce606ee0\n      eq\n      tag_10\n      jumpi\n      dup1\n      0xf927cc29\n      eq\n      tag_11\n      jumpi\n      dup1\n      0xfc36e15b\n      eq\n      tag_12\n      jumpi\n      jump(tag_2)\n    tag_13:\n      dup1\n      0x01c5556a\n      eq\n      tag_3\n      jumpi\n      dup1\n      0x2bfda515\n      eq\n      tag_4\n      jumpi\n      dup1\n      0x32a2c5d0\n      eq\n      tag_5\n      jumpi\n      dup1\n      0x3477ee2e\n      eq\n      tag_6\n      jumpi\n      dup1\n      0x4aba5f34\n      eq\n      tag_7\n      jumpi\n    tag_2:\n      0x00\n      dup1\n      revert\n        /* \"contracts/Ballot/MyBallot.sol\":2619:2848  function calculateAmountOfTotalVotes() public view returns (uint total) {\r... */\n    tag_3:\n      tag_14\n      tag_15\n      jump\t// in\n    tag_14:\n      mload(0x40)\n      tag_16\n      swap2\n      swap1\n      tag_17\n      jump\t// in\n    tag_16:\n      mload(0x40)\n      dup1\n      swap2\n      sub\n      swap1\n      return\n        /* \"contracts/Ballot/MyBallot.sol\":2248:2390  function getWinnerName() public view returns (string memory winnerName) {\r... */\n    tag_4:\n      tag_18\n      tag_19\n      jump\t// in\n    tag_18:\n      mload(0x40)\n      tag_20\n      swap2\n      swap1\n      tag_21\n      jump\t// in\n    tag_20:\n      mload(0x40)\n      dup1\n      swap2\n      sub\n      swap1\n      return\n        /* \"contracts/Ballot/MyBallot.sol\":2512:2611  function getContractAddress() public view returns (address) {\r... */\n    tag_5:\n      tag_22\n      tag_23\n      jump\t// in\n    tag_22:\n      mload(0x40)\n      tag_24\n      swap2\n      swap1\n      tag_25\n      jump\t// in\n    tag_24:\n      mload(0x40)\n      dup1\n      swap2\n      sub\n      swap1\n      return\n        /* \"contracts/Ballot/MyBallot.sol\":463:492  Candidate[] public candidates */\n    tag_6:\n      tag_26\n      0x04\n      dup1\n      calldatasize\n      sub\n      dup2\n      add\n      swap1\n      tag_27\n      swap2\n      swap1\n      tag_28\n      jump\t// in\n    tag_27:\n      tag_29\n      jump\t// in\n    tag_26:\n      mload(0x40)\n      tag_30\n      swap4\n      swap3\n      swap2\n      swap1\n      tag_31\n      jump\t// in\n    tag_30:\n      mload(0x40)\n      dup1\n      swap2\n      sub\n      swap1\n      return\n        /* \"contracts/Ballot/MyBallot.sol\":2398:2504  function getCandidatesList() public view returns (Candidate[] memory) {\r... */\n    tag_7:\n      tag_32\n      tag_33\n      jump\t// in\n    tag_32:\n      mload(0x40)\n      tag_34\n      swap2\n      swap1\n      tag_35\n      jump\t// in\n    tag_34:\n      mload(0x40)\n      dup1\n      swap2\n      sub\n      swap1\n      return\n        /* \"contracts/Ballot/MyBallot.sol\":958:1295  function giveRightToVote(address voter) public {\r... */\n    tag_8:\n      tag_36\n      0x04\n      dup1\n      calldatasize\n      sub\n      dup2\n      add\n      swap1\n      tag_37\n      swap2\n      swap1\n      tag_38\n      jump\t// in\n    tag_37:\n      tag_39\n      jump\t// in\n    tag_36:\n      stop\n        /* \"contracts/Ballot/MyBallot.sol\":415:454  mapping(address => Voter) public voters */\n    tag_9:\n      tag_40\n      0x04\n      dup1\n      calldatasize\n      sub\n      dup2\n      add\n      swap1\n      tag_41\n      swap2\n      swap1\n      tag_38\n      jump\t// in\n    tag_41:\n      tag_42\n      jump\t// in\n    tag_40:\n      mload(0x40)\n      tag_43\n      swap3\n      swap2\n      swap1\n      tag_44\n      jump\t// in\n    tag_43:\n      mload(0x40)\n      dup1\n      swap2\n      sub\n      swap1\n      return\n        /* \"contracts/Ballot/MyBallot.sol\":378:406  address public contractOwner */\n    tag_10:\n      tag_45\n      tag_46\n      jump\t// in\n    tag_45:\n      mload(0x40)\n      tag_47\n      swap2\n      swap1\n      tag_25\n      jump\t// in\n    tag_47:\n      mload(0x40)\n      dup1\n      swap2\n      sub\n      swap1\n      return\n        /* \"contracts/Ballot/MyBallot.sol\":1800:2240  function getWinningCandidate() public view returns (uint winningProposal) {\r... */\n    tag_11:\n      tag_48\n      tag_49\n      jump\t// in\n    tag_48:\n      mload(0x40)\n      tag_50\n      swap2\n      swap1\n      tag_17\n      jump\t// in\n    tag_50:\n      mload(0x40)\n      dup1\n      swap2\n      sub\n      swap1\n      return\n        /* \"contracts/Ballot/MyBallot.sol\":1303:1792  function vote(string memory name) public {\r... */\n    tag_12:\n      tag_51\n      0x04\n      dup1\n      calldatasize\n      sub\n      dup2\n      add\n      swap1\n      tag_52\n      swap2\n      swap1\n      tag_53\n      jump\t// in\n    tag_52:\n      tag_54\n      jump\t// in\n    tag_51:\n      stop\n        /* \"contracts/Ballot/MyBallot.sol\":2619:2848  function calculateAmountOfTotalVotes() public view returns (uint total) {\r... */\n    tag_15:\n        /* \"contracts/Ballot/MyBallot.sol\":2679:2689  uint total */\n      0x00\n        /* \"contracts/Ballot/MyBallot.sol\":2725:2735  uint index */\n      dup1\n        /* \"contracts/Ballot/MyBallot.sol\":2738:2739  0 */\n      0x00\n        /* \"contracts/Ballot/MyBallot.sol\":2725:2739  uint index = 0 */\n      swap1\n      pop\n        /* \"contracts/Ballot/MyBallot.sol\":2720:2841  for (uint index = 0; index < candidates.length; index++) {\r... */\n    tag_56:\n        /* \"contracts/Ballot/MyBallot.sol\":2749:2759  candidates */\n      0x02\n        /* \"contracts/Ballot/MyBallot.sol\":2749:2766  candidates.length */\n      dup1\n      sload\n      swap1\n      pop\n        /* \"contracts/Ballot/MyBallot.sol\":2741:2746  index */\n      dup2\n        /* \"contracts/Ballot/MyBallot.sol\":2741:2766  index < candidates.length */\n      lt\n        /* \"contracts/Ballot/MyBallot.sol\":2720:2841  for (uint index = 0; index < candidates.length; index++) {\r... */\n      iszero\n      tag_57\n      jumpi\n        /* \"contracts/Ballot/MyBallot.sol\":2801:2811  candidates */\n      0x02\n        /* \"contracts/Ballot/MyBallot.sol\":2812:2817  index */\n      dup2\n        /* \"contracts/Ballot/MyBallot.sol\":2801:2818  candidates[index] */\n      dup2\n      sload\n      dup2\n      lt\n      tag_59\n      jumpi\n      tag_60\n      tag_61\n      jump\t// in\n    tag_60:\n    tag_59:\n      swap1\n      0x00\n      mstore\n      keccak256(0x00, 0x20)\n      swap1\n      0x03\n      mul\n      add\n        /* \"contracts/Ballot/MyBallot.sol\":2801:2829  candidates[index].votesCount */\n      0x02\n      add\n      sload\n        /* \"contracts/Ballot/MyBallot.sol\":2792:2829  total += candidates[index].votesCount */\n      dup3\n      tag_63\n      swap2\n      swap1\n      tag_64\n      jump\t// in\n    tag_63:\n      swap2\n      pop\n        /* \"contracts/Ballot/MyBallot.sol\":2768:2775  index++ */\n      dup1\n      dup1\n      tag_65\n      swap1\n      tag_66\n      jump\t// in\n    tag_65:\n      swap2\n      pop\n      pop\n        /* \"contracts/Ballot/MyBallot.sol\":2720:2841  for (uint index = 0; index < candidates.length; index++) {\r... */\n      jump(tag_56)\n    tag_57:\n      pop\n        /* \"contracts/Ballot/MyBallot.sol\":2619:2848  function calculateAmountOfTotalVotes() public view returns (uint total) {\r... */\n      swap1\n      jump\t// out\n        /* \"contracts/Ballot/MyBallot.sol\":2248:2390  function getWinnerName() public view returns (string memory winnerName) {\r... */\n    tag_19:\n        /* \"contracts/Ballot/MyBallot.sol\":2294:2318  string memory winnerName */\n      0x60\n        /* \"contracts/Ballot/MyBallot.sol\":2344:2354  candidates */\n      0x02\n        /* \"contracts/Ballot/MyBallot.sol\":2355:2376  getWinningCandidate() */\n      tag_68\n        /* \"contracts/Ballot/MyBallot.sol\":2355:2374  getWinningCandidate */\n      tag_49\n        /* \"contracts/Ballot/MyBallot.sol\":2355:2376  getWinningCandidate() */\n      jump\t// in\n    tag_68:\n        /* \"contracts/Ballot/MyBallot.sol\":2344:2377  candidates[getWinningCandidate()] */\n      dup2\n      sload\n      dup2\n      lt\n      tag_69\n      jumpi\n      tag_70\n      tag_61\n      jump\t// in\n    tag_70:\n    tag_69:\n      swap1\n      0x00\n      mstore\n      keccak256(0x00, 0x20)\n      swap1\n      0x03\n      mul\n      add\n        /* \"contracts/Ballot/MyBallot.sol\":2344:2382  candidates[getWinningCandidate()].name */\n      0x00\n      add\n        /* \"contracts/Ballot/MyBallot.sol\":2331:2382  winnerName = candidates[getWinningCandidate()].name */\n      dup1\n      sload\n      tag_72\n      swap1\n      tag_73\n      jump\t// in\n    tag_72:\n      dup1\n      0x1f\n      add\n      0x20\n      dup1\n      swap2\n      div\n      mul\n      0x20\n      add\n      mload(0x40)\n      swap1\n      dup2\n      add\n      0x40\n      mstore\n      dup1\n      swap3\n      swap2\n      swap1\n      dup2\n      dup2\n      mstore\n      0x20\n      add\n      dup3\n      dup1\n      sload\n      tag_74\n      swap1\n      tag_73\n      jump\t// in\n    tag_74:\n      dup1\n      iszero\n      tag_75\n      jumpi\n      dup1\n      0x1f\n      lt\n      tag_76\n      jumpi\n      0x0100\n      dup1\n      dup4\n      sload\n      div\n      mul\n      dup4\n      mstore\n      swap2\n      0x20\n      add\n      swap2\n      jump(tag_75)\n    tag_76:\n      dup3\n      add\n      swap2\n      swap1\n      0x00\n      mstore\n      keccak256(0x00, 0x20)\n      swap1\n    tag_77:\n      dup2\n      sload\n      dup2\n      mstore\n      swap1\n      0x01\n      add\n      swap1\n      0x20\n      add\n      dup1\n      dup4\n      gt\n      tag_77\n      jumpi\n      dup3\n      swap1\n      sub\n      0x1f\n      and\n      dup3\n      add\n      swap2\n    tag_75:\n      pop\n      pop\n      pop\n      pop\n      pop\n      swap1\n      pop\n        /* \"contracts/Ballot/MyBallot.sol\":2248:2390  function getWinnerName() public view returns (string memory winnerName) {\r... */\n      swap1\n      jump\t// out\n        /* \"contracts/Ballot/MyBallot.sol\":2512:2611  function getContractAddress() public view returns (address) {\r... */\n    tag_23:\n        /* \"contracts/Ballot/MyBallot.sol\":2563:2570  address */\n      0x00\n        /* \"contracts/Ballot/MyBallot.sol\":2598:2602  this */\n      address\n        /* \"contracts/Ballot/MyBallot.sol\":2583:2603  return address(this) */\n      swap1\n      pop\n        /* \"contracts/Ballot/MyBallot.sol\":2512:2611  function getContractAddress() public view returns (address) {\r... */\n      swap1\n      jump\t// out\n        /* \"contracts/Ballot/MyBallot.sol\":463:492  Candidate[] public candidates */\n    tag_29:\n      0x02\n      dup2\n      dup2\n      sload\n      dup2\n      lt\n      tag_79\n      jumpi\n      0x00\n      dup1\n      revert\n    tag_79:\n      swap1\n      0x00\n      mstore\n      keccak256(0x00, 0x20)\n      swap1\n      0x03\n      mul\n      add\n      0x00\n      swap2\n      pop\n      swap1\n      pop\n      dup1\n      0x00\n      add\n      dup1\n      sload\n      tag_81\n      swap1\n      tag_73\n      jump\t// in\n    tag_81:\n      dup1\n      0x1f\n      add\n      0x20\n      dup1\n      swap2\n      div\n      mul\n      0x20\n      add\n      mload(0x40)\n      swap1\n      dup2\n      add\n      0x40\n      mstore\n      dup1\n      swap3\n      swap2\n      swap1\n      dup2\n      dup2\n      mstore\n      0x20\n      add\n      dup3\n      dup1\n      sload\n      tag_82\n      swap1\n      tag_73\n      jump\t// in\n    tag_82:\n      dup1\n      iszero\n      tag_83\n      jumpi\n      dup1\n      0x1f\n      lt\n      tag_84\n      jumpi\n      0x0100\n      dup1\n      dup4\n      sload\n      div\n      mul\n      dup4\n      mstore\n      swap2\n      0x20\n      add\n      swap2\n      jump(tag_83)\n    tag_84:\n      dup3\n      add\n      swap2\n      swap1\n      0x00\n      mstore\n      keccak256(0x00, 0x20)\n      swap1\n    tag_85:\n      dup2\n      sload\n      dup2\n      mstore\n      swap1\n      0x01\n      add\n      swap1\n      0x20\n      add\n      dup1\n      dup4\n      gt\n      tag_85\n      jumpi\n      dup3\n      swap1\n      sub\n      0x1f\n      and\n      dup3\n      add\n      swap2\n    tag_83:\n      pop\n      pop\n      pop\n      pop\n      pop\n      swap1\n      dup1\n      0x01\n      add\n      dup1\n      sload\n      tag_86\n      swap1\n      tag_73\n      jump\t// in\n    tag_86:\n      dup1\n      0x1f\n      add\n      0x20\n      dup1\n      swap2\n      div\n      mul\n      0x20\n      add\n      mload(0x40)\n      swap1\n      dup2\n      add\n      0x40\n      mstore\n      dup1\n      swap3\n      swap2\n      swap1\n      dup2\n      dup2\n      mstore\n      0x20\n      add\n      dup3\n      dup1\n      sload\n      tag_87\n      swap1\n      tag_73\n      jump\t// in\n    tag_87:\n      dup1\n      iszero\n      tag_88\n      jumpi\n      dup1\n      0x1f\n      lt\n      tag_89\n      jumpi\n      0x0100\n      dup1\n      dup4\n      sload\n      div\n      mul\n      dup4\n      mstore\n      swap2\n      0x20\n      add\n      swap2\n      jump(tag_88)\n    tag_89:\n      dup3\n      add\n      swap2\n      swap1\n      0x00\n      mstore\n      keccak256(0x00, 0x20)\n      swap1\n    tag_90:\n      dup2\n      sload\n      dup2\n      mstore\n      swap1\n      0x01\n      add\n      swap1\n      0x20\n      add\n      dup1\n      dup4\n      gt\n      tag_90\n      jumpi\n      dup3\n      swap1\n      sub\n      0x1f\n      and\n      dup3\n      add\n      swap2\n    tag_88:\n      pop\n      pop\n      pop\n      pop\n      pop\n      swap1\n      dup1\n      0x02\n      add\n      sload\n      swap1\n      pop\n      dup4\n      jump\t// out\n        /* \"contracts/Ballot/MyBallot.sol\":2398:2504  function getCandidatesList() public view returns (Candidate[] memory) {\r... */\n    tag_33:\n        /* \"contracts/Ballot/MyBallot.sol\":2448:2466  Candidate[] memory */\n      0x60\n        /* \"contracts/Ballot/MyBallot.sol\":2486:2496  candidates */\n      0x02\n        /* \"contracts/Ballot/MyBallot.sol\":2479:2496  return candidates */\n      dup1\n      sload\n      dup1\n      0x20\n      mul\n      0x20\n      add\n      mload(0x40)\n      swap1\n      dup2\n      add\n      0x40\n      mstore\n      dup1\n      swap3\n      swap2\n      swap1\n      dup2\n      dup2\n      mstore\n      0x20\n      add\n      0x00\n      swap1\n    tag_92:\n      dup3\n      dup3\n      lt\n      iszero\n      tag_93\n      jumpi\n      dup4\n      dup3\n      swap1\n      0x00\n      mstore\n      keccak256(0x00, 0x20)\n      swap1\n      0x03\n      mul\n      add\n      mload(0x40)\n      dup1\n      0x60\n      add\n      0x40\n      mstore\n      swap1\n      dup2\n      0x00\n      dup3\n      add\n      dup1\n      sload\n      tag_95\n      swap1\n      tag_73\n      jump\t// in\n    tag_95:\n      dup1\n      0x1f\n      add\n      0x20\n      dup1\n      swap2\n      div\n      mul\n      0x20\n      add\n      mload(0x40)\n      swap1\n      dup2\n      add\n      0x40\n      mstore\n      dup1\n      swap3\n      swap2\n      swap1\n      dup2\n      dup2\n      mstore\n      0x20\n      add\n      dup3\n      dup1\n      sload\n      tag_96\n      swap1\n      tag_73\n      jump\t// in\n    tag_96:\n      dup1\n      iszero\n      tag_97\n      jumpi\n      dup1\n      0x1f\n      lt\n      tag_98\n      jumpi\n      0x0100\n      dup1\n      dup4\n      sload\n      div\n      mul\n      dup4\n      mstore\n      swap2\n      0x20\n      add\n      swap2\n      jump(tag_97)\n    tag_98:\n      dup3\n      add\n      swap2\n      swap1\n      0x00\n      mstore\n      keccak256(0x00, 0x20)\n      swap1\n    tag_99:\n      dup2\n      sload\n      dup2\n      mstore\n      swap1\n      0x01\n      add\n      swap1\n      0x20\n      add\n      dup1\n      dup4\n      gt\n      tag_99\n      jumpi\n      dup3\n      swap1\n      sub\n      0x1f\n      and\n      dup3\n      add\n      swap2\n    tag_97:\n      pop\n      pop\n      pop\n      pop\n      pop\n      dup2\n      mstore\n      0x20\n      add\n      0x01\n      dup3\n      add\n      dup1\n      sload\n      tag_100\n      swap1\n      tag_73\n      jump\t// in\n    tag_100:\n      dup1\n      0x1f\n      add\n      0x20\n      dup1\n      swap2\n      div\n      mul\n      0x20\n      add\n      mload(0x40)\n      swap1\n      dup2\n      add\n      0x40\n      mstore\n      dup1\n      swap3\n      swap2\n      swap1\n      dup2\n      dup2\n      mstore\n      0x20\n      add\n      dup3\n      dup1\n      sload\n      tag_101\n      swap1\n      tag_73\n      jump\t// in\n    tag_101:\n      dup1\n      iszero\n      tag_102\n      jumpi\n      dup1\n      0x1f\n      lt\n      tag_103\n      jumpi\n      0x0100\n      dup1\n      dup4\n      sload\n      div\n      mul\n      dup4\n      mstore\n      swap2\n      0x20\n      add\n      swap2\n      jump(tag_102)\n    tag_103:\n      dup3\n      add\n      swap2\n      swap1\n      0x00\n      mstore\n      keccak256(0x00, 0x20)\n      swap1\n    tag_104:\n      dup2\n      sload\n      dup2\n      mstore\n      swap1\n      0x01\n      add\n      swap1\n      0x20\n      add\n      dup1\n      dup4\n      gt\n      tag_104\n      jumpi\n      dup3\n      swap1\n      sub\n      0x1f\n      and\n      dup3\n      add\n      swap2\n    tag_102:\n      pop\n      pop\n      pop\n      pop\n      pop\n      dup2\n      mstore\n      0x20\n      add\n      0x02\n      dup3\n      add\n      sload\n      dup2\n      mstore\n      pop\n      pop\n      dup2\n      mstore\n      0x20\n      add\n      swap1\n      0x01\n      add\n      swap1\n      jump(tag_92)\n    tag_93:\n      pop\n      pop\n      pop\n      pop\n      swap1\n      pop\n        /* \"contracts/Ballot/MyBallot.sol\":2398:2504  function getCandidatesList() public view returns (Candidate[] memory) {\r... */\n      swap1\n      jump\t// out\n        /* \"contracts/Ballot/MyBallot.sol\":958:1295  function giveRightToVote(address voter) public {\r... */\n    tag_39:\n        /* \"contracts/Ballot/MyBallot.sol\":1052:1065  contractOwner */\n      0x00\n      dup1\n      sload\n      swap1\n      0x0100\n      exp\n      swap1\n      div\n      0xffffffffffffffffffffffffffffffffffffffff\n      and\n        /* \"contracts/Ballot/MyBallot.sol\":1038:1065  msg.sender == contractOwner */\n      0xffffffffffffffffffffffffffffffffffffffff\n      and\n        /* \"contracts/Ballot/MyBallot.sol\":1038:1048  msg.sender */\n      caller\n        /* \"contracts/Ballot/MyBallot.sol\":1038:1065  msg.sender == contractOwner */\n      0xffffffffffffffffffffffffffffffffffffffff\n      and\n      eq\n        /* \"contracts/Ballot/MyBallot.sol\":1016:1140  require(\r... */\n      tag_106\n      jumpi\n      mload(0x40)\n      0x08c379a000000000000000000000000000000000000000000000000000000000\n      dup2\n      mstore\n      0x04\n      add\n      tag_107\n      swap1\n      tag_108\n      jump\t// in\n    tag_107:\n      mload(0x40)\n      dup1\n      swap2\n      sub\n      swap1\n      revert\n    tag_106:\n        /* \"contracts/Ballot/MyBallot.sol\":1174:1180  voters */\n      0x01\n        /* \"contracts/Ballot/MyBallot.sol\":1174:1187  voters[voter] */\n      0x00\n        /* \"contracts/Ballot/MyBallot.sol\":1181:1186  voter */\n      dup3\n        /* \"contracts/Ballot/MyBallot.sol\":1174:1187  voters[voter] */\n      0xffffffffffffffffffffffffffffffffffffffff\n      and\n      0xffffffffffffffffffffffffffffffffffffffff\n      and\n      dup2\n      mstore\n      0x20\n      add\n      swap1\n      dup2\n      mstore\n      0x20\n      add\n      0x00\n      keccak256\n        /* \"contracts/Ballot/MyBallot.sol\":1174:1196  voters[voter].hasVoted */\n      0x00\n      add\n      0x01\n      swap1\n      sload\n      swap1\n      0x0100\n      exp\n      swap1\n      div\n      0xff\n      and\n        /* \"contracts/Ballot/MyBallot.sol\":1173:1196  !voters[voter].hasVoted */\n      iszero\n        /* \"contracts/Ballot/MyBallot.sol\":1151:1248  require(\r... */\n      tag_109\n      jumpi\n      mload(0x40)\n      0x08c379a000000000000000000000000000000000000000000000000000000000\n      dup2\n      mstore\n      0x04\n      add\n      tag_110\n      swap1\n      tag_111\n      jump\t// in\n    tag_110:\n      mload(0x40)\n      dup1\n      swap2\n      sub\n      swap1\n      revert\n    tag_109:\n        /* \"contracts/Ballot/MyBallot.sol\":1283:1287  true */\n      0x01\n        /* \"contracts/Ballot/MyBallot.sol\":1259:1265  voters */\n      dup1\n        /* \"contracts/Ballot/MyBallot.sol\":1259:1272  voters[voter] */\n      0x00\n        /* \"contracts/Ballot/MyBallot.sol\":1266:1271  voter */\n      dup4\n        /* \"contracts/Ballot/MyBallot.sol\":1259:1272  voters[voter] */\n      0xffffffffffffffffffffffffffffffffffffffff\n      and\n      0xffffffffffffffffffffffffffffffffffffffff\n      and\n      dup2\n      mstore\n      0x20\n      add\n      swap1\n      dup2\n      mstore\n      0x20\n      add\n      0x00\n      keccak256\n        /* \"contracts/Ballot/MyBallot.sol\":1259:1280  voters[voter].canVote */\n      0x00\n      add\n      0x00\n        /* \"contracts/Ballot/MyBallot.sol\":1259:1287  voters[voter].canVote = true */\n      0x0100\n      exp\n      dup2\n      sload\n      dup2\n      0xff\n      mul\n      not\n      and\n      swap1\n      dup4\n      iszero\n      iszero\n      mul\n      or\n      swap1\n      sstore\n      pop\n        /* \"contracts/Ballot/MyBallot.sol\":958:1295  function giveRightToVote(address voter) public {\r... */\n      pop\n      jump\t// out\n        /* \"contracts/Ballot/MyBallot.sol\":415:454  mapping(address => Voter) public voters */\n    tag_42:\n      mstore(0x20, 0x01)\n      dup1\n      0x00\n      mstore\n      keccak256(0x00, 0x40)\n      0x00\n      swap2\n      pop\n      swap1\n      pop\n      dup1\n      0x00\n      add\n      0x00\n      swap1\n      sload\n      swap1\n      0x0100\n      exp\n      swap1\n      div\n      0xff\n      and\n      swap1\n      dup1\n      0x00\n      add\n      0x01\n      swap1\n      sload\n      swap1\n      0x0100\n      exp\n      swap1\n      div\n      0xff\n      and\n      swap1\n      pop\n      dup3\n      jump\t// out\n        /* \"contracts/Ballot/MyBallot.sol\":378:406  address public contractOwner */\n    tag_46:\n      0x00\n      dup1\n      sload\n      swap1\n      0x0100\n      exp\n      swap1\n      div\n      0xffffffffffffffffffffffffffffffffffffffff\n      and\n      dup2\n      jump\t// out\n        /* \"contracts/Ballot/MyBallot.sol\":1800:2240  function getWinningCandidate() public view returns (uint winningProposal) {\r... */\n    tag_49:\n        /* \"contracts/Ballot/MyBallot.sol\":1852:1872  uint winningProposal */\n      0x00\n        /* \"contracts/Ballot/MyBallot.sol\":1885:1906  uint winningVoteCount */\n      dup1\n        /* \"contracts/Ballot/MyBallot.sol\":1924:1943  uint indexCandidate */\n      0x00\n        /* \"contracts/Ballot/MyBallot.sol\":1919:2233  for (uint indexCandidate = 0; indexCandidate < candidates.length; indexCandidate++) {\r... */\n    tag_113:\n        /* \"contracts/Ballot/MyBallot.sol\":1966:1976  candidates */\n      0x02\n        /* \"contracts/Ballot/MyBallot.sol\":1966:1983  candidates.length */\n      dup1\n      sload\n      swap1\n      pop\n        /* \"contracts/Ballot/MyBallot.sol\":1949:1963  indexCandidate */\n      dup2\n        /* \"contracts/Ballot/MyBallot.sol\":1949:1983  indexCandidate < candidates.length */\n      lt\n        /* \"contracts/Ballot/MyBallot.sol\":1919:2233  for (uint indexCandidate = 0; indexCandidate < candidates.length; indexCandidate++) {\r... */\n      iszero\n      tag_114\n      jumpi\n        /* \"contracts/Ballot/MyBallot.sol\":2062:2078  winningVoteCount */\n      dup2\n        /* \"contracts/Ballot/MyBallot.sol\":2022:2032  candidates */\n      0x02\n        /* \"contracts/Ballot/MyBallot.sol\":2033:2047  indexCandidate */\n      dup3\n        /* \"contracts/Ballot/MyBallot.sol\":2022:2048  candidates[indexCandidate] */\n      dup2\n      sload\n      dup2\n      lt\n      tag_116\n      jumpi\n      tag_117\n      tag_61\n      jump\t// in\n    tag_117:\n    tag_116:\n      swap1\n      0x00\n      mstore\n      keccak256(0x00, 0x20)\n      swap1\n      0x03\n      mul\n      add\n        /* \"contracts/Ballot/MyBallot.sol\":2022:2059  candidates[indexCandidate].votesCount */\n      0x02\n      add\n      sload\n        /* \"contracts/Ballot/MyBallot.sol\":2022:2078  candidates[indexCandidate].votesCount > winningVoteCount */\n      gt\n        /* \"contracts/Ballot/MyBallot.sol\":2018:2222  if (candidates[indexCandidate].votesCount > winningVoteCount) {\r... */\n      iszero\n      tag_119\n      jumpi\n        /* \"contracts/Ballot/MyBallot.sol\":2118:2128  candidates */\n      0x02\n        /* \"contracts/Ballot/MyBallot.sol\":2129:2143  indexCandidate */\n      dup2\n        /* \"contracts/Ballot/MyBallot.sol\":2118:2144  candidates[indexCandidate] */\n      dup2\n      sload\n      dup2\n      lt\n      tag_120\n      jumpi\n      tag_121\n      tag_61\n      jump\t// in\n    tag_121:\n    tag_120:\n      swap1\n      0x00\n      mstore\n      keccak256(0x00, 0x20)\n      swap1\n      0x03\n      mul\n      add\n        /* \"contracts/Ballot/MyBallot.sol\":2118:2155  candidates[indexCandidate].votesCount */\n      0x02\n      add\n      sload\n        /* \"contracts/Ballot/MyBallot.sol\":2099:2155  winningVoteCount = candidates[indexCandidate].votesCount */\n      swap2\n      pop\n        /* \"contracts/Ballot/MyBallot.sol\":2192:2206  indexCandidate */\n      dup1\n        /* \"contracts/Ballot/MyBallot.sol\":2174:2206  winningProposal = indexCandidate */\n      swap3\n      pop\n        /* \"contracts/Ballot/MyBallot.sol\":2018:2222  if (candidates[indexCandidate].votesCount > winningVoteCount) {\r... */\n    tag_119:\n        /* \"contracts/Ballot/MyBallot.sol\":1985:2001  indexCandidate++ */\n      dup1\n      dup1\n      tag_123\n      swap1\n      tag_66\n      jump\t// in\n    tag_123:\n      swap2\n      pop\n      pop\n        /* \"contracts/Ballot/MyBallot.sol\":1919:2233  for (uint indexCandidate = 0; indexCandidate < candidates.length; indexCandidate++) {\r... */\n      jump(tag_113)\n    tag_114:\n      pop\n        /* \"contracts/Ballot/MyBallot.sol\":1874:2240  {\r... */\n      pop\n        /* \"contracts/Ballot/MyBallot.sol\":1800:2240  function getWinningCandidate() public view returns (uint winningProposal) {\r... */\n      swap1\n      jump\t// out\n        /* \"contracts/Ballot/MyBallot.sol\":1303:1792  function vote(string memory name) public {\r... */\n    tag_54:\n        /* \"contracts/Ballot/MyBallot.sol\":1355:1375  Voter storage sender */\n      0x00\n        /* \"contracts/Ballot/MyBallot.sol\":1378:1384  voters */\n      0x01\n        /* \"contracts/Ballot/MyBallot.sol\":1378:1396  voters[msg.sender] */\n      0x00\n        /* \"contracts/Ballot/MyBallot.sol\":1385:1395  msg.sender */\n      caller\n        /* \"contracts/Ballot/MyBallot.sol\":1378:1396  voters[msg.sender] */\n      0xffffffffffffffffffffffffffffffffffffffff\n      and\n      0xffffffffffffffffffffffffffffffffffffffff\n      and\n      dup2\n      mstore\n      0x20\n      add\n      swap1\n      dup2\n      mstore\n      0x20\n      add\n      0x00\n      keccak256\n        /* \"contracts/Ballot/MyBallot.sol\":1355:1396  Voter storage sender = voters[msg.sender] */\n      swap1\n      pop\n        /* \"contracts/Ballot/MyBallot.sol\":1425:1431  sender */\n      dup1\n        /* \"contracts/Ballot/MyBallot.sol\":1425:1439  sender.canVote */\n      0x00\n      add\n      0x00\n      swap1\n      sload\n      swap1\n      0x0100\n      exp\n      swap1\n      div\n      0xff\n      and\n        /* \"contracts/Ballot/MyBallot.sol\":1417:1464  require(sender.canVote, \"Has no right to vote\") */\n      tag_125\n      jumpi\n      mload(0x40)\n      0x08c379a000000000000000000000000000000000000000000000000000000000\n      dup2\n      mstore\n      0x04\n      add\n      tag_126\n      swap1\n      tag_127\n      jump\t// in\n    tag_126:\n      mload(0x40)\n      dup1\n      swap2\n      sub\n      swap1\n      revert\n    tag_125:\n        /* \"contracts/Ballot/MyBallot.sol\":1484:1490  sender */\n      dup1\n        /* \"contracts/Ballot/MyBallot.sol\":1484:1499  sender.hasVoted */\n      0x00\n      add\n      0x01\n      swap1\n      sload\n      swap1\n      0x0100\n      exp\n      swap1\n      div\n      0xff\n      and\n        /* \"contracts/Ballot/MyBallot.sol\":1483:1499  !sender.hasVoted */\n      iszero\n        /* \"contracts/Ballot/MyBallot.sol\":1475:1518  require(!sender.hasVoted, \"Already voted.\") */\n      tag_128\n      jumpi\n      mload(0x40)\n      0x08c379a000000000000000000000000000000000000000000000000000000000\n      dup2\n      mstore\n      0x04\n      add\n      tag_129\n      swap1\n      tag_130\n      jump\t// in\n    tag_129:\n      mload(0x40)\n      dup1\n      swap2\n      sub\n      swap1\n      revert\n    tag_128:\n        /* \"contracts/Ballot/MyBallot.sol\":1536:1546  uint index */\n      0x00\n        /* \"contracts/Ballot/MyBallot.sol\":1531:1785  for (uint index = 0; index < candidates.length; index++) {\r... */\n    tag_131:\n        /* \"contracts/Ballot/MyBallot.sol\":1560:1570  candidates */\n      0x02\n        /* \"contracts/Ballot/MyBallot.sol\":1560:1577  candidates.length */\n      dup1\n      sload\n      swap1\n      pop\n        /* \"contracts/Ballot/MyBallot.sol\":1552:1557  index */\n      dup2\n        /* \"contracts/Ballot/MyBallot.sol\":1552:1577  index < candidates.length */\n      lt\n        /* \"contracts/Ballot/MyBallot.sol\":1531:1785  for (uint index = 0; index < candidates.length; index++) {\r... */\n      iszero\n      tag_132\n      jumpi\n        /* \"contracts/Ballot/MyBallot.sol\":1676:1680  name */\n      dup3\n        /* \"contracts/Ballot/MyBallot.sol\":1665:1681  abi.encode(name) */\n      add(0x20, mload(0x40))\n      tag_134\n      swap2\n      swap1\n      tag_21\n      jump\t// in\n    tag_134:\n      mload(0x40)\n      0x20\n      dup2\n      dup4\n      sub\n      sub\n      dup2\n      mstore\n      swap1\n      0x40\n      mstore\n        /* \"contracts/Ballot/MyBallot.sol\":1655:1682  keccak256(abi.encode(name)) */\n      dup1\n      mload\n      swap1\n      0x20\n      add\n      keccak256\n        /* \"contracts/Ballot/MyBallot.sol\":1627:1637  candidates */\n      0x02\n        /* \"contracts/Ballot/MyBallot.sol\":1638:1643  index */\n      dup3\n        /* \"contracts/Ballot/MyBallot.sol\":1627:1644  candidates[index] */\n      dup2\n      sload\n      dup2\n      lt\n      tag_135\n      jumpi\n      tag_136\n      tag_61\n      jump\t// in\n    tag_136:\n    tag_135:\n      swap1\n      0x00\n      mstore\n      keccak256(0x00, 0x20)\n      swap1\n      0x03\n      mul\n      add\n        /* \"contracts/Ballot/MyBallot.sol\":1627:1649  candidates[index].name */\n      0x00\n      add\n        /* \"contracts/Ballot/MyBallot.sol\":1616:1650  abi.encode(candidates[index].name) */\n      add(0x20, mload(0x40))\n      tag_138\n      swap2\n      swap1\n      tag_139\n      jump\t// in\n    tag_138:\n      mload(0x40)\n      0x20\n      dup2\n      dup4\n      sub\n      sub\n      dup2\n      mstore\n      swap1\n      0x40\n      mstore\n        /* \"contracts/Ballot/MyBallot.sol\":1606:1651  keccak256(abi.encode(candidates[index].name)) */\n      dup1\n      mload\n      swap1\n      0x20\n      add\n      keccak256\n        /* \"contracts/Ballot/MyBallot.sol\":1606:1682  keccak256(abi.encode(candidates[index].name)) == keccak256(abi.encode(name)) */\n      eq\n        /* \"contracts/Ballot/MyBallot.sol\":1603:1732  if(keccak256(abi.encode(candidates[index].name)) == keccak256(abi.encode(name)))\r... */\n      iszero\n      tag_140\n      jumpi\n        /* \"contracts/Ballot/MyBallot.sol\":1701:1711  candidates */\n      0x02\n        /* \"contracts/Ballot/MyBallot.sol\":1712:1717  index */\n      dup2\n        /* \"contracts/Ballot/MyBallot.sol\":1701:1718  candidates[index] */\n      dup2\n      sload\n      dup2\n      lt\n      tag_141\n      jumpi\n      tag_142\n      tag_61\n      jump\t// in\n    tag_142:\n    tag_141:\n      swap1\n      0x00\n      mstore\n      keccak256(0x00, 0x20)\n      swap1\n      0x03\n      mul\n      add\n        /* \"contracts/Ballot/MyBallot.sol\":1701:1729  candidates[index].votesCount */\n      0x02\n      add\n      0x00\n        /* \"contracts/Ballot/MyBallot.sol\":1701:1732  candidates[index].votesCount ++ */\n      dup2\n      sload\n      dup1\n      swap3\n      swap2\n      swap1\n      tag_144\n      swap1\n      tag_66\n      jump\t// in\n    tag_144:\n      swap2\n      swap1\n      pop\n      sstore\n      pop\n        /* \"contracts/Ballot/MyBallot.sol\":1603:1732  if(keccak256(abi.encode(candidates[index].name)) == keccak256(abi.encode(name)))\r... */\n    tag_140:\n        /* \"contracts/Ballot/MyBallot.sol\":1769:1773  true */\n      0x01\n        /* \"contracts/Ballot/MyBallot.sol\":1751:1757  sender */\n      dup3\n        /* \"contracts/Ballot/MyBallot.sol\":1751:1766  sender.hasVoted */\n      0x00\n      add\n      0x01\n        /* \"contracts/Ballot/MyBallot.sol\":1751:1773  sender.hasVoted = true */\n      0x0100\n      exp\n      dup2\n      sload\n      dup2\n      0xff\n      mul\n      not\n      and\n      swap1\n      dup4\n      iszero\n      iszero\n      mul\n      or\n      swap1\n      sstore\n      pop\n        /* \"contracts/Ballot/MyBallot.sol\":1579:1586  index++ */\n      dup1\n      dup1\n      tag_145\n      swap1\n      tag_66\n      jump\t// in\n    tag_145:\n      swap2\n      pop\n      pop\n        /* \"contracts/Ballot/MyBallot.sol\":1531:1785  for (uint index = 0; index < candidates.length; index++) {\r... */\n      jump(tag_131)\n    tag_132:\n      pop\n        /* \"contracts/Ballot/MyBallot.sol\":1344:1792  {\r... */\n      pop\n        /* \"contracts/Ballot/MyBallot.sol\":1303:1792  function vote(string memory name) public {\r... */\n      pop\n      jump\t// out\n        /* \"#utility.yul\":7:419   */\n    tag_147:\n        /* \"#utility.yul\":85:90   */\n      0x00\n        /* \"#utility.yul\":110:176   */\n      tag_149\n        /* \"#utility.yul\":126:175   */\n      tag_150\n        /* \"#utility.yul\":168:174   */\n      dup5\n        /* \"#utility.yul\":126:175   */\n      tag_151\n      jump\t// in\n    tag_150:\n        /* \"#utility.yul\":110:176   */\n      tag_152\n      jump\t// in\n    tag_149:\n        /* \"#utility.yul\":101:176   */\n      swap1\n      pop\n        /* \"#utility.yul\":199:205   */\n      dup3\n        /* \"#utility.yul\":192:197   */\n      dup2\n        /* \"#utility.yul\":185:206   */\n      mstore\n        /* \"#utility.yul\":237:241   */\n      0x20\n        /* \"#utility.yul\":230:235   */\n      dup2\n        /* \"#utility.yul\":226:242   */\n      add\n        /* \"#utility.yul\":275:278   */\n      dup5\n        /* \"#utility.yul\":266:272   */\n      dup5\n        /* \"#utility.yul\":261:264   */\n      dup5\n        /* \"#utility.yul\":257:273   */\n      add\n        /* \"#utility.yul\":254:279   */\n      gt\n        /* \"#utility.yul\":251:363   */\n      iszero\n      tag_153\n      jumpi\n        /* \"#utility.yul\":282:361   */\n      tag_154\n      tag_155\n      jump\t// in\n    tag_154:\n        /* \"#utility.yul\":251:363   */\n    tag_153:\n        /* \"#utility.yul\":372:413   */\n      tag_156\n        /* \"#utility.yul\":406:412   */\n      dup5\n        /* \"#utility.yul\":401:404   */\n      dup3\n        /* \"#utility.yul\":396:399   */\n      dup6\n        /* \"#utility.yul\":372:413   */\n      tag_157\n      jump\t// in\n    tag_156:\n        /* \"#utility.yul\":91:419   */\n      pop\n        /* \"#utility.yul\":7:419   */\n      swap4\n      swap3\n      pop\n      pop\n      pop\n      jump\t// out\n        /* \"#utility.yul\":425:564   */\n    tag_158:\n        /* \"#utility.yul\":471:476   */\n      0x00\n        /* \"#utility.yul\":509:515   */\n      dup2\n        /* \"#utility.yul\":496:516   */\n      calldataload\n        /* \"#utility.yul\":487:516   */\n      swap1\n      pop\n        /* \"#utility.yul\":525:558   */\n      tag_160\n        /* \"#utility.yul\":552:557   */\n      dup2\n        /* \"#utility.yul\":525:558   */\n      tag_161\n      jump\t// in\n    tag_160:\n        /* \"#utility.yul\":425:564   */\n      swap3\n      swap2\n      pop\n      pop\n      jump\t// out\n        /* \"#utility.yul\":584:924   */\n    tag_162:\n        /* \"#utility.yul\":640:645   */\n      0x00\n        /* \"#utility.yul\":689:692   */\n      dup3\n        /* \"#utility.yul\":682:686   */\n      0x1f\n        /* \"#utility.yul\":674:680   */\n      dup4\n        /* \"#utility.yul\":670:687   */\n      add\n        /* \"#utility.yul\":666:693   */\n      slt\n        /* \"#utility.yul\":656:778   */\n      tag_164\n      jumpi\n        /* \"#utility.yul\":697:776   */\n      tag_165\n      tag_166\n      jump\t// in\n    tag_165:\n        /* \"#utility.yul\":656:778   */\n    tag_164:\n        /* \"#utility.yul\":814:820   */\n      dup2\n        /* \"#utility.yul\":801:821   */\n      calldataload\n        /* \"#utility.yul\":839:918   */\n      tag_167\n        /* \"#utility.yul\":914:917   */\n      dup5\n        /* \"#utility.yul\":906:912   */\n      dup3\n        /* \"#utility.yul\":899:903   */\n      0x20\n        /* \"#utility.yul\":891:897   */\n      dup7\n        /* \"#utility.yul\":887:904   */\n      add\n        /* \"#utility.yul\":839:918   */\n      tag_147\n      jump\t// in\n    tag_167:\n        /* \"#utility.yul\":830:918   */\n      swap2\n      pop\n        /* \"#utility.yul\":646:924   */\n      pop\n        /* \"#utility.yul\":584:924   */\n      swap3\n      swap2\n      pop\n      pop\n      jump\t// out\n        /* \"#utility.yul\":930:1069   */\n    tag_168:\n        /* \"#utility.yul\":976:981   */\n      0x00\n        /* \"#utility.yul\":1014:1020   */\n      dup2\n        /* \"#utility.yul\":1001:1021   */\n      calldataload\n        /* \"#utility.yul\":992:1021   */\n      swap1\n      pop\n        /* \"#utility.yul\":1030:1063   */\n      tag_170\n        /* \"#utility.yul\":1057:1062   */\n      dup2\n        /* \"#utility.yul\":1030:1063   */\n      tag_171\n      jump\t// in\n    tag_170:\n        /* \"#utility.yul\":930:1069   */\n      swap3\n      swap2\n      pop\n      pop\n      jump\t// out\n        /* \"#utility.yul\":1075:1404   */\n    tag_38:\n        /* \"#utility.yul\":1134:1140   */\n      0x00\n        /* \"#utility.yul\":1183:1185   */\n      0x20\n        /* \"#utility.yul\":1171:1180   */\n      dup3\n        /* \"#utility.yul\":1162:1169   */\n      dup5\n        /* \"#utility.yul\":1158:1181   */\n      sub\n        /* \"#utility.yul\":1154:1186   */\n      slt\n        /* \"#utility.yul\":1151:1270   */\n      iszero\n      tag_173\n      jumpi\n        /* \"#utility.yul\":1189:1268   */\n      tag_174\n      tag_175\n      jump\t// in\n    tag_174:\n        /* \"#utility.yul\":1151:1270   */\n    tag_173:\n        /* \"#utility.yul\":1309:1310   */\n      0x00\n        /* \"#utility.yul\":1334:1387   */\n      tag_176\n        /* \"#utility.yul\":1379:1386   */\n      dup5\n        /* \"#utility.yul\":1370:1376   */\n      dup3\n        /* \"#utility.yul\":1359:1368   */\n      dup6\n        /* \"#utility.yul\":1355:1377   */\n      add\n        /* \"#utility.yul\":1334:1387   */\n      tag_158\n      jump\t// in\n    tag_176:\n        /* \"#utility.yul\":1324:1387   */\n      swap2\n      pop\n        /* \"#utility.yul\":1280:1397   */\n      pop\n        /* \"#utility.yul\":1075:1404   */\n      swap3\n      swap2\n      pop\n      pop\n      jump\t// out\n        /* \"#utility.yul\":1410:1919   */\n    tag_53:\n        /* \"#utility.yul\":1479:1485   */\n      0x00\n        /* \"#utility.yul\":1528:1530   */\n      0x20\n        /* \"#utility.yul\":1516:1525   */\n      dup3\n        /* \"#utility.yul\":1507:1514   */\n      dup5\n        /* \"#utility.yul\":1503:1526   */\n      sub\n        /* \"#utility.yul\":1499:1531   */\n      slt\n        /* \"#utility.yul\":1496:1615   */\n      iszero\n      tag_178\n      jumpi\n        /* \"#utility.yul\":1534:1613   */\n      tag_179\n      tag_175\n      jump\t// in\n    tag_179:\n        /* \"#utility.yul\":1496:1615   */\n    tag_178:\n        /* \"#utility.yul\":1682:1683   */\n      0x00\n        /* \"#utility.yul\":1671:1680   */\n      dup3\n        /* \"#utility.yul\":1667:1684   */\n      add\n        /* \"#utility.yul\":1654:1685   */\n      calldataload\n        /* \"#utility.yul\":1712:1730   */\n      0xffffffffffffffff\n        /* \"#utility.yul\":1704:1710   */\n      dup2\n        /* \"#utility.yul\":1701:1731   */\n      gt\n        /* \"#utility.yul\":1698:1815   */\n      iszero\n      tag_180\n      jumpi\n        /* \"#utility.yul\":1734:1813   */\n      tag_181\n      tag_182\n      jump\t// in\n    tag_181:\n        /* \"#utility.yul\":1698:1815   */\n    tag_180:\n        /* \"#utility.yul\":1839:1902   */\n      tag_183\n        /* \"#utility.yul\":1894:1901   */\n      dup5\n        /* \"#utility.yul\":1885:1891   */\n      dup3\n        /* \"#utility.yul\":1874:1883   */\n      dup6\n        /* \"#utility.yul\":1870:1892   */\n      add\n        /* \"#utility.yul\":1839:1902   */\n      tag_162\n      jump\t// in\n    tag_183:\n        /* \"#utility.yul\":1829:1902   */\n      swap2\n      pop\n        /* \"#utility.yul\":1625:1912   */\n      pop\n        /* \"#utility.yul\":1410:1919   */\n      swap3\n      swap2\n      pop\n      pop\n      jump\t// out\n        /* \"#utility.yul\":1925:2254   */\n    tag_28:\n        /* \"#utility.yul\":1984:1990   */\n      0x00\n        /* \"#utility.yul\":2033:2035   */\n      0x20\n        /* \"#utility.yul\":2021:2030   */\n      dup3\n        /* \"#utility.yul\":2012:2019   */\n      dup5\n        /* \"#utility.yul\":2008:2031   */\n      sub\n        /* \"#utility.yul\":2004:2036   */\n      slt\n        /* \"#utility.yul\":2001:2120   */\n      iszero\n      tag_185\n      jumpi\n        /* \"#utility.yul\":2039:2118   */\n      tag_186\n      tag_175\n      jump\t// in\n    tag_186:\n        /* \"#utility.yul\":2001:2120   */\n    tag_185:\n        /* \"#utility.yul\":2159:2160   */\n      0x00\n        /* \"#utility.yul\":2184:2237   */\n      tag_187\n        /* \"#utility.yul\":2229:2236   */\n      dup5\n        /* \"#utility.yul\":2220:2226   */\n      dup3\n        /* \"#utility.yul\":2209:2218   */\n      dup6\n        /* \"#utility.yul\":2205:2227   */\n      add\n        /* \"#utility.yul\":2184:2237   */\n      tag_168\n      jump\t// in\n    tag_187:\n        /* \"#utility.yul\":2174:2237   */\n      swap2\n      pop\n        /* \"#utility.yul\":2130:2247   */\n      pop\n        /* \"#utility.yul\":1925:2254   */\n      swap3\n      swap2\n      pop\n      pop\n      jump\t// out\n        /* \"#utility.yul\":2260:2516   */\n    tag_188:\n        /* \"#utility.yul\":2379:2389   */\n      0x00\n        /* \"#utility.yul\":2414:2510   */\n      tag_190\n        /* \"#utility.yul\":2506:2509   */\n      dup4\n        /* \"#utility.yul\":2498:2504   */\n      dup4\n        /* \"#utility.yul\":2414:2510   */\n      tag_191\n      jump\t// in\n    tag_190:\n        /* \"#utility.yul\":2400:2510   */\n      swap1\n      pop\n        /* \"#utility.yul\":2260:2516   */\n      swap3\n      swap2\n      pop\n      pop\n      jump\t// out\n        /* \"#utility.yul\":2522:2640   */\n    tag_192:\n        /* \"#utility.yul\":2609:2633   */\n      tag_194\n        /* \"#utility.yul\":2627:2632   */\n      dup2\n        /* \"#utility.yul\":2609:2633   */\n      tag_195\n      jump\t// in\n    tag_194:\n        /* \"#utility.yul\":2604:2607   */\n      dup3\n        /* \"#utility.yul\":2597:2634   */\n      mstore\n        /* \"#utility.yul\":2522:2640   */\n      pop\n      pop\n      jump\t// out\n        /* \"#utility.yul\":2712:3823   */\n    tag_196:\n        /* \"#utility.yul\":2881:2884   */\n      0x00\n        /* \"#utility.yul\":2910:2989   */\n      tag_198\n        /* \"#utility.yul\":2983:2988   */\n      dup3\n        /* \"#utility.yul\":2910:2989   */\n      tag_199\n      jump\t// in\n    tag_198:\n        /* \"#utility.yul\":3005:3116   */\n      tag_200\n        /* \"#utility.yul\":3109:3115   */\n      dup2\n        /* \"#utility.yul\":3104:3107   */\n      dup6\n        /* \"#utility.yul\":3005:3116   */\n      tag_201\n      jump\t// in\n    tag_200:\n        /* \"#utility.yul\":2998:3116   */\n      swap4\n      pop\n        /* \"#utility.yul\":3142:3145   */\n      dup4\n        /* \"#utility.yul\":3187:3191   */\n      0x20\n        /* \"#utility.yul\":3179:3185   */\n      dup3\n        /* \"#utility.yul\":3175:3192   */\n      mul\n        /* \"#utility.yul\":3170:3173   */\n      dup6\n        /* \"#utility.yul\":3166:3193   */\n      add\n        /* \"#utility.yul\":3217:3298   */\n      tag_202\n        /* \"#utility.yul\":3292:3297   */\n      dup6\n        /* \"#utility.yul\":3217:3298   */\n      tag_203\n      jump\t// in\n    tag_202:\n        /* \"#utility.yul\":3321:3328   */\n      dup1\n        /* \"#utility.yul\":3352:3353   */\n      0x00\n        /* \"#utility.yul\":3337:3778   */\n    tag_204:\n        /* \"#utility.yul\":3362:3368   */\n      dup6\n        /* \"#utility.yul\":3359:3360   */\n      dup2\n        /* \"#utility.yul\":3356:3369   */\n      lt\n        /* \"#utility.yul\":3337:3778   */\n      iszero\n      tag_206\n      jumpi\n        /* \"#utility.yul\":3433:3442   */\n      dup5\n        /* \"#utility.yul\":3427:3431   */\n      dup5\n        /* \"#utility.yul\":3423:3443   */\n      sub\n        /* \"#utility.yul\":3418:3421   */\n      dup10\n        /* \"#utility.yul\":3411:3444   */\n      mstore\n        /* \"#utility.yul\":3484:3490   */\n      dup2\n        /* \"#utility.yul\":3478:3491   */\n      mload\n        /* \"#utility.yul\":3512:3626   */\n      tag_207\n        /* \"#utility.yul\":3621:3625   */\n      dup6\n        /* \"#utility.yul\":3606:3619   */\n      dup3\n        /* \"#utility.yul\":3512:3626   */\n      tag_188\n      jump\t// in\n    tag_207:\n        /* \"#utility.yul\":3504:3626   */\n      swap5\n      pop\n        /* \"#utility.yul\":3649:3734   */\n      tag_208\n        /* \"#utility.yul\":3727:3733   */\n      dup4\n        /* \"#utility.yul\":3649:3734   */\n      tag_209\n      jump\t// in\n    tag_208:\n        /* \"#utility.yul\":3639:3734   */\n      swap3\n      pop\n        /* \"#utility.yul\":3763:3767   */\n      0x20\n        /* \"#utility.yul\":3758:3761   */\n      dup11\n        /* \"#utility.yul\":3754:3768   */\n      add\n        /* \"#utility.yul\":3747:3768   */\n      swap10\n      pop\n        /* \"#utility.yul\":3397:3778   */\n      pop\n        /* \"#utility.yul\":3384:3385   */\n      0x01\n        /* \"#utility.yul\":3381:3382   */\n      dup2\n        /* \"#utility.yul\":3377:3386   */\n      add\n        /* \"#utility.yul\":3372:3386   */\n      swap1\n      pop\n        /* \"#utility.yul\":3337:3778   */\n      jump(tag_204)\n    tag_206:\n        /* \"#utility.yul\":3341:3355   */\n      pop\n        /* \"#utility.yul\":3794:3798   */\n      dup3\n        /* \"#utility.yul\":3787:3798   */\n      swap8\n      pop\n        /* \"#utility.yul\":3814:3817   */\n      dup8\n        /* \"#utility.yul\":3807:3817   */\n      swap6\n      pop\n        /* \"#utility.yul\":2886:3823   */\n      pop\n      pop\n      pop\n      pop\n      pop\n        /* \"#utility.yul\":2712:3823   */\n      swap3\n      swap2\n      pop\n      pop\n      jump\t// out\n        /* \"#utility.yul\":3829:3938   */\n    tag_210:\n        /* \"#utility.yul\":3910:3931   */\n      tag_212\n        /* \"#utility.yul\":3925:3930   */\n      dup2\n        /* \"#utility.yul\":3910:3931   */\n      tag_213\n      jump\t// in\n    tag_212:\n        /* \"#utility.yul\":3905:3908   */\n      dup3\n        /* \"#utility.yul\":3898:3932   */\n      mstore\n        /* \"#utility.yul\":3829:3938   */\n      pop\n      pop\n      jump\t// out\n        /* \"#utility.yul\":3944:4288   */\n    tag_214:\n        /* \"#utility.yul\":4022:4025   */\n      0x00\n        /* \"#utility.yul\":4050:4089   */\n      tag_216\n        /* \"#utility.yul\":4083:4088   */\n      dup3\n        /* \"#utility.yul\":4050:4089   */\n      tag_217\n      jump\t// in\n    tag_216:\n        /* \"#utility.yul\":4105:4166   */\n      tag_218\n        /* \"#utility.yul\":4159:4165   */\n      dup2\n        /* \"#utility.yul\":4154:4157   */\n      dup6\n        /* \"#utility.yul\":4105:4166   */\n      tag_219\n      jump\t// in\n    tag_218:\n        /* \"#utility.yul\":4098:4166   */\n      swap4\n      pop\n        /* \"#utility.yul\":4175:4227   */\n      tag_220\n        /* \"#utility.yul\":4220:4226   */\n      dup2\n        /* \"#utility.yul\":4215:4218   */\n      dup6\n        /* \"#utility.yul\":4208:4212   */\n      0x20\n        /* \"#utility.yul\":4201:4206   */\n      dup7\n        /* \"#utility.yul\":4197:4213   */\n      add\n        /* \"#utility.yul\":4175:4227   */\n      tag_221\n      jump\t// in\n    tag_220:\n        /* \"#utility.yul\":4252:4281   */\n      tag_222\n        /* \"#utility.yul\":4274:4280   */\n      dup2\n        /* \"#utility.yul\":4252:4281   */\n      tag_223\n      jump\t// in\n    tag_222:\n        /* \"#utility.yul\":4247:4250   */\n      dup5\n        /* \"#utility.yul\":4243:4282   */\n      add\n        /* \"#utility.yul\":4236:4282   */\n      swap2\n      pop\n        /* \"#utility.yul\":4026:4288   */\n      pop\n        /* \"#utility.yul\":3944:4288   */\n      swap3\n      swap2\n      pop\n      pop\n      jump\t// out\n        /* \"#utility.yul\":4294:4658   */\n    tag_224:\n        /* \"#utility.yul\":4382:4385   */\n      0x00\n        /* \"#utility.yul\":4410:4449   */\n      tag_226\n        /* \"#utility.yul\":4443:4448   */\n      dup3\n        /* \"#utility.yul\":4410:4449   */\n      tag_217\n      jump\t// in\n    tag_226:\n        /* \"#utility.yul\":4465:4536   */\n      tag_227\n        /* \"#utility.yul\":4529:4535   */\n      dup2\n        /* \"#utility.yul\":4524:4527   */\n      dup6\n        /* \"#utility.yul\":4465:4536   */\n      tag_228\n      jump\t// in\n    tag_227:\n        /* \"#utility.yul\":4458:4536   */\n      swap4\n      pop\n        /* \"#utility.yul\":4545:4597   */\n      tag_229\n        /* \"#utility.yul\":4590:4596   */\n      dup2\n        /* \"#utility.yul\":4585:4588   */\n      dup6\n        /* \"#utility.yul\":4578:4582   */\n      0x20\n        /* \"#utility.yul\":4571:4576   */\n      dup7\n        /* \"#utility.yul\":4567:4583   */\n      add\n        /* \"#utility.yul\":4545:4597   */\n      tag_221\n      jump\t// in\n    tag_229:\n        /* \"#utility.yul\":4622:4651   */\n      tag_230\n        /* \"#utility.yul\":4644:4650   */\n      dup2\n        /* \"#utility.yul\":4622:4651   */\n      tag_223\n      jump\t// in\n    tag_230:\n        /* \"#utility.yul\":4617:4620   */\n      dup5\n        /* \"#utility.yul\":4613:4652   */\n      add\n        /* \"#utility.yul\":4606:4652   */\n      swap2\n      pop\n        /* \"#utility.yul\":4386:4658   */\n      pop\n        /* \"#utility.yul\":4294:4658   */\n      swap3\n      swap2\n      pop\n      pop\n      jump\t// out\n        /* \"#utility.yul\":4688:5490   */\n    tag_231:\n        /* \"#utility.yul\":4773:4776   */\n      0x00\n        /* \"#utility.yul\":4810:4815   */\n      dup2\n        /* \"#utility.yul\":4804:4816   */\n      sload\n        /* \"#utility.yul\":4839:4875   */\n      tag_233\n        /* \"#utility.yul\":4865:4874   */\n      dup2\n        /* \"#utility.yul\":4839:4875   */\n      tag_73\n      jump\t// in\n    tag_233:\n        /* \"#utility.yul\":4891:4962   */\n      tag_234\n        /* \"#utility.yul\":4955:4961   */\n      dup2\n        /* \"#utility.yul\":4950:4953   */\n      dup7\n        /* \"#utility.yul\":4891:4962   */\n      tag_228\n      jump\t// in\n    tag_234:\n        /* \"#utility.yul\":4884:4962   */\n      swap5\n      pop\n        /* \"#utility.yul\":4993:4994   */\n      0x01\n        /* \"#utility.yul\":4982:4991   */\n      dup3\n        /* \"#utility.yul\":4978:4995   */\n      and\n        /* \"#utility.yul\":5009:5010   */\n      0x00\n        /* \"#utility.yul\":5004:5139   */\n      dup2\n      eq\n      tag_236\n      jumpi\n        /* \"#utility.yul\":5153:5154   */\n      0x01\n        /* \"#utility.yul\":5148:5484   */\n      dup2\n      eq\n      tag_237\n      jumpi\n        /* \"#utility.yul\":4971:5484   */\n      jump(tag_235)\n        /* \"#utility.yul\":5004:5139   */\n    tag_236:\n        /* \"#utility.yul\":5088:5092   */\n      0xff\n        /* \"#utility.yul\":5084:5093   */\n      not\n        /* \"#utility.yul\":5073:5082   */\n      dup4\n        /* \"#utility.yul\":5069:5094   */\n      and\n        /* \"#utility.yul\":5064:5067   */\n      dup7\n        /* \"#utility.yul\":5057:5095   */\n      mstore\n        /* \"#utility.yul\":5124:5128   */\n      0x20\n        /* \"#utility.yul\":5119:5122   */\n      dup7\n        /* \"#utility.yul\":5115:5129   */\n      add\n        /* \"#utility.yul\":5108:5129   */\n      swap4\n      pop\n        /* \"#utility.yul\":5004:5139   */\n      jump(tag_235)\n        /* \"#utility.yul\":5148:5484   */\n    tag_237:\n        /* \"#utility.yul\":5215:5253   */\n      tag_238\n        /* \"#utility.yul\":5247:5252   */\n      dup6\n        /* \"#utility.yul\":5215:5253   */\n      tag_239\n      jump\t// in\n    tag_238:\n        /* \"#utility.yul\":5275:5276   */\n      0x00\n        /* \"#utility.yul\":5289:5443   */\n    tag_240:\n        /* \"#utility.yul\":5303:5309   */\n      dup4\n        /* \"#utility.yul\":5300:5301   */\n      dup2\n        /* \"#utility.yul\":5297:5310   */\n      lt\n        /* \"#utility.yul\":5289:5443   */\n      iszero\n      tag_242\n      jumpi\n        /* \"#utility.yul\":5377:5384   */\n      dup2\n        /* \"#utility.yul\":5371:5385   */\n      sload\n        /* \"#utility.yul\":5367:5368   */\n      dup2\n        /* \"#utility.yul\":5362:5365   */\n      dup10\n        /* \"#utility.yul\":5358:5369   */\n      add\n        /* \"#utility.yul\":5351:5386   */\n      mstore\n        /* \"#utility.yul\":5427:5428   */\n      0x01\n        /* \"#utility.yul\":5418:5425   */\n      dup3\n        /* \"#utility.yul\":5414:5429   */\n      add\n        /* \"#utility.yul\":5403:5429   */\n      swap2\n      pop\n        /* \"#utility.yul\":5325:5329   */\n      0x20\n        /* \"#utility.yul\":5322:5323   */\n      dup2\n        /* \"#utility.yul\":5318:5330   */\n      add\n        /* \"#utility.yul\":5313:5330   */\n      swap1\n      pop\n        /* \"#utility.yul\":5289:5443   */\n      jump(tag_240)\n    tag_242:\n        /* \"#utility.yul\":5472:5473   */\n      dup1\n        /* \"#utility.yul\":5467:5470   */\n      dup9\n        /* \"#utility.yul\":5463:5474   */\n      add\n        /* \"#utility.yul\":5456:5474   */\n      swap6\n      pop\n        /* \"#utility.yul\":5155:5484   */\n      pop\n      pop\n        /* \"#utility.yul\":4971:5484   */\n    tag_235:\n      pop\n        /* \"#utility.yul\":4777:5490   */\n      pop\n      pop\n        /* \"#utility.yul\":4688:5490   */\n      swap3\n      swap2\n      pop\n      pop\n      jump\t// out\n        /* \"#utility.yul\":5496:5862   */\n    tag_243:\n        /* \"#utility.yul\":5638:5641   */\n      0x00\n        /* \"#utility.yul\":5659:5726   */\n      tag_245\n        /* \"#utility.yul\":5723:5725   */\n      0x14\n        /* \"#utility.yul\":5718:5721   */\n      dup4\n        /* \"#utility.yul\":5659:5726   */\n      tag_228\n      jump\t// in\n    tag_245:\n        /* \"#utility.yul\":5652:5726   */\n      swap2\n      pop\n        /* \"#utility.yul\":5735:5828   */\n      tag_246\n        /* \"#utility.yul\":5824:5827   */\n      dup3\n        /* \"#utility.yul\":5735:5828   */\n      tag_247\n      jump\t// in\n    tag_246:\n        /* \"#utility.yul\":5853:5855   */\n      0x20\n        /* \"#utility.yul\":5848:5851   */\n      dup3\n        /* \"#utility.yul\":5844:5856   */\n      add\n        /* \"#utility.yul\":5837:5856   */\n      swap1\n      pop\n        /* \"#utility.yul\":5496:5862   */\n      swap2\n      swap1\n      pop\n      jump\t// out\n        /* \"#utility.yul\":5868:6234   */\n    tag_248:\n        /* \"#utility.yul\":6010:6013   */\n      0x00\n        /* \"#utility.yul\":6031:6098   */\n      tag_250\n        /* \"#utility.yul\":6095:6097   */\n      0x2f\n        /* \"#utility.yul\":6090:6093   */\n      dup4\n        /* \"#utility.yul\":6031:6098   */\n      tag_228\n      jump\t// in\n    tag_250:\n        /* \"#utility.yul\":6024:6098   */\n      swap2\n      pop\n        /* \"#utility.yul\":6107:6200   */\n      tag_251\n        /* \"#utility.yul\":6196:6199   */\n      dup3\n        /* \"#utility.yul\":6107:6200   */\n      tag_252\n      jump\t// in\n    tag_251:\n        /* \"#utility.yul\":6225:6227   */\n      0x40\n        /* \"#utility.yul\":6220:6223   */\n      dup3\n        /* \"#utility.yul\":6216:6228   */\n      add\n        /* \"#utility.yul\":6209:6228   */\n      swap1\n      pop\n        /* \"#utility.yul\":5868:6234   */\n      swap2\n      swap1\n      pop\n      jump\t// out\n        /* \"#utility.yul\":6240:6606   */\n    tag_253:\n        /* \"#utility.yul\":6382:6385   */\n      0x00\n        /* \"#utility.yul\":6403:6470   */\n      tag_255\n        /* \"#utility.yul\":6467:6469   */\n      0x0e\n        /* \"#utility.yul\":6462:6465   */\n      dup4\n        /* \"#utility.yul\":6403:6470   */\n      tag_228\n      jump\t// in\n    tag_255:\n        /* \"#utility.yul\":6396:6470   */\n      swap2\n      pop\n        /* \"#utility.yul\":6479:6572   */\n      tag_256\n        /* \"#utility.yul\":6568:6571   */\n      dup3\n        /* \"#utility.yul\":6479:6572   */\n      tag_257\n      jump\t// in\n    tag_256:\n        /* \"#utility.yul\":6597:6599   */\n      0x20\n        /* \"#utility.yul\":6592:6595   */\n      dup3\n        /* \"#utility.yul\":6588:6600   */\n      add\n        /* \"#utility.yul\":6581:6600   */\n      swap1\n      pop\n        /* \"#utility.yul\":6240:6606   */\n      swap2\n      swap1\n      pop\n      jump\t// out\n        /* \"#utility.yul\":6612:6978   */\n    tag_258:\n        /* \"#utility.yul\":6754:6757   */\n      0x00\n        /* \"#utility.yul\":6775:6842   */\n      tag_260\n        /* \"#utility.yul\":6839:6841   */\n      0x18\n        /* \"#utility.yul\":6834:6837   */\n      dup4\n        /* \"#utility.yul\":6775:6842   */\n      tag_228\n      jump\t// in\n    tag_260:\n        /* \"#utility.yul\":6768:6842   */\n      swap2\n      pop\n        /* \"#utility.yul\":6851:6944   */\n      tag_261\n        /* \"#utility.yul\":6940:6943   */\n      dup3\n        /* \"#utility.yul\":6851:6944   */\n      tag_262\n      jump\t// in\n    tag_261:\n        /* \"#utility.yul\":6969:6971   */\n      0x20\n        /* \"#utility.yul\":6964:6967   */\n      dup3\n        /* \"#utility.yul\":6960:6972   */\n      add\n        /* \"#utility.yul\":6953:6972   */\n      swap1\n      pop\n        /* \"#utility.yul\":6612:6978   */\n      swap2\n      swap1\n      pop\n      jump\t// out\n        /* \"#utility.yul\":7046:7894   */\n    tag_191:\n        /* \"#utility.yul\":7155:7158   */\n      0x00\n        /* \"#utility.yul\":7191:7195   */\n      0x60\n        /* \"#utility.yul\":7186:7189   */\n      dup4\n        /* \"#utility.yul\":7182:7196   */\n      add\n        /* \"#utility.yul\":7278:7282   */\n      0x00\n        /* \"#utility.yul\":7271:7276   */\n      dup4\n        /* \"#utility.yul\":7267:7283   */\n      add\n        /* \"#utility.yul\":7261:7284   */\n      mload\n        /* \"#utility.yul\":7331:7334   */\n      dup5\n        /* \"#utility.yul\":7325:7329   */\n      dup3\n        /* \"#utility.yul\":7321:7335   */\n      sub\n        /* \"#utility.yul\":7314:7318   */\n      0x00\n        /* \"#utility.yul\":7309:7312   */\n      dup7\n        /* \"#utility.yul\":7305:7319   */\n      add\n        /* \"#utility.yul\":7298:7336   */\n      mstore\n        /* \"#utility.yul\":7357:7430   */\n      tag_264\n        /* \"#utility.yul\":7425:7429   */\n      dup3\n        /* \"#utility.yul\":7411:7423   */\n      dup3\n        /* \"#utility.yul\":7357:7430   */\n      tag_214\n      jump\t// in\n    tag_264:\n        /* \"#utility.yul\":7349:7430   */\n      swap2\n      pop\n        /* \"#utility.yul\":7206:7441   */\n      pop\n        /* \"#utility.yul\":7524:7528   */\n      0x20\n        /* \"#utility.yul\":7517:7522   */\n      dup4\n        /* \"#utility.yul\":7513:7529   */\n      add\n        /* \"#utility.yul\":7507:7530   */\n      mload\n        /* \"#utility.yul\":7577:7580   */\n      dup5\n        /* \"#utility.yul\":7571:7575   */\n      dup3\n        /* \"#utility.yul\":7567:7581   */\n      sub\n        /* \"#utility.yul\":7560:7564   */\n      0x20\n        /* \"#utility.yul\":7555:7558   */\n      dup7\n        /* \"#utility.yul\":7551:7565   */\n      add\n        /* \"#utility.yul\":7544:7582   */\n      mstore\n        /* \"#utility.yul\":7603:7676   */\n      tag_265\n        /* \"#utility.yul\":7671:7675   */\n      dup3\n        /* \"#utility.yul\":7657:7669   */\n      dup3\n        /* \"#utility.yul\":7603:7676   */\n      tag_214\n      jump\t// in\n    tag_265:\n        /* \"#utility.yul\":7595:7676   */\n      swap2\n      pop\n        /* \"#utility.yul\":7451:7687   */\n      pop\n        /* \"#utility.yul\":7775:7779   */\n      0x40\n        /* \"#utility.yul\":7768:7773   */\n      dup4\n        /* \"#utility.yul\":7764:7780   */\n      add\n        /* \"#utility.yul\":7758:7781   */\n      mload\n        /* \"#utility.yul\":7794:7857   */\n      tag_266\n        /* \"#utility.yul\":7851:7855   */\n      0x40\n        /* \"#utility.yul\":7846:7849   */\n      dup7\n        /* \"#utility.yul\":7842:7856   */\n      add\n        /* \"#utility.yul\":7828:7840   */\n      dup3\n        /* \"#utility.yul\":7794:7857   */\n      tag_267\n      jump\t// in\n    tag_266:\n        /* \"#utility.yul\":7697:7867   */\n      pop\n        /* \"#utility.yul\":7884:7888   */\n      dup1\n        /* \"#utility.yul\":7877:7888   */\n      swap2\n      pop\n        /* \"#utility.yul\":7160:7894   */\n      pop\n        /* \"#utility.yul\":7046:7894   */\n      swap3\n      swap2\n      pop\n      pop\n      jump\t// out\n        /* \"#utility.yul\":7900:8008   */\n    tag_267:\n        /* \"#utility.yul\":7977:8001   */\n      tag_269\n        /* \"#utility.yul\":7995:8000   */\n      dup2\n        /* \"#utility.yul\":7977:8001   */\n      tag_270\n      jump\t// in\n    tag_269:\n        /* \"#utility.yul\":7972:7975   */\n      dup3\n        /* \"#utility.yul\":7965:8002   */\n      mstore\n        /* \"#utility.yul\":7900:8008   */\n      pop\n      pop\n      jump\t// out\n        /* \"#utility.yul\":8014:8132   */\n    tag_271:\n        /* \"#utility.yul\":8101:8125   */\n      tag_273\n        /* \"#utility.yul\":8119:8124   */\n      dup2\n        /* \"#utility.yul\":8101:8125   */\n      tag_270\n      jump\t// in\n    tag_273:\n        /* \"#utility.yul\":8096:8099   */\n      dup3\n        /* \"#utility.yul\":8089:8126   */\n      mstore\n        /* \"#utility.yul\":8014:8132   */\n      pop\n      pop\n      jump\t// out\n        /* \"#utility.yul\":8138:8360   */\n    tag_25:\n        /* \"#utility.yul\":8231:8235   */\n      0x00\n        /* \"#utility.yul\":8269:8271   */\n      0x20\n        /* \"#utility.yul\":8258:8267   */\n      dup3\n        /* \"#utility.yul\":8254:8272   */\n      add\n        /* \"#utility.yul\":8246:8272   */\n      swap1\n      pop\n        /* \"#utility.yul\":8282:8353   */\n      tag_275\n        /* \"#utility.yul\":8350:8351   */\n      0x00\n        /* \"#utility.yul\":8339:8348   */\n      dup4\n        /* \"#utility.yul\":8335:8352   */\n      add\n        /* \"#utility.yul\":8326:8332   */\n      dup5\n        /* \"#utility.yul\":8282:8353   */\n      tag_192\n      jump\t// in\n    tag_275:\n        /* \"#utility.yul\":8138:8360   */\n      swap3\n      swap2\n      pop\n      pop\n      jump\t// out\n        /* \"#utility.yul\":8366:8839   */\n    tag_35:\n        /* \"#utility.yul\":8559:8563   */\n      0x00\n        /* \"#utility.yul\":8597:8599   */\n      0x20\n        /* \"#utility.yul\":8586:8595   */\n      dup3\n        /* \"#utility.yul\":8582:8600   */\n      add\n        /* \"#utility.yul\":8574:8600   */\n      swap1\n      pop\n        /* \"#utility.yul\":8646:8655   */\n      dup2\n        /* \"#utility.yul\":8640:8644   */\n      dup2\n        /* \"#utility.yul\":8636:8656   */\n      sub\n        /* \"#utility.yul\":8632:8633   */\n      0x00\n        /* \"#utility.yul\":8621:8630   */\n      dup4\n        /* \"#utility.yul\":8617:8634   */\n      add\n        /* \"#utility.yul\":8610:8657   */\n      mstore\n        /* \"#utility.yul\":8674:8832   */\n      tag_277\n        /* \"#utility.yul\":8827:8831   */\n      dup2\n        /* \"#utility.yul\":8818:8824   */\n      dup5\n        /* \"#utility.yul\":8674:8832   */\n      tag_196\n      jump\t// in\n    tag_277:\n        /* \"#utility.yul\":8666:8832   */\n      swap1\n      pop\n        /* \"#utility.yul\":8366:8839   */\n      swap3\n      swap2\n      pop\n      pop\n      jump\t// out\n        /* \"#utility.yul\":8845:9153   */\n    tag_44:\n        /* \"#utility.yul\":8954:8958   */\n      0x00\n        /* \"#utility.yul\":8992:8994   */\n      0x40\n        /* \"#utility.yul\":8981:8990   */\n      dup3\n        /* \"#utility.yul\":8977:8995   */\n      add\n        /* \"#utility.yul\":8969:8995   */\n      swap1\n      pop\n        /* \"#utility.yul\":9005:9070   */\n      tag_279\n        /* \"#utility.yul\":9067:9068   */\n      0x00\n        /* \"#utility.yul\":9056:9065   */\n      dup4\n        /* \"#utility.yul\":9052:9069   */\n      add\n        /* \"#utility.yul\":9043:9049   */\n      dup6\n        /* \"#utility.yul\":9005:9070   */\n      tag_210\n      jump\t// in\n    tag_279:\n        /* \"#utility.yul\":9080:9146   */\n      tag_280\n        /* \"#utility.yul\":9142:9144   */\n      0x20\n        /* \"#utility.yul\":9131:9140   */\n      dup4\n        /* \"#utility.yul\":9127:9145   */\n      add\n        /* \"#utility.yul\":9118:9124   */\n      dup5\n        /* \"#utility.yul\":9080:9146   */\n      tag_210\n      jump\t// in\n    tag_280:\n        /* \"#utility.yul\":8845:9153   */\n      swap4\n      swap3\n      pop\n      pop\n      pop\n      jump\t// out\n        /* \"#utility.yul\":9159:9472   */\n    tag_21:\n        /* \"#utility.yul\":9272:9276   */\n      0x00\n        /* \"#utility.yul\":9310:9312   */\n      0x20\n        /* \"#utility.yul\":9299:9308   */\n      dup3\n        /* \"#utility.yul\":9295:9313   */\n      add\n        /* \"#utility.yul\":9287:9313   */\n      swap1\n      pop\n        /* \"#utility.yul\":9359:9368   */\n      dup2\n        /* \"#utility.yul\":9353:9357   */\n      dup2\n        /* \"#utility.yul\":9349:9369   */\n      sub\n        /* \"#utility.yul\":9345:9346   */\n      0x00\n        /* \"#utility.yul\":9334:9343   */\n      dup4\n        /* \"#utility.yul\":9330:9347   */\n      add\n        /* \"#utility.yul\":9323:9370   */\n      mstore\n        /* \"#utility.yul\":9387:9465   */\n      tag_282\n        /* \"#utility.yul\":9460:9464   */\n      dup2\n        /* \"#utility.yul\":9451:9457   */\n      dup5\n        /* \"#utility.yul\":9387:9465   */\n      tag_224\n      jump\t// in\n    tag_282:\n        /* \"#utility.yul\":9379:9465   */\n      swap1\n      pop\n        /* \"#utility.yul\":9159:9472   */\n      swap3\n      swap2\n      pop\n      pop\n      jump\t// out\n        /* \"#utility.yul\":9478:10102   */\n    tag_31:\n        /* \"#utility.yul\":9667:9671   */\n      0x00\n        /* \"#utility.yul\":9705:9707   */\n      0x60\n        /* \"#utility.yul\":9694:9703   */\n      dup3\n        /* \"#utility.yul\":9690:9708   */\n      add\n        /* \"#utility.yul\":9682:9708   */\n      swap1\n      pop\n        /* \"#utility.yul\":9754:9763   */\n      dup2\n        /* \"#utility.yul\":9748:9752   */\n      dup2\n        /* \"#utility.yul\":9744:9764   */\n      sub\n        /* \"#utility.yul\":9740:9741   */\n      0x00\n        /* \"#utility.yul\":9729:9738   */\n      dup4\n        /* \"#utility.yul\":9725:9742   */\n      add\n        /* \"#utility.yul\":9718:9765   */\n      mstore\n        /* \"#utility.yul\":9782:9860   */\n      tag_284\n        /* \"#utility.yul\":9855:9859   */\n      dup2\n        /* \"#utility.yul\":9846:9852   */\n      dup7\n        /* \"#utility.yul\":9782:9860   */\n      tag_224\n      jump\t// in\n    tag_284:\n        /* \"#utility.yul\":9774:9860   */\n      swap1\n      pop\n        /* \"#utility.yul\":9907:9916   */\n      dup2\n        /* \"#utility.yul\":9901:9905   */\n      dup2\n        /* \"#utility.yul\":9897:9917   */\n      sub\n        /* \"#utility.yul\":9892:9894   */\n      0x20\n        /* \"#utility.yul\":9881:9890   */\n      dup4\n        /* \"#utility.yul\":9877:9895   */\n      add\n        /* \"#utility.yul\":9870:9918   */\n      mstore\n        /* \"#utility.yul\":9935:10013   */\n      tag_285\n        /* \"#utility.yul\":10008:10012   */\n      dup2\n        /* \"#utility.yul\":9999:10005   */\n      dup6\n        /* \"#utility.yul\":9935:10013   */\n      tag_224\n      jump\t// in\n    tag_285:\n        /* \"#utility.yul\":9927:10013   */\n      swap1\n      pop\n        /* \"#utility.yul\":10023:10095   */\n      tag_286\n        /* \"#utility.yul\":10091:10093   */\n      0x40\n        /* \"#utility.yul\":10080:10089   */\n      dup4\n        /* \"#utility.yul\":10076:10094   */\n      add\n        /* \"#utility.yul\":10067:10073   */\n      dup5\n        /* \"#utility.yul\":10023:10095   */\n      tag_271\n      jump\t// in\n    tag_286:\n        /* \"#utility.yul\":9478:10102   */\n      swap5\n      swap4\n      pop\n      pop\n      pop\n      pop\n      jump\t// out\n        /* \"#utility.yul\":10108:10415   */\n    tag_139:\n        /* \"#utility.yul\":10218:10222   */\n      0x00\n        /* \"#utility.yul\":10256:10258   */\n      0x20\n        /* \"#utility.yul\":10245:10254   */\n      dup3\n        /* \"#utility.yul\":10241:10259   */\n      add\n        /* \"#utility.yul\":10233:10259   */\n      swap1\n      pop\n        /* \"#utility.yul\":10305:10314   */\n      dup2\n        /* \"#utility.yul\":10299:10303   */\n      dup2\n        /* \"#utility.yul\":10295:10315   */\n      sub\n        /* \"#utility.yul\":10291:10292   */\n      0x00\n        /* \"#utility.yul\":10280:10289   */\n      dup4\n        /* \"#utility.yul\":10276:10293   */\n      add\n        /* \"#utility.yul\":10269:10316   */\n      mstore\n        /* \"#utility.yul\":10333:10408   */\n      tag_288\n        /* \"#utility.yul\":10403:10407   */\n      dup2\n        /* \"#utility.yul\":10394:10400   */\n      dup5\n        /* \"#utility.yul\":10333:10408   */\n      tag_231\n      jump\t// in\n    tag_288:\n        /* \"#utility.yul\":10325:10408   */\n      swap1\n      pop\n        /* \"#utility.yul\":10108:10415   */\n      swap3\n      swap2\n      pop\n      pop\n      jump\t// out\n        /* \"#utility.yul\":10421:10840   */\n    tag_127:\n        /* \"#utility.yul\":10587:10591   */\n      0x00\n        /* \"#utility.yul\":10625:10627   */\n      0x20\n        /* \"#utility.yul\":10614:10623   */\n      dup3\n        /* \"#utility.yul\":10610:10628   */\n      add\n        /* \"#utility.yul\":10602:10628   */\n      swap1\n      pop\n        /* \"#utility.yul\":10674:10683   */\n      dup2\n        /* \"#utility.yul\":10668:10672   */\n      dup2\n        /* \"#utility.yul\":10664:10684   */\n      sub\n        /* \"#utility.yul\":10660:10661   */\n      0x00\n        /* \"#utility.yul\":10649:10658   */\n      dup4\n        /* \"#utility.yul\":10645:10662   */\n      add\n        /* \"#utility.yul\":10638:10685   */\n      mstore\n        /* \"#utility.yul\":10702:10833   */\n      tag_290\n        /* \"#utility.yul\":10828:10832   */\n      dup2\n        /* \"#utility.yul\":10702:10833   */\n      tag_243\n      jump\t// in\n    tag_290:\n        /* \"#utility.yul\":10694:10833   */\n      swap1\n      pop\n        /* \"#utility.yul\":10421:10840   */\n      swap2\n      swap1\n      pop\n      jump\t// out\n        /* \"#utility.yul\":10846:11265   */\n    tag_108:\n        /* \"#utility.yul\":11012:11016   */\n      0x00\n        /* \"#utility.yul\":11050:11052   */\n      0x20\n        /* \"#utility.yul\":11039:11048   */\n      dup3\n        /* \"#utility.yul\":11035:11053   */\n      add\n        /* \"#utility.yul\":11027:11053   */\n      swap1\n      pop\n        /* \"#utility.yul\":11099:11108   */\n      dup2\n        /* \"#utility.yul\":11093:11097   */\n      dup2\n        /* \"#utility.yul\":11089:11109   */\n      sub\n        /* \"#utility.yul\":11085:11086   */\n      0x00\n        /* \"#utility.yul\":11074:11083   */\n      dup4\n        /* \"#utility.yul\":11070:11087   */\n      add\n        /* \"#utility.yul\":11063:11110   */\n      mstore\n        /* \"#utility.yul\":11127:11258   */\n      tag_292\n        /* \"#utility.yul\":11253:11257   */\n      dup2\n        /* \"#utility.yul\":11127:11258   */\n      tag_248\n      jump\t// in\n    tag_292:\n        /* \"#utility.yul\":11119:11258   */\n      swap1\n      pop\n        /* \"#utility.yul\":10846:11265   */\n      swap2\n      swap1\n      pop\n      jump\t// out\n        /* \"#utility.yul\":11271:11690   */\n    tag_130:\n        /* \"#utility.yul\":11437:11441   */\n      0x00\n        /* \"#utility.yul\":11475:11477   */\n      0x20\n        /* \"#utility.yul\":11464:11473   */\n      dup3\n        /* \"#utility.yul\":11460:11478   */\n      add\n        /* \"#utility.yul\":11452:11478   */\n      swap1\n      pop\n        /* \"#utility.yul\":11524:11533   */\n      dup2\n        /* \"#utility.yul\":11518:11522   */\n      dup2\n        /* \"#utility.yul\":11514:11534   */\n      sub\n        /* \"#utility.yul\":11510:11511   */\n      0x00\n        /* \"#utility.yul\":11499:11508   */\n      dup4\n        /* \"#utility.yul\":11495:11512   */\n      add\n        /* \"#utility.yul\":11488:11535   */\n      mstore\n        /* \"#utility.yul\":11552:11683   */\n      tag_294\n        /* \"#utility.yul\":11678:11682   */\n      dup2\n        /* \"#utility.yul\":11552:11683   */\n      tag_253\n      jump\t// in\n    tag_294:\n        /* \"#utility.yul\":11544:11683   */\n      swap1\n      pop\n        /* \"#utility.yul\":11271:11690   */\n      swap2\n      swap1\n      pop\n      jump\t// out\n        /* \"#utility.yul\":11696:12115   */\n    tag_111:\n        /* \"#utility.yul\":11862:11866   */\n      0x00\n        /* \"#utility.yul\":11900:11902   */\n      0x20\n        /* \"#utility.yul\":11889:11898   */\n      dup3\n        /* \"#utility.yul\":11885:11903   */\n      add\n        /* \"#utility.yul\":11877:11903   */\n      swap1\n      pop\n        /* \"#utility.yul\":11949:11958   */\n      dup2\n        /* \"#utility.yul\":11943:11947   */\n      dup2\n        /* \"#utility.yul\":11939:11959   */\n      sub\n        /* \"#utility.yul\":11935:11936   */\n      0x00\n        /* \"#utility.yul\":11924:11933   */\n      dup4\n        /* \"#utility.yul\":11920:11937   */\n      add\n        /* \"#utility.yul\":11913:11960   */\n      mstore\n        /* \"#utility.yul\":11977:12108   */\n      tag_296\n        /* \"#utility.yul\":12103:12107   */\n      dup2\n        /* \"#utility.yul\":11977:12108   */\n      tag_258\n      jump\t// in\n    tag_296:\n        /* \"#utility.yul\":11969:12108   */\n      swap1\n      pop\n        /* \"#utility.yul\":11696:12115   */\n      swap2\n      swap1\n      pop\n      jump\t// out\n        /* \"#utility.yul\":12121:12343   */\n    tag_17:\n        /* \"#utility.yul\":12214:12218   */\n      0x00\n        /* \"#utility.yul\":12252:12254   */\n      0x20\n        /* \"#utility.yul\":12241:12250   */\n      dup3\n        /* \"#utility.yul\":12237:12255   */\n      add\n        /* \"#utility.yul\":12229:12255   */\n      swap1\n      pop\n        /* \"#utility.yul\":12265:12336   */\n      tag_298\n        /* \"#utility.yul\":12333:12334   */\n      0x00\n        /* \"#utility.yul\":12322:12331   */\n      dup4\n        /* \"#utility.yul\":12318:12335   */\n      add\n        /* \"#utility.yul\":12309:12315   */\n      dup5\n        /* \"#utility.yul\":12265:12336   */\n      tag_271\n      jump\t// in\n    tag_298:\n        /* \"#utility.yul\":12121:12343   */\n      swap3\n      swap2\n      pop\n      pop\n      jump\t// out\n        /* \"#utility.yul\":12349:12478   */\n    tag_152:\n        /* \"#utility.yul\":12383:12389   */\n      0x00\n        /* \"#utility.yul\":12410:12430   */\n      tag_300\n      tag_301\n      jump\t// in\n    tag_300:\n        /* \"#utility.yul\":12400:12430   */\n      swap1\n      pop\n        /* \"#utility.yul\":12439:12472   */\n      tag_302\n        /* \"#utility.yul\":12467:12471   */\n      dup3\n        /* \"#utility.yul\":12459:12465   */\n      dup3\n        /* \"#utility.yul\":12439:12472   */\n      tag_303\n      jump\t// in\n    tag_302:\n        /* \"#utility.yul\":12349:12478   */\n      swap2\n      swap1\n      pop\n      jump\t// out\n        /* \"#utility.yul\":12484:12559   */\n    tag_301:\n        /* \"#utility.yul\":12517:12523   */\n      0x00\n        /* \"#utility.yul\":12550:12552   */\n      0x40\n        /* \"#utility.yul\":12544:12553   */\n      mload\n        /* \"#utility.yul\":12534:12553   */\n      swap1\n      pop\n        /* \"#utility.yul\":12484:12559   */\n      swap1\n      jump\t// out\n        /* \"#utility.yul\":12565:12873   */\n    tag_151:\n        /* \"#utility.yul\":12627:12631   */\n      0x00\n        /* \"#utility.yul\":12717:12735   */\n      0xffffffffffffffff\n        /* \"#utility.yul\":12709:12715   */\n      dup3\n        /* \"#utility.yul\":12706:12736   */\n      gt\n        /* \"#utility.yul\":12703:12759   */\n      iszero\n      tag_306\n      jumpi\n        /* \"#utility.yul\":12739:12757   */\n      tag_307\n      tag_308\n      jump\t// in\n    tag_307:\n        /* \"#utility.yul\":12703:12759   */\n    tag_306:\n        /* \"#utility.yul\":12777:12806   */\n      tag_309\n        /* \"#utility.yul\":12799:12805   */\n      dup3\n        /* \"#utility.yul\":12777:12806   */\n      tag_223\n      jump\t// in\n    tag_309:\n        /* \"#utility.yul\":12769:12806   */\n      swap1\n      pop\n        /* \"#utility.yul\":12861:12865   */\n      0x20\n        /* \"#utility.yul\":12855:12859   */\n      dup2\n        /* \"#utility.yul\":12851:12866   */\n      add\n        /* \"#utility.yul\":12843:12866   */\n      swap1\n      pop\n        /* \"#utility.yul\":12565:12873   */\n      swap2\n      swap1\n      pop\n      jump\t// out\n        /* \"#utility.yul\":12879:13036   */\n    tag_203:\n        /* \"#utility.yul\":12971:12975   */\n      0x00\n        /* \"#utility.yul\":12994:12997   */\n      dup2\n        /* \"#utility.yul\":12986:12997   */\n      swap1\n      pop\n        /* \"#utility.yul\":13024:13028   */\n      0x20\n        /* \"#utility.yul\":13019:13022   */\n      dup3\n        /* \"#utility.yul\":13015:13029   */\n      add\n        /* \"#utility.yul\":13007:13029   */\n      swap1\n      pop\n        /* \"#utility.yul\":12879:13036   */\n      swap2\n      swap1\n      pop\n      jump\t// out\n        /* \"#utility.yul\":13042:13183   */\n    tag_239:\n        /* \"#utility.yul\":13091:13095   */\n      0x00\n        /* \"#utility.yul\":13114:13117   */\n      dup2\n        /* \"#utility.yul\":13106:13117   */\n      swap1\n      pop\n        /* \"#utility.yul\":13137:13140   */\n      dup2\n        /* \"#utility.yul\":13134:13135   */\n      0x00\n        /* \"#utility.yul\":13127:13141   */\n      mstore\n        /* \"#utility.yul\":13171:13175   */\n      0x20\n        /* \"#utility.yul\":13168:13169   */\n      0x00\n        /* \"#utility.yul\":13158:13176   */\n      keccak256\n        /* \"#utility.yul\":13150:13176   */\n      swap1\n      pop\n        /* \"#utility.yul\":13042:13183   */\n      swap2\n      swap1\n      pop\n      jump\t// out\n        /* \"#utility.yul\":13189:13328   */\n    tag_199:\n        /* \"#utility.yul\":13281:13287   */\n      0x00\n        /* \"#utility.yul\":13315:13320   */\n      dup2\n        /* \"#utility.yul\":13309:13321   */\n      mload\n        /* \"#utility.yul\":13299:13321   */\n      swap1\n      pop\n        /* \"#utility.yul\":13189:13328   */\n      swap2\n      swap1\n      pop\n      jump\t// out\n        /* \"#utility.yul\":13334:13433   */\n    tag_217:\n        /* \"#utility.yul\":13386:13392   */\n      0x00\n        /* \"#utility.yul\":13420:13425   */\n      dup2\n        /* \"#utility.yul\":13414:13426   */\n      mload\n        /* \"#utility.yul\":13404:13426   */\n      swap1\n      pop\n        /* \"#utility.yul\":13334:13433   */\n      swap2\n      swap1\n      pop\n      jump\t// out\n        /* \"#utility.yul\":13439:13577   */\n    tag_209:\n        /* \"#utility.yul\":13534:13538   */\n      0x00\n        /* \"#utility.yul\":13566:13570   */\n      0x20\n        /* \"#utility.yul\":13561:13564   */\n      dup3\n        /* \"#utility.yul\":13557:13571   */\n      add\n        /* \"#utility.yul\":13549:13571   */\n      swap1\n      pop\n        /* \"#utility.yul\":13439:13577   */\n      swap2\n      swap1\n      pop\n      jump\t// out\n        /* \"#utility.yul\":13583:13792   */\n    tag_201:\n        /* \"#utility.yul\":13707:13718   */\n      0x00\n        /* \"#utility.yul\":13741:13747   */\n      dup3\n        /* \"#utility.yul\":13736:13739   */\n      dup3\n        /* \"#utility.yul\":13729:13748   */\n      mstore\n        /* \"#utility.yul\":13781:13785   */\n      0x20\n        /* \"#utility.yul\":13776:13779   */\n      dup3\n        /* \"#utility.yul\":13772:13786   */\n      add\n        /* \"#utility.yul\":13757:13786   */\n      swap1\n      pop\n        /* \"#utility.yul\":13583:13792   */\n      swap3\n      swap2\n      pop\n      pop\n      jump\t// out\n        /* \"#utility.yul\":13798:13957   */\n    tag_219:\n        /* \"#utility.yul\":13872:13883   */\n      0x00\n        /* \"#utility.yul\":13906:13912   */\n      dup3\n        /* \"#utility.yul\":13901:13904   */\n      dup3\n        /* \"#utility.yul\":13894:13913   */\n      mstore\n        /* \"#utility.yul\":13946:13950   */\n      0x20\n        /* \"#utility.yul\":13941:13944   */\n      dup3\n        /* \"#utility.yul\":13937:13951   */\n      add\n        /* \"#utility.yul\":13922:13951   */\n      swap1\n      pop\n        /* \"#utility.yul\":13798:13957   */\n      swap3\n      swap2\n      pop\n      pop\n      jump\t// out\n        /* \"#utility.yul\":13963:14132   */\n    tag_228:\n        /* \"#utility.yul\":14047:14058   */\n      0x00\n        /* \"#utility.yul\":14081:14087   */\n      dup3\n        /* \"#utility.yul\":14076:14079   */\n      dup3\n        /* \"#utility.yul\":14069:14088   */\n      mstore\n        /* \"#utility.yul\":14121:14125   */\n      0x20\n        /* \"#utility.yul\":14116:14119   */\n      dup3\n        /* \"#utility.yul\":14112:14126   */\n      add\n        /* \"#utility.yul\":14097:14126   */\n      swap1\n      pop\n        /* \"#utility.yul\":13963:14132   */\n      swap3\n      swap2\n      pop\n      pop\n      jump\t// out\n        /* \"#utility.yul\":14138:14443   */\n    tag_64:\n        /* \"#utility.yul\":14178:14181   */\n      0x00\n        /* \"#utility.yul\":14197:14217   */\n      tag_319\n        /* \"#utility.yul\":14215:14216   */\n      dup3\n        /* \"#utility.yul\":14197:14217   */\n      tag_270\n      jump\t// in\n    tag_319:\n        /* \"#utility.yul\":14192:14217   */\n      swap2\n      pop\n        /* \"#utility.yul\":14231:14251   */\n      tag_320\n        /* \"#utility.yul\":14249:14250   */\n      dup4\n        /* \"#utility.yul\":14231:14251   */\n      tag_270\n      jump\t// in\n    tag_320:\n        /* \"#utility.yul\":14226:14251   */\n      swap3\n      pop\n        /* \"#utility.yul\":14385:14386   */\n      dup3\n        /* \"#utility.yul\":14317:14383   */\n      0xffffffffffffffffffffffffffffffffffffffffffffffffffffffffffffffff\n        /* \"#utility.yul\":14313:14387   */\n      sub\n        /* \"#utility.yul\":14310:14311   */\n      dup3\n        /* \"#utility.yul\":14307:14388   */\n      gt\n        /* \"#utility.yul\":14304:14411   */\n      iszero\n      tag_321\n      jumpi\n        /* \"#utility.yul\":14391:14409   */\n      tag_322\n      tag_323\n      jump\t// in\n    tag_322:\n        /* \"#utility.yul\":14304:14411   */\n    tag_321:\n        /* \"#utility.yul\":14435:14436   */\n      dup3\n        /* \"#utility.yul\":14432:14433   */\n      dup3\n        /* \"#utility.yul\":14428:14437   */\n      add\n        /* \"#utility.yul\":14421:14437   */\n      swap1\n      pop\n        /* \"#utility.yul\":14138:14443   */\n      swap3\n      swap2\n      pop\n      pop\n      jump\t// out\n        /* \"#utility.yul\":14449:14545   */\n    tag_195:\n        /* \"#utility.yul\":14486:14493   */\n      0x00\n        /* \"#utility.yul\":14515:14539   */\n      tag_325\n        /* \"#utility.yul\":14533:14538   */\n      dup3\n        /* \"#utility.yul\":14515:14539   */\n      tag_326\n      jump\t// in\n    tag_325:\n        /* \"#utility.yul\":14504:14539   */\n      swap1\n      pop\n        /* \"#utility.yul\":14449:14545   */\n      swap2\n      swap1\n      pop\n      jump\t// out\n        /* \"#utility.yul\":14551:14641   */\n    tag_213:\n        /* \"#utility.yul\":14585:14592   */\n      0x00\n        /* \"#utility.yul\":14628:14633   */\n      dup2\n        /* \"#utility.yul\":14621:14634   */\n      iszero\n        /* \"#utility.yul\":14614:14635   */\n      iszero\n        /* \"#utility.yul\":14603:14635   */\n      swap1\n      pop\n        /* \"#utility.yul\":14551:14641   */\n      swap2\n      swap1\n      pop\n      jump\t// out\n        /* \"#utility.yul\":14647:14773   */\n    tag_326:\n        /* \"#utility.yul\":14684:14691   */\n      0x00\n        /* \"#utility.yul\":14724:14766   */\n      0xffffffffffffffffffffffffffffffffffffffff\n        /* \"#utility.yul\":14717:14722   */\n      dup3\n        /* \"#utility.yul\":14713:14767   */\n      and\n        /* \"#utility.yul\":14702:14767   */\n      swap1\n      pop\n        /* \"#utility.yul\":14647:14773   */\n      swap2\n      swap1\n      pop\n      jump\t// out\n        /* \"#utility.yul\":14779:14856   */\n    tag_270:\n        /* \"#utility.yul\":14816:14823   */\n      0x00\n        /* \"#utility.yul\":14845:14850   */\n      dup2\n        /* \"#utility.yul\":14834:14850   */\n      swap1\n      pop\n        /* \"#utility.yul\":14779:14856   */\n      swap2\n      swap1\n      pop\n      jump\t// out\n        /* \"#utility.yul\":14862:15016   */\n    tag_157:\n        /* \"#utility.yul\":14946:14952   */\n      dup3\n        /* \"#utility.yul\":14941:14944   */\n      dup2\n        /* \"#utility.yul\":14936:14939   */\n      dup4\n        /* \"#utility.yul\":14923:14953   */\n      calldatacopy\n        /* \"#utility.yul\":15008:15009   */\n      0x00\n        /* \"#utility.yul\":14999:15005   */\n      dup4\n        /* \"#utility.yul\":14994:14997   */\n      dup4\n        /* \"#utility.yul\":14990:15006   */\n      add\n        /* \"#utility.yul\":14983:15010   */\n      mstore\n        /* \"#utility.yul\":14862:15016   */\n      pop\n      pop\n      pop\n      jump\t// out\n        /* \"#utility.yul\":15022:15329   */\n    tag_221:\n        /* \"#utility.yul\":15090:15091   */\n      0x00\n        /* \"#utility.yul\":15100:15213   */\n    tag_332:\n        /* \"#utility.yul\":15114:15120   */\n      dup4\n        /* \"#utility.yul\":15111:15112   */\n      dup2\n        /* \"#utility.yul\":15108:15121   */\n      lt\n        /* \"#utility.yul\":15100:15213   */\n      iszero\n      tag_334\n      jumpi\n        /* \"#utility.yul\":15199:15200   */\n      dup1\n        /* \"#utility.yul\":15194:15197   */\n      dup3\n        /* \"#utility.yul\":15190:15201   */\n      add\n        /* \"#utility.yul\":15184:15202   */\n      mload\n        /* \"#utility.yul\":15180:15181   */\n      dup2\n        /* \"#utility.yul\":15175:15178   */\n      dup5\n        /* \"#utility.yul\":15171:15182   */\n      add\n        /* \"#utility.yul\":15164:15203   */\n      mstore\n        /* \"#utility.yul\":15136:15138   */\n      0x20\n        /* \"#utility.yul\":15133:15134   */\n      dup2\n        /* \"#utility.yul\":15129:15139   */\n      add\n        /* \"#utility.yul\":15124:15139   */\n      swap1\n      pop\n        /* \"#utility.yul\":15100:15213   */\n      jump(tag_332)\n    tag_334:\n        /* \"#utility.yul\":15231:15237   */\n      dup4\n        /* \"#utility.yul\":15228:15229   */\n      dup2\n        /* \"#utility.yul\":15225:15238   */\n      gt\n        /* \"#utility.yul\":15222:15323   */\n      iszero\n      tag_335\n      jumpi\n        /* \"#utility.yul\":15311:15312   */\n      0x00\n        /* \"#utility.yul\":15302:15308   */\n      dup5\n        /* \"#utility.yul\":15297:15300   */\n      dup5\n        /* \"#utility.yul\":15293:15309   */\n      add\n        /* \"#utility.yul\":15286:15313   */\n      mstore\n        /* \"#utility.yul\":15222:15323   */\n    tag_335:\n        /* \"#utility.yul\":15071:15329   */\n      pop\n        /* \"#utility.yul\":15022:15329   */\n      pop\n      pop\n      pop\n      jump\t// out\n        /* \"#utility.yul\":15335:15655   */\n    tag_73:\n        /* \"#utility.yul\":15379:15385   */\n      0x00\n        /* \"#utility.yul\":15416:15417   */\n      0x02\n        /* \"#utility.yul\":15410:15414   */\n      dup3\n        /* \"#utility.yul\":15406:15418   */\n      div\n        /* \"#utility.yul\":15396:15418   */\n      swap1\n      pop\n        /* \"#utility.yul\":15463:15464   */\n      0x01\n        /* \"#utility.yul\":15457:15461   */\n      dup3\n        /* \"#utility.yul\":15453:15465   */\n      and\n        /* \"#utility.yul\":15484:15502   */\n      dup1\n        /* \"#utility.yul\":15474:15555   */\n      tag_337\n      jumpi\n        /* \"#utility.yul\":15540:15544   */\n      0x7f\n        /* \"#utility.yul\":15532:15538   */\n      dup3\n        /* \"#utility.yul\":15528:15545   */\n      and\n        /* \"#utility.yul\":15518:15545   */\n      swap2\n      pop\n        /* \"#utility.yul\":15474:15555   */\n    tag_337:\n        /* \"#utility.yul\":15602:15604   */\n      0x20\n        /* \"#utility.yul\":15594:15600   */\n      dup3\n        /* \"#utility.yul\":15591:15605   */\n      lt\n        /* \"#utility.yul\":15571:15589   */\n      dup2\n        /* \"#utility.yul\":15568:15606   */\n      eq\n        /* \"#utility.yul\":15565:15649   */\n      iszero\n      tag_338\n      jumpi\n        /* \"#utility.yul\":15621:15639   */\n      tag_339\n      tag_340\n      jump\t// in\n    tag_339:\n        /* \"#utility.yul\":15565:15649   */\n    tag_338:\n        /* \"#utility.yul\":15386:15655   */\n      pop\n        /* \"#utility.yul\":15335:15655   */\n      swap2\n      swap1\n      pop\n      jump\t// out\n        /* \"#utility.yul\":15661:15942   */\n    tag_303:\n        /* \"#utility.yul\":15744:15771   */\n      tag_342\n        /* \"#utility.yul\":15766:15770   */\n      dup3\n        /* \"#utility.yul\":15744:15771   */\n      tag_223\n      jump\t// in\n    tag_342:\n        /* \"#utility.yul\":15736:15742   */\n      dup2\n        /* \"#utility.yul\":15732:15772   */\n      add\n        /* \"#utility.yul\":15874:15880   */\n      dup2\n        /* \"#utility.yul\":15862:15872   */\n      dup2\n        /* \"#utility.yul\":15859:15881   */\n      lt\n        /* \"#utility.yul\":15838:15856   */\n      0xffffffffffffffff\n        /* \"#utility.yul\":15826:15836   */\n      dup3\n        /* \"#utility.yul\":15823:15857   */\n      gt\n        /* \"#utility.yul\":15820:15882   */\n      or\n        /* \"#utility.yul\":15817:15905   */\n      iszero\n      tag_343\n      jumpi\n        /* \"#utility.yul\":15885:15903   */\n      tag_344\n      tag_308\n      jump\t// in\n    tag_344:\n        /* \"#utility.yul\":15817:15905   */\n    tag_343:\n        /* \"#utility.yul\":15925:15935   */\n      dup1\n        /* \"#utility.yul\":15921:15923   */\n      0x40\n        /* \"#utility.yul\":15914:15936   */\n      mstore\n        /* \"#utility.yul\":15704:15942   */\n      pop\n        /* \"#utility.yul\":15661:15942   */\n      pop\n      pop\n      jump\t// out\n        /* \"#utility.yul\":15948:16181   */\n    tag_66:\n        /* \"#utility.yul\":15987:15990   */\n      0x00\n        /* \"#utility.yul\":16010:16034   */\n      tag_346\n        /* \"#utility.yul\":16028:16033   */\n      dup3\n        /* \"#utility.yul\":16010:16034   */\n      tag_270\n      jump\t// in\n    tag_346:\n        /* \"#utility.yul\":16001:16034   */\n      swap2\n      pop\n        /* \"#utility.yul\":16056:16122   */\n      0xffffffffffffffffffffffffffffffffffffffffffffffffffffffffffffffff\n        /* \"#utility.yul\":16049:16054   */\n      dup3\n        /* \"#utility.yul\":16046:16123   */\n      eq\n        /* \"#utility.yul\":16043:16146   */\n      iszero\n      tag_347\n      jumpi\n        /* \"#utility.yul\":16126:16144   */\n      tag_348\n      tag_323\n      jump\t// in\n    tag_348:\n        /* \"#utility.yul\":16043:16146   */\n    tag_347:\n        /* \"#utility.yul\":16173:16174   */\n      0x01\n        /* \"#utility.yul\":16166:16171   */\n      dup3\n        /* \"#utility.yul\":16162:16175   */\n      add\n        /* \"#utility.yul\":16155:16175   */\n      swap1\n      pop\n        /* \"#utility.yul\":15948:16181   */\n      swap2\n      swap1\n      pop\n      jump\t// out\n        /* \"#utility.yul\":16187:16367   */\n    tag_323:\n        /* \"#utility.yul\":16235:16312   */\n      0x4e487b7100000000000000000000000000000000000000000000000000000000\n        /* \"#utility.yul\":16232:16233   */\n      0x00\n        /* \"#utility.yul\":16225:16313   */\n      mstore\n        /* \"#utility.yul\":16332:16336   */\n      0x11\n        /* \"#utility.yul\":16329:16330   */\n      0x04\n        /* \"#utility.yul\":16322:16337   */\n      mstore\n        /* \"#utility.yul\":16356:16360   */\n      0x24\n        /* \"#utility.yul\":16353:16354   */\n      0x00\n        /* \"#utility.yul\":16346:16361   */\n      revert\n        /* \"#utility.yul\":16373:16553   */\n    tag_340:\n        /* \"#utility.yul\":16421:16498   */\n      0x4e487b7100000000000000000000000000000000000000000000000000000000\n        /* \"#utility.yul\":16418:16419   */\n      0x00\n        /* \"#utility.yul\":16411:16499   */\n      mstore\n        /* \"#utility.yul\":16518:16522   */\n      0x22\n        /* \"#utility.yul\":16515:16516   */\n      0x04\n        /* \"#utility.yul\":16508:16523   */\n      mstore\n        /* \"#utility.yul\":16542:16546   */\n      0x24\n        /* \"#utility.yul\":16539:16540   */\n      0x00\n        /* \"#utility.yul\":16532:16547   */\n      revert\n        /* \"#utility.yul\":16559:16739   */\n    tag_61:\n        /* \"#utility.yul\":16607:16684   */\n      0x4e487b7100000000000000000000000000000000000000000000000000000000\n        /* \"#utility.yul\":16604:16605   */\n      0x00\n        /* \"#utility.yul\":16597:16685   */\n      mstore\n        /* \"#utility.yul\":16704:16708   */\n      0x32\n        /* \"#utility.yul\":16701:16702   */\n      0x04\n        /* \"#utility.yul\":16694:16709   */\n      mstore\n        /* \"#utility.yul\":16728:16732   */\n      0x24\n        /* \"#utility.yul\":16725:16726   */\n      0x00\n        /* \"#utility.yul\":16718:16733   */\n      revert\n        /* \"#utility.yul\":16745:16925   */\n    tag_308:\n        /* \"#utility.yul\":16793:16870   */\n      0x4e487b7100000000000000000000000000000000000000000000000000000000\n        /* \"#utility.yul\":16790:16791   */\n      0x00\n        /* \"#utility.yul\":16783:16871   */\n      mstore\n        /* \"#utility.yul\":16890:16894   */\n      0x41\n        /* \"#utility.yul\":16887:16888   */\n      0x04\n        /* \"#utility.yul\":16880:16895   */\n      mstore\n        /* \"#utility.yul\":16914:16918   */\n      0x24\n        /* \"#utility.yul\":16911:16912   */\n      0x00\n        /* \"#utility.yul\":16904:16919   */\n      revert\n        /* \"#utility.yul\":16931:17048   */\n    tag_166:\n        /* \"#utility.yul\":17040:17041   */\n      0x00\n        /* \"#utility.yul\":17037:17038   */\n      dup1\n        /* \"#utility.yul\":17030:17042   */\n      revert\n        /* \"#utility.yul\":17054:17171   */\n    tag_155:\n        /* \"#utility.yul\":17163:17164   */\n      0x00\n        /* \"#utility.yul\":17160:17161   */\n      dup1\n        /* \"#utility.yul\":17153:17165   */\n      revert\n        /* \"#utility.yul\":17177:17294   */\n    tag_182:\n        /* \"#utility.yul\":17286:17287   */\n      0x00\n        /* \"#utility.yul\":17283:17284   */\n      dup1\n        /* \"#utility.yul\":17276:17288   */\n      revert\n        /* \"#utility.yul\":17300:17417   */\n    tag_175:\n        /* \"#utility.yul\":17409:17410   */\n      0x00\n        /* \"#utility.yul\":17406:17407   */\n      dup1\n        /* \"#utility.yul\":17399:17411   */\n      revert\n        /* \"#utility.yul\":17423:17525   */\n    tag_223:\n        /* \"#utility.yul\":17464:17470   */\n      0x00\n        /* \"#utility.yul\":17515:17517   */\n      0x1f\n        /* \"#utility.yul\":17511:17518   */\n      not\n        /* \"#utility.yul\":17506:17508   */\n      0x1f\n        /* \"#utility.yul\":17499:17504   */\n      dup4\n        /* \"#utility.yul\":17495:17509   */\n      add\n        /* \"#utility.yul\":17491:17519   */\n      and\n        /* \"#utility.yul\":17481:17519   */\n      swap1\n      pop\n        /* \"#utility.yul\":17423:17525   */\n      swap2\n      swap1\n      pop\n      jump\t// out\n        /* \"#utility.yul\":17531:17701   */\n    tag_247:\n        /* \"#utility.yul\":17671:17693   */\n      0x486173206e6f20726967687420746f20766f7465000000000000000000000000\n        /* \"#utility.yul\":17667:17668   */\n      0x00\n        /* \"#utility.yul\":17659:17665   */\n      dup3\n        /* \"#utility.yul\":17655:17669   */\n      add\n        /* \"#utility.yul\":17648:17694   */\n      mstore\n        /* \"#utility.yul\":17531:17701   */\n      pop\n      jump\t// out\n        /* \"#utility.yul\":17707:17941   */\n    tag_252:\n        /* \"#utility.yul\":17847:17881   */\n      0x4f6e6c792074686520636f6e7472616374206f776e65722063616e2067697665\n        /* \"#utility.yul\":17843:17844   */\n      0x00\n        /* \"#utility.yul\":17835:17841   */\n      dup3\n        /* \"#utility.yul\":17831:17845   */\n      add\n        /* \"#utility.yul\":17824:17882   */\n      mstore\n        /* \"#utility.yul\":17916:17933   */\n      0x20726967687420746f20766f74652e0000000000000000000000000000000000\n        /* \"#utility.yul\":17911:17913   */\n      0x20\n        /* \"#utility.yul\":17903:17909   */\n      dup3\n        /* \"#utility.yul\":17899:17914   */\n      add\n        /* \"#utility.yul\":17892:17934   */\n      mstore\n        /* \"#utility.yul\":17707:17941   */\n      pop\n      jump\t// out\n        /* \"#utility.yul\":17947:18111   */\n    tag_257:\n        /* \"#utility.yul\":18087:18103   */\n      0x416c726561647920766f7465642e000000000000000000000000000000000000\n        /* \"#utility.yul\":18083:18084   */\n      0x00\n        /* \"#utility.yul\":18075:18081   */\n      dup3\n        /* \"#utility.yul\":18071:18085   */\n      add\n        /* \"#utility.yul\":18064:18104   */\n      mstore\n        /* \"#utility.yul\":17947:18111   */\n      pop\n      jump\t// out\n        /* \"#utility.yul\":18117:18291   */\n    tag_262:\n        /* \"#utility.yul\":18257:18283   */\n      0x54686520766f74657220616c726561647920766f7465642e0000000000000000\n        /* \"#utility.yul\":18253:18254   */\n      0x00\n        /* \"#utility.yul\":18245:18251   */\n      dup3\n        /* \"#utility.yul\":18241:18255   */\n      add\n        /* \"#utility.yul\":18234:18284   */\n      mstore\n        /* \"#utility.yul\":18117:18291   */\n      pop\n      jump\t// out\n        /* \"#utility.yul\":18297:18419   */\n    tag_161:\n        /* \"#utility.yul\":18370:18394   */\n      tag_363\n        /* \"#utility.yul\":18388:18393   */\n      dup2\n        /* \"#utility.yul\":18370:18394   */\n      tag_195\n      jump\t// in\n    tag_363:\n        /* \"#utility.yul\":18363:18368   */\n      dup2\n        /* \"#utility.yul\":18360:18395   */\n      eq\n        /* \"#utility.yul\":18350:18413   */\n      tag_364\n      jumpi\n        /* \"#utility.yul\":18409:18410   */\n      0x00\n        /* \"#utility.yul\":18406:18407   */\n      dup1\n        /* \"#utility.yul\":18399:18411   */\n      revert\n        /* \"#utility.yul\":18350:18413   */\n    tag_364:\n        /* \"#utility.yul\":18297:18419   */\n      pop\n      jump\t// out\n        /* \"#utility.yul\":18425:18547   */\n    tag_171:\n        /* \"#utility.yul\":18498:18522   */\n      tag_366\n        /* \"#utility.yul\":18516:18521   */\n      dup2\n        /* \"#utility.yul\":18498:18522   */\n      tag_270\n      jump\t// in\n    tag_366:\n        /* \"#utility.yul\":18491:18496   */\n      dup2\n        /* \"#utility.yul\":18488:18523   */\n      eq\n        /* \"#utility.yul\":18478:18541   */\n      tag_367\n      jumpi\n        /* \"#utility.yul\":18537:18538   */\n      0x00\n        /* \"#utility.yul\":18534:18535   */\n      dup1\n        /* \"#utility.yul\":18527:18539   */\n      revert\n        /* \"#utility.yul\":18478:18541   */\n    tag_367:\n        /* \"#utility.yul\":18425:18547   */\n      pop\n      jump\t// out\n\n    auxdata: 0xa264697066735822122099873b847ef4df4ab974080693916dc1202836ee9dfb1779d1ce295d511668cd64736f6c63430008070033\n}\n",
				"bytecode": {
					"linkReferences": {},
					"object": "60806040523480156200001157600080fd5b5060405162001a6738038062001a6783398181016040528101906200003791906200036b565b336000806101000a81548173ffffffffffffffffffffffffffffffffffffffff021916908373ffffffffffffffffffffffffffffffffffffffff16021790555060005b8251811015620001655760026040518060600160405280858481518110620000a757620000a6620005d6565b5b60200260200101518152602001848481518110620000ca57620000c9620005d6565b5b60200260200101518152602001600081525090806001815401808255809150506001900390600052602060002090600302016000909190919091506000820151816000019080519060200190620001239291906200016e565b506020820151816001019080519060200190620001429291906200016e565b5060408201518160020155505080806200015c906200052a565b9150506200007a565b5050506200065e565b8280546200017c90620004be565b90600052602060002090601f016020900481019282620001a05760008555620001ec565b82601f10620001bb57805160ff1916838001178555620001ec565b82800160010185558215620001ec579182015b82811115620001eb578251825591602001919060010190620001ce565b5b509050620001fb9190620001ff565b5090565b5b808211156200021a57600081600090555060010162000200565b5090565b6000620002356200022f8462000419565b620003f0565b905080838252602082019050828560208602820111156200025b576200025a62000639565b5b60005b85811015620002b057815167ffffffffffffffff81111562000285576200028462000634565b5b80860162000294898262000338565b855260208501945060208401935050506001810190506200025e565b5050509392505050565b6000620002d1620002cb8462000448565b620003f0565b905082815260208101848484011115620002f057620002ef6200063e565b5b620002fd84828562000488565b509392505050565b600082601f8301126200031d576200031c62000634565b5b81516200032f8482602086016200021e565b91505092915050565b600082601f83011262000350576200034f62000634565b5b815162000362848260208601620002ba565b91505092915050565b6000806040838503121562000385576200038462000648565b5b600083015167ffffffffffffffff811115620003a657620003a562000643565b5b620003b48582860162000305565b925050602083015167ffffffffffffffff811115620003d857620003d762000643565b5b620003e68582860162000305565b9150509250929050565b6000620003fc6200040f565b90506200040a8282620004f4565b919050565b6000604051905090565b600067ffffffffffffffff82111562000437576200043662000605565b5b602082029050602081019050919050565b600067ffffffffffffffff82111562000466576200046562000605565b5b62000471826200064d565b9050602081019050919050565b6000819050919050565b60005b83811015620004a85780820151818401526020810190506200048b565b83811115620004b8576000848401525b50505050565b60006002820490506001821680620004d757607f821691505b60208210811415620004ee57620004ed620005a7565b5b50919050565b620004ff826200064d565b810181811067ffffffffffffffff8211171562000521576200052062000605565b5b80604052505050565b600062000537826200047e565b91507fffffffffffffffffffffffffffffffffffffffffffffffffffffffffffffffff8214156200056d576200056c62000578565b5b600182019050919050565b7f4e487b7100000000000000000000000000000000000000000000000000000000600052601160045260246000fd5b7f4e487b7100000000000000000000000000000000000000000000000000000000600052602260045260246000fd5b7f4e487b7100000000000000000000000000000000000000000000000000000000600052603260045260246000fd5b7f4e487b7100000000000000000000000000000000000000000000000000000000600052604160045260246000fd5b600080fd5b600080fd5b600080fd5b600080fd5b600080fd5b6000601f19601f8301169050919050565b6113f9806200066e6000396000f3fe608060405234801561001057600080fd5b506004361061009e5760003560e01c80639e7b8d61116100665780639e7b8d611461014d578063a3ec138d14610169578063ce606ee01461019a578063f927cc29146101b8578063fc36e15b146101d65761009e565b806301c5556a146100a35780632bfda515146100c157806332a2c5d0146100df5780633477ee2e146100fd5780634aba5f341461012f575b600080fd5b6100ab6101f2565b6040516100b89190610f72565b60405180910390f35b6100c9610251565b6040516100d69190610e69565b60405180910390f35b6100e761030d565b6040516100f49190610e03565b60405180910390f35b61011760048036038101906101129190610b3c565b610315565b60405161012693929190610e8b565b60405180910390f35b61013761045f565b6040516101449190610e1e565b60405180910390f35b61016760048036038101906101629190610ac6565b6105ec565b005b610183600480360381019061017e9190610ac6565b610767565b604051610191929190610e40565b60405180910390f35b6101a26107a5565b6040516101af9190610e03565b60405180910390f35b6101c06107c9565b6040516101cd9190610f72565b60405180910390f35b6101f060048036038101906101eb9190610af3565b61084d565b005b600080600090505b60028054905081101561024d576002818154811061021b5761021a611248565b5b90600052602060002090600302016002015482610238919061105e565b91508080610245906111a1565b9150506101fa565b5090565b6060600261025d6107c9565b8154811061026e5761026d611248565b5b9060005260206000209060030201600001805461028a9061113e565b80601f01602080910402602001604051908101604052809291908181526020018280546102b69061113e565b80156103035780601f106102d857610100808354040283529160200191610303565b820191906000526020600020905b8154815290600101906020018083116102e657829003601f168201915b5050505050905090565b600030905090565b6002818154811061032557600080fd5b90600052602060002090600302016000915090508060000180546103489061113e565b80601f01602080910402602001604051908101604052809291908181526020018280546103749061113e565b80156103c15780601f10610396576101008083540402835291602001916103c1565b820191906000526020600020905b8154815290600101906020018083116103a457829003601f168201915b5050505050908060010180546103d69061113e565b80601f01602080910402602001604051908101604052809291908181526020018280546104029061113e565b801561044f5780601f106104245761010080835404028352916020019161044f565b820191906000526020600020905b81548152906001019060200180831161043257829003601f168201915b5050505050908060020154905083565b60606002805480602002602001604051908101604052809291908181526020016000905b828210156105e357838290600052602060002090600302016040518060600160405290816000820180546104b69061113e565b80601f01602080910402602001604051908101604052809291908181526020018280546104e29061113e565b801561052f5780601f106105045761010080835404028352916020019161052f565b820191906000526020600020905b81548152906001019060200180831161051257829003601f168201915b505050505081526020016001820180546105489061113e565b80601f01602080910402602001604051908101604052809291908181526020018280546105749061113e565b80156105c15780601f10610596576101008083540402835291602001916105c1565b820191906000526020600020905b8154815290600101906020018083116105a457829003601f168201915b5050505050815260200160028201548152505081526020019060010190610483565b50505050905090565b60008054906101000a900473ffffffffffffffffffffffffffffffffffffffff1673ffffffffffffffffffffffffffffffffffffffff163373ffffffffffffffffffffffffffffffffffffffff161461067a576040517f08c379a000000000000000000000000000000000000000000000000000000000815260040161067190610f12565b60405180910390fd5b600160008273ffffffffffffffffffffffffffffffffffffffff1673ffffffffffffffffffffffffffffffffffffffff16815260200190815260200160002060000160019054906101000a900460ff161561070a576040517f08c379a000000000000000000000000000000000000000000000000000000000815260040161070190610f52565b60405180910390fd5b60018060008373ffffffffffffffffffffffffffffffffffffffff1673ffffffffffffffffffffffffffffffffffffffff16815260200190815260200160002060000160006101000a81548160ff02191690831515021790555050565b60016020528060005260406000206000915090508060000160009054906101000a900460ff16908060000160019054906101000a900460ff16905082565b60008054906101000a900473ffffffffffffffffffffffffffffffffffffffff1681565b60008060005b6002805490508110156108485781600282815481106107f1576107f0611248565b5b9060005260206000209060030201600201541115610835576002818154811061081d5761081c611248565b5b90600052602060002090600302016002015491508092505b8080610840906111a1565b9150506107cf565b505090565b6000600160003373ffffffffffffffffffffffffffffffffffffffff1673ffffffffffffffffffffffffffffffffffffffff16815260200190815260200160002090508060000160009054906101000a900460ff166108e1576040517f08c379a00000000000000000000000000000000000000000000000000000000081526004016108d890610ef2565b60405180910390fd5b8060000160019054906101000a900460ff1615610933576040517f08c379a000000000000000000000000000000000000000000000000000000000815260040161092a90610f32565b60405180910390fd5b60005b600280549050811015610a2757826040516020016109549190610e69565b604051602081830303815290604052805190602001206002828154811061097e5761097d611248565b5b906000526020600020906003020160000160405160200161099f9190610ed0565b6040516020818303038152906040528051906020012014156109f757600281815481106109cf576109ce611248565b5b906000526020600020906003020160020160008154809291906109f1906111a1565b91905055505b60018260000160016101000a81548160ff0219169083151502179055508080610a1f906111a1565b915050610936565b505050565b6000610a3f610a3a84610fb2565b610f8d565b905082815260208101848484011115610a5b57610a5a6112ab565b5b610a668482856110fc565b509392505050565b600081359050610a7d81611395565b92915050565b600082601f830112610a9857610a976112a6565b5b8135610aa8848260208601610a2c565b91505092915050565b600081359050610ac0816113ac565b92915050565b600060208284031215610adc57610adb6112b5565b5b6000610aea84828501610a6e565b91505092915050565b600060208284031215610b0957610b086112b5565b5b600082013567ffffffffffffffff811115610b2757610b266112b0565b5b610b3384828501610a83565b91505092915050565b600060208284031215610b5257610b516112b5565b5b6000610b6084828501610ab1565b91505092915050565b6000610b758383610d8e565b905092915050565b610b86816110b4565b82525050565b6000610b9782611008565b610ba1818561102b565b935083602082028501610bb385610fe3565b8060005b85811015610bef5784840389528151610bd08582610b69565b9450610bdb8361101e565b925060208a01995050600181019050610bb7565b50829750879550505050505092915050565b610c0a816110c6565b82525050565b6000610c1b82611013565b610c25818561103c565b9350610c3581856020860161110b565b610c3e816112ba565b840191505092915050565b6000610c5482611013565b610c5e818561104d565b9350610c6e81856020860161110b565b610c77816112ba565b840191505092915050565b60008154610c8f8161113e565b610c99818661104d565b94506001821660008114610cb45760018114610cc657610cf9565b60ff1983168652602086019350610cf9565b610ccf85610ff3565b60005b83811015610cf157815481890152600182019150602081019050610cd2565b808801955050505b50505092915050565b6000610d0f60148361104d565b9150610d1a826112cb565b602082019050919050565b6000610d32602f8361104d565b9150610d3d826112f4565b604082019050919050565b6000610d55600e8361104d565b9150610d6082611343565b602082019050919050565b6000610d7860188361104d565b9150610d838261136c565b602082019050919050565b60006060830160008301518482036000860152610dab8282610c10565b91505060208301518482036020860152610dc58282610c10565b9150506040830151610dda6040860182610de5565b508091505092915050565b610dee816110f2565b82525050565b610dfd816110f2565b82525050565b6000602082019050610e186000830184610b7d565b92915050565b60006020820190508181036000830152610e388184610b8c565b905092915050565b6000604082019050610e556000830185610c01565b610e626020830184610c01565b9392505050565b60006020820190508181036000830152610e838184610c49565b905092915050565b60006060820190508181036000830152610ea58186610c49565b90508181036020830152610eb98185610c49565b9050610ec86040830184610df4565b949350505050565b60006020820190508181036000830152610eea8184610c82565b905092915050565b60006020820190508181036000830152610f0b81610d02565b9050919050565b60006020820190508181036000830152610f2b81610d25565b9050919050565b60006020820190508181036000830152610f4b81610d48565b9050919050565b60006020820190508181036000830152610f6b81610d6b565b9050919050565b6000602082019050610f876000830184610df4565b92915050565b6000610f97610fa8565b9050610fa38282611170565b919050565b6000604051905090565b600067ffffffffffffffff821115610fcd57610fcc611277565b5b610fd6826112ba565b9050602081019050919050565b6000819050602082019050919050565b60008190508160005260206000209050919050565b600081519050919050565b600081519050919050565b6000602082019050919050565b600082825260208201905092915050565b600082825260208201905092915050565b600082825260208201905092915050565b6000611069826110f2565b9150611074836110f2565b9250827fffffffffffffffffffffffffffffffffffffffffffffffffffffffffffffffff038211156110a9576110a86111ea565b5b828201905092915050565b60006110bf826110d2565b9050919050565b60008115159050919050565b600073ffffffffffffffffffffffffffffffffffffffff82169050919050565b6000819050919050565b82818337600083830152505050565b60005b8381101561112957808201518184015260208101905061110e565b83811115611138576000848401525b50505050565b6000600282049050600182168061115657607f821691505b6020821081141561116a57611169611219565b5b50919050565b611179826112ba565b810181811067ffffffffffffffff8211171561119857611197611277565b5b80604052505050565b60006111ac826110f2565b91507fffffffffffffffffffffffffffffffffffffffffffffffffffffffffffffffff8214156111df576111de6111ea565b5b600182019050919050565b7f4e487b7100000000000000000000000000000000000000000000000000000000600052601160045260246000fd5b7f4e487b7100000000000000000000000000000000000000000000000000000000600052602260045260246000fd5b7f4e487b7100000000000000000000000000000000000000000000000000000000600052603260045260246000fd5b7f4e487b7100000000000000000000000000000000000000000000000000000000600052604160045260246000fd5b600080fd5b600080fd5b600080fd5b600080fd5b6000601f19601f8301169050919050565b7f486173206e6f20726967687420746f20766f7465000000000000000000000000600082015250565b7f4f6e6c792074686520636f6e7472616374206f776e65722063616e206769766560008201527f20726967687420746f20766f74652e0000000000000000000000000000000000602082015250565b7f416c726561647920766f7465642e000000000000000000000000000000000000600082015250565b7f54686520766f74657220616c726561647920766f7465642e0000000000000000600082015250565b61139e816110b4565b81146113a957600080fd5b50565b6113b5816110f2565b81146113c057600080fd5b5056fea264697066735822122099873b847ef4df4ab974080693916dc1202836ee9dfb1779d1ce295d511668cd64736f6c63430008070033",
					"opcodes": "PUSH1 0x80 PUSH1 0x40 MSTORE CALLVALUE DUP1 ISZERO PUSH3 0x11 JUMPI PUSH1 0x0 DUP1 REVERT JUMPDEST POP PUSH1 0x40 MLOAD PUSH3 0x1A67 CODESIZE SUB DUP1 PUSH3 0x1A67 DUP4 CODECOPY DUP2 DUP2 ADD PUSH1 0x40 MSTORE DUP2 ADD SWAP1 PUSH3 0x37 SWAP2 SWAP1 PUSH3 0x36B JUMP JUMPDEST CALLER PUSH1 0x0 DUP1 PUSH2 0x100 EXP DUP2 SLOAD DUP2 PUSH20 0xFFFFFFFFFFFFFFFFFFFFFFFFFFFFFFFFFFFFFFFF MUL NOT AND SWAP1 DUP4 PUSH20 0xFFFFFFFFFFFFFFFFFFFFFFFFFFFFFFFFFFFFFFFF AND MUL OR SWAP1 SSTORE POP PUSH1 0x0 JUMPDEST DUP3 MLOAD DUP2 LT ISZERO PUSH3 0x165 JUMPI PUSH1 0x2 PUSH1 0x40 MLOAD DUP1 PUSH1 0x60 ADD PUSH1 0x40 MSTORE DUP1 DUP6 DUP5 DUP2 MLOAD DUP2 LT PUSH3 0xA7 JUMPI PUSH3 0xA6 PUSH3 0x5D6 JUMP JUMPDEST JUMPDEST PUSH1 0x20 MUL PUSH1 0x20 ADD ADD MLOAD DUP2 MSTORE PUSH1 0x20 ADD DUP5 DUP5 DUP2 MLOAD DUP2 LT PUSH3 0xCA JUMPI PUSH3 0xC9 PUSH3 0x5D6 JUMP JUMPDEST JUMPDEST PUSH1 0x20 MUL PUSH1 0x20 ADD ADD MLOAD DUP2 MSTORE PUSH1 0x20 ADD PUSH1 0x0 DUP2 MSTORE POP SWAP1 DUP1 PUSH1 0x1 DUP2 SLOAD ADD DUP1 DUP3 SSTORE DUP1 SWAP2 POP POP PUSH1 0x1 SWAP1 SUB SWAP1 PUSH1 0x0 MSTORE PUSH1 0x20 PUSH1 0x0 KECCAK256 SWAP1 PUSH1 0x3 MUL ADD PUSH1 0x0 SWAP1 SWAP2 SWAP1 SWAP2 SWAP1 SWAP2 POP PUSH1 0x0 DUP3 ADD MLOAD DUP2 PUSH1 0x0 ADD SWAP1 DUP1 MLOAD SWAP1 PUSH1 0x20 ADD SWAP1 PUSH3 0x123 SWAP3 SWAP2 SWAP1 PUSH3 0x16E JUMP JUMPDEST POP PUSH1 0x20 DUP3 ADD MLOAD DUP2 PUSH1 0x1 ADD SWAP1 DUP1 MLOAD SWAP1 PUSH1 0x20 ADD SWAP1 PUSH3 0x142 SWAP3 SWAP2 SWAP1 PUSH3 0x16E JUMP JUMPDEST POP PUSH1 0x40 DUP3 ADD MLOAD DUP2 PUSH1 0x2 ADD SSTORE POP POP DUP1 DUP1 PUSH3 0x15C SWAP1 PUSH3 0x52A JUMP JUMPDEST SWAP2 POP POP PUSH3 0x7A JUMP JUMPDEST POP POP POP PUSH3 0x65E JUMP JUMPDEST DUP3 DUP1 SLOAD PUSH3 0x17C SWAP1 PUSH3 0x4BE JUMP JUMPDEST SWAP1 PUSH1 0x0 MSTORE PUSH1 0x20 PUSH1 0x0 KECCAK256 SWAP1 PUSH1 0x1F ADD PUSH1 0x20 SWAP1 DIV DUP2 ADD SWAP3 DUP3 PUSH3 0x1A0 JUMPI PUSH1 0x0 DUP6 SSTORE PUSH3 0x1EC JUMP JUMPDEST DUP3 PUSH1 0x1F LT PUSH3 0x1BB JUMPI DUP1 MLOAD PUSH1 0xFF NOT AND DUP4 DUP1 ADD OR DUP6 SSTORE PUSH3 0x1EC JUMP JUMPDEST DUP3 DUP1 ADD PUSH1 0x1 ADD DUP6 SSTORE DUP3 ISZERO PUSH3 0x1EC JUMPI SWAP2 DUP3 ADD JUMPDEST DUP3 DUP2 GT ISZERO PUSH3 0x1EB JUMPI DUP3 MLOAD DUP3 SSTORE SWAP2 PUSH1 0x20 ADD SWAP2 SWAP1 PUSH1 0x1 ADD SWAP1 PUSH3 0x1CE JUMP JUMPDEST JUMPDEST POP SWAP1 POP PUSH3 0x1FB SWAP2 SWAP1 PUSH3 0x1FF JUMP JUMPDEST POP SWAP1 JUMP JUMPDEST JUMPDEST DUP1 DUP3 GT ISZERO PUSH3 0x21A JUMPI PUSH1 0x0 DUP2 PUSH1 0x0 SWAP1 SSTORE POP PUSH1 0x1 ADD PUSH3 0x200 JUMP JUMPDEST POP SWAP1 JUMP JUMPDEST PUSH1 0x0 PUSH3 0x235 PUSH3 0x22F DUP5 PUSH3 0x419 JUMP JUMPDEST PUSH3 0x3F0 JUMP JUMPDEST SWAP1 POP DUP1 DUP4 DUP3 MSTORE PUSH1 0x20 DUP3 ADD SWAP1 POP DUP3 DUP6 PUSH1 0x20 DUP7 MUL DUP3 ADD GT ISZERO PUSH3 0x25B JUMPI PUSH3 0x25A PUSH3 0x639 JUMP JUMPDEST JUMPDEST PUSH1 0x0 JUMPDEST DUP6 DUP2 LT ISZERO PUSH3 0x2B0 JUMPI DUP2 MLOAD PUSH8 0xFFFFFFFFFFFFFFFF DUP2 GT ISZERO PUSH3 0x285 JUMPI PUSH3 0x284 PUSH3 0x634 JUMP JUMPDEST JUMPDEST DUP1 DUP7 ADD PUSH3 0x294 DUP10 DUP3 PUSH3 0x338 JUMP JUMPDEST DUP6 MSTORE PUSH1 0x20 DUP6 ADD SWAP5 POP PUSH1 0x20 DUP5 ADD SWAP4 POP POP POP PUSH1 0x1 DUP2 ADD SWAP1 POP PUSH3 0x25E JUMP JUMPDEST POP POP POP SWAP4 SWAP3 POP POP POP JUMP JUMPDEST PUSH1 0x0 PUSH3 0x2D1 PUSH3 0x2CB DUP5 PUSH3 0x448 JUMP JUMPDEST PUSH3 0x3F0 JUMP JUMPDEST SWAP1 POP DUP3 DUP2 MSTORE PUSH1 0x20 DUP2 ADD DUP5 DUP5 DUP5 ADD GT ISZERO PUSH3 0x2F0 JUMPI PUSH3 0x2EF PUSH3 0x63E JUMP JUMPDEST JUMPDEST PUSH3 0x2FD DUP5 DUP3 DUP6 PUSH3 0x488 JUMP JUMPDEST POP SWAP4 SWAP3 POP POP POP JUMP JUMPDEST PUSH1 0x0 DUP3 PUSH1 0x1F DUP4 ADD SLT PUSH3 0x31D JUMPI PUSH3 0x31C PUSH3 0x634 JUMP JUMPDEST JUMPDEST DUP2 MLOAD PUSH3 0x32F DUP5 DUP3 PUSH1 0x20 DUP7 ADD PUSH3 0x21E JUMP JUMPDEST SWAP2 POP POP SWAP3 SWAP2 POP POP JUMP JUMPDEST PUSH1 0x0 DUP3 PUSH1 0x1F DUP4 ADD SLT PUSH3 0x350 JUMPI PUSH3 0x34F PUSH3 0x634 JUMP JUMPDEST JUMPDEST DUP2 MLOAD PUSH3 0x362 DUP5 DUP3 PUSH1 0x20 DUP7 ADD PUSH3 0x2BA JUMP JUMPDEST SWAP2 POP POP SWAP3 SWAP2 POP POP JUMP JUMPDEST PUSH1 0x0 DUP1 PUSH1 0x40 DUP4 DUP6 SUB SLT ISZERO PUSH3 0x385 JUMPI PUSH3 0x384 PUSH3 0x648 JUMP JUMPDEST JUMPDEST PUSH1 0x0 DUP4 ADD MLOAD PUSH8 0xFFFFFFFFFFFFFFFF DUP2 GT ISZERO PUSH3 0x3A6 JUMPI PUSH3 0x3A5 PUSH3 0x643 JUMP JUMPDEST JUMPDEST PUSH3 0x3B4 DUP6 DUP3 DUP7 ADD PUSH3 0x305 JUMP JUMPDEST SWAP3 POP POP PUSH1 0x20 DUP4 ADD MLOAD PUSH8 0xFFFFFFFFFFFFFFFF DUP2 GT ISZERO PUSH3 0x3D8 JUMPI PUSH3 0x3D7 PUSH3 0x643 JUMP JUMPDEST JUMPDEST PUSH3 0x3E6 DUP6 DUP3 DUP7 ADD PUSH3 0x305 JUMP JUMPDEST SWAP2 POP POP SWAP3 POP SWAP3 SWAP1 POP JUMP JUMPDEST PUSH1 0x0 PUSH3 0x3FC PUSH3 0x40F JUMP JUMPDEST SWAP1 POP PUSH3 0x40A DUP3 DUP3 PUSH3 0x4F4 JUMP JUMPDEST SWAP2 SWAP1 POP JUMP JUMPDEST PUSH1 0x0 PUSH1 0x40 MLOAD SWAP1 POP SWAP1 JUMP JUMPDEST PUSH1 0x0 PUSH8 0xFFFFFFFFFFFFFFFF DUP3 GT ISZERO PUSH3 0x437 JUMPI PUSH3 0x436 PUSH3 0x605 JUMP JUMPDEST JUMPDEST PUSH1 0x20 DUP3 MUL SWAP1 POP PUSH1 0x20 DUP2 ADD SWAP1 POP SWAP2 SWAP1 POP JUMP JUMPDEST PUSH1 0x0 PUSH8 0xFFFFFFFFFFFFFFFF DUP3 GT ISZERO PUSH3 0x466 JUMPI PUSH3 0x465 PUSH3 0x605 JUMP JUMPDEST JUMPDEST PUSH3 0x471 DUP3 PUSH3 0x64D JUMP JUMPDEST SWAP1 POP PUSH1 0x20 DUP2 ADD SWAP1 POP SWAP2 SWAP1 POP JUMP JUMPDEST PUSH1 0x0 DUP2 SWAP1 POP SWAP2 SWAP1 POP JUMP JUMPDEST PUSH1 0x0 JUMPDEST DUP4 DUP2 LT ISZERO PUSH3 0x4A8 JUMPI DUP1 DUP3 ADD MLOAD DUP2 DUP5 ADD MSTORE PUSH1 0x20 DUP2 ADD SWAP1 POP PUSH3 0x48B JUMP JUMPDEST DUP4 DUP2 GT ISZERO PUSH3 0x4B8 JUMPI PUSH1 0x0 DUP5 DUP5 ADD MSTORE JUMPDEST POP POP POP POP JUMP JUMPDEST PUSH1 0x0 PUSH1 0x2 DUP3 DIV SWAP1 POP PUSH1 0x1 DUP3 AND DUP1 PUSH3 0x4D7 JUMPI PUSH1 0x7F DUP3 AND SWAP2 POP JUMPDEST PUSH1 0x20 DUP3 LT DUP2 EQ ISZERO PUSH3 0x4EE JUMPI PUSH3 0x4ED PUSH3 0x5A7 JUMP JUMPDEST JUMPDEST POP SWAP2 SWAP1 POP JUMP JUMPDEST PUSH3 0x4FF DUP3 PUSH3 0x64D JUMP JUMPDEST DUP2 ADD DUP2 DUP2 LT PUSH8 0xFFFFFFFFFFFFFFFF DUP3 GT OR ISZERO PUSH3 0x521 JUMPI PUSH3 0x520 PUSH3 0x605 JUMP JUMPDEST JUMPDEST DUP1 PUSH1 0x40 MSTORE POP POP POP JUMP JUMPDEST PUSH1 0x0 PUSH3 0x537 DUP3 PUSH3 0x47E JUMP JUMPDEST SWAP2 POP PUSH32 0xFFFFFFFFFFFFFFFFFFFFFFFFFFFFFFFFFFFFFFFFFFFFFFFFFFFFFFFFFFFFFFFF DUP3 EQ ISZERO PUSH3 0x56D JUMPI PUSH3 0x56C PUSH3 0x578 JUMP JUMPDEST JUMPDEST PUSH1 0x1 DUP3 ADD SWAP1 POP SWAP2 SWAP1 POP JUMP JUMPDEST PUSH32 0x4E487B7100000000000000000000000000000000000000000000000000000000 PUSH1 0x0 MSTORE PUSH1 0x11 PUSH1 0x4 MSTORE PUSH1 0x24 PUSH1 0x0 REVERT JUMPDEST PUSH32 0x4E487B7100000000000000000000000000000000000000000000000000000000 PUSH1 0x0 MSTORE PUSH1 0x22 PUSH1 0x4 MSTORE PUSH1 0x24 PUSH1 0x0 REVERT JUMPDEST PUSH32 0x4E487B7100000000000000000000000000000000000000000000000000000000 PUSH1 0x0 MSTORE PUSH1 0x32 PUSH1 0x4 MSTORE PUSH1 0x24 PUSH1 0x0 REVERT JUMPDEST PUSH32 0x4E487B7100000000000000000000000000000000000000000000000000000000 PUSH1 0x0 MSTORE PUSH1 0x41 PUSH1 0x4 MSTORE PUSH1 0x24 PUSH1 0x0 REVERT JUMPDEST PUSH1 0x0 DUP1 REVERT JUMPDEST PUSH1 0x0 DUP1 REVERT JUMPDEST PUSH1 0x0 DUP1 REVERT JUMPDEST PUSH1 0x0 DUP1 REVERT JUMPDEST PUSH1 0x0 DUP1 REVERT JUMPDEST PUSH1 0x0 PUSH1 0x1F NOT PUSH1 0x1F DUP4 ADD AND SWAP1 POP SWAP2 SWAP1 POP JUMP JUMPDEST PUSH2 0x13F9 DUP1 PUSH3 0x66E PUSH1 0x0 CODECOPY PUSH1 0x0 RETURN INVALID PUSH1 0x80 PUSH1 0x40 MSTORE CALLVALUE DUP1 ISZERO PUSH2 0x10 JUMPI PUSH1 0x0 DUP1 REVERT JUMPDEST POP PUSH1 0x4 CALLDATASIZE LT PUSH2 0x9E JUMPI PUSH1 0x0 CALLDATALOAD PUSH1 0xE0 SHR DUP1 PUSH4 0x9E7B8D61 GT PUSH2 0x66 JUMPI DUP1 PUSH4 0x9E7B8D61 EQ PUSH2 0x14D JUMPI DUP1 PUSH4 0xA3EC138D EQ PUSH2 0x169 JUMPI DUP1 PUSH4 0xCE606EE0 EQ PUSH2 0x19A JUMPI DUP1 PUSH4 0xF927CC29 EQ PUSH2 0x1B8 JUMPI DUP1 PUSH4 0xFC36E15B EQ PUSH2 0x1D6 JUMPI PUSH2 0x9E JUMP JUMPDEST DUP1 PUSH4 0x1C5556A EQ PUSH2 0xA3 JUMPI DUP1 PUSH4 0x2BFDA515 EQ PUSH2 0xC1 JUMPI DUP1 PUSH4 0x32A2C5D0 EQ PUSH2 0xDF JUMPI DUP1 PUSH4 0x3477EE2E EQ PUSH2 0xFD JUMPI DUP1 PUSH4 0x4ABA5F34 EQ PUSH2 0x12F JUMPI JUMPDEST PUSH1 0x0 DUP1 REVERT JUMPDEST PUSH2 0xAB PUSH2 0x1F2 JUMP JUMPDEST PUSH1 0x40 MLOAD PUSH2 0xB8 SWAP2 SWAP1 PUSH2 0xF72 JUMP JUMPDEST PUSH1 0x40 MLOAD DUP1 SWAP2 SUB SWAP1 RETURN JUMPDEST PUSH2 0xC9 PUSH2 0x251 JUMP JUMPDEST PUSH1 0x40 MLOAD PUSH2 0xD6 SWAP2 SWAP1 PUSH2 0xE69 JUMP JUMPDEST PUSH1 0x40 MLOAD DUP1 SWAP2 SUB SWAP1 RETURN JUMPDEST PUSH2 0xE7 PUSH2 0x30D JUMP JUMPDEST PUSH1 0x40 MLOAD PUSH2 0xF4 SWAP2 SWAP1 PUSH2 0xE03 JUMP JUMPDEST PUSH1 0x40 MLOAD DUP1 SWAP2 SUB SWAP1 RETURN JUMPDEST PUSH2 0x117 PUSH1 0x4 DUP1 CALLDATASIZE SUB DUP2 ADD SWAP1 PUSH2 0x112 SWAP2 SWAP1 PUSH2 0xB3C JUMP JUMPDEST PUSH2 0x315 JUMP JUMPDEST PUSH1 0x40 MLOAD PUSH2 0x126 SWAP4 SWAP3 SWAP2 SWAP1 PUSH2 0xE8B JUMP JUMPDEST PUSH1 0x40 MLOAD DUP1 SWAP2 SUB SWAP1 RETURN JUMPDEST PUSH2 0x137 PUSH2 0x45F JUMP JUMPDEST PUSH1 0x40 MLOAD PUSH2 0x144 SWAP2 SWAP1 PUSH2 0xE1E JUMP JUMPDEST PUSH1 0x40 MLOAD DUP1 SWAP2 SUB SWAP1 RETURN JUMPDEST PUSH2 0x167 PUSH1 0x4 DUP1 CALLDATASIZE SUB DUP2 ADD SWAP1 PUSH2 0x162 SWAP2 SWAP1 PUSH2 0xAC6 JUMP JUMPDEST PUSH2 0x5EC JUMP JUMPDEST STOP JUMPDEST PUSH2 0x183 PUSH1 0x4 DUP1 CALLDATASIZE SUB DUP2 ADD SWAP1 PUSH2 0x17E SWAP2 SWAP1 PUSH2 0xAC6 JUMP JUMPDEST PUSH2 0x767 JUMP JUMPDEST PUSH1 0x40 MLOAD PUSH2 0x191 SWAP3 SWAP2 SWAP1 PUSH2 0xE40 JUMP JUMPDEST PUSH1 0x40 MLOAD DUP1 SWAP2 SUB SWAP1 RETURN JUMPDEST PUSH2 0x1A2 PUSH2 0x7A5 JUMP JUMPDEST PUSH1 0x40 MLOAD PUSH2 0x1AF SWAP2 SWAP1 PUSH2 0xE03 JUMP JUMPDEST PUSH1 0x40 MLOAD DUP1 SWAP2 SUB SWAP1 RETURN JUMPDEST PUSH2 0x1C0 PUSH2 0x7C9 JUMP JUMPDEST PUSH1 0x40 MLOAD PUSH2 0x1CD SWAP2 SWAP1 PUSH2 0xF72 JUMP JUMPDEST PUSH1 0x40 MLOAD DUP1 SWAP2 SUB SWAP1 RETURN JUMPDEST PUSH2 0x1F0 PUSH1 0x4 DUP1 CALLDATASIZE SUB DUP2 ADD SWAP1 PUSH2 0x1EB SWAP2 SWAP1 PUSH2 0xAF3 JUMP JUMPDEST PUSH2 0x84D JUMP JUMPDEST STOP JUMPDEST PUSH1 0x0 DUP1 PUSH1 0x0 SWAP1 POP JUMPDEST PUSH1 0x2 DUP1 SLOAD SWAP1 POP DUP2 LT ISZERO PUSH2 0x24D JUMPI PUSH1 0x2 DUP2 DUP2 SLOAD DUP2 LT PUSH2 0x21B JUMPI PUSH2 0x21A PUSH2 0x1248 JUMP JUMPDEST JUMPDEST SWAP1 PUSH1 0x0 MSTORE PUSH1 0x20 PUSH1 0x0 KECCAK256 SWAP1 PUSH1 0x3 MUL ADD PUSH1 0x2 ADD SLOAD DUP3 PUSH2 0x238 SWAP2 SWAP1 PUSH2 0x105E JUMP JUMPDEST SWAP2 POP DUP1 DUP1 PUSH2 0x245 SWAP1 PUSH2 0x11A1 JUMP JUMPDEST SWAP2 POP POP PUSH2 0x1FA JUMP JUMPDEST POP SWAP1 JUMP JUMPDEST PUSH1 0x60 PUSH1 0x2 PUSH2 0x25D PUSH2 0x7C9 JUMP JUMPDEST DUP2 SLOAD DUP2 LT PUSH2 0x26E JUMPI PUSH2 0x26D PUSH2 0x1248 JUMP JUMPDEST JUMPDEST SWAP1 PUSH1 0x0 MSTORE PUSH1 0x20 PUSH1 0x0 KECCAK256 SWAP1 PUSH1 0x3 MUL ADD PUSH1 0x0 ADD DUP1 SLOAD PUSH2 0x28A SWAP1 PUSH2 0x113E JUMP JUMPDEST DUP1 PUSH1 0x1F ADD PUSH1 0x20 DUP1 SWAP2 DIV MUL PUSH1 0x20 ADD PUSH1 0x40 MLOAD SWAP1 DUP2 ADD PUSH1 0x40 MSTORE DUP1 SWAP3 SWAP2 SWAP1 DUP2 DUP2 MSTORE PUSH1 0x20 ADD DUP3 DUP1 SLOAD PUSH2 0x2B6 SWAP1 PUSH2 0x113E JUMP JUMPDEST DUP1 ISZERO PUSH2 0x303 JUMPI DUP1 PUSH1 0x1F LT PUSH2 0x2D8 JUMPI PUSH2 0x100 DUP1 DUP4 SLOAD DIV MUL DUP4 MSTORE SWAP2 PUSH1 0x20 ADD SWAP2 PUSH2 0x303 JUMP JUMPDEST DUP3 ADD SWAP2 SWAP1 PUSH1 0x0 MSTORE PUSH1 0x20 PUSH1 0x0 KECCAK256 SWAP1 JUMPDEST DUP2 SLOAD DUP2 MSTORE SWAP1 PUSH1 0x1 ADD SWAP1 PUSH1 0x20 ADD DUP1 DUP4 GT PUSH2 0x2E6 JUMPI DUP3 SWAP1 SUB PUSH1 0x1F AND DUP3 ADD SWAP2 JUMPDEST POP POP POP POP POP SWAP1 POP SWAP1 JUMP JUMPDEST PUSH1 0x0 ADDRESS SWAP1 POP SWAP1 JUMP JUMPDEST PUSH1 0x2 DUP2 DUP2 SLOAD DUP2 LT PUSH2 0x325 JUMPI PUSH1 0x0 DUP1 REVERT JUMPDEST SWAP1 PUSH1 0x0 MSTORE PUSH1 0x20 PUSH1 0x0 KECCAK256 SWAP1 PUSH1 0x3 MUL ADD PUSH1 0x0 SWAP2 POP SWAP1 POP DUP1 PUSH1 0x0 ADD DUP1 SLOAD PUSH2 0x348 SWAP1 PUSH2 0x113E JUMP JUMPDEST DUP1 PUSH1 0x1F ADD PUSH1 0x20 DUP1 SWAP2 DIV MUL PUSH1 0x20 ADD PUSH1 0x40 MLOAD SWAP1 DUP2 ADD PUSH1 0x40 MSTORE DUP1 SWAP3 SWAP2 SWAP1 DUP2 DUP2 MSTORE PUSH1 0x20 ADD DUP3 DUP1 SLOAD PUSH2 0x374 SWAP1 PUSH2 0x113E JUMP JUMPDEST DUP1 ISZERO PUSH2 0x3C1 JUMPI DUP1 PUSH1 0x1F LT PUSH2 0x396 JUMPI PUSH2 0x100 DUP1 DUP4 SLOAD DIV MUL DUP4 MSTORE SWAP2 PUSH1 0x20 ADD SWAP2 PUSH2 0x3C1 JUMP JUMPDEST DUP3 ADD SWAP2 SWAP1 PUSH1 0x0 MSTORE PUSH1 0x20 PUSH1 0x0 KECCAK256 SWAP1 JUMPDEST DUP2 SLOAD DUP2 MSTORE SWAP1 PUSH1 0x1 ADD SWAP1 PUSH1 0x20 ADD DUP1 DUP4 GT PUSH2 0x3A4 JUMPI DUP3 SWAP1 SUB PUSH1 0x1F AND DUP3 ADD SWAP2 JUMPDEST POP POP POP POP POP SWAP1 DUP1 PUSH1 0x1 ADD DUP1 SLOAD PUSH2 0x3D6 SWAP1 PUSH2 0x113E JUMP JUMPDEST DUP1 PUSH1 0x1F ADD PUSH1 0x20 DUP1 SWAP2 DIV MUL PUSH1 0x20 ADD PUSH1 0x40 MLOAD SWAP1 DUP2 ADD PUSH1 0x40 MSTORE DUP1 SWAP3 SWAP2 SWAP1 DUP2 DUP2 MSTORE PUSH1 0x20 ADD DUP3 DUP1 SLOAD PUSH2 0x402 SWAP1 PUSH2 0x113E JUMP JUMPDEST DUP1 ISZERO PUSH2 0x44F JUMPI DUP1 PUSH1 0x1F LT PUSH2 0x424 JUMPI PUSH2 0x100 DUP1 DUP4 SLOAD DIV MUL DUP4 MSTORE SWAP2 PUSH1 0x20 ADD SWAP2 PUSH2 0x44F JUMP JUMPDEST DUP3 ADD SWAP2 SWAP1 PUSH1 0x0 MSTORE PUSH1 0x20 PUSH1 0x0 KECCAK256 SWAP1 JUMPDEST DUP2 SLOAD DUP2 MSTORE SWAP1 PUSH1 0x1 ADD SWAP1 PUSH1 0x20 ADD DUP1 DUP4 GT PUSH2 0x432 JUMPI DUP3 SWAP1 SUB PUSH1 0x1F AND DUP3 ADD SWAP2 JUMPDEST POP POP POP POP POP SWAP1 DUP1 PUSH1 0x2 ADD SLOAD SWAP1 POP DUP4 JUMP JUMPDEST PUSH1 0x60 PUSH1 0x2 DUP1 SLOAD DUP1 PUSH1 0x20 MUL PUSH1 0x20 ADD PUSH1 0x40 MLOAD SWAP1 DUP2 ADD PUSH1 0x40 MSTORE DUP1 SWAP3 SWAP2 SWAP1 DUP2 DUP2 MSTORE PUSH1 0x20 ADD PUSH1 0x0 SWAP1 JUMPDEST DUP3 DUP3 LT ISZERO PUSH2 0x5E3 JUMPI DUP4 DUP3 SWAP1 PUSH1 0x0 MSTORE PUSH1 0x20 PUSH1 0x0 KECCAK256 SWAP1 PUSH1 0x3 MUL ADD PUSH1 0x40 MLOAD DUP1 PUSH1 0x60 ADD PUSH1 0x40 MSTORE SWAP1 DUP2 PUSH1 0x0 DUP3 ADD DUP1 SLOAD PUSH2 0x4B6 SWAP1 PUSH2 0x113E JUMP JUMPDEST DUP1 PUSH1 0x1F ADD PUSH1 0x20 DUP1 SWAP2 DIV MUL PUSH1 0x20 ADD PUSH1 0x40 MLOAD SWAP1 DUP2 ADD PUSH1 0x40 MSTORE DUP1 SWAP3 SWAP2 SWAP1 DUP2 DUP2 MSTORE PUSH1 0x20 ADD DUP3 DUP1 SLOAD PUSH2 0x4E2 SWAP1 PUSH2 0x113E JUMP JUMPDEST DUP1 ISZERO PUSH2 0x52F JUMPI DUP1 PUSH1 0x1F LT PUSH2 0x504 JUMPI PUSH2 0x100 DUP1 DUP4 SLOAD DIV MUL DUP4 MSTORE SWAP2 PUSH1 0x20 ADD SWAP2 PUSH2 0x52F JUMP JUMPDEST DUP3 ADD SWAP2 SWAP1 PUSH1 0x0 MSTORE PUSH1 0x20 PUSH1 0x0 KECCAK256 SWAP1 JUMPDEST DUP2 SLOAD DUP2 MSTORE SWAP1 PUSH1 0x1 ADD SWAP1 PUSH1 0x20 ADD DUP1 DUP4 GT PUSH2 0x512 JUMPI DUP3 SWAP1 SUB PUSH1 0x1F AND DUP3 ADD SWAP2 JUMPDEST POP POP POP POP POP DUP2 MSTORE PUSH1 0x20 ADD PUSH1 0x1 DUP3 ADD DUP1 SLOAD PUSH2 0x548 SWAP1 PUSH2 0x113E JUMP JUMPDEST DUP1 PUSH1 0x1F ADD PUSH1 0x20 DUP1 SWAP2 DIV MUL PUSH1 0x20 ADD PUSH1 0x40 MLOAD SWAP1 DUP2 ADD PUSH1 0x40 MSTORE DUP1 SWAP3 SWAP2 SWAP1 DUP2 DUP2 MSTORE PUSH1 0x20 ADD DUP3 DUP1 SLOAD PUSH2 0x574 SWAP1 PUSH2 0x113E JUMP JUMPDEST DUP1 ISZERO PUSH2 0x5C1 JUMPI DUP1 PUSH1 0x1F LT PUSH2 0x596 JUMPI PUSH2 0x100 DUP1 DUP4 SLOAD DIV MUL DUP4 MSTORE SWAP2 PUSH1 0x20 ADD SWAP2 PUSH2 0x5C1 JUMP JUMPDEST DUP3 ADD SWAP2 SWAP1 PUSH1 0x0 MSTORE PUSH1 0x20 PUSH1 0x0 KECCAK256 SWAP1 JUMPDEST DUP2 SLOAD DUP2 MSTORE SWAP1 PUSH1 0x1 ADD SWAP1 PUSH1 0x20 ADD DUP1 DUP4 GT PUSH2 0x5A4 JUMPI DUP3 SWAP1 SUB PUSH1 0x1F AND DUP3 ADD SWAP2 JUMPDEST POP POP POP POP POP DUP2 MSTORE PUSH1 0x20 ADD PUSH1 0x2 DUP3 ADD SLOAD DUP2 MSTORE POP POP DUP2 MSTORE PUSH1 0x20 ADD SWAP1 PUSH1 0x1 ADD SWAP1 PUSH2 0x483 JUMP JUMPDEST POP POP POP POP SWAP1 POP SWAP1 JUMP JUMPDEST PUSH1 0x0 DUP1 SLOAD SWAP1 PUSH2 0x100 EXP SWAP1 DIV PUSH20 0xFFFFFFFFFFFFFFFFFFFFFFFFFFFFFFFFFFFFFFFF AND PUSH20 0xFFFFFFFFFFFFFFFFFFFFFFFFFFFFFFFFFFFFFFFF AND CALLER PUSH20 0xFFFFFFFFFFFFFFFFFFFFFFFFFFFFFFFFFFFFFFFF AND EQ PUSH2 0x67A JUMPI PUSH1 0x40 MLOAD PUSH32 0x8C379A000000000000000000000000000000000000000000000000000000000 DUP2 MSTORE PUSH1 0x4 ADD PUSH2 0x671 SWAP1 PUSH2 0xF12 JUMP JUMPDEST PUSH1 0x40 MLOAD DUP1 SWAP2 SUB SWAP1 REVERT JUMPDEST PUSH1 0x1 PUSH1 0x0 DUP3 PUSH20 0xFFFFFFFFFFFFFFFFFFFFFFFFFFFFFFFFFFFFFFFF AND PUSH20 0xFFFFFFFFFFFFFFFFFFFFFFFFFFFFFFFFFFFFFFFF AND DUP2 MSTORE PUSH1 0x20 ADD SWAP1 DUP2 MSTORE PUSH1 0x20 ADD PUSH1 0x0 KECCAK256 PUSH1 0x0 ADD PUSH1 0x1 SWAP1 SLOAD SWAP1 PUSH2 0x100 EXP SWAP1 DIV PUSH1 0xFF AND ISZERO PUSH2 0x70A JUMPI PUSH1 0x40 MLOAD PUSH32 0x8C379A000000000000000000000000000000000000000000000000000000000 DUP2 MSTORE PUSH1 0x4 ADD PUSH2 0x701 SWAP1 PUSH2 0xF52 JUMP JUMPDEST PUSH1 0x40 MLOAD DUP1 SWAP2 SUB SWAP1 REVERT JUMPDEST PUSH1 0x1 DUP1 PUSH1 0x0 DUP4 PUSH20 0xFFFFFFFFFFFFFFFFFFFFFFFFFFFFFFFFFFFFFFFF AND PUSH20 0xFFFFFFFFFFFFFFFFFFFFFFFFFFFFFFFFFFFFFFFF AND DUP2 MSTORE PUSH1 0x20 ADD SWAP1 DUP2 MSTORE PUSH1 0x20 ADD PUSH1 0x0 KECCAK256 PUSH1 0x0 ADD PUSH1 0x0 PUSH2 0x100 EXP DUP2 SLOAD DUP2 PUSH1 0xFF MUL NOT AND SWAP1 DUP4 ISZERO ISZERO MUL OR SWAP1 SSTORE POP POP JUMP JUMPDEST PUSH1 0x1 PUSH1 0x20 MSTORE DUP1 PUSH1 0x0 MSTORE PUSH1 0x40 PUSH1 0x0 KECCAK256 PUSH1 0x0 SWAP2 POP SWAP1 POP DUP1 PUSH1 0x0 ADD PUSH1 0x0 SWAP1 SLOAD SWAP1 PUSH2 0x100 EXP SWAP1 DIV PUSH1 0xFF AND SWAP1 DUP1 PUSH1 0x0 ADD PUSH1 0x1 SWAP1 SLOAD SWAP1 PUSH2 0x100 EXP SWAP1 DIV PUSH1 0xFF AND SWAP1 POP DUP3 JUMP JUMPDEST PUSH1 0x0 DUP1 SLOAD SWAP1 PUSH2 0x100 EXP SWAP1 DIV PUSH20 0xFFFFFFFFFFFFFFFFFFFFFFFFFFFFFFFFFFFFFFFF AND DUP2 JUMP JUMPDEST PUSH1 0x0 DUP1 PUSH1 0x0 JUMPDEST PUSH1 0x2 DUP1 SLOAD SWAP1 POP DUP2 LT ISZERO PUSH2 0x848 JUMPI DUP2 PUSH1 0x2 DUP3 DUP2 SLOAD DUP2 LT PUSH2 0x7F1 JUMPI PUSH2 0x7F0 PUSH2 0x1248 JUMP JUMPDEST JUMPDEST SWAP1 PUSH1 0x0 MSTORE PUSH1 0x20 PUSH1 0x0 KECCAK256 SWAP1 PUSH1 0x3 MUL ADD PUSH1 0x2 ADD SLOAD GT ISZERO PUSH2 0x835 JUMPI PUSH1 0x2 DUP2 DUP2 SLOAD DUP2 LT PUSH2 0x81D JUMPI PUSH2 0x81C PUSH2 0x1248 JUMP JUMPDEST JUMPDEST SWAP1 PUSH1 0x0 MSTORE PUSH1 0x20 PUSH1 0x0 KECCAK256 SWAP1 PUSH1 0x3 MUL ADD PUSH1 0x2 ADD SLOAD SWAP2 POP DUP1 SWAP3 POP JUMPDEST DUP1 DUP1 PUSH2 0x840 SWAP1 PUSH2 0x11A1 JUMP JUMPDEST SWAP2 POP POP PUSH2 0x7CF JUMP JUMPDEST POP POP SWAP1 JUMP JUMPDEST PUSH1 0x0 PUSH1 0x1 PUSH1 0x0 CALLER PUSH20 0xFFFFFFFFFFFFFFFFFFFFFFFFFFFFFFFFFFFFFFFF AND PUSH20 0xFFFFFFFFFFFFFFFFFFFFFFFFFFFFFFFFFFFFFFFF AND DUP2 MSTORE PUSH1 0x20 ADD SWAP1 DUP2 MSTORE PUSH1 0x20 ADD PUSH1 0x0 KECCAK256 SWAP1 POP DUP1 PUSH1 0x0 ADD PUSH1 0x0 SWAP1 SLOAD SWAP1 PUSH2 0x100 EXP SWAP1 DIV PUSH1 0xFF AND PUSH2 0x8E1 JUMPI PUSH1 0x40 MLOAD PUSH32 0x8C379A000000000000000000000000000000000000000000000000000000000 DUP2 MSTORE PUSH1 0x4 ADD PUSH2 0x8D8 SWAP1 PUSH2 0xEF2 JUMP JUMPDEST PUSH1 0x40 MLOAD DUP1 SWAP2 SUB SWAP1 REVERT JUMPDEST DUP1 PUSH1 0x0 ADD PUSH1 0x1 SWAP1 SLOAD SWAP1 PUSH2 0x100 EXP SWAP1 DIV PUSH1 0xFF AND ISZERO PUSH2 0x933 JUMPI PUSH1 0x40 MLOAD PUSH32 0x8C379A000000000000000000000000000000000000000000000000000000000 DUP2 MSTORE PUSH1 0x4 ADD PUSH2 0x92A SWAP1 PUSH2 0xF32 JUMP JUMPDEST PUSH1 0x40 MLOAD DUP1 SWAP2 SUB SWAP1 REVERT JUMPDEST PUSH1 0x0 JUMPDEST PUSH1 0x2 DUP1 SLOAD SWAP1 POP DUP2 LT ISZERO PUSH2 0xA27 JUMPI DUP3 PUSH1 0x40 MLOAD PUSH1 0x20 ADD PUSH2 0x954 SWAP2 SWAP1 PUSH2 0xE69 JUMP JUMPDEST PUSH1 0x40 MLOAD PUSH1 0x20 DUP2 DUP4 SUB SUB DUP2 MSTORE SWAP1 PUSH1 0x40 MSTORE DUP1 MLOAD SWAP1 PUSH1 0x20 ADD KECCAK256 PUSH1 0x2 DUP3 DUP2 SLOAD DUP2 LT PUSH2 0x97E JUMPI PUSH2 0x97D PUSH2 0x1248 JUMP JUMPDEST JUMPDEST SWAP1 PUSH1 0x0 MSTORE PUSH1 0x20 PUSH1 0x0 KECCAK256 SWAP1 PUSH1 0x3 MUL ADD PUSH1 0x0 ADD PUSH1 0x40 MLOAD PUSH1 0x20 ADD PUSH2 0x99F SWAP2 SWAP1 PUSH2 0xED0 JUMP JUMPDEST PUSH1 0x40 MLOAD PUSH1 0x20 DUP2 DUP4 SUB SUB DUP2 MSTORE SWAP1 PUSH1 0x40 MSTORE DUP1 MLOAD SWAP1 PUSH1 0x20 ADD KECCAK256 EQ ISZERO PUSH2 0x9F7 JUMPI PUSH1 0x2 DUP2 DUP2 SLOAD DUP2 LT PUSH2 0x9CF JUMPI PUSH2 0x9CE PUSH2 0x1248 JUMP JUMPDEST JUMPDEST SWAP1 PUSH1 0x0 MSTORE PUSH1 0x20 PUSH1 0x0 KECCAK256 SWAP1 PUSH1 0x3 MUL ADD PUSH1 0x2 ADD PUSH1 0x0 DUP2 SLOAD DUP1 SWAP3 SWAP2 SWAP1 PUSH2 0x9F1 SWAP1 PUSH2 0x11A1 JUMP JUMPDEST SWAP2 SWAP1 POP SSTORE POP JUMPDEST PUSH1 0x1 DUP3 PUSH1 0x0 ADD PUSH1 0x1 PUSH2 0x100 EXP DUP2 SLOAD DUP2 PUSH1 0xFF MUL NOT AND SWAP1 DUP4 ISZERO ISZERO MUL OR SWAP1 SSTORE POP DUP1 DUP1 PUSH2 0xA1F SWAP1 PUSH2 0x11A1 JUMP JUMPDEST SWAP2 POP POP PUSH2 0x936 JUMP JUMPDEST POP POP POP JUMP JUMPDEST PUSH1 0x0 PUSH2 0xA3F PUSH2 0xA3A DUP5 PUSH2 0xFB2 JUMP JUMPDEST PUSH2 0xF8D JUMP JUMPDEST SWAP1 POP DUP3 DUP2 MSTORE PUSH1 0x20 DUP2 ADD DUP5 DUP5 DUP5 ADD GT ISZERO PUSH2 0xA5B JUMPI PUSH2 0xA5A PUSH2 0x12AB JUMP JUMPDEST JUMPDEST PUSH2 0xA66 DUP5 DUP3 DUP6 PUSH2 0x10FC JUMP JUMPDEST POP SWAP4 SWAP3 POP POP POP JUMP JUMPDEST PUSH1 0x0 DUP2 CALLDATALOAD SWAP1 POP PUSH2 0xA7D DUP2 PUSH2 0x1395 JUMP JUMPDEST SWAP3 SWAP2 POP POP JUMP JUMPDEST PUSH1 0x0 DUP3 PUSH1 0x1F DUP4 ADD SLT PUSH2 0xA98 JUMPI PUSH2 0xA97 PUSH2 0x12A6 JUMP JUMPDEST JUMPDEST DUP2 CALLDATALOAD PUSH2 0xAA8 DUP5 DUP3 PUSH1 0x20 DUP7 ADD PUSH2 0xA2C JUMP JUMPDEST SWAP2 POP POP SWAP3 SWAP2 POP POP JUMP JUMPDEST PUSH1 0x0 DUP2 CALLDATALOAD SWAP1 POP PUSH2 0xAC0 DUP2 PUSH2 0x13AC JUMP JUMPDEST SWAP3 SWAP2 POP POP JUMP JUMPDEST PUSH1 0x0 PUSH1 0x20 DUP3 DUP5 SUB SLT ISZERO PUSH2 0xADC JUMPI PUSH2 0xADB PUSH2 0x12B5 JUMP JUMPDEST JUMPDEST PUSH1 0x0 PUSH2 0xAEA DUP5 DUP3 DUP6 ADD PUSH2 0xA6E JUMP JUMPDEST SWAP2 POP POP SWAP3 SWAP2 POP POP JUMP JUMPDEST PUSH1 0x0 PUSH1 0x20 DUP3 DUP5 SUB SLT ISZERO PUSH2 0xB09 JUMPI PUSH2 0xB08 PUSH2 0x12B5 JUMP JUMPDEST JUMPDEST PUSH1 0x0 DUP3 ADD CALLDATALOAD PUSH8 0xFFFFFFFFFFFFFFFF DUP2 GT ISZERO PUSH2 0xB27 JUMPI PUSH2 0xB26 PUSH2 0x12B0 JUMP JUMPDEST JUMPDEST PUSH2 0xB33 DUP5 DUP3 DUP6 ADD PUSH2 0xA83 JUMP JUMPDEST SWAP2 POP POP SWAP3 SWAP2 POP POP JUMP JUMPDEST PUSH1 0x0 PUSH1 0x20 DUP3 DUP5 SUB SLT ISZERO PUSH2 0xB52 JUMPI PUSH2 0xB51 PUSH2 0x12B5 JUMP JUMPDEST JUMPDEST PUSH1 0x0 PUSH2 0xB60 DUP5 DUP3 DUP6 ADD PUSH2 0xAB1 JUMP JUMPDEST SWAP2 POP POP SWAP3 SWAP2 POP POP JUMP JUMPDEST PUSH1 0x0 PUSH2 0xB75 DUP4 DUP4 PUSH2 0xD8E JUMP JUMPDEST SWAP1 POP SWAP3 SWAP2 POP POP JUMP JUMPDEST PUSH2 0xB86 DUP2 PUSH2 0x10B4 JUMP JUMPDEST DUP3 MSTORE POP POP JUMP JUMPDEST PUSH1 0x0 PUSH2 0xB97 DUP3 PUSH2 0x1008 JUMP JUMPDEST PUSH2 0xBA1 DUP2 DUP6 PUSH2 0x102B JUMP JUMPDEST SWAP4 POP DUP4 PUSH1 0x20 DUP3 MUL DUP6 ADD PUSH2 0xBB3 DUP6 PUSH2 0xFE3 JUMP JUMPDEST DUP1 PUSH1 0x0 JUMPDEST DUP6 DUP2 LT ISZERO PUSH2 0xBEF JUMPI DUP5 DUP5 SUB DUP10 MSTORE DUP2 MLOAD PUSH2 0xBD0 DUP6 DUP3 PUSH2 0xB69 JUMP JUMPDEST SWAP5 POP PUSH2 0xBDB DUP4 PUSH2 0x101E JUMP JUMPDEST SWAP3 POP PUSH1 0x20 DUP11 ADD SWAP10 POP POP PUSH1 0x1 DUP2 ADD SWAP1 POP PUSH2 0xBB7 JUMP JUMPDEST POP DUP3 SWAP8 POP DUP8 SWAP6 POP POP POP POP POP POP SWAP3 SWAP2 POP POP JUMP JUMPDEST PUSH2 0xC0A DUP2 PUSH2 0x10C6 JUMP JUMPDEST DUP3 MSTORE POP POP JUMP JUMPDEST PUSH1 0x0 PUSH2 0xC1B DUP3 PUSH2 0x1013 JUMP JUMPDEST PUSH2 0xC25 DUP2 DUP6 PUSH2 0x103C JUMP JUMPDEST SWAP4 POP PUSH2 0xC35 DUP2 DUP6 PUSH1 0x20 DUP7 ADD PUSH2 0x110B JUMP JUMPDEST PUSH2 0xC3E DUP2 PUSH2 0x12BA JUMP JUMPDEST DUP5 ADD SWAP2 POP POP SWAP3 SWAP2 POP POP JUMP JUMPDEST PUSH1 0x0 PUSH2 0xC54 DUP3 PUSH2 0x1013 JUMP JUMPDEST PUSH2 0xC5E DUP2 DUP6 PUSH2 0x104D JUMP JUMPDEST SWAP4 POP PUSH2 0xC6E DUP2 DUP6 PUSH1 0x20 DUP7 ADD PUSH2 0x110B JUMP JUMPDEST PUSH2 0xC77 DUP2 PUSH2 0x12BA JUMP JUMPDEST DUP5 ADD SWAP2 POP POP SWAP3 SWAP2 POP POP JUMP JUMPDEST PUSH1 0x0 DUP2 SLOAD PUSH2 0xC8F DUP2 PUSH2 0x113E JUMP JUMPDEST PUSH2 0xC99 DUP2 DUP7 PUSH2 0x104D JUMP JUMPDEST SWAP5 POP PUSH1 0x1 DUP3 AND PUSH1 0x0 DUP2 EQ PUSH2 0xCB4 JUMPI PUSH1 0x1 DUP2 EQ PUSH2 0xCC6 JUMPI PUSH2 0xCF9 JUMP JUMPDEST PUSH1 0xFF NOT DUP4 AND DUP7 MSTORE PUSH1 0x20 DUP7 ADD SWAP4 POP PUSH2 0xCF9 JUMP JUMPDEST PUSH2 0xCCF DUP6 PUSH2 0xFF3 JUMP JUMPDEST PUSH1 0x0 JUMPDEST DUP4 DUP2 LT ISZERO PUSH2 0xCF1 JUMPI DUP2 SLOAD DUP2 DUP10 ADD MSTORE PUSH1 0x1 DUP3 ADD SWAP2 POP PUSH1 0x20 DUP2 ADD SWAP1 POP PUSH2 0xCD2 JUMP JUMPDEST DUP1 DUP9 ADD SWAP6 POP POP POP JUMPDEST POP POP POP SWAP3 SWAP2 POP POP JUMP JUMPDEST PUSH1 0x0 PUSH2 0xD0F PUSH1 0x14 DUP4 PUSH2 0x104D JUMP JUMPDEST SWAP2 POP PUSH2 0xD1A DUP3 PUSH2 0x12CB JUMP JUMPDEST PUSH1 0x20 DUP3 ADD SWAP1 POP SWAP2 SWAP1 POP JUMP JUMPDEST PUSH1 0x0 PUSH2 0xD32 PUSH1 0x2F DUP4 PUSH2 0x104D JUMP JUMPDEST SWAP2 POP PUSH2 0xD3D DUP3 PUSH2 0x12F4 JUMP JUMPDEST PUSH1 0x40 DUP3 ADD SWAP1 POP SWAP2 SWAP1 POP JUMP JUMPDEST PUSH1 0x0 PUSH2 0xD55 PUSH1 0xE DUP4 PUSH2 0x104D JUMP JUMPDEST SWAP2 POP PUSH2 0xD60 DUP3 PUSH2 0x1343 JUMP JUMPDEST PUSH1 0x20 DUP3 ADD SWAP1 POP SWAP2 SWAP1 POP JUMP JUMPDEST PUSH1 0x0 PUSH2 0xD78 PUSH1 0x18 DUP4 PUSH2 0x104D JUMP JUMPDEST SWAP2 POP PUSH2 0xD83 DUP3 PUSH2 0x136C JUMP JUMPDEST PUSH1 0x20 DUP3 ADD SWAP1 POP SWAP2 SWAP1 POP JUMP JUMPDEST PUSH1 0x0 PUSH1 0x60 DUP4 ADD PUSH1 0x0 DUP4 ADD MLOAD DUP5 DUP3 SUB PUSH1 0x0 DUP7 ADD MSTORE PUSH2 0xDAB DUP3 DUP3 PUSH2 0xC10 JUMP JUMPDEST SWAP2 POP POP PUSH1 0x20 DUP4 ADD MLOAD DUP5 DUP3 SUB PUSH1 0x20 DUP7 ADD MSTORE PUSH2 0xDC5 DUP3 DUP3 PUSH2 0xC10 JUMP JUMPDEST SWAP2 POP POP PUSH1 0x40 DUP4 ADD MLOAD PUSH2 0xDDA PUSH1 0x40 DUP7 ADD DUP3 PUSH2 0xDE5 JUMP JUMPDEST POP DUP1 SWAP2 POP POP SWAP3 SWAP2 POP POP JUMP JUMPDEST PUSH2 0xDEE DUP2 PUSH2 0x10F2 JUMP JUMPDEST DUP3 MSTORE POP POP JUMP JUMPDEST PUSH2 0xDFD DUP2 PUSH2 0x10F2 JUMP JUMPDEST DUP3 MSTORE POP POP JUMP JUMPDEST PUSH1 0x0 PUSH1 0x20 DUP3 ADD SWAP1 POP PUSH2 0xE18 PUSH1 0x0 DUP4 ADD DUP5 PUSH2 0xB7D JUMP JUMPDEST SWAP3 SWAP2 POP POP JUMP JUMPDEST PUSH1 0x0 PUSH1 0x20 DUP3 ADD SWAP1 POP DUP2 DUP2 SUB PUSH1 0x0 DUP4 ADD MSTORE PUSH2 0xE38 DUP2 DUP5 PUSH2 0xB8C JUMP JUMPDEST SWAP1 POP SWAP3 SWAP2 POP POP JUMP JUMPDEST PUSH1 0x0 PUSH1 0x40 DUP3 ADD SWAP1 POP PUSH2 0xE55 PUSH1 0x0 DUP4 ADD DUP6 PUSH2 0xC01 JUMP JUMPDEST PUSH2 0xE62 PUSH1 0x20 DUP4 ADD DUP5 PUSH2 0xC01 JUMP JUMPDEST SWAP4 SWAP3 POP POP POP JUMP JUMPDEST PUSH1 0x0 PUSH1 0x20 DUP3 ADD SWAP1 POP DUP2 DUP2 SUB PUSH1 0x0 DUP4 ADD MSTORE PUSH2 0xE83 DUP2 DUP5 PUSH2 0xC49 JUMP JUMPDEST SWAP1 POP SWAP3 SWAP2 POP POP JUMP JUMPDEST PUSH1 0x0 PUSH1 0x60 DUP3 ADD SWAP1 POP DUP2 DUP2 SUB PUSH1 0x0 DUP4 ADD MSTORE PUSH2 0xEA5 DUP2 DUP7 PUSH2 0xC49 JUMP JUMPDEST SWAP1 POP DUP2 DUP2 SUB PUSH1 0x20 DUP4 ADD MSTORE PUSH2 0xEB9 DUP2 DUP6 PUSH2 0xC49 JUMP JUMPDEST SWAP1 POP PUSH2 0xEC8 PUSH1 0x40 DUP4 ADD DUP5 PUSH2 0xDF4 JUMP JUMPDEST SWAP5 SWAP4 POP POP POP POP JUMP JUMPDEST PUSH1 0x0 PUSH1 0x20 DUP3 ADD SWAP1 POP DUP2 DUP2 SUB PUSH1 0x0 DUP4 ADD MSTORE PUSH2 0xEEA DUP2 DUP5 PUSH2 0xC82 JUMP JUMPDEST SWAP1 POP SWAP3 SWAP2 POP POP JUMP JUMPDEST PUSH1 0x0 PUSH1 0x20 DUP3 ADD SWAP1 POP DUP2 DUP2 SUB PUSH1 0x0 DUP4 ADD MSTORE PUSH2 0xF0B DUP2 PUSH2 0xD02 JUMP JUMPDEST SWAP1 POP SWAP2 SWAP1 POP JUMP JUMPDEST PUSH1 0x0 PUSH1 0x20 DUP3 ADD SWAP1 POP DUP2 DUP2 SUB PUSH1 0x0 DUP4 ADD MSTORE PUSH2 0xF2B DUP2 PUSH2 0xD25 JUMP JUMPDEST SWAP1 POP SWAP2 SWAP1 POP JUMP JUMPDEST PUSH1 0x0 PUSH1 0x20 DUP3 ADD SWAP1 POP DUP2 DUP2 SUB PUSH1 0x0 DUP4 ADD MSTORE PUSH2 0xF4B DUP2 PUSH2 0xD48 JUMP JUMPDEST SWAP1 POP SWAP2 SWAP1 POP JUMP JUMPDEST PUSH1 0x0 PUSH1 0x20 DUP3 ADD SWAP1 POP DUP2 DUP2 SUB PUSH1 0x0 DUP4 ADD MSTORE PUSH2 0xF6B DUP2 PUSH2 0xD6B JUMP JUMPDEST SWAP1 POP SWAP2 SWAP1 POP JUMP JUMPDEST PUSH1 0x0 PUSH1 0x20 DUP3 ADD SWAP1 POP PUSH2 0xF87 PUSH1 0x0 DUP4 ADD DUP5 PUSH2 0xDF4 JUMP JUMPDEST SWAP3 SWAP2 POP POP JUMP JUMPDEST PUSH1 0x0 PUSH2 0xF97 PUSH2 0xFA8 JUMP JUMPDEST SWAP1 POP PUSH2 0xFA3 DUP3 DUP3 PUSH2 0x1170 JUMP JUMPDEST SWAP2 SWAP1 POP JUMP JUMPDEST PUSH1 0x0 PUSH1 0x40 MLOAD SWAP1 POP SWAP1 JUMP JUMPDEST PUSH1 0x0 PUSH8 0xFFFFFFFFFFFFFFFF DUP3 GT ISZERO PUSH2 0xFCD JUMPI PUSH2 0xFCC PUSH2 0x1277 JUMP JUMPDEST JUMPDEST PUSH2 0xFD6 DUP3 PUSH2 0x12BA JUMP JUMPDEST SWAP1 POP PUSH1 0x20 DUP2 ADD SWAP1 POP SWAP2 SWAP1 POP JUMP JUMPDEST PUSH1 0x0 DUP2 SWAP1 POP PUSH1 0x20 DUP3 ADD SWAP1 POP SWAP2 SWAP1 POP JUMP JUMPDEST PUSH1 0x0 DUP2 SWAP1 POP DUP2 PUSH1 0x0 MSTORE PUSH1 0x20 PUSH1 0x0 KECCAK256 SWAP1 POP SWAP2 SWAP1 POP JUMP JUMPDEST PUSH1 0x0 DUP2 MLOAD SWAP1 POP SWAP2 SWAP1 POP JUMP JUMPDEST PUSH1 0x0 DUP2 MLOAD SWAP1 POP SWAP2 SWAP1 POP JUMP JUMPDEST PUSH1 0x0 PUSH1 0x20 DUP3 ADD SWAP1 POP SWAP2 SWAP1 POP JUMP JUMPDEST PUSH1 0x0 DUP3 DUP3 MSTORE PUSH1 0x20 DUP3 ADD SWAP1 POP SWAP3 SWAP2 POP POP JUMP JUMPDEST PUSH1 0x0 DUP3 DUP3 MSTORE PUSH1 0x20 DUP3 ADD SWAP1 POP SWAP3 SWAP2 POP POP JUMP JUMPDEST PUSH1 0x0 DUP3 DUP3 MSTORE PUSH1 0x20 DUP3 ADD SWAP1 POP SWAP3 SWAP2 POP POP JUMP JUMPDEST PUSH1 0x0 PUSH2 0x1069 DUP3 PUSH2 0x10F2 JUMP JUMPDEST SWAP2 POP PUSH2 0x1074 DUP4 PUSH2 0x10F2 JUMP JUMPDEST SWAP3 POP DUP3 PUSH32 0xFFFFFFFFFFFFFFFFFFFFFFFFFFFFFFFFFFFFFFFFFFFFFFFFFFFFFFFFFFFFFFFF SUB DUP3 GT ISZERO PUSH2 0x10A9 JUMPI PUSH2 0x10A8 PUSH2 0x11EA JUMP JUMPDEST JUMPDEST DUP3 DUP3 ADD SWAP1 POP SWAP3 SWAP2 POP POP JUMP JUMPDEST PUSH1 0x0 PUSH2 0x10BF DUP3 PUSH2 0x10D2 JUMP JUMPDEST SWAP1 POP SWAP2 SWAP1 POP JUMP JUMPDEST PUSH1 0x0 DUP2 ISZERO ISZERO SWAP1 POP SWAP2 SWAP1 POP JUMP JUMPDEST PUSH1 0x0 PUSH20 0xFFFFFFFFFFFFFFFFFFFFFFFFFFFFFFFFFFFFFFFF DUP3 AND SWAP1 POP SWAP2 SWAP1 POP JUMP JUMPDEST PUSH1 0x0 DUP2 SWAP1 POP SWAP2 SWAP1 POP JUMP JUMPDEST DUP3 DUP2 DUP4 CALLDATACOPY PUSH1 0x0 DUP4 DUP4 ADD MSTORE POP POP POP JUMP JUMPDEST PUSH1 0x0 JUMPDEST DUP4 DUP2 LT ISZERO PUSH2 0x1129 JUMPI DUP1 DUP3 ADD MLOAD DUP2 DUP5 ADD MSTORE PUSH1 0x20 DUP2 ADD SWAP1 POP PUSH2 0x110E JUMP JUMPDEST DUP4 DUP2 GT ISZERO PUSH2 0x1138 JUMPI PUSH1 0x0 DUP5 DUP5 ADD MSTORE JUMPDEST POP POP POP POP JUMP JUMPDEST PUSH1 0x0 PUSH1 0x2 DUP3 DIV SWAP1 POP PUSH1 0x1 DUP3 AND DUP1 PUSH2 0x1156 JUMPI PUSH1 0x7F DUP3 AND SWAP2 POP JUMPDEST PUSH1 0x20 DUP3 LT DUP2 EQ ISZERO PUSH2 0x116A JUMPI PUSH2 0x1169 PUSH2 0x1219 JUMP JUMPDEST JUMPDEST POP SWAP2 SWAP1 POP JUMP JUMPDEST PUSH2 0x1179 DUP3 PUSH2 0x12BA JUMP JUMPDEST DUP2 ADD DUP2 DUP2 LT PUSH8 0xFFFFFFFFFFFFFFFF DUP3 GT OR ISZERO PUSH2 0x1198 JUMPI PUSH2 0x1197 PUSH2 0x1277 JUMP JUMPDEST JUMPDEST DUP1 PUSH1 0x40 MSTORE POP POP POP JUMP JUMPDEST PUSH1 0x0 PUSH2 0x11AC DUP3 PUSH2 0x10F2 JUMP JUMPDEST SWAP2 POP PUSH32 0xFFFFFFFFFFFFFFFFFFFFFFFFFFFFFFFFFFFFFFFFFFFFFFFFFFFFFFFFFFFFFFFF DUP3 EQ ISZERO PUSH2 0x11DF JUMPI PUSH2 0x11DE PUSH2 0x11EA JUMP JUMPDEST JUMPDEST PUSH1 0x1 DUP3 ADD SWAP1 POP SWAP2 SWAP1 POP JUMP JUMPDEST PUSH32 0x4E487B7100000000000000000000000000000000000000000000000000000000 PUSH1 0x0 MSTORE PUSH1 0x11 PUSH1 0x4 MSTORE PUSH1 0x24 PUSH1 0x0 REVERT JUMPDEST PUSH32 0x4E487B7100000000000000000000000000000000000000000000000000000000 PUSH1 0x0 MSTORE PUSH1 0x22 PUSH1 0x4 MSTORE PUSH1 0x24 PUSH1 0x0 REVERT JUMPDEST PUSH32 0x4E487B7100000000000000000000000000000000000000000000000000000000 PUSH1 0x0 MSTORE PUSH1 0x32 PUSH1 0x4 MSTORE PUSH1 0x24 PUSH1 0x0 REVERT JUMPDEST PUSH32 0x4E487B7100000000000000000000000000000000000000000000000000000000 PUSH1 0x0 MSTORE PUSH1 0x41 PUSH1 0x4 MSTORE PUSH1 0x24 PUSH1 0x0 REVERT JUMPDEST PUSH1 0x0 DUP1 REVERT JUMPDEST PUSH1 0x0 DUP1 REVERT JUMPDEST PUSH1 0x0 DUP1 REVERT JUMPDEST PUSH1 0x0 DUP1 REVERT JUMPDEST PUSH1 0x0 PUSH1 0x1F NOT PUSH1 0x1F DUP4 ADD AND SWAP1 POP SWAP2 SWAP1 POP JUMP JUMPDEST PUSH32 0x486173206E6F20726967687420746F20766F7465000000000000000000000000 PUSH1 0x0 DUP3 ADD MSTORE POP JUMP JUMPDEST PUSH32 0x4F6E6C792074686520636F6E7472616374206F776E65722063616E2067697665 PUSH1 0x0 DUP3 ADD MSTORE PUSH32 0x20726967687420746F20766F74652E0000000000000000000000000000000000 PUSH1 0x20 DUP3 ADD MSTORE POP JUMP JUMPDEST PUSH32 0x416C726561647920766F7465642E000000000000000000000000000000000000 PUSH1 0x0 DUP3 ADD MSTORE POP JUMP JUMPDEST PUSH32 0x54686520766F74657220616C726561647920766F7465642E0000000000000000 PUSH1 0x0 DUP3 ADD MSTORE POP JUMP JUMPDEST PUSH2 0x139E DUP2 PUSH2 0x10B4 JUMP JUMPDEST DUP2 EQ PUSH2 0x13A9 JUMPI PUSH1 0x0 DUP1 REVERT JUMPDEST POP JUMP JUMPDEST PUSH2 0x13B5 DUP2 PUSH2 0x10F2 JUMP JUMPDEST DUP2 EQ PUSH2 0x13C0 JUMPI PUSH1 0x0 DUP1 REVERT JUMPDEST POP JUMP INVALID LOG2 PUSH5 0x6970667358 0x22 SLT KECCAK256 SWAP10 DUP8 EXTCODESIZE DUP5 PUSH31 0xF4DF4AB974080693916DC1202836EE9DFB1779D1CE295D511668CD64736F6C PUSH4 0x43000807 STOP CALLER "
				},
				"gasEstimates": {
					"creation": {
						"codeDepositCost": "1022600",
						"executionCost": "infinite",
						"totalCost": "infinite"
					},
					"external": {
						"calculateAmountOfTotalVotes()": "infinite",
						"candidates(uint256)": "infinite",
						"contractOwner()": "2555",
						"getCandidatesList()": "infinite",
						"getContractAddress()": "430",
						"getWinnerName()": "infinite",
						"getWinningCandidate()": "infinite",
						"giveRightToVote(address)": "29287",
						"vote(string)": "infinite",
						"voters(address)": "infinite"
					}
				},
				"methodIdentifiers": {
					"calculateAmountOfTotalVotes()": "01c5556a",
					"candidates(uint256)": "3477ee2e",
					"contractOwner()": "ce606ee0",
					"getCandidatesList()": "4aba5f34",
					"getContractAddress()": "32a2c5d0",
					"getWinnerName()": "2bfda515",
					"getWinningCandidate()": "f927cc29",
					"giveRightToVote(address)": "9e7b8d61",
					"vote(string)": "fc36e15b",
					"voters(address)": "a3ec138d"
				}
			},
			"storageLayout": {
				"storage": [
					{
						"astId": 15,
						"contract": "contracts/Ballot/MyBallot.sol:MyBallot",
						"label": "contractOwner",
						"offset": 0,
						"slot": "0",
						"type": "t_address"
					},
					{
						"astId": 20,
						"contract": "contracts/Ballot/MyBallot.sol:MyBallot",
						"label": "voters",
						"offset": 0,
						"slot": "1",
						"type": "t_mapping(t_address,t_struct(Voter)6_storage)"
					},
					{
						"astId": 24,
						"contract": "contracts/Ballot/MyBallot.sol:MyBallot",
						"label": "candidates",
						"offset": 0,
						"slot": "2",
						"type": "t_array(t_struct(Candidate)13_storage)dyn_storage"
					}
				],
				"types": {
					"t_address": {
						"encoding": "inplace",
						"label": "address",
						"numberOfBytes": "20"
					},
					"t_array(t_struct(Candidate)13_storage)dyn_storage": {
						"base": "t_struct(Candidate)13_storage",
						"encoding": "dynamic_array",
						"label": "struct MyBallot.Candidate[]",
						"numberOfBytes": "32"
					},
					"t_bool": {
						"encoding": "inplace",
						"label": "bool",
						"numberOfBytes": "1"
					},
					"t_mapping(t_address,t_struct(Voter)6_storage)": {
						"encoding": "mapping",
						"key": "t_address",
						"label": "mapping(address => struct MyBallot.Voter)",
						"numberOfBytes": "32",
						"value": "t_struct(Voter)6_storage"
					},
					"t_string_storage": {
						"encoding": "bytes",
						"label": "string",
						"numberOfBytes": "32"
					},
					"t_struct(Candidate)13_storage": {
						"encoding": "inplace",
						"label": "struct MyBallot.Candidate",
						"members": [
							{
								"astId": 8,
								"contract": "contracts/Ballot/MyBallot.sol:MyBallot",
								"label": "name",
								"offset": 0,
								"slot": "0",
								"type": "t_string_storage"
							},
							{
								"astId": 10,
								"contract": "contracts/Ballot/MyBallot.sol:MyBallot",
								"label": "party",
								"offset": 0,
								"slot": "1",
								"type": "t_string_storage"
							},
							{
								"astId": 12,
								"contract": "contracts/Ballot/MyBallot.sol:MyBallot",
								"label": "votesCount",
								"offset": 0,
								"slot": "2",
								"type": "t_uint256"
							}
						],
						"numberOfBytes": "96"
					},
					"t_struct(Voter)6_storage": {
						"encoding": "inplace",
						"label": "struct MyBallot.Voter",
						"members": [
							{
								"astId": 3,
								"contract": "contracts/Ballot/MyBallot.sol:MyBallot",
								"label": "canVote",
								"offset": 0,
								"slot": "0",
								"type": "t_bool"
							},
							{
								"astId": 5,
								"contract": "contracts/Ballot/MyBallot.sol:MyBallot",
								"label": "hasVoted",
								"offset": 1,
								"slot": "0",
								"type": "t_bool"
							}
						],
						"numberOfBytes": "32"
					},
					"t_uint256": {
						"encoding": "inplace",
						"label": "uint256",
						"numberOfBytes": "32"
					}
				}
			},
			"userdoc": {
				"kind": "user",
				"methods": {},
				"version": 1
			}
		}
	}
}