{
	"contracts/Ballot/MyBallot.sol": {
		"MyBallot": {
			"abi": [
				{
					"inputs": [
						{
							"internalType": "string[]",
							"name": "proposalCandidatesName",
							"type": "string[]"
						},
						{
							"internalType": "string[]",
							"name": "proposalCandidatesParty",
							"type": "string[]"
						}
					],
					"stateMutability": "nonpayable",
					"type": "constructor"
				},
				{
					"inputs": [],
					"name": "calculateAmountOfTotalVotes",
					"outputs": [
						{
							"internalType": "uint256",
							"name": "total",
							"type": "uint256"
						}
					],
					"stateMutability": "view",
					"type": "function"
				},
				{
					"inputs": [
						{
							"internalType": "uint256",
							"name": "",
							"type": "uint256"
						}
					],
					"name": "candidates",
					"outputs": [
						{
							"internalType": "string",
							"name": "name",
							"type": "string"
						},
						{
							"internalType": "string",
							"name": "party",
							"type": "string"
						},
						{
							"internalType": "uint256",
							"name": "votesCount",
							"type": "uint256"
						}
					],
					"stateMutability": "view",
					"type": "function"
				},
				{
					"inputs": [],
					"name": "contractOwner",
					"outputs": [
						{
							"internalType": "address",
							"name": "",
							"type": "address"
						}
					],
					"stateMutability": "view",
					"type": "function"
				},
				{
					"inputs": [],
					"name": "getCandidatesList",
					"outputs": [
						{
							"components": [
								{
									"internalType": "string",
									"name": "name",
									"type": "string"
								},
								{
									"internalType": "string",
									"name": "party",
									"type": "string"
								},
								{
									"internalType": "uint256",
									"name": "votesCount",
									"type": "uint256"
								}
							],
							"internalType": "struct MyBallot.Candidate[]",
							"name": "",
							"type": "tuple[]"
						}
					],
					"stateMutability": "view",
					"type": "function"
				},
				{
					"inputs": [],
					"name": "getContractAddress",
					"outputs": [
						{
							"internalType": "address",
							"name": "",
							"type": "address"
						}
					],
					"stateMutability": "view",
					"type": "function"
				},
				{
					"inputs": [],
					"name": "getWinnerName",
					"outputs": [
						{
							"internalType": "string",
							"name": "winnerName",
							"type": "string"
						}
					],
					"stateMutability": "view",
					"type": "function"
				},
				{
					"inputs": [],
					"name": "getWinningCandidate",
					"outputs": [
						{
							"internalType": "uint256",
							"name": "winningProposal",
							"type": "uint256"
						}
					],
					"stateMutability": "view",
					"type": "function"
				},
				{
					"inputs": [
						{
							"internalType": "address",
							"name": "voter",
							"type": "address"
						}
					],
					"name": "giveRightToVote",
					"outputs": [],
					"stateMutability": "nonpayable",
					"type": "function"
				},
				{
					"inputs": [],
					"name": "totalVotes",
					"outputs": [
						{
							"internalType": "uint256",
							"name": "",
							"type": "uint256"
						}
					],
					"stateMutability": "view",
					"type": "function"
				},
				{
					"inputs": [
						{
							"internalType": "string",
							"name": "name",
							"type": "string"
						}
					],
					"name": "vote",
					"outputs": [],
					"stateMutability": "nonpayable",
					"type": "function"
				},
				{
					"inputs": [
						{
							"internalType": "address",
							"name": "",
							"type": "address"
						}
					],
					"name": "voters",
					"outputs": [
						{
							"internalType": "bool",
							"name": "canVote",
							"type": "bool"
						},
						{
							"internalType": "bool",
							"name": "hasVoted",
							"type": "bool"
						}
					],
					"stateMutability": "view",
					"type": "function"
				}
			],
			"devdoc": {
				"kind": "dev",
				"methods": {},
				"version": 1
			},
			"evm": {
				"assembly": "    /* \"contracts/Ballot/MyBallot.sol\":132:3214  contract MyBallot {\r... */\n  mstore(0x40, 0x80)\n    /* \"contracts/Ballot/MyBallot.sol\":579:1020  constructor(string[] memory proposalCandidatesName, string[] memory proposalCandidatesParty) {\r... */\n  callvalue\n  dup1\n  iszero\n  tag_1\n  jumpi\n  0x00\n  dup1\n  revert\ntag_1:\n  pop\n  mload(0x40)\n  sub(codesize, bytecodeSize)\n  dup1\n  bytecodeSize\n  dup4\n  codecopy\n  dup2\n  dup2\n  add\n  0x40\n  mstore\n  dup2\n  add\n  swap1\n  tag_2\n  swap2\n  swap1\n  tag_3\n  jump\t// in\ntag_2:\n    /* \"contracts/Ballot/MyBallot.sol\":709:719  msg.sender */\n  caller\n    /* \"contracts/Ballot/MyBallot.sol\":693:706  contractOwner */\n  0x00\n  dup1\n    /* \"contracts/Ballot/MyBallot.sol\":693:719  contractOwner = msg.sender */\n  0x0100\n  exp\n  dup2\n  sload\n  dup2\n  0xffffffffffffffffffffffffffffffffffffffff\n  mul\n  not\n  and\n  swap1\n  dup4\n  0xffffffffffffffffffffffffffffffffffffffff\n  and\n  mul\n  or\n  swap1\n  sstore\n  pop\n    /* \"contracts/Ballot/MyBallot.sol\":737:747  uint index */\n  0x00\n    /* \"contracts/Ballot/MyBallot.sol\":732:1013  for (uint index = 0; index < proposalCandidatesName.length; index++) {\r... */\ntag_6:\n    /* \"contracts/Ballot/MyBallot.sol\":761:783  proposalCandidatesName */\n  dup3\n    /* \"contracts/Ballot/MyBallot.sol\":761:790  proposalCandidatesName.length */\n  mload\n    /* \"contracts/Ballot/MyBallot.sol\":753:758  index */\n  dup2\n    /* \"contracts/Ballot/MyBallot.sol\":753:790  index < proposalCandidatesName.length */\n  lt\n    /* \"contracts/Ballot/MyBallot.sol\":732:1013  for (uint index = 0; index < proposalCandidatesName.length; index++) {\r... */\n  iszero\n  tag_7\n  jumpi\n    /* \"contracts/Ballot/MyBallot.sol\":816:826  candidates */\n  0x02\n    /* \"contracts/Ballot/MyBallot.sol\":832:1000  Candidate({\r... */\n  mload(0x40)\n  dup1\n  0x60\n  add\n  0x40\n  mstore\n  dup1\n    /* \"contracts/Ballot/MyBallot.sol\":867:889  proposalCandidatesName */\n  dup6\n    /* \"contracts/Ballot/MyBallot.sol\":890:895  index */\n  dup5\n    /* \"contracts/Ballot/MyBallot.sol\":867:896  proposalCandidatesName[index] */\n  dup2\n  mload\n  dup2\n  lt\n  tag_9\n  jumpi\n  tag_10\n  tag_11\n  jump\t// in\ntag_10:\ntag_9:\n  0x20\n  mul\n  0x20\n  add\n  add\n  mload\n    /* \"contracts/Ballot/MyBallot.sol\":832:1000  Candidate({\r... */\n  dup2\n  mstore\n  0x20\n  add\n    /* \"contracts/Ballot/MyBallot.sol\":922:945  proposalCandidatesParty */\n  dup5\n    /* \"contracts/Ballot/MyBallot.sol\":946:951  index */\n  dup5\n    /* \"contracts/Ballot/MyBallot.sol\":922:952  proposalCandidatesParty[index] */\n  dup2\n  mload\n  dup2\n  lt\n  tag_12\n  jumpi\n  tag_13\n  tag_11\n  jump\t// in\ntag_13:\ntag_12:\n  0x20\n  mul\n  0x20\n  add\n  add\n  mload\n    /* \"contracts/Ballot/MyBallot.sol\":832:1000  Candidate({\r... */\n  dup2\n  mstore\n  0x20\n  add\n    /* \"contracts/Ballot/MyBallot.sol\":983:984  0 */\n  0x00\n    /* \"contracts/Ballot/MyBallot.sol\":832:1000  Candidate({\r... */\n  dup2\n  mstore\n  pop\n    /* \"contracts/Ballot/MyBallot.sol\":816:1001  candidates.push(Candidate({\r... */\n  swap1\n  dup1\n  0x01\n  dup2\n  sload\n  add\n  dup1\n  dup3\n  sstore\n  dup1\n  swap2\n  pop\n  pop\n  0x01\n  swap1\n  sub\n  swap1\n  0x00\n  mstore\n  keccak256(0x00, 0x20)\n  swap1\n  0x03\n  mul\n  add\n  0x00\n  swap1\n  swap2\n  swap1\n  swap2\n  swap1\n  swap2\n  pop\n  0x00\n  dup3\n  add\n  mload\n  dup2\n  0x00\n  add\n  swap1\n  dup1\n  mload\n  swap1\n  0x20\n  add\n  swap1\n  tag_15\n  swap3\n  swap2\n  swap1\n  tag_16\n  jump\t// in\ntag_15:\n  pop\n  0x20\n  dup3\n  add\n  mload\n  dup2\n  0x01\n  add\n  swap1\n  dup1\n  mload\n  swap1\n  0x20\n  add\n  swap1\n  tag_17\n  swap3\n  swap2\n  swap1\n  tag_16\n  jump\t// in\ntag_17:\n  pop\n  0x40\n  dup3\n  add\n  mload\n  dup2\n  0x02\n  add\n  sstore\n  pop\n  pop\n    /* \"contracts/Ballot/MyBallot.sol\":792:799  index++ */\n  dup1\n  dup1\n  tag_18\n  swap1\n  tag_19\n  jump\t// in\ntag_18:\n  swap2\n  pop\n  pop\n    /* \"contracts/Ballot/MyBallot.sol\":732:1013  for (uint index = 0; index < proposalCandidatesName.length; index++) {\r... */\n  jump(tag_6)\ntag_7:\n  pop\n    /* \"contracts/Ballot/MyBallot.sol\":579:1020  constructor(string[] memory proposalCandidatesName, string[] memory proposalCandidatesParty) {\r... */\n  pop\n  pop\n    /* \"contracts/Ballot/MyBallot.sol\":132:3214  contract MyBallot {\r... */\n  jump(tag_20)\ntag_16:\n  dup3\n  dup1\n  sload\n  tag_21\n  swap1\n  tag_22\n  jump\t// in\ntag_21:\n  swap1\n  0x00\n  mstore\n  keccak256(0x00, 0x20)\n  swap1\n  0x1f\n  add\n  0x20\n  swap1\n  div\n  dup2\n  add\n  swap3\n  dup3\n  tag_24\n  jumpi\n  0x00\n  dup6\n  sstore\n  jump(tag_23)\ntag_24:\n  dup3\n  0x1f\n  lt\n  tag_25\n  jumpi\n  dup1\n  mload\n  not(0xff)\n  and\n  dup4\n  dup1\n  add\n  or\n  dup6\n  sstore\n  jump(tag_23)\ntag_25:\n  dup3\n  dup1\n  add\n  0x01\n  add\n  dup6\n  sstore\n  dup3\n  iszero\n  tag_23\n  jumpi\n  swap2\n  dup3\n  add\ntag_26:\n  dup3\n  dup2\n  gt\n  iszero\n  tag_27\n  jumpi\n  dup3\n  mload\n  dup3\n  sstore\n  swap2\n  0x20\n  add\n  swap2\n  swap1\n  0x01\n  add\n  swap1\n  jump(tag_26)\ntag_27:\ntag_23:\n  pop\n  swap1\n  pop\n  tag_28\n  swap2\n  swap1\n  tag_29\n  jump\t// in\ntag_28:\n  pop\n  swap1\n  jump\t// out\ntag_29:\ntag_30:\n  dup1\n  dup3\n  gt\n  iszero\n  tag_31\n  jumpi\n  0x00\n  dup2\n  0x00\n  swap1\n  sstore\n  pop\n  0x01\n  add\n  jump(tag_30)\ntag_31:\n  pop\n  swap1\n  jump\t// out\n    /* \"#utility.yul\":23:995   */\ntag_33:\n    /* \"#utility.yul\":140:145   */\n  0x00\n    /* \"#utility.yul\":165:256   */\n  tag_35\n    /* \"#utility.yul\":181:255   */\n  tag_36\n    /* \"#utility.yul\":248:254   */\n  dup5\n    /* \"#utility.yul\":181:255   */\n  tag_37\n  jump\t// in\ntag_36:\n    /* \"#utility.yul\":165:256   */\n  tag_38\n  jump\t// in\ntag_35:\n    /* \"#utility.yul\":156:256   */\n  swap1\n  pop\n    /* \"#utility.yul\":276:281   */\n  dup1\n    /* \"#utility.yul\":305:311   */\n  dup4\n    /* \"#utility.yul\":298:303   */\n  dup3\n    /* \"#utility.yul\":291:312   */\n  mstore\n    /* \"#utility.yul\":339:343   */\n  0x20\n    /* \"#utility.yul\":332:337   */\n  dup3\n    /* \"#utility.yul\":328:344   */\n  add\n    /* \"#utility.yul\":321:344   */\n  swap1\n  pop\n    /* \"#utility.yul\":365:371   */\n  dup3\n    /* \"#utility.yul\":415:418   */\n  dup6\n    /* \"#utility.yul\":407:411   */\n  0x20\n    /* \"#utility.yul\":399:405   */\n  dup7\n    /* \"#utility.yul\":395:412   */\n  mul\n    /* \"#utility.yul\":390:393   */\n  dup3\n    /* \"#utility.yul\":386:413   */\n  add\n    /* \"#utility.yul\":383:419   */\n  gt\n    /* \"#utility.yul\":380:523   */\n  iszero\n  tag_39\n  jumpi\n    /* \"#utility.yul\":434:513   */\n  tag_40\n  tag_41\n  jump\t// in\ntag_40:\n    /* \"#utility.yul\":380:523   */\ntag_39:\n    /* \"#utility.yul\":547:548   */\n  0x00\n    /* \"#utility.yul\":532:989   */\ntag_42:\n    /* \"#utility.yul\":557:563   */\n  dup6\n    /* \"#utility.yul\":554:555   */\n  dup2\n    /* \"#utility.yul\":551:564   */\n  lt\n    /* \"#utility.yul\":532:989   */\n  iszero\n  tag_44\n  jumpi\n    /* \"#utility.yul\":632:635   */\n  dup2\n    /* \"#utility.yul\":626:636   */\n  mload\n    /* \"#utility.yul\":668:686   */\n  0xffffffffffffffff\n    /* \"#utility.yul\":655:666   */\n  dup2\n    /* \"#utility.yul\":652:687   */\n  gt\n    /* \"#utility.yul\":649:771   */\n  iszero\n  tag_45\n  jumpi\n    /* \"#utility.yul\":690:769   */\n  tag_46\n  tag_47\n  jump\t// in\ntag_46:\n    /* \"#utility.yul\":649:771   */\ntag_45:\n    /* \"#utility.yul\":814:825   */\n  dup1\n    /* \"#utility.yul\":806:812   */\n  dup7\n    /* \"#utility.yul\":802:826   */\n  add\n    /* \"#utility.yul\":852:910   */\n  tag_48\n    /* \"#utility.yul\":906:909   */\n  dup10\n    /* \"#utility.yul\":894:904   */\n  dup3\n    /* \"#utility.yul\":852:910   */\n  tag_49\n  jump\t// in\ntag_48:\n    /* \"#utility.yul\":847:850   */\n  dup6\n    /* \"#utility.yul\":840:911   */\n  mstore\n    /* \"#utility.yul\":940:944   */\n  0x20\n    /* \"#utility.yul\":935:938   */\n  dup6\n    /* \"#utility.yul\":931:945   */\n  add\n    /* \"#utility.yul\":924:945   */\n  swap5\n  pop\n    /* \"#utility.yul\":974:978   */\n  0x20\n    /* \"#utility.yul\":969:972   */\n  dup5\n    /* \"#utility.yul\":965:979   */\n  add\n    /* \"#utility.yul\":958:979   */\n  swap4\n  pop\n    /* \"#utility.yul\":592:989   */\n  pop\n  pop\n    /* \"#utility.yul\":579:580   */\n  0x01\n    /* \"#utility.yul\":576:577   */\n  dup2\n    /* \"#utility.yul\":572:581   */\n  add\n    /* \"#utility.yul\":567:581   */\n  swap1\n  pop\n    /* \"#utility.yul\":532:989   */\n  jump(tag_42)\ntag_44:\n    /* \"#utility.yul\":536:550   */\n  pop\n    /* \"#utility.yul\":146:995   */\n  pop\n  pop\n    /* \"#utility.yul\":23:995   */\n  swap4\n  swap3\n  pop\n  pop\n  pop\n  jump\t// out\n    /* \"#utility.yul\":1001:1422   */\ntag_50:\n    /* \"#utility.yul\":1090:1095   */\n  0x00\n    /* \"#utility.yul\":1115:1181   */\n  tag_52\n    /* \"#utility.yul\":1131:1180   */\n  tag_53\n    /* \"#utility.yul\":1173:1179   */\n  dup5\n    /* \"#utility.yul\":1131:1180   */\n  tag_54\n  jump\t// in\ntag_53:\n    /* \"#utility.yul\":1115:1181   */\n  tag_38\n  jump\t// in\ntag_52:\n    /* \"#utility.yul\":1106:1181   */\n  swap1\n  pop\n    /* \"#utility.yul\":1204:1210   */\n  dup3\n    /* \"#utility.yul\":1197:1202   */\n  dup2\n    /* \"#utility.yul\":1190:1211   */\n  mstore\n    /* \"#utility.yul\":1242:1246   */\n  0x20\n    /* \"#utility.yul\":1235:1240   */\n  dup2\n    /* \"#utility.yul\":1231:1247   */\n  add\n    /* \"#utility.yul\":1280:1283   */\n  dup5\n    /* \"#utility.yul\":1271:1277   */\n  dup5\n    /* \"#utility.yul\":1266:1269   */\n  dup5\n    /* \"#utility.yul\":1262:1278   */\n  add\n    /* \"#utility.yul\":1259:1284   */\n  gt\n    /* \"#utility.yul\":1256:1368   */\n  iszero\n  tag_55\n  jumpi\n    /* \"#utility.yul\":1287:1366   */\n  tag_56\n  tag_57\n  jump\t// in\ntag_56:\n    /* \"#utility.yul\":1256:1368   */\ntag_55:\n    /* \"#utility.yul\":1377:1416   */\n  tag_58\n    /* \"#utility.yul\":1409:1415   */\n  dup5\n    /* \"#utility.yul\":1404:1407   */\n  dup3\n    /* \"#utility.yul\":1399:1402   */\n  dup6\n    /* \"#utility.yul\":1377:1416   */\n  tag_59\n  jump\t// in\ntag_58:\n    /* \"#utility.yul\":1096:1422   */\n  pop\n    /* \"#utility.yul\":1001:1422   */\n  swap4\n  swap3\n  pop\n  pop\n  pop\n  jump\t// out\n    /* \"#utility.yul\":1444:1849   */\ntag_60:\n    /* \"#utility.yul\":1536:1541   */\n  0x00\n    /* \"#utility.yul\":1585:1588   */\n  dup3\n    /* \"#utility.yul\":1578:1582   */\n  0x1f\n    /* \"#utility.yul\":1570:1576   */\n  dup4\n    /* \"#utility.yul\":1566:1583   */\n  add\n    /* \"#utility.yul\":1562:1589   */\n  slt\n    /* \"#utility.yul\":1552:1674   */\n  tag_62\n  jumpi\n    /* \"#utility.yul\":1593:1672   */\n  tag_63\n  tag_47\n  jump\t// in\ntag_63:\n    /* \"#utility.yul\":1552:1674   */\ntag_62:\n    /* \"#utility.yul\":1703:1709   */\n  dup2\n    /* \"#utility.yul\":1697:1710   */\n  mload\n    /* \"#utility.yul\":1728:1843   */\n  tag_64\n    /* \"#utility.yul\":1839:1842   */\n  dup5\n    /* \"#utility.yul\":1831:1837   */\n  dup3\n    /* \"#utility.yul\":1824:1828   */\n  0x20\n    /* \"#utility.yul\":1816:1822   */\n  dup7\n    /* \"#utility.yul\":1812:1829   */\n  add\n    /* \"#utility.yul\":1728:1843   */\n  tag_33\n  jump\t// in\ntag_64:\n    /* \"#utility.yul\":1719:1843   */\n  swap2\n  pop\n    /* \"#utility.yul\":1542:1849   */\n  pop\n    /* \"#utility.yul\":1444:1849   */\n  swap3\n  swap2\n  pop\n  pop\n  jump\t// out\n    /* \"#utility.yul\":1869:2224   */\ntag_49:\n    /* \"#utility.yul\":1936:1941   */\n  0x00\n    /* \"#utility.yul\":1985:1988   */\n  dup3\n    /* \"#utility.yul\":1978:1982   */\n  0x1f\n    /* \"#utility.yul\":1970:1976   */\n  dup4\n    /* \"#utility.yul\":1966:1983   */\n  add\n    /* \"#utility.yul\":1962:1989   */\n  slt\n    /* \"#utility.yul\":1952:2074   */\n  tag_66\n  jumpi\n    /* \"#utility.yul\":1993:2072   */\n  tag_67\n  tag_47\n  jump\t// in\ntag_67:\n    /* \"#utility.yul\":1952:2074   */\ntag_66:\n    /* \"#utility.yul\":2103:2109   */\n  dup2\n    /* \"#utility.yul\":2097:2110   */\n  mload\n    /* \"#utility.yul\":2128:2218   */\n  tag_68\n    /* \"#utility.yul\":2214:2217   */\n  dup5\n    /* \"#utility.yul\":2206:2212   */\n  dup3\n    /* \"#utility.yul\":2199:2203   */\n  0x20\n    /* \"#utility.yul\":2191:2197   */\n  dup7\n    /* \"#utility.yul\":2187:2204   */\n  add\n    /* \"#utility.yul\":2128:2218   */\n  tag_50\n  jump\t// in\ntag_68:\n    /* \"#utility.yul\":2119:2218   */\n  swap2\n  pop\n    /* \"#utility.yul\":1942:2224   */\n  pop\n    /* \"#utility.yul\":1869:2224   */\n  swap3\n  swap2\n  pop\n  pop\n  jump\t// out\n    /* \"#utility.yul\":2230:3183   */\ntag_3:\n    /* \"#utility.yul\":2379:2385   */\n  0x00\n    /* \"#utility.yul\":2387:2393   */\n  dup1\n    /* \"#utility.yul\":2436:2438   */\n  0x40\n    /* \"#utility.yul\":2424:2433   */\n  dup4\n    /* \"#utility.yul\":2415:2422   */\n  dup6\n    /* \"#utility.yul\":2411:2434   */\n  sub\n    /* \"#utility.yul\":2407:2439   */\n  slt\n    /* \"#utility.yul\":2404:2523   */\n  iszero\n  tag_70\n  jumpi\n    /* \"#utility.yul\":2442:2521   */\n  tag_71\n  tag_72\n  jump\t// in\ntag_71:\n    /* \"#utility.yul\":2404:2523   */\ntag_70:\n    /* \"#utility.yul\":2583:2584   */\n  0x00\n    /* \"#utility.yul\":2572:2581   */\n  dup4\n    /* \"#utility.yul\":2568:2585   */\n  add\n    /* \"#utility.yul\":2562:2586   */\n  mload\n    /* \"#utility.yul\":2613:2631   */\n  0xffffffffffffffff\n    /* \"#utility.yul\":2605:2611   */\n  dup2\n    /* \"#utility.yul\":2602:2632   */\n  gt\n    /* \"#utility.yul\":2599:2716   */\n  iszero\n  tag_73\n  jumpi\n    /* \"#utility.yul\":2635:2714   */\n  tag_74\n  tag_75\n  jump\t// in\ntag_74:\n    /* \"#utility.yul\":2599:2716   */\ntag_73:\n    /* \"#utility.yul\":2740:2839   */\n  tag_76\n    /* \"#utility.yul\":2831:2838   */\n  dup6\n    /* \"#utility.yul\":2822:2828   */\n  dup3\n    /* \"#utility.yul\":2811:2820   */\n  dup7\n    /* \"#utility.yul\":2807:2829   */\n  add\n    /* \"#utility.yul\":2740:2839   */\n  tag_60\n  jump\t// in\ntag_76:\n    /* \"#utility.yul\":2730:2839   */\n  swap3\n  pop\n    /* \"#utility.yul\":2533:2849   */\n  pop\n    /* \"#utility.yul\":2909:2911   */\n  0x20\n    /* \"#utility.yul\":2898:2907   */\n  dup4\n    /* \"#utility.yul\":2894:2912   */\n  add\n    /* \"#utility.yul\":2888:2913   */\n  mload\n    /* \"#utility.yul\":2940:2958   */\n  0xffffffffffffffff\n    /* \"#utility.yul\":2932:2938   */\n  dup2\n    /* \"#utility.yul\":2929:2959   */\n  gt\n    /* \"#utility.yul\":2926:3043   */\n  iszero\n  tag_77\n  jumpi\n    /* \"#utility.yul\":2962:3041   */\n  tag_78\n  tag_75\n  jump\t// in\ntag_78:\n    /* \"#utility.yul\":2926:3043   */\ntag_77:\n    /* \"#utility.yul\":3067:3166   */\n  tag_79\n    /* \"#utility.yul\":3158:3165   */\n  dup6\n    /* \"#utility.yul\":3149:3155   */\n  dup3\n    /* \"#utility.yul\":3138:3147   */\n  dup7\n    /* \"#utility.yul\":3134:3156   */\n  add\n    /* \"#utility.yul\":3067:3166   */\n  tag_60\n  jump\t// in\ntag_79:\n    /* \"#utility.yul\":3057:3166   */\n  swap2\n  pop\n    /* \"#utility.yul\":2859:3176   */\n  pop\n    /* \"#utility.yul\":2230:3183   */\n  swap3\n  pop\n  swap3\n  swap1\n  pop\n  jump\t// out\n    /* \"#utility.yul\":3189:3318   */\ntag_38:\n    /* \"#utility.yul\":3223:3229   */\n  0x00\n    /* \"#utility.yul\":3250:3270   */\n  tag_81\n  tag_82\n  jump\t// in\ntag_81:\n    /* \"#utility.yul\":3240:3270   */\n  swap1\n  pop\n    /* \"#utility.yul\":3279:3312   */\n  tag_83\n    /* \"#utility.yul\":3307:3311   */\n  dup3\n    /* \"#utility.yul\":3299:3305   */\n  dup3\n    /* \"#utility.yul\":3279:3312   */\n  tag_84\n  jump\t// in\ntag_83:\n    /* \"#utility.yul\":3189:3318   */\n  swap2\n  swap1\n  pop\n  jump\t// out\n    /* \"#utility.yul\":3324:3399   */\ntag_82:\n    /* \"#utility.yul\":3357:3363   */\n  0x00\n    /* \"#utility.yul\":3390:3392   */\n  0x40\n    /* \"#utility.yul\":3384:3393   */\n  mload\n    /* \"#utility.yul\":3374:3393   */\n  swap1\n  pop\n    /* \"#utility.yul\":3324:3399   */\n  swap1\n  jump\t// out\n    /* \"#utility.yul\":3405:3726   */\ntag_37:\n    /* \"#utility.yul\":3492:3496   */\n  0x00\n    /* \"#utility.yul\":3582:3600   */\n  0xffffffffffffffff\n    /* \"#utility.yul\":3574:3580   */\n  dup3\n    /* \"#utility.yul\":3571:3601   */\n  gt\n    /* \"#utility.yul\":3568:3624   */\n  iszero\n  tag_87\n  jumpi\n    /* \"#utility.yul\":3604:3622   */\n  tag_88\n  tag_89\n  jump\t// in\ntag_88:\n    /* \"#utility.yul\":3568:3624   */\ntag_87:\n    /* \"#utility.yul\":3654:3658   */\n  0x20\n    /* \"#utility.yul\":3646:3652   */\n  dup3\n    /* \"#utility.yul\":3642:3659   */\n  mul\n    /* \"#utility.yul\":3634:3659   */\n  swap1\n  pop\n    /* \"#utility.yul\":3714:3718   */\n  0x20\n    /* \"#utility.yul\":3708:3712   */\n  dup2\n    /* \"#utility.yul\":3704:3719   */\n  add\n    /* \"#utility.yul\":3696:3719   */\n  swap1\n  pop\n    /* \"#utility.yul\":3405:3726   */\n  swap2\n  swap1\n  pop\n  jump\t// out\n    /* \"#utility.yul\":3732:4040   */\ntag_54:\n    /* \"#utility.yul\":3794:3798   */\n  0x00\n    /* \"#utility.yul\":3884:3902   */\n  0xffffffffffffffff\n    /* \"#utility.yul\":3876:3882   */\n  dup3\n    /* \"#utility.yul\":3873:3903   */\n  gt\n    /* \"#utility.yul\":3870:3926   */\n  iszero\n  tag_91\n  jumpi\n    /* \"#utility.yul\":3906:3924   */\n  tag_92\n  tag_89\n  jump\t// in\ntag_92:\n    /* \"#utility.yul\":3870:3926   */\ntag_91:\n    /* \"#utility.yul\":3944:3973   */\n  tag_93\n    /* \"#utility.yul\":3966:3972   */\n  dup3\n    /* \"#utility.yul\":3944:3973   */\n  tag_94\n  jump\t// in\ntag_93:\n    /* \"#utility.yul\":3936:3973   */\n  swap1\n  pop\n    /* \"#utility.yul\":4028:4032   */\n  0x20\n    /* \"#utility.yul\":4022:4026   */\n  dup2\n    /* \"#utility.yul\":4018:4033   */\n  add\n    /* \"#utility.yul\":4010:4033   */\n  swap1\n  pop\n    /* \"#utility.yul\":3732:4040   */\n  swap2\n  swap1\n  pop\n  jump\t// out\n    /* \"#utility.yul\":4046:4123   */\ntag_95:\n    /* \"#utility.yul\":4083:4090   */\n  0x00\n    /* \"#utility.yul\":4112:4117   */\n  dup2\n    /* \"#utility.yul\":4101:4117   */\n  swap1\n  pop\n    /* \"#utility.yul\":4046:4123   */\n  swap2\n  swap1\n  pop\n  jump\t// out\n    /* \"#utility.yul\":4129:4436   */\ntag_59:\n    /* \"#utility.yul\":4197:4198   */\n  0x00\n    /* \"#utility.yul\":4207:4320   */\ntag_98:\n    /* \"#utility.yul\":4221:4227   */\n  dup4\n    /* \"#utility.yul\":4218:4219   */\n  dup2\n    /* \"#utility.yul\":4215:4228   */\n  lt\n    /* \"#utility.yul\":4207:4320   */\n  iszero\n  tag_100\n  jumpi\n    /* \"#utility.yul\":4306:4307   */\n  dup1\n    /* \"#utility.yul\":4301:4304   */\n  dup3\n    /* \"#utility.yul\":4297:4308   */\n  add\n    /* \"#utility.yul\":4291:4309   */\n  mload\n    /* \"#utility.yul\":4287:4288   */\n  dup2\n    /* \"#utility.yul\":4282:4285   */\n  dup5\n    /* \"#utility.yul\":4278:4289   */\n  add\n    /* \"#utility.yul\":4271:4310   */\n  mstore\n    /* \"#utility.yul\":4243:4245   */\n  0x20\n    /* \"#utility.yul\":4240:4241   */\n  dup2\n    /* \"#utility.yul\":4236:4246   */\n  add\n    /* \"#utility.yul\":4231:4246   */\n  swap1\n  pop\n    /* \"#utility.yul\":4207:4320   */\n  jump(tag_98)\ntag_100:\n    /* \"#utility.yul\":4338:4344   */\n  dup4\n    /* \"#utility.yul\":4335:4336   */\n  dup2\n    /* \"#utility.yul\":4332:4345   */\n  gt\n    /* \"#utility.yul\":4329:4430   */\n  iszero\n  tag_101\n  jumpi\n    /* \"#utility.yul\":4418:4419   */\n  0x00\n    /* \"#utility.yul\":4409:4415   */\n  dup5\n    /* \"#utility.yul\":4404:4407   */\n  dup5\n    /* \"#utility.yul\":4400:4416   */\n  add\n    /* \"#utility.yul\":4393:4420   */\n  mstore\n    /* \"#utility.yul\":4329:4430   */\ntag_101:\n    /* \"#utility.yul\":4178:4436   */\n  pop\n    /* \"#utility.yul\":4129:4436   */\n  pop\n  pop\n  pop\n  jump\t// out\n    /* \"#utility.yul\":4442:4762   */\ntag_22:\n    /* \"#utility.yul\":4486:4492   */\n  0x00\n    /* \"#utility.yul\":4523:4524   */\n  0x02\n    /* \"#utility.yul\":4517:4521   */\n  dup3\n    /* \"#utility.yul\":4513:4525   */\n  div\n    /* \"#utility.yul\":4503:4525   */\n  swap1\n  pop\n    /* \"#utility.yul\":4570:4571   */\n  0x01\n    /* \"#utility.yul\":4564:4568   */\n  dup3\n    /* \"#utility.yul\":4560:4572   */\n  and\n    /* \"#utility.yul\":4591:4609   */\n  dup1\n    /* \"#utility.yul\":4581:4662   */\n  tag_103\n  jumpi\n    /* \"#utility.yul\":4647:4651   */\n  0x7f\n    /* \"#utility.yul\":4639:4645   */\n  dup3\n    /* \"#utility.yul\":4635:4652   */\n  and\n    /* \"#utility.yul\":4625:4652   */\n  swap2\n  pop\n    /* \"#utility.yul\":4581:4662   */\ntag_103:\n    /* \"#utility.yul\":4709:4711   */\n  0x20\n    /* \"#utility.yul\":4701:4707   */\n  dup3\n    /* \"#utility.yul\":4698:4712   */\n  lt\n    /* \"#utility.yul\":4678:4696   */\n  dup2\n    /* \"#utility.yul\":4675:4713   */\n  eq\n    /* \"#utility.yul\":4672:4756   */\n  iszero\n  tag_104\n  jumpi\n    /* \"#utility.yul\":4728:4746   */\n  tag_105\n  tag_106\n  jump\t// in\ntag_105:\n    /* \"#utility.yul\":4672:4756   */\ntag_104:\n    /* \"#utility.yul\":4493:4762   */\n  pop\n    /* \"#utility.yul\":4442:4762   */\n  swap2\n  swap1\n  pop\n  jump\t// out\n    /* \"#utility.yul\":4768:5049   */\ntag_84:\n    /* \"#utility.yul\":4851:4878   */\n  tag_108\n    /* \"#utility.yul\":4873:4877   */\n  dup3\n    /* \"#utility.yul\":4851:4878   */\n  tag_94\n  jump\t// in\ntag_108:\n    /* \"#utility.yul\":4843:4849   */\n  dup2\n    /* \"#utility.yul\":4839:4879   */\n  add\n    /* \"#utility.yul\":4981:4987   */\n  dup2\n    /* \"#utility.yul\":4969:4979   */\n  dup2\n    /* \"#utility.yul\":4966:4988   */\n  lt\n    /* \"#utility.yul\":4945:4963   */\n  0xffffffffffffffff\n    /* \"#utility.yul\":4933:4943   */\n  dup3\n    /* \"#utility.yul\":4930:4964   */\n  gt\n    /* \"#utility.yul\":4927:4989   */\n  or\n    /* \"#utility.yul\":4924:5012   */\n  iszero\n  tag_109\n  jumpi\n    /* \"#utility.yul\":4992:5010   */\n  tag_110\n  tag_89\n  jump\t// in\ntag_110:\n    /* \"#utility.yul\":4924:5012   */\ntag_109:\n    /* \"#utility.yul\":5032:5042   */\n  dup1\n    /* \"#utility.yul\":5028:5030   */\n  0x40\n    /* \"#utility.yul\":5021:5043   */\n  mstore\n    /* \"#utility.yul\":4811:5049   */\n  pop\n    /* \"#utility.yul\":4768:5049   */\n  pop\n  pop\n  jump\t// out\n    /* \"#utility.yul\":5055:5288   */\ntag_19:\n    /* \"#utility.yul\":5094:5097   */\n  0x00\n    /* \"#utility.yul\":5117:5141   */\n  tag_112\n    /* \"#utility.yul\":5135:5140   */\n  dup3\n    /* \"#utility.yul\":5117:5141   */\n  tag_95\n  jump\t// in\ntag_112:\n    /* \"#utility.yul\":5108:5141   */\n  swap2\n  pop\n    /* \"#utility.yul\":5163:5229   */\n  0xffffffffffffffffffffffffffffffffffffffffffffffffffffffffffffffff\n    /* \"#utility.yul\":5156:5161   */\n  dup3\n    /* \"#utility.yul\":5153:5230   */\n  eq\n    /* \"#utility.yul\":5150:5253   */\n  iszero\n  tag_113\n  jumpi\n    /* \"#utility.yul\":5233:5251   */\n  tag_114\n  tag_115\n  jump\t// in\ntag_114:\n    /* \"#utility.yul\":5150:5253   */\ntag_113:\n    /* \"#utility.yul\":5280:5281   */\n  0x01\n    /* \"#utility.yul\":5273:5278   */\n  dup3\n    /* \"#utility.yul\":5269:5282   */\n  add\n    /* \"#utility.yul\":5262:5282   */\n  swap1\n  pop\n    /* \"#utility.yul\":5055:5288   */\n  swap2\n  swap1\n  pop\n  jump\t// out\n    /* \"#utility.yul\":5294:5474   */\ntag_115:\n    /* \"#utility.yul\":5342:5419   */\n  0x4e487b7100000000000000000000000000000000000000000000000000000000\n    /* \"#utility.yul\":5339:5340   */\n  0x00\n    /* \"#utility.yul\":5332:5420   */\n  mstore\n    /* \"#utility.yul\":5439:5443   */\n  0x11\n    /* \"#utility.yul\":5436:5437   */\n  0x04\n    /* \"#utility.yul\":5429:5444   */\n  mstore\n    /* \"#utility.yul\":5463:5467   */\n  0x24\n    /* \"#utility.yul\":5460:5461   */\n  0x00\n    /* \"#utility.yul\":5453:5468   */\n  revert\n    /* \"#utility.yul\":5480:5660   */\ntag_106:\n    /* \"#utility.yul\":5528:5605   */\n  0x4e487b7100000000000000000000000000000000000000000000000000000000\n    /* \"#utility.yul\":5525:5526   */\n  0x00\n    /* \"#utility.yul\":5518:5606   */\n  mstore\n    /* \"#utility.yul\":5625:5629   */\n  0x22\n    /* \"#utility.yul\":5622:5623   */\n  0x04\n    /* \"#utility.yul\":5615:5630   */\n  mstore\n    /* \"#utility.yul\":5649:5653   */\n  0x24\n    /* \"#utility.yul\":5646:5647   */\n  0x00\n    /* \"#utility.yul\":5639:5654   */\n  revert\n    /* \"#utility.yul\":5666:5846   */\ntag_11:\n    /* \"#utility.yul\":5714:5791   */\n  0x4e487b7100000000000000000000000000000000000000000000000000000000\n    /* \"#utility.yul\":5711:5712   */\n  0x00\n    /* \"#utility.yul\":5704:5792   */\n  mstore\n    /* \"#utility.yul\":5811:5815   */\n  0x32\n    /* \"#utility.yul\":5808:5809   */\n  0x04\n    /* \"#utility.yul\":5801:5816   */\n  mstore\n    /* \"#utility.yul\":5835:5839   */\n  0x24\n    /* \"#utility.yul\":5832:5833   */\n  0x00\n    /* \"#utility.yul\":5825:5840   */\n  revert\n    /* \"#utility.yul\":5852:6032   */\ntag_89:\n    /* \"#utility.yul\":5900:5977   */\n  0x4e487b7100000000000000000000000000000000000000000000000000000000\n    /* \"#utility.yul\":5897:5898   */\n  0x00\n    /* \"#utility.yul\":5890:5978   */\n  mstore\n    /* \"#utility.yul\":5997:6001   */\n  0x41\n    /* \"#utility.yul\":5994:5995   */\n  0x04\n    /* \"#utility.yul\":5987:6002   */\n  mstore\n    /* \"#utility.yul\":6021:6025   */\n  0x24\n    /* \"#utility.yul\":6018:6019   */\n  0x00\n    /* \"#utility.yul\":6011:6026   */\n  revert\n    /* \"#utility.yul\":6038:6155   */\ntag_47:\n    /* \"#utility.yul\":6147:6148   */\n  0x00\n    /* \"#utility.yul\":6144:6145   */\n  dup1\n    /* \"#utility.yul\":6137:6149   */\n  revert\n    /* \"#utility.yul\":6161:6278   */\ntag_41:\n    /* \"#utility.yul\":6270:6271   */\n  0x00\n    /* \"#utility.yul\":6267:6268   */\n  dup1\n    /* \"#utility.yul\":6260:6272   */\n  revert\n    /* \"#utility.yul\":6284:6401   */\ntag_57:\n    /* \"#utility.yul\":6393:6394   */\n  0x00\n    /* \"#utility.yul\":6390:6391   */\n  dup1\n    /* \"#utility.yul\":6383:6395   */\n  revert\n    /* \"#utility.yul\":6407:6524   */\ntag_75:\n    /* \"#utility.yul\":6516:6517   */\n  0x00\n    /* \"#utility.yul\":6513:6514   */\n  dup1\n    /* \"#utility.yul\":6506:6518   */\n  revert\n    /* \"#utility.yul\":6530:6647   */\ntag_72:\n    /* \"#utility.yul\":6639:6640   */\n  0x00\n    /* \"#utility.yul\":6636:6637   */\n  dup1\n    /* \"#utility.yul\":6629:6641   */\n  revert\n    /* \"#utility.yul\":6653:6755   */\ntag_94:\n    /* \"#utility.yul\":6694:6700   */\n  0x00\n    /* \"#utility.yul\":6745:6747   */\n  0x1f\n    /* \"#utility.yul\":6741:6748   */\n  not\n    /* \"#utility.yul\":6736:6738   */\n  0x1f\n    /* \"#utility.yul\":6729:6734   */\n  dup4\n    /* \"#utility.yul\":6725:6739   */\n  add\n    /* \"#utility.yul\":6721:6749   */\n  and\n    /* \"#utility.yul\":6711:6749   */\n  swap1\n  pop\n    /* \"#utility.yul\":6653:6755   */\n  swap2\n  swap1\n  pop\n  jump\t// out\n    /* \"contracts/Ballot/MyBallot.sol\":132:3214  contract MyBallot {\r... */\ntag_20:\n  dataSize(sub_0)\n  dup1\n  dataOffset(sub_0)\n  0x00\n  codecopy\n  0x00\n  return\nstop\n\nsub_0: assembly {\n        /* \"contracts/Ballot/MyBallot.sol\":132:3214  contract MyBallot {\r... */\n      mstore(0x40, 0x80)\n      callvalue\n      dup1\n      iszero\n      tag_1\n      jumpi\n      0x00\n      dup1\n      revert\n    tag_1:\n      pop\n      jumpi(tag_2, lt(calldatasize, 0x04))\n      shr(0xe0, calldataload(0x00))\n      dup1\n      0x4aba5f34\n      gt\n      tag_14\n      jumpi\n      dup1\n      0x4aba5f34\n      eq\n      tag_8\n      jumpi\n      dup1\n      0x9e7b8d61\n      eq\n      tag_9\n      jumpi\n      dup1\n      0xa3ec138d\n      eq\n      tag_10\n      jumpi\n      dup1\n      0xce606ee0\n      eq\n      tag_11\n      jumpi\n      dup1\n      0xf927cc29\n      eq\n      tag_12\n      jumpi\n      dup1\n      0xfc36e15b\n      eq\n      tag_13\n      jumpi\n      jump(tag_2)\n    tag_14:\n      dup1\n      0x01c5556a\n      eq\n      tag_3\n      jumpi\n      dup1\n      0x0d15fd77\n      eq\n      tag_4\n      jumpi\n      dup1\n      0x2bfda515\n      eq\n      tag_5\n      jumpi\n      dup1\n      0x32a2c5d0\n      eq\n      tag_6\n      jumpi\n      dup1\n      0x3477ee2e\n      eq\n      tag_7\n      jumpi\n    tag_2:\n      0x00\n      dup1\n      revert\n        /* \"contracts/Ballot/MyBallot.sol\":2982:3211  function calculateAmountOfTotalVotes() public view returns (uint total) {\r... */\n    tag_3:\n      tag_15\n      tag_16\n      jump\t// in\n    tag_15:\n      mload(0x40)\n      tag_17\n      swap2\n      swap1\n      tag_18\n      jump\t// in\n    tag_17:\n      mload(0x40)\n      dup1\n      swap2\n      sub\n      swap1\n      return\n        /* \"contracts/Ballot/MyBallot.sol\":501:523  uint public totalVotes */\n    tag_4:\n      tag_19\n      tag_20\n      jump\t// in\n    tag_19:\n      mload(0x40)\n      tag_21\n      swap2\n      swap1\n      tag_18\n      jump\t// in\n    tag_21:\n      mload(0x40)\n      dup1\n      swap2\n      sub\n      swap1\n      return\n        /* \"contracts/Ballot/MyBallot.sol\":2611:2753  function getWinnerName() public view returns (string memory winnerName) {\r... */\n    tag_5:\n      tag_22\n      tag_23\n      jump\t// in\n    tag_22:\n      mload(0x40)\n      tag_24\n      swap2\n      swap1\n      tag_25\n      jump\t// in\n    tag_24:\n      mload(0x40)\n      dup1\n      swap2\n      sub\n      swap1\n      return\n        /* \"contracts/Ballot/MyBallot.sol\":2875:2974  function getContractAddress() public view returns (address) {\r... */\n    tag_6:\n      tag_26\n      tag_27\n      jump\t// in\n    tag_26:\n      mload(0x40)\n      tag_28\n      swap2\n      swap1\n      tag_29\n      jump\t// in\n    tag_28:\n      mload(0x40)\n      dup1\n      swap2\n      sub\n      swap1\n      return\n        /* \"contracts/Ballot/MyBallot.sol\":463:492  Candidate[] public candidates */\n    tag_7:\n      tag_30\n      0x04\n      dup1\n      calldatasize\n      sub\n      dup2\n      add\n      swap1\n      tag_31\n      swap2\n      swap1\n      tag_32\n      jump\t// in\n    tag_31:\n      tag_33\n      jump\t// in\n    tag_30:\n      mload(0x40)\n      tag_34\n      swap4\n      swap3\n      swap2\n      swap1\n      tag_35\n      jump\t// in\n    tag_34:\n      mload(0x40)\n      dup1\n      swap2\n      sub\n      swap1\n      return\n        /* \"contracts/Ballot/MyBallot.sol\":2761:2867  function getCandidatesList() public view returns (Candidate[] memory) {\r... */\n    tag_8:\n      tag_36\n      tag_37\n      jump\t// in\n    tag_36:\n      mload(0x40)\n      tag_38\n      swap2\n      swap1\n      tag_39\n      jump\t// in\n    tag_38:\n      mload(0x40)\n      dup1\n      swap2\n      sub\n      swap1\n      return\n        /* \"contracts/Ballot/MyBallot.sol\":1537:1668  function giveRightToVote(address voter) public isContractOwner() isVoterVote() {\r... */\n    tag_9:\n      tag_40\n      0x04\n      dup1\n      calldatasize\n      sub\n      dup2\n      add\n      swap1\n      tag_41\n      swap2\n      swap1\n      tag_42\n      jump\t// in\n    tag_41:\n      tag_43\n      jump\t// in\n    tag_40:\n      stop\n        /* \"contracts/Ballot/MyBallot.sol\":415:454  mapping(address => Voter) public voters */\n    tag_10:\n      tag_44\n      0x04\n      dup1\n      calldatasize\n      sub\n      dup2\n      add\n      swap1\n      tag_45\n      swap2\n      swap1\n      tag_42\n      jump\t// in\n    tag_45:\n      tag_46\n      jump\t// in\n    tag_44:\n      mload(0x40)\n      tag_47\n      swap3\n      swap2\n      swap1\n      tag_48\n      jump\t// in\n    tag_47:\n      mload(0x40)\n      dup1\n      swap2\n      sub\n      swap1\n      return\n        /* \"contracts/Ballot/MyBallot.sol\":378:406  address public contractOwner */\n    tag_11:\n      tag_49\n      tag_50\n      jump\t// in\n    tag_49:\n      mload(0x40)\n      tag_51\n      swap2\n      swap1\n      tag_29\n      jump\t// in\n    tag_51:\n      mload(0x40)\n      dup1\n      swap2\n      sub\n      swap1\n      return\n        /* \"contracts/Ballot/MyBallot.sol\":2163:2603  function getWinningCandidate() public view returns (uint winningProposal) {\r... */\n    tag_12:\n      tag_52\n      tag_53\n      jump\t// in\n    tag_52:\n      mload(0x40)\n      tag_54\n      swap2\n      swap1\n      tag_18\n      jump\t// in\n    tag_54:\n      mload(0x40)\n      dup1\n      swap2\n      sub\n      swap1\n      return\n        /* \"contracts/Ballot/MyBallot.sol\":1676:2155  function vote(string memory name) public isVoterVote() {\r... */\n    tag_13:\n      tag_55\n      0x04\n      dup1\n      calldatasize\n      sub\n      dup2\n      add\n      swap1\n      tag_56\n      swap2\n      swap1\n      tag_57\n      jump\t// in\n    tag_56:\n      tag_58\n      jump\t// in\n    tag_55:\n      stop\n        /* \"contracts/Ballot/MyBallot.sol\":2982:3211  function calculateAmountOfTotalVotes() public view returns (uint total) {\r... */\n    tag_16:\n        /* \"contracts/Ballot/MyBallot.sol\":3042:3052  uint total */\n      0x00\n        /* \"contracts/Ballot/MyBallot.sol\":3088:3098  uint index */\n      dup1\n        /* \"contracts/Ballot/MyBallot.sol\":3101:3102  0 */\n      0x00\n        /* \"contracts/Ballot/MyBallot.sol\":3088:3102  uint index = 0 */\n      swap1\n      pop\n        /* \"contracts/Ballot/MyBallot.sol\":3083:3204  for (uint index = 0; index < candidates.length; index++) {\r... */\n    tag_60:\n        /* \"contracts/Ballot/MyBallot.sol\":3112:3122  candidates */\n      0x02\n        /* \"contracts/Ballot/MyBallot.sol\":3112:3129  candidates.length */\n      dup1\n      sload\n      swap1\n      pop\n        /* \"contracts/Ballot/MyBallot.sol\":3104:3109  index */\n      dup2\n        /* \"contracts/Ballot/MyBallot.sol\":3104:3129  index < candidates.length */\n      lt\n        /* \"contracts/Ballot/MyBallot.sol\":3083:3204  for (uint index = 0; index < candidates.length; index++) {\r... */\n      iszero\n      tag_61\n      jumpi\n        /* \"contracts/Ballot/MyBallot.sol\":3164:3174  candidates */\n      0x02\n        /* \"contracts/Ballot/MyBallot.sol\":3175:3180  index */\n      dup2\n        /* \"contracts/Ballot/MyBallot.sol\":3164:3181  candidates[index] */\n      dup2\n      sload\n      dup2\n      lt\n      tag_63\n      jumpi\n      tag_64\n      tag_65\n      jump\t// in\n    tag_64:\n    tag_63:\n      swap1\n      0x00\n      mstore\n      keccak256(0x00, 0x20)\n      swap1\n      0x03\n      mul\n      add\n        /* \"contracts/Ballot/MyBallot.sol\":3164:3192  candidates[index].votesCount */\n      0x02\n      add\n      sload\n        /* \"contracts/Ballot/MyBallot.sol\":3155:3192  total += candidates[index].votesCount */\n      dup3\n      tag_67\n      swap2\n      swap1\n      tag_68\n      jump\t// in\n    tag_67:\n      swap2\n      pop\n        /* \"contracts/Ballot/MyBallot.sol\":3131:3138  index++ */\n      dup1\n      dup1\n      tag_69\n      swap1\n      tag_70\n      jump\t// in\n    tag_69:\n      swap2\n      pop\n      pop\n        /* \"contracts/Ballot/MyBallot.sol\":3083:3204  for (uint index = 0; index < candidates.length; index++) {\r... */\n      jump(tag_60)\n    tag_61:\n      pop\n        /* \"contracts/Ballot/MyBallot.sol\":2982:3211  function calculateAmountOfTotalVotes() public view returns (uint total) {\r... */\n      swap1\n      jump\t// out\n        /* \"contracts/Ballot/MyBallot.sol\":501:523  uint public totalVotes */\n    tag_20:\n      sload(0x03)\n      dup2\n      jump\t// out\n        /* \"contracts/Ballot/MyBallot.sol\":2611:2753  function getWinnerName() public view returns (string memory winnerName) {\r... */\n    tag_23:\n        /* \"contracts/Ballot/MyBallot.sol\":2657:2681  string memory winnerName */\n      0x60\n        /* \"contracts/Ballot/MyBallot.sol\":2707:2717  candidates */\n      0x02\n        /* \"contracts/Ballot/MyBallot.sol\":2718:2739  getWinningCandidate() */\n      tag_72\n        /* \"contracts/Ballot/MyBallot.sol\":2718:2737  getWinningCandidate */\n      tag_53\n        /* \"contracts/Ballot/MyBallot.sol\":2718:2739  getWinningCandidate() */\n      jump\t// in\n    tag_72:\n        /* \"contracts/Ballot/MyBallot.sol\":2707:2740  candidates[getWinningCandidate()] */\n      dup2\n      sload\n      dup2\n      lt\n      tag_73\n      jumpi\n      tag_74\n      tag_65\n      jump\t// in\n    tag_74:\n    tag_73:\n      swap1\n      0x00\n      mstore\n      keccak256(0x00, 0x20)\n      swap1\n      0x03\n      mul\n      add\n        /* \"contracts/Ballot/MyBallot.sol\":2707:2745  candidates[getWinningCandidate()].name */\n      0x00\n      add\n        /* \"contracts/Ballot/MyBallot.sol\":2694:2745  winnerName = candidates[getWinningCandidate()].name */\n      dup1\n      sload\n      tag_76\n      swap1\n      tag_77\n      jump\t// in\n    tag_76:\n      dup1\n      0x1f\n      add\n      0x20\n      dup1\n      swap2\n      div\n      mul\n      0x20\n      add\n      mload(0x40)\n      swap1\n      dup2\n      add\n      0x40\n      mstore\n      dup1\n      swap3\n      swap2\n      swap1\n      dup2\n      dup2\n      mstore\n      0x20\n      add\n      dup3\n      dup1\n      sload\n      tag_78\n      swap1\n      tag_77\n      jump\t// in\n    tag_78:\n      dup1\n      iszero\n      tag_79\n      jumpi\n      dup1\n      0x1f\n      lt\n      tag_80\n      jumpi\n      0x0100\n      dup1\n      dup4\n      sload\n      div\n      mul\n      dup4\n      mstore\n      swap2\n      0x20\n      add\n      swap2\n      jump(tag_79)\n    tag_80:\n      dup3\n      add\n      swap2\n      swap1\n      0x00\n      mstore\n      keccak256(0x00, 0x20)\n      swap1\n    tag_81:\n      dup2\n      sload\n      dup2\n      mstore\n      swap1\n      0x01\n      add\n      swap1\n      0x20\n      add\n      dup1\n      dup4\n      gt\n      tag_81\n      jumpi\n      dup3\n      swap1\n      sub\n      0x1f\n      and\n      dup3\n      add\n      swap2\n    tag_79:\n      pop\n      pop\n      pop\n      pop\n      pop\n      swap1\n      pop\n        /* \"contracts/Ballot/MyBallot.sol\":2611:2753  function getWinnerName() public view returns (string memory winnerName) {\r... */\n      swap1\n      jump\t// out\n        /* \"contracts/Ballot/MyBallot.sol\":2875:2974  function getContractAddress() public view returns (address) {\r... */\n    tag_27:\n        /* \"contracts/Ballot/MyBallot.sol\":2926:2933  address */\n      0x00\n        /* \"contracts/Ballot/MyBallot.sol\":2961:2965  this */\n      address\n        /* \"contracts/Ballot/MyBallot.sol\":2946:2966  return address(this) */\n      swap1\n      pop\n        /* \"contracts/Ballot/MyBallot.sol\":2875:2974  function getContractAddress() public view returns (address) {\r... */\n      swap1\n      jump\t// out\n        /* \"contracts/Ballot/MyBallot.sol\":463:492  Candidate[] public candidates */\n    tag_33:\n      0x02\n      dup2\n      dup2\n      sload\n      dup2\n      lt\n      tag_83\n      jumpi\n      0x00\n      dup1\n      revert\n    tag_83:\n      swap1\n      0x00\n      mstore\n      keccak256(0x00, 0x20)\n      swap1\n      0x03\n      mul\n      add\n      0x00\n      swap2\n      pop\n      swap1\n      pop\n      dup1\n      0x00\n      add\n      dup1\n      sload\n      tag_85\n      swap1\n      tag_77\n      jump\t// in\n    tag_85:\n      dup1\n      0x1f\n      add\n      0x20\n      dup1\n      swap2\n      div\n      mul\n      0x20\n      add\n      mload(0x40)\n      swap1\n      dup2\n      add\n      0x40\n      mstore\n      dup1\n      swap3\n      swap2\n      swap1\n      dup2\n      dup2\n      mstore\n      0x20\n      add\n      dup3\n      dup1\n      sload\n      tag_86\n      swap1\n      tag_77\n      jump\t// in\n    tag_86:\n      dup1\n      iszero\n      tag_87\n      jumpi\n      dup1\n      0x1f\n      lt\n      tag_88\n      jumpi\n      0x0100\n      dup1\n      dup4\n      sload\n      div\n      mul\n      dup4\n      mstore\n      swap2\n      0x20\n      add\n      swap2\n      jump(tag_87)\n    tag_88:\n      dup3\n      add\n      swap2\n      swap1\n      0x00\n      mstore\n      keccak256(0x00, 0x20)\n      swap1\n    tag_89:\n      dup2\n      sload\n      dup2\n      mstore\n      swap1\n      0x01\n      add\n      swap1\n      0x20\n      add\n      dup1\n      dup4\n      gt\n      tag_89\n      jumpi\n      dup3\n      swap1\n      sub\n      0x1f\n      and\n      dup3\n      add\n      swap2\n    tag_87:\n      pop\n      pop\n      pop\n      pop\n      pop\n      swap1\n      dup1\n      0x01\n      add\n      dup1\n      sload\n      tag_90\n      swap1\n      tag_77\n      jump\t// in\n    tag_90:\n      dup1\n      0x1f\n      add\n      0x20\n      dup1\n      swap2\n      div\n      mul\n      0x20\n      add\n      mload(0x40)\n      swap1\n      dup2\n      add\n      0x40\n      mstore\n      dup1\n      swap3\n      swap2\n      swap1\n      dup2\n      dup2\n      mstore\n      0x20\n      add\n      dup3\n      dup1\n      sload\n      tag_91\n      swap1\n      tag_77\n      jump\t// in\n    tag_91:\n      dup1\n      iszero\n      tag_92\n      jumpi\n      dup1\n      0x1f\n      lt\n      tag_93\n      jumpi\n      0x0100\n      dup1\n      dup4\n      sload\n      div\n      mul\n      dup4\n      mstore\n      swap2\n      0x20\n      add\n      swap2\n      jump(tag_92)\n    tag_93:\n      dup3\n      add\n      swap2\n      swap1\n      0x00\n      mstore\n      keccak256(0x00, 0x20)\n      swap1\n    tag_94:\n      dup2\n      sload\n      dup2\n      mstore\n      swap1\n      0x01\n      add\n      swap1\n      0x20\n      add\n      dup1\n      dup4\n      gt\n      tag_94\n      jumpi\n      dup3\n      swap1\n      sub\n      0x1f\n      and\n      dup3\n      add\n      swap2\n    tag_92:\n      pop\n      pop\n      pop\n      pop\n      pop\n      swap1\n      dup1\n      0x02\n      add\n      sload\n      swap1\n      pop\n      dup4\n      jump\t// out\n        /* \"contracts/Ballot/MyBallot.sol\":2761:2867  function getCandidatesList() public view returns (Candidate[] memory) {\r... */\n    tag_37:\n        /* \"contracts/Ballot/MyBallot.sol\":2811:2829  Candidate[] memory */\n      0x60\n        /* \"contracts/Ballot/MyBallot.sol\":2849:2859  candidates */\n      0x02\n        /* \"contracts/Ballot/MyBallot.sol\":2842:2859  return candidates */\n      dup1\n      sload\n      dup1\n      0x20\n      mul\n      0x20\n      add\n      mload(0x40)\n      swap1\n      dup2\n      add\n      0x40\n      mstore\n      dup1\n      swap3\n      swap2\n      swap1\n      dup2\n      dup2\n      mstore\n      0x20\n      add\n      0x00\n      swap1\n    tag_96:\n      dup3\n      dup3\n      lt\n      iszero\n      tag_97\n      jumpi\n      dup4\n      dup3\n      swap1\n      0x00\n      mstore\n      keccak256(0x00, 0x20)\n      swap1\n      0x03\n      mul\n      add\n      mload(0x40)\n      dup1\n      0x60\n      add\n      0x40\n      mstore\n      swap1\n      dup2\n      0x00\n      dup3\n      add\n      dup1\n      sload\n      tag_99\n      swap1\n      tag_77\n      jump\t// in\n    tag_99:\n      dup1\n      0x1f\n      add\n      0x20\n      dup1\n      swap2\n      div\n      mul\n      0x20\n      add\n      mload(0x40)\n      swap1\n      dup2\n      add\n      0x40\n      mstore\n      dup1\n      swap3\n      swap2\n      swap1\n      dup2\n      dup2\n      mstore\n      0x20\n      add\n      dup3\n      dup1\n      sload\n      tag_100\n      swap1\n      tag_77\n      jump\t// in\n    tag_100:\n      dup1\n      iszero\n      tag_101\n      jumpi\n      dup1\n      0x1f\n      lt\n      tag_102\n      jumpi\n      0x0100\n      dup1\n      dup4\n      sload\n      div\n      mul\n      dup4\n      mstore\n      swap2\n      0x20\n      add\n      swap2\n      jump(tag_101)\n    tag_102:\n      dup3\n      add\n      swap2\n      swap1\n      0x00\n      mstore\n      keccak256(0x00, 0x20)\n      swap1\n    tag_103:\n      dup2\n      sload\n      dup2\n      mstore\n      swap1\n      0x01\n      add\n      swap1\n      0x20\n      add\n      dup1\n      dup4\n      gt\n      tag_103\n      jumpi\n      dup3\n      swap1\n      sub\n      0x1f\n      and\n      dup3\n      add\n      swap2\n    tag_101:\n      pop\n      pop\n      pop\n      pop\n      pop\n      dup2\n      mstore\n      0x20\n      add\n      0x01\n      dup3\n      add\n      dup1\n      sload\n      tag_104\n      swap1\n      tag_77\n      jump\t// in\n    tag_104:\n      dup1\n      0x1f\n      add\n      0x20\n      dup1\n      swap2\n      div\n      mul\n      0x20\n      add\n      mload(0x40)\n      swap1\n      dup2\n      add\n      0x40\n      mstore\n      dup1\n      swap3\n      swap2\n      swap1\n      dup2\n      dup2\n      mstore\n      0x20\n      add\n      dup3\n      dup1\n      sload\n      tag_105\n      swap1\n      tag_77\n      jump\t// in\n    tag_105:\n      dup1\n      iszero\n      tag_106\n      jumpi\n      dup1\n      0x1f\n      lt\n      tag_107\n      jumpi\n      0x0100\n      dup1\n      dup4\n      sload\n      div\n      mul\n      dup4\n      mstore\n      swap2\n      0x20\n      add\n      swap2\n      jump(tag_106)\n    tag_107:\n      dup3\n      add\n      swap2\n      swap1\n      0x00\n      mstore\n      keccak256(0x00, 0x20)\n      swap1\n    tag_108:\n      dup2\n      sload\n      dup2\n      mstore\n      swap1\n      0x01\n      add\n      swap1\n      0x20\n      add\n      dup1\n      dup4\n      gt\n      tag_108\n      jumpi\n      dup3\n      swap1\n      sub\n      0x1f\n      and\n      dup3\n      add\n      swap2\n    tag_106:\n      pop\n      pop\n      pop\n      pop\n      pop\n      dup2\n      mstore\n      0x20\n      add\n      0x02\n      dup3\n      add\n      sload\n      dup2\n      mstore\n      pop\n      pop\n      dup2\n      mstore\n      0x20\n      add\n      swap1\n      0x01\n      add\n      swap1\n      jump(tag_96)\n    tag_97:\n      pop\n      pop\n      pop\n      pop\n      swap1\n      pop\n        /* \"contracts/Ballot/MyBallot.sol\":2761:2867  function getCandidatesList() public view returns (Candidate[] memory) {\r... */\n      swap1\n      jump\t// out\n        /* \"contracts/Ballot/MyBallot.sol\":1537:1668  function giveRightToVote(address voter) public isContractOwner() isVoterVote() {\r... */\n    tag_43:\n        /* \"contracts/Ballot/MyBallot.sol\":1122:1135  contractOwner */\n      0x00\n      dup1\n      sload\n      swap1\n      0x0100\n      exp\n      swap1\n      div\n      0xffffffffffffffffffffffffffffffffffffffff\n      and\n        /* \"contracts/Ballot/MyBallot.sol\":1108:1135  msg.sender == contractOwner */\n      0xffffffffffffffffffffffffffffffffffffffff\n      and\n        /* \"contracts/Ballot/MyBallot.sol\":1108:1118  msg.sender */\n      caller\n        /* \"contracts/Ballot/MyBallot.sol\":1108:1135  msg.sender == contractOwner */\n      0xffffffffffffffffffffffffffffffffffffffff\n      and\n      eq\n        /* \"contracts/Ballot/MyBallot.sol\":1086:1210  require(\r... */\n      tag_110\n      jumpi\n      mload(0x40)\n      0x08c379a000000000000000000000000000000000000000000000000000000000\n      dup2\n      mstore\n      0x04\n      add\n      tag_111\n      swap1\n      tag_112\n      jump\t// in\n    tag_111:\n      mload(0x40)\n      dup1\n      swap2\n      sub\n      swap1\n      revert\n    tag_110:\n        /* \"contracts/Ballot/MyBallot.sol\":1295:1301  voters */\n      0x01\n        /* \"contracts/Ballot/MyBallot.sol\":1295:1313  voters[msg.sender] */\n      0x00\n        /* \"contracts/Ballot/MyBallot.sol\":1302:1312  msg.sender */\n      caller\n        /* \"contracts/Ballot/MyBallot.sol\":1295:1313  voters[msg.sender] */\n      0xffffffffffffffffffffffffffffffffffffffff\n      and\n      0xffffffffffffffffffffffffffffffffffffffff\n      and\n      dup2\n      mstore\n      0x20\n      add\n      swap1\n      dup2\n      mstore\n      0x20\n      add\n      0x00\n      keccak256\n        /* \"contracts/Ballot/MyBallot.sol\":1295:1322  voters[msg.sender].hasVoted */\n      0x00\n      add\n      0x01\n      swap1\n      sload\n      swap1\n      0x0100\n      exp\n      swap1\n      div\n      0xff\n      and\n        /* \"contracts/Ballot/MyBallot.sol\":1294:1322  !voters[msg.sender].hasVoted */\n      iszero\n        /* \"contracts/Ballot/MyBallot.sol\":1272:1364  require(\r... */\n      tag_114\n      jumpi\n      mload(0x40)\n      0x08c379a000000000000000000000000000000000000000000000000000000000\n      dup2\n      mstore\n      0x04\n      add\n      tag_115\n      swap1\n      tag_116\n      jump\t// in\n    tag_115:\n      mload(0x40)\n      dup1\n      swap2\n      sub\n      swap1\n      revert\n    tag_114:\n        /* \"contracts/Ballot/MyBallot.sol\":1656:1660  true */\n      0x01\n        /* \"contracts/Ballot/MyBallot.sol\":1627:1633  voters */\n      dup1\n        /* \"contracts/Ballot/MyBallot.sol\":1627:1645  voters[msg.sender] */\n      0x00\n        /* \"contracts/Ballot/MyBallot.sol\":1634:1644  msg.sender */\n      caller\n        /* \"contracts/Ballot/MyBallot.sol\":1627:1645  voters[msg.sender] */\n      0xffffffffffffffffffffffffffffffffffffffff\n      and\n      0xffffffffffffffffffffffffffffffffffffffff\n      and\n      dup2\n      mstore\n      0x20\n      add\n      swap1\n      dup2\n      mstore\n      0x20\n      add\n      0x00\n      keccak256\n        /* \"contracts/Ballot/MyBallot.sol\":1627:1653  voters[msg.sender].canVote */\n      0x00\n      add\n      0x00\n        /* \"contracts/Ballot/MyBallot.sol\":1627:1660  voters[msg.sender].canVote = true */\n      0x0100\n      exp\n      dup2\n      sload\n      dup2\n      0xff\n      mul\n      not\n      and\n      swap1\n      dup4\n      iszero\n      iszero\n      mul\n      or\n      swap1\n      sstore\n      pop\n        /* \"contracts/Ballot/MyBallot.sol\":1537:1668  function giveRightToVote(address voter) public isContractOwner() isVoterVote() {\r... */\n      pop\n      jump\t// out\n        /* \"contracts/Ballot/MyBallot.sol\":415:454  mapping(address => Voter) public voters */\n    tag_46:\n      mstore(0x20, 0x01)\n      dup1\n      0x00\n      mstore\n      keccak256(0x00, 0x40)\n      0x00\n      swap2\n      pop\n      swap1\n      pop\n      dup1\n      0x00\n      add\n      0x00\n      swap1\n      sload\n      swap1\n      0x0100\n      exp\n      swap1\n      div\n      0xff\n      and\n      swap1\n      dup1\n      0x00\n      add\n      0x01\n      swap1\n      sload\n      swap1\n      0x0100\n      exp\n      swap1\n      div\n      0xff\n      and\n      swap1\n      pop\n      dup3\n      jump\t// out\n        /* \"contracts/Ballot/MyBallot.sol\":378:406  address public contractOwner */\n    tag_50:\n      0x00\n      dup1\n      sload\n      swap1\n      0x0100\n      exp\n      swap1\n      div\n      0xffffffffffffffffffffffffffffffffffffffff\n      and\n      dup2\n      jump\t// out\n        /* \"contracts/Ballot/MyBallot.sol\":2163:2603  function getWinningCandidate() public view returns (uint winningProposal) {\r... */\n    tag_53:\n        /* \"contracts/Ballot/MyBallot.sol\":2215:2235  uint winningProposal */\n      0x00\n        /* \"contracts/Ballot/MyBallot.sol\":2248:2269  uint winningVoteCount */\n      dup1\n        /* \"contracts/Ballot/MyBallot.sol\":2287:2306  uint indexCandidate */\n      0x00\n        /* \"contracts/Ballot/MyBallot.sol\":2282:2596  for (uint indexCandidate = 0; indexCandidate < candidates.length; indexCandidate++) {\r... */\n    tag_119:\n        /* \"contracts/Ballot/MyBallot.sol\":2329:2339  candidates */\n      0x02\n        /* \"contracts/Ballot/MyBallot.sol\":2329:2346  candidates.length */\n      dup1\n      sload\n      swap1\n      pop\n        /* \"contracts/Ballot/MyBallot.sol\":2312:2326  indexCandidate */\n      dup2\n        /* \"contracts/Ballot/MyBallot.sol\":2312:2346  indexCandidate < candidates.length */\n      lt\n        /* \"contracts/Ballot/MyBallot.sol\":2282:2596  for (uint indexCandidate = 0; indexCandidate < candidates.length; indexCandidate++) {\r... */\n      iszero\n      tag_120\n      jumpi\n        /* \"contracts/Ballot/MyBallot.sol\":2425:2441  winningVoteCount */\n      dup2\n        /* \"contracts/Ballot/MyBallot.sol\":2385:2395  candidates */\n      0x02\n        /* \"contracts/Ballot/MyBallot.sol\":2396:2410  indexCandidate */\n      dup3\n        /* \"contracts/Ballot/MyBallot.sol\":2385:2411  candidates[indexCandidate] */\n      dup2\n      sload\n      dup2\n      lt\n      tag_122\n      jumpi\n      tag_123\n      tag_65\n      jump\t// in\n    tag_123:\n    tag_122:\n      swap1\n      0x00\n      mstore\n      keccak256(0x00, 0x20)\n      swap1\n      0x03\n      mul\n      add\n        /* \"contracts/Ballot/MyBallot.sol\":2385:2422  candidates[indexCandidate].votesCount */\n      0x02\n      add\n      sload\n        /* \"contracts/Ballot/MyBallot.sol\":2385:2441  candidates[indexCandidate].votesCount > winningVoteCount */\n      gt\n        /* \"contracts/Ballot/MyBallot.sol\":2381:2585  if (candidates[indexCandidate].votesCount > winningVoteCount) {\r... */\n      iszero\n      tag_125\n      jumpi\n        /* \"contracts/Ballot/MyBallot.sol\":2481:2491  candidates */\n      0x02\n        /* \"contracts/Ballot/MyBallot.sol\":2492:2506  indexCandidate */\n      dup2\n        /* \"contracts/Ballot/MyBallot.sol\":2481:2507  candidates[indexCandidate] */\n      dup2\n      sload\n      dup2\n      lt\n      tag_126\n      jumpi\n      tag_127\n      tag_65\n      jump\t// in\n    tag_127:\n    tag_126:\n      swap1\n      0x00\n      mstore\n      keccak256(0x00, 0x20)\n      swap1\n      0x03\n      mul\n      add\n        /* \"contracts/Ballot/MyBallot.sol\":2481:2518  candidates[indexCandidate].votesCount */\n      0x02\n      add\n      sload\n        /* \"contracts/Ballot/MyBallot.sol\":2462:2518  winningVoteCount = candidates[indexCandidate].votesCount */\n      swap2\n      pop\n        /* \"contracts/Ballot/MyBallot.sol\":2555:2569  indexCandidate */\n      dup1\n        /* \"contracts/Ballot/MyBallot.sol\":2537:2569  winningProposal = indexCandidate */\n      swap3\n      pop\n        /* \"contracts/Ballot/MyBallot.sol\":2381:2585  if (candidates[indexCandidate].votesCount > winningVoteCount) {\r... */\n    tag_125:\n        /* \"contracts/Ballot/MyBallot.sol\":2348:2364  indexCandidate++ */\n      dup1\n      dup1\n      tag_129\n      swap1\n      tag_70\n      jump\t// in\n    tag_129:\n      swap2\n      pop\n      pop\n        /* \"contracts/Ballot/MyBallot.sol\":2282:2596  for (uint indexCandidate = 0; indexCandidate < candidates.length; indexCandidate++) {\r... */\n      jump(tag_119)\n    tag_120:\n      pop\n        /* \"contracts/Ballot/MyBallot.sol\":2237:2603  {\r... */\n      pop\n        /* \"contracts/Ballot/MyBallot.sol\":2163:2603  function getWinningCandidate() public view returns (uint winningProposal) {\r... */\n      swap1\n      jump\t// out\n        /* \"contracts/Ballot/MyBallot.sol\":1676:2155  function vote(string memory name) public isVoterVote() {\r... */\n    tag_58:\n        /* \"contracts/Ballot/MyBallot.sol\":1295:1301  voters */\n      0x01\n        /* \"contracts/Ballot/MyBallot.sol\":1295:1313  voters[msg.sender] */\n      0x00\n        /* \"contracts/Ballot/MyBallot.sol\":1302:1312  msg.sender */\n      caller\n        /* \"contracts/Ballot/MyBallot.sol\":1295:1313  voters[msg.sender] */\n      0xffffffffffffffffffffffffffffffffffffffff\n      and\n      0xffffffffffffffffffffffffffffffffffffffff\n      and\n      dup2\n      mstore\n      0x20\n      add\n      swap1\n      dup2\n      mstore\n      0x20\n      add\n      0x00\n      keccak256\n        /* \"contracts/Ballot/MyBallot.sol\":1295:1322  voters[msg.sender].hasVoted */\n      0x00\n      add\n      0x01\n      swap1\n      sload\n      swap1\n      0x0100\n      exp\n      swap1\n      div\n      0xff\n      and\n        /* \"contracts/Ballot/MyBallot.sol\":1294:1322  !voters[msg.sender].hasVoted */\n      iszero\n        /* \"contracts/Ballot/MyBallot.sol\":1272:1364  require(\r... */\n      tag_131\n      jumpi\n      mload(0x40)\n      0x08c379a000000000000000000000000000000000000000000000000000000000\n      dup2\n      mstore\n      0x04\n      add\n      tag_132\n      swap1\n      tag_116\n      jump\t// in\n    tag_132:\n      mload(0x40)\n      dup1\n      swap2\n      sub\n      swap1\n      revert\n    tag_131:\n        /* \"contracts/Ballot/MyBallot.sol\":1742:1762  Voter storage sender */\n      0x00\n        /* \"contracts/Ballot/MyBallot.sol\":1765:1771  voters */\n      0x01\n        /* \"contracts/Ballot/MyBallot.sol\":1765:1783  voters[msg.sender] */\n      0x00\n        /* \"contracts/Ballot/MyBallot.sol\":1772:1782  msg.sender */\n      caller\n        /* \"contracts/Ballot/MyBallot.sol\":1765:1783  voters[msg.sender] */\n      0xffffffffffffffffffffffffffffffffffffffff\n      and\n      0xffffffffffffffffffffffffffffffffffffffff\n      and\n      dup2\n      mstore\n      0x20\n      add\n      swap1\n      dup2\n      mstore\n      0x20\n      add\n      0x00\n      keccak256\n        /* \"contracts/Ballot/MyBallot.sol\":1742:1783  Voter storage sender = voters[msg.sender] */\n      swap1\n      pop\n        /* \"contracts/Ballot/MyBallot.sol\":1812:1818  sender */\n      dup1\n        /* \"contracts/Ballot/MyBallot.sol\":1812:1826  sender.canVote */\n      0x00\n      add\n      0x00\n      swap1\n      sload\n      swap1\n      0x0100\n      exp\n      swap1\n      div\n      0xff\n      and\n        /* \"contracts/Ballot/MyBallot.sol\":1804:1851  require(sender.canVote, \"Has no right to vote\") */\n      tag_134\n      jumpi\n      mload(0x40)\n      0x08c379a000000000000000000000000000000000000000000000000000000000\n      dup2\n      mstore\n      0x04\n      add\n      tag_135\n      swap1\n      tag_136\n      jump\t// in\n    tag_135:\n      mload(0x40)\n      dup1\n      swap2\n      sub\n      swap1\n      revert\n    tag_134:\n        /* \"contracts/Ballot/MyBallot.sol\":1869:1879  uint index */\n      0x00\n        /* \"contracts/Ballot/MyBallot.sol\":1864:2148  for (uint index = 0; index < candidates.length; index++) {\r... */\n    tag_137:\n        /* \"contracts/Ballot/MyBallot.sol\":1893:1903  candidates */\n      0x02\n        /* \"contracts/Ballot/MyBallot.sol\":1893:1910  candidates.length */\n      dup1\n      sload\n      swap1\n      pop\n        /* \"contracts/Ballot/MyBallot.sol\":1885:1890  index */\n      dup2\n        /* \"contracts/Ballot/MyBallot.sol\":1885:1910  index < candidates.length */\n      lt\n        /* \"contracts/Ballot/MyBallot.sol\":1864:2148  for (uint index = 0; index < candidates.length; index++) {\r... */\n      iszero\n      tag_138\n      jumpi\n        /* \"contracts/Ballot/MyBallot.sol\":2009:2013  name */\n      dup3\n        /* \"contracts/Ballot/MyBallot.sol\":1998:2014  abi.encode(name) */\n      add(0x20, mload(0x40))\n      tag_140\n      swap2\n      swap1\n      tag_25\n      jump\t// in\n    tag_140:\n      mload(0x40)\n      0x20\n      dup2\n      dup4\n      sub\n      sub\n      dup2\n      mstore\n      swap1\n      0x40\n      mstore\n        /* \"contracts/Ballot/MyBallot.sol\":1988:2015  keccak256(abi.encode(name)) */\n      dup1\n      mload\n      swap1\n      0x20\n      add\n      keccak256\n        /* \"contracts/Ballot/MyBallot.sol\":1960:1970  candidates */\n      0x02\n        /* \"contracts/Ballot/MyBallot.sol\":1971:1976  index */\n      dup3\n        /* \"contracts/Ballot/MyBallot.sol\":1960:1977  candidates[index] */\n      dup2\n      sload\n      dup2\n      lt\n      tag_141\n      jumpi\n      tag_142\n      tag_65\n      jump\t// in\n    tag_142:\n    tag_141:\n      swap1\n      0x00\n      mstore\n      keccak256(0x00, 0x20)\n      swap1\n      0x03\n      mul\n      add\n        /* \"contracts/Ballot/MyBallot.sol\":1960:1982  candidates[index].name */\n      0x00\n      add\n        /* \"contracts/Ballot/MyBallot.sol\":1949:1983  abi.encode(candidates[index].name) */\n      add(0x20, mload(0x40))\n      tag_144\n      swap2\n      swap1\n      tag_145\n      jump\t// in\n    tag_144:\n      mload(0x40)\n      0x20\n      dup2\n      dup4\n      sub\n      sub\n      dup2\n      mstore\n      swap1\n      0x40\n      mstore\n        /* \"contracts/Ballot/MyBallot.sol\":1939:1984  keccak256(abi.encode(candidates[index].name)) */\n      dup1\n      mload\n      swap1\n      0x20\n      add\n      keccak256\n        /* \"contracts/Ballot/MyBallot.sol\":1939:2015  keccak256(abi.encode(candidates[index].name)) == keccak256(abi.encode(name)) */\n      eq\n        /* \"contracts/Ballot/MyBallot.sol\":1936:2064  if(keccak256(abi.encode(candidates[index].name)) == keccak256(abi.encode(name)))\r... */\n      iszero\n      tag_146\n      jumpi\n        /* \"contracts/Ballot/MyBallot.sol\":2034:2044  candidates */\n      0x02\n        /* \"contracts/Ballot/MyBallot.sol\":2045:2050  index */\n      dup2\n        /* \"contracts/Ballot/MyBallot.sol\":2034:2051  candidates[index] */\n      dup2\n      sload\n      dup2\n      lt\n      tag_147\n      jumpi\n      tag_148\n      tag_65\n      jump\t// in\n    tag_148:\n    tag_147:\n      swap1\n      0x00\n      mstore\n      keccak256(0x00, 0x20)\n      swap1\n      0x03\n      mul\n      add\n        /* \"contracts/Ballot/MyBallot.sol\":2034:2062  candidates[index].votesCount */\n      0x02\n      add\n      0x00\n        /* \"contracts/Ballot/MyBallot.sol\":2034:2064  candidates[index].votesCount++ */\n      dup2\n      sload\n      dup1\n      swap3\n      swap2\n      swap1\n      tag_150\n      swap1\n      tag_70\n      jump\t// in\n    tag_150:\n      swap2\n      swap1\n      pop\n      sstore\n      pop\n        /* \"contracts/Ballot/MyBallot.sol\":1936:2064  if(keccak256(abi.encode(candidates[index].name)) == keccak256(abi.encode(name)))\r... */\n    tag_146:\n        /* \"contracts/Ballot/MyBallot.sol\":2101:2105  true */\n      0x01\n        /* \"contracts/Ballot/MyBallot.sol\":2083:2089  sender */\n      dup3\n        /* \"contracts/Ballot/MyBallot.sol\":2083:2098  sender.hasVoted */\n      0x00\n      add\n      0x01\n        /* \"contracts/Ballot/MyBallot.sol\":2083:2105  sender.hasVoted = true */\n      0x0100\n      exp\n      dup2\n      sload\n      dup2\n      0xff\n      mul\n      not\n      and\n      swap1\n      dup4\n      iszero\n      iszero\n      mul\n      or\n      swap1\n      sstore\n      pop\n        /* \"contracts/Ballot/MyBallot.sol\":2124:2134  totalVotes */\n      0x03\n      0x00\n        /* \"contracts/Ballot/MyBallot.sol\":2124:2136  totalVotes++ */\n      dup2\n      sload\n      dup1\n      swap3\n      swap2\n      swap1\n      tag_151\n      swap1\n      tag_70\n      jump\t// in\n    tag_151:\n      swap2\n      swap1\n      pop\n      sstore\n      pop\n        /* \"contracts/Ballot/MyBallot.sol\":1912:1919  index++ */\n      dup1\n      dup1\n      tag_152\n      swap1\n      tag_70\n      jump\t// in\n    tag_152:\n      swap2\n      pop\n      pop\n        /* \"contracts/Ballot/MyBallot.sol\":1864:2148  for (uint index = 0; index < candidates.length; index++) {\r... */\n      jump(tag_137)\n    tag_138:\n      pop\n        /* \"contracts/Ballot/MyBallot.sol\":1731:2155  {\r... */\n      pop\n        /* \"contracts/Ballot/MyBallot.sol\":1676:2155  function vote(string memory name) public isVoterVote() {\r... */\n      pop\n      jump\t// out\n        /* \"#utility.yul\":7:419   */\n    tag_154:\n        /* \"#utility.yul\":85:90   */\n      0x00\n        /* \"#utility.yul\":110:176   */\n      tag_156\n        /* \"#utility.yul\":126:175   */\n      tag_157\n        /* \"#utility.yul\":168:174   */\n      dup5\n        /* \"#utility.yul\":126:175   */\n      tag_158\n      jump\t// in\n    tag_157:\n        /* \"#utility.yul\":110:176   */\n      tag_159\n      jump\t// in\n    tag_156:\n        /* \"#utility.yul\":101:176   */\n      swap1\n      pop\n        /* \"#utility.yul\":199:205   */\n      dup3\n        /* \"#utility.yul\":192:197   */\n      dup2\n        /* \"#utility.yul\":185:206   */\n      mstore\n        /* \"#utility.yul\":237:241   */\n      0x20\n        /* \"#utility.yul\":230:235   */\n      dup2\n        /* \"#utility.yul\":226:242   */\n      add\n        /* \"#utility.yul\":275:278   */\n      dup5\n        /* \"#utility.yul\":266:272   */\n      dup5\n        /* \"#utility.yul\":261:264   */\n      dup5\n        /* \"#utility.yul\":257:273   */\n      add\n        /* \"#utility.yul\":254:279   */\n      gt\n        /* \"#utility.yul\":251:363   */\n      iszero\n      tag_160\n      jumpi\n        /* \"#utility.yul\":282:361   */\n      tag_161\n      tag_162\n      jump\t// in\n    tag_161:\n        /* \"#utility.yul\":251:363   */\n    tag_160:\n        /* \"#utility.yul\":372:413   */\n      tag_163\n        /* \"#utility.yul\":406:412   */\n      dup5\n        /* \"#utility.yul\":401:404   */\n      dup3\n        /* \"#utility.yul\":396:399   */\n      dup6\n        /* \"#utility.yul\":372:413   */\n      tag_164\n      jump\t// in\n    tag_163:\n        /* \"#utility.yul\":91:419   */\n      pop\n        /* \"#utility.yul\":7:419   */\n      swap4\n      swap3\n      pop\n      pop\n      pop\n      jump\t// out\n        /* \"#utility.yul\":425:564   */\n    tag_165:\n        /* \"#utility.yul\":471:476   */\n      0x00\n        /* \"#utility.yul\":509:515   */\n      dup2\n        /* \"#utility.yul\":496:516   */\n      calldataload\n        /* \"#utility.yul\":487:516   */\n      swap1\n      pop\n        /* \"#utility.yul\":525:558   */\n      tag_167\n        /* \"#utility.yul\":552:557   */\n      dup2\n        /* \"#utility.yul\":525:558   */\n      tag_168\n      jump\t// in\n    tag_167:\n        /* \"#utility.yul\":425:564   */\n      swap3\n      swap2\n      pop\n      pop\n      jump\t// out\n        /* \"#utility.yul\":584:924   */\n    tag_169:\n        /* \"#utility.yul\":640:645   */\n      0x00\n        /* \"#utility.yul\":689:692   */\n      dup3\n        /* \"#utility.yul\":682:686   */\n      0x1f\n        /* \"#utility.yul\":674:680   */\n      dup4\n        /* \"#utility.yul\":670:687   */\n      add\n        /* \"#utility.yul\":666:693   */\n      slt\n        /* \"#utility.yul\":656:778   */\n      tag_171\n      jumpi\n        /* \"#utility.yul\":697:776   */\n      tag_172\n      tag_173\n      jump\t// in\n    tag_172:\n        /* \"#utility.yul\":656:778   */\n    tag_171:\n        /* \"#utility.yul\":814:820   */\n      dup2\n        /* \"#utility.yul\":801:821   */\n      calldataload\n        /* \"#utility.yul\":839:918   */\n      tag_174\n        /* \"#utility.yul\":914:917   */\n      dup5\n        /* \"#utility.yul\":906:912   */\n      dup3\n        /* \"#utility.yul\":899:903   */\n      0x20\n        /* \"#utility.yul\":891:897   */\n      dup7\n        /* \"#utility.yul\":887:904   */\n      add\n        /* \"#utility.yul\":839:918   */\n      tag_154\n      jump\t// in\n    tag_174:\n        /* \"#utility.yul\":830:918   */\n      swap2\n      pop\n        /* \"#utility.yul\":646:924   */\n      pop\n        /* \"#utility.yul\":584:924   */\n      swap3\n      swap2\n      pop\n      pop\n      jump\t// out\n        /* \"#utility.yul\":930:1069   */\n    tag_175:\n        /* \"#utility.yul\":976:981   */\n      0x00\n        /* \"#utility.yul\":1014:1020   */\n      dup2\n        /* \"#utility.yul\":1001:1021   */\n      calldataload\n        /* \"#utility.yul\":992:1021   */\n      swap1\n      pop\n        /* \"#utility.yul\":1030:1063   */\n      tag_177\n        /* \"#utility.yul\":1057:1062   */\n      dup2\n        /* \"#utility.yul\":1030:1063   */\n      tag_178\n      jump\t// in\n    tag_177:\n        /* \"#utility.yul\":930:1069   */\n      swap3\n      swap2\n      pop\n      pop\n      jump\t// out\n        /* \"#utility.yul\":1075:1404   */\n    tag_42:\n        /* \"#utility.yul\":1134:1140   */\n      0x00\n        /* \"#utility.yul\":1183:1185   */\n      0x20\n        /* \"#utility.yul\":1171:1180   */\n      dup3\n        /* \"#utility.yul\":1162:1169   */\n      dup5\n        /* \"#utility.yul\":1158:1181   */\n      sub\n        /* \"#utility.yul\":1154:1186   */\n      slt\n        /* \"#utility.yul\":1151:1270   */\n      iszero\n      tag_180\n      jumpi\n        /* \"#utility.yul\":1189:1268   */\n      tag_181\n      tag_182\n      jump\t// in\n    tag_181:\n        /* \"#utility.yul\":1151:1270   */\n    tag_180:\n        /* \"#utility.yul\":1309:1310   */\n      0x00\n        /* \"#utility.yul\":1334:1387   */\n      tag_183\n        /* \"#utility.yul\":1379:1386   */\n      dup5\n        /* \"#utility.yul\":1370:1376   */\n      dup3\n        /* \"#utility.yul\":1359:1368   */\n      dup6\n        /* \"#utility.yul\":1355:1377   */\n      add\n        /* \"#utility.yul\":1334:1387   */\n      tag_165\n      jump\t// in\n    tag_183:\n        /* \"#utility.yul\":1324:1387   */\n      swap2\n      pop\n        /* \"#utility.yul\":1280:1397   */\n      pop\n        /* \"#utility.yul\":1075:1404   */\n      swap3\n      swap2\n      pop\n      pop\n      jump\t// out\n        /* \"#utility.yul\":1410:1919   */\n    tag_57:\n        /* \"#utility.yul\":1479:1485   */\n      0x00\n        /* \"#utility.yul\":1528:1530   */\n      0x20\n        /* \"#utility.yul\":1516:1525   */\n      dup3\n        /* \"#utility.yul\":1507:1514   */\n      dup5\n        /* \"#utility.yul\":1503:1526   */\n      sub\n        /* \"#utility.yul\":1499:1531   */\n      slt\n        /* \"#utility.yul\":1496:1615   */\n      iszero\n      tag_185\n      jumpi\n        /* \"#utility.yul\":1534:1613   */\n      tag_186\n      tag_182\n      jump\t// in\n    tag_186:\n        /* \"#utility.yul\":1496:1615   */\n    tag_185:\n        /* \"#utility.yul\":1682:1683   */\n      0x00\n        /* \"#utility.yul\":1671:1680   */\n      dup3\n        /* \"#utility.yul\":1667:1684   */\n      add\n        /* \"#utility.yul\":1654:1685   */\n      calldataload\n        /* \"#utility.yul\":1712:1730   */\n      0xffffffffffffffff\n        /* \"#utility.yul\":1704:1710   */\n      dup2\n        /* \"#utility.yul\":1701:1731   */\n      gt\n        /* \"#utility.yul\":1698:1815   */\n      iszero\n      tag_187\n      jumpi\n        /* \"#utility.yul\":1734:1813   */\n      tag_188\n      tag_189\n      jump\t// in\n    tag_188:\n        /* \"#utility.yul\":1698:1815   */\n    tag_187:\n        /* \"#utility.yul\":1839:1902   */\n      tag_190\n        /* \"#utility.yul\":1894:1901   */\n      dup5\n        /* \"#utility.yul\":1885:1891   */\n      dup3\n        /* \"#utility.yul\":1874:1883   */\n      dup6\n        /* \"#utility.yul\":1870:1892   */\n      add\n        /* \"#utility.yul\":1839:1902   */\n      tag_169\n      jump\t// in\n    tag_190:\n        /* \"#utility.yul\":1829:1902   */\n      swap2\n      pop\n        /* \"#utility.yul\":1625:1912   */\n      pop\n        /* \"#utility.yul\":1410:1919   */\n      swap3\n      swap2\n      pop\n      pop\n      jump\t// out\n        /* \"#utility.yul\":1925:2254   */\n    tag_32:\n        /* \"#utility.yul\":1984:1990   */\n      0x00\n        /* \"#utility.yul\":2033:2035   */\n      0x20\n        /* \"#utility.yul\":2021:2030   */\n      dup3\n        /* \"#utility.yul\":2012:2019   */\n      dup5\n        /* \"#utility.yul\":2008:2031   */\n      sub\n        /* \"#utility.yul\":2004:2036   */\n      slt\n        /* \"#utility.yul\":2001:2120   */\n      iszero\n      tag_192\n      jumpi\n        /* \"#utility.yul\":2039:2118   */\n      tag_193\n      tag_182\n      jump\t// in\n    tag_193:\n        /* \"#utility.yul\":2001:2120   */\n    tag_192:\n        /* \"#utility.yul\":2159:2160   */\n      0x00\n        /* \"#utility.yul\":2184:2237   */\n      tag_194\n        /* \"#utility.yul\":2229:2236   */\n      dup5\n        /* \"#utility.yul\":2220:2226   */\n      dup3\n        /* \"#utility.yul\":2209:2218   */\n      dup6\n        /* \"#utility.yul\":2205:2227   */\n      add\n        /* \"#utility.yul\":2184:2237   */\n      tag_175\n      jump\t// in\n    tag_194:\n        /* \"#utility.yul\":2174:2237   */\n      swap2\n      pop\n        /* \"#utility.yul\":2130:2247   */\n      pop\n        /* \"#utility.yul\":1925:2254   */\n      swap3\n      swap2\n      pop\n      pop\n      jump\t// out\n        /* \"#utility.yul\":2260:2516   */\n    tag_195:\n        /* \"#utility.yul\":2379:2389   */\n      0x00\n        /* \"#utility.yul\":2414:2510   */\n      tag_197\n        /* \"#utility.yul\":2506:2509   */\n      dup4\n        /* \"#utility.yul\":2498:2504   */\n      dup4\n        /* \"#utility.yul\":2414:2510   */\n      tag_198\n      jump\t// in\n    tag_197:\n        /* \"#utility.yul\":2400:2510   */\n      swap1\n      pop\n        /* \"#utility.yul\":2260:2516   */\n      swap3\n      swap2\n      pop\n      pop\n      jump\t// out\n        /* \"#utility.yul\":2522:2640   */\n    tag_199:\n        /* \"#utility.yul\":2609:2633   */\n      tag_201\n        /* \"#utility.yul\":2627:2632   */\n      dup2\n        /* \"#utility.yul\":2609:2633   */\n      tag_202\n      jump\t// in\n    tag_201:\n        /* \"#utility.yul\":2604:2607   */\n      dup3\n        /* \"#utility.yul\":2597:2634   */\n      mstore\n        /* \"#utility.yul\":2522:2640   */\n      pop\n      pop\n      jump\t// out\n        /* \"#utility.yul\":2712:3823   */\n    tag_203:\n        /* \"#utility.yul\":2881:2884   */\n      0x00\n        /* \"#utility.yul\":2910:2989   */\n      tag_205\n        /* \"#utility.yul\":2983:2988   */\n      dup3\n        /* \"#utility.yul\":2910:2989   */\n      tag_206\n      jump\t// in\n    tag_205:\n        /* \"#utility.yul\":3005:3116   */\n      tag_207\n        /* \"#utility.yul\":3109:3115   */\n      dup2\n        /* \"#utility.yul\":3104:3107   */\n      dup6\n        /* \"#utility.yul\":3005:3116   */\n      tag_208\n      jump\t// in\n    tag_207:\n        /* \"#utility.yul\":2998:3116   */\n      swap4\n      pop\n        /* \"#utility.yul\":3142:3145   */\n      dup4\n        /* \"#utility.yul\":3187:3191   */\n      0x20\n        /* \"#utility.yul\":3179:3185   */\n      dup3\n        /* \"#utility.yul\":3175:3192   */\n      mul\n        /* \"#utility.yul\":3170:3173   */\n      dup6\n        /* \"#utility.yul\":3166:3193   */\n      add\n        /* \"#utility.yul\":3217:3298   */\n      tag_209\n        /* \"#utility.yul\":3292:3297   */\n      dup6\n        /* \"#utility.yul\":3217:3298   */\n      tag_210\n      jump\t// in\n    tag_209:\n        /* \"#utility.yul\":3321:3328   */\n      dup1\n        /* \"#utility.yul\":3352:3353   */\n      0x00\n        /* \"#utility.yul\":3337:3778   */\n    tag_211:\n        /* \"#utility.yul\":3362:3368   */\n      dup6\n        /* \"#utility.yul\":3359:3360   */\n      dup2\n        /* \"#utility.yul\":3356:3369   */\n      lt\n        /* \"#utility.yul\":3337:3778   */\n      iszero\n      tag_213\n      jumpi\n        /* \"#utility.yul\":3433:3442   */\n      dup5\n        /* \"#utility.yul\":3427:3431   */\n      dup5\n        /* \"#utility.yul\":3423:3443   */\n      sub\n        /* \"#utility.yul\":3418:3421   */\n      dup10\n        /* \"#utility.yul\":3411:3444   */\n      mstore\n        /* \"#utility.yul\":3484:3490   */\n      dup2\n        /* \"#utility.yul\":3478:3491   */\n      mload\n        /* \"#utility.yul\":3512:3626   */\n      tag_214\n        /* \"#utility.yul\":3621:3625   */\n      dup6\n        /* \"#utility.yul\":3606:3619   */\n      dup3\n        /* \"#utility.yul\":3512:3626   */\n      tag_195\n      jump\t// in\n    tag_214:\n        /* \"#utility.yul\":3504:3626   */\n      swap5\n      pop\n        /* \"#utility.yul\":3649:3734   */\n      tag_215\n        /* \"#utility.yul\":3727:3733   */\n      dup4\n        /* \"#utility.yul\":3649:3734   */\n      tag_216\n      jump\t// in\n    tag_215:\n        /* \"#utility.yul\":3639:3734   */\n      swap3\n      pop\n        /* \"#utility.yul\":3763:3767   */\n      0x20\n        /* \"#utility.yul\":3758:3761   */\n      dup11\n        /* \"#utility.yul\":3754:3768   */\n      add\n        /* \"#utility.yul\":3747:3768   */\n      swap10\n      pop\n        /* \"#utility.yul\":3397:3778   */\n      pop\n        /* \"#utility.yul\":3384:3385   */\n      0x01\n        /* \"#utility.yul\":3381:3382   */\n      dup2\n        /* \"#utility.yul\":3377:3386   */\n      add\n        /* \"#utility.yul\":3372:3386   */\n      swap1\n      pop\n        /* \"#utility.yul\":3337:3778   */\n      jump(tag_211)\n    tag_213:\n        /* \"#utility.yul\":3341:3355   */\n      pop\n        /* \"#utility.yul\":3794:3798   */\n      dup3\n        /* \"#utility.yul\":3787:3798   */\n      swap8\n      pop\n        /* \"#utility.yul\":3814:3817   */\n      dup8\n        /* \"#utility.yul\":3807:3817   */\n      swap6\n      pop\n        /* \"#utility.yul\":2886:3823   */\n      pop\n      pop\n      pop\n      pop\n      pop\n        /* \"#utility.yul\":2712:3823   */\n      swap3\n      swap2\n      pop\n      pop\n      jump\t// out\n        /* \"#utility.yul\":3829:3938   */\n    tag_217:\n        /* \"#utility.yul\":3910:3931   */\n      tag_219\n        /* \"#utility.yul\":3925:3930   */\n      dup2\n        /* \"#utility.yul\":3910:3931   */\n      tag_220\n      jump\t// in\n    tag_219:\n        /* \"#utility.yul\":3905:3908   */\n      dup3\n        /* \"#utility.yul\":3898:3932   */\n      mstore\n        /* \"#utility.yul\":3829:3938   */\n      pop\n      pop\n      jump\t// out\n        /* \"#utility.yul\":3944:4288   */\n    tag_221:\n        /* \"#utility.yul\":4022:4025   */\n      0x00\n        /* \"#utility.yul\":4050:4089   */\n      tag_223\n        /* \"#utility.yul\":4083:4088   */\n      dup3\n        /* \"#utility.yul\":4050:4089   */\n      tag_224\n      jump\t// in\n    tag_223:\n        /* \"#utility.yul\":4105:4166   */\n      tag_225\n        /* \"#utility.yul\":4159:4165   */\n      dup2\n        /* \"#utility.yul\":4154:4157   */\n      dup6\n        /* \"#utility.yul\":4105:4166   */\n      tag_226\n      jump\t// in\n    tag_225:\n        /* \"#utility.yul\":4098:4166   */\n      swap4\n      pop\n        /* \"#utility.yul\":4175:4227   */\n      tag_227\n        /* \"#utility.yul\":4220:4226   */\n      dup2\n        /* \"#utility.yul\":4215:4218   */\n      dup6\n        /* \"#utility.yul\":4208:4212   */\n      0x20\n        /* \"#utility.yul\":4201:4206   */\n      dup7\n        /* \"#utility.yul\":4197:4213   */\n      add\n        /* \"#utility.yul\":4175:4227   */\n      tag_228\n      jump\t// in\n    tag_227:\n        /* \"#utility.yul\":4252:4281   */\n      tag_229\n        /* \"#utility.yul\":4274:4280   */\n      dup2\n        /* \"#utility.yul\":4252:4281   */\n      tag_230\n      jump\t// in\n    tag_229:\n        /* \"#utility.yul\":4247:4250   */\n      dup5\n        /* \"#utility.yul\":4243:4282   */\n      add\n        /* \"#utility.yul\":4236:4282   */\n      swap2\n      pop\n        /* \"#utility.yul\":4026:4288   */\n      pop\n        /* \"#utility.yul\":3944:4288   */\n      swap3\n      swap2\n      pop\n      pop\n      jump\t// out\n        /* \"#utility.yul\":4294:4658   */\n    tag_231:\n        /* \"#utility.yul\":4382:4385   */\n      0x00\n        /* \"#utility.yul\":4410:4449   */\n      tag_233\n        /* \"#utility.yul\":4443:4448   */\n      dup3\n        /* \"#utility.yul\":4410:4449   */\n      tag_224\n      jump\t// in\n    tag_233:\n        /* \"#utility.yul\":4465:4536   */\n      tag_234\n        /* \"#utility.yul\":4529:4535   */\n      dup2\n        /* \"#utility.yul\":4524:4527   */\n      dup6\n        /* \"#utility.yul\":4465:4536   */\n      tag_235\n      jump\t// in\n    tag_234:\n        /* \"#utility.yul\":4458:4536   */\n      swap4\n      pop\n        /* \"#utility.yul\":4545:4597   */\n      tag_236\n        /* \"#utility.yul\":4590:4596   */\n      dup2\n        /* \"#utility.yul\":4585:4588   */\n      dup6\n        /* \"#utility.yul\":4578:4582   */\n      0x20\n        /* \"#utility.yul\":4571:4576   */\n      dup7\n        /* \"#utility.yul\":4567:4583   */\n      add\n        /* \"#utility.yul\":4545:4597   */\n      tag_228\n      jump\t// in\n    tag_236:\n        /* \"#utility.yul\":4622:4651   */\n      tag_237\n        /* \"#utility.yul\":4644:4650   */\n      dup2\n        /* \"#utility.yul\":4622:4651   */\n      tag_230\n      jump\t// in\n    tag_237:\n        /* \"#utility.yul\":4617:4620   */\n      dup5\n        /* \"#utility.yul\":4613:4652   */\n      add\n        /* \"#utility.yul\":4606:4652   */\n      swap2\n      pop\n        /* \"#utility.yul\":4386:4658   */\n      pop\n        /* \"#utility.yul\":4294:4658   */\n      swap3\n      swap2\n      pop\n      pop\n      jump\t// out\n        /* \"#utility.yul\":4688:5490   */\n    tag_238:\n        /* \"#utility.yul\":4773:4776   */\n      0x00\n        /* \"#utility.yul\":4810:4815   */\n      dup2\n        /* \"#utility.yul\":4804:4816   */\n      sload\n        /* \"#utility.yul\":4839:4875   */\n      tag_240\n        /* \"#utility.yul\":4865:4874   */\n      dup2\n        /* \"#utility.yul\":4839:4875   */\n      tag_77\n      jump\t// in\n    tag_240:\n        /* \"#utility.yul\":4891:4962   */\n      tag_241\n        /* \"#utility.yul\":4955:4961   */\n      dup2\n        /* \"#utility.yul\":4950:4953   */\n      dup7\n        /* \"#utility.yul\":4891:4962   */\n      tag_235\n      jump\t// in\n    tag_241:\n        /* \"#utility.yul\":4884:4962   */\n      swap5\n      pop\n        /* \"#utility.yul\":4993:4994   */\n      0x01\n        /* \"#utility.yul\":4982:4991   */\n      dup3\n        /* \"#utility.yul\":4978:4995   */\n      and\n        /* \"#utility.yul\":5009:5010   */\n      0x00\n        /* \"#utility.yul\":5004:5139   */\n      dup2\n      eq\n      tag_243\n      jumpi\n        /* \"#utility.yul\":5153:5154   */\n      0x01\n        /* \"#utility.yul\":5148:5484   */\n      dup2\n      eq\n      tag_244\n      jumpi\n        /* \"#utility.yul\":4971:5484   */\n      jump(tag_242)\n        /* \"#utility.yul\":5004:5139   */\n    tag_243:\n        /* \"#utility.yul\":5088:5092   */\n      0xff\n        /* \"#utility.yul\":5084:5093   */\n      not\n        /* \"#utility.yul\":5073:5082   */\n      dup4\n        /* \"#utility.yul\":5069:5094   */\n      and\n        /* \"#utility.yul\":5064:5067   */\n      dup7\n        /* \"#utility.yul\":5057:5095   */\n      mstore\n        /* \"#utility.yul\":5124:5128   */\n      0x20\n        /* \"#utility.yul\":5119:5122   */\n      dup7\n        /* \"#utility.yul\":5115:5129   */\n      add\n        /* \"#utility.yul\":5108:5129   */\n      swap4\n      pop\n        /* \"#utility.yul\":5004:5139   */\n      jump(tag_242)\n        /* \"#utility.yul\":5148:5484   */\n    tag_244:\n        /* \"#utility.yul\":5215:5253   */\n      tag_245\n        /* \"#utility.yul\":5247:5252   */\n      dup6\n        /* \"#utility.yul\":5215:5253   */\n      tag_246\n      jump\t// in\n    tag_245:\n        /* \"#utility.yul\":5275:5276   */\n      0x00\n        /* \"#utility.yul\":5289:5443   */\n    tag_247:\n        /* \"#utility.yul\":5303:5309   */\n      dup4\n        /* \"#utility.yul\":5300:5301   */\n      dup2\n        /* \"#utility.yul\":5297:5310   */\n      lt\n        /* \"#utility.yul\":5289:5443   */\n      iszero\n      tag_249\n      jumpi\n        /* \"#utility.yul\":5377:5384   */\n      dup2\n        /* \"#utility.yul\":5371:5385   */\n      sload\n        /* \"#utility.yul\":5367:5368   */\n      dup2\n        /* \"#utility.yul\":5362:5365   */\n      dup10\n        /* \"#utility.yul\":5358:5369   */\n      add\n        /* \"#utility.yul\":5351:5386   */\n      mstore\n        /* \"#utility.yul\":5427:5428   */\n      0x01\n        /* \"#utility.yul\":5418:5425   */\n      dup3\n        /* \"#utility.yul\":5414:5429   */\n      add\n        /* \"#utility.yul\":5403:5429   */\n      swap2\n      pop\n        /* \"#utility.yul\":5325:5329   */\n      0x20\n        /* \"#utility.yul\":5322:5323   */\n      dup2\n        /* \"#utility.yul\":5318:5330   */\n      add\n        /* \"#utility.yul\":5313:5330   */\n      swap1\n      pop\n        /* \"#utility.yul\":5289:5443   */\n      jump(tag_247)\n    tag_249:\n        /* \"#utility.yul\":5472:5473   */\n      dup1\n        /* \"#utility.yul\":5467:5470   */\n      dup9\n        /* \"#utility.yul\":5463:5474   */\n      add\n        /* \"#utility.yul\":5456:5474   */\n      swap6\n      pop\n        /* \"#utility.yul\":5155:5484   */\n      pop\n      pop\n        /* \"#utility.yul\":4971:5484   */\n    tag_242:\n      pop\n        /* \"#utility.yul\":4777:5490   */\n      pop\n      pop\n        /* \"#utility.yul\":4688:5490   */\n      swap3\n      swap2\n      pop\n      pop\n      jump\t// out\n        /* \"#utility.yul\":5496:5862   */\n    tag_250:\n        /* \"#utility.yul\":5638:5641   */\n      0x00\n        /* \"#utility.yul\":5659:5726   */\n      tag_252\n        /* \"#utility.yul\":5723:5725   */\n      0x14\n        /* \"#utility.yul\":5718:5721   */\n      dup4\n        /* \"#utility.yul\":5659:5726   */\n      tag_235\n      jump\t// in\n    tag_252:\n        /* \"#utility.yul\":5652:5726   */\n      swap2\n      pop\n        /* \"#utility.yul\":5735:5828   */\n      tag_253\n        /* \"#utility.yul\":5824:5827   */\n      dup3\n        /* \"#utility.yul\":5735:5828   */\n      tag_254\n      jump\t// in\n    tag_253:\n        /* \"#utility.yul\":5853:5855   */\n      0x20\n        /* \"#utility.yul\":5848:5851   */\n      dup3\n        /* \"#utility.yul\":5844:5856   */\n      add\n        /* \"#utility.yul\":5837:5856   */\n      swap1\n      pop\n        /* \"#utility.yul\":5496:5862   */\n      swap2\n      swap1\n      pop\n      jump\t// out\n        /* \"#utility.yul\":5868:6234   */\n    tag_255:\n        /* \"#utility.yul\":6010:6013   */\n      0x00\n        /* \"#utility.yul\":6031:6098   */\n      tag_257\n        /* \"#utility.yul\":6095:6097   */\n      0x2f\n        /* \"#utility.yul\":6090:6093   */\n      dup4\n        /* \"#utility.yul\":6031:6098   */\n      tag_235\n      jump\t// in\n    tag_257:\n        /* \"#utility.yul\":6024:6098   */\n      swap2\n      pop\n        /* \"#utility.yul\":6107:6200   */\n      tag_258\n        /* \"#utility.yul\":6196:6199   */\n      dup3\n        /* \"#utility.yul\":6107:6200   */\n      tag_259\n      jump\t// in\n    tag_258:\n        /* \"#utility.yul\":6225:6227   */\n      0x40\n        /* \"#utility.yul\":6220:6223   */\n      dup3\n        /* \"#utility.yul\":6216:6228   */\n      add\n        /* \"#utility.yul\":6209:6228   */\n      swap1\n      pop\n        /* \"#utility.yul\":5868:6234   */\n      swap2\n      swap1\n      pop\n      jump\t// out\n        /* \"#utility.yul\":6240:6606   */\n    tag_260:\n        /* \"#utility.yul\":6382:6385   */\n      0x00\n        /* \"#utility.yul\":6403:6470   */\n      tag_262\n        /* \"#utility.yul\":6467:6469   */\n      0x0e\n        /* \"#utility.yul\":6462:6465   */\n      dup4\n        /* \"#utility.yul\":6403:6470   */\n      tag_235\n      jump\t// in\n    tag_262:\n        /* \"#utility.yul\":6396:6470   */\n      swap2\n      pop\n        /* \"#utility.yul\":6479:6572   */\n      tag_263\n        /* \"#utility.yul\":6568:6571   */\n      dup3\n        /* \"#utility.yul\":6479:6572   */\n      tag_264\n      jump\t// in\n    tag_263:\n        /* \"#utility.yul\":6597:6599   */\n      0x20\n        /* \"#utility.yul\":6592:6595   */\n      dup3\n        /* \"#utility.yul\":6588:6600   */\n      add\n        /* \"#utility.yul\":6581:6600   */\n      swap1\n      pop\n        /* \"#utility.yul\":6240:6606   */\n      swap2\n      swap1\n      pop\n      jump\t// out\n        /* \"#utility.yul\":6674:7522   */\n    tag_198:\n        /* \"#utility.yul\":6783:6786   */\n      0x00\n        /* \"#utility.yul\":6819:6823   */\n      0x60\n        /* \"#utility.yul\":6814:6817   */\n      dup4\n        /* \"#utility.yul\":6810:6824   */\n      add\n        /* \"#utility.yul\":6906:6910   */\n      0x00\n        /* \"#utility.yul\":6899:6904   */\n      dup4\n        /* \"#utility.yul\":6895:6911   */\n      add\n        /* \"#utility.yul\":6889:6912   */\n      mload\n        /* \"#utility.yul\":6959:6962   */\n      dup5\n        /* \"#utility.yul\":6953:6957   */\n      dup3\n        /* \"#utility.yul\":6949:6963   */\n      sub\n        /* \"#utility.yul\":6942:6946   */\n      0x00\n        /* \"#utility.yul\":6937:6940   */\n      dup7\n        /* \"#utility.yul\":6933:6947   */\n      add\n        /* \"#utility.yul\":6926:6964   */\n      mstore\n        /* \"#utility.yul\":6985:7058   */\n      tag_266\n        /* \"#utility.yul\":7053:7057   */\n      dup3\n        /* \"#utility.yul\":7039:7051   */\n      dup3\n        /* \"#utility.yul\":6985:7058   */\n      tag_221\n      jump\t// in\n    tag_266:\n        /* \"#utility.yul\":6977:7058   */\n      swap2\n      pop\n        /* \"#utility.yul\":6834:7069   */\n      pop\n        /* \"#utility.yul\":7152:7156   */\n      0x20\n        /* \"#utility.yul\":7145:7150   */\n      dup4\n        /* \"#utility.yul\":7141:7157   */\n      add\n        /* \"#utility.yul\":7135:7158   */\n      mload\n        /* \"#utility.yul\":7205:7208   */\n      dup5\n        /* \"#utility.yul\":7199:7203   */\n      dup3\n        /* \"#utility.yul\":7195:7209   */\n      sub\n        /* \"#utility.yul\":7188:7192   */\n      0x20\n        /* \"#utility.yul\":7183:7186   */\n      dup7\n        /* \"#utility.yul\":7179:7193   */\n      add\n        /* \"#utility.yul\":7172:7210   */\n      mstore\n        /* \"#utility.yul\":7231:7304   */\n      tag_267\n        /* \"#utility.yul\":7299:7303   */\n      dup3\n        /* \"#utility.yul\":7285:7297   */\n      dup3\n        /* \"#utility.yul\":7231:7304   */\n      tag_221\n      jump\t// in\n    tag_267:\n        /* \"#utility.yul\":7223:7304   */\n      swap2\n      pop\n        /* \"#utility.yul\":7079:7315   */\n      pop\n        /* \"#utility.yul\":7403:7407   */\n      0x40\n        /* \"#utility.yul\":7396:7401   */\n      dup4\n        /* \"#utility.yul\":7392:7408   */\n      add\n        /* \"#utility.yul\":7386:7409   */\n      mload\n        /* \"#utility.yul\":7422:7485   */\n      tag_268\n        /* \"#utility.yul\":7479:7483   */\n      0x40\n        /* \"#utility.yul\":7474:7477   */\n      dup7\n        /* \"#utility.yul\":7470:7484   */\n      add\n        /* \"#utility.yul\":7456:7468   */\n      dup3\n        /* \"#utility.yul\":7422:7485   */\n      tag_269\n      jump\t// in\n    tag_268:\n        /* \"#utility.yul\":7325:7495   */\n      pop\n        /* \"#utility.yul\":7512:7516   */\n      dup1\n        /* \"#utility.yul\":7505:7516   */\n      swap2\n      pop\n        /* \"#utility.yul\":6788:7522   */\n      pop\n        /* \"#utility.yul\":6674:7522   */\n      swap3\n      swap2\n      pop\n      pop\n      jump\t// out\n        /* \"#utility.yul\":7528:7636   */\n    tag_269:\n        /* \"#utility.yul\":7605:7629   */\n      tag_271\n        /* \"#utility.yul\":7623:7628   */\n      dup2\n        /* \"#utility.yul\":7605:7629   */\n      tag_272\n      jump\t// in\n    tag_271:\n        /* \"#utility.yul\":7600:7603   */\n      dup3\n        /* \"#utility.yul\":7593:7630   */\n      mstore\n        /* \"#utility.yul\":7528:7636   */\n      pop\n      pop\n      jump\t// out\n        /* \"#utility.yul\":7642:7760   */\n    tag_273:\n        /* \"#utility.yul\":7729:7753   */\n      tag_275\n        /* \"#utility.yul\":7747:7752   */\n      dup2\n        /* \"#utility.yul\":7729:7753   */\n      tag_272\n      jump\t// in\n    tag_275:\n        /* \"#utility.yul\":7724:7727   */\n      dup3\n        /* \"#utility.yul\":7717:7754   */\n      mstore\n        /* \"#utility.yul\":7642:7760   */\n      pop\n      pop\n      jump\t// out\n        /* \"#utility.yul\":7766:7988   */\n    tag_29:\n        /* \"#utility.yul\":7859:7863   */\n      0x00\n        /* \"#utility.yul\":7897:7899   */\n      0x20\n        /* \"#utility.yul\":7886:7895   */\n      dup3\n        /* \"#utility.yul\":7882:7900   */\n      add\n        /* \"#utility.yul\":7874:7900   */\n      swap1\n      pop\n        /* \"#utility.yul\":7910:7981   */\n      tag_277\n        /* \"#utility.yul\":7978:7979   */\n      0x00\n        /* \"#utility.yul\":7967:7976   */\n      dup4\n        /* \"#utility.yul\":7963:7980   */\n      add\n        /* \"#utility.yul\":7954:7960   */\n      dup5\n        /* \"#utility.yul\":7910:7981   */\n      tag_199\n      jump\t// in\n    tag_277:\n        /* \"#utility.yul\":7766:7988   */\n      swap3\n      swap2\n      pop\n      pop\n      jump\t// out\n        /* \"#utility.yul\":7994:8467   */\n    tag_39:\n        /* \"#utility.yul\":8187:8191   */\n      0x00\n        /* \"#utility.yul\":8225:8227   */\n      0x20\n        /* \"#utility.yul\":8214:8223   */\n      dup3\n        /* \"#utility.yul\":8210:8228   */\n      add\n        /* \"#utility.yul\":8202:8228   */\n      swap1\n      pop\n        /* \"#utility.yul\":8274:8283   */\n      dup2\n        /* \"#utility.yul\":8268:8272   */\n      dup2\n        /* \"#utility.yul\":8264:8284   */\n      sub\n        /* \"#utility.yul\":8260:8261   */\n      0x00\n        /* \"#utility.yul\":8249:8258   */\n      dup4\n        /* \"#utility.yul\":8245:8262   */\n      add\n        /* \"#utility.yul\":8238:8285   */\n      mstore\n        /* \"#utility.yul\":8302:8460   */\n      tag_279\n        /* \"#utility.yul\":8455:8459   */\n      dup2\n        /* \"#utility.yul\":8446:8452   */\n      dup5\n        /* \"#utility.yul\":8302:8460   */\n      tag_203\n      jump\t// in\n    tag_279:\n        /* \"#utility.yul\":8294:8460   */\n      swap1\n      pop\n        /* \"#utility.yul\":7994:8467   */\n      swap3\n      swap2\n      pop\n      pop\n      jump\t// out\n        /* \"#utility.yul\":8473:8781   */\n    tag_48:\n        /* \"#utility.yul\":8582:8586   */\n      0x00\n        /* \"#utility.yul\":8620:8622   */\n      0x40\n        /* \"#utility.yul\":8609:8618   */\n      dup3\n        /* \"#utility.yul\":8605:8623   */\n      add\n        /* \"#utility.yul\":8597:8623   */\n      swap1\n      pop\n        /* \"#utility.yul\":8633:8698   */\n      tag_281\n        /* \"#utility.yul\":8695:8696   */\n      0x00\n        /* \"#utility.yul\":8684:8693   */\n      dup4\n        /* \"#utility.yul\":8680:8697   */\n      add\n        /* \"#utility.yul\":8671:8677   */\n      dup6\n        /* \"#utility.yul\":8633:8698   */\n      tag_217\n      jump\t// in\n    tag_281:\n        /* \"#utility.yul\":8708:8774   */\n      tag_282\n        /* \"#utility.yul\":8770:8772   */\n      0x20\n        /* \"#utility.yul\":8759:8768   */\n      dup4\n        /* \"#utility.yul\":8755:8773   */\n      add\n        /* \"#utility.yul\":8746:8752   */\n      dup5\n        /* \"#utility.yul\":8708:8774   */\n      tag_217\n      jump\t// in\n    tag_282:\n        /* \"#utility.yul\":8473:8781   */\n      swap4\n      swap3\n      pop\n      pop\n      pop\n      jump\t// out\n        /* \"#utility.yul\":8787:9100   */\n    tag_25:\n        /* \"#utility.yul\":8900:8904   */\n      0x00\n        /* \"#utility.yul\":8938:8940   */\n      0x20\n        /* \"#utility.yul\":8927:8936   */\n      dup3\n        /* \"#utility.yul\":8923:8941   */\n      add\n        /* \"#utility.yul\":8915:8941   */\n      swap1\n      pop\n        /* \"#utility.yul\":8987:8996   */\n      dup2\n        /* \"#utility.yul\":8981:8985   */\n      dup2\n        /* \"#utility.yul\":8977:8997   */\n      sub\n        /* \"#utility.yul\":8973:8974   */\n      0x00\n        /* \"#utility.yul\":8962:8971   */\n      dup4\n        /* \"#utility.yul\":8958:8975   */\n      add\n        /* \"#utility.yul\":8951:8998   */\n      mstore\n        /* \"#utility.yul\":9015:9093   */\n      tag_284\n        /* \"#utility.yul\":9088:9092   */\n      dup2\n        /* \"#utility.yul\":9079:9085   */\n      dup5\n        /* \"#utility.yul\":9015:9093   */\n      tag_231\n      jump\t// in\n    tag_284:\n        /* \"#utility.yul\":9007:9093   */\n      swap1\n      pop\n        /* \"#utility.yul\":8787:9100   */\n      swap3\n      swap2\n      pop\n      pop\n      jump\t// out\n        /* \"#utility.yul\":9106:9730   */\n    tag_35:\n        /* \"#utility.yul\":9295:9299   */\n      0x00\n        /* \"#utility.yul\":9333:9335   */\n      0x60\n        /* \"#utility.yul\":9322:9331   */\n      dup3\n        /* \"#utility.yul\":9318:9336   */\n      add\n        /* \"#utility.yul\":9310:9336   */\n      swap1\n      pop\n        /* \"#utility.yul\":9382:9391   */\n      dup2\n        /* \"#utility.yul\":9376:9380   */\n      dup2\n        /* \"#utility.yul\":9372:9392   */\n      sub\n        /* \"#utility.yul\":9368:9369   */\n      0x00\n        /* \"#utility.yul\":9357:9366   */\n      dup4\n        /* \"#utility.yul\":9353:9370   */\n      add\n        /* \"#utility.yul\":9346:9393   */\n      mstore\n        /* \"#utility.yul\":9410:9488   */\n      tag_286\n        /* \"#utility.yul\":9483:9487   */\n      dup2\n        /* \"#utility.yul\":9474:9480   */\n      dup7\n        /* \"#utility.yul\":9410:9488   */\n      tag_231\n      jump\t// in\n    tag_286:\n        /* \"#utility.yul\":9402:9488   */\n      swap1\n      pop\n        /* \"#utility.yul\":9535:9544   */\n      dup2\n        /* \"#utility.yul\":9529:9533   */\n      dup2\n        /* \"#utility.yul\":9525:9545   */\n      sub\n        /* \"#utility.yul\":9520:9522   */\n      0x20\n        /* \"#utility.yul\":9509:9518   */\n      dup4\n        /* \"#utility.yul\":9505:9523   */\n      add\n        /* \"#utility.yul\":9498:9546   */\n      mstore\n        /* \"#utility.yul\":9563:9641   */\n      tag_287\n        /* \"#utility.yul\":9636:9640   */\n      dup2\n        /* \"#utility.yul\":9627:9633   */\n      dup6\n        /* \"#utility.yul\":9563:9641   */\n      tag_231\n      jump\t// in\n    tag_287:\n        /* \"#utility.yul\":9555:9641   */\n      swap1\n      pop\n        /* \"#utility.yul\":9651:9723   */\n      tag_288\n        /* \"#utility.yul\":9719:9721   */\n      0x40\n        /* \"#utility.yul\":9708:9717   */\n      dup4\n        /* \"#utility.yul\":9704:9722   */\n      add\n        /* \"#utility.yul\":9695:9701   */\n      dup5\n        /* \"#utility.yul\":9651:9723   */\n      tag_273\n      jump\t// in\n    tag_288:\n        /* \"#utility.yul\":9106:9730   */\n      swap5\n      swap4\n      pop\n      pop\n      pop\n      pop\n      jump\t// out\n        /* \"#utility.yul\":9736:10043   */\n    tag_145:\n        /* \"#utility.yul\":9846:9850   */\n      0x00\n        /* \"#utility.yul\":9884:9886   */\n      0x20\n        /* \"#utility.yul\":9873:9882   */\n      dup3\n        /* \"#utility.yul\":9869:9887   */\n      add\n        /* \"#utility.yul\":9861:9887   */\n      swap1\n      pop\n        /* \"#utility.yul\":9933:9942   */\n      dup2\n        /* \"#utility.yul\":9927:9931   */\n      dup2\n        /* \"#utility.yul\":9923:9943   */\n      sub\n        /* \"#utility.yul\":9919:9920   */\n      0x00\n        /* \"#utility.yul\":9908:9917   */\n      dup4\n        /* \"#utility.yul\":9904:9921   */\n      add\n        /* \"#utility.yul\":9897:9944   */\n      mstore\n        /* \"#utility.yul\":9961:10036   */\n      tag_290\n        /* \"#utility.yul\":10031:10035   */\n      dup2\n        /* \"#utility.yul\":10022:10028   */\n      dup5\n        /* \"#utility.yul\":9961:10036   */\n      tag_238\n      jump\t// in\n    tag_290:\n        /* \"#utility.yul\":9953:10036   */\n      swap1\n      pop\n        /* \"#utility.yul\":9736:10043   */\n      swap3\n      swap2\n      pop\n      pop\n      jump\t// out\n        /* \"#utility.yul\":10049:10468   */\n    tag_136:\n        /* \"#utility.yul\":10215:10219   */\n      0x00\n        /* \"#utility.yul\":10253:10255   */\n      0x20\n        /* \"#utility.yul\":10242:10251   */\n      dup3\n        /* \"#utility.yul\":10238:10256   */\n      add\n        /* \"#utility.yul\":10230:10256   */\n      swap1\n      pop\n        /* \"#utility.yul\":10302:10311   */\n      dup2\n        /* \"#utility.yul\":10296:10300   */\n      dup2\n        /* \"#utility.yul\":10292:10312   */\n      sub\n        /* \"#utility.yul\":10288:10289   */\n      0x00\n        /* \"#utility.yul\":10277:10286   */\n      dup4\n        /* \"#utility.yul\":10273:10290   */\n      add\n        /* \"#utility.yul\":10266:10313   */\n      mstore\n        /* \"#utility.yul\":10330:10461   */\n      tag_292\n        /* \"#utility.yul\":10456:10460   */\n      dup2\n        /* \"#utility.yul\":10330:10461   */\n      tag_250\n      jump\t// in\n    tag_292:\n        /* \"#utility.yul\":10322:10461   */\n      swap1\n      pop\n        /* \"#utility.yul\":10049:10468   */\n      swap2\n      swap1\n      pop\n      jump\t// out\n        /* \"#utility.yul\":10474:10893   */\n    tag_112:\n        /* \"#utility.yul\":10640:10644   */\n      0x00\n        /* \"#utility.yul\":10678:10680   */\n      0x20\n        /* \"#utility.yul\":10667:10676   */\n      dup3\n        /* \"#utility.yul\":10663:10681   */\n      add\n        /* \"#utility.yul\":10655:10681   */\n      swap1\n      pop\n        /* \"#utility.yul\":10727:10736   */\n      dup2\n        /* \"#utility.yul\":10721:10725   */\n      dup2\n        /* \"#utility.yul\":10717:10737   */\n      sub\n        /* \"#utility.yul\":10713:10714   */\n      0x00\n        /* \"#utility.yul\":10702:10711   */\n      dup4\n        /* \"#utility.yul\":10698:10715   */\n      add\n        /* \"#utility.yul\":10691:10738   */\n      mstore\n        /* \"#utility.yul\":10755:10886   */\n      tag_294\n        /* \"#utility.yul\":10881:10885   */\n      dup2\n        /* \"#utility.yul\":10755:10886   */\n      tag_255\n      jump\t// in\n    tag_294:\n        /* \"#utility.yul\":10747:10886   */\n      swap1\n      pop\n        /* \"#utility.yul\":10474:10893   */\n      swap2\n      swap1\n      pop\n      jump\t// out\n        /* \"#utility.yul\":10899:11318   */\n    tag_116:\n        /* \"#utility.yul\":11065:11069   */\n      0x00\n        /* \"#utility.yul\":11103:11105   */\n      0x20\n        /* \"#utility.yul\":11092:11101   */\n      dup3\n        /* \"#utility.yul\":11088:11106   */\n      add\n        /* \"#utility.yul\":11080:11106   */\n      swap1\n      pop\n        /* \"#utility.yul\":11152:11161   */\n      dup2\n        /* \"#utility.yul\":11146:11150   */\n      dup2\n        /* \"#utility.yul\":11142:11162   */\n      sub\n        /* \"#utility.yul\":11138:11139   */\n      0x00\n        /* \"#utility.yul\":11127:11136   */\n      dup4\n        /* \"#utility.yul\":11123:11140   */\n      add\n        /* \"#utility.yul\":11116:11163   */\n      mstore\n        /* \"#utility.yul\":11180:11311   */\n      tag_296\n        /* \"#utility.yul\":11306:11310   */\n      dup2\n        /* \"#utility.yul\":11180:11311   */\n      tag_260\n      jump\t// in\n    tag_296:\n        /* \"#utility.yul\":11172:11311   */\n      swap1\n      pop\n        /* \"#utility.yul\":10899:11318   */\n      swap2\n      swap1\n      pop\n      jump\t// out\n        /* \"#utility.yul\":11324:11546   */\n    tag_18:\n        /* \"#utility.yul\":11417:11421   */\n      0x00\n        /* \"#utility.yul\":11455:11457   */\n      0x20\n        /* \"#utility.yul\":11444:11453   */\n      dup3\n        /* \"#utility.yul\":11440:11458   */\n      add\n        /* \"#utility.yul\":11432:11458   */\n      swap1\n      pop\n        /* \"#utility.yul\":11468:11539   */\n      tag_298\n        /* \"#utility.yul\":11536:11537   */\n      0x00\n        /* \"#utility.yul\":11525:11534   */\n      dup4\n        /* \"#utility.yul\":11521:11538   */\n      add\n        /* \"#utility.yul\":11512:11518   */\n      dup5\n        /* \"#utility.yul\":11468:11539   */\n      tag_273\n      jump\t// in\n    tag_298:\n        /* \"#utility.yul\":11324:11546   */\n      swap3\n      swap2\n      pop\n      pop\n      jump\t// out\n        /* \"#utility.yul\":11552:11681   */\n    tag_159:\n        /* \"#utility.yul\":11586:11592   */\n      0x00\n        /* \"#utility.yul\":11613:11633   */\n      tag_300\n      tag_301\n      jump\t// in\n    tag_300:\n        /* \"#utility.yul\":11603:11633   */\n      swap1\n      pop\n        /* \"#utility.yul\":11642:11675   */\n      tag_302\n        /* \"#utility.yul\":11670:11674   */\n      dup3\n        /* \"#utility.yul\":11662:11668   */\n      dup3\n        /* \"#utility.yul\":11642:11675   */\n      tag_303\n      jump\t// in\n    tag_302:\n        /* \"#utility.yul\":11552:11681   */\n      swap2\n      swap1\n      pop\n      jump\t// out\n        /* \"#utility.yul\":11687:11762   */\n    tag_301:\n        /* \"#utility.yul\":11720:11726   */\n      0x00\n        /* \"#utility.yul\":11753:11755   */\n      0x40\n        /* \"#utility.yul\":11747:11756   */\n      mload\n        /* \"#utility.yul\":11737:11756   */\n      swap1\n      pop\n        /* \"#utility.yul\":11687:11762   */\n      swap1\n      jump\t// out\n        /* \"#utility.yul\":11768:12076   */\n    tag_158:\n        /* \"#utility.yul\":11830:11834   */\n      0x00\n        /* \"#utility.yul\":11920:11938   */\n      0xffffffffffffffff\n        /* \"#utility.yul\":11912:11918   */\n      dup3\n        /* \"#utility.yul\":11909:11939   */\n      gt\n        /* \"#utility.yul\":11906:11962   */\n      iszero\n      tag_306\n      jumpi\n        /* \"#utility.yul\":11942:11960   */\n      tag_307\n      tag_308\n      jump\t// in\n    tag_307:\n        /* \"#utility.yul\":11906:11962   */\n    tag_306:\n        /* \"#utility.yul\":11980:12009   */\n      tag_309\n        /* \"#utility.yul\":12002:12008   */\n      dup3\n        /* \"#utility.yul\":11980:12009   */\n      tag_230\n      jump\t// in\n    tag_309:\n        /* \"#utility.yul\":11972:12009   */\n      swap1\n      pop\n        /* \"#utility.yul\":12064:12068   */\n      0x20\n        /* \"#utility.yul\":12058:12062   */\n      dup2\n        /* \"#utility.yul\":12054:12069   */\n      add\n        /* \"#utility.yul\":12046:12069   */\n      swap1\n      pop\n        /* \"#utility.yul\":11768:12076   */\n      swap2\n      swap1\n      pop\n      jump\t// out\n        /* \"#utility.yul\":12082:12239   */\n    tag_210:\n        /* \"#utility.yul\":12174:12178   */\n      0x00\n        /* \"#utility.yul\":12197:12200   */\n      dup2\n        /* \"#utility.yul\":12189:12200   */\n      swap1\n      pop\n        /* \"#utility.yul\":12227:12231   */\n      0x20\n        /* \"#utility.yul\":12222:12225   */\n      dup3\n        /* \"#utility.yul\":12218:12232   */\n      add\n        /* \"#utility.yul\":12210:12232   */\n      swap1\n      pop\n        /* \"#utility.yul\":12082:12239   */\n      swap2\n      swap1\n      pop\n      jump\t// out\n        /* \"#utility.yul\":12245:12386   */\n    tag_246:\n        /* \"#utility.yul\":12294:12298   */\n      0x00\n        /* \"#utility.yul\":12317:12320   */\n      dup2\n        /* \"#utility.yul\":12309:12320   */\n      swap1\n      pop\n        /* \"#utility.yul\":12340:12343   */\n      dup2\n        /* \"#utility.yul\":12337:12338   */\n      0x00\n        /* \"#utility.yul\":12330:12344   */\n      mstore\n        /* \"#utility.yul\":12374:12378   */\n      0x20\n        /* \"#utility.yul\":12371:12372   */\n      0x00\n        /* \"#utility.yul\":12361:12379   */\n      keccak256\n        /* \"#utility.yul\":12353:12379   */\n      swap1\n      pop\n        /* \"#utility.yul\":12245:12386   */\n      swap2\n      swap1\n      pop\n      jump\t// out\n        /* \"#utility.yul\":12392:12531   */\n    tag_206:\n        /* \"#utility.yul\":12484:12490   */\n      0x00\n        /* \"#utility.yul\":12518:12523   */\n      dup2\n        /* \"#utility.yul\":12512:12524   */\n      mload\n        /* \"#utility.yul\":12502:12524   */\n      swap1\n      pop\n        /* \"#utility.yul\":12392:12531   */\n      swap2\n      swap1\n      pop\n      jump\t// out\n        /* \"#utility.yul\":12537:12636   */\n    tag_224:\n        /* \"#utility.yul\":12589:12595   */\n      0x00\n        /* \"#utility.yul\":12623:12628   */\n      dup2\n        /* \"#utility.yul\":12617:12629   */\n      mload\n        /* \"#utility.yul\":12607:12629   */\n      swap1\n      pop\n        /* \"#utility.yul\":12537:12636   */\n      swap2\n      swap1\n      pop\n      jump\t// out\n        /* \"#utility.yul\":12642:12780   */\n    tag_216:\n        /* \"#utility.yul\":12737:12741   */\n      0x00\n        /* \"#utility.yul\":12769:12773   */\n      0x20\n        /* \"#utility.yul\":12764:12767   */\n      dup3\n        /* \"#utility.yul\":12760:12774   */\n      add\n        /* \"#utility.yul\":12752:12774   */\n      swap1\n      pop\n        /* \"#utility.yul\":12642:12780   */\n      swap2\n      swap1\n      pop\n      jump\t// out\n        /* \"#utility.yul\":12786:12995   */\n    tag_208:\n        /* \"#utility.yul\":12910:12921   */\n      0x00\n        /* \"#utility.yul\":12944:12950   */\n      dup3\n        /* \"#utility.yul\":12939:12942   */\n      dup3\n        /* \"#utility.yul\":12932:12951   */\n      mstore\n        /* \"#utility.yul\":12984:12988   */\n      0x20\n        /* \"#utility.yul\":12979:12982   */\n      dup3\n        /* \"#utility.yul\":12975:12989   */\n      add\n        /* \"#utility.yul\":12960:12989   */\n      swap1\n      pop\n        /* \"#utility.yul\":12786:12995   */\n      swap3\n      swap2\n      pop\n      pop\n      jump\t// out\n        /* \"#utility.yul\":13001:13160   */\n    tag_226:\n        /* \"#utility.yul\":13075:13086   */\n      0x00\n        /* \"#utility.yul\":13109:13115   */\n      dup3\n        /* \"#utility.yul\":13104:13107   */\n      dup3\n        /* \"#utility.yul\":13097:13116   */\n      mstore\n        /* \"#utility.yul\":13149:13153   */\n      0x20\n        /* \"#utility.yul\":13144:13147   */\n      dup3\n        /* \"#utility.yul\":13140:13154   */\n      add\n        /* \"#utility.yul\":13125:13154   */\n      swap1\n      pop\n        /* \"#utility.yul\":13001:13160   */\n      swap3\n      swap2\n      pop\n      pop\n      jump\t// out\n        /* \"#utility.yul\":13166:13335   */\n    tag_235:\n        /* \"#utility.yul\":13250:13261   */\n      0x00\n        /* \"#utility.yul\":13284:13290   */\n      dup3\n        /* \"#utility.yul\":13279:13282   */\n      dup3\n        /* \"#utility.yul\":13272:13291   */\n      mstore\n        /* \"#utility.yul\":13324:13328   */\n      0x20\n        /* \"#utility.yul\":13319:13322   */\n      dup3\n        /* \"#utility.yul\":13315:13329   */\n      add\n        /* \"#utility.yul\":13300:13329   */\n      swap1\n      pop\n        /* \"#utility.yul\":13166:13335   */\n      swap3\n      swap2\n      pop\n      pop\n      jump\t// out\n        /* \"#utility.yul\":13341:13646   */\n    tag_68:\n        /* \"#utility.yul\":13381:13384   */\n      0x00\n        /* \"#utility.yul\":13400:13420   */\n      tag_319\n        /* \"#utility.yul\":13418:13419   */\n      dup3\n        /* \"#utility.yul\":13400:13420   */\n      tag_272\n      jump\t// in\n    tag_319:\n        /* \"#utility.yul\":13395:13420   */\n      swap2\n      pop\n        /* \"#utility.yul\":13434:13454   */\n      tag_320\n        /* \"#utility.yul\":13452:13453   */\n      dup4\n        /* \"#utility.yul\":13434:13454   */\n      tag_272\n      jump\t// in\n    tag_320:\n        /* \"#utility.yul\":13429:13454   */\n      swap3\n      pop\n        /* \"#utility.yul\":13588:13589   */\n      dup3\n        /* \"#utility.yul\":13520:13586   */\n      0xffffffffffffffffffffffffffffffffffffffffffffffffffffffffffffffff\n        /* \"#utility.yul\":13516:13590   */\n      sub\n        /* \"#utility.yul\":13513:13514   */\n      dup3\n        /* \"#utility.yul\":13510:13591   */\n      gt\n        /* \"#utility.yul\":13507:13614   */\n      iszero\n      tag_321\n      jumpi\n        /* \"#utility.yul\":13594:13612   */\n      tag_322\n      tag_323\n      jump\t// in\n    tag_322:\n        /* \"#utility.yul\":13507:13614   */\n    tag_321:\n        /* \"#utility.yul\":13638:13639   */\n      dup3\n        /* \"#utility.yul\":13635:13636   */\n      dup3\n        /* \"#utility.yul\":13631:13640   */\n      add\n        /* \"#utility.yul\":13624:13640   */\n      swap1\n      pop\n        /* \"#utility.yul\":13341:13646   */\n      swap3\n      swap2\n      pop\n      pop\n      jump\t// out\n        /* \"#utility.yul\":13652:13748   */\n    tag_202:\n        /* \"#utility.yul\":13689:13696   */\n      0x00\n        /* \"#utility.yul\":13718:13742   */\n      tag_325\n        /* \"#utility.yul\":13736:13741   */\n      dup3\n        /* \"#utility.yul\":13718:13742   */\n      tag_326\n      jump\t// in\n    tag_325:\n        /* \"#utility.yul\":13707:13742   */\n      swap1\n      pop\n        /* \"#utility.yul\":13652:13748   */\n      swap2\n      swap1\n      pop\n      jump\t// out\n        /* \"#utility.yul\":13754:13844   */\n    tag_220:\n        /* \"#utility.yul\":13788:13795   */\n      0x00\n        /* \"#utility.yul\":13831:13836   */\n      dup2\n        /* \"#utility.yul\":13824:13837   */\n      iszero\n        /* \"#utility.yul\":13817:13838   */\n      iszero\n        /* \"#utility.yul\":13806:13838   */\n      swap1\n      pop\n        /* \"#utility.yul\":13754:13844   */\n      swap2\n      swap1\n      pop\n      jump\t// out\n        /* \"#utility.yul\":13850:13976   */\n    tag_326:\n        /* \"#utility.yul\":13887:13894   */\n      0x00\n        /* \"#utility.yul\":13927:13969   */\n      0xffffffffffffffffffffffffffffffffffffffff\n        /* \"#utility.yul\":13920:13925   */\n      dup3\n        /* \"#utility.yul\":13916:13970   */\n      and\n        /* \"#utility.yul\":13905:13970   */\n      swap1\n      pop\n        /* \"#utility.yul\":13850:13976   */\n      swap2\n      swap1\n      pop\n      jump\t// out\n        /* \"#utility.yul\":13982:14059   */\n    tag_272:\n        /* \"#utility.yul\":14019:14026   */\n      0x00\n        /* \"#utility.yul\":14048:14053   */\n      dup2\n        /* \"#utility.yul\":14037:14053   */\n      swap1\n      pop\n        /* \"#utility.yul\":13982:14059   */\n      swap2\n      swap1\n      pop\n      jump\t// out\n        /* \"#utility.yul\":14065:14219   */\n    tag_164:\n        /* \"#utility.yul\":14149:14155   */\n      dup3\n        /* \"#utility.yul\":14144:14147   */\n      dup2\n        /* \"#utility.yul\":14139:14142   */\n      dup4\n        /* \"#utility.yul\":14126:14156   */\n      calldatacopy\n        /* \"#utility.yul\":14211:14212   */\n      0x00\n        /* \"#utility.yul\":14202:14208   */\n      dup4\n        /* \"#utility.yul\":14197:14200   */\n      dup4\n        /* \"#utility.yul\":14193:14209   */\n      add\n        /* \"#utility.yul\":14186:14213   */\n      mstore\n        /* \"#utility.yul\":14065:14219   */\n      pop\n      pop\n      pop\n      jump\t// out\n        /* \"#utility.yul\":14225:14532   */\n    tag_228:\n        /* \"#utility.yul\":14293:14294   */\n      0x00\n        /* \"#utility.yul\":14303:14416   */\n    tag_332:\n        /* \"#utility.yul\":14317:14323   */\n      dup4\n        /* \"#utility.yul\":14314:14315   */\n      dup2\n        /* \"#utility.yul\":14311:14324   */\n      lt\n        /* \"#utility.yul\":14303:14416   */\n      iszero\n      tag_334\n      jumpi\n        /* \"#utility.yul\":14402:14403   */\n      dup1\n        /* \"#utility.yul\":14397:14400   */\n      dup3\n        /* \"#utility.yul\":14393:14404   */\n      add\n        /* \"#utility.yul\":14387:14405   */\n      mload\n        /* \"#utility.yul\":14383:14384   */\n      dup2\n        /* \"#utility.yul\":14378:14381   */\n      dup5\n        /* \"#utility.yul\":14374:14385   */\n      add\n        /* \"#utility.yul\":14367:14406   */\n      mstore\n        /* \"#utility.yul\":14339:14341   */\n      0x20\n        /* \"#utility.yul\":14336:14337   */\n      dup2\n        /* \"#utility.yul\":14332:14342   */\n      add\n        /* \"#utility.yul\":14327:14342   */\n      swap1\n      pop\n        /* \"#utility.yul\":14303:14416   */\n      jump(tag_332)\n    tag_334:\n        /* \"#utility.yul\":14434:14440   */\n      dup4\n        /* \"#utility.yul\":14431:14432   */\n      dup2\n        /* \"#utility.yul\":14428:14441   */\n      gt\n        /* \"#utility.yul\":14425:14526   */\n      iszero\n      tag_335\n      jumpi\n        /* \"#utility.yul\":14514:14515   */\n      0x00\n        /* \"#utility.yul\":14505:14511   */\n      dup5\n        /* \"#utility.yul\":14500:14503   */\n      dup5\n        /* \"#utility.yul\":14496:14512   */\n      add\n        /* \"#utility.yul\":14489:14516   */\n      mstore\n        /* \"#utility.yul\":14425:14526   */\n    tag_335:\n        /* \"#utility.yul\":14274:14532   */\n      pop\n        /* \"#utility.yul\":14225:14532   */\n      pop\n      pop\n      pop\n      jump\t// out\n        /* \"#utility.yul\":14538:14858   */\n    tag_77:\n        /* \"#utility.yul\":14582:14588   */\n      0x00\n        /* \"#utility.yul\":14619:14620   */\n      0x02\n        /* \"#utility.yul\":14613:14617   */\n      dup3\n        /* \"#utility.yul\":14609:14621   */\n      div\n        /* \"#utility.yul\":14599:14621   */\n      swap1\n      pop\n        /* \"#utility.yul\":14666:14667   */\n      0x01\n        /* \"#utility.yul\":14660:14664   */\n      dup3\n        /* \"#utility.yul\":14656:14668   */\n      and\n        /* \"#utility.yul\":14687:14705   */\n      dup1\n        /* \"#utility.yul\":14677:14758   */\n      tag_337\n      jumpi\n        /* \"#utility.yul\":14743:14747   */\n      0x7f\n        /* \"#utility.yul\":14735:14741   */\n      dup3\n        /* \"#utility.yul\":14731:14748   */\n      and\n        /* \"#utility.yul\":14721:14748   */\n      swap2\n      pop\n        /* \"#utility.yul\":14677:14758   */\n    tag_337:\n        /* \"#utility.yul\":14805:14807   */\n      0x20\n        /* \"#utility.yul\":14797:14803   */\n      dup3\n        /* \"#utility.yul\":14794:14808   */\n      lt\n        /* \"#utility.yul\":14774:14792   */\n      dup2\n        /* \"#utility.yul\":14771:14809   */\n      eq\n        /* \"#utility.yul\":14768:14852   */\n      iszero\n      tag_338\n      jumpi\n        /* \"#utility.yul\":14824:14842   */\n      tag_339\n      tag_340\n      jump\t// in\n    tag_339:\n        /* \"#utility.yul\":14768:14852   */\n    tag_338:\n        /* \"#utility.yul\":14589:14858   */\n      pop\n        /* \"#utility.yul\":14538:14858   */\n      swap2\n      swap1\n      pop\n      jump\t// out\n        /* \"#utility.yul\":14864:15145   */\n    tag_303:\n        /* \"#utility.yul\":14947:14974   */\n      tag_342\n        /* \"#utility.yul\":14969:14973   */\n      dup3\n        /* \"#utility.yul\":14947:14974   */\n      tag_230\n      jump\t// in\n    tag_342:\n        /* \"#utility.yul\":14939:14945   */\n      dup2\n        /* \"#utility.yul\":14935:14975   */\n      add\n        /* \"#utility.yul\":15077:15083   */\n      dup2\n        /* \"#utility.yul\":15065:15075   */\n      dup2\n        /* \"#utility.yul\":15062:15084   */\n      lt\n        /* \"#utility.yul\":15041:15059   */\n      0xffffffffffffffff\n        /* \"#utility.yul\":15029:15039   */\n      dup3\n        /* \"#utility.yul\":15026:15060   */\n      gt\n        /* \"#utility.yul\":15023:15085   */\n      or\n        /* \"#utility.yul\":15020:15108   */\n      iszero\n      tag_343\n      jumpi\n        /* \"#utility.yul\":15088:15106   */\n      tag_344\n      tag_308\n      jump\t// in\n    tag_344:\n        /* \"#utility.yul\":15020:15108   */\n    tag_343:\n        /* \"#utility.yul\":15128:15138   */\n      dup1\n        /* \"#utility.yul\":15124:15126   */\n      0x40\n        /* \"#utility.yul\":15117:15139   */\n      mstore\n        /* \"#utility.yul\":14907:15145   */\n      pop\n        /* \"#utility.yul\":14864:15145   */\n      pop\n      pop\n      jump\t// out\n        /* \"#utility.yul\":15151:15384   */\n    tag_70:\n        /* \"#utility.yul\":15190:15193   */\n      0x00\n        /* \"#utility.yul\":15213:15237   */\n      tag_346\n        /* \"#utility.yul\":15231:15236   */\n      dup3\n        /* \"#utility.yul\":15213:15237   */\n      tag_272\n      jump\t// in\n    tag_346:\n        /* \"#utility.yul\":15204:15237   */\n      swap2\n      pop\n        /* \"#utility.yul\":15259:15325   */\n      0xffffffffffffffffffffffffffffffffffffffffffffffffffffffffffffffff\n        /* \"#utility.yul\":15252:15257   */\n      dup3\n        /* \"#utility.yul\":15249:15326   */\n      eq\n        /* \"#utility.yul\":15246:15349   */\n      iszero\n      tag_347\n      jumpi\n        /* \"#utility.yul\":15329:15347   */\n      tag_348\n      tag_323\n      jump\t// in\n    tag_348:\n        /* \"#utility.yul\":15246:15349   */\n    tag_347:\n        /* \"#utility.yul\":15376:15377   */\n      0x01\n        /* \"#utility.yul\":15369:15374   */\n      dup3\n        /* \"#utility.yul\":15365:15378   */\n      add\n        /* \"#utility.yul\":15358:15378   */\n      swap1\n      pop\n        /* \"#utility.yul\":15151:15384   */\n      swap2\n      swap1\n      pop\n      jump\t// out\n        /* \"#utility.yul\":15390:15570   */\n    tag_323:\n        /* \"#utility.yul\":15438:15515   */\n      0x4e487b7100000000000000000000000000000000000000000000000000000000\n        /* \"#utility.yul\":15435:15436   */\n      0x00\n        /* \"#utility.yul\":15428:15516   */\n      mstore\n        /* \"#utility.yul\":15535:15539   */\n      0x11\n        /* \"#utility.yul\":15532:15533   */\n      0x04\n        /* \"#utility.yul\":15525:15540   */\n      mstore\n        /* \"#utility.yul\":15559:15563   */\n      0x24\n        /* \"#utility.yul\":15556:15557   */\n      0x00\n        /* \"#utility.yul\":15549:15564   */\n      revert\n        /* \"#utility.yul\":15576:15756   */\n    tag_340:\n        /* \"#utility.yul\":15624:15701   */\n      0x4e487b7100000000000000000000000000000000000000000000000000000000\n        /* \"#utility.yul\":15621:15622   */\n      0x00\n        /* \"#utility.yul\":15614:15702   */\n      mstore\n        /* \"#utility.yul\":15721:15725   */\n      0x22\n        /* \"#utility.yul\":15718:15719   */\n      0x04\n        /* \"#utility.yul\":15711:15726   */\n      mstore\n        /* \"#utility.yul\":15745:15749   */\n      0x24\n        /* \"#utility.yul\":15742:15743   */\n      0x00\n        /* \"#utility.yul\":15735:15750   */\n      revert\n        /* \"#utility.yul\":15762:15942   */\n    tag_65:\n        /* \"#utility.yul\":15810:15887   */\n      0x4e487b7100000000000000000000000000000000000000000000000000000000\n        /* \"#utility.yul\":15807:15808   */\n      0x00\n        /* \"#utility.yul\":15800:15888   */\n      mstore\n        /* \"#utility.yul\":15907:15911   */\n      0x32\n        /* \"#utility.yul\":15904:15905   */\n      0x04\n        /* \"#utility.yul\":15897:15912   */\n      mstore\n        /* \"#utility.yul\":15931:15935   */\n      0x24\n        /* \"#utility.yul\":15928:15929   */\n      0x00\n        /* \"#utility.yul\":15921:15936   */\n      revert\n        /* \"#utility.yul\":15948:16128   */\n    tag_308:\n        /* \"#utility.yul\":15996:16073   */\n      0x4e487b7100000000000000000000000000000000000000000000000000000000\n        /* \"#utility.yul\":15993:15994   */\n      0x00\n        /* \"#utility.yul\":15986:16074   */\n      mstore\n        /* \"#utility.yul\":16093:16097   */\n      0x41\n        /* \"#utility.yul\":16090:16091   */\n      0x04\n        /* \"#utility.yul\":16083:16098   */\n      mstore\n        /* \"#utility.yul\":16117:16121   */\n      0x24\n        /* \"#utility.yul\":16114:16115   */\n      0x00\n        /* \"#utility.yul\":16107:16122   */\n      revert\n        /* \"#utility.yul\":16134:16251   */\n    tag_173:\n        /* \"#utility.yul\":16243:16244   */\n      0x00\n        /* \"#utility.yul\":16240:16241   */\n      dup1\n        /* \"#utility.yul\":16233:16245   */\n      revert\n        /* \"#utility.yul\":16257:16374   */\n    tag_162:\n        /* \"#utility.yul\":16366:16367   */\n      0x00\n        /* \"#utility.yul\":16363:16364   */\n      dup1\n        /* \"#utility.yul\":16356:16368   */\n      revert\n        /* \"#utility.yul\":16380:16497   */\n    tag_189:\n        /* \"#utility.yul\":16489:16490   */\n      0x00\n        /* \"#utility.yul\":16486:16487   */\n      dup1\n        /* \"#utility.yul\":16479:16491   */\n      revert\n        /* \"#utility.yul\":16503:16620   */\n    tag_182:\n        /* \"#utility.yul\":16612:16613   */\n      0x00\n        /* \"#utility.yul\":16609:16610   */\n      dup1\n        /* \"#utility.yul\":16602:16614   */\n      revert\n        /* \"#utility.yul\":16626:16728   */\n    tag_230:\n        /* \"#utility.yul\":16667:16673   */\n      0x00\n        /* \"#utility.yul\":16718:16720   */\n      0x1f\n        /* \"#utility.yul\":16714:16721   */\n      not\n        /* \"#utility.yul\":16709:16711   */\n      0x1f\n        /* \"#utility.yul\":16702:16707   */\n      dup4\n        /* \"#utility.yul\":16698:16712   */\n      add\n        /* \"#utility.yul\":16694:16722   */\n      and\n        /* \"#utility.yul\":16684:16722   */\n      swap1\n      pop\n        /* \"#utility.yul\":16626:16728   */\n      swap2\n      swap1\n      pop\n      jump\t// out\n        /* \"#utility.yul\":16734:16904   */\n    tag_254:\n        /* \"#utility.yul\":16874:16896   */\n      0x486173206e6f20726967687420746f20766f7465000000000000000000000000\n        /* \"#utility.yul\":16870:16871   */\n      0x00\n        /* \"#utility.yul\":16862:16868   */\n      dup3\n        /* \"#utility.yul\":16858:16872   */\n      add\n        /* \"#utility.yul\":16851:16897   */\n      mstore\n        /* \"#utility.yul\":16734:16904   */\n      pop\n      jump\t// out\n        /* \"#utility.yul\":16910:17144   */\n    tag_259:\n        /* \"#utility.yul\":17050:17084   */\n      0x4f6e6c792074686520636f6e7472616374206f776e65722063616e2067697665\n        /* \"#utility.yul\":17046:17047   */\n      0x00\n        /* \"#utility.yul\":17038:17044   */\n      dup3\n        /* \"#utility.yul\":17034:17048   */\n      add\n        /* \"#utility.yul\":17027:17085   */\n      mstore\n        /* \"#utility.yul\":17119:17136   */\n      0x20726967687420746f20766f74652e0000000000000000000000000000000000\n        /* \"#utility.yul\":17114:17116   */\n      0x20\n        /* \"#utility.yul\":17106:17112   */\n      dup3\n        /* \"#utility.yul\":17102:17117   */\n      add\n        /* \"#utility.yul\":17095:17137   */\n      mstore\n        /* \"#utility.yul\":16910:17144   */\n      pop\n      jump\t// out\n        /* \"#utility.yul\":17150:17314   */\n    tag_264:\n        /* \"#utility.yul\":17290:17306   */\n      0x416c726561647920766f7465642e000000000000000000000000000000000000\n        /* \"#utility.yul\":17286:17287   */\n      0x00\n        /* \"#utility.yul\":17278:17284   */\n      dup3\n        /* \"#utility.yul\":17274:17288   */\n      add\n        /* \"#utility.yul\":17267:17307   */\n      mstore\n        /* \"#utility.yul\":17150:17314   */\n      pop\n      jump\t// out\n        /* \"#utility.yul\":17320:17442   */\n    tag_168:\n        /* \"#utility.yul\":17393:17417   */\n      tag_362\n        /* \"#utility.yul\":17411:17416   */\n      dup2\n        /* \"#utility.yul\":17393:17417   */\n      tag_202\n      jump\t// in\n    tag_362:\n        /* \"#utility.yul\":17386:17391   */\n      dup2\n        /* \"#utility.yul\":17383:17418   */\n      eq\n        /* \"#utility.yul\":17373:17436   */\n      tag_363\n      jumpi\n        /* \"#utility.yul\":17432:17433   */\n      0x00\n        /* \"#utility.yul\":17429:17430   */\n      dup1\n        /* \"#utility.yul\":17422:17434   */\n      revert\n        /* \"#utility.yul\":17373:17436   */\n    tag_363:\n        /* \"#utility.yul\":17320:17442   */\n      pop\n      jump\t// out\n        /* \"#utility.yul\":17448:17570   */\n    tag_178:\n        /* \"#utility.yul\":17521:17545   */\n      tag_365\n        /* \"#utility.yul\":17539:17544   */\n      dup2\n        /* \"#utility.yul\":17521:17545   */\n      tag_272\n      jump\t// in\n    tag_365:\n        /* \"#utility.yul\":17514:17519   */\n      dup2\n        /* \"#utility.yul\":17511:17546   */\n      eq\n        /* \"#utility.yul\":17501:17564   */\n      tag_366\n      jumpi\n        /* \"#utility.yul\":17560:17561   */\n      0x00\n        /* \"#utility.yul\":17557:17558   */\n      dup1\n        /* \"#utility.yul\":17550:17562   */\n      revert\n        /* \"#utility.yul\":17501:17564   */\n    tag_366:\n        /* \"#utility.yul\":17448:17570   */\n      pop\n      jump\t// out\n\n    auxdata: 0xa2646970667358221220636ef6b35609a13f2abd2454fcccac4cc81301bee6f203e32a02e8c519a5b01764736f6c63430008070033\n}\n",
				"bytecode": {
					"linkReferences": {},
					"object": "60806040523480156200001157600080fd5b5060405162001a8038038062001a8083398181016040528101906200003791906200036b565b336000806101000a81548173ffffffffffffffffffffffffffffffffffffffff021916908373ffffffffffffffffffffffffffffffffffffffff16021790555060005b8251811015620001655760026040518060600160405280858481518110620000a757620000a6620005d6565b5b60200260200101518152602001848481518110620000ca57620000c9620005d6565b5b60200260200101518152602001600081525090806001815401808255809150506001900390600052602060002090600302016000909190919091506000820151816000019080519060200190620001239291906200016e565b506020820151816001019080519060200190620001429291906200016e565b5060408201518160020155505080806200015c906200052a565b9150506200007a565b5050506200065e565b8280546200017c90620004be565b90600052602060002090601f016020900481019282620001a05760008555620001ec565b82601f10620001bb57805160ff1916838001178555620001ec565b82800160010185558215620001ec579182015b82811115620001eb578251825591602001919060010190620001ce565b5b509050620001fb9190620001ff565b5090565b5b808211156200021a57600081600090555060010162000200565b5090565b6000620002356200022f8462000419565b620003f0565b905080838252602082019050828560208602820111156200025b576200025a62000639565b5b60005b85811015620002b057815167ffffffffffffffff81111562000285576200028462000634565b5b80860162000294898262000338565b855260208501945060208401935050506001810190506200025e565b5050509392505050565b6000620002d1620002cb8462000448565b620003f0565b905082815260208101848484011115620002f057620002ef6200063e565b5b620002fd84828562000488565b509392505050565b600082601f8301126200031d576200031c62000634565b5b81516200032f8482602086016200021e565b91505092915050565b600082601f83011262000350576200034f62000634565b5b815162000362848260208601620002ba565b91505092915050565b6000806040838503121562000385576200038462000648565b5b600083015167ffffffffffffffff811115620003a657620003a562000643565b5b620003b48582860162000305565b925050602083015167ffffffffffffffff811115620003d857620003d762000643565b5b620003e68582860162000305565b9150509250929050565b6000620003fc6200040f565b90506200040a8282620004f4565b919050565b6000604051905090565b600067ffffffffffffffff82111562000437576200043662000605565b5b602082029050602081019050919050565b600067ffffffffffffffff82111562000466576200046562000605565b5b62000471826200064d565b9050602081019050919050565b6000819050919050565b60005b83811015620004a85780820151818401526020810190506200048b565b83811115620004b8576000848401525b50505050565b60006002820490506001821680620004d757607f821691505b60208210811415620004ee57620004ed620005a7565b5b50919050565b620004ff826200064d565b810181811067ffffffffffffffff8211171562000521576200052062000605565b5b80604052505050565b600062000537826200047e565b91507fffffffffffffffffffffffffffffffffffffffffffffffffffffffffffffffff8214156200056d576200056c62000578565b5b600182019050919050565b7f4e487b7100000000000000000000000000000000000000000000000000000000600052601160045260246000fd5b7f4e487b7100000000000000000000000000000000000000000000000000000000600052602260045260246000fd5b7f4e487b7100000000000000000000000000000000000000000000000000000000600052603260045260246000fd5b7f4e487b7100000000000000000000000000000000000000000000000000000000600052604160045260246000fd5b600080fd5b600080fd5b600080fd5b600080fd5b600080fd5b6000601f19601f8301169050919050565b611412806200066e6000396000f3fe608060405234801561001057600080fd5b50600436106100a95760003560e01c80634aba5f34116100715780634aba5f34146101585780639e7b8d6114610176578063a3ec138d14610192578063ce606ee0146101c3578063f927cc29146101e1578063fc36e15b146101ff576100a9565b806301c5556a146100ae5780630d15fd77146100cc5780632bfda515146100ea57806332a2c5d0146101085780633477ee2e14610126575b600080fd5b6100b661021b565b6040516100c39190610fb4565b60405180910390f35b6100d461027a565b6040516100e19190610fb4565b60405180910390f35b6100f2610280565b6040516100ff9190610ecb565b60405180910390f35b61011061033c565b60405161011d9190610e65565b60405180910390f35b610140600480360381019061013b9190610bc1565b610344565b60405161014f93929190610eed565b60405180910390f35b61016061048e565b60405161016d9190610e80565b60405180910390f35b610190600480360381019061018b9190610b4b565b61061b565b005b6101ac60048036038101906101a79190610b4b565b610796565b6040516101ba929190610ea2565b60405180910390f35b6101cb6107d4565b6040516101d89190610e65565b60405180910390f35b6101e96107f8565b6040516101f69190610fb4565b60405180910390f35b61021960048036038101906102149190610b78565b61087c565b005b600080600090505b60028054905081101561027657600281815481106102445761024361128a565b5b9060005260206000209060030201600201548261026191906110a0565b9150808061026e906111e3565b915050610223565b5090565b60035481565b6060600261028c6107f8565b8154811061029d5761029c61128a565b5b906000526020600020906003020160000180546102b990611180565b80601f01602080910402602001604051908101604052809291908181526020018280546102e590611180565b80156103325780601f1061030757610100808354040283529160200191610332565b820191906000526020600020905b81548152906001019060200180831161031557829003601f168201915b5050505050905090565b600030905090565b6002818154811061035457600080fd5b906000526020600020906003020160009150905080600001805461037790611180565b80601f01602080910402602001604051908101604052809291908181526020018280546103a390611180565b80156103f05780601f106103c5576101008083540402835291602001916103f0565b820191906000526020600020905b8154815290600101906020018083116103d357829003601f168201915b50505050509080600101805461040590611180565b80601f016020809104026020016040519081016040528092919081815260200182805461043190611180565b801561047e5780601f106104535761010080835404028352916020019161047e565b820191906000526020600020905b81548152906001019060200180831161046157829003601f168201915b5050505050908060020154905083565b60606002805480602002602001604051908101604052809291908181526020016000905b8282101561061257838290600052602060002090600302016040518060600160405290816000820180546104e590611180565b80601f016020809104026020016040519081016040528092919081815260200182805461051190611180565b801561055e5780601f106105335761010080835404028352916020019161055e565b820191906000526020600020905b81548152906001019060200180831161054157829003601f168201915b5050505050815260200160018201805461057790611180565b80601f01602080910402602001604051908101604052809291908181526020018280546105a390611180565b80156105f05780601f106105c5576101008083540402835291602001916105f0565b820191906000526020600020905b8154815290600101906020018083116105d357829003601f168201915b50505050508152602001600282015481525050815260200190600101906104b2565b50505050905090565b60008054906101000a900473ffffffffffffffffffffffffffffffffffffffff1673ffffffffffffffffffffffffffffffffffffffff163373ffffffffffffffffffffffffffffffffffffffff16146106a9576040517f08c379a00000000000000000000000000000000000000000000000000000000081526004016106a090610f74565b60405180910390fd5b600160003373ffffffffffffffffffffffffffffffffffffffff1673ffffffffffffffffffffffffffffffffffffffff16815260200190815260200160002060000160019054906101000a900460ff1615610739576040517f08c379a000000000000000000000000000000000000000000000000000000000815260040161073090610f94565b60405180910390fd5b60018060003373ffffffffffffffffffffffffffffffffffffffff1673ffffffffffffffffffffffffffffffffffffffff16815260200190815260200160002060000160006101000a81548160ff02191690831515021790555050565b60016020528060005260406000206000915090508060000160009054906101000a900460ff16908060000160019054906101000a900460ff16905082565b60008054906101000a900473ffffffffffffffffffffffffffffffffffffffff1681565b60008060005b6002805490508110156108775781600282815481106108205761081f61128a565b5b9060005260206000209060030201600201541115610864576002818154811061084c5761084b61128a565b5b90600052602060002090600302016002015491508092505b808061086f906111e3565b9150506107fe565b505090565b600160003373ffffffffffffffffffffffffffffffffffffffff1673ffffffffffffffffffffffffffffffffffffffff16815260200190815260200160002060000160019054906101000a900460ff161561090c576040517f08c379a000000000000000000000000000000000000000000000000000000000815260040161090390610f94565b60405180910390fd5b6000600160003373ffffffffffffffffffffffffffffffffffffffff1673ffffffffffffffffffffffffffffffffffffffff16815260200190815260200160002090508060000160009054906101000a900460ff166109a0576040517f08c379a000000000000000000000000000000000000000000000000000000000815260040161099790610f54565b60405180910390fd5b60005b600280549050811015610aac57826040516020016109c19190610ecb565b60405160208183030381529060405280519060200120600282815481106109eb576109ea61128a565b5b9060005260206000209060030201600001604051602001610a0c9190610f32565b604051602081830303815290604052805190602001201415610a645760028181548110610a3c57610a3b61128a565b5b90600052602060002090600302016002016000815480929190610a5e906111e3565b91905055505b60018260000160016101000a81548160ff02191690831515021790555060036000815480929190610a94906111e3565b91905055508080610aa4906111e3565b9150506109a3565b505050565b6000610ac4610abf84610ff4565b610fcf565b905082815260208101848484011115610ae057610adf6112ed565b5b610aeb84828561113e565b509392505050565b600081359050610b02816113ae565b92915050565b600082601f830112610b1d57610b1c6112e8565b5b8135610b2d848260208601610ab1565b91505092915050565b600081359050610b45816113c5565b92915050565b600060208284031215610b6157610b606112f7565b5b6000610b6f84828501610af3565b91505092915050565b600060208284031215610b8e57610b8d6112f7565b5b600082013567ffffffffffffffff811115610bac57610bab6112f2565b5b610bb884828501610b08565b91505092915050565b600060208284031215610bd757610bd66112f7565b5b6000610be584828501610b36565b91505092915050565b6000610bfa8383610df0565b905092915050565b610c0b816110f6565b82525050565b6000610c1c8261104a565b610c26818561106d565b935083602082028501610c3885611025565b8060005b85811015610c745784840389528151610c558582610bee565b9450610c6083611060565b925060208a01995050600181019050610c3c565b50829750879550505050505092915050565b610c8f81611108565b82525050565b6000610ca082611055565b610caa818561107e565b9350610cba81856020860161114d565b610cc3816112fc565b840191505092915050565b6000610cd982611055565b610ce3818561108f565b9350610cf381856020860161114d565b610cfc816112fc565b840191505092915050565b60008154610d1481611180565b610d1e818661108f565b94506001821660008114610d395760018114610d4b57610d7e565b60ff1983168652602086019350610d7e565b610d5485611035565b60005b83811015610d7657815481890152600182019150602081019050610d57565b808801955050505b50505092915050565b6000610d9460148361108f565b9150610d9f8261130d565b602082019050919050565b6000610db7602f8361108f565b9150610dc282611336565b604082019050919050565b6000610dda600e8361108f565b9150610de582611385565b602082019050919050565b60006060830160008301518482036000860152610e0d8282610c95565b91505060208301518482036020860152610e278282610c95565b9150506040830151610e3c6040860182610e47565b508091505092915050565b610e5081611134565b82525050565b610e5f81611134565b82525050565b6000602082019050610e7a6000830184610c02565b92915050565b60006020820190508181036000830152610e9a8184610c11565b905092915050565b6000604082019050610eb76000830185610c86565b610ec46020830184610c86565b9392505050565b60006020820190508181036000830152610ee58184610cce565b905092915050565b60006060820190508181036000830152610f078186610cce565b90508181036020830152610f1b8185610cce565b9050610f2a6040830184610e56565b949350505050565b60006020820190508181036000830152610f4c8184610d07565b905092915050565b60006020820190508181036000830152610f6d81610d87565b9050919050565b60006020820190508181036000830152610f8d81610daa565b9050919050565b60006020820190508181036000830152610fad81610dcd565b9050919050565b6000602082019050610fc96000830184610e56565b92915050565b6000610fd9610fea565b9050610fe582826111b2565b919050565b6000604051905090565b600067ffffffffffffffff82111561100f5761100e6112b9565b5b611018826112fc565b9050602081019050919050565b6000819050602082019050919050565b60008190508160005260206000209050919050565b600081519050919050565b600081519050919050565b6000602082019050919050565b600082825260208201905092915050565b600082825260208201905092915050565b600082825260208201905092915050565b60006110ab82611134565b91506110b683611134565b9250827fffffffffffffffffffffffffffffffffffffffffffffffffffffffffffffffff038211156110eb576110ea61122c565b5b828201905092915050565b600061110182611114565b9050919050565b60008115159050919050565b600073ffffffffffffffffffffffffffffffffffffffff82169050919050565b6000819050919050565b82818337600083830152505050565b60005b8381101561116b578082015181840152602081019050611150565b8381111561117a576000848401525b50505050565b6000600282049050600182168061119857607f821691505b602082108114156111ac576111ab61125b565b5b50919050565b6111bb826112fc565b810181811067ffffffffffffffff821117156111da576111d96112b9565b5b80604052505050565b60006111ee82611134565b91507fffffffffffffffffffffffffffffffffffffffffffffffffffffffffffffffff8214156112215761122061122c565b5b600182019050919050565b7f4e487b7100000000000000000000000000000000000000000000000000000000600052601160045260246000fd5b7f4e487b7100000000000000000000000000000000000000000000000000000000600052602260045260246000fd5b7f4e487b7100000000000000000000000000000000000000000000000000000000600052603260045260246000fd5b7f4e487b7100000000000000000000000000000000000000000000000000000000600052604160045260246000fd5b600080fd5b600080fd5b600080fd5b600080fd5b6000601f19601f8301169050919050565b7f486173206e6f20726967687420746f20766f7465000000000000000000000000600082015250565b7f4f6e6c792074686520636f6e7472616374206f776e65722063616e206769766560008201527f20726967687420746f20766f74652e0000000000000000000000000000000000602082015250565b7f416c726561647920766f7465642e000000000000000000000000000000000000600082015250565b6113b7816110f6565b81146113c257600080fd5b50565b6113ce81611134565b81146113d957600080fd5b5056fea2646970667358221220636ef6b35609a13f2abd2454fcccac4cc81301bee6f203e32a02e8c519a5b01764736f6c63430008070033",
					"opcodes": "PUSH1 0x80 PUSH1 0x40 MSTORE CALLVALUE DUP1 ISZERO PUSH3 0x11 JUMPI PUSH1 0x0 DUP1 REVERT JUMPDEST POP PUSH1 0x40 MLOAD PUSH3 0x1A80 CODESIZE SUB DUP1 PUSH3 0x1A80 DUP4 CODECOPY DUP2 DUP2 ADD PUSH1 0x40 MSTORE DUP2 ADD SWAP1 PUSH3 0x37 SWAP2 SWAP1 PUSH3 0x36B JUMP JUMPDEST CALLER PUSH1 0x0 DUP1 PUSH2 0x100 EXP DUP2 SLOAD DUP2 PUSH20 0xFFFFFFFFFFFFFFFFFFFFFFFFFFFFFFFFFFFFFFFF MUL NOT AND SWAP1 DUP4 PUSH20 0xFFFFFFFFFFFFFFFFFFFFFFFFFFFFFFFFFFFFFFFF AND MUL OR SWAP1 SSTORE POP PUSH1 0x0 JUMPDEST DUP3 MLOAD DUP2 LT ISZERO PUSH3 0x165 JUMPI PUSH1 0x2 PUSH1 0x40 MLOAD DUP1 PUSH1 0x60 ADD PUSH1 0x40 MSTORE DUP1 DUP6 DUP5 DUP2 MLOAD DUP2 LT PUSH3 0xA7 JUMPI PUSH3 0xA6 PUSH3 0x5D6 JUMP JUMPDEST JUMPDEST PUSH1 0x20 MUL PUSH1 0x20 ADD ADD MLOAD DUP2 MSTORE PUSH1 0x20 ADD DUP5 DUP5 DUP2 MLOAD DUP2 LT PUSH3 0xCA JUMPI PUSH3 0xC9 PUSH3 0x5D6 JUMP JUMPDEST JUMPDEST PUSH1 0x20 MUL PUSH1 0x20 ADD ADD MLOAD DUP2 MSTORE PUSH1 0x20 ADD PUSH1 0x0 DUP2 MSTORE POP SWAP1 DUP1 PUSH1 0x1 DUP2 SLOAD ADD DUP1 DUP3 SSTORE DUP1 SWAP2 POP POP PUSH1 0x1 SWAP1 SUB SWAP1 PUSH1 0x0 MSTORE PUSH1 0x20 PUSH1 0x0 KECCAK256 SWAP1 PUSH1 0x3 MUL ADD PUSH1 0x0 SWAP1 SWAP2 SWAP1 SWAP2 SWAP1 SWAP2 POP PUSH1 0x0 DUP3 ADD MLOAD DUP2 PUSH1 0x0 ADD SWAP1 DUP1 MLOAD SWAP1 PUSH1 0x20 ADD SWAP1 PUSH3 0x123 SWAP3 SWAP2 SWAP1 PUSH3 0x16E JUMP JUMPDEST POP PUSH1 0x20 DUP3 ADD MLOAD DUP2 PUSH1 0x1 ADD SWAP1 DUP1 MLOAD SWAP1 PUSH1 0x20 ADD SWAP1 PUSH3 0x142 SWAP3 SWAP2 SWAP1 PUSH3 0x16E JUMP JUMPDEST POP PUSH1 0x40 DUP3 ADD MLOAD DUP2 PUSH1 0x2 ADD SSTORE POP POP DUP1 DUP1 PUSH3 0x15C SWAP1 PUSH3 0x52A JUMP JUMPDEST SWAP2 POP POP PUSH3 0x7A JUMP JUMPDEST POP POP POP PUSH3 0x65E JUMP JUMPDEST DUP3 DUP1 SLOAD PUSH3 0x17C SWAP1 PUSH3 0x4BE JUMP JUMPDEST SWAP1 PUSH1 0x0 MSTORE PUSH1 0x20 PUSH1 0x0 KECCAK256 SWAP1 PUSH1 0x1F ADD PUSH1 0x20 SWAP1 DIV DUP2 ADD SWAP3 DUP3 PUSH3 0x1A0 JUMPI PUSH1 0x0 DUP6 SSTORE PUSH3 0x1EC JUMP JUMPDEST DUP3 PUSH1 0x1F LT PUSH3 0x1BB JUMPI DUP1 MLOAD PUSH1 0xFF NOT AND DUP4 DUP1 ADD OR DUP6 SSTORE PUSH3 0x1EC JUMP JUMPDEST DUP3 DUP1 ADD PUSH1 0x1 ADD DUP6 SSTORE DUP3 ISZERO PUSH3 0x1EC JUMPI SWAP2 DUP3 ADD JUMPDEST DUP3 DUP2 GT ISZERO PUSH3 0x1EB JUMPI DUP3 MLOAD DUP3 SSTORE SWAP2 PUSH1 0x20 ADD SWAP2 SWAP1 PUSH1 0x1 ADD SWAP1 PUSH3 0x1CE JUMP JUMPDEST JUMPDEST POP SWAP1 POP PUSH3 0x1FB SWAP2 SWAP1 PUSH3 0x1FF JUMP JUMPDEST POP SWAP1 JUMP JUMPDEST JUMPDEST DUP1 DUP3 GT ISZERO PUSH3 0x21A JUMPI PUSH1 0x0 DUP2 PUSH1 0x0 SWAP1 SSTORE POP PUSH1 0x1 ADD PUSH3 0x200 JUMP JUMPDEST POP SWAP1 JUMP JUMPDEST PUSH1 0x0 PUSH3 0x235 PUSH3 0x22F DUP5 PUSH3 0x419 JUMP JUMPDEST PUSH3 0x3F0 JUMP JUMPDEST SWAP1 POP DUP1 DUP4 DUP3 MSTORE PUSH1 0x20 DUP3 ADD SWAP1 POP DUP3 DUP6 PUSH1 0x20 DUP7 MUL DUP3 ADD GT ISZERO PUSH3 0x25B JUMPI PUSH3 0x25A PUSH3 0x639 JUMP JUMPDEST JUMPDEST PUSH1 0x0 JUMPDEST DUP6 DUP2 LT ISZERO PUSH3 0x2B0 JUMPI DUP2 MLOAD PUSH8 0xFFFFFFFFFFFFFFFF DUP2 GT ISZERO PUSH3 0x285 JUMPI PUSH3 0x284 PUSH3 0x634 JUMP JUMPDEST JUMPDEST DUP1 DUP7 ADD PUSH3 0x294 DUP10 DUP3 PUSH3 0x338 JUMP JUMPDEST DUP6 MSTORE PUSH1 0x20 DUP6 ADD SWAP5 POP PUSH1 0x20 DUP5 ADD SWAP4 POP POP POP PUSH1 0x1 DUP2 ADD SWAP1 POP PUSH3 0x25E JUMP JUMPDEST POP POP POP SWAP4 SWAP3 POP POP POP JUMP JUMPDEST PUSH1 0x0 PUSH3 0x2D1 PUSH3 0x2CB DUP5 PUSH3 0x448 JUMP JUMPDEST PUSH3 0x3F0 JUMP JUMPDEST SWAP1 POP DUP3 DUP2 MSTORE PUSH1 0x20 DUP2 ADD DUP5 DUP5 DUP5 ADD GT ISZERO PUSH3 0x2F0 JUMPI PUSH3 0x2EF PUSH3 0x63E JUMP JUMPDEST JUMPDEST PUSH3 0x2FD DUP5 DUP3 DUP6 PUSH3 0x488 JUMP JUMPDEST POP SWAP4 SWAP3 POP POP POP JUMP JUMPDEST PUSH1 0x0 DUP3 PUSH1 0x1F DUP4 ADD SLT PUSH3 0x31D JUMPI PUSH3 0x31C PUSH3 0x634 JUMP JUMPDEST JUMPDEST DUP2 MLOAD PUSH3 0x32F DUP5 DUP3 PUSH1 0x20 DUP7 ADD PUSH3 0x21E JUMP JUMPDEST SWAP2 POP POP SWAP3 SWAP2 POP POP JUMP JUMPDEST PUSH1 0x0 DUP3 PUSH1 0x1F DUP4 ADD SLT PUSH3 0x350 JUMPI PUSH3 0x34F PUSH3 0x634 JUMP JUMPDEST JUMPDEST DUP2 MLOAD PUSH3 0x362 DUP5 DUP3 PUSH1 0x20 DUP7 ADD PUSH3 0x2BA JUMP JUMPDEST SWAP2 POP POP SWAP3 SWAP2 POP POP JUMP JUMPDEST PUSH1 0x0 DUP1 PUSH1 0x40 DUP4 DUP6 SUB SLT ISZERO PUSH3 0x385 JUMPI PUSH3 0x384 PUSH3 0x648 JUMP JUMPDEST JUMPDEST PUSH1 0x0 DUP4 ADD MLOAD PUSH8 0xFFFFFFFFFFFFFFFF DUP2 GT ISZERO PUSH3 0x3A6 JUMPI PUSH3 0x3A5 PUSH3 0x643 JUMP JUMPDEST JUMPDEST PUSH3 0x3B4 DUP6 DUP3 DUP7 ADD PUSH3 0x305 JUMP JUMPDEST SWAP3 POP POP PUSH1 0x20 DUP4 ADD MLOAD PUSH8 0xFFFFFFFFFFFFFFFF DUP2 GT ISZERO PUSH3 0x3D8 JUMPI PUSH3 0x3D7 PUSH3 0x643 JUMP JUMPDEST JUMPDEST PUSH3 0x3E6 DUP6 DUP3 DUP7 ADD PUSH3 0x305 JUMP JUMPDEST SWAP2 POP POP SWAP3 POP SWAP3 SWAP1 POP JUMP JUMPDEST PUSH1 0x0 PUSH3 0x3FC PUSH3 0x40F JUMP JUMPDEST SWAP1 POP PUSH3 0x40A DUP3 DUP3 PUSH3 0x4F4 JUMP JUMPDEST SWAP2 SWAP1 POP JUMP JUMPDEST PUSH1 0x0 PUSH1 0x40 MLOAD SWAP1 POP SWAP1 JUMP JUMPDEST PUSH1 0x0 PUSH8 0xFFFFFFFFFFFFFFFF DUP3 GT ISZERO PUSH3 0x437 JUMPI PUSH3 0x436 PUSH3 0x605 JUMP JUMPDEST JUMPDEST PUSH1 0x20 DUP3 MUL SWAP1 POP PUSH1 0x20 DUP2 ADD SWAP1 POP SWAP2 SWAP1 POP JUMP JUMPDEST PUSH1 0x0 PUSH8 0xFFFFFFFFFFFFFFFF DUP3 GT ISZERO PUSH3 0x466 JUMPI PUSH3 0x465 PUSH3 0x605 JUMP JUMPDEST JUMPDEST PUSH3 0x471 DUP3 PUSH3 0x64D JUMP JUMPDEST SWAP1 POP PUSH1 0x20 DUP2 ADD SWAP1 POP SWAP2 SWAP1 POP JUMP JUMPDEST PUSH1 0x0 DUP2 SWAP1 POP SWAP2 SWAP1 POP JUMP JUMPDEST PUSH1 0x0 JUMPDEST DUP4 DUP2 LT ISZERO PUSH3 0x4A8 JUMPI DUP1 DUP3 ADD MLOAD DUP2 DUP5 ADD MSTORE PUSH1 0x20 DUP2 ADD SWAP1 POP PUSH3 0x48B JUMP JUMPDEST DUP4 DUP2 GT ISZERO PUSH3 0x4B8 JUMPI PUSH1 0x0 DUP5 DUP5 ADD MSTORE JUMPDEST POP POP POP POP JUMP JUMPDEST PUSH1 0x0 PUSH1 0x2 DUP3 DIV SWAP1 POP PUSH1 0x1 DUP3 AND DUP1 PUSH3 0x4D7 JUMPI PUSH1 0x7F DUP3 AND SWAP2 POP JUMPDEST PUSH1 0x20 DUP3 LT DUP2 EQ ISZERO PUSH3 0x4EE JUMPI PUSH3 0x4ED PUSH3 0x5A7 JUMP JUMPDEST JUMPDEST POP SWAP2 SWAP1 POP JUMP JUMPDEST PUSH3 0x4FF DUP3 PUSH3 0x64D JUMP JUMPDEST DUP2 ADD DUP2 DUP2 LT PUSH8 0xFFFFFFFFFFFFFFFF DUP3 GT OR ISZERO PUSH3 0x521 JUMPI PUSH3 0x520 PUSH3 0x605 JUMP JUMPDEST JUMPDEST DUP1 PUSH1 0x40 MSTORE POP POP POP JUMP JUMPDEST PUSH1 0x0 PUSH3 0x537 DUP3 PUSH3 0x47E JUMP JUMPDEST SWAP2 POP PUSH32 0xFFFFFFFFFFFFFFFFFFFFFFFFFFFFFFFFFFFFFFFFFFFFFFFFFFFFFFFFFFFFFFFF DUP3 EQ ISZERO PUSH3 0x56D JUMPI PUSH3 0x56C PUSH3 0x578 JUMP JUMPDEST JUMPDEST PUSH1 0x1 DUP3 ADD SWAP1 POP SWAP2 SWAP1 POP JUMP JUMPDEST PUSH32 0x4E487B7100000000000000000000000000000000000000000000000000000000 PUSH1 0x0 MSTORE PUSH1 0x11 PUSH1 0x4 MSTORE PUSH1 0x24 PUSH1 0x0 REVERT JUMPDEST PUSH32 0x4E487B7100000000000000000000000000000000000000000000000000000000 PUSH1 0x0 MSTORE PUSH1 0x22 PUSH1 0x4 MSTORE PUSH1 0x24 PUSH1 0x0 REVERT JUMPDEST PUSH32 0x4E487B7100000000000000000000000000000000000000000000000000000000 PUSH1 0x0 MSTORE PUSH1 0x32 PUSH1 0x4 MSTORE PUSH1 0x24 PUSH1 0x0 REVERT JUMPDEST PUSH32 0x4E487B7100000000000000000000000000000000000000000000000000000000 PUSH1 0x0 MSTORE PUSH1 0x41 PUSH1 0x4 MSTORE PUSH1 0x24 PUSH1 0x0 REVERT JUMPDEST PUSH1 0x0 DUP1 REVERT JUMPDEST PUSH1 0x0 DUP1 REVERT JUMPDEST PUSH1 0x0 DUP1 REVERT JUMPDEST PUSH1 0x0 DUP1 REVERT JUMPDEST PUSH1 0x0 DUP1 REVERT JUMPDEST PUSH1 0x0 PUSH1 0x1F NOT PUSH1 0x1F DUP4 ADD AND SWAP1 POP SWAP2 SWAP1 POP JUMP JUMPDEST PUSH2 0x1412 DUP1 PUSH3 0x66E PUSH1 0x0 CODECOPY PUSH1 0x0 RETURN INVALID PUSH1 0x80 PUSH1 0x40 MSTORE CALLVALUE DUP1 ISZERO PUSH2 0x10 JUMPI PUSH1 0x0 DUP1 REVERT JUMPDEST POP PUSH1 0x4 CALLDATASIZE LT PUSH2 0xA9 JUMPI PUSH1 0x0 CALLDATALOAD PUSH1 0xE0 SHR DUP1 PUSH4 0x4ABA5F34 GT PUSH2 0x71 JUMPI DUP1 PUSH4 0x4ABA5F34 EQ PUSH2 0x158 JUMPI DUP1 PUSH4 0x9E7B8D61 EQ PUSH2 0x176 JUMPI DUP1 PUSH4 0xA3EC138D EQ PUSH2 0x192 JUMPI DUP1 PUSH4 0xCE606EE0 EQ PUSH2 0x1C3 JUMPI DUP1 PUSH4 0xF927CC29 EQ PUSH2 0x1E1 JUMPI DUP1 PUSH4 0xFC36E15B EQ PUSH2 0x1FF JUMPI PUSH2 0xA9 JUMP JUMPDEST DUP1 PUSH4 0x1C5556A EQ PUSH2 0xAE JUMPI DUP1 PUSH4 0xD15FD77 EQ PUSH2 0xCC JUMPI DUP1 PUSH4 0x2BFDA515 EQ PUSH2 0xEA JUMPI DUP1 PUSH4 0x32A2C5D0 EQ PUSH2 0x108 JUMPI DUP1 PUSH4 0x3477EE2E EQ PUSH2 0x126 JUMPI JUMPDEST PUSH1 0x0 DUP1 REVERT JUMPDEST PUSH2 0xB6 PUSH2 0x21B JUMP JUMPDEST PUSH1 0x40 MLOAD PUSH2 0xC3 SWAP2 SWAP1 PUSH2 0xFB4 JUMP JUMPDEST PUSH1 0x40 MLOAD DUP1 SWAP2 SUB SWAP1 RETURN JUMPDEST PUSH2 0xD4 PUSH2 0x27A JUMP JUMPDEST PUSH1 0x40 MLOAD PUSH2 0xE1 SWAP2 SWAP1 PUSH2 0xFB4 JUMP JUMPDEST PUSH1 0x40 MLOAD DUP1 SWAP2 SUB SWAP1 RETURN JUMPDEST PUSH2 0xF2 PUSH2 0x280 JUMP JUMPDEST PUSH1 0x40 MLOAD PUSH2 0xFF SWAP2 SWAP1 PUSH2 0xECB JUMP JUMPDEST PUSH1 0x40 MLOAD DUP1 SWAP2 SUB SWAP1 RETURN JUMPDEST PUSH2 0x110 PUSH2 0x33C JUMP JUMPDEST PUSH1 0x40 MLOAD PUSH2 0x11D SWAP2 SWAP1 PUSH2 0xE65 JUMP JUMPDEST PUSH1 0x40 MLOAD DUP1 SWAP2 SUB SWAP1 RETURN JUMPDEST PUSH2 0x140 PUSH1 0x4 DUP1 CALLDATASIZE SUB DUP2 ADD SWAP1 PUSH2 0x13B SWAP2 SWAP1 PUSH2 0xBC1 JUMP JUMPDEST PUSH2 0x344 JUMP JUMPDEST PUSH1 0x40 MLOAD PUSH2 0x14F SWAP4 SWAP3 SWAP2 SWAP1 PUSH2 0xEED JUMP JUMPDEST PUSH1 0x40 MLOAD DUP1 SWAP2 SUB SWAP1 RETURN JUMPDEST PUSH2 0x160 PUSH2 0x48E JUMP JUMPDEST PUSH1 0x40 MLOAD PUSH2 0x16D SWAP2 SWAP1 PUSH2 0xE80 JUMP JUMPDEST PUSH1 0x40 MLOAD DUP1 SWAP2 SUB SWAP1 RETURN JUMPDEST PUSH2 0x190 PUSH1 0x4 DUP1 CALLDATASIZE SUB DUP2 ADD SWAP1 PUSH2 0x18B SWAP2 SWAP1 PUSH2 0xB4B JUMP JUMPDEST PUSH2 0x61B JUMP JUMPDEST STOP JUMPDEST PUSH2 0x1AC PUSH1 0x4 DUP1 CALLDATASIZE SUB DUP2 ADD SWAP1 PUSH2 0x1A7 SWAP2 SWAP1 PUSH2 0xB4B JUMP JUMPDEST PUSH2 0x796 JUMP JUMPDEST PUSH1 0x40 MLOAD PUSH2 0x1BA SWAP3 SWAP2 SWAP1 PUSH2 0xEA2 JUMP JUMPDEST PUSH1 0x40 MLOAD DUP1 SWAP2 SUB SWAP1 RETURN JUMPDEST PUSH2 0x1CB PUSH2 0x7D4 JUMP JUMPDEST PUSH1 0x40 MLOAD PUSH2 0x1D8 SWAP2 SWAP1 PUSH2 0xE65 JUMP JUMPDEST PUSH1 0x40 MLOAD DUP1 SWAP2 SUB SWAP1 RETURN JUMPDEST PUSH2 0x1E9 PUSH2 0x7F8 JUMP JUMPDEST PUSH1 0x40 MLOAD PUSH2 0x1F6 SWAP2 SWAP1 PUSH2 0xFB4 JUMP JUMPDEST PUSH1 0x40 MLOAD DUP1 SWAP2 SUB SWAP1 RETURN JUMPDEST PUSH2 0x219 PUSH1 0x4 DUP1 CALLDATASIZE SUB DUP2 ADD SWAP1 PUSH2 0x214 SWAP2 SWAP1 PUSH2 0xB78 JUMP JUMPDEST PUSH2 0x87C JUMP JUMPDEST STOP JUMPDEST PUSH1 0x0 DUP1 PUSH1 0x0 SWAP1 POP JUMPDEST PUSH1 0x2 DUP1 SLOAD SWAP1 POP DUP2 LT ISZERO PUSH2 0x276 JUMPI PUSH1 0x2 DUP2 DUP2 SLOAD DUP2 LT PUSH2 0x244 JUMPI PUSH2 0x243 PUSH2 0x128A JUMP JUMPDEST JUMPDEST SWAP1 PUSH1 0x0 MSTORE PUSH1 0x20 PUSH1 0x0 KECCAK256 SWAP1 PUSH1 0x3 MUL ADD PUSH1 0x2 ADD SLOAD DUP3 PUSH2 0x261 SWAP2 SWAP1 PUSH2 0x10A0 JUMP JUMPDEST SWAP2 POP DUP1 DUP1 PUSH2 0x26E SWAP1 PUSH2 0x11E3 JUMP JUMPDEST SWAP2 POP POP PUSH2 0x223 JUMP JUMPDEST POP SWAP1 JUMP JUMPDEST PUSH1 0x3 SLOAD DUP2 JUMP JUMPDEST PUSH1 0x60 PUSH1 0x2 PUSH2 0x28C PUSH2 0x7F8 JUMP JUMPDEST DUP2 SLOAD DUP2 LT PUSH2 0x29D JUMPI PUSH2 0x29C PUSH2 0x128A JUMP JUMPDEST JUMPDEST SWAP1 PUSH1 0x0 MSTORE PUSH1 0x20 PUSH1 0x0 KECCAK256 SWAP1 PUSH1 0x3 MUL ADD PUSH1 0x0 ADD DUP1 SLOAD PUSH2 0x2B9 SWAP1 PUSH2 0x1180 JUMP JUMPDEST DUP1 PUSH1 0x1F ADD PUSH1 0x20 DUP1 SWAP2 DIV MUL PUSH1 0x20 ADD PUSH1 0x40 MLOAD SWAP1 DUP2 ADD PUSH1 0x40 MSTORE DUP1 SWAP3 SWAP2 SWAP1 DUP2 DUP2 MSTORE PUSH1 0x20 ADD DUP3 DUP1 SLOAD PUSH2 0x2E5 SWAP1 PUSH2 0x1180 JUMP JUMPDEST DUP1 ISZERO PUSH2 0x332 JUMPI DUP1 PUSH1 0x1F LT PUSH2 0x307 JUMPI PUSH2 0x100 DUP1 DUP4 SLOAD DIV MUL DUP4 MSTORE SWAP2 PUSH1 0x20 ADD SWAP2 PUSH2 0x332 JUMP JUMPDEST DUP3 ADD SWAP2 SWAP1 PUSH1 0x0 MSTORE PUSH1 0x20 PUSH1 0x0 KECCAK256 SWAP1 JUMPDEST DUP2 SLOAD DUP2 MSTORE SWAP1 PUSH1 0x1 ADD SWAP1 PUSH1 0x20 ADD DUP1 DUP4 GT PUSH2 0x315 JUMPI DUP3 SWAP1 SUB PUSH1 0x1F AND DUP3 ADD SWAP2 JUMPDEST POP POP POP POP POP SWAP1 POP SWAP1 JUMP JUMPDEST PUSH1 0x0 ADDRESS SWAP1 POP SWAP1 JUMP JUMPDEST PUSH1 0x2 DUP2 DUP2 SLOAD DUP2 LT PUSH2 0x354 JUMPI PUSH1 0x0 DUP1 REVERT JUMPDEST SWAP1 PUSH1 0x0 MSTORE PUSH1 0x20 PUSH1 0x0 KECCAK256 SWAP1 PUSH1 0x3 MUL ADD PUSH1 0x0 SWAP2 POP SWAP1 POP DUP1 PUSH1 0x0 ADD DUP1 SLOAD PUSH2 0x377 SWAP1 PUSH2 0x1180 JUMP JUMPDEST DUP1 PUSH1 0x1F ADD PUSH1 0x20 DUP1 SWAP2 DIV MUL PUSH1 0x20 ADD PUSH1 0x40 MLOAD SWAP1 DUP2 ADD PUSH1 0x40 MSTORE DUP1 SWAP3 SWAP2 SWAP1 DUP2 DUP2 MSTORE PUSH1 0x20 ADD DUP3 DUP1 SLOAD PUSH2 0x3A3 SWAP1 PUSH2 0x1180 JUMP JUMPDEST DUP1 ISZERO PUSH2 0x3F0 JUMPI DUP1 PUSH1 0x1F LT PUSH2 0x3C5 JUMPI PUSH2 0x100 DUP1 DUP4 SLOAD DIV MUL DUP4 MSTORE SWAP2 PUSH1 0x20 ADD SWAP2 PUSH2 0x3F0 JUMP JUMPDEST DUP3 ADD SWAP2 SWAP1 PUSH1 0x0 MSTORE PUSH1 0x20 PUSH1 0x0 KECCAK256 SWAP1 JUMPDEST DUP2 SLOAD DUP2 MSTORE SWAP1 PUSH1 0x1 ADD SWAP1 PUSH1 0x20 ADD DUP1 DUP4 GT PUSH2 0x3D3 JUMPI DUP3 SWAP1 SUB PUSH1 0x1F AND DUP3 ADD SWAP2 JUMPDEST POP POP POP POP POP SWAP1 DUP1 PUSH1 0x1 ADD DUP1 SLOAD PUSH2 0x405 SWAP1 PUSH2 0x1180 JUMP JUMPDEST DUP1 PUSH1 0x1F ADD PUSH1 0x20 DUP1 SWAP2 DIV MUL PUSH1 0x20 ADD PUSH1 0x40 MLOAD SWAP1 DUP2 ADD PUSH1 0x40 MSTORE DUP1 SWAP3 SWAP2 SWAP1 DUP2 DUP2 MSTORE PUSH1 0x20 ADD DUP3 DUP1 SLOAD PUSH2 0x431 SWAP1 PUSH2 0x1180 JUMP JUMPDEST DUP1 ISZERO PUSH2 0x47E JUMPI DUP1 PUSH1 0x1F LT PUSH2 0x453 JUMPI PUSH2 0x100 DUP1 DUP4 SLOAD DIV MUL DUP4 MSTORE SWAP2 PUSH1 0x20 ADD SWAP2 PUSH2 0x47E JUMP JUMPDEST DUP3 ADD SWAP2 SWAP1 PUSH1 0x0 MSTORE PUSH1 0x20 PUSH1 0x0 KECCAK256 SWAP1 JUMPDEST DUP2 SLOAD DUP2 MSTORE SWAP1 PUSH1 0x1 ADD SWAP1 PUSH1 0x20 ADD DUP1 DUP4 GT PUSH2 0x461 JUMPI DUP3 SWAP1 SUB PUSH1 0x1F AND DUP3 ADD SWAP2 JUMPDEST POP POP POP POP POP SWAP1 DUP1 PUSH1 0x2 ADD SLOAD SWAP1 POP DUP4 JUMP JUMPDEST PUSH1 0x60 PUSH1 0x2 DUP1 SLOAD DUP1 PUSH1 0x20 MUL PUSH1 0x20 ADD PUSH1 0x40 MLOAD SWAP1 DUP2 ADD PUSH1 0x40 MSTORE DUP1 SWAP3 SWAP2 SWAP1 DUP2 DUP2 MSTORE PUSH1 0x20 ADD PUSH1 0x0 SWAP1 JUMPDEST DUP3 DUP3 LT ISZERO PUSH2 0x612 JUMPI DUP4 DUP3 SWAP1 PUSH1 0x0 MSTORE PUSH1 0x20 PUSH1 0x0 KECCAK256 SWAP1 PUSH1 0x3 MUL ADD PUSH1 0x40 MLOAD DUP1 PUSH1 0x60 ADD PUSH1 0x40 MSTORE SWAP1 DUP2 PUSH1 0x0 DUP3 ADD DUP1 SLOAD PUSH2 0x4E5 SWAP1 PUSH2 0x1180 JUMP JUMPDEST DUP1 PUSH1 0x1F ADD PUSH1 0x20 DUP1 SWAP2 DIV MUL PUSH1 0x20 ADD PUSH1 0x40 MLOAD SWAP1 DUP2 ADD PUSH1 0x40 MSTORE DUP1 SWAP3 SWAP2 SWAP1 DUP2 DUP2 MSTORE PUSH1 0x20 ADD DUP3 DUP1 SLOAD PUSH2 0x511 SWAP1 PUSH2 0x1180 JUMP JUMPDEST DUP1 ISZERO PUSH2 0x55E JUMPI DUP1 PUSH1 0x1F LT PUSH2 0x533 JUMPI PUSH2 0x100 DUP1 DUP4 SLOAD DIV MUL DUP4 MSTORE SWAP2 PUSH1 0x20 ADD SWAP2 PUSH2 0x55E JUMP JUMPDEST DUP3 ADD SWAP2 SWAP1 PUSH1 0x0 MSTORE PUSH1 0x20 PUSH1 0x0 KECCAK256 SWAP1 JUMPDEST DUP2 SLOAD DUP2 MSTORE SWAP1 PUSH1 0x1 ADD SWAP1 PUSH1 0x20 ADD DUP1 DUP4 GT PUSH2 0x541 JUMPI DUP3 SWAP1 SUB PUSH1 0x1F AND DUP3 ADD SWAP2 JUMPDEST POP POP POP POP POP DUP2 MSTORE PUSH1 0x20 ADD PUSH1 0x1 DUP3 ADD DUP1 SLOAD PUSH2 0x577 SWAP1 PUSH2 0x1180 JUMP JUMPDEST DUP1 PUSH1 0x1F ADD PUSH1 0x20 DUP1 SWAP2 DIV MUL PUSH1 0x20 ADD PUSH1 0x40 MLOAD SWAP1 DUP2 ADD PUSH1 0x40 MSTORE DUP1 SWAP3 SWAP2 SWAP1 DUP2 DUP2 MSTORE PUSH1 0x20 ADD DUP3 DUP1 SLOAD PUSH2 0x5A3 SWAP1 PUSH2 0x1180 JUMP JUMPDEST DUP1 ISZERO PUSH2 0x5F0 JUMPI DUP1 PUSH1 0x1F LT PUSH2 0x5C5 JUMPI PUSH2 0x100 DUP1 DUP4 SLOAD DIV MUL DUP4 MSTORE SWAP2 PUSH1 0x20 ADD SWAP2 PUSH2 0x5F0 JUMP JUMPDEST DUP3 ADD SWAP2 SWAP1 PUSH1 0x0 MSTORE PUSH1 0x20 PUSH1 0x0 KECCAK256 SWAP1 JUMPDEST DUP2 SLOAD DUP2 MSTORE SWAP1 PUSH1 0x1 ADD SWAP1 PUSH1 0x20 ADD DUP1 DUP4 GT PUSH2 0x5D3 JUMPI DUP3 SWAP1 SUB PUSH1 0x1F AND DUP3 ADD SWAP2 JUMPDEST POP POP POP POP POP DUP2 MSTORE PUSH1 0x20 ADD PUSH1 0x2 DUP3 ADD SLOAD DUP2 MSTORE POP POP DUP2 MSTORE PUSH1 0x20 ADD SWAP1 PUSH1 0x1 ADD SWAP1 PUSH2 0x4B2 JUMP JUMPDEST POP POP POP POP SWAP1 POP SWAP1 JUMP JUMPDEST PUSH1 0x0 DUP1 SLOAD SWAP1 PUSH2 0x100 EXP SWAP1 DIV PUSH20 0xFFFFFFFFFFFFFFFFFFFFFFFFFFFFFFFFFFFFFFFF AND PUSH20 0xFFFFFFFFFFFFFFFFFFFFFFFFFFFFFFFFFFFFFFFF AND CALLER PUSH20 0xFFFFFFFFFFFFFFFFFFFFFFFFFFFFFFFFFFFFFFFF AND EQ PUSH2 0x6A9 JUMPI PUSH1 0x40 MLOAD PUSH32 0x8C379A000000000000000000000000000000000000000000000000000000000 DUP2 MSTORE PUSH1 0x4 ADD PUSH2 0x6A0 SWAP1 PUSH2 0xF74 JUMP JUMPDEST PUSH1 0x40 MLOAD DUP1 SWAP2 SUB SWAP1 REVERT JUMPDEST PUSH1 0x1 PUSH1 0x0 CALLER PUSH20 0xFFFFFFFFFFFFFFFFFFFFFFFFFFFFFFFFFFFFFFFF AND PUSH20 0xFFFFFFFFFFFFFFFFFFFFFFFFFFFFFFFFFFFFFFFF AND DUP2 MSTORE PUSH1 0x20 ADD SWAP1 DUP2 MSTORE PUSH1 0x20 ADD PUSH1 0x0 KECCAK256 PUSH1 0x0 ADD PUSH1 0x1 SWAP1 SLOAD SWAP1 PUSH2 0x100 EXP SWAP1 DIV PUSH1 0xFF AND ISZERO PUSH2 0x739 JUMPI PUSH1 0x40 MLOAD PUSH32 0x8C379A000000000000000000000000000000000000000000000000000000000 DUP2 MSTORE PUSH1 0x4 ADD PUSH2 0x730 SWAP1 PUSH2 0xF94 JUMP JUMPDEST PUSH1 0x40 MLOAD DUP1 SWAP2 SUB SWAP1 REVERT JUMPDEST PUSH1 0x1 DUP1 PUSH1 0x0 CALLER PUSH20 0xFFFFFFFFFFFFFFFFFFFFFFFFFFFFFFFFFFFFFFFF AND PUSH20 0xFFFFFFFFFFFFFFFFFFFFFFFFFFFFFFFFFFFFFFFF AND DUP2 MSTORE PUSH1 0x20 ADD SWAP1 DUP2 MSTORE PUSH1 0x20 ADD PUSH1 0x0 KECCAK256 PUSH1 0x0 ADD PUSH1 0x0 PUSH2 0x100 EXP DUP2 SLOAD DUP2 PUSH1 0xFF MUL NOT AND SWAP1 DUP4 ISZERO ISZERO MUL OR SWAP1 SSTORE POP POP JUMP JUMPDEST PUSH1 0x1 PUSH1 0x20 MSTORE DUP1 PUSH1 0x0 MSTORE PUSH1 0x40 PUSH1 0x0 KECCAK256 PUSH1 0x0 SWAP2 POP SWAP1 POP DUP1 PUSH1 0x0 ADD PUSH1 0x0 SWAP1 SLOAD SWAP1 PUSH2 0x100 EXP SWAP1 DIV PUSH1 0xFF AND SWAP1 DUP1 PUSH1 0x0 ADD PUSH1 0x1 SWAP1 SLOAD SWAP1 PUSH2 0x100 EXP SWAP1 DIV PUSH1 0xFF AND SWAP1 POP DUP3 JUMP JUMPDEST PUSH1 0x0 DUP1 SLOAD SWAP1 PUSH2 0x100 EXP SWAP1 DIV PUSH20 0xFFFFFFFFFFFFFFFFFFFFFFFFFFFFFFFFFFFFFFFF AND DUP2 JUMP JUMPDEST PUSH1 0x0 DUP1 PUSH1 0x0 JUMPDEST PUSH1 0x2 DUP1 SLOAD SWAP1 POP DUP2 LT ISZERO PUSH2 0x877 JUMPI DUP2 PUSH1 0x2 DUP3 DUP2 SLOAD DUP2 LT PUSH2 0x820 JUMPI PUSH2 0x81F PUSH2 0x128A JUMP JUMPDEST JUMPDEST SWAP1 PUSH1 0x0 MSTORE PUSH1 0x20 PUSH1 0x0 KECCAK256 SWAP1 PUSH1 0x3 MUL ADD PUSH1 0x2 ADD SLOAD GT ISZERO PUSH2 0x864 JUMPI PUSH1 0x2 DUP2 DUP2 SLOAD DUP2 LT PUSH2 0x84C JUMPI PUSH2 0x84B PUSH2 0x128A JUMP JUMPDEST JUMPDEST SWAP1 PUSH1 0x0 MSTORE PUSH1 0x20 PUSH1 0x0 KECCAK256 SWAP1 PUSH1 0x3 MUL ADD PUSH1 0x2 ADD SLOAD SWAP2 POP DUP1 SWAP3 POP JUMPDEST DUP1 DUP1 PUSH2 0x86F SWAP1 PUSH2 0x11E3 JUMP JUMPDEST SWAP2 POP POP PUSH2 0x7FE JUMP JUMPDEST POP POP SWAP1 JUMP JUMPDEST PUSH1 0x1 PUSH1 0x0 CALLER PUSH20 0xFFFFFFFFFFFFFFFFFFFFFFFFFFFFFFFFFFFFFFFF AND PUSH20 0xFFFFFFFFFFFFFFFFFFFFFFFFFFFFFFFFFFFFFFFF AND DUP2 MSTORE PUSH1 0x20 ADD SWAP1 DUP2 MSTORE PUSH1 0x20 ADD PUSH1 0x0 KECCAK256 PUSH1 0x0 ADD PUSH1 0x1 SWAP1 SLOAD SWAP1 PUSH2 0x100 EXP SWAP1 DIV PUSH1 0xFF AND ISZERO PUSH2 0x90C JUMPI PUSH1 0x40 MLOAD PUSH32 0x8C379A000000000000000000000000000000000000000000000000000000000 DUP2 MSTORE PUSH1 0x4 ADD PUSH2 0x903 SWAP1 PUSH2 0xF94 JUMP JUMPDEST PUSH1 0x40 MLOAD DUP1 SWAP2 SUB SWAP1 REVERT JUMPDEST PUSH1 0x0 PUSH1 0x1 PUSH1 0x0 CALLER PUSH20 0xFFFFFFFFFFFFFFFFFFFFFFFFFFFFFFFFFFFFFFFF AND PUSH20 0xFFFFFFFFFFFFFFFFFFFFFFFFFFFFFFFFFFFFFFFF AND DUP2 MSTORE PUSH1 0x20 ADD SWAP1 DUP2 MSTORE PUSH1 0x20 ADD PUSH1 0x0 KECCAK256 SWAP1 POP DUP1 PUSH1 0x0 ADD PUSH1 0x0 SWAP1 SLOAD SWAP1 PUSH2 0x100 EXP SWAP1 DIV PUSH1 0xFF AND PUSH2 0x9A0 JUMPI PUSH1 0x40 MLOAD PUSH32 0x8C379A000000000000000000000000000000000000000000000000000000000 DUP2 MSTORE PUSH1 0x4 ADD PUSH2 0x997 SWAP1 PUSH2 0xF54 JUMP JUMPDEST PUSH1 0x40 MLOAD DUP1 SWAP2 SUB SWAP1 REVERT JUMPDEST PUSH1 0x0 JUMPDEST PUSH1 0x2 DUP1 SLOAD SWAP1 POP DUP2 LT ISZERO PUSH2 0xAAC JUMPI DUP3 PUSH1 0x40 MLOAD PUSH1 0x20 ADD PUSH2 0x9C1 SWAP2 SWAP1 PUSH2 0xECB JUMP JUMPDEST PUSH1 0x40 MLOAD PUSH1 0x20 DUP2 DUP4 SUB SUB DUP2 MSTORE SWAP1 PUSH1 0x40 MSTORE DUP1 MLOAD SWAP1 PUSH1 0x20 ADD KECCAK256 PUSH1 0x2 DUP3 DUP2 SLOAD DUP2 LT PUSH2 0x9EB JUMPI PUSH2 0x9EA PUSH2 0x128A JUMP JUMPDEST JUMPDEST SWAP1 PUSH1 0x0 MSTORE PUSH1 0x20 PUSH1 0x0 KECCAK256 SWAP1 PUSH1 0x3 MUL ADD PUSH1 0x0 ADD PUSH1 0x40 MLOAD PUSH1 0x20 ADD PUSH2 0xA0C SWAP2 SWAP1 PUSH2 0xF32 JUMP JUMPDEST PUSH1 0x40 MLOAD PUSH1 0x20 DUP2 DUP4 SUB SUB DUP2 MSTORE SWAP1 PUSH1 0x40 MSTORE DUP1 MLOAD SWAP1 PUSH1 0x20 ADD KECCAK256 EQ ISZERO PUSH2 0xA64 JUMPI PUSH1 0x2 DUP2 DUP2 SLOAD DUP2 LT PUSH2 0xA3C JUMPI PUSH2 0xA3B PUSH2 0x128A JUMP JUMPDEST JUMPDEST SWAP1 PUSH1 0x0 MSTORE PUSH1 0x20 PUSH1 0x0 KECCAK256 SWAP1 PUSH1 0x3 MUL ADD PUSH1 0x2 ADD PUSH1 0x0 DUP2 SLOAD DUP1 SWAP3 SWAP2 SWAP1 PUSH2 0xA5E SWAP1 PUSH2 0x11E3 JUMP JUMPDEST SWAP2 SWAP1 POP SSTORE POP JUMPDEST PUSH1 0x1 DUP3 PUSH1 0x0 ADD PUSH1 0x1 PUSH2 0x100 EXP DUP2 SLOAD DUP2 PUSH1 0xFF MUL NOT AND SWAP1 DUP4 ISZERO ISZERO MUL OR SWAP1 SSTORE POP PUSH1 0x3 PUSH1 0x0 DUP2 SLOAD DUP1 SWAP3 SWAP2 SWAP1 PUSH2 0xA94 SWAP1 PUSH2 0x11E3 JUMP JUMPDEST SWAP2 SWAP1 POP SSTORE POP DUP1 DUP1 PUSH2 0xAA4 SWAP1 PUSH2 0x11E3 JUMP JUMPDEST SWAP2 POP POP PUSH2 0x9A3 JUMP JUMPDEST POP POP POP JUMP JUMPDEST PUSH1 0x0 PUSH2 0xAC4 PUSH2 0xABF DUP5 PUSH2 0xFF4 JUMP JUMPDEST PUSH2 0xFCF JUMP JUMPDEST SWAP1 POP DUP3 DUP2 MSTORE PUSH1 0x20 DUP2 ADD DUP5 DUP5 DUP5 ADD GT ISZERO PUSH2 0xAE0 JUMPI PUSH2 0xADF PUSH2 0x12ED JUMP JUMPDEST JUMPDEST PUSH2 0xAEB DUP5 DUP3 DUP6 PUSH2 0x113E JUMP JUMPDEST POP SWAP4 SWAP3 POP POP POP JUMP JUMPDEST PUSH1 0x0 DUP2 CALLDATALOAD SWAP1 POP PUSH2 0xB02 DUP2 PUSH2 0x13AE JUMP JUMPDEST SWAP3 SWAP2 POP POP JUMP JUMPDEST PUSH1 0x0 DUP3 PUSH1 0x1F DUP4 ADD SLT PUSH2 0xB1D JUMPI PUSH2 0xB1C PUSH2 0x12E8 JUMP JUMPDEST JUMPDEST DUP2 CALLDATALOAD PUSH2 0xB2D DUP5 DUP3 PUSH1 0x20 DUP7 ADD PUSH2 0xAB1 JUMP JUMPDEST SWAP2 POP POP SWAP3 SWAP2 POP POP JUMP JUMPDEST PUSH1 0x0 DUP2 CALLDATALOAD SWAP1 POP PUSH2 0xB45 DUP2 PUSH2 0x13C5 JUMP JUMPDEST SWAP3 SWAP2 POP POP JUMP JUMPDEST PUSH1 0x0 PUSH1 0x20 DUP3 DUP5 SUB SLT ISZERO PUSH2 0xB61 JUMPI PUSH2 0xB60 PUSH2 0x12F7 JUMP JUMPDEST JUMPDEST PUSH1 0x0 PUSH2 0xB6F DUP5 DUP3 DUP6 ADD PUSH2 0xAF3 JUMP JUMPDEST SWAP2 POP POP SWAP3 SWAP2 POP POP JUMP JUMPDEST PUSH1 0x0 PUSH1 0x20 DUP3 DUP5 SUB SLT ISZERO PUSH2 0xB8E JUMPI PUSH2 0xB8D PUSH2 0x12F7 JUMP JUMPDEST JUMPDEST PUSH1 0x0 DUP3 ADD CALLDATALOAD PUSH8 0xFFFFFFFFFFFFFFFF DUP2 GT ISZERO PUSH2 0xBAC JUMPI PUSH2 0xBAB PUSH2 0x12F2 JUMP JUMPDEST JUMPDEST PUSH2 0xBB8 DUP5 DUP3 DUP6 ADD PUSH2 0xB08 JUMP JUMPDEST SWAP2 POP POP SWAP3 SWAP2 POP POP JUMP JUMPDEST PUSH1 0x0 PUSH1 0x20 DUP3 DUP5 SUB SLT ISZERO PUSH2 0xBD7 JUMPI PUSH2 0xBD6 PUSH2 0x12F7 JUMP JUMPDEST JUMPDEST PUSH1 0x0 PUSH2 0xBE5 DUP5 DUP3 DUP6 ADD PUSH2 0xB36 JUMP JUMPDEST SWAP2 POP POP SWAP3 SWAP2 POP POP JUMP JUMPDEST PUSH1 0x0 PUSH2 0xBFA DUP4 DUP4 PUSH2 0xDF0 JUMP JUMPDEST SWAP1 POP SWAP3 SWAP2 POP POP JUMP JUMPDEST PUSH2 0xC0B DUP2 PUSH2 0x10F6 JUMP JUMPDEST DUP3 MSTORE POP POP JUMP JUMPDEST PUSH1 0x0 PUSH2 0xC1C DUP3 PUSH2 0x104A JUMP JUMPDEST PUSH2 0xC26 DUP2 DUP6 PUSH2 0x106D JUMP JUMPDEST SWAP4 POP DUP4 PUSH1 0x20 DUP3 MUL DUP6 ADD PUSH2 0xC38 DUP6 PUSH2 0x1025 JUMP JUMPDEST DUP1 PUSH1 0x0 JUMPDEST DUP6 DUP2 LT ISZERO PUSH2 0xC74 JUMPI DUP5 DUP5 SUB DUP10 MSTORE DUP2 MLOAD PUSH2 0xC55 DUP6 DUP3 PUSH2 0xBEE JUMP JUMPDEST SWAP5 POP PUSH2 0xC60 DUP4 PUSH2 0x1060 JUMP JUMPDEST SWAP3 POP PUSH1 0x20 DUP11 ADD SWAP10 POP POP PUSH1 0x1 DUP2 ADD SWAP1 POP PUSH2 0xC3C JUMP JUMPDEST POP DUP3 SWAP8 POP DUP8 SWAP6 POP POP POP POP POP POP SWAP3 SWAP2 POP POP JUMP JUMPDEST PUSH2 0xC8F DUP2 PUSH2 0x1108 JUMP JUMPDEST DUP3 MSTORE POP POP JUMP JUMPDEST PUSH1 0x0 PUSH2 0xCA0 DUP3 PUSH2 0x1055 JUMP JUMPDEST PUSH2 0xCAA DUP2 DUP6 PUSH2 0x107E JUMP JUMPDEST SWAP4 POP PUSH2 0xCBA DUP2 DUP6 PUSH1 0x20 DUP7 ADD PUSH2 0x114D JUMP JUMPDEST PUSH2 0xCC3 DUP2 PUSH2 0x12FC JUMP JUMPDEST DUP5 ADD SWAP2 POP POP SWAP3 SWAP2 POP POP JUMP JUMPDEST PUSH1 0x0 PUSH2 0xCD9 DUP3 PUSH2 0x1055 JUMP JUMPDEST PUSH2 0xCE3 DUP2 DUP6 PUSH2 0x108F JUMP JUMPDEST SWAP4 POP PUSH2 0xCF3 DUP2 DUP6 PUSH1 0x20 DUP7 ADD PUSH2 0x114D JUMP JUMPDEST PUSH2 0xCFC DUP2 PUSH2 0x12FC JUMP JUMPDEST DUP5 ADD SWAP2 POP POP SWAP3 SWAP2 POP POP JUMP JUMPDEST PUSH1 0x0 DUP2 SLOAD PUSH2 0xD14 DUP2 PUSH2 0x1180 JUMP JUMPDEST PUSH2 0xD1E DUP2 DUP7 PUSH2 0x108F JUMP JUMPDEST SWAP5 POP PUSH1 0x1 DUP3 AND PUSH1 0x0 DUP2 EQ PUSH2 0xD39 JUMPI PUSH1 0x1 DUP2 EQ PUSH2 0xD4B JUMPI PUSH2 0xD7E JUMP JUMPDEST PUSH1 0xFF NOT DUP4 AND DUP7 MSTORE PUSH1 0x20 DUP7 ADD SWAP4 POP PUSH2 0xD7E JUMP JUMPDEST PUSH2 0xD54 DUP6 PUSH2 0x1035 JUMP JUMPDEST PUSH1 0x0 JUMPDEST DUP4 DUP2 LT ISZERO PUSH2 0xD76 JUMPI DUP2 SLOAD DUP2 DUP10 ADD MSTORE PUSH1 0x1 DUP3 ADD SWAP2 POP PUSH1 0x20 DUP2 ADD SWAP1 POP PUSH2 0xD57 JUMP JUMPDEST DUP1 DUP9 ADD SWAP6 POP POP POP JUMPDEST POP POP POP SWAP3 SWAP2 POP POP JUMP JUMPDEST PUSH1 0x0 PUSH2 0xD94 PUSH1 0x14 DUP4 PUSH2 0x108F JUMP JUMPDEST SWAP2 POP PUSH2 0xD9F DUP3 PUSH2 0x130D JUMP JUMPDEST PUSH1 0x20 DUP3 ADD SWAP1 POP SWAP2 SWAP1 POP JUMP JUMPDEST PUSH1 0x0 PUSH2 0xDB7 PUSH1 0x2F DUP4 PUSH2 0x108F JUMP JUMPDEST SWAP2 POP PUSH2 0xDC2 DUP3 PUSH2 0x1336 JUMP JUMPDEST PUSH1 0x40 DUP3 ADD SWAP1 POP SWAP2 SWAP1 POP JUMP JUMPDEST PUSH1 0x0 PUSH2 0xDDA PUSH1 0xE DUP4 PUSH2 0x108F JUMP JUMPDEST SWAP2 POP PUSH2 0xDE5 DUP3 PUSH2 0x1385 JUMP JUMPDEST PUSH1 0x20 DUP3 ADD SWAP1 POP SWAP2 SWAP1 POP JUMP JUMPDEST PUSH1 0x0 PUSH1 0x60 DUP4 ADD PUSH1 0x0 DUP4 ADD MLOAD DUP5 DUP3 SUB PUSH1 0x0 DUP7 ADD MSTORE PUSH2 0xE0D DUP3 DUP3 PUSH2 0xC95 JUMP JUMPDEST SWAP2 POP POP PUSH1 0x20 DUP4 ADD MLOAD DUP5 DUP3 SUB PUSH1 0x20 DUP7 ADD MSTORE PUSH2 0xE27 DUP3 DUP3 PUSH2 0xC95 JUMP JUMPDEST SWAP2 POP POP PUSH1 0x40 DUP4 ADD MLOAD PUSH2 0xE3C PUSH1 0x40 DUP7 ADD DUP3 PUSH2 0xE47 JUMP JUMPDEST POP DUP1 SWAP2 POP POP SWAP3 SWAP2 POP POP JUMP JUMPDEST PUSH2 0xE50 DUP2 PUSH2 0x1134 JUMP JUMPDEST DUP3 MSTORE POP POP JUMP JUMPDEST PUSH2 0xE5F DUP2 PUSH2 0x1134 JUMP JUMPDEST DUP3 MSTORE POP POP JUMP JUMPDEST PUSH1 0x0 PUSH1 0x20 DUP3 ADD SWAP1 POP PUSH2 0xE7A PUSH1 0x0 DUP4 ADD DUP5 PUSH2 0xC02 JUMP JUMPDEST SWAP3 SWAP2 POP POP JUMP JUMPDEST PUSH1 0x0 PUSH1 0x20 DUP3 ADD SWAP1 POP DUP2 DUP2 SUB PUSH1 0x0 DUP4 ADD MSTORE PUSH2 0xE9A DUP2 DUP5 PUSH2 0xC11 JUMP JUMPDEST SWAP1 POP SWAP3 SWAP2 POP POP JUMP JUMPDEST PUSH1 0x0 PUSH1 0x40 DUP3 ADD SWAP1 POP PUSH2 0xEB7 PUSH1 0x0 DUP4 ADD DUP6 PUSH2 0xC86 JUMP JUMPDEST PUSH2 0xEC4 PUSH1 0x20 DUP4 ADD DUP5 PUSH2 0xC86 JUMP JUMPDEST SWAP4 SWAP3 POP POP POP JUMP JUMPDEST PUSH1 0x0 PUSH1 0x20 DUP3 ADD SWAP1 POP DUP2 DUP2 SUB PUSH1 0x0 DUP4 ADD MSTORE PUSH2 0xEE5 DUP2 DUP5 PUSH2 0xCCE JUMP JUMPDEST SWAP1 POP SWAP3 SWAP2 POP POP JUMP JUMPDEST PUSH1 0x0 PUSH1 0x60 DUP3 ADD SWAP1 POP DUP2 DUP2 SUB PUSH1 0x0 DUP4 ADD MSTORE PUSH2 0xF07 DUP2 DUP7 PUSH2 0xCCE JUMP JUMPDEST SWAP1 POP DUP2 DUP2 SUB PUSH1 0x20 DUP4 ADD MSTORE PUSH2 0xF1B DUP2 DUP6 PUSH2 0xCCE JUMP JUMPDEST SWAP1 POP PUSH2 0xF2A PUSH1 0x40 DUP4 ADD DUP5 PUSH2 0xE56 JUMP JUMPDEST SWAP5 SWAP4 POP POP POP POP JUMP JUMPDEST PUSH1 0x0 PUSH1 0x20 DUP3 ADD SWAP1 POP DUP2 DUP2 SUB PUSH1 0x0 DUP4 ADD MSTORE PUSH2 0xF4C DUP2 DUP5 PUSH2 0xD07 JUMP JUMPDEST SWAP1 POP SWAP3 SWAP2 POP POP JUMP JUMPDEST PUSH1 0x0 PUSH1 0x20 DUP3 ADD SWAP1 POP DUP2 DUP2 SUB PUSH1 0x0 DUP4 ADD MSTORE PUSH2 0xF6D DUP2 PUSH2 0xD87 JUMP JUMPDEST SWAP1 POP SWAP2 SWAP1 POP JUMP JUMPDEST PUSH1 0x0 PUSH1 0x20 DUP3 ADD SWAP1 POP DUP2 DUP2 SUB PUSH1 0x0 DUP4 ADD MSTORE PUSH2 0xF8D DUP2 PUSH2 0xDAA JUMP JUMPDEST SWAP1 POP SWAP2 SWAP1 POP JUMP JUMPDEST PUSH1 0x0 PUSH1 0x20 DUP3 ADD SWAP1 POP DUP2 DUP2 SUB PUSH1 0x0 DUP4 ADD MSTORE PUSH2 0xFAD DUP2 PUSH2 0xDCD JUMP JUMPDEST SWAP1 POP SWAP2 SWAP1 POP JUMP JUMPDEST PUSH1 0x0 PUSH1 0x20 DUP3 ADD SWAP1 POP PUSH2 0xFC9 PUSH1 0x0 DUP4 ADD DUP5 PUSH2 0xE56 JUMP JUMPDEST SWAP3 SWAP2 POP POP JUMP JUMPDEST PUSH1 0x0 PUSH2 0xFD9 PUSH2 0xFEA JUMP JUMPDEST SWAP1 POP PUSH2 0xFE5 DUP3 DUP3 PUSH2 0x11B2 JUMP JUMPDEST SWAP2 SWAP1 POP JUMP JUMPDEST PUSH1 0x0 PUSH1 0x40 MLOAD SWAP1 POP SWAP1 JUMP JUMPDEST PUSH1 0x0 PUSH8 0xFFFFFFFFFFFFFFFF DUP3 GT ISZERO PUSH2 0x100F JUMPI PUSH2 0x100E PUSH2 0x12B9 JUMP JUMPDEST JUMPDEST PUSH2 0x1018 DUP3 PUSH2 0x12FC JUMP JUMPDEST SWAP1 POP PUSH1 0x20 DUP2 ADD SWAP1 POP SWAP2 SWAP1 POP JUMP JUMPDEST PUSH1 0x0 DUP2 SWAP1 POP PUSH1 0x20 DUP3 ADD SWAP1 POP SWAP2 SWAP1 POP JUMP JUMPDEST PUSH1 0x0 DUP2 SWAP1 POP DUP2 PUSH1 0x0 MSTORE PUSH1 0x20 PUSH1 0x0 KECCAK256 SWAP1 POP SWAP2 SWAP1 POP JUMP JUMPDEST PUSH1 0x0 DUP2 MLOAD SWAP1 POP SWAP2 SWAP1 POP JUMP JUMPDEST PUSH1 0x0 DUP2 MLOAD SWAP1 POP SWAP2 SWAP1 POP JUMP JUMPDEST PUSH1 0x0 PUSH1 0x20 DUP3 ADD SWAP1 POP SWAP2 SWAP1 POP JUMP JUMPDEST PUSH1 0x0 DUP3 DUP3 MSTORE PUSH1 0x20 DUP3 ADD SWAP1 POP SWAP3 SWAP2 POP POP JUMP JUMPDEST PUSH1 0x0 DUP3 DUP3 MSTORE PUSH1 0x20 DUP3 ADD SWAP1 POP SWAP3 SWAP2 POP POP JUMP JUMPDEST PUSH1 0x0 DUP3 DUP3 MSTORE PUSH1 0x20 DUP3 ADD SWAP1 POP SWAP3 SWAP2 POP POP JUMP JUMPDEST PUSH1 0x0 PUSH2 0x10AB DUP3 PUSH2 0x1134 JUMP JUMPDEST SWAP2 POP PUSH2 0x10B6 DUP4 PUSH2 0x1134 JUMP JUMPDEST SWAP3 POP DUP3 PUSH32 0xFFFFFFFFFFFFFFFFFFFFFFFFFFFFFFFFFFFFFFFFFFFFFFFFFFFFFFFFFFFFFFFF SUB DUP3 GT ISZERO PUSH2 0x10EB JUMPI PUSH2 0x10EA PUSH2 0x122C JUMP JUMPDEST JUMPDEST DUP3 DUP3 ADD SWAP1 POP SWAP3 SWAP2 POP POP JUMP JUMPDEST PUSH1 0x0 PUSH2 0x1101 DUP3 PUSH2 0x1114 JUMP JUMPDEST SWAP1 POP SWAP2 SWAP1 POP JUMP JUMPDEST PUSH1 0x0 DUP2 ISZERO ISZERO SWAP1 POP SWAP2 SWAP1 POP JUMP JUMPDEST PUSH1 0x0 PUSH20 0xFFFFFFFFFFFFFFFFFFFFFFFFFFFFFFFFFFFFFFFF DUP3 AND SWAP1 POP SWAP2 SWAP1 POP JUMP JUMPDEST PUSH1 0x0 DUP2 SWAP1 POP SWAP2 SWAP1 POP JUMP JUMPDEST DUP3 DUP2 DUP4 CALLDATACOPY PUSH1 0x0 DUP4 DUP4 ADD MSTORE POP POP POP JUMP JUMPDEST PUSH1 0x0 JUMPDEST DUP4 DUP2 LT ISZERO PUSH2 0x116B JUMPI DUP1 DUP3 ADD MLOAD DUP2 DUP5 ADD MSTORE PUSH1 0x20 DUP2 ADD SWAP1 POP PUSH2 0x1150 JUMP JUMPDEST DUP4 DUP2 GT ISZERO PUSH2 0x117A JUMPI PUSH1 0x0 DUP5 DUP5 ADD MSTORE JUMPDEST POP POP POP POP JUMP JUMPDEST PUSH1 0x0 PUSH1 0x2 DUP3 DIV SWAP1 POP PUSH1 0x1 DUP3 AND DUP1 PUSH2 0x1198 JUMPI PUSH1 0x7F DUP3 AND SWAP2 POP JUMPDEST PUSH1 0x20 DUP3 LT DUP2 EQ ISZERO PUSH2 0x11AC JUMPI PUSH2 0x11AB PUSH2 0x125B JUMP JUMPDEST JUMPDEST POP SWAP2 SWAP1 POP JUMP JUMPDEST PUSH2 0x11BB DUP3 PUSH2 0x12FC JUMP JUMPDEST DUP2 ADD DUP2 DUP2 LT PUSH8 0xFFFFFFFFFFFFFFFF DUP3 GT OR ISZERO PUSH2 0x11DA JUMPI PUSH2 0x11D9 PUSH2 0x12B9 JUMP JUMPDEST JUMPDEST DUP1 PUSH1 0x40 MSTORE POP POP POP JUMP JUMPDEST PUSH1 0x0 PUSH2 0x11EE DUP3 PUSH2 0x1134 JUMP JUMPDEST SWAP2 POP PUSH32 0xFFFFFFFFFFFFFFFFFFFFFFFFFFFFFFFFFFFFFFFFFFFFFFFFFFFFFFFFFFFFFFFF DUP3 EQ ISZERO PUSH2 0x1221 JUMPI PUSH2 0x1220 PUSH2 0x122C JUMP JUMPDEST JUMPDEST PUSH1 0x1 DUP3 ADD SWAP1 POP SWAP2 SWAP1 POP JUMP JUMPDEST PUSH32 0x4E487B7100000000000000000000000000000000000000000000000000000000 PUSH1 0x0 MSTORE PUSH1 0x11 PUSH1 0x4 MSTORE PUSH1 0x24 PUSH1 0x0 REVERT JUMPDEST PUSH32 0x4E487B7100000000000000000000000000000000000000000000000000000000 PUSH1 0x0 MSTORE PUSH1 0x22 PUSH1 0x4 MSTORE PUSH1 0x24 PUSH1 0x0 REVERT JUMPDEST PUSH32 0x4E487B7100000000000000000000000000000000000000000000000000000000 PUSH1 0x0 MSTORE PUSH1 0x32 PUSH1 0x4 MSTORE PUSH1 0x24 PUSH1 0x0 REVERT JUMPDEST PUSH32 0x4E487B7100000000000000000000000000000000000000000000000000000000 PUSH1 0x0 MSTORE PUSH1 0x41 PUSH1 0x4 MSTORE PUSH1 0x24 PUSH1 0x0 REVERT JUMPDEST PUSH1 0x0 DUP1 REVERT JUMPDEST PUSH1 0x0 DUP1 REVERT JUMPDEST PUSH1 0x0 DUP1 REVERT JUMPDEST PUSH1 0x0 DUP1 REVERT JUMPDEST PUSH1 0x0 PUSH1 0x1F NOT PUSH1 0x1F DUP4 ADD AND SWAP1 POP SWAP2 SWAP1 POP JUMP JUMPDEST PUSH32 0x486173206E6F20726967687420746F20766F7465000000000000000000000000 PUSH1 0x0 DUP3 ADD MSTORE POP JUMP JUMPDEST PUSH32 0x4F6E6C792074686520636F6E7472616374206F776E65722063616E2067697665 PUSH1 0x0 DUP3 ADD MSTORE PUSH32 0x20726967687420746F20766F74652E0000000000000000000000000000000000 PUSH1 0x20 DUP3 ADD MSTORE POP JUMP JUMPDEST PUSH32 0x416C726561647920766F7465642E000000000000000000000000000000000000 PUSH1 0x0 DUP3 ADD MSTORE POP JUMP JUMPDEST PUSH2 0x13B7 DUP2 PUSH2 0x10F6 JUMP JUMPDEST DUP2 EQ PUSH2 0x13C2 JUMPI PUSH1 0x0 DUP1 REVERT JUMPDEST POP JUMP JUMPDEST PUSH2 0x13CE DUP2 PUSH2 0x1134 JUMP JUMPDEST DUP2 EQ PUSH2 0x13D9 JUMPI PUSH1 0x0 DUP1 REVERT JUMPDEST POP JUMP INVALID LOG2 PUSH5 0x6970667358 0x22 SLT KECCAK256 PUSH4 0x6EF6B356 MULMOD LOG1 EXTCODEHASH 0x2A 0xBD 0x24 SLOAD 0xFC 0xCC 0xAC 0x4C 0xC8 SGT ADD 0xBE 0xE6 CALLCODE SUB 0xE3 0x2A MUL 0xE8 0xC5 NOT 0xA5 0xB0 OR PUSH5 0x736F6C6343 STOP ADDMOD SMOD STOP CALLER "
				},
				"gasEstimates": {
					"creation": {
						"codeDepositCost": "1027600",
						"executionCost": "infinite",
						"totalCost": "infinite"
					},
					"external": {
						"calculateAmountOfTotalVotes()": "infinite",
						"candidates(uint256)": "infinite",
						"contractOwner()": "2577",
						"getCandidatesList()": "infinite",
						"getContractAddress()": "452",
						"getWinnerName()": "infinite",
						"getWinningCandidate()": "infinite",
						"giveRightToVote(address)": "29307",
						"totalVotes()": "2452",
						"vote(string)": "infinite",
						"voters(address)": "infinite"
					}
				},
				"methodIdentifiers": {
					"calculateAmountOfTotalVotes()": "01c5556a",
					"candidates(uint256)": "3477ee2e",
					"contractOwner()": "ce606ee0",
					"getCandidatesList()": "4aba5f34",
					"getContractAddress()": "32a2c5d0",
					"getWinnerName()": "2bfda515",
					"getWinningCandidate()": "f927cc29",
					"giveRightToVote(address)": "9e7b8d61",
					"totalVotes()": "0d15fd77",
					"vote(string)": "fc36e15b",
					"voters(address)": "a3ec138d"
				}
			},
			"storageLayout": {
				"storage": [
					{
						"astId": 15,
						"contract": "contracts/Ballot/MyBallot.sol:MyBallot",
						"label": "contractOwner",
						"offset": 0,
						"slot": "0",
						"type": "t_address"
					},
					{
						"astId": 20,
						"contract": "contracts/Ballot/MyBallot.sol:MyBallot",
						"label": "voters",
						"offset": 0,
						"slot": "1",
						"type": "t_mapping(t_address,t_struct(Voter)6_storage)"
					},
					{
						"astId": 24,
						"contract": "contracts/Ballot/MyBallot.sol:MyBallot",
						"label": "candidates",
						"offset": 0,
						"slot": "2",
						"type": "t_array(t_struct(Candidate)13_storage)dyn_storage"
					},
					{
						"astId": 26,
						"contract": "contracts/Ballot/MyBallot.sol:MyBallot",
						"label": "totalVotes",
						"offset": 0,
						"slot": "3",
						"type": "t_uint256"
					}
				],
				"types": {
					"t_address": {
						"encoding": "inplace",
						"label": "address",
						"numberOfBytes": "20"
					},
					"t_array(t_struct(Candidate)13_storage)dyn_storage": {
						"base": "t_struct(Candidate)13_storage",
						"encoding": "dynamic_array",
						"label": "struct MyBallot.Candidate[]",
						"numberOfBytes": "32"
					},
					"t_bool": {
						"encoding": "inplace",
						"label": "bool",
						"numberOfBytes": "1"
					},
					"t_mapping(t_address,t_struct(Voter)6_storage)": {
						"encoding": "mapping",
						"key": "t_address",
						"label": "mapping(address => struct MyBallot.Voter)",
						"numberOfBytes": "32",
						"value": "t_struct(Voter)6_storage"
					},
					"t_string_storage": {
						"encoding": "bytes",
						"label": "string",
						"numberOfBytes": "32"
					},
					"t_struct(Candidate)13_storage": {
						"encoding": "inplace",
						"label": "struct MyBallot.Candidate",
						"members": [
							{
								"astId": 8,
								"contract": "contracts/Ballot/MyBallot.sol:MyBallot",
								"label": "name",
								"offset": 0,
								"slot": "0",
								"type": "t_string_storage"
							},
							{
								"astId": 10,
								"contract": "contracts/Ballot/MyBallot.sol:MyBallot",
								"label": "party",
								"offset": 0,
								"slot": "1",
								"type": "t_string_storage"
							},
							{
								"astId": 12,
								"contract": "contracts/Ballot/MyBallot.sol:MyBallot",
								"label": "votesCount",
								"offset": 0,
								"slot": "2",
								"type": "t_uint256"
							}
						],
						"numberOfBytes": "96"
					},
					"t_struct(Voter)6_storage": {
						"encoding": "inplace",
						"label": "struct MyBallot.Voter",
						"members": [
							{
								"astId": 3,
								"contract": "contracts/Ballot/MyBallot.sol:MyBallot",
								"label": "canVote",
								"offset": 0,
								"slot": "0",
								"type": "t_bool"
							},
							{
								"astId": 5,
								"contract": "contracts/Ballot/MyBallot.sol:MyBallot",
								"label": "hasVoted",
								"offset": 1,
								"slot": "0",
								"type": "t_bool"
							}
						],
						"numberOfBytes": "32"
					},
					"t_uint256": {
						"encoding": "inplace",
						"label": "uint256",
						"numberOfBytes": "32"
					}
				}
			},
			"userdoc": {
				"kind": "user",
				"methods": {},
				"version": 1
			}
		}
	}
}