{
	"contracts/Ballot/MyBallot.sol": {
		"MyBallot": {
			"abi": [
				{
					"inputs": [
						{
							"components": [
								{
									"internalType": "string",
									"name": "name",
									"type": "string"
								},
								{
									"internalType": "string",
									"name": "party",
									"type": "string"
								},
								{
									"internalType": "uint256",
									"name": "votesCount",
									"type": "uint256"
								}
							],
							"internalType": "struct MyBallot.Candidate[]",
							"name": "_candidates",
							"type": "tuple[]"
						}
					],
					"stateMutability": "nonpayable",
					"type": "constructor"
				},
				{
					"inputs": [
						{
							"components": [
								{
									"internalType": "string",
									"name": "name",
									"type": "string"
								},
								{
									"internalType": "string",
									"name": "party",
									"type": "string"
								},
								{
									"internalType": "uint256",
									"name": "votesCount",
									"type": "uint256"
								}
							],
							"internalType": "struct MyBallot.Candidate",
							"name": "newCandidate",
							"type": "tuple"
						}
					],
					"name": "addCandidateAsStruct",
					"outputs": [],
					"stateMutability": "nonpayable",
					"type": "function"
				},
				{
					"inputs": [
						{
							"internalType": "string",
							"name": "name",
							"type": "string"
						},
						{
							"internalType": "string",
							"name": "party",
							"type": "string"
						}
					],
					"name": "addCandidateWithSpreadParameters",
					"outputs": [],
					"stateMutability": "nonpayable",
					"type": "function"
				},
				{
					"inputs": [],
					"name": "areYouContractOwner",
					"outputs": [
						{
							"internalType": "bool",
							"name": "",
							"type": "bool"
						}
					],
					"stateMutability": "view",
					"type": "function"
				},
				{
					"inputs": [],
					"name": "areYouHaveRigthToVote",
					"outputs": [
						{
							"internalType": "bool",
							"name": "",
							"type": "bool"
						}
					],
					"stateMutability": "view",
					"type": "function"
				},
				{
					"inputs": [],
					"name": "areYouVoted",
					"outputs": [
						{
							"internalType": "bool",
							"name": "",
							"type": "bool"
						}
					],
					"stateMutability": "view",
					"type": "function"
				},
				{
					"inputs": [],
					"name": "calculateAmountOfTotalVotes",
					"outputs": [
						{
							"internalType": "uint256",
							"name": "total",
							"type": "uint256"
						}
					],
					"stateMutability": "view",
					"type": "function"
				},
				{
					"inputs": [
						{
							"internalType": "uint256",
							"name": "",
							"type": "uint256"
						}
					],
					"name": "candidates",
					"outputs": [
						{
							"internalType": "string",
							"name": "name",
							"type": "string"
						},
						{
							"internalType": "string",
							"name": "party",
							"type": "string"
						},
						{
							"internalType": "uint256",
							"name": "votesCount",
							"type": "uint256"
						}
					],
					"stateMutability": "view",
					"type": "function"
				},
				{
					"inputs": [],
					"name": "contractOwner",
					"outputs": [
						{
							"internalType": "address",
							"name": "",
							"type": "address"
						}
					],
					"stateMutability": "view",
					"type": "function"
				},
				{
					"inputs": [],
					"name": "getCandidatesList",
					"outputs": [
						{
							"components": [
								{
									"internalType": "string",
									"name": "name",
									"type": "string"
								},
								{
									"internalType": "string",
									"name": "party",
									"type": "string"
								},
								{
									"internalType": "uint256",
									"name": "votesCount",
									"type": "uint256"
								}
							],
							"internalType": "struct MyBallot.Candidate[]",
							"name": "",
							"type": "tuple[]"
						}
					],
					"stateMutability": "view",
					"type": "function"
				},
				{
					"inputs": [],
					"name": "getContractAddress",
					"outputs": [
						{
							"internalType": "address",
							"name": "",
							"type": "address"
						}
					],
					"stateMutability": "view",
					"type": "function"
				},
				{
					"inputs": [],
					"name": "getWinnerName",
					"outputs": [
						{
							"internalType": "string",
							"name": "winnerName",
							"type": "string"
						}
					],
					"stateMutability": "view",
					"type": "function"
				},
				{
					"inputs": [],
					"name": "getWinningCandidate",
					"outputs": [
						{
							"internalType": "uint256",
							"name": "winningProposal",
							"type": "uint256"
						}
					],
					"stateMutability": "view",
					"type": "function"
				},
				{
					"inputs": [
						{
							"internalType": "address",
							"name": "voterAddress",
							"type": "address"
						}
					],
					"name": "giveRightToVote",
					"outputs": [],
					"stateMutability": "nonpayable",
					"type": "function"
				},
				{
					"inputs": [
						{
							"internalType": "address",
							"name": "voterAddress",
							"type": "address"
						}
					],
					"name": "isAnyoneHaveRigthToVote",
					"outputs": [
						{
							"internalType": "bool",
							"name": "",
							"type": "bool"
						}
					],
					"stateMutability": "view",
					"type": "function"
				},
				{
					"inputs": [
						{
							"internalType": "address",
							"name": "voterAddress",
							"type": "address"
						}
					],
					"name": "isVoterVoted",
					"outputs": [
						{
							"internalType": "bool",
							"name": "",
							"type": "bool"
						}
					],
					"stateMutability": "view",
					"type": "function"
				},
				{
					"inputs": [],
					"name": "totalVotes",
					"outputs": [
						{
							"internalType": "uint256",
							"name": "",
							"type": "uint256"
						}
					],
					"stateMutability": "view",
					"type": "function"
				},
				{
					"inputs": [
						{
							"internalType": "string",
							"name": "name",
							"type": "string"
						}
					],
					"name": "vote",
					"outputs": [],
					"stateMutability": "nonpayable",
					"type": "function"
				},
				{
					"inputs": [
						{
							"internalType": "address",
							"name": "",
							"type": "address"
						}
					],
					"name": "voters",
					"outputs": [
						{
							"internalType": "bool",
							"name": "canVote",
							"type": "bool"
						},
						{
							"internalType": "bool",
							"name": "hasVoted",
							"type": "bool"
						}
					],
					"stateMutability": "view",
					"type": "function"
				}
			],
			"devdoc": {
				"kind": "dev",
				"methods": {},
				"version": 1
			},
			"evm": {
				"assembly": "    /* \"contracts/Ballot/MyBallot.sol\":132:5292  contract MyBallot {\r... */\n  mstore(0x40, 0x80)\n    /* \"contracts/Ballot/MyBallot.sol\":601:970  constructor(Candidate[] memory _candidates) {\r... */\n  callvalue\n  dup1\n  iszero\n  tag_1\n  jumpi\n  0x00\n  dup1\n  revert\ntag_1:\n  pop\n  mload(0x40)\n  sub(codesize, bytecodeSize)\n  dup1\n  bytecodeSize\n  dup4\n  codecopy\n  dup2\n  dup2\n  add\n  0x40\n  mstore\n  dup2\n  add\n  swap1\n  tag_2\n  swap2\n  swap1\n  tag_3\n  jump\t// in\ntag_2:\n    /* \"contracts/Ballot/MyBallot.sol\":682:692  msg.sender */\n  caller\n    /* \"contracts/Ballot/MyBallot.sol\":666:679  contractOwner */\n  0x00\n  dup1\n    /* \"contracts/Ballot/MyBallot.sol\":666:692  contractOwner = msg.sender */\n  0x0100\n  exp\n  dup2\n  sload\n  dup2\n  0xffffffffffffffffffffffffffffffffffffffff\n  mul\n  not\n  and\n  swap1\n  dup4\n  0xffffffffffffffffffffffffffffffffffffffff\n  and\n  mul\n  or\n  swap1\n  sstore\n  pop\n    /* \"contracts/Ballot/MyBallot.sol\":710:720  uint index */\n  0x00\n    /* \"contracts/Ballot/MyBallot.sol\":705:963  for (uint index = 0; index < _candidates.length; index++) {\r... */\ntag_6:\n    /* \"contracts/Ballot/MyBallot.sol\":734:745  _candidates */\n  dup2\n    /* \"contracts/Ballot/MyBallot.sol\":734:752  _candidates.length */\n  mload\n    /* \"contracts/Ballot/MyBallot.sol\":726:731  index */\n  dup2\n    /* \"contracts/Ballot/MyBallot.sol\":726:752  index < _candidates.length */\n  lt\n    /* \"contracts/Ballot/MyBallot.sol\":705:963  for (uint index = 0; index < _candidates.length; index++) {\r... */\n  iszero\n  tag_7\n  jumpi\n    /* \"contracts/Ballot/MyBallot.sol\":778:788  candidates */\n  0x02\n    /* \"contracts/Ballot/MyBallot.sol\":794:950  Candidate({\r... */\n  mload(0x40)\n  dup1\n  0x60\n  add\n  0x40\n  mstore\n  dup1\n    /* \"contracts/Ballot/MyBallot.sol\":829:840  _candidates */\n  dup5\n    /* \"contracts/Ballot/MyBallot.sol\":841:846  index */\n  dup5\n    /* \"contracts/Ballot/MyBallot.sol\":829:847  _candidates[index] */\n  dup2\n  mload\n  dup2\n  lt\n  tag_9\n  jumpi\n  tag_10\n  tag_11\n  jump\t// in\ntag_10:\ntag_9:\n  0x20\n  mul\n  0x20\n  add\n  add\n  mload\n    /* \"contracts/Ballot/MyBallot.sol\":829:852  _candidates[index].name */\n  0x00\n  add\n  mload\n    /* \"contracts/Ballot/MyBallot.sol\":794:950  Candidate({\r... */\n  dup2\n  mstore\n  0x20\n  add\n    /* \"contracts/Ballot/MyBallot.sol\":878:889  _candidates */\n  dup5\n    /* \"contracts/Ballot/MyBallot.sol\":890:895  index */\n  dup5\n    /* \"contracts/Ballot/MyBallot.sol\":878:896  _candidates[index] */\n  dup2\n  mload\n  dup2\n  lt\n  tag_12\n  jumpi\n  tag_13\n  tag_11\n  jump\t// in\ntag_13:\ntag_12:\n  0x20\n  mul\n  0x20\n  add\n  add\n  mload\n    /* \"contracts/Ballot/MyBallot.sol\":878:902  _candidates[index].party */\n  0x20\n  add\n  mload\n    /* \"contracts/Ballot/MyBallot.sol\":794:950  Candidate({\r... */\n  dup2\n  mstore\n  0x20\n  add\n    /* \"contracts/Ballot/MyBallot.sol\":933:934  0 */\n  0x00\n    /* \"contracts/Ballot/MyBallot.sol\":794:950  Candidate({\r... */\n  dup2\n  mstore\n  pop\n    /* \"contracts/Ballot/MyBallot.sol\":778:951  candidates.push(Candidate({\r... */\n  swap1\n  dup1\n  0x01\n  dup2\n  sload\n  add\n  dup1\n  dup3\n  sstore\n  dup1\n  swap2\n  pop\n  pop\n  0x01\n  swap1\n  sub\n  swap1\n  0x00\n  mstore\n  keccak256(0x00, 0x20)\n  swap1\n  0x03\n  mul\n  add\n  0x00\n  swap1\n  swap2\n  swap1\n  swap2\n  swap1\n  swap2\n  pop\n  0x00\n  dup3\n  add\n  mload\n  dup2\n  0x00\n  add\n  swap1\n  dup1\n  mload\n  swap1\n  0x20\n  add\n  swap1\n  tag_15\n  swap3\n  swap2\n  swap1\n  tag_16\n  jump\t// in\ntag_15:\n  pop\n  0x20\n  dup3\n  add\n  mload\n  dup2\n  0x01\n  add\n  swap1\n  dup1\n  mload\n  swap1\n  0x20\n  add\n  swap1\n  tag_17\n  swap3\n  swap2\n  swap1\n  tag_16\n  jump\t// in\ntag_17:\n  pop\n  0x40\n  dup3\n  add\n  mload\n  dup2\n  0x02\n  add\n  sstore\n  pop\n  pop\n    /* \"contracts/Ballot/MyBallot.sol\":754:761  index++ */\n  dup1\n  dup1\n  tag_18\n  swap1\n  tag_19\n  jump\t// in\ntag_18:\n  swap2\n  pop\n  pop\n    /* \"contracts/Ballot/MyBallot.sol\":705:963  for (uint index = 0; index < _candidates.length; index++) {\r... */\n  jump(tag_6)\ntag_7:\n  pop\n    /* \"contracts/Ballot/MyBallot.sol\":601:970  constructor(Candidate[] memory _candidates) {\r... */\n  pop\n    /* \"contracts/Ballot/MyBallot.sol\":132:5292  contract MyBallot {\r... */\n  jump(tag_20)\ntag_16:\n  dup3\n  dup1\n  sload\n  tag_21\n  swap1\n  tag_22\n  jump\t// in\ntag_21:\n  swap1\n  0x00\n  mstore\n  keccak256(0x00, 0x20)\n  swap1\n  0x1f\n  add\n  0x20\n  swap1\n  div\n  dup2\n  add\n  swap3\n  dup3\n  tag_24\n  jumpi\n  0x00\n  dup6\n  sstore\n  jump(tag_23)\ntag_24:\n  dup3\n  0x1f\n  lt\n  tag_25\n  jumpi\n  dup1\n  mload\n  not(0xff)\n  and\n  dup4\n  dup1\n  add\n  or\n  dup6\n  sstore\n  jump(tag_23)\ntag_25:\n  dup3\n  dup1\n  add\n  0x01\n  add\n  dup6\n  sstore\n  dup3\n  iszero\n  tag_23\n  jumpi\n  swap2\n  dup3\n  add\ntag_26:\n  dup3\n  dup2\n  gt\n  iszero\n  tag_27\n  jumpi\n  dup3\n  mload\n  dup3\n  sstore\n  swap2\n  0x20\n  add\n  swap2\n  swap1\n  0x01\n  add\n  swap1\n  jump(tag_26)\ntag_27:\ntag_23:\n  pop\n  swap1\n  pop\n  tag_28\n  swap2\n  swap1\n  tag_29\n  jump\t// in\ntag_28:\n  pop\n  swap1\n  jump\t// out\ntag_29:\ntag_30:\n  dup1\n  dup3\n  gt\n  iszero\n  tag_31\n  jumpi\n  0x00\n  dup2\n  0x00\n  swap1\n  sstore\n  pop\n  0x01\n  add\n  jump(tag_30)\ntag_31:\n  pop\n  swap1\n  jump\t// out\n    /* \"#utility.yul\":42:1059   */\ntag_33:\n    /* \"#utility.yul\":174:179   */\n  0x00\n    /* \"#utility.yul\":199:305   */\n  tag_35\n    /* \"#utility.yul\":215:304   */\n  tag_36\n    /* \"#utility.yul\":297:303   */\n  dup5\n    /* \"#utility.yul\":215:304   */\n  tag_37\n  jump\t// in\ntag_36:\n    /* \"#utility.yul\":199:305   */\n  tag_38\n  jump\t// in\ntag_35:\n    /* \"#utility.yul\":190:305   */\n  swap1\n  pop\n    /* \"#utility.yul\":325:330   */\n  dup1\n    /* \"#utility.yul\":354:360   */\n  dup4\n    /* \"#utility.yul\":347:352   */\n  dup3\n    /* \"#utility.yul\":340:361   */\n  mstore\n    /* \"#utility.yul\":388:392   */\n  0x20\n    /* \"#utility.yul\":381:386   */\n  dup3\n    /* \"#utility.yul\":377:393   */\n  add\n    /* \"#utility.yul\":370:393   */\n  swap1\n  pop\n    /* \"#utility.yul\":414:420   */\n  dup3\n    /* \"#utility.yul\":464:467   */\n  dup6\n    /* \"#utility.yul\":456:460   */\n  0x20\n    /* \"#utility.yul\":448:454   */\n  dup7\n    /* \"#utility.yul\":444:461   */\n  mul\n    /* \"#utility.yul\":439:442   */\n  dup3\n    /* \"#utility.yul\":435:462   */\n  add\n    /* \"#utility.yul\":432:468   */\n  gt\n    /* \"#utility.yul\":429:572   */\n  iszero\n  tag_39\n  jumpi\n    /* \"#utility.yul\":483:562   */\n  tag_40\n  tag_41\n  jump\t// in\ntag_40:\n    /* \"#utility.yul\":429:572   */\ntag_39:\n    /* \"#utility.yul\":596:597   */\n  0x00\n    /* \"#utility.yul\":581:1053   */\ntag_42:\n    /* \"#utility.yul\":606:612   */\n  dup6\n    /* \"#utility.yul\":603:604   */\n  dup2\n    /* \"#utility.yul\":600:613   */\n  lt\n    /* \"#utility.yul\":581:1053   */\n  iszero\n  tag_44\n  jumpi\n    /* \"#utility.yul\":681:684   */\n  dup2\n    /* \"#utility.yul\":675:685   */\n  mload\n    /* \"#utility.yul\":717:735   */\n  0xffffffffffffffff\n    /* \"#utility.yul\":704:715   */\n  dup2\n    /* \"#utility.yul\":701:736   */\n  gt\n    /* \"#utility.yul\":698:820   */\n  iszero\n  tag_45\n  jumpi\n    /* \"#utility.yul\":739:818   */\n  tag_46\n  tag_47\n  jump\t// in\ntag_46:\n    /* \"#utility.yul\":698:820   */\ntag_45:\n    /* \"#utility.yul\":863:874   */\n  dup1\n    /* \"#utility.yul\":855:861   */\n  dup7\n    /* \"#utility.yul\":851:875   */\n  add\n    /* \"#utility.yul\":901:974   */\n  tag_48\n    /* \"#utility.yul\":970:973   */\n  dup10\n    /* \"#utility.yul\":958:968   */\n  dup3\n    /* \"#utility.yul\":901:974   */\n  tag_49\n  jump\t// in\ntag_48:\n    /* \"#utility.yul\":896:899   */\n  dup6\n    /* \"#utility.yul\":889:975   */\n  mstore\n    /* \"#utility.yul\":1004:1008   */\n  0x20\n    /* \"#utility.yul\":999:1002   */\n  dup6\n    /* \"#utility.yul\":995:1009   */\n  add\n    /* \"#utility.yul\":988:1009   */\n  swap5\n  pop\n    /* \"#utility.yul\":1038:1042   */\n  0x20\n    /* \"#utility.yul\":1033:1036   */\n  dup5\n    /* \"#utility.yul\":1029:1043   */\n  add\n    /* \"#utility.yul\":1022:1043   */\n  swap4\n  pop\n    /* \"#utility.yul\":641:1053   */\n  pop\n  pop\n    /* \"#utility.yul\":628:629   */\n  0x01\n    /* \"#utility.yul\":625:626   */\n  dup2\n    /* \"#utility.yul\":621:630   */\n  add\n    /* \"#utility.yul\":616:630   */\n  swap1\n  pop\n    /* \"#utility.yul\":581:1053   */\n  jump(tag_42)\ntag_44:\n    /* \"#utility.yul\":585:599   */\n  pop\n    /* \"#utility.yul\":180:1059   */\n  pop\n  pop\n    /* \"#utility.yul\":42:1059   */\n  swap4\n  swap3\n  pop\n  pop\n  pop\n  jump\t// out\n    /* \"#utility.yul\":1065:1486   */\ntag_50:\n    /* \"#utility.yul\":1154:1159   */\n  0x00\n    /* \"#utility.yul\":1179:1245   */\n  tag_52\n    /* \"#utility.yul\":1195:1244   */\n  tag_53\n    /* \"#utility.yul\":1237:1243   */\n  dup5\n    /* \"#utility.yul\":1195:1244   */\n  tag_54\n  jump\t// in\ntag_53:\n    /* \"#utility.yul\":1179:1245   */\n  tag_38\n  jump\t// in\ntag_52:\n    /* \"#utility.yul\":1170:1245   */\n  swap1\n  pop\n    /* \"#utility.yul\":1268:1274   */\n  dup3\n    /* \"#utility.yul\":1261:1266   */\n  dup2\n    /* \"#utility.yul\":1254:1275   */\n  mstore\n    /* \"#utility.yul\":1306:1310   */\n  0x20\n    /* \"#utility.yul\":1299:1304   */\n  dup2\n    /* \"#utility.yul\":1295:1311   */\n  add\n    /* \"#utility.yul\":1344:1347   */\n  dup5\n    /* \"#utility.yul\":1335:1341   */\n  dup5\n    /* \"#utility.yul\":1330:1333   */\n  dup5\n    /* \"#utility.yul\":1326:1342   */\n  add\n    /* \"#utility.yul\":1323:1348   */\n  gt\n    /* \"#utility.yul\":1320:1432   */\n  iszero\n  tag_55\n  jumpi\n    /* \"#utility.yul\":1351:1430   */\n  tag_56\n  tag_57\n  jump\t// in\ntag_56:\n    /* \"#utility.yul\":1320:1432   */\ntag_55:\n    /* \"#utility.yul\":1441:1480   */\n  tag_58\n    /* \"#utility.yul\":1473:1479   */\n  dup5\n    /* \"#utility.yul\":1468:1471   */\n  dup3\n    /* \"#utility.yul\":1463:1466   */\n  dup6\n    /* \"#utility.yul\":1441:1480   */\n  tag_59\n  jump\t// in\ntag_58:\n    /* \"#utility.yul\":1160:1486   */\n  pop\n    /* \"#utility.yul\":1065:1486   */\n  swap4\n  swap3\n  pop\n  pop\n  pop\n  jump\t// out\n    /* \"#utility.yul\":1527:1962   */\ntag_60:\n    /* \"#utility.yul\":1634:1639   */\n  0x00\n    /* \"#utility.yul\":1683:1686   */\n  dup3\n    /* \"#utility.yul\":1676:1680   */\n  0x1f\n    /* \"#utility.yul\":1668:1674   */\n  dup4\n    /* \"#utility.yul\":1664:1681   */\n  add\n    /* \"#utility.yul\":1660:1687   */\n  slt\n    /* \"#utility.yul\":1650:1772   */\n  tag_62\n  jumpi\n    /* \"#utility.yul\":1691:1770   */\n  tag_63\n  tag_47\n  jump\t// in\ntag_63:\n    /* \"#utility.yul\":1650:1772   */\ntag_62:\n    /* \"#utility.yul\":1801:1807   */\n  dup2\n    /* \"#utility.yul\":1795:1808   */\n  mload\n    /* \"#utility.yul\":1826:1956   */\n  tag_64\n    /* \"#utility.yul\":1952:1955   */\n  dup5\n    /* \"#utility.yul\":1944:1950   */\n  dup3\n    /* \"#utility.yul\":1937:1941   */\n  0x20\n    /* \"#utility.yul\":1929:1935   */\n  dup7\n    /* \"#utility.yul\":1925:1942   */\n  add\n    /* \"#utility.yul\":1826:1956   */\n  tag_33\n  jump\t// in\ntag_64:\n    /* \"#utility.yul\":1817:1956   */\n  swap2\n  pop\n    /* \"#utility.yul\":1640:1962   */\n  pop\n    /* \"#utility.yul\":1527:1962   */\n  swap3\n  swap2\n  pop\n  pop\n  jump\t// out\n    /* \"#utility.yul\":1982:2337   */\ntag_65:\n    /* \"#utility.yul\":2049:2054   */\n  0x00\n    /* \"#utility.yul\":2098:2101   */\n  dup3\n    /* \"#utility.yul\":2091:2095   */\n  0x1f\n    /* \"#utility.yul\":2083:2089   */\n  dup4\n    /* \"#utility.yul\":2079:2096   */\n  add\n    /* \"#utility.yul\":2075:2102   */\n  slt\n    /* \"#utility.yul\":2065:2187   */\n  tag_67\n  jumpi\n    /* \"#utility.yul\":2106:2185   */\n  tag_68\n  tag_47\n  jump\t// in\ntag_68:\n    /* \"#utility.yul\":2065:2187   */\ntag_67:\n    /* \"#utility.yul\":2216:2222   */\n  dup2\n    /* \"#utility.yul\":2210:2223   */\n  mload\n    /* \"#utility.yul\":2241:2331   */\n  tag_69\n    /* \"#utility.yul\":2327:2330   */\n  dup5\n    /* \"#utility.yul\":2319:2325   */\n  dup3\n    /* \"#utility.yul\":2312:2316   */\n  0x20\n    /* \"#utility.yul\":2304:2310   */\n  dup7\n    /* \"#utility.yul\":2300:2317   */\n  add\n    /* \"#utility.yul\":2241:2331   */\n  tag_50\n  jump\t// in\ntag_69:\n    /* \"#utility.yul\":2232:2331   */\n  swap2\n  pop\n    /* \"#utility.yul\":2055:2337   */\n  pop\n    /* \"#utility.yul\":1982:2337   */\n  swap3\n  swap2\n  pop\n  pop\n  jump\t// out\n    /* \"#utility.yul\":2376:3488   */\ntag_49:\n    /* \"#utility.yul\":2461:2466   */\n  0x00\n    /* \"#utility.yul\":2505:2509   */\n  0x60\n    /* \"#utility.yul\":2493:2502   */\n  dup3\n    /* \"#utility.yul\":2488:2491   */\n  dup5\n    /* \"#utility.yul\":2484:2503   */\n  sub\n    /* \"#utility.yul\":2480:2510   */\n  slt\n    /* \"#utility.yul\":2477:2594   */\n  iszero\n  tag_71\n  jumpi\n    /* \"#utility.yul\":2513:2592   */\n  tag_72\n  tag_73\n  jump\t// in\ntag_72:\n    /* \"#utility.yul\":2477:2594   */\ntag_71:\n    /* \"#utility.yul\":2612:2633   */\n  tag_74\n    /* \"#utility.yul\":2628:2632   */\n  0x60\n    /* \"#utility.yul\":2612:2633   */\n  tag_38\n  jump\t// in\ntag_74:\n    /* \"#utility.yul\":2603:2633   */\n  swap1\n  pop\n    /* \"#utility.yul\":2713:2714   */\n  0x00\n    /* \"#utility.yul\":2702:2711   */\n  dup3\n    /* \"#utility.yul\":2698:2715   */\n  add\n    /* \"#utility.yul\":2692:2716   */\n  mload\n    /* \"#utility.yul\":2743:2761   */\n  0xffffffffffffffff\n    /* \"#utility.yul\":2735:2741   */\n  dup2\n    /* \"#utility.yul\":2732:2762   */\n  gt\n    /* \"#utility.yul\":2729:2846   */\n  iszero\n  tag_75\n  jumpi\n    /* \"#utility.yul\":2765:2844   */\n  tag_76\n  tag_77\n  jump\t// in\ntag_76:\n    /* \"#utility.yul\":2729:2846   */\ntag_75:\n    /* \"#utility.yul\":2885:2955   */\n  tag_78\n    /* \"#utility.yul\":2951:2954   */\n  dup5\n    /* \"#utility.yul\":2942:2948   */\n  dup3\n    /* \"#utility.yul\":2931:2940   */\n  dup6\n    /* \"#utility.yul\":2927:2949   */\n  add\n    /* \"#utility.yul\":2885:2955   */\n  tag_65\n  jump\t// in\ntag_78:\n    /* \"#utility.yul\":2878:2882   */\n  0x00\n    /* \"#utility.yul\":2871:2876   */\n  dup4\n    /* \"#utility.yul\":2867:2883   */\n  add\n    /* \"#utility.yul\":2860:2956   */\n  mstore\n    /* \"#utility.yul\":2643:2967   */\n  pop\n    /* \"#utility.yul\":3048:3050   */\n  0x20\n    /* \"#utility.yul\":3037:3046   */\n  dup3\n    /* \"#utility.yul\":3033:3051   */\n  add\n    /* \"#utility.yul\":3027:3052   */\n  mload\n    /* \"#utility.yul\":3079:3097   */\n  0xffffffffffffffff\n    /* \"#utility.yul\":3071:3077   */\n  dup2\n    /* \"#utility.yul\":3068:3098   */\n  gt\n    /* \"#utility.yul\":3065:3182   */\n  iszero\n  tag_79\n  jumpi\n    /* \"#utility.yul\":3101:3180   */\n  tag_80\n  tag_77\n  jump\t// in\ntag_80:\n    /* \"#utility.yul\":3065:3182   */\ntag_79:\n    /* \"#utility.yul\":3221:3291   */\n  tag_81\n    /* \"#utility.yul\":3287:3290   */\n  dup5\n    /* \"#utility.yul\":3278:3284   */\n  dup3\n    /* \"#utility.yul\":3267:3276   */\n  dup6\n    /* \"#utility.yul\":3263:3285   */\n  add\n    /* \"#utility.yul\":3221:3291   */\n  tag_65\n  jump\t// in\ntag_81:\n    /* \"#utility.yul\":3214:3218   */\n  0x20\n    /* \"#utility.yul\":3207:3212   */\n  dup4\n    /* \"#utility.yul\":3203:3219   */\n  add\n    /* \"#utility.yul\":3196:3292   */\n  mstore\n    /* \"#utility.yul\":2977:3303   */\n  pop\n    /* \"#utility.yul\":3368:3370   */\n  0x40\n    /* \"#utility.yul\":3409:3469   */\n  tag_82\n    /* \"#utility.yul\":3465:3468   */\n  dup5\n    /* \"#utility.yul\":3456:3462   */\n  dup3\n    /* \"#utility.yul\":3445:3454   */\n  dup6\n    /* \"#utility.yul\":3441:3463   */\n  add\n    /* \"#utility.yul\":3409:3469   */\n  tag_83\n  jump\t// in\ntag_82:\n    /* \"#utility.yul\":3402:3406   */\n  0x40\n    /* \"#utility.yul\":3395:3400   */\n  dup4\n    /* \"#utility.yul\":3391:3407   */\n  add\n    /* \"#utility.yul\":3384:3470   */\n  mstore\n    /* \"#utility.yul\":3313:3481   */\n  pop\n    /* \"#utility.yul\":2376:3488   */\n  swap3\n  swap2\n  pop\n  pop\n  jump\t// out\n    /* \"#utility.yul\":3494:3637   */\ntag_83:\n    /* \"#utility.yul\":3551:3556   */\n  0x00\n    /* \"#utility.yul\":3582:3588   */\n  dup2\n    /* \"#utility.yul\":3576:3589   */\n  mload\n    /* \"#utility.yul\":3567:3589   */\n  swap1\n  pop\n    /* \"#utility.yul\":3598:3631   */\n  tag_85\n    /* \"#utility.yul\":3625:3630   */\n  dup2\n    /* \"#utility.yul\":3598:3631   */\n  tag_86\n  jump\t// in\ntag_85:\n    /* \"#utility.yul\":3494:3637   */\n  swap3\n  swap2\n  pop\n  pop\n  jump\t// out\n    /* \"#utility.yul\":3643:4247   */\ntag_3:\n    /* \"#utility.yul\":3763:3769   */\n  0x00\n    /* \"#utility.yul\":3812:3814   */\n  0x20\n    /* \"#utility.yul\":3800:3809   */\n  dup3\n    /* \"#utility.yul\":3791:3798   */\n  dup5\n    /* \"#utility.yul\":3787:3810   */\n  sub\n    /* \"#utility.yul\":3783:3815   */\n  slt\n    /* \"#utility.yul\":3780:3899   */\n  iszero\n  tag_88\n  jumpi\n    /* \"#utility.yul\":3818:3897   */\n  tag_89\n  tag_90\n  jump\t// in\ntag_89:\n    /* \"#utility.yul\":3780:3899   */\ntag_88:\n    /* \"#utility.yul\":3959:3960   */\n  0x00\n    /* \"#utility.yul\":3948:3957   */\n  dup3\n    /* \"#utility.yul\":3944:3961   */\n  add\n    /* \"#utility.yul\":3938:3962   */\n  mload\n    /* \"#utility.yul\":3989:4007   */\n  0xffffffffffffffff\n    /* \"#utility.yul\":3981:3987   */\n  dup2\n    /* \"#utility.yul\":3978:4008   */\n  gt\n    /* \"#utility.yul\":3975:4092   */\n  iszero\n  tag_91\n  jumpi\n    /* \"#utility.yul\":4011:4090   */\n  tag_92\n  tag_93\n  jump\t// in\ntag_92:\n    /* \"#utility.yul\":3975:4092   */\ntag_91:\n    /* \"#utility.yul\":4116:4230   */\n  tag_94\n    /* \"#utility.yul\":4222:4229   */\n  dup5\n    /* \"#utility.yul\":4213:4219   */\n  dup3\n    /* \"#utility.yul\":4202:4211   */\n  dup6\n    /* \"#utility.yul\":4198:4220   */\n  add\n    /* \"#utility.yul\":4116:4230   */\n  tag_60\n  jump\t// in\ntag_94:\n    /* \"#utility.yul\":4106:4230   */\n  swap2\n  pop\n    /* \"#utility.yul\":3909:4240   */\n  pop\n    /* \"#utility.yul\":3643:4247   */\n  swap3\n  swap2\n  pop\n  pop\n  jump\t// out\n    /* \"#utility.yul\":4253:4382   */\ntag_38:\n    /* \"#utility.yul\":4287:4293   */\n  0x00\n    /* \"#utility.yul\":4314:4334   */\n  tag_96\n  tag_97\n  jump\t// in\ntag_96:\n    /* \"#utility.yul\":4304:4334   */\n  swap1\n  pop\n    /* \"#utility.yul\":4343:4376   */\n  tag_98\n    /* \"#utility.yul\":4371:4375   */\n  dup3\n    /* \"#utility.yul\":4363:4369   */\n  dup3\n    /* \"#utility.yul\":4343:4376   */\n  tag_99\n  jump\t// in\ntag_98:\n    /* \"#utility.yul\":4253:4382   */\n  swap2\n  swap1\n  pop\n  jump\t// out\n    /* \"#utility.yul\":4388:4463   */\ntag_97:\n    /* \"#utility.yul\":4421:4427   */\n  0x00\n    /* \"#utility.yul\":4454:4456   */\n  0x40\n    /* \"#utility.yul\":4448:4457   */\n  mload\n    /* \"#utility.yul\":4438:4457   */\n  swap1\n  pop\n    /* \"#utility.yul\":4388:4463   */\n  swap1\n  jump\t// out\n    /* \"#utility.yul\":4469:4805   */\ntag_37:\n    /* \"#utility.yul\":4571:4575   */\n  0x00\n    /* \"#utility.yul\":4661:4679   */\n  0xffffffffffffffff\n    /* \"#utility.yul\":4653:4659   */\n  dup3\n    /* \"#utility.yul\":4650:4680   */\n  gt\n    /* \"#utility.yul\":4647:4703   */\n  iszero\n  tag_102\n  jumpi\n    /* \"#utility.yul\":4683:4701   */\n  tag_103\n  tag_104\n  jump\t// in\ntag_103:\n    /* \"#utility.yul\":4647:4703   */\ntag_102:\n    /* \"#utility.yul\":4733:4737   */\n  0x20\n    /* \"#utility.yul\":4725:4731   */\n  dup3\n    /* \"#utility.yul\":4721:4738   */\n  mul\n    /* \"#utility.yul\":4713:4738   */\n  swap1\n  pop\n    /* \"#utility.yul\":4793:4797   */\n  0x20\n    /* \"#utility.yul\":4787:4791   */\n  dup2\n    /* \"#utility.yul\":4783:4798   */\n  add\n    /* \"#utility.yul\":4775:4798   */\n  swap1\n  pop\n    /* \"#utility.yul\":4469:4805   */\n  swap2\n  swap1\n  pop\n  jump\t// out\n    /* \"#utility.yul\":4811:5119   */\ntag_54:\n    /* \"#utility.yul\":4873:4877   */\n  0x00\n    /* \"#utility.yul\":4963:4981   */\n  0xffffffffffffffff\n    /* \"#utility.yul\":4955:4961   */\n  dup3\n    /* \"#utility.yul\":4952:4982   */\n  gt\n    /* \"#utility.yul\":4949:5005   */\n  iszero\n  tag_106\n  jumpi\n    /* \"#utility.yul\":4985:5003   */\n  tag_107\n  tag_104\n  jump\t// in\ntag_107:\n    /* \"#utility.yul\":4949:5005   */\ntag_106:\n    /* \"#utility.yul\":5023:5052   */\n  tag_108\n    /* \"#utility.yul\":5045:5051   */\n  dup3\n    /* \"#utility.yul\":5023:5052   */\n  tag_109\n  jump\t// in\ntag_108:\n    /* \"#utility.yul\":5015:5052   */\n  swap1\n  pop\n    /* \"#utility.yul\":5107:5111   */\n  0x20\n    /* \"#utility.yul\":5101:5105   */\n  dup2\n    /* \"#utility.yul\":5097:5112   */\n  add\n    /* \"#utility.yul\":5089:5112   */\n  swap1\n  pop\n    /* \"#utility.yul\":4811:5119   */\n  swap2\n  swap1\n  pop\n  jump\t// out\n    /* \"#utility.yul\":5125:5202   */\ntag_110:\n    /* \"#utility.yul\":5162:5169   */\n  0x00\n    /* \"#utility.yul\":5191:5196   */\n  dup2\n    /* \"#utility.yul\":5180:5196   */\n  swap1\n  pop\n    /* \"#utility.yul\":5125:5202   */\n  swap2\n  swap1\n  pop\n  jump\t// out\n    /* \"#utility.yul\":5208:5515   */\ntag_59:\n    /* \"#utility.yul\":5276:5277   */\n  0x00\n    /* \"#utility.yul\":5286:5399   */\ntag_113:\n    /* \"#utility.yul\":5300:5306   */\n  dup4\n    /* \"#utility.yul\":5297:5298   */\n  dup2\n    /* \"#utility.yul\":5294:5307   */\n  lt\n    /* \"#utility.yul\":5286:5399   */\n  iszero\n  tag_115\n  jumpi\n    /* \"#utility.yul\":5385:5386   */\n  dup1\n    /* \"#utility.yul\":5380:5383   */\n  dup3\n    /* \"#utility.yul\":5376:5387   */\n  add\n    /* \"#utility.yul\":5370:5388   */\n  mload\n    /* \"#utility.yul\":5366:5367   */\n  dup2\n    /* \"#utility.yul\":5361:5364   */\n  dup5\n    /* \"#utility.yul\":5357:5368   */\n  add\n    /* \"#utility.yul\":5350:5389   */\n  mstore\n    /* \"#utility.yul\":5322:5324   */\n  0x20\n    /* \"#utility.yul\":5319:5320   */\n  dup2\n    /* \"#utility.yul\":5315:5325   */\n  add\n    /* \"#utility.yul\":5310:5325   */\n  swap1\n  pop\n    /* \"#utility.yul\":5286:5399   */\n  jump(tag_113)\ntag_115:\n    /* \"#utility.yul\":5417:5423   */\n  dup4\n    /* \"#utility.yul\":5414:5415   */\n  dup2\n    /* \"#utility.yul\":5411:5424   */\n  gt\n    /* \"#utility.yul\":5408:5509   */\n  iszero\n  tag_116\n  jumpi\n    /* \"#utility.yul\":5497:5498   */\n  0x00\n    /* \"#utility.yul\":5488:5494   */\n  dup5\n    /* \"#utility.yul\":5483:5486   */\n  dup5\n    /* \"#utility.yul\":5479:5495   */\n  add\n    /* \"#utility.yul\":5472:5499   */\n  mstore\n    /* \"#utility.yul\":5408:5509   */\ntag_116:\n    /* \"#utility.yul\":5257:5515   */\n  pop\n    /* \"#utility.yul\":5208:5515   */\n  pop\n  pop\n  pop\n  jump\t// out\n    /* \"#utility.yul\":5521:5841   */\ntag_22:\n    /* \"#utility.yul\":5565:5571   */\n  0x00\n    /* \"#utility.yul\":5602:5603   */\n  0x02\n    /* \"#utility.yul\":5596:5600   */\n  dup3\n    /* \"#utility.yul\":5592:5604   */\n  div\n    /* \"#utility.yul\":5582:5604   */\n  swap1\n  pop\n    /* \"#utility.yul\":5649:5650   */\n  0x01\n    /* \"#utility.yul\":5643:5647   */\n  dup3\n    /* \"#utility.yul\":5639:5651   */\n  and\n    /* \"#utility.yul\":5670:5688   */\n  dup1\n    /* \"#utility.yul\":5660:5741   */\n  tag_118\n  jumpi\n    /* \"#utility.yul\":5726:5730   */\n  0x7f\n    /* \"#utility.yul\":5718:5724   */\n  dup3\n    /* \"#utility.yul\":5714:5731   */\n  and\n    /* \"#utility.yul\":5704:5731   */\n  swap2\n  pop\n    /* \"#utility.yul\":5660:5741   */\ntag_118:\n    /* \"#utility.yul\":5788:5790   */\n  0x20\n    /* \"#utility.yul\":5780:5786   */\n  dup3\n    /* \"#utility.yul\":5777:5791   */\n  lt\n    /* \"#utility.yul\":5757:5775   */\n  dup2\n    /* \"#utility.yul\":5754:5792   */\n  eq\n    /* \"#utility.yul\":5751:5835   */\n  iszero\n  tag_119\n  jumpi\n    /* \"#utility.yul\":5807:5825   */\n  tag_120\n  tag_121\n  jump\t// in\ntag_120:\n    /* \"#utility.yul\":5751:5835   */\ntag_119:\n    /* \"#utility.yul\":5572:5841   */\n  pop\n    /* \"#utility.yul\":5521:5841   */\n  swap2\n  swap1\n  pop\n  jump\t// out\n    /* \"#utility.yul\":5847:6128   */\ntag_99:\n    /* \"#utility.yul\":5930:5957   */\n  tag_123\n    /* \"#utility.yul\":5952:5956   */\n  dup3\n    /* \"#utility.yul\":5930:5957   */\n  tag_109\n  jump\t// in\ntag_123:\n    /* \"#utility.yul\":5922:5928   */\n  dup2\n    /* \"#utility.yul\":5918:5958   */\n  add\n    /* \"#utility.yul\":6060:6066   */\n  dup2\n    /* \"#utility.yul\":6048:6058   */\n  dup2\n    /* \"#utility.yul\":6045:6067   */\n  lt\n    /* \"#utility.yul\":6024:6042   */\n  0xffffffffffffffff\n    /* \"#utility.yul\":6012:6022   */\n  dup3\n    /* \"#utility.yul\":6009:6043   */\n  gt\n    /* \"#utility.yul\":6006:6068   */\n  or\n    /* \"#utility.yul\":6003:6091   */\n  iszero\n  tag_124\n  jumpi\n    /* \"#utility.yul\":6071:6089   */\n  tag_125\n  tag_104\n  jump\t// in\ntag_125:\n    /* \"#utility.yul\":6003:6091   */\ntag_124:\n    /* \"#utility.yul\":6111:6121   */\n  dup1\n    /* \"#utility.yul\":6107:6109   */\n  0x40\n    /* \"#utility.yul\":6100:6122   */\n  mstore\n    /* \"#utility.yul\":5890:6128   */\n  pop\n    /* \"#utility.yul\":5847:6128   */\n  pop\n  pop\n  jump\t// out\n    /* \"#utility.yul\":6134:6367   */\ntag_19:\n    /* \"#utility.yul\":6173:6176   */\n  0x00\n    /* \"#utility.yul\":6196:6220   */\n  tag_127\n    /* \"#utility.yul\":6214:6219   */\n  dup3\n    /* \"#utility.yul\":6196:6220   */\n  tag_110\n  jump\t// in\ntag_127:\n    /* \"#utility.yul\":6187:6220   */\n  swap2\n  pop\n    /* \"#utility.yul\":6242:6308   */\n  0xffffffffffffffffffffffffffffffffffffffffffffffffffffffffffffffff\n    /* \"#utility.yul\":6235:6240   */\n  dup3\n    /* \"#utility.yul\":6232:6309   */\n  eq\n    /* \"#utility.yul\":6229:6332   */\n  iszero\n  tag_128\n  jumpi\n    /* \"#utility.yul\":6312:6330   */\n  tag_129\n  tag_130\n  jump\t// in\ntag_129:\n    /* \"#utility.yul\":6229:6332   */\ntag_128:\n    /* \"#utility.yul\":6359:6360   */\n  0x01\n    /* \"#utility.yul\":6352:6357   */\n  dup3\n    /* \"#utility.yul\":6348:6361   */\n  add\n    /* \"#utility.yul\":6341:6361   */\n  swap1\n  pop\n    /* \"#utility.yul\":6134:6367   */\n  swap2\n  swap1\n  pop\n  jump\t// out\n    /* \"#utility.yul\":6373:6553   */\ntag_130:\n    /* \"#utility.yul\":6421:6498   */\n  0x4e487b7100000000000000000000000000000000000000000000000000000000\n    /* \"#utility.yul\":6418:6419   */\n  0x00\n    /* \"#utility.yul\":6411:6499   */\n  mstore\n    /* \"#utility.yul\":6518:6522   */\n  0x11\n    /* \"#utility.yul\":6515:6516   */\n  0x04\n    /* \"#utility.yul\":6508:6523   */\n  mstore\n    /* \"#utility.yul\":6542:6546   */\n  0x24\n    /* \"#utility.yul\":6539:6540   */\n  0x00\n    /* \"#utility.yul\":6532:6547   */\n  revert\n    /* \"#utility.yul\":6559:6739   */\ntag_121:\n    /* \"#utility.yul\":6607:6684   */\n  0x4e487b7100000000000000000000000000000000000000000000000000000000\n    /* \"#utility.yul\":6604:6605   */\n  0x00\n    /* \"#utility.yul\":6597:6685   */\n  mstore\n    /* \"#utility.yul\":6704:6708   */\n  0x22\n    /* \"#utility.yul\":6701:6702   */\n  0x04\n    /* \"#utility.yul\":6694:6709   */\n  mstore\n    /* \"#utility.yul\":6728:6732   */\n  0x24\n    /* \"#utility.yul\":6725:6726   */\n  0x00\n    /* \"#utility.yul\":6718:6733   */\n  revert\n    /* \"#utility.yul\":6745:6925   */\ntag_11:\n    /* \"#utility.yul\":6793:6870   */\n  0x4e487b7100000000000000000000000000000000000000000000000000000000\n    /* \"#utility.yul\":6790:6791   */\n  0x00\n    /* \"#utility.yul\":6783:6871   */\n  mstore\n    /* \"#utility.yul\":6890:6894   */\n  0x32\n    /* \"#utility.yul\":6887:6888   */\n  0x04\n    /* \"#utility.yul\":6880:6895   */\n  mstore\n    /* \"#utility.yul\":6914:6918   */\n  0x24\n    /* \"#utility.yul\":6911:6912   */\n  0x00\n    /* \"#utility.yul\":6904:6919   */\n  revert\n    /* \"#utility.yul\":6931:7111   */\ntag_104:\n    /* \"#utility.yul\":6979:7056   */\n  0x4e487b7100000000000000000000000000000000000000000000000000000000\n    /* \"#utility.yul\":6976:6977   */\n  0x00\n    /* \"#utility.yul\":6969:7057   */\n  mstore\n    /* \"#utility.yul\":7076:7080   */\n  0x41\n    /* \"#utility.yul\":7073:7074   */\n  0x04\n    /* \"#utility.yul\":7066:7081   */\n  mstore\n    /* \"#utility.yul\":7100:7104   */\n  0x24\n    /* \"#utility.yul\":7097:7098   */\n  0x00\n    /* \"#utility.yul\":7090:7105   */\n  revert\n    /* \"#utility.yul\":7117:7234   */\ntag_47:\n    /* \"#utility.yul\":7226:7227   */\n  0x00\n    /* \"#utility.yul\":7223:7224   */\n  dup1\n    /* \"#utility.yul\":7216:7228   */\n  revert\n    /* \"#utility.yul\":7240:7357   */\ntag_73:\n    /* \"#utility.yul\":7349:7350   */\n  0x00\n    /* \"#utility.yul\":7346:7347   */\n  dup1\n    /* \"#utility.yul\":7339:7351   */\n  revert\n    /* \"#utility.yul\":7363:7480   */\ntag_77:\n    /* \"#utility.yul\":7472:7473   */\n  0x00\n    /* \"#utility.yul\":7469:7470   */\n  dup1\n    /* \"#utility.yul\":7462:7474   */\n  revert\n    /* \"#utility.yul\":7486:7603   */\ntag_41:\n    /* \"#utility.yul\":7595:7596   */\n  0x00\n    /* \"#utility.yul\":7592:7593   */\n  dup1\n    /* \"#utility.yul\":7585:7597   */\n  revert\n    /* \"#utility.yul\":7609:7726   */\ntag_57:\n    /* \"#utility.yul\":7718:7719   */\n  0x00\n    /* \"#utility.yul\":7715:7716   */\n  dup1\n    /* \"#utility.yul\":7708:7720   */\n  revert\n    /* \"#utility.yul\":7732:7849   */\ntag_93:\n    /* \"#utility.yul\":7841:7842   */\n  0x00\n    /* \"#utility.yul\":7838:7839   */\n  dup1\n    /* \"#utility.yul\":7831:7843   */\n  revert\n    /* \"#utility.yul\":7855:7972   */\ntag_90:\n    /* \"#utility.yul\":7964:7965   */\n  0x00\n    /* \"#utility.yul\":7961:7962   */\n  dup1\n    /* \"#utility.yul\":7954:7966   */\n  revert\n    /* \"#utility.yul\":7978:8080   */\ntag_109:\n    /* \"#utility.yul\":8019:8025   */\n  0x00\n    /* \"#utility.yul\":8070:8072   */\n  0x1f\n    /* \"#utility.yul\":8066:8073   */\n  not\n    /* \"#utility.yul\":8061:8063   */\n  0x1f\n    /* \"#utility.yul\":8054:8059   */\n  dup4\n    /* \"#utility.yul\":8050:8064   */\n  add\n    /* \"#utility.yul\":8046:8074   */\n  and\n    /* \"#utility.yul\":8036:8074   */\n  swap1\n  pop\n    /* \"#utility.yul\":7978:8080   */\n  swap2\n  swap1\n  pop\n  jump\t// out\n    /* \"#utility.yul\":8086:8208   */\ntag_86:\n    /* \"#utility.yul\":8159:8183   */\n  tag_144\n    /* \"#utility.yul\":8177:8182   */\n  dup2\n    /* \"#utility.yul\":8159:8183   */\n  tag_110\n  jump\t// in\ntag_144:\n    /* \"#utility.yul\":8152:8157   */\n  dup2\n    /* \"#utility.yul\":8149:8184   */\n  eq\n    /* \"#utility.yul\":8139:8202   */\n  tag_145\n  jumpi\n    /* \"#utility.yul\":8198:8199   */\n  0x00\n    /* \"#utility.yul\":8195:8196   */\n  dup1\n    /* \"#utility.yul\":8188:8200   */\n  revert\n    /* \"#utility.yul\":8139:8202   */\ntag_145:\n    /* \"#utility.yul\":8086:8208   */\n  pop\n  jump\t// out\n    /* \"contracts/Ballot/MyBallot.sol\":132:5292  contract MyBallot {\r... */\ntag_20:\n  dataSize(sub_0)\n  dup1\n  dataOffset(sub_0)\n  0x00\n  codecopy\n  0x00\n  return\nstop\n\nsub_0: assembly {\n        /* \"contracts/Ballot/MyBallot.sol\":132:5292  contract MyBallot {\r... */\n      mstore(0x40, 0x80)\n      callvalue\n      dup1\n      iszero\n      tag_1\n      jumpi\n      0x00\n      dup1\n      revert\n    tag_1:\n      pop\n      jumpi(tag_2, lt(calldatasize, 0x04))\n      shr(0xe0, calldataload(0x00))\n      dup1\n      0x954115f2\n      gt\n      tag_21\n      jumpi\n      dup1\n      0xda265430\n      gt\n      tag_22\n      jumpi\n      dup1\n      0xda265430\n      eq\n      tag_16\n      jumpi\n      dup1\n      0xdf703622\n      eq\n      tag_17\n      jumpi\n      dup1\n      0xeacc4e3f\n      eq\n      tag_18\n      jumpi\n      dup1\n      0xf927cc29\n      eq\n      tag_19\n      jumpi\n      dup1\n      0xfc36e15b\n      eq\n      tag_20\n      jumpi\n      jump(tag_2)\n    tag_22:\n      dup1\n      0x954115f2\n      eq\n      tag_12\n      jumpi\n      dup1\n      0x9e7b8d61\n      eq\n      tag_13\n      jumpi\n      dup1\n      0xa3ec138d\n      eq\n      tag_14\n      jumpi\n      dup1\n      0xce606ee0\n      eq\n      tag_15\n      jumpi\n      jump(tag_2)\n    tag_21:\n      dup1\n      0x32a2c5d0\n      gt\n      tag_23\n      jumpi\n      dup1\n      0x32a2c5d0\n      eq\n      tag_7\n      jumpi\n      dup1\n      0x3477ee2e\n      eq\n      tag_8\n      jumpi\n      dup1\n      0x3ddf3822\n      eq\n      tag_9\n      jumpi\n      dup1\n      0x4aba5f34\n      eq\n      tag_10\n      jumpi\n      dup1\n      0x743f7666\n      eq\n      tag_11\n      jumpi\n      jump(tag_2)\n    tag_23:\n      dup1\n      0x01c5556a\n      eq\n      tag_3\n      jumpi\n      dup1\n      0x0d15fd77\n      eq\n      tag_4\n      jumpi\n      dup1\n      0x10508439\n      eq\n      tag_5\n      jumpi\n      dup1\n      0x2bfda515\n      eq\n      tag_6\n      jumpi\n    tag_2:\n      0x00\n      dup1\n      revert\n        /* \"contracts/Ballot/MyBallot.sol\":4426:4655  function calculateAmountOfTotalVotes() public view returns (uint total) {\r... */\n    tag_3:\n      tag_24\n      tag_25\n      jump\t// in\n    tag_24:\n      mload(0x40)\n      tag_26\n      swap2\n      swap1\n      tag_27\n      jump\t// in\n    tag_26:\n      mload(0x40)\n      dup1\n      swap2\n      sub\n      swap1\n      return\n        /* \"contracts/Ballot/MyBallot.sol\":501:523  uint public totalVotes */\n    tag_4:\n      tag_28\n      tag_29\n      jump\t// in\n    tag_28:\n      mload(0x40)\n      tag_30\n      swap2\n      swap1\n      tag_27\n      jump\t// in\n    tag_30:\n      mload(0x40)\n      dup1\n      swap2\n      sub\n      swap1\n      return\n        /* \"contracts/Ballot/MyBallot.sol\":2300:2558  function addCandidateWithSpreadParameters(string memory name, string memory party) public isContractOwnerAddCandidate() {\r... */\n    tag_5:\n      tag_31\n      0x04\n      dup1\n      calldatasize\n      sub\n      dup2\n      add\n      swap1\n      tag_32\n      swap2\n      swap1\n      tag_33\n      jump\t// in\n    tag_32:\n      tag_34\n      jump\t// in\n    tag_31:\n      stop\n        /* \"contracts/Ballot/MyBallot.sol\":3607:3749  function getWinnerName() public view returns (string memory winnerName) {\r... */\n    tag_6:\n      tag_35\n      tag_36\n      jump\t// in\n    tag_35:\n      mload(0x40)\n      tag_37\n      swap2\n      swap1\n      tag_38\n      jump\t// in\n    tag_37:\n      mload(0x40)\n      dup1\n      swap2\n      sub\n      swap1\n      return\n        /* \"contracts/Ballot/MyBallot.sol\":4319:4418  function getContractAddress() public view returns (address) {\r... */\n    tag_7:\n      tag_39\n      tag_40\n      jump\t// in\n    tag_39:\n      mload(0x40)\n      tag_41\n      swap2\n      swap1\n      tag_42\n      jump\t// in\n    tag_41:\n      mload(0x40)\n      dup1\n      swap2\n      sub\n      swap1\n      return\n        /* \"contracts/Ballot/MyBallot.sol\":463:492  Candidate[] public candidates */\n    tag_8:\n      tag_43\n      0x04\n      dup1\n      calldatasize\n      sub\n      dup2\n      add\n      swap1\n      tag_44\n      swap2\n      swap1\n      tag_45\n      jump\t// in\n    tag_44:\n      tag_46\n      jump\t// in\n    tag_43:\n      mload(0x40)\n      tag_47\n      swap4\n      swap3\n      swap2\n      swap1\n      tag_48\n      jump\t// in\n    tag_47:\n      mload(0x40)\n      dup1\n      swap2\n      sub\n      swap1\n      return\n        /* \"contracts/Ballot/MyBallot.sol\":4663:4774  function areYouContractOwner() public view returns (bool) {\r... */\n    tag_9:\n      tag_49\n      tag_50\n      jump\t// in\n    tag_49:\n      mload(0x40)\n      tag_51\n      swap2\n      swap1\n      tag_52\n      jump\t// in\n    tag_51:\n      mload(0x40)\n      dup1\n      swap2\n      sub\n      swap1\n      return\n        /* \"contracts/Ballot/MyBallot.sol\":4205:4311  function getCandidatesList() public view returns (Candidate[] memory) {\r... */\n    tag_10:\n      tag_53\n      tag_54\n      jump\t// in\n    tag_53:\n      mload(0x40)\n      tag_55\n      swap2\n      swap1\n      tag_56\n      jump\t// in\n    tag_55:\n      mload(0x40)\n      dup1\n      swap2\n      sub\n      swap1\n      return\n        /* \"contracts/Ballot/MyBallot.sol\":5163:5289  function isVoterVoted(address voterAddress) public view returns (bool) {\r... */\n    tag_11:\n      tag_57\n      0x04\n      dup1\n      calldatasize\n      sub\n      dup2\n      add\n      swap1\n      tag_58\n      swap2\n      swap1\n      tag_59\n      jump\t// in\n    tag_58:\n      tag_60\n      jump\t// in\n    tag_57:\n      mload(0x40)\n      tag_61\n      swap2\n      swap1\n      tag_52\n      jump\t// in\n    tag_61:\n      mload(0x40)\n      dup1\n      swap2\n      sub\n      swap1\n      return\n        /* \"contracts/Ballot/MyBallot.sol\":2732:2878  function addCandidateAsStruct(Candidate memory newCandidate) public isContractOwnerAddCandidate() {\r... */\n    tag_12:\n      tag_62\n      0x04\n      dup1\n      calldatasize\n      sub\n      dup2\n      add\n      swap1\n      tag_63\n      swap2\n      swap1\n      tag_64\n      jump\t// in\n    tag_63:\n      tag_65\n      jump\t// in\n    tag_62:\n      stop\n        /* \"contracts/Ballot/MyBallot.sol\":2890:3053  function giveRightToVote(address voterAddress) public isContractOwnerRightToVote() isVoterVote(voterAddress) {\r... */\n    tag_13:\n      tag_66\n      0x04\n      dup1\n      calldatasize\n      sub\n      dup2\n      add\n      swap1\n      tag_67\n      swap2\n      swap1\n      tag_59\n      jump\t// in\n    tag_67:\n      tag_68\n      jump\t// in\n    tag_66:\n      stop\n        /* \"contracts/Ballot/MyBallot.sol\":415:454  mapping(address => Voter) public voters */\n    tag_14:\n      tag_69\n      0x04\n      dup1\n      calldatasize\n      sub\n      dup2\n      add\n      swap1\n      tag_70\n      swap2\n      swap1\n      tag_59\n      jump\t// in\n    tag_70:\n      tag_71\n      jump\t// in\n    tag_69:\n      mload(0x40)\n      tag_72\n      swap3\n      swap2\n      swap1\n      tag_73\n      jump\t// in\n    tag_72:\n      mload(0x40)\n      dup1\n      swap2\n      sub\n      swap1\n      return\n        /* \"contracts/Ballot/MyBallot.sol\":378:406  address public contractOwner */\n    tag_15:\n      tag_74\n      tag_75\n      jump\t// in\n    tag_74:\n      mload(0x40)\n      tag_76\n      swap2\n      swap1\n      tag_42\n      jump\t// in\n    tag_76:\n      mload(0x40)\n      dup1\n      swap2\n      sub\n      swap1\n      return\n        /* \"contracts/Ballot/MyBallot.sol\":5055:5155  function areYouVoted() public view returns (bool) {\r... */\n    tag_16:\n      tag_77\n      tag_78\n      jump\t// in\n    tag_77:\n      mload(0x40)\n      tag_79\n      swap2\n      swap1\n      tag_52\n      jump\t// in\n    tag_79:\n      mload(0x40)\n      dup1\n      swap2\n      sub\n      swap1\n      return\n        /* \"contracts/Ballot/MyBallot.sol\":4782:4903  function areYouHaveRigthToVote() public view returns (bool) {\r... */\n    tag_17:\n      tag_80\n      tag_81\n      jump\t// in\n    tag_80:\n      mload(0x40)\n      tag_82\n      swap2\n      swap1\n      tag_52\n      jump\t// in\n    tag_82:\n      mload(0x40)\n      dup1\n      swap2\n      sub\n      swap1\n      return\n        /* \"contracts/Ballot/MyBallot.sol\":4911:5047  function isAnyoneHaveRigthToVote(address voterAddress) public view returns (bool) {\r... */\n    tag_18:\n      tag_83\n      0x04\n      dup1\n      calldatasize\n      sub\n      dup2\n      add\n      swap1\n      tag_84\n      swap2\n      swap1\n      tag_59\n      jump\t// in\n    tag_84:\n      tag_85\n      jump\t// in\n    tag_83:\n      mload(0x40)\n      tag_86\n      swap2\n      swap1\n      tag_52\n      jump\t// in\n    tag_86:\n      mload(0x40)\n      dup1\n      swap2\n      sub\n      swap1\n      return\n        /* \"contracts/Ballot/MyBallot.sol\":3757:4197  function getWinningCandidate() public view returns (uint winningProposal) {\r... */\n    tag_19:\n      tag_87\n      tag_88\n      jump\t// in\n    tag_87:\n      mload(0x40)\n      tag_89\n      swap2\n      swap1\n      tag_27\n      jump\t// in\n    tag_89:\n      mload(0x40)\n      dup1\n      swap2\n      sub\n      swap1\n      return\n        /* \"contracts/Ballot/MyBallot.sol\":3061:3599  function vote(string memory name) public isVoterVote(msg.sender) hasRightToVote() {\r... */\n    tag_20:\n      tag_90\n      0x04\n      dup1\n      calldatasize\n      sub\n      dup2\n      add\n      swap1\n      tag_91\n      swap2\n      swap1\n      tag_92\n      jump\t// in\n    tag_91:\n      tag_93\n      jump\t// in\n    tag_90:\n      stop\n        /* \"contracts/Ballot/MyBallot.sol\":4426:4655  function calculateAmountOfTotalVotes() public view returns (uint total) {\r... */\n    tag_25:\n        /* \"contracts/Ballot/MyBallot.sol\":4486:4496  uint total */\n      0x00\n        /* \"contracts/Ballot/MyBallot.sol\":4532:4542  uint index */\n      dup1\n        /* \"contracts/Ballot/MyBallot.sol\":4545:4546  0 */\n      0x00\n        /* \"contracts/Ballot/MyBallot.sol\":4532:4546  uint index = 0 */\n      swap1\n      pop\n        /* \"contracts/Ballot/MyBallot.sol\":4527:4648  for (uint index = 0; index < candidates.length; index++) {\r... */\n    tag_95:\n        /* \"contracts/Ballot/MyBallot.sol\":4556:4566  candidates */\n      0x02\n        /* \"contracts/Ballot/MyBallot.sol\":4556:4573  candidates.length */\n      dup1\n      sload\n      swap1\n      pop\n        /* \"contracts/Ballot/MyBallot.sol\":4548:4553  index */\n      dup2\n        /* \"contracts/Ballot/MyBallot.sol\":4548:4573  index < candidates.length */\n      lt\n        /* \"contracts/Ballot/MyBallot.sol\":4527:4648  for (uint index = 0; index < candidates.length; index++) {\r... */\n      iszero\n      tag_96\n      jumpi\n        /* \"contracts/Ballot/MyBallot.sol\":4608:4618  candidates */\n      0x02\n        /* \"contracts/Ballot/MyBallot.sol\":4619:4624  index */\n      dup2\n        /* \"contracts/Ballot/MyBallot.sol\":4608:4625  candidates[index] */\n      dup2\n      sload\n      dup2\n      lt\n      tag_98\n      jumpi\n      tag_99\n      tag_100\n      jump\t// in\n    tag_99:\n    tag_98:\n      swap1\n      0x00\n      mstore\n      keccak256(0x00, 0x20)\n      swap1\n      0x03\n      mul\n      add\n        /* \"contracts/Ballot/MyBallot.sol\":4608:4636  candidates[index].votesCount */\n      0x02\n      add\n      sload\n        /* \"contracts/Ballot/MyBallot.sol\":4599:4636  total += candidates[index].votesCount */\n      dup3\n      tag_102\n      swap2\n      swap1\n      tag_103\n      jump\t// in\n    tag_102:\n      swap2\n      pop\n        /* \"contracts/Ballot/MyBallot.sol\":4575:4582  index++ */\n      dup1\n      dup1\n      tag_104\n      swap1\n      tag_105\n      jump\t// in\n    tag_104:\n      swap2\n      pop\n      pop\n        /* \"contracts/Ballot/MyBallot.sol\":4527:4648  for (uint index = 0; index < candidates.length; index++) {\r... */\n      jump(tag_95)\n    tag_96:\n      pop\n        /* \"contracts/Ballot/MyBallot.sol\":4426:4655  function calculateAmountOfTotalVotes() public view returns (uint total) {\r... */\n      swap1\n      jump\t// out\n        /* \"contracts/Ballot/MyBallot.sol\":501:523  uint public totalVotes */\n    tag_29:\n      sload(0x03)\n      dup2\n      jump\t// out\n        /* \"contracts/Ballot/MyBallot.sol\":2300:2558  function addCandidateWithSpreadParameters(string memory name, string memory party) public isContractOwnerAddCandidate() {\r... */\n    tag_34:\n        /* \"contracts/Ballot/MyBallot.sol\":1814:1835  areYouContractOwner() */\n      tag_107\n        /* \"contracts/Ballot/MyBallot.sol\":1814:1833  areYouContractOwner */\n      tag_50\n        /* \"contracts/Ballot/MyBallot.sol\":1814:1835  areYouContractOwner() */\n      jump\t// in\n    tag_107:\n        /* \"contracts/Ballot/MyBallot.sol\":1792:1906  require(\r... */\n      tag_108\n      jumpi\n      mload(0x40)\n      0x08c379a000000000000000000000000000000000000000000000000000000000\n      dup2\n      mstore\n      0x04\n      add\n      tag_109\n      swap1\n      tag_110\n      jump\t// in\n    tag_109:\n      mload(0x40)\n      dup1\n      swap2\n      sub\n      swap1\n      revert\n    tag_108:\n        /* \"contracts/Ballot/MyBallot.sol\":2431:2441  candidates */\n      0x02\n        /* \"contracts/Ballot/MyBallot.sol\":2447:2549  Candidate({\r... */\n      mload(0x40)\n      dup1\n      0x60\n      add\n      0x40\n      mstore\n      dup1\n        /* \"contracts/Ballot/MyBallot.sol\":2478:2482  name */\n      dup5\n        /* \"contracts/Ballot/MyBallot.sol\":2447:2549  Candidate({\r... */\n      dup2\n      mstore\n      0x20\n      add\n        /* \"contracts/Ballot/MyBallot.sol\":2504:2509  party */\n      dup4\n        /* \"contracts/Ballot/MyBallot.sol\":2447:2549  Candidate({\r... */\n      dup2\n      mstore\n      0x20\n      add\n        /* \"contracts/Ballot/MyBallot.sol\":2536:2537  0 */\n      0x00\n        /* \"contracts/Ballot/MyBallot.sol\":2447:2549  Candidate({\r... */\n      dup2\n      mstore\n      pop\n        /* \"contracts/Ballot/MyBallot.sol\":2431:2550  candidates.push(Candidate({\r... */\n      swap1\n      dup1\n      0x01\n      dup2\n      sload\n      add\n      dup1\n      dup3\n      sstore\n      dup1\n      swap2\n      pop\n      pop\n      0x01\n      swap1\n      sub\n      swap1\n      0x00\n      mstore\n      keccak256(0x00, 0x20)\n      swap1\n      0x03\n      mul\n      add\n      0x00\n      swap1\n      swap2\n      swap1\n      swap2\n      swap1\n      swap2\n      pop\n      0x00\n      dup3\n      add\n      mload\n      dup2\n      0x00\n      add\n      swap1\n      dup1\n      mload\n      swap1\n      0x20\n      add\n      swap1\n      tag_113\n      swap3\n      swap2\n      swap1\n      tag_114\n      jump\t// in\n    tag_113:\n      pop\n      0x20\n      dup3\n      add\n      mload\n      dup2\n      0x01\n      add\n      swap1\n      dup1\n      mload\n      swap1\n      0x20\n      add\n      swap1\n      tag_115\n      swap3\n      swap2\n      swap1\n      tag_114\n      jump\t// in\n    tag_115:\n      pop\n      0x40\n      dup3\n      add\n      mload\n      dup2\n      0x02\n      add\n      sstore\n      pop\n      pop\n        /* \"contracts/Ballot/MyBallot.sol\":2300:2558  function addCandidateWithSpreadParameters(string memory name, string memory party) public isContractOwnerAddCandidate() {\r... */\n      pop\n      pop\n      jump\t// out\n        /* \"contracts/Ballot/MyBallot.sol\":3607:3749  function getWinnerName() public view returns (string memory winnerName) {\r... */\n    tag_36:\n        /* \"contracts/Ballot/MyBallot.sol\":3653:3677  string memory winnerName */\n      0x60\n        /* \"contracts/Ballot/MyBallot.sol\":3703:3713  candidates */\n      0x02\n        /* \"contracts/Ballot/MyBallot.sol\":3714:3735  getWinningCandidate() */\n      tag_117\n        /* \"contracts/Ballot/MyBallot.sol\":3714:3733  getWinningCandidate */\n      tag_88\n        /* \"contracts/Ballot/MyBallot.sol\":3714:3735  getWinningCandidate() */\n      jump\t// in\n    tag_117:\n        /* \"contracts/Ballot/MyBallot.sol\":3703:3736  candidates[getWinningCandidate()] */\n      dup2\n      sload\n      dup2\n      lt\n      tag_118\n      jumpi\n      tag_119\n      tag_100\n      jump\t// in\n    tag_119:\n    tag_118:\n      swap1\n      0x00\n      mstore\n      keccak256(0x00, 0x20)\n      swap1\n      0x03\n      mul\n      add\n        /* \"contracts/Ballot/MyBallot.sol\":3703:3741  candidates[getWinningCandidate()].name */\n      0x00\n      add\n        /* \"contracts/Ballot/MyBallot.sol\":3690:3741  winnerName = candidates[getWinningCandidate()].name */\n      dup1\n      sload\n      tag_121\n      swap1\n      tag_122\n      jump\t// in\n    tag_121:\n      dup1\n      0x1f\n      add\n      0x20\n      dup1\n      swap2\n      div\n      mul\n      0x20\n      add\n      mload(0x40)\n      swap1\n      dup2\n      add\n      0x40\n      mstore\n      dup1\n      swap3\n      swap2\n      swap1\n      dup2\n      dup2\n      mstore\n      0x20\n      add\n      dup3\n      dup1\n      sload\n      tag_123\n      swap1\n      tag_122\n      jump\t// in\n    tag_123:\n      dup1\n      iszero\n      tag_124\n      jumpi\n      dup1\n      0x1f\n      lt\n      tag_125\n      jumpi\n      0x0100\n      dup1\n      dup4\n      sload\n      div\n      mul\n      dup4\n      mstore\n      swap2\n      0x20\n      add\n      swap2\n      jump(tag_124)\n    tag_125:\n      dup3\n      add\n      swap2\n      swap1\n      0x00\n      mstore\n      keccak256(0x00, 0x20)\n      swap1\n    tag_126:\n      dup2\n      sload\n      dup2\n      mstore\n      swap1\n      0x01\n      add\n      swap1\n      0x20\n      add\n      dup1\n      dup4\n      gt\n      tag_126\n      jumpi\n      dup3\n      swap1\n      sub\n      0x1f\n      and\n      dup3\n      add\n      swap2\n    tag_124:\n      pop\n      pop\n      pop\n      pop\n      pop\n      swap1\n      pop\n        /* \"contracts/Ballot/MyBallot.sol\":3607:3749  function getWinnerName() public view returns (string memory winnerName) {\r... */\n      swap1\n      jump\t// out\n        /* \"contracts/Ballot/MyBallot.sol\":4319:4418  function getContractAddress() public view returns (address) {\r... */\n    tag_40:\n        /* \"contracts/Ballot/MyBallot.sol\":4370:4377  address */\n      0x00\n        /* \"contracts/Ballot/MyBallot.sol\":4405:4409  this */\n      address\n        /* \"contracts/Ballot/MyBallot.sol\":4390:4410  return address(this) */\n      swap1\n      pop\n        /* \"contracts/Ballot/MyBallot.sol\":4319:4418  function getContractAddress() public view returns (address) {\r... */\n      swap1\n      jump\t// out\n        /* \"contracts/Ballot/MyBallot.sol\":463:492  Candidate[] public candidates */\n    tag_46:\n      0x02\n      dup2\n      dup2\n      sload\n      dup2\n      lt\n      tag_128\n      jumpi\n      0x00\n      dup1\n      revert\n    tag_128:\n      swap1\n      0x00\n      mstore\n      keccak256(0x00, 0x20)\n      swap1\n      0x03\n      mul\n      add\n      0x00\n      swap2\n      pop\n      swap1\n      pop\n      dup1\n      0x00\n      add\n      dup1\n      sload\n      tag_130\n      swap1\n      tag_122\n      jump\t// in\n    tag_130:\n      dup1\n      0x1f\n      add\n      0x20\n      dup1\n      swap2\n      div\n      mul\n      0x20\n      add\n      mload(0x40)\n      swap1\n      dup2\n      add\n      0x40\n      mstore\n      dup1\n      swap3\n      swap2\n      swap1\n      dup2\n      dup2\n      mstore\n      0x20\n      add\n      dup3\n      dup1\n      sload\n      tag_131\n      swap1\n      tag_122\n      jump\t// in\n    tag_131:\n      dup1\n      iszero\n      tag_132\n      jumpi\n      dup1\n      0x1f\n      lt\n      tag_133\n      jumpi\n      0x0100\n      dup1\n      dup4\n      sload\n      div\n      mul\n      dup4\n      mstore\n      swap2\n      0x20\n      add\n      swap2\n      jump(tag_132)\n    tag_133:\n      dup3\n      add\n      swap2\n      swap1\n      0x00\n      mstore\n      keccak256(0x00, 0x20)\n      swap1\n    tag_134:\n      dup2\n      sload\n      dup2\n      mstore\n      swap1\n      0x01\n      add\n      swap1\n      0x20\n      add\n      dup1\n      dup4\n      gt\n      tag_134\n      jumpi\n      dup3\n      swap1\n      sub\n      0x1f\n      and\n      dup3\n      add\n      swap2\n    tag_132:\n      pop\n      pop\n      pop\n      pop\n      pop\n      swap1\n      dup1\n      0x01\n      add\n      dup1\n      sload\n      tag_135\n      swap1\n      tag_122\n      jump\t// in\n    tag_135:\n      dup1\n      0x1f\n      add\n      0x20\n      dup1\n      swap2\n      div\n      mul\n      0x20\n      add\n      mload(0x40)\n      swap1\n      dup2\n      add\n      0x40\n      mstore\n      dup1\n      swap3\n      swap2\n      swap1\n      dup2\n      dup2\n      mstore\n      0x20\n      add\n      dup3\n      dup1\n      sload\n      tag_136\n      swap1\n      tag_122\n      jump\t// in\n    tag_136:\n      dup1\n      iszero\n      tag_137\n      jumpi\n      dup1\n      0x1f\n      lt\n      tag_138\n      jumpi\n      0x0100\n      dup1\n      dup4\n      sload\n      div\n      mul\n      dup4\n      mstore\n      swap2\n      0x20\n      add\n      swap2\n      jump(tag_137)\n    tag_138:\n      dup3\n      add\n      swap2\n      swap1\n      0x00\n      mstore\n      keccak256(0x00, 0x20)\n      swap1\n    tag_139:\n      dup2\n      sload\n      dup2\n      mstore\n      swap1\n      0x01\n      add\n      swap1\n      0x20\n      add\n      dup1\n      dup4\n      gt\n      tag_139\n      jumpi\n      dup3\n      swap1\n      sub\n      0x1f\n      and\n      dup3\n      add\n      swap2\n    tag_137:\n      pop\n      pop\n      pop\n      pop\n      pop\n      swap1\n      dup1\n      0x02\n      add\n      sload\n      swap1\n      pop\n      dup4\n      jump\t// out\n        /* \"contracts/Ballot/MyBallot.sol\":4663:4774  function areYouContractOwner() public view returns (bool) {\r... */\n    tag_50:\n        /* \"contracts/Ballot/MyBallot.sol\":4715:4719  bool */\n      0x00\n        /* \"contracts/Ballot/MyBallot.sol\":4753:4766  contractOwner */\n      dup1\n      0x00\n      swap1\n      sload\n      swap1\n      0x0100\n      exp\n      swap1\n      div\n      0xffffffffffffffffffffffffffffffffffffffff\n      and\n        /* \"contracts/Ballot/MyBallot.sol\":4739:4766  msg.sender == contractOwner */\n      0xffffffffffffffffffffffffffffffffffffffff\n      and\n        /* \"contracts/Ballot/MyBallot.sol\":4739:4749  msg.sender */\n      caller\n        /* \"contracts/Ballot/MyBallot.sol\":4739:4766  msg.sender == contractOwner */\n      0xffffffffffffffffffffffffffffffffffffffff\n      and\n      eq\n        /* \"contracts/Ballot/MyBallot.sol\":4732:4766  return msg.sender == contractOwner */\n      swap1\n      pop\n        /* \"contracts/Ballot/MyBallot.sol\":4663:4774  function areYouContractOwner() public view returns (bool) {\r... */\n      swap1\n      jump\t// out\n        /* \"contracts/Ballot/MyBallot.sol\":4205:4311  function getCandidatesList() public view returns (Candidate[] memory) {\r... */\n    tag_54:\n        /* \"contracts/Ballot/MyBallot.sol\":4255:4273  Candidate[] memory */\n      0x60\n        /* \"contracts/Ballot/MyBallot.sol\":4293:4303  candidates */\n      0x02\n        /* \"contracts/Ballot/MyBallot.sol\":4286:4303  return candidates */\n      dup1\n      sload\n      dup1\n      0x20\n      mul\n      0x20\n      add\n      mload(0x40)\n      swap1\n      dup2\n      add\n      0x40\n      mstore\n      dup1\n      swap3\n      swap2\n      swap1\n      dup2\n      dup2\n      mstore\n      0x20\n      add\n      0x00\n      swap1\n    tag_142:\n      dup3\n      dup3\n      lt\n      iszero\n      tag_143\n      jumpi\n      dup4\n      dup3\n      swap1\n      0x00\n      mstore\n      keccak256(0x00, 0x20)\n      swap1\n      0x03\n      mul\n      add\n      mload(0x40)\n      dup1\n      0x60\n      add\n      0x40\n      mstore\n      swap1\n      dup2\n      0x00\n      dup3\n      add\n      dup1\n      sload\n      tag_145\n      swap1\n      tag_122\n      jump\t// in\n    tag_145:\n      dup1\n      0x1f\n      add\n      0x20\n      dup1\n      swap2\n      div\n      mul\n      0x20\n      add\n      mload(0x40)\n      swap1\n      dup2\n      add\n      0x40\n      mstore\n      dup1\n      swap3\n      swap2\n      swap1\n      dup2\n      dup2\n      mstore\n      0x20\n      add\n      dup3\n      dup1\n      sload\n      tag_146\n      swap1\n      tag_122\n      jump\t// in\n    tag_146:\n      dup1\n      iszero\n      tag_147\n      jumpi\n      dup1\n      0x1f\n      lt\n      tag_148\n      jumpi\n      0x0100\n      dup1\n      dup4\n      sload\n      div\n      mul\n      dup4\n      mstore\n      swap2\n      0x20\n      add\n      swap2\n      jump(tag_147)\n    tag_148:\n      dup3\n      add\n      swap2\n      swap1\n      0x00\n      mstore\n      keccak256(0x00, 0x20)\n      swap1\n    tag_149:\n      dup2\n      sload\n      dup2\n      mstore\n      swap1\n      0x01\n      add\n      swap1\n      0x20\n      add\n      dup1\n      dup4\n      gt\n      tag_149\n      jumpi\n      dup3\n      swap1\n      sub\n      0x1f\n      and\n      dup3\n      add\n      swap2\n    tag_147:\n      pop\n      pop\n      pop\n      pop\n      pop\n      dup2\n      mstore\n      0x20\n      add\n      0x01\n      dup3\n      add\n      dup1\n      sload\n      tag_150\n      swap1\n      tag_122\n      jump\t// in\n    tag_150:\n      dup1\n      0x1f\n      add\n      0x20\n      dup1\n      swap2\n      div\n      mul\n      0x20\n      add\n      mload(0x40)\n      swap1\n      dup2\n      add\n      0x40\n      mstore\n      dup1\n      swap3\n      swap2\n      swap1\n      dup2\n      dup2\n      mstore\n      0x20\n      add\n      dup3\n      dup1\n      sload\n      tag_151\n      swap1\n      tag_122\n      jump\t// in\n    tag_151:\n      dup1\n      iszero\n      tag_152\n      jumpi\n      dup1\n      0x1f\n      lt\n      tag_153\n      jumpi\n      0x0100\n      dup1\n      dup4\n      sload\n      div\n      mul\n      dup4\n      mstore\n      swap2\n      0x20\n      add\n      swap2\n      jump(tag_152)\n    tag_153:\n      dup3\n      add\n      swap2\n      swap1\n      0x00\n      mstore\n      keccak256(0x00, 0x20)\n      swap1\n    tag_154:\n      dup2\n      sload\n      dup2\n      mstore\n      swap1\n      0x01\n      add\n      swap1\n      0x20\n      add\n      dup1\n      dup4\n      gt\n      tag_154\n      jumpi\n      dup3\n      swap1\n      sub\n      0x1f\n      and\n      dup3\n      add\n      swap2\n    tag_152:\n      pop\n      pop\n      pop\n      pop\n      pop\n      dup2\n      mstore\n      0x20\n      add\n      0x02\n      dup3\n      add\n      sload\n      dup2\n      mstore\n      pop\n      pop\n      dup2\n      mstore\n      0x20\n      add\n      swap1\n      0x01\n      add\n      swap1\n      jump(tag_142)\n    tag_143:\n      pop\n      pop\n      pop\n      pop\n      swap1\n      pop\n        /* \"contracts/Ballot/MyBallot.sol\":4205:4311  function getCandidatesList() public view returns (Candidate[] memory) {\r... */\n      swap1\n      jump\t// out\n        /* \"contracts/Ballot/MyBallot.sol\":5163:5289  function isVoterVoted(address voterAddress) public view returns (bool) {\r... */\n    tag_60:\n        /* \"contracts/Ballot/MyBallot.sol\":5228:5232  bool */\n      0x00\n        /* \"contracts/Ballot/MyBallot.sol\":5252:5258  voters */\n      0x01\n        /* \"contracts/Ballot/MyBallot.sol\":5252:5272  voters[voterAddress] */\n      0x00\n        /* \"contracts/Ballot/MyBallot.sol\":5259:5271  voterAddress */\n      dup4\n        /* \"contracts/Ballot/MyBallot.sol\":5252:5272  voters[voterAddress] */\n      0xffffffffffffffffffffffffffffffffffffffff\n      and\n      0xffffffffffffffffffffffffffffffffffffffff\n      and\n      dup2\n      mstore\n      0x20\n      add\n      swap1\n      dup2\n      mstore\n      0x20\n      add\n      0x00\n      keccak256\n        /* \"contracts/Ballot/MyBallot.sol\":5252:5281  voters[voterAddress].hasVoted */\n      0x00\n      add\n      0x01\n      swap1\n      sload\n      swap1\n      0x0100\n      exp\n      swap1\n      div\n      0xff\n      and\n        /* \"contracts/Ballot/MyBallot.sol\":5245:5281  return voters[voterAddress].hasVoted */\n      swap1\n      pop\n        /* \"contracts/Ballot/MyBallot.sol\":5163:5289  function isVoterVoted(address voterAddress) public view returns (bool) {\r... */\n      swap2\n      swap1\n      pop\n      jump\t// out\n        /* \"contracts/Ballot/MyBallot.sol\":2732:2878  function addCandidateAsStruct(Candidate memory newCandidate) public isContractOwnerAddCandidate() {\r... */\n    tag_65:\n        /* \"contracts/Ballot/MyBallot.sol\":1814:1835  areYouContractOwner() */\n      tag_157\n        /* \"contracts/Ballot/MyBallot.sol\":1814:1833  areYouContractOwner */\n      tag_50\n        /* \"contracts/Ballot/MyBallot.sol\":1814:1835  areYouContractOwner() */\n      jump\t// in\n    tag_157:\n        /* \"contracts/Ballot/MyBallot.sol\":1792:1906  require(\r... */\n      tag_158\n      jumpi\n      mload(0x40)\n      0x08c379a000000000000000000000000000000000000000000000000000000000\n      dup2\n      mstore\n      0x04\n      add\n      tag_159\n      swap1\n      tag_110\n      jump\t// in\n    tag_159:\n      mload(0x40)\n      dup1\n      swap2\n      sub\n      swap1\n      revert\n    tag_158:\n        /* \"contracts/Ballot/MyBallot.sol\":2841:2851  candidates */\n      0x02\n        /* \"contracts/Ballot/MyBallot.sol\":2857:2869  newCandidate */\n      dup2\n        /* \"contracts/Ballot/MyBallot.sol\":2841:2870  candidates.push(newCandidate) */\n      swap1\n      dup1\n      0x01\n      dup2\n      sload\n      add\n      dup1\n      dup3\n      sstore\n      dup1\n      swap2\n      pop\n      pop\n      0x01\n      swap1\n      sub\n      swap1\n      0x00\n      mstore\n      keccak256(0x00, 0x20)\n      swap1\n      0x03\n      mul\n      add\n      0x00\n      swap1\n      swap2\n      swap1\n      swap2\n      swap1\n      swap2\n      pop\n      0x00\n      dup3\n      add\n      mload\n      dup2\n      0x00\n      add\n      swap1\n      dup1\n      mload\n      swap1\n      0x20\n      add\n      swap1\n      tag_162\n      swap3\n      swap2\n      swap1\n      tag_114\n      jump\t// in\n    tag_162:\n      pop\n      0x20\n      dup3\n      add\n      mload\n      dup2\n      0x01\n      add\n      swap1\n      dup1\n      mload\n      swap1\n      0x20\n      add\n      swap1\n      tag_163\n      swap3\n      swap2\n      swap1\n      tag_114\n      jump\t// in\n    tag_163:\n      pop\n      0x40\n      dup3\n      add\n      mload\n      dup2\n      0x02\n      add\n      sstore\n      pop\n      pop\n        /* \"contracts/Ballot/MyBallot.sol\":2732:2878  function addCandidateAsStruct(Candidate memory newCandidate) public isContractOwnerAddCandidate() {\r... */\n      pop\n      jump\t// out\n        /* \"contracts/Ballot/MyBallot.sol\":2890:3053  function giveRightToVote(address voterAddress) public isContractOwnerRightToVote() isVoterVote(voterAddress) {\r... */\n    tag_68:\n        /* \"contracts/Ballot/MyBallot.sol\":1618:1639  areYouContractOwner() */\n      tag_165\n        /* \"contracts/Ballot/MyBallot.sol\":1618:1637  areYouContractOwner */\n      tag_50\n        /* \"contracts/Ballot/MyBallot.sol\":1618:1639  areYouContractOwner() */\n      jump\t// in\n    tag_165:\n        /* \"contracts/Ballot/MyBallot.sol\":1596:1714  require(\r... */\n      tag_166\n      jumpi\n      mload(0x40)\n      0x08c379a000000000000000000000000000000000000000000000000000000000\n      dup2\n      mstore\n      0x04\n      add\n      tag_167\n      swap1\n      tag_168\n      jump\t// in\n    tag_167:\n      mload(0x40)\n      dup1\n      swap2\n      sub\n      swap1\n      revert\n    tag_166:\n        /* \"contracts/Ballot/MyBallot.sol\":2985:2997  voterAddress */\n      dup1\n        /* \"contracts/Ballot/MyBallot.sol\":2011:2037  isVoterVoted(voterAddress) */\n      tag_170\n        /* \"contracts/Ballot/MyBallot.sol\":2024:2036  voterAddress */\n      dup2\n        /* \"contracts/Ballot/MyBallot.sol\":2011:2023  isVoterVoted */\n      tag_60\n        /* \"contracts/Ballot/MyBallot.sol\":2011:2037  isVoterVoted(voterAddress) */\n      jump\t// in\n    tag_170:\n        /* \"contracts/Ballot/MyBallot.sol\":2010:2037  !isVoterVoted(voterAddress) */\n      iszero\n        /* \"contracts/Ballot/MyBallot.sol\":1988:2085  require(\r... */\n      tag_171\n      jumpi\n      mload(0x40)\n      0x08c379a000000000000000000000000000000000000000000000000000000000\n      dup2\n      mstore\n      0x04\n      add\n      tag_172\n      swap1\n      tag_173\n      jump\t// in\n    tag_172:\n      mload(0x40)\n      dup1\n      swap2\n      sub\n      swap1\n      revert\n    tag_171:\n        /* \"contracts/Ballot/MyBallot.sol\":3041:3045  true */\n      0x01\n        /* \"contracts/Ballot/MyBallot.sol\":3010:3016  voters */\n      dup1\n        /* \"contracts/Ballot/MyBallot.sol\":3010:3030  voters[voterAddress] */\n      0x00\n        /* \"contracts/Ballot/MyBallot.sol\":3017:3029  voterAddress */\n      dup5\n        /* \"contracts/Ballot/MyBallot.sol\":3010:3030  voters[voterAddress] */\n      0xffffffffffffffffffffffffffffffffffffffff\n      and\n      0xffffffffffffffffffffffffffffffffffffffff\n      and\n      dup2\n      mstore\n      0x20\n      add\n      swap1\n      dup2\n      mstore\n      0x20\n      add\n      0x00\n      keccak256\n        /* \"contracts/Ballot/MyBallot.sol\":3010:3038  voters[voterAddress].canVote */\n      0x00\n      add\n      0x00\n        /* \"contracts/Ballot/MyBallot.sol\":3010:3045  voters[voterAddress].canVote = true */\n      0x0100\n      exp\n      dup2\n      sload\n      dup2\n      0xff\n      mul\n      not\n      and\n      swap1\n      dup4\n      iszero\n      iszero\n      mul\n      or\n      swap1\n      sstore\n      pop\n        /* \"contracts/Ballot/MyBallot.sol\":1725:1726  _ */\n      pop\n        /* \"contracts/Ballot/MyBallot.sol\":2890:3053  function giveRightToVote(address voterAddress) public isContractOwnerRightToVote() isVoterVote(voterAddress) {\r... */\n      pop\n      jump\t// out\n        /* \"contracts/Ballot/MyBallot.sol\":415:454  mapping(address => Voter) public voters */\n    tag_71:\n      mstore(0x20, 0x01)\n      dup1\n      0x00\n      mstore\n      keccak256(0x00, 0x40)\n      0x00\n      swap2\n      pop\n      swap1\n      pop\n      dup1\n      0x00\n      add\n      0x00\n      swap1\n      sload\n      swap1\n      0x0100\n      exp\n      swap1\n      div\n      0xff\n      and\n      swap1\n      dup1\n      0x00\n      add\n      0x01\n      swap1\n      sload\n      swap1\n      0x0100\n      exp\n      swap1\n      div\n      0xff\n      and\n      swap1\n      pop\n      dup3\n      jump\t// out\n        /* \"contracts/Ballot/MyBallot.sol\":378:406  address public contractOwner */\n    tag_75:\n      0x00\n      dup1\n      sload\n      swap1\n      0x0100\n      exp\n      swap1\n      div\n      0xffffffffffffffffffffffffffffffffffffffff\n      and\n      dup2\n      jump\t// out\n        /* \"contracts/Ballot/MyBallot.sol\":5055:5155  function areYouVoted() public view returns (bool) {\r... */\n    tag_78:\n        /* \"contracts/Ballot/MyBallot.sol\":5099:5103  bool */\n      0x00\n        /* \"contracts/Ballot/MyBallot.sol\":5123:5147  isVoterVoted(msg.sender) */\n      tag_176\n        /* \"contracts/Ballot/MyBallot.sol\":5136:5146  msg.sender */\n      caller\n        /* \"contracts/Ballot/MyBallot.sol\":5123:5135  isVoterVoted */\n      tag_60\n        /* \"contracts/Ballot/MyBallot.sol\":5123:5147  isVoterVoted(msg.sender) */\n      jump\t// in\n    tag_176:\n        /* \"contracts/Ballot/MyBallot.sol\":5116:5147  return isVoterVoted(msg.sender) */\n      swap1\n      pop\n        /* \"contracts/Ballot/MyBallot.sol\":5055:5155  function areYouVoted() public view returns (bool) {\r... */\n      swap1\n      jump\t// out\n        /* \"contracts/Ballot/MyBallot.sol\":4782:4903  function areYouHaveRigthToVote() public view returns (bool) {\r... */\n    tag_81:\n        /* \"contracts/Ballot/MyBallot.sol\":4836:4840  bool */\n      0x00\n        /* \"contracts/Ballot/MyBallot.sol\":4860:4895  isAnyoneHaveRigthToVote(msg.sender) */\n      tag_178\n        /* \"contracts/Ballot/MyBallot.sol\":4884:4894  msg.sender */\n      caller\n        /* \"contracts/Ballot/MyBallot.sol\":4860:4883  isAnyoneHaveRigthToVote */\n      tag_85\n        /* \"contracts/Ballot/MyBallot.sol\":4860:4895  isAnyoneHaveRigthToVote(msg.sender) */\n      jump\t// in\n    tag_178:\n        /* \"contracts/Ballot/MyBallot.sol\":4853:4895  return isAnyoneHaveRigthToVote(msg.sender) */\n      swap1\n      pop\n        /* \"contracts/Ballot/MyBallot.sol\":4782:4903  function areYouHaveRigthToVote() public view returns (bool) {\r... */\n      swap1\n      jump\t// out\n        /* \"contracts/Ballot/MyBallot.sol\":4911:5047  function isAnyoneHaveRigthToVote(address voterAddress) public view returns (bool) {\r... */\n    tag_85:\n        /* \"contracts/Ballot/MyBallot.sol\":4987:4991  bool */\n      0x00\n        /* \"contracts/Ballot/MyBallot.sol\":5011:5017  voters */\n      0x01\n        /* \"contracts/Ballot/MyBallot.sol\":5011:5031  voters[voterAddress] */\n      0x00\n        /* \"contracts/Ballot/MyBallot.sol\":5018:5030  voterAddress */\n      dup4\n        /* \"contracts/Ballot/MyBallot.sol\":5011:5031  voters[voterAddress] */\n      0xffffffffffffffffffffffffffffffffffffffff\n      and\n      0xffffffffffffffffffffffffffffffffffffffff\n      and\n      dup2\n      mstore\n      0x20\n      add\n      swap1\n      dup2\n      mstore\n      0x20\n      add\n      0x00\n      keccak256\n        /* \"contracts/Ballot/MyBallot.sol\":5011:5039  voters[voterAddress].canVote */\n      0x00\n      add\n      0x00\n      swap1\n      sload\n      swap1\n      0x0100\n      exp\n      swap1\n      div\n      0xff\n      and\n        /* \"contracts/Ballot/MyBallot.sol\":5004:5039  return voters[voterAddress].canVote */\n      swap1\n      pop\n        /* \"contracts/Ballot/MyBallot.sol\":4911:5047  function isAnyoneHaveRigthToVote(address voterAddress) public view returns (bool) {\r... */\n      swap2\n      swap1\n      pop\n      jump\t// out\n        /* \"contracts/Ballot/MyBallot.sol\":3757:4197  function getWinningCandidate() public view returns (uint winningProposal) {\r... */\n    tag_88:\n        /* \"contracts/Ballot/MyBallot.sol\":3809:3829  uint winningProposal */\n      0x00\n        /* \"contracts/Ballot/MyBallot.sol\":3842:3863  uint winningVoteCount */\n      dup1\n        /* \"contracts/Ballot/MyBallot.sol\":3881:3900  uint indexCandidate */\n      0x00\n        /* \"contracts/Ballot/MyBallot.sol\":3876:4190  for (uint indexCandidate = 0; indexCandidate < candidates.length; indexCandidate++) {\r... */\n    tag_181:\n        /* \"contracts/Ballot/MyBallot.sol\":3923:3933  candidates */\n      0x02\n        /* \"contracts/Ballot/MyBallot.sol\":3923:3940  candidates.length */\n      dup1\n      sload\n      swap1\n      pop\n        /* \"contracts/Ballot/MyBallot.sol\":3906:3920  indexCandidate */\n      dup2\n        /* \"contracts/Ballot/MyBallot.sol\":3906:3940  indexCandidate < candidates.length */\n      lt\n        /* \"contracts/Ballot/MyBallot.sol\":3876:4190  for (uint indexCandidate = 0; indexCandidate < candidates.length; indexCandidate++) {\r... */\n      iszero\n      tag_182\n      jumpi\n        /* \"contracts/Ballot/MyBallot.sol\":4019:4035  winningVoteCount */\n      dup2\n        /* \"contracts/Ballot/MyBallot.sol\":3979:3989  candidates */\n      0x02\n        /* \"contracts/Ballot/MyBallot.sol\":3990:4004  indexCandidate */\n      dup3\n        /* \"contracts/Ballot/MyBallot.sol\":3979:4005  candidates[indexCandidate] */\n      dup2\n      sload\n      dup2\n      lt\n      tag_184\n      jumpi\n      tag_185\n      tag_100\n      jump\t// in\n    tag_185:\n    tag_184:\n      swap1\n      0x00\n      mstore\n      keccak256(0x00, 0x20)\n      swap1\n      0x03\n      mul\n      add\n        /* \"contracts/Ballot/MyBallot.sol\":3979:4016  candidates[indexCandidate].votesCount */\n      0x02\n      add\n      sload\n        /* \"contracts/Ballot/MyBallot.sol\":3979:4035  candidates[indexCandidate].votesCount > winningVoteCount */\n      gt\n        /* \"contracts/Ballot/MyBallot.sol\":3975:4179  if (candidates[indexCandidate].votesCount > winningVoteCount) {\r... */\n      iszero\n      tag_187\n      jumpi\n        /* \"contracts/Ballot/MyBallot.sol\":4075:4085  candidates */\n      0x02\n        /* \"contracts/Ballot/MyBallot.sol\":4086:4100  indexCandidate */\n      dup2\n        /* \"contracts/Ballot/MyBallot.sol\":4075:4101  candidates[indexCandidate] */\n      dup2\n      sload\n      dup2\n      lt\n      tag_188\n      jumpi\n      tag_189\n      tag_100\n      jump\t// in\n    tag_189:\n    tag_188:\n      swap1\n      0x00\n      mstore\n      keccak256(0x00, 0x20)\n      swap1\n      0x03\n      mul\n      add\n        /* \"contracts/Ballot/MyBallot.sol\":4075:4112  candidates[indexCandidate].votesCount */\n      0x02\n      add\n      sload\n        /* \"contracts/Ballot/MyBallot.sol\":4056:4112  winningVoteCount = candidates[indexCandidate].votesCount */\n      swap2\n      pop\n        /* \"contracts/Ballot/MyBallot.sol\":4149:4163  indexCandidate */\n      dup1\n        /* \"contracts/Ballot/MyBallot.sol\":4131:4163  winningProposal = indexCandidate */\n      swap3\n      pop\n        /* \"contracts/Ballot/MyBallot.sol\":3975:4179  if (candidates[indexCandidate].votesCount > winningVoteCount) {\r... */\n    tag_187:\n        /* \"contracts/Ballot/MyBallot.sol\":3942:3958  indexCandidate++ */\n      dup1\n      dup1\n      tag_191\n      swap1\n      tag_105\n      jump\t// in\n    tag_191:\n      swap2\n      pop\n      pop\n        /* \"contracts/Ballot/MyBallot.sol\":3876:4190  for (uint indexCandidate = 0; indexCandidate < candidates.length; indexCandidate++) {\r... */\n      jump(tag_181)\n    tag_182:\n      pop\n        /* \"contracts/Ballot/MyBallot.sol\":3831:4197  {\r... */\n      pop\n        /* \"contracts/Ballot/MyBallot.sol\":3757:4197  function getWinningCandidate() public view returns (uint winningProposal) {\r... */\n      swap1\n      jump\t// out\n        /* \"contracts/Ballot/MyBallot.sol\":3061:3599  function vote(string memory name) public isVoterVote(msg.sender) hasRightToVote() {\r... */\n    tag_93:\n        /* \"contracts/Ballot/MyBallot.sol\":3114:3124  msg.sender */\n      caller\n        /* \"contracts/Ballot/MyBallot.sol\":2011:2037  isVoterVoted(voterAddress) */\n      tag_193\n        /* \"contracts/Ballot/MyBallot.sol\":2024:2036  voterAddress */\n      dup2\n        /* \"contracts/Ballot/MyBallot.sol\":2011:2023  isVoterVoted */\n      tag_60\n        /* \"contracts/Ballot/MyBallot.sol\":2011:2037  isVoterVoted(voterAddress) */\n      jump\t// in\n    tag_193:\n        /* \"contracts/Ballot/MyBallot.sol\":2010:2037  !isVoterVoted(voterAddress) */\n      iszero\n        /* \"contracts/Ballot/MyBallot.sol\":1988:2085  require(\r... */\n      tag_194\n      jumpi\n      mload(0x40)\n      0x08c379a000000000000000000000000000000000000000000000000000000000\n      dup2\n      mstore\n      0x04\n      add\n      tag_195\n      swap1\n      tag_173\n      jump\t// in\n    tag_195:\n      mload(0x40)\n      dup1\n      swap2\n      sub\n      swap1\n      revert\n    tag_194:\n        /* \"contracts/Ballot/MyBallot.sol\":2172:2195  areYouHaveRigthToVote() */\n      tag_197\n        /* \"contracts/Ballot/MyBallot.sol\":2172:2193  areYouHaveRigthToVote */\n      tag_81\n        /* \"contracts/Ballot/MyBallot.sol\":2172:2195  areYouHaveRigthToVote() */\n      jump\t// in\n    tag_197:\n        /* \"contracts/Ballot/MyBallot.sol\":2150:2250  require(\r... */\n      tag_198\n      jumpi\n      mload(0x40)\n      0x08c379a000000000000000000000000000000000000000000000000000000000\n      dup2\n      mstore\n      0x04\n      add\n      tag_199\n      swap1\n      tag_200\n      jump\t// in\n    tag_199:\n      mload(0x40)\n      dup1\n      swap2\n      sub\n      swap1\n      revert\n    tag_198:\n        /* \"contracts/Ballot/MyBallot.sol\":3154:3174  Voter storage sender */\n      0x00\n        /* \"contracts/Ballot/MyBallot.sol\":3177:3183  voters */\n      0x01\n        /* \"contracts/Ballot/MyBallot.sol\":3177:3195  voters[msg.sender] */\n      0x00\n        /* \"contracts/Ballot/MyBallot.sol\":3184:3194  msg.sender */\n      caller\n        /* \"contracts/Ballot/MyBallot.sol\":3177:3195  voters[msg.sender] */\n      0xffffffffffffffffffffffffffffffffffffffff\n      and\n      0xffffffffffffffffffffffffffffffffffffffff\n      and\n      dup2\n      mstore\n      0x20\n      add\n      swap1\n      dup2\n      mstore\n      0x20\n      add\n      0x00\n      keccak256\n        /* \"contracts/Ballot/MyBallot.sol\":3154:3195  Voter storage sender = voters[msg.sender] */\n      swap1\n      pop\n        /* \"contracts/Ballot/MyBallot.sol\":3312:3322  uint index */\n      0x00\n        /* \"contracts/Ballot/MyBallot.sol\":3307:3592  for (uint index = 0; index < candidates.length; index++) {\r... */\n    tag_202:\n        /* \"contracts/Ballot/MyBallot.sol\":3336:3346  candidates */\n      0x02\n        /* \"contracts/Ballot/MyBallot.sol\":3336:3353  candidates.length */\n      dup1\n      sload\n      swap1\n      pop\n        /* \"contracts/Ballot/MyBallot.sol\":3328:3333  index */\n      dup2\n        /* \"contracts/Ballot/MyBallot.sol\":3328:3353  index < candidates.length */\n      lt\n        /* \"contracts/Ballot/MyBallot.sol\":3307:3592  for (uint index = 0; index < candidates.length; index++) {\r... */\n      iszero\n      tag_203\n      jumpi\n        /* \"contracts/Ballot/MyBallot.sol\":3453:3457  name */\n      dup4\n        /* \"contracts/Ballot/MyBallot.sol\":3442:3458  abi.encode(name) */\n      add(0x20, mload(0x40))\n      tag_205\n      swap2\n      swap1\n      tag_38\n      jump\t// in\n    tag_205:\n      mload(0x40)\n      0x20\n      dup2\n      dup4\n      sub\n      sub\n      dup2\n      mstore\n      swap1\n      0x40\n      mstore\n        /* \"contracts/Ballot/MyBallot.sol\":3432:3459  keccak256(abi.encode(name)) */\n      dup1\n      mload\n      swap1\n      0x20\n      add\n      keccak256\n        /* \"contracts/Ballot/MyBallot.sol\":3404:3414  candidates */\n      0x02\n        /* \"contracts/Ballot/MyBallot.sol\":3415:3420  index */\n      dup3\n        /* \"contracts/Ballot/MyBallot.sol\":3404:3421  candidates[index] */\n      dup2\n      sload\n      dup2\n      lt\n      tag_206\n      jumpi\n      tag_207\n      tag_100\n      jump\t// in\n    tag_207:\n    tag_206:\n      swap1\n      0x00\n      mstore\n      keccak256(0x00, 0x20)\n      swap1\n      0x03\n      mul\n      add\n        /* \"contracts/Ballot/MyBallot.sol\":3404:3426  candidates[index].name */\n      0x00\n      add\n        /* \"contracts/Ballot/MyBallot.sol\":3393:3427  abi.encode(candidates[index].name) */\n      add(0x20, mload(0x40))\n      tag_209\n      swap2\n      swap1\n      tag_210\n      jump\t// in\n    tag_209:\n      mload(0x40)\n      0x20\n      dup2\n      dup4\n      sub\n      sub\n      dup2\n      mstore\n      swap1\n      0x40\n      mstore\n        /* \"contracts/Ballot/MyBallot.sol\":3383:3428  keccak256(abi.encode(candidates[index].name)) */\n      dup1\n      mload\n      swap1\n      0x20\n      add\n      keccak256\n        /* \"contracts/Ballot/MyBallot.sol\":3383:3459  keccak256(abi.encode(candidates[index].name)) == keccak256(abi.encode(name)) */\n      eq\n        /* \"contracts/Ballot/MyBallot.sol\":3379:3508  if (keccak256(abi.encode(candidates[index].name)) == keccak256(abi.encode(name)))\r... */\n      iszero\n      tag_211\n      jumpi\n        /* \"contracts/Ballot/MyBallot.sol\":3478:3488  candidates */\n      0x02\n        /* \"contracts/Ballot/MyBallot.sol\":3489:3494  index */\n      dup2\n        /* \"contracts/Ballot/MyBallot.sol\":3478:3495  candidates[index] */\n      dup2\n      sload\n      dup2\n      lt\n      tag_212\n      jumpi\n      tag_213\n      tag_100\n      jump\t// in\n    tag_213:\n    tag_212:\n      swap1\n      0x00\n      mstore\n      keccak256(0x00, 0x20)\n      swap1\n      0x03\n      mul\n      add\n        /* \"contracts/Ballot/MyBallot.sol\":3478:3506  candidates[index].votesCount */\n      0x02\n      add\n      0x00\n        /* \"contracts/Ballot/MyBallot.sol\":3478:3508  candidates[index].votesCount++ */\n      dup2\n      sload\n      dup1\n      swap3\n      swap2\n      swap1\n      tag_215\n      swap1\n      tag_105\n      jump\t// in\n    tag_215:\n      swap2\n      swap1\n      pop\n      sstore\n      pop\n        /* \"contracts/Ballot/MyBallot.sol\":3379:3508  if (keccak256(abi.encode(candidates[index].name)) == keccak256(abi.encode(name)))\r... */\n    tag_211:\n        /* \"contracts/Ballot/MyBallot.sol\":3545:3549  true */\n      0x01\n        /* \"contracts/Ballot/MyBallot.sol\":3527:3533  sender */\n      dup3\n        /* \"contracts/Ballot/MyBallot.sol\":3527:3542  sender.hasVoted */\n      0x00\n      add\n      0x01\n        /* \"contracts/Ballot/MyBallot.sol\":3527:3549  sender.hasVoted = true */\n      0x0100\n      exp\n      dup2\n      sload\n      dup2\n      0xff\n      mul\n      not\n      and\n      swap1\n      dup4\n      iszero\n      iszero\n      mul\n      or\n      swap1\n      sstore\n      pop\n        /* \"contracts/Ballot/MyBallot.sol\":3568:3578  totalVotes */\n      0x03\n      0x00\n        /* \"contracts/Ballot/MyBallot.sol\":3568:3580  totalVotes++ */\n      dup2\n      sload\n      dup1\n      swap3\n      swap2\n      swap1\n      tag_216\n      swap1\n      tag_105\n      jump\t// in\n    tag_216:\n      swap2\n      swap1\n      pop\n      sstore\n      pop\n        /* \"contracts/Ballot/MyBallot.sol\":3355:3362  index++ */\n      dup1\n      dup1\n      tag_217\n      swap1\n      tag_105\n      jump\t// in\n    tag_217:\n      swap2\n      pop\n      pop\n        /* \"contracts/Ballot/MyBallot.sol\":3307:3592  for (uint index = 0; index < candidates.length; index++) {\r... */\n      jump(tag_202)\n    tag_203:\n      pop\n        /* \"contracts/Ballot/MyBallot.sol\":3143:3599  {\r... */\n      pop\n        /* \"contracts/Ballot/MyBallot.sol\":3061:3599  function vote(string memory name) public isVoterVote(msg.sender) hasRightToVote() {\r... */\n      pop\n      pop\n      jump\t// out\n    tag_114:\n      dup3\n      dup1\n      sload\n      tag_218\n      swap1\n      tag_122\n      jump\t// in\n    tag_218:\n      swap1\n      0x00\n      mstore\n      keccak256(0x00, 0x20)\n      swap1\n      0x1f\n      add\n      0x20\n      swap1\n      div\n      dup2\n      add\n      swap3\n      dup3\n      tag_220\n      jumpi\n      0x00\n      dup6\n      sstore\n      jump(tag_219)\n    tag_220:\n      dup3\n      0x1f\n      lt\n      tag_221\n      jumpi\n      dup1\n      mload\n      not(0xff)\n      and\n      dup4\n      dup1\n      add\n      or\n      dup6\n      sstore\n      jump(tag_219)\n    tag_221:\n      dup3\n      dup1\n      add\n      0x01\n      add\n      dup6\n      sstore\n      dup3\n      iszero\n      tag_219\n      jumpi\n      swap2\n      dup3\n      add\n    tag_222:\n      dup3\n      dup2\n      gt\n      iszero\n      tag_223\n      jumpi\n      dup3\n      mload\n      dup3\n      sstore\n      swap2\n      0x20\n      add\n      swap2\n      swap1\n      0x01\n      add\n      swap1\n      jump(tag_222)\n    tag_223:\n    tag_219:\n      pop\n      swap1\n      pop\n      tag_224\n      swap2\n      swap1\n      tag_225\n      jump\t// in\n    tag_224:\n      pop\n      swap1\n      jump\t// out\n    tag_225:\n    tag_226:\n      dup1\n      dup3\n      gt\n      iszero\n      tag_227\n      jumpi\n      0x00\n      dup2\n      0x00\n      swap1\n      sstore\n      pop\n      0x01\n      add\n      jump(tag_226)\n    tag_227:\n      pop\n      swap1\n      jump\t// out\n        /* \"#utility.yul\":7:419   */\n    tag_229:\n        /* \"#utility.yul\":85:90   */\n      0x00\n        /* \"#utility.yul\":110:176   */\n      tag_231\n        /* \"#utility.yul\":126:175   */\n      tag_232\n        /* \"#utility.yul\":168:174   */\n      dup5\n        /* \"#utility.yul\":126:175   */\n      tag_233\n      jump\t// in\n    tag_232:\n        /* \"#utility.yul\":110:176   */\n      tag_234\n      jump\t// in\n    tag_231:\n        /* \"#utility.yul\":101:176   */\n      swap1\n      pop\n        /* \"#utility.yul\":199:205   */\n      dup3\n        /* \"#utility.yul\":192:197   */\n      dup2\n        /* \"#utility.yul\":185:206   */\n      mstore\n        /* \"#utility.yul\":237:241   */\n      0x20\n        /* \"#utility.yul\":230:235   */\n      dup2\n        /* \"#utility.yul\":226:242   */\n      add\n        /* \"#utility.yul\":275:278   */\n      dup5\n        /* \"#utility.yul\":266:272   */\n      dup5\n        /* \"#utility.yul\":261:264   */\n      dup5\n        /* \"#utility.yul\":257:273   */\n      add\n        /* \"#utility.yul\":254:279   */\n      gt\n        /* \"#utility.yul\":251:363   */\n      iszero\n      tag_235\n      jumpi\n        /* \"#utility.yul\":282:361   */\n      tag_236\n      tag_237\n      jump\t// in\n    tag_236:\n        /* \"#utility.yul\":251:363   */\n    tag_235:\n        /* \"#utility.yul\":372:413   */\n      tag_238\n        /* \"#utility.yul\":406:412   */\n      dup5\n        /* \"#utility.yul\":401:404   */\n      dup3\n        /* \"#utility.yul\":396:399   */\n      dup6\n        /* \"#utility.yul\":372:413   */\n      tag_239\n      jump\t// in\n    tag_238:\n        /* \"#utility.yul\":91:419   */\n      pop\n        /* \"#utility.yul\":7:419   */\n      swap4\n      swap3\n      pop\n      pop\n      pop\n      jump\t// out\n        /* \"#utility.yul\":425:564   */\n    tag_240:\n        /* \"#utility.yul\":471:476   */\n      0x00\n        /* \"#utility.yul\":509:515   */\n      dup2\n        /* \"#utility.yul\":496:516   */\n      calldataload\n        /* \"#utility.yul\":487:516   */\n      swap1\n      pop\n        /* \"#utility.yul\":525:558   */\n      tag_242\n        /* \"#utility.yul\":552:557   */\n      dup2\n        /* \"#utility.yul\":525:558   */\n      tag_243\n      jump\t// in\n    tag_242:\n        /* \"#utility.yul\":425:564   */\n      swap3\n      swap2\n      pop\n      pop\n      jump\t// out\n        /* \"#utility.yul\":584:924   */\n    tag_244:\n        /* \"#utility.yul\":640:645   */\n      0x00\n        /* \"#utility.yul\":689:692   */\n      dup3\n        /* \"#utility.yul\":682:686   */\n      0x1f\n        /* \"#utility.yul\":674:680   */\n      dup4\n        /* \"#utility.yul\":670:687   */\n      add\n        /* \"#utility.yul\":666:693   */\n      slt\n        /* \"#utility.yul\":656:778   */\n      tag_246\n      jumpi\n        /* \"#utility.yul\":697:776   */\n      tag_247\n      tag_248\n      jump\t// in\n    tag_247:\n        /* \"#utility.yul\":656:778   */\n    tag_246:\n        /* \"#utility.yul\":814:820   */\n      dup2\n        /* \"#utility.yul\":801:821   */\n      calldataload\n        /* \"#utility.yul\":839:918   */\n      tag_249\n        /* \"#utility.yul\":914:917   */\n      dup5\n        /* \"#utility.yul\":906:912   */\n      dup3\n        /* \"#utility.yul\":899:903   */\n      0x20\n        /* \"#utility.yul\":891:897   */\n      dup7\n        /* \"#utility.yul\":887:904   */\n      add\n        /* \"#utility.yul\":839:918   */\n      tag_229\n      jump\t// in\n    tag_249:\n        /* \"#utility.yul\":830:918   */\n      swap2\n      pop\n        /* \"#utility.yul\":646:924   */\n      pop\n        /* \"#utility.yul\":584:924   */\n      swap3\n      swap2\n      pop\n      pop\n      jump\t// out\n        /* \"#utility.yul\":963:2045   */\n    tag_250:\n        /* \"#utility.yul\":1037:1042   */\n      0x00\n        /* \"#utility.yul\":1081:1085   */\n      0x60\n        /* \"#utility.yul\":1069:1078   */\n      dup3\n        /* \"#utility.yul\":1064:1067   */\n      dup5\n        /* \"#utility.yul\":1060:1079   */\n      sub\n        /* \"#utility.yul\":1056:1086   */\n      slt\n        /* \"#utility.yul\":1053:1170   */\n      iszero\n      tag_252\n      jumpi\n        /* \"#utility.yul\":1089:1168   */\n      tag_253\n      tag_254\n      jump\t// in\n    tag_253:\n        /* \"#utility.yul\":1053:1170   */\n    tag_252:\n        /* \"#utility.yul\":1188:1209   */\n      tag_255\n        /* \"#utility.yul\":1204:1208   */\n      0x60\n        /* \"#utility.yul\":1188:1209   */\n      tag_234\n      jump\t// in\n    tag_255:\n        /* \"#utility.yul\":1179:1209   */\n      swap1\n      pop\n        /* \"#utility.yul\":1296:1297   */\n      0x00\n        /* \"#utility.yul\":1285:1294   */\n      dup3\n        /* \"#utility.yul\":1281:1298   */\n      add\n        /* \"#utility.yul\":1268:1299   */\n      calldataload\n        /* \"#utility.yul\":1326:1344   */\n      0xffffffffffffffff\n        /* \"#utility.yul\":1318:1324   */\n      dup2\n        /* \"#utility.yul\":1315:1345   */\n      gt\n        /* \"#utility.yul\":1312:1429   */\n      iszero\n      tag_256\n      jumpi\n        /* \"#utility.yul\":1348:1427   */\n      tag_257\n      tag_258\n      jump\t// in\n    tag_257:\n        /* \"#utility.yul\":1312:1429   */\n    tag_256:\n        /* \"#utility.yul\":1468:1527   */\n      tag_259\n        /* \"#utility.yul\":1523:1526   */\n      dup5\n        /* \"#utility.yul\":1514:1520   */\n      dup3\n        /* \"#utility.yul\":1503:1512   */\n      dup6\n        /* \"#utility.yul\":1499:1521   */\n      add\n        /* \"#utility.yul\":1468:1527   */\n      tag_244\n      jump\t// in\n    tag_259:\n        /* \"#utility.yul\":1461:1465   */\n      0x00\n        /* \"#utility.yul\":1454:1459   */\n      dup4\n        /* \"#utility.yul\":1450:1466   */\n      add\n        /* \"#utility.yul\":1443:1528   */\n      mstore\n        /* \"#utility.yul\":1219:1539   */\n      pop\n        /* \"#utility.yul\":1627:1629   */\n      0x20\n        /* \"#utility.yul\":1616:1625   */\n      dup3\n        /* \"#utility.yul\":1612:1630   */\n      add\n        /* \"#utility.yul\":1599:1631   */\n      calldataload\n        /* \"#utility.yul\":1658:1676   */\n      0xffffffffffffffff\n        /* \"#utility.yul\":1650:1656   */\n      dup2\n        /* \"#utility.yul\":1647:1677   */\n      gt\n        /* \"#utility.yul\":1644:1761   */\n      iszero\n      tag_260\n      jumpi\n        /* \"#utility.yul\":1680:1759   */\n      tag_261\n      tag_258\n      jump\t// in\n    tag_261:\n        /* \"#utility.yul\":1644:1761   */\n    tag_260:\n        /* \"#utility.yul\":1800:1859   */\n      tag_262\n        /* \"#utility.yul\":1855:1858   */\n      dup5\n        /* \"#utility.yul\":1846:1852   */\n      dup3\n        /* \"#utility.yul\":1835:1844   */\n      dup6\n        /* \"#utility.yul\":1831:1853   */\n      add\n        /* \"#utility.yul\":1800:1859   */\n      tag_244\n      jump\t// in\n    tag_262:\n        /* \"#utility.yul\":1793:1797   */\n      0x20\n        /* \"#utility.yul\":1786:1791   */\n      dup4\n        /* \"#utility.yul\":1782:1798   */\n      add\n        /* \"#utility.yul\":1775:1860   */\n      mstore\n        /* \"#utility.yul\":1549:1871   */\n      pop\n        /* \"#utility.yul\":1936:1938   */\n      0x40\n        /* \"#utility.yul\":1977:2026   */\n      tag_263\n        /* \"#utility.yul\":2022:2025   */\n      dup5\n        /* \"#utility.yul\":2013:2019   */\n      dup3\n        /* \"#utility.yul\":2002:2011   */\n      dup6\n        /* \"#utility.yul\":1998:2020   */\n      add\n        /* \"#utility.yul\":1977:2026   */\n      tag_264\n      jump\t// in\n    tag_263:\n        /* \"#utility.yul\":1970:1974   */\n      0x40\n        /* \"#utility.yul\":1963:1968   */\n      dup4\n        /* \"#utility.yul\":1959:1975   */\n      add\n        /* \"#utility.yul\":1952:2027   */\n      mstore\n        /* \"#utility.yul\":1881:2038   */\n      pop\n        /* \"#utility.yul\":963:2045   */\n      swap3\n      swap2\n      pop\n      pop\n      jump\t// out\n        /* \"#utility.yul\":2051:2190   */\n    tag_264:\n        /* \"#utility.yul\":2097:2102   */\n      0x00\n        /* \"#utility.yul\":2135:2141   */\n      dup2\n        /* \"#utility.yul\":2122:2142   */\n      calldataload\n        /* \"#utility.yul\":2113:2142   */\n      swap1\n      pop\n        /* \"#utility.yul\":2151:2184   */\n      tag_266\n        /* \"#utility.yul\":2178:2183   */\n      dup2\n        /* \"#utility.yul\":2151:2184   */\n      tag_267\n      jump\t// in\n    tag_266:\n        /* \"#utility.yul\":2051:2190   */\n      swap3\n      swap2\n      pop\n      pop\n      jump\t// out\n        /* \"#utility.yul\":2196:2525   */\n    tag_59:\n        /* \"#utility.yul\":2255:2261   */\n      0x00\n        /* \"#utility.yul\":2304:2306   */\n      0x20\n        /* \"#utility.yul\":2292:2301   */\n      dup3\n        /* \"#utility.yul\":2283:2290   */\n      dup5\n        /* \"#utility.yul\":2279:2302   */\n      sub\n        /* \"#utility.yul\":2275:2307   */\n      slt\n        /* \"#utility.yul\":2272:2391   */\n      iszero\n      tag_269\n      jumpi\n        /* \"#utility.yul\":2310:2389   */\n      tag_270\n      tag_271\n      jump\t// in\n    tag_270:\n        /* \"#utility.yul\":2272:2391   */\n    tag_269:\n        /* \"#utility.yul\":2430:2431   */\n      0x00\n        /* \"#utility.yul\":2455:2508   */\n      tag_272\n        /* \"#utility.yul\":2500:2507   */\n      dup5\n        /* \"#utility.yul\":2491:2497   */\n      dup3\n        /* \"#utility.yul\":2480:2489   */\n      dup6\n        /* \"#utility.yul\":2476:2498   */\n      add\n        /* \"#utility.yul\":2455:2508   */\n      tag_240\n      jump\t// in\n    tag_272:\n        /* \"#utility.yul\":2445:2508   */\n      swap2\n      pop\n        /* \"#utility.yul\":2401:2518   */\n      pop\n        /* \"#utility.yul\":2196:2525   */\n      swap3\n      swap2\n      pop\n      pop\n      jump\t// out\n        /* \"#utility.yul\":2531:3040   */\n    tag_92:\n        /* \"#utility.yul\":2600:2606   */\n      0x00\n        /* \"#utility.yul\":2649:2651   */\n      0x20\n        /* \"#utility.yul\":2637:2646   */\n      dup3\n        /* \"#utility.yul\":2628:2635   */\n      dup5\n        /* \"#utility.yul\":2624:2647   */\n      sub\n        /* \"#utility.yul\":2620:2652   */\n      slt\n        /* \"#utility.yul\":2617:2736   */\n      iszero\n      tag_274\n      jumpi\n        /* \"#utility.yul\":2655:2734   */\n      tag_275\n      tag_271\n      jump\t// in\n    tag_275:\n        /* \"#utility.yul\":2617:2736   */\n    tag_274:\n        /* \"#utility.yul\":2803:2804   */\n      0x00\n        /* \"#utility.yul\":2792:2801   */\n      dup3\n        /* \"#utility.yul\":2788:2805   */\n      add\n        /* \"#utility.yul\":2775:2806   */\n      calldataload\n        /* \"#utility.yul\":2833:2851   */\n      0xffffffffffffffff\n        /* \"#utility.yul\":2825:2831   */\n      dup2\n        /* \"#utility.yul\":2822:2852   */\n      gt\n        /* \"#utility.yul\":2819:2936   */\n      iszero\n      tag_276\n      jumpi\n        /* \"#utility.yul\":2855:2934   */\n      tag_277\n      tag_278\n      jump\t// in\n    tag_277:\n        /* \"#utility.yul\":2819:2936   */\n    tag_276:\n        /* \"#utility.yul\":2960:3023   */\n      tag_279\n        /* \"#utility.yul\":3015:3022   */\n      dup5\n        /* \"#utility.yul\":3006:3012   */\n      dup3\n        /* \"#utility.yul\":2995:3004   */\n      dup6\n        /* \"#utility.yul\":2991:3013   */\n      add\n        /* \"#utility.yul\":2960:3023   */\n      tag_244\n      jump\t// in\n    tag_279:\n        /* \"#utility.yul\":2950:3023   */\n      swap2\n      pop\n        /* \"#utility.yul\":2746:3033   */\n      pop\n        /* \"#utility.yul\":2531:3040   */\n      swap3\n      swap2\n      pop\n      pop\n      jump\t// out\n        /* \"#utility.yul\":3046:3880   */\n    tag_33:\n        /* \"#utility.yul\":3134:3140   */\n      0x00\n        /* \"#utility.yul\":3142:3148   */\n      dup1\n        /* \"#utility.yul\":3191:3193   */\n      0x40\n        /* \"#utility.yul\":3179:3188   */\n      dup4\n        /* \"#utility.yul\":3170:3177   */\n      dup6\n        /* \"#utility.yul\":3166:3189   */\n      sub\n        /* \"#utility.yul\":3162:3194   */\n      slt\n        /* \"#utility.yul\":3159:3278   */\n      iszero\n      tag_281\n      jumpi\n        /* \"#utility.yul\":3197:3276   */\n      tag_282\n      tag_271\n      jump\t// in\n    tag_282:\n        /* \"#utility.yul\":3159:3278   */\n    tag_281:\n        /* \"#utility.yul\":3345:3346   */\n      0x00\n        /* \"#utility.yul\":3334:3343   */\n      dup4\n        /* \"#utility.yul\":3330:3347   */\n      add\n        /* \"#utility.yul\":3317:3348   */\n      calldataload\n        /* \"#utility.yul\":3375:3393   */\n      0xffffffffffffffff\n        /* \"#utility.yul\":3367:3373   */\n      dup2\n        /* \"#utility.yul\":3364:3394   */\n      gt\n        /* \"#utility.yul\":3361:3478   */\n      iszero\n      tag_283\n      jumpi\n        /* \"#utility.yul\":3397:3476   */\n      tag_284\n      tag_278\n      jump\t// in\n    tag_284:\n        /* \"#utility.yul\":3361:3478   */\n    tag_283:\n        /* \"#utility.yul\":3502:3565   */\n      tag_285\n        /* \"#utility.yul\":3557:3564   */\n      dup6\n        /* \"#utility.yul\":3548:3554   */\n      dup3\n        /* \"#utility.yul\":3537:3546   */\n      dup7\n        /* \"#utility.yul\":3533:3555   */\n      add\n        /* \"#utility.yul\":3502:3565   */\n      tag_244\n      jump\t// in\n    tag_285:\n        /* \"#utility.yul\":3492:3565   */\n      swap3\n      pop\n        /* \"#utility.yul\":3288:3575   */\n      pop\n        /* \"#utility.yul\":3642:3644   */\n      0x20\n        /* \"#utility.yul\":3631:3640   */\n      dup4\n        /* \"#utility.yul\":3627:3645   */\n      add\n        /* \"#utility.yul\":3614:3646   */\n      calldataload\n        /* \"#utility.yul\":3673:3691   */\n      0xffffffffffffffff\n        /* \"#utility.yul\":3665:3671   */\n      dup2\n        /* \"#utility.yul\":3662:3692   */\n      gt\n        /* \"#utility.yul\":3659:3776   */\n      iszero\n      tag_286\n      jumpi\n        /* \"#utility.yul\":3695:3774   */\n      tag_287\n      tag_278\n      jump\t// in\n    tag_287:\n        /* \"#utility.yul\":3659:3776   */\n    tag_286:\n        /* \"#utility.yul\":3800:3863   */\n      tag_288\n        /* \"#utility.yul\":3855:3862   */\n      dup6\n        /* \"#utility.yul\":3846:3852   */\n      dup3\n        /* \"#utility.yul\":3835:3844   */\n      dup7\n        /* \"#utility.yul\":3831:3853   */\n      add\n        /* \"#utility.yul\":3800:3863   */\n      tag_244\n      jump\t// in\n    tag_288:\n        /* \"#utility.yul\":3790:3863   */\n      swap2\n      pop\n        /* \"#utility.yul\":3585:3873   */\n      pop\n        /* \"#utility.yul\":3046:3880   */\n      swap3\n      pop\n      swap3\n      swap1\n      pop\n      jump\t// out\n        /* \"#utility.yul\":3886:4425   */\n    tag_64:\n        /* \"#utility.yul\":3970:3976   */\n      0x00\n        /* \"#utility.yul\":4019:4021   */\n      0x20\n        /* \"#utility.yul\":4007:4016   */\n      dup3\n        /* \"#utility.yul\":3998:4005   */\n      dup5\n        /* \"#utility.yul\":3994:4017   */\n      sub\n        /* \"#utility.yul\":3990:4022   */\n      slt\n        /* \"#utility.yul\":3987:4106   */\n      iszero\n      tag_290\n      jumpi\n        /* \"#utility.yul\":4025:4104   */\n      tag_291\n      tag_271\n      jump\t// in\n    tag_291:\n        /* \"#utility.yul\":3987:4106   */\n    tag_290:\n        /* \"#utility.yul\":4173:4174   */\n      0x00\n        /* \"#utility.yul\":4162:4171   */\n      dup3\n        /* \"#utility.yul\":4158:4175   */\n      add\n        /* \"#utility.yul\":4145:4176   */\n      calldataload\n        /* \"#utility.yul\":4203:4221   */\n      0xffffffffffffffff\n        /* \"#utility.yul\":4195:4201   */\n      dup2\n        /* \"#utility.yul\":4192:4222   */\n      gt\n        /* \"#utility.yul\":4189:4306   */\n      iszero\n      tag_292\n      jumpi\n        /* \"#utility.yul\":4225:4304   */\n      tag_293\n      tag_278\n      jump\t// in\n    tag_293:\n        /* \"#utility.yul\":4189:4306   */\n    tag_292:\n        /* \"#utility.yul\":4330:4408   */\n      tag_294\n        /* \"#utility.yul\":4400:4407   */\n      dup5\n        /* \"#utility.yul\":4391:4397   */\n      dup3\n        /* \"#utility.yul\":4380:4389   */\n      dup6\n        /* \"#utility.yul\":4376:4398   */\n      add\n        /* \"#utility.yul\":4330:4408   */\n      tag_250\n      jump\t// in\n    tag_294:\n        /* \"#utility.yul\":4320:4408   */\n      swap2\n      pop\n        /* \"#utility.yul\":4116:4418   */\n      pop\n        /* \"#utility.yul\":3886:4425   */\n      swap3\n      swap2\n      pop\n      pop\n      jump\t// out\n        /* \"#utility.yul\":4431:4760   */\n    tag_45:\n        /* \"#utility.yul\":4490:4496   */\n      0x00\n        /* \"#utility.yul\":4539:4541   */\n      0x20\n        /* \"#utility.yul\":4527:4536   */\n      dup3\n        /* \"#utility.yul\":4518:4525   */\n      dup5\n        /* \"#utility.yul\":4514:4537   */\n      sub\n        /* \"#utility.yul\":4510:4542   */\n      slt\n        /* \"#utility.yul\":4507:4626   */\n      iszero\n      tag_296\n      jumpi\n        /* \"#utility.yul\":4545:4624   */\n      tag_297\n      tag_271\n      jump\t// in\n    tag_297:\n        /* \"#utility.yul\":4507:4626   */\n    tag_296:\n        /* \"#utility.yul\":4665:4666   */\n      0x00\n        /* \"#utility.yul\":4690:4743   */\n      tag_298\n        /* \"#utility.yul\":4735:4742   */\n      dup5\n        /* \"#utility.yul\":4726:4732   */\n      dup3\n        /* \"#utility.yul\":4715:4724   */\n      dup6\n        /* \"#utility.yul\":4711:4733   */\n      add\n        /* \"#utility.yul\":4690:4743   */\n      tag_264\n      jump\t// in\n    tag_298:\n        /* \"#utility.yul\":4680:4743   */\n      swap2\n      pop\n        /* \"#utility.yul\":4636:4753   */\n      pop\n        /* \"#utility.yul\":4431:4760   */\n      swap3\n      swap2\n      pop\n      pop\n      jump\t// out\n        /* \"#utility.yul\":4766:5022   */\n    tag_299:\n        /* \"#utility.yul\":4885:4895   */\n      0x00\n        /* \"#utility.yul\":4920:5016   */\n      tag_301\n        /* \"#utility.yul\":5012:5015   */\n      dup4\n        /* \"#utility.yul\":5004:5010   */\n      dup4\n        /* \"#utility.yul\":4920:5016   */\n      tag_302\n      jump\t// in\n    tag_301:\n        /* \"#utility.yul\":4906:5016   */\n      swap1\n      pop\n        /* \"#utility.yul\":4766:5022   */\n      swap3\n      swap2\n      pop\n      pop\n      jump\t// out\n        /* \"#utility.yul\":5028:5146   */\n    tag_303:\n        /* \"#utility.yul\":5115:5139   */\n      tag_305\n        /* \"#utility.yul\":5133:5138   */\n      dup2\n        /* \"#utility.yul\":5115:5139   */\n      tag_306\n      jump\t// in\n    tag_305:\n        /* \"#utility.yul\":5110:5113   */\n      dup3\n        /* \"#utility.yul\":5103:5140   */\n      mstore\n        /* \"#utility.yul\":5028:5146   */\n      pop\n      pop\n      jump\t// out\n        /* \"#utility.yul\":5218:6329   */\n    tag_307:\n        /* \"#utility.yul\":5387:5390   */\n      0x00\n        /* \"#utility.yul\":5416:5495   */\n      tag_309\n        /* \"#utility.yul\":5489:5494   */\n      dup3\n        /* \"#utility.yul\":5416:5495   */\n      tag_310\n      jump\t// in\n    tag_309:\n        /* \"#utility.yul\":5511:5622   */\n      tag_311\n        /* \"#utility.yul\":5615:5621   */\n      dup2\n        /* \"#utility.yul\":5610:5613   */\n      dup6\n        /* \"#utility.yul\":5511:5622   */\n      tag_312\n      jump\t// in\n    tag_311:\n        /* \"#utility.yul\":5504:5622   */\n      swap4\n      pop\n        /* \"#utility.yul\":5648:5651   */\n      dup4\n        /* \"#utility.yul\":5693:5697   */\n      0x20\n        /* \"#utility.yul\":5685:5691   */\n      dup3\n        /* \"#utility.yul\":5681:5698   */\n      mul\n        /* \"#utility.yul\":5676:5679   */\n      dup6\n        /* \"#utility.yul\":5672:5699   */\n      add\n        /* \"#utility.yul\":5723:5804   */\n      tag_313\n        /* \"#utility.yul\":5798:5803   */\n      dup6\n        /* \"#utility.yul\":5723:5804   */\n      tag_314\n      jump\t// in\n    tag_313:\n        /* \"#utility.yul\":5827:5834   */\n      dup1\n        /* \"#utility.yul\":5858:5859   */\n      0x00\n        /* \"#utility.yul\":5843:6284   */\n    tag_315:\n        /* \"#utility.yul\":5868:5874   */\n      dup6\n        /* \"#utility.yul\":5865:5866   */\n      dup2\n        /* \"#utility.yul\":5862:5875   */\n      lt\n        /* \"#utility.yul\":5843:6284   */\n      iszero\n      tag_317\n      jumpi\n        /* \"#utility.yul\":5939:5948   */\n      dup5\n        /* \"#utility.yul\":5933:5937   */\n      dup5\n        /* \"#utility.yul\":5929:5949   */\n      sub\n        /* \"#utility.yul\":5924:5927   */\n      dup10\n        /* \"#utility.yul\":5917:5950   */\n      mstore\n        /* \"#utility.yul\":5990:5996   */\n      dup2\n        /* \"#utility.yul\":5984:5997   */\n      mload\n        /* \"#utility.yul\":6018:6132   */\n      tag_318\n        /* \"#utility.yul\":6127:6131   */\n      dup6\n        /* \"#utility.yul\":6112:6125   */\n      dup3\n        /* \"#utility.yul\":6018:6132   */\n      tag_299\n      jump\t// in\n    tag_318:\n        /* \"#utility.yul\":6010:6132   */\n      swap5\n      pop\n        /* \"#utility.yul\":6155:6240   */\n      tag_319\n        /* \"#utility.yul\":6233:6239   */\n      dup4\n        /* \"#utility.yul\":6155:6240   */\n      tag_320\n      jump\t// in\n    tag_319:\n        /* \"#utility.yul\":6145:6240   */\n      swap3\n      pop\n        /* \"#utility.yul\":6269:6273   */\n      0x20\n        /* \"#utility.yul\":6264:6267   */\n      dup11\n        /* \"#utility.yul\":6260:6274   */\n      add\n        /* \"#utility.yul\":6253:6274   */\n      swap10\n      pop\n        /* \"#utility.yul\":5903:6284   */\n      pop\n        /* \"#utility.yul\":5890:5891   */\n      0x01\n        /* \"#utility.yul\":5887:5888   */\n      dup2\n        /* \"#utility.yul\":5883:5892   */\n      add\n        /* \"#utility.yul\":5878:5892   */\n      swap1\n      pop\n        /* \"#utility.yul\":5843:6284   */\n      jump(tag_315)\n    tag_317:\n        /* \"#utility.yul\":5847:5861   */\n      pop\n        /* \"#utility.yul\":6300:6304   */\n      dup3\n        /* \"#utility.yul\":6293:6304   */\n      swap8\n      pop\n        /* \"#utility.yul\":6320:6323   */\n      dup8\n        /* \"#utility.yul\":6313:6323   */\n      swap6\n      pop\n        /* \"#utility.yul\":5392:6329   */\n      pop\n      pop\n      pop\n      pop\n      pop\n        /* \"#utility.yul\":5218:6329   */\n      swap3\n      swap2\n      pop\n      pop\n      jump\t// out\n        /* \"#utility.yul\":6335:6444   */\n    tag_321:\n        /* \"#utility.yul\":6416:6437   */\n      tag_323\n        /* \"#utility.yul\":6431:6436   */\n      dup2\n        /* \"#utility.yul\":6416:6437   */\n      tag_324\n      jump\t// in\n    tag_323:\n        /* \"#utility.yul\":6411:6414   */\n      dup3\n        /* \"#utility.yul\":6404:6438   */\n      mstore\n        /* \"#utility.yul\":6335:6444   */\n      pop\n      pop\n      jump\t// out\n        /* \"#utility.yul\":6450:6794   */\n    tag_325:\n        /* \"#utility.yul\":6528:6531   */\n      0x00\n        /* \"#utility.yul\":6556:6595   */\n      tag_327\n        /* \"#utility.yul\":6589:6594   */\n      dup3\n        /* \"#utility.yul\":6556:6595   */\n      tag_328\n      jump\t// in\n    tag_327:\n        /* \"#utility.yul\":6611:6672   */\n      tag_329\n        /* \"#utility.yul\":6665:6671   */\n      dup2\n        /* \"#utility.yul\":6660:6663   */\n      dup6\n        /* \"#utility.yul\":6611:6672   */\n      tag_330\n      jump\t// in\n    tag_329:\n        /* \"#utility.yul\":6604:6672   */\n      swap4\n      pop\n        /* \"#utility.yul\":6681:6733   */\n      tag_331\n        /* \"#utility.yul\":6726:6732   */\n      dup2\n        /* \"#utility.yul\":6721:6724   */\n      dup6\n        /* \"#utility.yul\":6714:6718   */\n      0x20\n        /* \"#utility.yul\":6707:6712   */\n      dup7\n        /* \"#utility.yul\":6703:6719   */\n      add\n        /* \"#utility.yul\":6681:6733   */\n      tag_332\n      jump\t// in\n    tag_331:\n        /* \"#utility.yul\":6758:6787   */\n      tag_333\n        /* \"#utility.yul\":6780:6786   */\n      dup2\n        /* \"#utility.yul\":6758:6787   */\n      tag_334\n      jump\t// in\n    tag_333:\n        /* \"#utility.yul\":6753:6756   */\n      dup5\n        /* \"#utility.yul\":6749:6788   */\n      add\n        /* \"#utility.yul\":6742:6788   */\n      swap2\n      pop\n        /* \"#utility.yul\":6532:6794   */\n      pop\n        /* \"#utility.yul\":6450:6794   */\n      swap3\n      swap2\n      pop\n      pop\n      jump\t// out\n        /* \"#utility.yul\":6800:7164   */\n    tag_335:\n        /* \"#utility.yul\":6888:6891   */\n      0x00\n        /* \"#utility.yul\":6916:6955   */\n      tag_337\n        /* \"#utility.yul\":6949:6954   */\n      dup3\n        /* \"#utility.yul\":6916:6955   */\n      tag_328\n      jump\t// in\n    tag_337:\n        /* \"#utility.yul\":6971:7042   */\n      tag_338\n        /* \"#utility.yul\":7035:7041   */\n      dup2\n        /* \"#utility.yul\":7030:7033   */\n      dup6\n        /* \"#utility.yul\":6971:7042   */\n      tag_339\n      jump\t// in\n    tag_338:\n        /* \"#utility.yul\":6964:7042   */\n      swap4\n      pop\n        /* \"#utility.yul\":7051:7103   */\n      tag_340\n        /* \"#utility.yul\":7096:7102   */\n      dup2\n        /* \"#utility.yul\":7091:7094   */\n      dup6\n        /* \"#utility.yul\":7084:7088   */\n      0x20\n        /* \"#utility.yul\":7077:7082   */\n      dup7\n        /* \"#utility.yul\":7073:7089   */\n      add\n        /* \"#utility.yul\":7051:7103   */\n      tag_332\n      jump\t// in\n    tag_340:\n        /* \"#utility.yul\":7128:7157   */\n      tag_341\n        /* \"#utility.yul\":7150:7156   */\n      dup2\n        /* \"#utility.yul\":7128:7157   */\n      tag_334\n      jump\t// in\n    tag_341:\n        /* \"#utility.yul\":7123:7126   */\n      dup5\n        /* \"#utility.yul\":7119:7158   */\n      add\n        /* \"#utility.yul\":7112:7158   */\n      swap2\n      pop\n        /* \"#utility.yul\":6892:7164   */\n      pop\n        /* \"#utility.yul\":6800:7164   */\n      swap3\n      swap2\n      pop\n      pop\n      jump\t// out\n        /* \"#utility.yul\":7194:7996   */\n    tag_342:\n        /* \"#utility.yul\":7279:7282   */\n      0x00\n        /* \"#utility.yul\":7316:7321   */\n      dup2\n        /* \"#utility.yul\":7310:7322   */\n      sload\n        /* \"#utility.yul\":7345:7381   */\n      tag_344\n        /* \"#utility.yul\":7371:7380   */\n      dup2\n        /* \"#utility.yul\":7345:7381   */\n      tag_122\n      jump\t// in\n    tag_344:\n        /* \"#utility.yul\":7397:7468   */\n      tag_345\n        /* \"#utility.yul\":7461:7467   */\n      dup2\n        /* \"#utility.yul\":7456:7459   */\n      dup7\n        /* \"#utility.yul\":7397:7468   */\n      tag_339\n      jump\t// in\n    tag_345:\n        /* \"#utility.yul\":7390:7468   */\n      swap5\n      pop\n        /* \"#utility.yul\":7499:7500   */\n      0x01\n        /* \"#utility.yul\":7488:7497   */\n      dup3\n        /* \"#utility.yul\":7484:7501   */\n      and\n        /* \"#utility.yul\":7515:7516   */\n      0x00\n        /* \"#utility.yul\":7510:7645   */\n      dup2\n      eq\n      tag_347\n      jumpi\n        /* \"#utility.yul\":7659:7660   */\n      0x01\n        /* \"#utility.yul\":7654:7990   */\n      dup2\n      eq\n      tag_348\n      jumpi\n        /* \"#utility.yul\":7477:7990   */\n      jump(tag_346)\n        /* \"#utility.yul\":7510:7645   */\n    tag_347:\n        /* \"#utility.yul\":7594:7598   */\n      0xff\n        /* \"#utility.yul\":7590:7599   */\n      not\n        /* \"#utility.yul\":7579:7588   */\n      dup4\n        /* \"#utility.yul\":7575:7600   */\n      and\n        /* \"#utility.yul\":7570:7573   */\n      dup7\n        /* \"#utility.yul\":7563:7601   */\n      mstore\n        /* \"#utility.yul\":7630:7634   */\n      0x20\n        /* \"#utility.yul\":7625:7628   */\n      dup7\n        /* \"#utility.yul\":7621:7635   */\n      add\n        /* \"#utility.yul\":7614:7635   */\n      swap4\n      pop\n        /* \"#utility.yul\":7510:7645   */\n      jump(tag_346)\n        /* \"#utility.yul\":7654:7990   */\n    tag_348:\n        /* \"#utility.yul\":7721:7759   */\n      tag_349\n        /* \"#utility.yul\":7753:7758   */\n      dup6\n        /* \"#utility.yul\":7721:7759   */\n      tag_350\n      jump\t// in\n    tag_349:\n        /* \"#utility.yul\":7781:7782   */\n      0x00\n        /* \"#utility.yul\":7795:7949   */\n    tag_351:\n        /* \"#utility.yul\":7809:7815   */\n      dup4\n        /* \"#utility.yul\":7806:7807   */\n      dup2\n        /* \"#utility.yul\":7803:7816   */\n      lt\n        /* \"#utility.yul\":7795:7949   */\n      iszero\n      tag_353\n      jumpi\n        /* \"#utility.yul\":7883:7890   */\n      dup2\n        /* \"#utility.yul\":7877:7891   */\n      sload\n        /* \"#utility.yul\":7873:7874   */\n      dup2\n        /* \"#utility.yul\":7868:7871   */\n      dup10\n        /* \"#utility.yul\":7864:7875   */\n      add\n        /* \"#utility.yul\":7857:7892   */\n      mstore\n        /* \"#utility.yul\":7933:7934   */\n      0x01\n        /* \"#utility.yul\":7924:7931   */\n      dup3\n        /* \"#utility.yul\":7920:7935   */\n      add\n        /* \"#utility.yul\":7909:7935   */\n      swap2\n      pop\n        /* \"#utility.yul\":7831:7835   */\n      0x20\n        /* \"#utility.yul\":7828:7829   */\n      dup2\n        /* \"#utility.yul\":7824:7836   */\n      add\n        /* \"#utility.yul\":7819:7836   */\n      swap1\n      pop\n        /* \"#utility.yul\":7795:7949   */\n      jump(tag_351)\n    tag_353:\n        /* \"#utility.yul\":7978:7979   */\n      dup1\n        /* \"#utility.yul\":7973:7976   */\n      dup9\n        /* \"#utility.yul\":7969:7980   */\n      add\n        /* \"#utility.yul\":7962:7980   */\n      swap6\n      pop\n        /* \"#utility.yul\":7661:7990   */\n      pop\n      pop\n        /* \"#utility.yul\":7477:7990   */\n    tag_346:\n      pop\n        /* \"#utility.yul\":7283:7996   */\n      pop\n      pop\n        /* \"#utility.yul\":7194:7996   */\n      swap3\n      swap2\n      pop\n      pop\n      jump\t// out\n        /* \"#utility.yul\":8002:8368   */\n    tag_354:\n        /* \"#utility.yul\":8144:8147   */\n      0x00\n        /* \"#utility.yul\":8165:8232   */\n      tag_356\n        /* \"#utility.yul\":8229:8231   */\n      0x2f\n        /* \"#utility.yul\":8224:8227   */\n      dup4\n        /* \"#utility.yul\":8165:8232   */\n      tag_339\n      jump\t// in\n    tag_356:\n        /* \"#utility.yul\":8158:8232   */\n      swap2\n      pop\n        /* \"#utility.yul\":8241:8334   */\n      tag_357\n        /* \"#utility.yul\":8330:8333   */\n      dup3\n        /* \"#utility.yul\":8241:8334   */\n      tag_358\n      jump\t// in\n    tag_357:\n        /* \"#utility.yul\":8359:8361   */\n      0x40\n        /* \"#utility.yul\":8354:8357   */\n      dup3\n        /* \"#utility.yul\":8350:8362   */\n      add\n        /* \"#utility.yul\":8343:8362   */\n      swap1\n      pop\n        /* \"#utility.yul\":8002:8368   */\n      swap2\n      swap1\n      pop\n      jump\t// out\n        /* \"#utility.yul\":8374:8740   */\n    tag_359:\n        /* \"#utility.yul\":8516:8519   */\n      0x00\n        /* \"#utility.yul\":8537:8604   */\n      tag_361\n        /* \"#utility.yul\":8601:8603   */\n      0x14\n        /* \"#utility.yul\":8596:8599   */\n      dup4\n        /* \"#utility.yul\":8537:8604   */\n      tag_339\n      jump\t// in\n    tag_361:\n        /* \"#utility.yul\":8530:8604   */\n      swap2\n      pop\n        /* \"#utility.yul\":8613:8706   */\n      tag_362\n        /* \"#utility.yul\":8702:8705   */\n      dup3\n        /* \"#utility.yul\":8613:8706   */\n      tag_363\n      jump\t// in\n    tag_362:\n        /* \"#utility.yul\":8731:8733   */\n      0x20\n        /* \"#utility.yul\":8726:8729   */\n      dup3\n        /* \"#utility.yul\":8722:8734   */\n      add\n        /* \"#utility.yul\":8715:8734   */\n      swap1\n      pop\n        /* \"#utility.yul\":8374:8740   */\n      swap2\n      swap1\n      pop\n      jump\t// out\n        /* \"#utility.yul\":8746:9112   */\n    tag_364:\n        /* \"#utility.yul\":8888:8891   */\n      0x00\n        /* \"#utility.yul\":8909:8976   */\n      tag_366\n        /* \"#utility.yul\":8973:8975   */\n      0x2b\n        /* \"#utility.yul\":8968:8971   */\n      dup4\n        /* \"#utility.yul\":8909:8976   */\n      tag_339\n      jump\t// in\n    tag_366:\n        /* \"#utility.yul\":8902:8976   */\n      swap2\n      pop\n        /* \"#utility.yul\":8985:9078   */\n      tag_367\n        /* \"#utility.yul\":9074:9077   */\n      dup3\n        /* \"#utility.yul\":8985:9078   */\n      tag_368\n      jump\t// in\n    tag_367:\n        /* \"#utility.yul\":9103:9105   */\n      0x40\n        /* \"#utility.yul\":9098:9101   */\n      dup3\n        /* \"#utility.yul\":9094:9106   */\n      add\n        /* \"#utility.yul\":9087:9106   */\n      swap1\n      pop\n        /* \"#utility.yul\":8746:9112   */\n      swap2\n      swap1\n      pop\n      jump\t// out\n        /* \"#utility.yul\":9118:9484   */\n    tag_369:\n        /* \"#utility.yul\":9260:9263   */\n      0x00\n        /* \"#utility.yul\":9281:9348   */\n      tag_371\n        /* \"#utility.yul\":9345:9347   */\n      0x1a\n        /* \"#utility.yul\":9340:9343   */\n      dup4\n        /* \"#utility.yul\":9281:9348   */\n      tag_339\n      jump\t// in\n    tag_371:\n        /* \"#utility.yul\":9274:9348   */\n      swap2\n      pop\n        /* \"#utility.yul\":9357:9450   */\n      tag_372\n        /* \"#utility.yul\":9446:9449   */\n      dup3\n        /* \"#utility.yul\":9357:9450   */\n      tag_373\n      jump\t// in\n    tag_372:\n        /* \"#utility.yul\":9475:9477   */\n      0x20\n        /* \"#utility.yul\":9470:9473   */\n      dup3\n        /* \"#utility.yul\":9466:9478   */\n      add\n        /* \"#utility.yul\":9459:9478   */\n      swap1\n      pop\n        /* \"#utility.yul\":9118:9484   */\n      swap2\n      swap1\n      pop\n      jump\t// out\n        /* \"#utility.yul\":9552:10400   */\n    tag_302:\n        /* \"#utility.yul\":9661:9664   */\n      0x00\n        /* \"#utility.yul\":9697:9701   */\n      0x60\n        /* \"#utility.yul\":9692:9695   */\n      dup4\n        /* \"#utility.yul\":9688:9702   */\n      add\n        /* \"#utility.yul\":9784:9788   */\n      0x00\n        /* \"#utility.yul\":9777:9782   */\n      dup4\n        /* \"#utility.yul\":9773:9789   */\n      add\n        /* \"#utility.yul\":9767:9790   */\n      mload\n        /* \"#utility.yul\":9837:9840   */\n      dup5\n        /* \"#utility.yul\":9831:9835   */\n      dup3\n        /* \"#utility.yul\":9827:9841   */\n      sub\n        /* \"#utility.yul\":9820:9824   */\n      0x00\n        /* \"#utility.yul\":9815:9818   */\n      dup7\n        /* \"#utility.yul\":9811:9825   */\n      add\n        /* \"#utility.yul\":9804:9842   */\n      mstore\n        /* \"#utility.yul\":9863:9936   */\n      tag_375\n        /* \"#utility.yul\":9931:9935   */\n      dup3\n        /* \"#utility.yul\":9917:9929   */\n      dup3\n        /* \"#utility.yul\":9863:9936   */\n      tag_325\n      jump\t// in\n    tag_375:\n        /* \"#utility.yul\":9855:9936   */\n      swap2\n      pop\n        /* \"#utility.yul\":9712:9947   */\n      pop\n        /* \"#utility.yul\":10030:10034   */\n      0x20\n        /* \"#utility.yul\":10023:10028   */\n      dup4\n        /* \"#utility.yul\":10019:10035   */\n      add\n        /* \"#utility.yul\":10013:10036   */\n      mload\n        /* \"#utility.yul\":10083:10086   */\n      dup5\n        /* \"#utility.yul\":10077:10081   */\n      dup3\n        /* \"#utility.yul\":10073:10087   */\n      sub\n        /* \"#utility.yul\":10066:10070   */\n      0x20\n        /* \"#utility.yul\":10061:10064   */\n      dup7\n        /* \"#utility.yul\":10057:10071   */\n      add\n        /* \"#utility.yul\":10050:10088   */\n      mstore\n        /* \"#utility.yul\":10109:10182   */\n      tag_376\n        /* \"#utility.yul\":10177:10181   */\n      dup3\n        /* \"#utility.yul\":10163:10175   */\n      dup3\n        /* \"#utility.yul\":10109:10182   */\n      tag_325\n      jump\t// in\n    tag_376:\n        /* \"#utility.yul\":10101:10182   */\n      swap2\n      pop\n        /* \"#utility.yul\":9957:10193   */\n      pop\n        /* \"#utility.yul\":10281:10285   */\n      0x40\n        /* \"#utility.yul\":10274:10279   */\n      dup4\n        /* \"#utility.yul\":10270:10286   */\n      add\n        /* \"#utility.yul\":10264:10287   */\n      mload\n        /* \"#utility.yul\":10300:10363   */\n      tag_377\n        /* \"#utility.yul\":10357:10361   */\n      0x40\n        /* \"#utility.yul\":10352:10355   */\n      dup7\n        /* \"#utility.yul\":10348:10362   */\n      add\n        /* \"#utility.yul\":10334:10346   */\n      dup3\n        /* \"#utility.yul\":10300:10363   */\n      tag_378\n      jump\t// in\n    tag_377:\n        /* \"#utility.yul\":10203:10373   */\n      pop\n        /* \"#utility.yul\":10390:10394   */\n      dup1\n        /* \"#utility.yul\":10383:10394   */\n      swap2\n      pop\n        /* \"#utility.yul\":9666:10400   */\n      pop\n        /* \"#utility.yul\":9552:10400   */\n      swap3\n      swap2\n      pop\n      pop\n      jump\t// out\n        /* \"#utility.yul\":10406:10514   */\n    tag_378:\n        /* \"#utility.yul\":10483:10507   */\n      tag_380\n        /* \"#utility.yul\":10501:10506   */\n      dup2\n        /* \"#utility.yul\":10483:10507   */\n      tag_381\n      jump\t// in\n    tag_380:\n        /* \"#utility.yul\":10478:10481   */\n      dup3\n        /* \"#utility.yul\":10471:10508   */\n      mstore\n        /* \"#utility.yul\":10406:10514   */\n      pop\n      pop\n      jump\t// out\n        /* \"#utility.yul\":10520:10638   */\n    tag_382:\n        /* \"#utility.yul\":10607:10631   */\n      tag_384\n        /* \"#utility.yul\":10625:10630   */\n      dup2\n        /* \"#utility.yul\":10607:10631   */\n      tag_381\n      jump\t// in\n    tag_384:\n        /* \"#utility.yul\":10602:10605   */\n      dup3\n        /* \"#utility.yul\":10595:10632   */\n      mstore\n        /* \"#utility.yul\":10520:10638   */\n      pop\n      pop\n      jump\t// out\n        /* \"#utility.yul\":10644:10866   */\n    tag_42:\n        /* \"#utility.yul\":10737:10741   */\n      0x00\n        /* \"#utility.yul\":10775:10777   */\n      0x20\n        /* \"#utility.yul\":10764:10773   */\n      dup3\n        /* \"#utility.yul\":10760:10778   */\n      add\n        /* \"#utility.yul\":10752:10778   */\n      swap1\n      pop\n        /* \"#utility.yul\":10788:10859   */\n      tag_386\n        /* \"#utility.yul\":10856:10857   */\n      0x00\n        /* \"#utility.yul\":10845:10854   */\n      dup4\n        /* \"#utility.yul\":10841:10858   */\n      add\n        /* \"#utility.yul\":10832:10838   */\n      dup5\n        /* \"#utility.yul\":10788:10859   */\n      tag_303\n      jump\t// in\n    tag_386:\n        /* \"#utility.yul\":10644:10866   */\n      swap3\n      swap2\n      pop\n      pop\n      jump\t// out\n        /* \"#utility.yul\":10872:11345   */\n    tag_56:\n        /* \"#utility.yul\":11065:11069   */\n      0x00\n        /* \"#utility.yul\":11103:11105   */\n      0x20\n        /* \"#utility.yul\":11092:11101   */\n      dup3\n        /* \"#utility.yul\":11088:11106   */\n      add\n        /* \"#utility.yul\":11080:11106   */\n      swap1\n      pop\n        /* \"#utility.yul\":11152:11161   */\n      dup2\n        /* \"#utility.yul\":11146:11150   */\n      dup2\n        /* \"#utility.yul\":11142:11162   */\n      sub\n        /* \"#utility.yul\":11138:11139   */\n      0x00\n        /* \"#utility.yul\":11127:11136   */\n      dup4\n        /* \"#utility.yul\":11123:11140   */\n      add\n        /* \"#utility.yul\":11116:11163   */\n      mstore\n        /* \"#utility.yul\":11180:11338   */\n      tag_388\n        /* \"#utility.yul\":11333:11337   */\n      dup2\n        /* \"#utility.yul\":11324:11330   */\n      dup5\n        /* \"#utility.yul\":11180:11338   */\n      tag_307\n      jump\t// in\n    tag_388:\n        /* \"#utility.yul\":11172:11338   */\n      swap1\n      pop\n        /* \"#utility.yul\":10872:11345   */\n      swap3\n      swap2\n      pop\n      pop\n      jump\t// out\n        /* \"#utility.yul\":11351:11561   */\n    tag_52:\n        /* \"#utility.yul\":11438:11442   */\n      0x00\n        /* \"#utility.yul\":11476:11478   */\n      0x20\n        /* \"#utility.yul\":11465:11474   */\n      dup3\n        /* \"#utility.yul\":11461:11479   */\n      add\n        /* \"#utility.yul\":11453:11479   */\n      swap1\n      pop\n        /* \"#utility.yul\":11489:11554   */\n      tag_390\n        /* \"#utility.yul\":11551:11552   */\n      0x00\n        /* \"#utility.yul\":11540:11549   */\n      dup4\n        /* \"#utility.yul\":11536:11553   */\n      add\n        /* \"#utility.yul\":11527:11533   */\n      dup5\n        /* \"#utility.yul\":11489:11554   */\n      tag_321\n      jump\t// in\n    tag_390:\n        /* \"#utility.yul\":11351:11561   */\n      swap3\n      swap2\n      pop\n      pop\n      jump\t// out\n        /* \"#utility.yul\":11567:11875   */\n    tag_73:\n        /* \"#utility.yul\":11676:11680   */\n      0x00\n        /* \"#utility.yul\":11714:11716   */\n      0x40\n        /* \"#utility.yul\":11703:11712   */\n      dup3\n        /* \"#utility.yul\":11699:11717   */\n      add\n        /* \"#utility.yul\":11691:11717   */\n      swap1\n      pop\n        /* \"#utility.yul\":11727:11792   */\n      tag_392\n        /* \"#utility.yul\":11789:11790   */\n      0x00\n        /* \"#utility.yul\":11778:11787   */\n      dup4\n        /* \"#utility.yul\":11774:11791   */\n      add\n        /* \"#utility.yul\":11765:11771   */\n      dup6\n        /* \"#utility.yul\":11727:11792   */\n      tag_321\n      jump\t// in\n    tag_392:\n        /* \"#utility.yul\":11802:11868   */\n      tag_393\n        /* \"#utility.yul\":11864:11866   */\n      0x20\n        /* \"#utility.yul\":11853:11862   */\n      dup4\n        /* \"#utility.yul\":11849:11867   */\n      add\n        /* \"#utility.yul\":11840:11846   */\n      dup5\n        /* \"#utility.yul\":11802:11868   */\n      tag_321\n      jump\t// in\n    tag_393:\n        /* \"#utility.yul\":11567:11875   */\n      swap4\n      swap3\n      pop\n      pop\n      pop\n      jump\t// out\n        /* \"#utility.yul\":11881:12194   */\n    tag_38:\n        /* \"#utility.yul\":11994:11998   */\n      0x00\n        /* \"#utility.yul\":12032:12034   */\n      0x20\n        /* \"#utility.yul\":12021:12030   */\n      dup3\n        /* \"#utility.yul\":12017:12035   */\n      add\n        /* \"#utility.yul\":12009:12035   */\n      swap1\n      pop\n        /* \"#utility.yul\":12081:12090   */\n      dup2\n        /* \"#utility.yul\":12075:12079   */\n      dup2\n        /* \"#utility.yul\":12071:12091   */\n      sub\n        /* \"#utility.yul\":12067:12068   */\n      0x00\n        /* \"#utility.yul\":12056:12065   */\n      dup4\n        /* \"#utility.yul\":12052:12069   */\n      add\n        /* \"#utility.yul\":12045:12092   */\n      mstore\n        /* \"#utility.yul\":12109:12187   */\n      tag_395\n        /* \"#utility.yul\":12182:12186   */\n      dup2\n        /* \"#utility.yul\":12173:12179   */\n      dup5\n        /* \"#utility.yul\":12109:12187   */\n      tag_335\n      jump\t// in\n    tag_395:\n        /* \"#utility.yul\":12101:12187   */\n      swap1\n      pop\n        /* \"#utility.yul\":11881:12194   */\n      swap3\n      swap2\n      pop\n      pop\n      jump\t// out\n        /* \"#utility.yul\":12200:12824   */\n    tag_48:\n        /* \"#utility.yul\":12389:12393   */\n      0x00\n        /* \"#utility.yul\":12427:12429   */\n      0x60\n        /* \"#utility.yul\":12416:12425   */\n      dup3\n        /* \"#utility.yul\":12412:12430   */\n      add\n        /* \"#utility.yul\":12404:12430   */\n      swap1\n      pop\n        /* \"#utility.yul\":12476:12485   */\n      dup2\n        /* \"#utility.yul\":12470:12474   */\n      dup2\n        /* \"#utility.yul\":12466:12486   */\n      sub\n        /* \"#utility.yul\":12462:12463   */\n      0x00\n        /* \"#utility.yul\":12451:12460   */\n      dup4\n        /* \"#utility.yul\":12447:12464   */\n      add\n        /* \"#utility.yul\":12440:12487   */\n      mstore\n        /* \"#utility.yul\":12504:12582   */\n      tag_397\n        /* \"#utility.yul\":12577:12581   */\n      dup2\n        /* \"#utility.yul\":12568:12574   */\n      dup7\n        /* \"#utility.yul\":12504:12582   */\n      tag_335\n      jump\t// in\n    tag_397:\n        /* \"#utility.yul\":12496:12582   */\n      swap1\n      pop\n        /* \"#utility.yul\":12629:12638   */\n      dup2\n        /* \"#utility.yul\":12623:12627   */\n      dup2\n        /* \"#utility.yul\":12619:12639   */\n      sub\n        /* \"#utility.yul\":12614:12616   */\n      0x20\n        /* \"#utility.yul\":12603:12612   */\n      dup4\n        /* \"#utility.yul\":12599:12617   */\n      add\n        /* \"#utility.yul\":12592:12640   */\n      mstore\n        /* \"#utility.yul\":12657:12735   */\n      tag_398\n        /* \"#utility.yul\":12730:12734   */\n      dup2\n        /* \"#utility.yul\":12721:12727   */\n      dup6\n        /* \"#utility.yul\":12657:12735   */\n      tag_335\n      jump\t// in\n    tag_398:\n        /* \"#utility.yul\":12649:12735   */\n      swap1\n      pop\n        /* \"#utility.yul\":12745:12817   */\n      tag_399\n        /* \"#utility.yul\":12813:12815   */\n      0x40\n        /* \"#utility.yul\":12802:12811   */\n      dup4\n        /* \"#utility.yul\":12798:12816   */\n      add\n        /* \"#utility.yul\":12789:12795   */\n      dup5\n        /* \"#utility.yul\":12745:12817   */\n      tag_382\n      jump\t// in\n    tag_399:\n        /* \"#utility.yul\":12200:12824   */\n      swap5\n      swap4\n      pop\n      pop\n      pop\n      pop\n      jump\t// out\n        /* \"#utility.yul\":12830:13137   */\n    tag_210:\n        /* \"#utility.yul\":12940:12944   */\n      0x00\n        /* \"#utility.yul\":12978:12980   */\n      0x20\n        /* \"#utility.yul\":12967:12976   */\n      dup3\n        /* \"#utility.yul\":12963:12981   */\n      add\n        /* \"#utility.yul\":12955:12981   */\n      swap1\n      pop\n        /* \"#utility.yul\":13027:13036   */\n      dup2\n        /* \"#utility.yul\":13021:13025   */\n      dup2\n        /* \"#utility.yul\":13017:13037   */\n      sub\n        /* \"#utility.yul\":13013:13014   */\n      0x00\n        /* \"#utility.yul\":13002:13011   */\n      dup4\n        /* \"#utility.yul\":12998:13015   */\n      add\n        /* \"#utility.yul\":12991:13038   */\n      mstore\n        /* \"#utility.yul\":13055:13130   */\n      tag_401\n        /* \"#utility.yul\":13125:13129   */\n      dup2\n        /* \"#utility.yul\":13116:13122   */\n      dup5\n        /* \"#utility.yul\":13055:13130   */\n      tag_342\n      jump\t// in\n    tag_401:\n        /* \"#utility.yul\":13047:13130   */\n      swap1\n      pop\n        /* \"#utility.yul\":12830:13137   */\n      swap3\n      swap2\n      pop\n      pop\n      jump\t// out\n        /* \"#utility.yul\":13143:13562   */\n    tag_168:\n        /* \"#utility.yul\":13309:13313   */\n      0x00\n        /* \"#utility.yul\":13347:13349   */\n      0x20\n        /* \"#utility.yul\":13336:13345   */\n      dup3\n        /* \"#utility.yul\":13332:13350   */\n      add\n        /* \"#utility.yul\":13324:13350   */\n      swap1\n      pop\n        /* \"#utility.yul\":13396:13405   */\n      dup2\n        /* \"#utility.yul\":13390:13394   */\n      dup2\n        /* \"#utility.yul\":13386:13406   */\n      sub\n        /* \"#utility.yul\":13382:13383   */\n      0x00\n        /* \"#utility.yul\":13371:13380   */\n      dup4\n        /* \"#utility.yul\":13367:13384   */\n      add\n        /* \"#utility.yul\":13360:13407   */\n      mstore\n        /* \"#utility.yul\":13424:13555   */\n      tag_403\n        /* \"#utility.yul\":13550:13554   */\n      dup2\n        /* \"#utility.yul\":13424:13555   */\n      tag_354\n      jump\t// in\n    tag_403:\n        /* \"#utility.yul\":13416:13555   */\n      swap1\n      pop\n        /* \"#utility.yul\":13143:13562   */\n      swap2\n      swap1\n      pop\n      jump\t// out\n        /* \"#utility.yul\":13568:13987   */\n    tag_173:\n        /* \"#utility.yul\":13734:13738   */\n      0x00\n        /* \"#utility.yul\":13772:13774   */\n      0x20\n        /* \"#utility.yul\":13761:13770   */\n      dup3\n        /* \"#utility.yul\":13757:13775   */\n      add\n        /* \"#utility.yul\":13749:13775   */\n      swap1\n      pop\n        /* \"#utility.yul\":13821:13830   */\n      dup2\n        /* \"#utility.yul\":13815:13819   */\n      dup2\n        /* \"#utility.yul\":13811:13831   */\n      sub\n        /* \"#utility.yul\":13807:13808   */\n      0x00\n        /* \"#utility.yul\":13796:13805   */\n      dup4\n        /* \"#utility.yul\":13792:13809   */\n      add\n        /* \"#utility.yul\":13785:13832   */\n      mstore\n        /* \"#utility.yul\":13849:13980   */\n      tag_405\n        /* \"#utility.yul\":13975:13979   */\n      dup2\n        /* \"#utility.yul\":13849:13980   */\n      tag_359\n      jump\t// in\n    tag_405:\n        /* \"#utility.yul\":13841:13980   */\n      swap1\n      pop\n        /* \"#utility.yul\":13568:13987   */\n      swap2\n      swap1\n      pop\n      jump\t// out\n        /* \"#utility.yul\":13993:14412   */\n    tag_110:\n        /* \"#utility.yul\":14159:14163   */\n      0x00\n        /* \"#utility.yul\":14197:14199   */\n      0x20\n        /* \"#utility.yul\":14186:14195   */\n      dup3\n        /* \"#utility.yul\":14182:14200   */\n      add\n        /* \"#utility.yul\":14174:14200   */\n      swap1\n      pop\n        /* \"#utility.yul\":14246:14255   */\n      dup2\n        /* \"#utility.yul\":14240:14244   */\n      dup2\n        /* \"#utility.yul\":14236:14256   */\n      sub\n        /* \"#utility.yul\":14232:14233   */\n      0x00\n        /* \"#utility.yul\":14221:14230   */\n      dup4\n        /* \"#utility.yul\":14217:14234   */\n      add\n        /* \"#utility.yul\":14210:14257   */\n      mstore\n        /* \"#utility.yul\":14274:14405   */\n      tag_407\n        /* \"#utility.yul\":14400:14404   */\n      dup2\n        /* \"#utility.yul\":14274:14405   */\n      tag_364\n      jump\t// in\n    tag_407:\n        /* \"#utility.yul\":14266:14405   */\n      swap1\n      pop\n        /* \"#utility.yul\":13993:14412   */\n      swap2\n      swap1\n      pop\n      jump\t// out\n        /* \"#utility.yul\":14418:14837   */\n    tag_200:\n        /* \"#utility.yul\":14584:14588   */\n      0x00\n        /* \"#utility.yul\":14622:14624   */\n      0x20\n        /* \"#utility.yul\":14611:14620   */\n      dup3\n        /* \"#utility.yul\":14607:14625   */\n      add\n        /* \"#utility.yul\":14599:14625   */\n      swap1\n      pop\n        /* \"#utility.yul\":14671:14680   */\n      dup2\n        /* \"#utility.yul\":14665:14669   */\n      dup2\n        /* \"#utility.yul\":14661:14681   */\n      sub\n        /* \"#utility.yul\":14657:14658   */\n      0x00\n        /* \"#utility.yul\":14646:14655   */\n      dup4\n        /* \"#utility.yul\":14642:14659   */\n      add\n        /* \"#utility.yul\":14635:14682   */\n      mstore\n        /* \"#utility.yul\":14699:14830   */\n      tag_409\n        /* \"#utility.yul\":14825:14829   */\n      dup2\n        /* \"#utility.yul\":14699:14830   */\n      tag_369\n      jump\t// in\n    tag_409:\n        /* \"#utility.yul\":14691:14830   */\n      swap1\n      pop\n        /* \"#utility.yul\":14418:14837   */\n      swap2\n      swap1\n      pop\n      jump\t// out\n        /* \"#utility.yul\":14843:15065   */\n    tag_27:\n        /* \"#utility.yul\":14936:14940   */\n      0x00\n        /* \"#utility.yul\":14974:14976   */\n      0x20\n        /* \"#utility.yul\":14963:14972   */\n      dup3\n        /* \"#utility.yul\":14959:14977   */\n      add\n        /* \"#utility.yul\":14951:14977   */\n      swap1\n      pop\n        /* \"#utility.yul\":14987:15058   */\n      tag_411\n        /* \"#utility.yul\":15055:15056   */\n      0x00\n        /* \"#utility.yul\":15044:15053   */\n      dup4\n        /* \"#utility.yul\":15040:15057   */\n      add\n        /* \"#utility.yul\":15031:15037   */\n      dup5\n        /* \"#utility.yul\":14987:15058   */\n      tag_382\n      jump\t// in\n    tag_411:\n        /* \"#utility.yul\":14843:15065   */\n      swap3\n      swap2\n      pop\n      pop\n      jump\t// out\n        /* \"#utility.yul\":15071:15200   */\n    tag_234:\n        /* \"#utility.yul\":15105:15111   */\n      0x00\n        /* \"#utility.yul\":15132:15152   */\n      tag_413\n      tag_414\n      jump\t// in\n    tag_413:\n        /* \"#utility.yul\":15122:15152   */\n      swap1\n      pop\n        /* \"#utility.yul\":15161:15194   */\n      tag_415\n        /* \"#utility.yul\":15189:15193   */\n      dup3\n        /* \"#utility.yul\":15181:15187   */\n      dup3\n        /* \"#utility.yul\":15161:15194   */\n      tag_416\n      jump\t// in\n    tag_415:\n        /* \"#utility.yul\":15071:15200   */\n      swap2\n      swap1\n      pop\n      jump\t// out\n        /* \"#utility.yul\":15206:15281   */\n    tag_414:\n        /* \"#utility.yul\":15239:15245   */\n      0x00\n        /* \"#utility.yul\":15272:15274   */\n      0x40\n        /* \"#utility.yul\":15266:15275   */\n      mload\n        /* \"#utility.yul\":15256:15275   */\n      swap1\n      pop\n        /* \"#utility.yul\":15206:15281   */\n      swap1\n      jump\t// out\n        /* \"#utility.yul\":15287:15595   */\n    tag_233:\n        /* \"#utility.yul\":15349:15353   */\n      0x00\n        /* \"#utility.yul\":15439:15457   */\n      0xffffffffffffffff\n        /* \"#utility.yul\":15431:15437   */\n      dup3\n        /* \"#utility.yul\":15428:15458   */\n      gt\n        /* \"#utility.yul\":15425:15481   */\n      iszero\n      tag_419\n      jumpi\n        /* \"#utility.yul\":15461:15479   */\n      tag_420\n      tag_421\n      jump\t// in\n    tag_420:\n        /* \"#utility.yul\":15425:15481   */\n    tag_419:\n        /* \"#utility.yul\":15499:15528   */\n      tag_422\n        /* \"#utility.yul\":15521:15527   */\n      dup3\n        /* \"#utility.yul\":15499:15528   */\n      tag_334\n      jump\t// in\n    tag_422:\n        /* \"#utility.yul\":15491:15528   */\n      swap1\n      pop\n        /* \"#utility.yul\":15583:15587   */\n      0x20\n        /* \"#utility.yul\":15577:15581   */\n      dup2\n        /* \"#utility.yul\":15573:15588   */\n      add\n        /* \"#utility.yul\":15565:15588   */\n      swap1\n      pop\n        /* \"#utility.yul\":15287:15595   */\n      swap2\n      swap1\n      pop\n      jump\t// out\n        /* \"#utility.yul\":15601:15758   */\n    tag_314:\n        /* \"#utility.yul\":15693:15697   */\n      0x00\n        /* \"#utility.yul\":15716:15719   */\n      dup2\n        /* \"#utility.yul\":15708:15719   */\n      swap1\n      pop\n        /* \"#utility.yul\":15746:15750   */\n      0x20\n        /* \"#utility.yul\":15741:15744   */\n      dup3\n        /* \"#utility.yul\":15737:15751   */\n      add\n        /* \"#utility.yul\":15729:15751   */\n      swap1\n      pop\n        /* \"#utility.yul\":15601:15758   */\n      swap2\n      swap1\n      pop\n      jump\t// out\n        /* \"#utility.yul\":15764:15905   */\n    tag_350:\n        /* \"#utility.yul\":15813:15817   */\n      0x00\n        /* \"#utility.yul\":15836:15839   */\n      dup2\n        /* \"#utility.yul\":15828:15839   */\n      swap1\n      pop\n        /* \"#utility.yul\":15859:15862   */\n      dup2\n        /* \"#utility.yul\":15856:15857   */\n      0x00\n        /* \"#utility.yul\":15849:15863   */\n      mstore\n        /* \"#utility.yul\":15893:15897   */\n      0x20\n        /* \"#utility.yul\":15890:15891   */\n      0x00\n        /* \"#utility.yul\":15880:15898   */\n      keccak256\n        /* \"#utility.yul\":15872:15898   */\n      swap1\n      pop\n        /* \"#utility.yul\":15764:15905   */\n      swap2\n      swap1\n      pop\n      jump\t// out\n        /* \"#utility.yul\":15911:16050   */\n    tag_310:\n        /* \"#utility.yul\":16003:16009   */\n      0x00\n        /* \"#utility.yul\":16037:16042   */\n      dup2\n        /* \"#utility.yul\":16031:16043   */\n      mload\n        /* \"#utility.yul\":16021:16043   */\n      swap1\n      pop\n        /* \"#utility.yul\":15911:16050   */\n      swap2\n      swap1\n      pop\n      jump\t// out\n        /* \"#utility.yul\":16056:16155   */\n    tag_328:\n        /* \"#utility.yul\":16108:16114   */\n      0x00\n        /* \"#utility.yul\":16142:16147   */\n      dup2\n        /* \"#utility.yul\":16136:16148   */\n      mload\n        /* \"#utility.yul\":16126:16148   */\n      swap1\n      pop\n        /* \"#utility.yul\":16056:16155   */\n      swap2\n      swap1\n      pop\n      jump\t// out\n        /* \"#utility.yul\":16161:16299   */\n    tag_320:\n        /* \"#utility.yul\":16256:16260   */\n      0x00\n        /* \"#utility.yul\":16288:16292   */\n      0x20\n        /* \"#utility.yul\":16283:16286   */\n      dup3\n        /* \"#utility.yul\":16279:16293   */\n      add\n        /* \"#utility.yul\":16271:16293   */\n      swap1\n      pop\n        /* \"#utility.yul\":16161:16299   */\n      swap2\n      swap1\n      pop\n      jump\t// out\n        /* \"#utility.yul\":16305:16514   */\n    tag_312:\n        /* \"#utility.yul\":16429:16440   */\n      0x00\n        /* \"#utility.yul\":16463:16469   */\n      dup3\n        /* \"#utility.yul\":16458:16461   */\n      dup3\n        /* \"#utility.yul\":16451:16470   */\n      mstore\n        /* \"#utility.yul\":16503:16507   */\n      0x20\n        /* \"#utility.yul\":16498:16501   */\n      dup3\n        /* \"#utility.yul\":16494:16508   */\n      add\n        /* \"#utility.yul\":16479:16508   */\n      swap1\n      pop\n        /* \"#utility.yul\":16305:16514   */\n      swap3\n      swap2\n      pop\n      pop\n      jump\t// out\n        /* \"#utility.yul\":16520:16679   */\n    tag_330:\n        /* \"#utility.yul\":16594:16605   */\n      0x00\n        /* \"#utility.yul\":16628:16634   */\n      dup3\n        /* \"#utility.yul\":16623:16626   */\n      dup3\n        /* \"#utility.yul\":16616:16635   */\n      mstore\n        /* \"#utility.yul\":16668:16672   */\n      0x20\n        /* \"#utility.yul\":16663:16666   */\n      dup3\n        /* \"#utility.yul\":16659:16673   */\n      add\n        /* \"#utility.yul\":16644:16673   */\n      swap1\n      pop\n        /* \"#utility.yul\":16520:16679   */\n      swap3\n      swap2\n      pop\n      pop\n      jump\t// out\n        /* \"#utility.yul\":16685:16854   */\n    tag_339:\n        /* \"#utility.yul\":16769:16780   */\n      0x00\n        /* \"#utility.yul\":16803:16809   */\n      dup3\n        /* \"#utility.yul\":16798:16801   */\n      dup3\n        /* \"#utility.yul\":16791:16810   */\n      mstore\n        /* \"#utility.yul\":16843:16847   */\n      0x20\n        /* \"#utility.yul\":16838:16841   */\n      dup3\n        /* \"#utility.yul\":16834:16848   */\n      add\n        /* \"#utility.yul\":16819:16848   */\n      swap1\n      pop\n        /* \"#utility.yul\":16685:16854   */\n      swap3\n      swap2\n      pop\n      pop\n      jump\t// out\n        /* \"#utility.yul\":16860:17165   */\n    tag_103:\n        /* \"#utility.yul\":16900:16903   */\n      0x00\n        /* \"#utility.yul\":16919:16939   */\n      tag_432\n        /* \"#utility.yul\":16937:16938   */\n      dup3\n        /* \"#utility.yul\":16919:16939   */\n      tag_381\n      jump\t// in\n    tag_432:\n        /* \"#utility.yul\":16914:16939   */\n      swap2\n      pop\n        /* \"#utility.yul\":16953:16973   */\n      tag_433\n        /* \"#utility.yul\":16971:16972   */\n      dup4\n        /* \"#utility.yul\":16953:16973   */\n      tag_381\n      jump\t// in\n    tag_433:\n        /* \"#utility.yul\":16948:16973   */\n      swap3\n      pop\n        /* \"#utility.yul\":17107:17108   */\n      dup3\n        /* \"#utility.yul\":17039:17105   */\n      0xffffffffffffffffffffffffffffffffffffffffffffffffffffffffffffffff\n        /* \"#utility.yul\":17035:17109   */\n      sub\n        /* \"#utility.yul\":17032:17033   */\n      dup3\n        /* \"#utility.yul\":17029:17110   */\n      gt\n        /* \"#utility.yul\":17026:17133   */\n      iszero\n      tag_434\n      jumpi\n        /* \"#utility.yul\":17113:17131   */\n      tag_435\n      tag_436\n      jump\t// in\n    tag_435:\n        /* \"#utility.yul\":17026:17133   */\n    tag_434:\n        /* \"#utility.yul\":17157:17158   */\n      dup3\n        /* \"#utility.yul\":17154:17155   */\n      dup3\n        /* \"#utility.yul\":17150:17159   */\n      add\n        /* \"#utility.yul\":17143:17159   */\n      swap1\n      pop\n        /* \"#utility.yul\":16860:17165   */\n      swap3\n      swap2\n      pop\n      pop\n      jump\t// out\n        /* \"#utility.yul\":17171:17267   */\n    tag_306:\n        /* \"#utility.yul\":17208:17215   */\n      0x00\n        /* \"#utility.yul\":17237:17261   */\n      tag_438\n        /* \"#utility.yul\":17255:17260   */\n      dup3\n        /* \"#utility.yul\":17237:17261   */\n      tag_439\n      jump\t// in\n    tag_438:\n        /* \"#utility.yul\":17226:17261   */\n      swap1\n      pop\n        /* \"#utility.yul\":17171:17267   */\n      swap2\n      swap1\n      pop\n      jump\t// out\n        /* \"#utility.yul\":17273:17363   */\n    tag_324:\n        /* \"#utility.yul\":17307:17314   */\n      0x00\n        /* \"#utility.yul\":17350:17355   */\n      dup2\n        /* \"#utility.yul\":17343:17356   */\n      iszero\n        /* \"#utility.yul\":17336:17357   */\n      iszero\n        /* \"#utility.yul\":17325:17357   */\n      swap1\n      pop\n        /* \"#utility.yul\":17273:17363   */\n      swap2\n      swap1\n      pop\n      jump\t// out\n        /* \"#utility.yul\":17369:17495   */\n    tag_439:\n        /* \"#utility.yul\":17406:17413   */\n      0x00\n        /* \"#utility.yul\":17446:17488   */\n      0xffffffffffffffffffffffffffffffffffffffff\n        /* \"#utility.yul\":17439:17444   */\n      dup3\n        /* \"#utility.yul\":17435:17489   */\n      and\n        /* \"#utility.yul\":17424:17489   */\n      swap1\n      pop\n        /* \"#utility.yul\":17369:17495   */\n      swap2\n      swap1\n      pop\n      jump\t// out\n        /* \"#utility.yul\":17501:17578   */\n    tag_381:\n        /* \"#utility.yul\":17538:17545   */\n      0x00\n        /* \"#utility.yul\":17567:17572   */\n      dup2\n        /* \"#utility.yul\":17556:17572   */\n      swap1\n      pop\n        /* \"#utility.yul\":17501:17578   */\n      swap2\n      swap1\n      pop\n      jump\t// out\n        /* \"#utility.yul\":17584:17738   */\n    tag_239:\n        /* \"#utility.yul\":17668:17674   */\n      dup3\n        /* \"#utility.yul\":17663:17666   */\n      dup2\n        /* \"#utility.yul\":17658:17661   */\n      dup4\n        /* \"#utility.yul\":17645:17675   */\n      calldatacopy\n        /* \"#utility.yul\":17730:17731   */\n      0x00\n        /* \"#utility.yul\":17721:17727   */\n      dup4\n        /* \"#utility.yul\":17716:17719   */\n      dup4\n        /* \"#utility.yul\":17712:17728   */\n      add\n        /* \"#utility.yul\":17705:17732   */\n      mstore\n        /* \"#utility.yul\":17584:17738   */\n      pop\n      pop\n      pop\n      jump\t// out\n        /* \"#utility.yul\":17744:18051   */\n    tag_332:\n        /* \"#utility.yul\":17812:17813   */\n      0x00\n        /* \"#utility.yul\":17822:17935   */\n    tag_445:\n        /* \"#utility.yul\":17836:17842   */\n      dup4\n        /* \"#utility.yul\":17833:17834   */\n      dup2\n        /* \"#utility.yul\":17830:17843   */\n      lt\n        /* \"#utility.yul\":17822:17935   */\n      iszero\n      tag_447\n      jumpi\n        /* \"#utility.yul\":17921:17922   */\n      dup1\n        /* \"#utility.yul\":17916:17919   */\n      dup3\n        /* \"#utility.yul\":17912:17923   */\n      add\n        /* \"#utility.yul\":17906:17924   */\n      mload\n        /* \"#utility.yul\":17902:17903   */\n      dup2\n        /* \"#utility.yul\":17897:17900   */\n      dup5\n        /* \"#utility.yul\":17893:17904   */\n      add\n        /* \"#utility.yul\":17886:17925   */\n      mstore\n        /* \"#utility.yul\":17858:17860   */\n      0x20\n        /* \"#utility.yul\":17855:17856   */\n      dup2\n        /* \"#utility.yul\":17851:17861   */\n      add\n        /* \"#utility.yul\":17846:17861   */\n      swap1\n      pop\n        /* \"#utility.yul\":17822:17935   */\n      jump(tag_445)\n    tag_447:\n        /* \"#utility.yul\":17953:17959   */\n      dup4\n        /* \"#utility.yul\":17950:17951   */\n      dup2\n        /* \"#utility.yul\":17947:17960   */\n      gt\n        /* \"#utility.yul\":17944:18045   */\n      iszero\n      tag_448\n      jumpi\n        /* \"#utility.yul\":18033:18034   */\n      0x00\n        /* \"#utility.yul\":18024:18030   */\n      dup5\n        /* \"#utility.yul\":18019:18022   */\n      dup5\n        /* \"#utility.yul\":18015:18031   */\n      add\n        /* \"#utility.yul\":18008:18035   */\n      mstore\n        /* \"#utility.yul\":17944:18045   */\n    tag_448:\n        /* \"#utility.yul\":17793:18051   */\n      pop\n        /* \"#utility.yul\":17744:18051   */\n      pop\n      pop\n      pop\n      jump\t// out\n        /* \"#utility.yul\":18057:18377   */\n    tag_122:\n        /* \"#utility.yul\":18101:18107   */\n      0x00\n        /* \"#utility.yul\":18138:18139   */\n      0x02\n        /* \"#utility.yul\":18132:18136   */\n      dup3\n        /* \"#utility.yul\":18128:18140   */\n      div\n        /* \"#utility.yul\":18118:18140   */\n      swap1\n      pop\n        /* \"#utility.yul\":18185:18186   */\n      0x01\n        /* \"#utility.yul\":18179:18183   */\n      dup3\n        /* \"#utility.yul\":18175:18187   */\n      and\n        /* \"#utility.yul\":18206:18224   */\n      dup1\n        /* \"#utility.yul\":18196:18277   */\n      tag_450\n      jumpi\n        /* \"#utility.yul\":18262:18266   */\n      0x7f\n        /* \"#utility.yul\":18254:18260   */\n      dup3\n        /* \"#utility.yul\":18250:18267   */\n      and\n        /* \"#utility.yul\":18240:18267   */\n      swap2\n      pop\n        /* \"#utility.yul\":18196:18277   */\n    tag_450:\n        /* \"#utility.yul\":18324:18326   */\n      0x20\n        /* \"#utility.yul\":18316:18322   */\n      dup3\n        /* \"#utility.yul\":18313:18327   */\n      lt\n        /* \"#utility.yul\":18293:18311   */\n      dup2\n        /* \"#utility.yul\":18290:18328   */\n      eq\n        /* \"#utility.yul\":18287:18371   */\n      iszero\n      tag_451\n      jumpi\n        /* \"#utility.yul\":18343:18361   */\n      tag_452\n      tag_453\n      jump\t// in\n    tag_452:\n        /* \"#utility.yul\":18287:18371   */\n    tag_451:\n        /* \"#utility.yul\":18108:18377   */\n      pop\n        /* \"#utility.yul\":18057:18377   */\n      swap2\n      swap1\n      pop\n      jump\t// out\n        /* \"#utility.yul\":18383:18664   */\n    tag_416:\n        /* \"#utility.yul\":18466:18493   */\n      tag_455\n        /* \"#utility.yul\":18488:18492   */\n      dup3\n        /* \"#utility.yul\":18466:18493   */\n      tag_334\n      jump\t// in\n    tag_455:\n        /* \"#utility.yul\":18458:18464   */\n      dup2\n        /* \"#utility.yul\":18454:18494   */\n      add\n        /* \"#utility.yul\":18596:18602   */\n      dup2\n        /* \"#utility.yul\":18584:18594   */\n      dup2\n        /* \"#utility.yul\":18581:18603   */\n      lt\n        /* \"#utility.yul\":18560:18578   */\n      0xffffffffffffffff\n        /* \"#utility.yul\":18548:18558   */\n      dup3\n        /* \"#utility.yul\":18545:18579   */\n      gt\n        /* \"#utility.yul\":18542:18604   */\n      or\n        /* \"#utility.yul\":18539:18627   */\n      iszero\n      tag_456\n      jumpi\n        /* \"#utility.yul\":18607:18625   */\n      tag_457\n      tag_421\n      jump\t// in\n    tag_457:\n        /* \"#utility.yul\":18539:18627   */\n    tag_456:\n        /* \"#utility.yul\":18647:18657   */\n      dup1\n        /* \"#utility.yul\":18643:18645   */\n      0x40\n        /* \"#utility.yul\":18636:18658   */\n      mstore\n        /* \"#utility.yul\":18426:18664   */\n      pop\n        /* \"#utility.yul\":18383:18664   */\n      pop\n      pop\n      jump\t// out\n        /* \"#utility.yul\":18670:18903   */\n    tag_105:\n        /* \"#utility.yul\":18709:18712   */\n      0x00\n        /* \"#utility.yul\":18732:18756   */\n      tag_459\n        /* \"#utility.yul\":18750:18755   */\n      dup3\n        /* \"#utility.yul\":18732:18756   */\n      tag_381\n      jump\t// in\n    tag_459:\n        /* \"#utility.yul\":18723:18756   */\n      swap2\n      pop\n        /* \"#utility.yul\":18778:18844   */\n      0xffffffffffffffffffffffffffffffffffffffffffffffffffffffffffffffff\n        /* \"#utility.yul\":18771:18776   */\n      dup3\n        /* \"#utility.yul\":18768:18845   */\n      eq\n        /* \"#utility.yul\":18765:18868   */\n      iszero\n      tag_460\n      jumpi\n        /* \"#utility.yul\":18848:18866   */\n      tag_461\n      tag_436\n      jump\t// in\n    tag_461:\n        /* \"#utility.yul\":18765:18868   */\n    tag_460:\n        /* \"#utility.yul\":18895:18896   */\n      0x01\n        /* \"#utility.yul\":18888:18893   */\n      dup3\n        /* \"#utility.yul\":18884:18897   */\n      add\n        /* \"#utility.yul\":18877:18897   */\n      swap1\n      pop\n        /* \"#utility.yul\":18670:18903   */\n      swap2\n      swap1\n      pop\n      jump\t// out\n        /* \"#utility.yul\":18909:19089   */\n    tag_436:\n        /* \"#utility.yul\":18957:19034   */\n      0x4e487b7100000000000000000000000000000000000000000000000000000000\n        /* \"#utility.yul\":18954:18955   */\n      0x00\n        /* \"#utility.yul\":18947:19035   */\n      mstore\n        /* \"#utility.yul\":19054:19058   */\n      0x11\n        /* \"#utility.yul\":19051:19052   */\n      0x04\n        /* \"#utility.yul\":19044:19059   */\n      mstore\n        /* \"#utility.yul\":19078:19082   */\n      0x24\n        /* \"#utility.yul\":19075:19076   */\n      0x00\n        /* \"#utility.yul\":19068:19083   */\n      revert\n        /* \"#utility.yul\":19095:19275   */\n    tag_453:\n        /* \"#utility.yul\":19143:19220   */\n      0x4e487b7100000000000000000000000000000000000000000000000000000000\n        /* \"#utility.yul\":19140:19141   */\n      0x00\n        /* \"#utility.yul\":19133:19221   */\n      mstore\n        /* \"#utility.yul\":19240:19244   */\n      0x22\n        /* \"#utility.yul\":19237:19238   */\n      0x04\n        /* \"#utility.yul\":19230:19245   */\n      mstore\n        /* \"#utility.yul\":19264:19268   */\n      0x24\n        /* \"#utility.yul\":19261:19262   */\n      0x00\n        /* \"#utility.yul\":19254:19269   */\n      revert\n        /* \"#utility.yul\":19281:19461   */\n    tag_100:\n        /* \"#utility.yul\":19329:19406   */\n      0x4e487b7100000000000000000000000000000000000000000000000000000000\n        /* \"#utility.yul\":19326:19327   */\n      0x00\n        /* \"#utility.yul\":19319:19407   */\n      mstore\n        /* \"#utility.yul\":19426:19430   */\n      0x32\n        /* \"#utility.yul\":19423:19424   */\n      0x04\n        /* \"#utility.yul\":19416:19431   */\n      mstore\n        /* \"#utility.yul\":19450:19454   */\n      0x24\n        /* \"#utility.yul\":19447:19448   */\n      0x00\n        /* \"#utility.yul\":19440:19455   */\n      revert\n        /* \"#utility.yul\":19467:19647   */\n    tag_421:\n        /* \"#utility.yul\":19515:19592   */\n      0x4e487b7100000000000000000000000000000000000000000000000000000000\n        /* \"#utility.yul\":19512:19513   */\n      0x00\n        /* \"#utility.yul\":19505:19593   */\n      mstore\n        /* \"#utility.yul\":19612:19616   */\n      0x41\n        /* \"#utility.yul\":19609:19610   */\n      0x04\n        /* \"#utility.yul\":19602:19617   */\n      mstore\n        /* \"#utility.yul\":19636:19640   */\n      0x24\n        /* \"#utility.yul\":19633:19634   */\n      0x00\n        /* \"#utility.yul\":19626:19641   */\n      revert\n        /* \"#utility.yul\":19653:19770   */\n    tag_248:\n        /* \"#utility.yul\":19762:19763   */\n      0x00\n        /* \"#utility.yul\":19759:19760   */\n      dup1\n        /* \"#utility.yul\":19752:19764   */\n      revert\n        /* \"#utility.yul\":19776:19893   */\n    tag_254:\n        /* \"#utility.yul\":19885:19886   */\n      0x00\n        /* \"#utility.yul\":19882:19883   */\n      dup1\n        /* \"#utility.yul\":19875:19887   */\n      revert\n        /* \"#utility.yul\":19899:20016   */\n    tag_258:\n        /* \"#utility.yul\":20008:20009   */\n      0x00\n        /* \"#utility.yul\":20005:20006   */\n      dup1\n        /* \"#utility.yul\":19998:20010   */\n      revert\n        /* \"#utility.yul\":20022:20139   */\n    tag_237:\n        /* \"#utility.yul\":20131:20132   */\n      0x00\n        /* \"#utility.yul\":20128:20129   */\n      dup1\n        /* \"#utility.yul\":20121:20133   */\n      revert\n        /* \"#utility.yul\":20145:20262   */\n    tag_278:\n        /* \"#utility.yul\":20254:20255   */\n      0x00\n        /* \"#utility.yul\":20251:20252   */\n      dup1\n        /* \"#utility.yul\":20244:20256   */\n      revert\n        /* \"#utility.yul\":20268:20385   */\n    tag_271:\n        /* \"#utility.yul\":20377:20378   */\n      0x00\n        /* \"#utility.yul\":20374:20375   */\n      dup1\n        /* \"#utility.yul\":20367:20379   */\n      revert\n        /* \"#utility.yul\":20391:20493   */\n    tag_334:\n        /* \"#utility.yul\":20432:20438   */\n      0x00\n        /* \"#utility.yul\":20483:20485   */\n      0x1f\n        /* \"#utility.yul\":20479:20486   */\n      not\n        /* \"#utility.yul\":20474:20476   */\n      0x1f\n        /* \"#utility.yul\":20467:20472   */\n      dup4\n        /* \"#utility.yul\":20463:20477   */\n      add\n        /* \"#utility.yul\":20459:20487   */\n      and\n        /* \"#utility.yul\":20449:20487   */\n      swap1\n      pop\n        /* \"#utility.yul\":20391:20493   */\n      swap2\n      swap1\n      pop\n      jump\t// out\n        /* \"#utility.yul\":20499:20733   */\n    tag_358:\n        /* \"#utility.yul\":20639:20673   */\n      0x4f6e6c792074686520636f6e7472616374206f776e65722063616e2067697665\n        /* \"#utility.yul\":20635:20636   */\n      0x00\n        /* \"#utility.yul\":20627:20633   */\n      dup3\n        /* \"#utility.yul\":20623:20637   */\n      add\n        /* \"#utility.yul\":20616:20674   */\n      mstore\n        /* \"#utility.yul\":20708:20725   */\n      0x20726967687420746f20766f74652e0000000000000000000000000000000000\n        /* \"#utility.yul\":20703:20705   */\n      0x20\n        /* \"#utility.yul\":20695:20701   */\n      dup3\n        /* \"#utility.yul\":20691:20706   */\n      add\n        /* \"#utility.yul\":20684:20726   */\n      mstore\n        /* \"#utility.yul\":20499:20733   */\n      pop\n      jump\t// out\n        /* \"#utility.yul\":20739:20909   */\n    tag_363:\n        /* \"#utility.yul\":20879:20901   */\n      0x566f74657220616c726561647920766f7465642e000000000000000000000000\n        /* \"#utility.yul\":20875:20876   */\n      0x00\n        /* \"#utility.yul\":20867:20873   */\n      dup3\n        /* \"#utility.yul\":20863:20877   */\n      add\n        /* \"#utility.yul\":20856:20902   */\n      mstore\n        /* \"#utility.yul\":20739:20909   */\n      pop\n      jump\t// out\n        /* \"#utility.yul\":20915:21145   */\n    tag_368:\n        /* \"#utility.yul\":21055:21089   */\n      0x4f6e6c792074686520636f6e7472616374206f776e65722063616e2061646420\n        /* \"#utility.yul\":21051:21052   */\n      0x00\n        /* \"#utility.yul\":21043:21049   */\n      dup3\n        /* \"#utility.yul\":21039:21053   */\n      add\n        /* \"#utility.yul\":21032:21090   */\n      mstore\n        /* \"#utility.yul\":21124:21137   */\n      0x63616e646964617465732e000000000000000000000000000000000000000000\n        /* \"#utility.yul\":21119:21121   */\n      0x20\n        /* \"#utility.yul\":21111:21117   */\n      dup3\n        /* \"#utility.yul\":21107:21122   */\n      add\n        /* \"#utility.yul\":21100:21138   */\n      mstore\n        /* \"#utility.yul\":20915:21145   */\n      pop\n      jump\t// out\n        /* \"#utility.yul\":21151:21327   */\n    tag_373:\n        /* \"#utility.yul\":21291:21319   */\n      0x596f752068617665206e6f7420726967687420746f20766f7465000000000000\n        /* \"#utility.yul\":21287:21288   */\n      0x00\n        /* \"#utility.yul\":21279:21285   */\n      dup3\n        /* \"#utility.yul\":21275:21289   */\n      add\n        /* \"#utility.yul\":21268:21320   */\n      mstore\n        /* \"#utility.yul\":21151:21327   */\n      pop\n      jump\t// out\n        /* \"#utility.yul\":21333:21455   */\n    tag_243:\n        /* \"#utility.yul\":21406:21430   */\n      tag_478\n        /* \"#utility.yul\":21424:21429   */\n      dup2\n        /* \"#utility.yul\":21406:21430   */\n      tag_306\n      jump\t// in\n    tag_478:\n        /* \"#utility.yul\":21399:21404   */\n      dup2\n        /* \"#utility.yul\":21396:21431   */\n      eq\n        /* \"#utility.yul\":21386:21449   */\n      tag_479\n      jumpi\n        /* \"#utility.yul\":21445:21446   */\n      0x00\n        /* \"#utility.yul\":21442:21443   */\n      dup1\n        /* \"#utility.yul\":21435:21447   */\n      revert\n        /* \"#utility.yul\":21386:21449   */\n    tag_479:\n        /* \"#utility.yul\":21333:21455   */\n      pop\n      jump\t// out\n        /* \"#utility.yul\":21461:21583   */\n    tag_267:\n        /* \"#utility.yul\":21534:21558   */\n      tag_481\n        /* \"#utility.yul\":21552:21557   */\n      dup2\n        /* \"#utility.yul\":21534:21558   */\n      tag_381\n      jump\t// in\n    tag_481:\n        /* \"#utility.yul\":21527:21532   */\n      dup2\n        /* \"#utility.yul\":21524:21559   */\n      eq\n        /* \"#utility.yul\":21514:21577   */\n      tag_482\n      jumpi\n        /* \"#utility.yul\":21573:21574   */\n      0x00\n        /* \"#utility.yul\":21570:21571   */\n      dup1\n        /* \"#utility.yul\":21563:21575   */\n      revert\n        /* \"#utility.yul\":21514:21577   */\n    tag_482:\n        /* \"#utility.yul\":21461:21583   */\n      pop\n      jump\t// out\n\n    auxdata: 0xa2646970667358221220d01352ecc29f7be697e2de556a8fd6fdd78b7a883160880d5f8011670a07f3b664736f6c63430008070033\n}\n",
				"bytecode": {
					"linkReferences": {},
					"object": "60806040523480156200001157600080fd5b506040516200213338038062002133833981810160405281019062000037919062000436565b336000806101000a81548173ffffffffffffffffffffffffffffffffffffffff021916908373ffffffffffffffffffffffffffffffffffffffff16021790555060005b81518110156200016d5760026040518060600160405280848481518110620000a757620000a66200066d565b5b6020026020010151600001518152602001848481518110620000ce57620000cd6200066d565b5b60200260200101516020015181526020016000815250908060018154018082558091505060019003906000526020600020906003020160009091909190915060008201518160000190805190602001906200012b92919062000175565b5060208201518160010190805190602001906200014a92919062000175565b5060408201518160020155505080806200016490620005c1565b9150506200007a565b505062000719565b828054620001839062000555565b90600052602060002090601f016020900481019282620001a75760008555620001f3565b82601f10620001c257805160ff1916838001178555620001f3565b82800160010185558215620001f3579182015b82811115620001f2578251825591602001919060010190620001d5565b5b50905062000202919062000206565b5090565b5b808211156200022157600081600090555060010162000207565b5090565b60006200023c6200023684620004b0565b62000487565b90508083825260208201905082856020860282011115620002625762000261620006da565b5b60005b85811015620002b757815167ffffffffffffffff8111156200028c576200028b620006cb565b5b8086016200029b898262000372565b8552602085019450602084019350505060018101905062000265565b5050509392505050565b6000620002d8620002d284620004df565b62000487565b905082815260208101848484011115620002f757620002f6620006df565b5b620003048482856200051f565b509392505050565b600082601f830112620003245762000323620006cb565b5b81516200033684826020860162000225565b91505092915050565b600082601f830112620003575762000356620006cb565b5b815162000369848260208601620002c1565b91505092915050565b6000606082840312156200038b576200038a620006d0565b5b62000397606062000487565b9050600082015167ffffffffffffffff811115620003ba57620003b9620006d5565b5b620003c8848285016200033f565b600083015250602082015167ffffffffffffffff811115620003ef57620003ee620006d5565b5b620003fd848285016200033f565b602083015250604062000413848285016200041f565b60408301525092915050565b6000815190506200043081620006ff565b92915050565b6000602082840312156200044f576200044e620006e9565b5b600082015167ffffffffffffffff81111562000470576200046f620006e4565b5b6200047e848285016200030c565b91505092915050565b600062000493620004a6565b9050620004a182826200058b565b919050565b6000604051905090565b600067ffffffffffffffff821115620004ce57620004cd6200069c565b5b602082029050602081019050919050565b600067ffffffffffffffff821115620004fd57620004fc6200069c565b5b6200050882620006ee565b9050602081019050919050565b6000819050919050565b60005b838110156200053f57808201518184015260208101905062000522565b838111156200054f576000848401525b50505050565b600060028204905060018216806200056e57607f821691505b602082108114156200058557620005846200063e565b5b50919050565b6200059682620006ee565b810181811067ffffffffffffffff82111715620005b857620005b76200069c565b5b80604052505050565b6000620005ce8262000515565b91507fffffffffffffffffffffffffffffffffffffffffffffffffffffffffffffffff8214156200060457620006036200060f565b5b600182019050919050565b7f4e487b7100000000000000000000000000000000000000000000000000000000600052601160045260246000fd5b7f4e487b7100000000000000000000000000000000000000000000000000000000600052602260045260246000fd5b7f4e487b7100000000000000000000000000000000000000000000000000000000600052603260045260246000fd5b7f4e487b7100000000000000000000000000000000000000000000000000000000600052604160045260246000fd5b600080fd5b600080fd5b600080fd5b600080fd5b600080fd5b600080fd5b600080fd5b6000601f19601f8301169050919050565b6200070a8162000515565b81146200071657600080fd5b50565b611a0a80620007296000396000f3fe608060405234801561001057600080fd5b50600436106101165760003560e01c8063954115f2116100a2578063da26543011610071578063da265430146102d4578063df703622146102f2578063eacc4e3f14610310578063f927cc2914610340578063fc36e15b1461035e57610116565b8063954115f21461024d5780639e7b8d6114610269578063a3ec138d14610285578063ce606ee0146102b657610116565b806332a2c5d0116100e957806332a2c5d0146101915780633477ee2e146101af5780633ddf3822146101e15780634aba5f34146101ff578063743f76661461021d57610116565b806301c5556a1461011b5780630d15fd771461013957806310508439146101575780632bfda51514610173575b600080fd5b61012361037a565b6040516101309190611553565b60405180910390f35b6101416103d9565b60405161014e9190611553565b60405180910390f35b610171600480360381019061016c9190611041565b6103df565b005b61017b6104b7565b604051610188919061144a565b60405180910390f35b610199610573565b6040516101a691906113c9565b60405180910390f35b6101c960048036038101906101c49190611102565b61057b565b6040516101d89392919061146c565b60405180910390f35b6101e96106c5565b6040516101f69190611406565b60405180910390f35b61020761071c565b60405161021491906113e4565b60405180910390f35b61023760048036038101906102329190610fcb565b6108a9565b6040516102449190611406565b60405180910390f35b610267600480360381019061026291906110b9565b610902565b005b610283600480360381019061027e9190610fcb565b6109be565b005b61029f600480360381019061029a9190610fcb565b610aad565b6040516102ad929190611421565b60405180910390f35b6102be610aeb565b6040516102cb91906113c9565b60405180910390f35b6102dc610b0f565b6040516102e99190611406565b60405180910390f35b6102fa610b1f565b6040516103079190611406565b60405180910390f35b61032a60048036038101906103259190610fcb565b610b2f565b6040516103379190611406565b60405180910390f35b610348610b88565b6040516103559190611553565b60405180910390f35b61037860048036038101906103739190610ff8565b610c0c565b005b600080600090505b6002805490508110156103d557600281815481106103a3576103a2611829565b5b906000526020600020906003020160020154826103c0919061163f565b915080806103cd90611782565b915050610382565b5090565b60035481565b6103e76106c5565b610426576040517f08c379a000000000000000000000000000000000000000000000000000000000815260040161041d90611513565b60405180910390fd5b60026040518060600160405280848152602001838152602001600081525090806001815401808255809150506001900390600052602060002090600302016000909190919091506000820151816000019080519060200190610489929190610df2565b5060208201518160010190805190602001906104a6929190610df2565b506040820151816002015550505050565b606060026104c3610b88565b815481106104d4576104d3611829565b5b906000526020600020906003020160000180546104f09061171f565b80601f016020809104026020016040519081016040528092919081815260200182805461051c9061171f565b80156105695780601f1061053e57610100808354040283529160200191610569565b820191906000526020600020905b81548152906001019060200180831161054c57829003601f168201915b5050505050905090565b600030905090565b6002818154811061058b57600080fd5b90600052602060002090600302016000915090508060000180546105ae9061171f565b80601f01602080910402602001604051908101604052809291908181526020018280546105da9061171f565b80156106275780601f106105fc57610100808354040283529160200191610627565b820191906000526020600020905b81548152906001019060200180831161060a57829003601f168201915b50505050509080600101805461063c9061171f565b80601f01602080910402602001604051908101604052809291908181526020018280546106689061171f565b80156106b55780601f1061068a576101008083540402835291602001916106b5565b820191906000526020600020905b81548152906001019060200180831161069857829003601f168201915b5050505050908060020154905083565b60008060009054906101000a900473ffffffffffffffffffffffffffffffffffffffff1673ffffffffffffffffffffffffffffffffffffffff163373ffffffffffffffffffffffffffffffffffffffff1614905090565b60606002805480602002602001604051908101604052809291908181526020016000905b828210156108a057838290600052602060002090600302016040518060600160405290816000820180546107739061171f565b80601f016020809104026020016040519081016040528092919081815260200182805461079f9061171f565b80156107ec5780601f106107c1576101008083540402835291602001916107ec565b820191906000526020600020905b8154815290600101906020018083116107cf57829003601f168201915b505050505081526020016001820180546108059061171f565b80601f01602080910402602001604051908101604052809291908181526020018280546108319061171f565b801561087e5780601f106108535761010080835404028352916020019161087e565b820191906000526020600020905b81548152906001019060200180831161086157829003601f168201915b5050505050815260200160028201548152505081526020019060010190610740565b50505050905090565b6000600160008373ffffffffffffffffffffffffffffffffffffffff1673ffffffffffffffffffffffffffffffffffffffff16815260200190815260200160002060000160019054906101000a900460ff169050919050565b61090a6106c5565b610949576040517f08c379a000000000000000000000000000000000000000000000000000000000815260040161094090611513565b60405180910390fd5b60028190806001815401808255809150506001900390600052602060002090600302016000909190919091506000820151816000019080519060200190610991929190610df2565b5060208201518160010190805190602001906109ae929190610df2565b5060408201518160020155505050565b6109c66106c5565b610a05576040517f08c379a00000000000000000000000000000000000000000000000000000000081526004016109fc906114d3565b60405180910390fd5b80610a0f816108a9565b15610a4f576040517f08c379a0000000000000000000000000000000000000000000000000000000008152600401610a46906114f3565b60405180910390fd5b60018060008473ffffffffffffffffffffffffffffffffffffffff1673ffffffffffffffffffffffffffffffffffffffff16815260200190815260200160002060000160006101000a81548160ff0219169083151502179055505050565b60016020528060005260406000206000915090508060000160009054906101000a900460ff16908060000160019054906101000a900460ff16905082565b60008054906101000a900473ffffffffffffffffffffffffffffffffffffffff1681565b6000610b1a336108a9565b905090565b6000610b2a33610b2f565b905090565b6000600160008373ffffffffffffffffffffffffffffffffffffffff1673ffffffffffffffffffffffffffffffffffffffff16815260200190815260200160002060000160009054906101000a900460ff169050919050565b60008060005b600280549050811015610c07578160028281548110610bb057610baf611829565b5b9060005260206000209060030201600201541115610bf45760028181548110610bdc57610bdb611829565b5b90600052602060002090600302016002015491508092505b8080610bff90611782565b915050610b8e565b505090565b33610c16816108a9565b15610c56576040517f08c379a0000000000000000000000000000000000000000000000000000000008152600401610c4d906114f3565b60405180910390fd5b610c5e610b1f565b610c9d576040517f08c379a0000000000000000000000000000000000000000000000000000000008152600401610c9490611533565b60405180910390fd5b6000600160003373ffffffffffffffffffffffffffffffffffffffff1673ffffffffffffffffffffffffffffffffffffffff168152602001908152602001600020905060005b600280549050811015610dec5783604051602001610d01919061144a565b6040516020818303038152906040528051906020012060028281548110610d2b57610d2a611829565b5b9060005260206000209060030201600001604051602001610d4c91906114b1565b604051602081830303815290604052805190602001201415610da45760028181548110610d7c57610d7b611829565b5b90600052602060002090600302016002016000815480929190610d9e90611782565b91905055505b60018260000160016101000a81548160ff02191690831515021790555060036000815480929190610dd490611782565b91905055508080610de490611782565b915050610ce3565b50505050565b828054610dfe9061171f565b90600052602060002090601f016020900481019282610e205760008555610e67565b82601f10610e3957805160ff1916838001178555610e67565b82800160010185558215610e67579182015b82811115610e66578251825591602001919060010190610e4b565b5b509050610e749190610e78565b5090565b5b80821115610e91576000816000905550600101610e79565b5090565b6000610ea8610ea384611593565b61156e565b905082815260208101848484011115610ec457610ec3611896565b5b610ecf8482856116dd565b509392505050565b600081359050610ee6816119a6565b92915050565b600082601f830112610f0157610f00611887565b5b8135610f11848260208601610e95565b91505092915050565b600060608284031215610f3057610f2f61188c565b5b610f3a606061156e565b9050600082013567ffffffffffffffff811115610f5a57610f59611891565b5b610f6684828501610eec565b600083015250602082013567ffffffffffffffff811115610f8a57610f89611891565b5b610f9684828501610eec565b6020830152506040610faa84828501610fb6565b60408301525092915050565b600081359050610fc5816119bd565b92915050565b600060208284031215610fe157610fe06118a0565b5b6000610fef84828501610ed7565b91505092915050565b60006020828403121561100e5761100d6118a0565b5b600082013567ffffffffffffffff81111561102c5761102b61189b565b5b61103884828501610eec565b91505092915050565b60008060408385031215611058576110576118a0565b5b600083013567ffffffffffffffff8111156110765761107561189b565b5b61108285828601610eec565b925050602083013567ffffffffffffffff8111156110a3576110a261189b565b5b6110af85828601610eec565b9150509250929050565b6000602082840312156110cf576110ce6118a0565b5b600082013567ffffffffffffffff8111156110ed576110ec61189b565b5b6110f984828501610f1a565b91505092915050565b600060208284031215611118576111176118a0565b5b600061112684828501610fb6565b91505092915050565b600061113b8383611354565b905092915050565b61114c81611695565b82525050565b600061115d826115e9565b611167818561160c565b935083602082028501611179856115c4565b8060005b858110156111b55784840389528151611196858261112f565b94506111a1836115ff565b925060208a0199505060018101905061117d565b50829750879550505050505092915050565b6111d0816116a7565b82525050565b60006111e1826115f4565b6111eb818561161d565b93506111fb8185602086016116ec565b611204816118a5565b840191505092915050565b600061121a826115f4565b611224818561162e565b93506112348185602086016116ec565b61123d816118a5565b840191505092915050565b600081546112558161171f565b61125f818661162e565b9450600182166000811461127a576001811461128c576112bf565b60ff19831686526020860193506112bf565b611295856115d4565b60005b838110156112b757815481890152600182019150602081019050611298565b808801955050505b50505092915050565b60006112d5602f8361162e565b91506112e0826118b6565b604082019050919050565b60006112f860148361162e565b915061130382611905565b602082019050919050565b600061131b602b8361162e565b91506113268261192e565b604082019050919050565b600061133e601a8361162e565b91506113498261197d565b602082019050919050565b6000606083016000830151848203600086015261137182826111d6565b9150506020830151848203602086015261138b82826111d6565b91505060408301516113a060408601826113ab565b508091505092915050565b6113b4816116d3565b82525050565b6113c3816116d3565b82525050565b60006020820190506113de6000830184611143565b92915050565b600060208201905081810360008301526113fe8184611152565b905092915050565b600060208201905061141b60008301846111c7565b92915050565b600060408201905061143660008301856111c7565b61144360208301846111c7565b9392505050565b60006020820190508181036000830152611464818461120f565b905092915050565b60006060820190508181036000830152611486818661120f565b9050818103602083015261149a818561120f565b90506114a960408301846113ba565b949350505050565b600060208201905081810360008301526114cb8184611248565b905092915050565b600060208201905081810360008301526114ec816112c8565b9050919050565b6000602082019050818103600083015261150c816112eb565b9050919050565b6000602082019050818103600083015261152c8161130e565b9050919050565b6000602082019050818103600083015261154c81611331565b9050919050565b600060208201905061156860008301846113ba565b92915050565b6000611578611589565b90506115848282611751565b919050565b6000604051905090565b600067ffffffffffffffff8211156115ae576115ad611858565b5b6115b7826118a5565b9050602081019050919050565b6000819050602082019050919050565b60008190508160005260206000209050919050565b600081519050919050565b600081519050919050565b6000602082019050919050565b600082825260208201905092915050565b600082825260208201905092915050565b600082825260208201905092915050565b600061164a826116d3565b9150611655836116d3565b9250827fffffffffffffffffffffffffffffffffffffffffffffffffffffffffffffffff0382111561168a576116896117cb565b5b828201905092915050565b60006116a0826116b3565b9050919050565b60008115159050919050565b600073ffffffffffffffffffffffffffffffffffffffff82169050919050565b6000819050919050565b82818337600083830152505050565b60005b8381101561170a5780820151818401526020810190506116ef565b83811115611719576000848401525b50505050565b6000600282049050600182168061173757607f821691505b6020821081141561174b5761174a6117fa565b5b50919050565b61175a826118a5565b810181811067ffffffffffffffff8211171561177957611778611858565b5b80604052505050565b600061178d826116d3565b91507fffffffffffffffffffffffffffffffffffffffffffffffffffffffffffffffff8214156117c0576117bf6117cb565b5b600182019050919050565b7f4e487b7100000000000000000000000000000000000000000000000000000000600052601160045260246000fd5b7f4e487b7100000000000000000000000000000000000000000000000000000000600052602260045260246000fd5b7f4e487b7100000000000000000000000000000000000000000000000000000000600052603260045260246000fd5b7f4e487b7100000000000000000000000000000000000000000000000000000000600052604160045260246000fd5b600080fd5b600080fd5b600080fd5b600080fd5b600080fd5b600080fd5b6000601f19601f8301169050919050565b7f4f6e6c792074686520636f6e7472616374206f776e65722063616e206769766560008201527f20726967687420746f20766f74652e0000000000000000000000000000000000602082015250565b7f566f74657220616c726561647920766f7465642e000000000000000000000000600082015250565b7f4f6e6c792074686520636f6e7472616374206f776e65722063616e206164642060008201527f63616e646964617465732e000000000000000000000000000000000000000000602082015250565b7f596f752068617665206e6f7420726967687420746f20766f7465000000000000600082015250565b6119af81611695565b81146119ba57600080fd5b50565b6119c6816116d3565b81146119d157600080fd5b5056fea2646970667358221220d01352ecc29f7be697e2de556a8fd6fdd78b7a883160880d5f8011670a07f3b664736f6c63430008070033",
					"opcodes": "PUSH1 0x80 PUSH1 0x40 MSTORE CALLVALUE DUP1 ISZERO PUSH3 0x11 JUMPI PUSH1 0x0 DUP1 REVERT JUMPDEST POP PUSH1 0x40 MLOAD PUSH3 0x2133 CODESIZE SUB DUP1 PUSH3 0x2133 DUP4 CODECOPY DUP2 DUP2 ADD PUSH1 0x40 MSTORE DUP2 ADD SWAP1 PUSH3 0x37 SWAP2 SWAP1 PUSH3 0x436 JUMP JUMPDEST CALLER PUSH1 0x0 DUP1 PUSH2 0x100 EXP DUP2 SLOAD DUP2 PUSH20 0xFFFFFFFFFFFFFFFFFFFFFFFFFFFFFFFFFFFFFFFF MUL NOT AND SWAP1 DUP4 PUSH20 0xFFFFFFFFFFFFFFFFFFFFFFFFFFFFFFFFFFFFFFFF AND MUL OR SWAP1 SSTORE POP PUSH1 0x0 JUMPDEST DUP2 MLOAD DUP2 LT ISZERO PUSH3 0x16D JUMPI PUSH1 0x2 PUSH1 0x40 MLOAD DUP1 PUSH1 0x60 ADD PUSH1 0x40 MSTORE DUP1 DUP5 DUP5 DUP2 MLOAD DUP2 LT PUSH3 0xA7 JUMPI PUSH3 0xA6 PUSH3 0x66D JUMP JUMPDEST JUMPDEST PUSH1 0x20 MUL PUSH1 0x20 ADD ADD MLOAD PUSH1 0x0 ADD MLOAD DUP2 MSTORE PUSH1 0x20 ADD DUP5 DUP5 DUP2 MLOAD DUP2 LT PUSH3 0xCE JUMPI PUSH3 0xCD PUSH3 0x66D JUMP JUMPDEST JUMPDEST PUSH1 0x20 MUL PUSH1 0x20 ADD ADD MLOAD PUSH1 0x20 ADD MLOAD DUP2 MSTORE PUSH1 0x20 ADD PUSH1 0x0 DUP2 MSTORE POP SWAP1 DUP1 PUSH1 0x1 DUP2 SLOAD ADD DUP1 DUP3 SSTORE DUP1 SWAP2 POP POP PUSH1 0x1 SWAP1 SUB SWAP1 PUSH1 0x0 MSTORE PUSH1 0x20 PUSH1 0x0 KECCAK256 SWAP1 PUSH1 0x3 MUL ADD PUSH1 0x0 SWAP1 SWAP2 SWAP1 SWAP2 SWAP1 SWAP2 POP PUSH1 0x0 DUP3 ADD MLOAD DUP2 PUSH1 0x0 ADD SWAP1 DUP1 MLOAD SWAP1 PUSH1 0x20 ADD SWAP1 PUSH3 0x12B SWAP3 SWAP2 SWAP1 PUSH3 0x175 JUMP JUMPDEST POP PUSH1 0x20 DUP3 ADD MLOAD DUP2 PUSH1 0x1 ADD SWAP1 DUP1 MLOAD SWAP1 PUSH1 0x20 ADD SWAP1 PUSH3 0x14A SWAP3 SWAP2 SWAP1 PUSH3 0x175 JUMP JUMPDEST POP PUSH1 0x40 DUP3 ADD MLOAD DUP2 PUSH1 0x2 ADD SSTORE POP POP DUP1 DUP1 PUSH3 0x164 SWAP1 PUSH3 0x5C1 JUMP JUMPDEST SWAP2 POP POP PUSH3 0x7A JUMP JUMPDEST POP POP PUSH3 0x719 JUMP JUMPDEST DUP3 DUP1 SLOAD PUSH3 0x183 SWAP1 PUSH3 0x555 JUMP JUMPDEST SWAP1 PUSH1 0x0 MSTORE PUSH1 0x20 PUSH1 0x0 KECCAK256 SWAP1 PUSH1 0x1F ADD PUSH1 0x20 SWAP1 DIV DUP2 ADD SWAP3 DUP3 PUSH3 0x1A7 JUMPI PUSH1 0x0 DUP6 SSTORE PUSH3 0x1F3 JUMP JUMPDEST DUP3 PUSH1 0x1F LT PUSH3 0x1C2 JUMPI DUP1 MLOAD PUSH1 0xFF NOT AND DUP4 DUP1 ADD OR DUP6 SSTORE PUSH3 0x1F3 JUMP JUMPDEST DUP3 DUP1 ADD PUSH1 0x1 ADD DUP6 SSTORE DUP3 ISZERO PUSH3 0x1F3 JUMPI SWAP2 DUP3 ADD JUMPDEST DUP3 DUP2 GT ISZERO PUSH3 0x1F2 JUMPI DUP3 MLOAD DUP3 SSTORE SWAP2 PUSH1 0x20 ADD SWAP2 SWAP1 PUSH1 0x1 ADD SWAP1 PUSH3 0x1D5 JUMP JUMPDEST JUMPDEST POP SWAP1 POP PUSH3 0x202 SWAP2 SWAP1 PUSH3 0x206 JUMP JUMPDEST POP SWAP1 JUMP JUMPDEST JUMPDEST DUP1 DUP3 GT ISZERO PUSH3 0x221 JUMPI PUSH1 0x0 DUP2 PUSH1 0x0 SWAP1 SSTORE POP PUSH1 0x1 ADD PUSH3 0x207 JUMP JUMPDEST POP SWAP1 JUMP JUMPDEST PUSH1 0x0 PUSH3 0x23C PUSH3 0x236 DUP5 PUSH3 0x4B0 JUMP JUMPDEST PUSH3 0x487 JUMP JUMPDEST SWAP1 POP DUP1 DUP4 DUP3 MSTORE PUSH1 0x20 DUP3 ADD SWAP1 POP DUP3 DUP6 PUSH1 0x20 DUP7 MUL DUP3 ADD GT ISZERO PUSH3 0x262 JUMPI PUSH3 0x261 PUSH3 0x6DA JUMP JUMPDEST JUMPDEST PUSH1 0x0 JUMPDEST DUP6 DUP2 LT ISZERO PUSH3 0x2B7 JUMPI DUP2 MLOAD PUSH8 0xFFFFFFFFFFFFFFFF DUP2 GT ISZERO PUSH3 0x28C JUMPI PUSH3 0x28B PUSH3 0x6CB JUMP JUMPDEST JUMPDEST DUP1 DUP7 ADD PUSH3 0x29B DUP10 DUP3 PUSH3 0x372 JUMP JUMPDEST DUP6 MSTORE PUSH1 0x20 DUP6 ADD SWAP5 POP PUSH1 0x20 DUP5 ADD SWAP4 POP POP POP PUSH1 0x1 DUP2 ADD SWAP1 POP PUSH3 0x265 JUMP JUMPDEST POP POP POP SWAP4 SWAP3 POP POP POP JUMP JUMPDEST PUSH1 0x0 PUSH3 0x2D8 PUSH3 0x2D2 DUP5 PUSH3 0x4DF JUMP JUMPDEST PUSH3 0x487 JUMP JUMPDEST SWAP1 POP DUP3 DUP2 MSTORE PUSH1 0x20 DUP2 ADD DUP5 DUP5 DUP5 ADD GT ISZERO PUSH3 0x2F7 JUMPI PUSH3 0x2F6 PUSH3 0x6DF JUMP JUMPDEST JUMPDEST PUSH3 0x304 DUP5 DUP3 DUP6 PUSH3 0x51F JUMP JUMPDEST POP SWAP4 SWAP3 POP POP POP JUMP JUMPDEST PUSH1 0x0 DUP3 PUSH1 0x1F DUP4 ADD SLT PUSH3 0x324 JUMPI PUSH3 0x323 PUSH3 0x6CB JUMP JUMPDEST JUMPDEST DUP2 MLOAD PUSH3 0x336 DUP5 DUP3 PUSH1 0x20 DUP7 ADD PUSH3 0x225 JUMP JUMPDEST SWAP2 POP POP SWAP3 SWAP2 POP POP JUMP JUMPDEST PUSH1 0x0 DUP3 PUSH1 0x1F DUP4 ADD SLT PUSH3 0x357 JUMPI PUSH3 0x356 PUSH3 0x6CB JUMP JUMPDEST JUMPDEST DUP2 MLOAD PUSH3 0x369 DUP5 DUP3 PUSH1 0x20 DUP7 ADD PUSH3 0x2C1 JUMP JUMPDEST SWAP2 POP POP SWAP3 SWAP2 POP POP JUMP JUMPDEST PUSH1 0x0 PUSH1 0x60 DUP3 DUP5 SUB SLT ISZERO PUSH3 0x38B JUMPI PUSH3 0x38A PUSH3 0x6D0 JUMP JUMPDEST JUMPDEST PUSH3 0x397 PUSH1 0x60 PUSH3 0x487 JUMP JUMPDEST SWAP1 POP PUSH1 0x0 DUP3 ADD MLOAD PUSH8 0xFFFFFFFFFFFFFFFF DUP2 GT ISZERO PUSH3 0x3BA JUMPI PUSH3 0x3B9 PUSH3 0x6D5 JUMP JUMPDEST JUMPDEST PUSH3 0x3C8 DUP5 DUP3 DUP6 ADD PUSH3 0x33F JUMP JUMPDEST PUSH1 0x0 DUP4 ADD MSTORE POP PUSH1 0x20 DUP3 ADD MLOAD PUSH8 0xFFFFFFFFFFFFFFFF DUP2 GT ISZERO PUSH3 0x3EF JUMPI PUSH3 0x3EE PUSH3 0x6D5 JUMP JUMPDEST JUMPDEST PUSH3 0x3FD DUP5 DUP3 DUP6 ADD PUSH3 0x33F JUMP JUMPDEST PUSH1 0x20 DUP4 ADD MSTORE POP PUSH1 0x40 PUSH3 0x413 DUP5 DUP3 DUP6 ADD PUSH3 0x41F JUMP JUMPDEST PUSH1 0x40 DUP4 ADD MSTORE POP SWAP3 SWAP2 POP POP JUMP JUMPDEST PUSH1 0x0 DUP2 MLOAD SWAP1 POP PUSH3 0x430 DUP2 PUSH3 0x6FF JUMP JUMPDEST SWAP3 SWAP2 POP POP JUMP JUMPDEST PUSH1 0x0 PUSH1 0x20 DUP3 DUP5 SUB SLT ISZERO PUSH3 0x44F JUMPI PUSH3 0x44E PUSH3 0x6E9 JUMP JUMPDEST JUMPDEST PUSH1 0x0 DUP3 ADD MLOAD PUSH8 0xFFFFFFFFFFFFFFFF DUP2 GT ISZERO PUSH3 0x470 JUMPI PUSH3 0x46F PUSH3 0x6E4 JUMP JUMPDEST JUMPDEST PUSH3 0x47E DUP5 DUP3 DUP6 ADD PUSH3 0x30C JUMP JUMPDEST SWAP2 POP POP SWAP3 SWAP2 POP POP JUMP JUMPDEST PUSH1 0x0 PUSH3 0x493 PUSH3 0x4A6 JUMP JUMPDEST SWAP1 POP PUSH3 0x4A1 DUP3 DUP3 PUSH3 0x58B JUMP JUMPDEST SWAP2 SWAP1 POP JUMP JUMPDEST PUSH1 0x0 PUSH1 0x40 MLOAD SWAP1 POP SWAP1 JUMP JUMPDEST PUSH1 0x0 PUSH8 0xFFFFFFFFFFFFFFFF DUP3 GT ISZERO PUSH3 0x4CE JUMPI PUSH3 0x4CD PUSH3 0x69C JUMP JUMPDEST JUMPDEST PUSH1 0x20 DUP3 MUL SWAP1 POP PUSH1 0x20 DUP2 ADD SWAP1 POP SWAP2 SWAP1 POP JUMP JUMPDEST PUSH1 0x0 PUSH8 0xFFFFFFFFFFFFFFFF DUP3 GT ISZERO PUSH3 0x4FD JUMPI PUSH3 0x4FC PUSH3 0x69C JUMP JUMPDEST JUMPDEST PUSH3 0x508 DUP3 PUSH3 0x6EE JUMP JUMPDEST SWAP1 POP PUSH1 0x20 DUP2 ADD SWAP1 POP SWAP2 SWAP1 POP JUMP JUMPDEST PUSH1 0x0 DUP2 SWAP1 POP SWAP2 SWAP1 POP JUMP JUMPDEST PUSH1 0x0 JUMPDEST DUP4 DUP2 LT ISZERO PUSH3 0x53F JUMPI DUP1 DUP3 ADD MLOAD DUP2 DUP5 ADD MSTORE PUSH1 0x20 DUP2 ADD SWAP1 POP PUSH3 0x522 JUMP JUMPDEST DUP4 DUP2 GT ISZERO PUSH3 0x54F JUMPI PUSH1 0x0 DUP5 DUP5 ADD MSTORE JUMPDEST POP POP POP POP JUMP JUMPDEST PUSH1 0x0 PUSH1 0x2 DUP3 DIV SWAP1 POP PUSH1 0x1 DUP3 AND DUP1 PUSH3 0x56E JUMPI PUSH1 0x7F DUP3 AND SWAP2 POP JUMPDEST PUSH1 0x20 DUP3 LT DUP2 EQ ISZERO PUSH3 0x585 JUMPI PUSH3 0x584 PUSH3 0x63E JUMP JUMPDEST JUMPDEST POP SWAP2 SWAP1 POP JUMP JUMPDEST PUSH3 0x596 DUP3 PUSH3 0x6EE JUMP JUMPDEST DUP2 ADD DUP2 DUP2 LT PUSH8 0xFFFFFFFFFFFFFFFF DUP3 GT OR ISZERO PUSH3 0x5B8 JUMPI PUSH3 0x5B7 PUSH3 0x69C JUMP JUMPDEST JUMPDEST DUP1 PUSH1 0x40 MSTORE POP POP POP JUMP JUMPDEST PUSH1 0x0 PUSH3 0x5CE DUP3 PUSH3 0x515 JUMP JUMPDEST SWAP2 POP PUSH32 0xFFFFFFFFFFFFFFFFFFFFFFFFFFFFFFFFFFFFFFFFFFFFFFFFFFFFFFFFFFFFFFFF DUP3 EQ ISZERO PUSH3 0x604 JUMPI PUSH3 0x603 PUSH3 0x60F JUMP JUMPDEST JUMPDEST PUSH1 0x1 DUP3 ADD SWAP1 POP SWAP2 SWAP1 POP JUMP JUMPDEST PUSH32 0x4E487B7100000000000000000000000000000000000000000000000000000000 PUSH1 0x0 MSTORE PUSH1 0x11 PUSH1 0x4 MSTORE PUSH1 0x24 PUSH1 0x0 REVERT JUMPDEST PUSH32 0x4E487B7100000000000000000000000000000000000000000000000000000000 PUSH1 0x0 MSTORE PUSH1 0x22 PUSH1 0x4 MSTORE PUSH1 0x24 PUSH1 0x0 REVERT JUMPDEST PUSH32 0x4E487B7100000000000000000000000000000000000000000000000000000000 PUSH1 0x0 MSTORE PUSH1 0x32 PUSH1 0x4 MSTORE PUSH1 0x24 PUSH1 0x0 REVERT JUMPDEST PUSH32 0x4E487B7100000000000000000000000000000000000000000000000000000000 PUSH1 0x0 MSTORE PUSH1 0x41 PUSH1 0x4 MSTORE PUSH1 0x24 PUSH1 0x0 REVERT JUMPDEST PUSH1 0x0 DUP1 REVERT JUMPDEST PUSH1 0x0 DUP1 REVERT JUMPDEST PUSH1 0x0 DUP1 REVERT JUMPDEST PUSH1 0x0 DUP1 REVERT JUMPDEST PUSH1 0x0 DUP1 REVERT JUMPDEST PUSH1 0x0 DUP1 REVERT JUMPDEST PUSH1 0x0 DUP1 REVERT JUMPDEST PUSH1 0x0 PUSH1 0x1F NOT PUSH1 0x1F DUP4 ADD AND SWAP1 POP SWAP2 SWAP1 POP JUMP JUMPDEST PUSH3 0x70A DUP2 PUSH3 0x515 JUMP JUMPDEST DUP2 EQ PUSH3 0x716 JUMPI PUSH1 0x0 DUP1 REVERT JUMPDEST POP JUMP JUMPDEST PUSH2 0x1A0A DUP1 PUSH3 0x729 PUSH1 0x0 CODECOPY PUSH1 0x0 RETURN INVALID PUSH1 0x80 PUSH1 0x40 MSTORE CALLVALUE DUP1 ISZERO PUSH2 0x10 JUMPI PUSH1 0x0 DUP1 REVERT JUMPDEST POP PUSH1 0x4 CALLDATASIZE LT PUSH2 0x116 JUMPI PUSH1 0x0 CALLDATALOAD PUSH1 0xE0 SHR DUP1 PUSH4 0x954115F2 GT PUSH2 0xA2 JUMPI DUP1 PUSH4 0xDA265430 GT PUSH2 0x71 JUMPI DUP1 PUSH4 0xDA265430 EQ PUSH2 0x2D4 JUMPI DUP1 PUSH4 0xDF703622 EQ PUSH2 0x2F2 JUMPI DUP1 PUSH4 0xEACC4E3F EQ PUSH2 0x310 JUMPI DUP1 PUSH4 0xF927CC29 EQ PUSH2 0x340 JUMPI DUP1 PUSH4 0xFC36E15B EQ PUSH2 0x35E JUMPI PUSH2 0x116 JUMP JUMPDEST DUP1 PUSH4 0x954115F2 EQ PUSH2 0x24D JUMPI DUP1 PUSH4 0x9E7B8D61 EQ PUSH2 0x269 JUMPI DUP1 PUSH4 0xA3EC138D EQ PUSH2 0x285 JUMPI DUP1 PUSH4 0xCE606EE0 EQ PUSH2 0x2B6 JUMPI PUSH2 0x116 JUMP JUMPDEST DUP1 PUSH4 0x32A2C5D0 GT PUSH2 0xE9 JUMPI DUP1 PUSH4 0x32A2C5D0 EQ PUSH2 0x191 JUMPI DUP1 PUSH4 0x3477EE2E EQ PUSH2 0x1AF JUMPI DUP1 PUSH4 0x3DDF3822 EQ PUSH2 0x1E1 JUMPI DUP1 PUSH4 0x4ABA5F34 EQ PUSH2 0x1FF JUMPI DUP1 PUSH4 0x743F7666 EQ PUSH2 0x21D JUMPI PUSH2 0x116 JUMP JUMPDEST DUP1 PUSH4 0x1C5556A EQ PUSH2 0x11B JUMPI DUP1 PUSH4 0xD15FD77 EQ PUSH2 0x139 JUMPI DUP1 PUSH4 0x10508439 EQ PUSH2 0x157 JUMPI DUP1 PUSH4 0x2BFDA515 EQ PUSH2 0x173 JUMPI JUMPDEST PUSH1 0x0 DUP1 REVERT JUMPDEST PUSH2 0x123 PUSH2 0x37A JUMP JUMPDEST PUSH1 0x40 MLOAD PUSH2 0x130 SWAP2 SWAP1 PUSH2 0x1553 JUMP JUMPDEST PUSH1 0x40 MLOAD DUP1 SWAP2 SUB SWAP1 RETURN JUMPDEST PUSH2 0x141 PUSH2 0x3D9 JUMP JUMPDEST PUSH1 0x40 MLOAD PUSH2 0x14E SWAP2 SWAP1 PUSH2 0x1553 JUMP JUMPDEST PUSH1 0x40 MLOAD DUP1 SWAP2 SUB SWAP1 RETURN JUMPDEST PUSH2 0x171 PUSH1 0x4 DUP1 CALLDATASIZE SUB DUP2 ADD SWAP1 PUSH2 0x16C SWAP2 SWAP1 PUSH2 0x1041 JUMP JUMPDEST PUSH2 0x3DF JUMP JUMPDEST STOP JUMPDEST PUSH2 0x17B PUSH2 0x4B7 JUMP JUMPDEST PUSH1 0x40 MLOAD PUSH2 0x188 SWAP2 SWAP1 PUSH2 0x144A JUMP JUMPDEST PUSH1 0x40 MLOAD DUP1 SWAP2 SUB SWAP1 RETURN JUMPDEST PUSH2 0x199 PUSH2 0x573 JUMP JUMPDEST PUSH1 0x40 MLOAD PUSH2 0x1A6 SWAP2 SWAP1 PUSH2 0x13C9 JUMP JUMPDEST PUSH1 0x40 MLOAD DUP1 SWAP2 SUB SWAP1 RETURN JUMPDEST PUSH2 0x1C9 PUSH1 0x4 DUP1 CALLDATASIZE SUB DUP2 ADD SWAP1 PUSH2 0x1C4 SWAP2 SWAP1 PUSH2 0x1102 JUMP JUMPDEST PUSH2 0x57B JUMP JUMPDEST PUSH1 0x40 MLOAD PUSH2 0x1D8 SWAP4 SWAP3 SWAP2 SWAP1 PUSH2 0x146C JUMP JUMPDEST PUSH1 0x40 MLOAD DUP1 SWAP2 SUB SWAP1 RETURN JUMPDEST PUSH2 0x1E9 PUSH2 0x6C5 JUMP JUMPDEST PUSH1 0x40 MLOAD PUSH2 0x1F6 SWAP2 SWAP1 PUSH2 0x1406 JUMP JUMPDEST PUSH1 0x40 MLOAD DUP1 SWAP2 SUB SWAP1 RETURN JUMPDEST PUSH2 0x207 PUSH2 0x71C JUMP JUMPDEST PUSH1 0x40 MLOAD PUSH2 0x214 SWAP2 SWAP1 PUSH2 0x13E4 JUMP JUMPDEST PUSH1 0x40 MLOAD DUP1 SWAP2 SUB SWAP1 RETURN JUMPDEST PUSH2 0x237 PUSH1 0x4 DUP1 CALLDATASIZE SUB DUP2 ADD SWAP1 PUSH2 0x232 SWAP2 SWAP1 PUSH2 0xFCB JUMP JUMPDEST PUSH2 0x8A9 JUMP JUMPDEST PUSH1 0x40 MLOAD PUSH2 0x244 SWAP2 SWAP1 PUSH2 0x1406 JUMP JUMPDEST PUSH1 0x40 MLOAD DUP1 SWAP2 SUB SWAP1 RETURN JUMPDEST PUSH2 0x267 PUSH1 0x4 DUP1 CALLDATASIZE SUB DUP2 ADD SWAP1 PUSH2 0x262 SWAP2 SWAP1 PUSH2 0x10B9 JUMP JUMPDEST PUSH2 0x902 JUMP JUMPDEST STOP JUMPDEST PUSH2 0x283 PUSH1 0x4 DUP1 CALLDATASIZE SUB DUP2 ADD SWAP1 PUSH2 0x27E SWAP2 SWAP1 PUSH2 0xFCB JUMP JUMPDEST PUSH2 0x9BE JUMP JUMPDEST STOP JUMPDEST PUSH2 0x29F PUSH1 0x4 DUP1 CALLDATASIZE SUB DUP2 ADD SWAP1 PUSH2 0x29A SWAP2 SWAP1 PUSH2 0xFCB JUMP JUMPDEST PUSH2 0xAAD JUMP JUMPDEST PUSH1 0x40 MLOAD PUSH2 0x2AD SWAP3 SWAP2 SWAP1 PUSH2 0x1421 JUMP JUMPDEST PUSH1 0x40 MLOAD DUP1 SWAP2 SUB SWAP1 RETURN JUMPDEST PUSH2 0x2BE PUSH2 0xAEB JUMP JUMPDEST PUSH1 0x40 MLOAD PUSH2 0x2CB SWAP2 SWAP1 PUSH2 0x13C9 JUMP JUMPDEST PUSH1 0x40 MLOAD DUP1 SWAP2 SUB SWAP1 RETURN JUMPDEST PUSH2 0x2DC PUSH2 0xB0F JUMP JUMPDEST PUSH1 0x40 MLOAD PUSH2 0x2E9 SWAP2 SWAP1 PUSH2 0x1406 JUMP JUMPDEST PUSH1 0x40 MLOAD DUP1 SWAP2 SUB SWAP1 RETURN JUMPDEST PUSH2 0x2FA PUSH2 0xB1F JUMP JUMPDEST PUSH1 0x40 MLOAD PUSH2 0x307 SWAP2 SWAP1 PUSH2 0x1406 JUMP JUMPDEST PUSH1 0x40 MLOAD DUP1 SWAP2 SUB SWAP1 RETURN JUMPDEST PUSH2 0x32A PUSH1 0x4 DUP1 CALLDATASIZE SUB DUP2 ADD SWAP1 PUSH2 0x325 SWAP2 SWAP1 PUSH2 0xFCB JUMP JUMPDEST PUSH2 0xB2F JUMP JUMPDEST PUSH1 0x40 MLOAD PUSH2 0x337 SWAP2 SWAP1 PUSH2 0x1406 JUMP JUMPDEST PUSH1 0x40 MLOAD DUP1 SWAP2 SUB SWAP1 RETURN JUMPDEST PUSH2 0x348 PUSH2 0xB88 JUMP JUMPDEST PUSH1 0x40 MLOAD PUSH2 0x355 SWAP2 SWAP1 PUSH2 0x1553 JUMP JUMPDEST PUSH1 0x40 MLOAD DUP1 SWAP2 SUB SWAP1 RETURN JUMPDEST PUSH2 0x378 PUSH1 0x4 DUP1 CALLDATASIZE SUB DUP2 ADD SWAP1 PUSH2 0x373 SWAP2 SWAP1 PUSH2 0xFF8 JUMP JUMPDEST PUSH2 0xC0C JUMP JUMPDEST STOP JUMPDEST PUSH1 0x0 DUP1 PUSH1 0x0 SWAP1 POP JUMPDEST PUSH1 0x2 DUP1 SLOAD SWAP1 POP DUP2 LT ISZERO PUSH2 0x3D5 JUMPI PUSH1 0x2 DUP2 DUP2 SLOAD DUP2 LT PUSH2 0x3A3 JUMPI PUSH2 0x3A2 PUSH2 0x1829 JUMP JUMPDEST JUMPDEST SWAP1 PUSH1 0x0 MSTORE PUSH1 0x20 PUSH1 0x0 KECCAK256 SWAP1 PUSH1 0x3 MUL ADD PUSH1 0x2 ADD SLOAD DUP3 PUSH2 0x3C0 SWAP2 SWAP1 PUSH2 0x163F JUMP JUMPDEST SWAP2 POP DUP1 DUP1 PUSH2 0x3CD SWAP1 PUSH2 0x1782 JUMP JUMPDEST SWAP2 POP POP PUSH2 0x382 JUMP JUMPDEST POP SWAP1 JUMP JUMPDEST PUSH1 0x3 SLOAD DUP2 JUMP JUMPDEST PUSH2 0x3E7 PUSH2 0x6C5 JUMP JUMPDEST PUSH2 0x426 JUMPI PUSH1 0x40 MLOAD PUSH32 0x8C379A000000000000000000000000000000000000000000000000000000000 DUP2 MSTORE PUSH1 0x4 ADD PUSH2 0x41D SWAP1 PUSH2 0x1513 JUMP JUMPDEST PUSH1 0x40 MLOAD DUP1 SWAP2 SUB SWAP1 REVERT JUMPDEST PUSH1 0x2 PUSH1 0x40 MLOAD DUP1 PUSH1 0x60 ADD PUSH1 0x40 MSTORE DUP1 DUP5 DUP2 MSTORE PUSH1 0x20 ADD DUP4 DUP2 MSTORE PUSH1 0x20 ADD PUSH1 0x0 DUP2 MSTORE POP SWAP1 DUP1 PUSH1 0x1 DUP2 SLOAD ADD DUP1 DUP3 SSTORE DUP1 SWAP2 POP POP PUSH1 0x1 SWAP1 SUB SWAP1 PUSH1 0x0 MSTORE PUSH1 0x20 PUSH1 0x0 KECCAK256 SWAP1 PUSH1 0x3 MUL ADD PUSH1 0x0 SWAP1 SWAP2 SWAP1 SWAP2 SWAP1 SWAP2 POP PUSH1 0x0 DUP3 ADD MLOAD DUP2 PUSH1 0x0 ADD SWAP1 DUP1 MLOAD SWAP1 PUSH1 0x20 ADD SWAP1 PUSH2 0x489 SWAP3 SWAP2 SWAP1 PUSH2 0xDF2 JUMP JUMPDEST POP PUSH1 0x20 DUP3 ADD MLOAD DUP2 PUSH1 0x1 ADD SWAP1 DUP1 MLOAD SWAP1 PUSH1 0x20 ADD SWAP1 PUSH2 0x4A6 SWAP3 SWAP2 SWAP1 PUSH2 0xDF2 JUMP JUMPDEST POP PUSH1 0x40 DUP3 ADD MLOAD DUP2 PUSH1 0x2 ADD SSTORE POP POP POP POP JUMP JUMPDEST PUSH1 0x60 PUSH1 0x2 PUSH2 0x4C3 PUSH2 0xB88 JUMP JUMPDEST DUP2 SLOAD DUP2 LT PUSH2 0x4D4 JUMPI PUSH2 0x4D3 PUSH2 0x1829 JUMP JUMPDEST JUMPDEST SWAP1 PUSH1 0x0 MSTORE PUSH1 0x20 PUSH1 0x0 KECCAK256 SWAP1 PUSH1 0x3 MUL ADD PUSH1 0x0 ADD DUP1 SLOAD PUSH2 0x4F0 SWAP1 PUSH2 0x171F JUMP JUMPDEST DUP1 PUSH1 0x1F ADD PUSH1 0x20 DUP1 SWAP2 DIV MUL PUSH1 0x20 ADD PUSH1 0x40 MLOAD SWAP1 DUP2 ADD PUSH1 0x40 MSTORE DUP1 SWAP3 SWAP2 SWAP1 DUP2 DUP2 MSTORE PUSH1 0x20 ADD DUP3 DUP1 SLOAD PUSH2 0x51C SWAP1 PUSH2 0x171F JUMP JUMPDEST DUP1 ISZERO PUSH2 0x569 JUMPI DUP1 PUSH1 0x1F LT PUSH2 0x53E JUMPI PUSH2 0x100 DUP1 DUP4 SLOAD DIV MUL DUP4 MSTORE SWAP2 PUSH1 0x20 ADD SWAP2 PUSH2 0x569 JUMP JUMPDEST DUP3 ADD SWAP2 SWAP1 PUSH1 0x0 MSTORE PUSH1 0x20 PUSH1 0x0 KECCAK256 SWAP1 JUMPDEST DUP2 SLOAD DUP2 MSTORE SWAP1 PUSH1 0x1 ADD SWAP1 PUSH1 0x20 ADD DUP1 DUP4 GT PUSH2 0x54C JUMPI DUP3 SWAP1 SUB PUSH1 0x1F AND DUP3 ADD SWAP2 JUMPDEST POP POP POP POP POP SWAP1 POP SWAP1 JUMP JUMPDEST PUSH1 0x0 ADDRESS SWAP1 POP SWAP1 JUMP JUMPDEST PUSH1 0x2 DUP2 DUP2 SLOAD DUP2 LT PUSH2 0x58B JUMPI PUSH1 0x0 DUP1 REVERT JUMPDEST SWAP1 PUSH1 0x0 MSTORE PUSH1 0x20 PUSH1 0x0 KECCAK256 SWAP1 PUSH1 0x3 MUL ADD PUSH1 0x0 SWAP2 POP SWAP1 POP DUP1 PUSH1 0x0 ADD DUP1 SLOAD PUSH2 0x5AE SWAP1 PUSH2 0x171F JUMP JUMPDEST DUP1 PUSH1 0x1F ADD PUSH1 0x20 DUP1 SWAP2 DIV MUL PUSH1 0x20 ADD PUSH1 0x40 MLOAD SWAP1 DUP2 ADD PUSH1 0x40 MSTORE DUP1 SWAP3 SWAP2 SWAP1 DUP2 DUP2 MSTORE PUSH1 0x20 ADD DUP3 DUP1 SLOAD PUSH2 0x5DA SWAP1 PUSH2 0x171F JUMP JUMPDEST DUP1 ISZERO PUSH2 0x627 JUMPI DUP1 PUSH1 0x1F LT PUSH2 0x5FC JUMPI PUSH2 0x100 DUP1 DUP4 SLOAD DIV MUL DUP4 MSTORE SWAP2 PUSH1 0x20 ADD SWAP2 PUSH2 0x627 JUMP JUMPDEST DUP3 ADD SWAP2 SWAP1 PUSH1 0x0 MSTORE PUSH1 0x20 PUSH1 0x0 KECCAK256 SWAP1 JUMPDEST DUP2 SLOAD DUP2 MSTORE SWAP1 PUSH1 0x1 ADD SWAP1 PUSH1 0x20 ADD DUP1 DUP4 GT PUSH2 0x60A JUMPI DUP3 SWAP1 SUB PUSH1 0x1F AND DUP3 ADD SWAP2 JUMPDEST POP POP POP POP POP SWAP1 DUP1 PUSH1 0x1 ADD DUP1 SLOAD PUSH2 0x63C SWAP1 PUSH2 0x171F JUMP JUMPDEST DUP1 PUSH1 0x1F ADD PUSH1 0x20 DUP1 SWAP2 DIV MUL PUSH1 0x20 ADD PUSH1 0x40 MLOAD SWAP1 DUP2 ADD PUSH1 0x40 MSTORE DUP1 SWAP3 SWAP2 SWAP1 DUP2 DUP2 MSTORE PUSH1 0x20 ADD DUP3 DUP1 SLOAD PUSH2 0x668 SWAP1 PUSH2 0x171F JUMP JUMPDEST DUP1 ISZERO PUSH2 0x6B5 JUMPI DUP1 PUSH1 0x1F LT PUSH2 0x68A JUMPI PUSH2 0x100 DUP1 DUP4 SLOAD DIV MUL DUP4 MSTORE SWAP2 PUSH1 0x20 ADD SWAP2 PUSH2 0x6B5 JUMP JUMPDEST DUP3 ADD SWAP2 SWAP1 PUSH1 0x0 MSTORE PUSH1 0x20 PUSH1 0x0 KECCAK256 SWAP1 JUMPDEST DUP2 SLOAD DUP2 MSTORE SWAP1 PUSH1 0x1 ADD SWAP1 PUSH1 0x20 ADD DUP1 DUP4 GT PUSH2 0x698 JUMPI DUP3 SWAP1 SUB PUSH1 0x1F AND DUP3 ADD SWAP2 JUMPDEST POP POP POP POP POP SWAP1 DUP1 PUSH1 0x2 ADD SLOAD SWAP1 POP DUP4 JUMP JUMPDEST PUSH1 0x0 DUP1 PUSH1 0x0 SWAP1 SLOAD SWAP1 PUSH2 0x100 EXP SWAP1 DIV PUSH20 0xFFFFFFFFFFFFFFFFFFFFFFFFFFFFFFFFFFFFFFFF AND PUSH20 0xFFFFFFFFFFFFFFFFFFFFFFFFFFFFFFFFFFFFFFFF AND CALLER PUSH20 0xFFFFFFFFFFFFFFFFFFFFFFFFFFFFFFFFFFFFFFFF AND EQ SWAP1 POP SWAP1 JUMP JUMPDEST PUSH1 0x60 PUSH1 0x2 DUP1 SLOAD DUP1 PUSH1 0x20 MUL PUSH1 0x20 ADD PUSH1 0x40 MLOAD SWAP1 DUP2 ADD PUSH1 0x40 MSTORE DUP1 SWAP3 SWAP2 SWAP1 DUP2 DUP2 MSTORE PUSH1 0x20 ADD PUSH1 0x0 SWAP1 JUMPDEST DUP3 DUP3 LT ISZERO PUSH2 0x8A0 JUMPI DUP4 DUP3 SWAP1 PUSH1 0x0 MSTORE PUSH1 0x20 PUSH1 0x0 KECCAK256 SWAP1 PUSH1 0x3 MUL ADD PUSH1 0x40 MLOAD DUP1 PUSH1 0x60 ADD PUSH1 0x40 MSTORE SWAP1 DUP2 PUSH1 0x0 DUP3 ADD DUP1 SLOAD PUSH2 0x773 SWAP1 PUSH2 0x171F JUMP JUMPDEST DUP1 PUSH1 0x1F ADD PUSH1 0x20 DUP1 SWAP2 DIV MUL PUSH1 0x20 ADD PUSH1 0x40 MLOAD SWAP1 DUP2 ADD PUSH1 0x40 MSTORE DUP1 SWAP3 SWAP2 SWAP1 DUP2 DUP2 MSTORE PUSH1 0x20 ADD DUP3 DUP1 SLOAD PUSH2 0x79F SWAP1 PUSH2 0x171F JUMP JUMPDEST DUP1 ISZERO PUSH2 0x7EC JUMPI DUP1 PUSH1 0x1F LT PUSH2 0x7C1 JUMPI PUSH2 0x100 DUP1 DUP4 SLOAD DIV MUL DUP4 MSTORE SWAP2 PUSH1 0x20 ADD SWAP2 PUSH2 0x7EC JUMP JUMPDEST DUP3 ADD SWAP2 SWAP1 PUSH1 0x0 MSTORE PUSH1 0x20 PUSH1 0x0 KECCAK256 SWAP1 JUMPDEST DUP2 SLOAD DUP2 MSTORE SWAP1 PUSH1 0x1 ADD SWAP1 PUSH1 0x20 ADD DUP1 DUP4 GT PUSH2 0x7CF JUMPI DUP3 SWAP1 SUB PUSH1 0x1F AND DUP3 ADD SWAP2 JUMPDEST POP POP POP POP POP DUP2 MSTORE PUSH1 0x20 ADD PUSH1 0x1 DUP3 ADD DUP1 SLOAD PUSH2 0x805 SWAP1 PUSH2 0x171F JUMP JUMPDEST DUP1 PUSH1 0x1F ADD PUSH1 0x20 DUP1 SWAP2 DIV MUL PUSH1 0x20 ADD PUSH1 0x40 MLOAD SWAP1 DUP2 ADD PUSH1 0x40 MSTORE DUP1 SWAP3 SWAP2 SWAP1 DUP2 DUP2 MSTORE PUSH1 0x20 ADD DUP3 DUP1 SLOAD PUSH2 0x831 SWAP1 PUSH2 0x171F JUMP JUMPDEST DUP1 ISZERO PUSH2 0x87E JUMPI DUP1 PUSH1 0x1F LT PUSH2 0x853 JUMPI PUSH2 0x100 DUP1 DUP4 SLOAD DIV MUL DUP4 MSTORE SWAP2 PUSH1 0x20 ADD SWAP2 PUSH2 0x87E JUMP JUMPDEST DUP3 ADD SWAP2 SWAP1 PUSH1 0x0 MSTORE PUSH1 0x20 PUSH1 0x0 KECCAK256 SWAP1 JUMPDEST DUP2 SLOAD DUP2 MSTORE SWAP1 PUSH1 0x1 ADD SWAP1 PUSH1 0x20 ADD DUP1 DUP4 GT PUSH2 0x861 JUMPI DUP3 SWAP1 SUB PUSH1 0x1F AND DUP3 ADD SWAP2 JUMPDEST POP POP POP POP POP DUP2 MSTORE PUSH1 0x20 ADD PUSH1 0x2 DUP3 ADD SLOAD DUP2 MSTORE POP POP DUP2 MSTORE PUSH1 0x20 ADD SWAP1 PUSH1 0x1 ADD SWAP1 PUSH2 0x740 JUMP JUMPDEST POP POP POP POP SWAP1 POP SWAP1 JUMP JUMPDEST PUSH1 0x0 PUSH1 0x1 PUSH1 0x0 DUP4 PUSH20 0xFFFFFFFFFFFFFFFFFFFFFFFFFFFFFFFFFFFFFFFF AND PUSH20 0xFFFFFFFFFFFFFFFFFFFFFFFFFFFFFFFFFFFFFFFF AND DUP2 MSTORE PUSH1 0x20 ADD SWAP1 DUP2 MSTORE PUSH1 0x20 ADD PUSH1 0x0 KECCAK256 PUSH1 0x0 ADD PUSH1 0x1 SWAP1 SLOAD SWAP1 PUSH2 0x100 EXP SWAP1 DIV PUSH1 0xFF AND SWAP1 POP SWAP2 SWAP1 POP JUMP JUMPDEST PUSH2 0x90A PUSH2 0x6C5 JUMP JUMPDEST PUSH2 0x949 JUMPI PUSH1 0x40 MLOAD PUSH32 0x8C379A000000000000000000000000000000000000000000000000000000000 DUP2 MSTORE PUSH1 0x4 ADD PUSH2 0x940 SWAP1 PUSH2 0x1513 JUMP JUMPDEST PUSH1 0x40 MLOAD DUP1 SWAP2 SUB SWAP1 REVERT JUMPDEST PUSH1 0x2 DUP2 SWAP1 DUP1 PUSH1 0x1 DUP2 SLOAD ADD DUP1 DUP3 SSTORE DUP1 SWAP2 POP POP PUSH1 0x1 SWAP1 SUB SWAP1 PUSH1 0x0 MSTORE PUSH1 0x20 PUSH1 0x0 KECCAK256 SWAP1 PUSH1 0x3 MUL ADD PUSH1 0x0 SWAP1 SWAP2 SWAP1 SWAP2 SWAP1 SWAP2 POP PUSH1 0x0 DUP3 ADD MLOAD DUP2 PUSH1 0x0 ADD SWAP1 DUP1 MLOAD SWAP1 PUSH1 0x20 ADD SWAP1 PUSH2 0x991 SWAP3 SWAP2 SWAP1 PUSH2 0xDF2 JUMP JUMPDEST POP PUSH1 0x20 DUP3 ADD MLOAD DUP2 PUSH1 0x1 ADD SWAP1 DUP1 MLOAD SWAP1 PUSH1 0x20 ADD SWAP1 PUSH2 0x9AE SWAP3 SWAP2 SWAP1 PUSH2 0xDF2 JUMP JUMPDEST POP PUSH1 0x40 DUP3 ADD MLOAD DUP2 PUSH1 0x2 ADD SSTORE POP POP POP JUMP JUMPDEST PUSH2 0x9C6 PUSH2 0x6C5 JUMP JUMPDEST PUSH2 0xA05 JUMPI PUSH1 0x40 MLOAD PUSH32 0x8C379A000000000000000000000000000000000000000000000000000000000 DUP2 MSTORE PUSH1 0x4 ADD PUSH2 0x9FC SWAP1 PUSH2 0x14D3 JUMP JUMPDEST PUSH1 0x40 MLOAD DUP1 SWAP2 SUB SWAP1 REVERT JUMPDEST DUP1 PUSH2 0xA0F DUP2 PUSH2 0x8A9 JUMP JUMPDEST ISZERO PUSH2 0xA4F JUMPI PUSH1 0x40 MLOAD PUSH32 0x8C379A000000000000000000000000000000000000000000000000000000000 DUP2 MSTORE PUSH1 0x4 ADD PUSH2 0xA46 SWAP1 PUSH2 0x14F3 JUMP JUMPDEST PUSH1 0x40 MLOAD DUP1 SWAP2 SUB SWAP1 REVERT JUMPDEST PUSH1 0x1 DUP1 PUSH1 0x0 DUP5 PUSH20 0xFFFFFFFFFFFFFFFFFFFFFFFFFFFFFFFFFFFFFFFF AND PUSH20 0xFFFFFFFFFFFFFFFFFFFFFFFFFFFFFFFFFFFFFFFF AND DUP2 MSTORE PUSH1 0x20 ADD SWAP1 DUP2 MSTORE PUSH1 0x20 ADD PUSH1 0x0 KECCAK256 PUSH1 0x0 ADD PUSH1 0x0 PUSH2 0x100 EXP DUP2 SLOAD DUP2 PUSH1 0xFF MUL NOT AND SWAP1 DUP4 ISZERO ISZERO MUL OR SWAP1 SSTORE POP POP POP JUMP JUMPDEST PUSH1 0x1 PUSH1 0x20 MSTORE DUP1 PUSH1 0x0 MSTORE PUSH1 0x40 PUSH1 0x0 KECCAK256 PUSH1 0x0 SWAP2 POP SWAP1 POP DUP1 PUSH1 0x0 ADD PUSH1 0x0 SWAP1 SLOAD SWAP1 PUSH2 0x100 EXP SWAP1 DIV PUSH1 0xFF AND SWAP1 DUP1 PUSH1 0x0 ADD PUSH1 0x1 SWAP1 SLOAD SWAP1 PUSH2 0x100 EXP SWAP1 DIV PUSH1 0xFF AND SWAP1 POP DUP3 JUMP JUMPDEST PUSH1 0x0 DUP1 SLOAD SWAP1 PUSH2 0x100 EXP SWAP1 DIV PUSH20 0xFFFFFFFFFFFFFFFFFFFFFFFFFFFFFFFFFFFFFFFF AND DUP2 JUMP JUMPDEST PUSH1 0x0 PUSH2 0xB1A CALLER PUSH2 0x8A9 JUMP JUMPDEST SWAP1 POP SWAP1 JUMP JUMPDEST PUSH1 0x0 PUSH2 0xB2A CALLER PUSH2 0xB2F JUMP JUMPDEST SWAP1 POP SWAP1 JUMP JUMPDEST PUSH1 0x0 PUSH1 0x1 PUSH1 0x0 DUP4 PUSH20 0xFFFFFFFFFFFFFFFFFFFFFFFFFFFFFFFFFFFFFFFF AND PUSH20 0xFFFFFFFFFFFFFFFFFFFFFFFFFFFFFFFFFFFFFFFF AND DUP2 MSTORE PUSH1 0x20 ADD SWAP1 DUP2 MSTORE PUSH1 0x20 ADD PUSH1 0x0 KECCAK256 PUSH1 0x0 ADD PUSH1 0x0 SWAP1 SLOAD SWAP1 PUSH2 0x100 EXP SWAP1 DIV PUSH1 0xFF AND SWAP1 POP SWAP2 SWAP1 POP JUMP JUMPDEST PUSH1 0x0 DUP1 PUSH1 0x0 JUMPDEST PUSH1 0x2 DUP1 SLOAD SWAP1 POP DUP2 LT ISZERO PUSH2 0xC07 JUMPI DUP2 PUSH1 0x2 DUP3 DUP2 SLOAD DUP2 LT PUSH2 0xBB0 JUMPI PUSH2 0xBAF PUSH2 0x1829 JUMP JUMPDEST JUMPDEST SWAP1 PUSH1 0x0 MSTORE PUSH1 0x20 PUSH1 0x0 KECCAK256 SWAP1 PUSH1 0x3 MUL ADD PUSH1 0x2 ADD SLOAD GT ISZERO PUSH2 0xBF4 JUMPI PUSH1 0x2 DUP2 DUP2 SLOAD DUP2 LT PUSH2 0xBDC JUMPI PUSH2 0xBDB PUSH2 0x1829 JUMP JUMPDEST JUMPDEST SWAP1 PUSH1 0x0 MSTORE PUSH1 0x20 PUSH1 0x0 KECCAK256 SWAP1 PUSH1 0x3 MUL ADD PUSH1 0x2 ADD SLOAD SWAP2 POP DUP1 SWAP3 POP JUMPDEST DUP1 DUP1 PUSH2 0xBFF SWAP1 PUSH2 0x1782 JUMP JUMPDEST SWAP2 POP POP PUSH2 0xB8E JUMP JUMPDEST POP POP SWAP1 JUMP JUMPDEST CALLER PUSH2 0xC16 DUP2 PUSH2 0x8A9 JUMP JUMPDEST ISZERO PUSH2 0xC56 JUMPI PUSH1 0x40 MLOAD PUSH32 0x8C379A000000000000000000000000000000000000000000000000000000000 DUP2 MSTORE PUSH1 0x4 ADD PUSH2 0xC4D SWAP1 PUSH2 0x14F3 JUMP JUMPDEST PUSH1 0x40 MLOAD DUP1 SWAP2 SUB SWAP1 REVERT JUMPDEST PUSH2 0xC5E PUSH2 0xB1F JUMP JUMPDEST PUSH2 0xC9D JUMPI PUSH1 0x40 MLOAD PUSH32 0x8C379A000000000000000000000000000000000000000000000000000000000 DUP2 MSTORE PUSH1 0x4 ADD PUSH2 0xC94 SWAP1 PUSH2 0x1533 JUMP JUMPDEST PUSH1 0x40 MLOAD DUP1 SWAP2 SUB SWAP1 REVERT JUMPDEST PUSH1 0x0 PUSH1 0x1 PUSH1 0x0 CALLER PUSH20 0xFFFFFFFFFFFFFFFFFFFFFFFFFFFFFFFFFFFFFFFF AND PUSH20 0xFFFFFFFFFFFFFFFFFFFFFFFFFFFFFFFFFFFFFFFF AND DUP2 MSTORE PUSH1 0x20 ADD SWAP1 DUP2 MSTORE PUSH1 0x20 ADD PUSH1 0x0 KECCAK256 SWAP1 POP PUSH1 0x0 JUMPDEST PUSH1 0x2 DUP1 SLOAD SWAP1 POP DUP2 LT ISZERO PUSH2 0xDEC JUMPI DUP4 PUSH1 0x40 MLOAD PUSH1 0x20 ADD PUSH2 0xD01 SWAP2 SWAP1 PUSH2 0x144A JUMP JUMPDEST PUSH1 0x40 MLOAD PUSH1 0x20 DUP2 DUP4 SUB SUB DUP2 MSTORE SWAP1 PUSH1 0x40 MSTORE DUP1 MLOAD SWAP1 PUSH1 0x20 ADD KECCAK256 PUSH1 0x2 DUP3 DUP2 SLOAD DUP2 LT PUSH2 0xD2B JUMPI PUSH2 0xD2A PUSH2 0x1829 JUMP JUMPDEST JUMPDEST SWAP1 PUSH1 0x0 MSTORE PUSH1 0x20 PUSH1 0x0 KECCAK256 SWAP1 PUSH1 0x3 MUL ADD PUSH1 0x0 ADD PUSH1 0x40 MLOAD PUSH1 0x20 ADD PUSH2 0xD4C SWAP2 SWAP1 PUSH2 0x14B1 JUMP JUMPDEST PUSH1 0x40 MLOAD PUSH1 0x20 DUP2 DUP4 SUB SUB DUP2 MSTORE SWAP1 PUSH1 0x40 MSTORE DUP1 MLOAD SWAP1 PUSH1 0x20 ADD KECCAK256 EQ ISZERO PUSH2 0xDA4 JUMPI PUSH1 0x2 DUP2 DUP2 SLOAD DUP2 LT PUSH2 0xD7C JUMPI PUSH2 0xD7B PUSH2 0x1829 JUMP JUMPDEST JUMPDEST SWAP1 PUSH1 0x0 MSTORE PUSH1 0x20 PUSH1 0x0 KECCAK256 SWAP1 PUSH1 0x3 MUL ADD PUSH1 0x2 ADD PUSH1 0x0 DUP2 SLOAD DUP1 SWAP3 SWAP2 SWAP1 PUSH2 0xD9E SWAP1 PUSH2 0x1782 JUMP JUMPDEST SWAP2 SWAP1 POP SSTORE POP JUMPDEST PUSH1 0x1 DUP3 PUSH1 0x0 ADD PUSH1 0x1 PUSH2 0x100 EXP DUP2 SLOAD DUP2 PUSH1 0xFF MUL NOT AND SWAP1 DUP4 ISZERO ISZERO MUL OR SWAP1 SSTORE POP PUSH1 0x3 PUSH1 0x0 DUP2 SLOAD DUP1 SWAP3 SWAP2 SWAP1 PUSH2 0xDD4 SWAP1 PUSH2 0x1782 JUMP JUMPDEST SWAP2 SWAP1 POP SSTORE POP DUP1 DUP1 PUSH2 0xDE4 SWAP1 PUSH2 0x1782 JUMP JUMPDEST SWAP2 POP POP PUSH2 0xCE3 JUMP JUMPDEST POP POP POP POP JUMP JUMPDEST DUP3 DUP1 SLOAD PUSH2 0xDFE SWAP1 PUSH2 0x171F JUMP JUMPDEST SWAP1 PUSH1 0x0 MSTORE PUSH1 0x20 PUSH1 0x0 KECCAK256 SWAP1 PUSH1 0x1F ADD PUSH1 0x20 SWAP1 DIV DUP2 ADD SWAP3 DUP3 PUSH2 0xE20 JUMPI PUSH1 0x0 DUP6 SSTORE PUSH2 0xE67 JUMP JUMPDEST DUP3 PUSH1 0x1F LT PUSH2 0xE39 JUMPI DUP1 MLOAD PUSH1 0xFF NOT AND DUP4 DUP1 ADD OR DUP6 SSTORE PUSH2 0xE67 JUMP JUMPDEST DUP3 DUP1 ADD PUSH1 0x1 ADD DUP6 SSTORE DUP3 ISZERO PUSH2 0xE67 JUMPI SWAP2 DUP3 ADD JUMPDEST DUP3 DUP2 GT ISZERO PUSH2 0xE66 JUMPI DUP3 MLOAD DUP3 SSTORE SWAP2 PUSH1 0x20 ADD SWAP2 SWAP1 PUSH1 0x1 ADD SWAP1 PUSH2 0xE4B JUMP JUMPDEST JUMPDEST POP SWAP1 POP PUSH2 0xE74 SWAP2 SWAP1 PUSH2 0xE78 JUMP JUMPDEST POP SWAP1 JUMP JUMPDEST JUMPDEST DUP1 DUP3 GT ISZERO PUSH2 0xE91 JUMPI PUSH1 0x0 DUP2 PUSH1 0x0 SWAP1 SSTORE POP PUSH1 0x1 ADD PUSH2 0xE79 JUMP JUMPDEST POP SWAP1 JUMP JUMPDEST PUSH1 0x0 PUSH2 0xEA8 PUSH2 0xEA3 DUP5 PUSH2 0x1593 JUMP JUMPDEST PUSH2 0x156E JUMP JUMPDEST SWAP1 POP DUP3 DUP2 MSTORE PUSH1 0x20 DUP2 ADD DUP5 DUP5 DUP5 ADD GT ISZERO PUSH2 0xEC4 JUMPI PUSH2 0xEC3 PUSH2 0x1896 JUMP JUMPDEST JUMPDEST PUSH2 0xECF DUP5 DUP3 DUP6 PUSH2 0x16DD JUMP JUMPDEST POP SWAP4 SWAP3 POP POP POP JUMP JUMPDEST PUSH1 0x0 DUP2 CALLDATALOAD SWAP1 POP PUSH2 0xEE6 DUP2 PUSH2 0x19A6 JUMP JUMPDEST SWAP3 SWAP2 POP POP JUMP JUMPDEST PUSH1 0x0 DUP3 PUSH1 0x1F DUP4 ADD SLT PUSH2 0xF01 JUMPI PUSH2 0xF00 PUSH2 0x1887 JUMP JUMPDEST JUMPDEST DUP2 CALLDATALOAD PUSH2 0xF11 DUP5 DUP3 PUSH1 0x20 DUP7 ADD PUSH2 0xE95 JUMP JUMPDEST SWAP2 POP POP SWAP3 SWAP2 POP POP JUMP JUMPDEST PUSH1 0x0 PUSH1 0x60 DUP3 DUP5 SUB SLT ISZERO PUSH2 0xF30 JUMPI PUSH2 0xF2F PUSH2 0x188C JUMP JUMPDEST JUMPDEST PUSH2 0xF3A PUSH1 0x60 PUSH2 0x156E JUMP JUMPDEST SWAP1 POP PUSH1 0x0 DUP3 ADD CALLDATALOAD PUSH8 0xFFFFFFFFFFFFFFFF DUP2 GT ISZERO PUSH2 0xF5A JUMPI PUSH2 0xF59 PUSH2 0x1891 JUMP JUMPDEST JUMPDEST PUSH2 0xF66 DUP5 DUP3 DUP6 ADD PUSH2 0xEEC JUMP JUMPDEST PUSH1 0x0 DUP4 ADD MSTORE POP PUSH1 0x20 DUP3 ADD CALLDATALOAD PUSH8 0xFFFFFFFFFFFFFFFF DUP2 GT ISZERO PUSH2 0xF8A JUMPI PUSH2 0xF89 PUSH2 0x1891 JUMP JUMPDEST JUMPDEST PUSH2 0xF96 DUP5 DUP3 DUP6 ADD PUSH2 0xEEC JUMP JUMPDEST PUSH1 0x20 DUP4 ADD MSTORE POP PUSH1 0x40 PUSH2 0xFAA DUP5 DUP3 DUP6 ADD PUSH2 0xFB6 JUMP JUMPDEST PUSH1 0x40 DUP4 ADD MSTORE POP SWAP3 SWAP2 POP POP JUMP JUMPDEST PUSH1 0x0 DUP2 CALLDATALOAD SWAP1 POP PUSH2 0xFC5 DUP2 PUSH2 0x19BD JUMP JUMPDEST SWAP3 SWAP2 POP POP JUMP JUMPDEST PUSH1 0x0 PUSH1 0x20 DUP3 DUP5 SUB SLT ISZERO PUSH2 0xFE1 JUMPI PUSH2 0xFE0 PUSH2 0x18A0 JUMP JUMPDEST JUMPDEST PUSH1 0x0 PUSH2 0xFEF DUP5 DUP3 DUP6 ADD PUSH2 0xED7 JUMP JUMPDEST SWAP2 POP POP SWAP3 SWAP2 POP POP JUMP JUMPDEST PUSH1 0x0 PUSH1 0x20 DUP3 DUP5 SUB SLT ISZERO PUSH2 0x100E JUMPI PUSH2 0x100D PUSH2 0x18A0 JUMP JUMPDEST JUMPDEST PUSH1 0x0 DUP3 ADD CALLDATALOAD PUSH8 0xFFFFFFFFFFFFFFFF DUP2 GT ISZERO PUSH2 0x102C JUMPI PUSH2 0x102B PUSH2 0x189B JUMP JUMPDEST JUMPDEST PUSH2 0x1038 DUP5 DUP3 DUP6 ADD PUSH2 0xEEC JUMP JUMPDEST SWAP2 POP POP SWAP3 SWAP2 POP POP JUMP JUMPDEST PUSH1 0x0 DUP1 PUSH1 0x40 DUP4 DUP6 SUB SLT ISZERO PUSH2 0x1058 JUMPI PUSH2 0x1057 PUSH2 0x18A0 JUMP JUMPDEST JUMPDEST PUSH1 0x0 DUP4 ADD CALLDATALOAD PUSH8 0xFFFFFFFFFFFFFFFF DUP2 GT ISZERO PUSH2 0x1076 JUMPI PUSH2 0x1075 PUSH2 0x189B JUMP JUMPDEST JUMPDEST PUSH2 0x1082 DUP6 DUP3 DUP7 ADD PUSH2 0xEEC JUMP JUMPDEST SWAP3 POP POP PUSH1 0x20 DUP4 ADD CALLDATALOAD PUSH8 0xFFFFFFFFFFFFFFFF DUP2 GT ISZERO PUSH2 0x10A3 JUMPI PUSH2 0x10A2 PUSH2 0x189B JUMP JUMPDEST JUMPDEST PUSH2 0x10AF DUP6 DUP3 DUP7 ADD PUSH2 0xEEC JUMP JUMPDEST SWAP2 POP POP SWAP3 POP SWAP3 SWAP1 POP JUMP JUMPDEST PUSH1 0x0 PUSH1 0x20 DUP3 DUP5 SUB SLT ISZERO PUSH2 0x10CF JUMPI PUSH2 0x10CE PUSH2 0x18A0 JUMP JUMPDEST JUMPDEST PUSH1 0x0 DUP3 ADD CALLDATALOAD PUSH8 0xFFFFFFFFFFFFFFFF DUP2 GT ISZERO PUSH2 0x10ED JUMPI PUSH2 0x10EC PUSH2 0x189B JUMP JUMPDEST JUMPDEST PUSH2 0x10F9 DUP5 DUP3 DUP6 ADD PUSH2 0xF1A JUMP JUMPDEST SWAP2 POP POP SWAP3 SWAP2 POP POP JUMP JUMPDEST PUSH1 0x0 PUSH1 0x20 DUP3 DUP5 SUB SLT ISZERO PUSH2 0x1118 JUMPI PUSH2 0x1117 PUSH2 0x18A0 JUMP JUMPDEST JUMPDEST PUSH1 0x0 PUSH2 0x1126 DUP5 DUP3 DUP6 ADD PUSH2 0xFB6 JUMP JUMPDEST SWAP2 POP POP SWAP3 SWAP2 POP POP JUMP JUMPDEST PUSH1 0x0 PUSH2 0x113B DUP4 DUP4 PUSH2 0x1354 JUMP JUMPDEST SWAP1 POP SWAP3 SWAP2 POP POP JUMP JUMPDEST PUSH2 0x114C DUP2 PUSH2 0x1695 JUMP JUMPDEST DUP3 MSTORE POP POP JUMP JUMPDEST PUSH1 0x0 PUSH2 0x115D DUP3 PUSH2 0x15E9 JUMP JUMPDEST PUSH2 0x1167 DUP2 DUP6 PUSH2 0x160C JUMP JUMPDEST SWAP4 POP DUP4 PUSH1 0x20 DUP3 MUL DUP6 ADD PUSH2 0x1179 DUP6 PUSH2 0x15C4 JUMP JUMPDEST DUP1 PUSH1 0x0 JUMPDEST DUP6 DUP2 LT ISZERO PUSH2 0x11B5 JUMPI DUP5 DUP5 SUB DUP10 MSTORE DUP2 MLOAD PUSH2 0x1196 DUP6 DUP3 PUSH2 0x112F JUMP JUMPDEST SWAP5 POP PUSH2 0x11A1 DUP4 PUSH2 0x15FF JUMP JUMPDEST SWAP3 POP PUSH1 0x20 DUP11 ADD SWAP10 POP POP PUSH1 0x1 DUP2 ADD SWAP1 POP PUSH2 0x117D JUMP JUMPDEST POP DUP3 SWAP8 POP DUP8 SWAP6 POP POP POP POP POP POP SWAP3 SWAP2 POP POP JUMP JUMPDEST PUSH2 0x11D0 DUP2 PUSH2 0x16A7 JUMP JUMPDEST DUP3 MSTORE POP POP JUMP JUMPDEST PUSH1 0x0 PUSH2 0x11E1 DUP3 PUSH2 0x15F4 JUMP JUMPDEST PUSH2 0x11EB DUP2 DUP6 PUSH2 0x161D JUMP JUMPDEST SWAP4 POP PUSH2 0x11FB DUP2 DUP6 PUSH1 0x20 DUP7 ADD PUSH2 0x16EC JUMP JUMPDEST PUSH2 0x1204 DUP2 PUSH2 0x18A5 JUMP JUMPDEST DUP5 ADD SWAP2 POP POP SWAP3 SWAP2 POP POP JUMP JUMPDEST PUSH1 0x0 PUSH2 0x121A DUP3 PUSH2 0x15F4 JUMP JUMPDEST PUSH2 0x1224 DUP2 DUP6 PUSH2 0x162E JUMP JUMPDEST SWAP4 POP PUSH2 0x1234 DUP2 DUP6 PUSH1 0x20 DUP7 ADD PUSH2 0x16EC JUMP JUMPDEST PUSH2 0x123D DUP2 PUSH2 0x18A5 JUMP JUMPDEST DUP5 ADD SWAP2 POP POP SWAP3 SWAP2 POP POP JUMP JUMPDEST PUSH1 0x0 DUP2 SLOAD PUSH2 0x1255 DUP2 PUSH2 0x171F JUMP JUMPDEST PUSH2 0x125F DUP2 DUP7 PUSH2 0x162E JUMP JUMPDEST SWAP5 POP PUSH1 0x1 DUP3 AND PUSH1 0x0 DUP2 EQ PUSH2 0x127A JUMPI PUSH1 0x1 DUP2 EQ PUSH2 0x128C JUMPI PUSH2 0x12BF JUMP JUMPDEST PUSH1 0xFF NOT DUP4 AND DUP7 MSTORE PUSH1 0x20 DUP7 ADD SWAP4 POP PUSH2 0x12BF JUMP JUMPDEST PUSH2 0x1295 DUP6 PUSH2 0x15D4 JUMP JUMPDEST PUSH1 0x0 JUMPDEST DUP4 DUP2 LT ISZERO PUSH2 0x12B7 JUMPI DUP2 SLOAD DUP2 DUP10 ADD MSTORE PUSH1 0x1 DUP3 ADD SWAP2 POP PUSH1 0x20 DUP2 ADD SWAP1 POP PUSH2 0x1298 JUMP JUMPDEST DUP1 DUP9 ADD SWAP6 POP POP POP JUMPDEST POP POP POP SWAP3 SWAP2 POP POP JUMP JUMPDEST PUSH1 0x0 PUSH2 0x12D5 PUSH1 0x2F DUP4 PUSH2 0x162E JUMP JUMPDEST SWAP2 POP PUSH2 0x12E0 DUP3 PUSH2 0x18B6 JUMP JUMPDEST PUSH1 0x40 DUP3 ADD SWAP1 POP SWAP2 SWAP1 POP JUMP JUMPDEST PUSH1 0x0 PUSH2 0x12F8 PUSH1 0x14 DUP4 PUSH2 0x162E JUMP JUMPDEST SWAP2 POP PUSH2 0x1303 DUP3 PUSH2 0x1905 JUMP JUMPDEST PUSH1 0x20 DUP3 ADD SWAP1 POP SWAP2 SWAP1 POP JUMP JUMPDEST PUSH1 0x0 PUSH2 0x131B PUSH1 0x2B DUP4 PUSH2 0x162E JUMP JUMPDEST SWAP2 POP PUSH2 0x1326 DUP3 PUSH2 0x192E JUMP JUMPDEST PUSH1 0x40 DUP3 ADD SWAP1 POP SWAP2 SWAP1 POP JUMP JUMPDEST PUSH1 0x0 PUSH2 0x133E PUSH1 0x1A DUP4 PUSH2 0x162E JUMP JUMPDEST SWAP2 POP PUSH2 0x1349 DUP3 PUSH2 0x197D JUMP JUMPDEST PUSH1 0x20 DUP3 ADD SWAP1 POP SWAP2 SWAP1 POP JUMP JUMPDEST PUSH1 0x0 PUSH1 0x60 DUP4 ADD PUSH1 0x0 DUP4 ADD MLOAD DUP5 DUP3 SUB PUSH1 0x0 DUP7 ADD MSTORE PUSH2 0x1371 DUP3 DUP3 PUSH2 0x11D6 JUMP JUMPDEST SWAP2 POP POP PUSH1 0x20 DUP4 ADD MLOAD DUP5 DUP3 SUB PUSH1 0x20 DUP7 ADD MSTORE PUSH2 0x138B DUP3 DUP3 PUSH2 0x11D6 JUMP JUMPDEST SWAP2 POP POP PUSH1 0x40 DUP4 ADD MLOAD PUSH2 0x13A0 PUSH1 0x40 DUP7 ADD DUP3 PUSH2 0x13AB JUMP JUMPDEST POP DUP1 SWAP2 POP POP SWAP3 SWAP2 POP POP JUMP JUMPDEST PUSH2 0x13B4 DUP2 PUSH2 0x16D3 JUMP JUMPDEST DUP3 MSTORE POP POP JUMP JUMPDEST PUSH2 0x13C3 DUP2 PUSH2 0x16D3 JUMP JUMPDEST DUP3 MSTORE POP POP JUMP JUMPDEST PUSH1 0x0 PUSH1 0x20 DUP3 ADD SWAP1 POP PUSH2 0x13DE PUSH1 0x0 DUP4 ADD DUP5 PUSH2 0x1143 JUMP JUMPDEST SWAP3 SWAP2 POP POP JUMP JUMPDEST PUSH1 0x0 PUSH1 0x20 DUP3 ADD SWAP1 POP DUP2 DUP2 SUB PUSH1 0x0 DUP4 ADD MSTORE PUSH2 0x13FE DUP2 DUP5 PUSH2 0x1152 JUMP JUMPDEST SWAP1 POP SWAP3 SWAP2 POP POP JUMP JUMPDEST PUSH1 0x0 PUSH1 0x20 DUP3 ADD SWAP1 POP PUSH2 0x141B PUSH1 0x0 DUP4 ADD DUP5 PUSH2 0x11C7 JUMP JUMPDEST SWAP3 SWAP2 POP POP JUMP JUMPDEST PUSH1 0x0 PUSH1 0x40 DUP3 ADD SWAP1 POP PUSH2 0x1436 PUSH1 0x0 DUP4 ADD DUP6 PUSH2 0x11C7 JUMP JUMPDEST PUSH2 0x1443 PUSH1 0x20 DUP4 ADD DUP5 PUSH2 0x11C7 JUMP JUMPDEST SWAP4 SWAP3 POP POP POP JUMP JUMPDEST PUSH1 0x0 PUSH1 0x20 DUP3 ADD SWAP1 POP DUP2 DUP2 SUB PUSH1 0x0 DUP4 ADD MSTORE PUSH2 0x1464 DUP2 DUP5 PUSH2 0x120F JUMP JUMPDEST SWAP1 POP SWAP3 SWAP2 POP POP JUMP JUMPDEST PUSH1 0x0 PUSH1 0x60 DUP3 ADD SWAP1 POP DUP2 DUP2 SUB PUSH1 0x0 DUP4 ADD MSTORE PUSH2 0x1486 DUP2 DUP7 PUSH2 0x120F JUMP JUMPDEST SWAP1 POP DUP2 DUP2 SUB PUSH1 0x20 DUP4 ADD MSTORE PUSH2 0x149A DUP2 DUP6 PUSH2 0x120F JUMP JUMPDEST SWAP1 POP PUSH2 0x14A9 PUSH1 0x40 DUP4 ADD DUP5 PUSH2 0x13BA JUMP JUMPDEST SWAP5 SWAP4 POP POP POP POP JUMP JUMPDEST PUSH1 0x0 PUSH1 0x20 DUP3 ADD SWAP1 POP DUP2 DUP2 SUB PUSH1 0x0 DUP4 ADD MSTORE PUSH2 0x14CB DUP2 DUP5 PUSH2 0x1248 JUMP JUMPDEST SWAP1 POP SWAP3 SWAP2 POP POP JUMP JUMPDEST PUSH1 0x0 PUSH1 0x20 DUP3 ADD SWAP1 POP DUP2 DUP2 SUB PUSH1 0x0 DUP4 ADD MSTORE PUSH2 0x14EC DUP2 PUSH2 0x12C8 JUMP JUMPDEST SWAP1 POP SWAP2 SWAP1 POP JUMP JUMPDEST PUSH1 0x0 PUSH1 0x20 DUP3 ADD SWAP1 POP DUP2 DUP2 SUB PUSH1 0x0 DUP4 ADD MSTORE PUSH2 0x150C DUP2 PUSH2 0x12EB JUMP JUMPDEST SWAP1 POP SWAP2 SWAP1 POP JUMP JUMPDEST PUSH1 0x0 PUSH1 0x20 DUP3 ADD SWAP1 POP DUP2 DUP2 SUB PUSH1 0x0 DUP4 ADD MSTORE PUSH2 0x152C DUP2 PUSH2 0x130E JUMP JUMPDEST SWAP1 POP SWAP2 SWAP1 POP JUMP JUMPDEST PUSH1 0x0 PUSH1 0x20 DUP3 ADD SWAP1 POP DUP2 DUP2 SUB PUSH1 0x0 DUP4 ADD MSTORE PUSH2 0x154C DUP2 PUSH2 0x1331 JUMP JUMPDEST SWAP1 POP SWAP2 SWAP1 POP JUMP JUMPDEST PUSH1 0x0 PUSH1 0x20 DUP3 ADD SWAP1 POP PUSH2 0x1568 PUSH1 0x0 DUP4 ADD DUP5 PUSH2 0x13BA JUMP JUMPDEST SWAP3 SWAP2 POP POP JUMP JUMPDEST PUSH1 0x0 PUSH2 0x1578 PUSH2 0x1589 JUMP JUMPDEST SWAP1 POP PUSH2 0x1584 DUP3 DUP3 PUSH2 0x1751 JUMP JUMPDEST SWAP2 SWAP1 POP JUMP JUMPDEST PUSH1 0x0 PUSH1 0x40 MLOAD SWAP1 POP SWAP1 JUMP JUMPDEST PUSH1 0x0 PUSH8 0xFFFFFFFFFFFFFFFF DUP3 GT ISZERO PUSH2 0x15AE JUMPI PUSH2 0x15AD PUSH2 0x1858 JUMP JUMPDEST JUMPDEST PUSH2 0x15B7 DUP3 PUSH2 0x18A5 JUMP JUMPDEST SWAP1 POP PUSH1 0x20 DUP2 ADD SWAP1 POP SWAP2 SWAP1 POP JUMP JUMPDEST PUSH1 0x0 DUP2 SWAP1 POP PUSH1 0x20 DUP3 ADD SWAP1 POP SWAP2 SWAP1 POP JUMP JUMPDEST PUSH1 0x0 DUP2 SWAP1 POP DUP2 PUSH1 0x0 MSTORE PUSH1 0x20 PUSH1 0x0 KECCAK256 SWAP1 POP SWAP2 SWAP1 POP JUMP JUMPDEST PUSH1 0x0 DUP2 MLOAD SWAP1 POP SWAP2 SWAP1 POP JUMP JUMPDEST PUSH1 0x0 DUP2 MLOAD SWAP1 POP SWAP2 SWAP1 POP JUMP JUMPDEST PUSH1 0x0 PUSH1 0x20 DUP3 ADD SWAP1 POP SWAP2 SWAP1 POP JUMP JUMPDEST PUSH1 0x0 DUP3 DUP3 MSTORE PUSH1 0x20 DUP3 ADD SWAP1 POP SWAP3 SWAP2 POP POP JUMP JUMPDEST PUSH1 0x0 DUP3 DUP3 MSTORE PUSH1 0x20 DUP3 ADD SWAP1 POP SWAP3 SWAP2 POP POP JUMP JUMPDEST PUSH1 0x0 DUP3 DUP3 MSTORE PUSH1 0x20 DUP3 ADD SWAP1 POP SWAP3 SWAP2 POP POP JUMP JUMPDEST PUSH1 0x0 PUSH2 0x164A DUP3 PUSH2 0x16D3 JUMP JUMPDEST SWAP2 POP PUSH2 0x1655 DUP4 PUSH2 0x16D3 JUMP JUMPDEST SWAP3 POP DUP3 PUSH32 0xFFFFFFFFFFFFFFFFFFFFFFFFFFFFFFFFFFFFFFFFFFFFFFFFFFFFFFFFFFFFFFFF SUB DUP3 GT ISZERO PUSH2 0x168A JUMPI PUSH2 0x1689 PUSH2 0x17CB JUMP JUMPDEST JUMPDEST DUP3 DUP3 ADD SWAP1 POP SWAP3 SWAP2 POP POP JUMP JUMPDEST PUSH1 0x0 PUSH2 0x16A0 DUP3 PUSH2 0x16B3 JUMP JUMPDEST SWAP1 POP SWAP2 SWAP1 POP JUMP JUMPDEST PUSH1 0x0 DUP2 ISZERO ISZERO SWAP1 POP SWAP2 SWAP1 POP JUMP JUMPDEST PUSH1 0x0 PUSH20 0xFFFFFFFFFFFFFFFFFFFFFFFFFFFFFFFFFFFFFFFF DUP3 AND SWAP1 POP SWAP2 SWAP1 POP JUMP JUMPDEST PUSH1 0x0 DUP2 SWAP1 POP SWAP2 SWAP1 POP JUMP JUMPDEST DUP3 DUP2 DUP4 CALLDATACOPY PUSH1 0x0 DUP4 DUP4 ADD MSTORE POP POP POP JUMP JUMPDEST PUSH1 0x0 JUMPDEST DUP4 DUP2 LT ISZERO PUSH2 0x170A JUMPI DUP1 DUP3 ADD MLOAD DUP2 DUP5 ADD MSTORE PUSH1 0x20 DUP2 ADD SWAP1 POP PUSH2 0x16EF JUMP JUMPDEST DUP4 DUP2 GT ISZERO PUSH2 0x1719 JUMPI PUSH1 0x0 DUP5 DUP5 ADD MSTORE JUMPDEST POP POP POP POP JUMP JUMPDEST PUSH1 0x0 PUSH1 0x2 DUP3 DIV SWAP1 POP PUSH1 0x1 DUP3 AND DUP1 PUSH2 0x1737 JUMPI PUSH1 0x7F DUP3 AND SWAP2 POP JUMPDEST PUSH1 0x20 DUP3 LT DUP2 EQ ISZERO PUSH2 0x174B JUMPI PUSH2 0x174A PUSH2 0x17FA JUMP JUMPDEST JUMPDEST POP SWAP2 SWAP1 POP JUMP JUMPDEST PUSH2 0x175A DUP3 PUSH2 0x18A5 JUMP JUMPDEST DUP2 ADD DUP2 DUP2 LT PUSH8 0xFFFFFFFFFFFFFFFF DUP3 GT OR ISZERO PUSH2 0x1779 JUMPI PUSH2 0x1778 PUSH2 0x1858 JUMP JUMPDEST JUMPDEST DUP1 PUSH1 0x40 MSTORE POP POP POP JUMP JUMPDEST PUSH1 0x0 PUSH2 0x178D DUP3 PUSH2 0x16D3 JUMP JUMPDEST SWAP2 POP PUSH32 0xFFFFFFFFFFFFFFFFFFFFFFFFFFFFFFFFFFFFFFFFFFFFFFFFFFFFFFFFFFFFFFFF DUP3 EQ ISZERO PUSH2 0x17C0 JUMPI PUSH2 0x17BF PUSH2 0x17CB JUMP JUMPDEST JUMPDEST PUSH1 0x1 DUP3 ADD SWAP1 POP SWAP2 SWAP1 POP JUMP JUMPDEST PUSH32 0x4E487B7100000000000000000000000000000000000000000000000000000000 PUSH1 0x0 MSTORE PUSH1 0x11 PUSH1 0x4 MSTORE PUSH1 0x24 PUSH1 0x0 REVERT JUMPDEST PUSH32 0x4E487B7100000000000000000000000000000000000000000000000000000000 PUSH1 0x0 MSTORE PUSH1 0x22 PUSH1 0x4 MSTORE PUSH1 0x24 PUSH1 0x0 REVERT JUMPDEST PUSH32 0x4E487B7100000000000000000000000000000000000000000000000000000000 PUSH1 0x0 MSTORE PUSH1 0x32 PUSH1 0x4 MSTORE PUSH1 0x24 PUSH1 0x0 REVERT JUMPDEST PUSH32 0x4E487B7100000000000000000000000000000000000000000000000000000000 PUSH1 0x0 MSTORE PUSH1 0x41 PUSH1 0x4 MSTORE PUSH1 0x24 PUSH1 0x0 REVERT JUMPDEST PUSH1 0x0 DUP1 REVERT JUMPDEST PUSH1 0x0 DUP1 REVERT JUMPDEST PUSH1 0x0 DUP1 REVERT JUMPDEST PUSH1 0x0 DUP1 REVERT JUMPDEST PUSH1 0x0 DUP1 REVERT JUMPDEST PUSH1 0x0 DUP1 REVERT JUMPDEST PUSH1 0x0 PUSH1 0x1F NOT PUSH1 0x1F DUP4 ADD AND SWAP1 POP SWAP2 SWAP1 POP JUMP JUMPDEST PUSH32 0x4F6E6C792074686520636F6E7472616374206F776E65722063616E2067697665 PUSH1 0x0 DUP3 ADD MSTORE PUSH32 0x20726967687420746F20766F74652E0000000000000000000000000000000000 PUSH1 0x20 DUP3 ADD MSTORE POP JUMP JUMPDEST PUSH32 0x566F74657220616C726561647920766F7465642E000000000000000000000000 PUSH1 0x0 DUP3 ADD MSTORE POP JUMP JUMPDEST PUSH32 0x4F6E6C792074686520636F6E7472616374206F776E65722063616E2061646420 PUSH1 0x0 DUP3 ADD MSTORE PUSH32 0x63616E646964617465732E000000000000000000000000000000000000000000 PUSH1 0x20 DUP3 ADD MSTORE POP JUMP JUMPDEST PUSH32 0x596F752068617665206E6F7420726967687420746F20766F7465000000000000 PUSH1 0x0 DUP3 ADD MSTORE POP JUMP JUMPDEST PUSH2 0x19AF DUP2 PUSH2 0x1695 JUMP JUMPDEST DUP2 EQ PUSH2 0x19BA JUMPI PUSH1 0x0 DUP1 REVERT JUMPDEST POP JUMP JUMPDEST PUSH2 0x19C6 DUP2 PUSH2 0x16D3 JUMP JUMPDEST DUP2 EQ PUSH2 0x19D1 JUMPI PUSH1 0x0 DUP1 REVERT JUMPDEST POP JUMP INVALID LOG2 PUSH5 0x6970667358 0x22 SLT KECCAK256 0xD0 SGT MSTORE 0xEC 0xC2 SWAP16 PUSH28 0xE697E2DE556A8FD6FDD78B7A883160880D5F8011670A07F3B664736F PUSH13 0x63430008070033000000000000 "
				},
				"gasEstimates": {
					"creation": {
						"codeDepositCost": "1333200",
						"executionCost": "infinite",
						"totalCost": "infinite"
					},
					"external": {
						"addCandidateAsStruct((string,string,uint256))": "infinite",
						"addCandidateWithSpreadParameters(string,string)": "infinite",
						"areYouContractOwner()": "2563",
						"areYouHaveRigthToVote()": "2661",
						"areYouVoted()": "2689",
						"calculateAmountOfTotalVotes()": "infinite",
						"candidates(uint256)": "infinite",
						"contractOwner()": "2600",
						"getCandidatesList()": "infinite",
						"getContractAddress()": "408",
						"getWinnerName()": "infinite",
						"getWinningCandidate()": "infinite",
						"giveRightToVote(address)": "29418",
						"isAnyoneHaveRigthToVote(address)": "2955",
						"isVoterVoted(address)": "3050",
						"totalVotes()": "2475",
						"vote(string)": "infinite",
						"voters(address)": "infinite"
					}
				},
				"methodIdentifiers": {
					"addCandidateAsStruct((string,string,uint256))": "954115f2",
					"addCandidateWithSpreadParameters(string,string)": "10508439",
					"areYouContractOwner()": "3ddf3822",
					"areYouHaveRigthToVote()": "df703622",
					"areYouVoted()": "da265430",
					"calculateAmountOfTotalVotes()": "01c5556a",
					"candidates(uint256)": "3477ee2e",
					"contractOwner()": "ce606ee0",
					"getCandidatesList()": "4aba5f34",
					"getContractAddress()": "32a2c5d0",
					"getWinnerName()": "2bfda515",
					"getWinningCandidate()": "f927cc29",
					"giveRightToVote(address)": "9e7b8d61",
					"isAnyoneHaveRigthToVote(address)": "eacc4e3f",
					"isVoterVoted(address)": "743f7666",
					"totalVotes()": "0d15fd77",
					"vote(string)": "fc36e15b",
					"voters(address)": "a3ec138d"
				}
			},
			"storageLayout": {
				"storage": [
					{
						"astId": 15,
						"contract": "contracts/Ballot/MyBallot.sol:MyBallot",
						"label": "contractOwner",
						"offset": 0,
						"slot": "0",
						"type": "t_address"
					},
					{
						"astId": 20,
						"contract": "contracts/Ballot/MyBallot.sol:MyBallot",
						"label": "voters",
						"offset": 0,
						"slot": "1",
						"type": "t_mapping(t_address,t_struct(Voter)6_storage)"
					},
					{
						"astId": 24,
						"contract": "contracts/Ballot/MyBallot.sol:MyBallot",
						"label": "candidates",
						"offset": 0,
						"slot": "2",
						"type": "t_array(t_struct(Candidate)13_storage)dyn_storage"
					},
					{
						"astId": 26,
						"contract": "contracts/Ballot/MyBallot.sol:MyBallot",
						"label": "totalVotes",
						"offset": 0,
						"slot": "3",
						"type": "t_uint256"
					}
				],
				"types": {
					"t_address": {
						"encoding": "inplace",
						"label": "address",
						"numberOfBytes": "20"
					},
					"t_array(t_struct(Candidate)13_storage)dyn_storage": {
						"base": "t_struct(Candidate)13_storage",
						"encoding": "dynamic_array",
						"label": "struct MyBallot.Candidate[]",
						"numberOfBytes": "32"
					},
					"t_bool": {
						"encoding": "inplace",
						"label": "bool",
						"numberOfBytes": "1"
					},
					"t_mapping(t_address,t_struct(Voter)6_storage)": {
						"encoding": "mapping",
						"key": "t_address",
						"label": "mapping(address => struct MyBallot.Voter)",
						"numberOfBytes": "32",
						"value": "t_struct(Voter)6_storage"
					},
					"t_string_storage": {
						"encoding": "bytes",
						"label": "string",
						"numberOfBytes": "32"
					},
					"t_struct(Candidate)13_storage": {
						"encoding": "inplace",
						"label": "struct MyBallot.Candidate",
						"members": [
							{
								"astId": 8,
								"contract": "contracts/Ballot/MyBallot.sol:MyBallot",
								"label": "name",
								"offset": 0,
								"slot": "0",
								"type": "t_string_storage"
							},
							{
								"astId": 10,
								"contract": "contracts/Ballot/MyBallot.sol:MyBallot",
								"label": "party",
								"offset": 0,
								"slot": "1",
								"type": "t_string_storage"
							},
							{
								"astId": 12,
								"contract": "contracts/Ballot/MyBallot.sol:MyBallot",
								"label": "votesCount",
								"offset": 0,
								"slot": "2",
								"type": "t_uint256"
							}
						],
						"numberOfBytes": "96"
					},
					"t_struct(Voter)6_storage": {
						"encoding": "inplace",
						"label": "struct MyBallot.Voter",
						"members": [
							{
								"astId": 3,
								"contract": "contracts/Ballot/MyBallot.sol:MyBallot",
								"label": "canVote",
								"offset": 0,
								"slot": "0",
								"type": "t_bool"
							},
							{
								"astId": 5,
								"contract": "contracts/Ballot/MyBallot.sol:MyBallot",
								"label": "hasVoted",
								"offset": 1,
								"slot": "0",
								"type": "t_bool"
							}
						],
						"numberOfBytes": "32"
					},
					"t_uint256": {
						"encoding": "inplace",
						"label": "uint256",
						"numberOfBytes": "32"
					}
				}
			},
			"userdoc": {
				"kind": "user",
				"methods": {},
				"version": 1
			}
		}
	}
}