{
	"contracts/Ballot/MyBallot.sol": {
		"MyBallot": {
			"abi": [
				{
					"inputs": [
						{
							"internalType": "string[]",
							"name": "proposalCandidatesName",
							"type": "string[]"
						},
						{
							"internalType": "string[]",
							"name": "proposalCandidatesParty",
							"type": "string[]"
						}
					],
					"stateMutability": "nonpayable",
					"type": "constructor"
				},
				{
					"inputs": [
						{
							"internalType": "uint256",
							"name": "",
							"type": "uint256"
						}
					],
					"name": "candidates",
					"outputs": [
						{
							"internalType": "string",
							"name": "name",
							"type": "string"
						},
						{
							"internalType": "string",
							"name": "party",
							"type": "string"
						},
						{
							"internalType": "uint256",
							"name": "votesCount",
							"type": "uint256"
						}
					],
					"stateMutability": "view",
					"type": "function"
				},
				{
					"inputs": [],
					"name": "contractOwner",
					"outputs": [
						{
							"internalType": "address",
							"name": "",
							"type": "address"
						}
					],
					"stateMutability": "view",
					"type": "function"
				},
				{
					"inputs": [],
					"name": "getCandidatesList",
					"outputs": [
						{
							"components": [
								{
									"internalType": "string",
									"name": "name",
									"type": "string"
								},
								{
									"internalType": "string",
									"name": "party",
									"type": "string"
								},
								{
									"internalType": "uint256",
									"name": "votesCount",
									"type": "uint256"
								}
							],
							"internalType": "struct MyBallot.Candidate[]",
							"name": "",
							"type": "tuple[]"
						}
					],
					"stateMutability": "view",
					"type": "function"
				},
				{
					"inputs": [],
					"name": "getContractAddress",
					"outputs": [
						{
							"internalType": "address",
							"name": "",
							"type": "address"
						}
					],
					"stateMutability": "view",
					"type": "function"
				},
				{
					"inputs": [],
					"name": "getWinnerName",
					"outputs": [
						{
							"internalType": "string",
							"name": "winnerName",
							"type": "string"
						}
					],
					"stateMutability": "view",
					"type": "function"
				},
				{
					"inputs": [],
					"name": "getWinningProposal",
					"outputs": [
						{
							"internalType": "uint256",
							"name": "winningProposal",
							"type": "uint256"
						}
					],
					"stateMutability": "view",
					"type": "function"
				},
				{
					"inputs": [
						{
							"internalType": "address",
							"name": "voter",
							"type": "address"
						}
					],
					"name": "giveRightToVote",
					"outputs": [],
					"stateMutability": "nonpayable",
					"type": "function"
				},
				{
					"inputs": [
						{
							"internalType": "string",
							"name": "name",
							"type": "string"
						}
					],
					"name": "vote",
					"outputs": [],
					"stateMutability": "nonpayable",
					"type": "function"
				},
				{
					"inputs": [
						{
							"internalType": "address",
							"name": "",
							"type": "address"
						}
					],
					"name": "voters",
					"outputs": [
						{
							"internalType": "bool",
							"name": "canVote",
							"type": "bool"
						},
						{
							"internalType": "bool",
							"name": "hasVoted",
							"type": "bool"
						}
					],
					"stateMutability": "view",
					"type": "function"
				}
			],
			"devdoc": {
				"kind": "dev",
				"methods": {},
				"version": 1
			},
			"evm": {
				"assembly": "    /* \"contracts/Ballot/MyBallot.sol\":132:2687  contract MyBallot {... */\n  mstore(0x40, 0x80)\n    /* \"contracts/Ballot/MyBallot.sol\":501:942  constructor(string[] memory proposalCandidatesName, string[] memory proposalCandidatesParty) {... */\n  callvalue\n  dup1\n  iszero\n  tag_1\n  jumpi\n  0x00\n  dup1\n  revert\ntag_1:\n  pop\n  mload(0x40)\n  sub(codesize, bytecodeSize)\n  dup1\n  bytecodeSize\n  dup4\n  codecopy\n  dup2\n  dup2\n  add\n  0x40\n  mstore\n  dup2\n  add\n  swap1\n  tag_2\n  swap2\n  swap1\n  tag_3\n  jump\t// in\ntag_2:\n    /* \"contracts/Ballot/MyBallot.sol\":631:641  msg.sender */\n  caller\n    /* \"contracts/Ballot/MyBallot.sol\":615:628  contractOwner */\n  0x00\n  dup1\n    /* \"contracts/Ballot/MyBallot.sol\":615:641  contractOwner = msg.sender */\n  0x0100\n  exp\n  dup2\n  sload\n  dup2\n  0xffffffffffffffffffffffffffffffffffffffff\n  mul\n  not\n  and\n  swap1\n  dup4\n  0xffffffffffffffffffffffffffffffffffffffff\n  and\n  mul\n  or\n  swap1\n  sstore\n  pop\n    /* \"contracts/Ballot/MyBallot.sol\":659:669  uint index */\n  0x00\n    /* \"contracts/Ballot/MyBallot.sol\":654:935  for (uint index = 0; index < proposalCandidatesName.length; index++) {... */\ntag_6:\n    /* \"contracts/Ballot/MyBallot.sol\":683:705  proposalCandidatesName */\n  dup3\n    /* \"contracts/Ballot/MyBallot.sol\":683:712  proposalCandidatesName.length */\n  mload\n    /* \"contracts/Ballot/MyBallot.sol\":675:680  index */\n  dup2\n    /* \"contracts/Ballot/MyBallot.sol\":675:712  index < proposalCandidatesName.length */\n  lt\n    /* \"contracts/Ballot/MyBallot.sol\":654:935  for (uint index = 0; index < proposalCandidatesName.length; index++) {... */\n  iszero\n  tag_7\n  jumpi\n    /* \"contracts/Ballot/MyBallot.sol\":738:748  candidates */\n  0x02\n    /* \"contracts/Ballot/MyBallot.sol\":754:922  Candidate({... */\n  mload(0x40)\n  dup1\n  0x60\n  add\n  0x40\n  mstore\n  dup1\n    /* \"contracts/Ballot/MyBallot.sol\":789:811  proposalCandidatesName */\n  dup6\n    /* \"contracts/Ballot/MyBallot.sol\":812:817  index */\n  dup5\n    /* \"contracts/Ballot/MyBallot.sol\":789:818  proposalCandidatesName[index] */\n  dup2\n  mload\n  dup2\n  lt\n  tag_9\n  jumpi\n  tag_10\n  tag_11\n  jump\t// in\ntag_10:\ntag_9:\n  0x20\n  mul\n  0x20\n  add\n  add\n  mload\n    /* \"contracts/Ballot/MyBallot.sol\":754:922  Candidate({... */\n  dup2\n  mstore\n  0x20\n  add\n    /* \"contracts/Ballot/MyBallot.sol\":844:867  proposalCandidatesParty */\n  dup5\n    /* \"contracts/Ballot/MyBallot.sol\":868:873  index */\n  dup5\n    /* \"contracts/Ballot/MyBallot.sol\":844:874  proposalCandidatesParty[index] */\n  dup2\n  mload\n  dup2\n  lt\n  tag_12\n  jumpi\n  tag_13\n  tag_11\n  jump\t// in\ntag_13:\ntag_12:\n  0x20\n  mul\n  0x20\n  add\n  add\n  mload\n    /* \"contracts/Ballot/MyBallot.sol\":754:922  Candidate({... */\n  dup2\n  mstore\n  0x20\n  add\n    /* \"contracts/Ballot/MyBallot.sol\":905:906  0 */\n  0x00\n    /* \"contracts/Ballot/MyBallot.sol\":754:922  Candidate({... */\n  dup2\n  mstore\n  pop\n    /* \"contracts/Ballot/MyBallot.sol\":738:923  candidates.push(Candidate({... */\n  swap1\n  dup1\n  0x01\n  dup2\n  sload\n  add\n  dup1\n  dup3\n  sstore\n  dup1\n  swap2\n  pop\n  pop\n  0x01\n  swap1\n  sub\n  swap1\n  0x00\n  mstore\n  keccak256(0x00, 0x20)\n  swap1\n  0x03\n  mul\n  add\n  0x00\n  swap1\n  swap2\n  swap1\n  swap2\n  swap1\n  swap2\n  pop\n  0x00\n  dup3\n  add\n  mload\n  dup2\n  0x00\n  add\n  swap1\n  dup2\n  tag_15\n  swap2\n  swap1\n  tag_16\n  jump\t// in\ntag_15:\n  pop\n  0x20\n  dup3\n  add\n  mload\n  dup2\n  0x01\n  add\n  swap1\n  dup2\n  tag_17\n  swap2\n  swap1\n  tag_16\n  jump\t// in\ntag_17:\n  pop\n  0x40\n  dup3\n  add\n  mload\n  dup2\n  0x02\n  add\n  sstore\n  pop\n  pop\n    /* \"contracts/Ballot/MyBallot.sol\":714:721  index++ */\n  dup1\n  dup1\n  tag_18\n  swap1\n  tag_19\n  jump\t// in\ntag_18:\n  swap2\n  pop\n  pop\n    /* \"contracts/Ballot/MyBallot.sol\":654:935  for (uint index = 0; index < proposalCandidatesName.length; index++) {... */\n  jump(tag_6)\ntag_7:\n  pop\n    /* \"contracts/Ballot/MyBallot.sol\":501:942  constructor(string[] memory proposalCandidatesName, string[] memory proposalCandidatesParty) {... */\n  pop\n  pop\n    /* \"contracts/Ballot/MyBallot.sol\":132:2687  contract MyBallot {... */\n  jump(tag_20)\n    /* \"#utility.yul\":7:82   */\ntag_21:\n    /* \"#utility.yul\":40:46   */\n  0x00\n    /* \"#utility.yul\":73:75   */\n  0x40\n    /* \"#utility.yul\":67:76   */\n  mload\n    /* \"#utility.yul\":57:76   */\n  swap1\n  pop\n    /* \"#utility.yul\":7:82   */\n  swap1\n  jump\t// out\n    /* \"#utility.yul\":88:205   */\ntag_22:\n    /* \"#utility.yul\":197:198   */\n  0x00\n    /* \"#utility.yul\":194:195   */\n  dup1\n    /* \"#utility.yul\":187:199   */\n  revert\n    /* \"#utility.yul\":211:328   */\ntag_23:\n    /* \"#utility.yul\":320:321   */\n  0x00\n    /* \"#utility.yul\":317:318   */\n  dup1\n    /* \"#utility.yul\":310:322   */\n  revert\n    /* \"#utility.yul\":334:451   */\ntag_24:\n    /* \"#utility.yul\":443:444   */\n  0x00\n    /* \"#utility.yul\":440:441   */\n  dup1\n    /* \"#utility.yul\":433:445   */\n  revert\n    /* \"#utility.yul\":457:559   */\ntag_25:\n    /* \"#utility.yul\":498:504   */\n  0x00\n    /* \"#utility.yul\":549:551   */\n  0x1f\n    /* \"#utility.yul\":545:552   */\n  not\n    /* \"#utility.yul\":540:542   */\n  0x1f\n    /* \"#utility.yul\":533:538   */\n  dup4\n    /* \"#utility.yul\":529:543   */\n  add\n    /* \"#utility.yul\":525:553   */\n  and\n    /* \"#utility.yul\":515:553   */\n  swap1\n  pop\n    /* \"#utility.yul\":457:559   */\n  swap2\n  swap1\n  pop\n  jump\t// out\n    /* \"#utility.yul\":565:745   */\ntag_26:\n    /* \"#utility.yul\":613:690   */\n  0x4e487b7100000000000000000000000000000000000000000000000000000000\n    /* \"#utility.yul\":610:611   */\n  0x00\n    /* \"#utility.yul\":603:691   */\n  mstore\n    /* \"#utility.yul\":710:714   */\n  0x41\n    /* \"#utility.yul\":707:708   */\n  0x04\n    /* \"#utility.yul\":700:715   */\n  mstore\n    /* \"#utility.yul\":734:738   */\n  0x24\n    /* \"#utility.yul\":731:732   */\n  0x00\n    /* \"#utility.yul\":724:739   */\n  revert\n    /* \"#utility.yul\":751:1032   */\ntag_27:\n    /* \"#utility.yul\":834:861   */\n  tag_66\n    /* \"#utility.yul\":856:860   */\n  dup3\n    /* \"#utility.yul\":834:861   */\n  tag_25\n  jump\t// in\ntag_66:\n    /* \"#utility.yul\":826:832   */\n  dup2\n    /* \"#utility.yul\":822:862   */\n  add\n    /* \"#utility.yul\":964:970   */\n  dup2\n    /* \"#utility.yul\":952:962   */\n  dup2\n    /* \"#utility.yul\":949:971   */\n  lt\n    /* \"#utility.yul\":928:946   */\n  0xffffffffffffffff\n    /* \"#utility.yul\":916:926   */\n  dup3\n    /* \"#utility.yul\":913:947   */\n  gt\n    /* \"#utility.yul\":910:972   */\n  or\n    /* \"#utility.yul\":907:995   */\n  iszero\n  tag_67\n  jumpi\n    /* \"#utility.yul\":975:993   */\n  tag_68\n  tag_26\n  jump\t// in\ntag_68:\n    /* \"#utility.yul\":907:995   */\ntag_67:\n    /* \"#utility.yul\":1015:1025   */\n  dup1\n    /* \"#utility.yul\":1011:1013   */\n  0x40\n    /* \"#utility.yul\":1004:1026   */\n  mstore\n    /* \"#utility.yul\":794:1032   */\n  pop\n    /* \"#utility.yul\":751:1032   */\n  pop\n  pop\n  jump\t// out\n    /* \"#utility.yul\":1038:1167   */\ntag_28:\n    /* \"#utility.yul\":1072:1078   */\n  0x00\n    /* \"#utility.yul\":1099:1119   */\n  tag_70\n  tag_21\n  jump\t// in\ntag_70:\n    /* \"#utility.yul\":1089:1119   */\n  swap1\n  pop\n    /* \"#utility.yul\":1128:1161   */\n  tag_71\n    /* \"#utility.yul\":1156:1160   */\n  dup3\n    /* \"#utility.yul\":1148:1154   */\n  dup3\n    /* \"#utility.yul\":1128:1161   */\n  tag_27\n  jump\t// in\ntag_71:\n    /* \"#utility.yul\":1038:1167   */\n  swap2\n  swap1\n  pop\n  jump\t// out\n    /* \"#utility.yul\":1173:1494   */\ntag_29:\n    /* \"#utility.yul\":1260:1264   */\n  0x00\n    /* \"#utility.yul\":1350:1368   */\n  0xffffffffffffffff\n    /* \"#utility.yul\":1342:1348   */\n  dup3\n    /* \"#utility.yul\":1339:1369   */\n  gt\n    /* \"#utility.yul\":1336:1392   */\n  iszero\n  tag_73\n  jumpi\n    /* \"#utility.yul\":1372:1390   */\n  tag_74\n  tag_26\n  jump\t// in\ntag_74:\n    /* \"#utility.yul\":1336:1392   */\ntag_73:\n    /* \"#utility.yul\":1422:1426   */\n  0x20\n    /* \"#utility.yul\":1414:1420   */\n  dup3\n    /* \"#utility.yul\":1410:1427   */\n  mul\n    /* \"#utility.yul\":1402:1427   */\n  swap1\n  pop\n    /* \"#utility.yul\":1482:1486   */\n  0x20\n    /* \"#utility.yul\":1476:1480   */\n  dup2\n    /* \"#utility.yul\":1472:1487   */\n  add\n    /* \"#utility.yul\":1464:1487   */\n  swap1\n  pop\n    /* \"#utility.yul\":1173:1494   */\n  swap2\n  swap1\n  pop\n  jump\t// out\n    /* \"#utility.yul\":1500:1617   */\ntag_30:\n    /* \"#utility.yul\":1609:1610   */\n  0x00\n    /* \"#utility.yul\":1606:1607   */\n  dup1\n    /* \"#utility.yul\":1599:1611   */\n  revert\n    /* \"#utility.yul\":1623:1740   */\ntag_31:\n    /* \"#utility.yul\":1732:1733   */\n  0x00\n    /* \"#utility.yul\":1729:1730   */\n  dup1\n    /* \"#utility.yul\":1722:1734   */\n  revert\n    /* \"#utility.yul\":1746:2054   */\ntag_32:\n    /* \"#utility.yul\":1808:1812   */\n  0x00\n    /* \"#utility.yul\":1898:1916   */\n  0xffffffffffffffff\n    /* \"#utility.yul\":1890:1896   */\n  dup3\n    /* \"#utility.yul\":1887:1917   */\n  gt\n    /* \"#utility.yul\":1884:1940   */\n  iszero\n  tag_78\n  jumpi\n    /* \"#utility.yul\":1920:1938   */\n  tag_79\n  tag_26\n  jump\t// in\ntag_79:\n    /* \"#utility.yul\":1884:1940   */\ntag_78:\n    /* \"#utility.yul\":1958:1987   */\n  tag_80\n    /* \"#utility.yul\":1980:1986   */\n  dup3\n    /* \"#utility.yul\":1958:1987   */\n  tag_25\n  jump\t// in\ntag_80:\n    /* \"#utility.yul\":1950:1987   */\n  swap1\n  pop\n    /* \"#utility.yul\":2042:2046   */\n  0x20\n    /* \"#utility.yul\":2036:2040   */\n  dup2\n    /* \"#utility.yul\":2032:2047   */\n  add\n    /* \"#utility.yul\":2024:2047   */\n  swap1\n  pop\n    /* \"#utility.yul\":1746:2054   */\n  swap2\n  swap1\n  pop\n  jump\t// out\n    /* \"#utility.yul\":2060:2306   */\ntag_33:\n    /* \"#utility.yul\":2141:2142   */\n  0x00\n    /* \"#utility.yul\":2151:2264   */\ntag_82:\n    /* \"#utility.yul\":2165:2171   */\n  dup4\n    /* \"#utility.yul\":2162:2163   */\n  dup2\n    /* \"#utility.yul\":2159:2172   */\n  lt\n    /* \"#utility.yul\":2151:2264   */\n  iszero\n  tag_84\n  jumpi\n    /* \"#utility.yul\":2250:2251   */\n  dup1\n    /* \"#utility.yul\":2245:2248   */\n  dup3\n    /* \"#utility.yul\":2241:2252   */\n  add\n    /* \"#utility.yul\":2235:2253   */\n  mload\n    /* \"#utility.yul\":2231:2232   */\n  dup2\n    /* \"#utility.yul\":2226:2229   */\n  dup5\n    /* \"#utility.yul\":2222:2233   */\n  add\n    /* \"#utility.yul\":2215:2254   */\n  mstore\n    /* \"#utility.yul\":2187:2189   */\n  0x20\n    /* \"#utility.yul\":2184:2185   */\n  dup2\n    /* \"#utility.yul\":2180:2190   */\n  add\n    /* \"#utility.yul\":2175:2190   */\n  swap1\n  pop\n    /* \"#utility.yul\":2151:2264   */\n  jump(tag_82)\ntag_84:\n    /* \"#utility.yul\":2298:2299   */\n  0x00\n    /* \"#utility.yul\":2289:2295   */\n  dup5\n    /* \"#utility.yul\":2284:2287   */\n  dup5\n    /* \"#utility.yul\":2280:2296   */\n  add\n    /* \"#utility.yul\":2273:2300   */\n  mstore\n    /* \"#utility.yul\":2122:2306   */\n  pop\n    /* \"#utility.yul\":2060:2306   */\n  pop\n  pop\n  pop\n  jump\t// out\n    /* \"#utility.yul\":2312:2746   */\ntag_34:\n    /* \"#utility.yul\":2401:2406   */\n  0x00\n    /* \"#utility.yul\":2426:2492   */\n  tag_86\n    /* \"#utility.yul\":2442:2491   */\n  tag_87\n    /* \"#utility.yul\":2484:2490   */\n  dup5\n    /* \"#utility.yul\":2442:2491   */\n  tag_32\n  jump\t// in\ntag_87:\n    /* \"#utility.yul\":2426:2492   */\n  tag_28\n  jump\t// in\ntag_86:\n    /* \"#utility.yul\":2417:2492   */\n  swap1\n  pop\n    /* \"#utility.yul\":2515:2521   */\n  dup3\n    /* \"#utility.yul\":2508:2513   */\n  dup2\n    /* \"#utility.yul\":2501:2522   */\n  mstore\n    /* \"#utility.yul\":2553:2557   */\n  0x20\n    /* \"#utility.yul\":2546:2551   */\n  dup2\n    /* \"#utility.yul\":2542:2558   */\n  add\n    /* \"#utility.yul\":2591:2594   */\n  dup5\n    /* \"#utility.yul\":2582:2588   */\n  dup5\n    /* \"#utility.yul\":2577:2580   */\n  dup5\n    /* \"#utility.yul\":2573:2589   */\n  add\n    /* \"#utility.yul\":2570:2595   */\n  gt\n    /* \"#utility.yul\":2567:2679   */\n  iszero\n  tag_88\n  jumpi\n    /* \"#utility.yul\":2598:2677   */\n  tag_89\n  tag_31\n  jump\t// in\ntag_89:\n    /* \"#utility.yul\":2567:2679   */\ntag_88:\n    /* \"#utility.yul\":2688:2740   */\n  tag_90\n    /* \"#utility.yul\":2733:2739   */\n  dup5\n    /* \"#utility.yul\":2728:2731   */\n  dup3\n    /* \"#utility.yul\":2723:2726   */\n  dup6\n    /* \"#utility.yul\":2688:2740   */\n  tag_33\n  jump\t// in\ntag_90:\n    /* \"#utility.yul\":2407:2746   */\n  pop\n    /* \"#utility.yul\":2312:2746   */\n  swap4\n  swap3\n  pop\n  pop\n  pop\n  jump\t// out\n    /* \"#utility.yul\":2766:3121   */\ntag_35:\n    /* \"#utility.yul\":2833:2838   */\n  0x00\n    /* \"#utility.yul\":2882:2885   */\n  dup3\n    /* \"#utility.yul\":2875:2879   */\n  0x1f\n    /* \"#utility.yul\":2867:2873   */\n  dup4\n    /* \"#utility.yul\":2863:2880   */\n  add\n    /* \"#utility.yul\":2859:2886   */\n  slt\n    /* \"#utility.yul\":2849:2971   */\n  tag_92\n  jumpi\n    /* \"#utility.yul\":2890:2969   */\n  tag_93\n  tag_24\n  jump\t// in\ntag_93:\n    /* \"#utility.yul\":2849:2971   */\ntag_92:\n    /* \"#utility.yul\":3000:3006   */\n  dup2\n    /* \"#utility.yul\":2994:3007   */\n  mload\n    /* \"#utility.yul\":3025:3115   */\n  tag_94\n    /* \"#utility.yul\":3111:3114   */\n  dup5\n    /* \"#utility.yul\":3103:3109   */\n  dup3\n    /* \"#utility.yul\":3096:3100   */\n  0x20\n    /* \"#utility.yul\":3088:3094   */\n  dup7\n    /* \"#utility.yul\":3084:3101   */\n  add\n    /* \"#utility.yul\":3025:3115   */\n  tag_34\n  jump\t// in\ntag_94:\n    /* \"#utility.yul\":3016:3115   */\n  swap2\n  pop\n    /* \"#utility.yul\":2839:3121   */\n  pop\n    /* \"#utility.yul\":2766:3121   */\n  swap3\n  swap2\n  pop\n  pop\n  jump\t// out\n    /* \"#utility.yul\":3143:4103   */\ntag_36:\n    /* \"#utility.yul\":3260:3265   */\n  0x00\n    /* \"#utility.yul\":3285:3376   */\n  tag_96\n    /* \"#utility.yul\":3301:3375   */\n  tag_97\n    /* \"#utility.yul\":3368:3374   */\n  dup5\n    /* \"#utility.yul\":3301:3375   */\n  tag_29\n  jump\t// in\ntag_97:\n    /* \"#utility.yul\":3285:3376   */\n  tag_28\n  jump\t// in\ntag_96:\n    /* \"#utility.yul\":3276:3376   */\n  swap1\n  pop\n    /* \"#utility.yul\":3396:3401   */\n  dup1\n    /* \"#utility.yul\":3425:3431   */\n  dup4\n    /* \"#utility.yul\":3418:3423   */\n  dup3\n    /* \"#utility.yul\":3411:3432   */\n  mstore\n    /* \"#utility.yul\":3459:3463   */\n  0x20\n    /* \"#utility.yul\":3452:3457   */\n  dup3\n    /* \"#utility.yul\":3448:3464   */\n  add\n    /* \"#utility.yul\":3441:3464   */\n  swap1\n  pop\n    /* \"#utility.yul\":3512:3516   */\n  0x20\n    /* \"#utility.yul\":3504:3510   */\n  dup5\n    /* \"#utility.yul\":3500:3517   */\n  mul\n    /* \"#utility.yul\":3492:3498   */\n  dup4\n    /* \"#utility.yul\":3488:3518   */\n  add\n    /* \"#utility.yul\":3541:3544   */\n  dup6\n    /* \"#utility.yul\":3533:3539   */\n  dup2\n    /* \"#utility.yul\":3530:3545   */\n  gt\n    /* \"#utility.yul\":3527:3649   */\n  iszero\n  tag_98\n  jumpi\n    /* \"#utility.yul\":3560:3639   */\n  tag_99\n  tag_30\n  jump\t// in\ntag_99:\n    /* \"#utility.yul\":3527:3649   */\ntag_98:\n    /* \"#utility.yul\":3675:3681   */\n  dup4\n    /* \"#utility.yul\":3658:4097   */\ntag_100:\n    /* \"#utility.yul\":3692:3698   */\n  dup2\n    /* \"#utility.yul\":3687:3690   */\n  dup2\n    /* \"#utility.yul\":3684:3699   */\n  lt\n    /* \"#utility.yul\":3658:4097   */\n  iszero\n  tag_102\n  jumpi\n    /* \"#utility.yul\":3774:3777   */\n  dup1\n    /* \"#utility.yul\":3768:3778   */\n  mload\n    /* \"#utility.yul\":3810:3828   */\n  0xffffffffffffffff\n    /* \"#utility.yul\":3797:3808   */\n  dup2\n    /* \"#utility.yul\":3794:3829   */\n  gt\n    /* \"#utility.yul\":3791:3913   */\n  iszero\n  tag_103\n  jumpi\n    /* \"#utility.yul\":3832:3911   */\n  tag_104\n  tag_24\n  jump\t// in\ntag_104:\n    /* \"#utility.yul\":3791:3913   */\ntag_103:\n    /* \"#utility.yul\":3956:3967   */\n  dup1\n    /* \"#utility.yul\":3948:3954   */\n  dup7\n    /* \"#utility.yul\":3944:3968   */\n  add\n    /* \"#utility.yul\":3994:4052   */\n  tag_105\n    /* \"#utility.yul\":4048:4051   */\n  dup10\n    /* \"#utility.yul\":4036:4046   */\n  dup3\n    /* \"#utility.yul\":3994:4052   */\n  tag_35\n  jump\t// in\ntag_105:\n    /* \"#utility.yul\":3989:3992   */\n  dup6\n    /* \"#utility.yul\":3982:4053   */\n  mstore\n    /* \"#utility.yul\":4082:4086   */\n  0x20\n    /* \"#utility.yul\":4077:4080   */\n  dup6\n    /* \"#utility.yul\":4073:4087   */\n  add\n    /* \"#utility.yul\":4066:4087   */\n  swap5\n  pop\n    /* \"#utility.yul\":3734:4097   */\n  pop\n  pop\n    /* \"#utility.yul\":3718:3722   */\n  0x20\n    /* \"#utility.yul\":3713:3716   */\n  dup2\n    /* \"#utility.yul\":3709:3723   */\n  add\n    /* \"#utility.yul\":3702:3723   */\n  swap1\n  pop\n    /* \"#utility.yul\":3658:4097   */\n  jump(tag_100)\ntag_102:\n    /* \"#utility.yul\":3662:3683   */\n  pop\n    /* \"#utility.yul\":3266:4103   */\n  pop\n  pop\n    /* \"#utility.yul\":3143:4103   */\n  swap4\n  swap3\n  pop\n  pop\n  pop\n  jump\t// out\n    /* \"#utility.yul\":4125:4530   */\ntag_37:\n    /* \"#utility.yul\":4217:4222   */\n  0x00\n    /* \"#utility.yul\":4266:4269   */\n  dup3\n    /* \"#utility.yul\":4259:4263   */\n  0x1f\n    /* \"#utility.yul\":4251:4257   */\n  dup4\n    /* \"#utility.yul\":4247:4264   */\n  add\n    /* \"#utility.yul\":4243:4270   */\n  slt\n    /* \"#utility.yul\":4233:4355   */\n  tag_107\n  jumpi\n    /* \"#utility.yul\":4274:4353   */\n  tag_108\n  tag_24\n  jump\t// in\ntag_108:\n    /* \"#utility.yul\":4233:4355   */\ntag_107:\n    /* \"#utility.yul\":4384:4390   */\n  dup2\n    /* \"#utility.yul\":4378:4391   */\n  mload\n    /* \"#utility.yul\":4409:4524   */\n  tag_109\n    /* \"#utility.yul\":4520:4523   */\n  dup5\n    /* \"#utility.yul\":4512:4518   */\n  dup3\n    /* \"#utility.yul\":4505:4509   */\n  0x20\n    /* \"#utility.yul\":4497:4503   */\n  dup7\n    /* \"#utility.yul\":4493:4510   */\n  add\n    /* \"#utility.yul\":4409:4524   */\n  tag_36\n  jump\t// in\ntag_109:\n    /* \"#utility.yul\":4400:4524   */\n  swap2\n  pop\n    /* \"#utility.yul\":4223:4530   */\n  pop\n    /* \"#utility.yul\":4125:4530   */\n  swap3\n  swap2\n  pop\n  pop\n  jump\t// out\n    /* \"#utility.yul\":4536:5489   */\ntag_3:\n    /* \"#utility.yul\":4685:4691   */\n  0x00\n    /* \"#utility.yul\":4693:4699   */\n  dup1\n    /* \"#utility.yul\":4742:4744   */\n  0x40\n    /* \"#utility.yul\":4730:4739   */\n  dup4\n    /* \"#utility.yul\":4721:4728   */\n  dup6\n    /* \"#utility.yul\":4717:4740   */\n  sub\n    /* \"#utility.yul\":4713:4745   */\n  slt\n    /* \"#utility.yul\":4710:4829   */\n  iszero\n  tag_111\n  jumpi\n    /* \"#utility.yul\":4748:4827   */\n  tag_112\n  tag_22\n  jump\t// in\ntag_112:\n    /* \"#utility.yul\":4710:4829   */\ntag_111:\n    /* \"#utility.yul\":4889:4890   */\n  0x00\n    /* \"#utility.yul\":4878:4887   */\n  dup4\n    /* \"#utility.yul\":4874:4891   */\n  add\n    /* \"#utility.yul\":4868:4892   */\n  mload\n    /* \"#utility.yul\":4919:4937   */\n  0xffffffffffffffff\n    /* \"#utility.yul\":4911:4917   */\n  dup2\n    /* \"#utility.yul\":4908:4938   */\n  gt\n    /* \"#utility.yul\":4905:5022   */\n  iszero\n  tag_113\n  jumpi\n    /* \"#utility.yul\":4941:5020   */\n  tag_114\n  tag_23\n  jump\t// in\ntag_114:\n    /* \"#utility.yul\":4905:5022   */\ntag_113:\n    /* \"#utility.yul\":5046:5145   */\n  tag_115\n    /* \"#utility.yul\":5137:5144   */\n  dup6\n    /* \"#utility.yul\":5128:5134   */\n  dup3\n    /* \"#utility.yul\":5117:5126   */\n  dup7\n    /* \"#utility.yul\":5113:5135   */\n  add\n    /* \"#utility.yul\":5046:5145   */\n  tag_37\n  jump\t// in\ntag_115:\n    /* \"#utility.yul\":5036:5145   */\n  swap3\n  pop\n    /* \"#utility.yul\":4839:5155   */\n  pop\n    /* \"#utility.yul\":5215:5217   */\n  0x20\n    /* \"#utility.yul\":5204:5213   */\n  dup4\n    /* \"#utility.yul\":5200:5218   */\n  add\n    /* \"#utility.yul\":5194:5219   */\n  mload\n    /* \"#utility.yul\":5246:5264   */\n  0xffffffffffffffff\n    /* \"#utility.yul\":5238:5244   */\n  dup2\n    /* \"#utility.yul\":5235:5265   */\n  gt\n    /* \"#utility.yul\":5232:5349   */\n  iszero\n  tag_116\n  jumpi\n    /* \"#utility.yul\":5268:5347   */\n  tag_117\n  tag_23\n  jump\t// in\ntag_117:\n    /* \"#utility.yul\":5232:5349   */\ntag_116:\n    /* \"#utility.yul\":5373:5472   */\n  tag_118\n    /* \"#utility.yul\":5464:5471   */\n  dup6\n    /* \"#utility.yul\":5455:5461   */\n  dup3\n    /* \"#utility.yul\":5444:5453   */\n  dup7\n    /* \"#utility.yul\":5440:5462   */\n  add\n    /* \"#utility.yul\":5373:5472   */\n  tag_37\n  jump\t// in\ntag_118:\n    /* \"#utility.yul\":5363:5472   */\n  swap2\n  pop\n    /* \"#utility.yul\":5165:5482   */\n  pop\n    /* \"#utility.yul\":4536:5489   */\n  swap3\n  pop\n  swap3\n  swap1\n  pop\n  jump\t// out\n    /* \"#utility.yul\":5495:5675   */\ntag_11:\n    /* \"#utility.yul\":5543:5620   */\n  0x4e487b7100000000000000000000000000000000000000000000000000000000\n    /* \"#utility.yul\":5540:5541   */\n  0x00\n    /* \"#utility.yul\":5533:5621   */\n  mstore\n    /* \"#utility.yul\":5640:5644   */\n  0x32\n    /* \"#utility.yul\":5637:5638   */\n  0x04\n    /* \"#utility.yul\":5630:5645   */\n  mstore\n    /* \"#utility.yul\":5664:5668   */\n  0x24\n    /* \"#utility.yul\":5661:5662   */\n  0x00\n    /* \"#utility.yul\":5654:5669   */\n  revert\n    /* \"#utility.yul\":5681:5780   */\ntag_38:\n    /* \"#utility.yul\":5733:5739   */\n  0x00\n    /* \"#utility.yul\":5767:5772   */\n  dup2\n    /* \"#utility.yul\":5761:5773   */\n  mload\n    /* \"#utility.yul\":5751:5773   */\n  swap1\n  pop\n    /* \"#utility.yul\":5681:5780   */\n  swap2\n  swap1\n  pop\n  jump\t// out\n    /* \"#utility.yul\":5786:5966   */\ntag_39:\n    /* \"#utility.yul\":5834:5911   */\n  0x4e487b7100000000000000000000000000000000000000000000000000000000\n    /* \"#utility.yul\":5831:5832   */\n  0x00\n    /* \"#utility.yul\":5824:5912   */\n  mstore\n    /* \"#utility.yul\":5931:5935   */\n  0x22\n    /* \"#utility.yul\":5928:5929   */\n  0x04\n    /* \"#utility.yul\":5921:5936   */\n  mstore\n    /* \"#utility.yul\":5955:5959   */\n  0x24\n    /* \"#utility.yul\":5952:5953   */\n  0x00\n    /* \"#utility.yul\":5945:5960   */\n  revert\n    /* \"#utility.yul\":5972:6292   */\ntag_40:\n    /* \"#utility.yul\":6016:6022   */\n  0x00\n    /* \"#utility.yul\":6053:6054   */\n  0x02\n    /* \"#utility.yul\":6047:6051   */\n  dup3\n    /* \"#utility.yul\":6043:6055   */\n  div\n    /* \"#utility.yul\":6033:6055   */\n  swap1\n  pop\n    /* \"#utility.yul\":6100:6101   */\n  0x01\n    /* \"#utility.yul\":6094:6098   */\n  dup3\n    /* \"#utility.yul\":6090:6102   */\n  and\n    /* \"#utility.yul\":6121:6139   */\n  dup1\n    /* \"#utility.yul\":6111:6192   */\n  tag_123\n  jumpi\n    /* \"#utility.yul\":6177:6181   */\n  0x7f\n    /* \"#utility.yul\":6169:6175   */\n  dup3\n    /* \"#utility.yul\":6165:6182   */\n  and\n    /* \"#utility.yul\":6155:6182   */\n  swap2\n  pop\n    /* \"#utility.yul\":6111:6192   */\ntag_123:\n    /* \"#utility.yul\":6239:6241   */\n  0x20\n    /* \"#utility.yul\":6231:6237   */\n  dup3\n    /* \"#utility.yul\":6228:6242   */\n  lt\n    /* \"#utility.yul\":6208:6226   */\n  dup2\n    /* \"#utility.yul\":6205:6243   */\n  sub\n    /* \"#utility.yul\":6202:6286   */\n  tag_124\n  jumpi\n    /* \"#utility.yul\":6258:6276   */\n  tag_125\n  tag_39\n  jump\t// in\ntag_125:\n    /* \"#utility.yul\":6202:6286   */\ntag_124:\n    /* \"#utility.yul\":6023:6292   */\n  pop\n    /* \"#utility.yul\":5972:6292   */\n  swap2\n  swap1\n  pop\n  jump\t// out\n    /* \"#utility.yul\":6298:6439   */\ntag_41:\n    /* \"#utility.yul\":6347:6351   */\n  0x00\n    /* \"#utility.yul\":6370:6373   */\n  dup2\n    /* \"#utility.yul\":6362:6373   */\n  swap1\n  pop\n    /* \"#utility.yul\":6393:6396   */\n  dup2\n    /* \"#utility.yul\":6390:6391   */\n  0x00\n    /* \"#utility.yul\":6383:6397   */\n  mstore\n    /* \"#utility.yul\":6427:6431   */\n  0x20\n    /* \"#utility.yul\":6424:6425   */\n  0x00\n    /* \"#utility.yul\":6414:6432   */\n  keccak256\n    /* \"#utility.yul\":6406:6432   */\n  swap1\n  pop\n    /* \"#utility.yul\":6298:6439   */\n  swap2\n  swap1\n  pop\n  jump\t// out\n    /* \"#utility.yul\":6445:6538   */\ntag_42:\n    /* \"#utility.yul\":6482:6488   */\n  0x00\n    /* \"#utility.yul\":6529:6531   */\n  0x20\n    /* \"#utility.yul\":6524:6526   */\n  0x1f\n    /* \"#utility.yul\":6517:6522   */\n  dup4\n    /* \"#utility.yul\":6513:6527   */\n  add\n    /* \"#utility.yul\":6509:6532   */\n  div\n    /* \"#utility.yul\":6499:6532   */\n  swap1\n  pop\n    /* \"#utility.yul\":6445:6538   */\n  swap2\n  swap1\n  pop\n  jump\t// out\n    /* \"#utility.yul\":6544:6651   */\ntag_43:\n    /* \"#utility.yul\":6588:6596   */\n  0x00\n    /* \"#utility.yul\":6638:6643   */\n  dup3\n    /* \"#utility.yul\":6632:6636   */\n  dup3\n    /* \"#utility.yul\":6628:6644   */\n  shl\n    /* \"#utility.yul\":6607:6644   */\n  swap1\n  pop\n    /* \"#utility.yul\":6544:6651   */\n  swap3\n  swap2\n  pop\n  pop\n  jump\t// out\n    /* \"#utility.yul\":6657:7050   */\ntag_44:\n    /* \"#utility.yul\":6726:6732   */\n  0x00\n    /* \"#utility.yul\":6776:6777   */\n  0x08\n    /* \"#utility.yul\":6764:6774   */\n  dup4\n    /* \"#utility.yul\":6760:6778   */\n  mul\n    /* \"#utility.yul\":6799:6896   */\n  tag_130\n    /* \"#utility.yul\":6829:6895   */\n  0xffffffffffffffffffffffffffffffffffffffffffffffffffffffffffffffff\n    /* \"#utility.yul\":6818:6827   */\n  dup3\n    /* \"#utility.yul\":6799:6896   */\n  tag_43\n  jump\t// in\ntag_130:\n    /* \"#utility.yul\":6917:6956   */\n  tag_131\n    /* \"#utility.yul\":6947:6955   */\n  dup7\n    /* \"#utility.yul\":6936:6945   */\n  dup4\n    /* \"#utility.yul\":6917:6956   */\n  tag_43\n  jump\t// in\ntag_131:\n    /* \"#utility.yul\":6905:6956   */\n  swap6\n  pop\n    /* \"#utility.yul\":6989:6993   */\n  dup1\n    /* \"#utility.yul\":6985:6994   */\n  not\n    /* \"#utility.yul\":6978:6983   */\n  dup5\n    /* \"#utility.yul\":6974:6995   */\n  and\n    /* \"#utility.yul\":6965:6995   */\n  swap4\n  pop\n    /* \"#utility.yul\":7038:7042   */\n  dup1\n    /* \"#utility.yul\":7028:7036   */\n  dup7\n    /* \"#utility.yul\":7024:7043   */\n  and\n    /* \"#utility.yul\":7017:7022   */\n  dup5\n    /* \"#utility.yul\":7014:7044   */\n  or\n    /* \"#utility.yul\":7004:7044   */\n  swap3\n  pop\n    /* \"#utility.yul\":6733:7050   */\n  pop\n  pop\n    /* \"#utility.yul\":6657:7050   */\n  swap4\n  swap3\n  pop\n  pop\n  pop\n  jump\t// out\n    /* \"#utility.yul\":7056:7133   */\ntag_45:\n    /* \"#utility.yul\":7093:7100   */\n  0x00\n    /* \"#utility.yul\":7122:7127   */\n  dup2\n    /* \"#utility.yul\":7111:7127   */\n  swap1\n  pop\n    /* \"#utility.yul\":7056:7133   */\n  swap2\n  swap1\n  pop\n  jump\t// out\n    /* \"#utility.yul\":7139:7199   */\ntag_46:\n    /* \"#utility.yul\":7167:7170   */\n  0x00\n    /* \"#utility.yul\":7188:7193   */\n  dup2\n    /* \"#utility.yul\":7181:7193   */\n  swap1\n  pop\n    /* \"#utility.yul\":7139:7199   */\n  swap2\n  swap1\n  pop\n  jump\t// out\n    /* \"#utility.yul\":7205:7347   */\ntag_47:\n    /* \"#utility.yul\":7255:7264   */\n  0x00\n    /* \"#utility.yul\":7288:7341   */\n  tag_135\n    /* \"#utility.yul\":7306:7340   */\n  tag_136\n    /* \"#utility.yul\":7315:7339   */\n  tag_137\n    /* \"#utility.yul\":7333:7338   */\n  dup5\n    /* \"#utility.yul\":7315:7339   */\n  tag_45\n  jump\t// in\ntag_137:\n    /* \"#utility.yul\":7306:7340   */\n  tag_46\n  jump\t// in\ntag_136:\n    /* \"#utility.yul\":7288:7341   */\n  tag_45\n  jump\t// in\ntag_135:\n    /* \"#utility.yul\":7275:7341   */\n  swap1\n  pop\n    /* \"#utility.yul\":7205:7347   */\n  swap2\n  swap1\n  pop\n  jump\t// out\n    /* \"#utility.yul\":7353:7428   */\ntag_48:\n    /* \"#utility.yul\":7396:7399   */\n  0x00\n    /* \"#utility.yul\":7417:7422   */\n  dup2\n    /* \"#utility.yul\":7410:7422   */\n  swap1\n  pop\n    /* \"#utility.yul\":7353:7428   */\n  swap2\n  swap1\n  pop\n  jump\t// out\n    /* \"#utility.yul\":7434:7703   */\ntag_49:\n    /* \"#utility.yul\":7544:7583   */\n  tag_140\n    /* \"#utility.yul\":7575:7582   */\n  dup4\n    /* \"#utility.yul\":7544:7583   */\n  tag_47\n  jump\t// in\ntag_140:\n    /* \"#utility.yul\":7605:7696   */\n  tag_141\n    /* \"#utility.yul\":7654:7695   */\n  tag_142\n    /* \"#utility.yul\":7678:7694   */\n  dup3\n    /* \"#utility.yul\":7654:7695   */\n  tag_48\n  jump\t// in\ntag_142:\n    /* \"#utility.yul\":7646:7652   */\n  dup5\n    /* \"#utility.yul\":7639:7643   */\n  dup5\n    /* \"#utility.yul\":7633:7644   */\n  sload\n    /* \"#utility.yul\":7605:7696   */\n  tag_44\n  jump\t// in\ntag_141:\n    /* \"#utility.yul\":7599:7603   */\n  dup3\n    /* \"#utility.yul\":7592:7697   */\n  sstore\n    /* \"#utility.yul\":7510:7703   */\n  pop\n    /* \"#utility.yul\":7434:7703   */\n  pop\n  pop\n  pop\n  jump\t// out\n    /* \"#utility.yul\":7709:7782   */\ntag_50:\n    /* \"#utility.yul\":7754:7757   */\n  0x00\n    /* \"#utility.yul\":7709:7782   */\n  swap1\n  jump\t// out\n    /* \"#utility.yul\":7788:7977   */\ntag_51:\n    /* \"#utility.yul\":7865:7897   */\n  tag_145\n  tag_50\n  jump\t// in\ntag_145:\n    /* \"#utility.yul\":7906:7971   */\n  tag_146\n    /* \"#utility.yul\":7964:7970   */\n  dup2\n    /* \"#utility.yul\":7956:7962   */\n  dup5\n    /* \"#utility.yul\":7950:7954   */\n  dup5\n    /* \"#utility.yul\":7906:7971   */\n  tag_49\n  jump\t// in\ntag_146:\n    /* \"#utility.yul\":7841:7977   */\n  pop\n    /* \"#utility.yul\":7788:7977   */\n  pop\n  pop\n  jump\t// out\n    /* \"#utility.yul\":7983:8169   */\ntag_52:\n    /* \"#utility.yul\":8043:8163   */\ntag_148:\n    /* \"#utility.yul\":8060:8063   */\n  dup2\n    /* \"#utility.yul\":8053:8058   */\n  dup2\n    /* \"#utility.yul\":8050:8064   */\n  lt\n    /* \"#utility.yul\":8043:8163   */\n  iszero\n  tag_150\n  jumpi\n    /* \"#utility.yul\":8114:8153   */\n  tag_151\n    /* \"#utility.yul\":8151:8152   */\n  0x00\n    /* \"#utility.yul\":8144:8149   */\n  dup3\n    /* \"#utility.yul\":8114:8153   */\n  tag_51\n  jump\t// in\ntag_151:\n    /* \"#utility.yul\":8087:8088   */\n  0x01\n    /* \"#utility.yul\":8080:8085   */\n  dup2\n    /* \"#utility.yul\":8076:8089   */\n  add\n    /* \"#utility.yul\":8067:8089   */\n  swap1\n  pop\n    /* \"#utility.yul\":8043:8163   */\n  jump(tag_148)\ntag_150:\n    /* \"#utility.yul\":7983:8169   */\n  pop\n  pop\n  jump\t// out\n    /* \"#utility.yul\":8175:8718   */\ntag_53:\n    /* \"#utility.yul\":8276:8278   */\n  0x1f\n    /* \"#utility.yul\":8271:8274   */\n  dup3\n    /* \"#utility.yul\":8268:8279   */\n  gt\n    /* \"#utility.yul\":8265:8711   */\n  iszero\n  tag_153\n  jumpi\n    /* \"#utility.yul\":8310:8348   */\n  tag_154\n    /* \"#utility.yul\":8342:8347   */\n  dup2\n    /* \"#utility.yul\":8310:8348   */\n  tag_41\n  jump\t// in\ntag_154:\n    /* \"#utility.yul\":8394:8423   */\n  tag_155\n    /* \"#utility.yul\":8412:8422   */\n  dup5\n    /* \"#utility.yul\":8394:8423   */\n  tag_42\n  jump\t// in\ntag_155:\n    /* \"#utility.yul\":8384:8392   */\n  dup2\n    /* \"#utility.yul\":8380:8424   */\n  add\n    /* \"#utility.yul\":8577:8579   */\n  0x20\n    /* \"#utility.yul\":8565:8575   */\n  dup6\n    /* \"#utility.yul\":8562:8580   */\n  lt\n    /* \"#utility.yul\":8559:8608   */\n  iszero\n  tag_156\n  jumpi\n    /* \"#utility.yul\":8598:8606   */\n  dup2\n    /* \"#utility.yul\":8583:8606   */\n  swap1\n  pop\n    /* \"#utility.yul\":8559:8608   */\ntag_156:\n    /* \"#utility.yul\":8621:8701   */\n  tag_157\n    /* \"#utility.yul\":8677:8699   */\n  tag_158\n    /* \"#utility.yul\":8695:8698   */\n  dup6\n    /* \"#utility.yul\":8677:8699   */\n  tag_42\n  jump\t// in\ntag_158:\n    /* \"#utility.yul\":8667:8675   */\n  dup4\n    /* \"#utility.yul\":8663:8700   */\n  add\n    /* \"#utility.yul\":8650:8661   */\n  dup3\n    /* \"#utility.yul\":8621:8701   */\n  tag_52\n  jump\t// in\ntag_157:\n    /* \"#utility.yul\":8280:8711   */\n  pop\n  pop\n    /* \"#utility.yul\":8265:8711   */\ntag_153:\n    /* \"#utility.yul\":8175:8718   */\n  pop\n  pop\n  pop\n  jump\t// out\n    /* \"#utility.yul\":8724:8841   */\ntag_54:\n    /* \"#utility.yul\":8778:8786   */\n  0x00\n    /* \"#utility.yul\":8828:8833   */\n  dup3\n    /* \"#utility.yul\":8822:8826   */\n  dup3\n    /* \"#utility.yul\":8818:8834   */\n  shr\n    /* \"#utility.yul\":8797:8834   */\n  swap1\n  pop\n    /* \"#utility.yul\":8724:8841   */\n  swap3\n  swap2\n  pop\n  pop\n  jump\t// out\n    /* \"#utility.yul\":8847:9016   */\ntag_55:\n    /* \"#utility.yul\":8891:8897   */\n  0x00\n    /* \"#utility.yul\":8924:8975   */\n  tag_161\n    /* \"#utility.yul\":8972:8973   */\n  0x00\n    /* \"#utility.yul\":8968:8974   */\n  not\n    /* \"#utility.yul\":8960:8965   */\n  dup5\n    /* \"#utility.yul\":8957:8958   */\n  0x08\n    /* \"#utility.yul\":8953:8966   */\n  mul\n    /* \"#utility.yul\":8924:8975   */\n  tag_54\n  jump\t// in\ntag_161:\n    /* \"#utility.yul\":8920:8976   */\n  not\n    /* \"#utility.yul\":9005:9009   */\n  dup1\n    /* \"#utility.yul\":8999:9003   */\n  dup4\n    /* \"#utility.yul\":8995:9010   */\n  and\n    /* \"#utility.yul\":8985:9010   */\n  swap2\n  pop\n    /* \"#utility.yul\":8898:9016   */\n  pop\n    /* \"#utility.yul\":8847:9016   */\n  swap3\n  swap2\n  pop\n  pop\n  jump\t// out\n    /* \"#utility.yul\":9021:9316   */\ntag_56:\n    /* \"#utility.yul\":9097:9101   */\n  0x00\n    /* \"#utility.yul\":9243:9272   */\n  tag_163\n    /* \"#utility.yul\":9268:9271   */\n  dup4\n    /* \"#utility.yul\":9262:9266   */\n  dup4\n    /* \"#utility.yul\":9243:9272   */\n  tag_55\n  jump\t// in\ntag_163:\n    /* \"#utility.yul\":9235:9272   */\n  swap2\n  pop\n    /* \"#utility.yul\":9305:9308   */\n  dup3\n    /* \"#utility.yul\":9302:9303   */\n  0x02\n    /* \"#utility.yul\":9298:9309   */\n  mul\n    /* \"#utility.yul\":9292:9296   */\n  dup3\n    /* \"#utility.yul\":9289:9310   */\n  or\n    /* \"#utility.yul\":9281:9310   */\n  swap1\n  pop\n    /* \"#utility.yul\":9021:9316   */\n  swap3\n  swap2\n  pop\n  pop\n  jump\t// out\n    /* \"#utility.yul\":9321:10716   */\ntag_16:\n    /* \"#utility.yul\":9438:9475   */\n  tag_165\n    /* \"#utility.yul\":9471:9474   */\n  dup3\n    /* \"#utility.yul\":9438:9475   */\n  tag_38\n  jump\t// in\ntag_165:\n    /* \"#utility.yul\":9540:9558   */\n  0xffffffffffffffff\n    /* \"#utility.yul\":9532:9538   */\n  dup2\n    /* \"#utility.yul\":9529:9559   */\n  gt\n    /* \"#utility.yul\":9526:9582   */\n  iszero\n  tag_166\n  jumpi\n    /* \"#utility.yul\":9562:9580   */\n  tag_167\n  tag_26\n  jump\t// in\ntag_167:\n    /* \"#utility.yul\":9526:9582   */\ntag_166:\n    /* \"#utility.yul\":9606:9644   */\n  tag_168\n    /* \"#utility.yul\":9638:9642   */\n  dup3\n    /* \"#utility.yul\":9632:9643   */\n  sload\n    /* \"#utility.yul\":9606:9644   */\n  tag_40\n  jump\t// in\ntag_168:\n    /* \"#utility.yul\":9691:9758   */\n  tag_169\n    /* \"#utility.yul\":9751:9757   */\n  dup3\n    /* \"#utility.yul\":9743:9749   */\n  dup3\n    /* \"#utility.yul\":9737:9741   */\n  dup6\n    /* \"#utility.yul\":9691:9758   */\n  tag_53\n  jump\t// in\ntag_169:\n    /* \"#utility.yul\":9785:9786   */\n  0x00\n    /* \"#utility.yul\":9809:9813   */\n  0x20\n    /* \"#utility.yul\":9796:9813   */\n  swap1\n  pop\n    /* \"#utility.yul\":9841:9843   */\n  0x1f\n    /* \"#utility.yul\":9833:9839   */\n  dup4\n    /* \"#utility.yul\":9830:9844   */\n  gt\n    /* \"#utility.yul\":9858:9859   */\n  0x01\n    /* \"#utility.yul\":9853:10471   */\n  dup2\n  eq\n  tag_171\n  jumpi\n    /* \"#utility.yul\":10515:10516   */\n  0x00\n    /* \"#utility.yul\":10532:10538   */\n  dup5\n    /* \"#utility.yul\":10529:10606   */\n  iszero\n  tag_172\n  jumpi\n    /* \"#utility.yul\":10581:10590   */\n  dup3\n    /* \"#utility.yul\":10576:10579   */\n  dup8\n    /* \"#utility.yul\":10572:10591   */\n  add\n    /* \"#utility.yul\":10566:10592   */\n  mload\n    /* \"#utility.yul\":10557:10592   */\n  swap1\n  pop\n    /* \"#utility.yul\":10529:10606   */\ntag_172:\n    /* \"#utility.yul\":10632:10699   */\n  tag_173\n    /* \"#utility.yul\":10692:10698   */\n  dup6\n    /* \"#utility.yul\":10685:10690   */\n  dup3\n    /* \"#utility.yul\":10632:10699   */\n  tag_56\n  jump\t// in\ntag_173:\n    /* \"#utility.yul\":10626:10630   */\n  dup7\n    /* \"#utility.yul\":10619:10700   */\n  sstore\n    /* \"#utility.yul\":10488:10710   */\n  pop\n    /* \"#utility.yul\":9823:10710   */\n  jump(tag_170)\n    /* \"#utility.yul\":9853:10471   */\ntag_171:\n    /* \"#utility.yul\":9905:9909   */\n  0x1f\n    /* \"#utility.yul\":9901:9910   */\n  not\n    /* \"#utility.yul\":9893:9899   */\n  dup5\n    /* \"#utility.yul\":9889:9911   */\n  and\n    /* \"#utility.yul\":9939:9976   */\n  tag_174\n    /* \"#utility.yul\":9971:9975   */\n  dup7\n    /* \"#utility.yul\":9939:9976   */\n  tag_41\n  jump\t// in\ntag_174:\n    /* \"#utility.yul\":9998:9999   */\n  0x00\n    /* \"#utility.yul\":10012:10220   */\ntag_175:\n    /* \"#utility.yul\":10026:10033   */\n  dup3\n    /* \"#utility.yul\":10023:10024   */\n  dup2\n    /* \"#utility.yul\":10020:10034   */\n  lt\n    /* \"#utility.yul\":10012:10220   */\n  iszero\n  tag_177\n  jumpi\n    /* \"#utility.yul\":10105:10114   */\n  dup5\n    /* \"#utility.yul\":10100:10103   */\n  dup10\n    /* \"#utility.yul\":10096:10115   */\n  add\n    /* \"#utility.yul\":10090:10116   */\n  mload\n    /* \"#utility.yul\":10082:10088   */\n  dup3\n    /* \"#utility.yul\":10075:10117   */\n  sstore\n    /* \"#utility.yul\":10156:10157   */\n  0x01\n    /* \"#utility.yul\":10148:10154   */\n  dup3\n    /* \"#utility.yul\":10144:10158   */\n  add\n    /* \"#utility.yul\":10134:10158   */\n  swap2\n  pop\n    /* \"#utility.yul\":10203:10205   */\n  0x20\n    /* \"#utility.yul\":10192:10201   */\n  dup6\n    /* \"#utility.yul\":10188:10206   */\n  add\n    /* \"#utility.yul\":10175:10206   */\n  swap5\n  pop\n    /* \"#utility.yul\":10049:10053   */\n  0x20\n    /* \"#utility.yul\":10046:10047   */\n  dup2\n    /* \"#utility.yul\":10042:10054   */\n  add\n    /* \"#utility.yul\":10037:10054   */\n  swap1\n  pop\n    /* \"#utility.yul\":10012:10220   */\n  jump(tag_175)\ntag_177:\n    /* \"#utility.yul\":10248:10254   */\n  dup7\n    /* \"#utility.yul\":10239:10246   */\n  dup4\n    /* \"#utility.yul\":10236:10255   */\n  lt\n    /* \"#utility.yul\":10233:10412   */\n  iszero\n  tag_178\n  jumpi\n    /* \"#utility.yul\":10306:10315   */\n  dup5\n    /* \"#utility.yul\":10301:10304   */\n  dup10\n    /* \"#utility.yul\":10297:10316   */\n  add\n    /* \"#utility.yul\":10291:10317   */\n  mload\n    /* \"#utility.yul\":10349:10397   */\n  tag_179\n    /* \"#utility.yul\":10391:10395   */\n  0x1f\n    /* \"#utility.yul\":10383:10389   */\n  dup10\n    /* \"#utility.yul\":10379:10396   */\n  and\n    /* \"#utility.yul\":10368:10377   */\n  dup3\n    /* \"#utility.yul\":10349:10397   */\n  tag_55\n  jump\t// in\ntag_179:\n    /* \"#utility.yul\":10341:10347   */\n  dup4\n    /* \"#utility.yul\":10334:10398   */\n  sstore\n    /* \"#utility.yul\":10256:10412   */\n  pop\n    /* \"#utility.yul\":10233:10412   */\ntag_178:\n    /* \"#utility.yul\":10458:10459   */\n  0x01\n    /* \"#utility.yul\":10454:10455   */\n  0x02\n    /* \"#utility.yul\":10446:10452   */\n  dup9\n    /* \"#utility.yul\":10442:10456   */\n  mul\n    /* \"#utility.yul\":10438:10460   */\n  add\n    /* \"#utility.yul\":10432:10436   */\n  dup9\n    /* \"#utility.yul\":10425:10461   */\n  sstore\n    /* \"#utility.yul\":9860:10471   */\n  pop\n  pop\n  pop\n    /* \"#utility.yul\":9823:10710   */\ntag_170:\n  pop\n    /* \"#utility.yul\":9413:10716   */\n  pop\n  pop\n  pop\n    /* \"#utility.yul\":9321:10716   */\n  pop\n  pop\n  jump\t// out\n    /* \"#utility.yul\":10722:10902   */\ntag_57:\n    /* \"#utility.yul\":10770:10847   */\n  0x4e487b7100000000000000000000000000000000000000000000000000000000\n    /* \"#utility.yul\":10767:10768   */\n  0x00\n    /* \"#utility.yul\":10760:10848   */\n  mstore\n    /* \"#utility.yul\":10867:10871   */\n  0x11\n    /* \"#utility.yul\":10864:10865   */\n  0x04\n    /* \"#utility.yul\":10857:10872   */\n  mstore\n    /* \"#utility.yul\":10891:10895   */\n  0x24\n    /* \"#utility.yul\":10888:10889   */\n  0x00\n    /* \"#utility.yul\":10881:10896   */\n  revert\n    /* \"#utility.yul\":10908:11141   */\ntag_19:\n    /* \"#utility.yul\":10947:10950   */\n  0x00\n    /* \"#utility.yul\":10970:10994   */\n  tag_182\n    /* \"#utility.yul\":10988:10993   */\n  dup3\n    /* \"#utility.yul\":10970:10994   */\n  tag_45\n  jump\t// in\ntag_182:\n    /* \"#utility.yul\":10961:10994   */\n  swap2\n  pop\n    /* \"#utility.yul\":11016:11082   */\n  0xffffffffffffffffffffffffffffffffffffffffffffffffffffffffffffffff\n    /* \"#utility.yul\":11009:11014   */\n  dup3\n    /* \"#utility.yul\":11006:11083   */\n  sub\n    /* \"#utility.yul\":11003:11106   */\n  tag_183\n  jumpi\n    /* \"#utility.yul\":11086:11104   */\n  tag_184\n  tag_57\n  jump\t// in\ntag_184:\n    /* \"#utility.yul\":11003:11106   */\ntag_183:\n    /* \"#utility.yul\":11133:11134   */\n  0x01\n    /* \"#utility.yul\":11126:11131   */\n  dup3\n    /* \"#utility.yul\":11122:11135   */\n  add\n    /* \"#utility.yul\":11115:11135   */\n  swap1\n  pop\n    /* \"#utility.yul\":10908:11141   */\n  swap2\n  swap1\n  pop\n  jump\t// out\n    /* \"contracts/Ballot/MyBallot.sol\":132:2687  contract MyBallot {... */\ntag_20:\n  dataSize(sub_0)\n  dup1\n  dataOffset(sub_0)\n  0x00\n  codecopy\n  0x00\n  return\nstop\n\nsub_0: assembly {\n        /* \"contracts/Ballot/MyBallot.sol\":132:2687  contract MyBallot {... */\n      mstore(0x40, 0x80)\n      callvalue\n      dup1\n      iszero\n      tag_1\n      jumpi\n      0x00\n      dup1\n      revert\n    tag_1:\n      pop\n      jumpi(tag_2, lt(calldatasize, 0x04))\n      shr(0xe0, calldataload(0x00))\n      dup1\n      0x9e7b8d61\n      gt\n      tag_12\n      jumpi\n      dup1\n      0x9e7b8d61\n      eq\n      tag_7\n      jumpi\n      dup1\n      0xa3ec138d\n      eq\n      tag_8\n      jumpi\n      dup1\n      0xa5134620\n      eq\n      tag_9\n      jumpi\n      dup1\n      0xce606ee0\n      eq\n      tag_10\n      jumpi\n      dup1\n      0xfc36e15b\n      eq\n      tag_11\n      jumpi\n      jump(tag_2)\n    tag_12:\n      dup1\n      0x2bfda515\n      eq\n      tag_3\n      jumpi\n      dup1\n      0x32a2c5d0\n      eq\n      tag_4\n      jumpi\n      dup1\n      0x3477ee2e\n      eq\n      tag_5\n      jumpi\n      dup1\n      0x4aba5f34\n      eq\n      tag_6\n      jumpi\n    tag_2:\n      0x00\n      dup1\n      revert\n        /* \"contracts/Ballot/MyBallot.sol\":2317:2463  function getWinnerName() public view returns (string memory winnerName)... */\n    tag_3:\n      tag_13\n      tag_14\n      jump\t// in\n    tag_13:\n      mload(0x40)\n      tag_15\n      swap2\n      swap1\n      tag_16\n      jump\t// in\n    tag_15:\n      mload(0x40)\n      dup1\n      swap2\n      sub\n      swap1\n      return\n        /* \"contracts/Ballot/MyBallot.sol\":2585:2684  function getContractAddress() public view returns (address) {... */\n    tag_4:\n      tag_17\n      tag_18\n      jump\t// in\n    tag_17:\n      mload(0x40)\n      tag_19\n      swap2\n      swap1\n      tag_20\n      jump\t// in\n    tag_19:\n      mload(0x40)\n      dup1\n      swap2\n      sub\n      swap1\n      return\n        /* \"contracts/Ballot/MyBallot.sol\":463:492  Candidate[] public candidates */\n    tag_5:\n      tag_21\n      0x04\n      dup1\n      calldatasize\n      sub\n      dup2\n      add\n      swap1\n      tag_22\n      swap2\n      swap1\n      tag_23\n      jump\t// in\n    tag_22:\n      tag_24\n      jump\t// in\n    tag_21:\n      mload(0x40)\n      tag_25\n      swap4\n      swap3\n      swap2\n      swap1\n      tag_26\n      jump\t// in\n    tag_25:\n      mload(0x40)\n      dup1\n      swap2\n      sub\n      swap1\n      return\n        /* \"contracts/Ballot/MyBallot.sol\":2471:2577  function getCandidatesList() public view returns (Candidate[] memory) {... */\n    tag_6:\n      tag_27\n      tag_28\n      jump\t// in\n    tag_27:\n      mload(0x40)\n      tag_29\n      swap2\n      swap1\n      tag_30\n      jump\t// in\n    tag_29:\n      mload(0x40)\n      dup1\n      swap2\n      sub\n      swap1\n      return\n        /* \"contracts/Ballot/MyBallot.sol\":950:1288  function giveRightToVote(address voter) public {... */\n    tag_7:\n      tag_31\n      0x04\n      dup1\n      calldatasize\n      sub\n      dup2\n      add\n      swap1\n      tag_32\n      swap2\n      swap1\n      tag_33\n      jump\t// in\n    tag_32:\n      tag_34\n      jump\t// in\n    tag_31:\n      stop\n        /* \"contracts/Ballot/MyBallot.sol\":415:454  mapping(address => Voter) public voters */\n    tag_8:\n      tag_35\n      0x04\n      dup1\n      calldatasize\n      sub\n      dup2\n      add\n      swap1\n      tag_36\n      swap2\n      swap1\n      tag_33\n      jump\t// in\n    tag_36:\n      tag_37\n      jump\t// in\n    tag_35:\n      mload(0x40)\n      tag_38\n      swap3\n      swap2\n      swap1\n      tag_39\n      jump\t// in\n    tag_38:\n      mload(0x40)\n      dup1\n      swap2\n      sub\n      swap1\n      return\n        /* \"contracts/Ballot/MyBallot.sol\":1861:2309  function getWinningProposal() public view returns (uint winningProposal)... */\n    tag_9:\n      tag_40\n      tag_41\n      jump\t// in\n    tag_40:\n      mload(0x40)\n      tag_42\n      swap2\n      swap1\n      tag_43\n      jump\t// in\n    tag_42:\n      mload(0x40)\n      dup1\n      swap2\n      sub\n      swap1\n      return\n        /* \"contracts/Ballot/MyBallot.sol\":378:406  address public contractOwner */\n    tag_10:\n      tag_44\n      tag_45\n      jump\t// in\n    tag_44:\n      mload(0x40)\n      tag_46\n      swap2\n      swap1\n      tag_20\n      jump\t// in\n    tag_46:\n      mload(0x40)\n      dup1\n      swap2\n      sub\n      swap1\n      return\n        /* \"contracts/Ballot/MyBallot.sol\":1296:1853  function vote(string memory name) public {... */\n    tag_11:\n      tag_47\n      0x04\n      dup1\n      calldatasize\n      sub\n      dup2\n      add\n      swap1\n      tag_48\n      swap2\n      swap1\n      tag_49\n      jump\t// in\n    tag_48:\n      tag_50\n      jump\t// in\n    tag_47:\n      stop\n        /* \"contracts/Ballot/MyBallot.sol\":2317:2463  function getWinnerName() public view returns (string memory winnerName)... */\n    tag_14:\n        /* \"contracts/Ballot/MyBallot.sol\":2363:2387  string memory winnerName */\n      0x60\n        /* \"contracts/Ballot/MyBallot.sol\":2418:2428  candidates */\n      0x02\n        /* \"contracts/Ballot/MyBallot.sol\":2429:2449  getWinningProposal() */\n      tag_52\n        /* \"contracts/Ballot/MyBallot.sol\":2429:2447  getWinningProposal */\n      tag_41\n        /* \"contracts/Ballot/MyBallot.sol\":2429:2449  getWinningProposal() */\n      jump\t// in\n    tag_52:\n        /* \"contracts/Ballot/MyBallot.sol\":2418:2450  candidates[getWinningProposal()] */\n      dup2\n      sload\n      dup2\n      lt\n      tag_53\n      jumpi\n      tag_54\n      tag_55\n      jump\t// in\n    tag_54:\n    tag_53:\n      swap1\n      0x00\n      mstore\n      keccak256(0x00, 0x20)\n      swap1\n      0x03\n      mul\n      add\n        /* \"contracts/Ballot/MyBallot.sol\":2418:2455  candidates[getWinningProposal()].name */\n      0x00\n      add\n        /* \"contracts/Ballot/MyBallot.sol\":2405:2455  winnerName = candidates[getWinningProposal()].name */\n      dup1\n      sload\n      tag_57\n      swap1\n      tag_58\n      jump\t// in\n    tag_57:\n      dup1\n      0x1f\n      add\n      0x20\n      dup1\n      swap2\n      div\n      mul\n      0x20\n      add\n      mload(0x40)\n      swap1\n      dup2\n      add\n      0x40\n      mstore\n      dup1\n      swap3\n      swap2\n      swap1\n      dup2\n      dup2\n      mstore\n      0x20\n      add\n      dup3\n      dup1\n      sload\n      tag_59\n      swap1\n      tag_58\n      jump\t// in\n    tag_59:\n      dup1\n      iszero\n      tag_60\n      jumpi\n      dup1\n      0x1f\n      lt\n      tag_61\n      jumpi\n      0x0100\n      dup1\n      dup4\n      sload\n      div\n      mul\n      dup4\n      mstore\n      swap2\n      0x20\n      add\n      swap2\n      jump(tag_60)\n    tag_61:\n      dup3\n      add\n      swap2\n      swap1\n      0x00\n      mstore\n      keccak256(0x00, 0x20)\n      swap1\n    tag_62:\n      dup2\n      sload\n      dup2\n      mstore\n      swap1\n      0x01\n      add\n      swap1\n      0x20\n      add\n      dup1\n      dup4\n      gt\n      tag_62\n      jumpi\n      dup3\n      swap1\n      sub\n      0x1f\n      and\n      dup3\n      add\n      swap2\n    tag_60:\n      pop\n      pop\n      pop\n      pop\n      pop\n      swap1\n      pop\n        /* \"contracts/Ballot/MyBallot.sol\":2317:2463  function getWinnerName() public view returns (string memory winnerName)... */\n      swap1\n      jump\t// out\n        /* \"contracts/Ballot/MyBallot.sol\":2585:2684  function getContractAddress() public view returns (address) {... */\n    tag_18:\n        /* \"contracts/Ballot/MyBallot.sol\":2636:2643  address */\n      0x00\n        /* \"contracts/Ballot/MyBallot.sol\":2671:2675  this */\n      address\n        /* \"contracts/Ballot/MyBallot.sol\":2656:2676  return address(this) */\n      swap1\n      pop\n        /* \"contracts/Ballot/MyBallot.sol\":2585:2684  function getContractAddress() public view returns (address) {... */\n      swap1\n      jump\t// out\n        /* \"contracts/Ballot/MyBallot.sol\":463:492  Candidate[] public candidates */\n    tag_24:\n      0x02\n      dup2\n      dup2\n      sload\n      dup2\n      lt\n      tag_64\n      jumpi\n      0x00\n      dup1\n      revert\n    tag_64:\n      swap1\n      0x00\n      mstore\n      keccak256(0x00, 0x20)\n      swap1\n      0x03\n      mul\n      add\n      0x00\n      swap2\n      pop\n      swap1\n      pop\n      dup1\n      0x00\n      add\n      dup1\n      sload\n      tag_66\n      swap1\n      tag_58\n      jump\t// in\n    tag_66:\n      dup1\n      0x1f\n      add\n      0x20\n      dup1\n      swap2\n      div\n      mul\n      0x20\n      add\n      mload(0x40)\n      swap1\n      dup2\n      add\n      0x40\n      mstore\n      dup1\n      swap3\n      swap2\n      swap1\n      dup2\n      dup2\n      mstore\n      0x20\n      add\n      dup3\n      dup1\n      sload\n      tag_67\n      swap1\n      tag_58\n      jump\t// in\n    tag_67:\n      dup1\n      iszero\n      tag_68\n      jumpi\n      dup1\n      0x1f\n      lt\n      tag_69\n      jumpi\n      0x0100\n      dup1\n      dup4\n      sload\n      div\n      mul\n      dup4\n      mstore\n      swap2\n      0x20\n      add\n      swap2\n      jump(tag_68)\n    tag_69:\n      dup3\n      add\n      swap2\n      swap1\n      0x00\n      mstore\n      keccak256(0x00, 0x20)\n      swap1\n    tag_70:\n      dup2\n      sload\n      dup2\n      mstore\n      swap1\n      0x01\n      add\n      swap1\n      0x20\n      add\n      dup1\n      dup4\n      gt\n      tag_70\n      jumpi\n      dup3\n      swap1\n      sub\n      0x1f\n      and\n      dup3\n      add\n      swap2\n    tag_68:\n      pop\n      pop\n      pop\n      pop\n      pop\n      swap1\n      dup1\n      0x01\n      add\n      dup1\n      sload\n      tag_71\n      swap1\n      tag_58\n      jump\t// in\n    tag_71:\n      dup1\n      0x1f\n      add\n      0x20\n      dup1\n      swap2\n      div\n      mul\n      0x20\n      add\n      mload(0x40)\n      swap1\n      dup2\n      add\n      0x40\n      mstore\n      dup1\n      swap3\n      swap2\n      swap1\n      dup2\n      dup2\n      mstore\n      0x20\n      add\n      dup3\n      dup1\n      sload\n      tag_72\n      swap1\n      tag_58\n      jump\t// in\n    tag_72:\n      dup1\n      iszero\n      tag_73\n      jumpi\n      dup1\n      0x1f\n      lt\n      tag_74\n      jumpi\n      0x0100\n      dup1\n      dup4\n      sload\n      div\n      mul\n      dup4\n      mstore\n      swap2\n      0x20\n      add\n      swap2\n      jump(tag_73)\n    tag_74:\n      dup3\n      add\n      swap2\n      swap1\n      0x00\n      mstore\n      keccak256(0x00, 0x20)\n      swap1\n    tag_75:\n      dup2\n      sload\n      dup2\n      mstore\n      swap1\n      0x01\n      add\n      swap1\n      0x20\n      add\n      dup1\n      dup4\n      gt\n      tag_75\n      jumpi\n      dup3\n      swap1\n      sub\n      0x1f\n      and\n      dup3\n      add\n      swap2\n    tag_73:\n      pop\n      pop\n      pop\n      pop\n      pop\n      swap1\n      dup1\n      0x02\n      add\n      sload\n      swap1\n      pop\n      dup4\n      jump\t// out\n        /* \"contracts/Ballot/MyBallot.sol\":2471:2577  function getCandidatesList() public view returns (Candidate[] memory) {... */\n    tag_28:\n        /* \"contracts/Ballot/MyBallot.sol\":2521:2539  Candidate[] memory */\n      0x60\n        /* \"contracts/Ballot/MyBallot.sol\":2559:2569  candidates */\n      0x02\n        /* \"contracts/Ballot/MyBallot.sol\":2552:2569  return candidates */\n      dup1\n      sload\n      dup1\n      0x20\n      mul\n      0x20\n      add\n      mload(0x40)\n      swap1\n      dup2\n      add\n      0x40\n      mstore\n      dup1\n      swap3\n      swap2\n      swap1\n      dup2\n      dup2\n      mstore\n      0x20\n      add\n      0x00\n      swap1\n    tag_77:\n      dup3\n      dup3\n      lt\n      iszero\n      tag_78\n      jumpi\n      dup4\n      dup3\n      swap1\n      0x00\n      mstore\n      keccak256(0x00, 0x20)\n      swap1\n      0x03\n      mul\n      add\n      mload(0x40)\n      dup1\n      0x60\n      add\n      0x40\n      mstore\n      swap1\n      dup2\n      0x00\n      dup3\n      add\n      dup1\n      sload\n      tag_80\n      swap1\n      tag_58\n      jump\t// in\n    tag_80:\n      dup1\n      0x1f\n      add\n      0x20\n      dup1\n      swap2\n      div\n      mul\n      0x20\n      add\n      mload(0x40)\n      swap1\n      dup2\n      add\n      0x40\n      mstore\n      dup1\n      swap3\n      swap2\n      swap1\n      dup2\n      dup2\n      mstore\n      0x20\n      add\n      dup3\n      dup1\n      sload\n      tag_81\n      swap1\n      tag_58\n      jump\t// in\n    tag_81:\n      dup1\n      iszero\n      tag_82\n      jumpi\n      dup1\n      0x1f\n      lt\n      tag_83\n      jumpi\n      0x0100\n      dup1\n      dup4\n      sload\n      div\n      mul\n      dup4\n      mstore\n      swap2\n      0x20\n      add\n      swap2\n      jump(tag_82)\n    tag_83:\n      dup3\n      add\n      swap2\n      swap1\n      0x00\n      mstore\n      keccak256(0x00, 0x20)\n      swap1\n    tag_84:\n      dup2\n      sload\n      dup2\n      mstore\n      swap1\n      0x01\n      add\n      swap1\n      0x20\n      add\n      dup1\n      dup4\n      gt\n      tag_84\n      jumpi\n      dup3\n      swap1\n      sub\n      0x1f\n      and\n      dup3\n      add\n      swap2\n    tag_82:\n      pop\n      pop\n      pop\n      pop\n      pop\n      dup2\n      mstore\n      0x20\n      add\n      0x01\n      dup3\n      add\n      dup1\n      sload\n      tag_85\n      swap1\n      tag_58\n      jump\t// in\n    tag_85:\n      dup1\n      0x1f\n      add\n      0x20\n      dup1\n      swap2\n      div\n      mul\n      0x20\n      add\n      mload(0x40)\n      swap1\n      dup2\n      add\n      0x40\n      mstore\n      dup1\n      swap3\n      swap2\n      swap1\n      dup2\n      dup2\n      mstore\n      0x20\n      add\n      dup3\n      dup1\n      sload\n      tag_86\n      swap1\n      tag_58\n      jump\t// in\n    tag_86:\n      dup1\n      iszero\n      tag_87\n      jumpi\n      dup1\n      0x1f\n      lt\n      tag_88\n      jumpi\n      0x0100\n      dup1\n      dup4\n      sload\n      div\n      mul\n      dup4\n      mstore\n      swap2\n      0x20\n      add\n      swap2\n      jump(tag_87)\n    tag_88:\n      dup3\n      add\n      swap2\n      swap1\n      0x00\n      mstore\n      keccak256(0x00, 0x20)\n      swap1\n    tag_89:\n      dup2\n      sload\n      dup2\n      mstore\n      swap1\n      0x01\n      add\n      swap1\n      0x20\n      add\n      dup1\n      dup4\n      gt\n      tag_89\n      jumpi\n      dup3\n      swap1\n      sub\n      0x1f\n      and\n      dup3\n      add\n      swap2\n    tag_87:\n      pop\n      pop\n      pop\n      pop\n      pop\n      dup2\n      mstore\n      0x20\n      add\n      0x02\n      dup3\n      add\n      sload\n      dup2\n      mstore\n      pop\n      pop\n      dup2\n      mstore\n      0x20\n      add\n      swap1\n      0x01\n      add\n      swap1\n      jump(tag_77)\n    tag_78:\n      pop\n      pop\n      pop\n      pop\n      swap1\n      pop\n        /* \"contracts/Ballot/MyBallot.sol\":2471:2577  function getCandidatesList() public view returns (Candidate[] memory) {... */\n      swap1\n      jump\t// out\n        /* \"contracts/Ballot/MyBallot.sol\":950:1288  function giveRightToVote(address voter) public {... */\n    tag_34:\n        /* \"contracts/Ballot/MyBallot.sol\":1044:1057  contractOwner */\n      0x00\n      dup1\n      sload\n      swap1\n      0x0100\n      exp\n      swap1\n      div\n      0xffffffffffffffffffffffffffffffffffffffff\n      and\n        /* \"contracts/Ballot/MyBallot.sol\":1030:1057  msg.sender == contractOwner */\n      0xffffffffffffffffffffffffffffffffffffffff\n      and\n        /* \"contracts/Ballot/MyBallot.sol\":1030:1040  msg.sender */\n      caller\n        /* \"contracts/Ballot/MyBallot.sol\":1030:1057  msg.sender == contractOwner */\n      0xffffffffffffffffffffffffffffffffffffffff\n      and\n      eq\n        /* \"contracts/Ballot/MyBallot.sol\":1008:1132  require(... */\n      tag_91\n      jumpi\n      mload(0x40)\n      0x08c379a000000000000000000000000000000000000000000000000000000000\n      dup2\n      mstore\n      0x04\n      add\n      tag_92\n      swap1\n      tag_93\n      jump\t// in\n    tag_92:\n      mload(0x40)\n      dup1\n      swap2\n      sub\n      swap1\n      revert\n    tag_91:\n        /* \"contracts/Ballot/MyBallot.sol\":1166:1172  voters */\n      0x01\n        /* \"contracts/Ballot/MyBallot.sol\":1166:1179  voters[voter] */\n      0x00\n        /* \"contracts/Ballot/MyBallot.sol\":1173:1178  voter */\n      dup3\n        /* \"contracts/Ballot/MyBallot.sol\":1166:1179  voters[voter] */\n      0xffffffffffffffffffffffffffffffffffffffff\n      and\n      0xffffffffffffffffffffffffffffffffffffffff\n      and\n      dup2\n      mstore\n      0x20\n      add\n      swap1\n      dup2\n      mstore\n      0x20\n      add\n      0x00\n      keccak256\n        /* \"contracts/Ballot/MyBallot.sol\":1166:1188  voters[voter].hasVoted */\n      0x00\n      add\n      0x01\n      swap1\n      sload\n      swap1\n      0x0100\n      exp\n      swap1\n      div\n      0xff\n      and\n        /* \"contracts/Ballot/MyBallot.sol\":1165:1188  !voters[voter].hasVoted */\n      iszero\n        /* \"contracts/Ballot/MyBallot.sol\":1143:1240  require(... */\n      tag_94\n      jumpi\n      mload(0x40)\n      0x08c379a000000000000000000000000000000000000000000000000000000000\n      dup2\n      mstore\n      0x04\n      add\n      tag_95\n      swap1\n      tag_96\n      jump\t// in\n    tag_95:\n      mload(0x40)\n      dup1\n      swap2\n      sub\n      swap1\n      revert\n    tag_94:\n        /* \"contracts/Ballot/MyBallot.sol\":1275:1280  false */\n      0x00\n        /* \"contracts/Ballot/MyBallot.sol\":1251:1257  voters */\n      0x01\n        /* \"contracts/Ballot/MyBallot.sol\":1251:1264  voters[voter] */\n      0x00\n        /* \"contracts/Ballot/MyBallot.sol\":1258:1263  voter */\n      dup4\n        /* \"contracts/Ballot/MyBallot.sol\":1251:1264  voters[voter] */\n      0xffffffffffffffffffffffffffffffffffffffff\n      and\n      0xffffffffffffffffffffffffffffffffffffffff\n      and\n      dup2\n      mstore\n      0x20\n      add\n      swap1\n      dup2\n      mstore\n      0x20\n      add\n      0x00\n      keccak256\n        /* \"contracts/Ballot/MyBallot.sol\":1251:1272  voters[voter].canVote */\n      0x00\n      add\n      0x00\n        /* \"contracts/Ballot/MyBallot.sol\":1251:1280  voters[voter].canVote = false */\n      0x0100\n      exp\n      dup2\n      sload\n      dup2\n      0xff\n      mul\n      not\n      and\n      swap1\n      dup4\n      iszero\n      iszero\n      mul\n      or\n      swap1\n      sstore\n      pop\n        /* \"contracts/Ballot/MyBallot.sol\":950:1288  function giveRightToVote(address voter) public {... */\n      pop\n      jump\t// out\n        /* \"contracts/Ballot/MyBallot.sol\":415:454  mapping(address => Voter) public voters */\n    tag_37:\n      mstore(0x20, 0x01)\n      dup1\n      0x00\n      mstore\n      keccak256(0x00, 0x40)\n      0x00\n      swap2\n      pop\n      swap1\n      pop\n      dup1\n      0x00\n      add\n      0x00\n      swap1\n      sload\n      swap1\n      0x0100\n      exp\n      swap1\n      div\n      0xff\n      and\n      swap1\n      dup1\n      0x00\n      add\n      0x01\n      swap1\n      sload\n      swap1\n      0x0100\n      exp\n      swap1\n      div\n      0xff\n      and\n      swap1\n      pop\n      dup3\n      jump\t// out\n        /* \"contracts/Ballot/MyBallot.sol\":1861:2309  function getWinningProposal() public view returns (uint winningProposal)... */\n    tag_41:\n        /* \"contracts/Ballot/MyBallot.sol\":1912:1932  uint winningProposal */\n      0x00\n        /* \"contracts/Ballot/MyBallot.sol\":1950:1971  uint winningVoteCount */\n      dup1\n        /* \"contracts/Ballot/MyBallot.sol\":1974:1975  0 */\n      0x00\n        /* \"contracts/Ballot/MyBallot.sol\":1950:1975  uint winningVoteCount = 0 */\n      swap1\n      pop\n        /* \"contracts/Ballot/MyBallot.sol\":1993:2012  uint indexCandidate */\n      0x00\n        /* \"contracts/Ballot/MyBallot.sol\":1988:2302  for (uint indexCandidate = 0; indexCandidate < candidates.length; indexCandidate++) {... */\n    tag_98:\n        /* \"contracts/Ballot/MyBallot.sol\":2035:2045  candidates */\n      0x02\n        /* \"contracts/Ballot/MyBallot.sol\":2035:2052  candidates.length */\n      dup1\n      sload\n      swap1\n      pop\n        /* \"contracts/Ballot/MyBallot.sol\":2018:2032  indexCandidate */\n      dup2\n        /* \"contracts/Ballot/MyBallot.sol\":2018:2052  indexCandidate < candidates.length */\n      lt\n        /* \"contracts/Ballot/MyBallot.sol\":1988:2302  for (uint indexCandidate = 0; indexCandidate < candidates.length; indexCandidate++) {... */\n      iszero\n      tag_99\n      jumpi\n        /* \"contracts/Ballot/MyBallot.sol\":2131:2147  winningVoteCount */\n      dup2\n        /* \"contracts/Ballot/MyBallot.sol\":2091:2101  candidates */\n      0x02\n        /* \"contracts/Ballot/MyBallot.sol\":2102:2116  indexCandidate */\n      dup3\n        /* \"contracts/Ballot/MyBallot.sol\":2091:2117  candidates[indexCandidate] */\n      dup2\n      sload\n      dup2\n      lt\n      tag_101\n      jumpi\n      tag_102\n      tag_55\n      jump\t// in\n    tag_102:\n    tag_101:\n      swap1\n      0x00\n      mstore\n      keccak256(0x00, 0x20)\n      swap1\n      0x03\n      mul\n      add\n        /* \"contracts/Ballot/MyBallot.sol\":2091:2128  candidates[indexCandidate].votesCount */\n      0x02\n      add\n      sload\n        /* \"contracts/Ballot/MyBallot.sol\":2091:2147  candidates[indexCandidate].votesCount > winningVoteCount */\n      gt\n        /* \"contracts/Ballot/MyBallot.sol\":2087:2291  if (candidates[indexCandidate].votesCount > winningVoteCount) {... */\n      iszero\n      tag_104\n      jumpi\n        /* \"contracts/Ballot/MyBallot.sol\":2187:2197  candidates */\n      0x02\n        /* \"contracts/Ballot/MyBallot.sol\":2198:2212  indexCandidate */\n      dup2\n        /* \"contracts/Ballot/MyBallot.sol\":2187:2213  candidates[indexCandidate] */\n      dup2\n      sload\n      dup2\n      lt\n      tag_105\n      jumpi\n      tag_106\n      tag_55\n      jump\t// in\n    tag_106:\n    tag_105:\n      swap1\n      0x00\n      mstore\n      keccak256(0x00, 0x20)\n      swap1\n      0x03\n      mul\n      add\n        /* \"contracts/Ballot/MyBallot.sol\":2187:2224  candidates[indexCandidate].votesCount */\n      0x02\n      add\n      sload\n        /* \"contracts/Ballot/MyBallot.sol\":2168:2224  winningVoteCount = candidates[indexCandidate].votesCount */\n      swap2\n      pop\n        /* \"contracts/Ballot/MyBallot.sol\":2261:2275  indexCandidate */\n      dup1\n        /* \"contracts/Ballot/MyBallot.sol\":2243:2275  winningProposal = indexCandidate */\n      swap3\n      pop\n        /* \"contracts/Ballot/MyBallot.sol\":2087:2291  if (candidates[indexCandidate].votesCount > winningVoteCount) {... */\n    tag_104:\n        /* \"contracts/Ballot/MyBallot.sol\":2054:2070  indexCandidate++ */\n      dup1\n      dup1\n      tag_108\n      swap1\n      tag_109\n      jump\t// in\n    tag_108:\n      swap2\n      pop\n      pop\n        /* \"contracts/Ballot/MyBallot.sol\":1988:2302  for (uint indexCandidate = 0; indexCandidate < candidates.length; indexCandidate++) {... */\n      jump(tag_98)\n    tag_99:\n      pop\n        /* \"contracts/Ballot/MyBallot.sol\":1939:2309  {... */\n      pop\n        /* \"contracts/Ballot/MyBallot.sol\":1861:2309  function getWinningProposal() public view returns (uint winningProposal)... */\n      swap1\n      jump\t// out\n        /* \"contracts/Ballot/MyBallot.sol\":378:406  address public contractOwner */\n    tag_45:\n      0x00\n      dup1\n      sload\n      swap1\n      0x0100\n      exp\n      swap1\n      div\n      0xffffffffffffffffffffffffffffffffffffffff\n      and\n      dup2\n      jump\t// out\n        /* \"contracts/Ballot/MyBallot.sol\":1296:1853  function vote(string memory name) public {... */\n    tag_50:\n        /* \"contracts/Ballot/MyBallot.sol\":1348:1368  Voter storage sender */\n      0x00\n        /* \"contracts/Ballot/MyBallot.sol\":1371:1377  voters */\n      0x01\n        /* \"contracts/Ballot/MyBallot.sol\":1371:1389  voters[msg.sender] */\n      0x00\n        /* \"contracts/Ballot/MyBallot.sol\":1378:1388  msg.sender */\n      caller\n        /* \"contracts/Ballot/MyBallot.sol\":1371:1389  voters[msg.sender] */\n      0xffffffffffffffffffffffffffffffffffffffff\n      and\n      0xffffffffffffffffffffffffffffffffffffffff\n      and\n      dup2\n      mstore\n      0x20\n      add\n      swap1\n      dup2\n      mstore\n      0x20\n      add\n      0x00\n      keccak256\n        /* \"contracts/Ballot/MyBallot.sol\":1348:1389  Voter storage sender = voters[msg.sender] */\n      swap1\n      pop\n        /* \"contracts/Ballot/MyBallot.sol\":1418:1424  sender */\n      dup1\n        /* \"contracts/Ballot/MyBallot.sol\":1418:1432  sender.canVote */\n      0x00\n      add\n      0x00\n      swap1\n      sload\n      swap1\n      0x0100\n      exp\n      swap1\n      div\n      0xff\n      and\n        /* \"contracts/Ballot/MyBallot.sol\":1410:1457  require(sender.canVote, \"Has no right to vote\") */\n      tag_111\n      jumpi\n      mload(0x40)\n      0x08c379a000000000000000000000000000000000000000000000000000000000\n      dup2\n      mstore\n      0x04\n      add\n      tag_112\n      swap1\n      tag_113\n      jump\t// in\n    tag_112:\n      mload(0x40)\n      dup1\n      swap2\n      sub\n      swap1\n      revert\n    tag_111:\n        /* \"contracts/Ballot/MyBallot.sol\":1477:1483  sender */\n      dup1\n        /* \"contracts/Ballot/MyBallot.sol\":1477:1492  sender.hasVoted */\n      0x00\n      add\n      0x01\n      swap1\n      sload\n      swap1\n      0x0100\n      exp\n      swap1\n      div\n      0xff\n      and\n        /* \"contracts/Ballot/MyBallot.sol\":1476:1492  !sender.hasVoted */\n      iszero\n        /* \"contracts/Ballot/MyBallot.sol\":1468:1511  require(!sender.hasVoted, \"Already voted.\") */\n      tag_114\n      jumpi\n      mload(0x40)\n      0x08c379a000000000000000000000000000000000000000000000000000000000\n      dup2\n      mstore\n      0x04\n      add\n      tag_115\n      swap1\n      tag_116\n      jump\t// in\n    tag_115:\n      mload(0x40)\n      dup1\n      swap2\n      sub\n      swap1\n      revert\n    tag_114:\n        /* \"contracts/Ballot/MyBallot.sol\":1524:1543  uint indexCandidate */\n      0x00\n        /* \"contracts/Ballot/MyBallot.sol\":1561:1571  uint index */\n      dup1\n        /* \"contracts/Ballot/MyBallot.sol\":1574:1575  0 */\n      0x00\n        /* \"contracts/Ballot/MyBallot.sol\":1561:1575  uint index = 0 */\n      swap1\n      pop\n        /* \"contracts/Ballot/MyBallot.sol\":1556:1760  for (uint index = 0; index < candidates.length; index++) {... */\n    tag_117:\n        /* \"contracts/Ballot/MyBallot.sol\":1585:1595  candidates */\n      0x02\n        /* \"contracts/Ballot/MyBallot.sol\":1585:1602  candidates.length */\n      dup1\n      sload\n      swap1\n      pop\n        /* \"contracts/Ballot/MyBallot.sol\":1577:1582  index */\n      dup2\n        /* \"contracts/Ballot/MyBallot.sol\":1577:1602  index < candidates.length */\n      lt\n        /* \"contracts/Ballot/MyBallot.sol\":1556:1760  for (uint index = 0; index < candidates.length; index++) {... */\n      iszero\n      tag_118\n      jumpi\n        /* \"contracts/Ballot/MyBallot.sol\":1701:1705  name */\n      dup4\n        /* \"contracts/Ballot/MyBallot.sol\":1690:1706  abi.encode(name) */\n      add(0x20, mload(0x40))\n      tag_120\n      swap2\n      swap1\n      tag_16\n      jump\t// in\n    tag_120:\n      mload(0x40)\n      0x20\n      dup2\n      dup4\n      sub\n      sub\n      dup2\n      mstore\n      swap1\n      0x40\n      mstore\n        /* \"contracts/Ballot/MyBallot.sol\":1680:1707  keccak256(abi.encode(name)) */\n      dup1\n      mload\n      swap1\n      0x20\n      add\n      keccak256\n        /* \"contracts/Ballot/MyBallot.sol\":1652:1662  candidates */\n      0x02\n        /* \"contracts/Ballot/MyBallot.sol\":1663:1668  index */\n      dup3\n        /* \"contracts/Ballot/MyBallot.sol\":1652:1669  candidates[index] */\n      dup2\n      sload\n      dup2\n      lt\n      tag_121\n      jumpi\n      tag_122\n      tag_55\n      jump\t// in\n    tag_122:\n    tag_121:\n      swap1\n      0x00\n      mstore\n      keccak256(0x00, 0x20)\n      swap1\n      0x03\n      mul\n      add\n        /* \"contracts/Ballot/MyBallot.sol\":1652:1674  candidates[index].name */\n      0x00\n      add\n        /* \"contracts/Ballot/MyBallot.sol\":1641:1675  abi.encode(candidates[index].name) */\n      add(0x20, mload(0x40))\n      tag_124\n      swap2\n      swap1\n      tag_125\n      jump\t// in\n    tag_124:\n      mload(0x40)\n      0x20\n      dup2\n      dup4\n      sub\n      sub\n      dup2\n      mstore\n      swap1\n      0x40\n      mstore\n        /* \"contracts/Ballot/MyBallot.sol\":1631:1676  keccak256(abi.encode(candidates[index].name)) */\n      dup1\n      mload\n      swap1\n      0x20\n      add\n      keccak256\n        /* \"contracts/Ballot/MyBallot.sol\":1631:1707  keccak256(abi.encode(candidates[index].name)) == keccak256(abi.encode(name)) */\n      sub\n        /* \"contracts/Ballot/MyBallot.sol\":1628:1748  if(keccak256(abi.encode(candidates[index].name)) == keccak256(abi.encode(name)))... */\n      tag_126\n      jumpi\n        /* \"contracts/Ballot/MyBallot.sol\":1743:1748  index */\n      dup1\n        /* \"contracts/Ballot/MyBallot.sol\":1726:1748  indexCandidate = index */\n      swap2\n      pop\n        /* \"contracts/Ballot/MyBallot.sol\":1628:1748  if(keccak256(abi.encode(candidates[index].name)) == keccak256(abi.encode(name)))... */\n    tag_126:\n        /* \"contracts/Ballot/MyBallot.sol\":1604:1611  index++ */\n      dup1\n      dup1\n      tag_127\n      swap1\n      tag_109\n      jump\t// in\n    tag_127:\n      swap2\n      pop\n      pop\n        /* \"contracts/Ballot/MyBallot.sol\":1556:1760  for (uint index = 0; index < candidates.length; index++) {... */\n      jump(tag_117)\n    tag_118:\n      pop\n        /* \"contracts/Ballot/MyBallot.sol\":1772:1782  candidates */\n      0x02\n        /* \"contracts/Ballot/MyBallot.sol\":1783:1797  indexCandidate */\n      dup2\n        /* \"contracts/Ballot/MyBallot.sol\":1772:1798  candidates[indexCandidate] */\n      dup2\n      sload\n      dup2\n      lt\n      tag_128\n      jumpi\n      tag_129\n      tag_55\n      jump\t// in\n    tag_129:\n    tag_128:\n      swap1\n      0x00\n      mstore\n      keccak256(0x00, 0x20)\n      swap1\n      0x03\n      mul\n      add\n        /* \"contracts/Ballot/MyBallot.sol\":1772:1809  candidates[indexCandidate].votesCount */\n      0x02\n      add\n      0x00\n        /* \"contracts/Ballot/MyBallot.sol\":1772:1812  candidates[indexCandidate].votesCount ++ */\n      dup2\n      sload\n      dup1\n      swap3\n      swap2\n      swap1\n      tag_131\n      swap1\n      tag_109\n      jump\t// in\n    tag_131:\n      swap2\n      swap1\n      pop\n      sstore\n      pop\n        /* \"contracts/Ballot/MyBallot.sol\":1841:1845  true */\n      0x01\n        /* \"contracts/Ballot/MyBallot.sol\":1823:1829  sender */\n      dup3\n        /* \"contracts/Ballot/MyBallot.sol\":1823:1838  sender.hasVoted */\n      0x00\n      add\n      0x01\n        /* \"contracts/Ballot/MyBallot.sol\":1823:1845  sender.hasVoted = true */\n      0x0100\n      exp\n      dup2\n      sload\n      dup2\n      0xff\n      mul\n      not\n      and\n      swap1\n      dup4\n      iszero\n      iszero\n      mul\n      or\n      swap1\n      sstore\n      pop\n        /* \"contracts/Ballot/MyBallot.sol\":1337:1853  {... */\n      pop\n      pop\n        /* \"contracts/Ballot/MyBallot.sol\":1296:1853  function vote(string memory name) public {... */\n      pop\n      jump\t// out\n        /* \"#utility.yul\":7:106   */\n    tag_132:\n        /* \"#utility.yul\":59:65   */\n      0x00\n        /* \"#utility.yul\":93:98   */\n      dup2\n        /* \"#utility.yul\":87:99   */\n      mload\n        /* \"#utility.yul\":77:99   */\n      swap1\n      pop\n        /* \"#utility.yul\":7:106   */\n      swap2\n      swap1\n      pop\n      jump\t// out\n        /* \"#utility.yul\":112:281   */\n    tag_133:\n        /* \"#utility.yul\":196:207   */\n      0x00\n        /* \"#utility.yul\":230:236   */\n      dup3\n        /* \"#utility.yul\":225:228   */\n      dup3\n        /* \"#utility.yul\":218:237   */\n      mstore\n        /* \"#utility.yul\":270:274   */\n      0x20\n        /* \"#utility.yul\":265:268   */\n      dup3\n        /* \"#utility.yul\":261:275   */\n      add\n        /* \"#utility.yul\":246:275   */\n      swap1\n      pop\n        /* \"#utility.yul\":112:281   */\n      swap3\n      swap2\n      pop\n      pop\n      jump\t// out\n        /* \"#utility.yul\":287:533   */\n    tag_134:\n        /* \"#utility.yul\":368:369   */\n      0x00\n        /* \"#utility.yul\":378:491   */\n    tag_186:\n        /* \"#utility.yul\":392:398   */\n      dup4\n        /* \"#utility.yul\":389:390   */\n      dup2\n        /* \"#utility.yul\":386:399   */\n      lt\n        /* \"#utility.yul\":378:491   */\n      iszero\n      tag_188\n      jumpi\n        /* \"#utility.yul\":477:478   */\n      dup1\n        /* \"#utility.yul\":472:475   */\n      dup3\n        /* \"#utility.yul\":468:479   */\n      add\n        /* \"#utility.yul\":462:480   */\n      mload\n        /* \"#utility.yul\":458:459   */\n      dup2\n        /* \"#utility.yul\":453:456   */\n      dup5\n        /* \"#utility.yul\":449:460   */\n      add\n        /* \"#utility.yul\":442:481   */\n      mstore\n        /* \"#utility.yul\":414:416   */\n      0x20\n        /* \"#utility.yul\":411:412   */\n      dup2\n        /* \"#utility.yul\":407:417   */\n      add\n        /* \"#utility.yul\":402:417   */\n      swap1\n      pop\n        /* \"#utility.yul\":378:491   */\n      jump(tag_186)\n    tag_188:\n        /* \"#utility.yul\":525:526   */\n      0x00\n        /* \"#utility.yul\":516:522   */\n      dup5\n        /* \"#utility.yul\":511:514   */\n      dup5\n        /* \"#utility.yul\":507:523   */\n      add\n        /* \"#utility.yul\":500:527   */\n      mstore\n        /* \"#utility.yul\":349:533   */\n      pop\n        /* \"#utility.yul\":287:533   */\n      pop\n      pop\n      pop\n      jump\t// out\n        /* \"#utility.yul\":539:641   */\n    tag_135:\n        /* \"#utility.yul\":580:586   */\n      0x00\n        /* \"#utility.yul\":631:633   */\n      0x1f\n        /* \"#utility.yul\":627:634   */\n      not\n        /* \"#utility.yul\":622:624   */\n      0x1f\n        /* \"#utility.yul\":615:620   */\n      dup4\n        /* \"#utility.yul\":611:625   */\n      add\n        /* \"#utility.yul\":607:635   */\n      and\n        /* \"#utility.yul\":597:635   */\n      swap1\n      pop\n        /* \"#utility.yul\":539:641   */\n      swap2\n      swap1\n      pop\n      jump\t// out\n        /* \"#utility.yul\":647:1024   */\n    tag_136:\n        /* \"#utility.yul\":735:738   */\n      0x00\n        /* \"#utility.yul\":763:802   */\n      tag_191\n        /* \"#utility.yul\":796:801   */\n      dup3\n        /* \"#utility.yul\":763:802   */\n      tag_132\n      jump\t// in\n    tag_191:\n        /* \"#utility.yul\":818:889   */\n      tag_192\n        /* \"#utility.yul\":882:888   */\n      dup2\n        /* \"#utility.yul\":877:880   */\n      dup6\n        /* \"#utility.yul\":818:889   */\n      tag_133\n      jump\t// in\n    tag_192:\n        /* \"#utility.yul\":811:889   */\n      swap4\n      pop\n        /* \"#utility.yul\":898:963   */\n      tag_193\n        /* \"#utility.yul\":956:962   */\n      dup2\n        /* \"#utility.yul\":951:954   */\n      dup6\n        /* \"#utility.yul\":944:948   */\n      0x20\n        /* \"#utility.yul\":937:942   */\n      dup7\n        /* \"#utility.yul\":933:949   */\n      add\n        /* \"#utility.yul\":898:963   */\n      tag_134\n      jump\t// in\n    tag_193:\n        /* \"#utility.yul\":988:1017   */\n      tag_194\n        /* \"#utility.yul\":1010:1016   */\n      dup2\n        /* \"#utility.yul\":988:1017   */\n      tag_135\n      jump\t// in\n    tag_194:\n        /* \"#utility.yul\":983:986   */\n      dup5\n        /* \"#utility.yul\":979:1018   */\n      add\n        /* \"#utility.yul\":972:1018   */\n      swap2\n      pop\n        /* \"#utility.yul\":739:1024   */\n      pop\n        /* \"#utility.yul\":647:1024   */\n      swap3\n      swap2\n      pop\n      pop\n      jump\t// out\n        /* \"#utility.yul\":1030:1343   */\n    tag_16:\n        /* \"#utility.yul\":1143:1147   */\n      0x00\n        /* \"#utility.yul\":1181:1183   */\n      0x20\n        /* \"#utility.yul\":1170:1179   */\n      dup3\n        /* \"#utility.yul\":1166:1184   */\n      add\n        /* \"#utility.yul\":1158:1184   */\n      swap1\n      pop\n        /* \"#utility.yul\":1230:1239   */\n      dup2\n        /* \"#utility.yul\":1224:1228   */\n      dup2\n        /* \"#utility.yul\":1220:1240   */\n      sub\n        /* \"#utility.yul\":1216:1217   */\n      0x00\n        /* \"#utility.yul\":1205:1214   */\n      dup4\n        /* \"#utility.yul\":1201:1218   */\n      add\n        /* \"#utility.yul\":1194:1241   */\n      mstore\n        /* \"#utility.yul\":1258:1336   */\n      tag_196\n        /* \"#utility.yul\":1331:1335   */\n      dup2\n        /* \"#utility.yul\":1322:1328   */\n      dup5\n        /* \"#utility.yul\":1258:1336   */\n      tag_136\n      jump\t// in\n    tag_196:\n        /* \"#utility.yul\":1250:1336   */\n      swap1\n      pop\n        /* \"#utility.yul\":1030:1343   */\n      swap3\n      swap2\n      pop\n      pop\n      jump\t// out\n        /* \"#utility.yul\":1349:1475   */\n    tag_137:\n        /* \"#utility.yul\":1386:1393   */\n      0x00\n        /* \"#utility.yul\":1426:1468   */\n      0xffffffffffffffffffffffffffffffffffffffff\n        /* \"#utility.yul\":1419:1424   */\n      dup3\n        /* \"#utility.yul\":1415:1469   */\n      and\n        /* \"#utility.yul\":1404:1469   */\n      swap1\n      pop\n        /* \"#utility.yul\":1349:1475   */\n      swap2\n      swap1\n      pop\n      jump\t// out\n        /* \"#utility.yul\":1481:1577   */\n    tag_138:\n        /* \"#utility.yul\":1518:1525   */\n      0x00\n        /* \"#utility.yul\":1547:1571   */\n      tag_199\n        /* \"#utility.yul\":1565:1570   */\n      dup3\n        /* \"#utility.yul\":1547:1571   */\n      tag_137\n      jump\t// in\n    tag_199:\n        /* \"#utility.yul\":1536:1571   */\n      swap1\n      pop\n        /* \"#utility.yul\":1481:1577   */\n      swap2\n      swap1\n      pop\n      jump\t// out\n        /* \"#utility.yul\":1583:1701   */\n    tag_139:\n        /* \"#utility.yul\":1670:1694   */\n      tag_201\n        /* \"#utility.yul\":1688:1693   */\n      dup2\n        /* \"#utility.yul\":1670:1694   */\n      tag_138\n      jump\t// in\n    tag_201:\n        /* \"#utility.yul\":1665:1668   */\n      dup3\n        /* \"#utility.yul\":1658:1695   */\n      mstore\n        /* \"#utility.yul\":1583:1701   */\n      pop\n      pop\n      jump\t// out\n        /* \"#utility.yul\":1707:1929   */\n    tag_20:\n        /* \"#utility.yul\":1800:1804   */\n      0x00\n        /* \"#utility.yul\":1838:1840   */\n      0x20\n        /* \"#utility.yul\":1827:1836   */\n      dup3\n        /* \"#utility.yul\":1823:1841   */\n      add\n        /* \"#utility.yul\":1815:1841   */\n      swap1\n      pop\n        /* \"#utility.yul\":1851:1922   */\n      tag_203\n        /* \"#utility.yul\":1919:1920   */\n      0x00\n        /* \"#utility.yul\":1908:1917   */\n      dup4\n        /* \"#utility.yul\":1904:1921   */\n      add\n        /* \"#utility.yul\":1895:1901   */\n      dup5\n        /* \"#utility.yul\":1851:1922   */\n      tag_139\n      jump\t// in\n    tag_203:\n        /* \"#utility.yul\":1707:1929   */\n      swap3\n      swap2\n      pop\n      pop\n      jump\t// out\n        /* \"#utility.yul\":1935:2010   */\n    tag_140:\n        /* \"#utility.yul\":1968:1974   */\n      0x00\n        /* \"#utility.yul\":2001:2003   */\n      0x40\n        /* \"#utility.yul\":1995:2004   */\n      mload\n        /* \"#utility.yul\":1985:2004   */\n      swap1\n      pop\n        /* \"#utility.yul\":1935:2010   */\n      swap1\n      jump\t// out\n        /* \"#utility.yul\":2016:2133   */\n    tag_141:\n        /* \"#utility.yul\":2125:2126   */\n      0x00\n        /* \"#utility.yul\":2122:2123   */\n      dup1\n        /* \"#utility.yul\":2115:2127   */\n      revert\n        /* \"#utility.yul\":2139:2256   */\n    tag_142:\n        /* \"#utility.yul\":2248:2249   */\n      0x00\n        /* \"#utility.yul\":2245:2246   */\n      dup1\n        /* \"#utility.yul\":2238:2250   */\n      revert\n        /* \"#utility.yul\":2262:2339   */\n    tag_143:\n        /* \"#utility.yul\":2299:2306   */\n      0x00\n        /* \"#utility.yul\":2328:2333   */\n      dup2\n        /* \"#utility.yul\":2317:2333   */\n      swap1\n      pop\n        /* \"#utility.yul\":2262:2339   */\n      swap2\n      swap1\n      pop\n      jump\t// out\n        /* \"#utility.yul\":2345:2467   */\n    tag_144:\n        /* \"#utility.yul\":2418:2442   */\n      tag_209\n        /* \"#utility.yul\":2436:2441   */\n      dup2\n        /* \"#utility.yul\":2418:2442   */\n      tag_143\n      jump\t// in\n    tag_209:\n        /* \"#utility.yul\":2411:2416   */\n      dup2\n        /* \"#utility.yul\":2408:2443   */\n      eq\n        /* \"#utility.yul\":2398:2461   */\n      tag_210\n      jumpi\n        /* \"#utility.yul\":2457:2458   */\n      0x00\n        /* \"#utility.yul\":2454:2455   */\n      dup1\n        /* \"#utility.yul\":2447:2459   */\n      revert\n        /* \"#utility.yul\":2398:2461   */\n    tag_210:\n        /* \"#utility.yul\":2345:2467   */\n      pop\n      jump\t// out\n        /* \"#utility.yul\":2473:2612   */\n    tag_145:\n        /* \"#utility.yul\":2519:2524   */\n      0x00\n        /* \"#utility.yul\":2557:2563   */\n      dup2\n        /* \"#utility.yul\":2544:2564   */\n      calldataload\n        /* \"#utility.yul\":2535:2564   */\n      swap1\n      pop\n        /* \"#utility.yul\":2573:2606   */\n      tag_212\n        /* \"#utility.yul\":2600:2605   */\n      dup2\n        /* \"#utility.yul\":2573:2606   */\n      tag_144\n      jump\t// in\n    tag_212:\n        /* \"#utility.yul\":2473:2612   */\n      swap3\n      swap2\n      pop\n      pop\n      jump\t// out\n        /* \"#utility.yul\":2618:2947   */\n    tag_23:\n        /* \"#utility.yul\":2677:2683   */\n      0x00\n        /* \"#utility.yul\":2726:2728   */\n      0x20\n        /* \"#utility.yul\":2714:2723   */\n      dup3\n        /* \"#utility.yul\":2705:2712   */\n      dup5\n        /* \"#utility.yul\":2701:2724   */\n      sub\n        /* \"#utility.yul\":2697:2729   */\n      slt\n        /* \"#utility.yul\":2694:2813   */\n      iszero\n      tag_214\n      jumpi\n        /* \"#utility.yul\":2732:2811   */\n      tag_215\n      tag_141\n      jump\t// in\n    tag_215:\n        /* \"#utility.yul\":2694:2813   */\n    tag_214:\n        /* \"#utility.yul\":2852:2853   */\n      0x00\n        /* \"#utility.yul\":2877:2930   */\n      tag_216\n        /* \"#utility.yul\":2922:2929   */\n      dup5\n        /* \"#utility.yul\":2913:2919   */\n      dup3\n        /* \"#utility.yul\":2902:2911   */\n      dup6\n        /* \"#utility.yul\":2898:2920   */\n      add\n        /* \"#utility.yul\":2877:2930   */\n      tag_145\n      jump\t// in\n    tag_216:\n        /* \"#utility.yul\":2867:2930   */\n      swap2\n      pop\n        /* \"#utility.yul\":2823:2940   */\n      pop\n        /* \"#utility.yul\":2618:2947   */\n      swap3\n      swap2\n      pop\n      pop\n      jump\t// out\n        /* \"#utility.yul\":2953:3071   */\n    tag_146:\n        /* \"#utility.yul\":3040:3064   */\n      tag_218\n        /* \"#utility.yul\":3058:3063   */\n      dup2\n        /* \"#utility.yul\":3040:3064   */\n      tag_143\n      jump\t// in\n    tag_218:\n        /* \"#utility.yul\":3035:3038   */\n      dup3\n        /* \"#utility.yul\":3028:3065   */\n      mstore\n        /* \"#utility.yul\":2953:3071   */\n      pop\n      pop\n      jump\t// out\n        /* \"#utility.yul\":3077:3701   */\n    tag_26:\n        /* \"#utility.yul\":3266:3270   */\n      0x00\n        /* \"#utility.yul\":3304:3306   */\n      0x60\n        /* \"#utility.yul\":3293:3302   */\n      dup3\n        /* \"#utility.yul\":3289:3307   */\n      add\n        /* \"#utility.yul\":3281:3307   */\n      swap1\n      pop\n        /* \"#utility.yul\":3353:3362   */\n      dup2\n        /* \"#utility.yul\":3347:3351   */\n      dup2\n        /* \"#utility.yul\":3343:3363   */\n      sub\n        /* \"#utility.yul\":3339:3340   */\n      0x00\n        /* \"#utility.yul\":3328:3337   */\n      dup4\n        /* \"#utility.yul\":3324:3341   */\n      add\n        /* \"#utility.yul\":3317:3364   */\n      mstore\n        /* \"#utility.yul\":3381:3459   */\n      tag_220\n        /* \"#utility.yul\":3454:3458   */\n      dup2\n        /* \"#utility.yul\":3445:3451   */\n      dup7\n        /* \"#utility.yul\":3381:3459   */\n      tag_136\n      jump\t// in\n    tag_220:\n        /* \"#utility.yul\":3373:3459   */\n      swap1\n      pop\n        /* \"#utility.yul\":3506:3515   */\n      dup2\n        /* \"#utility.yul\":3500:3504   */\n      dup2\n        /* \"#utility.yul\":3496:3516   */\n      sub\n        /* \"#utility.yul\":3491:3493   */\n      0x20\n        /* \"#utility.yul\":3480:3489   */\n      dup4\n        /* \"#utility.yul\":3476:3494   */\n      add\n        /* \"#utility.yul\":3469:3517   */\n      mstore\n        /* \"#utility.yul\":3534:3612   */\n      tag_221\n        /* \"#utility.yul\":3607:3611   */\n      dup2\n        /* \"#utility.yul\":3598:3604   */\n      dup6\n        /* \"#utility.yul\":3534:3612   */\n      tag_136\n      jump\t// in\n    tag_221:\n        /* \"#utility.yul\":3526:3612   */\n      swap1\n      pop\n        /* \"#utility.yul\":3622:3694   */\n      tag_222\n        /* \"#utility.yul\":3690:3692   */\n      0x40\n        /* \"#utility.yul\":3679:3688   */\n      dup4\n        /* \"#utility.yul\":3675:3693   */\n      add\n        /* \"#utility.yul\":3666:3672   */\n      dup5\n        /* \"#utility.yul\":3622:3694   */\n      tag_146\n      jump\t// in\n    tag_222:\n        /* \"#utility.yul\":3077:3701   */\n      swap5\n      swap4\n      pop\n      pop\n      pop\n      pop\n      jump\t// out\n        /* \"#utility.yul\":3707:3846   */\n    tag_147:\n        /* \"#utility.yul\":3799:3805   */\n      0x00\n        /* \"#utility.yul\":3833:3838   */\n      dup2\n        /* \"#utility.yul\":3827:3839   */\n      mload\n        /* \"#utility.yul\":3817:3839   */\n      swap1\n      pop\n        /* \"#utility.yul\":3707:3846   */\n      swap2\n      swap1\n      pop\n      jump\t// out\n        /* \"#utility.yul\":3852:4061   */\n    tag_148:\n        /* \"#utility.yul\":3976:3987   */\n      0x00\n        /* \"#utility.yul\":4010:4016   */\n      dup3\n        /* \"#utility.yul\":4005:4008   */\n      dup3\n        /* \"#utility.yul\":3998:4017   */\n      mstore\n        /* \"#utility.yul\":4050:4054   */\n      0x20\n        /* \"#utility.yul\":4045:4048   */\n      dup3\n        /* \"#utility.yul\":4041:4055   */\n      add\n        /* \"#utility.yul\":4026:4055   */\n      swap1\n      pop\n        /* \"#utility.yul\":3852:4061   */\n      swap3\n      swap2\n      pop\n      pop\n      jump\t// out\n        /* \"#utility.yul\":4067:4224   */\n    tag_149:\n        /* \"#utility.yul\":4159:4163   */\n      0x00\n        /* \"#utility.yul\":4182:4185   */\n      dup2\n        /* \"#utility.yul\":4174:4185   */\n      swap1\n      pop\n        /* \"#utility.yul\":4212:4216   */\n      0x20\n        /* \"#utility.yul\":4207:4210   */\n      dup3\n        /* \"#utility.yul\":4203:4217   */\n      add\n        /* \"#utility.yul\":4195:4217   */\n      swap1\n      pop\n        /* \"#utility.yul\":4067:4224   */\n      swap2\n      swap1\n      pop\n      jump\t// out\n        /* \"#utility.yul\":4230:4389   */\n    tag_150:\n        /* \"#utility.yul\":4304:4315   */\n      0x00\n        /* \"#utility.yul\":4338:4344   */\n      dup3\n        /* \"#utility.yul\":4333:4336   */\n      dup3\n        /* \"#utility.yul\":4326:4345   */\n      mstore\n        /* \"#utility.yul\":4378:4382   */\n      0x20\n        /* \"#utility.yul\":4373:4376   */\n      dup3\n        /* \"#utility.yul\":4369:4383   */\n      add\n        /* \"#utility.yul\":4354:4383   */\n      swap1\n      pop\n        /* \"#utility.yul\":4230:4389   */\n      swap3\n      swap2\n      pop\n      pop\n      jump\t// out\n        /* \"#utility.yul\":4395:4752   */\n    tag_151:\n        /* \"#utility.yul\":4473:4476   */\n      0x00\n        /* \"#utility.yul\":4501:4540   */\n      tag_228\n        /* \"#utility.yul\":4534:4539   */\n      dup3\n        /* \"#utility.yul\":4501:4540   */\n      tag_132\n      jump\t// in\n    tag_228:\n        /* \"#utility.yul\":4556:4617   */\n      tag_229\n        /* \"#utility.yul\":4610:4616   */\n      dup2\n        /* \"#utility.yul\":4605:4608   */\n      dup6\n        /* \"#utility.yul\":4556:4617   */\n      tag_150\n      jump\t// in\n    tag_229:\n        /* \"#utility.yul\":4549:4617   */\n      swap4\n      pop\n        /* \"#utility.yul\":4626:4691   */\n      tag_230\n        /* \"#utility.yul\":4684:4690   */\n      dup2\n        /* \"#utility.yul\":4679:4682   */\n      dup6\n        /* \"#utility.yul\":4672:4676   */\n      0x20\n        /* \"#utility.yul\":4665:4670   */\n      dup7\n        /* \"#utility.yul\":4661:4677   */\n      add\n        /* \"#utility.yul\":4626:4691   */\n      tag_134\n      jump\t// in\n    tag_230:\n        /* \"#utility.yul\":4716:4745   */\n      tag_231\n        /* \"#utility.yul\":4738:4744   */\n      dup2\n        /* \"#utility.yul\":4716:4745   */\n      tag_135\n      jump\t// in\n    tag_231:\n        /* \"#utility.yul\":4711:4714   */\n      dup5\n        /* \"#utility.yul\":4707:4746   */\n      add\n        /* \"#utility.yul\":4700:4746   */\n      swap2\n      pop\n        /* \"#utility.yul\":4477:4752   */\n      pop\n        /* \"#utility.yul\":4395:4752   */\n      swap3\n      swap2\n      pop\n      pop\n      jump\t// out\n        /* \"#utility.yul\":4758:4866   */\n    tag_152:\n        /* \"#utility.yul\":4835:4859   */\n      tag_233\n        /* \"#utility.yul\":4853:4858   */\n      dup2\n        /* \"#utility.yul\":4835:4859   */\n      tag_143\n      jump\t// in\n    tag_233:\n        /* \"#utility.yul\":4830:4833   */\n      dup3\n        /* \"#utility.yul\":4823:4860   */\n      mstore\n        /* \"#utility.yul\":4758:4866   */\n      pop\n      pop\n      jump\t// out\n        /* \"#utility.yul\":4934:5782   */\n    tag_153:\n        /* \"#utility.yul\":5043:5046   */\n      0x00\n        /* \"#utility.yul\":5079:5083   */\n      0x60\n        /* \"#utility.yul\":5074:5077   */\n      dup4\n        /* \"#utility.yul\":5070:5084   */\n      add\n        /* \"#utility.yul\":5166:5170   */\n      0x00\n        /* \"#utility.yul\":5159:5164   */\n      dup4\n        /* \"#utility.yul\":5155:5171   */\n      add\n        /* \"#utility.yul\":5149:5172   */\n      mload\n        /* \"#utility.yul\":5219:5222   */\n      dup5\n        /* \"#utility.yul\":5213:5217   */\n      dup3\n        /* \"#utility.yul\":5209:5223   */\n      sub\n        /* \"#utility.yul\":5202:5206   */\n      0x00\n        /* \"#utility.yul\":5197:5200   */\n      dup7\n        /* \"#utility.yul\":5193:5207   */\n      add\n        /* \"#utility.yul\":5186:5224   */\n      mstore\n        /* \"#utility.yul\":5245:5318   */\n      tag_235\n        /* \"#utility.yul\":5313:5317   */\n      dup3\n        /* \"#utility.yul\":5299:5311   */\n      dup3\n        /* \"#utility.yul\":5245:5318   */\n      tag_151\n      jump\t// in\n    tag_235:\n        /* \"#utility.yul\":5237:5318   */\n      swap2\n      pop\n        /* \"#utility.yul\":5094:5329   */\n      pop\n        /* \"#utility.yul\":5412:5416   */\n      0x20\n        /* \"#utility.yul\":5405:5410   */\n      dup4\n        /* \"#utility.yul\":5401:5417   */\n      add\n        /* \"#utility.yul\":5395:5418   */\n      mload\n        /* \"#utility.yul\":5465:5468   */\n      dup5\n        /* \"#utility.yul\":5459:5463   */\n      dup3\n        /* \"#utility.yul\":5455:5469   */\n      sub\n        /* \"#utility.yul\":5448:5452   */\n      0x20\n        /* \"#utility.yul\":5443:5446   */\n      dup7\n        /* \"#utility.yul\":5439:5453   */\n      add\n        /* \"#utility.yul\":5432:5470   */\n      mstore\n        /* \"#utility.yul\":5491:5564   */\n      tag_236\n        /* \"#utility.yul\":5559:5563   */\n      dup3\n        /* \"#utility.yul\":5545:5557   */\n      dup3\n        /* \"#utility.yul\":5491:5564   */\n      tag_151\n      jump\t// in\n    tag_236:\n        /* \"#utility.yul\":5483:5564   */\n      swap2\n      pop\n        /* \"#utility.yul\":5339:5575   */\n      pop\n        /* \"#utility.yul\":5663:5667   */\n      0x40\n        /* \"#utility.yul\":5656:5661   */\n      dup4\n        /* \"#utility.yul\":5652:5668   */\n      add\n        /* \"#utility.yul\":5646:5669   */\n      mload\n        /* \"#utility.yul\":5682:5745   */\n      tag_237\n        /* \"#utility.yul\":5739:5743   */\n      0x40\n        /* \"#utility.yul\":5734:5737   */\n      dup7\n        /* \"#utility.yul\":5730:5744   */\n      add\n        /* \"#utility.yul\":5716:5728   */\n      dup3\n        /* \"#utility.yul\":5682:5745   */\n      tag_152\n      jump\t// in\n    tag_237:\n        /* \"#utility.yul\":5585:5755   */\n      pop\n        /* \"#utility.yul\":5772:5776   */\n      dup1\n        /* \"#utility.yul\":5765:5776   */\n      swap2\n      pop\n        /* \"#utility.yul\":5048:5782   */\n      pop\n        /* \"#utility.yul\":4934:5782   */\n      swap3\n      swap2\n      pop\n      pop\n      jump\t// out\n        /* \"#utility.yul\":5788:6044   */\n    tag_154:\n        /* \"#utility.yul\":5907:5917   */\n      0x00\n        /* \"#utility.yul\":5942:6038   */\n      tag_239\n        /* \"#utility.yul\":6034:6037   */\n      dup4\n        /* \"#utility.yul\":6026:6032   */\n      dup4\n        /* \"#utility.yul\":5942:6038   */\n      tag_153\n      jump\t// in\n    tag_239:\n        /* \"#utility.yul\":5928:6038   */\n      swap1\n      pop\n        /* \"#utility.yul\":5788:6044   */\n      swap3\n      swap2\n      pop\n      pop\n      jump\t// out\n        /* \"#utility.yul\":6050:6188   */\n    tag_155:\n        /* \"#utility.yul\":6145:6149   */\n      0x00\n        /* \"#utility.yul\":6177:6181   */\n      0x20\n        /* \"#utility.yul\":6172:6175   */\n      dup3\n        /* \"#utility.yul\":6168:6182   */\n      add\n        /* \"#utility.yul\":6160:6182   */\n      swap1\n      pop\n        /* \"#utility.yul\":6050:6188   */\n      swap2\n      swap1\n      pop\n      jump\t// out\n        /* \"#utility.yul\":6260:7371   */\n    tag_156:\n        /* \"#utility.yul\":6429:6432   */\n      0x00\n        /* \"#utility.yul\":6458:6537   */\n      tag_242\n        /* \"#utility.yul\":6531:6536   */\n      dup3\n        /* \"#utility.yul\":6458:6537   */\n      tag_147\n      jump\t// in\n    tag_242:\n        /* \"#utility.yul\":6553:6664   */\n      tag_243\n        /* \"#utility.yul\":6657:6663   */\n      dup2\n        /* \"#utility.yul\":6652:6655   */\n      dup6\n        /* \"#utility.yul\":6553:6664   */\n      tag_148\n      jump\t// in\n    tag_243:\n        /* \"#utility.yul\":6546:6664   */\n      swap4\n      pop\n        /* \"#utility.yul\":6690:6693   */\n      dup4\n        /* \"#utility.yul\":6735:6739   */\n      0x20\n        /* \"#utility.yul\":6727:6733   */\n      dup3\n        /* \"#utility.yul\":6723:6740   */\n      mul\n        /* \"#utility.yul\":6718:6721   */\n      dup6\n        /* \"#utility.yul\":6714:6741   */\n      add\n        /* \"#utility.yul\":6765:6846   */\n      tag_244\n        /* \"#utility.yul\":6840:6845   */\n      dup6\n        /* \"#utility.yul\":6765:6846   */\n      tag_149\n      jump\t// in\n    tag_244:\n        /* \"#utility.yul\":6869:6876   */\n      dup1\n        /* \"#utility.yul\":6900:6901   */\n      0x00\n        /* \"#utility.yul\":6885:7326   */\n    tag_245:\n        /* \"#utility.yul\":6910:6916   */\n      dup6\n        /* \"#utility.yul\":6907:6908   */\n      dup2\n        /* \"#utility.yul\":6904:6917   */\n      lt\n        /* \"#utility.yul\":6885:7326   */\n      iszero\n      tag_247\n      jumpi\n        /* \"#utility.yul\":6981:6990   */\n      dup5\n        /* \"#utility.yul\":6975:6979   */\n      dup5\n        /* \"#utility.yul\":6971:6991   */\n      sub\n        /* \"#utility.yul\":6966:6969   */\n      dup10\n        /* \"#utility.yul\":6959:6992   */\n      mstore\n        /* \"#utility.yul\":7032:7038   */\n      dup2\n        /* \"#utility.yul\":7026:7039   */\n      mload\n        /* \"#utility.yul\":7060:7174   */\n      tag_248\n        /* \"#utility.yul\":7169:7173   */\n      dup6\n        /* \"#utility.yul\":7154:7167   */\n      dup3\n        /* \"#utility.yul\":7060:7174   */\n      tag_154\n      jump\t// in\n    tag_248:\n        /* \"#utility.yul\":7052:7174   */\n      swap5\n      pop\n        /* \"#utility.yul\":7197:7282   */\n      tag_249\n        /* \"#utility.yul\":7275:7281   */\n      dup4\n        /* \"#utility.yul\":7197:7282   */\n      tag_155\n      jump\t// in\n    tag_249:\n        /* \"#utility.yul\":7187:7282   */\n      swap3\n      pop\n        /* \"#utility.yul\":7311:7315   */\n      0x20\n        /* \"#utility.yul\":7306:7309   */\n      dup11\n        /* \"#utility.yul\":7302:7316   */\n      add\n        /* \"#utility.yul\":7295:7316   */\n      swap10\n      pop\n        /* \"#utility.yul\":6945:7326   */\n      pop\n        /* \"#utility.yul\":6932:6933   */\n      0x01\n        /* \"#utility.yul\":6929:6930   */\n      dup2\n        /* \"#utility.yul\":6925:6934   */\n      add\n        /* \"#utility.yul\":6920:6934   */\n      swap1\n      pop\n        /* \"#utility.yul\":6885:7326   */\n      jump(tag_245)\n    tag_247:\n        /* \"#utility.yul\":6889:6903   */\n      pop\n        /* \"#utility.yul\":7342:7346   */\n      dup3\n        /* \"#utility.yul\":7335:7346   */\n      swap8\n      pop\n        /* \"#utility.yul\":7362:7365   */\n      dup8\n        /* \"#utility.yul\":7355:7365   */\n      swap6\n      pop\n        /* \"#utility.yul\":6434:7371   */\n      pop\n      pop\n      pop\n      pop\n      pop\n        /* \"#utility.yul\":6260:7371   */\n      swap3\n      swap2\n      pop\n      pop\n      jump\t// out\n        /* \"#utility.yul\":7377:7850   */\n    tag_30:\n        /* \"#utility.yul\":7570:7574   */\n      0x00\n        /* \"#utility.yul\":7608:7610   */\n      0x20\n        /* \"#utility.yul\":7597:7606   */\n      dup3\n        /* \"#utility.yul\":7593:7611   */\n      add\n        /* \"#utility.yul\":7585:7611   */\n      swap1\n      pop\n        /* \"#utility.yul\":7657:7666   */\n      dup2\n        /* \"#utility.yul\":7651:7655   */\n      dup2\n        /* \"#utility.yul\":7647:7667   */\n      sub\n        /* \"#utility.yul\":7643:7644   */\n      0x00\n        /* \"#utility.yul\":7632:7641   */\n      dup4\n        /* \"#utility.yul\":7628:7645   */\n      add\n        /* \"#utility.yul\":7621:7668   */\n      mstore\n        /* \"#utility.yul\":7685:7843   */\n      tag_251\n        /* \"#utility.yul\":7838:7842   */\n      dup2\n        /* \"#utility.yul\":7829:7835   */\n      dup5\n        /* \"#utility.yul\":7685:7843   */\n      tag_156\n      jump\t// in\n    tag_251:\n        /* \"#utility.yul\":7677:7843   */\n      swap1\n      pop\n        /* \"#utility.yul\":7377:7850   */\n      swap3\n      swap2\n      pop\n      pop\n      jump\t// out\n        /* \"#utility.yul\":7856:7978   */\n    tag_157:\n        /* \"#utility.yul\":7929:7953   */\n      tag_253\n        /* \"#utility.yul\":7947:7952   */\n      dup2\n        /* \"#utility.yul\":7929:7953   */\n      tag_138\n      jump\t// in\n    tag_253:\n        /* \"#utility.yul\":7922:7927   */\n      dup2\n        /* \"#utility.yul\":7919:7954   */\n      eq\n        /* \"#utility.yul\":7909:7972   */\n      tag_254\n      jumpi\n        /* \"#utility.yul\":7968:7969   */\n      0x00\n        /* \"#utility.yul\":7965:7966   */\n      dup1\n        /* \"#utility.yul\":7958:7970   */\n      revert\n        /* \"#utility.yul\":7909:7972   */\n    tag_254:\n        /* \"#utility.yul\":7856:7978   */\n      pop\n      jump\t// out\n        /* \"#utility.yul\":7984:8123   */\n    tag_158:\n        /* \"#utility.yul\":8030:8035   */\n      0x00\n        /* \"#utility.yul\":8068:8074   */\n      dup2\n        /* \"#utility.yul\":8055:8075   */\n      calldataload\n        /* \"#utility.yul\":8046:8075   */\n      swap1\n      pop\n        /* \"#utility.yul\":8084:8117   */\n      tag_256\n        /* \"#utility.yul\":8111:8116   */\n      dup2\n        /* \"#utility.yul\":8084:8117   */\n      tag_157\n      jump\t// in\n    tag_256:\n        /* \"#utility.yul\":7984:8123   */\n      swap3\n      swap2\n      pop\n      pop\n      jump\t// out\n        /* \"#utility.yul\":8129:8458   */\n    tag_33:\n        /* \"#utility.yul\":8188:8194   */\n      0x00\n        /* \"#utility.yul\":8237:8239   */\n      0x20\n        /* \"#utility.yul\":8225:8234   */\n      dup3\n        /* \"#utility.yul\":8216:8223   */\n      dup5\n        /* \"#utility.yul\":8212:8235   */\n      sub\n        /* \"#utility.yul\":8208:8240   */\n      slt\n        /* \"#utility.yul\":8205:8324   */\n      iszero\n      tag_258\n      jumpi\n        /* \"#utility.yul\":8243:8322   */\n      tag_259\n      tag_141\n      jump\t// in\n    tag_259:\n        /* \"#utility.yul\":8205:8324   */\n    tag_258:\n        /* \"#utility.yul\":8363:8364   */\n      0x00\n        /* \"#utility.yul\":8388:8441   */\n      tag_260\n        /* \"#utility.yul\":8433:8440   */\n      dup5\n        /* \"#utility.yul\":8424:8430   */\n      dup3\n        /* \"#utility.yul\":8413:8422   */\n      dup6\n        /* \"#utility.yul\":8409:8431   */\n      add\n        /* \"#utility.yul\":8388:8441   */\n      tag_158\n      jump\t// in\n    tag_260:\n        /* \"#utility.yul\":8378:8441   */\n      swap2\n      pop\n        /* \"#utility.yul\":8334:8451   */\n      pop\n        /* \"#utility.yul\":8129:8458   */\n      swap3\n      swap2\n      pop\n      pop\n      jump\t// out\n        /* \"#utility.yul\":8464:8554   */\n    tag_159:\n        /* \"#utility.yul\":8498:8505   */\n      0x00\n        /* \"#utility.yul\":8541:8546   */\n      dup2\n        /* \"#utility.yul\":8534:8547   */\n      iszero\n        /* \"#utility.yul\":8527:8548   */\n      iszero\n        /* \"#utility.yul\":8516:8548   */\n      swap1\n      pop\n        /* \"#utility.yul\":8464:8554   */\n      swap2\n      swap1\n      pop\n      jump\t// out\n        /* \"#utility.yul\":8560:8669   */\n    tag_160:\n        /* \"#utility.yul\":8641:8662   */\n      tag_263\n        /* \"#utility.yul\":8656:8661   */\n      dup2\n        /* \"#utility.yul\":8641:8662   */\n      tag_159\n      jump\t// in\n    tag_263:\n        /* \"#utility.yul\":8636:8639   */\n      dup3\n        /* \"#utility.yul\":8629:8663   */\n      mstore\n        /* \"#utility.yul\":8560:8669   */\n      pop\n      pop\n      jump\t// out\n        /* \"#utility.yul\":8675:8983   */\n    tag_39:\n        /* \"#utility.yul\":8784:8788   */\n      0x00\n        /* \"#utility.yul\":8822:8824   */\n      0x40\n        /* \"#utility.yul\":8811:8820   */\n      dup3\n        /* \"#utility.yul\":8807:8825   */\n      add\n        /* \"#utility.yul\":8799:8825   */\n      swap1\n      pop\n        /* \"#utility.yul\":8835:8900   */\n      tag_265\n        /* \"#utility.yul\":8897:8898   */\n      0x00\n        /* \"#utility.yul\":8886:8895   */\n      dup4\n        /* \"#utility.yul\":8882:8899   */\n      add\n        /* \"#utility.yul\":8873:8879   */\n      dup6\n        /* \"#utility.yul\":8835:8900   */\n      tag_160\n      jump\t// in\n    tag_265:\n        /* \"#utility.yul\":8910:8976   */\n      tag_266\n        /* \"#utility.yul\":8972:8974   */\n      0x20\n        /* \"#utility.yul\":8961:8970   */\n      dup4\n        /* \"#utility.yul\":8957:8975   */\n      add\n        /* \"#utility.yul\":8948:8954   */\n      dup5\n        /* \"#utility.yul\":8910:8976   */\n      tag_160\n      jump\t// in\n    tag_266:\n        /* \"#utility.yul\":8675:8983   */\n      swap4\n      swap3\n      pop\n      pop\n      pop\n      jump\t// out\n        /* \"#utility.yul\":8989:9211   */\n    tag_43:\n        /* \"#utility.yul\":9082:9086   */\n      0x00\n        /* \"#utility.yul\":9120:9122   */\n      0x20\n        /* \"#utility.yul\":9109:9118   */\n      dup3\n        /* \"#utility.yul\":9105:9123   */\n      add\n        /* \"#utility.yul\":9097:9123   */\n      swap1\n      pop\n        /* \"#utility.yul\":9133:9204   */\n      tag_268\n        /* \"#utility.yul\":9201:9202   */\n      0x00\n        /* \"#utility.yul\":9190:9199   */\n      dup4\n        /* \"#utility.yul\":9186:9203   */\n      add\n        /* \"#utility.yul\":9177:9183   */\n      dup5\n        /* \"#utility.yul\":9133:9204   */\n      tag_146\n      jump\t// in\n    tag_268:\n        /* \"#utility.yul\":8989:9211   */\n      swap3\n      swap2\n      pop\n      pop\n      jump\t// out\n        /* \"#utility.yul\":9217:9334   */\n    tag_161:\n        /* \"#utility.yul\":9326:9327   */\n      0x00\n        /* \"#utility.yul\":9323:9324   */\n      dup1\n        /* \"#utility.yul\":9316:9328   */\n      revert\n        /* \"#utility.yul\":9340:9457   */\n    tag_162:\n        /* \"#utility.yul\":9449:9450   */\n      0x00\n        /* \"#utility.yul\":9446:9447   */\n      dup1\n        /* \"#utility.yul\":9439:9451   */\n      revert\n        /* \"#utility.yul\":9463:9643   */\n    tag_163:\n        /* \"#utility.yul\":9511:9588   */\n      0x4e487b7100000000000000000000000000000000000000000000000000000000\n        /* \"#utility.yul\":9508:9509   */\n      0x00\n        /* \"#utility.yul\":9501:9589   */\n      mstore\n        /* \"#utility.yul\":9608:9612   */\n      0x41\n        /* \"#utility.yul\":9605:9606   */\n      0x04\n        /* \"#utility.yul\":9598:9613   */\n      mstore\n        /* \"#utility.yul\":9632:9636   */\n      0x24\n        /* \"#utility.yul\":9629:9630   */\n      0x00\n        /* \"#utility.yul\":9622:9637   */\n      revert\n        /* \"#utility.yul\":9649:9930   */\n    tag_164:\n        /* \"#utility.yul\":9732:9759   */\n      tag_273\n        /* \"#utility.yul\":9754:9758   */\n      dup3\n        /* \"#utility.yul\":9732:9759   */\n      tag_135\n      jump\t// in\n    tag_273:\n        /* \"#utility.yul\":9724:9730   */\n      dup2\n        /* \"#utility.yul\":9720:9760   */\n      add\n        /* \"#utility.yul\":9862:9868   */\n      dup2\n        /* \"#utility.yul\":9850:9860   */\n      dup2\n        /* \"#utility.yul\":9847:9869   */\n      lt\n        /* \"#utility.yul\":9826:9844   */\n      0xffffffffffffffff\n        /* \"#utility.yul\":9814:9824   */\n      dup3\n        /* \"#utility.yul\":9811:9845   */\n      gt\n        /* \"#utility.yul\":9808:9870   */\n      or\n        /* \"#utility.yul\":9805:9893   */\n      iszero\n      tag_274\n      jumpi\n        /* \"#utility.yul\":9873:9891   */\n      tag_275\n      tag_163\n      jump\t// in\n    tag_275:\n        /* \"#utility.yul\":9805:9893   */\n    tag_274:\n        /* \"#utility.yul\":9913:9923   */\n      dup1\n        /* \"#utility.yul\":9909:9911   */\n      0x40\n        /* \"#utility.yul\":9902:9924   */\n      mstore\n        /* \"#utility.yul\":9692:9930   */\n      pop\n        /* \"#utility.yul\":9649:9930   */\n      pop\n      pop\n      jump\t// out\n        /* \"#utility.yul\":9936:10065   */\n    tag_165:\n        /* \"#utility.yul\":9970:9976   */\n      0x00\n        /* \"#utility.yul\":9997:10017   */\n      tag_277\n      tag_140\n      jump\t// in\n    tag_277:\n        /* \"#utility.yul\":9987:10017   */\n      swap1\n      pop\n        /* \"#utility.yul\":10026:10059   */\n      tag_278\n        /* \"#utility.yul\":10054:10058   */\n      dup3\n        /* \"#utility.yul\":10046:10052   */\n      dup3\n        /* \"#utility.yul\":10026:10059   */\n      tag_164\n      jump\t// in\n    tag_278:\n        /* \"#utility.yul\":9936:10065   */\n      swap2\n      swap1\n      pop\n      jump\t// out\n        /* \"#utility.yul\":10071:10379   */\n    tag_166:\n        /* \"#utility.yul\":10133:10137   */\n      0x00\n        /* \"#utility.yul\":10223:10241   */\n      0xffffffffffffffff\n        /* \"#utility.yul\":10215:10221   */\n      dup3\n        /* \"#utility.yul\":10212:10242   */\n      gt\n        /* \"#utility.yul\":10209:10265   */\n      iszero\n      tag_280\n      jumpi\n        /* \"#utility.yul\":10245:10263   */\n      tag_281\n      tag_163\n      jump\t// in\n    tag_281:\n        /* \"#utility.yul\":10209:10265   */\n    tag_280:\n        /* \"#utility.yul\":10283:10312   */\n      tag_282\n        /* \"#utility.yul\":10305:10311   */\n      dup3\n        /* \"#utility.yul\":10283:10312   */\n      tag_135\n      jump\t// in\n    tag_282:\n        /* \"#utility.yul\":10275:10312   */\n      swap1\n      pop\n        /* \"#utility.yul\":10367:10371   */\n      0x20\n        /* \"#utility.yul\":10361:10365   */\n      dup2\n        /* \"#utility.yul\":10357:10372   */\n      add\n        /* \"#utility.yul\":10349:10372   */\n      swap1\n      pop\n        /* \"#utility.yul\":10071:10379   */\n      swap2\n      swap1\n      pop\n      jump\t// out\n        /* \"#utility.yul\":10385:10531   */\n    tag_167:\n        /* \"#utility.yul\":10482:10488   */\n      dup3\n        /* \"#utility.yul\":10477:10480   */\n      dup2\n        /* \"#utility.yul\":10472:10475   */\n      dup4\n        /* \"#utility.yul\":10459:10489   */\n      calldatacopy\n        /* \"#utility.yul\":10523:10524   */\n      0x00\n        /* \"#utility.yul\":10514:10520   */\n      dup4\n        /* \"#utility.yul\":10509:10512   */\n      dup4\n        /* \"#utility.yul\":10505:10521   */\n      add\n        /* \"#utility.yul\":10498:10525   */\n      mstore\n        /* \"#utility.yul\":10385:10531   */\n      pop\n      pop\n      pop\n      jump\t// out\n        /* \"#utility.yul\":10537:10962   */\n    tag_168:\n        /* \"#utility.yul\":10615:10620   */\n      0x00\n        /* \"#utility.yul\":10640:10706   */\n      tag_285\n        /* \"#utility.yul\":10656:10705   */\n      tag_286\n        /* \"#utility.yul\":10698:10704   */\n      dup5\n        /* \"#utility.yul\":10656:10705   */\n      tag_166\n      jump\t// in\n    tag_286:\n        /* \"#utility.yul\":10640:10706   */\n      tag_165\n      jump\t// in\n    tag_285:\n        /* \"#utility.yul\":10631:10706   */\n      swap1\n      pop\n        /* \"#utility.yul\":10729:10735   */\n      dup3\n        /* \"#utility.yul\":10722:10727   */\n      dup2\n        /* \"#utility.yul\":10715:10736   */\n      mstore\n        /* \"#utility.yul\":10767:10771   */\n      0x20\n        /* \"#utility.yul\":10760:10765   */\n      dup2\n        /* \"#utility.yul\":10756:10772   */\n      add\n        /* \"#utility.yul\":10805:10808   */\n      dup5\n        /* \"#utility.yul\":10796:10802   */\n      dup5\n        /* \"#utility.yul\":10791:10794   */\n      dup5\n        /* \"#utility.yul\":10787:10803   */\n      add\n        /* \"#utility.yul\":10784:10809   */\n      gt\n        /* \"#utility.yul\":10781:10893   */\n      iszero\n      tag_287\n      jumpi\n        /* \"#utility.yul\":10812:10891   */\n      tag_288\n      tag_162\n      jump\t// in\n    tag_288:\n        /* \"#utility.yul\":10781:10893   */\n    tag_287:\n        /* \"#utility.yul\":10902:10956   */\n      tag_289\n        /* \"#utility.yul\":10949:10955   */\n      dup5\n        /* \"#utility.yul\":10944:10947   */\n      dup3\n        /* \"#utility.yul\":10939:10942   */\n      dup6\n        /* \"#utility.yul\":10902:10956   */\n      tag_167\n      jump\t// in\n    tag_289:\n        /* \"#utility.yul\":10621:10962   */\n      pop\n        /* \"#utility.yul\":10537:10962   */\n      swap4\n      swap3\n      pop\n      pop\n      pop\n      jump\t// out\n        /* \"#utility.yul\":10982:11322   */\n    tag_169:\n        /* \"#utility.yul\":11038:11043   */\n      0x00\n        /* \"#utility.yul\":11087:11090   */\n      dup3\n        /* \"#utility.yul\":11080:11084   */\n      0x1f\n        /* \"#utility.yul\":11072:11078   */\n      dup4\n        /* \"#utility.yul\":11068:11085   */\n      add\n        /* \"#utility.yul\":11064:11091   */\n      slt\n        /* \"#utility.yul\":11054:11176   */\n      tag_291\n      jumpi\n        /* \"#utility.yul\":11095:11174   */\n      tag_292\n      tag_161\n      jump\t// in\n    tag_292:\n        /* \"#utility.yul\":11054:11176   */\n    tag_291:\n        /* \"#utility.yul\":11212:11218   */\n      dup2\n        /* \"#utility.yul\":11199:11219   */\n      calldataload\n        /* \"#utility.yul\":11237:11316   */\n      tag_293\n        /* \"#utility.yul\":11312:11315   */\n      dup5\n        /* \"#utility.yul\":11304:11310   */\n      dup3\n        /* \"#utility.yul\":11297:11301   */\n      0x20\n        /* \"#utility.yul\":11289:11295   */\n      dup7\n        /* \"#utility.yul\":11285:11302   */\n      add\n        /* \"#utility.yul\":11237:11316   */\n      tag_168\n      jump\t// in\n    tag_293:\n        /* \"#utility.yul\":11228:11316   */\n      swap2\n      pop\n        /* \"#utility.yul\":11044:11322   */\n      pop\n        /* \"#utility.yul\":10982:11322   */\n      swap3\n      swap2\n      pop\n      pop\n      jump\t// out\n        /* \"#utility.yul\":11328:11837   */\n    tag_49:\n        /* \"#utility.yul\":11397:11403   */\n      0x00\n        /* \"#utility.yul\":11446:11448   */\n      0x20\n        /* \"#utility.yul\":11434:11443   */\n      dup3\n        /* \"#utility.yul\":11425:11432   */\n      dup5\n        /* \"#utility.yul\":11421:11444   */\n      sub\n        /* \"#utility.yul\":11417:11449   */\n      slt\n        /* \"#utility.yul\":11414:11533   */\n      iszero\n      tag_295\n      jumpi\n        /* \"#utility.yul\":11452:11531   */\n      tag_296\n      tag_141\n      jump\t// in\n    tag_296:\n        /* \"#utility.yul\":11414:11533   */\n    tag_295:\n        /* \"#utility.yul\":11600:11601   */\n      0x00\n        /* \"#utility.yul\":11589:11598   */\n      dup3\n        /* \"#utility.yul\":11585:11602   */\n      add\n        /* \"#utility.yul\":11572:11603   */\n      calldataload\n        /* \"#utility.yul\":11630:11648   */\n      0xffffffffffffffff\n        /* \"#utility.yul\":11622:11628   */\n      dup2\n        /* \"#utility.yul\":11619:11649   */\n      gt\n        /* \"#utility.yul\":11616:11733   */\n      iszero\n      tag_297\n      jumpi\n        /* \"#utility.yul\":11652:11731   */\n      tag_298\n      tag_142\n      jump\t// in\n    tag_298:\n        /* \"#utility.yul\":11616:11733   */\n    tag_297:\n        /* \"#utility.yul\":11757:11820   */\n      tag_299\n        /* \"#utility.yul\":11812:11819   */\n      dup5\n        /* \"#utility.yul\":11803:11809   */\n      dup3\n        /* \"#utility.yul\":11792:11801   */\n      dup6\n        /* \"#utility.yul\":11788:11810   */\n      add\n        /* \"#utility.yul\":11757:11820   */\n      tag_169\n      jump\t// in\n    tag_299:\n        /* \"#utility.yul\":11747:11820   */\n      swap2\n      pop\n        /* \"#utility.yul\":11543:11830   */\n      pop\n        /* \"#utility.yul\":11328:11837   */\n      swap3\n      swap2\n      pop\n      pop\n      jump\t// out\n        /* \"#utility.yul\":11843:12023   */\n    tag_55:\n        /* \"#utility.yul\":11891:11968   */\n      0x4e487b7100000000000000000000000000000000000000000000000000000000\n        /* \"#utility.yul\":11888:11889   */\n      0x00\n        /* \"#utility.yul\":11881:11969   */\n      mstore\n        /* \"#utility.yul\":11988:11992   */\n      0x32\n        /* \"#utility.yul\":11985:11986   */\n      0x04\n        /* \"#utility.yul\":11978:11993   */\n      mstore\n        /* \"#utility.yul\":12012:12016   */\n      0x24\n        /* \"#utility.yul\":12009:12010   */\n      0x00\n        /* \"#utility.yul\":12002:12017   */\n      revert\n        /* \"#utility.yul\":12029:12209   */\n    tag_170:\n        /* \"#utility.yul\":12077:12154   */\n      0x4e487b7100000000000000000000000000000000000000000000000000000000\n        /* \"#utility.yul\":12074:12075   */\n      0x00\n        /* \"#utility.yul\":12067:12155   */\n      mstore\n        /* \"#utility.yul\":12174:12178   */\n      0x22\n        /* \"#utility.yul\":12171:12172   */\n      0x04\n        /* \"#utility.yul\":12164:12179   */\n      mstore\n        /* \"#utility.yul\":12198:12202   */\n      0x24\n        /* \"#utility.yul\":12195:12196   */\n      0x00\n        /* \"#utility.yul\":12188:12203   */\n      revert\n        /* \"#utility.yul\":12215:12535   */\n    tag_58:\n        /* \"#utility.yul\":12259:12265   */\n      0x00\n        /* \"#utility.yul\":12296:12297   */\n      0x02\n        /* \"#utility.yul\":12290:12294   */\n      dup3\n        /* \"#utility.yul\":12286:12298   */\n      div\n        /* \"#utility.yul\":12276:12298   */\n      swap1\n      pop\n        /* \"#utility.yul\":12343:12344   */\n      0x01\n        /* \"#utility.yul\":12337:12341   */\n      dup3\n        /* \"#utility.yul\":12333:12345   */\n      and\n        /* \"#utility.yul\":12364:12382   */\n      dup1\n        /* \"#utility.yul\":12354:12435   */\n      tag_303\n      jumpi\n        /* \"#utility.yul\":12420:12424   */\n      0x7f\n        /* \"#utility.yul\":12412:12418   */\n      dup3\n        /* \"#utility.yul\":12408:12425   */\n      and\n        /* \"#utility.yul\":12398:12425   */\n      swap2\n      pop\n        /* \"#utility.yul\":12354:12435   */\n    tag_303:\n        /* \"#utility.yul\":12482:12484   */\n      0x20\n        /* \"#utility.yul\":12474:12480   */\n      dup3\n        /* \"#utility.yul\":12471:12485   */\n      lt\n        /* \"#utility.yul\":12451:12469   */\n      dup2\n        /* \"#utility.yul\":12448:12486   */\n      sub\n        /* \"#utility.yul\":12445:12529   */\n      tag_304\n      jumpi\n        /* \"#utility.yul\":12501:12519   */\n      tag_305\n      tag_170\n      jump\t// in\n    tag_305:\n        /* \"#utility.yul\":12445:12529   */\n    tag_304:\n        /* \"#utility.yul\":12266:12535   */\n      pop\n        /* \"#utility.yul\":12215:12535   */\n      swap2\n      swap1\n      pop\n      jump\t// out\n        /* \"#utility.yul\":12541:12775   */\n    tag_171:\n        /* \"#utility.yul\":12681:12715   */\n      0x4f6e6c792074686520636f6e7472616374206f776e65722063616e2067697665\n        /* \"#utility.yul\":12677:12678   */\n      0x00\n        /* \"#utility.yul\":12669:12675   */\n      dup3\n        /* \"#utility.yul\":12665:12679   */\n      add\n        /* \"#utility.yul\":12658:12716   */\n      mstore\n        /* \"#utility.yul\":12750:12767   */\n      0x20726967687420746f20766f74652e0000000000000000000000000000000000\n        /* \"#utility.yul\":12745:12747   */\n      0x20\n        /* \"#utility.yul\":12737:12743   */\n      dup3\n        /* \"#utility.yul\":12733:12748   */\n      add\n        /* \"#utility.yul\":12726:12768   */\n      mstore\n        /* \"#utility.yul\":12541:12775   */\n      pop\n      jump\t// out\n        /* \"#utility.yul\":12781:13147   */\n    tag_172:\n        /* \"#utility.yul\":12923:12926   */\n      0x00\n        /* \"#utility.yul\":12944:13011   */\n      tag_308\n        /* \"#utility.yul\":13008:13010   */\n      0x2f\n        /* \"#utility.yul\":13003:13006   */\n      dup4\n        /* \"#utility.yul\":12944:13011   */\n      tag_133\n      jump\t// in\n    tag_308:\n        /* \"#utility.yul\":12937:13011   */\n      swap2\n      pop\n        /* \"#utility.yul\":13020:13113   */\n      tag_309\n        /* \"#utility.yul\":13109:13112   */\n      dup3\n        /* \"#utility.yul\":13020:13113   */\n      tag_171\n      jump\t// in\n    tag_309:\n        /* \"#utility.yul\":13138:13140   */\n      0x40\n        /* \"#utility.yul\":13133:13136   */\n      dup3\n        /* \"#utility.yul\":13129:13141   */\n      add\n        /* \"#utility.yul\":13122:13141   */\n      swap1\n      pop\n        /* \"#utility.yul\":12781:13147   */\n      swap2\n      swap1\n      pop\n      jump\t// out\n        /* \"#utility.yul\":13153:13572   */\n    tag_93:\n        /* \"#utility.yul\":13319:13323   */\n      0x00\n        /* \"#utility.yul\":13357:13359   */\n      0x20\n        /* \"#utility.yul\":13346:13355   */\n      dup3\n        /* \"#utility.yul\":13342:13360   */\n      add\n        /* \"#utility.yul\":13334:13360   */\n      swap1\n      pop\n        /* \"#utility.yul\":13406:13415   */\n      dup2\n        /* \"#utility.yul\":13400:13404   */\n      dup2\n        /* \"#utility.yul\":13396:13416   */\n      sub\n        /* \"#utility.yul\":13392:13393   */\n      0x00\n        /* \"#utility.yul\":13381:13390   */\n      dup4\n        /* \"#utility.yul\":13377:13394   */\n      add\n        /* \"#utility.yul\":13370:13417   */\n      mstore\n        /* \"#utility.yul\":13434:13565   */\n      tag_311\n        /* \"#utility.yul\":13560:13564   */\n      dup2\n        /* \"#utility.yul\":13434:13565   */\n      tag_172\n      jump\t// in\n    tag_311:\n        /* \"#utility.yul\":13426:13565   */\n      swap1\n      pop\n        /* \"#utility.yul\":13153:13572   */\n      swap2\n      swap1\n      pop\n      jump\t// out\n        /* \"#utility.yul\":13578:13752   */\n    tag_173:\n        /* \"#utility.yul\":13718:13744   */\n      0x54686520766f74657220616c726561647920766f7465642e0000000000000000\n        /* \"#utility.yul\":13714:13715   */\n      0x00\n        /* \"#utility.yul\":13706:13712   */\n      dup3\n        /* \"#utility.yul\":13702:13716   */\n      add\n        /* \"#utility.yul\":13695:13745   */\n      mstore\n        /* \"#utility.yul\":13578:13752   */\n      pop\n      jump\t// out\n        /* \"#utility.yul\":13758:14124   */\n    tag_174:\n        /* \"#utility.yul\":13900:13903   */\n      0x00\n        /* \"#utility.yul\":13921:13988   */\n      tag_314\n        /* \"#utility.yul\":13985:13987   */\n      0x18\n        /* \"#utility.yul\":13980:13983   */\n      dup4\n        /* \"#utility.yul\":13921:13988   */\n      tag_133\n      jump\t// in\n    tag_314:\n        /* \"#utility.yul\":13914:13988   */\n      swap2\n      pop\n        /* \"#utility.yul\":13997:14090   */\n      tag_315\n        /* \"#utility.yul\":14086:14089   */\n      dup3\n        /* \"#utility.yul\":13997:14090   */\n      tag_173\n      jump\t// in\n    tag_315:\n        /* \"#utility.yul\":14115:14117   */\n      0x20\n        /* \"#utility.yul\":14110:14113   */\n      dup3\n        /* \"#utility.yul\":14106:14118   */\n      add\n        /* \"#utility.yul\":14099:14118   */\n      swap1\n      pop\n        /* \"#utility.yul\":13758:14124   */\n      swap2\n      swap1\n      pop\n      jump\t// out\n        /* \"#utility.yul\":14130:14549   */\n    tag_96:\n        /* \"#utility.yul\":14296:14300   */\n      0x00\n        /* \"#utility.yul\":14334:14336   */\n      0x20\n        /* \"#utility.yul\":14323:14332   */\n      dup3\n        /* \"#utility.yul\":14319:14337   */\n      add\n        /* \"#utility.yul\":14311:14337   */\n      swap1\n      pop\n        /* \"#utility.yul\":14383:14392   */\n      dup2\n        /* \"#utility.yul\":14377:14381   */\n      dup2\n        /* \"#utility.yul\":14373:14393   */\n      sub\n        /* \"#utility.yul\":14369:14370   */\n      0x00\n        /* \"#utility.yul\":14358:14367   */\n      dup4\n        /* \"#utility.yul\":14354:14371   */\n      add\n        /* \"#utility.yul\":14347:14394   */\n      mstore\n        /* \"#utility.yul\":14411:14542   */\n      tag_317\n        /* \"#utility.yul\":14537:14541   */\n      dup2\n        /* \"#utility.yul\":14411:14542   */\n      tag_174\n      jump\t// in\n    tag_317:\n        /* \"#utility.yul\":14403:14542   */\n      swap1\n      pop\n        /* \"#utility.yul\":14130:14549   */\n      swap2\n      swap1\n      pop\n      jump\t// out\n        /* \"#utility.yul\":14555:14735   */\n    tag_175:\n        /* \"#utility.yul\":14603:14680   */\n      0x4e487b7100000000000000000000000000000000000000000000000000000000\n        /* \"#utility.yul\":14600:14601   */\n      0x00\n        /* \"#utility.yul\":14593:14681   */\n      mstore\n        /* \"#utility.yul\":14700:14704   */\n      0x11\n        /* \"#utility.yul\":14697:14698   */\n      0x04\n        /* \"#utility.yul\":14690:14705   */\n      mstore\n        /* \"#utility.yul\":14724:14728   */\n      0x24\n        /* \"#utility.yul\":14721:14722   */\n      0x00\n        /* \"#utility.yul\":14714:14729   */\n      revert\n        /* \"#utility.yul\":14741:14974   */\n    tag_109:\n        /* \"#utility.yul\":14780:14783   */\n      0x00\n        /* \"#utility.yul\":14803:14827   */\n      tag_320\n        /* \"#utility.yul\":14821:14826   */\n      dup3\n        /* \"#utility.yul\":14803:14827   */\n      tag_143\n      jump\t// in\n    tag_320:\n        /* \"#utility.yul\":14794:14827   */\n      swap2\n      pop\n        /* \"#utility.yul\":14849:14915   */\n      0xffffffffffffffffffffffffffffffffffffffffffffffffffffffffffffffff\n        /* \"#utility.yul\":14842:14847   */\n      dup3\n        /* \"#utility.yul\":14839:14916   */\n      sub\n        /* \"#utility.yul\":14836:14939   */\n      tag_321\n      jumpi\n        /* \"#utility.yul\":14919:14937   */\n      tag_322\n      tag_175\n      jump\t// in\n    tag_322:\n        /* \"#utility.yul\":14836:14939   */\n    tag_321:\n        /* \"#utility.yul\":14966:14967   */\n      0x01\n        /* \"#utility.yul\":14959:14964   */\n      dup3\n        /* \"#utility.yul\":14955:14968   */\n      add\n        /* \"#utility.yul\":14948:14968   */\n      swap1\n      pop\n        /* \"#utility.yul\":14741:14974   */\n      swap2\n      swap1\n      pop\n      jump\t// out\n        /* \"#utility.yul\":14980:15150   */\n    tag_176:\n        /* \"#utility.yul\":15120:15142   */\n      0x486173206e6f20726967687420746f20766f7465000000000000000000000000\n        /* \"#utility.yul\":15116:15117   */\n      0x00\n        /* \"#utility.yul\":15108:15114   */\n      dup3\n        /* \"#utility.yul\":15104:15118   */\n      add\n        /* \"#utility.yul\":15097:15143   */\n      mstore\n        /* \"#utility.yul\":14980:15150   */\n      pop\n      jump\t// out\n        /* \"#utility.yul\":15156:15522   */\n    tag_177:\n        /* \"#utility.yul\":15298:15301   */\n      0x00\n        /* \"#utility.yul\":15319:15386   */\n      tag_325\n        /* \"#utility.yul\":15383:15385   */\n      0x14\n        /* \"#utility.yul\":15378:15381   */\n      dup4\n        /* \"#utility.yul\":15319:15386   */\n      tag_133\n      jump\t// in\n    tag_325:\n        /* \"#utility.yul\":15312:15386   */\n      swap2\n      pop\n        /* \"#utility.yul\":15395:15488   */\n      tag_326\n        /* \"#utility.yul\":15484:15487   */\n      dup3\n        /* \"#utility.yul\":15395:15488   */\n      tag_176\n      jump\t// in\n    tag_326:\n        /* \"#utility.yul\":15513:15515   */\n      0x20\n        /* \"#utility.yul\":15508:15511   */\n      dup3\n        /* \"#utility.yul\":15504:15516   */\n      add\n        /* \"#utility.yul\":15497:15516   */\n      swap1\n      pop\n        /* \"#utility.yul\":15156:15522   */\n      swap2\n      swap1\n      pop\n      jump\t// out\n        /* \"#utility.yul\":15528:15947   */\n    tag_113:\n        /* \"#utility.yul\":15694:15698   */\n      0x00\n        /* \"#utility.yul\":15732:15734   */\n      0x20\n        /* \"#utility.yul\":15721:15730   */\n      dup3\n        /* \"#utility.yul\":15717:15735   */\n      add\n        /* \"#utility.yul\":15709:15735   */\n      swap1\n      pop\n        /* \"#utility.yul\":15781:15790   */\n      dup2\n        /* \"#utility.yul\":15775:15779   */\n      dup2\n        /* \"#utility.yul\":15771:15791   */\n      sub\n        /* \"#utility.yul\":15767:15768   */\n      0x00\n        /* \"#utility.yul\":15756:15765   */\n      dup4\n        /* \"#utility.yul\":15752:15769   */\n      add\n        /* \"#utility.yul\":15745:15792   */\n      mstore\n        /* \"#utility.yul\":15809:15940   */\n      tag_328\n        /* \"#utility.yul\":15935:15939   */\n      dup2\n        /* \"#utility.yul\":15809:15940   */\n      tag_177\n      jump\t// in\n    tag_328:\n        /* \"#utility.yul\":15801:15940   */\n      swap1\n      pop\n        /* \"#utility.yul\":15528:15947   */\n      swap2\n      swap1\n      pop\n      jump\t// out\n        /* \"#utility.yul\":15953:16117   */\n    tag_178:\n        /* \"#utility.yul\":16093:16109   */\n      0x416c726561647920766f7465642e000000000000000000000000000000000000\n        /* \"#utility.yul\":16089:16090   */\n      0x00\n        /* \"#utility.yul\":16081:16087   */\n      dup3\n        /* \"#utility.yul\":16077:16091   */\n      add\n        /* \"#utility.yul\":16070:16110   */\n      mstore\n        /* \"#utility.yul\":15953:16117   */\n      pop\n      jump\t// out\n        /* \"#utility.yul\":16123:16489   */\n    tag_179:\n        /* \"#utility.yul\":16265:16268   */\n      0x00\n        /* \"#utility.yul\":16286:16353   */\n      tag_331\n        /* \"#utility.yul\":16350:16352   */\n      0x0e\n        /* \"#utility.yul\":16345:16348   */\n      dup4\n        /* \"#utility.yul\":16286:16353   */\n      tag_133\n      jump\t// in\n    tag_331:\n        /* \"#utility.yul\":16279:16353   */\n      swap2\n      pop\n        /* \"#utility.yul\":16362:16455   */\n      tag_332\n        /* \"#utility.yul\":16451:16454   */\n      dup3\n        /* \"#utility.yul\":16362:16455   */\n      tag_178\n      jump\t// in\n    tag_332:\n        /* \"#utility.yul\":16480:16482   */\n      0x20\n        /* \"#utility.yul\":16475:16478   */\n      dup3\n        /* \"#utility.yul\":16471:16483   */\n      add\n        /* \"#utility.yul\":16464:16483   */\n      swap1\n      pop\n        /* \"#utility.yul\":16123:16489   */\n      swap2\n      swap1\n      pop\n      jump\t// out\n        /* \"#utility.yul\":16495:16914   */\n    tag_116:\n        /* \"#utility.yul\":16661:16665   */\n      0x00\n        /* \"#utility.yul\":16699:16701   */\n      0x20\n        /* \"#utility.yul\":16688:16697   */\n      dup3\n        /* \"#utility.yul\":16684:16702   */\n      add\n        /* \"#utility.yul\":16676:16702   */\n      swap1\n      pop\n        /* \"#utility.yul\":16748:16757   */\n      dup2\n        /* \"#utility.yul\":16742:16746   */\n      dup2\n        /* \"#utility.yul\":16738:16758   */\n      sub\n        /* \"#utility.yul\":16734:16735   */\n      0x00\n        /* \"#utility.yul\":16723:16732   */\n      dup4\n        /* \"#utility.yul\":16719:16736   */\n      add\n        /* \"#utility.yul\":16712:16759   */\n      mstore\n        /* \"#utility.yul\":16776:16907   */\n      tag_334\n        /* \"#utility.yul\":16902:16906   */\n      dup2\n        /* \"#utility.yul\":16776:16907   */\n      tag_179\n      jump\t// in\n    tag_334:\n        /* \"#utility.yul\":16768:16907   */\n      swap1\n      pop\n        /* \"#utility.yul\":16495:16914   */\n      swap2\n      swap1\n      pop\n      jump\t// out\n        /* \"#utility.yul\":16920:17061   */\n    tag_180:\n        /* \"#utility.yul\":16969:16973   */\n      0x00\n        /* \"#utility.yul\":16992:16995   */\n      dup2\n        /* \"#utility.yul\":16984:16995   */\n      swap1\n      pop\n        /* \"#utility.yul\":17015:17018   */\n      dup2\n        /* \"#utility.yul\":17012:17013   */\n      0x00\n        /* \"#utility.yul\":17005:17019   */\n      mstore\n        /* \"#utility.yul\":17049:17053   */\n      0x20\n        /* \"#utility.yul\":17046:17047   */\n      0x00\n        /* \"#utility.yul\":17036:17054   */\n      keccak256\n        /* \"#utility.yul\":17028:17054   */\n      swap1\n      pop\n        /* \"#utility.yul\":16920:17061   */\n      swap2\n      swap1\n      pop\n      jump\t// out\n        /* \"#utility.yul\":17091:17922   */\n    tag_181:\n        /* \"#utility.yul\":17176:17179   */\n      0x00\n        /* \"#utility.yul\":17213:17218   */\n      dup2\n        /* \"#utility.yul\":17207:17219   */\n      sload\n        /* \"#utility.yul\":17242:17278   */\n      tag_337\n        /* \"#utility.yul\":17268:17277   */\n      dup2\n        /* \"#utility.yul\":17242:17278   */\n      tag_58\n      jump\t// in\n    tag_337:\n        /* \"#utility.yul\":17294:17365   */\n      tag_338\n        /* \"#utility.yul\":17358:17364   */\n      dup2\n        /* \"#utility.yul\":17353:17356   */\n      dup7\n        /* \"#utility.yul\":17294:17365   */\n      tag_133\n      jump\t// in\n    tag_338:\n        /* \"#utility.yul\":17287:17365   */\n      swap5\n      pop\n        /* \"#utility.yul\":17396:17397   */\n      0x01\n        /* \"#utility.yul\":17385:17394   */\n      dup3\n        /* \"#utility.yul\":17381:17398   */\n      and\n        /* \"#utility.yul\":17412:17413   */\n      0x00\n        /* \"#utility.yul\":17407:17571   */\n      dup2\n      eq\n      tag_340\n      jumpi\n        /* \"#utility.yul\":17585:17586   */\n      0x01\n        /* \"#utility.yul\":17580:17916   */\n      dup2\n      eq\n      tag_341\n      jumpi\n        /* \"#utility.yul\":17374:17916   */\n      jump(tag_339)\n        /* \"#utility.yul\":17407:17571   */\n    tag_340:\n        /* \"#utility.yul\":17491:17495   */\n      0xff\n        /* \"#utility.yul\":17487:17496   */\n      not\n        /* \"#utility.yul\":17476:17485   */\n      dup4\n        /* \"#utility.yul\":17472:17497   */\n      and\n        /* \"#utility.yul\":17467:17470   */\n      dup7\n        /* \"#utility.yul\":17460:17498   */\n      mstore\n        /* \"#utility.yul\":17551:17557   */\n      dup2\n        /* \"#utility.yul\":17544:17558   */\n      iszero\n        /* \"#utility.yul\":17537:17559   */\n      iszero\n        /* \"#utility.yul\":17531:17535   */\n      0x20\n        /* \"#utility.yul\":17527:17560   */\n      mul\n        /* \"#utility.yul\":17522:17525   */\n      dup7\n        /* \"#utility.yul\":17518:17561   */\n      add\n        /* \"#utility.yul\":17511:17561   */\n      swap4\n      pop\n        /* \"#utility.yul\":17407:17571   */\n      jump(tag_339)\n        /* \"#utility.yul\":17580:17916   */\n    tag_341:\n        /* \"#utility.yul\":17647:17685   */\n      tag_342\n        /* \"#utility.yul\":17679:17684   */\n      dup6\n        /* \"#utility.yul\":17647:17685   */\n      tag_180\n      jump\t// in\n    tag_342:\n        /* \"#utility.yul\":17707:17708   */\n      0x00\n        /* \"#utility.yul\":17721:17875   */\n    tag_343:\n        /* \"#utility.yul\":17735:17741   */\n      dup4\n        /* \"#utility.yul\":17732:17733   */\n      dup2\n        /* \"#utility.yul\":17729:17742   */\n      lt\n        /* \"#utility.yul\":17721:17875   */\n      iszero\n      tag_345\n      jumpi\n        /* \"#utility.yul\":17809:17816   */\n      dup2\n        /* \"#utility.yul\":17803:17817   */\n      sload\n        /* \"#utility.yul\":17799:17800   */\n      dup2\n        /* \"#utility.yul\":17794:17797   */\n      dup10\n        /* \"#utility.yul\":17790:17801   */\n      add\n        /* \"#utility.yul\":17783:17818   */\n      mstore\n        /* \"#utility.yul\":17859:17860   */\n      0x01\n        /* \"#utility.yul\":17850:17857   */\n      dup3\n        /* \"#utility.yul\":17846:17861   */\n      add\n        /* \"#utility.yul\":17835:17861   */\n      swap2\n      pop\n        /* \"#utility.yul\":17757:17761   */\n      0x20\n        /* \"#utility.yul\":17754:17755   */\n      dup2\n        /* \"#utility.yul\":17750:17762   */\n      add\n        /* \"#utility.yul\":17745:17762   */\n      swap1\n      pop\n        /* \"#utility.yul\":17721:17875   */\n      jump(tag_343)\n    tag_345:\n        /* \"#utility.yul\":17904:17905   */\n      dup1\n        /* \"#utility.yul\":17899:17902   */\n      dup9\n        /* \"#utility.yul\":17895:17906   */\n      add\n        /* \"#utility.yul\":17888:17906   */\n      swap6\n      pop\n        /* \"#utility.yul\":17587:17916   */\n      pop\n      pop\n        /* \"#utility.yul\":17374:17916   */\n    tag_339:\n      pop\n        /* \"#utility.yul\":17180:17922   */\n      pop\n      pop\n        /* \"#utility.yul\":17091:17922   */\n      swap3\n      swap2\n      pop\n      pop\n      jump\t// out\n        /* \"#utility.yul\":17928:18235   */\n    tag_125:\n        /* \"#utility.yul\":18038:18042   */\n      0x00\n        /* \"#utility.yul\":18076:18078   */\n      0x20\n        /* \"#utility.yul\":18065:18074   */\n      dup3\n        /* \"#utility.yul\":18061:18079   */\n      add\n        /* \"#utility.yul\":18053:18079   */\n      swap1\n      pop\n        /* \"#utility.yul\":18125:18134   */\n      dup2\n        /* \"#utility.yul\":18119:18123   */\n      dup2\n        /* \"#utility.yul\":18115:18135   */\n      sub\n        /* \"#utility.yul\":18111:18112   */\n      0x00\n        /* \"#utility.yul\":18100:18109   */\n      dup4\n        /* \"#utility.yul\":18096:18113   */\n      add\n        /* \"#utility.yul\":18089:18136   */\n      mstore\n        /* \"#utility.yul\":18153:18228   */\n      tag_347\n        /* \"#utility.yul\":18223:18227   */\n      dup2\n        /* \"#utility.yul\":18214:18220   */\n      dup5\n        /* \"#utility.yul\":18153:18228   */\n      tag_181\n      jump\t// in\n    tag_347:\n        /* \"#utility.yul\":18145:18228   */\n      swap1\n      pop\n        /* \"#utility.yul\":17928:18235   */\n      swap3\n      swap2\n      pop\n      pop\n      jump\t// out\n\n    auxdata: 0xa264697066735822122046e46ffba37cdd91f19ed28ca7a7e713ea8c4a340669aac8cc8071058e0eb6ab64736f6c63430008110033\n}\n",
				"bytecode": {
					"linkReferences": {},
					"object": "60806040523480156200001157600080fd5b5060405162001b8238038062001b828339818101604052810190620000379190620003ef565b336000806101000a81548173ffffffffffffffffffffffffffffffffffffffff021916908373ffffffffffffffffffffffffffffffffffffffff16021790555060005b8251811015620001575760026040518060600160405280858481518110620000a757620000a662000474565b5b60200260200101518152602001848481518110620000ca57620000c962000474565b5b602002602001015181526020016000815250908060018154018082558091505060019003906000526020600020906003020160009091909190915060008201518160000190816200011c9190620006ee565b506020820151816001019081620001349190620006ee565b5060408201518160020155505080806200014e9062000804565b9150506200007a565b50505062000851565b6000604051905090565b600080fd5b600080fd5b600080fd5b6000601f19601f8301169050919050565b7f4e487b7100000000000000000000000000000000000000000000000000000000600052604160045260246000fd5b620001c48262000179565b810181811067ffffffffffffffff82111715620001e657620001e56200018a565b5b80604052505050565b6000620001fb62000160565b9050620002098282620001b9565b919050565b600067ffffffffffffffff8211156200022c576200022b6200018a565b5b602082029050602081019050919050565b600080fd5b600080fd5b600067ffffffffffffffff8211156200026557620002646200018a565b5b620002708262000179565b9050602081019050919050565b60005b838110156200029d57808201518184015260208101905062000280565b60008484015250505050565b6000620002c0620002ba8462000247565b620001ef565b905082815260208101848484011115620002df57620002de62000242565b5b620002ec8482856200027d565b509392505050565b600082601f8301126200030c576200030b62000174565b5b81516200031e848260208601620002a9565b91505092915050565b60006200033e62000338846200020e565b620001ef565b905080838252602082019050602084028301858111156200036457620003636200023d565b5b835b81811015620003b257805167ffffffffffffffff8111156200038d576200038c62000174565b5b8086016200039c8982620002f4565b8552602085019450505060208101905062000366565b5050509392505050565b600082601f830112620003d457620003d362000174565b5b8151620003e684826020860162000327565b91505092915050565b600080604083850312156200040957620004086200016a565b5b600083015167ffffffffffffffff8111156200042a57620004296200016f565b5b6200043885828601620003bc565b925050602083015167ffffffffffffffff8111156200045c576200045b6200016f565b5b6200046a85828601620003bc565b9150509250929050565b7f4e487b7100000000000000000000000000000000000000000000000000000000600052603260045260246000fd5b600081519050919050565b7f4e487b7100000000000000000000000000000000000000000000000000000000600052602260045260246000fd5b60006002820490506001821680620004f657607f821691505b6020821081036200050c576200050b620004ae565b5b50919050565b60008190508160005260206000209050919050565b60006020601f8301049050919050565b600082821b905092915050565b600060088302620005767fffffffffffffffffffffffffffffffffffffffffffffffffffffffffffffffff8262000537565b62000582868362000537565b95508019841693508086168417925050509392505050565b6000819050919050565b6000819050919050565b6000620005cf620005c9620005c3846200059a565b620005a4565b6200059a565b9050919050565b6000819050919050565b620005eb83620005ae565b62000603620005fa82620005d6565b84845462000544565b825550505050565b600090565b6200061a6200060b565b62000627818484620005e0565b505050565b5b818110156200064f576200064360008262000610565b6001810190506200062d565b5050565b601f8211156200069e57620006688162000512565b620006738462000527565b8101602085101562000683578190505b6200069b620006928562000527565b8301826200062c565b50505b505050565b600082821c905092915050565b6000620006c360001984600802620006a3565b1980831691505092915050565b6000620006de8383620006b0565b9150826002028217905092915050565b620006f982620004a3565b67ffffffffffffffff8111156200071557620007146200018a565b5b620007218254620004dd565b6200072e82828562000653565b600060209050601f83116001811462000766576000841562000751578287015190505b6200075d8582620006d0565b865550620007cd565b601f198416620007768662000512565b60005b82811015620007a05784890151825560018201915060208501945060208101905062000779565b86831015620007c05784890151620007bc601f891682620006b0565b8355505b6001600288020188555050505b505050505050565b7f4e487b7100000000000000000000000000000000000000000000000000000000600052601160045260246000fd5b600062000811826200059a565b91507fffffffffffffffffffffffffffffffffffffffffffffffffffffffffffffffff8203620008465762000845620007d5565b5b600182019050919050565b61132180620008616000396000f3fe608060405234801561001057600080fd5b50600436106100935760003560e01c80639e7b8d61116100665780639e7b8d6114610124578063a3ec138d14610140578063a513462014610171578063ce606ee01461018f578063fc36e15b146101ad57610093565b80632bfda5151461009857806332a2c5d0146100b65780633477ee2e146100d45780634aba5f3414610106575b600080fd5b6100a06101c9565b6040516100ad9190610a41565b60405180910390f35b6100be610285565b6040516100cb9190610aa4565b60405180910390f35b6100ee60048036038101906100e99190610b09565b61028d565b6040516100fd93929190610b45565b60405180910390f35b61010e6103d7565b60405161011b9190610cfc565b60405180910390f35b61013e60048036038101906101399190610d4a565b610564565b005b61015a60048036038101906101559190610d4a565b6106e0565b604051610168929190610d92565b60405180910390f35b61017961071e565b6040516101869190610dbb565b60405180910390f35b6101976107a6565b6040516101a49190610aa4565b60405180910390f35b6101c760048036038101906101c29190610f0b565b6107ca565b005b606060026101d561071e565b815481106101e6576101e5610f54565b5b9060005260206000209060030201600001805461020290610fb2565b80601f016020809104026020016040519081016040528092919081815260200182805461022e90610fb2565b801561027b5780601f106102505761010080835404028352916020019161027b565b820191906000526020600020905b81548152906001019060200180831161025e57829003601f168201915b5050505050905090565b600030905090565b6002818154811061029d57600080fd5b90600052602060002090600302016000915090508060000180546102c090610fb2565b80601f01602080910402602001604051908101604052809291908181526020018280546102ec90610fb2565b80156103395780601f1061030e57610100808354040283529160200191610339565b820191906000526020600020905b81548152906001019060200180831161031c57829003601f168201915b50505050509080600101805461034e90610fb2565b80601f016020809104026020016040519081016040528092919081815260200182805461037a90610fb2565b80156103c75780601f1061039c576101008083540402835291602001916103c7565b820191906000526020600020905b8154815290600101906020018083116103aa57829003601f168201915b5050505050908060020154905083565b60606002805480602002602001604051908101604052809291908181526020016000905b8282101561055b578382906000526020600020906003020160405180606001604052908160008201805461042e90610fb2565b80601f016020809104026020016040519081016040528092919081815260200182805461045a90610fb2565b80156104a75780601f1061047c576101008083540402835291602001916104a7565b820191906000526020600020905b81548152906001019060200180831161048a57829003601f168201915b505050505081526020016001820180546104c090610fb2565b80601f01602080910402602001604051908101604052809291908181526020018280546104ec90610fb2565b80156105395780601f1061050e57610100808354040283529160200191610539565b820191906000526020600020905b81548152906001019060200180831161051c57829003601f168201915b50505050508152602001600282015481525050815260200190600101906103fb565b50505050905090565b60008054906101000a900473ffffffffffffffffffffffffffffffffffffffff1673ffffffffffffffffffffffffffffffffffffffff163373ffffffffffffffffffffffffffffffffffffffff16146105f2576040517f08c379a00000000000000000000000000000000000000000000000000000000081526004016105e990611055565b60405180910390fd5b600160008273ffffffffffffffffffffffffffffffffffffffff1673ffffffffffffffffffffffffffffffffffffffff16815260200190815260200160002060000160019054906101000a900460ff1615610682576040517f08c379a0000000000000000000000000000000000000000000000000000000008152600401610679906110c1565b60405180910390fd5b6000600160008373ffffffffffffffffffffffffffffffffffffffff1673ffffffffffffffffffffffffffffffffffffffff16815260200190815260200160002060000160006101000a81548160ff02191690831515021790555050565b60016020528060005260406000206000915090508060000160009054906101000a900460ff16908060000160019054906101000a900460ff16905082565b6000806000905060005b6002805490508110156107a157816002828154811061074a57610749610f54565b5b906000526020600020906003020160020154111561078e576002818154811061077657610775610f54565b5b90600052602060002090600302016002015491508092505b808061079990611110565b915050610728565b505090565b60008054906101000a900473ffffffffffffffffffffffffffffffffffffffff1681565b6000600160003373ffffffffffffffffffffffffffffffffffffffff1673ffffffffffffffffffffffffffffffffffffffff16815260200190815260200160002090508060000160009054906101000a900460ff1661085e576040517f08c379a0000000000000000000000000000000000000000000000000000000008152600401610855906111a4565b60405180910390fd5b8060000160019054906101000a900460ff16156108b0576040517f08c379a00000000000000000000000000000000000000000000000000000000081526004016108a790611210565b60405180910390fd5b600080600090505b60028054905081101561095357836040516020016108d69190610a41565b6040516020818303038152906040528051906020012060028281548110610900576108ff610f54565b5b906000526020600020906003020160000160405160200161092191906112c9565b6040516020818303038152906040528051906020012003610940578091505b808061094b90611110565b9150506108b8565b506002818154811061096857610967610f54565b5b9060005260206000209060030201600201600081548092919061098a90611110565b919050555060018260000160016101000a81548160ff021916908315150217905550505050565b600081519050919050565b600082825260208201905092915050565b60005b838110156109eb5780820151818401526020810190506109d0565b60008484015250505050565b6000601f19601f8301169050919050565b6000610a13826109b1565b610a1d81856109bc565b9350610a2d8185602086016109cd565b610a36816109f7565b840191505092915050565b60006020820190508181036000830152610a5b8184610a08565b905092915050565b600073ffffffffffffffffffffffffffffffffffffffff82169050919050565b6000610a8e82610a63565b9050919050565b610a9e81610a83565b82525050565b6000602082019050610ab96000830184610a95565b92915050565b6000604051905090565b600080fd5b600080fd5b6000819050919050565b610ae681610ad3565b8114610af157600080fd5b50565b600081359050610b0381610add565b92915050565b600060208284031215610b1f57610b1e610ac9565b5b6000610b2d84828501610af4565b91505092915050565b610b3f81610ad3565b82525050565b60006060820190508181036000830152610b5f8186610a08565b90508181036020830152610b738185610a08565b9050610b826040830184610b36565b949350505050565b600081519050919050565b600082825260208201905092915050565b6000819050602082019050919050565b600082825260208201905092915050565b6000610bd2826109b1565b610bdc8185610bb6565b9350610bec8185602086016109cd565b610bf5816109f7565b840191505092915050565b610c0981610ad3565b82525050565b60006060830160008301518482036000860152610c2c8282610bc7565b91505060208301518482036020860152610c468282610bc7565b9150506040830151610c5b6040860182610c00565b508091505092915050565b6000610c728383610c0f565b905092915050565b6000602082019050919050565b6000610c9282610b8a565b610c9c8185610b95565b935083602082028501610cae85610ba6565b8060005b85811015610cea5784840389528151610ccb8582610c66565b9450610cd683610c7a565b925060208a01995050600181019050610cb2565b50829750879550505050505092915050565b60006020820190508181036000830152610d168184610c87565b905092915050565b610d2781610a83565b8114610d3257600080fd5b50565b600081359050610d4481610d1e565b92915050565b600060208284031215610d6057610d5f610ac9565b5b6000610d6e84828501610d35565b91505092915050565b60008115159050919050565b610d8c81610d77565b82525050565b6000604082019050610da76000830185610d83565b610db46020830184610d83565b9392505050565b6000602082019050610dd06000830184610b36565b92915050565b600080fd5b600080fd5b7f4e487b7100000000000000000000000000000000000000000000000000000000600052604160045260246000fd5b610e18826109f7565b810181811067ffffffffffffffff82111715610e3757610e36610de0565b5b80604052505050565b6000610e4a610abf565b9050610e568282610e0f565b919050565b600067ffffffffffffffff821115610e7657610e75610de0565b5b610e7f826109f7565b9050602081019050919050565b82818337600083830152505050565b6000610eae610ea984610e5b565b610e40565b905082815260208101848484011115610eca57610ec9610ddb565b5b610ed5848285610e8c565b509392505050565b600082601f830112610ef257610ef1610dd6565b5b8135610f02848260208601610e9b565b91505092915050565b600060208284031215610f2157610f20610ac9565b5b600082013567ffffffffffffffff811115610f3f57610f3e610ace565b5b610f4b84828501610edd565b91505092915050565b7f4e487b7100000000000000000000000000000000000000000000000000000000600052603260045260246000fd5b7f4e487b7100000000000000000000000000000000000000000000000000000000600052602260045260246000fd5b60006002820490506001821680610fca57607f821691505b602082108103610fdd57610fdc610f83565b5b50919050565b7f4f6e6c792074686520636f6e7472616374206f776e65722063616e206769766560008201527f20726967687420746f20766f74652e0000000000000000000000000000000000602082015250565b600061103f602f836109bc565b915061104a82610fe3565b604082019050919050565b6000602082019050818103600083015261106e81611032565b9050919050565b7f54686520766f74657220616c726561647920766f7465642e0000000000000000600082015250565b60006110ab6018836109bc565b91506110b682611075565b602082019050919050565b600060208201905081810360008301526110da8161109e565b9050919050565b7f4e487b7100000000000000000000000000000000000000000000000000000000600052601160045260246000fd5b600061111b82610ad3565b91507fffffffffffffffffffffffffffffffffffffffffffffffffffffffffffffffff820361114d5761114c6110e1565b5b600182019050919050565b7f486173206e6f20726967687420746f20766f7465000000000000000000000000600082015250565b600061118e6014836109bc565b915061119982611158565b602082019050919050565b600060208201905081810360008301526111bd81611181565b9050919050565b7f416c726561647920766f7465642e000000000000000000000000000000000000600082015250565b60006111fa600e836109bc565b9150611205826111c4565b602082019050919050565b60006020820190508181036000830152611229816111ed565b9050919050565b60008190508160005260206000209050919050565b6000815461125281610fb2565b61125c81866109bc565b94506001821660008114611277576001811461128d576112c0565b60ff1983168652811515602002860193506112c0565b61129685611230565b60005b838110156112b857815481890152600182019150602081019050611299565b808801955050505b50505092915050565b600060208201905081810360008301526112e38184611245565b90509291505056fea264697066735822122046e46ffba37cdd91f19ed28ca7a7e713ea8c4a340669aac8cc8071058e0eb6ab64736f6c63430008110033",
					"opcodes": "PUSH1 0x80 PUSH1 0x40 MSTORE CALLVALUE DUP1 ISZERO PUSH3 0x11 JUMPI PUSH1 0x0 DUP1 REVERT JUMPDEST POP PUSH1 0x40 MLOAD PUSH3 0x1B82 CODESIZE SUB DUP1 PUSH3 0x1B82 DUP4 CODECOPY DUP2 DUP2 ADD PUSH1 0x40 MSTORE DUP2 ADD SWAP1 PUSH3 0x37 SWAP2 SWAP1 PUSH3 0x3EF JUMP JUMPDEST CALLER PUSH1 0x0 DUP1 PUSH2 0x100 EXP DUP2 SLOAD DUP2 PUSH20 0xFFFFFFFFFFFFFFFFFFFFFFFFFFFFFFFFFFFFFFFF MUL NOT AND SWAP1 DUP4 PUSH20 0xFFFFFFFFFFFFFFFFFFFFFFFFFFFFFFFFFFFFFFFF AND MUL OR SWAP1 SSTORE POP PUSH1 0x0 JUMPDEST DUP3 MLOAD DUP2 LT ISZERO PUSH3 0x157 JUMPI PUSH1 0x2 PUSH1 0x40 MLOAD DUP1 PUSH1 0x60 ADD PUSH1 0x40 MSTORE DUP1 DUP6 DUP5 DUP2 MLOAD DUP2 LT PUSH3 0xA7 JUMPI PUSH3 0xA6 PUSH3 0x474 JUMP JUMPDEST JUMPDEST PUSH1 0x20 MUL PUSH1 0x20 ADD ADD MLOAD DUP2 MSTORE PUSH1 0x20 ADD DUP5 DUP5 DUP2 MLOAD DUP2 LT PUSH3 0xCA JUMPI PUSH3 0xC9 PUSH3 0x474 JUMP JUMPDEST JUMPDEST PUSH1 0x20 MUL PUSH1 0x20 ADD ADD MLOAD DUP2 MSTORE PUSH1 0x20 ADD PUSH1 0x0 DUP2 MSTORE POP SWAP1 DUP1 PUSH1 0x1 DUP2 SLOAD ADD DUP1 DUP3 SSTORE DUP1 SWAP2 POP POP PUSH1 0x1 SWAP1 SUB SWAP1 PUSH1 0x0 MSTORE PUSH1 0x20 PUSH1 0x0 KECCAK256 SWAP1 PUSH1 0x3 MUL ADD PUSH1 0x0 SWAP1 SWAP2 SWAP1 SWAP2 SWAP1 SWAP2 POP PUSH1 0x0 DUP3 ADD MLOAD DUP2 PUSH1 0x0 ADD SWAP1 DUP2 PUSH3 0x11C SWAP2 SWAP1 PUSH3 0x6EE JUMP JUMPDEST POP PUSH1 0x20 DUP3 ADD MLOAD DUP2 PUSH1 0x1 ADD SWAP1 DUP2 PUSH3 0x134 SWAP2 SWAP1 PUSH3 0x6EE JUMP JUMPDEST POP PUSH1 0x40 DUP3 ADD MLOAD DUP2 PUSH1 0x2 ADD SSTORE POP POP DUP1 DUP1 PUSH3 0x14E SWAP1 PUSH3 0x804 JUMP JUMPDEST SWAP2 POP POP PUSH3 0x7A JUMP JUMPDEST POP POP POP PUSH3 0x851 JUMP JUMPDEST PUSH1 0x0 PUSH1 0x40 MLOAD SWAP1 POP SWAP1 JUMP JUMPDEST PUSH1 0x0 DUP1 REVERT JUMPDEST PUSH1 0x0 DUP1 REVERT JUMPDEST PUSH1 0x0 DUP1 REVERT JUMPDEST PUSH1 0x0 PUSH1 0x1F NOT PUSH1 0x1F DUP4 ADD AND SWAP1 POP SWAP2 SWAP1 POP JUMP JUMPDEST PUSH32 0x4E487B7100000000000000000000000000000000000000000000000000000000 PUSH1 0x0 MSTORE PUSH1 0x41 PUSH1 0x4 MSTORE PUSH1 0x24 PUSH1 0x0 REVERT JUMPDEST PUSH3 0x1C4 DUP3 PUSH3 0x179 JUMP JUMPDEST DUP2 ADD DUP2 DUP2 LT PUSH8 0xFFFFFFFFFFFFFFFF DUP3 GT OR ISZERO PUSH3 0x1E6 JUMPI PUSH3 0x1E5 PUSH3 0x18A JUMP JUMPDEST JUMPDEST DUP1 PUSH1 0x40 MSTORE POP POP POP JUMP JUMPDEST PUSH1 0x0 PUSH3 0x1FB PUSH3 0x160 JUMP JUMPDEST SWAP1 POP PUSH3 0x209 DUP3 DUP3 PUSH3 0x1B9 JUMP JUMPDEST SWAP2 SWAP1 POP JUMP JUMPDEST PUSH1 0x0 PUSH8 0xFFFFFFFFFFFFFFFF DUP3 GT ISZERO PUSH3 0x22C JUMPI PUSH3 0x22B PUSH3 0x18A JUMP JUMPDEST JUMPDEST PUSH1 0x20 DUP3 MUL SWAP1 POP PUSH1 0x20 DUP2 ADD SWAP1 POP SWAP2 SWAP1 POP JUMP JUMPDEST PUSH1 0x0 DUP1 REVERT JUMPDEST PUSH1 0x0 DUP1 REVERT JUMPDEST PUSH1 0x0 PUSH8 0xFFFFFFFFFFFFFFFF DUP3 GT ISZERO PUSH3 0x265 JUMPI PUSH3 0x264 PUSH3 0x18A JUMP JUMPDEST JUMPDEST PUSH3 0x270 DUP3 PUSH3 0x179 JUMP JUMPDEST SWAP1 POP PUSH1 0x20 DUP2 ADD SWAP1 POP SWAP2 SWAP1 POP JUMP JUMPDEST PUSH1 0x0 JUMPDEST DUP4 DUP2 LT ISZERO PUSH3 0x29D JUMPI DUP1 DUP3 ADD MLOAD DUP2 DUP5 ADD MSTORE PUSH1 0x20 DUP2 ADD SWAP1 POP PUSH3 0x280 JUMP JUMPDEST PUSH1 0x0 DUP5 DUP5 ADD MSTORE POP POP POP POP JUMP JUMPDEST PUSH1 0x0 PUSH3 0x2C0 PUSH3 0x2BA DUP5 PUSH3 0x247 JUMP JUMPDEST PUSH3 0x1EF JUMP JUMPDEST SWAP1 POP DUP3 DUP2 MSTORE PUSH1 0x20 DUP2 ADD DUP5 DUP5 DUP5 ADD GT ISZERO PUSH3 0x2DF JUMPI PUSH3 0x2DE PUSH3 0x242 JUMP JUMPDEST JUMPDEST PUSH3 0x2EC DUP5 DUP3 DUP6 PUSH3 0x27D JUMP JUMPDEST POP SWAP4 SWAP3 POP POP POP JUMP JUMPDEST PUSH1 0x0 DUP3 PUSH1 0x1F DUP4 ADD SLT PUSH3 0x30C JUMPI PUSH3 0x30B PUSH3 0x174 JUMP JUMPDEST JUMPDEST DUP2 MLOAD PUSH3 0x31E DUP5 DUP3 PUSH1 0x20 DUP7 ADD PUSH3 0x2A9 JUMP JUMPDEST SWAP2 POP POP SWAP3 SWAP2 POP POP JUMP JUMPDEST PUSH1 0x0 PUSH3 0x33E PUSH3 0x338 DUP5 PUSH3 0x20E JUMP JUMPDEST PUSH3 0x1EF JUMP JUMPDEST SWAP1 POP DUP1 DUP4 DUP3 MSTORE PUSH1 0x20 DUP3 ADD SWAP1 POP PUSH1 0x20 DUP5 MUL DUP4 ADD DUP6 DUP2 GT ISZERO PUSH3 0x364 JUMPI PUSH3 0x363 PUSH3 0x23D JUMP JUMPDEST JUMPDEST DUP4 JUMPDEST DUP2 DUP2 LT ISZERO PUSH3 0x3B2 JUMPI DUP1 MLOAD PUSH8 0xFFFFFFFFFFFFFFFF DUP2 GT ISZERO PUSH3 0x38D JUMPI PUSH3 0x38C PUSH3 0x174 JUMP JUMPDEST JUMPDEST DUP1 DUP7 ADD PUSH3 0x39C DUP10 DUP3 PUSH3 0x2F4 JUMP JUMPDEST DUP6 MSTORE PUSH1 0x20 DUP6 ADD SWAP5 POP POP POP PUSH1 0x20 DUP2 ADD SWAP1 POP PUSH3 0x366 JUMP JUMPDEST POP POP POP SWAP4 SWAP3 POP POP POP JUMP JUMPDEST PUSH1 0x0 DUP3 PUSH1 0x1F DUP4 ADD SLT PUSH3 0x3D4 JUMPI PUSH3 0x3D3 PUSH3 0x174 JUMP JUMPDEST JUMPDEST DUP2 MLOAD PUSH3 0x3E6 DUP5 DUP3 PUSH1 0x20 DUP7 ADD PUSH3 0x327 JUMP JUMPDEST SWAP2 POP POP SWAP3 SWAP2 POP POP JUMP JUMPDEST PUSH1 0x0 DUP1 PUSH1 0x40 DUP4 DUP6 SUB SLT ISZERO PUSH3 0x409 JUMPI PUSH3 0x408 PUSH3 0x16A JUMP JUMPDEST JUMPDEST PUSH1 0x0 DUP4 ADD MLOAD PUSH8 0xFFFFFFFFFFFFFFFF DUP2 GT ISZERO PUSH3 0x42A JUMPI PUSH3 0x429 PUSH3 0x16F JUMP JUMPDEST JUMPDEST PUSH3 0x438 DUP6 DUP3 DUP7 ADD PUSH3 0x3BC JUMP JUMPDEST SWAP3 POP POP PUSH1 0x20 DUP4 ADD MLOAD PUSH8 0xFFFFFFFFFFFFFFFF DUP2 GT ISZERO PUSH3 0x45C JUMPI PUSH3 0x45B PUSH3 0x16F JUMP JUMPDEST JUMPDEST PUSH3 0x46A DUP6 DUP3 DUP7 ADD PUSH3 0x3BC JUMP JUMPDEST SWAP2 POP POP SWAP3 POP SWAP3 SWAP1 POP JUMP JUMPDEST PUSH32 0x4E487B7100000000000000000000000000000000000000000000000000000000 PUSH1 0x0 MSTORE PUSH1 0x32 PUSH1 0x4 MSTORE PUSH1 0x24 PUSH1 0x0 REVERT JUMPDEST PUSH1 0x0 DUP2 MLOAD SWAP1 POP SWAP2 SWAP1 POP JUMP JUMPDEST PUSH32 0x4E487B7100000000000000000000000000000000000000000000000000000000 PUSH1 0x0 MSTORE PUSH1 0x22 PUSH1 0x4 MSTORE PUSH1 0x24 PUSH1 0x0 REVERT JUMPDEST PUSH1 0x0 PUSH1 0x2 DUP3 DIV SWAP1 POP PUSH1 0x1 DUP3 AND DUP1 PUSH3 0x4F6 JUMPI PUSH1 0x7F DUP3 AND SWAP2 POP JUMPDEST PUSH1 0x20 DUP3 LT DUP2 SUB PUSH3 0x50C JUMPI PUSH3 0x50B PUSH3 0x4AE JUMP JUMPDEST JUMPDEST POP SWAP2 SWAP1 POP JUMP JUMPDEST PUSH1 0x0 DUP2 SWAP1 POP DUP2 PUSH1 0x0 MSTORE PUSH1 0x20 PUSH1 0x0 KECCAK256 SWAP1 POP SWAP2 SWAP1 POP JUMP JUMPDEST PUSH1 0x0 PUSH1 0x20 PUSH1 0x1F DUP4 ADD DIV SWAP1 POP SWAP2 SWAP1 POP JUMP JUMPDEST PUSH1 0x0 DUP3 DUP3 SHL SWAP1 POP SWAP3 SWAP2 POP POP JUMP JUMPDEST PUSH1 0x0 PUSH1 0x8 DUP4 MUL PUSH3 0x576 PUSH32 0xFFFFFFFFFFFFFFFFFFFFFFFFFFFFFFFFFFFFFFFFFFFFFFFFFFFFFFFFFFFFFFFF DUP3 PUSH3 0x537 JUMP JUMPDEST PUSH3 0x582 DUP7 DUP4 PUSH3 0x537 JUMP JUMPDEST SWAP6 POP DUP1 NOT DUP5 AND SWAP4 POP DUP1 DUP7 AND DUP5 OR SWAP3 POP POP POP SWAP4 SWAP3 POP POP POP JUMP JUMPDEST PUSH1 0x0 DUP2 SWAP1 POP SWAP2 SWAP1 POP JUMP JUMPDEST PUSH1 0x0 DUP2 SWAP1 POP SWAP2 SWAP1 POP JUMP JUMPDEST PUSH1 0x0 PUSH3 0x5CF PUSH3 0x5C9 PUSH3 0x5C3 DUP5 PUSH3 0x59A JUMP JUMPDEST PUSH3 0x5A4 JUMP JUMPDEST PUSH3 0x59A JUMP JUMPDEST SWAP1 POP SWAP2 SWAP1 POP JUMP JUMPDEST PUSH1 0x0 DUP2 SWAP1 POP SWAP2 SWAP1 POP JUMP JUMPDEST PUSH3 0x5EB DUP4 PUSH3 0x5AE JUMP JUMPDEST PUSH3 0x603 PUSH3 0x5FA DUP3 PUSH3 0x5D6 JUMP JUMPDEST DUP5 DUP5 SLOAD PUSH3 0x544 JUMP JUMPDEST DUP3 SSTORE POP POP POP POP JUMP JUMPDEST PUSH1 0x0 SWAP1 JUMP JUMPDEST PUSH3 0x61A PUSH3 0x60B JUMP JUMPDEST PUSH3 0x627 DUP2 DUP5 DUP5 PUSH3 0x5E0 JUMP JUMPDEST POP POP POP JUMP JUMPDEST JUMPDEST DUP2 DUP2 LT ISZERO PUSH3 0x64F JUMPI PUSH3 0x643 PUSH1 0x0 DUP3 PUSH3 0x610 JUMP JUMPDEST PUSH1 0x1 DUP2 ADD SWAP1 POP PUSH3 0x62D JUMP JUMPDEST POP POP JUMP JUMPDEST PUSH1 0x1F DUP3 GT ISZERO PUSH3 0x69E JUMPI PUSH3 0x668 DUP2 PUSH3 0x512 JUMP JUMPDEST PUSH3 0x673 DUP5 PUSH3 0x527 JUMP JUMPDEST DUP2 ADD PUSH1 0x20 DUP6 LT ISZERO PUSH3 0x683 JUMPI DUP2 SWAP1 POP JUMPDEST PUSH3 0x69B PUSH3 0x692 DUP6 PUSH3 0x527 JUMP JUMPDEST DUP4 ADD DUP3 PUSH3 0x62C JUMP JUMPDEST POP POP JUMPDEST POP POP POP JUMP JUMPDEST PUSH1 0x0 DUP3 DUP3 SHR SWAP1 POP SWAP3 SWAP2 POP POP JUMP JUMPDEST PUSH1 0x0 PUSH3 0x6C3 PUSH1 0x0 NOT DUP5 PUSH1 0x8 MUL PUSH3 0x6A3 JUMP JUMPDEST NOT DUP1 DUP4 AND SWAP2 POP POP SWAP3 SWAP2 POP POP JUMP JUMPDEST PUSH1 0x0 PUSH3 0x6DE DUP4 DUP4 PUSH3 0x6B0 JUMP JUMPDEST SWAP2 POP DUP3 PUSH1 0x2 MUL DUP3 OR SWAP1 POP SWAP3 SWAP2 POP POP JUMP JUMPDEST PUSH3 0x6F9 DUP3 PUSH3 0x4A3 JUMP JUMPDEST PUSH8 0xFFFFFFFFFFFFFFFF DUP2 GT ISZERO PUSH3 0x715 JUMPI PUSH3 0x714 PUSH3 0x18A JUMP JUMPDEST JUMPDEST PUSH3 0x721 DUP3 SLOAD PUSH3 0x4DD JUMP JUMPDEST PUSH3 0x72E DUP3 DUP3 DUP6 PUSH3 0x653 JUMP JUMPDEST PUSH1 0x0 PUSH1 0x20 SWAP1 POP PUSH1 0x1F DUP4 GT PUSH1 0x1 DUP2 EQ PUSH3 0x766 JUMPI PUSH1 0x0 DUP5 ISZERO PUSH3 0x751 JUMPI DUP3 DUP8 ADD MLOAD SWAP1 POP JUMPDEST PUSH3 0x75D DUP6 DUP3 PUSH3 0x6D0 JUMP JUMPDEST DUP7 SSTORE POP PUSH3 0x7CD JUMP JUMPDEST PUSH1 0x1F NOT DUP5 AND PUSH3 0x776 DUP7 PUSH3 0x512 JUMP JUMPDEST PUSH1 0x0 JUMPDEST DUP3 DUP2 LT ISZERO PUSH3 0x7A0 JUMPI DUP5 DUP10 ADD MLOAD DUP3 SSTORE PUSH1 0x1 DUP3 ADD SWAP2 POP PUSH1 0x20 DUP6 ADD SWAP5 POP PUSH1 0x20 DUP2 ADD SWAP1 POP PUSH3 0x779 JUMP JUMPDEST DUP7 DUP4 LT ISZERO PUSH3 0x7C0 JUMPI DUP5 DUP10 ADD MLOAD PUSH3 0x7BC PUSH1 0x1F DUP10 AND DUP3 PUSH3 0x6B0 JUMP JUMPDEST DUP4 SSTORE POP JUMPDEST PUSH1 0x1 PUSH1 0x2 DUP9 MUL ADD DUP9 SSTORE POP POP POP JUMPDEST POP POP POP POP POP POP JUMP JUMPDEST PUSH32 0x4E487B7100000000000000000000000000000000000000000000000000000000 PUSH1 0x0 MSTORE PUSH1 0x11 PUSH1 0x4 MSTORE PUSH1 0x24 PUSH1 0x0 REVERT JUMPDEST PUSH1 0x0 PUSH3 0x811 DUP3 PUSH3 0x59A JUMP JUMPDEST SWAP2 POP PUSH32 0xFFFFFFFFFFFFFFFFFFFFFFFFFFFFFFFFFFFFFFFFFFFFFFFFFFFFFFFFFFFFFFFF DUP3 SUB PUSH3 0x846 JUMPI PUSH3 0x845 PUSH3 0x7D5 JUMP JUMPDEST JUMPDEST PUSH1 0x1 DUP3 ADD SWAP1 POP SWAP2 SWAP1 POP JUMP JUMPDEST PUSH2 0x1321 DUP1 PUSH3 0x861 PUSH1 0x0 CODECOPY PUSH1 0x0 RETURN INVALID PUSH1 0x80 PUSH1 0x40 MSTORE CALLVALUE DUP1 ISZERO PUSH2 0x10 JUMPI PUSH1 0x0 DUP1 REVERT JUMPDEST POP PUSH1 0x4 CALLDATASIZE LT PUSH2 0x93 JUMPI PUSH1 0x0 CALLDATALOAD PUSH1 0xE0 SHR DUP1 PUSH4 0x9E7B8D61 GT PUSH2 0x66 JUMPI DUP1 PUSH4 0x9E7B8D61 EQ PUSH2 0x124 JUMPI DUP1 PUSH4 0xA3EC138D EQ PUSH2 0x140 JUMPI DUP1 PUSH4 0xA5134620 EQ PUSH2 0x171 JUMPI DUP1 PUSH4 0xCE606EE0 EQ PUSH2 0x18F JUMPI DUP1 PUSH4 0xFC36E15B EQ PUSH2 0x1AD JUMPI PUSH2 0x93 JUMP JUMPDEST DUP1 PUSH4 0x2BFDA515 EQ PUSH2 0x98 JUMPI DUP1 PUSH4 0x32A2C5D0 EQ PUSH2 0xB6 JUMPI DUP1 PUSH4 0x3477EE2E EQ PUSH2 0xD4 JUMPI DUP1 PUSH4 0x4ABA5F34 EQ PUSH2 0x106 JUMPI JUMPDEST PUSH1 0x0 DUP1 REVERT JUMPDEST PUSH2 0xA0 PUSH2 0x1C9 JUMP JUMPDEST PUSH1 0x40 MLOAD PUSH2 0xAD SWAP2 SWAP1 PUSH2 0xA41 JUMP JUMPDEST PUSH1 0x40 MLOAD DUP1 SWAP2 SUB SWAP1 RETURN JUMPDEST PUSH2 0xBE PUSH2 0x285 JUMP JUMPDEST PUSH1 0x40 MLOAD PUSH2 0xCB SWAP2 SWAP1 PUSH2 0xAA4 JUMP JUMPDEST PUSH1 0x40 MLOAD DUP1 SWAP2 SUB SWAP1 RETURN JUMPDEST PUSH2 0xEE PUSH1 0x4 DUP1 CALLDATASIZE SUB DUP2 ADD SWAP1 PUSH2 0xE9 SWAP2 SWAP1 PUSH2 0xB09 JUMP JUMPDEST PUSH2 0x28D JUMP JUMPDEST PUSH1 0x40 MLOAD PUSH2 0xFD SWAP4 SWAP3 SWAP2 SWAP1 PUSH2 0xB45 JUMP JUMPDEST PUSH1 0x40 MLOAD DUP1 SWAP2 SUB SWAP1 RETURN JUMPDEST PUSH2 0x10E PUSH2 0x3D7 JUMP JUMPDEST PUSH1 0x40 MLOAD PUSH2 0x11B SWAP2 SWAP1 PUSH2 0xCFC JUMP JUMPDEST PUSH1 0x40 MLOAD DUP1 SWAP2 SUB SWAP1 RETURN JUMPDEST PUSH2 0x13E PUSH1 0x4 DUP1 CALLDATASIZE SUB DUP2 ADD SWAP1 PUSH2 0x139 SWAP2 SWAP1 PUSH2 0xD4A JUMP JUMPDEST PUSH2 0x564 JUMP JUMPDEST STOP JUMPDEST PUSH2 0x15A PUSH1 0x4 DUP1 CALLDATASIZE SUB DUP2 ADD SWAP1 PUSH2 0x155 SWAP2 SWAP1 PUSH2 0xD4A JUMP JUMPDEST PUSH2 0x6E0 JUMP JUMPDEST PUSH1 0x40 MLOAD PUSH2 0x168 SWAP3 SWAP2 SWAP1 PUSH2 0xD92 JUMP JUMPDEST PUSH1 0x40 MLOAD DUP1 SWAP2 SUB SWAP1 RETURN JUMPDEST PUSH2 0x179 PUSH2 0x71E JUMP JUMPDEST PUSH1 0x40 MLOAD PUSH2 0x186 SWAP2 SWAP1 PUSH2 0xDBB JUMP JUMPDEST PUSH1 0x40 MLOAD DUP1 SWAP2 SUB SWAP1 RETURN JUMPDEST PUSH2 0x197 PUSH2 0x7A6 JUMP JUMPDEST PUSH1 0x40 MLOAD PUSH2 0x1A4 SWAP2 SWAP1 PUSH2 0xAA4 JUMP JUMPDEST PUSH1 0x40 MLOAD DUP1 SWAP2 SUB SWAP1 RETURN JUMPDEST PUSH2 0x1C7 PUSH1 0x4 DUP1 CALLDATASIZE SUB DUP2 ADD SWAP1 PUSH2 0x1C2 SWAP2 SWAP1 PUSH2 0xF0B JUMP JUMPDEST PUSH2 0x7CA JUMP JUMPDEST STOP JUMPDEST PUSH1 0x60 PUSH1 0x2 PUSH2 0x1D5 PUSH2 0x71E JUMP JUMPDEST DUP2 SLOAD DUP2 LT PUSH2 0x1E6 JUMPI PUSH2 0x1E5 PUSH2 0xF54 JUMP JUMPDEST JUMPDEST SWAP1 PUSH1 0x0 MSTORE PUSH1 0x20 PUSH1 0x0 KECCAK256 SWAP1 PUSH1 0x3 MUL ADD PUSH1 0x0 ADD DUP1 SLOAD PUSH2 0x202 SWAP1 PUSH2 0xFB2 JUMP JUMPDEST DUP1 PUSH1 0x1F ADD PUSH1 0x20 DUP1 SWAP2 DIV MUL PUSH1 0x20 ADD PUSH1 0x40 MLOAD SWAP1 DUP2 ADD PUSH1 0x40 MSTORE DUP1 SWAP3 SWAP2 SWAP1 DUP2 DUP2 MSTORE PUSH1 0x20 ADD DUP3 DUP1 SLOAD PUSH2 0x22E SWAP1 PUSH2 0xFB2 JUMP JUMPDEST DUP1 ISZERO PUSH2 0x27B JUMPI DUP1 PUSH1 0x1F LT PUSH2 0x250 JUMPI PUSH2 0x100 DUP1 DUP4 SLOAD DIV MUL DUP4 MSTORE SWAP2 PUSH1 0x20 ADD SWAP2 PUSH2 0x27B JUMP JUMPDEST DUP3 ADD SWAP2 SWAP1 PUSH1 0x0 MSTORE PUSH1 0x20 PUSH1 0x0 KECCAK256 SWAP1 JUMPDEST DUP2 SLOAD DUP2 MSTORE SWAP1 PUSH1 0x1 ADD SWAP1 PUSH1 0x20 ADD DUP1 DUP4 GT PUSH2 0x25E JUMPI DUP3 SWAP1 SUB PUSH1 0x1F AND DUP3 ADD SWAP2 JUMPDEST POP POP POP POP POP SWAP1 POP SWAP1 JUMP JUMPDEST PUSH1 0x0 ADDRESS SWAP1 POP SWAP1 JUMP JUMPDEST PUSH1 0x2 DUP2 DUP2 SLOAD DUP2 LT PUSH2 0x29D JUMPI PUSH1 0x0 DUP1 REVERT JUMPDEST SWAP1 PUSH1 0x0 MSTORE PUSH1 0x20 PUSH1 0x0 KECCAK256 SWAP1 PUSH1 0x3 MUL ADD PUSH1 0x0 SWAP2 POP SWAP1 POP DUP1 PUSH1 0x0 ADD DUP1 SLOAD PUSH2 0x2C0 SWAP1 PUSH2 0xFB2 JUMP JUMPDEST DUP1 PUSH1 0x1F ADD PUSH1 0x20 DUP1 SWAP2 DIV MUL PUSH1 0x20 ADD PUSH1 0x40 MLOAD SWAP1 DUP2 ADD PUSH1 0x40 MSTORE DUP1 SWAP3 SWAP2 SWAP1 DUP2 DUP2 MSTORE PUSH1 0x20 ADD DUP3 DUP1 SLOAD PUSH2 0x2EC SWAP1 PUSH2 0xFB2 JUMP JUMPDEST DUP1 ISZERO PUSH2 0x339 JUMPI DUP1 PUSH1 0x1F LT PUSH2 0x30E JUMPI PUSH2 0x100 DUP1 DUP4 SLOAD DIV MUL DUP4 MSTORE SWAP2 PUSH1 0x20 ADD SWAP2 PUSH2 0x339 JUMP JUMPDEST DUP3 ADD SWAP2 SWAP1 PUSH1 0x0 MSTORE PUSH1 0x20 PUSH1 0x0 KECCAK256 SWAP1 JUMPDEST DUP2 SLOAD DUP2 MSTORE SWAP1 PUSH1 0x1 ADD SWAP1 PUSH1 0x20 ADD DUP1 DUP4 GT PUSH2 0x31C JUMPI DUP3 SWAP1 SUB PUSH1 0x1F AND DUP3 ADD SWAP2 JUMPDEST POP POP POP POP POP SWAP1 DUP1 PUSH1 0x1 ADD DUP1 SLOAD PUSH2 0x34E SWAP1 PUSH2 0xFB2 JUMP JUMPDEST DUP1 PUSH1 0x1F ADD PUSH1 0x20 DUP1 SWAP2 DIV MUL PUSH1 0x20 ADD PUSH1 0x40 MLOAD SWAP1 DUP2 ADD PUSH1 0x40 MSTORE DUP1 SWAP3 SWAP2 SWAP1 DUP2 DUP2 MSTORE PUSH1 0x20 ADD DUP3 DUP1 SLOAD PUSH2 0x37A SWAP1 PUSH2 0xFB2 JUMP JUMPDEST DUP1 ISZERO PUSH2 0x3C7 JUMPI DUP1 PUSH1 0x1F LT PUSH2 0x39C JUMPI PUSH2 0x100 DUP1 DUP4 SLOAD DIV MUL DUP4 MSTORE SWAP2 PUSH1 0x20 ADD SWAP2 PUSH2 0x3C7 JUMP JUMPDEST DUP3 ADD SWAP2 SWAP1 PUSH1 0x0 MSTORE PUSH1 0x20 PUSH1 0x0 KECCAK256 SWAP1 JUMPDEST DUP2 SLOAD DUP2 MSTORE SWAP1 PUSH1 0x1 ADD SWAP1 PUSH1 0x20 ADD DUP1 DUP4 GT PUSH2 0x3AA JUMPI DUP3 SWAP1 SUB PUSH1 0x1F AND DUP3 ADD SWAP2 JUMPDEST POP POP POP POP POP SWAP1 DUP1 PUSH1 0x2 ADD SLOAD SWAP1 POP DUP4 JUMP JUMPDEST PUSH1 0x60 PUSH1 0x2 DUP1 SLOAD DUP1 PUSH1 0x20 MUL PUSH1 0x20 ADD PUSH1 0x40 MLOAD SWAP1 DUP2 ADD PUSH1 0x40 MSTORE DUP1 SWAP3 SWAP2 SWAP1 DUP2 DUP2 MSTORE PUSH1 0x20 ADD PUSH1 0x0 SWAP1 JUMPDEST DUP3 DUP3 LT ISZERO PUSH2 0x55B JUMPI DUP4 DUP3 SWAP1 PUSH1 0x0 MSTORE PUSH1 0x20 PUSH1 0x0 KECCAK256 SWAP1 PUSH1 0x3 MUL ADD PUSH1 0x40 MLOAD DUP1 PUSH1 0x60 ADD PUSH1 0x40 MSTORE SWAP1 DUP2 PUSH1 0x0 DUP3 ADD DUP1 SLOAD PUSH2 0x42E SWAP1 PUSH2 0xFB2 JUMP JUMPDEST DUP1 PUSH1 0x1F ADD PUSH1 0x20 DUP1 SWAP2 DIV MUL PUSH1 0x20 ADD PUSH1 0x40 MLOAD SWAP1 DUP2 ADD PUSH1 0x40 MSTORE DUP1 SWAP3 SWAP2 SWAP1 DUP2 DUP2 MSTORE PUSH1 0x20 ADD DUP3 DUP1 SLOAD PUSH2 0x45A SWAP1 PUSH2 0xFB2 JUMP JUMPDEST DUP1 ISZERO PUSH2 0x4A7 JUMPI DUP1 PUSH1 0x1F LT PUSH2 0x47C JUMPI PUSH2 0x100 DUP1 DUP4 SLOAD DIV MUL DUP4 MSTORE SWAP2 PUSH1 0x20 ADD SWAP2 PUSH2 0x4A7 JUMP JUMPDEST DUP3 ADD SWAP2 SWAP1 PUSH1 0x0 MSTORE PUSH1 0x20 PUSH1 0x0 KECCAK256 SWAP1 JUMPDEST DUP2 SLOAD DUP2 MSTORE SWAP1 PUSH1 0x1 ADD SWAP1 PUSH1 0x20 ADD DUP1 DUP4 GT PUSH2 0x48A JUMPI DUP3 SWAP1 SUB PUSH1 0x1F AND DUP3 ADD SWAP2 JUMPDEST POP POP POP POP POP DUP2 MSTORE PUSH1 0x20 ADD PUSH1 0x1 DUP3 ADD DUP1 SLOAD PUSH2 0x4C0 SWAP1 PUSH2 0xFB2 JUMP JUMPDEST DUP1 PUSH1 0x1F ADD PUSH1 0x20 DUP1 SWAP2 DIV MUL PUSH1 0x20 ADD PUSH1 0x40 MLOAD SWAP1 DUP2 ADD PUSH1 0x40 MSTORE DUP1 SWAP3 SWAP2 SWAP1 DUP2 DUP2 MSTORE PUSH1 0x20 ADD DUP3 DUP1 SLOAD PUSH2 0x4EC SWAP1 PUSH2 0xFB2 JUMP JUMPDEST DUP1 ISZERO PUSH2 0x539 JUMPI DUP1 PUSH1 0x1F LT PUSH2 0x50E JUMPI PUSH2 0x100 DUP1 DUP4 SLOAD DIV MUL DUP4 MSTORE SWAP2 PUSH1 0x20 ADD SWAP2 PUSH2 0x539 JUMP JUMPDEST DUP3 ADD SWAP2 SWAP1 PUSH1 0x0 MSTORE PUSH1 0x20 PUSH1 0x0 KECCAK256 SWAP1 JUMPDEST DUP2 SLOAD DUP2 MSTORE SWAP1 PUSH1 0x1 ADD SWAP1 PUSH1 0x20 ADD DUP1 DUP4 GT PUSH2 0x51C JUMPI DUP3 SWAP1 SUB PUSH1 0x1F AND DUP3 ADD SWAP2 JUMPDEST POP POP POP POP POP DUP2 MSTORE PUSH1 0x20 ADD PUSH1 0x2 DUP3 ADD SLOAD DUP2 MSTORE POP POP DUP2 MSTORE PUSH1 0x20 ADD SWAP1 PUSH1 0x1 ADD SWAP1 PUSH2 0x3FB JUMP JUMPDEST POP POP POP POP SWAP1 POP SWAP1 JUMP JUMPDEST PUSH1 0x0 DUP1 SLOAD SWAP1 PUSH2 0x100 EXP SWAP1 DIV PUSH20 0xFFFFFFFFFFFFFFFFFFFFFFFFFFFFFFFFFFFFFFFF AND PUSH20 0xFFFFFFFFFFFFFFFFFFFFFFFFFFFFFFFFFFFFFFFF AND CALLER PUSH20 0xFFFFFFFFFFFFFFFFFFFFFFFFFFFFFFFFFFFFFFFF AND EQ PUSH2 0x5F2 JUMPI PUSH1 0x40 MLOAD PUSH32 0x8C379A000000000000000000000000000000000000000000000000000000000 DUP2 MSTORE PUSH1 0x4 ADD PUSH2 0x5E9 SWAP1 PUSH2 0x1055 JUMP JUMPDEST PUSH1 0x40 MLOAD DUP1 SWAP2 SUB SWAP1 REVERT JUMPDEST PUSH1 0x1 PUSH1 0x0 DUP3 PUSH20 0xFFFFFFFFFFFFFFFFFFFFFFFFFFFFFFFFFFFFFFFF AND PUSH20 0xFFFFFFFFFFFFFFFFFFFFFFFFFFFFFFFFFFFFFFFF AND DUP2 MSTORE PUSH1 0x20 ADD SWAP1 DUP2 MSTORE PUSH1 0x20 ADD PUSH1 0x0 KECCAK256 PUSH1 0x0 ADD PUSH1 0x1 SWAP1 SLOAD SWAP1 PUSH2 0x100 EXP SWAP1 DIV PUSH1 0xFF AND ISZERO PUSH2 0x682 JUMPI PUSH1 0x40 MLOAD PUSH32 0x8C379A000000000000000000000000000000000000000000000000000000000 DUP2 MSTORE PUSH1 0x4 ADD PUSH2 0x679 SWAP1 PUSH2 0x10C1 JUMP JUMPDEST PUSH1 0x40 MLOAD DUP1 SWAP2 SUB SWAP1 REVERT JUMPDEST PUSH1 0x0 PUSH1 0x1 PUSH1 0x0 DUP4 PUSH20 0xFFFFFFFFFFFFFFFFFFFFFFFFFFFFFFFFFFFFFFFF AND PUSH20 0xFFFFFFFFFFFFFFFFFFFFFFFFFFFFFFFFFFFFFFFF AND DUP2 MSTORE PUSH1 0x20 ADD SWAP1 DUP2 MSTORE PUSH1 0x20 ADD PUSH1 0x0 KECCAK256 PUSH1 0x0 ADD PUSH1 0x0 PUSH2 0x100 EXP DUP2 SLOAD DUP2 PUSH1 0xFF MUL NOT AND SWAP1 DUP4 ISZERO ISZERO MUL OR SWAP1 SSTORE POP POP JUMP JUMPDEST PUSH1 0x1 PUSH1 0x20 MSTORE DUP1 PUSH1 0x0 MSTORE PUSH1 0x40 PUSH1 0x0 KECCAK256 PUSH1 0x0 SWAP2 POP SWAP1 POP DUP1 PUSH1 0x0 ADD PUSH1 0x0 SWAP1 SLOAD SWAP1 PUSH2 0x100 EXP SWAP1 DIV PUSH1 0xFF AND SWAP1 DUP1 PUSH1 0x0 ADD PUSH1 0x1 SWAP1 SLOAD SWAP1 PUSH2 0x100 EXP SWAP1 DIV PUSH1 0xFF AND SWAP1 POP DUP3 JUMP JUMPDEST PUSH1 0x0 DUP1 PUSH1 0x0 SWAP1 POP PUSH1 0x0 JUMPDEST PUSH1 0x2 DUP1 SLOAD SWAP1 POP DUP2 LT ISZERO PUSH2 0x7A1 JUMPI DUP2 PUSH1 0x2 DUP3 DUP2 SLOAD DUP2 LT PUSH2 0x74A JUMPI PUSH2 0x749 PUSH2 0xF54 JUMP JUMPDEST JUMPDEST SWAP1 PUSH1 0x0 MSTORE PUSH1 0x20 PUSH1 0x0 KECCAK256 SWAP1 PUSH1 0x3 MUL ADD PUSH1 0x2 ADD SLOAD GT ISZERO PUSH2 0x78E JUMPI PUSH1 0x2 DUP2 DUP2 SLOAD DUP2 LT PUSH2 0x776 JUMPI PUSH2 0x775 PUSH2 0xF54 JUMP JUMPDEST JUMPDEST SWAP1 PUSH1 0x0 MSTORE PUSH1 0x20 PUSH1 0x0 KECCAK256 SWAP1 PUSH1 0x3 MUL ADD PUSH1 0x2 ADD SLOAD SWAP2 POP DUP1 SWAP3 POP JUMPDEST DUP1 DUP1 PUSH2 0x799 SWAP1 PUSH2 0x1110 JUMP JUMPDEST SWAP2 POP POP PUSH2 0x728 JUMP JUMPDEST POP POP SWAP1 JUMP JUMPDEST PUSH1 0x0 DUP1 SLOAD SWAP1 PUSH2 0x100 EXP SWAP1 DIV PUSH20 0xFFFFFFFFFFFFFFFFFFFFFFFFFFFFFFFFFFFFFFFF AND DUP2 JUMP JUMPDEST PUSH1 0x0 PUSH1 0x1 PUSH1 0x0 CALLER PUSH20 0xFFFFFFFFFFFFFFFFFFFFFFFFFFFFFFFFFFFFFFFF AND PUSH20 0xFFFFFFFFFFFFFFFFFFFFFFFFFFFFFFFFFFFFFFFF AND DUP2 MSTORE PUSH1 0x20 ADD SWAP1 DUP2 MSTORE PUSH1 0x20 ADD PUSH1 0x0 KECCAK256 SWAP1 POP DUP1 PUSH1 0x0 ADD PUSH1 0x0 SWAP1 SLOAD SWAP1 PUSH2 0x100 EXP SWAP1 DIV PUSH1 0xFF AND PUSH2 0x85E JUMPI PUSH1 0x40 MLOAD PUSH32 0x8C379A000000000000000000000000000000000000000000000000000000000 DUP2 MSTORE PUSH1 0x4 ADD PUSH2 0x855 SWAP1 PUSH2 0x11A4 JUMP JUMPDEST PUSH1 0x40 MLOAD DUP1 SWAP2 SUB SWAP1 REVERT JUMPDEST DUP1 PUSH1 0x0 ADD PUSH1 0x1 SWAP1 SLOAD SWAP1 PUSH2 0x100 EXP SWAP1 DIV PUSH1 0xFF AND ISZERO PUSH2 0x8B0 JUMPI PUSH1 0x40 MLOAD PUSH32 0x8C379A000000000000000000000000000000000000000000000000000000000 DUP2 MSTORE PUSH1 0x4 ADD PUSH2 0x8A7 SWAP1 PUSH2 0x1210 JUMP JUMPDEST PUSH1 0x40 MLOAD DUP1 SWAP2 SUB SWAP1 REVERT JUMPDEST PUSH1 0x0 DUP1 PUSH1 0x0 SWAP1 POP JUMPDEST PUSH1 0x2 DUP1 SLOAD SWAP1 POP DUP2 LT ISZERO PUSH2 0x953 JUMPI DUP4 PUSH1 0x40 MLOAD PUSH1 0x20 ADD PUSH2 0x8D6 SWAP2 SWAP1 PUSH2 0xA41 JUMP JUMPDEST PUSH1 0x40 MLOAD PUSH1 0x20 DUP2 DUP4 SUB SUB DUP2 MSTORE SWAP1 PUSH1 0x40 MSTORE DUP1 MLOAD SWAP1 PUSH1 0x20 ADD KECCAK256 PUSH1 0x2 DUP3 DUP2 SLOAD DUP2 LT PUSH2 0x900 JUMPI PUSH2 0x8FF PUSH2 0xF54 JUMP JUMPDEST JUMPDEST SWAP1 PUSH1 0x0 MSTORE PUSH1 0x20 PUSH1 0x0 KECCAK256 SWAP1 PUSH1 0x3 MUL ADD PUSH1 0x0 ADD PUSH1 0x40 MLOAD PUSH1 0x20 ADD PUSH2 0x921 SWAP2 SWAP1 PUSH2 0x12C9 JUMP JUMPDEST PUSH1 0x40 MLOAD PUSH1 0x20 DUP2 DUP4 SUB SUB DUP2 MSTORE SWAP1 PUSH1 0x40 MSTORE DUP1 MLOAD SWAP1 PUSH1 0x20 ADD KECCAK256 SUB PUSH2 0x940 JUMPI DUP1 SWAP2 POP JUMPDEST DUP1 DUP1 PUSH2 0x94B SWAP1 PUSH2 0x1110 JUMP JUMPDEST SWAP2 POP POP PUSH2 0x8B8 JUMP JUMPDEST POP PUSH1 0x2 DUP2 DUP2 SLOAD DUP2 LT PUSH2 0x968 JUMPI PUSH2 0x967 PUSH2 0xF54 JUMP JUMPDEST JUMPDEST SWAP1 PUSH1 0x0 MSTORE PUSH1 0x20 PUSH1 0x0 KECCAK256 SWAP1 PUSH1 0x3 MUL ADD PUSH1 0x2 ADD PUSH1 0x0 DUP2 SLOAD DUP1 SWAP3 SWAP2 SWAP1 PUSH2 0x98A SWAP1 PUSH2 0x1110 JUMP JUMPDEST SWAP2 SWAP1 POP SSTORE POP PUSH1 0x1 DUP3 PUSH1 0x0 ADD PUSH1 0x1 PUSH2 0x100 EXP DUP2 SLOAD DUP2 PUSH1 0xFF MUL NOT AND SWAP1 DUP4 ISZERO ISZERO MUL OR SWAP1 SSTORE POP POP POP POP JUMP JUMPDEST PUSH1 0x0 DUP2 MLOAD SWAP1 POP SWAP2 SWAP1 POP JUMP JUMPDEST PUSH1 0x0 DUP3 DUP3 MSTORE PUSH1 0x20 DUP3 ADD SWAP1 POP SWAP3 SWAP2 POP POP JUMP JUMPDEST PUSH1 0x0 JUMPDEST DUP4 DUP2 LT ISZERO PUSH2 0x9EB JUMPI DUP1 DUP3 ADD MLOAD DUP2 DUP5 ADD MSTORE PUSH1 0x20 DUP2 ADD SWAP1 POP PUSH2 0x9D0 JUMP JUMPDEST PUSH1 0x0 DUP5 DUP5 ADD MSTORE POP POP POP POP JUMP JUMPDEST PUSH1 0x0 PUSH1 0x1F NOT PUSH1 0x1F DUP4 ADD AND SWAP1 POP SWAP2 SWAP1 POP JUMP JUMPDEST PUSH1 0x0 PUSH2 0xA13 DUP3 PUSH2 0x9B1 JUMP JUMPDEST PUSH2 0xA1D DUP2 DUP6 PUSH2 0x9BC JUMP JUMPDEST SWAP4 POP PUSH2 0xA2D DUP2 DUP6 PUSH1 0x20 DUP7 ADD PUSH2 0x9CD JUMP JUMPDEST PUSH2 0xA36 DUP2 PUSH2 0x9F7 JUMP JUMPDEST DUP5 ADD SWAP2 POP POP SWAP3 SWAP2 POP POP JUMP JUMPDEST PUSH1 0x0 PUSH1 0x20 DUP3 ADD SWAP1 POP DUP2 DUP2 SUB PUSH1 0x0 DUP4 ADD MSTORE PUSH2 0xA5B DUP2 DUP5 PUSH2 0xA08 JUMP JUMPDEST SWAP1 POP SWAP3 SWAP2 POP POP JUMP JUMPDEST PUSH1 0x0 PUSH20 0xFFFFFFFFFFFFFFFFFFFFFFFFFFFFFFFFFFFFFFFF DUP3 AND SWAP1 POP SWAP2 SWAP1 POP JUMP JUMPDEST PUSH1 0x0 PUSH2 0xA8E DUP3 PUSH2 0xA63 JUMP JUMPDEST SWAP1 POP SWAP2 SWAP1 POP JUMP JUMPDEST PUSH2 0xA9E DUP2 PUSH2 0xA83 JUMP JUMPDEST DUP3 MSTORE POP POP JUMP JUMPDEST PUSH1 0x0 PUSH1 0x20 DUP3 ADD SWAP1 POP PUSH2 0xAB9 PUSH1 0x0 DUP4 ADD DUP5 PUSH2 0xA95 JUMP JUMPDEST SWAP3 SWAP2 POP POP JUMP JUMPDEST PUSH1 0x0 PUSH1 0x40 MLOAD SWAP1 POP SWAP1 JUMP JUMPDEST PUSH1 0x0 DUP1 REVERT JUMPDEST PUSH1 0x0 DUP1 REVERT JUMPDEST PUSH1 0x0 DUP2 SWAP1 POP SWAP2 SWAP1 POP JUMP JUMPDEST PUSH2 0xAE6 DUP2 PUSH2 0xAD3 JUMP JUMPDEST DUP2 EQ PUSH2 0xAF1 JUMPI PUSH1 0x0 DUP1 REVERT JUMPDEST POP JUMP JUMPDEST PUSH1 0x0 DUP2 CALLDATALOAD SWAP1 POP PUSH2 0xB03 DUP2 PUSH2 0xADD JUMP JUMPDEST SWAP3 SWAP2 POP POP JUMP JUMPDEST PUSH1 0x0 PUSH1 0x20 DUP3 DUP5 SUB SLT ISZERO PUSH2 0xB1F JUMPI PUSH2 0xB1E PUSH2 0xAC9 JUMP JUMPDEST JUMPDEST PUSH1 0x0 PUSH2 0xB2D DUP5 DUP3 DUP6 ADD PUSH2 0xAF4 JUMP JUMPDEST SWAP2 POP POP SWAP3 SWAP2 POP POP JUMP JUMPDEST PUSH2 0xB3F DUP2 PUSH2 0xAD3 JUMP JUMPDEST DUP3 MSTORE POP POP JUMP JUMPDEST PUSH1 0x0 PUSH1 0x60 DUP3 ADD SWAP1 POP DUP2 DUP2 SUB PUSH1 0x0 DUP4 ADD MSTORE PUSH2 0xB5F DUP2 DUP7 PUSH2 0xA08 JUMP JUMPDEST SWAP1 POP DUP2 DUP2 SUB PUSH1 0x20 DUP4 ADD MSTORE PUSH2 0xB73 DUP2 DUP6 PUSH2 0xA08 JUMP JUMPDEST SWAP1 POP PUSH2 0xB82 PUSH1 0x40 DUP4 ADD DUP5 PUSH2 0xB36 JUMP JUMPDEST SWAP5 SWAP4 POP POP POP POP JUMP JUMPDEST PUSH1 0x0 DUP2 MLOAD SWAP1 POP SWAP2 SWAP1 POP JUMP JUMPDEST PUSH1 0x0 DUP3 DUP3 MSTORE PUSH1 0x20 DUP3 ADD SWAP1 POP SWAP3 SWAP2 POP POP JUMP JUMPDEST PUSH1 0x0 DUP2 SWAP1 POP PUSH1 0x20 DUP3 ADD SWAP1 POP SWAP2 SWAP1 POP JUMP JUMPDEST PUSH1 0x0 DUP3 DUP3 MSTORE PUSH1 0x20 DUP3 ADD SWAP1 POP SWAP3 SWAP2 POP POP JUMP JUMPDEST PUSH1 0x0 PUSH2 0xBD2 DUP3 PUSH2 0x9B1 JUMP JUMPDEST PUSH2 0xBDC DUP2 DUP6 PUSH2 0xBB6 JUMP JUMPDEST SWAP4 POP PUSH2 0xBEC DUP2 DUP6 PUSH1 0x20 DUP7 ADD PUSH2 0x9CD JUMP JUMPDEST PUSH2 0xBF5 DUP2 PUSH2 0x9F7 JUMP JUMPDEST DUP5 ADD SWAP2 POP POP SWAP3 SWAP2 POP POP JUMP JUMPDEST PUSH2 0xC09 DUP2 PUSH2 0xAD3 JUMP JUMPDEST DUP3 MSTORE POP POP JUMP JUMPDEST PUSH1 0x0 PUSH1 0x60 DUP4 ADD PUSH1 0x0 DUP4 ADD MLOAD DUP5 DUP3 SUB PUSH1 0x0 DUP7 ADD MSTORE PUSH2 0xC2C DUP3 DUP3 PUSH2 0xBC7 JUMP JUMPDEST SWAP2 POP POP PUSH1 0x20 DUP4 ADD MLOAD DUP5 DUP3 SUB PUSH1 0x20 DUP7 ADD MSTORE PUSH2 0xC46 DUP3 DUP3 PUSH2 0xBC7 JUMP JUMPDEST SWAP2 POP POP PUSH1 0x40 DUP4 ADD MLOAD PUSH2 0xC5B PUSH1 0x40 DUP7 ADD DUP3 PUSH2 0xC00 JUMP JUMPDEST POP DUP1 SWAP2 POP POP SWAP3 SWAP2 POP POP JUMP JUMPDEST PUSH1 0x0 PUSH2 0xC72 DUP4 DUP4 PUSH2 0xC0F JUMP JUMPDEST SWAP1 POP SWAP3 SWAP2 POP POP JUMP JUMPDEST PUSH1 0x0 PUSH1 0x20 DUP3 ADD SWAP1 POP SWAP2 SWAP1 POP JUMP JUMPDEST PUSH1 0x0 PUSH2 0xC92 DUP3 PUSH2 0xB8A JUMP JUMPDEST PUSH2 0xC9C DUP2 DUP6 PUSH2 0xB95 JUMP JUMPDEST SWAP4 POP DUP4 PUSH1 0x20 DUP3 MUL DUP6 ADD PUSH2 0xCAE DUP6 PUSH2 0xBA6 JUMP JUMPDEST DUP1 PUSH1 0x0 JUMPDEST DUP6 DUP2 LT ISZERO PUSH2 0xCEA JUMPI DUP5 DUP5 SUB DUP10 MSTORE DUP2 MLOAD PUSH2 0xCCB DUP6 DUP3 PUSH2 0xC66 JUMP JUMPDEST SWAP5 POP PUSH2 0xCD6 DUP4 PUSH2 0xC7A JUMP JUMPDEST SWAP3 POP PUSH1 0x20 DUP11 ADD SWAP10 POP POP PUSH1 0x1 DUP2 ADD SWAP1 POP PUSH2 0xCB2 JUMP JUMPDEST POP DUP3 SWAP8 POP DUP8 SWAP6 POP POP POP POP POP POP SWAP3 SWAP2 POP POP JUMP JUMPDEST PUSH1 0x0 PUSH1 0x20 DUP3 ADD SWAP1 POP DUP2 DUP2 SUB PUSH1 0x0 DUP4 ADD MSTORE PUSH2 0xD16 DUP2 DUP5 PUSH2 0xC87 JUMP JUMPDEST SWAP1 POP SWAP3 SWAP2 POP POP JUMP JUMPDEST PUSH2 0xD27 DUP2 PUSH2 0xA83 JUMP JUMPDEST DUP2 EQ PUSH2 0xD32 JUMPI PUSH1 0x0 DUP1 REVERT JUMPDEST POP JUMP JUMPDEST PUSH1 0x0 DUP2 CALLDATALOAD SWAP1 POP PUSH2 0xD44 DUP2 PUSH2 0xD1E JUMP JUMPDEST SWAP3 SWAP2 POP POP JUMP JUMPDEST PUSH1 0x0 PUSH1 0x20 DUP3 DUP5 SUB SLT ISZERO PUSH2 0xD60 JUMPI PUSH2 0xD5F PUSH2 0xAC9 JUMP JUMPDEST JUMPDEST PUSH1 0x0 PUSH2 0xD6E DUP5 DUP3 DUP6 ADD PUSH2 0xD35 JUMP JUMPDEST SWAP2 POP POP SWAP3 SWAP2 POP POP JUMP JUMPDEST PUSH1 0x0 DUP2 ISZERO ISZERO SWAP1 POP SWAP2 SWAP1 POP JUMP JUMPDEST PUSH2 0xD8C DUP2 PUSH2 0xD77 JUMP JUMPDEST DUP3 MSTORE POP POP JUMP JUMPDEST PUSH1 0x0 PUSH1 0x40 DUP3 ADD SWAP1 POP PUSH2 0xDA7 PUSH1 0x0 DUP4 ADD DUP6 PUSH2 0xD83 JUMP JUMPDEST PUSH2 0xDB4 PUSH1 0x20 DUP4 ADD DUP5 PUSH2 0xD83 JUMP JUMPDEST SWAP4 SWAP3 POP POP POP JUMP JUMPDEST PUSH1 0x0 PUSH1 0x20 DUP3 ADD SWAP1 POP PUSH2 0xDD0 PUSH1 0x0 DUP4 ADD DUP5 PUSH2 0xB36 JUMP JUMPDEST SWAP3 SWAP2 POP POP JUMP JUMPDEST PUSH1 0x0 DUP1 REVERT JUMPDEST PUSH1 0x0 DUP1 REVERT JUMPDEST PUSH32 0x4E487B7100000000000000000000000000000000000000000000000000000000 PUSH1 0x0 MSTORE PUSH1 0x41 PUSH1 0x4 MSTORE PUSH1 0x24 PUSH1 0x0 REVERT JUMPDEST PUSH2 0xE18 DUP3 PUSH2 0x9F7 JUMP JUMPDEST DUP2 ADD DUP2 DUP2 LT PUSH8 0xFFFFFFFFFFFFFFFF DUP3 GT OR ISZERO PUSH2 0xE37 JUMPI PUSH2 0xE36 PUSH2 0xDE0 JUMP JUMPDEST JUMPDEST DUP1 PUSH1 0x40 MSTORE POP POP POP JUMP JUMPDEST PUSH1 0x0 PUSH2 0xE4A PUSH2 0xABF JUMP JUMPDEST SWAP1 POP PUSH2 0xE56 DUP3 DUP3 PUSH2 0xE0F JUMP JUMPDEST SWAP2 SWAP1 POP JUMP JUMPDEST PUSH1 0x0 PUSH8 0xFFFFFFFFFFFFFFFF DUP3 GT ISZERO PUSH2 0xE76 JUMPI PUSH2 0xE75 PUSH2 0xDE0 JUMP JUMPDEST JUMPDEST PUSH2 0xE7F DUP3 PUSH2 0x9F7 JUMP JUMPDEST SWAP1 POP PUSH1 0x20 DUP2 ADD SWAP1 POP SWAP2 SWAP1 POP JUMP JUMPDEST DUP3 DUP2 DUP4 CALLDATACOPY PUSH1 0x0 DUP4 DUP4 ADD MSTORE POP POP POP JUMP JUMPDEST PUSH1 0x0 PUSH2 0xEAE PUSH2 0xEA9 DUP5 PUSH2 0xE5B JUMP JUMPDEST PUSH2 0xE40 JUMP JUMPDEST SWAP1 POP DUP3 DUP2 MSTORE PUSH1 0x20 DUP2 ADD DUP5 DUP5 DUP5 ADD GT ISZERO PUSH2 0xECA JUMPI PUSH2 0xEC9 PUSH2 0xDDB JUMP JUMPDEST JUMPDEST PUSH2 0xED5 DUP5 DUP3 DUP6 PUSH2 0xE8C JUMP JUMPDEST POP SWAP4 SWAP3 POP POP POP JUMP JUMPDEST PUSH1 0x0 DUP3 PUSH1 0x1F DUP4 ADD SLT PUSH2 0xEF2 JUMPI PUSH2 0xEF1 PUSH2 0xDD6 JUMP JUMPDEST JUMPDEST DUP2 CALLDATALOAD PUSH2 0xF02 DUP5 DUP3 PUSH1 0x20 DUP7 ADD PUSH2 0xE9B JUMP JUMPDEST SWAP2 POP POP SWAP3 SWAP2 POP POP JUMP JUMPDEST PUSH1 0x0 PUSH1 0x20 DUP3 DUP5 SUB SLT ISZERO PUSH2 0xF21 JUMPI PUSH2 0xF20 PUSH2 0xAC9 JUMP JUMPDEST JUMPDEST PUSH1 0x0 DUP3 ADD CALLDATALOAD PUSH8 0xFFFFFFFFFFFFFFFF DUP2 GT ISZERO PUSH2 0xF3F JUMPI PUSH2 0xF3E PUSH2 0xACE JUMP JUMPDEST JUMPDEST PUSH2 0xF4B DUP5 DUP3 DUP6 ADD PUSH2 0xEDD JUMP JUMPDEST SWAP2 POP POP SWAP3 SWAP2 POP POP JUMP JUMPDEST PUSH32 0x4E487B7100000000000000000000000000000000000000000000000000000000 PUSH1 0x0 MSTORE PUSH1 0x32 PUSH1 0x4 MSTORE PUSH1 0x24 PUSH1 0x0 REVERT JUMPDEST PUSH32 0x4E487B7100000000000000000000000000000000000000000000000000000000 PUSH1 0x0 MSTORE PUSH1 0x22 PUSH1 0x4 MSTORE PUSH1 0x24 PUSH1 0x0 REVERT JUMPDEST PUSH1 0x0 PUSH1 0x2 DUP3 DIV SWAP1 POP PUSH1 0x1 DUP3 AND DUP1 PUSH2 0xFCA JUMPI PUSH1 0x7F DUP3 AND SWAP2 POP JUMPDEST PUSH1 0x20 DUP3 LT DUP2 SUB PUSH2 0xFDD JUMPI PUSH2 0xFDC PUSH2 0xF83 JUMP JUMPDEST JUMPDEST POP SWAP2 SWAP1 POP JUMP JUMPDEST PUSH32 0x4F6E6C792074686520636F6E7472616374206F776E65722063616E2067697665 PUSH1 0x0 DUP3 ADD MSTORE PUSH32 0x20726967687420746F20766F74652E0000000000000000000000000000000000 PUSH1 0x20 DUP3 ADD MSTORE POP JUMP JUMPDEST PUSH1 0x0 PUSH2 0x103F PUSH1 0x2F DUP4 PUSH2 0x9BC JUMP JUMPDEST SWAP2 POP PUSH2 0x104A DUP3 PUSH2 0xFE3 JUMP JUMPDEST PUSH1 0x40 DUP3 ADD SWAP1 POP SWAP2 SWAP1 POP JUMP JUMPDEST PUSH1 0x0 PUSH1 0x20 DUP3 ADD SWAP1 POP DUP2 DUP2 SUB PUSH1 0x0 DUP4 ADD MSTORE PUSH2 0x106E DUP2 PUSH2 0x1032 JUMP JUMPDEST SWAP1 POP SWAP2 SWAP1 POP JUMP JUMPDEST PUSH32 0x54686520766F74657220616C726561647920766F7465642E0000000000000000 PUSH1 0x0 DUP3 ADD MSTORE POP JUMP JUMPDEST PUSH1 0x0 PUSH2 0x10AB PUSH1 0x18 DUP4 PUSH2 0x9BC JUMP JUMPDEST SWAP2 POP PUSH2 0x10B6 DUP3 PUSH2 0x1075 JUMP JUMPDEST PUSH1 0x20 DUP3 ADD SWAP1 POP SWAP2 SWAP1 POP JUMP JUMPDEST PUSH1 0x0 PUSH1 0x20 DUP3 ADD SWAP1 POP DUP2 DUP2 SUB PUSH1 0x0 DUP4 ADD MSTORE PUSH2 0x10DA DUP2 PUSH2 0x109E JUMP JUMPDEST SWAP1 POP SWAP2 SWAP1 POP JUMP JUMPDEST PUSH32 0x4E487B7100000000000000000000000000000000000000000000000000000000 PUSH1 0x0 MSTORE PUSH1 0x11 PUSH1 0x4 MSTORE PUSH1 0x24 PUSH1 0x0 REVERT JUMPDEST PUSH1 0x0 PUSH2 0x111B DUP3 PUSH2 0xAD3 JUMP JUMPDEST SWAP2 POP PUSH32 0xFFFFFFFFFFFFFFFFFFFFFFFFFFFFFFFFFFFFFFFFFFFFFFFFFFFFFFFFFFFFFFFF DUP3 SUB PUSH2 0x114D JUMPI PUSH2 0x114C PUSH2 0x10E1 JUMP JUMPDEST JUMPDEST PUSH1 0x1 DUP3 ADD SWAP1 POP SWAP2 SWAP1 POP JUMP JUMPDEST PUSH32 0x486173206E6F20726967687420746F20766F7465000000000000000000000000 PUSH1 0x0 DUP3 ADD MSTORE POP JUMP JUMPDEST PUSH1 0x0 PUSH2 0x118E PUSH1 0x14 DUP4 PUSH2 0x9BC JUMP JUMPDEST SWAP2 POP PUSH2 0x1199 DUP3 PUSH2 0x1158 JUMP JUMPDEST PUSH1 0x20 DUP3 ADD SWAP1 POP SWAP2 SWAP1 POP JUMP JUMPDEST PUSH1 0x0 PUSH1 0x20 DUP3 ADD SWAP1 POP DUP2 DUP2 SUB PUSH1 0x0 DUP4 ADD MSTORE PUSH2 0x11BD DUP2 PUSH2 0x1181 JUMP JUMPDEST SWAP1 POP SWAP2 SWAP1 POP JUMP JUMPDEST PUSH32 0x416C726561647920766F7465642E000000000000000000000000000000000000 PUSH1 0x0 DUP3 ADD MSTORE POP JUMP JUMPDEST PUSH1 0x0 PUSH2 0x11FA PUSH1 0xE DUP4 PUSH2 0x9BC JUMP JUMPDEST SWAP2 POP PUSH2 0x1205 DUP3 PUSH2 0x11C4 JUMP JUMPDEST PUSH1 0x20 DUP3 ADD SWAP1 POP SWAP2 SWAP1 POP JUMP JUMPDEST PUSH1 0x0 PUSH1 0x20 DUP3 ADD SWAP1 POP DUP2 DUP2 SUB PUSH1 0x0 DUP4 ADD MSTORE PUSH2 0x1229 DUP2 PUSH2 0x11ED JUMP JUMPDEST SWAP1 POP SWAP2 SWAP1 POP JUMP JUMPDEST PUSH1 0x0 DUP2 SWAP1 POP DUP2 PUSH1 0x0 MSTORE PUSH1 0x20 PUSH1 0x0 KECCAK256 SWAP1 POP SWAP2 SWAP1 POP JUMP JUMPDEST PUSH1 0x0 DUP2 SLOAD PUSH2 0x1252 DUP2 PUSH2 0xFB2 JUMP JUMPDEST PUSH2 0x125C DUP2 DUP7 PUSH2 0x9BC JUMP JUMPDEST SWAP5 POP PUSH1 0x1 DUP3 AND PUSH1 0x0 DUP2 EQ PUSH2 0x1277 JUMPI PUSH1 0x1 DUP2 EQ PUSH2 0x128D JUMPI PUSH2 0x12C0 JUMP JUMPDEST PUSH1 0xFF NOT DUP4 AND DUP7 MSTORE DUP2 ISZERO ISZERO PUSH1 0x20 MUL DUP7 ADD SWAP4 POP PUSH2 0x12C0 JUMP JUMPDEST PUSH2 0x1296 DUP6 PUSH2 0x1230 JUMP JUMPDEST PUSH1 0x0 JUMPDEST DUP4 DUP2 LT ISZERO PUSH2 0x12B8 JUMPI DUP2 SLOAD DUP2 DUP10 ADD MSTORE PUSH1 0x1 DUP3 ADD SWAP2 POP PUSH1 0x20 DUP2 ADD SWAP1 POP PUSH2 0x1299 JUMP JUMPDEST DUP1 DUP9 ADD SWAP6 POP POP POP JUMPDEST POP POP POP SWAP3 SWAP2 POP POP JUMP JUMPDEST PUSH1 0x0 PUSH1 0x20 DUP3 ADD SWAP1 POP DUP2 DUP2 SUB PUSH1 0x0 DUP4 ADD MSTORE PUSH2 0x12E3 DUP2 DUP5 PUSH2 0x1245 JUMP JUMPDEST SWAP1 POP SWAP3 SWAP2 POP POP JUMP INVALID LOG2 PUSH5 0x6970667358 0x22 SLT KECCAK256 CHAINID 0xE4 PUSH16 0xFBA37CDD91F19ED28CA7A7E713EA8C4A CALLVALUE MOD PUSH10 0xAAC8CC8071058E0EB6AB PUSH5 0x736F6C6343 STOP ADDMOD GT STOP CALLER "
				},
				"gasEstimates": {
					"creation": {
						"codeDepositCost": "979400",
						"executionCost": "infinite",
						"totalCost": "infinite"
					},
					"external": {
						"candidates(uint256)": "infinite",
						"contractOwner()": "2577",
						"getCandidatesList()": "infinite",
						"getContractAddress()": "408",
						"getWinnerName()": "infinite",
						"getWinningProposal()": "infinite",
						"giveRightToVote(address)": "29287",
						"vote(string)": "infinite",
						"voters(address)": "infinite"
					}
				},
				"methodIdentifiers": {
					"candidates(uint256)": "3477ee2e",
					"contractOwner()": "ce606ee0",
					"getCandidatesList()": "4aba5f34",
					"getContractAddress()": "32a2c5d0",
					"getWinnerName()": "2bfda515",
					"getWinningProposal()": "a5134620",
					"giveRightToVote(address)": "9e7b8d61",
					"vote(string)": "fc36e15b",
					"voters(address)": "a3ec138d"
				}
			},
			"storageLayout": {
				"storage": [
					{
						"astId": 15,
						"contract": "contracts/Ballot/MyBallot.sol:MyBallot",
						"label": "contractOwner",
						"offset": 0,
						"slot": "0",
						"type": "t_address"
					},
					{
						"astId": 20,
						"contract": "contracts/Ballot/MyBallot.sol:MyBallot",
						"label": "voters",
						"offset": 0,
						"slot": "1",
						"type": "t_mapping(t_address,t_struct(Voter)6_storage)"
					},
					{
						"astId": 24,
						"contract": "contracts/Ballot/MyBallot.sol:MyBallot",
						"label": "candidates",
						"offset": 0,
						"slot": "2",
						"type": "t_array(t_struct(Candidate)13_storage)dyn_storage"
					}
				],
				"types": {
					"t_address": {
						"encoding": "inplace",
						"label": "address",
						"numberOfBytes": "20"
					},
					"t_array(t_struct(Candidate)13_storage)dyn_storage": {
						"base": "t_struct(Candidate)13_storage",
						"encoding": "dynamic_array",
						"label": "struct MyBallot.Candidate[]",
						"numberOfBytes": "32"
					},
					"t_bool": {
						"encoding": "inplace",
						"label": "bool",
						"numberOfBytes": "1"
					},
					"t_mapping(t_address,t_struct(Voter)6_storage)": {
						"encoding": "mapping",
						"key": "t_address",
						"label": "mapping(address => struct MyBallot.Voter)",
						"numberOfBytes": "32",
						"value": "t_struct(Voter)6_storage"
					},
					"t_string_storage": {
						"encoding": "bytes",
						"label": "string",
						"numberOfBytes": "32"
					},
					"t_struct(Candidate)13_storage": {
						"encoding": "inplace",
						"label": "struct MyBallot.Candidate",
						"members": [
							{
								"astId": 8,
								"contract": "contracts/Ballot/MyBallot.sol:MyBallot",
								"label": "name",
								"offset": 0,
								"slot": "0",
								"type": "t_string_storage"
							},
							{
								"astId": 10,
								"contract": "contracts/Ballot/MyBallot.sol:MyBallot",
								"label": "party",
								"offset": 0,
								"slot": "1",
								"type": "t_string_storage"
							},
							{
								"astId": 12,
								"contract": "contracts/Ballot/MyBallot.sol:MyBallot",
								"label": "votesCount",
								"offset": 0,
								"slot": "2",
								"type": "t_uint256"
							}
						],
						"numberOfBytes": "96"
					},
					"t_struct(Voter)6_storage": {
						"encoding": "inplace",
						"label": "struct MyBallot.Voter",
						"members": [
							{
								"astId": 3,
								"contract": "contracts/Ballot/MyBallot.sol:MyBallot",
								"label": "canVote",
								"offset": 0,
								"slot": "0",
								"type": "t_bool"
							},
							{
								"astId": 5,
								"contract": "contracts/Ballot/MyBallot.sol:MyBallot",
								"label": "hasVoted",
								"offset": 1,
								"slot": "0",
								"type": "t_bool"
							}
						],
						"numberOfBytes": "32"
					},
					"t_uint256": {
						"encoding": "inplace",
						"label": "uint256",
						"numberOfBytes": "32"
					}
				}
			},
			"userdoc": {
				"kind": "user",
				"methods": {},
				"version": 1
			}
		}
	}
}