{
	"contracts/Ballot/MyBallot.sol": {
		"MyBallot": {
			"abi": [
				{
					"inputs": [
						{
							"internalType": "string[]",
							"name": "proposalCandidatesName",
							"type": "string[]"
						},
						{
							"internalType": "string[]",
							"name": "proposalCandidatesParty",
							"type": "string[]"
						}
					],
					"stateMutability": "nonpayable",
					"type": "constructor"
				},
				{
					"inputs": [
						{
							"internalType": "uint256",
							"name": "",
							"type": "uint256"
						}
					],
					"name": "candidates",
					"outputs": [
						{
							"internalType": "string",
							"name": "name",
							"type": "string"
						},
						{
							"internalType": "string",
							"name": "party",
							"type": "string"
						},
						{
							"internalType": "uint256",
							"name": "votesCount",
							"type": "uint256"
						}
					],
					"stateMutability": "view",
					"type": "function"
				},
				{
					"inputs": [],
					"name": "contractOwner",
					"outputs": [
						{
							"internalType": "address",
							"name": "",
							"type": "address"
						}
					],
					"stateMutability": "view",
					"type": "function"
				},
				{
					"inputs": [
						{
							"internalType": "address",
							"name": "",
							"type": "address"
						}
					],
					"name": "voters",
					"outputs": [
						{
							"internalType": "bool",
							"name": "canVote",
							"type": "bool"
						},
						{
							"internalType": "bool",
							"name": "hasVoted",
							"type": "bool"
						}
					],
					"stateMutability": "view",
					"type": "function"
				}
			],
			"devdoc": {
				"kind": "dev",
				"methods": {},
				"version": 1
			},
			"evm": {
				"assembly": "    /* \"contracts/Ballot/MyBallot.sol\":62:549  contract MyBallot {\r... */\n  mstore(0x40, 0x80)\n    /* \"contracts/Ballot/MyBallot.sol\":392:546  constructor(string[] memory proposalCandidatesName, string[] memory proposalCandidatesParty) {\r... */\n  callvalue\n  dup1\n  iszero\n  tag_1\n  jumpi\n  0x00\n  dup1\n  revert\ntag_1:\n  pop\n  mload(0x40)\n  sub(codesize, bytecodeSize)\n  dup1\n  bytecodeSize\n  dup4\n  codecopy\n  dup2\n  dup2\n  add\n  0x40\n  mstore\n  dup2\n  add\n  swap1\n  tag_2\n  swap2\n  swap1\n  tag_3\n  jump\t// in\ntag_2:\n    /* \"contracts/Ballot/MyBallot.sol\":522:532  msg.sender */\n  caller\n    /* \"contracts/Ballot/MyBallot.sol\":506:519  contractOwner */\n  0x00\n  dup1\n    /* \"contracts/Ballot/MyBallot.sol\":506:532  contractOwner = msg.sender */\n  0x0100\n  exp\n  dup2\n  sload\n  dup2\n  0xffffffffffffffffffffffffffffffffffffffff\n  mul\n  not\n  and\n  swap1\n  dup4\n  0xffffffffffffffffffffffffffffffffffffffff\n  and\n  mul\n  or\n  swap1\n  sstore\n  pop\n    /* \"contracts/Ballot/MyBallot.sol\":392:546  constructor(string[] memory proposalCandidatesName, string[] memory proposalCandidatesParty) {\r... */\n  pop\n  pop\n    /* \"contracts/Ballot/MyBallot.sol\":62:549  contract MyBallot {\r... */\n  jump(tag_6)\n    /* \"#utility.yul\":23:995   */\ntag_8:\n    /* \"#utility.yul\":140:145   */\n  0x00\n    /* \"#utility.yul\":165:256   */\n  tag_10\n    /* \"#utility.yul\":181:255   */\n  tag_11\n    /* \"#utility.yul\":248:254   */\n  dup5\n    /* \"#utility.yul\":181:255   */\n  tag_12\n  jump\t// in\ntag_11:\n    /* \"#utility.yul\":165:256   */\n  tag_13\n  jump\t// in\ntag_10:\n    /* \"#utility.yul\":156:256   */\n  swap1\n  pop\n    /* \"#utility.yul\":276:281   */\n  dup1\n    /* \"#utility.yul\":305:311   */\n  dup4\n    /* \"#utility.yul\":298:303   */\n  dup3\n    /* \"#utility.yul\":291:312   */\n  mstore\n    /* \"#utility.yul\":339:343   */\n  0x20\n    /* \"#utility.yul\":332:337   */\n  dup3\n    /* \"#utility.yul\":328:344   */\n  add\n    /* \"#utility.yul\":321:344   */\n  swap1\n  pop\n    /* \"#utility.yul\":365:371   */\n  dup3\n    /* \"#utility.yul\":415:418   */\n  dup6\n    /* \"#utility.yul\":407:411   */\n  0x20\n    /* \"#utility.yul\":399:405   */\n  dup7\n    /* \"#utility.yul\":395:412   */\n  mul\n    /* \"#utility.yul\":390:393   */\n  dup3\n    /* \"#utility.yul\":386:413   */\n  add\n    /* \"#utility.yul\":383:419   */\n  gt\n    /* \"#utility.yul\":380:523   */\n  iszero\n  tag_14\n  jumpi\n    /* \"#utility.yul\":434:513   */\n  tag_15\n  tag_16\n  jump\t// in\ntag_15:\n    /* \"#utility.yul\":380:523   */\ntag_14:\n    /* \"#utility.yul\":547:548   */\n  0x00\n    /* \"#utility.yul\":532:989   */\ntag_17:\n    /* \"#utility.yul\":557:563   */\n  dup6\n    /* \"#utility.yul\":554:555   */\n  dup2\n    /* \"#utility.yul\":551:564   */\n  lt\n    /* \"#utility.yul\":532:989   */\n  iszero\n  tag_19\n  jumpi\n    /* \"#utility.yul\":632:635   */\n  dup2\n    /* \"#utility.yul\":626:636   */\n  mload\n    /* \"#utility.yul\":668:686   */\n  0xffffffffffffffff\n    /* \"#utility.yul\":655:666   */\n  dup2\n    /* \"#utility.yul\":652:687   */\n  gt\n    /* \"#utility.yul\":649:771   */\n  iszero\n  tag_20\n  jumpi\n    /* \"#utility.yul\":690:769   */\n  tag_21\n  tag_22\n  jump\t// in\ntag_21:\n    /* \"#utility.yul\":649:771   */\ntag_20:\n    /* \"#utility.yul\":814:825   */\n  dup1\n    /* \"#utility.yul\":806:812   */\n  dup7\n    /* \"#utility.yul\":802:826   */\n  add\n    /* \"#utility.yul\":852:910   */\n  tag_23\n    /* \"#utility.yul\":906:909   */\n  dup10\n    /* \"#utility.yul\":894:904   */\n  dup3\n    /* \"#utility.yul\":852:910   */\n  tag_24\n  jump\t// in\ntag_23:\n    /* \"#utility.yul\":847:850   */\n  dup6\n    /* \"#utility.yul\":840:911   */\n  mstore\n    /* \"#utility.yul\":940:944   */\n  0x20\n    /* \"#utility.yul\":935:938   */\n  dup6\n    /* \"#utility.yul\":931:945   */\n  add\n    /* \"#utility.yul\":924:945   */\n  swap5\n  pop\n    /* \"#utility.yul\":974:978   */\n  0x20\n    /* \"#utility.yul\":969:972   */\n  dup5\n    /* \"#utility.yul\":965:979   */\n  add\n    /* \"#utility.yul\":958:979   */\n  swap4\n  pop\n    /* \"#utility.yul\":592:989   */\n  pop\n  pop\n    /* \"#utility.yul\":579:580   */\n  0x01\n    /* \"#utility.yul\":576:577   */\n  dup2\n    /* \"#utility.yul\":572:581   */\n  add\n    /* \"#utility.yul\":567:581   */\n  swap1\n  pop\n    /* \"#utility.yul\":532:989   */\n  jump(tag_17)\ntag_19:\n    /* \"#utility.yul\":536:550   */\n  pop\n    /* \"#utility.yul\":146:995   */\n  pop\n  pop\n    /* \"#utility.yul\":23:995   */\n  swap4\n  swap3\n  pop\n  pop\n  pop\n  jump\t// out\n    /* \"#utility.yul\":1001:1422   */\ntag_25:\n    /* \"#utility.yul\":1090:1095   */\n  0x00\n    /* \"#utility.yul\":1115:1181   */\n  tag_27\n    /* \"#utility.yul\":1131:1180   */\n  tag_28\n    /* \"#utility.yul\":1173:1179   */\n  dup5\n    /* \"#utility.yul\":1131:1180   */\n  tag_29\n  jump\t// in\ntag_28:\n    /* \"#utility.yul\":1115:1181   */\n  tag_13\n  jump\t// in\ntag_27:\n    /* \"#utility.yul\":1106:1181   */\n  swap1\n  pop\n    /* \"#utility.yul\":1204:1210   */\n  dup3\n    /* \"#utility.yul\":1197:1202   */\n  dup2\n    /* \"#utility.yul\":1190:1211   */\n  mstore\n    /* \"#utility.yul\":1242:1246   */\n  0x20\n    /* \"#utility.yul\":1235:1240   */\n  dup2\n    /* \"#utility.yul\":1231:1247   */\n  add\n    /* \"#utility.yul\":1280:1283   */\n  dup5\n    /* \"#utility.yul\":1271:1277   */\n  dup5\n    /* \"#utility.yul\":1266:1269   */\n  dup5\n    /* \"#utility.yul\":1262:1278   */\n  add\n    /* \"#utility.yul\":1259:1284   */\n  gt\n    /* \"#utility.yul\":1256:1368   */\n  iszero\n  tag_30\n  jumpi\n    /* \"#utility.yul\":1287:1366   */\n  tag_31\n  tag_32\n  jump\t// in\ntag_31:\n    /* \"#utility.yul\":1256:1368   */\ntag_30:\n    /* \"#utility.yul\":1377:1416   */\n  tag_33\n    /* \"#utility.yul\":1409:1415   */\n  dup5\n    /* \"#utility.yul\":1404:1407   */\n  dup3\n    /* \"#utility.yul\":1399:1402   */\n  dup6\n    /* \"#utility.yul\":1377:1416   */\n  tag_34\n  jump\t// in\ntag_33:\n    /* \"#utility.yul\":1096:1422   */\n  pop\n    /* \"#utility.yul\":1001:1422   */\n  swap4\n  swap3\n  pop\n  pop\n  pop\n  jump\t// out\n    /* \"#utility.yul\":1444:1849   */\ntag_35:\n    /* \"#utility.yul\":1536:1541   */\n  0x00\n    /* \"#utility.yul\":1585:1588   */\n  dup3\n    /* \"#utility.yul\":1578:1582   */\n  0x1f\n    /* \"#utility.yul\":1570:1576   */\n  dup4\n    /* \"#utility.yul\":1566:1583   */\n  add\n    /* \"#utility.yul\":1562:1589   */\n  slt\n    /* \"#utility.yul\":1552:1674   */\n  tag_37\n  jumpi\n    /* \"#utility.yul\":1593:1672   */\n  tag_38\n  tag_22\n  jump\t// in\ntag_38:\n    /* \"#utility.yul\":1552:1674   */\ntag_37:\n    /* \"#utility.yul\":1703:1709   */\n  dup2\n    /* \"#utility.yul\":1697:1710   */\n  mload\n    /* \"#utility.yul\":1728:1843   */\n  tag_39\n    /* \"#utility.yul\":1839:1842   */\n  dup5\n    /* \"#utility.yul\":1831:1837   */\n  dup3\n    /* \"#utility.yul\":1824:1828   */\n  0x20\n    /* \"#utility.yul\":1816:1822   */\n  dup7\n    /* \"#utility.yul\":1812:1829   */\n  add\n    /* \"#utility.yul\":1728:1843   */\n  tag_8\n  jump\t// in\ntag_39:\n    /* \"#utility.yul\":1719:1843   */\n  swap2\n  pop\n    /* \"#utility.yul\":1542:1849   */\n  pop\n    /* \"#utility.yul\":1444:1849   */\n  swap3\n  swap2\n  pop\n  pop\n  jump\t// out\n    /* \"#utility.yul\":1869:2224   */\ntag_24:\n    /* \"#utility.yul\":1936:1941   */\n  0x00\n    /* \"#utility.yul\":1985:1988   */\n  dup3\n    /* \"#utility.yul\":1978:1982   */\n  0x1f\n    /* \"#utility.yul\":1970:1976   */\n  dup4\n    /* \"#utility.yul\":1966:1983   */\n  add\n    /* \"#utility.yul\":1962:1989   */\n  slt\n    /* \"#utility.yul\":1952:2074   */\n  tag_41\n  jumpi\n    /* \"#utility.yul\":1993:2072   */\n  tag_42\n  tag_22\n  jump\t// in\ntag_42:\n    /* \"#utility.yul\":1952:2074   */\ntag_41:\n    /* \"#utility.yul\":2103:2109   */\n  dup2\n    /* \"#utility.yul\":2097:2110   */\n  mload\n    /* \"#utility.yul\":2128:2218   */\n  tag_43\n    /* \"#utility.yul\":2214:2217   */\n  dup5\n    /* \"#utility.yul\":2206:2212   */\n  dup3\n    /* \"#utility.yul\":2199:2203   */\n  0x20\n    /* \"#utility.yul\":2191:2197   */\n  dup7\n    /* \"#utility.yul\":2187:2204   */\n  add\n    /* \"#utility.yul\":2128:2218   */\n  tag_25\n  jump\t// in\ntag_43:\n    /* \"#utility.yul\":2119:2218   */\n  swap2\n  pop\n    /* \"#utility.yul\":1942:2224   */\n  pop\n    /* \"#utility.yul\":1869:2224   */\n  swap3\n  swap2\n  pop\n  pop\n  jump\t// out\n    /* \"#utility.yul\":2230:3183   */\ntag_3:\n    /* \"#utility.yul\":2379:2385   */\n  0x00\n    /* \"#utility.yul\":2387:2393   */\n  dup1\n    /* \"#utility.yul\":2436:2438   */\n  0x40\n    /* \"#utility.yul\":2424:2433   */\n  dup4\n    /* \"#utility.yul\":2415:2422   */\n  dup6\n    /* \"#utility.yul\":2411:2434   */\n  sub\n    /* \"#utility.yul\":2407:2439   */\n  slt\n    /* \"#utility.yul\":2404:2523   */\n  iszero\n  tag_45\n  jumpi\n    /* \"#utility.yul\":2442:2521   */\n  tag_46\n  tag_47\n  jump\t// in\ntag_46:\n    /* \"#utility.yul\":2404:2523   */\ntag_45:\n    /* \"#utility.yul\":2583:2584   */\n  0x00\n    /* \"#utility.yul\":2572:2581   */\n  dup4\n    /* \"#utility.yul\":2568:2585   */\n  add\n    /* \"#utility.yul\":2562:2586   */\n  mload\n    /* \"#utility.yul\":2613:2631   */\n  0xffffffffffffffff\n    /* \"#utility.yul\":2605:2611   */\n  dup2\n    /* \"#utility.yul\":2602:2632   */\n  gt\n    /* \"#utility.yul\":2599:2716   */\n  iszero\n  tag_48\n  jumpi\n    /* \"#utility.yul\":2635:2714   */\n  tag_49\n  tag_50\n  jump\t// in\ntag_49:\n    /* \"#utility.yul\":2599:2716   */\ntag_48:\n    /* \"#utility.yul\":2740:2839   */\n  tag_51\n    /* \"#utility.yul\":2831:2838   */\n  dup6\n    /* \"#utility.yul\":2822:2828   */\n  dup3\n    /* \"#utility.yul\":2811:2820   */\n  dup7\n    /* \"#utility.yul\":2807:2829   */\n  add\n    /* \"#utility.yul\":2740:2839   */\n  tag_35\n  jump\t// in\ntag_51:\n    /* \"#utility.yul\":2730:2839   */\n  swap3\n  pop\n    /* \"#utility.yul\":2533:2849   */\n  pop\n    /* \"#utility.yul\":2909:2911   */\n  0x20\n    /* \"#utility.yul\":2898:2907   */\n  dup4\n    /* \"#utility.yul\":2894:2912   */\n  add\n    /* \"#utility.yul\":2888:2913   */\n  mload\n    /* \"#utility.yul\":2940:2958   */\n  0xffffffffffffffff\n    /* \"#utility.yul\":2932:2938   */\n  dup2\n    /* \"#utility.yul\":2929:2959   */\n  gt\n    /* \"#utility.yul\":2926:3043   */\n  iszero\n  tag_52\n  jumpi\n    /* \"#utility.yul\":2962:3041   */\n  tag_53\n  tag_50\n  jump\t// in\ntag_53:\n    /* \"#utility.yul\":2926:3043   */\ntag_52:\n    /* \"#utility.yul\":3067:3166   */\n  tag_54\n    /* \"#utility.yul\":3158:3165   */\n  dup6\n    /* \"#utility.yul\":3149:3155   */\n  dup3\n    /* \"#utility.yul\":3138:3147   */\n  dup7\n    /* \"#utility.yul\":3134:3156   */\n  add\n    /* \"#utility.yul\":3067:3166   */\n  tag_35\n  jump\t// in\ntag_54:\n    /* \"#utility.yul\":3057:3166   */\n  swap2\n  pop\n    /* \"#utility.yul\":2859:3176   */\n  pop\n    /* \"#utility.yul\":2230:3183   */\n  swap3\n  pop\n  swap3\n  swap1\n  pop\n  jump\t// out\n    /* \"#utility.yul\":3189:3318   */\ntag_13:\n    /* \"#utility.yul\":3223:3229   */\n  0x00\n    /* \"#utility.yul\":3250:3270   */\n  tag_56\n  tag_57\n  jump\t// in\ntag_56:\n    /* \"#utility.yul\":3240:3270   */\n  swap1\n  pop\n    /* \"#utility.yul\":3279:3312   */\n  tag_58\n    /* \"#utility.yul\":3307:3311   */\n  dup3\n    /* \"#utility.yul\":3299:3305   */\n  dup3\n    /* \"#utility.yul\":3279:3312   */\n  tag_59\n  jump\t// in\ntag_58:\n    /* \"#utility.yul\":3189:3318   */\n  swap2\n  swap1\n  pop\n  jump\t// out\n    /* \"#utility.yul\":3324:3399   */\ntag_57:\n    /* \"#utility.yul\":3357:3363   */\n  0x00\n    /* \"#utility.yul\":3390:3392   */\n  0x40\n    /* \"#utility.yul\":3384:3393   */\n  mload\n    /* \"#utility.yul\":3374:3393   */\n  swap1\n  pop\n    /* \"#utility.yul\":3324:3399   */\n  swap1\n  jump\t// out\n    /* \"#utility.yul\":3405:3726   */\ntag_12:\n    /* \"#utility.yul\":3492:3496   */\n  0x00\n    /* \"#utility.yul\":3582:3600   */\n  0xffffffffffffffff\n    /* \"#utility.yul\":3574:3580   */\n  dup3\n    /* \"#utility.yul\":3571:3601   */\n  gt\n    /* \"#utility.yul\":3568:3624   */\n  iszero\n  tag_62\n  jumpi\n    /* \"#utility.yul\":3604:3622   */\n  tag_63\n  tag_64\n  jump\t// in\ntag_63:\n    /* \"#utility.yul\":3568:3624   */\ntag_62:\n    /* \"#utility.yul\":3654:3658   */\n  0x20\n    /* \"#utility.yul\":3646:3652   */\n  dup3\n    /* \"#utility.yul\":3642:3659   */\n  mul\n    /* \"#utility.yul\":3634:3659   */\n  swap1\n  pop\n    /* \"#utility.yul\":3714:3718   */\n  0x20\n    /* \"#utility.yul\":3708:3712   */\n  dup2\n    /* \"#utility.yul\":3704:3719   */\n  add\n    /* \"#utility.yul\":3696:3719   */\n  swap1\n  pop\n    /* \"#utility.yul\":3405:3726   */\n  swap2\n  swap1\n  pop\n  jump\t// out\n    /* \"#utility.yul\":3732:4040   */\ntag_29:\n    /* \"#utility.yul\":3794:3798   */\n  0x00\n    /* \"#utility.yul\":3884:3902   */\n  0xffffffffffffffff\n    /* \"#utility.yul\":3876:3882   */\n  dup3\n    /* \"#utility.yul\":3873:3903   */\n  gt\n    /* \"#utility.yul\":3870:3926   */\n  iszero\n  tag_66\n  jumpi\n    /* \"#utility.yul\":3906:3924   */\n  tag_67\n  tag_64\n  jump\t// in\ntag_67:\n    /* \"#utility.yul\":3870:3926   */\ntag_66:\n    /* \"#utility.yul\":3944:3973   */\n  tag_68\n    /* \"#utility.yul\":3966:3972   */\n  dup3\n    /* \"#utility.yul\":3944:3973   */\n  tag_69\n  jump\t// in\ntag_68:\n    /* \"#utility.yul\":3936:3973   */\n  swap1\n  pop\n    /* \"#utility.yul\":4028:4032   */\n  0x20\n    /* \"#utility.yul\":4022:4026   */\n  dup2\n    /* \"#utility.yul\":4018:4033   */\n  add\n    /* \"#utility.yul\":4010:4033   */\n  swap1\n  pop\n    /* \"#utility.yul\":3732:4040   */\n  swap2\n  swap1\n  pop\n  jump\t// out\n    /* \"#utility.yul\":4046:4353   */\ntag_34:\n    /* \"#utility.yul\":4114:4115   */\n  0x00\n    /* \"#utility.yul\":4124:4237   */\ntag_71:\n    /* \"#utility.yul\":4138:4144   */\n  dup4\n    /* \"#utility.yul\":4135:4136   */\n  dup2\n    /* \"#utility.yul\":4132:4145   */\n  lt\n    /* \"#utility.yul\":4124:4237   */\n  iszero\n  tag_73\n  jumpi\n    /* \"#utility.yul\":4223:4224   */\n  dup1\n    /* \"#utility.yul\":4218:4221   */\n  dup3\n    /* \"#utility.yul\":4214:4225   */\n  add\n    /* \"#utility.yul\":4208:4226   */\n  mload\n    /* \"#utility.yul\":4204:4205   */\n  dup2\n    /* \"#utility.yul\":4199:4202   */\n  dup5\n    /* \"#utility.yul\":4195:4206   */\n  add\n    /* \"#utility.yul\":4188:4227   */\n  mstore\n    /* \"#utility.yul\":4160:4162   */\n  0x20\n    /* \"#utility.yul\":4157:4158   */\n  dup2\n    /* \"#utility.yul\":4153:4163   */\n  add\n    /* \"#utility.yul\":4148:4163   */\n  swap1\n  pop\n    /* \"#utility.yul\":4124:4237   */\n  jump(tag_71)\ntag_73:\n    /* \"#utility.yul\":4255:4261   */\n  dup4\n    /* \"#utility.yul\":4252:4253   */\n  dup2\n    /* \"#utility.yul\":4249:4262   */\n  gt\n    /* \"#utility.yul\":4246:4347   */\n  iszero\n  tag_74\n  jumpi\n    /* \"#utility.yul\":4335:4336   */\n  0x00\n    /* \"#utility.yul\":4326:4332   */\n  dup5\n    /* \"#utility.yul\":4321:4324   */\n  dup5\n    /* \"#utility.yul\":4317:4333   */\n  add\n    /* \"#utility.yul\":4310:4337   */\n  mstore\n    /* \"#utility.yul\":4246:4347   */\ntag_74:\n    /* \"#utility.yul\":4095:4353   */\n  pop\n    /* \"#utility.yul\":4046:4353   */\n  pop\n  pop\n  pop\n  jump\t// out\n    /* \"#utility.yul\":4359:4640   */\ntag_59:\n    /* \"#utility.yul\":4442:4469   */\n  tag_76\n    /* \"#utility.yul\":4464:4468   */\n  dup3\n    /* \"#utility.yul\":4442:4469   */\n  tag_69\n  jump\t// in\ntag_76:\n    /* \"#utility.yul\":4434:4440   */\n  dup2\n    /* \"#utility.yul\":4430:4470   */\n  add\n    /* \"#utility.yul\":4572:4578   */\n  dup2\n    /* \"#utility.yul\":4560:4570   */\n  dup2\n    /* \"#utility.yul\":4557:4579   */\n  lt\n    /* \"#utility.yul\":4536:4554   */\n  0xffffffffffffffff\n    /* \"#utility.yul\":4524:4534   */\n  dup3\n    /* \"#utility.yul\":4521:4555   */\n  gt\n    /* \"#utility.yul\":4518:4580   */\n  or\n    /* \"#utility.yul\":4515:4603   */\n  iszero\n  tag_77\n  jumpi\n    /* \"#utility.yul\":4583:4601   */\n  tag_78\n  tag_64\n  jump\t// in\ntag_78:\n    /* \"#utility.yul\":4515:4603   */\ntag_77:\n    /* \"#utility.yul\":4623:4633   */\n  dup1\n    /* \"#utility.yul\":4619:4621   */\n  0x40\n    /* \"#utility.yul\":4612:4634   */\n  mstore\n    /* \"#utility.yul\":4402:4640   */\n  pop\n    /* \"#utility.yul\":4359:4640   */\n  pop\n  pop\n  jump\t// out\n    /* \"#utility.yul\":4646:4826   */\ntag_64:\n    /* \"#utility.yul\":4694:4771   */\n  0x4e487b7100000000000000000000000000000000000000000000000000000000\n    /* \"#utility.yul\":4691:4692   */\n  0x00\n    /* \"#utility.yul\":4684:4772   */\n  mstore\n    /* \"#utility.yul\":4791:4795   */\n  0x41\n    /* \"#utility.yul\":4788:4789   */\n  0x04\n    /* \"#utility.yul\":4781:4796   */\n  mstore\n    /* \"#utility.yul\":4815:4819   */\n  0x24\n    /* \"#utility.yul\":4812:4813   */\n  0x00\n    /* \"#utility.yul\":4805:4820   */\n  revert\n    /* \"#utility.yul\":4832:4949   */\ntag_22:\n    /* \"#utility.yul\":4941:4942   */\n  0x00\n    /* \"#utility.yul\":4938:4939   */\n  dup1\n    /* \"#utility.yul\":4931:4943   */\n  revert\n    /* \"#utility.yul\":4955:5072   */\ntag_16:\n    /* \"#utility.yul\":5064:5065   */\n  0x00\n    /* \"#utility.yul\":5061:5062   */\n  dup1\n    /* \"#utility.yul\":5054:5066   */\n  revert\n    /* \"#utility.yul\":5078:5195   */\ntag_32:\n    /* \"#utility.yul\":5187:5188   */\n  0x00\n    /* \"#utility.yul\":5184:5185   */\n  dup1\n    /* \"#utility.yul\":5177:5189   */\n  revert\n    /* \"#utility.yul\":5201:5318   */\ntag_50:\n    /* \"#utility.yul\":5310:5311   */\n  0x00\n    /* \"#utility.yul\":5307:5308   */\n  dup1\n    /* \"#utility.yul\":5300:5312   */\n  revert\n    /* \"#utility.yul\":5324:5441   */\ntag_47:\n    /* \"#utility.yul\":5433:5434   */\n  0x00\n    /* \"#utility.yul\":5430:5431   */\n  dup1\n    /* \"#utility.yul\":5423:5435   */\n  revert\n    /* \"#utility.yul\":5447:5549   */\ntag_69:\n    /* \"#utility.yul\":5488:5494   */\n  0x00\n    /* \"#utility.yul\":5539:5541   */\n  0x1f\n    /* \"#utility.yul\":5535:5542   */\n  not\n    /* \"#utility.yul\":5530:5532   */\n  0x1f\n    /* \"#utility.yul\":5523:5528   */\n  dup4\n    /* \"#utility.yul\":5519:5533   */\n  add\n    /* \"#utility.yul\":5515:5543   */\n  and\n    /* \"#utility.yul\":5505:5543   */\n  swap1\n  pop\n    /* \"#utility.yul\":5447:5549   */\n  swap2\n  swap1\n  pop\n  jump\t// out\n    /* \"contracts/Ballot/MyBallot.sol\":62:549  contract MyBallot {\r... */\ntag_6:\n  dataSize(sub_0)\n  dup1\n  dataOffset(sub_0)\n  0x00\n  codecopy\n  0x00\n  return\nstop\n\nsub_0: assembly {\n        /* \"contracts/Ballot/MyBallot.sol\":62:549  contract MyBallot {\r... */\n      mstore(0x40, 0x80)\n      callvalue\n      dup1\n      iszero\n      tag_1\n      jumpi\n      0x00\n      dup1\n      revert\n    tag_1:\n      pop\n      jumpi(tag_2, lt(calldatasize, 0x04))\n      shr(0xe0, calldataload(0x00))\n      dup1\n      0x3477ee2e\n      eq\n      tag_3\n      jumpi\n      dup1\n      0xa3ec138d\n      eq\n      tag_4\n      jumpi\n      dup1\n      0xce606ee0\n      eq\n      tag_5\n      jumpi\n    tag_2:\n      0x00\n      dup1\n      revert\n        /* \"contracts/Ballot/MyBallot.sol\":354:383  Candidate[] public candidates */\n    tag_3:\n      tag_6\n      0x04\n      dup1\n      calldatasize\n      sub\n      dup2\n      add\n      swap1\n      tag_7\n      swap2\n      swap1\n      tag_8\n      jump\t// in\n    tag_7:\n      tag_9\n      jump\t// in\n    tag_6:\n      mload(0x40)\n      tag_10\n      swap4\n      swap3\n      swap2\n      swap1\n      tag_11\n      jump\t// in\n    tag_10:\n      mload(0x40)\n      dup1\n      swap2\n      sub\n      swap1\n      return\n        /* \"contracts/Ballot/MyBallot.sol\":306:345  mapping(address => Voter) public voters */\n    tag_4:\n      tag_12\n      0x04\n      dup1\n      calldatasize\n      sub\n      dup2\n      add\n      swap1\n      tag_13\n      swap2\n      swap1\n      tag_14\n      jump\t// in\n    tag_13:\n      tag_15\n      jump\t// in\n    tag_12:\n      mload(0x40)\n      tag_16\n      swap3\n      swap2\n      swap1\n      tag_17\n      jump\t// in\n    tag_16:\n      mload(0x40)\n      dup1\n      swap2\n      sub\n      swap1\n      return\n        /* \"contracts/Ballot/MyBallot.sol\":269:297  address public contractOwner */\n    tag_5:\n      tag_18\n      tag_19\n      jump\t// in\n    tag_18:\n      mload(0x40)\n      tag_20\n      swap2\n      swap1\n      tag_21\n      jump\t// in\n    tag_20:\n      mload(0x40)\n      dup1\n      swap2\n      sub\n      swap1\n      return\n        /* \"contracts/Ballot/MyBallot.sol\":354:383  Candidate[] public candidates */\n    tag_9:\n      0x02\n      dup2\n      dup2\n      sload\n      dup2\n      lt\n      tag_22\n      jumpi\n      0x00\n      dup1\n      revert\n    tag_22:\n      swap1\n      0x00\n      mstore\n      keccak256(0x00, 0x20)\n      swap1\n      0x03\n      mul\n      add\n      0x00\n      swap2\n      pop\n      swap1\n      pop\n      dup1\n      0x00\n      add\n      dup1\n      sload\n      tag_24\n      swap1\n      tag_25\n      jump\t// in\n    tag_24:\n      dup1\n      0x1f\n      add\n      0x20\n      dup1\n      swap2\n      div\n      mul\n      0x20\n      add\n      mload(0x40)\n      swap1\n      dup2\n      add\n      0x40\n      mstore\n      dup1\n      swap3\n      swap2\n      swap1\n      dup2\n      dup2\n      mstore\n      0x20\n      add\n      dup3\n      dup1\n      sload\n      tag_26\n      swap1\n      tag_25\n      jump\t// in\n    tag_26:\n      dup1\n      iszero\n      tag_27\n      jumpi\n      dup1\n      0x1f\n      lt\n      tag_28\n      jumpi\n      0x0100\n      dup1\n      dup4\n      sload\n      div\n      mul\n      dup4\n      mstore\n      swap2\n      0x20\n      add\n      swap2\n      jump(tag_27)\n    tag_28:\n      dup3\n      add\n      swap2\n      swap1\n      0x00\n      mstore\n      keccak256(0x00, 0x20)\n      swap1\n    tag_29:\n      dup2\n      sload\n      dup2\n      mstore\n      swap1\n      0x01\n      add\n      swap1\n      0x20\n      add\n      dup1\n      dup4\n      gt\n      tag_29\n      jumpi\n      dup3\n      swap1\n      sub\n      0x1f\n      and\n      dup3\n      add\n      swap2\n    tag_27:\n      pop\n      pop\n      pop\n      pop\n      pop\n      swap1\n      dup1\n      0x01\n      add\n      dup1\n      sload\n      tag_30\n      swap1\n      tag_25\n      jump\t// in\n    tag_30:\n      dup1\n      0x1f\n      add\n      0x20\n      dup1\n      swap2\n      div\n      mul\n      0x20\n      add\n      mload(0x40)\n      swap1\n      dup2\n      add\n      0x40\n      mstore\n      dup1\n      swap3\n      swap2\n      swap1\n      dup2\n      dup2\n      mstore\n      0x20\n      add\n      dup3\n      dup1\n      sload\n      tag_31\n      swap1\n      tag_25\n      jump\t// in\n    tag_31:\n      dup1\n      iszero\n      tag_32\n      jumpi\n      dup1\n      0x1f\n      lt\n      tag_33\n      jumpi\n      0x0100\n      dup1\n      dup4\n      sload\n      div\n      mul\n      dup4\n      mstore\n      swap2\n      0x20\n      add\n      swap2\n      jump(tag_32)\n    tag_33:\n      dup3\n      add\n      swap2\n      swap1\n      0x00\n      mstore\n      keccak256(0x00, 0x20)\n      swap1\n    tag_34:\n      dup2\n      sload\n      dup2\n      mstore\n      swap1\n      0x01\n      add\n      swap1\n      0x20\n      add\n      dup1\n      dup4\n      gt\n      tag_34\n      jumpi\n      dup3\n      swap1\n      sub\n      0x1f\n      and\n      dup3\n      add\n      swap2\n    tag_32:\n      pop\n      pop\n      pop\n      pop\n      pop\n      swap1\n      dup1\n      0x02\n      add\n      sload\n      swap1\n      pop\n      dup4\n      jump\t// out\n        /* \"contracts/Ballot/MyBallot.sol\":306:345  mapping(address => Voter) public voters */\n    tag_15:\n      mstore(0x20, 0x01)\n      dup1\n      0x00\n      mstore\n      keccak256(0x00, 0x40)\n      0x00\n      swap2\n      pop\n      swap1\n      pop\n      dup1\n      0x00\n      add\n      0x00\n      swap1\n      sload\n      swap1\n      0x0100\n      exp\n      swap1\n      div\n      0xff\n      and\n      swap1\n      dup1\n      0x00\n      add\n      0x01\n      swap1\n      sload\n      swap1\n      0x0100\n      exp\n      swap1\n      div\n      0xff\n      and\n      swap1\n      pop\n      dup3\n      jump\t// out\n        /* \"contracts/Ballot/MyBallot.sol\":269:297  address public contractOwner */\n    tag_19:\n      0x00\n      dup1\n      sload\n      swap1\n      0x0100\n      exp\n      swap1\n      div\n      0xffffffffffffffffffffffffffffffffffffffff\n      and\n      dup2\n      jump\t// out\n        /* \"#utility.yul\":7:146   */\n    tag_36:\n        /* \"#utility.yul\":53:58   */\n      0x00\n        /* \"#utility.yul\":91:97   */\n      dup2\n        /* \"#utility.yul\":78:98   */\n      calldataload\n        /* \"#utility.yul\":69:98   */\n      swap1\n      pop\n        /* \"#utility.yul\":107:140   */\n      tag_38\n        /* \"#utility.yul\":134:139   */\n      dup2\n        /* \"#utility.yul\":107:140   */\n      tag_39\n      jump\t// in\n    tag_38:\n        /* \"#utility.yul\":7:146   */\n      swap3\n      swap2\n      pop\n      pop\n      jump\t// out\n        /* \"#utility.yul\":152:291   */\n    tag_40:\n        /* \"#utility.yul\":198:203   */\n      0x00\n        /* \"#utility.yul\":236:242   */\n      dup2\n        /* \"#utility.yul\":223:243   */\n      calldataload\n        /* \"#utility.yul\":214:243   */\n      swap1\n      pop\n        /* \"#utility.yul\":252:285   */\n      tag_42\n        /* \"#utility.yul\":279:284   */\n      dup2\n        /* \"#utility.yul\":252:285   */\n      tag_43\n      jump\t// in\n    tag_42:\n        /* \"#utility.yul\":152:291   */\n      swap3\n      swap2\n      pop\n      pop\n      jump\t// out\n        /* \"#utility.yul\":297:626   */\n    tag_14:\n        /* \"#utility.yul\":356:362   */\n      0x00\n        /* \"#utility.yul\":405:407   */\n      0x20\n        /* \"#utility.yul\":393:402   */\n      dup3\n        /* \"#utility.yul\":384:391   */\n      dup5\n        /* \"#utility.yul\":380:403   */\n      sub\n        /* \"#utility.yul\":376:408   */\n      slt\n        /* \"#utility.yul\":373:492   */\n      iszero\n      tag_45\n      jumpi\n        /* \"#utility.yul\":411:490   */\n      tag_46\n      tag_47\n      jump\t// in\n    tag_46:\n        /* \"#utility.yul\":373:492   */\n    tag_45:\n        /* \"#utility.yul\":531:532   */\n      0x00\n        /* \"#utility.yul\":556:609   */\n      tag_48\n        /* \"#utility.yul\":601:608   */\n      dup5\n        /* \"#utility.yul\":592:598   */\n      dup3\n        /* \"#utility.yul\":581:590   */\n      dup6\n        /* \"#utility.yul\":577:599   */\n      add\n        /* \"#utility.yul\":556:609   */\n      tag_36\n      jump\t// in\n    tag_48:\n        /* \"#utility.yul\":546:609   */\n      swap2\n      pop\n        /* \"#utility.yul\":502:619   */\n      pop\n        /* \"#utility.yul\":297:626   */\n      swap3\n      swap2\n      pop\n      pop\n      jump\t// out\n        /* \"#utility.yul\":632:961   */\n    tag_8:\n        /* \"#utility.yul\":691:697   */\n      0x00\n        /* \"#utility.yul\":740:742   */\n      0x20\n        /* \"#utility.yul\":728:737   */\n      dup3\n        /* \"#utility.yul\":719:726   */\n      dup5\n        /* \"#utility.yul\":715:738   */\n      sub\n        /* \"#utility.yul\":711:743   */\n      slt\n        /* \"#utility.yul\":708:827   */\n      iszero\n      tag_50\n      jumpi\n        /* \"#utility.yul\":746:825   */\n      tag_51\n      tag_47\n      jump\t// in\n    tag_51:\n        /* \"#utility.yul\":708:827   */\n    tag_50:\n        /* \"#utility.yul\":866:867   */\n      0x00\n        /* \"#utility.yul\":891:944   */\n      tag_52\n        /* \"#utility.yul\":936:943   */\n      dup5\n        /* \"#utility.yul\":927:933   */\n      dup3\n        /* \"#utility.yul\":916:925   */\n      dup6\n        /* \"#utility.yul\":912:934   */\n      add\n        /* \"#utility.yul\":891:944   */\n      tag_40\n      jump\t// in\n    tag_52:\n        /* \"#utility.yul\":881:944   */\n      swap2\n      pop\n        /* \"#utility.yul\":837:954   */\n      pop\n        /* \"#utility.yul\":632:961   */\n      swap3\n      swap2\n      pop\n      pop\n      jump\t// out\n        /* \"#utility.yul\":967:1085   */\n    tag_53:\n        /* \"#utility.yul\":1054:1078   */\n      tag_55\n        /* \"#utility.yul\":1072:1077   */\n      dup2\n        /* \"#utility.yul\":1054:1078   */\n      tag_56\n      jump\t// in\n    tag_55:\n        /* \"#utility.yul\":1049:1052   */\n      dup3\n        /* \"#utility.yul\":1042:1079   */\n      mstore\n        /* \"#utility.yul\":967:1085   */\n      pop\n      pop\n      jump\t// out\n        /* \"#utility.yul\":1091:1200   */\n    tag_57:\n        /* \"#utility.yul\":1172:1193   */\n      tag_59\n        /* \"#utility.yul\":1187:1192   */\n      dup2\n        /* \"#utility.yul\":1172:1193   */\n      tag_60\n      jump\t// in\n    tag_59:\n        /* \"#utility.yul\":1167:1170   */\n      dup3\n        /* \"#utility.yul\":1160:1194   */\n      mstore\n        /* \"#utility.yul\":1091:1200   */\n      pop\n      pop\n      jump\t// out\n        /* \"#utility.yul\":1206:1570   */\n    tag_61:\n        /* \"#utility.yul\":1294:1297   */\n      0x00\n        /* \"#utility.yul\":1322:1361   */\n      tag_63\n        /* \"#utility.yul\":1355:1360   */\n      dup3\n        /* \"#utility.yul\":1322:1361   */\n      tag_64\n      jump\t// in\n    tag_63:\n        /* \"#utility.yul\":1377:1448   */\n      tag_65\n        /* \"#utility.yul\":1441:1447   */\n      dup2\n        /* \"#utility.yul\":1436:1439   */\n      dup6\n        /* \"#utility.yul\":1377:1448   */\n      tag_66\n      jump\t// in\n    tag_65:\n        /* \"#utility.yul\":1370:1448   */\n      swap4\n      pop\n        /* \"#utility.yul\":1457:1509   */\n      tag_67\n        /* \"#utility.yul\":1502:1508   */\n      dup2\n        /* \"#utility.yul\":1497:1500   */\n      dup6\n        /* \"#utility.yul\":1490:1494   */\n      0x20\n        /* \"#utility.yul\":1483:1488   */\n      dup7\n        /* \"#utility.yul\":1479:1495   */\n      add\n        /* \"#utility.yul\":1457:1509   */\n      tag_68\n      jump\t// in\n    tag_67:\n        /* \"#utility.yul\":1534:1563   */\n      tag_69\n        /* \"#utility.yul\":1556:1562   */\n      dup2\n        /* \"#utility.yul\":1534:1563   */\n      tag_70\n      jump\t// in\n    tag_69:\n        /* \"#utility.yul\":1529:1532   */\n      dup5\n        /* \"#utility.yul\":1525:1564   */\n      add\n        /* \"#utility.yul\":1518:1564   */\n      swap2\n      pop\n        /* \"#utility.yul\":1298:1570   */\n      pop\n        /* \"#utility.yul\":1206:1570   */\n      swap3\n      swap2\n      pop\n      pop\n      jump\t// out\n        /* \"#utility.yul\":1576:1694   */\n    tag_71:\n        /* \"#utility.yul\":1663:1687   */\n      tag_73\n        /* \"#utility.yul\":1681:1686   */\n      dup2\n        /* \"#utility.yul\":1663:1687   */\n      tag_74\n      jump\t// in\n    tag_73:\n        /* \"#utility.yul\":1658:1661   */\n      dup3\n        /* \"#utility.yul\":1651:1688   */\n      mstore\n        /* \"#utility.yul\":1576:1694   */\n      pop\n      pop\n      jump\t// out\n        /* \"#utility.yul\":1700:1922   */\n    tag_21:\n        /* \"#utility.yul\":1793:1797   */\n      0x00\n        /* \"#utility.yul\":1831:1833   */\n      0x20\n        /* \"#utility.yul\":1820:1829   */\n      dup3\n        /* \"#utility.yul\":1816:1834   */\n      add\n        /* \"#utility.yul\":1808:1834   */\n      swap1\n      pop\n        /* \"#utility.yul\":1844:1915   */\n      tag_76\n        /* \"#utility.yul\":1912:1913   */\n      0x00\n        /* \"#utility.yul\":1901:1910   */\n      dup4\n        /* \"#utility.yul\":1897:1914   */\n      add\n        /* \"#utility.yul\":1888:1894   */\n      dup5\n        /* \"#utility.yul\":1844:1915   */\n      tag_53\n      jump\t// in\n    tag_76:\n        /* \"#utility.yul\":1700:1922   */\n      swap3\n      swap2\n      pop\n      pop\n      jump\t// out\n        /* \"#utility.yul\":1928:2236   */\n    tag_17:\n        /* \"#utility.yul\":2037:2041   */\n      0x00\n        /* \"#utility.yul\":2075:2077   */\n      0x40\n        /* \"#utility.yul\":2064:2073   */\n      dup3\n        /* \"#utility.yul\":2060:2078   */\n      add\n        /* \"#utility.yul\":2052:2078   */\n      swap1\n      pop\n        /* \"#utility.yul\":2088:2153   */\n      tag_78\n        /* \"#utility.yul\":2150:2151   */\n      0x00\n        /* \"#utility.yul\":2139:2148   */\n      dup4\n        /* \"#utility.yul\":2135:2152   */\n      add\n        /* \"#utility.yul\":2126:2132   */\n      dup6\n        /* \"#utility.yul\":2088:2153   */\n      tag_57\n      jump\t// in\n    tag_78:\n        /* \"#utility.yul\":2163:2229   */\n      tag_79\n        /* \"#utility.yul\":2225:2227   */\n      0x20\n        /* \"#utility.yul\":2214:2223   */\n      dup4\n        /* \"#utility.yul\":2210:2228   */\n      add\n        /* \"#utility.yul\":2201:2207   */\n      dup5\n        /* \"#utility.yul\":2163:2229   */\n      tag_57\n      jump\t// in\n    tag_79:\n        /* \"#utility.yul\":1928:2236   */\n      swap4\n      swap3\n      pop\n      pop\n      pop\n      jump\t// out\n        /* \"#utility.yul\":2242:2866   */\n    tag_11:\n        /* \"#utility.yul\":2431:2435   */\n      0x00\n        /* \"#utility.yul\":2469:2471   */\n      0x60\n        /* \"#utility.yul\":2458:2467   */\n      dup3\n        /* \"#utility.yul\":2454:2472   */\n      add\n        /* \"#utility.yul\":2446:2472   */\n      swap1\n      pop\n        /* \"#utility.yul\":2518:2527   */\n      dup2\n        /* \"#utility.yul\":2512:2516   */\n      dup2\n        /* \"#utility.yul\":2508:2528   */\n      sub\n        /* \"#utility.yul\":2504:2505   */\n      0x00\n        /* \"#utility.yul\":2493:2502   */\n      dup4\n        /* \"#utility.yul\":2489:2506   */\n      add\n        /* \"#utility.yul\":2482:2529   */\n      mstore\n        /* \"#utility.yul\":2546:2624   */\n      tag_81\n        /* \"#utility.yul\":2619:2623   */\n      dup2\n        /* \"#utility.yul\":2610:2616   */\n      dup7\n        /* \"#utility.yul\":2546:2624   */\n      tag_61\n      jump\t// in\n    tag_81:\n        /* \"#utility.yul\":2538:2624   */\n      swap1\n      pop\n        /* \"#utility.yul\":2671:2680   */\n      dup2\n        /* \"#utility.yul\":2665:2669   */\n      dup2\n        /* \"#utility.yul\":2661:2681   */\n      sub\n        /* \"#utility.yul\":2656:2658   */\n      0x20\n        /* \"#utility.yul\":2645:2654   */\n      dup4\n        /* \"#utility.yul\":2641:2659   */\n      add\n        /* \"#utility.yul\":2634:2682   */\n      mstore\n        /* \"#utility.yul\":2699:2777   */\n      tag_82\n        /* \"#utility.yul\":2772:2776   */\n      dup2\n        /* \"#utility.yul\":2763:2769   */\n      dup6\n        /* \"#utility.yul\":2699:2777   */\n      tag_61\n      jump\t// in\n    tag_82:\n        /* \"#utility.yul\":2691:2777   */\n      swap1\n      pop\n        /* \"#utility.yul\":2787:2859   */\n      tag_83\n        /* \"#utility.yul\":2855:2857   */\n      0x40\n        /* \"#utility.yul\":2844:2853   */\n      dup4\n        /* \"#utility.yul\":2840:2858   */\n      add\n        /* \"#utility.yul\":2831:2837   */\n      dup5\n        /* \"#utility.yul\":2787:2859   */\n      tag_71\n      jump\t// in\n    tag_83:\n        /* \"#utility.yul\":2242:2866   */\n      swap5\n      swap4\n      pop\n      pop\n      pop\n      pop\n      jump\t// out\n        /* \"#utility.yul\":2953:3052   */\n    tag_64:\n        /* \"#utility.yul\":3005:3011   */\n      0x00\n        /* \"#utility.yul\":3039:3044   */\n      dup2\n        /* \"#utility.yul\":3033:3045   */\n      mload\n        /* \"#utility.yul\":3023:3045   */\n      swap1\n      pop\n        /* \"#utility.yul\":2953:3052   */\n      swap2\n      swap1\n      pop\n      jump\t// out\n        /* \"#utility.yul\":3058:3227   */\n    tag_66:\n        /* \"#utility.yul\":3142:3153   */\n      0x00\n        /* \"#utility.yul\":3176:3182   */\n      dup3\n        /* \"#utility.yul\":3171:3174   */\n      dup3\n        /* \"#utility.yul\":3164:3183   */\n      mstore\n        /* \"#utility.yul\":3216:3220   */\n      0x20\n        /* \"#utility.yul\":3211:3214   */\n      dup3\n        /* \"#utility.yul\":3207:3221   */\n      add\n        /* \"#utility.yul\":3192:3221   */\n      swap1\n      pop\n        /* \"#utility.yul\":3058:3227   */\n      swap3\n      swap2\n      pop\n      pop\n      jump\t// out\n        /* \"#utility.yul\":3233:3329   */\n    tag_56:\n        /* \"#utility.yul\":3270:3277   */\n      0x00\n        /* \"#utility.yul\":3299:3323   */\n      tag_89\n        /* \"#utility.yul\":3317:3322   */\n      dup3\n        /* \"#utility.yul\":3299:3323   */\n      tag_90\n      jump\t// in\n    tag_89:\n        /* \"#utility.yul\":3288:3323   */\n      swap1\n      pop\n        /* \"#utility.yul\":3233:3329   */\n      swap2\n      swap1\n      pop\n      jump\t// out\n        /* \"#utility.yul\":3335:3425   */\n    tag_60:\n        /* \"#utility.yul\":3369:3376   */\n      0x00\n        /* \"#utility.yul\":3412:3417   */\n      dup2\n        /* \"#utility.yul\":3405:3418   */\n      iszero\n        /* \"#utility.yul\":3398:3419   */\n      iszero\n        /* \"#utility.yul\":3387:3419   */\n      swap1\n      pop\n        /* \"#utility.yul\":3335:3425   */\n      swap2\n      swap1\n      pop\n      jump\t// out\n        /* \"#utility.yul\":3431:3557   */\n    tag_90:\n        /* \"#utility.yul\":3468:3475   */\n      0x00\n        /* \"#utility.yul\":3508:3550   */\n      0xffffffffffffffffffffffffffffffffffffffff\n        /* \"#utility.yul\":3501:3506   */\n      dup3\n        /* \"#utility.yul\":3497:3551   */\n      and\n        /* \"#utility.yul\":3486:3551   */\n      swap1\n      pop\n        /* \"#utility.yul\":3431:3557   */\n      swap2\n      swap1\n      pop\n      jump\t// out\n        /* \"#utility.yul\":3563:3640   */\n    tag_74:\n        /* \"#utility.yul\":3600:3607   */\n      0x00\n        /* \"#utility.yul\":3629:3634   */\n      dup2\n        /* \"#utility.yul\":3618:3634   */\n      swap1\n      pop\n        /* \"#utility.yul\":3563:3640   */\n      swap2\n      swap1\n      pop\n      jump\t// out\n        /* \"#utility.yul\":3646:3953   */\n    tag_68:\n        /* \"#utility.yul\":3714:3715   */\n      0x00\n        /* \"#utility.yul\":3724:3837   */\n    tag_95:\n        /* \"#utility.yul\":3738:3744   */\n      dup4\n        /* \"#utility.yul\":3735:3736   */\n      dup2\n        /* \"#utility.yul\":3732:3745   */\n      lt\n        /* \"#utility.yul\":3724:3837   */\n      iszero\n      tag_97\n      jumpi\n        /* \"#utility.yul\":3823:3824   */\n      dup1\n        /* \"#utility.yul\":3818:3821   */\n      dup3\n        /* \"#utility.yul\":3814:3825   */\n      add\n        /* \"#utility.yul\":3808:3826   */\n      mload\n        /* \"#utility.yul\":3804:3805   */\n      dup2\n        /* \"#utility.yul\":3799:3802   */\n      dup5\n        /* \"#utility.yul\":3795:3806   */\n      add\n        /* \"#utility.yul\":3788:3827   */\n      mstore\n        /* \"#utility.yul\":3760:3762   */\n      0x20\n        /* \"#utility.yul\":3757:3758   */\n      dup2\n        /* \"#utility.yul\":3753:3763   */\n      add\n        /* \"#utility.yul\":3748:3763   */\n      swap1\n      pop\n        /* \"#utility.yul\":3724:3837   */\n      jump(tag_95)\n    tag_97:\n        /* \"#utility.yul\":3855:3861   */\n      dup4\n        /* \"#utility.yul\":3852:3853   */\n      dup2\n        /* \"#utility.yul\":3849:3862   */\n      gt\n        /* \"#utility.yul\":3846:3947   */\n      iszero\n      tag_98\n      jumpi\n        /* \"#utility.yul\":3935:3936   */\n      0x00\n        /* \"#utility.yul\":3926:3932   */\n      dup5\n        /* \"#utility.yul\":3921:3924   */\n      dup5\n        /* \"#utility.yul\":3917:3933   */\n      add\n        /* \"#utility.yul\":3910:3937   */\n      mstore\n        /* \"#utility.yul\":3846:3947   */\n    tag_98:\n        /* \"#utility.yul\":3695:3953   */\n      pop\n        /* \"#utility.yul\":3646:3953   */\n      pop\n      pop\n      pop\n      jump\t// out\n        /* \"#utility.yul\":3959:4279   */\n    tag_25:\n        /* \"#utility.yul\":4003:4009   */\n      0x00\n        /* \"#utility.yul\":4040:4041   */\n      0x02\n        /* \"#utility.yul\":4034:4038   */\n      dup3\n        /* \"#utility.yul\":4030:4042   */\n      div\n        /* \"#utility.yul\":4020:4042   */\n      swap1\n      pop\n        /* \"#utility.yul\":4087:4088   */\n      0x01\n        /* \"#utility.yul\":4081:4085   */\n      dup3\n        /* \"#utility.yul\":4077:4089   */\n      and\n        /* \"#utility.yul\":4108:4126   */\n      dup1\n        /* \"#utility.yul\":4098:4179   */\n      tag_100\n      jumpi\n        /* \"#utility.yul\":4164:4168   */\n      0x7f\n        /* \"#utility.yul\":4156:4162   */\n      dup3\n        /* \"#utility.yul\":4152:4169   */\n      and\n        /* \"#utility.yul\":4142:4169   */\n      swap2\n      pop\n        /* \"#utility.yul\":4098:4179   */\n    tag_100:\n        /* \"#utility.yul\":4226:4228   */\n      0x20\n        /* \"#utility.yul\":4218:4224   */\n      dup3\n        /* \"#utility.yul\":4215:4229   */\n      lt\n        /* \"#utility.yul\":4195:4213   */\n      dup2\n        /* \"#utility.yul\":4192:4230   */\n      eq\n        /* \"#utility.yul\":4189:4273   */\n      iszero\n      tag_101\n      jumpi\n        /* \"#utility.yul\":4245:4263   */\n      tag_102\n      tag_103\n      jump\t// in\n    tag_102:\n        /* \"#utility.yul\":4189:4273   */\n    tag_101:\n        /* \"#utility.yul\":4010:4279   */\n      pop\n        /* \"#utility.yul\":3959:4279   */\n      swap2\n      swap1\n      pop\n      jump\t// out\n        /* \"#utility.yul\":4285:4465   */\n    tag_103:\n        /* \"#utility.yul\":4333:4410   */\n      0x4e487b7100000000000000000000000000000000000000000000000000000000\n        /* \"#utility.yul\":4330:4331   */\n      0x00\n        /* \"#utility.yul\":4323:4411   */\n      mstore\n        /* \"#utility.yul\":4430:4434   */\n      0x22\n        /* \"#utility.yul\":4427:4428   */\n      0x04\n        /* \"#utility.yul\":4420:4435   */\n      mstore\n        /* \"#utility.yul\":4454:4458   */\n      0x24\n        /* \"#utility.yul\":4451:4452   */\n      0x00\n        /* \"#utility.yul\":4444:4459   */\n      revert\n        /* \"#utility.yul\":4594:4711   */\n    tag_47:\n        /* \"#utility.yul\":4703:4704   */\n      0x00\n        /* \"#utility.yul\":4700:4701   */\n      dup1\n        /* \"#utility.yul\":4693:4705   */\n      revert\n        /* \"#utility.yul\":4717:4819   */\n    tag_70:\n        /* \"#utility.yul\":4758:4764   */\n      0x00\n        /* \"#utility.yul\":4809:4811   */\n      0x1f\n        /* \"#utility.yul\":4805:4812   */\n      not\n        /* \"#utility.yul\":4800:4802   */\n      0x1f\n        /* \"#utility.yul\":4793:4798   */\n      dup4\n        /* \"#utility.yul\":4789:4803   */\n      add\n        /* \"#utility.yul\":4785:4813   */\n      and\n        /* \"#utility.yul\":4775:4813   */\n      swap1\n      pop\n        /* \"#utility.yul\":4717:4819   */\n      swap2\n      swap1\n      pop\n      jump\t// out\n        /* \"#utility.yul\":4825:4947   */\n    tag_39:\n        /* \"#utility.yul\":4898:4922   */\n      tag_110\n        /* \"#utility.yul\":4916:4921   */\n      dup2\n        /* \"#utility.yul\":4898:4922   */\n      tag_56\n      jump\t// in\n    tag_110:\n        /* \"#utility.yul\":4891:4896   */\n      dup2\n        /* \"#utility.yul\":4888:4923   */\n      eq\n        /* \"#utility.yul\":4878:4941   */\n      tag_111\n      jumpi\n        /* \"#utility.yul\":4937:4938   */\n      0x00\n        /* \"#utility.yul\":4934:4935   */\n      dup1\n        /* \"#utility.yul\":4927:4939   */\n      revert\n        /* \"#utility.yul\":4878:4941   */\n    tag_111:\n        /* \"#utility.yul\":4825:4947   */\n      pop\n      jump\t// out\n        /* \"#utility.yul\":4953:5075   */\n    tag_43:\n        /* \"#utility.yul\":5026:5050   */\n      tag_113\n        /* \"#utility.yul\":5044:5049   */\n      dup2\n        /* \"#utility.yul\":5026:5050   */\n      tag_74\n      jump\t// in\n    tag_113:\n        /* \"#utility.yul\":5019:5024   */\n      dup2\n        /* \"#utility.yul\":5016:5051   */\n      eq\n        /* \"#utility.yul\":5006:5069   */\n      tag_114\n      jumpi\n        /* \"#utility.yul\":5065:5066   */\n      0x00\n        /* \"#utility.yul\":5062:5063   */\n      dup1\n        /* \"#utility.yul\":5055:5067   */\n      revert\n        /* \"#utility.yul\":5006:5069   */\n    tag_114:\n        /* \"#utility.yul\":4953:5075   */\n      pop\n      jump\t// out\n\n    auxdata: 0xa264697066735822122003922d01c3054a0f9099fb90c95d90048753dba7802247694bd58c99f102e50c64736f6c63430008070033\n}\n",
				"bytecode": {
					"linkReferences": {},
					"object": "60806040523480156200001157600080fd5b506040516200090c3803806200090c8339818101604052810190620000379190620001cc565b336000806101000a81548173ffffffffffffffffffffffffffffffffffffffff021916908373ffffffffffffffffffffffffffffffffffffffff1602179055505050620003a4565b60006200009662000090846200027a565b62000251565b90508083825260208201905082856020860282011115620000bc57620000bb6200037f565b5b60005b858110156200011157815167ffffffffffffffff811115620000e657620000e56200037a565b5b808601620000f5898262000199565b85526020850194506020840193505050600181019050620000bf565b5050509392505050565b6000620001326200012c84620002a9565b62000251565b90508281526020810184848401111562000151576200015062000384565b5b6200015e848285620002df565b509392505050565b600082601f8301126200017e576200017d6200037a565b5b8151620001908482602086016200007f565b91505092915050565b600082601f830112620001b157620001b06200037a565b5b8151620001c38482602086016200011b565b91505092915050565b60008060408385031215620001e657620001e56200038e565b5b600083015167ffffffffffffffff81111562000207576200020662000389565b5b620002158582860162000166565b925050602083015167ffffffffffffffff81111562000239576200023862000389565b5b620002478582860162000166565b9150509250929050565b60006200025d62000270565b90506200026b828262000315565b919050565b6000604051905090565b600067ffffffffffffffff8211156200029857620002976200034b565b5b602082029050602081019050919050565b600067ffffffffffffffff821115620002c757620002c66200034b565b5b620002d28262000393565b9050602081019050919050565b60005b83811015620002ff578082015181840152602081019050620002e2565b838111156200030f576000848401525b50505050565b620003208262000393565b810181811067ffffffffffffffff821117156200034257620003416200034b565b5b80604052505050565b7f4e487b7100000000000000000000000000000000000000000000000000000000600052604160045260246000fd5b600080fd5b600080fd5b600080fd5b600080fd5b600080fd5b6000601f19601f8301169050919050565b61055880620003b46000396000f3fe608060405234801561001057600080fd5b50600436106100415760003560e01c80633477ee2e14610046578063a3ec138d14610078578063ce606ee0146100a9575b600080fd5b610060600480360381019061005b91906102ca565b6100c7565b60405161006f939291906103a1565b60405180910390f35b610092600480360381019061008d919061029d565b610211565b6040516100a0929190610378565b60405180910390f35b6100b161024f565b6040516100be919061035d565b60405180910390f35b600281815481106100d757600080fd5b90600052602060002090600302016000915090508060000180546100fa9061047d565b80601f01602080910402602001604051908101604052809291908181526020018280546101269061047d565b80156101735780601f1061014857610100808354040283529160200191610173565b820191906000526020600020905b81548152906001019060200180831161015657829003601f168201915b5050505050908060010180546101889061047d565b80601f01602080910402602001604051908101604052809291908181526020018280546101b49061047d565b80156102015780601f106101d657610100808354040283529160200191610201565b820191906000526020600020905b8154815290600101906020018083116101e457829003601f168201915b5050505050908060020154905083565b60016020528060005260406000206000915090508060000160009054906101000a900460ff16908060000160019054906101000a900460ff16905082565b60008054906101000a900473ffffffffffffffffffffffffffffffffffffffff1681565b600081359050610282816104f4565b92915050565b6000813590506102978161050b565b92915050565b6000602082840312156102b3576102b26104de565b5b60006102c184828501610273565b91505092915050565b6000602082840312156102e0576102df6104de565b5b60006102ee84828501610288565b91505092915050565b61030081610402565b82525050565b61030f81610414565b82525050565b6000610320826103e6565b61032a81856103f1565b935061033a81856020860161044a565b610343816104e3565b840191505092915050565b61035781610440565b82525050565b600060208201905061037260008301846102f7565b92915050565b600060408201905061038d6000830185610306565b61039a6020830184610306565b9392505050565b600060608201905081810360008301526103bb8186610315565b905081810360208301526103cf8185610315565b90506103de604083018461034e565b949350505050565b600081519050919050565b600082825260208201905092915050565b600061040d82610420565b9050919050565b60008115159050919050565b600073ffffffffffffffffffffffffffffffffffffffff82169050919050565b6000819050919050565b60005b8381101561046857808201518184015260208101905061044d565b83811115610477576000848401525b50505050565b6000600282049050600182168061049557607f821691505b602082108114156104a9576104a86104af565b5b50919050565b7f4e487b7100000000000000000000000000000000000000000000000000000000600052602260045260246000fd5b600080fd5b6000601f19601f8301169050919050565b6104fd81610402565b811461050857600080fd5b50565b61051481610440565b811461051f57600080fd5b5056fea264697066735822122003922d01c3054a0f9099fb90c95d90048753dba7802247694bd58c99f102e50c64736f6c63430008070033",
					"opcodes": "PUSH1 0x80 PUSH1 0x40 MSTORE CALLVALUE DUP1 ISZERO PUSH3 0x11 JUMPI PUSH1 0x0 DUP1 REVERT JUMPDEST POP PUSH1 0x40 MLOAD PUSH3 0x90C CODESIZE SUB DUP1 PUSH3 0x90C DUP4 CODECOPY DUP2 DUP2 ADD PUSH1 0x40 MSTORE DUP2 ADD SWAP1 PUSH3 0x37 SWAP2 SWAP1 PUSH3 0x1CC JUMP JUMPDEST CALLER PUSH1 0x0 DUP1 PUSH2 0x100 EXP DUP2 SLOAD DUP2 PUSH20 0xFFFFFFFFFFFFFFFFFFFFFFFFFFFFFFFFFFFFFFFF MUL NOT AND SWAP1 DUP4 PUSH20 0xFFFFFFFFFFFFFFFFFFFFFFFFFFFFFFFFFFFFFFFF AND MUL OR SWAP1 SSTORE POP POP POP PUSH3 0x3A4 JUMP JUMPDEST PUSH1 0x0 PUSH3 0x96 PUSH3 0x90 DUP5 PUSH3 0x27A JUMP JUMPDEST PUSH3 0x251 JUMP JUMPDEST SWAP1 POP DUP1 DUP4 DUP3 MSTORE PUSH1 0x20 DUP3 ADD SWAP1 POP DUP3 DUP6 PUSH1 0x20 DUP7 MUL DUP3 ADD GT ISZERO PUSH3 0xBC JUMPI PUSH3 0xBB PUSH3 0x37F JUMP JUMPDEST JUMPDEST PUSH1 0x0 JUMPDEST DUP6 DUP2 LT ISZERO PUSH3 0x111 JUMPI DUP2 MLOAD PUSH8 0xFFFFFFFFFFFFFFFF DUP2 GT ISZERO PUSH3 0xE6 JUMPI PUSH3 0xE5 PUSH3 0x37A JUMP JUMPDEST JUMPDEST DUP1 DUP7 ADD PUSH3 0xF5 DUP10 DUP3 PUSH3 0x199 JUMP JUMPDEST DUP6 MSTORE PUSH1 0x20 DUP6 ADD SWAP5 POP PUSH1 0x20 DUP5 ADD SWAP4 POP POP POP PUSH1 0x1 DUP2 ADD SWAP1 POP PUSH3 0xBF JUMP JUMPDEST POP POP POP SWAP4 SWAP3 POP POP POP JUMP JUMPDEST PUSH1 0x0 PUSH3 0x132 PUSH3 0x12C DUP5 PUSH3 0x2A9 JUMP JUMPDEST PUSH3 0x251 JUMP JUMPDEST SWAP1 POP DUP3 DUP2 MSTORE PUSH1 0x20 DUP2 ADD DUP5 DUP5 DUP5 ADD GT ISZERO PUSH3 0x151 JUMPI PUSH3 0x150 PUSH3 0x384 JUMP JUMPDEST JUMPDEST PUSH3 0x15E DUP5 DUP3 DUP6 PUSH3 0x2DF JUMP JUMPDEST POP SWAP4 SWAP3 POP POP POP JUMP JUMPDEST PUSH1 0x0 DUP3 PUSH1 0x1F DUP4 ADD SLT PUSH3 0x17E JUMPI PUSH3 0x17D PUSH3 0x37A JUMP JUMPDEST JUMPDEST DUP2 MLOAD PUSH3 0x190 DUP5 DUP3 PUSH1 0x20 DUP7 ADD PUSH3 0x7F JUMP JUMPDEST SWAP2 POP POP SWAP3 SWAP2 POP POP JUMP JUMPDEST PUSH1 0x0 DUP3 PUSH1 0x1F DUP4 ADD SLT PUSH3 0x1B1 JUMPI PUSH3 0x1B0 PUSH3 0x37A JUMP JUMPDEST JUMPDEST DUP2 MLOAD PUSH3 0x1C3 DUP5 DUP3 PUSH1 0x20 DUP7 ADD PUSH3 0x11B JUMP JUMPDEST SWAP2 POP POP SWAP3 SWAP2 POP POP JUMP JUMPDEST PUSH1 0x0 DUP1 PUSH1 0x40 DUP4 DUP6 SUB SLT ISZERO PUSH3 0x1E6 JUMPI PUSH3 0x1E5 PUSH3 0x38E JUMP JUMPDEST JUMPDEST PUSH1 0x0 DUP4 ADD MLOAD PUSH8 0xFFFFFFFFFFFFFFFF DUP2 GT ISZERO PUSH3 0x207 JUMPI PUSH3 0x206 PUSH3 0x389 JUMP JUMPDEST JUMPDEST PUSH3 0x215 DUP6 DUP3 DUP7 ADD PUSH3 0x166 JUMP JUMPDEST SWAP3 POP POP PUSH1 0x20 DUP4 ADD MLOAD PUSH8 0xFFFFFFFFFFFFFFFF DUP2 GT ISZERO PUSH3 0x239 JUMPI PUSH3 0x238 PUSH3 0x389 JUMP JUMPDEST JUMPDEST PUSH3 0x247 DUP6 DUP3 DUP7 ADD PUSH3 0x166 JUMP JUMPDEST SWAP2 POP POP SWAP3 POP SWAP3 SWAP1 POP JUMP JUMPDEST PUSH1 0x0 PUSH3 0x25D PUSH3 0x270 JUMP JUMPDEST SWAP1 POP PUSH3 0x26B DUP3 DUP3 PUSH3 0x315 JUMP JUMPDEST SWAP2 SWAP1 POP JUMP JUMPDEST PUSH1 0x0 PUSH1 0x40 MLOAD SWAP1 POP SWAP1 JUMP JUMPDEST PUSH1 0x0 PUSH8 0xFFFFFFFFFFFFFFFF DUP3 GT ISZERO PUSH3 0x298 JUMPI PUSH3 0x297 PUSH3 0x34B JUMP JUMPDEST JUMPDEST PUSH1 0x20 DUP3 MUL SWAP1 POP PUSH1 0x20 DUP2 ADD SWAP1 POP SWAP2 SWAP1 POP JUMP JUMPDEST PUSH1 0x0 PUSH8 0xFFFFFFFFFFFFFFFF DUP3 GT ISZERO PUSH3 0x2C7 JUMPI PUSH3 0x2C6 PUSH3 0x34B JUMP JUMPDEST JUMPDEST PUSH3 0x2D2 DUP3 PUSH3 0x393 JUMP JUMPDEST SWAP1 POP PUSH1 0x20 DUP2 ADD SWAP1 POP SWAP2 SWAP1 POP JUMP JUMPDEST PUSH1 0x0 JUMPDEST DUP4 DUP2 LT ISZERO PUSH3 0x2FF JUMPI DUP1 DUP3 ADD MLOAD DUP2 DUP5 ADD MSTORE PUSH1 0x20 DUP2 ADD SWAP1 POP PUSH3 0x2E2 JUMP JUMPDEST DUP4 DUP2 GT ISZERO PUSH3 0x30F JUMPI PUSH1 0x0 DUP5 DUP5 ADD MSTORE JUMPDEST POP POP POP POP JUMP JUMPDEST PUSH3 0x320 DUP3 PUSH3 0x393 JUMP JUMPDEST DUP2 ADD DUP2 DUP2 LT PUSH8 0xFFFFFFFFFFFFFFFF DUP3 GT OR ISZERO PUSH3 0x342 JUMPI PUSH3 0x341 PUSH3 0x34B JUMP JUMPDEST JUMPDEST DUP1 PUSH1 0x40 MSTORE POP POP POP JUMP JUMPDEST PUSH32 0x4E487B7100000000000000000000000000000000000000000000000000000000 PUSH1 0x0 MSTORE PUSH1 0x41 PUSH1 0x4 MSTORE PUSH1 0x24 PUSH1 0x0 REVERT JUMPDEST PUSH1 0x0 DUP1 REVERT JUMPDEST PUSH1 0x0 DUP1 REVERT JUMPDEST PUSH1 0x0 DUP1 REVERT JUMPDEST PUSH1 0x0 DUP1 REVERT JUMPDEST PUSH1 0x0 DUP1 REVERT JUMPDEST PUSH1 0x0 PUSH1 0x1F NOT PUSH1 0x1F DUP4 ADD AND SWAP1 POP SWAP2 SWAP1 POP JUMP JUMPDEST PUSH2 0x558 DUP1 PUSH3 0x3B4 PUSH1 0x0 CODECOPY PUSH1 0x0 RETURN INVALID PUSH1 0x80 PUSH1 0x40 MSTORE CALLVALUE DUP1 ISZERO PUSH2 0x10 JUMPI PUSH1 0x0 DUP1 REVERT JUMPDEST POP PUSH1 0x4 CALLDATASIZE LT PUSH2 0x41 JUMPI PUSH1 0x0 CALLDATALOAD PUSH1 0xE0 SHR DUP1 PUSH4 0x3477EE2E EQ PUSH2 0x46 JUMPI DUP1 PUSH4 0xA3EC138D EQ PUSH2 0x78 JUMPI DUP1 PUSH4 0xCE606EE0 EQ PUSH2 0xA9 JUMPI JUMPDEST PUSH1 0x0 DUP1 REVERT JUMPDEST PUSH2 0x60 PUSH1 0x4 DUP1 CALLDATASIZE SUB DUP2 ADD SWAP1 PUSH2 0x5B SWAP2 SWAP1 PUSH2 0x2CA JUMP JUMPDEST PUSH2 0xC7 JUMP JUMPDEST PUSH1 0x40 MLOAD PUSH2 0x6F SWAP4 SWAP3 SWAP2 SWAP1 PUSH2 0x3A1 JUMP JUMPDEST PUSH1 0x40 MLOAD DUP1 SWAP2 SUB SWAP1 RETURN JUMPDEST PUSH2 0x92 PUSH1 0x4 DUP1 CALLDATASIZE SUB DUP2 ADD SWAP1 PUSH2 0x8D SWAP2 SWAP1 PUSH2 0x29D JUMP JUMPDEST PUSH2 0x211 JUMP JUMPDEST PUSH1 0x40 MLOAD PUSH2 0xA0 SWAP3 SWAP2 SWAP1 PUSH2 0x378 JUMP JUMPDEST PUSH1 0x40 MLOAD DUP1 SWAP2 SUB SWAP1 RETURN JUMPDEST PUSH2 0xB1 PUSH2 0x24F JUMP JUMPDEST PUSH1 0x40 MLOAD PUSH2 0xBE SWAP2 SWAP1 PUSH2 0x35D JUMP JUMPDEST PUSH1 0x40 MLOAD DUP1 SWAP2 SUB SWAP1 RETURN JUMPDEST PUSH1 0x2 DUP2 DUP2 SLOAD DUP2 LT PUSH2 0xD7 JUMPI PUSH1 0x0 DUP1 REVERT JUMPDEST SWAP1 PUSH1 0x0 MSTORE PUSH1 0x20 PUSH1 0x0 KECCAK256 SWAP1 PUSH1 0x3 MUL ADD PUSH1 0x0 SWAP2 POP SWAP1 POP DUP1 PUSH1 0x0 ADD DUP1 SLOAD PUSH2 0xFA SWAP1 PUSH2 0x47D JUMP JUMPDEST DUP1 PUSH1 0x1F ADD PUSH1 0x20 DUP1 SWAP2 DIV MUL PUSH1 0x20 ADD PUSH1 0x40 MLOAD SWAP1 DUP2 ADD PUSH1 0x40 MSTORE DUP1 SWAP3 SWAP2 SWAP1 DUP2 DUP2 MSTORE PUSH1 0x20 ADD DUP3 DUP1 SLOAD PUSH2 0x126 SWAP1 PUSH2 0x47D JUMP JUMPDEST DUP1 ISZERO PUSH2 0x173 JUMPI DUP1 PUSH1 0x1F LT PUSH2 0x148 JUMPI PUSH2 0x100 DUP1 DUP4 SLOAD DIV MUL DUP4 MSTORE SWAP2 PUSH1 0x20 ADD SWAP2 PUSH2 0x173 JUMP JUMPDEST DUP3 ADD SWAP2 SWAP1 PUSH1 0x0 MSTORE PUSH1 0x20 PUSH1 0x0 KECCAK256 SWAP1 JUMPDEST DUP2 SLOAD DUP2 MSTORE SWAP1 PUSH1 0x1 ADD SWAP1 PUSH1 0x20 ADD DUP1 DUP4 GT PUSH2 0x156 JUMPI DUP3 SWAP1 SUB PUSH1 0x1F AND DUP3 ADD SWAP2 JUMPDEST POP POP POP POP POP SWAP1 DUP1 PUSH1 0x1 ADD DUP1 SLOAD PUSH2 0x188 SWAP1 PUSH2 0x47D JUMP JUMPDEST DUP1 PUSH1 0x1F ADD PUSH1 0x20 DUP1 SWAP2 DIV MUL PUSH1 0x20 ADD PUSH1 0x40 MLOAD SWAP1 DUP2 ADD PUSH1 0x40 MSTORE DUP1 SWAP3 SWAP2 SWAP1 DUP2 DUP2 MSTORE PUSH1 0x20 ADD DUP3 DUP1 SLOAD PUSH2 0x1B4 SWAP1 PUSH2 0x47D JUMP JUMPDEST DUP1 ISZERO PUSH2 0x201 JUMPI DUP1 PUSH1 0x1F LT PUSH2 0x1D6 JUMPI PUSH2 0x100 DUP1 DUP4 SLOAD DIV MUL DUP4 MSTORE SWAP2 PUSH1 0x20 ADD SWAP2 PUSH2 0x201 JUMP JUMPDEST DUP3 ADD SWAP2 SWAP1 PUSH1 0x0 MSTORE PUSH1 0x20 PUSH1 0x0 KECCAK256 SWAP1 JUMPDEST DUP2 SLOAD DUP2 MSTORE SWAP1 PUSH1 0x1 ADD SWAP1 PUSH1 0x20 ADD DUP1 DUP4 GT PUSH2 0x1E4 JUMPI DUP3 SWAP1 SUB PUSH1 0x1F AND DUP3 ADD SWAP2 JUMPDEST POP POP POP POP POP SWAP1 DUP1 PUSH1 0x2 ADD SLOAD SWAP1 POP DUP4 JUMP JUMPDEST PUSH1 0x1 PUSH1 0x20 MSTORE DUP1 PUSH1 0x0 MSTORE PUSH1 0x40 PUSH1 0x0 KECCAK256 PUSH1 0x0 SWAP2 POP SWAP1 POP DUP1 PUSH1 0x0 ADD PUSH1 0x0 SWAP1 SLOAD SWAP1 PUSH2 0x100 EXP SWAP1 DIV PUSH1 0xFF AND SWAP1 DUP1 PUSH1 0x0 ADD PUSH1 0x1 SWAP1 SLOAD SWAP1 PUSH2 0x100 EXP SWAP1 DIV PUSH1 0xFF AND SWAP1 POP DUP3 JUMP JUMPDEST PUSH1 0x0 DUP1 SLOAD SWAP1 PUSH2 0x100 EXP SWAP1 DIV PUSH20 0xFFFFFFFFFFFFFFFFFFFFFFFFFFFFFFFFFFFFFFFF AND DUP2 JUMP JUMPDEST PUSH1 0x0 DUP2 CALLDATALOAD SWAP1 POP PUSH2 0x282 DUP2 PUSH2 0x4F4 JUMP JUMPDEST SWAP3 SWAP2 POP POP JUMP JUMPDEST PUSH1 0x0 DUP2 CALLDATALOAD SWAP1 POP PUSH2 0x297 DUP2 PUSH2 0x50B JUMP JUMPDEST SWAP3 SWAP2 POP POP JUMP JUMPDEST PUSH1 0x0 PUSH1 0x20 DUP3 DUP5 SUB SLT ISZERO PUSH2 0x2B3 JUMPI PUSH2 0x2B2 PUSH2 0x4DE JUMP JUMPDEST JUMPDEST PUSH1 0x0 PUSH2 0x2C1 DUP5 DUP3 DUP6 ADD PUSH2 0x273 JUMP JUMPDEST SWAP2 POP POP SWAP3 SWAP2 POP POP JUMP JUMPDEST PUSH1 0x0 PUSH1 0x20 DUP3 DUP5 SUB SLT ISZERO PUSH2 0x2E0 JUMPI PUSH2 0x2DF PUSH2 0x4DE JUMP JUMPDEST JUMPDEST PUSH1 0x0 PUSH2 0x2EE DUP5 DUP3 DUP6 ADD PUSH2 0x288 JUMP JUMPDEST SWAP2 POP POP SWAP3 SWAP2 POP POP JUMP JUMPDEST PUSH2 0x300 DUP2 PUSH2 0x402 JUMP JUMPDEST DUP3 MSTORE POP POP JUMP JUMPDEST PUSH2 0x30F DUP2 PUSH2 0x414 JUMP JUMPDEST DUP3 MSTORE POP POP JUMP JUMPDEST PUSH1 0x0 PUSH2 0x320 DUP3 PUSH2 0x3E6 JUMP JUMPDEST PUSH2 0x32A DUP2 DUP6 PUSH2 0x3F1 JUMP JUMPDEST SWAP4 POP PUSH2 0x33A DUP2 DUP6 PUSH1 0x20 DUP7 ADD PUSH2 0x44A JUMP JUMPDEST PUSH2 0x343 DUP2 PUSH2 0x4E3 JUMP JUMPDEST DUP5 ADD SWAP2 POP POP SWAP3 SWAP2 POP POP JUMP JUMPDEST PUSH2 0x357 DUP2 PUSH2 0x440 JUMP JUMPDEST DUP3 MSTORE POP POP JUMP JUMPDEST PUSH1 0x0 PUSH1 0x20 DUP3 ADD SWAP1 POP PUSH2 0x372 PUSH1 0x0 DUP4 ADD DUP5 PUSH2 0x2F7 JUMP JUMPDEST SWAP3 SWAP2 POP POP JUMP JUMPDEST PUSH1 0x0 PUSH1 0x40 DUP3 ADD SWAP1 POP PUSH2 0x38D PUSH1 0x0 DUP4 ADD DUP6 PUSH2 0x306 JUMP JUMPDEST PUSH2 0x39A PUSH1 0x20 DUP4 ADD DUP5 PUSH2 0x306 JUMP JUMPDEST SWAP4 SWAP3 POP POP POP JUMP JUMPDEST PUSH1 0x0 PUSH1 0x60 DUP3 ADD SWAP1 POP DUP2 DUP2 SUB PUSH1 0x0 DUP4 ADD MSTORE PUSH2 0x3BB DUP2 DUP7 PUSH2 0x315 JUMP JUMPDEST SWAP1 POP DUP2 DUP2 SUB PUSH1 0x20 DUP4 ADD MSTORE PUSH2 0x3CF DUP2 DUP6 PUSH2 0x315 JUMP JUMPDEST SWAP1 POP PUSH2 0x3DE PUSH1 0x40 DUP4 ADD DUP5 PUSH2 0x34E JUMP JUMPDEST SWAP5 SWAP4 POP POP POP POP JUMP JUMPDEST PUSH1 0x0 DUP2 MLOAD SWAP1 POP SWAP2 SWAP1 POP JUMP JUMPDEST PUSH1 0x0 DUP3 DUP3 MSTORE PUSH1 0x20 DUP3 ADD SWAP1 POP SWAP3 SWAP2 POP POP JUMP JUMPDEST PUSH1 0x0 PUSH2 0x40D DUP3 PUSH2 0x420 JUMP JUMPDEST SWAP1 POP SWAP2 SWAP1 POP JUMP JUMPDEST PUSH1 0x0 DUP2 ISZERO ISZERO SWAP1 POP SWAP2 SWAP1 POP JUMP JUMPDEST PUSH1 0x0 PUSH20 0xFFFFFFFFFFFFFFFFFFFFFFFFFFFFFFFFFFFFFFFF DUP3 AND SWAP1 POP SWAP2 SWAP1 POP JUMP JUMPDEST PUSH1 0x0 DUP2 SWAP1 POP SWAP2 SWAP1 POP JUMP JUMPDEST PUSH1 0x0 JUMPDEST DUP4 DUP2 LT ISZERO PUSH2 0x468 JUMPI DUP1 DUP3 ADD MLOAD DUP2 DUP5 ADD MSTORE PUSH1 0x20 DUP2 ADD SWAP1 POP PUSH2 0x44D JUMP JUMPDEST DUP4 DUP2 GT ISZERO PUSH2 0x477 JUMPI PUSH1 0x0 DUP5 DUP5 ADD MSTORE JUMPDEST POP POP POP POP JUMP JUMPDEST PUSH1 0x0 PUSH1 0x2 DUP3 DIV SWAP1 POP PUSH1 0x1 DUP3 AND DUP1 PUSH2 0x495 JUMPI PUSH1 0x7F DUP3 AND SWAP2 POP JUMPDEST PUSH1 0x20 DUP3 LT DUP2 EQ ISZERO PUSH2 0x4A9 JUMPI PUSH2 0x4A8 PUSH2 0x4AF JUMP JUMPDEST JUMPDEST POP SWAP2 SWAP1 POP JUMP JUMPDEST PUSH32 0x4E487B7100000000000000000000000000000000000000000000000000000000 PUSH1 0x0 MSTORE PUSH1 0x22 PUSH1 0x4 MSTORE PUSH1 0x24 PUSH1 0x0 REVERT JUMPDEST PUSH1 0x0 DUP1 REVERT JUMPDEST PUSH1 0x0 PUSH1 0x1F NOT PUSH1 0x1F DUP4 ADD AND SWAP1 POP SWAP2 SWAP1 POP JUMP JUMPDEST PUSH2 0x4FD DUP2 PUSH2 0x402 JUMP JUMPDEST DUP2 EQ PUSH2 0x508 JUMPI PUSH1 0x0 DUP1 REVERT JUMPDEST POP JUMP JUMPDEST PUSH2 0x514 DUP2 PUSH2 0x440 JUMP JUMPDEST DUP2 EQ PUSH2 0x51F JUMPI PUSH1 0x0 DUP1 REVERT JUMPDEST POP JUMP INVALID LOG2 PUSH5 0x6970667358 0x22 SLT KECCAK256 SUB SWAP3 0x2D ADD 0xC3 SDIV 0x4A 0xF SWAP1 SWAP10 0xFB SWAP1 0xC9 0x5D SWAP1 DIV DUP8 MSTORE8 0xDB 0xA7 DUP1 0x22 SELFBALANCE PUSH10 0x4BD58C99F102E50C6473 PUSH16 0x6C634300080700330000000000000000 "
				},
				"gasEstimates": {
					"creation": {
						"codeDepositCost": "273600",
						"executionCost": "infinite",
						"totalCost": "infinite"
					},
					"external": {
						"candidates(uint256)": "infinite",
						"contractOwner()": "2533",
						"voters(address)": "infinite"
					}
				},
				"methodIdentifiers": {
					"candidates(uint256)": "3477ee2e",
					"contractOwner()": "ce606ee0",
					"voters(address)": "a3ec138d"
				}
			},
			"storageLayout": {
				"storage": [
					{
						"astId": 15,
						"contract": "contracts/Ballot/MyBallot.sol:MyBallot",
						"label": "contractOwner",
						"offset": 0,
						"slot": "0",
						"type": "t_address"
					},
					{
						"astId": 20,
						"contract": "contracts/Ballot/MyBallot.sol:MyBallot",
						"label": "voters",
						"offset": 0,
						"slot": "1",
						"type": "t_mapping(t_address,t_struct(Voter)6_storage)"
					},
					{
						"astId": 24,
						"contract": "contracts/Ballot/MyBallot.sol:MyBallot",
						"label": "candidates",
						"offset": 0,
						"slot": "2",
						"type": "t_array(t_struct(Candidate)13_storage)dyn_storage"
					}
				],
				"types": {
					"t_address": {
						"encoding": "inplace",
						"label": "address",
						"numberOfBytes": "20"
					},
					"t_array(t_struct(Candidate)13_storage)dyn_storage": {
						"base": "t_struct(Candidate)13_storage",
						"encoding": "dynamic_array",
						"label": "struct MyBallot.Candidate[]",
						"numberOfBytes": "32"
					},
					"t_bool": {
						"encoding": "inplace",
						"label": "bool",
						"numberOfBytes": "1"
					},
					"t_mapping(t_address,t_struct(Voter)6_storage)": {
						"encoding": "mapping",
						"key": "t_address",
						"label": "mapping(address => struct MyBallot.Voter)",
						"numberOfBytes": "32",
						"value": "t_struct(Voter)6_storage"
					},
					"t_string_storage": {
						"encoding": "bytes",
						"label": "string",
						"numberOfBytes": "32"
					},
					"t_struct(Candidate)13_storage": {
						"encoding": "inplace",
						"label": "struct MyBallot.Candidate",
						"members": [
							{
								"astId": 8,
								"contract": "contracts/Ballot/MyBallot.sol:MyBallot",
								"label": "name",
								"offset": 0,
								"slot": "0",
								"type": "t_string_storage"
							},
							{
								"astId": 10,
								"contract": "contracts/Ballot/MyBallot.sol:MyBallot",
								"label": "party",
								"offset": 0,
								"slot": "1",
								"type": "t_string_storage"
							},
							{
								"astId": 12,
								"contract": "contracts/Ballot/MyBallot.sol:MyBallot",
								"label": "votesCount",
								"offset": 0,
								"slot": "2",
								"type": "t_uint256"
							}
						],
						"numberOfBytes": "96"
					},
					"t_struct(Voter)6_storage": {
						"encoding": "inplace",
						"label": "struct MyBallot.Voter",
						"members": [
							{
								"astId": 3,
								"contract": "contracts/Ballot/MyBallot.sol:MyBallot",
								"label": "canVote",
								"offset": 0,
								"slot": "0",
								"type": "t_bool"
							},
							{
								"astId": 5,
								"contract": "contracts/Ballot/MyBallot.sol:MyBallot",
								"label": "hasVoted",
								"offset": 1,
								"slot": "0",
								"type": "t_bool"
							}
						],
						"numberOfBytes": "32"
					},
					"t_uint256": {
						"encoding": "inplace",
						"label": "uint256",
						"numberOfBytes": "32"
					}
				}
			},
			"userdoc": {
				"kind": "user",
				"methods": {},
				"version": 1
			}
		}
	}
}