{
	"contracts/Ballot/MyBallot.sol": {
		"MyBallot": {
			"abi": [
				{
					"inputs": [
						{
							"internalType": "string[]",
							"name": "proposalCandidatesName",
							"type": "string[]"
						},
						{
							"internalType": "string[]",
							"name": "proposalCandidatesParty",
							"type": "string[]"
						}
					],
					"stateMutability": "nonpayable",
					"type": "constructor"
				},
				{
					"inputs": [
						{
							"internalType": "uint256",
							"name": "",
							"type": "uint256"
						}
					],
					"name": "candidates",
					"outputs": [
						{
							"internalType": "string",
							"name": "name",
							"type": "string"
						},
						{
							"internalType": "string",
							"name": "party",
							"type": "string"
						},
						{
							"internalType": "uint256",
							"name": "votesCount",
							"type": "uint256"
						}
					],
					"stateMutability": "view",
					"type": "function"
				},
				{
					"inputs": [],
					"name": "contractOwner",
					"outputs": [
						{
							"internalType": "address",
							"name": "",
							"type": "address"
						}
					],
					"stateMutability": "view",
					"type": "function"
				},
				{
					"inputs": [
						{
							"internalType": "address",
							"name": "",
							"type": "address"
						}
					],
					"name": "voters",
					"outputs": [
						{
							"internalType": "bool",
							"name": "canVote",
							"type": "bool"
						},
						{
							"internalType": "bool",
							"name": "hasVoted",
							"type": "bool"
						}
					],
					"stateMutability": "view",
					"type": "function"
				}
			],
			"devdoc": {
				"kind": "dev",
				"methods": {},
				"version": 1
			},
			"evm": {
				"assembly": "    /* \"contracts/Ballot/MyBallot.sol\":130:2522  contract MyBallot {... */\n  mstore(0x40, 0x80)\n    /* \"contracts/Ballot/MyBallot.sol\":499:940  constructor(string[] memory proposalCandidatesName, string[] memory proposalCandidatesParty) {... */\n  callvalue\n  dup1\n  iszero\n  tag_1\n  jumpi\n  0x00\n  dup1\n  revert\ntag_1:\n  pop\n  mload(0x40)\n  sub(codesize, bytecodeSize)\n  dup1\n  bytecodeSize\n  dup4\n  codecopy\n  dup2\n  dup2\n  add\n  0x40\n  mstore\n  dup2\n  add\n  swap1\n  tag_2\n  swap2\n  swap1\n  tag_3\n  jump\t// in\ntag_2:\n    /* \"contracts/Ballot/MyBallot.sol\":629:639  msg.sender */\n  caller\n    /* \"contracts/Ballot/MyBallot.sol\":613:626  contractOwner */\n  0x00\n  dup1\n    /* \"contracts/Ballot/MyBallot.sol\":613:639  contractOwner = msg.sender */\n  0x0100\n  exp\n  dup2\n  sload\n  dup2\n  0xffffffffffffffffffffffffffffffffffffffff\n  mul\n  not\n  and\n  swap1\n  dup4\n  0xffffffffffffffffffffffffffffffffffffffff\n  and\n  mul\n  or\n  swap1\n  sstore\n  pop\n    /* \"contracts/Ballot/MyBallot.sol\":657:667  uint index */\n  0x00\n    /* \"contracts/Ballot/MyBallot.sol\":652:933  for (uint index = 0; index < proposalCandidatesName.length; index++) {... */\ntag_6:\n    /* \"contracts/Ballot/MyBallot.sol\":681:703  proposalCandidatesName */\n  dup3\n    /* \"contracts/Ballot/MyBallot.sol\":681:710  proposalCandidatesName.length */\n  mload\n    /* \"contracts/Ballot/MyBallot.sol\":673:678  index */\n  dup2\n    /* \"contracts/Ballot/MyBallot.sol\":673:710  index < proposalCandidatesName.length */\n  lt\n    /* \"contracts/Ballot/MyBallot.sol\":652:933  for (uint index = 0; index < proposalCandidatesName.length; index++) {... */\n  iszero\n  tag_7\n  jumpi\n    /* \"contracts/Ballot/MyBallot.sol\":736:746  candidates */\n  0x02\n    /* \"contracts/Ballot/MyBallot.sol\":752:920  Candidate({... */\n  mload(0x40)\n  dup1\n  0x60\n  add\n  0x40\n  mstore\n  dup1\n    /* \"contracts/Ballot/MyBallot.sol\":787:809  proposalCandidatesName */\n  dup6\n    /* \"contracts/Ballot/MyBallot.sol\":810:815  index */\n  dup5\n    /* \"contracts/Ballot/MyBallot.sol\":787:816  proposalCandidatesName[index] */\n  dup2\n  mload\n  dup2\n  lt\n  tag_9\n  jumpi\n  tag_10\n  tag_11\n  jump\t// in\ntag_10:\ntag_9:\n  0x20\n  mul\n  0x20\n  add\n  add\n  mload\n    /* \"contracts/Ballot/MyBallot.sol\":752:920  Candidate({... */\n  dup2\n  mstore\n  0x20\n  add\n    /* \"contracts/Ballot/MyBallot.sol\":842:865  proposalCandidatesParty */\n  dup5\n    /* \"contracts/Ballot/MyBallot.sol\":866:871  index */\n  dup5\n    /* \"contracts/Ballot/MyBallot.sol\":842:872  proposalCandidatesParty[index] */\n  dup2\n  mload\n  dup2\n  lt\n  tag_12\n  jumpi\n  tag_13\n  tag_11\n  jump\t// in\ntag_13:\ntag_12:\n  0x20\n  mul\n  0x20\n  add\n  add\n  mload\n    /* \"contracts/Ballot/MyBallot.sol\":752:920  Candidate({... */\n  dup2\n  mstore\n  0x20\n  add\n    /* \"contracts/Ballot/MyBallot.sol\":903:904  0 */\n  0x00\n    /* \"contracts/Ballot/MyBallot.sol\":752:920  Candidate({... */\n  dup2\n  mstore\n  pop\n    /* \"contracts/Ballot/MyBallot.sol\":736:921  candidates.push(Candidate({... */\n  swap1\n  dup1\n  0x01\n  dup2\n  sload\n  add\n  dup1\n  dup3\n  sstore\n  dup1\n  swap2\n  pop\n  pop\n  0x01\n  swap1\n  sub\n  swap1\n  0x00\n  mstore\n  keccak256(0x00, 0x20)\n  swap1\n  0x03\n  mul\n  add\n  0x00\n  swap1\n  swap2\n  swap1\n  swap2\n  swap1\n  swap2\n  pop\n  0x00\n  dup3\n  add\n  mload\n  dup2\n  0x00\n  add\n  swap1\n  dup2\n  tag_15\n  swap2\n  swap1\n  tag_16\n  jump\t// in\ntag_15:\n  pop\n  0x20\n  dup3\n  add\n  mload\n  dup2\n  0x01\n  add\n  swap1\n  dup2\n  tag_17\n  swap2\n  swap1\n  tag_16\n  jump\t// in\ntag_17:\n  pop\n  0x40\n  dup3\n  add\n  mload\n  dup2\n  0x02\n  add\n  sstore\n  pop\n  pop\n    /* \"contracts/Ballot/MyBallot.sol\":712:719  index++ */\n  dup1\n  dup1\n  tag_18\n  swap1\n  tag_19\n  jump\t// in\ntag_18:\n  swap2\n  pop\n  pop\n    /* \"contracts/Ballot/MyBallot.sol\":652:933  for (uint index = 0; index < proposalCandidatesName.length; index++) {... */\n  jump(tag_6)\ntag_7:\n  pop\n    /* \"contracts/Ballot/MyBallot.sol\":499:940  constructor(string[] memory proposalCandidatesName, string[] memory proposalCandidatesParty) {... */\n  pop\n  pop\n    /* \"contracts/Ballot/MyBallot.sol\":130:2522  contract MyBallot {... */\n  jump(tag_20)\n    /* \"#utility.yul\":7:82   */\ntag_21:\n    /* \"#utility.yul\":40:46   */\n  0x00\n    /* \"#utility.yul\":73:75   */\n  0x40\n    /* \"#utility.yul\":67:76   */\n  mload\n    /* \"#utility.yul\":57:76   */\n  swap1\n  pop\n    /* \"#utility.yul\":7:82   */\n  swap1\n  jump\t// out\n    /* \"#utility.yul\":88:205   */\ntag_22:\n    /* \"#utility.yul\":197:198   */\n  0x00\n    /* \"#utility.yul\":194:195   */\n  dup1\n    /* \"#utility.yul\":187:199   */\n  revert\n    /* \"#utility.yul\":211:328   */\ntag_23:\n    /* \"#utility.yul\":320:321   */\n  0x00\n    /* \"#utility.yul\":317:318   */\n  dup1\n    /* \"#utility.yul\":310:322   */\n  revert\n    /* \"#utility.yul\":334:451   */\ntag_24:\n    /* \"#utility.yul\":443:444   */\n  0x00\n    /* \"#utility.yul\":440:441   */\n  dup1\n    /* \"#utility.yul\":433:445   */\n  revert\n    /* \"#utility.yul\":457:559   */\ntag_25:\n    /* \"#utility.yul\":498:504   */\n  0x00\n    /* \"#utility.yul\":549:551   */\n  0x1f\n    /* \"#utility.yul\":545:552   */\n  not\n    /* \"#utility.yul\":540:542   */\n  0x1f\n    /* \"#utility.yul\":533:538   */\n  dup4\n    /* \"#utility.yul\":529:543   */\n  add\n    /* \"#utility.yul\":525:553   */\n  and\n    /* \"#utility.yul\":515:553   */\n  swap1\n  pop\n    /* \"#utility.yul\":457:559   */\n  swap2\n  swap1\n  pop\n  jump\t// out\n    /* \"#utility.yul\":565:745   */\ntag_26:\n    /* \"#utility.yul\":613:690   */\n  0x4e487b7100000000000000000000000000000000000000000000000000000000\n    /* \"#utility.yul\":610:611   */\n  0x00\n    /* \"#utility.yul\":603:691   */\n  mstore\n    /* \"#utility.yul\":710:714   */\n  0x41\n    /* \"#utility.yul\":707:708   */\n  0x04\n    /* \"#utility.yul\":700:715   */\n  mstore\n    /* \"#utility.yul\":734:738   */\n  0x24\n    /* \"#utility.yul\":731:732   */\n  0x00\n    /* \"#utility.yul\":724:739   */\n  revert\n    /* \"#utility.yul\":751:1032   */\ntag_27:\n    /* \"#utility.yul\":834:861   */\n  tag_66\n    /* \"#utility.yul\":856:860   */\n  dup3\n    /* \"#utility.yul\":834:861   */\n  tag_25\n  jump\t// in\ntag_66:\n    /* \"#utility.yul\":826:832   */\n  dup2\n    /* \"#utility.yul\":822:862   */\n  add\n    /* \"#utility.yul\":964:970   */\n  dup2\n    /* \"#utility.yul\":952:962   */\n  dup2\n    /* \"#utility.yul\":949:971   */\n  lt\n    /* \"#utility.yul\":928:946   */\n  0xffffffffffffffff\n    /* \"#utility.yul\":916:926   */\n  dup3\n    /* \"#utility.yul\":913:947   */\n  gt\n    /* \"#utility.yul\":910:972   */\n  or\n    /* \"#utility.yul\":907:995   */\n  iszero\n  tag_67\n  jumpi\n    /* \"#utility.yul\":975:993   */\n  tag_68\n  tag_26\n  jump\t// in\ntag_68:\n    /* \"#utility.yul\":907:995   */\ntag_67:\n    /* \"#utility.yul\":1015:1025   */\n  dup1\n    /* \"#utility.yul\":1011:1013   */\n  0x40\n    /* \"#utility.yul\":1004:1026   */\n  mstore\n    /* \"#utility.yul\":794:1032   */\n  pop\n    /* \"#utility.yul\":751:1032   */\n  pop\n  pop\n  jump\t// out\n    /* \"#utility.yul\":1038:1167   */\ntag_28:\n    /* \"#utility.yul\":1072:1078   */\n  0x00\n    /* \"#utility.yul\":1099:1119   */\n  tag_70\n  tag_21\n  jump\t// in\ntag_70:\n    /* \"#utility.yul\":1089:1119   */\n  swap1\n  pop\n    /* \"#utility.yul\":1128:1161   */\n  tag_71\n    /* \"#utility.yul\":1156:1160   */\n  dup3\n    /* \"#utility.yul\":1148:1154   */\n  dup3\n    /* \"#utility.yul\":1128:1161   */\n  tag_27\n  jump\t// in\ntag_71:\n    /* \"#utility.yul\":1038:1167   */\n  swap2\n  swap1\n  pop\n  jump\t// out\n    /* \"#utility.yul\":1173:1494   */\ntag_29:\n    /* \"#utility.yul\":1260:1264   */\n  0x00\n    /* \"#utility.yul\":1350:1368   */\n  0xffffffffffffffff\n    /* \"#utility.yul\":1342:1348   */\n  dup3\n    /* \"#utility.yul\":1339:1369   */\n  gt\n    /* \"#utility.yul\":1336:1392   */\n  iszero\n  tag_73\n  jumpi\n    /* \"#utility.yul\":1372:1390   */\n  tag_74\n  tag_26\n  jump\t// in\ntag_74:\n    /* \"#utility.yul\":1336:1392   */\ntag_73:\n    /* \"#utility.yul\":1422:1426   */\n  0x20\n    /* \"#utility.yul\":1414:1420   */\n  dup3\n    /* \"#utility.yul\":1410:1427   */\n  mul\n    /* \"#utility.yul\":1402:1427   */\n  swap1\n  pop\n    /* \"#utility.yul\":1482:1486   */\n  0x20\n    /* \"#utility.yul\":1476:1480   */\n  dup2\n    /* \"#utility.yul\":1472:1487   */\n  add\n    /* \"#utility.yul\":1464:1487   */\n  swap1\n  pop\n    /* \"#utility.yul\":1173:1494   */\n  swap2\n  swap1\n  pop\n  jump\t// out\n    /* \"#utility.yul\":1500:1617   */\ntag_30:\n    /* \"#utility.yul\":1609:1610   */\n  0x00\n    /* \"#utility.yul\":1606:1607   */\n  dup1\n    /* \"#utility.yul\":1599:1611   */\n  revert\n    /* \"#utility.yul\":1623:1740   */\ntag_31:\n    /* \"#utility.yul\":1732:1733   */\n  0x00\n    /* \"#utility.yul\":1729:1730   */\n  dup1\n    /* \"#utility.yul\":1722:1734   */\n  revert\n    /* \"#utility.yul\":1746:2054   */\ntag_32:\n    /* \"#utility.yul\":1808:1812   */\n  0x00\n    /* \"#utility.yul\":1898:1916   */\n  0xffffffffffffffff\n    /* \"#utility.yul\":1890:1896   */\n  dup3\n    /* \"#utility.yul\":1887:1917   */\n  gt\n    /* \"#utility.yul\":1884:1940   */\n  iszero\n  tag_78\n  jumpi\n    /* \"#utility.yul\":1920:1938   */\n  tag_79\n  tag_26\n  jump\t// in\ntag_79:\n    /* \"#utility.yul\":1884:1940   */\ntag_78:\n    /* \"#utility.yul\":1958:1987   */\n  tag_80\n    /* \"#utility.yul\":1980:1986   */\n  dup3\n    /* \"#utility.yul\":1958:1987   */\n  tag_25\n  jump\t// in\ntag_80:\n    /* \"#utility.yul\":1950:1987   */\n  swap1\n  pop\n    /* \"#utility.yul\":2042:2046   */\n  0x20\n    /* \"#utility.yul\":2036:2040   */\n  dup2\n    /* \"#utility.yul\":2032:2047   */\n  add\n    /* \"#utility.yul\":2024:2047   */\n  swap1\n  pop\n    /* \"#utility.yul\":1746:2054   */\n  swap2\n  swap1\n  pop\n  jump\t// out\n    /* \"#utility.yul\":2060:2306   */\ntag_33:\n    /* \"#utility.yul\":2141:2142   */\n  0x00\n    /* \"#utility.yul\":2151:2264   */\ntag_82:\n    /* \"#utility.yul\":2165:2171   */\n  dup4\n    /* \"#utility.yul\":2162:2163   */\n  dup2\n    /* \"#utility.yul\":2159:2172   */\n  lt\n    /* \"#utility.yul\":2151:2264   */\n  iszero\n  tag_84\n  jumpi\n    /* \"#utility.yul\":2250:2251   */\n  dup1\n    /* \"#utility.yul\":2245:2248   */\n  dup3\n    /* \"#utility.yul\":2241:2252   */\n  add\n    /* \"#utility.yul\":2235:2253   */\n  mload\n    /* \"#utility.yul\":2231:2232   */\n  dup2\n    /* \"#utility.yul\":2226:2229   */\n  dup5\n    /* \"#utility.yul\":2222:2233   */\n  add\n    /* \"#utility.yul\":2215:2254   */\n  mstore\n    /* \"#utility.yul\":2187:2189   */\n  0x20\n    /* \"#utility.yul\":2184:2185   */\n  dup2\n    /* \"#utility.yul\":2180:2190   */\n  add\n    /* \"#utility.yul\":2175:2190   */\n  swap1\n  pop\n    /* \"#utility.yul\":2151:2264   */\n  jump(tag_82)\ntag_84:\n    /* \"#utility.yul\":2298:2299   */\n  0x00\n    /* \"#utility.yul\":2289:2295   */\n  dup5\n    /* \"#utility.yul\":2284:2287   */\n  dup5\n    /* \"#utility.yul\":2280:2296   */\n  add\n    /* \"#utility.yul\":2273:2300   */\n  mstore\n    /* \"#utility.yul\":2122:2306   */\n  pop\n    /* \"#utility.yul\":2060:2306   */\n  pop\n  pop\n  pop\n  jump\t// out\n    /* \"#utility.yul\":2312:2746   */\ntag_34:\n    /* \"#utility.yul\":2401:2406   */\n  0x00\n    /* \"#utility.yul\":2426:2492   */\n  tag_86\n    /* \"#utility.yul\":2442:2491   */\n  tag_87\n    /* \"#utility.yul\":2484:2490   */\n  dup5\n    /* \"#utility.yul\":2442:2491   */\n  tag_32\n  jump\t// in\ntag_87:\n    /* \"#utility.yul\":2426:2492   */\n  tag_28\n  jump\t// in\ntag_86:\n    /* \"#utility.yul\":2417:2492   */\n  swap1\n  pop\n    /* \"#utility.yul\":2515:2521   */\n  dup3\n    /* \"#utility.yul\":2508:2513   */\n  dup2\n    /* \"#utility.yul\":2501:2522   */\n  mstore\n    /* \"#utility.yul\":2553:2557   */\n  0x20\n    /* \"#utility.yul\":2546:2551   */\n  dup2\n    /* \"#utility.yul\":2542:2558   */\n  add\n    /* \"#utility.yul\":2591:2594   */\n  dup5\n    /* \"#utility.yul\":2582:2588   */\n  dup5\n    /* \"#utility.yul\":2577:2580   */\n  dup5\n    /* \"#utility.yul\":2573:2589   */\n  add\n    /* \"#utility.yul\":2570:2595   */\n  gt\n    /* \"#utility.yul\":2567:2679   */\n  iszero\n  tag_88\n  jumpi\n    /* \"#utility.yul\":2598:2677   */\n  tag_89\n  tag_31\n  jump\t// in\ntag_89:\n    /* \"#utility.yul\":2567:2679   */\ntag_88:\n    /* \"#utility.yul\":2688:2740   */\n  tag_90\n    /* \"#utility.yul\":2733:2739   */\n  dup5\n    /* \"#utility.yul\":2728:2731   */\n  dup3\n    /* \"#utility.yul\":2723:2726   */\n  dup6\n    /* \"#utility.yul\":2688:2740   */\n  tag_33\n  jump\t// in\ntag_90:\n    /* \"#utility.yul\":2407:2746   */\n  pop\n    /* \"#utility.yul\":2312:2746   */\n  swap4\n  swap3\n  pop\n  pop\n  pop\n  jump\t// out\n    /* \"#utility.yul\":2766:3121   */\ntag_35:\n    /* \"#utility.yul\":2833:2838   */\n  0x00\n    /* \"#utility.yul\":2882:2885   */\n  dup3\n    /* \"#utility.yul\":2875:2879   */\n  0x1f\n    /* \"#utility.yul\":2867:2873   */\n  dup4\n    /* \"#utility.yul\":2863:2880   */\n  add\n    /* \"#utility.yul\":2859:2886   */\n  slt\n    /* \"#utility.yul\":2849:2971   */\n  tag_92\n  jumpi\n    /* \"#utility.yul\":2890:2969   */\n  tag_93\n  tag_24\n  jump\t// in\ntag_93:\n    /* \"#utility.yul\":2849:2971   */\ntag_92:\n    /* \"#utility.yul\":3000:3006   */\n  dup2\n    /* \"#utility.yul\":2994:3007   */\n  mload\n    /* \"#utility.yul\":3025:3115   */\n  tag_94\n    /* \"#utility.yul\":3111:3114   */\n  dup5\n    /* \"#utility.yul\":3103:3109   */\n  dup3\n    /* \"#utility.yul\":3096:3100   */\n  0x20\n    /* \"#utility.yul\":3088:3094   */\n  dup7\n    /* \"#utility.yul\":3084:3101   */\n  add\n    /* \"#utility.yul\":3025:3115   */\n  tag_34\n  jump\t// in\ntag_94:\n    /* \"#utility.yul\":3016:3115   */\n  swap2\n  pop\n    /* \"#utility.yul\":2839:3121   */\n  pop\n    /* \"#utility.yul\":2766:3121   */\n  swap3\n  swap2\n  pop\n  pop\n  jump\t// out\n    /* \"#utility.yul\":3143:4103   */\ntag_36:\n    /* \"#utility.yul\":3260:3265   */\n  0x00\n    /* \"#utility.yul\":3285:3376   */\n  tag_96\n    /* \"#utility.yul\":3301:3375   */\n  tag_97\n    /* \"#utility.yul\":3368:3374   */\n  dup5\n    /* \"#utility.yul\":3301:3375   */\n  tag_29\n  jump\t// in\ntag_97:\n    /* \"#utility.yul\":3285:3376   */\n  tag_28\n  jump\t// in\ntag_96:\n    /* \"#utility.yul\":3276:3376   */\n  swap1\n  pop\n    /* \"#utility.yul\":3396:3401   */\n  dup1\n    /* \"#utility.yul\":3425:3431   */\n  dup4\n    /* \"#utility.yul\":3418:3423   */\n  dup3\n    /* \"#utility.yul\":3411:3432   */\n  mstore\n    /* \"#utility.yul\":3459:3463   */\n  0x20\n    /* \"#utility.yul\":3452:3457   */\n  dup3\n    /* \"#utility.yul\":3448:3464   */\n  add\n    /* \"#utility.yul\":3441:3464   */\n  swap1\n  pop\n    /* \"#utility.yul\":3512:3516   */\n  0x20\n    /* \"#utility.yul\":3504:3510   */\n  dup5\n    /* \"#utility.yul\":3500:3517   */\n  mul\n    /* \"#utility.yul\":3492:3498   */\n  dup4\n    /* \"#utility.yul\":3488:3518   */\n  add\n    /* \"#utility.yul\":3541:3544   */\n  dup6\n    /* \"#utility.yul\":3533:3539   */\n  dup2\n    /* \"#utility.yul\":3530:3545   */\n  gt\n    /* \"#utility.yul\":3527:3649   */\n  iszero\n  tag_98\n  jumpi\n    /* \"#utility.yul\":3560:3639   */\n  tag_99\n  tag_30\n  jump\t// in\ntag_99:\n    /* \"#utility.yul\":3527:3649   */\ntag_98:\n    /* \"#utility.yul\":3675:3681   */\n  dup4\n    /* \"#utility.yul\":3658:4097   */\ntag_100:\n    /* \"#utility.yul\":3692:3698   */\n  dup2\n    /* \"#utility.yul\":3687:3690   */\n  dup2\n    /* \"#utility.yul\":3684:3699   */\n  lt\n    /* \"#utility.yul\":3658:4097   */\n  iszero\n  tag_102\n  jumpi\n    /* \"#utility.yul\":3774:3777   */\n  dup1\n    /* \"#utility.yul\":3768:3778   */\n  mload\n    /* \"#utility.yul\":3810:3828   */\n  0xffffffffffffffff\n    /* \"#utility.yul\":3797:3808   */\n  dup2\n    /* \"#utility.yul\":3794:3829   */\n  gt\n    /* \"#utility.yul\":3791:3913   */\n  iszero\n  tag_103\n  jumpi\n    /* \"#utility.yul\":3832:3911   */\n  tag_104\n  tag_24\n  jump\t// in\ntag_104:\n    /* \"#utility.yul\":3791:3913   */\ntag_103:\n    /* \"#utility.yul\":3956:3967   */\n  dup1\n    /* \"#utility.yul\":3948:3954   */\n  dup7\n    /* \"#utility.yul\":3944:3968   */\n  add\n    /* \"#utility.yul\":3994:4052   */\n  tag_105\n    /* \"#utility.yul\":4048:4051   */\n  dup10\n    /* \"#utility.yul\":4036:4046   */\n  dup3\n    /* \"#utility.yul\":3994:4052   */\n  tag_35\n  jump\t// in\ntag_105:\n    /* \"#utility.yul\":3989:3992   */\n  dup6\n    /* \"#utility.yul\":3982:4053   */\n  mstore\n    /* \"#utility.yul\":4082:4086   */\n  0x20\n    /* \"#utility.yul\":4077:4080   */\n  dup6\n    /* \"#utility.yul\":4073:4087   */\n  add\n    /* \"#utility.yul\":4066:4087   */\n  swap5\n  pop\n    /* \"#utility.yul\":3734:4097   */\n  pop\n  pop\n    /* \"#utility.yul\":3718:3722   */\n  0x20\n    /* \"#utility.yul\":3713:3716   */\n  dup2\n    /* \"#utility.yul\":3709:3723   */\n  add\n    /* \"#utility.yul\":3702:3723   */\n  swap1\n  pop\n    /* \"#utility.yul\":3658:4097   */\n  jump(tag_100)\ntag_102:\n    /* \"#utility.yul\":3662:3683   */\n  pop\n    /* \"#utility.yul\":3266:4103   */\n  pop\n  pop\n    /* \"#utility.yul\":3143:4103   */\n  swap4\n  swap3\n  pop\n  pop\n  pop\n  jump\t// out\n    /* \"#utility.yul\":4125:4530   */\ntag_37:\n    /* \"#utility.yul\":4217:4222   */\n  0x00\n    /* \"#utility.yul\":4266:4269   */\n  dup3\n    /* \"#utility.yul\":4259:4263   */\n  0x1f\n    /* \"#utility.yul\":4251:4257   */\n  dup4\n    /* \"#utility.yul\":4247:4264   */\n  add\n    /* \"#utility.yul\":4243:4270   */\n  slt\n    /* \"#utility.yul\":4233:4355   */\n  tag_107\n  jumpi\n    /* \"#utility.yul\":4274:4353   */\n  tag_108\n  tag_24\n  jump\t// in\ntag_108:\n    /* \"#utility.yul\":4233:4355   */\ntag_107:\n    /* \"#utility.yul\":4384:4390   */\n  dup2\n    /* \"#utility.yul\":4378:4391   */\n  mload\n    /* \"#utility.yul\":4409:4524   */\n  tag_109\n    /* \"#utility.yul\":4520:4523   */\n  dup5\n    /* \"#utility.yul\":4512:4518   */\n  dup3\n    /* \"#utility.yul\":4505:4509   */\n  0x20\n    /* \"#utility.yul\":4497:4503   */\n  dup7\n    /* \"#utility.yul\":4493:4510   */\n  add\n    /* \"#utility.yul\":4409:4524   */\n  tag_36\n  jump\t// in\ntag_109:\n    /* \"#utility.yul\":4400:4524   */\n  swap2\n  pop\n    /* \"#utility.yul\":4223:4530   */\n  pop\n    /* \"#utility.yul\":4125:4530   */\n  swap3\n  swap2\n  pop\n  pop\n  jump\t// out\n    /* \"#utility.yul\":4536:5489   */\ntag_3:\n    /* \"#utility.yul\":4685:4691   */\n  0x00\n    /* \"#utility.yul\":4693:4699   */\n  dup1\n    /* \"#utility.yul\":4742:4744   */\n  0x40\n    /* \"#utility.yul\":4730:4739   */\n  dup4\n    /* \"#utility.yul\":4721:4728   */\n  dup6\n    /* \"#utility.yul\":4717:4740   */\n  sub\n    /* \"#utility.yul\":4713:4745   */\n  slt\n    /* \"#utility.yul\":4710:4829   */\n  iszero\n  tag_111\n  jumpi\n    /* \"#utility.yul\":4748:4827   */\n  tag_112\n  tag_22\n  jump\t// in\ntag_112:\n    /* \"#utility.yul\":4710:4829   */\ntag_111:\n    /* \"#utility.yul\":4889:4890   */\n  0x00\n    /* \"#utility.yul\":4878:4887   */\n  dup4\n    /* \"#utility.yul\":4874:4891   */\n  add\n    /* \"#utility.yul\":4868:4892   */\n  mload\n    /* \"#utility.yul\":4919:4937   */\n  0xffffffffffffffff\n    /* \"#utility.yul\":4911:4917   */\n  dup2\n    /* \"#utility.yul\":4908:4938   */\n  gt\n    /* \"#utility.yul\":4905:5022   */\n  iszero\n  tag_113\n  jumpi\n    /* \"#utility.yul\":4941:5020   */\n  tag_114\n  tag_23\n  jump\t// in\ntag_114:\n    /* \"#utility.yul\":4905:5022   */\ntag_113:\n    /* \"#utility.yul\":5046:5145   */\n  tag_115\n    /* \"#utility.yul\":5137:5144   */\n  dup6\n    /* \"#utility.yul\":5128:5134   */\n  dup3\n    /* \"#utility.yul\":5117:5126   */\n  dup7\n    /* \"#utility.yul\":5113:5135   */\n  add\n    /* \"#utility.yul\":5046:5145   */\n  tag_37\n  jump\t// in\ntag_115:\n    /* \"#utility.yul\":5036:5145   */\n  swap3\n  pop\n    /* \"#utility.yul\":4839:5155   */\n  pop\n    /* \"#utility.yul\":5215:5217   */\n  0x20\n    /* \"#utility.yul\":5204:5213   */\n  dup4\n    /* \"#utility.yul\":5200:5218   */\n  add\n    /* \"#utility.yul\":5194:5219   */\n  mload\n    /* \"#utility.yul\":5246:5264   */\n  0xffffffffffffffff\n    /* \"#utility.yul\":5238:5244   */\n  dup2\n    /* \"#utility.yul\":5235:5265   */\n  gt\n    /* \"#utility.yul\":5232:5349   */\n  iszero\n  tag_116\n  jumpi\n    /* \"#utility.yul\":5268:5347   */\n  tag_117\n  tag_23\n  jump\t// in\ntag_117:\n    /* \"#utility.yul\":5232:5349   */\ntag_116:\n    /* \"#utility.yul\":5373:5472   */\n  tag_118\n    /* \"#utility.yul\":5464:5471   */\n  dup6\n    /* \"#utility.yul\":5455:5461   */\n  dup3\n    /* \"#utility.yul\":5444:5453   */\n  dup7\n    /* \"#utility.yul\":5440:5462   */\n  add\n    /* \"#utility.yul\":5373:5472   */\n  tag_37\n  jump\t// in\ntag_118:\n    /* \"#utility.yul\":5363:5472   */\n  swap2\n  pop\n    /* \"#utility.yul\":5165:5482   */\n  pop\n    /* \"#utility.yul\":4536:5489   */\n  swap3\n  pop\n  swap3\n  swap1\n  pop\n  jump\t// out\n    /* \"#utility.yul\":5495:5675   */\ntag_11:\n    /* \"#utility.yul\":5543:5620   */\n  0x4e487b7100000000000000000000000000000000000000000000000000000000\n    /* \"#utility.yul\":5540:5541   */\n  0x00\n    /* \"#utility.yul\":5533:5621   */\n  mstore\n    /* \"#utility.yul\":5640:5644   */\n  0x32\n    /* \"#utility.yul\":5637:5638   */\n  0x04\n    /* \"#utility.yul\":5630:5645   */\n  mstore\n    /* \"#utility.yul\":5664:5668   */\n  0x24\n    /* \"#utility.yul\":5661:5662   */\n  0x00\n    /* \"#utility.yul\":5654:5669   */\n  revert\n    /* \"#utility.yul\":5681:5780   */\ntag_38:\n    /* \"#utility.yul\":5733:5739   */\n  0x00\n    /* \"#utility.yul\":5767:5772   */\n  dup2\n    /* \"#utility.yul\":5761:5773   */\n  mload\n    /* \"#utility.yul\":5751:5773   */\n  swap1\n  pop\n    /* \"#utility.yul\":5681:5780   */\n  swap2\n  swap1\n  pop\n  jump\t// out\n    /* \"#utility.yul\":5786:5966   */\ntag_39:\n    /* \"#utility.yul\":5834:5911   */\n  0x4e487b7100000000000000000000000000000000000000000000000000000000\n    /* \"#utility.yul\":5831:5832   */\n  0x00\n    /* \"#utility.yul\":5824:5912   */\n  mstore\n    /* \"#utility.yul\":5931:5935   */\n  0x22\n    /* \"#utility.yul\":5928:5929   */\n  0x04\n    /* \"#utility.yul\":5921:5936   */\n  mstore\n    /* \"#utility.yul\":5955:5959   */\n  0x24\n    /* \"#utility.yul\":5952:5953   */\n  0x00\n    /* \"#utility.yul\":5945:5960   */\n  revert\n    /* \"#utility.yul\":5972:6292   */\ntag_40:\n    /* \"#utility.yul\":6016:6022   */\n  0x00\n    /* \"#utility.yul\":6053:6054   */\n  0x02\n    /* \"#utility.yul\":6047:6051   */\n  dup3\n    /* \"#utility.yul\":6043:6055   */\n  div\n    /* \"#utility.yul\":6033:6055   */\n  swap1\n  pop\n    /* \"#utility.yul\":6100:6101   */\n  0x01\n    /* \"#utility.yul\":6094:6098   */\n  dup3\n    /* \"#utility.yul\":6090:6102   */\n  and\n    /* \"#utility.yul\":6121:6139   */\n  dup1\n    /* \"#utility.yul\":6111:6192   */\n  tag_123\n  jumpi\n    /* \"#utility.yul\":6177:6181   */\n  0x7f\n    /* \"#utility.yul\":6169:6175   */\n  dup3\n    /* \"#utility.yul\":6165:6182   */\n  and\n    /* \"#utility.yul\":6155:6182   */\n  swap2\n  pop\n    /* \"#utility.yul\":6111:6192   */\ntag_123:\n    /* \"#utility.yul\":6239:6241   */\n  0x20\n    /* \"#utility.yul\":6231:6237   */\n  dup3\n    /* \"#utility.yul\":6228:6242   */\n  lt\n    /* \"#utility.yul\":6208:6226   */\n  dup2\n    /* \"#utility.yul\":6205:6243   */\n  sub\n    /* \"#utility.yul\":6202:6286   */\n  tag_124\n  jumpi\n    /* \"#utility.yul\":6258:6276   */\n  tag_125\n  tag_39\n  jump\t// in\ntag_125:\n    /* \"#utility.yul\":6202:6286   */\ntag_124:\n    /* \"#utility.yul\":6023:6292   */\n  pop\n    /* \"#utility.yul\":5972:6292   */\n  swap2\n  swap1\n  pop\n  jump\t// out\n    /* \"#utility.yul\":6298:6439   */\ntag_41:\n    /* \"#utility.yul\":6347:6351   */\n  0x00\n    /* \"#utility.yul\":6370:6373   */\n  dup2\n    /* \"#utility.yul\":6362:6373   */\n  swap1\n  pop\n    /* \"#utility.yul\":6393:6396   */\n  dup2\n    /* \"#utility.yul\":6390:6391   */\n  0x00\n    /* \"#utility.yul\":6383:6397   */\n  mstore\n    /* \"#utility.yul\":6427:6431   */\n  0x20\n    /* \"#utility.yul\":6424:6425   */\n  0x00\n    /* \"#utility.yul\":6414:6432   */\n  keccak256\n    /* \"#utility.yul\":6406:6432   */\n  swap1\n  pop\n    /* \"#utility.yul\":6298:6439   */\n  swap2\n  swap1\n  pop\n  jump\t// out\n    /* \"#utility.yul\":6445:6538   */\ntag_42:\n    /* \"#utility.yul\":6482:6488   */\n  0x00\n    /* \"#utility.yul\":6529:6531   */\n  0x20\n    /* \"#utility.yul\":6524:6526   */\n  0x1f\n    /* \"#utility.yul\":6517:6522   */\n  dup4\n    /* \"#utility.yul\":6513:6527   */\n  add\n    /* \"#utility.yul\":6509:6532   */\n  div\n    /* \"#utility.yul\":6499:6532   */\n  swap1\n  pop\n    /* \"#utility.yul\":6445:6538   */\n  swap2\n  swap1\n  pop\n  jump\t// out\n    /* \"#utility.yul\":6544:6651   */\ntag_43:\n    /* \"#utility.yul\":6588:6596   */\n  0x00\n    /* \"#utility.yul\":6638:6643   */\n  dup3\n    /* \"#utility.yul\":6632:6636   */\n  dup3\n    /* \"#utility.yul\":6628:6644   */\n  shl\n    /* \"#utility.yul\":6607:6644   */\n  swap1\n  pop\n    /* \"#utility.yul\":6544:6651   */\n  swap3\n  swap2\n  pop\n  pop\n  jump\t// out\n    /* \"#utility.yul\":6657:7050   */\ntag_44:\n    /* \"#utility.yul\":6726:6732   */\n  0x00\n    /* \"#utility.yul\":6776:6777   */\n  0x08\n    /* \"#utility.yul\":6764:6774   */\n  dup4\n    /* \"#utility.yul\":6760:6778   */\n  mul\n    /* \"#utility.yul\":6799:6896   */\n  tag_130\n    /* \"#utility.yul\":6829:6895   */\n  0xffffffffffffffffffffffffffffffffffffffffffffffffffffffffffffffff\n    /* \"#utility.yul\":6818:6827   */\n  dup3\n    /* \"#utility.yul\":6799:6896   */\n  tag_43\n  jump\t// in\ntag_130:\n    /* \"#utility.yul\":6917:6956   */\n  tag_131\n    /* \"#utility.yul\":6947:6955   */\n  dup7\n    /* \"#utility.yul\":6936:6945   */\n  dup4\n    /* \"#utility.yul\":6917:6956   */\n  tag_43\n  jump\t// in\ntag_131:\n    /* \"#utility.yul\":6905:6956   */\n  swap6\n  pop\n    /* \"#utility.yul\":6989:6993   */\n  dup1\n    /* \"#utility.yul\":6985:6994   */\n  not\n    /* \"#utility.yul\":6978:6983   */\n  dup5\n    /* \"#utility.yul\":6974:6995   */\n  and\n    /* \"#utility.yul\":6965:6995   */\n  swap4\n  pop\n    /* \"#utility.yul\":7038:7042   */\n  dup1\n    /* \"#utility.yul\":7028:7036   */\n  dup7\n    /* \"#utility.yul\":7024:7043   */\n  and\n    /* \"#utility.yul\":7017:7022   */\n  dup5\n    /* \"#utility.yul\":7014:7044   */\n  or\n    /* \"#utility.yul\":7004:7044   */\n  swap3\n  pop\n    /* \"#utility.yul\":6733:7050   */\n  pop\n  pop\n    /* \"#utility.yul\":6657:7050   */\n  swap4\n  swap3\n  pop\n  pop\n  pop\n  jump\t// out\n    /* \"#utility.yul\":7056:7133   */\ntag_45:\n    /* \"#utility.yul\":7093:7100   */\n  0x00\n    /* \"#utility.yul\":7122:7127   */\n  dup2\n    /* \"#utility.yul\":7111:7127   */\n  swap1\n  pop\n    /* \"#utility.yul\":7056:7133   */\n  swap2\n  swap1\n  pop\n  jump\t// out\n    /* \"#utility.yul\":7139:7199   */\ntag_46:\n    /* \"#utility.yul\":7167:7170   */\n  0x00\n    /* \"#utility.yul\":7188:7193   */\n  dup2\n    /* \"#utility.yul\":7181:7193   */\n  swap1\n  pop\n    /* \"#utility.yul\":7139:7199   */\n  swap2\n  swap1\n  pop\n  jump\t// out\n    /* \"#utility.yul\":7205:7347   */\ntag_47:\n    /* \"#utility.yul\":7255:7264   */\n  0x00\n    /* \"#utility.yul\":7288:7341   */\n  tag_135\n    /* \"#utility.yul\":7306:7340   */\n  tag_136\n    /* \"#utility.yul\":7315:7339   */\n  tag_137\n    /* \"#utility.yul\":7333:7338   */\n  dup5\n    /* \"#utility.yul\":7315:7339   */\n  tag_45\n  jump\t// in\ntag_137:\n    /* \"#utility.yul\":7306:7340   */\n  tag_46\n  jump\t// in\ntag_136:\n    /* \"#utility.yul\":7288:7341   */\n  tag_45\n  jump\t// in\ntag_135:\n    /* \"#utility.yul\":7275:7341   */\n  swap1\n  pop\n    /* \"#utility.yul\":7205:7347   */\n  swap2\n  swap1\n  pop\n  jump\t// out\n    /* \"#utility.yul\":7353:7428   */\ntag_48:\n    /* \"#utility.yul\":7396:7399   */\n  0x00\n    /* \"#utility.yul\":7417:7422   */\n  dup2\n    /* \"#utility.yul\":7410:7422   */\n  swap1\n  pop\n    /* \"#utility.yul\":7353:7428   */\n  swap2\n  swap1\n  pop\n  jump\t// out\n    /* \"#utility.yul\":7434:7703   */\ntag_49:\n    /* \"#utility.yul\":7544:7583   */\n  tag_140\n    /* \"#utility.yul\":7575:7582   */\n  dup4\n    /* \"#utility.yul\":7544:7583   */\n  tag_47\n  jump\t// in\ntag_140:\n    /* \"#utility.yul\":7605:7696   */\n  tag_141\n    /* \"#utility.yul\":7654:7695   */\n  tag_142\n    /* \"#utility.yul\":7678:7694   */\n  dup3\n    /* \"#utility.yul\":7654:7695   */\n  tag_48\n  jump\t// in\ntag_142:\n    /* \"#utility.yul\":7646:7652   */\n  dup5\n    /* \"#utility.yul\":7639:7643   */\n  dup5\n    /* \"#utility.yul\":7633:7644   */\n  sload\n    /* \"#utility.yul\":7605:7696   */\n  tag_44\n  jump\t// in\ntag_141:\n    /* \"#utility.yul\":7599:7603   */\n  dup3\n    /* \"#utility.yul\":7592:7697   */\n  sstore\n    /* \"#utility.yul\":7510:7703   */\n  pop\n    /* \"#utility.yul\":7434:7703   */\n  pop\n  pop\n  pop\n  jump\t// out\n    /* \"#utility.yul\":7709:7782   */\ntag_50:\n    /* \"#utility.yul\":7754:7757   */\n  0x00\n    /* \"#utility.yul\":7709:7782   */\n  swap1\n  jump\t// out\n    /* \"#utility.yul\":7788:7977   */\ntag_51:\n    /* \"#utility.yul\":7865:7897   */\n  tag_145\n  tag_50\n  jump\t// in\ntag_145:\n    /* \"#utility.yul\":7906:7971   */\n  tag_146\n    /* \"#utility.yul\":7964:7970   */\n  dup2\n    /* \"#utility.yul\":7956:7962   */\n  dup5\n    /* \"#utility.yul\":7950:7954   */\n  dup5\n    /* \"#utility.yul\":7906:7971   */\n  tag_49\n  jump\t// in\ntag_146:\n    /* \"#utility.yul\":7841:7977   */\n  pop\n    /* \"#utility.yul\":7788:7977   */\n  pop\n  pop\n  jump\t// out\n    /* \"#utility.yul\":7983:8169   */\ntag_52:\n    /* \"#utility.yul\":8043:8163   */\ntag_148:\n    /* \"#utility.yul\":8060:8063   */\n  dup2\n    /* \"#utility.yul\":8053:8058   */\n  dup2\n    /* \"#utility.yul\":8050:8064   */\n  lt\n    /* \"#utility.yul\":8043:8163   */\n  iszero\n  tag_150\n  jumpi\n    /* \"#utility.yul\":8114:8153   */\n  tag_151\n    /* \"#utility.yul\":8151:8152   */\n  0x00\n    /* \"#utility.yul\":8144:8149   */\n  dup3\n    /* \"#utility.yul\":8114:8153   */\n  tag_51\n  jump\t// in\ntag_151:\n    /* \"#utility.yul\":8087:8088   */\n  0x01\n    /* \"#utility.yul\":8080:8085   */\n  dup2\n    /* \"#utility.yul\":8076:8089   */\n  add\n    /* \"#utility.yul\":8067:8089   */\n  swap1\n  pop\n    /* \"#utility.yul\":8043:8163   */\n  jump(tag_148)\ntag_150:\n    /* \"#utility.yul\":7983:8169   */\n  pop\n  pop\n  jump\t// out\n    /* \"#utility.yul\":8175:8718   */\ntag_53:\n    /* \"#utility.yul\":8276:8278   */\n  0x1f\n    /* \"#utility.yul\":8271:8274   */\n  dup3\n    /* \"#utility.yul\":8268:8279   */\n  gt\n    /* \"#utility.yul\":8265:8711   */\n  iszero\n  tag_153\n  jumpi\n    /* \"#utility.yul\":8310:8348   */\n  tag_154\n    /* \"#utility.yul\":8342:8347   */\n  dup2\n    /* \"#utility.yul\":8310:8348   */\n  tag_41\n  jump\t// in\ntag_154:\n    /* \"#utility.yul\":8394:8423   */\n  tag_155\n    /* \"#utility.yul\":8412:8422   */\n  dup5\n    /* \"#utility.yul\":8394:8423   */\n  tag_42\n  jump\t// in\ntag_155:\n    /* \"#utility.yul\":8384:8392   */\n  dup2\n    /* \"#utility.yul\":8380:8424   */\n  add\n    /* \"#utility.yul\":8577:8579   */\n  0x20\n    /* \"#utility.yul\":8565:8575   */\n  dup6\n    /* \"#utility.yul\":8562:8580   */\n  lt\n    /* \"#utility.yul\":8559:8608   */\n  iszero\n  tag_156\n  jumpi\n    /* \"#utility.yul\":8598:8606   */\n  dup2\n    /* \"#utility.yul\":8583:8606   */\n  swap1\n  pop\n    /* \"#utility.yul\":8559:8608   */\ntag_156:\n    /* \"#utility.yul\":8621:8701   */\n  tag_157\n    /* \"#utility.yul\":8677:8699   */\n  tag_158\n    /* \"#utility.yul\":8695:8698   */\n  dup6\n    /* \"#utility.yul\":8677:8699   */\n  tag_42\n  jump\t// in\ntag_158:\n    /* \"#utility.yul\":8667:8675   */\n  dup4\n    /* \"#utility.yul\":8663:8700   */\n  add\n    /* \"#utility.yul\":8650:8661   */\n  dup3\n    /* \"#utility.yul\":8621:8701   */\n  tag_52\n  jump\t// in\ntag_157:\n    /* \"#utility.yul\":8280:8711   */\n  pop\n  pop\n    /* \"#utility.yul\":8265:8711   */\ntag_153:\n    /* \"#utility.yul\":8175:8718   */\n  pop\n  pop\n  pop\n  jump\t// out\n    /* \"#utility.yul\":8724:8841   */\ntag_54:\n    /* \"#utility.yul\":8778:8786   */\n  0x00\n    /* \"#utility.yul\":8828:8833   */\n  dup3\n    /* \"#utility.yul\":8822:8826   */\n  dup3\n    /* \"#utility.yul\":8818:8834   */\n  shr\n    /* \"#utility.yul\":8797:8834   */\n  swap1\n  pop\n    /* \"#utility.yul\":8724:8841   */\n  swap3\n  swap2\n  pop\n  pop\n  jump\t// out\n    /* \"#utility.yul\":8847:9016   */\ntag_55:\n    /* \"#utility.yul\":8891:8897   */\n  0x00\n    /* \"#utility.yul\":8924:8975   */\n  tag_161\n    /* \"#utility.yul\":8972:8973   */\n  0x00\n    /* \"#utility.yul\":8968:8974   */\n  not\n    /* \"#utility.yul\":8960:8965   */\n  dup5\n    /* \"#utility.yul\":8957:8958   */\n  0x08\n    /* \"#utility.yul\":8953:8966   */\n  mul\n    /* \"#utility.yul\":8924:8975   */\n  tag_54\n  jump\t// in\ntag_161:\n    /* \"#utility.yul\":8920:8976   */\n  not\n    /* \"#utility.yul\":9005:9009   */\n  dup1\n    /* \"#utility.yul\":8999:9003   */\n  dup4\n    /* \"#utility.yul\":8995:9010   */\n  and\n    /* \"#utility.yul\":8985:9010   */\n  swap2\n  pop\n    /* \"#utility.yul\":8898:9016   */\n  pop\n    /* \"#utility.yul\":8847:9016   */\n  swap3\n  swap2\n  pop\n  pop\n  jump\t// out\n    /* \"#utility.yul\":9021:9316   */\ntag_56:\n    /* \"#utility.yul\":9097:9101   */\n  0x00\n    /* \"#utility.yul\":9243:9272   */\n  tag_163\n    /* \"#utility.yul\":9268:9271   */\n  dup4\n    /* \"#utility.yul\":9262:9266   */\n  dup4\n    /* \"#utility.yul\":9243:9272   */\n  tag_55\n  jump\t// in\ntag_163:\n    /* \"#utility.yul\":9235:9272   */\n  swap2\n  pop\n    /* \"#utility.yul\":9305:9308   */\n  dup3\n    /* \"#utility.yul\":9302:9303   */\n  0x02\n    /* \"#utility.yul\":9298:9309   */\n  mul\n    /* \"#utility.yul\":9292:9296   */\n  dup3\n    /* \"#utility.yul\":9289:9310   */\n  or\n    /* \"#utility.yul\":9281:9310   */\n  swap1\n  pop\n    /* \"#utility.yul\":9021:9316   */\n  swap3\n  swap2\n  pop\n  pop\n  jump\t// out\n    /* \"#utility.yul\":9321:10716   */\ntag_16:\n    /* \"#utility.yul\":9438:9475   */\n  tag_165\n    /* \"#utility.yul\":9471:9474   */\n  dup3\n    /* \"#utility.yul\":9438:9475   */\n  tag_38\n  jump\t// in\ntag_165:\n    /* \"#utility.yul\":9540:9558   */\n  0xffffffffffffffff\n    /* \"#utility.yul\":9532:9538   */\n  dup2\n    /* \"#utility.yul\":9529:9559   */\n  gt\n    /* \"#utility.yul\":9526:9582   */\n  iszero\n  tag_166\n  jumpi\n    /* \"#utility.yul\":9562:9580   */\n  tag_167\n  tag_26\n  jump\t// in\ntag_167:\n    /* \"#utility.yul\":9526:9582   */\ntag_166:\n    /* \"#utility.yul\":9606:9644   */\n  tag_168\n    /* \"#utility.yul\":9638:9642   */\n  dup3\n    /* \"#utility.yul\":9632:9643   */\n  sload\n    /* \"#utility.yul\":9606:9644   */\n  tag_40\n  jump\t// in\ntag_168:\n    /* \"#utility.yul\":9691:9758   */\n  tag_169\n    /* \"#utility.yul\":9751:9757   */\n  dup3\n    /* \"#utility.yul\":9743:9749   */\n  dup3\n    /* \"#utility.yul\":9737:9741   */\n  dup6\n    /* \"#utility.yul\":9691:9758   */\n  tag_53\n  jump\t// in\ntag_169:\n    /* \"#utility.yul\":9785:9786   */\n  0x00\n    /* \"#utility.yul\":9809:9813   */\n  0x20\n    /* \"#utility.yul\":9796:9813   */\n  swap1\n  pop\n    /* \"#utility.yul\":9841:9843   */\n  0x1f\n    /* \"#utility.yul\":9833:9839   */\n  dup4\n    /* \"#utility.yul\":9830:9844   */\n  gt\n    /* \"#utility.yul\":9858:9859   */\n  0x01\n    /* \"#utility.yul\":9853:10471   */\n  dup2\n  eq\n  tag_171\n  jumpi\n    /* \"#utility.yul\":10515:10516   */\n  0x00\n    /* \"#utility.yul\":10532:10538   */\n  dup5\n    /* \"#utility.yul\":10529:10606   */\n  iszero\n  tag_172\n  jumpi\n    /* \"#utility.yul\":10581:10590   */\n  dup3\n    /* \"#utility.yul\":10576:10579   */\n  dup8\n    /* \"#utility.yul\":10572:10591   */\n  add\n    /* \"#utility.yul\":10566:10592   */\n  mload\n    /* \"#utility.yul\":10557:10592   */\n  swap1\n  pop\n    /* \"#utility.yul\":10529:10606   */\ntag_172:\n    /* \"#utility.yul\":10632:10699   */\n  tag_173\n    /* \"#utility.yul\":10692:10698   */\n  dup6\n    /* \"#utility.yul\":10685:10690   */\n  dup3\n    /* \"#utility.yul\":10632:10699   */\n  tag_56\n  jump\t// in\ntag_173:\n    /* \"#utility.yul\":10626:10630   */\n  dup7\n    /* \"#utility.yul\":10619:10700   */\n  sstore\n    /* \"#utility.yul\":10488:10710   */\n  pop\n    /* \"#utility.yul\":9823:10710   */\n  jump(tag_170)\n    /* \"#utility.yul\":9853:10471   */\ntag_171:\n    /* \"#utility.yul\":9905:9909   */\n  0x1f\n    /* \"#utility.yul\":9901:9910   */\n  not\n    /* \"#utility.yul\":9893:9899   */\n  dup5\n    /* \"#utility.yul\":9889:9911   */\n  and\n    /* \"#utility.yul\":9939:9976   */\n  tag_174\n    /* \"#utility.yul\":9971:9975   */\n  dup7\n    /* \"#utility.yul\":9939:9976   */\n  tag_41\n  jump\t// in\ntag_174:\n    /* \"#utility.yul\":9998:9999   */\n  0x00\n    /* \"#utility.yul\":10012:10220   */\ntag_175:\n    /* \"#utility.yul\":10026:10033   */\n  dup3\n    /* \"#utility.yul\":10023:10024   */\n  dup2\n    /* \"#utility.yul\":10020:10034   */\n  lt\n    /* \"#utility.yul\":10012:10220   */\n  iszero\n  tag_177\n  jumpi\n    /* \"#utility.yul\":10105:10114   */\n  dup5\n    /* \"#utility.yul\":10100:10103   */\n  dup10\n    /* \"#utility.yul\":10096:10115   */\n  add\n    /* \"#utility.yul\":10090:10116   */\n  mload\n    /* \"#utility.yul\":10082:10088   */\n  dup3\n    /* \"#utility.yul\":10075:10117   */\n  sstore\n    /* \"#utility.yul\":10156:10157   */\n  0x01\n    /* \"#utility.yul\":10148:10154   */\n  dup3\n    /* \"#utility.yul\":10144:10158   */\n  add\n    /* \"#utility.yul\":10134:10158   */\n  swap2\n  pop\n    /* \"#utility.yul\":10203:10205   */\n  0x20\n    /* \"#utility.yul\":10192:10201   */\n  dup6\n    /* \"#utility.yul\":10188:10206   */\n  add\n    /* \"#utility.yul\":10175:10206   */\n  swap5\n  pop\n    /* \"#utility.yul\":10049:10053   */\n  0x20\n    /* \"#utility.yul\":10046:10047   */\n  dup2\n    /* \"#utility.yul\":10042:10054   */\n  add\n    /* \"#utility.yul\":10037:10054   */\n  swap1\n  pop\n    /* \"#utility.yul\":10012:10220   */\n  jump(tag_175)\ntag_177:\n    /* \"#utility.yul\":10248:10254   */\n  dup7\n    /* \"#utility.yul\":10239:10246   */\n  dup4\n    /* \"#utility.yul\":10236:10255   */\n  lt\n    /* \"#utility.yul\":10233:10412   */\n  iszero\n  tag_178\n  jumpi\n    /* \"#utility.yul\":10306:10315   */\n  dup5\n    /* \"#utility.yul\":10301:10304   */\n  dup10\n    /* \"#utility.yul\":10297:10316   */\n  add\n    /* \"#utility.yul\":10291:10317   */\n  mload\n    /* \"#utility.yul\":10349:10397   */\n  tag_179\n    /* \"#utility.yul\":10391:10395   */\n  0x1f\n    /* \"#utility.yul\":10383:10389   */\n  dup10\n    /* \"#utility.yul\":10379:10396   */\n  and\n    /* \"#utility.yul\":10368:10377   */\n  dup3\n    /* \"#utility.yul\":10349:10397   */\n  tag_55\n  jump\t// in\ntag_179:\n    /* \"#utility.yul\":10341:10347   */\n  dup4\n    /* \"#utility.yul\":10334:10398   */\n  sstore\n    /* \"#utility.yul\":10256:10412   */\n  pop\n    /* \"#utility.yul\":10233:10412   */\ntag_178:\n    /* \"#utility.yul\":10458:10459   */\n  0x01\n    /* \"#utility.yul\":10454:10455   */\n  0x02\n    /* \"#utility.yul\":10446:10452   */\n  dup9\n    /* \"#utility.yul\":10442:10456   */\n  mul\n    /* \"#utility.yul\":10438:10460   */\n  add\n    /* \"#utility.yul\":10432:10436   */\n  dup9\n    /* \"#utility.yul\":10425:10461   */\n  sstore\n    /* \"#utility.yul\":9860:10471   */\n  pop\n  pop\n  pop\n    /* \"#utility.yul\":9823:10710   */\ntag_170:\n  pop\n    /* \"#utility.yul\":9413:10716   */\n  pop\n  pop\n  pop\n    /* \"#utility.yul\":9321:10716   */\n  pop\n  pop\n  jump\t// out\n    /* \"#utility.yul\":10722:10902   */\ntag_57:\n    /* \"#utility.yul\":10770:10847   */\n  0x4e487b7100000000000000000000000000000000000000000000000000000000\n    /* \"#utility.yul\":10767:10768   */\n  0x00\n    /* \"#utility.yul\":10760:10848   */\n  mstore\n    /* \"#utility.yul\":10867:10871   */\n  0x11\n    /* \"#utility.yul\":10864:10865   */\n  0x04\n    /* \"#utility.yul\":10857:10872   */\n  mstore\n    /* \"#utility.yul\":10891:10895   */\n  0x24\n    /* \"#utility.yul\":10888:10889   */\n  0x00\n    /* \"#utility.yul\":10881:10896   */\n  revert\n    /* \"#utility.yul\":10908:11141   */\ntag_19:\n    /* \"#utility.yul\":10947:10950   */\n  0x00\n    /* \"#utility.yul\":10970:10994   */\n  tag_182\n    /* \"#utility.yul\":10988:10993   */\n  dup3\n    /* \"#utility.yul\":10970:10994   */\n  tag_45\n  jump\t// in\ntag_182:\n    /* \"#utility.yul\":10961:10994   */\n  swap2\n  pop\n    /* \"#utility.yul\":11016:11082   */\n  0xffffffffffffffffffffffffffffffffffffffffffffffffffffffffffffffff\n    /* \"#utility.yul\":11009:11014   */\n  dup3\n    /* \"#utility.yul\":11006:11083   */\n  sub\n    /* \"#utility.yul\":11003:11106   */\n  tag_183\n  jumpi\n    /* \"#utility.yul\":11086:11104   */\n  tag_184\n  tag_57\n  jump\t// in\ntag_184:\n    /* \"#utility.yul\":11003:11106   */\ntag_183:\n    /* \"#utility.yul\":11133:11134   */\n  0x01\n    /* \"#utility.yul\":11126:11131   */\n  dup3\n    /* \"#utility.yul\":11122:11135   */\n  add\n    /* \"#utility.yul\":11115:11135   */\n  swap1\n  pop\n    /* \"#utility.yul\":10908:11141   */\n  swap2\n  swap1\n  pop\n  jump\t// out\n    /* \"contracts/Ballot/MyBallot.sol\":130:2522  contract MyBallot {... */\ntag_20:\n  dataSize(sub_0)\n  dup1\n  dataOffset(sub_0)\n  0x00\n  codecopy\n  0x00\n  return\nstop\n\nsub_0: assembly {\n        /* \"contracts/Ballot/MyBallot.sol\":130:2522  contract MyBallot {... */\n      mstore(0x40, 0x80)\n      callvalue\n      dup1\n      iszero\n      tag_1\n      jumpi\n      0x00\n      dup1\n      revert\n    tag_1:\n      pop\n      jumpi(tag_2, lt(calldatasize, 0x04))\n      shr(0xe0, calldataload(0x00))\n      dup1\n      0x3477ee2e\n      eq\n      tag_3\n      jumpi\n      dup1\n      0xa3ec138d\n      eq\n      tag_4\n      jumpi\n      dup1\n      0xce606ee0\n      eq\n      tag_5\n      jumpi\n    tag_2:\n      0x00\n      dup1\n      revert\n        /* \"contracts/Ballot/MyBallot.sol\":461:490  Candidate[] public candidates */\n    tag_3:\n      tag_6\n      0x04\n      dup1\n      calldatasize\n      sub\n      dup2\n      add\n      swap1\n      tag_7\n      swap2\n      swap1\n      tag_8\n      jump\t// in\n    tag_7:\n      tag_9\n      jump\t// in\n    tag_6:\n      mload(0x40)\n      tag_10\n      swap4\n      swap3\n      swap2\n      swap1\n      tag_11\n      jump\t// in\n    tag_10:\n      mload(0x40)\n      dup1\n      swap2\n      sub\n      swap1\n      return\n        /* \"contracts/Ballot/MyBallot.sol\":413:452  mapping(address => Voter) public voters */\n    tag_4:\n      tag_12\n      0x04\n      dup1\n      calldatasize\n      sub\n      dup2\n      add\n      swap1\n      tag_13\n      swap2\n      swap1\n      tag_14\n      jump\t// in\n    tag_13:\n      tag_15\n      jump\t// in\n    tag_12:\n      mload(0x40)\n      tag_16\n      swap3\n      swap2\n      swap1\n      tag_17\n      jump\t// in\n    tag_16:\n      mload(0x40)\n      dup1\n      swap2\n      sub\n      swap1\n      return\n        /* \"contracts/Ballot/MyBallot.sol\":376:404  address public contractOwner */\n    tag_5:\n      tag_18\n      tag_19\n      jump\t// in\n    tag_18:\n      mload(0x40)\n      tag_20\n      swap2\n      swap1\n      tag_21\n      jump\t// in\n    tag_20:\n      mload(0x40)\n      dup1\n      swap2\n      sub\n      swap1\n      return\n        /* \"contracts/Ballot/MyBallot.sol\":461:490  Candidate[] public candidates */\n    tag_9:\n      0x02\n      dup2\n      dup2\n      sload\n      dup2\n      lt\n      tag_22\n      jumpi\n      0x00\n      dup1\n      revert\n    tag_22:\n      swap1\n      0x00\n      mstore\n      keccak256(0x00, 0x20)\n      swap1\n      0x03\n      mul\n      add\n      0x00\n      swap2\n      pop\n      swap1\n      pop\n      dup1\n      0x00\n      add\n      dup1\n      sload\n      tag_24\n      swap1\n      tag_25\n      jump\t// in\n    tag_24:\n      dup1\n      0x1f\n      add\n      0x20\n      dup1\n      swap2\n      div\n      mul\n      0x20\n      add\n      mload(0x40)\n      swap1\n      dup2\n      add\n      0x40\n      mstore\n      dup1\n      swap3\n      swap2\n      swap1\n      dup2\n      dup2\n      mstore\n      0x20\n      add\n      dup3\n      dup1\n      sload\n      tag_26\n      swap1\n      tag_25\n      jump\t// in\n    tag_26:\n      dup1\n      iszero\n      tag_27\n      jumpi\n      dup1\n      0x1f\n      lt\n      tag_28\n      jumpi\n      0x0100\n      dup1\n      dup4\n      sload\n      div\n      mul\n      dup4\n      mstore\n      swap2\n      0x20\n      add\n      swap2\n      jump(tag_27)\n    tag_28:\n      dup3\n      add\n      swap2\n      swap1\n      0x00\n      mstore\n      keccak256(0x00, 0x20)\n      swap1\n    tag_29:\n      dup2\n      sload\n      dup2\n      mstore\n      swap1\n      0x01\n      add\n      swap1\n      0x20\n      add\n      dup1\n      dup4\n      gt\n      tag_29\n      jumpi\n      dup3\n      swap1\n      sub\n      0x1f\n      and\n      dup3\n      add\n      swap2\n    tag_27:\n      pop\n      pop\n      pop\n      pop\n      pop\n      swap1\n      dup1\n      0x01\n      add\n      dup1\n      sload\n      tag_30\n      swap1\n      tag_25\n      jump\t// in\n    tag_30:\n      dup1\n      0x1f\n      add\n      0x20\n      dup1\n      swap2\n      div\n      mul\n      0x20\n      add\n      mload(0x40)\n      swap1\n      dup2\n      add\n      0x40\n      mstore\n      dup1\n      swap3\n      swap2\n      swap1\n      dup2\n      dup2\n      mstore\n      0x20\n      add\n      dup3\n      dup1\n      sload\n      tag_31\n      swap1\n      tag_25\n      jump\t// in\n    tag_31:\n      dup1\n      iszero\n      tag_32\n      jumpi\n      dup1\n      0x1f\n      lt\n      tag_33\n      jumpi\n      0x0100\n      dup1\n      dup4\n      sload\n      div\n      mul\n      dup4\n      mstore\n      swap2\n      0x20\n      add\n      swap2\n      jump(tag_32)\n    tag_33:\n      dup3\n      add\n      swap2\n      swap1\n      0x00\n      mstore\n      keccak256(0x00, 0x20)\n      swap1\n    tag_34:\n      dup2\n      sload\n      dup2\n      mstore\n      swap1\n      0x01\n      add\n      swap1\n      0x20\n      add\n      dup1\n      dup4\n      gt\n      tag_34\n      jumpi\n      dup3\n      swap1\n      sub\n      0x1f\n      and\n      dup3\n      add\n      swap2\n    tag_32:\n      pop\n      pop\n      pop\n      pop\n      pop\n      swap1\n      dup1\n      0x02\n      add\n      sload\n      swap1\n      pop\n      dup4\n      jump\t// out\n        /* \"contracts/Ballot/MyBallot.sol\":413:452  mapping(address => Voter) public voters */\n    tag_15:\n      mstore(0x20, 0x01)\n      dup1\n      0x00\n      mstore\n      keccak256(0x00, 0x40)\n      0x00\n      swap2\n      pop\n      swap1\n      pop\n      dup1\n      0x00\n      add\n      0x00\n      swap1\n      sload\n      swap1\n      0x0100\n      exp\n      swap1\n      div\n      0xff\n      and\n      swap1\n      dup1\n      0x00\n      add\n      0x01\n      swap1\n      sload\n      swap1\n      0x0100\n      exp\n      swap1\n      div\n      0xff\n      and\n      swap1\n      pop\n      dup3\n      jump\t// out\n        /* \"contracts/Ballot/MyBallot.sol\":376:404  address public contractOwner */\n    tag_19:\n      0x00\n      dup1\n      sload\n      swap1\n      0x0100\n      exp\n      swap1\n      div\n      0xffffffffffffffffffffffffffffffffffffffff\n      and\n      dup2\n      jump\t// out\n        /* \"#utility.yul\":88:205   */\n    tag_36:\n        /* \"#utility.yul\":197:198   */\n      0x00\n        /* \"#utility.yul\":194:195   */\n      dup1\n        /* \"#utility.yul\":187:199   */\n      revert\n        /* \"#utility.yul\":334:411   */\n    tag_38:\n        /* \"#utility.yul\":371:378   */\n      0x00\n        /* \"#utility.yul\":400:405   */\n      dup2\n        /* \"#utility.yul\":389:405   */\n      swap1\n      pop\n        /* \"#utility.yul\":334:411   */\n      swap2\n      swap1\n      pop\n      jump\t// out\n        /* \"#utility.yul\":417:539   */\n    tag_39:\n        /* \"#utility.yul\":490:514   */\n      tag_61\n        /* \"#utility.yul\":508:513   */\n      dup2\n        /* \"#utility.yul\":490:514   */\n      tag_38\n      jump\t// in\n    tag_61:\n        /* \"#utility.yul\":483:488   */\n      dup2\n        /* \"#utility.yul\":480:515   */\n      eq\n        /* \"#utility.yul\":470:533   */\n      tag_62\n      jumpi\n        /* \"#utility.yul\":529:530   */\n      0x00\n        /* \"#utility.yul\":526:527   */\n      dup1\n        /* \"#utility.yul\":519:531   */\n      revert\n        /* \"#utility.yul\":470:533   */\n    tag_62:\n        /* \"#utility.yul\":417:539   */\n      pop\n      jump\t// out\n        /* \"#utility.yul\":545:684   */\n    tag_40:\n        /* \"#utility.yul\":591:596   */\n      0x00\n        /* \"#utility.yul\":629:635   */\n      dup2\n        /* \"#utility.yul\":616:636   */\n      calldataload\n        /* \"#utility.yul\":607:636   */\n      swap1\n      pop\n        /* \"#utility.yul\":645:678   */\n      tag_64\n        /* \"#utility.yul\":672:677   */\n      dup2\n        /* \"#utility.yul\":645:678   */\n      tag_39\n      jump\t// in\n    tag_64:\n        /* \"#utility.yul\":545:684   */\n      swap3\n      swap2\n      pop\n      pop\n      jump\t// out\n        /* \"#utility.yul\":690:1019   */\n    tag_8:\n        /* \"#utility.yul\":749:755   */\n      0x00\n        /* \"#utility.yul\":798:800   */\n      0x20\n        /* \"#utility.yul\":786:795   */\n      dup3\n        /* \"#utility.yul\":777:784   */\n      dup5\n        /* \"#utility.yul\":773:796   */\n      sub\n        /* \"#utility.yul\":769:801   */\n      slt\n        /* \"#utility.yul\":766:885   */\n      iszero\n      tag_66\n      jumpi\n        /* \"#utility.yul\":804:883   */\n      tag_67\n      tag_36\n      jump\t// in\n    tag_67:\n        /* \"#utility.yul\":766:885   */\n    tag_66:\n        /* \"#utility.yul\":924:925   */\n      0x00\n        /* \"#utility.yul\":949:1002   */\n      tag_68\n        /* \"#utility.yul\":994:1001   */\n      dup5\n        /* \"#utility.yul\":985:991   */\n      dup3\n        /* \"#utility.yul\":974:983   */\n      dup6\n        /* \"#utility.yul\":970:992   */\n      add\n        /* \"#utility.yul\":949:1002   */\n      tag_40\n      jump\t// in\n    tag_68:\n        /* \"#utility.yul\":939:1002   */\n      swap2\n      pop\n        /* \"#utility.yul\":895:1012   */\n      pop\n        /* \"#utility.yul\":690:1019   */\n      swap3\n      swap2\n      pop\n      pop\n      jump\t// out\n        /* \"#utility.yul\":1025:1124   */\n    tag_41:\n        /* \"#utility.yul\":1077:1083   */\n      0x00\n        /* \"#utility.yul\":1111:1116   */\n      dup2\n        /* \"#utility.yul\":1105:1117   */\n      mload\n        /* \"#utility.yul\":1095:1117   */\n      swap1\n      pop\n        /* \"#utility.yul\":1025:1124   */\n      swap2\n      swap1\n      pop\n      jump\t// out\n        /* \"#utility.yul\":1130:1299   */\n    tag_42:\n        /* \"#utility.yul\":1214:1225   */\n      0x00\n        /* \"#utility.yul\":1248:1254   */\n      dup3\n        /* \"#utility.yul\":1243:1246   */\n      dup3\n        /* \"#utility.yul\":1236:1255   */\n      mstore\n        /* \"#utility.yul\":1288:1292   */\n      0x20\n        /* \"#utility.yul\":1283:1286   */\n      dup3\n        /* \"#utility.yul\":1279:1293   */\n      add\n        /* \"#utility.yul\":1264:1293   */\n      swap1\n      pop\n        /* \"#utility.yul\":1130:1299   */\n      swap3\n      swap2\n      pop\n      pop\n      jump\t// out\n        /* \"#utility.yul\":1305:1551   */\n    tag_43:\n        /* \"#utility.yul\":1386:1387   */\n      0x00\n        /* \"#utility.yul\":1396:1509   */\n    tag_72:\n        /* \"#utility.yul\":1410:1416   */\n      dup4\n        /* \"#utility.yul\":1407:1408   */\n      dup2\n        /* \"#utility.yul\":1404:1417   */\n      lt\n        /* \"#utility.yul\":1396:1509   */\n      iszero\n      tag_74\n      jumpi\n        /* \"#utility.yul\":1495:1496   */\n      dup1\n        /* \"#utility.yul\":1490:1493   */\n      dup3\n        /* \"#utility.yul\":1486:1497   */\n      add\n        /* \"#utility.yul\":1480:1498   */\n      mload\n        /* \"#utility.yul\":1476:1477   */\n      dup2\n        /* \"#utility.yul\":1471:1474   */\n      dup5\n        /* \"#utility.yul\":1467:1478   */\n      add\n        /* \"#utility.yul\":1460:1499   */\n      mstore\n        /* \"#utility.yul\":1432:1434   */\n      0x20\n        /* \"#utility.yul\":1429:1430   */\n      dup2\n        /* \"#utility.yul\":1425:1435   */\n      add\n        /* \"#utility.yul\":1420:1435   */\n      swap1\n      pop\n        /* \"#utility.yul\":1396:1509   */\n      jump(tag_72)\n    tag_74:\n        /* \"#utility.yul\":1543:1544   */\n      0x00\n        /* \"#utility.yul\":1534:1540   */\n      dup5\n        /* \"#utility.yul\":1529:1532   */\n      dup5\n        /* \"#utility.yul\":1525:1541   */\n      add\n        /* \"#utility.yul\":1518:1545   */\n      mstore\n        /* \"#utility.yul\":1367:1551   */\n      pop\n        /* \"#utility.yul\":1305:1551   */\n      pop\n      pop\n      pop\n      jump\t// out\n        /* \"#utility.yul\":1557:1659   */\n    tag_44:\n        /* \"#utility.yul\":1598:1604   */\n      0x00\n        /* \"#utility.yul\":1649:1651   */\n      0x1f\n        /* \"#utility.yul\":1645:1652   */\n      not\n        /* \"#utility.yul\":1640:1642   */\n      0x1f\n        /* \"#utility.yul\":1633:1638   */\n      dup4\n        /* \"#utility.yul\":1629:1643   */\n      add\n        /* \"#utility.yul\":1625:1653   */\n      and\n        /* \"#utility.yul\":1615:1653   */\n      swap1\n      pop\n        /* \"#utility.yul\":1557:1659   */\n      swap2\n      swap1\n      pop\n      jump\t// out\n        /* \"#utility.yul\":1665:2042   */\n    tag_45:\n        /* \"#utility.yul\":1753:1756   */\n      0x00\n        /* \"#utility.yul\":1781:1820   */\n      tag_77\n        /* \"#utility.yul\":1814:1819   */\n      dup3\n        /* \"#utility.yul\":1781:1820   */\n      tag_41\n      jump\t// in\n    tag_77:\n        /* \"#utility.yul\":1836:1907   */\n      tag_78\n        /* \"#utility.yul\":1900:1906   */\n      dup2\n        /* \"#utility.yul\":1895:1898   */\n      dup6\n        /* \"#utility.yul\":1836:1907   */\n      tag_42\n      jump\t// in\n    tag_78:\n        /* \"#utility.yul\":1829:1907   */\n      swap4\n      pop\n        /* \"#utility.yul\":1916:1981   */\n      tag_79\n        /* \"#utility.yul\":1974:1980   */\n      dup2\n        /* \"#utility.yul\":1969:1972   */\n      dup6\n        /* \"#utility.yul\":1962:1966   */\n      0x20\n        /* \"#utility.yul\":1955:1960   */\n      dup7\n        /* \"#utility.yul\":1951:1967   */\n      add\n        /* \"#utility.yul\":1916:1981   */\n      tag_43\n      jump\t// in\n    tag_79:\n        /* \"#utility.yul\":2006:2035   */\n      tag_80\n        /* \"#utility.yul\":2028:2034   */\n      dup2\n        /* \"#utility.yul\":2006:2035   */\n      tag_44\n      jump\t// in\n    tag_80:\n        /* \"#utility.yul\":2001:2004   */\n      dup5\n        /* \"#utility.yul\":1997:2036   */\n      add\n        /* \"#utility.yul\":1990:2036   */\n      swap2\n      pop\n        /* \"#utility.yul\":1757:2042   */\n      pop\n        /* \"#utility.yul\":1665:2042   */\n      swap3\n      swap2\n      pop\n      pop\n      jump\t// out\n        /* \"#utility.yul\":2048:2166   */\n    tag_46:\n        /* \"#utility.yul\":2135:2159   */\n      tag_82\n        /* \"#utility.yul\":2153:2158   */\n      dup2\n        /* \"#utility.yul\":2135:2159   */\n      tag_38\n      jump\t// in\n    tag_82:\n        /* \"#utility.yul\":2130:2133   */\n      dup3\n        /* \"#utility.yul\":2123:2160   */\n      mstore\n        /* \"#utility.yul\":2048:2166   */\n      pop\n      pop\n      jump\t// out\n        /* \"#utility.yul\":2172:2796   */\n    tag_11:\n        /* \"#utility.yul\":2361:2365   */\n      0x00\n        /* \"#utility.yul\":2399:2401   */\n      0x60\n        /* \"#utility.yul\":2388:2397   */\n      dup3\n        /* \"#utility.yul\":2384:2402   */\n      add\n        /* \"#utility.yul\":2376:2402   */\n      swap1\n      pop\n        /* \"#utility.yul\":2448:2457   */\n      dup2\n        /* \"#utility.yul\":2442:2446   */\n      dup2\n        /* \"#utility.yul\":2438:2458   */\n      sub\n        /* \"#utility.yul\":2434:2435   */\n      0x00\n        /* \"#utility.yul\":2423:2432   */\n      dup4\n        /* \"#utility.yul\":2419:2436   */\n      add\n        /* \"#utility.yul\":2412:2459   */\n      mstore\n        /* \"#utility.yul\":2476:2554   */\n      tag_84\n        /* \"#utility.yul\":2549:2553   */\n      dup2\n        /* \"#utility.yul\":2540:2546   */\n      dup7\n        /* \"#utility.yul\":2476:2554   */\n      tag_45\n      jump\t// in\n    tag_84:\n        /* \"#utility.yul\":2468:2554   */\n      swap1\n      pop\n        /* \"#utility.yul\":2601:2610   */\n      dup2\n        /* \"#utility.yul\":2595:2599   */\n      dup2\n        /* \"#utility.yul\":2591:2611   */\n      sub\n        /* \"#utility.yul\":2586:2588   */\n      0x20\n        /* \"#utility.yul\":2575:2584   */\n      dup4\n        /* \"#utility.yul\":2571:2589   */\n      add\n        /* \"#utility.yul\":2564:2612   */\n      mstore\n        /* \"#utility.yul\":2629:2707   */\n      tag_85\n        /* \"#utility.yul\":2702:2706   */\n      dup2\n        /* \"#utility.yul\":2693:2699   */\n      dup6\n        /* \"#utility.yul\":2629:2707   */\n      tag_45\n      jump\t// in\n    tag_85:\n        /* \"#utility.yul\":2621:2707   */\n      swap1\n      pop\n        /* \"#utility.yul\":2717:2789   */\n      tag_86\n        /* \"#utility.yul\":2785:2787   */\n      0x40\n        /* \"#utility.yul\":2774:2783   */\n      dup4\n        /* \"#utility.yul\":2770:2788   */\n      add\n        /* \"#utility.yul\":2761:2767   */\n      dup5\n        /* \"#utility.yul\":2717:2789   */\n      tag_46\n      jump\t// in\n    tag_86:\n        /* \"#utility.yul\":2172:2796   */\n      swap5\n      swap4\n      pop\n      pop\n      pop\n      pop\n      jump\t// out\n        /* \"#utility.yul\":2802:2928   */\n    tag_47:\n        /* \"#utility.yul\":2839:2846   */\n      0x00\n        /* \"#utility.yul\":2879:2921   */\n      0xffffffffffffffffffffffffffffffffffffffff\n        /* \"#utility.yul\":2872:2877   */\n      dup3\n        /* \"#utility.yul\":2868:2922   */\n      and\n        /* \"#utility.yul\":2857:2922   */\n      swap1\n      pop\n        /* \"#utility.yul\":2802:2928   */\n      swap2\n      swap1\n      pop\n      jump\t// out\n        /* \"#utility.yul\":2934:3030   */\n    tag_48:\n        /* \"#utility.yul\":2971:2978   */\n      0x00\n        /* \"#utility.yul\":3000:3024   */\n      tag_89\n        /* \"#utility.yul\":3018:3023   */\n      dup3\n        /* \"#utility.yul\":3000:3024   */\n      tag_47\n      jump\t// in\n    tag_89:\n        /* \"#utility.yul\":2989:3024   */\n      swap1\n      pop\n        /* \"#utility.yul\":2934:3030   */\n      swap2\n      swap1\n      pop\n      jump\t// out\n        /* \"#utility.yul\":3036:3158   */\n    tag_49:\n        /* \"#utility.yul\":3109:3133   */\n      tag_91\n        /* \"#utility.yul\":3127:3132   */\n      dup2\n        /* \"#utility.yul\":3109:3133   */\n      tag_48\n      jump\t// in\n    tag_91:\n        /* \"#utility.yul\":3102:3107   */\n      dup2\n        /* \"#utility.yul\":3099:3134   */\n      eq\n        /* \"#utility.yul\":3089:3152   */\n      tag_92\n      jumpi\n        /* \"#utility.yul\":3148:3149   */\n      0x00\n        /* \"#utility.yul\":3145:3146   */\n      dup1\n        /* \"#utility.yul\":3138:3150   */\n      revert\n        /* \"#utility.yul\":3089:3152   */\n    tag_92:\n        /* \"#utility.yul\":3036:3158   */\n      pop\n      jump\t// out\n        /* \"#utility.yul\":3164:3303   */\n    tag_50:\n        /* \"#utility.yul\":3210:3215   */\n      0x00\n        /* \"#utility.yul\":3248:3254   */\n      dup2\n        /* \"#utility.yul\":3235:3255   */\n      calldataload\n        /* \"#utility.yul\":3226:3255   */\n      swap1\n      pop\n        /* \"#utility.yul\":3264:3297   */\n      tag_94\n        /* \"#utility.yul\":3291:3296   */\n      dup2\n        /* \"#utility.yul\":3264:3297   */\n      tag_49\n      jump\t// in\n    tag_94:\n        /* \"#utility.yul\":3164:3303   */\n      swap3\n      swap2\n      pop\n      pop\n      jump\t// out\n        /* \"#utility.yul\":3309:3638   */\n    tag_14:\n        /* \"#utility.yul\":3368:3374   */\n      0x00\n        /* \"#utility.yul\":3417:3419   */\n      0x20\n        /* \"#utility.yul\":3405:3414   */\n      dup3\n        /* \"#utility.yul\":3396:3403   */\n      dup5\n        /* \"#utility.yul\":3392:3415   */\n      sub\n        /* \"#utility.yul\":3388:3420   */\n      slt\n        /* \"#utility.yul\":3385:3504   */\n      iszero\n      tag_96\n      jumpi\n        /* \"#utility.yul\":3423:3502   */\n      tag_97\n      tag_36\n      jump\t// in\n    tag_97:\n        /* \"#utility.yul\":3385:3504   */\n    tag_96:\n        /* \"#utility.yul\":3543:3544   */\n      0x00\n        /* \"#utility.yul\":3568:3621   */\n      tag_98\n        /* \"#utility.yul\":3613:3620   */\n      dup5\n        /* \"#utility.yul\":3604:3610   */\n      dup3\n        /* \"#utility.yul\":3593:3602   */\n      dup6\n        /* \"#utility.yul\":3589:3611   */\n      add\n        /* \"#utility.yul\":3568:3621   */\n      tag_50\n      jump\t// in\n    tag_98:\n        /* \"#utility.yul\":3558:3621   */\n      swap2\n      pop\n        /* \"#utility.yul\":3514:3631   */\n      pop\n        /* \"#utility.yul\":3309:3638   */\n      swap3\n      swap2\n      pop\n      pop\n      jump\t// out\n        /* \"#utility.yul\":3644:3734   */\n    tag_51:\n        /* \"#utility.yul\":3678:3685   */\n      0x00\n        /* \"#utility.yul\":3721:3726   */\n      dup2\n        /* \"#utility.yul\":3714:3727   */\n      iszero\n        /* \"#utility.yul\":3707:3728   */\n      iszero\n        /* \"#utility.yul\":3696:3728   */\n      swap1\n      pop\n        /* \"#utility.yul\":3644:3734   */\n      swap2\n      swap1\n      pop\n      jump\t// out\n        /* \"#utility.yul\":3740:3849   */\n    tag_52:\n        /* \"#utility.yul\":3821:3842   */\n      tag_101\n        /* \"#utility.yul\":3836:3841   */\n      dup2\n        /* \"#utility.yul\":3821:3842   */\n      tag_51\n      jump\t// in\n    tag_101:\n        /* \"#utility.yul\":3816:3819   */\n      dup3\n        /* \"#utility.yul\":3809:3843   */\n      mstore\n        /* \"#utility.yul\":3740:3849   */\n      pop\n      pop\n      jump\t// out\n        /* \"#utility.yul\":3855:4163   */\n    tag_17:\n        /* \"#utility.yul\":3964:3968   */\n      0x00\n        /* \"#utility.yul\":4002:4004   */\n      0x40\n        /* \"#utility.yul\":3991:4000   */\n      dup3\n        /* \"#utility.yul\":3987:4005   */\n      add\n        /* \"#utility.yul\":3979:4005   */\n      swap1\n      pop\n        /* \"#utility.yul\":4015:4080   */\n      tag_103\n        /* \"#utility.yul\":4077:4078   */\n      0x00\n        /* \"#utility.yul\":4066:4075   */\n      dup4\n        /* \"#utility.yul\":4062:4079   */\n      add\n        /* \"#utility.yul\":4053:4059   */\n      dup6\n        /* \"#utility.yul\":4015:4080   */\n      tag_52\n      jump\t// in\n    tag_103:\n        /* \"#utility.yul\":4090:4156   */\n      tag_104\n        /* \"#utility.yul\":4152:4154   */\n      0x20\n        /* \"#utility.yul\":4141:4150   */\n      dup4\n        /* \"#utility.yul\":4137:4155   */\n      add\n        /* \"#utility.yul\":4128:4134   */\n      dup5\n        /* \"#utility.yul\":4090:4156   */\n      tag_52\n      jump\t// in\n    tag_104:\n        /* \"#utility.yul\":3855:4163   */\n      swap4\n      swap3\n      pop\n      pop\n      pop\n      jump\t// out\n        /* \"#utility.yul\":4169:4287   */\n    tag_53:\n        /* \"#utility.yul\":4256:4280   */\n      tag_106\n        /* \"#utility.yul\":4274:4279   */\n      dup2\n        /* \"#utility.yul\":4256:4280   */\n      tag_48\n      jump\t// in\n    tag_106:\n        /* \"#utility.yul\":4251:4254   */\n      dup3\n        /* \"#utility.yul\":4244:4281   */\n      mstore\n        /* \"#utility.yul\":4169:4287   */\n      pop\n      pop\n      jump\t// out\n        /* \"#utility.yul\":4293:4515   */\n    tag_21:\n        /* \"#utility.yul\":4386:4390   */\n      0x00\n        /* \"#utility.yul\":4424:4426   */\n      0x20\n        /* \"#utility.yul\":4413:4422   */\n      dup3\n        /* \"#utility.yul\":4409:4427   */\n      add\n        /* \"#utility.yul\":4401:4427   */\n      swap1\n      pop\n        /* \"#utility.yul\":4437:4508   */\n      tag_108\n        /* \"#utility.yul\":4505:4506   */\n      0x00\n        /* \"#utility.yul\":4494:4503   */\n      dup4\n        /* \"#utility.yul\":4490:4507   */\n      add\n        /* \"#utility.yul\":4481:4487   */\n      dup5\n        /* \"#utility.yul\":4437:4508   */\n      tag_53\n      jump\t// in\n    tag_108:\n        /* \"#utility.yul\":4293:4515   */\n      swap3\n      swap2\n      pop\n      pop\n      jump\t// out\n        /* \"#utility.yul\":4521:4701   */\n    tag_54:\n        /* \"#utility.yul\":4569:4646   */\n      0x4e487b7100000000000000000000000000000000000000000000000000000000\n        /* \"#utility.yul\":4566:4567   */\n      0x00\n        /* \"#utility.yul\":4559:4647   */\n      mstore\n        /* \"#utility.yul\":4666:4670   */\n      0x22\n        /* \"#utility.yul\":4663:4664   */\n      0x04\n        /* \"#utility.yul\":4656:4671   */\n      mstore\n        /* \"#utility.yul\":4690:4694   */\n      0x24\n        /* \"#utility.yul\":4687:4688   */\n      0x00\n        /* \"#utility.yul\":4680:4695   */\n      revert\n        /* \"#utility.yul\":4707:5027   */\n    tag_25:\n        /* \"#utility.yul\":4751:4757   */\n      0x00\n        /* \"#utility.yul\":4788:4789   */\n      0x02\n        /* \"#utility.yul\":4782:4786   */\n      dup3\n        /* \"#utility.yul\":4778:4790   */\n      div\n        /* \"#utility.yul\":4768:4790   */\n      swap1\n      pop\n        /* \"#utility.yul\":4835:4836   */\n      0x01\n        /* \"#utility.yul\":4829:4833   */\n      dup3\n        /* \"#utility.yul\":4825:4837   */\n      and\n        /* \"#utility.yul\":4856:4874   */\n      dup1\n        /* \"#utility.yul\":4846:4927   */\n      tag_111\n      jumpi\n        /* \"#utility.yul\":4912:4916   */\n      0x7f\n        /* \"#utility.yul\":4904:4910   */\n      dup3\n        /* \"#utility.yul\":4900:4917   */\n      and\n        /* \"#utility.yul\":4890:4917   */\n      swap2\n      pop\n        /* \"#utility.yul\":4846:4927   */\n    tag_111:\n        /* \"#utility.yul\":4974:4976   */\n      0x20\n        /* \"#utility.yul\":4966:4972   */\n      dup3\n        /* \"#utility.yul\":4963:4977   */\n      lt\n        /* \"#utility.yul\":4943:4961   */\n      dup2\n        /* \"#utility.yul\":4940:4978   */\n      sub\n        /* \"#utility.yul\":4937:5021   */\n      tag_112\n      jumpi\n        /* \"#utility.yul\":4993:5011   */\n      tag_113\n      tag_54\n      jump\t// in\n    tag_113:\n        /* \"#utility.yul\":4937:5021   */\n    tag_112:\n        /* \"#utility.yul\":4758:5027   */\n      pop\n        /* \"#utility.yul\":4707:5027   */\n      swap2\n      swap1\n      pop\n      jump\t// out\n\n    auxdata: 0xa2646970667358221220b596677d7f55768577601e5baf607c03864f08a5e48af193b4f2e660e8e9e06964736f6c63430008110033\n}\n",
				"bytecode": {
					"linkReferences": {},
					"object": "60806040523480156200001157600080fd5b5060405162000daf38038062000daf8339818101604052810190620000379190620003ef565b336000806101000a81548173ffffffffffffffffffffffffffffffffffffffff021916908373ffffffffffffffffffffffffffffffffffffffff16021790555060005b8251811015620001575760026040518060600160405280858481518110620000a757620000a662000474565b5b60200260200101518152602001848481518110620000ca57620000c962000474565b5b602002602001015181526020016000815250908060018154018082558091505060019003906000526020600020906003020160009091909190915060008201518160000190816200011c9190620006ee565b506020820151816001019081620001349190620006ee565b5060408201518160020155505080806200014e9062000804565b9150506200007a565b50505062000851565b6000604051905090565b600080fd5b600080fd5b600080fd5b6000601f19601f8301169050919050565b7f4e487b7100000000000000000000000000000000000000000000000000000000600052604160045260246000fd5b620001c48262000179565b810181811067ffffffffffffffff82111715620001e657620001e56200018a565b5b80604052505050565b6000620001fb62000160565b9050620002098282620001b9565b919050565b600067ffffffffffffffff8211156200022c576200022b6200018a565b5b602082029050602081019050919050565b600080fd5b600080fd5b600067ffffffffffffffff8211156200026557620002646200018a565b5b620002708262000179565b9050602081019050919050565b60005b838110156200029d57808201518184015260208101905062000280565b60008484015250505050565b6000620002c0620002ba8462000247565b620001ef565b905082815260208101848484011115620002df57620002de62000242565b5b620002ec8482856200027d565b509392505050565b600082601f8301126200030c576200030b62000174565b5b81516200031e848260208601620002a9565b91505092915050565b60006200033e62000338846200020e565b620001ef565b905080838252602082019050602084028301858111156200036457620003636200023d565b5b835b81811015620003b257805167ffffffffffffffff8111156200038d576200038c62000174565b5b8086016200039c8982620002f4565b8552602085019450505060208101905062000366565b5050509392505050565b600082601f830112620003d457620003d362000174565b5b8151620003e684826020860162000327565b91505092915050565b600080604083850312156200040957620004086200016a565b5b600083015167ffffffffffffffff8111156200042a57620004296200016f565b5b6200043885828601620003bc565b925050602083015167ffffffffffffffff8111156200045c576200045b6200016f565b5b6200046a85828601620003bc565b9150509250929050565b7f4e487b7100000000000000000000000000000000000000000000000000000000600052603260045260246000fd5b600081519050919050565b7f4e487b7100000000000000000000000000000000000000000000000000000000600052602260045260246000fd5b60006002820490506001821680620004f657607f821691505b6020821081036200050c576200050b620004ae565b5b50919050565b60008190508160005260206000209050919050565b60006020601f8301049050919050565b600082821b905092915050565b600060088302620005767fffffffffffffffffffffffffffffffffffffffffffffffffffffffffffffffff8262000537565b62000582868362000537565b95508019841693508086168417925050509392505050565b6000819050919050565b6000819050919050565b6000620005cf620005c9620005c3846200059a565b620005a4565b6200059a565b9050919050565b6000819050919050565b620005eb83620005ae565b62000603620005fa82620005d6565b84845462000544565b825550505050565b600090565b6200061a6200060b565b62000627818484620005e0565b505050565b5b818110156200064f576200064360008262000610565b6001810190506200062d565b5050565b601f8211156200069e57620006688162000512565b620006738462000527565b8101602085101562000683578190505b6200069b620006928562000527565b8301826200062c565b50505b505050565b600082821c905092915050565b6000620006c360001984600802620006a3565b1980831691505092915050565b6000620006de8383620006b0565b9150826002028217905092915050565b620006f982620004a3565b67ffffffffffffffff8111156200071557620007146200018a565b5b620007218254620004dd565b6200072e82828562000653565b600060209050601f83116001811462000766576000841562000751578287015190505b6200075d8582620006d0565b865550620007cd565b601f198416620007768662000512565b60005b82811015620007a05784890151825560018201915060208501945060208101905062000779565b86831015620007c05784890151620007bc601f891682620006b0565b8355505b6001600288020188555050505b505050505050565b7f4e487b7100000000000000000000000000000000000000000000000000000000600052601160045260246000fd5b600062000811826200059a565b91507fffffffffffffffffffffffffffffffffffffffffffffffffffffffffffffffff8203620008465762000845620007d5565b5b600182019050919050565b61054e80620008616000396000f3fe608060405234801561001057600080fd5b50600436106100415760003560e01c80633477ee2e14610046578063a3ec138d14610078578063ce606ee0146100a9575b600080fd5b610060600480360381019061005b91906102ae565b6100c7565b60405161006f9392919061037a565b60405180910390f35b610092600480360381019061008d919061041d565b610211565b6040516100a0929190610465565b60405180910390f35b6100b161024f565b6040516100be919061049d565b60405180910390f35b600281815481106100d757600080fd5b90600052602060002090600302016000915090508060000180546100fa906104e7565b80601f0160208091040260200160405190810160405280929190818152602001828054610126906104e7565b80156101735780601f1061014857610100808354040283529160200191610173565b820191906000526020600020905b81548152906001019060200180831161015657829003601f168201915b505050505090806001018054610188906104e7565b80601f01602080910402602001604051908101604052809291908181526020018280546101b4906104e7565b80156102015780601f106101d657610100808354040283529160200191610201565b820191906000526020600020905b8154815290600101906020018083116101e457829003601f168201915b5050505050908060020154905083565b60016020528060005260406000206000915090508060000160009054906101000a900460ff16908060000160019054906101000a900460ff16905082565b60008054906101000a900473ffffffffffffffffffffffffffffffffffffffff1681565b600080fd5b6000819050919050565b61028b81610278565b811461029657600080fd5b50565b6000813590506102a881610282565b92915050565b6000602082840312156102c4576102c3610273565b5b60006102d284828501610299565b91505092915050565b600081519050919050565b600082825260208201905092915050565b60005b838110156103155780820151818401526020810190506102fa565b60008484015250505050565b6000601f19601f8301169050919050565b600061033d826102db565b61034781856102e6565b93506103578185602086016102f7565b61036081610321565b840191505092915050565b61037481610278565b82525050565b600060608201905081810360008301526103948186610332565b905081810360208301526103a88185610332565b90506103b7604083018461036b565b949350505050565b600073ffffffffffffffffffffffffffffffffffffffff82169050919050565b60006103ea826103bf565b9050919050565b6103fa816103df565b811461040557600080fd5b50565b600081359050610417816103f1565b92915050565b60006020828403121561043357610432610273565b5b600061044184828501610408565b91505092915050565b60008115159050919050565b61045f8161044a565b82525050565b600060408201905061047a6000830185610456565b6104876020830184610456565b9392505050565b610497816103df565b82525050565b60006020820190506104b2600083018461048e565b92915050565b7f4e487b7100000000000000000000000000000000000000000000000000000000600052602260045260246000fd5b600060028204905060018216806104ff57607f821691505b602082108103610512576105116104b8565b5b5091905056fea2646970667358221220b596677d7f55768577601e5baf607c03864f08a5e48af193b4f2e660e8e9e06964736f6c63430008110033",
					"opcodes": "PUSH1 0x80 PUSH1 0x40 MSTORE CALLVALUE DUP1 ISZERO PUSH3 0x11 JUMPI PUSH1 0x0 DUP1 REVERT JUMPDEST POP PUSH1 0x40 MLOAD PUSH3 0xDAF CODESIZE SUB DUP1 PUSH3 0xDAF DUP4 CODECOPY DUP2 DUP2 ADD PUSH1 0x40 MSTORE DUP2 ADD SWAP1 PUSH3 0x37 SWAP2 SWAP1 PUSH3 0x3EF JUMP JUMPDEST CALLER PUSH1 0x0 DUP1 PUSH2 0x100 EXP DUP2 SLOAD DUP2 PUSH20 0xFFFFFFFFFFFFFFFFFFFFFFFFFFFFFFFFFFFFFFFF MUL NOT AND SWAP1 DUP4 PUSH20 0xFFFFFFFFFFFFFFFFFFFFFFFFFFFFFFFFFFFFFFFF AND MUL OR SWAP1 SSTORE POP PUSH1 0x0 JUMPDEST DUP3 MLOAD DUP2 LT ISZERO PUSH3 0x157 JUMPI PUSH1 0x2 PUSH1 0x40 MLOAD DUP1 PUSH1 0x60 ADD PUSH1 0x40 MSTORE DUP1 DUP6 DUP5 DUP2 MLOAD DUP2 LT PUSH3 0xA7 JUMPI PUSH3 0xA6 PUSH3 0x474 JUMP JUMPDEST JUMPDEST PUSH1 0x20 MUL PUSH1 0x20 ADD ADD MLOAD DUP2 MSTORE PUSH1 0x20 ADD DUP5 DUP5 DUP2 MLOAD DUP2 LT PUSH3 0xCA JUMPI PUSH3 0xC9 PUSH3 0x474 JUMP JUMPDEST JUMPDEST PUSH1 0x20 MUL PUSH1 0x20 ADD ADD MLOAD DUP2 MSTORE PUSH1 0x20 ADD PUSH1 0x0 DUP2 MSTORE POP SWAP1 DUP1 PUSH1 0x1 DUP2 SLOAD ADD DUP1 DUP3 SSTORE DUP1 SWAP2 POP POP PUSH1 0x1 SWAP1 SUB SWAP1 PUSH1 0x0 MSTORE PUSH1 0x20 PUSH1 0x0 KECCAK256 SWAP1 PUSH1 0x3 MUL ADD PUSH1 0x0 SWAP1 SWAP2 SWAP1 SWAP2 SWAP1 SWAP2 POP PUSH1 0x0 DUP3 ADD MLOAD DUP2 PUSH1 0x0 ADD SWAP1 DUP2 PUSH3 0x11C SWAP2 SWAP1 PUSH3 0x6EE JUMP JUMPDEST POP PUSH1 0x20 DUP3 ADD MLOAD DUP2 PUSH1 0x1 ADD SWAP1 DUP2 PUSH3 0x134 SWAP2 SWAP1 PUSH3 0x6EE JUMP JUMPDEST POP PUSH1 0x40 DUP3 ADD MLOAD DUP2 PUSH1 0x2 ADD SSTORE POP POP DUP1 DUP1 PUSH3 0x14E SWAP1 PUSH3 0x804 JUMP JUMPDEST SWAP2 POP POP PUSH3 0x7A JUMP JUMPDEST POP POP POP PUSH3 0x851 JUMP JUMPDEST PUSH1 0x0 PUSH1 0x40 MLOAD SWAP1 POP SWAP1 JUMP JUMPDEST PUSH1 0x0 DUP1 REVERT JUMPDEST PUSH1 0x0 DUP1 REVERT JUMPDEST PUSH1 0x0 DUP1 REVERT JUMPDEST PUSH1 0x0 PUSH1 0x1F NOT PUSH1 0x1F DUP4 ADD AND SWAP1 POP SWAP2 SWAP1 POP JUMP JUMPDEST PUSH32 0x4E487B7100000000000000000000000000000000000000000000000000000000 PUSH1 0x0 MSTORE PUSH1 0x41 PUSH1 0x4 MSTORE PUSH1 0x24 PUSH1 0x0 REVERT JUMPDEST PUSH3 0x1C4 DUP3 PUSH3 0x179 JUMP JUMPDEST DUP2 ADD DUP2 DUP2 LT PUSH8 0xFFFFFFFFFFFFFFFF DUP3 GT OR ISZERO PUSH3 0x1E6 JUMPI PUSH3 0x1E5 PUSH3 0x18A JUMP JUMPDEST JUMPDEST DUP1 PUSH1 0x40 MSTORE POP POP POP JUMP JUMPDEST PUSH1 0x0 PUSH3 0x1FB PUSH3 0x160 JUMP JUMPDEST SWAP1 POP PUSH3 0x209 DUP3 DUP3 PUSH3 0x1B9 JUMP JUMPDEST SWAP2 SWAP1 POP JUMP JUMPDEST PUSH1 0x0 PUSH8 0xFFFFFFFFFFFFFFFF DUP3 GT ISZERO PUSH3 0x22C JUMPI PUSH3 0x22B PUSH3 0x18A JUMP JUMPDEST JUMPDEST PUSH1 0x20 DUP3 MUL SWAP1 POP PUSH1 0x20 DUP2 ADD SWAP1 POP SWAP2 SWAP1 POP JUMP JUMPDEST PUSH1 0x0 DUP1 REVERT JUMPDEST PUSH1 0x0 DUP1 REVERT JUMPDEST PUSH1 0x0 PUSH8 0xFFFFFFFFFFFFFFFF DUP3 GT ISZERO PUSH3 0x265 JUMPI PUSH3 0x264 PUSH3 0x18A JUMP JUMPDEST JUMPDEST PUSH3 0x270 DUP3 PUSH3 0x179 JUMP JUMPDEST SWAP1 POP PUSH1 0x20 DUP2 ADD SWAP1 POP SWAP2 SWAP1 POP JUMP JUMPDEST PUSH1 0x0 JUMPDEST DUP4 DUP2 LT ISZERO PUSH3 0x29D JUMPI DUP1 DUP3 ADD MLOAD DUP2 DUP5 ADD MSTORE PUSH1 0x20 DUP2 ADD SWAP1 POP PUSH3 0x280 JUMP JUMPDEST PUSH1 0x0 DUP5 DUP5 ADD MSTORE POP POP POP POP JUMP JUMPDEST PUSH1 0x0 PUSH3 0x2C0 PUSH3 0x2BA DUP5 PUSH3 0x247 JUMP JUMPDEST PUSH3 0x1EF JUMP JUMPDEST SWAP1 POP DUP3 DUP2 MSTORE PUSH1 0x20 DUP2 ADD DUP5 DUP5 DUP5 ADD GT ISZERO PUSH3 0x2DF JUMPI PUSH3 0x2DE PUSH3 0x242 JUMP JUMPDEST JUMPDEST PUSH3 0x2EC DUP5 DUP3 DUP6 PUSH3 0x27D JUMP JUMPDEST POP SWAP4 SWAP3 POP POP POP JUMP JUMPDEST PUSH1 0x0 DUP3 PUSH1 0x1F DUP4 ADD SLT PUSH3 0x30C JUMPI PUSH3 0x30B PUSH3 0x174 JUMP JUMPDEST JUMPDEST DUP2 MLOAD PUSH3 0x31E DUP5 DUP3 PUSH1 0x20 DUP7 ADD PUSH3 0x2A9 JUMP JUMPDEST SWAP2 POP POP SWAP3 SWAP2 POP POP JUMP JUMPDEST PUSH1 0x0 PUSH3 0x33E PUSH3 0x338 DUP5 PUSH3 0x20E JUMP JUMPDEST PUSH3 0x1EF JUMP JUMPDEST SWAP1 POP DUP1 DUP4 DUP3 MSTORE PUSH1 0x20 DUP3 ADD SWAP1 POP PUSH1 0x20 DUP5 MUL DUP4 ADD DUP6 DUP2 GT ISZERO PUSH3 0x364 JUMPI PUSH3 0x363 PUSH3 0x23D JUMP JUMPDEST JUMPDEST DUP4 JUMPDEST DUP2 DUP2 LT ISZERO PUSH3 0x3B2 JUMPI DUP1 MLOAD PUSH8 0xFFFFFFFFFFFFFFFF DUP2 GT ISZERO PUSH3 0x38D JUMPI PUSH3 0x38C PUSH3 0x174 JUMP JUMPDEST JUMPDEST DUP1 DUP7 ADD PUSH3 0x39C DUP10 DUP3 PUSH3 0x2F4 JUMP JUMPDEST DUP6 MSTORE PUSH1 0x20 DUP6 ADD SWAP5 POP POP POP PUSH1 0x20 DUP2 ADD SWAP1 POP PUSH3 0x366 JUMP JUMPDEST POP POP POP SWAP4 SWAP3 POP POP POP JUMP JUMPDEST PUSH1 0x0 DUP3 PUSH1 0x1F DUP4 ADD SLT PUSH3 0x3D4 JUMPI PUSH3 0x3D3 PUSH3 0x174 JUMP JUMPDEST JUMPDEST DUP2 MLOAD PUSH3 0x3E6 DUP5 DUP3 PUSH1 0x20 DUP7 ADD PUSH3 0x327 JUMP JUMPDEST SWAP2 POP POP SWAP3 SWAP2 POP POP JUMP JUMPDEST PUSH1 0x0 DUP1 PUSH1 0x40 DUP4 DUP6 SUB SLT ISZERO PUSH3 0x409 JUMPI PUSH3 0x408 PUSH3 0x16A JUMP JUMPDEST JUMPDEST PUSH1 0x0 DUP4 ADD MLOAD PUSH8 0xFFFFFFFFFFFFFFFF DUP2 GT ISZERO PUSH3 0x42A JUMPI PUSH3 0x429 PUSH3 0x16F JUMP JUMPDEST JUMPDEST PUSH3 0x438 DUP6 DUP3 DUP7 ADD PUSH3 0x3BC JUMP JUMPDEST SWAP3 POP POP PUSH1 0x20 DUP4 ADD MLOAD PUSH8 0xFFFFFFFFFFFFFFFF DUP2 GT ISZERO PUSH3 0x45C JUMPI PUSH3 0x45B PUSH3 0x16F JUMP JUMPDEST JUMPDEST PUSH3 0x46A DUP6 DUP3 DUP7 ADD PUSH3 0x3BC JUMP JUMPDEST SWAP2 POP POP SWAP3 POP SWAP3 SWAP1 POP JUMP JUMPDEST PUSH32 0x4E487B7100000000000000000000000000000000000000000000000000000000 PUSH1 0x0 MSTORE PUSH1 0x32 PUSH1 0x4 MSTORE PUSH1 0x24 PUSH1 0x0 REVERT JUMPDEST PUSH1 0x0 DUP2 MLOAD SWAP1 POP SWAP2 SWAP1 POP JUMP JUMPDEST PUSH32 0x4E487B7100000000000000000000000000000000000000000000000000000000 PUSH1 0x0 MSTORE PUSH1 0x22 PUSH1 0x4 MSTORE PUSH1 0x24 PUSH1 0x0 REVERT JUMPDEST PUSH1 0x0 PUSH1 0x2 DUP3 DIV SWAP1 POP PUSH1 0x1 DUP3 AND DUP1 PUSH3 0x4F6 JUMPI PUSH1 0x7F DUP3 AND SWAP2 POP JUMPDEST PUSH1 0x20 DUP3 LT DUP2 SUB PUSH3 0x50C JUMPI PUSH3 0x50B PUSH3 0x4AE JUMP JUMPDEST JUMPDEST POP SWAP2 SWAP1 POP JUMP JUMPDEST PUSH1 0x0 DUP2 SWAP1 POP DUP2 PUSH1 0x0 MSTORE PUSH1 0x20 PUSH1 0x0 KECCAK256 SWAP1 POP SWAP2 SWAP1 POP JUMP JUMPDEST PUSH1 0x0 PUSH1 0x20 PUSH1 0x1F DUP4 ADD DIV SWAP1 POP SWAP2 SWAP1 POP JUMP JUMPDEST PUSH1 0x0 DUP3 DUP3 SHL SWAP1 POP SWAP3 SWAP2 POP POP JUMP JUMPDEST PUSH1 0x0 PUSH1 0x8 DUP4 MUL PUSH3 0x576 PUSH32 0xFFFFFFFFFFFFFFFFFFFFFFFFFFFFFFFFFFFFFFFFFFFFFFFFFFFFFFFFFFFFFFFF DUP3 PUSH3 0x537 JUMP JUMPDEST PUSH3 0x582 DUP7 DUP4 PUSH3 0x537 JUMP JUMPDEST SWAP6 POP DUP1 NOT DUP5 AND SWAP4 POP DUP1 DUP7 AND DUP5 OR SWAP3 POP POP POP SWAP4 SWAP3 POP POP POP JUMP JUMPDEST PUSH1 0x0 DUP2 SWAP1 POP SWAP2 SWAP1 POP JUMP JUMPDEST PUSH1 0x0 DUP2 SWAP1 POP SWAP2 SWAP1 POP JUMP JUMPDEST PUSH1 0x0 PUSH3 0x5CF PUSH3 0x5C9 PUSH3 0x5C3 DUP5 PUSH3 0x59A JUMP JUMPDEST PUSH3 0x5A4 JUMP JUMPDEST PUSH3 0x59A JUMP JUMPDEST SWAP1 POP SWAP2 SWAP1 POP JUMP JUMPDEST PUSH1 0x0 DUP2 SWAP1 POP SWAP2 SWAP1 POP JUMP JUMPDEST PUSH3 0x5EB DUP4 PUSH3 0x5AE JUMP JUMPDEST PUSH3 0x603 PUSH3 0x5FA DUP3 PUSH3 0x5D6 JUMP JUMPDEST DUP5 DUP5 SLOAD PUSH3 0x544 JUMP JUMPDEST DUP3 SSTORE POP POP POP POP JUMP JUMPDEST PUSH1 0x0 SWAP1 JUMP JUMPDEST PUSH3 0x61A PUSH3 0x60B JUMP JUMPDEST PUSH3 0x627 DUP2 DUP5 DUP5 PUSH3 0x5E0 JUMP JUMPDEST POP POP POP JUMP JUMPDEST JUMPDEST DUP2 DUP2 LT ISZERO PUSH3 0x64F JUMPI PUSH3 0x643 PUSH1 0x0 DUP3 PUSH3 0x610 JUMP JUMPDEST PUSH1 0x1 DUP2 ADD SWAP1 POP PUSH3 0x62D JUMP JUMPDEST POP POP JUMP JUMPDEST PUSH1 0x1F DUP3 GT ISZERO PUSH3 0x69E JUMPI PUSH3 0x668 DUP2 PUSH3 0x512 JUMP JUMPDEST PUSH3 0x673 DUP5 PUSH3 0x527 JUMP JUMPDEST DUP2 ADD PUSH1 0x20 DUP6 LT ISZERO PUSH3 0x683 JUMPI DUP2 SWAP1 POP JUMPDEST PUSH3 0x69B PUSH3 0x692 DUP6 PUSH3 0x527 JUMP JUMPDEST DUP4 ADD DUP3 PUSH3 0x62C JUMP JUMPDEST POP POP JUMPDEST POP POP POP JUMP JUMPDEST PUSH1 0x0 DUP3 DUP3 SHR SWAP1 POP SWAP3 SWAP2 POP POP JUMP JUMPDEST PUSH1 0x0 PUSH3 0x6C3 PUSH1 0x0 NOT DUP5 PUSH1 0x8 MUL PUSH3 0x6A3 JUMP JUMPDEST NOT DUP1 DUP4 AND SWAP2 POP POP SWAP3 SWAP2 POP POP JUMP JUMPDEST PUSH1 0x0 PUSH3 0x6DE DUP4 DUP4 PUSH3 0x6B0 JUMP JUMPDEST SWAP2 POP DUP3 PUSH1 0x2 MUL DUP3 OR SWAP1 POP SWAP3 SWAP2 POP POP JUMP JUMPDEST PUSH3 0x6F9 DUP3 PUSH3 0x4A3 JUMP JUMPDEST PUSH8 0xFFFFFFFFFFFFFFFF DUP2 GT ISZERO PUSH3 0x715 JUMPI PUSH3 0x714 PUSH3 0x18A JUMP JUMPDEST JUMPDEST PUSH3 0x721 DUP3 SLOAD PUSH3 0x4DD JUMP JUMPDEST PUSH3 0x72E DUP3 DUP3 DUP6 PUSH3 0x653 JUMP JUMPDEST PUSH1 0x0 PUSH1 0x20 SWAP1 POP PUSH1 0x1F DUP4 GT PUSH1 0x1 DUP2 EQ PUSH3 0x766 JUMPI PUSH1 0x0 DUP5 ISZERO PUSH3 0x751 JUMPI DUP3 DUP8 ADD MLOAD SWAP1 POP JUMPDEST PUSH3 0x75D DUP6 DUP3 PUSH3 0x6D0 JUMP JUMPDEST DUP7 SSTORE POP PUSH3 0x7CD JUMP JUMPDEST PUSH1 0x1F NOT DUP5 AND PUSH3 0x776 DUP7 PUSH3 0x512 JUMP JUMPDEST PUSH1 0x0 JUMPDEST DUP3 DUP2 LT ISZERO PUSH3 0x7A0 JUMPI DUP5 DUP10 ADD MLOAD DUP3 SSTORE PUSH1 0x1 DUP3 ADD SWAP2 POP PUSH1 0x20 DUP6 ADD SWAP5 POP PUSH1 0x20 DUP2 ADD SWAP1 POP PUSH3 0x779 JUMP JUMPDEST DUP7 DUP4 LT ISZERO PUSH3 0x7C0 JUMPI DUP5 DUP10 ADD MLOAD PUSH3 0x7BC PUSH1 0x1F DUP10 AND DUP3 PUSH3 0x6B0 JUMP JUMPDEST DUP4 SSTORE POP JUMPDEST PUSH1 0x1 PUSH1 0x2 DUP9 MUL ADD DUP9 SSTORE POP POP POP JUMPDEST POP POP POP POP POP POP JUMP JUMPDEST PUSH32 0x4E487B7100000000000000000000000000000000000000000000000000000000 PUSH1 0x0 MSTORE PUSH1 0x11 PUSH1 0x4 MSTORE PUSH1 0x24 PUSH1 0x0 REVERT JUMPDEST PUSH1 0x0 PUSH3 0x811 DUP3 PUSH3 0x59A JUMP JUMPDEST SWAP2 POP PUSH32 0xFFFFFFFFFFFFFFFFFFFFFFFFFFFFFFFFFFFFFFFFFFFFFFFFFFFFFFFFFFFFFFFF DUP3 SUB PUSH3 0x846 JUMPI PUSH3 0x845 PUSH3 0x7D5 JUMP JUMPDEST JUMPDEST PUSH1 0x1 DUP3 ADD SWAP1 POP SWAP2 SWAP1 POP JUMP JUMPDEST PUSH2 0x54E DUP1 PUSH3 0x861 PUSH1 0x0 CODECOPY PUSH1 0x0 RETURN INVALID PUSH1 0x80 PUSH1 0x40 MSTORE CALLVALUE DUP1 ISZERO PUSH2 0x10 JUMPI PUSH1 0x0 DUP1 REVERT JUMPDEST POP PUSH1 0x4 CALLDATASIZE LT PUSH2 0x41 JUMPI PUSH1 0x0 CALLDATALOAD PUSH1 0xE0 SHR DUP1 PUSH4 0x3477EE2E EQ PUSH2 0x46 JUMPI DUP1 PUSH4 0xA3EC138D EQ PUSH2 0x78 JUMPI DUP1 PUSH4 0xCE606EE0 EQ PUSH2 0xA9 JUMPI JUMPDEST PUSH1 0x0 DUP1 REVERT JUMPDEST PUSH2 0x60 PUSH1 0x4 DUP1 CALLDATASIZE SUB DUP2 ADD SWAP1 PUSH2 0x5B SWAP2 SWAP1 PUSH2 0x2AE JUMP JUMPDEST PUSH2 0xC7 JUMP JUMPDEST PUSH1 0x40 MLOAD PUSH2 0x6F SWAP4 SWAP3 SWAP2 SWAP1 PUSH2 0x37A JUMP JUMPDEST PUSH1 0x40 MLOAD DUP1 SWAP2 SUB SWAP1 RETURN JUMPDEST PUSH2 0x92 PUSH1 0x4 DUP1 CALLDATASIZE SUB DUP2 ADD SWAP1 PUSH2 0x8D SWAP2 SWAP1 PUSH2 0x41D JUMP JUMPDEST PUSH2 0x211 JUMP JUMPDEST PUSH1 0x40 MLOAD PUSH2 0xA0 SWAP3 SWAP2 SWAP1 PUSH2 0x465 JUMP JUMPDEST PUSH1 0x40 MLOAD DUP1 SWAP2 SUB SWAP1 RETURN JUMPDEST PUSH2 0xB1 PUSH2 0x24F JUMP JUMPDEST PUSH1 0x40 MLOAD PUSH2 0xBE SWAP2 SWAP1 PUSH2 0x49D JUMP JUMPDEST PUSH1 0x40 MLOAD DUP1 SWAP2 SUB SWAP1 RETURN JUMPDEST PUSH1 0x2 DUP2 DUP2 SLOAD DUP2 LT PUSH2 0xD7 JUMPI PUSH1 0x0 DUP1 REVERT JUMPDEST SWAP1 PUSH1 0x0 MSTORE PUSH1 0x20 PUSH1 0x0 KECCAK256 SWAP1 PUSH1 0x3 MUL ADD PUSH1 0x0 SWAP2 POP SWAP1 POP DUP1 PUSH1 0x0 ADD DUP1 SLOAD PUSH2 0xFA SWAP1 PUSH2 0x4E7 JUMP JUMPDEST DUP1 PUSH1 0x1F ADD PUSH1 0x20 DUP1 SWAP2 DIV MUL PUSH1 0x20 ADD PUSH1 0x40 MLOAD SWAP1 DUP2 ADD PUSH1 0x40 MSTORE DUP1 SWAP3 SWAP2 SWAP1 DUP2 DUP2 MSTORE PUSH1 0x20 ADD DUP3 DUP1 SLOAD PUSH2 0x126 SWAP1 PUSH2 0x4E7 JUMP JUMPDEST DUP1 ISZERO PUSH2 0x173 JUMPI DUP1 PUSH1 0x1F LT PUSH2 0x148 JUMPI PUSH2 0x100 DUP1 DUP4 SLOAD DIV MUL DUP4 MSTORE SWAP2 PUSH1 0x20 ADD SWAP2 PUSH2 0x173 JUMP JUMPDEST DUP3 ADD SWAP2 SWAP1 PUSH1 0x0 MSTORE PUSH1 0x20 PUSH1 0x0 KECCAK256 SWAP1 JUMPDEST DUP2 SLOAD DUP2 MSTORE SWAP1 PUSH1 0x1 ADD SWAP1 PUSH1 0x20 ADD DUP1 DUP4 GT PUSH2 0x156 JUMPI DUP3 SWAP1 SUB PUSH1 0x1F AND DUP3 ADD SWAP2 JUMPDEST POP POP POP POP POP SWAP1 DUP1 PUSH1 0x1 ADD DUP1 SLOAD PUSH2 0x188 SWAP1 PUSH2 0x4E7 JUMP JUMPDEST DUP1 PUSH1 0x1F ADD PUSH1 0x20 DUP1 SWAP2 DIV MUL PUSH1 0x20 ADD PUSH1 0x40 MLOAD SWAP1 DUP2 ADD PUSH1 0x40 MSTORE DUP1 SWAP3 SWAP2 SWAP1 DUP2 DUP2 MSTORE PUSH1 0x20 ADD DUP3 DUP1 SLOAD PUSH2 0x1B4 SWAP1 PUSH2 0x4E7 JUMP JUMPDEST DUP1 ISZERO PUSH2 0x201 JUMPI DUP1 PUSH1 0x1F LT PUSH2 0x1D6 JUMPI PUSH2 0x100 DUP1 DUP4 SLOAD DIV MUL DUP4 MSTORE SWAP2 PUSH1 0x20 ADD SWAP2 PUSH2 0x201 JUMP JUMPDEST DUP3 ADD SWAP2 SWAP1 PUSH1 0x0 MSTORE PUSH1 0x20 PUSH1 0x0 KECCAK256 SWAP1 JUMPDEST DUP2 SLOAD DUP2 MSTORE SWAP1 PUSH1 0x1 ADD SWAP1 PUSH1 0x20 ADD DUP1 DUP4 GT PUSH2 0x1E4 JUMPI DUP3 SWAP1 SUB PUSH1 0x1F AND DUP3 ADD SWAP2 JUMPDEST POP POP POP POP POP SWAP1 DUP1 PUSH1 0x2 ADD SLOAD SWAP1 POP DUP4 JUMP JUMPDEST PUSH1 0x1 PUSH1 0x20 MSTORE DUP1 PUSH1 0x0 MSTORE PUSH1 0x40 PUSH1 0x0 KECCAK256 PUSH1 0x0 SWAP2 POP SWAP1 POP DUP1 PUSH1 0x0 ADD PUSH1 0x0 SWAP1 SLOAD SWAP1 PUSH2 0x100 EXP SWAP1 DIV PUSH1 0xFF AND SWAP1 DUP1 PUSH1 0x0 ADD PUSH1 0x1 SWAP1 SLOAD SWAP1 PUSH2 0x100 EXP SWAP1 DIV PUSH1 0xFF AND SWAP1 POP DUP3 JUMP JUMPDEST PUSH1 0x0 DUP1 SLOAD SWAP1 PUSH2 0x100 EXP SWAP1 DIV PUSH20 0xFFFFFFFFFFFFFFFFFFFFFFFFFFFFFFFFFFFFFFFF AND DUP2 JUMP JUMPDEST PUSH1 0x0 DUP1 REVERT JUMPDEST PUSH1 0x0 DUP2 SWAP1 POP SWAP2 SWAP1 POP JUMP JUMPDEST PUSH2 0x28B DUP2 PUSH2 0x278 JUMP JUMPDEST DUP2 EQ PUSH2 0x296 JUMPI PUSH1 0x0 DUP1 REVERT JUMPDEST POP JUMP JUMPDEST PUSH1 0x0 DUP2 CALLDATALOAD SWAP1 POP PUSH2 0x2A8 DUP2 PUSH2 0x282 JUMP JUMPDEST SWAP3 SWAP2 POP POP JUMP JUMPDEST PUSH1 0x0 PUSH1 0x20 DUP3 DUP5 SUB SLT ISZERO PUSH2 0x2C4 JUMPI PUSH2 0x2C3 PUSH2 0x273 JUMP JUMPDEST JUMPDEST PUSH1 0x0 PUSH2 0x2D2 DUP5 DUP3 DUP6 ADD PUSH2 0x299 JUMP JUMPDEST SWAP2 POP POP SWAP3 SWAP2 POP POP JUMP JUMPDEST PUSH1 0x0 DUP2 MLOAD SWAP1 POP SWAP2 SWAP1 POP JUMP JUMPDEST PUSH1 0x0 DUP3 DUP3 MSTORE PUSH1 0x20 DUP3 ADD SWAP1 POP SWAP3 SWAP2 POP POP JUMP JUMPDEST PUSH1 0x0 JUMPDEST DUP4 DUP2 LT ISZERO PUSH2 0x315 JUMPI DUP1 DUP3 ADD MLOAD DUP2 DUP5 ADD MSTORE PUSH1 0x20 DUP2 ADD SWAP1 POP PUSH2 0x2FA JUMP JUMPDEST PUSH1 0x0 DUP5 DUP5 ADD MSTORE POP POP POP POP JUMP JUMPDEST PUSH1 0x0 PUSH1 0x1F NOT PUSH1 0x1F DUP4 ADD AND SWAP1 POP SWAP2 SWAP1 POP JUMP JUMPDEST PUSH1 0x0 PUSH2 0x33D DUP3 PUSH2 0x2DB JUMP JUMPDEST PUSH2 0x347 DUP2 DUP6 PUSH2 0x2E6 JUMP JUMPDEST SWAP4 POP PUSH2 0x357 DUP2 DUP6 PUSH1 0x20 DUP7 ADD PUSH2 0x2F7 JUMP JUMPDEST PUSH2 0x360 DUP2 PUSH2 0x321 JUMP JUMPDEST DUP5 ADD SWAP2 POP POP SWAP3 SWAP2 POP POP JUMP JUMPDEST PUSH2 0x374 DUP2 PUSH2 0x278 JUMP JUMPDEST DUP3 MSTORE POP POP JUMP JUMPDEST PUSH1 0x0 PUSH1 0x60 DUP3 ADD SWAP1 POP DUP2 DUP2 SUB PUSH1 0x0 DUP4 ADD MSTORE PUSH2 0x394 DUP2 DUP7 PUSH2 0x332 JUMP JUMPDEST SWAP1 POP DUP2 DUP2 SUB PUSH1 0x20 DUP4 ADD MSTORE PUSH2 0x3A8 DUP2 DUP6 PUSH2 0x332 JUMP JUMPDEST SWAP1 POP PUSH2 0x3B7 PUSH1 0x40 DUP4 ADD DUP5 PUSH2 0x36B JUMP JUMPDEST SWAP5 SWAP4 POP POP POP POP JUMP JUMPDEST PUSH1 0x0 PUSH20 0xFFFFFFFFFFFFFFFFFFFFFFFFFFFFFFFFFFFFFFFF DUP3 AND SWAP1 POP SWAP2 SWAP1 POP JUMP JUMPDEST PUSH1 0x0 PUSH2 0x3EA DUP3 PUSH2 0x3BF JUMP JUMPDEST SWAP1 POP SWAP2 SWAP1 POP JUMP JUMPDEST PUSH2 0x3FA DUP2 PUSH2 0x3DF JUMP JUMPDEST DUP2 EQ PUSH2 0x405 JUMPI PUSH1 0x0 DUP1 REVERT JUMPDEST POP JUMP JUMPDEST PUSH1 0x0 DUP2 CALLDATALOAD SWAP1 POP PUSH2 0x417 DUP2 PUSH2 0x3F1 JUMP JUMPDEST SWAP3 SWAP2 POP POP JUMP JUMPDEST PUSH1 0x0 PUSH1 0x20 DUP3 DUP5 SUB SLT ISZERO PUSH2 0x433 JUMPI PUSH2 0x432 PUSH2 0x273 JUMP JUMPDEST JUMPDEST PUSH1 0x0 PUSH2 0x441 DUP5 DUP3 DUP6 ADD PUSH2 0x408 JUMP JUMPDEST SWAP2 POP POP SWAP3 SWAP2 POP POP JUMP JUMPDEST PUSH1 0x0 DUP2 ISZERO ISZERO SWAP1 POP SWAP2 SWAP1 POP JUMP JUMPDEST PUSH2 0x45F DUP2 PUSH2 0x44A JUMP JUMPDEST DUP3 MSTORE POP POP JUMP JUMPDEST PUSH1 0x0 PUSH1 0x40 DUP3 ADD SWAP1 POP PUSH2 0x47A PUSH1 0x0 DUP4 ADD DUP6 PUSH2 0x456 JUMP JUMPDEST PUSH2 0x487 PUSH1 0x20 DUP4 ADD DUP5 PUSH2 0x456 JUMP JUMPDEST SWAP4 SWAP3 POP POP POP JUMP JUMPDEST PUSH2 0x497 DUP2 PUSH2 0x3DF JUMP JUMPDEST DUP3 MSTORE POP POP JUMP JUMPDEST PUSH1 0x0 PUSH1 0x20 DUP3 ADD SWAP1 POP PUSH2 0x4B2 PUSH1 0x0 DUP4 ADD DUP5 PUSH2 0x48E JUMP JUMPDEST SWAP3 SWAP2 POP POP JUMP JUMPDEST PUSH32 0x4E487B7100000000000000000000000000000000000000000000000000000000 PUSH1 0x0 MSTORE PUSH1 0x22 PUSH1 0x4 MSTORE PUSH1 0x24 PUSH1 0x0 REVERT JUMPDEST PUSH1 0x0 PUSH1 0x2 DUP3 DIV SWAP1 POP PUSH1 0x1 DUP3 AND DUP1 PUSH2 0x4FF JUMPI PUSH1 0x7F DUP3 AND SWAP2 POP JUMPDEST PUSH1 0x20 DUP3 LT DUP2 SUB PUSH2 0x512 JUMPI PUSH2 0x511 PUSH2 0x4B8 JUMP JUMPDEST JUMPDEST POP SWAP2 SWAP1 POP JUMP INVALID LOG2 PUSH5 0x6970667358 0x22 SLT KECCAK256 0xB5 SWAP7 PUSH8 0x7D7F55768577601E JUMPDEST 0xAF PUSH1 0x7C SUB DUP7 0x4F ADDMOD 0xA5 0xE4 DUP11 CALL SWAP4 0xB4 CALLCODE 0xE6 PUSH1 0xE8 0xE9 0xE0 PUSH10 0x64736F6C634300081100 CALLER "
				},
				"gasEstimates": {
					"creation": {
						"codeDepositCost": "271600",
						"executionCost": "infinite",
						"totalCost": "infinite"
					},
					"external": {
						"candidates(uint256)": "infinite",
						"contractOwner()": "2533",
						"voters(address)": "infinite"
					}
				},
				"methodIdentifiers": {
					"candidates(uint256)": "3477ee2e",
					"contractOwner()": "ce606ee0",
					"voters(address)": "a3ec138d"
				}
			},
			"storageLayout": {
				"storage": [
					{
						"astId": 15,
						"contract": "contracts/Ballot/MyBallot.sol:MyBallot",
						"label": "contractOwner",
						"offset": 0,
						"slot": "0",
						"type": "t_address"
					},
					{
						"astId": 20,
						"contract": "contracts/Ballot/MyBallot.sol:MyBallot",
						"label": "voters",
						"offset": 0,
						"slot": "1",
						"type": "t_mapping(t_address,t_struct(Voter)6_storage)"
					},
					{
						"astId": 24,
						"contract": "contracts/Ballot/MyBallot.sol:MyBallot",
						"label": "candidates",
						"offset": 0,
						"slot": "2",
						"type": "t_array(t_struct(Candidate)13_storage)dyn_storage"
					}
				],
				"types": {
					"t_address": {
						"encoding": "inplace",
						"label": "address",
						"numberOfBytes": "20"
					},
					"t_array(t_struct(Candidate)13_storage)dyn_storage": {
						"base": "t_struct(Candidate)13_storage",
						"encoding": "dynamic_array",
						"label": "struct MyBallot.Candidate[]",
						"numberOfBytes": "32"
					},
					"t_bool": {
						"encoding": "inplace",
						"label": "bool",
						"numberOfBytes": "1"
					},
					"t_mapping(t_address,t_struct(Voter)6_storage)": {
						"encoding": "mapping",
						"key": "t_address",
						"label": "mapping(address => struct MyBallot.Voter)",
						"numberOfBytes": "32",
						"value": "t_struct(Voter)6_storage"
					},
					"t_string_storage": {
						"encoding": "bytes",
						"label": "string",
						"numberOfBytes": "32"
					},
					"t_struct(Candidate)13_storage": {
						"encoding": "inplace",
						"label": "struct MyBallot.Candidate",
						"members": [
							{
								"astId": 8,
								"contract": "contracts/Ballot/MyBallot.sol:MyBallot",
								"label": "name",
								"offset": 0,
								"slot": "0",
								"type": "t_string_storage"
							},
							{
								"astId": 10,
								"contract": "contracts/Ballot/MyBallot.sol:MyBallot",
								"label": "party",
								"offset": 0,
								"slot": "1",
								"type": "t_string_storage"
							},
							{
								"astId": 12,
								"contract": "contracts/Ballot/MyBallot.sol:MyBallot",
								"label": "votesCount",
								"offset": 0,
								"slot": "2",
								"type": "t_uint256"
							}
						],
						"numberOfBytes": "96"
					},
					"t_struct(Voter)6_storage": {
						"encoding": "inplace",
						"label": "struct MyBallot.Voter",
						"members": [
							{
								"astId": 3,
								"contract": "contracts/Ballot/MyBallot.sol:MyBallot",
								"label": "canVote",
								"offset": 0,
								"slot": "0",
								"type": "t_bool"
							},
							{
								"astId": 5,
								"contract": "contracts/Ballot/MyBallot.sol:MyBallot",
								"label": "hasVoted",
								"offset": 1,
								"slot": "0",
								"type": "t_bool"
							}
						],
						"numberOfBytes": "32"
					},
					"t_uint256": {
						"encoding": "inplace",
						"label": "uint256",
						"numberOfBytes": "32"
					}
				}
			},
			"userdoc": {
				"kind": "user",
				"methods": {},
				"version": 1
			}
		}
	}
}